{
  "address": "0x7Ac266a3A72DBbB99ACfc3dEDA7fa4A97F4f210b",
  "abi": [
    {
      "inputs": [
        {
          "internalType": "address",
          "name": "signer_",
          "type": "address"
        },
        {
          "internalType": "contract IGasOracle",
          "name": "commitmentGasOracle_",
          "type": "address"
        },
        {
          "internalType": "contract IGasOracle",
          "name": "settlementGasOracle_",
          "type": "address"
        },
        {
          "internalType": "string",
          "name": "factoryType_",
          "type": "string"
        },
        {
          "internalType": "address",
          "name": "implementation_",
          "type": "address"
        }
      ],
      "stateMutability": "nonpayable",
      "type": "constructor"
    },
    {
      "inputs": [],
      "name": "FactoryNotInstanceError",
      "type": "error"
    },
    {
      "inputs": [
        {
          "internalType": "uint256",
          "name": "version",
          "type": "uint256"
        }
      ],
      "name": "InitializableAlreadyInitializedError",
      "type": "error"
    },
    {
      "inputs": [],
      "name": "InitializableNotInitializingError",
      "type": "error"
    },
    {
      "inputs": [],
      "name": "InitializableZeroVersionError",
      "type": "error"
    },
    {
      "inputs": [],
      "name": "KeeperFactoryAlreadyCreatedError",
      "type": "error"
    },
    {
      "inputs": [],
      "name": "KeeperFactoryInvalidIdError",
      "type": "error"
    },
    {
      "inputs": [],
      "name": "KeeperFactoryInvalidParameterError",
      "type": "error"
    },
    {
      "inputs": [],
      "name": "KeeperFactoryInvalidPayoffError",
      "type": "error"
    },
    {
      "inputs": [],
      "name": "KeeperFactoryInvalidSettleError",
      "type": "error"
    },
    {
      "inputs": [],
      "name": "KeeperFactoryNotCreatedError",
      "type": "error"
    },
    {
      "inputs": [],
      "name": "KeeperFactoryNotInstanceError",
      "type": "error"
    },
    {
      "inputs": [],
      "name": "KeeperFactoryVersionOutsideRangeError",
      "type": "error"
    },
    {
      "inputs": [],
      "name": "KeeperOracleParameterStorageInvalidError",
      "type": "error"
    },
    {
      "inputs": [],
      "name": "MetaQuantsFactoryInputLengthMismatchError",
      "type": "error"
    },
    {
      "inputs": [],
      "name": "MetaQuantsFactoryInvalidIdError",
      "type": "error"
    },
    {
      "inputs": [],
      "name": "MetaQuantsFactoryInvalidSignatureError",
      "type": "error"
    },
    {
      "inputs": [],
      "name": "OwnableAlreadyInitializedError",
      "type": "error"
    },
    {
      "inputs": [
        {
          "internalType": "address",
          "name": "sender",
          "type": "address"
        }
      ],
      "name": "OwnableNotOwnerError",
      "type": "error"
    },
    {
      "inputs": [
        {
          "internalType": "address",
          "name": "sender",
          "type": "address"
        }
      ],
      "name": "OwnableNotPendingOwnerError",
      "type": "error"
    },
    {
      "inputs": [
        {
          "internalType": "address",
          "name": "sender",
          "type": "address"
        }
      ],
      "name": "PausableNotPauserError",
      "type": "error"
    },
    {
      "inputs": [],
      "name": "PausablePausedError",
      "type": "error"
    },
    {
      "anonymous": false,
      "inputs": [
        {
          "indexed": false,
          "internalType": "uint256",
          "name": "version",
          "type": "uint256"
        }
      ],
      "name": "Initialized",
      "type": "event"
    },
    {
      "anonymous": false,
      "inputs": [
        {
          "indexed": true,
          "internalType": "contract IInstance",
          "name": "instance",
          "type": "address"
        }
      ],
      "name": "InstanceRegistered",
      "type": "event"
    },
    {
      "anonymous": false,
      "inputs": [
        {
          "indexed": true,
          "internalType": "bytes32",
          "name": "id",
          "type": "bytes32"
        },
        {
          "indexed": true,
          "internalType": "bytes32",
          "name": "underlyingId",
          "type": "bytes32"
        }
      ],
      "name": "OracleAssociated",
      "type": "event"
    },
    {
      "anonymous": false,
      "inputs": [
        {
          "indexed": true,
          "internalType": "contract IOracleProvider",
          "name": "oracle",
          "type": "address"
        },
        {
          "indexed": true,
          "internalType": "bytes32",
          "name": "id",
          "type": "bytes32"
        }
      ],
      "name": "OracleCreated",
      "type": "event"
    },
    {
      "anonymous": false,
      "inputs": [
        {
          "indexed": true,
          "internalType": "address",
          "name": "newOwner",
          "type": "address"
        }
      ],
      "name": "OwnerUpdated",
      "type": "event"
    },
    {
      "anonymous": false,
      "inputs": [
        {
          "components": [
            {
              "internalType": "uint256",
              "name": "latestGranularity",
              "type": "uint256"
            },
            {
              "internalType": "uint256",
              "name": "currentGranularity",
              "type": "uint256"
            },
            {
              "internalType": "uint256",
              "name": "effectiveAfter",
              "type": "uint256"
            },
            {
              "internalType": "UFixed6",
              "name": "oracleFee",
              "type": "uint256"
            },
            {
              "internalType": "uint256",
              "name": "validFrom",
              "type": "uint256"
            },
            {
              "internalType": "uint256",
              "name": "validTo",
              "type": "uint256"
            }
          ],
          "indexed": false,
          "internalType": "struct KeeperOracleParameter",
          "name": "newParameter",
          "type": "tuple"
        }
      ],
      "name": "ParameterUpdated",
      "type": "event"
    },
    {
      "anonymous": false,
      "inputs": [],
      "name": "Paused",
      "type": "event"
    },
    {
      "anonymous": false,
      "inputs": [
        {
          "indexed": true,
          "internalType": "address",
          "name": "newPauser",
          "type": "address"
        }
      ],
      "name": "PauserUpdated",
      "type": "event"
    },
    {
      "anonymous": false,
      "inputs": [
        {
          "indexed": true,
          "internalType": "contract IPayoffProvider",
          "name": "payoff",
          "type": "address"
        }
      ],
      "name": "PayoffRegistered",
      "type": "event"
    },
    {
      "anonymous": false,
      "inputs": [
        {
          "indexed": true,
          "internalType": "address",
          "name": "newPendingOwner",
          "type": "address"
        }
      ],
      "name": "PendingOwnerUpdated",
      "type": "event"
    },
    {
      "anonymous": false,
      "inputs": [],
      "name": "Unpaused",
      "type": "event"
    },
    {
      "inputs": [
        {
          "internalType": "bytes32",
          "name": "",
          "type": "bytes32"
        }
      ],
      "name": "_toUnderlyingPayoff",
      "outputs": [
        {
          "internalType": "contract IPayoffProvider",
          "name": "provider",
          "type": "address"
        },
        {
          "internalType": "int16",
          "name": "decimals",
          "type": "int16"
        }
      ],
      "stateMutability": "view",
      "type": "function"
    },
    {
      "inputs": [],
      "name": "acceptOwner",
      "outputs": [],
      "stateMutability": "nonpayable",
      "type": "function"
    },
    {
      "inputs": [
        {
          "internalType": "bytes32[]",
          "name": "oracleIds",
          "type": "bytes32[]"
        },
        {
          "internalType": "uint256",
          "name": "version",
          "type": "uint256"
        },
        {
          "internalType": "bytes",
          "name": "data",
          "type": "bytes"
        }
      ],
      "name": "commit",
      "outputs": [],
      "stateMutability": "payable",
      "type": "function"
    },
    {
      "inputs": [],
      "name": "commitmentGasOracle",
      "outputs": [
        {
          "internalType": "contract IGasOracle",
          "name": "",
          "type": "address"
        }
      ],
      "stateMutability": "view",
      "type": "function"
    },
    {
      "inputs": [
        {
          "internalType": "bytes32",
          "name": "oracleId",
          "type": "bytes32"
        },
        {
          "internalType": "bytes32",
          "name": "underlyingId",
          "type": "bytes32"
        },
        {
          "components": [
            {
              "internalType": "contract IPayoffProvider",
              "name": "provider",
              "type": "address"
            },
            {
              "internalType": "int16",
              "name": "decimals",
              "type": "int16"
            }
          ],
          "internalType": "struct IKeeperFactory.PayoffDefinition",
          "name": "payoff",
          "type": "tuple"
        }
      ],
      "name": "create",
      "outputs": [
        {
          "internalType": "contract IKeeperOracle",
          "name": "newOracle",
          "type": "address"
        }
      ],
      "stateMutability": "nonpayable",
      "type": "function"
    },
    {
      "inputs": [],
      "name": "current",
      "outputs": [
        {
          "internalType": "uint256",
          "name": "",
          "type": "uint256"
        }
      ],
      "stateMutability": "view",
      "type": "function"
    },
    {
      "inputs": [],
      "name": "factoryType",
      "outputs": [
        {
          "internalType": "string",
          "name": "",
          "type": "string"
        }
      ],
      "stateMutability": "view",
      "type": "function"
    },
    {
      "inputs": [
        {
          "internalType": "bytes32",
          "name": "",
          "type": "bytes32"
        },
        {
          "internalType": "contract IPayoffProvider",
          "name": "",
          "type": "address"
        }
      ],
      "name": "fromUnderlying",
      "outputs": [
        {
          "internalType": "bytes32",
          "name": "",
          "type": "bytes32"
        }
      ],
      "stateMutability": "view",
      "type": "function"
    },
    {
      "inputs": [
        {
          "internalType": "contract IOracleProvider",
          "name": "",
          "type": "address"
        }
      ],
      "name": "ids",
      "outputs": [
        {
          "internalType": "bytes32",
          "name": "",
          "type": "bytes32"
        }
      ],
      "stateMutability": "view",
      "type": "function"
    },
    {
      "inputs": [],
      "name": "implementation",
      "outputs": [
        {
          "internalType": "address",
          "name": "",
          "type": "address"
        }
      ],
      "stateMutability": "view",
      "type": "function"
    },
    {
      "inputs": [
        {
          "internalType": "contract IOracleFactory",
          "name": "oracleFactory_",
          "type": "address"
        }
      ],
      "name": "initialize",
      "outputs": [],
      "stateMutability": "nonpayable",
      "type": "function"
    },
    {
      "inputs": [
        {
          "internalType": "contract IInstance",
          "name": "instance",
          "type": "address"
        }
      ],
      "name": "instances",
      "outputs": [
        {
          "internalType": "bool",
          "name": "",
          "type": "bool"
        }
      ],
      "stateMutability": "view",
      "type": "function"
    },
    {
      "inputs": [],
      "name": "oracleFactory",
      "outputs": [
        {
          "internalType": "contract IOracleFactory",
          "name": "",
          "type": "address"
        }
      ],
      "stateMutability": "view",
      "type": "function"
    },
    {
      "inputs": [
        {
          "internalType": "bytes32",
          "name": "",
          "type": "bytes32"
        }
      ],
      "name": "oracles",
      "outputs": [
        {
          "internalType": "contract IOracleProvider",
          "name": "",
          "type": "address"
        }
      ],
      "stateMutability": "view",
      "type": "function"
    },
    {
      "inputs": [],
      "name": "owner",
      "outputs": [
        {
          "internalType": "address",
          "name": "",
          "type": "address"
        }
      ],
      "stateMutability": "view",
      "type": "function"
    },
    {
      "inputs": [],
      "name": "parameter",
      "outputs": [
        {
          "components": [
            {
              "internalType": "uint256",
              "name": "latestGranularity",
              "type": "uint256"
            },
            {
              "internalType": "uint256",
              "name": "currentGranularity",
              "type": "uint256"
            },
            {
              "internalType": "uint256",
              "name": "effectiveAfter",
              "type": "uint256"
            },
            {
              "internalType": "UFixed6",
              "name": "oracleFee",
              "type": "uint256"
            },
            {
              "internalType": "uint256",
              "name": "validFrom",
              "type": "uint256"
            },
            {
              "internalType": "uint256",
              "name": "validTo",
              "type": "uint256"
            }
          ],
          "internalType": "struct KeeperOracleParameter",
          "name": "",
          "type": "tuple"
        }
      ],
      "stateMutability": "view",
      "type": "function"
    },
    {
      "inputs": [],
      "name": "pause",
      "outputs": [],
      "stateMutability": "nonpayable",
      "type": "function"
    },
    {
      "inputs": [],
      "name": "paused",
      "outputs": [
        {
          "internalType": "bool",
          "name": "",
          "type": "bool"
        }
      ],
      "stateMutability": "view",
      "type": "function"
    },
    {
      "inputs": [],
      "name": "pauser",
      "outputs": [
        {
          "internalType": "address",
          "name": "",
          "type": "address"
        }
      ],
      "stateMutability": "view",
      "type": "function"
    },
    {
      "inputs": [
        {
          "internalType": "contract IPayoffProvider",
          "name": "",
          "type": "address"
        }
      ],
      "name": "payoffs",
      "outputs": [
        {
          "internalType": "bool",
          "name": "",
          "type": "bool"
        }
      ],
      "stateMutability": "view",
      "type": "function"
    },
    {
      "inputs": [],
      "name": "pendingOwner",
      "outputs": [
        {
          "internalType": "address",
          "name": "",
          "type": "address"
        }
      ],
      "stateMutability": "view",
      "type": "function"
    },
    {
      "inputs": [
        {
          "internalType": "contract IPayoffProvider",
          "name": "payoff",
          "type": "address"
        }
      ],
      "name": "register",
      "outputs": [],
      "stateMutability": "nonpayable",
      "type": "function"
    },
    {
      "inputs": [
        {
          "internalType": "bytes32[]",
          "name": "oracleIds",
          "type": "bytes32[]"
        },
        {
          "internalType": "uint256[]",
          "name": "versions",
          "type": "uint256[]"
        },
        {
          "internalType": "uint256[]",
          "name": "maxCounts",
          "type": "uint256[]"
        }
      ],
      "name": "settle",
      "outputs": [],
      "stateMutability": "nonpayable",
      "type": "function"
    },
    {
      "inputs": [],
      "name": "settlementGasOracle",
      "outputs": [
        {
          "internalType": "contract IGasOracle",
          "name": "",
          "type": "address"
        }
      ],
      "stateMutability": "view",
      "type": "function"
    },
    {
      "inputs": [],
      "name": "signer",
      "outputs": [
        {
          "internalType": "address",
          "name": "",
          "type": "address"
        }
      ],
      "stateMutability": "view",
      "type": "function"
    },
    {
      "inputs": [
        {
          "internalType": "bytes32",
          "name": "",
          "type": "bytes32"
        }
      ],
      "name": "toUnderlyingId",
      "outputs": [
        {
          "internalType": "bytes32",
          "name": "",
          "type": "bytes32"
        }
      ],
      "stateMutability": "view",
      "type": "function"
    },
    {
      "inputs": [
        {
          "internalType": "bytes32",
          "name": "id",
          "type": "bytes32"
        }
      ],
      "name": "toUnderlyingPayoff",
      "outputs": [
        {
          "components": [
            {
              "internalType": "contract IPayoffProvider",
              "name": "provider",
              "type": "address"
            },
            {
              "internalType": "int16",
              "name": "decimals",
              "type": "int16"
            }
          ],
          "internalType": "struct IKeeperFactory.PayoffDefinition",
          "name": "",
          "type": "tuple"
        }
      ],
      "stateMutability": "view",
      "type": "function"
    },
    {
      "inputs": [],
      "name": "unpause",
      "outputs": [],
      "stateMutability": "nonpayable",
      "type": "function"
    },
    {
      "inputs": [
        {
          "internalType": "contract IOracleProvider",
          "name": "oracleProvider",
          "type": "address"
        },
        {
          "internalType": "bytes32",
          "name": "oracleId",
          "type": "bytes32"
        }
      ],
      "name": "updateId",
      "outputs": [],
      "stateMutability": "nonpayable",
      "type": "function"
    },
    {
      "inputs": [
        {
          "internalType": "uint256",
          "name": "newGranularity",
          "type": "uint256"
        },
        {
          "internalType": "UFixed6",
          "name": "newOraclefee",
          "type": "uint256"
        },
        {
          "internalType": "uint256",
          "name": "newValidFrom",
          "type": "uint256"
        },
        {
          "internalType": "uint256",
          "name": "newValidTo",
          "type": "uint256"
        }
      ],
      "name": "updateParameter",
      "outputs": [],
      "stateMutability": "nonpayable",
      "type": "function"
    },
    {
      "inputs": [
        {
          "internalType": "address",
          "name": "newPauser",
          "type": "address"
        }
      ],
      "name": "updatePauser",
      "outputs": [],
      "stateMutability": "nonpayable",
      "type": "function"
    },
    {
      "inputs": [
        {
          "internalType": "address",
          "name": "newPendingOwner",
          "type": "address"
        }
      ],
      "name": "updatePendingOwner",
      "outputs": [],
      "stateMutability": "nonpayable",
      "type": "function"
    }
  ],
  "transactionHash": "0x8237c3926858b2315fdea97182f89bd4b71e1174c6c59d680388da0a746654d1",
  "args": [
    "0x6B9d43F52C7d49C298c69d2e4C26f58D20886256",
    "0x9BBcdf9730676B751E3Cc4E48014c6639cA13bCB",
    "0xc3937cd32Ba630c6c3bA4E0d4b7fE231aDEeF8e6",
    "CryptexFactory",
    "0x02e8ff54C2ecF0b89149e9b0f844a0d5424f0B0A"
  ],
  "numDeployments": 3,
  "solcInputHash": "dc16fd0d81ad66f04852c4973b71ffeb",
  "bytecode": "0x610120604052346200015c5762003c04803803806200001e8162000174565b92833981019060a0818303126200015c576200003a816200019a565b6020916200004a8382016200019a565b62000058604083016200019a565b60608301519092906001600160401b03908181116200015c57820187601f820112156200015c57805191821162000160576200009d601f8301601f1916880162000174565b978289528783830101116200015c579086915f5b82811062000147575050915f608092620000d0948a010152016200019a565b60805260a05260c05260e0528082519201519080831062000136575b5017610100908152604051613a549182620001b0833960805182611391015260a051826114c9015260c05182610fa4015260e05182818161174f0152611e55015251816112990152f35b825f19910360031b1b165f620000ec565b8181018401518a8201850152889301620000b1565b5f80fd5b634e487b7160e01b5f52604160045260245ffd5b6040519190601f01601f191682016001600160401b038111838210176200016057604052565b51906001600160a01b03821682036200015c5756fe608080604052600436101562000013575f80fd5b5f3560e01c908163032bb44314620024e65750806303612cb5146200232c5780631847c06b14620022c55780631e298b901462001773578063238ac9331462001703578063344e0f8a14620016b95780633f4ba83a14620015c75780634420e48614620014ed5780634a13527f146200147d578063554bab3c14620013b55780635c60da1b14620013455780635c975abb14620012e757806364e1fd5514620012635780637211af6814620011c75780638456cb5914620010a45780638da5cb5b14620010325780639571b1ec1462000fc85780639c2dd5cb1462000f585780639fa6a6e31462000f145780639fd0506d1462000ea2578063a81a26771462000e42578063acf558b71462000dcc578063ad4d4e291462000d7f578063b32a1e5d14620009fd578063b5ee69551462000935578063c36e389d14620008c9578063c4d66de81462000675578063c7f7fb901462000623578063ce45a55c1462000591578063d5b8621b146200035e578063e30c397814620002ec5763ebbc4965146200019d575f80fd5b34620002e8575f7ffffffffffffffffffffffffffffffffffffffffffffffffffffffffffffffffc360112620002e8577f675c83682abbc3e7dd47e40515a778fbbde4393395c3dd3588244203c3e47883805473ffffffffffffffffffffffffffffffffffffffff811690813303620002b8577fe7742ddf0fecd2926e7ef4d6d6e91a7b2f0b1f8805b78953dac8454e86273ed255807f4ffd725fc4a22075e9ec71c59edf9c38cdeb588a91b24fc5b61388c5be41282b5f80a2330362000288575f90555f7f69f201bc2089b9be6195d876d97a0136b4cf56bbf8986a52dcb50697f7d1cac58180a2005b60246040517f99bf6359000000000000000000000000000000000000000000000000000000008152336004820152fd5b60246040517fd0d5e1b0000000000000000000000000000000000000000000000000000000008152336004820152fd5b5f80fd5b34620002e8575f7ffffffffffffffffffffffffffffffffffffffffffffffffffffffffffffffffc360112620002e85760207f675c83682abbc3e7dd47e40515a778fbbde4393395c3dd3588244203c3e478835473ffffffffffffffffffffffffffffffffffffffff60405191168152f35b34620002e85760807ffffffffffffffffffffffffffffffffffffffffffffffffffffffffffffffffc360112620002e857600435602435907fe7742ddf0fecd2926e7ef4d6d6e91a7b2f0b1f8805b78953dac8454e86273ed25473ffffffffffffffffffffffffffffffffffffffff90813391160362000288576004926060620003e762002810565b925f5416604051958680927fad4d4e290000000000000000000000000000000000000000000000000000000082525afa93841562000586575f9462000528575b506200043262002c94565b9160408301948551821115620004fe5780518511620004fe576200045d60406002920151846200307d565b14620004fe577f5951e2a6e77811e9385b71ff07361bcf55736dcd7f0a9075e090b88af2a645f994620004f994602085018051865252526060820152604435608082015260643560a0820152620004b48162002d2c565b6040519182918291909160a08060c083019480518452602081015160208501526040810151604085015260608101516060850152608081015160808501520151910152565b0390a1005b60046040517fef8e774c000000000000000000000000000000000000000000000000000000008152fd5b9093506060813d6060116200057d575b816200054760609383620025dc565b81010312620002e85760408051916200056083620025a2565b805183526020810151602084015201516040820152928462000427565b3d915062000538565b6040513d5f823e3d90fd5b34620002e85760407ffffffffffffffffffffffffffffffffffffffffffffffffffffffffffffffffc360112620002e857620005cc62002707565b7fe7742ddf0fecd2926e7ef4d6d6e91a7b2f0b1f8805b78953dac8454e86273ed2549073ffffffffffffffffffffffffffffffffffffffff9182339116036200028857165f52600760205260243560405f20555f80f35b34620002e8575f7ffffffffffffffffffffffffffffffffffffffffffffffffffffffffffffffffc360112620002e857602073ffffffffffffffffffffffffffffffffffffffff5f5416604051908152f35b34620002e85760207ffffffffffffffffffffffffffffffffffffffffffffffffffffffffffffffffc360112620002e85760043573ffffffffffffffffffffffffffffffffffffffff90818116809103620002e85760017f6fee9688c285c5c5c97d6a1a29adced674e6b2ad0888b8ad2116b58a8b3ea248818154101562000898578190557f2801b00eb06461cf9fcb9758b5fafd884ff06a86177386f73b6c49f0bf5a5af092818455303b15158062000890575b6200085e57303b15158062000888575b6200085e577fe7742ddf0fecd2926e7ef4d6d6e91a7b2f0b1f8805b78953dac8454e86273ed29081541662000834577fbe9b076dc5b65990cca9dd9d7366682482e7817a6f6bc7f4faf4dc32af497f32936020935f92339055337f4ffd725fc4a22075e9ec71c59edf9c38cdeb588a91b24fc5b61388c5be41282b8480a27fffffffffffffffffffffffff000000000000000000000000000000000000000083541617825581805282845260408220837fffffffffffffffffffffffffffffffffffffffffffffffffffffffffffffff008254161790556200082a6200081f620028ea565b848682015262002d2c565b55604051908152a1005b60046040517fe43bdd4e000000000000000000000000000000000000000000000000000000008152fd5b60046040517fb9a621e1000000000000000000000000000000000000000000000000000000008152fd5b505f6200073a565b505f6200072a565b602482604051907f3db738da0000000000000000000000000000000000000000000000000000000082526004820152fd5b34620002e85760207ffffffffffffffffffffffffffffffffffffffffffffffffffffffffffffffffc360112620002e85773ffffffffffffffffffffffffffffffffffffffff6200091962002707565b165f526001602052602060ff60405f2054166040519015158152f35b34620002e85760207ffffffffffffffffffffffffffffffffffffffffffffffffffffffffffffffffc360112620002e85773ffffffffffffffffffffffffffffffffffffffff60043581811691828203620002e8577fe7742ddf0fecd2926e7ef4d6d6e91a7b2f0b1f8805b78953dac8454e86273ed2543391160362000288577f675c83682abbc3e7dd47e40515a778fbbde4393395c3dd3588244203c3e47883557f69f201bc2089b9be6195d876d97a0136b4cf56bbf8986a52dcb50697f7d1cac55f80a2005b34620002e85760807ffffffffffffffffffffffffffffffffffffffffffffffffffffffffffffffffc360112620002e8576024356004356040367fffffffffffffffffffffffffffffffffffffffffffffffffffffffffffffffbc0112620002e85760405162000a6d8162002585565b73ffffffffffffffffffffffffffffffffffffffff906044358281168103620002e8578152606435918260010b8303620002e8576020948583019384527fe7742ddf0fecd2926e7ef4d6d6e91a7b2f0b1f8805b78953dac8454e86273ed25482339116036200028857845f52600286528160405f20541662000d2b57818351165f526001865260ff60405f2054161562000d5557805f526005865260405f20828451165f52865260405f205462000d2b576040517f8129fc1c00000000000000000000000000000000000000000000000000000000878201526004815262000b558162002585565b6040519061072f908183019083821067ffffffffffffffff83111762000cfe57604062000b94928594620032f08639308152818c82015201906200274e565b03905ff080156200058657821693845f527f81796b4965de195665289d95668a8a9e7020858e15f5341c42bcf9951c1768ad875260405f2060017fffffffffffffffffffffffffffffffffffffffffffffffffffffffffffffff00825416179055847f4fe45192317a7d3ad19c3eaa395c0c3a1b7a0f53c3536fb96764c3561a8e9dad5f80a2855f526002875260405f20857fffffffffffffffffffffffff0000000000000000000000000000000000000000825416179055845f52600787528560405f2055855f52600387528160405f20556004875260405f2090838551167fffffffffffffffffffff000000000000000000000000000000000000000000008354925160a01b75ffff0000000000000000000000000000000000000000169216171790555f526005855260405f209151165f5283528160405f205560405191817fb37c10e9bd31f2f04a1985d7ae7c9fd566192aa02f769929da69b972f73ff9955f80a38152f35b7f4e487b71000000000000000000000000000000000000000000000000000000005f52604160045260245ffd5b60046040517f953ec95c000000000000000000000000000000000000000000000000000000008152fd5b60046040517fb2e11555000000000000000000000000000000000000000000000000000000008152fd5b34620002e8575f7ffffffffffffffffffffffffffffffffffffffffffffffffffffffffffffffffc360112620002e85762000db9620028ea565b5062000dc8620004b462002c94565b0390f35b34620002e85760407ffffffffffffffffffffffffffffffffffffffffffffffffffffffffffffffffc360112620002e85760243573ffffffffffffffffffffffffffffffffffffffff8116809103620002e8576004355f52600560205260405f20905f52602052602060405f2054604051908152f35b34620002e85760207ffffffffffffffffffffffffffffffffffffffffffffffffffffffffffffffffc360112620002e8576004355f526002602052602073ffffffffffffffffffffffffffffffffffffffff60405f205416604051908152f35b34620002e8575f7ffffffffffffffffffffffffffffffffffffffffffffffffffffffffffffffffc360112620002e85760207f18e50ee9696440d335192aeeeffc26f47782eaa914f1700d8ad36d6d7f7261b35473ffffffffffffffffffffffffffffffffffffffff60405191168152f35b34620002e8575f7ffffffffffffffffffffffffffffffffffffffffffffffffffffffffffffffffc360112620002e857602062000f5062002810565b604051908152f35b34620002e8575f7ffffffffffffffffffffffffffffffffffffffffffffffffffffffffffffffffc360112620002e857602060405173ffffffffffffffffffffffffffffffffffffffff7f0000000000000000000000000000000000000000000000000000000000000000168152f35b34620002e85760207ffffffffffffffffffffffffffffffffffffffffffffffffffffffffffffffffc360112620002e8576004355f5260046020526040805f205481519073ffffffffffffffffffffffffffffffffffffffff8116825260a01c60010b6020820152f35b34620002e8575f7ffffffffffffffffffffffffffffffffffffffffffffffffffffffffffffffffc360112620002e85760207fe7742ddf0fecd2926e7ef4d6d6e91a7b2f0b1f8805b78953dac8454e86273ed25473ffffffffffffffffffffffffffffffffffffffff60405191168152f35b34620002e8575f7ffffffffffffffffffffffffffffffffffffffffffffffffffffffffffffffffc360112620002e85773ffffffffffffffffffffffffffffffffffffffff807f18e50ee9696440d335192aeeeffc26f47782eaa914f1700d8ad36d6d7f7261b35416331415908162001198575b50620011685760017f3d13b7e57307bea7f94c474c597247d2da93d7de9136f8e123ed6525f50bbcec557f9e87fac88ff661f02d44f95383c817fece4bce600a3dab7a54406878b965e7525f80a1005b60246040517ff7987a92000000000000000000000000000000000000000000000000000000008152336004820152fd5b90507fe7742ddf0fecd2926e7ef4d6d6e91a7b2f0b1f8805b78953dac8454e86273ed254163314158162001118565b34620002e85760207ffffffffffffffffffffffffffffffffffffffffffffffffffffffffffffffffc360112620002e8575f6020604051620012098162002585565b82815201526004355f5260046020526040805f208151906200122b8262002585565b54602073ffffffffffffffffffffffffffffffffffffffff821692838152019060a01c60010b815282519182525160010b6020820152f35b34620002e8575f7ffffffffffffffffffffffffffffffffffffffffffffffffffffffffffffffffc360112620002e85762000dc87f000000000000000000000000000000000000000000000000000000000000000060405190620012c78262002585565b60ff8116825260208201526040519182916020835260208301906200274e565b34620002e8575f7ffffffffffffffffffffffffffffffffffffffffffffffffffffffffffffffffc360112620002e85760207f3d13b7e57307bea7f94c474c597247d2da93d7de9136f8e123ed6525f50bbcec546040519015158152f35b34620002e8575f7ffffffffffffffffffffffffffffffffffffffffffffffffffffffffffffffffc360112620002e857602060405173ffffffffffffffffffffffffffffffffffffffff7f0000000000000000000000000000000000000000000000000000000000000000168152f35b34620002e85760207ffffffffffffffffffffffffffffffffffffffffffffffffffffffffffffffffc360112620002e85773ffffffffffffffffffffffffffffffffffffffff60043581811691828203620002e8577fe7742ddf0fecd2926e7ef4d6d6e91a7b2f0b1f8805b78953dac8454e86273ed2543391160362000288577f18e50ee9696440d335192aeeeffc26f47782eaa914f1700d8ad36d6d7f7261b3557fa4336c0cb1e245b95ad204faed7e940d6dc999684fd8b5e1ff597a0c4efca8ab5f80a2005b34620002e8575f7ffffffffffffffffffffffffffffffffffffffffffffffffffffffffffffffffc360112620002e857602060405173ffffffffffffffffffffffffffffffffffffffff7f0000000000000000000000000000000000000000000000000000000000000000168152f35b34620002e85760207ffffffffffffffffffffffffffffffffffffffffffffffffffffffffffffffffc360112620002e8576200152862002707565b7fe7742ddf0fecd2926e7ef4d6d6e91a7b2f0b1f8805b78953dac8454e86273ed2549073ffffffffffffffffffffffffffffffffffffffff918233911603620002885716805f52600160205260405f2060017fffffffffffffffffffffffffffffffffffffffffffffffffffffffffffffff008254161790557fb74a9480da82c8aeaa0a8d11c6b669cf4523927638ab05e29c80cef6abd7d7bd5f80a2005b34620002e8575f7ffffffffffffffffffffffffffffffffffffffffffffffffffffffffffffffffc360112620002e85773ffffffffffffffffffffffffffffffffffffffff807f18e50ee9696440d335192aeeeffc26f47782eaa914f1700d8ad36d6d7f7261b3541633141590816200168a575b5062001168575f7f3d13b7e57307bea7f94c474c597247d2da93d7de9136f8e123ed6525f50bbcec557fa45f47fdea8a1efdd9029a5691c7f759c32b7c698632b563573e155625d169335f80a1005b90507fe7742ddf0fecd2926e7ef4d6d6e91a7b2f0b1f8805b78953dac8454e86273ed25416331415816200163b565b34620002e85760207ffffffffffffffffffffffffffffffffffffffffffffffffffffffffffffffffc360112620002e8576004355f526003602052602060405f2054604051908152f35b34620002e8575f7ffffffffffffffffffffffffffffffffffffffffffffffffffffffffffffffffc360112620002e857602060405173ffffffffffffffffffffffffffffffffffffffff7f0000000000000000000000000000000000000000000000000000000000000000168152f35b60607ffffffffffffffffffffffffffffffffffffffffffffffffffffffffffffffffc360112620002e85760043567ffffffffffffffff8111620002e857620017c190369060040162002637565b67ffffffffffffffff60443511620002e857366023604435011215620002e8576044356004013567ffffffffffffffff8111620002e85736602482604435010111620002e8576200181382516200291c565b5f5b83518110156200188b576200182b818562002793565b515f52600360205260405f205462001844828462002793565b5262001851818362002793565b5115620018615760010162001815565b60046040517f7e387175000000000000000000000000000000000000000000000000000000008152fd5b506200189881516200291c565b90620018a581516200291c565b5f945f5b83518110156200198557620018bf818562002f57565b80820362001907575080620018d78860019362002971565b80620018e4838762002793565b52620018fe620018f5838862002793565b51918862002793565b525b01620018a9565b62001916908498929862002793565b5162001923888562002793565b527fffffffffffffffffffffffffffffffffffffffffffffffffffffffffffffffff8114620019585760018091019662001900565b7f4e487b71000000000000000000000000000000000000000000000000000000005f52601160045260245ffd5b50946200199a90620019a09295935162002971565b6200291c565b935f5b8551811015620019d15780620019bc6001928662002793565b51620019c9828962002793565b5201620019a3565b5091509160608362001af4575b83620019f1939495501515918462002a5a565b5f5b835181101562001af25762001a09818562002793565b515f526020906002825273ffffffffffffffffffffffffffffffffffffffff60405f2054169162001a3b828662002793565b516040519162001a4b83620025a2565b602435835282019081526040820193881515855262001a6b848762002793565b5192813b15620002e8575f60a492819560405198899687957f99db0ab2000000000000000000000000000000000000000000000000000000008752516004870152516024860152511515604485015233606485015260848401525af1918215620005865760019262001ae0575b5001620019f3565b62001aeb9062002570565b8662001ad8565b005b5060206044358481010312620002e857602460443501359067ffffffffffffffff8211620002e857602484604435010160438360443501011215620002e8576024826044350101359162001b48836200261e565b9262001b586040519485620025dc565b80845260208401602487604435010160448360051b85823501010111620002e85760448381350101905b60448360051b8582350101018210620021e157505050508151855103620021b757928451927fffffffffffffffffffffffffffffffffffffffffffffffffffffffffffffffe062001bf062001bd7866200261e565b9562001be76040519788620025dc565b8087526200261e565b015f5b818110620021855750505f945b8351861015620020c85762001c16868562002793565b515191602062001c27888762002793565b510151835190945f93827a184f03e93ff9f4daa797ed6e38ed64bf6a1f01000000000000000080821015620020b8575b50600a906d04ee2d6d415b85acef810000000080821015620020aa575b50662386f26fc10000808210156200209c575b506305f5e100808210156200208e575b506127108082101562002080575b5060648082101562002072575b50101562002067575b600a7fffffffffffffffffffffffffffffffffffffffffffffffffffffffffffffffff602160018801977fffffffffffffffffffffffffffffffffffffffffffffffffffffffffffffffe062001d2e62001d158b620027d5565b9a62001d256040519c8d620025dc565b808c52620027d5565b013660208b01378801015b01937f30313233343536373839616263646566000000000000000000000000000000008282061a85530492831562001d95577fffffffffffffffffffffffffffffffffffffffffffffffffffffffffffffffff600a9162001d39565b509562001e3d925073ffffffffffffffffffffffffffffffffffffffff939562001e34929a9562001e2b604051918260208101947f19457468657265756d205369676e6564204d6573736167653a0a0000000000008652603a9262001e0481518092602087870191016200272b565b820162001e1b82518093602087850191016200272b565b0103601a810184520182620025dc565b51902062003090565b919091620030c8565b1673ffffffffffffffffffffffffffffffffffffffff7f000000000000000000000000000000000000000000000000000000000000000016036200203d5762001e87818562002793565b51519081518201828103926101408412620002e8576101206040519462001eae8662002585565b12620002e8576101409062001ef360206040519462001ecd86620025a2565b81840151865262001ee482820160408601620029cb565b828701520160c08301620029cb565b6040840152828552015160208401525162001f0f828a62002793565b51036200201357602082510151916040835160070b930151927fffffffffffffffffffffffffffffffffffffffffffffffffffffffff8000000060128560030b0112637fffffff60128660030b0113176200195857601260019460030b0160030b915f6060602062001f9562001f8f62001f898862002f95565b62002a3d565b62002fa5565b93510151015193121562001ff75762001fb262001fb89262002fa5565b62003003565b6040519162001fc783620025a2565b825260208201525f604082015262001fe0828862002793565b5262001fed818762002793565b5001949162001c00565b6200200c90670de0b6b3a76400009262002fc3565b0562001fb8565b60046040517f28ae5d44000000000000000000000000000000000000000000000000000000008152fd5b60046040517f04eecc2b000000000000000000000000000000000000000000000000000000008152fd5b936001019362001cbb565b600291049601958d62001cb2565b600491049601958d62001ca5565b600891049601958d62001c97565b601091049601958d62001c87565b602091049601958d62001c74565b6040965084049050600a62001c57565b925092935093508293620020db62002c94565b9260808401925f5b86518110156200217357620020f9818862002793565b51516200210a865160243562002a4c565b1180156200214b575b6200212157600101620020e3565b60046040517f0afa0593000000000000000000000000000000000000000000000000000000008152fd5b5062002158818862002793565b51516200216c60a088015160243562002a4c565b1062002113565b509195869550909350909150620019de565b6020906040979497516200219981620025a2565b5f81525f838201525f60408201528282890101520195929562001bf3565b60046040517f68255683000000000000000000000000000000000000000000000000000000008152fd5b67ffffffffffffffff823511620002e85760407fffffffffffffffffffffffffffffffffffffffffffffffffffffffffffffffe083358660443501018a60443501030112620002e857604051620022388162002585565b604483358682350101013567ffffffffffffffff8111620002e8576200227190604460248c82350101918635898335010101016200297f565b815260648335866044350101013567ffffffffffffffff8111620002e857604492602092620022b384938660248f823501019189358c8335010101016200297f565b83820152815201920191905062001b82565b34620002e85760207ffffffffffffffffffffffffffffffffffffffffffffffffffffffffffffffffc360112620002e85773ffffffffffffffffffffffffffffffffffffffff6200231562002707565b165f526007602052602060405f2054604051908152f35b34620002e85760607ffffffffffffffffffffffffffffffffffffffffffffffffffffffffffffffffc360112620002e85767ffffffffffffffff600435818111620002e8576200238190369060040162002637565b602491602435818111620002e8576200239f9036906004016200269f565b92604491604435908111620002e857620023be9036906004016200269f565b9383518015908115620024d9575b8115620024cc575b50620024a2575f5b845181101562001af257620023f2818662002793565b515f52600260205273ffffffffffffffffffffffffffffffffffffffff60405f2054169062002422818462002793565b516200242f828962002793565b51833b15620002e85760645f928360405196879485937e353ceb00000000000000000000000000000000000000000000000000000000855260048501528a840152338b8401525af1918215620005865760019262002490575b5001620023dc565b6200249b9062002570565b8762002488565b60046040517fb043fd7b000000000000000000000000000000000000000000000000000000008152fd5b90508551141586620023d4565b82518114159150620023cc565b34620002e85760207ffffffffffffffffffffffffffffffffffffffffffffffffffffffffffffffffc360112620002e8576004359073ffffffffffffffffffffffffffffffffffffffff8216809203620002e8576020915f527f81796b4965de195665289d95668a8a9e7020858e15f5341c42bcf9951c1768ad825260ff60405f20541615158152f35b67ffffffffffffffff811162000cfe57604052565b6040810190811067ffffffffffffffff82111762000cfe57604052565b6060810190811067ffffffffffffffff82111762000cfe57604052565b60c0810190811067ffffffffffffffff82111762000cfe57604052565b90601f7fffffffffffffffffffffffffffffffffffffffffffffffffffffffffffffffe0910116810190811067ffffffffffffffff82111762000cfe57604052565b67ffffffffffffffff811162000cfe5760051b60200190565b9080601f83011215620002e857602090823562002654816200261e565b93620026646040519586620025dc565b81855260208086019260051b820101928311620002e857602001905b8282106200268f575050505090565b8135815290830190830162002680565b9080601f83011215620002e8576020908235620026bc816200261e565b93620026cc6040519586620025dc565b81855260208086019260051b820101928311620002e857602001905b828210620026f7575050505090565b81358152908301908301620026e8565b6004359073ffffffffffffffffffffffffffffffffffffffff82168203620002e857565b5f5b8381106200273d5750505f910152565b81810151838201526020016200272d565b907fffffffffffffffffffffffffffffffffffffffffffffffffffffffffffffffe0601f6020936200278c815180928187528780880191016200272b565b0116010190565b8051821015620027a85760209160051b010190565b7f4e487b71000000000000000000000000000000000000000000000000000000005f52603260045260245ffd5b67ffffffffffffffff811162000cfe57601f017fffffffffffffffffffffffffffffffffffffffffffffffffffffffffffffffe01660200190565b6200281a62002c94565b60408101514211620028e057515b4262002844575f5b818102918183041490151715620019585790565b7fffffffffffffffffffffffffffffffffffffffffffffffffffffffffffffffff420142811162001958578115620028b357819004600181018091111562002830577f4e487b71000000000000000000000000000000000000000000000000000000005f52601160045260245ffd5b7f4e487b71000000000000000000000000000000000000000000000000000000005f52601260045260245ffd5b6020015162002828565b60405190620028f982620025bf565b5f60a0838281528260208201528260408201528260608201528260808201520152565b9062002928826200261e565b620029376040519182620025dc565b8281527fffffffffffffffffffffffffffffffffffffffffffffffffffffffffffffffe06200296782946200261e565b0190602036910137565b919082039182116200195857565b81601f82011215620002e8578035906200299982620027d5565b92620029a96040519485620025dc565b82845260208383010111620002e857815f926020809301838601378301015290565b9190826080910312620002e85760405167ffffffffffffffff92608082018481118382101762000cfe57604052819381518060070b8103620002e857835260208201519081168103620002e857602083015260408101518060030b8103620002e8576040830152606090810151910152565b604d81116200195857600a0a90565b919082018092116200195857565b9392919084519462002a6c866200261e565b9062002a8b60409762002a8289519485620025dc565b8084526200261e565b7fffffffffffffffffffffffffffffffffffffffffffffffffffffffffffffffe06020910136828501378262002ac283516200291c565b961562002c8857505f5b825181101562002c7e578162002aef62002ae7838862002793565b518862002793565b5101519062002aff818562002793565b515f526004918284528a5f208b8581519262002b1b8462002585565b549573ffffffffffffffffffffffffffffffffffffffff87169283855282600195019760a01c850b88528362002be6575b5050505090835f64e8d4a510009362002b7262001f8f62001f8960019951840b62002f95565b9251900b121562002bca5762001fb262002b8c9262002fa5565b0562002b99828762002793565b528962002bb362002bab838962002793565b518962002793565b51015162002bc2828a62002793565b520162002acc565b62002bdf90670de0b6b3a76400009262002fc3565b0562002b8c565b9060249195929394955194859384927fd7c7a9350000000000000000000000000000000000000000000000000000000084528301525afa90811562002c74575f9162002c3e575b5090838564e8d4a510008e62002b4c565b9190508482813d831162002c6c575b62002c598183620025dc565b81010312620002e8579051600162002c2d565b503d62002c4d565b8c513d5f823e3d90fd5b5050509450505090565b95975050505050509190565b62002c9e620028ea565b5060405162002cad81620025bf565b60a060065461ffff80821693848152818360101c1680602083015263ffffffff8460201c169182604082015262ffffff8560401c1693846060830152808660581c169586608084015260681c1695869101526040519562002d0e87620025bf565b8652602086015260408501526060840152608083015260a082015290565b60018151108062002f49575b62002f1f576020810190600182511062002f1f5761ffff918282511162002f1f578281511162002f1f576040908183019063ffffffff918281511162002ef6576060850191600262002d8b84516200305a565b1462002ecd5760808601938785511162002ea45760a08701968888511162002e7b579263ffff00006affffff0000000000000000959367ffffffff000000009360a08c6cffff00000000000000000000009b9a98511692519451965197519b519c8a519262002dfa84620025bf565b848452818716602085015288168b84015262ffffff89166060840152808d1660808401528d169101527fffffffffffffffffffffffffffffffffff0000000000000000000000000000006effff000000000000000000000000006006549c60681b169b16179160101b16179160201b1617921b16179160581b161717600655565b600487517fff590172000000000000000000000000000000000000000000000000000000008152fd5b600486517fff590172000000000000000000000000000000000000000000000000000000008152fd5b600485517fff590172000000000000000000000000000000000000000000000000000000008152fd5b600484517fff590172000000000000000000000000000000000000000000000000000000008152fd5b60046040517fff590172000000000000000000000000000000000000000000000000000000008152fd5b506040810151151562002d38565b5f5b82811062002f6657505090565b62002f72838362002793565b5162002f7f828462002793565b511462002f8f5760010162002f59565b91505090565b5f811262002fa05790565b5f0390565b90670de0b6b3a7640000918281029281840514901517156200195857565b81810292915f82127f8000000000000000000000000000000000000000000000000000000000000000821416620019585781840514901517156200195857565b8115620028b3577fffffffffffffffffffffffffffffffffffffffffffffffffffffffffffffffff82147f800000000000000000000000000000000000000000000000000000000000000082141662001958570590565b62ffffff908181116200307657106200307257600190565b5f90565b5050600290565b8181116200307657106200307257600190565b9060418151145f14620030bf57620030bb91602082015190606060408401519301515f1a9062003264565b9091565b50505f90600290565b6005811015620032375780620030db5750565b60018103620031425760646040517f08c379a000000000000000000000000000000000000000000000000000000000815260206004820152601860248201527f45434453413a20696e76616c6964207369676e617475726500000000000000006044820152fd5b60028103620031a95760646040517f08c379a000000000000000000000000000000000000000000000000000000000815260206004820152601f60248201527f45434453413a20696e76616c6964207369676e6174757265206c656e677468006044820152fd5b600314620031b357565b60846040517f08c379a000000000000000000000000000000000000000000000000000000000815260206004820152602260248201527f45434453413a20696e76616c6964207369676e6174757265202773272076616c60448201527f75650000000000000000000000000000000000000000000000000000000000006064820152fd5b7f4e487b71000000000000000000000000000000000000000000000000000000005f52602160045260245ffd5b7f7fffffffffffffffffffffffffffffff5d576e7357a4501ddfe92f46681b20a08411620032e4576020935f9360ff60809460405194855216868401526040830152606082015282805260015afa1562000586575f5173ffffffffffffffffffffffffffffffffffffffff811615620032dc57905f90565b505f90600190565b505050505f9060039056fe608060409080825261072f80380380916100198285610342565b833981019082818303126102385761003081610365565b6020828101516001600160401b039391929184821161023857019084601f830112156102385781519161006283610379565b9261006f88519485610342565b8084528484019685828401011161023857868561008c9301610394565b803b156102f0578551635c60da1b60e01b80825292916001600160a01b0316908481600481855afa9081156102e6575f916102b1575b503b15610254577fa3f0ad74e5423aebfd80d3ef4346578335a9a72aeaee59ff6cb3582b35133d5080546001600160a01b03191682179055865192817f1cf3b03a6cf19fa2baba4df148e9dcabedea7f8a5c07840e207e5c089be95d3e5f80a282511580159061024d575b610140575b87516102c690816104698239f35b6004848693819382525afa918215610243575f92610208575b5085519360608501908111858210176101f4578652602784527f416464726573733a206c6f772d6c6576656c2064656c65676174652063616c6c83850152660819985a5b195960ca1b84870152516101de945f918291845af4903d156101eb573d6101c381610379565b906101d088519283610342565b81525f81943d92013e6103b5565b505f808080808080610132565b606092506103b5565b634e487b7160e01b5f52604160045260245ffd5b9091508281813d831161023c575b6102208183610342565b810103126102385761023190610365565b905f610159565b5f80fd5b503d610216565b86513d5f823e3d90fd5b505f61012d565b865162461bcd60e51b815260048101859052603060248201527f455243313936373a20626561636f6e20696d706c656d656e746174696f6e206960448201526f1cc81b9bdd08184818dbdb9d1c9858dd60821b6064820152608490fd5b90508481813d83116102df575b6102c88183610342565b81010312610238576102d990610365565b5f6100c2565b503d6102be565b88513d5f823e3d90fd5b855162461bcd60e51b815260048101849052602560248201527f455243313936373a206e657720626561636f6e206973206e6f74206120636f6e6044820152641d1c9858dd60da1b6064820152608490fd5b601f909101601f19168101906001600160401b038211908210176101f457604052565b51906001600160a01b038216820361023857565b6001600160401b0381116101f457601f01601f191660200190565b5f5b8381106103a55750505f910152565b8181015183820152602001610396565b9192901561041757508151156103c9575090565b3b156103d25790565b60405162461bcd60e51b815260206004820152601d60248201527f416464726573733a2063616c6c20746f206e6f6e2d636f6e74726163740000006044820152606490fd5b82519091501561042a5750805190602001fd5b6044604051809262461bcd60e51b82526020600483015261045a8151809281602486015260208686019101610394565b601f01601f19168101030190fdfe6080806040523661011c5760208160048173ffffffffffffffffffffffffffffffffffffffff7fa3f0ad74e5423aebfd80d3ef4346578335a9a72aeaee59ff6cb3582b35133d5054167f5c60da1b0000000000000000000000000000000000000000000000000000000082525afa908115610111575f91610081575b50610273565b905060203d60201161010a575b7fffffffffffffffffffffffffffffffffffffffffffffffffffffffffffffffe0601f82011682019180831067ffffffffffffffff8411176100dd576100d792604052016101f6565b5f61007b565b7f4e487b71000000000000000000000000000000000000000000000000000000005f52604160045260245ffd5b503d61008e565b6040513d5f823e3d90fd5b6004602073ffffffffffffffffffffffffffffffffffffffff7fa3f0ad74e5423aebfd80d3ef4346578335a9a72aeaee59ff6cb3582b35133d505416604051928380927f5c60da1b0000000000000000000000000000000000000000000000000000000082525afa908115610111575f916101975750610273565b602091503d82116101ee575b7fffffffffffffffffffffffffffffffffffffffffffffffffffffffffffffffe0601f83011681019181831067ffffffffffffffff8411176100dd576100d792604052810190610247565b3d91506101a3565b7fffffffffffffffffffffffffffffffffffffffffffffffffffffffffffffff8060209101126102435760805173ffffffffffffffffffffffffffffffffffffffff811681036102435790565b5f80fd5b90816020910312610243575173ffffffffffffffffffffffffffffffffffffffff811681036102435790565b5f8091368280378136915af43d5f803e1561028c573d5ff35b3d5ffdfea2646970667358221220ec432b4747e143afd3ca9be003efbb7d4ac773fd8dbbac59b6729d6be9a1e1a164736f6c63430008180033a2646970667358221220e9e3336a3aa5e958143dab5fa4cbf57f7caba53b77905461a0fac0b2af628e9e64736f6c63430008180033",
  "devdoc": {
    "kind": "dev",
    "methods": {
      "acceptOwner()": {
        "details": "Can only be called by the pending owner to ensure correctness. Calls to the `_beforeAcceptOwner` hook      to perform logic before updating ownership."
      },
      "commit(bytes32[],uint256,bytes)": {
        "details": "Accepts both requested and non-requested versions.      Requested versions will pay out a keeper fee, non-requested versions will not.      Accepts any publish time in the underlying price message, as long as it is within the validity window,      which means its possible for publish times to be slightly out of order with respect to versions.      Batched updates are supported by passing in a list of price feed ids along with a valid batch update data.",
        "params": {
          "data": "The update data to commit",
          "oracleIds": "The list of price feed ids to commit",
          "version": "The oracle version to commit"
        }
      },
      "create(bytes32,bytes32,(address,int16))": {
        "params": {
          "oracleId": "The id of the oracle to create",
          "payoff": "The payoff provider for the oracle",
          "underlyingId": "The underlying id of the oracle to create"
        },
        "returns": {
          "newOracle": "The newly created oracle instance"
        }
      },
      "current()": {
        "details": "Rounded up to the nearest granularity",
        "returns": {
          "_0": "The current timestamp"
        }
      },
      "factoryType()": {
        "details": "Uses's OZ's short string storage util (only available in newer versions of oz/contracts)      https://github.com/OpenZeppelin/openzeppelin-contracts/blob/master/contracts/utils/ShortStrings.sol"
      },
      "initialize(address)": {
        "params": {
          "oracleFactory_": "The root oracle factory"
        }
      },
      "instances(address)": {
        "params": {
          "instance": "The instance to check"
        },
        "returns": {
          "_0": "Whether the instance is valid"
        }
      },
      "parameter()": {
        "returns": {
          "_0": "The oracle parameter set"
        }
      },
      "pause()": {
        "details": "Can only be called by the pauser"
      },
      "register(address)": {
        "params": {
          "payoff": "The payoff provider to register"
        }
      },
      "settle(bytes32[],uint256[],uint256[])": {
        "details": "Pays out a keeper incentive if all supplied local settlement callbacks succeed      Each array must be the same length, each index is a separate corresponding callback entry",
        "params": {
          "maxCounts": "The list of maximum number of settlement callbacks to perform before exiting",
          "oracleIds": "The list of price feed ids to settle",
          "versions": "The list of versions to settle"
        }
      },
      "toUnderlyingPayoff(bytes32)": {
        "params": {
          "id": "The id to lookup"
        },
        "returns": {
          "_0": "The payoff definition"
        }
      },
      "unpause()": {
        "details": "Can only be called by the pauser"
      },
      "updateId(address,bytes32)": {
        "details": "Part of the v2.3 migration",
        "params": {
          "oracleId": "The id of the oracle",
          "oracleProvider": "The oracle instance"
        }
      },
      "updateParameter(uint256,uint256,uint256,uint256)": {
        "params": {
          "newGranularity": "The new granularity value in seconds",
          "newOraclefee": "The new relative oracle fee percentage",
          "newValidFrom": "The new valid from value in seconds",
          "newValidTo": "The new valid to value in seconds"
        }
      },
      "updatePauser(address)": {
        "details": "Can only be called by the current owner",
        "params": {
          "newPauser": "New pauser address"
        }
      },
      "updatePendingOwner(address)": {
        "details": "Can only be called by the current owner      New owner does not take affect until that address calls `acceptOwner()`",
        "params": {
          "newPendingOwner": "New pending owner address"
        }
      }
    },
    "version": 1
  },
  "userdoc": {
    "kind": "user",
    "methods": {
      "acceptOwner()": {
        "notice": "Accepts and transfers the ownership of the contract to the pending owner"
      },
      "commit(bytes32[],uint256,bytes)": {
        "notice": "Commits the price to specified version"
      },
      "create(bytes32,bytes32,(address,int16))": {
        "notice": "Creates a new oracle instance"
      },
      "current()": {
        "notice": "Returns the current timestamp"
      },
      "ids(address)": {
        "notice": "Mapping of oracle instance to oracle id"
      },
      "implementation()": {
        "notice": "The instance implementation address"
      },
      "initialize(address)": {
        "notice": "Initializes the contract state"
      },
      "instances(address)": {
        "notice": "Returns whether the instance is valid"
      },
      "parameter()": {
        "notice": "Returns the oracle parameter set"
      },
      "pause()": {
        "notice": "Pauses the contract"
      },
      "register(address)": {
        "notice": "Authorizes a factory's instances to request from this factory's instances"
      },
      "settle(bytes32[],uint256[],uint256[])": {
        "notice": "Performs a list of local settlement callbacks"
      },
      "toUnderlyingPayoff(bytes32)": {
        "notice": "Returns the payoff definition for the specified id"
      },
      "unpause()": {
        "notice": "Unpauses the contract"
      },
      "updateId(address,bytes32)": {
        "notice": "Retroactively sets the mapping of the oracle id to the oracle instance"
      },
      "updateParameter(uint256,uint256,uint256,uint256)": {
        "notice": "Updates the oracle parameter set"
      },
      "updatePauser(address)": {
        "notice": "Updates the new pauser"
      },
      "updatePendingOwner(address)": {
        "notice": "Updates the new pending owner"
      }
    },
    "version": 1
  },
  "storageLayout": {
    "storage": [
      {
        "astId": 40491,
        "contract": "@perennial/oracle/contracts/metaquants/MetaQuantsFactory.sol:MetaQuantsFactory",
        "label": "oracleFactory",
        "offset": 0,
        "slot": "0",
        "type": "t_contract(IOracleFactory)40415"
      },
      {
        "astId": 40505,
        "contract": "@perennial/oracle/contracts/metaquants/MetaQuantsFactory.sol:MetaQuantsFactory",
        "label": "payoffs",
        "offset": 0,
        "slot": "1",
        "type": "t_mapping(t_contract(IPayoffProvider)40429,t_bool)"
      },
      {
        "astId": 40511,
        "contract": "@perennial/oracle/contracts/metaquants/MetaQuantsFactory.sol:MetaQuantsFactory",
        "label": "oracles",
        "offset": 0,
        "slot": "2",
        "type": "t_mapping(t_bytes32,t_contract(IOracleProvider)22235)"
      },
      {
        "astId": 40516,
        "contract": "@perennial/oracle/contracts/metaquants/MetaQuantsFactory.sol:MetaQuantsFactory",
        "label": "toUnderlyingId",
        "offset": 0,
        "slot": "3",
        "type": "t_mapping(t_bytes32,t_bytes32)"
      },
      {
        "astId": 40522,
        "contract": "@perennial/oracle/contracts/metaquants/MetaQuantsFactory.sol:MetaQuantsFactory",
        "label": "_toUnderlyingPayoff",
        "offset": 0,
        "slot": "4",
        "type": "t_mapping(t_bytes32,t_struct(PayoffDefinition)39870_storage)"
      },
      {
        "astId": 40530,
        "contract": "@perennial/oracle/contracts/metaquants/MetaQuantsFactory.sol:MetaQuantsFactory",
        "label": "fromUnderlying",
        "offset": 0,
        "slot": "5",
        "type": "t_mapping(t_bytes32,t_mapping(t_contract(IPayoffProvider)40429,t_bytes32))"
      },
      {
        "astId": 40534,
        "contract": "@perennial/oracle/contracts/metaquants/MetaQuantsFactory.sol:MetaQuantsFactory",
        "label": "_parameter",
        "offset": 0,
        "slot": "6",
        "type": "t_struct(KeeperOracleParameterStorage)42474_storage"
      },
      {
        "astId": 40540,
        "contract": "@perennial/oracle/contracts/metaquants/MetaQuantsFactory.sol:MetaQuantsFactory",
        "label": "ids",
        "offset": 0,
        "slot": "7",
        "type": "t_mapping(t_contract(IOracleProvider)22235,t_bytes32)"
      }
    ],
    "types": {
      "t_bool": {
        "encoding": "inplace",
        "label": "bool",
        "numberOfBytes": "1"
      },
      "t_bytes32": {
        "encoding": "inplace",
        "label": "bytes32",
        "numberOfBytes": "32"
      },
      "t_contract(IOracleFactory)40415": {
        "encoding": "inplace",
        "label": "contract IOracleFactory",
        "numberOfBytes": "20"
      },
      "t_contract(IOracleProvider)22235": {
        "encoding": "inplace",
        "label": "contract IOracleProvider",
        "numberOfBytes": "20"
      },
      "t_contract(IPayoffProvider)40429": {
        "encoding": "inplace",
        "label": "contract IPayoffProvider",
        "numberOfBytes": "20"
      },
      "t_int16": {
        "encoding": "inplace",
        "label": "int16",
        "numberOfBytes": "2"
      },
      "t_mapping(t_bytes32,t_bytes32)": {
        "encoding": "mapping",
        "key": "t_bytes32",
        "label": "mapping(bytes32 => bytes32)",
        "numberOfBytes": "32",
        "value": "t_bytes32"
      },
      "t_mapping(t_bytes32,t_contract(IOracleProvider)22235)": {
        "encoding": "mapping",
        "key": "t_bytes32",
        "label": "mapping(bytes32 => contract IOracleProvider)",
        "numberOfBytes": "32",
        "value": "t_contract(IOracleProvider)22235"
      },
      "t_mapping(t_bytes32,t_mapping(t_contract(IPayoffProvider)40429,t_bytes32))": {
        "encoding": "mapping",
        "key": "t_bytes32",
        "label": "mapping(bytes32 => mapping(contract IPayoffProvider => bytes32))",
        "numberOfBytes": "32",
        "value": "t_mapping(t_contract(IPayoffProvider)40429,t_bytes32)"
      },
      "t_mapping(t_bytes32,t_struct(PayoffDefinition)39870_storage)": {
        "encoding": "mapping",
        "key": "t_bytes32",
        "label": "mapping(bytes32 => struct IKeeperFactory.PayoffDefinition)",
        "numberOfBytes": "32",
        "value": "t_struct(PayoffDefinition)39870_storage"
      },
      "t_mapping(t_contract(IOracleProvider)22235,t_bytes32)": {
        "encoding": "mapping",
        "key": "t_contract(IOracleProvider)22235",
        "label": "mapping(contract IOracleProvider => bytes32)",
        "numberOfBytes": "32",
        "value": "t_bytes32"
      },
      "t_mapping(t_contract(IPayoffProvider)40429,t_bool)": {
        "encoding": "mapping",
        "key": "t_contract(IPayoffProvider)40429",
        "label": "mapping(contract IPayoffProvider => bool)",
        "numberOfBytes": "32",
        "value": "t_bool"
      },
      "t_mapping(t_contract(IPayoffProvider)40429,t_bytes32)": {
        "encoding": "mapping",
        "key": "t_contract(IPayoffProvider)40429",
        "label": "mapping(contract IPayoffProvider => bytes32)",
        "numberOfBytes": "32",
        "value": "t_bytes32"
      },
      "t_struct(KeeperOracleParameterStorage)42474_storage": {
        "encoding": "inplace",
        "label": "struct KeeperOracleParameterStorage",
        "members": [
          {
            "astId": 42473,
            "contract": "@perennial/oracle/contracts/metaquants/MetaQuantsFactory.sol:MetaQuantsFactory",
            "label": "value",
            "offset": 0,
            "slot": "0",
            "type": "t_struct(StoredKeeperOracleParameter)42470_storage"
          }
        ],
        "numberOfBytes": "32"
      },
      "t_struct(PayoffDefinition)39870_storage": {
        "encoding": "inplace",
        "label": "struct IKeeperFactory.PayoffDefinition",
        "members": [
          {
            "astId": 39867,
            "contract": "@perennial/oracle/contracts/metaquants/MetaQuantsFactory.sol:MetaQuantsFactory",
            "label": "provider",
            "offset": 0,
            "slot": "0",
            "type": "t_contract(IPayoffProvider)40429"
          },
          {
            "astId": 39869,
            "contract": "@perennial/oracle/contracts/metaquants/MetaQuantsFactory.sol:MetaQuantsFactory",
            "label": "decimals",
            "offset": 20,
            "slot": "0",
            "type": "t_int16"
          }
        ],
        "numberOfBytes": "32"
      },
      "t_struct(StoredKeeperOracleParameter)42470_storage": {
        "encoding": "inplace",
        "label": "struct StoredKeeperOracleParameter",
        "members": [
          {
            "astId": 42459,
            "contract": "@perennial/oracle/contracts/metaquants/MetaQuantsFactory.sol:MetaQuantsFactory",
            "label": "latestGranularity",
            "offset": 0,
            "slot": "0",
            "type": "t_uint16"
          },
          {
            "astId": 42461,
            "contract": "@perennial/oracle/contracts/metaquants/MetaQuantsFactory.sol:MetaQuantsFactory",
            "label": "currentGranularity",
            "offset": 2,
            "slot": "0",
            "type": "t_uint16"
          },
          {
            "astId": 42463,
            "contract": "@perennial/oracle/contracts/metaquants/MetaQuantsFactory.sol:MetaQuantsFactory",
            "label": "effectiveAfter",
            "offset": 4,
            "slot": "0",
            "type": "t_uint32"
          },
          {
            "astId": 42465,
            "contract": "@perennial/oracle/contracts/metaquants/MetaQuantsFactory.sol:MetaQuantsFactory",
            "label": "oracleFee",
            "offset": 8,
            "slot": "0",
            "type": "t_uint24"
          },
          {
            "astId": 42467,
            "contract": "@perennial/oracle/contracts/metaquants/MetaQuantsFactory.sol:MetaQuantsFactory",
            "label": "validFrom",
            "offset": 11,
            "slot": "0",
            "type": "t_uint16"
          },
          {
            "astId": 42469,
            "contract": "@perennial/oracle/contracts/metaquants/MetaQuantsFactory.sol:MetaQuantsFactory",
            "label": "validTo",
            "offset": 13,
            "slot": "0",
            "type": "t_uint16"
          }
        ],
        "numberOfBytes": "32"
      },
      "t_uint16": {
        "encoding": "inplace",
        "label": "uint16",
        "numberOfBytes": "2"
      },
      "t_uint24": {
        "encoding": "inplace",
        "label": "uint24",
        "numberOfBytes": "3"
      },
      "t_uint32": {
        "encoding": "inplace",
        "label": "uint32",
        "numberOfBytes": "4"
      }
    }
  }
}