{
  "address": "0x0b0742df88893f45Dc67d6FA9eC9de3AC491bf0e",
  "abi": [
    {
      "inputs": [
        {
          "internalType": "uint256",
          "name": "timeout_",
          "type": "uint256"
        }
      ],
      "stateMutability": "nonpayable",
      "type": "constructor"
    },
    {
      "inputs": [
        {
          "internalType": "uint256",
          "name": "version",
          "type": "uint256"
        }
      ],
      "name": "InitializableAlreadyInitializedError",
      "type": "error"
    },
    {
      "inputs": [],
      "name": "InitializableNotInitializingError",
      "type": "error"
    },
    {
      "inputs": [],
      "name": "InitializableZeroVersionError",
      "type": "error"
    },
    {
      "inputs": [
        {
          "internalType": "address",
          "name": "sender",
          "type": "address"
        }
      ],
      "name": "InstanceNotFactoryError",
      "type": "error"
    },
    {
      "inputs": [
        {
          "internalType": "address",
          "name": "sender",
          "type": "address"
        }
      ],
      "name": "InstanceNotOwnerError",
      "type": "error"
    },
    {
      "inputs": [],
      "name": "InstancePausedError",
      "type": "error"
    },
    {
      "inputs": [],
      "name": "KeeperOracleInvalidCallbackError",
      "type": "error"
    },
    {
      "inputs": [],
      "name": "KeeperOracleInvalidPriceError",
      "type": "error"
    },
    {
      "inputs": [],
      "name": "KeeperOracleNoPriorRequestsError",
      "type": "error"
    },
    {
      "inputs": [],
      "name": "KeeperOracleNotOracleError",
      "type": "error"
    },
    {
      "inputs": [],
      "name": "KeeperOracleVersionOutsideRangeError",
      "type": "error"
    },
    {
      "inputs": [],
      "name": "NotImplementedError",
      "type": "error"
    },
    {
      "inputs": [],
      "name": "OracleProviderUnauthorizedError",
      "type": "error"
    },
    {
      "anonymous": false,
      "inputs": [
        {
          "components": [
            {
              "internalType": "contract IMarket",
              "name": "market",
              "type": "address"
            },
            {
              "internalType": "address",
              "name": "account",
              "type": "address"
            },
            {
              "internalType": "uint256",
              "name": "version",
              "type": "uint256"
            }
          ],
          "indexed": true,
          "internalType": "struct IKeeperOracle.SettlementCallback",
          "name": "callback",
          "type": "tuple"
        }
      ],
      "name": "CallbackFulfilled",
      "type": "event"
    },
    {
      "anonymous": false,
      "inputs": [
        {
          "components": [
            {
              "internalType": "contract IMarket",
              "name": "market",
              "type": "address"
            },
            {
              "internalType": "address",
              "name": "account",
              "type": "address"
            },
            {
              "internalType": "uint256",
              "name": "version",
              "type": "uint256"
            }
          ],
          "indexed": true,
          "internalType": "struct IKeeperOracle.SettlementCallback",
          "name": "callback",
          "type": "tuple"
        }
      ],
      "name": "CallbackRequested",
      "type": "event"
    },
    {
      "anonymous": false,
      "inputs": [
        {
          "indexed": false,
          "internalType": "uint256",
          "name": "version",
          "type": "uint256"
        }
      ],
      "name": "Initialized",
      "type": "event"
    },
    {
      "anonymous": false,
      "inputs": [
        {
          "components": [
            {
              "internalType": "uint256",
              "name": "timestamp",
              "type": "uint256"
            },
            {
              "internalType": "Fixed6",
              "name": "price",
              "type": "int256"
            },
            {
              "internalType": "bool",
              "name": "valid",
              "type": "bool"
            }
          ],
          "indexed": false,
          "internalType": "struct OracleVersion",
          "name": "version",
          "type": "tuple"
        }
      ],
      "name": "OracleProviderVersionFulfilled",
      "type": "event"
    },
    {
      "anonymous": false,
      "inputs": [
        {
          "indexed": true,
          "internalType": "uint256",
          "name": "version",
          "type": "uint256"
        },
        {
          "indexed": false,
          "internalType": "bool",
          "name": "newPrice",
          "type": "bool"
        }
      ],
      "name": "OracleProviderVersionRequested",
      "type": "event"
    },
    {
      "anonymous": false,
      "inputs": [
        {
          "indexed": false,
          "internalType": "contract IOracleProvider",
          "name": "newOracle",
          "type": "address"
        }
      ],
      "name": "OracleUpdated",
      "type": "event"
    },
    {
      "inputs": [
        {
          "internalType": "uint256",
          "name": "timestamp",
          "type": "uint256"
        }
      ],
      "name": "at",
      "outputs": [
        {
          "components": [
            {
              "internalType": "uint256",
              "name": "timestamp",
              "type": "uint256"
            },
            {
              "internalType": "Fixed6",
              "name": "price",
              "type": "int256"
            },
            {
              "internalType": "bool",
              "name": "valid",
              "type": "bool"
            }
          ],
          "internalType": "struct OracleVersion",
          "name": "oracleVersion",
          "type": "tuple"
        },
        {
          "components": [
            {
              "internalType": "UFixed6",
              "name": "settlementFee",
              "type": "uint256"
            },
            {
              "internalType": "UFixed6",
              "name": "oracleFee",
              "type": "uint256"
            }
          ],
          "internalType": "struct OracleReceipt",
          "name": "oracleReceipt",
          "type": "tuple"
        }
      ],
      "stateMutability": "pure",
      "type": "function"
    },
    {
      "inputs": [
        {
          "components": [
            {
              "internalType": "uint256",
              "name": "timestamp",
              "type": "uint256"
            },
            {
              "internalType": "Fixed6",
              "name": "price",
              "type": "int256"
            },
            {
              "internalType": "bool",
              "name": "valid",
              "type": "bool"
            }
          ],
          "internalType": "struct OracleVersion",
          "name": "",
          "type": "tuple"
        },
        {
          "internalType": "address",
          "name": "",
          "type": "address"
        },
        {
          "internalType": "uint256",
          "name": "",
          "type": "uint256"
        }
      ],
      "name": "commit",
      "outputs": [],
      "stateMutability": "pure",
      "type": "function"
    },
    {
      "inputs": [],
      "name": "commitmentGasOracle",
      "outputs": [
        {
          "internalType": "contract IGasOracle",
          "name": "",
          "type": "address"
        }
      ],
      "stateMutability": "view",
      "type": "function"
    },
    {
      "inputs": [],
      "name": "current",
      "outputs": [
        {
          "internalType": "uint256",
          "name": "",
          "type": "uint256"
        }
      ],
      "stateMutability": "pure",
      "type": "function"
    },
    {
      "inputs": [],
      "name": "factory",
      "outputs": [
        {
          "internalType": "contract IFactory",
          "name": "",
          "type": "address"
        }
      ],
      "stateMutability": "view",
      "type": "function"
    },
    {
      "inputs": [],
      "name": "global",
      "outputs": [
        {
          "components": [
            {
              "internalType": "uint64",
              "name": "latestVersion",
              "type": "uint64"
            },
            {
              "internalType": "uint64",
              "name": "currentIndex",
              "type": "uint64"
            },
            {
              "internalType": "uint64",
              "name": "latestIndex",
              "type": "uint64"
            }
          ],
          "internalType": "struct IKeeperOracle.KeeperOracleGlobal",
          "name": "",
          "type": "tuple"
        }
      ],
      "stateMutability": "view",
      "type": "function"
    },
    {
      "inputs": [],
      "name": "initialize",
      "outputs": [],
      "stateMutability": "nonpayable",
      "type": "function"
    },
    {
      "inputs": [],
      "name": "latest",
      "outputs": [
        {
          "components": [
            {
              "internalType": "uint256",
              "name": "timestamp",
              "type": "uint256"
            },
            {
              "internalType": "Fixed6",
              "name": "price",
              "type": "int256"
            },
            {
              "internalType": "bool",
              "name": "valid",
              "type": "bool"
            }
          ],
          "internalType": "struct OracleVersion",
          "name": "",
          "type": "tuple"
        }
      ],
      "stateMutability": "pure",
      "type": "function"
    },
    {
      "inputs": [
        {
          "internalType": "uint256",
          "name": "",
          "type": "uint256"
        }
      ],
      "name": "localCallbacks",
      "outputs": [
        {
          "internalType": "address[]",
          "name": "",
          "type": "address[]"
        }
      ],
      "stateMutability": "pure",
      "type": "function"
    },
    {
      "inputs": [],
      "name": "next",
      "outputs": [
        {
          "internalType": "uint256",
          "name": "",
          "type": "uint256"
        }
      ],
      "stateMutability": "pure",
      "type": "function"
    },
    {
      "inputs": [],
      "name": "oracle",
      "outputs": [
        {
          "internalType": "contract IOracle",
          "name": "",
          "type": "address"
        }
      ],
      "stateMutability": "view",
      "type": "function"
    },
    {
      "inputs": [
        {
          "internalType": "contract IOracle",
          "name": "newOracle",
          "type": "address"
        }
      ],
      "name": "register",
      "outputs": [],
      "stateMutability": "nonpayable",
      "type": "function"
    },
    {
      "inputs": [
        {
          "internalType": "contract IMarket",
          "name": "",
          "type": "address"
        },
        {
          "internalType": "address",
          "name": "",
          "type": "address"
        }
      ],
      "name": "request",
      "outputs": [],
      "stateMutability": "pure",
      "type": "function"
    },
    {
      "inputs": [
        {
          "internalType": "uint256",
          "name": "",
          "type": "uint256"
        }
      ],
      "name": "requests",
      "outputs": [
        {
          "internalType": "uint256",
          "name": "",
          "type": "uint256"
        }
      ],
      "stateMutability": "view",
      "type": "function"
    },
    {
      "inputs": [
        {
          "internalType": "uint256",
          "name": "",
          "type": "uint256"
        }
      ],
      "name": "responses",
      "outputs": [
        {
          "components": [
            {
              "internalType": "Fixed6",
              "name": "price",
              "type": "int256"
            },
            {
              "internalType": "UFixed6",
              "name": "syncFee",
              "type": "uint256"
            },
            {
              "internalType": "UFixed6",
              "name": "asyncFee",
              "type": "uint256"
            },
            {
              "internalType": "UFixed6",
              "name": "oracleFee",
              "type": "uint256"
            },
            {
              "internalType": "bool",
              "name": "valid",
              "type": "bool"
            }
          ],
          "internalType": "struct PriceResponse",
          "name": "",
          "type": "tuple"
        }
      ],
      "stateMutability": "pure",
      "type": "function"
    },
    {
      "inputs": [
        {
          "internalType": "uint256",
          "name": "",
          "type": "uint256"
        },
        {
          "internalType": "uint256",
          "name": "",
          "type": "uint256"
        }
      ],
      "name": "settle",
      "outputs": [],
      "stateMutability": "pure",
      "type": "function"
    },
    {
      "inputs": [],
      "name": "settlementGasOracle",
      "outputs": [
        {
          "internalType": "contract IGasOracle",
          "name": "",
          "type": "address"
        }
      ],
      "stateMutability": "view",
      "type": "function"
    },
    {
      "inputs": [],
      "name": "status",
      "outputs": [
        {
          "components": [
            {
              "internalType": "uint256",
              "name": "timestamp",
              "type": "uint256"
            },
            {
              "internalType": "Fixed6",
              "name": "price",
              "type": "int256"
            },
            {
              "internalType": "bool",
              "name": "valid",
              "type": "bool"
            }
          ],
          "internalType": "struct OracleVersion",
          "name": "",
          "type": "tuple"
        },
        {
          "internalType": "uint256",
          "name": "",
          "type": "uint256"
        }
      ],
      "stateMutability": "pure",
      "type": "function"
    },
    {
      "inputs": [],
      "name": "timeout",
      "outputs": [
        {
          "internalType": "uint256",
          "name": "",
          "type": "uint256"
        }
      ],
      "stateMutability": "view",
      "type": "function"
    }
  ],
  "transactionHash": "0x7f8a5e0b5db06399b9eb8c7937a373785964ba505a3c24b358b46ee15ed0a5f5",
  "args": [
    60
  ],
  "numDeployments": 1,
  "solcInputHash": "08e85383631ef4a06416ac5e831b0baf",
  "bytecode": "0x60e03461006c57601f610bf338819003918201601f19168301916001600160401b038311848410176100705780849260209460405283398101031261006c575160c052604051610b6e90816100858239608051816107c4015260a051816103ff015260c051816107240152f35b5f80fd5b634e487b7160e01b5f52604160045260245ffdfe60406080815260049081361015610014575f80fd5b5f3560e01c8063200d2ed2146107475780633537d3fa146109c75780634420e486146107e85780634a13527f1461077a5780634c8fe526146103b057806352bfe7891461074757806370dea79a146106ef5780637dc0d1d01461069e5780638129fc1c1461056157806381d12c581461051c57806399db0ab2146104785780639a9c29f6146104235780639c2dd5cb146103b55780639fa6a6e3146103b0578063a05f99061461032a578063c0aa97a8146102d4578063c45a015514610263578063e0886f90146101a85763ed35d7e5146100ed575f80fd5b346101a45760207ffffffffffffffffffffffffffffffffffffffffffffffffffffffffffffffffc3601126101a457805160a0810181811067ffffffffffffffff821117610178575f91608091845282815282602082015282848201528260608201520152517fd41c17e7000000000000000000000000000000000000000000000000000000008152fd5b6041847f4e487b71000000000000000000000000000000000000000000000000000000005f525260245ffd5b5f80fd5b50346101a45760207ffffffffffffffffffffffffffffffffffffffffffffffffffffffffffffffffc3601126101a4578135906101e3610ae7565b9080519080820182811067ffffffffffffffff8211176102375760a0955081525f82528060208301935f85528581528151958652602081015160208701520151151590840152516060830152516080820152f35b6041867f4e487b71000000000000000000000000000000000000000000000000000000005f525260245ffd5b50346101a4575f7ffffffffffffffffffffffffffffffffffffffffffffffffffffffffffffffffc3601126101a45760209073ffffffffffffffffffffffffffffffffffffffff7f0aec74a1754fb10877b53c31a29be82096082042eb1fb374ec96fac88c0e621b54169051908152f35b50346101a45760207ffffffffffffffffffffffffffffffffffffffffffffffffffffffffffffffffc3601126101a457517fd41c17e7000000000000000000000000000000000000000000000000000000008152fd5b50346101a4575f7ffffffffffffffffffffffffffffffffffffffffffffffffffffffffffffffffc3601126101a457606090610364610ae7565b5080519061037182610a9e565b60025467ffffffffffffffff908180821694858152818560208301928286831c168452019360801c168352845195865251166020850152511690820152f35b610a46565b50346101a4575f7ffffffffffffffffffffffffffffffffffffffffffffffffffffffffffffffffc3601126101a4576020905173ffffffffffffffffffffffffffffffffffffffff7f0000000000000000000000000000000000000000000000000000000000000000168152f35b50346101a457807ffffffffffffffffffffffffffffffffffffffffffffffffffffffffffffffffc3601126101a457517fd41c17e7000000000000000000000000000000000000000000000000000000008152fd5b50346101a4577ffffffffffffffffffffffffffffffffffffffffffffffffffffffffffffffffc360160a081126101a4576060136101a45780516104bb81610a9e565b8235815260243560208201526044359081151582036101a45782015260643573ffffffffffffffffffffffffffffffffffffffff8116036101a457517fd41c17e7000000000000000000000000000000000000000000000000000000008152fd5b50346101a45760207ffffffffffffffffffffffffffffffffffffffffffffffffffffffffffffffffc3601126101a457602091355f5260018252805f20549051908152f35b5090346101a4575f7ffffffffffffffffffffffffffffffffffffffffffffffffffffffffffffffffc3601126101a4577f6fee9688c285c5c5c97d6a1a29adced674e6b2ad0888b8ad2116b58a8b3ea24860018154101561066e5760019055303b151580610667575b610640577fbe9b076dc5b65990cca9dd9d7366682482e7817a6f6bc7f4faf4dc32af497f32602083337f0aec74a1754fb10877b53c31a29be82096082042eb1fb374ec96fac88c0e621b555f7f2801b00eb06461cf9fcb9758b5fafd884ff06a86177386f73b6c49f0bf5a5af0555160018152a1005b90517fb9a621e1000000000000000000000000000000000000000000000000000000008152fd5b505f6105ca565b50600160249251917f3db738da000000000000000000000000000000000000000000000000000000008352820152fd5b50346101a4575f7ffffffffffffffffffffffffffffffffffffffffffffffffffffffffffffffffc3601126101a45760209073ffffffffffffffffffffffffffffffffffffffff5f54169051908152f35b50346101a4575f7ffffffffffffffffffffffffffffffffffffffffffffffffffffffffffffffffc3601126101a457602090517f00000000000000000000000000000000000000000000000000000000000000008152f35b346101a4575f7ffffffffffffffffffffffffffffffffffffffffffffffffffffffffffffffffc36011215610b05575f80fd5b50346101a4575f7ffffffffffffffffffffffffffffffffffffffffffffffffffffffffffffffffc3601126101a4576020905173ffffffffffffffffffffffffffffffffffffffff7f0000000000000000000000000000000000000000000000000000000000000000168152f35b5090346101a457602090817ffffffffffffffffffffffffffffffffffffffffffffffffffffffffffffffffc3601126101a45780359073ffffffffffffffffffffffffffffffffffffffff8083168093036101a4578184827f0aec74a1754fb10877b53c31a29be82096082042eb1fb374ec96fac88c0e621b54168751928380927f8da5cb5b0000000000000000000000000000000000000000000000000000000082525afa9081156109bd575f91610926575b501633036108f657507f3df77beb5db05fcdd70a30fc8adf3f83f9501b68579455adbd100b818094039492817fffffffffffffffffffffffff00000000000000000000000000000000000000005f5416175f5551908152a1005b6024908451907f4d193d1f0000000000000000000000000000000000000000000000000000000082523390820152fd5b9050843d86116109b6575b7fffffffffffffffffffffffffffffffffffffffffffffffffffffffffffffffe0601f820116820182811067ffffffffffffffff82111761098a57869183918952810103126101a4575181811681036101a4575f61089c565b6041857f4e487b71000000000000000000000000000000000000000000000000000000005f525260245ffd5b503d610931565b86513d5f823e3d90fd5b50346101a457807ffffffffffffffffffffffffffffffffffffffffffffffffffffffffffffffffc3601126101a45773ffffffffffffffffffffffffffffffffffffffff8235818116036101a457602435908116036101a457517fd41c17e7000000000000000000000000000000000000000000000000000000008152fd5b346101a4575f7ffffffffffffffffffffffffffffffffffffffffffffffffffffffffffffffffc3601126101a45760046040517fd41c17e7000000000000000000000000000000000000000000000000000000008152fd5b6060810190811067ffffffffffffffff821117610aba57604052565b7f4e487b71000000000000000000000000000000000000000000000000000000005f52604160045260245ffd5b60405190610af482610a9e565b5f6040838281528260208201520152565b610b0d610ae7565b5060046040517fd41c17e7000000000000000000000000000000000000000000000000000000008152fdfea2646970667358221220e927a27b3413ec4850956cf0f7d8872340b4a61528c0bc147029e38934fd9e7164736f6c63430008180033",
  "devdoc": {
    "kind": "dev",
    "methods": {
      "at(uint256)": {
        "details": "Empty responses, as long as they are of the correct format, will be overridden by the Global.latestPrice",
        "returns": {
          "oracleReceipt": "The empty oracle receipt",
          "oracleVersion": "The empty oracle version"
        }
      },
      "current()": {
        "returns": {
          "_0": "Current oracle version"
        }
      },
      "factory()": {
        "returns": {
          "_0": "The factory that created this instance"
        }
      },
      "global()": {
        "returns": {
          "_0": "The global state of the oracle"
        }
      },
      "latest()": {
        "returns": {
          "_0": "Latest oracle version"
        }
      },
      "next()": {
        "details": "Returns 0 if no next version is requested",
        "returns": {
          "_0": "The next requested oracle version"
        }
      },
      "register(address)": {
        "details": "The oracle provider is the only authorized caller",
        "params": {
          "newOracle": "The new oracle provider"
        }
      },
      "status()": {
        "returns": {
          "_0": "The latest synced oracle version",
          "_1": "The current oracle version collecting new orders"
        }
      }
    },
    "title": "KeeperOracle_Migration",
    "version": 1
  },
  "userdoc": {
    "kind": "user",
    "methods": {
      "at(uint256)": {
        "notice": "Returns an empty response of the correct v2.3 format for forwards compatibility of the previous sub-oracle"
      },
      "current()": {
        "notice": "Returns the current oracle version accepting new orders"
      },
      "factory()": {
        "notice": "Returns the factory that created this instance"
      },
      "global()": {
        "notice": "Returns the global state of the oracle"
      },
      "initialize()": {
        "notice": "Initializes the contract state"
      },
      "latest()": {
        "notice": "Returns the latest synced oracle version"
      },
      "next()": {
        "notice": "Returns the next requested oracle version"
      },
      "register(address)": {
        "notice": "Updates the registered oracle provider"
      },
      "status()": {
        "notice": "Returns the latest synced oracle version and the current oracle version"
      }
    },
    "notice": "Stub implementation to upgrade the prior KeeperOracle to during the v2.3 migration for compatibility.",
    "version": 1
  },
  "storageLayout": {
    "storage": [
      {
        "astId": 9606,
        "contract": "@equilibria/perennial-v2-oracle/contracts/keeper/KeeperOracle_Migration.sol:KeeperOracle_Migration",
        "label": "oracle",
        "offset": 0,
        "slot": "0",
        "type": "t_contract(IOracle)8552"
      },
      {
        "astId": 9622,
        "contract": "@equilibria/perennial-v2-oracle/contracts/keeper/KeeperOracle_Migration.sol:KeeperOracle_Migration",
        "label": "requests",
        "offset": 0,
        "slot": "1",
        "type": "t_mapping(t_uint256,t_uint256)"
      },
      {
        "astId": 9626,
        "contract": "@equilibria/perennial-v2-oracle/contracts/keeper/KeeperOracle_Migration.sol:KeeperOracle_Migration",
        "label": "_global",
        "offset": 0,
        "slot": "2",
        "type": "t_struct(KeeperOracleGlobal)8333_storage"
      },
      {
        "astId": 9632,
        "contract": "@equilibria/perennial-v2-oracle/contracts/keeper/KeeperOracle_Migration.sol:KeeperOracle_Migration",
        "label": "_responses",
        "offset": 0,
        "slot": "3",
        "type": "t_mapping(t_uint256,t_struct(PriceResponseStorage)10927_storage)"
      },
      {
        "astId": 9638,
        "contract": "@equilibria/perennial-v2-oracle/contracts/keeper/KeeperOracle_Migration.sol:KeeperOracle_Migration",
        "label": "_localCallbacks",
        "offset": 0,
        "slot": "4",
        "type": "t_mapping(t_uint256,t_struct(AddressSet)52234_storage)"
      }
    ],
    "types": {
      "t_array(t_bytes32)dyn_storage": {
        "base": "t_bytes32",
        "encoding": "dynamic_array",
        "label": "bytes32[]",
        "numberOfBytes": "32"
      },
      "t_bool": {
        "encoding": "inplace",
        "label": "bool",
        "numberOfBytes": "1"
      },
      "t_bytes32": {
        "encoding": "inplace",
        "label": "bytes32",
        "numberOfBytes": "32"
      },
      "t_contract(IOracle)8552": {
        "encoding": "inplace",
        "label": "contract IOracle",
        "numberOfBytes": "20"
      },
      "t_int64": {
        "encoding": "inplace",
        "label": "int64",
        "numberOfBytes": "8"
      },
      "t_mapping(t_bytes32,t_uint256)": {
        "encoding": "mapping",
        "key": "t_bytes32",
        "label": "mapping(bytes32 => uint256)",
        "numberOfBytes": "32",
        "value": "t_uint256"
      },
      "t_mapping(t_uint256,t_struct(AddressSet)52234_storage)": {
        "encoding": "mapping",
        "key": "t_uint256",
        "label": "mapping(uint256 => struct EnumerableSet.AddressSet)",
        "numberOfBytes": "32",
        "value": "t_struct(AddressSet)52234_storage"
      },
      "t_mapping(t_uint256,t_struct(PriceResponseStorage)10927_storage)": {
        "encoding": "mapping",
        "key": "t_uint256",
        "label": "mapping(uint256 => struct PriceResponseStorage)",
        "numberOfBytes": "32",
        "value": "t_struct(PriceResponseStorage)10927_storage"
      },
      "t_mapping(t_uint256,t_uint256)": {
        "encoding": "mapping",
        "key": "t_uint256",
        "label": "mapping(uint256 => uint256)",
        "numberOfBytes": "32",
        "value": "t_uint256"
      },
      "t_struct(AddressSet)52234_storage": {
        "encoding": "inplace",
        "label": "struct EnumerableSet.AddressSet",
        "members": [
          {
            "astId": 52233,
            "contract": "@equilibria/perennial-v2-oracle/contracts/keeper/KeeperOracle_Migration.sol:KeeperOracle_Migration",
            "label": "_inner",
            "offset": 0,
            "slot": "0",
            "type": "t_struct(Set)51919_storage"
          }
        ],
        "numberOfBytes": "64"
      },
      "t_struct(KeeperOracleGlobal)8333_storage": {
        "encoding": "inplace",
        "label": "struct IKeeperOracle.KeeperOracleGlobal",
        "members": [
          {
            "astId": 8326,
            "contract": "@equilibria/perennial-v2-oracle/contracts/keeper/KeeperOracle_Migration.sol:KeeperOracle_Migration",
            "label": "latestVersion",
            "offset": 0,
            "slot": "0",
            "type": "t_uint64"
          },
          {
            "astId": 8329,
            "contract": "@equilibria/perennial-v2-oracle/contracts/keeper/KeeperOracle_Migration.sol:KeeperOracle_Migration",
            "label": "currentIndex",
            "offset": 8,
            "slot": "0",
            "type": "t_uint64"
          },
          {
            "astId": 8332,
            "contract": "@equilibria/perennial-v2-oracle/contracts/keeper/KeeperOracle_Migration.sol:KeeperOracle_Migration",
            "label": "latestIndex",
            "offset": 16,
            "slot": "0",
            "type": "t_uint64"
          }
        ],
        "numberOfBytes": "32"
      },
      "t_struct(PriceResponseStorage)10927_storage": {
        "encoding": "inplace",
        "label": "struct PriceResponseStorage",
        "members": [
          {
            "astId": 10926,
            "contract": "@equilibria/perennial-v2-oracle/contracts/keeper/KeeperOracle_Migration.sol:KeeperOracle_Migration",
            "label": "value",
            "offset": 0,
            "slot": "0",
            "type": "t_struct(StoredPriceResponse)10923_storage"
          }
        ],
        "numberOfBytes": "32"
      },
      "t_struct(Set)51919_storage": {
        "encoding": "inplace",
        "label": "struct EnumerableSet.Set",
        "members": [
          {
            "astId": 51914,
            "contract": "@equilibria/perennial-v2-oracle/contracts/keeper/KeeperOracle_Migration.sol:KeeperOracle_Migration",
            "label": "_values",
            "offset": 0,
            "slot": "0",
            "type": "t_array(t_bytes32)dyn_storage"
          },
          {
            "astId": 51918,
            "contract": "@equilibria/perennial-v2-oracle/contracts/keeper/KeeperOracle_Migration.sol:KeeperOracle_Migration",
            "label": "_indexes",
            "offset": 0,
            "slot": "1",
            "type": "t_mapping(t_bytes32,t_uint256)"
          }
        ],
        "numberOfBytes": "64"
      },
      "t_struct(StoredPriceResponse)10923_storage": {
        "encoding": "inplace",
        "label": "struct StoredPriceResponse",
        "members": [
          {
            "astId": 10914,
            "contract": "@equilibria/perennial-v2-oracle/contracts/keeper/KeeperOracle_Migration.sol:KeeperOracle_Migration",
            "label": "price",
            "offset": 0,
            "slot": "0",
            "type": "t_int64"
          },
          {
            "astId": 10916,
            "contract": "@equilibria/perennial-v2-oracle/contracts/keeper/KeeperOracle_Migration.sol:KeeperOracle_Migration",
            "label": "syncFee",
            "offset": 8,
            "slot": "0",
            "type": "t_uint48"
          },
          {
            "astId": 10918,
            "contract": "@equilibria/perennial-v2-oracle/contracts/keeper/KeeperOracle_Migration.sol:KeeperOracle_Migration",
            "label": "asyncFee",
            "offset": 14,
            "slot": "0",
            "type": "t_uint48"
          },
          {
            "astId": 10920,
            "contract": "@equilibria/perennial-v2-oracle/contracts/keeper/KeeperOracle_Migration.sol:KeeperOracle_Migration",
            "label": "oracleFee",
            "offset": 20,
            "slot": "0",
            "type": "t_uint24"
          },
          {
            "astId": 10922,
            "contract": "@equilibria/perennial-v2-oracle/contracts/keeper/KeeperOracle_Migration.sol:KeeperOracle_Migration",
            "label": "valid",
            "offset": 23,
            "slot": "0",
            "type": "t_bool"
          }
        ],
        "numberOfBytes": "32"
      },
      "t_uint24": {
        "encoding": "inplace",
        "label": "uint24",
        "numberOfBytes": "3"
      },
      "t_uint256": {
        "encoding": "inplace",
        "label": "uint256",
        "numberOfBytes": "32"
      },
      "t_uint48": {
        "encoding": "inplace",
        "label": "uint48",
        "numberOfBytes": "6"
      },
      "t_uint64": {
        "encoding": "inplace",
        "label": "uint64",
        "numberOfBytes": "8"
      }
    }
  }
}