{
  "address": "0xa5416181012bE0E321d4A8E21562C4A0850173a7",
  "abi": [
    {
      "inputs": [
        {
          "internalType": "contract AbstractPyth",
          "name": "pyth_",
          "type": "address"
        },
        {
          "internalType": "address",
          "name": "implementation_",
          "type": "address"
        },
        {
          "internalType": "uint256",
          "name": "validFrom_",
          "type": "uint256"
        },
        {
          "internalType": "uint256",
          "name": "validTo_",
          "type": "uint256"
        },
        {
          "components": [
            {
              "internalType": "UFixed18",
              "name": "multiplierBase",
              "type": "uint256"
            },
            {
              "internalType": "uint256",
              "name": "bufferBase",
              "type": "uint256"
            },
            {
              "internalType": "UFixed18",
              "name": "multiplierCalldata",
              "type": "uint256"
            },
            {
              "internalType": "uint256",
              "name": "bufferCalldata",
              "type": "uint256"
            }
          ],
          "internalType": "struct IKept.KeepConfig",
          "name": "commitKeepConfig_",
          "type": "tuple"
        },
        {
          "components": [
            {
              "internalType": "UFixed18",
              "name": "multiplierBase",
              "type": "uint256"
            },
            {
              "internalType": "uint256",
              "name": "bufferBase",
              "type": "uint256"
            },
            {
              "internalType": "UFixed18",
              "name": "multiplierCalldata",
              "type": "uint256"
            },
            {
              "internalType": "uint256",
              "name": "bufferCalldata",
              "type": "uint256"
            }
          ],
          "internalType": "struct IKept.KeepConfig",
          "name": "settleKeepConfig_",
          "type": "tuple"
        },
        {
          "internalType": "uint256",
          "name": "keepCommitIncrementalBufferData_",
          "type": "uint256"
        }
      ],
      "stateMutability": "nonpayable",
      "type": "constructor"
    },
    {
      "inputs": [],
      "name": "DivisionByZero",
      "type": "error"
    },
    {
      "inputs": [],
      "name": "FactoryNotInstanceError",
      "type": "error"
    },
    {
      "inputs": [
        {
          "internalType": "uint256",
          "name": "version",
          "type": "uint256"
        }
      ],
      "name": "InitializableAlreadyInitializedError",
      "type": "error"
    },
    {
      "inputs": [],
      "name": "InitializableNotInitializingError",
      "type": "error"
    },
    {
      "inputs": [],
      "name": "InitializableZeroVersionError",
      "type": "error"
    },
    {
      "inputs": [],
      "name": "KeeperFactoryAlreadyCreatedError",
      "type": "error"
    },
    {
      "inputs": [],
      "name": "KeeperFactoryInvalidGranularityError",
      "type": "error"
    },
    {
      "inputs": [],
      "name": "KeeperFactoryInvalidIdError",
      "type": "error"
    },
    {
      "inputs": [],
      "name": "KeeperFactoryInvalidPayoffError",
      "type": "error"
    },
    {
      "inputs": [],
      "name": "KeeperFactoryInvalidSettleError",
      "type": "error"
    },
    {
      "inputs": [],
      "name": "KeeperFactoryNotCreatedError",
      "type": "error"
    },
    {
      "inputs": [],
      "name": "KeeperFactoryNotInstanceError",
      "type": "error"
    },
    {
      "inputs": [],
      "name": "KeeperFactoryVersionOutsideRangeError",
      "type": "error"
    },
    {
      "inputs": [
        {
          "internalType": "address",
          "name": "sender",
          "type": "address"
        }
      ],
      "name": "OwnableNotOwnerError",
      "type": "error"
    },
    {
      "inputs": [
        {
          "internalType": "address",
          "name": "sender",
          "type": "address"
        }
      ],
      "name": "OwnableNotPendingOwnerError",
      "type": "error"
    },
    {
      "inputs": [
        {
          "internalType": "address",
          "name": "sender",
          "type": "address"
        }
      ],
      "name": "PausableNotPauserError",
      "type": "error"
    },
    {
      "inputs": [],
      "name": "PausablePausedError",
      "type": "error"
    },
    {
      "inputs": [],
      "name": "PythFactoryInvalidIdError",
      "type": "error"
    },
    {
      "inputs": [
        {
          "internalType": "int256",
          "name": "value",
          "type": "int256"
        }
      ],
      "name": "UFixed18UnderflowError",
      "type": "error"
    },
    {
      "anonymous": false,
      "inputs": [
        {
          "indexed": true,
          "internalType": "contract IFactory",
          "name": "caller",
          "type": "address"
        }
      ],
      "name": "CallerAuthorized",
      "type": "event"
    },
    {
      "anonymous": false,
      "inputs": [
        {
          "indexed": false,
          "internalType": "uint256",
          "name": "newGranularity",
          "type": "uint256"
        },
        {
          "indexed": false,
          "internalType": "uint256",
          "name": "effectiveAfter",
          "type": "uint256"
        }
      ],
      "name": "GranularityUpdated",
      "type": "event"
    },
    {
      "anonymous": false,
      "inputs": [
        {
          "indexed": false,
          "internalType": "uint256",
          "name": "version",
          "type": "uint256"
        }
      ],
      "name": "Initialized",
      "type": "event"
    },
    {
      "anonymous": false,
      "inputs": [
        {
          "indexed": true,
          "internalType": "contract IInstance",
          "name": "instance",
          "type": "address"
        }
      ],
      "name": "InstanceRegistered",
      "type": "event"
    },
    {
      "anonymous": false,
      "inputs": [
        {
          "indexed": true,
          "internalType": "address",
          "name": "sender",
          "type": "address"
        },
        {
          "indexed": false,
          "internalType": "uint256",
          "name": "applicableGas",
          "type": "uint256"
        },
        {
          "indexed": false,
          "internalType": "uint256",
          "name": "applicableValue",
          "type": "uint256"
        },
        {
          "indexed": false,
          "internalType": "UFixed18",
          "name": "baseFee",
          "type": "uint256"
        },
        {
          "indexed": false,
          "internalType": "UFixed18",
          "name": "calldataFee",
          "type": "uint256"
        },
        {
          "indexed": false,
          "internalType": "UFixed18",
          "name": "keeperFee",
          "type": "uint256"
        }
      ],
      "name": "KeeperCall",
      "type": "event"
    },
    {
      "anonymous": false,
      "inputs": [
        {
          "indexed": true,
          "internalType": "bytes32",
          "name": "id",
          "type": "bytes32"
        },
        {
          "indexed": true,
          "internalType": "bytes32",
          "name": "underlyingId",
          "type": "bytes32"
        }
      ],
      "name": "OracleAssociated",
      "type": "event"
    },
    {
      "anonymous": false,
      "inputs": [
        {
          "indexed": true,
          "internalType": "contract IOracleProvider",
          "name": "oracle",
          "type": "address"
        },
        {
          "indexed": true,
          "internalType": "bytes32",
          "name": "id",
          "type": "bytes32"
        }
      ],
      "name": "OracleCreated",
      "type": "event"
    },
    {
      "anonymous": false,
      "inputs": [
        {
          "indexed": true,
          "internalType": "address",
          "name": "newOwner",
          "type": "address"
        }
      ],
      "name": "OwnerUpdated",
      "type": "event"
    },
    {
      "anonymous": false,
      "inputs": [],
      "name": "Paused",
      "type": "event"
    },
    {
      "anonymous": false,
      "inputs": [
        {
          "indexed": true,
          "internalType": "address",
          "name": "newPauser",
          "type": "address"
        }
      ],
      "name": "PauserUpdated",
      "type": "event"
    },
    {
      "anonymous": false,
      "inputs": [
        {
          "indexed": true,
          "internalType": "contract IPayoffProvider",
          "name": "payoff",
          "type": "address"
        }
      ],
      "name": "PayoffRegistered",
      "type": "event"
    },
    {
      "anonymous": false,
      "inputs": [
        {
          "indexed": true,
          "internalType": "address",
          "name": "newPendingOwner",
          "type": "address"
        }
      ],
      "name": "PendingOwnerUpdated",
      "type": "event"
    },
    {
      "anonymous": false,
      "inputs": [],
      "name": "Unpaused",
      "type": "event"
    },
    {
      "inputs": [],
      "name": "ARB_FIXED_OVERHEAD",
      "outputs": [
        {
          "internalType": "uint256",
          "name": "",
          "type": "uint256"
        }
      ],
      "stateMutability": "view",
      "type": "function"
    },
    {
      "inputs": [],
      "name": "ARB_GAS_MULTIPLIER",
      "outputs": [
        {
          "internalType": "uint256",
          "name": "",
          "type": "uint256"
        }
      ],
      "stateMutability": "view",
      "type": "function"
    },
    {
      "inputs": [],
      "name": "MAX_GRANULARITY",
      "outputs": [
        {
          "internalType": "uint256",
          "name": "",
          "type": "uint256"
        }
      ],
      "stateMutability": "view",
      "type": "function"
    },
    {
      "inputs": [
        {
          "internalType": "bytes32",
          "name": "",
          "type": "bytes32"
        }
      ],
      "name": "_toUnderlyingPayoff",
      "outputs": [
        {
          "internalType": "contract IPayoffProvider",
          "name": "provider",
          "type": "address"
        },
        {
          "internalType": "int16",
          "name": "decimals",
          "type": "int16"
        }
      ],
      "stateMutability": "view",
      "type": "function"
    },
    {
      "inputs": [],
      "name": "acceptOwner",
      "outputs": [],
      "stateMutability": "nonpayable",
      "type": "function"
    },
    {
      "inputs": [
        {
          "internalType": "contract IFactory",
          "name": "factory",
          "type": "address"
        }
      ],
      "name": "authorize",
      "outputs": [],
      "stateMutability": "nonpayable",
      "type": "function"
    },
    {
      "inputs": [
        {
          "internalType": "address",
          "name": "caller",
          "type": "address"
        }
      ],
      "name": "authorized",
      "outputs": [
        {
          "internalType": "bool",
          "name": "",
          "type": "bool"
        }
      ],
      "stateMutability": "view",
      "type": "function"
    },
    {
      "inputs": [
        {
          "internalType": "contract IFactory",
          "name": "",
          "type": "address"
        }
      ],
      "name": "callers",
      "outputs": [
        {
          "internalType": "bool",
          "name": "",
          "type": "bool"
        }
      ],
      "stateMutability": "view",
      "type": "function"
    },
    {
      "inputs": [
        {
          "internalType": "bytes32[]",
          "name": "ids",
          "type": "bytes32[]"
        },
        {
          "internalType": "uint256",
          "name": "version",
          "type": "uint256"
        },
        {
          "internalType": "bytes",
          "name": "data",
          "type": "bytes"
        }
      ],
      "name": "commit",
      "outputs": [],
      "stateMutability": "payable",
      "type": "function"
    },
    {
      "inputs": [
        {
          "internalType": "uint256",
          "name": "numRequested",
          "type": "uint256"
        }
      ],
      "name": "commitKeepConfig",
      "outputs": [
        {
          "components": [
            {
              "internalType": "UFixed18",
              "name": "multiplierBase",
              "type": "uint256"
            },
            {
              "internalType": "uint256",
              "name": "bufferBase",
              "type": "uint256"
            },
            {
              "internalType": "UFixed18",
              "name": "multiplierCalldata",
              "type": "uint256"
            },
            {
              "internalType": "uint256",
              "name": "bufferCalldata",
              "type": "uint256"
            }
          ],
          "internalType": "struct IKept.KeepConfig",
          "name": "",
          "type": "tuple"
        }
      ],
      "stateMutability": "view",
      "type": "function"
    },
    {
      "inputs": [
        {
          "internalType": "bytes32",
          "name": "id",
          "type": "bytes32"
        },
        {
          "internalType": "bytes32",
          "name": "underlyingId",
          "type": "bytes32"
        },
        {
          "components": [
            {
              "internalType": "contract IPayoffProvider",
              "name": "provider",
              "type": "address"
            },
            {
              "internalType": "int16",
              "name": "decimals",
              "type": "int16"
            }
          ],
          "internalType": "struct IKeeperFactory.PayoffDefinition",
          "name": "payoff",
          "type": "tuple"
        }
      ],
      "name": "create",
      "outputs": [
        {
          "internalType": "contract IKeeperOracle",
          "name": "newOracle",
          "type": "address"
        }
      ],
      "stateMutability": "nonpayable",
      "type": "function"
    },
    {
      "inputs": [],
      "name": "current",
      "outputs": [
        {
          "internalType": "uint256",
          "name": "",
          "type": "uint256"
        }
      ],
      "stateMutability": "view",
      "type": "function"
    },
    {
      "inputs": [],
      "name": "ethTokenOracleFeed",
      "outputs": [
        {
          "internalType": "contract AggregatorV3Interface",
          "name": "",
          "type": "address"
        }
      ],
      "stateMutability": "view",
      "type": "function"
    },
    {
      "inputs": [
        {
          "internalType": "bytes32",
          "name": "",
          "type": "bytes32"
        },
        {
          "internalType": "contract IPayoffProvider",
          "name": "",
          "type": "address"
        }
      ],
      "name": "fromUnderlying",
      "outputs": [
        {
          "internalType": "bytes32",
          "name": "",
          "type": "bytes32"
        }
      ],
      "stateMutability": "view",
      "type": "function"
    },
    {
      "inputs": [],
      "name": "granularity",
      "outputs": [
        {
          "components": [
            {
              "internalType": "uint64",
              "name": "latestGranularity",
              "type": "uint64"
            },
            {
              "internalType": "uint64",
              "name": "currentGranularity",
              "type": "uint64"
            },
            {
              "internalType": "uint128",
              "name": "effectiveAfter",
              "type": "uint128"
            }
          ],
          "internalType": "struct IKeeperFactory.Granularity",
          "name": "",
          "type": "tuple"
        }
      ],
      "stateMutability": "view",
      "type": "function"
    },
    {
      "inputs": [],
      "name": "implementation",
      "outputs": [
        {
          "internalType": "address",
          "name": "",
          "type": "address"
        }
      ],
      "stateMutability": "view",
      "type": "function"
    },
    {
      "inputs": [
        {
          "internalType": "contract IOracleFactory",
          "name": "oracleFactory_",
          "type": "address"
        },
        {
          "internalType": "contract AggregatorV3Interface",
          "name": "chainlinkFeed_",
          "type": "address"
        },
        {
          "internalType": "Token18",
          "name": "dsu_",
          "type": "address"
        }
      ],
      "name": "initialize",
      "outputs": [],
      "stateMutability": "nonpayable",
      "type": "function"
    },
    {
      "inputs": [
        {
          "internalType": "contract IInstance",
          "name": "instance",
          "type": "address"
        }
      ],
      "name": "instances",
      "outputs": [
        {
          "internalType": "bool",
          "name": "",
          "type": "bool"
        }
      ],
      "stateMutability": "view",
      "type": "function"
    },
    {
      "inputs": [],
      "name": "keeperToken",
      "outputs": [
        {
          "internalType": "Token18",
          "name": "",
          "type": "address"
        }
      ],
      "stateMutability": "view",
      "type": "function"
    },
    {
      "inputs": [],
      "name": "oracleFactory",
      "outputs": [
        {
          "internalType": "contract IOracleFactory",
          "name": "",
          "type": "address"
        }
      ],
      "stateMutability": "view",
      "type": "function"
    },
    {
      "inputs": [
        {
          "internalType": "bytes32",
          "name": "",
          "type": "bytes32"
        }
      ],
      "name": "oracles",
      "outputs": [
        {
          "internalType": "contract IOracleProvider",
          "name": "",
          "type": "address"
        }
      ],
      "stateMutability": "view",
      "type": "function"
    },
    {
      "inputs": [],
      "name": "owner",
      "outputs": [
        {
          "internalType": "address",
          "name": "",
          "type": "address"
        }
      ],
      "stateMutability": "view",
      "type": "function"
    },
    {
      "inputs": [],
      "name": "pause",
      "outputs": [],
      "stateMutability": "nonpayable",
      "type": "function"
    },
    {
      "inputs": [],
      "name": "paused",
      "outputs": [
        {
          "internalType": "bool",
          "name": "",
          "type": "bool"
        }
      ],
      "stateMutability": "view",
      "type": "function"
    },
    {
      "inputs": [],
      "name": "pauser",
      "outputs": [
        {
          "internalType": "address",
          "name": "",
          "type": "address"
        }
      ],
      "stateMutability": "view",
      "type": "function"
    },
    {
      "inputs": [
        {
          "internalType": "contract IPayoffProvider",
          "name": "",
          "type": "address"
        }
      ],
      "name": "payoffs",
      "outputs": [
        {
          "internalType": "bool",
          "name": "",
          "type": "bool"
        }
      ],
      "stateMutability": "view",
      "type": "function"
    },
    {
      "inputs": [],
      "name": "pendingOwner",
      "outputs": [
        {
          "internalType": "address",
          "name": "",
          "type": "address"
        }
      ],
      "stateMutability": "view",
      "type": "function"
    },
    {
      "inputs": [],
      "name": "pyth",
      "outputs": [
        {
          "internalType": "contract AbstractPyth",
          "name": "",
          "type": "address"
        }
      ],
      "stateMutability": "view",
      "type": "function"
    },
    {
      "inputs": [
        {
          "internalType": "contract IPayoffProvider",
          "name": "payoff",
          "type": "address"
        }
      ],
      "name": "register",
      "outputs": [],
      "stateMutability": "nonpayable",
      "type": "function"
    },
    {
      "inputs": [
        {
          "internalType": "bytes32[]",
          "name": "ids",
          "type": "bytes32[]"
        },
        {
          "internalType": "contract IMarket[]",
          "name": "markets",
          "type": "address[]"
        },
        {
          "internalType": "uint256[]",
          "name": "versions",
          "type": "uint256[]"
        },
        {
          "internalType": "uint256[]",
          "name": "maxCounts",
          "type": "uint256[]"
        }
      ],
      "name": "settle",
      "outputs": [],
      "stateMutability": "nonpayable",
      "type": "function"
    },
    {
      "inputs": [],
      "name": "settleKeepConfig",
      "outputs": [
        {
          "components": [
            {
              "internalType": "UFixed18",
              "name": "multiplierBase",
              "type": "uint256"
            },
            {
              "internalType": "uint256",
              "name": "bufferBase",
              "type": "uint256"
            },
            {
              "internalType": "UFixed18",
              "name": "multiplierCalldata",
              "type": "uint256"
            },
            {
              "internalType": "uint256",
              "name": "bufferCalldata",
              "type": "uint256"
            }
          ],
          "internalType": "struct IKept.KeepConfig",
          "name": "",
          "type": "tuple"
        }
      ],
      "stateMutability": "view",
      "type": "function"
    },
    {
      "inputs": [
        {
          "internalType": "bytes32",
          "name": "",
          "type": "bytes32"
        }
      ],
      "name": "toUnderlyingId",
      "outputs": [
        {
          "internalType": "bytes32",
          "name": "",
          "type": "bytes32"
        }
      ],
      "stateMutability": "view",
      "type": "function"
    },
    {
      "inputs": [
        {
          "internalType": "bytes32",
          "name": "id",
          "type": "bytes32"
        }
      ],
      "name": "toUnderlyingPayoff",
      "outputs": [
        {
          "components": [
            {
              "internalType": "contract IPayoffProvider",
              "name": "provider",
              "type": "address"
            },
            {
              "internalType": "int16",
              "name": "decimals",
              "type": "int16"
            }
          ],
          "internalType": "struct IKeeperFactory.PayoffDefinition",
          "name": "",
          "type": "tuple"
        }
      ],
      "stateMutability": "view",
      "type": "function"
    },
    {
      "inputs": [],
      "name": "unpause",
      "outputs": [],
      "stateMutability": "nonpayable",
      "type": "function"
    },
    {
      "inputs": [
        {
          "internalType": "uint256",
          "name": "newGranularity",
          "type": "uint256"
        }
      ],
      "name": "updateGranularity",
      "outputs": [],
      "stateMutability": "nonpayable",
      "type": "function"
    },
    {
      "inputs": [
        {
          "internalType": "address",
          "name": "newPauser",
          "type": "address"
        }
      ],
      "name": "updatePauser",
      "outputs": [],
      "stateMutability": "nonpayable",
      "type": "function"
    },
    {
      "inputs": [
        {
          "internalType": "address",
          "name": "newPendingOwner",
          "type": "address"
        }
      ],
      "name": "updatePendingOwner",
      "outputs": [],
      "stateMutability": "nonpayable",
      "type": "function"
    },
    {
      "inputs": [
        {
          "internalType": "bytes32",
          "name": "id",
          "type": "bytes32"
        },
        {
          "internalType": "bytes32",
          "name": "newUnderlyingId",
          "type": "bytes32"
        }
      ],
      "name": "updateUnderlyingId",
      "outputs": [],
      "stateMutability": "nonpayable",
      "type": "function"
    },
    {
      "inputs": [],
      "name": "validFrom",
      "outputs": [
        {
          "internalType": "uint256",
          "name": "",
          "type": "uint256"
        }
      ],
      "stateMutability": "view",
      "type": "function"
    },
    {
      "inputs": [],
      "name": "validTo",
      "outputs": [
        {
          "internalType": "uint256",
          "name": "",
          "type": "uint256"
        }
      ],
      "stateMutability": "view",
      "type": "function"
    }
  ],
  "transactionHash": "0xc343a908fb394e0acb5c018d04f01107b301b3c6bf5f23532017f4a90c690c45",
  "args": [
    "0x4374e5a8b9C22271E9EB878A2AA31DE97DF15DAF",
    "0x0b0742df88893f45Dc67d6FA9eC9de3AC491bf0e",
    4,
    12,
    {
      "multiplierBase": 0,
      "bufferBase": 788000,
      "multiplierCalldata": 0,
      "bufferCalldata": 31000
    },
    {
      "multiplierBase": "1050000000000000000",
      "bufferBase": 100000,
      "multiplierCalldata": "1050000000000000000",
      "bufferCalldata": 0
    },
    4200
  ],
  "numDeployments": 1,
  "bytecode": "0x610220346200019257620048753881900390601f8201601f19168301906001600160401b038211848310176200019657829160405283398101906101a0808284031262000192578151906001600160a01b039081831683036200019257602084015191821682036200019257604084015190606085015194620000868760808301620001aa565b956200009861010098898401620001aa565b93610180809301519560805260a05260c052855160e052602086015187526060604087015196610120978852015193610140948552610160908152835182526020840151835260606040850151946101c09586520151946101e09586526102009687526040519761467c998a620001f98b396080518a61164a015260a0518a81816118170152612990015260c0518a81816110a50152612a2e015260e0518a61396b015251896138e601525188613993015251876139350152518661390e01525185613bac01525184613bcf01525183613bf501525182613c1b01525181818161024901528181610be401528181611e9901526123750152f35b5f80fd5b634e487b7160e01b5f52604160045260245ffd5b91908260809103126200019257604051608081016001600160401b0381118282101762000196576040526060808294805184526020810151602085015260408101516040850152015191015256fe608080604052600436101562000013575f80fd5b5f3560e01c908163032bb4431462003479575080631b7d63571462002bc45780631e298b901462001c3d57806332878cc91462001bcb578063344e0f8a1462001b815780633f4ba83a1462001a8f57806341c6a70f14620019145780634420e486146200183a57806345f84c1614620017e0578063554bab3c1462001718578063556f0dc7146200166e5780635c60da1b14620015fe5780635c975abb14620015a05780636311c464146200155e5780637211af6814620014c257806378fab5c714620014875780637bbf4a3f14620014195780638456cb5914620012f65780638da5cb5b14620012845780639571b1ec146200121a5780639d57c43114620011de5780639fa6a6e3146200119a5780639fd0506d1462001128578063a81a267714620010c8578063a88780ef146200106e578063aba30dfa1462001033578063acf558b71462000fbd578063b20caf451462000f4b578063b32a1e5d1462000b06578063b5ee69551462000a3e578063b6a5d7de1462000964578063b91816111462000913578063c0c53b8b1462000670578063c36e389d1462000604578063c36fdf8014620004f3578063c7f7fb9014620004a1578063cd3bb38c146200042e578063e30c397814620003bc578063ebbc496514620002715763f98d06f014620001fd575f80fd5b346200026d575f7ffffffffffffffffffffffffffffffffffffffffffffffffffffffffffffffffc3601126200026d57602060405173ffffffffffffffffffffffffffffffffffffffff7f0000000000000000000000000000000000000000000000000000000000000000168152f35b5f80fd5b346200026d575f7ffffffffffffffffffffffffffffffffffffffffffffffffffffffffffffffffc3601126200026d577f675c83682abbc3e7dd47e40515a778fbbde4393395c3dd3588244203c3e47883805473ffffffffffffffffffffffffffffffffffffffff8116908133036200038c577fe7742ddf0fecd2926e7ef4d6d6e91a7b2f0b1f8805b78953dac8454e86273ed255807f4ffd725fc4a22075e9ec71c59edf9c38cdeb588a91b24fc5b61388c5be41282b5f80a233036200035c575f90555f7f69f201bc2089b9be6195d876d97a0136b4cf56bbf8986a52dcb50697f7d1cac58180a2005b60246040517f99bf6359000000000000000000000000000000000000000000000000000000008152336004820152fd5b60246040517fd0d5e1b0000000000000000000000000000000000000000000000000000000008152336004820152fd5b346200026d575f7ffffffffffffffffffffffffffffffffffffffffffffffffffffffffffffffffc3601126200026d5760207f675c83682abbc3e7dd47e40515a778fbbde4393395c3dd3588244203c3e478835473ffffffffffffffffffffffffffffffffffffffff60405191168152f35b346200026d575f7ffffffffffffffffffffffffffffffffffffffffffffffffffffffffffffffffc3601126200026d576200049d6200046c62003b91565b6040519182918291909160608060808301948051845260208101516020850152604081015160408501520151910152565b0390f35b346200026d575f7ffffffffffffffffffffffffffffffffffffffffffffffffffffffffffffffffc3601126200026d57602073ffffffffffffffffffffffffffffffffffffffff5f5416604051908152f35b346200026d5760407ffffffffffffffffffffffffffffffffffffffffffffffffffffffffffffffffc3601126200026d576004356024357fe7742ddf0fecd2926e7ef4d6d6e91a7b2f0b1f8805b78953dac8454e86273ed25473ffffffffffffffffffffffffffffffffffffffff9081339116036200035c57825f52602091600383528160405f20541615620005da57835f526004835260405f209080825492555f526006835260405f20845f52600584528260405f2054165f5283528360405f20555f526006825260405f20925f526005825260405f2054165f52525f60408120555f80f35b60046040517f7e387175000000000000000000000000000000000000000000000000000000008152fd5b346200026d5760207ffffffffffffffffffffffffffffffffffffffffffffffffffffffffffffffffc3601126200026d5773ffffffffffffffffffffffffffffffffffffffff620006546200364f565b165f526002602052602060ff60405f2054166040519015158152f35b346200026d5760607ffffffffffffffffffffffffffffffffffffffffffffffffffffffffffffffffc3601126200026d5760043573ffffffffffffffffffffffffffffffffffffffff8082168092036200026d576024359081168091036200026d57620006dc62003673565b906001907f6fee9688c285c5c5c97d6a1a29adced674e6b2ad0888b8ad2116b58a8b3ea2488281541015620008e2578290557f2801b00eb06461cf9fcb9758b5fafd884ff06a86177386f73b6c49f0bf5a5af0828155303b151580620008da575b620008a057303b151580620008d2575b620008a057337fe7742ddf0fecd2926e7ef4d6d6e91a7b2f0b1f8805b78953dac8454e86273ed255337f4ffd725fc4a22075e9ec71c59edf9c38cdeb588a91b24fc5b61388c5be41282b5f80a2303b151580620008ca575b620008a0577fbe9b076dc5b65990cca9dd9d7366682482e7817a6f6bc7f4faf4dc32af497f32946020945f937f2b50211693ec91bcfe327771928b74a8f475c508d53e86fca4153bcf0f0e8776557f5b5cbfa852c5bd03e540eba853f8faf28a604a4d82bee1091096bfaea14d08c3557fffffffffffffffffffffffff000000000000000000000000000000000000000083541617825581604080516200084c8162003518565b82815285878201520152680100000000000000006007558180526002845260408220837fffffffffffffffffffffffffffffffffffffffffffffffffffffffffffffff0082541617905555604051908152a1005b60046040517fb9a621e1000000000000000000000000000000000000000000000000000000008152fd5b505f620007a5565b505f6200074d565b505f6200073d565b602483604051907f3db738da0000000000000000000000000000000000000000000000000000000082526004820152fd5b346200026d5760207ffffffffffffffffffffffffffffffffffffffffffffffffffffffffffffffffc3601126200026d5760206200095a620009546200364f565b62003a73565b6040519015158152f35b346200026d5760207ffffffffffffffffffffffffffffffffffffffffffffffffffffffffffffffffc3601126200026d5760043573ffffffffffffffffffffffffffffffffffffffff8082168092036200026d577fe7742ddf0fecd2926e7ef4d6d6e91a7b2f0b1f8805b78953dac8454e86273ed254339116036200035c57805f52600160205260405f2060017fffffffffffffffffffffffffffffffffffffffffffffffffffffffffffffff008254161790557f6acfd92212f0ec670af78f8ba2273e4a85ac17023475650c25be0440602bff2d5f80a2005b346200026d5760207ffffffffffffffffffffffffffffffffffffffffffffffffffffffffffffffffc3601126200026d5762000a796200364f565b7fe7742ddf0fecd2926e7ef4d6d6e91a7b2f0b1f8805b78953dac8454e86273ed2549073ffffffffffffffffffffffffffffffffffffffff9182339116036200035c57807f675c83682abbc3e7dd47e40515a778fbbde4393395c3dd3588244203c3e4788355167f69f201bc2089b9be6195d876d97a0136b4cf56bbf8986a52dcb50697f7d1cac55f80a2005b346200026d5760807ffffffffffffffffffffffffffffffffffffffffffffffffffffffffffffffffc3601126200026d576024356004356040367fffffffffffffffffffffffffffffffffffffffffffffffffffffffffffffffbc01126200026d5760405162000b768162003535565b62000b8062003673565b8152606435908160010b82036200026d5760209384820192835273ffffffffffffffffffffffffffffffffffffffff906040517fb5ec02610000000000000000000000000000000000000000000000000000000081528160048201528681602481867f0000000000000000000000000000000000000000000000000000000000000000165afa90811562000e61575f9162000f17575b501562000eed577fe7742ddf0fecd2926e7ef4d6d6e91a7b2f0b1f8805b78953dac8454e86273ed25482339116036200035c57845f52600386528160405f20541662000e9957818351165f526002865260ff60405f2054161562000ec357805f526006865260405f20828451165f52865260405f205462000e99576040517f8129fc1c00000000000000000000000000000000000000000000000000000000878201526004815262000cc88162003535565b6040519061072f908183019083821067ffffffffffffffff83111762000e6c57604062000d0792859462003f188639308152818c820152019062003caa565b03905ff0801562000e6157821693845f527f81796b4965de195665289d95668a8a9e7020858e15f5341c42bcf9951c1768ad875260405f2060017fffffffffffffffffffffffffffffffffffffffffffffffffffffffffffffff00825416179055847f4fe45192317a7d3ad19c3eaa395c0c3a1b7a0f53c3536fb96764c3561a8e9dad5f80a2855f526003875260405f20857fffffffffffffffffffffffff0000000000000000000000000000000000000000825416179055600487528160405f20556005875260405f2090838551167fffffffffffffffffffff000000000000000000000000000000000000000000008354925160a01b75ffff0000000000000000000000000000000000000000169216171790555f526006855260405f209151165f5283528160405f205560405191817fb37c10e9bd31f2f04a1985d7ae7c9fd566192aa02f769929da69b972f73ff9955f80a38152f35b6040513d5f823e3d90fd5b7f4e487b71000000000000000000000000000000000000000000000000000000005f52604160045260245ffd5b60046040517f953ec95c000000000000000000000000000000000000000000000000000000008152fd5b60046040517fb2e11555000000000000000000000000000000000000000000000000000000008152fd5b60046040517f22445848000000000000000000000000000000000000000000000000000000008152fd5b62000f3c9150873d891162000f43575b62000f3381836200358c565b81019062003811565b8762000c16565b503d62000f27565b346200026d575f7ffffffffffffffffffffffffffffffffffffffffffffffffffffffffffffffffc3601126200026d57602073ffffffffffffffffffffffffffffffffffffffff7f2b50211693ec91bcfe327771928b74a8f475c508d53e86fca4153bcf0f0e87765416604051908152f35b346200026d5760407ffffffffffffffffffffffffffffffffffffffffffffffffffffffffffffffffc3601126200026d5760243573ffffffffffffffffffffffffffffffffffffffff81168091036200026d576004355f52600660205260405f20905f52602052602060405f2054604051908152f35b346200026d575f7ffffffffffffffffffffffffffffffffffffffffffffffffffffffffffffffffc3601126200026d576020604051608c8152f35b346200026d575f7ffffffffffffffffffffffffffffffffffffffffffffffffffffffffffffffffc3601126200026d5760206040517f00000000000000000000000000000000000000000000000000000000000000008152f35b346200026d5760207ffffffffffffffffffffffffffffffffffffffffffffffffffffffffffffffffc3601126200026d576004355f526003602052602073ffffffffffffffffffffffffffffffffffffffff60405f205416604051908152f35b346200026d575f7ffffffffffffffffffffffffffffffffffffffffffffffffffffffffffffffffc3601126200026d5760207f18e50ee9696440d335192aeeeffc26f47782eaa914f1700d8ad36d6d7f7261b35473ffffffffffffffffffffffffffffffffffffffff60405191168152f35b346200026d575f7ffffffffffffffffffffffffffffffffffffffffffffffffffffffffffffffffc3601126200026d576020620011d6620039bf565b604051908152f35b346200026d575f7ffffffffffffffffffffffffffffffffffffffffffffffffffffffffffffffffc3601126200026d576020604051610e108152f35b346200026d5760207ffffffffffffffffffffffffffffffffffffffffffffffffffffffffffffffffc3601126200026d576004355f5260056020526040805f205481519073ffffffffffffffffffffffffffffffffffffffff8116825260a01c60010b6020820152f35b346200026d575f7ffffffffffffffffffffffffffffffffffffffffffffffffffffffffffffffffc3601126200026d5760207fe7742ddf0fecd2926e7ef4d6d6e91a7b2f0b1f8805b78953dac8454e86273ed25473ffffffffffffffffffffffffffffffffffffffff60405191168152f35b346200026d575f7ffffffffffffffffffffffffffffffffffffffffffffffffffffffffffffffffc3601126200026d5773ffffffffffffffffffffffffffffffffffffffff807f18e50ee9696440d335192aeeeffc26f47782eaa914f1700d8ad36d6d7f7261b354163314159081620013ea575b50620013ba5760017f3d13b7e57307bea7f94c474c597247d2da93d7de9136f8e123ed6525f50bbcec557f9e87fac88ff661f02d44f95383c817fece4bce600a3dab7a54406878b965e7525f80a1005b60246040517ff7987a92000000000000000000000000000000000000000000000000000000008152336004820152fd5b90507fe7742ddf0fecd2926e7ef4d6d6e91a7b2f0b1f8805b78953dac8454e86273ed25416331415816200136a565b346200026d5760207ffffffffffffffffffffffffffffffffffffffffffffffffffffffffffffffffc3601126200026d5760043573ffffffffffffffffffffffffffffffffffffffff81168091036200026d575f526001602052602060ff60405f2054166040519015158152f35b346200026d575f7ffffffffffffffffffffffffffffffffffffffffffffffffffffffffffffffffc3601126200026d57602060405160108152f35b346200026d5760207ffffffffffffffffffffffffffffffffffffffffffffffffffffffffffffffffc3601126200026d575f6020604051620015048162003535565b82815201526004355f5260056020526040805f20815190620015268262003535565b54602073ffffffffffffffffffffffffffffffffffffffff821692838152019060a01c60010b815282519182525160010b6020820152f35b346200026d5760207ffffffffffffffffffffffffffffffffffffffffffffffffffffffffffffffffc3601126200026d576200049d6200046c600435620038cc565b346200026d575f7ffffffffffffffffffffffffffffffffffffffffffffffffffffffffffffffffc3601126200026d5760207f3d13b7e57307bea7f94c474c597247d2da93d7de9136f8e123ed6525f50bbcec546040519015158152f35b346200026d575f7ffffffffffffffffffffffffffffffffffffffffffffffffffffffffffffffffc3601126200026d57602060405173ffffffffffffffffffffffffffffffffffffffff7f0000000000000000000000000000000000000000000000000000000000000000168152f35b346200026d575f7ffffffffffffffffffffffffffffffffffffffffffffffffffffffffffffffffc3601126200026d575f60408051620016ae8162003518565b82815282602082015201526060604051620016c98162003518565b6fffffffffffffffffffffffffffffffff60075467ffffffffffffffff80821693848152604060208201918385831c168352019260801c83526040519485525116602084015251166040820152f35b346200026d5760207ffffffffffffffffffffffffffffffffffffffffffffffffffffffffffffffffc3601126200026d57620017536200364f565b7fe7742ddf0fecd2926e7ef4d6d6e91a7b2f0b1f8805b78953dac8454e86273ed2549073ffffffffffffffffffffffffffffffffffffffff9182339116036200035c57807f18e50ee9696440d335192aeeeffc26f47782eaa914f1700d8ad36d6d7f7261b355167fa4336c0cb1e245b95ad204faed7e940d6dc999684fd8b5e1ff597a0c4efca8ab5f80a2005b346200026d575f7ffffffffffffffffffffffffffffffffffffffffffffffffffffffffffffffffc3601126200026d5760206040517f00000000000000000000000000000000000000000000000000000000000000008152f35b346200026d5760207ffffffffffffffffffffffffffffffffffffffffffffffffffffffffffffffffc3601126200026d57620018756200364f565b7fe7742ddf0fecd2926e7ef4d6d6e91a7b2f0b1f8805b78953dac8454e86273ed2549073ffffffffffffffffffffffffffffffffffffffff9182339116036200035c5716805f52600260205260405f2060017fffffffffffffffffffffffffffffffffffffffffffffffffffffffffffffff008254161790557fb74a9480da82c8aeaa0a8d11c6b669cf4523927638ab05e29c80cef6abd7d7bd5f80a2005b346200026d5760207ffffffffffffffffffffffffffffffffffffffffffffffffffffffffffffffffc3601126200026d576004357fe7742ddf0fecd2926e7ef4d6d6e91a7b2f0b1f8805b78953dac8454e86273ed25473ffffffffffffffffffffffffffffffffffffffff339116036200035c5762001992620039bf565b90801562001a6557600754908160801c83111562001a6557610e10811162001a65577f1a5059878e785140a1fb5c714f4e1431d5ef2b6dcdd5edbdc61ffe4a76dd10459260409267ffffffffffffffff8091851c1690845190620019f68262003518565b82825284166020820152846fffffffffffffffffffffffffffffffff84169101527fffffffffffffffffffffffffffffffff000000000000000000000000000000008260801b16906fffffffffffffffff000000000000000084861b16171760075582519182526020820152a1005b60046040517f19136990000000000000000000000000000000000000000000000000000000008152fd5b346200026d575f7ffffffffffffffffffffffffffffffffffffffffffffffffffffffffffffffffc3601126200026d5773ffffffffffffffffffffffffffffffffffffffff807f18e50ee9696440d335192aeeeffc26f47782eaa914f1700d8ad36d6d7f7261b35416331415908162001b52575b50620013ba575f7f3d13b7e57307bea7f94c474c597247d2da93d7de9136f8e123ed6525f50bbcec557fa45f47fdea8a1efdd9029a5691c7f759c32b7c698632b563573e155625d169335f80a1005b90507fe7742ddf0fecd2926e7ef4d6d6e91a7b2f0b1f8805b78953dac8454e86273ed254163314158162001b03565b346200026d5760207ffffffffffffffffffffffffffffffffffffffffffffffffffffffffffffffffc3601126200026d576004355f526004602052602060405f2054604051908152f35b346200026d575f7ffffffffffffffffffffffffffffffffffffffffffffffffffffffffffffffffc3601126200026d5760207f5b5cbfa852c5bd03e540eba853f8faf28a604a4d82bee1091096bfaea14d08c35473ffffffffffffffffffffffffffffffffffffffff60405191168152f35b60607ffffffffffffffffffffffffffffffffffffffffffffffffffffffffffffffffc3601126200026d5760043567ffffffffffffffff81116200026d5762001c8b903690600401620035e7565b6044359067ffffffffffffffff82116200026d57366023830112156200026d5767ffffffffffffffff8260040135116200026d573660248360040135840101116200026d5760048201351562002bb05762001ce781516200378c565b906040519262001cf78462003535565b600184525f5b6020811062002b9e575062001d1b368260040135602484016200382b565b62001d26856200373c565b5262001d32846200373c565b508151927fffffffffffffffffffffffffffffffffffffffffffffffffffffffffffffffe062001d7f62001d6686620035ce565b9562001d7660405197886200358c565b808752620035ce565b013660208601375f5b835181101562001dd45762001d9e818562003777565b515f52600460205260405f205462001db7828762003777565b5262001dc4818662003777565b5115620005da5760010162001d88565b509190929360405180957f4716e9c50000000000000000000000000000000000000000000000000000000082526084820160806004840152835180915260a4830190602060a48260051b8601019501915f905b82821062002b4f575050505062001e6b8383927ffffffffffffffffffffffffffffffffffffffffffffffffffffffffffffffffc845f970301602485015262003697565b83604483015267ffffffffffffffff606483015203813473ffffffffffffffffffffffffffffffffffffffff7f0000000000000000000000000000000000000000000000000000000000000000165af193841562000e61575f9462002a68575b505f5b84518110156200201f57602062001ee6828762003777565b5101515160070b906040602062001efe838962003777565b5101510151917fffffffffffffffffffffffffffffffffffffffffffffffffffffffff8000000060128460030b0112637fffffff60128560030b01131762001ff257601260019360030b0160030b9062001f6c62001f6662001f608462003dd3565b62003d08565b62003de3565b5f6060602062001f7d878d62003777565b510151015193121562001fd65762001f9962001f9f9262003de3565b62003d17565b6040519162001fae8362003535565b8252602082015262001fc1828662003777565b5262001fce818562003777565b500162001ece565b62001feb90670de0b6b3a76400009262003e01565b0562001f9f565b7f4e487b71000000000000000000000000000000000000000000000000000000005f52601160045260245ffd5b509250915b81600401356200298c575b5f5b8351811015620021c95762002047818362003777565b515f52600560205260405f209060405191620020638362003535565b549173ffffffffffffffffffffffffffffffffffffffff83169283825260a01c60010b60208201528262002121575b600192505f6020620020b162001f6662001f6083860151880b62003dd3565b920151840b1215620020f557620020dd9062001f996020620020d4858a62003777565b51015162003de3565b6020620020eb838862003777565b5101520162002031565b6200211a670de0b6b3a764000091602062002111858a62003777565b51015162003e01565b05620020dd565b60208062002130848962003777565b5101516024604051809681937fd7c7a93500000000000000000000000000000000000000000000000000000000835260048301525afa801562000e61575f9062002190575b60019350602062002187848962003777565b51015262002092565b506020833d602011620021c0575b81620021ad602093836200358c565b810103126200026d576001925162002175565b3d91506200219e565b50825f925f5b83518110156200230257620021e5818562003777565b515f5260206003815273ffffffffffffffffffffffffffffffffffffffff60405f2054168164e8d4a51000816200221d868962003777565b510151056064604051620022318162003518565b60243581528381019283525f604082019589600401351515875260405196879586947f8fdd594700000000000000000000000000000000000000000000000000000000865251600486015251602485015251151560448401525af191821562000e61575f92620022e0575b5050620022ad575b600101620021cf565b937fffffffffffffffffffffffffffffffffffffffffffffffffffffffffffffffff811462001ff25760010193620022a4565b620022fa9250803d1062000f435762000f3381836200358c565b86806200229c565b8482816200230c57005b6200232d6200231b83620038cc565b9136906024816004013591016200382b565b5073ffffffffffffffffffffffffffffffffffffffff906040517f48b6404d0000000000000000000000000000000000000000000000000000000081526020938482600481877f0000000000000000000000000000000000000000000000000000000000000000165afa801562000e61575f9062002956575b620023b29250620038aa565b9060405191620023c2836200356f565b5f83525f858401525f604051620023d9816200356f565b525f948251938184015194156001171562001ff2576200241194670de0b6b3a76400009586916200240b48916200388c565b620038aa565b0493606060408201519101519151608c810180911162001ff2577f0fffffffffffffffffffffffffffffffffffffffffffffffffffffffffffffff8116810362001ff257604051917ff5d6ded70000000000000000000000000000000000000000000000000000000083528483600481606c5afa91821562000e615788935f9362002919575b5093620024c284620024ba6200240b946200240b620024c9989960041b6200388c565b04916200388c565b90620038be565b0493620024e285620024dc8686620038be565b620038be565b600460a0887f2b50211693ec91bcfe327771928b74a8f475c508d53e86fca4153bcf0f0e87765416604051928380927ffeaf968c0000000000000000000000000000000000000000000000000000000082525afa90811562000e61575f91620028b8575b50620025576305f5e1009162003de3565b05905f821262002887576200257992916200257291620038aa565b0462003d6e565b94805f5416956040517fd4938db300000000000000000000000000000000000000000000000000000000815283816004818b5afa90811562000e61575f9162002854575b50808210156200284b5750955b803b156200026d575f80916024604051809481937f379607f50000000000000000000000000000000000000000000000000000000083528c60048401525af1801562000e615762002835575b5064e8d4a510009586810296818804149015171562002808576200270d907f5b5cbfa852c5bd03e540eba853f8faf28a604a4d82bee1091096bfaea14d08c354166040519088808584017fa9059cbb0000000000000000000000000000000000000000000000000000000081523360248601528a6044860152604485526200269e8562003552565b60405194620026ad8662003535565b8786527f5361666545524332303a206c6f772d6c6576656c2063616c6c206661696c656488870152519082855af13d15620027ff573d91620026ef8362003701565b92620026ff60405194856200358c565b83523d8b8785013e62003e41565b80519082826200275b575b5050506040519586528501526040840152606083015260808201527ffa0333956d06e335c550bd5fc4ac9c003c6545e371331b1071fa4d5d8519d6c160a03392a2005b806200276c93830101910162003811565b156200277b5786808262002718565b608490604051907f08c379a00000000000000000000000000000000000000000000000000000000082526004820152602a60248201527f5361666545524332303a204552433230206f7065726174696f6e20646964206e60448201527f6f742073756363656564000000000000000000000000000000000000000000006064820152fd5b60609162003e41565b6024877f4e487b710000000000000000000000000000000000000000000000000000000081526011600452fd5b6200284291975062003503565b5f958762002616565b905095620025ca565b90508381813d83116200287f575b6200286e81836200358c565b810103126200026d575189620025bd565b503d62002862565b602482604051907f501f289e0000000000000000000000000000000000000000000000000000000082526004820152fd5b905060a0813d60a01162002910575b81620028d660a093836200358c565b810103126200026d576200255781620028f46305f5e1009362003dbb565b5062002907608087830151920162003dbb565b50915062002546565b3d9150620028c7565b935091508483813d81116200294e575b6200293581836200358c565b810103126200026d57915187929091620024c262002497565b503d62002929565b508482813d831162002984575b6200296f81836200358c565b810103126200026d57620023b29151620023a6565b503d62002963565b91907f0000000000000000000000000000000000000000000000000000000000000000905f5b835181101562002a5d57620029c8818562003777565b5151620029d884602435620038be565b11801562002a19575b620029ef57600101620029b2565b60046040517f0afa0593000000000000000000000000000000000000000000000000000000008152fd5b5062002a26818562003777565b515162002a567f0000000000000000000000000000000000000000000000000000000000000000602435620038be565b10620029e1565b50919290506200202f565b9093503d805f833e62002a7c81836200358c565b8101906020818303126200026d5780519067ffffffffffffffff82116200026d570181601f820112156200026d5780519062002ab882620035ce565b9262002ac860405194856200358c565b828452602084016020610120809502840101928284116200026d57602001905b83821062002afd575050505050928462001ecb565b84828403126200026d576020859160405162002b198162003518565b8451815262002b2b8684870162003c42565b8382015262002b3e8660a0870162003c42565b604082015281520191019062002ae8565b919394602062002b8d887fffffffffffffffffffffffffffffffffffffffffffffffffffffffffffffff5c8394600196989b03018652895162003caa565b970192019201899493919262001e27565b80606060208093880101520162001cfd565b9062002bbd82516200378c565b9162002024565b346200026d5760807ffffffffffffffffffffffffffffffffffffffffffffffffffffffffffffffffc3601126200026d5767ffffffffffffffff6004358181116200026d5762002c19903690600401620035e7565b602435918083116200026d57366023840112156200026d5782600401359162002c4283620035ce565b9362002c5260405195866200358c565b83855260208501906024829560051b820101903682116200026d57602401915b8183106200344a575050506044358281116200026d5762002c98903690600401620035e7565b916064359081116200026d5762002cb4903690600401620035e7565b9062002cbf62003b91565b60405194608060208701528562002cda60a082018562003697565b917fffffffffffffffffffffffffffffffffffffffffffffffffffffffffffffffe0928383820301604084015260208a51918281520191905f5b8181106200341a575050509062002d5062002d3f83858462002d5d97960301606085015289620036cc565b8383820301608084015287620036cc565b039081018752866200358c565b5f60405162002d6c816200356f565b525a90825180159081156200340d575b811562003400575b8115620033f3575b50620033c9575f5b835181101562002e6e5762002daa818562003777565b515f52600360205273ffffffffffffffffffffffffffffffffffffffff908160405f2054169162002ddc828b62003777565b511662002dea828962003777565b5162002df7838962003777565b5193803b156200026d575f928360649260405197889586947f3c4c6a280000000000000000000000000000000000000000000000000000000086526004860152602485015260448401525af191821562000e615760019262002e5c575b500162002d94565b62002e679062003503565b8962002e54565b50855a830392831162001ff25762002ea9915f91815162002eb660208401516200240b670de0b6b3a7640000809881956200240b8c6200388c565b04620024c248936200388c565b0491606060408201519101519151608c810180911162001ff2577f0fffffffffffffffffffffffffffffffffffffffffffffffffffffffffffffff8116810362001ff257604051917ff5d6ded7000000000000000000000000000000000000000000000000000000008352602083600481606c5afa91821562000e615787935f9362003387575b5093620024c284620024ba6200240b946200240b62002f60989960041b6200388c565b049162002f6e8383620038be565b9373ffffffffffffffffffffffffffffffffffffffff94600460a0877f2b50211693ec91bcfe327771928b74a8f475c508d53e86fca4153bcf0f0e87765416604051928380927ffeaf968c0000000000000000000000000000000000000000000000000000000082525afa90811562000e61575f9162003325575b5062002ffa6305f5e1009162003de3565b05905f821262002887576200301592916200257291620038aa565b93805f5416946040517fd4938db30000000000000000000000000000000000000000000000000000000081526020816004818a5afa90811562000e61575f91620032ed575b5080821015620032e45750945b803b156200026d575f80916024604051809481937f379607f50000000000000000000000000000000000000000000000000000000083528b60048401525af1801562000e6157620032ce575b5064e8d4a5100094858102958187041490151715620032a157620031ae907f5b5cbfa852c5bd03e540eba853f8faf28a604a4d82bee1091096bfaea14d08c35416604051908380602084017fa9059cbb000000000000000000000000000000000000000000000000000000008152336024860152896044860152604485526200313c8562003552565b604051946200314b8662003535565b602086527f5361666545524332303a206c6f772d6c6576656c2063616c6c206661696c65646020870152519082855af13d15620027ff573d916200318f8362003701565b926200319f60405194856200358c565b83523d86602085013e62003e41565b80519081620031fc575b505060405194855260208501526040840152606083015260808201527ffa0333956d06e335c550bd5fc4ac9c003c6545e371331b1071fa4d5d8519d6c160a03392a2005b6020806200320f93830101910162003811565b156200321d578580620031b8565b60846040517f08c379a000000000000000000000000000000000000000000000000000000000815260206004820152602a60248201527f5361666545524332303a204552433230206f7065726174696f6e20646964206e60448201527f6f742073756363656564000000000000000000000000000000000000000000006064820152fd5b6024827f4e487b710000000000000000000000000000000000000000000000000000000081526011600452fd5b620032db91925062003503565b5f9086620030b3565b90509462003067565b90506020813d6020116200331c575b816200330b602093836200358c565b810103126200026d5751886200305a565b3d9150620032fc565b905060a0813d60a0116200337e575b816200334360a093836200358c565b810103126200026d5762002ffa81620033616305f5e1009362003dbb565b506200337560806020830151920162003dbb565b50915062002fe9565b3d915062003334565b935091506020833d602011620033c0575b81620033a7602093836200358c565b810103126200026d57915186929091620024c262002f3d565b3d915062003398565b60046040517fb043fd7b000000000000000000000000000000000000000000000000000000008152fd5b9050845114158862002d8c565b8651811415915062002d84565b8851811415915062002d7c565b825173ffffffffffffffffffffffffffffffffffffffff1684528a94506020938401939092019160010162002d14565b823573ffffffffffffffffffffffffffffffffffffffff811681036200026d5781526020928301920162002c72565b346200026d5760207ffffffffffffffffffffffffffffffffffffffffffffffffffffffffffffffffc3601126200026d576004359073ffffffffffffffffffffffffffffffffffffffff82168092036200026d576020915f527f81796b4965de195665289d95668a8a9e7020858e15f5341c42bcf9951c1768ad825260ff60405f20541615158152f35b67ffffffffffffffff811162000e6c57604052565b6060810190811067ffffffffffffffff82111762000e6c57604052565b6040810190811067ffffffffffffffff82111762000e6c57604052565b6080810190811067ffffffffffffffff82111762000e6c57604052565b6020810190811067ffffffffffffffff82111762000e6c57604052565b90601f7fffffffffffffffffffffffffffffffffffffffffffffffffffffffffffffffe0910116810190811067ffffffffffffffff82111762000e6c57604052565b67ffffffffffffffff811162000e6c5760051b60200190565b9080601f830112156200026d5760209082356200360481620035ce565b936200361460405195866200358c565b81855260208086019260051b8201019283116200026d57602001905b8282106200363f575050505090565b8135815290830190830162003630565b6004359073ffffffffffffffffffffffffffffffffffffffff821682036200026d57565b6044359073ffffffffffffffffffffffffffffffffffffffff821682036200026d57565b9081518082526020808093019301915f5b828110620036b7575050505090565b835185529381019392810192600101620036a8565b9081518082526020808093019301915f5b828110620036ec575050505090565b835185529381019392810192600101620036dd565b67ffffffffffffffff811162000e6c57601f017fffffffffffffffffffffffffffffffffffffffffffffffffffffffffffffffe01660200190565b8051156200374a5760200190565b7f4e487b71000000000000000000000000000000000000000000000000000000005f52603260045260245ffd5b80518210156200374a5760209160051b010190565b906200379882620035ce565b604090620037aa60405191826200358c565b8381527fffffffffffffffffffffffffffffffffffffffffffffffffffffffffffffffe0620037da8295620035ce565b01915f5b838110620037ec5750505050565b6020908251620037fc8162003535565b5f8152825f81830152828601015201620037de565b908160209103126200026d575180151581036200026d5790565b929192620038398262003701565b916200384960405193846200358c565b8294818452818301116200026d578281602093845f960137010152565b60405190620038758262003552565b5f6060838281528260208201528260408201520152565b90670de0b6b3a76400009182810292818404149015171562001ff257565b8181029291811591840414171562001ff257565b9190820180921162001ff257565b620038d662003866565b506200395a620039336200390b837f0000000000000000000000000000000000000000000000000000000000000000620038aa565b927f0000000000000000000000000000000000000000000000000000000000000000620038aa565b7f0000000000000000000000000000000000000000000000000000000000000000620038be565b60405191620039698362003552565b7f0000000000000000000000000000000000000000000000000000000000000000835260208301527f00000000000000000000000000000000000000000000000000000000000000006040830152606082015290565b60075467ffffffffffffffff90608081901c421162003a6957165b42620039ef57620039ec905f620038aa565b90565b7fffffffffffffffffffffffffffffffffffffffffffffffffffffffffffffffff420142811162001ff257811562003a3c57819004906001820180921162001ff257620039ec91620038aa565b7f4e487b71000000000000000000000000000000000000000000000000000000005f52601260045260245ffd5b60401c16620039da565b6040517fc45a015500000000000000000000000000000000000000000000000000000000815273ffffffffffffffffffffffffffffffffffffffff918216916020918281600481875afa90811562000e61575f9162003b54575b501691604051907f032bb44300000000000000000000000000000000000000000000000000000000825260048201528181602481865afa90811562000e61575f9162003b32575b501562003b2c576001915f525260ff60405f20541690565b50505f90565b62003b4d9150823d841162000f435762000f3381836200358c565b5f62003b14565b90508281813d831162003b89575b62003b6e81836200358c565b810103126200026d575181811681036200026d575f62003acd565b503d62003b62565b62003b9b62003866565b5060405162003baa8162003552565b7f000000000000000000000000000000000000000000000000000000000000000081527f000000000000000000000000000000000000000000000000000000000000000060208201527f000000000000000000000000000000000000000000000000000000000000000060408201527f0000000000000000000000000000000000000000000000000000000000000000606082015290565b91908260809103126200026d5760405162003c5d8162003552565b809280518060070b81036200026d578252602081015167ffffffffffffffff811681036200026d57602083015260408101518060030b81036200026d576040830152606090810151910152565b91908251928382525f5b84811062003cf35750507fffffffffffffffffffffffffffffffffffffffffffffffffffffffffffffffe0601f845f6020809697860101520116010190565b60208183018101518483018201520162003cb4565b604d811162001ff257600a0a90565b811562003a3c577fffffffffffffffffffffffffffffffffffffffffffffffffffffffffffffffff82147f800000000000000000000000000000000000000000000000000000000000000082141662001ff2570590565b8062003d7957505f90565b7fffffffffffffffffffffffffffffffffffffffffffffffffffffffffffffffff810190811162001ff25764e8d4a5100090046001810180911162001ff25790565b519069ffffffffffffffffffff821682036200026d57565b5f811262003dde5790565b5f0390565b90670de0b6b3a76400009182810292818405149015171562001ff257565b81810292915f82127f800000000000000000000000000000000000000000000000000000000000000082141662001ff257818405149015171562001ff257565b9192901562003ebf575081511562003e57575090565b3b1562003e615790565b60646040517f08c379a000000000000000000000000000000000000000000000000000000000815260206004820152601d60248201527f416464726573733a2063616c6c20746f206e6f6e2d636f6e74726163740000006044820152fd5b82519091501562003ed35750805190602001fd5b62003f13906040519182917f08c379a000000000000000000000000000000000000000000000000000000000835260206004840152602483019062003caa565b0390fdfe608060409080825261072f80380380916100198285610342565b833981019082818303126102385761003081610365565b6020828101516001600160401b039391929184821161023857019084601f830112156102385781519161006283610379565b9261006f88519485610342565b8084528484019685828401011161023857868561008c9301610394565b803b156102f0578551635c60da1b60e01b80825292916001600160a01b0316908481600481855afa9081156102e6575f916102b1575b503b15610254577fa3f0ad74e5423aebfd80d3ef4346578335a9a72aeaee59ff6cb3582b35133d5080546001600160a01b03191682179055865192817f1cf3b03a6cf19fa2baba4df148e9dcabedea7f8a5c07840e207e5c089be95d3e5f80a282511580159061024d575b610140575b87516102c690816104698239f35b6004848693819382525afa918215610243575f92610208575b5085519360608501908111858210176101f4578652602784527f416464726573733a206c6f772d6c6576656c2064656c65676174652063616c6c83850152660819985a5b195960ca1b84870152516101de945f918291845af4903d156101eb573d6101c381610379565b906101d088519283610342565b81525f81943d92013e6103b5565b505f808080808080610132565b606092506103b5565b634e487b7160e01b5f52604160045260245ffd5b9091508281813d831161023c575b6102208183610342565b810103126102385761023190610365565b905f610159565b5f80fd5b503d610216565b86513d5f823e3d90fd5b505f61012d565b865162461bcd60e51b815260048101859052603060248201527f455243313936373a20626561636f6e20696d706c656d656e746174696f6e206960448201526f1cc81b9bdd08184818dbdb9d1c9858dd60821b6064820152608490fd5b90508481813d83116102df575b6102c88183610342565b81010312610238576102d990610365565b5f6100c2565b503d6102be565b88513d5f823e3d90fd5b855162461bcd60e51b815260048101849052602560248201527f455243313936373a206e657720626561636f6e206973206e6f74206120636f6e6044820152641d1c9858dd60da1b6064820152608490fd5b601f909101601f19168101906001600160401b038211908210176101f457604052565b51906001600160a01b038216820361023857565b6001600160401b0381116101f457601f01601f191660200190565b5f5b8381106103a55750505f910152565b8181015183820152602001610396565b9192901561041757508151156103c9575090565b3b156103d25790565b60405162461bcd60e51b815260206004820152601d60248201527f416464726573733a2063616c6c20746f206e6f6e2d636f6e74726163740000006044820152606490fd5b82519091501561042a5750805190602001fd5b6044604051809262461bcd60e51b82526020600483015261045a8151809281602486015260208686019101610394565b601f01601f19168101030190fdfe6080806040523661011c5760208160048173ffffffffffffffffffffffffffffffffffffffff7fa3f0ad74e5423aebfd80d3ef4346578335a9a72aeaee59ff6cb3582b35133d5054167f5c60da1b0000000000000000000000000000000000000000000000000000000082525afa908115610111575f91610081575b50610273565b905060203d60201161010a575b7fffffffffffffffffffffffffffffffffffffffffffffffffffffffffffffffe0601f82011682019180831067ffffffffffffffff8411176100dd576100d792604052016101f6565b5f61007b565b7f4e487b71000000000000000000000000000000000000000000000000000000005f52604160045260245ffd5b503d61008e565b6040513d5f823e3d90fd5b6004602073ffffffffffffffffffffffffffffffffffffffff7fa3f0ad74e5423aebfd80d3ef4346578335a9a72aeaee59ff6cb3582b35133d505416604051928380927f5c60da1b0000000000000000000000000000000000000000000000000000000082525afa908115610111575f916101975750610273565b602091503d82116101ee575b7fffffffffffffffffffffffffffffffffffffffffffffffffffffffffffffffe0601f83011681019181831067ffffffffffffffff8411176100dd576100d792604052810190610247565b3d91506101a3565b7fffffffffffffffffffffffffffffffffffffffffffffffffffffffffffffff8060209101126102435760805173ffffffffffffffffffffffffffffffffffffffff811681036102435790565b5f80fd5b90816020910312610243575173ffffffffffffffffffffffffffffffffffffffff811681036102435790565b5f8091368280378136915af43d5f803e1561028c573d5ff35b3d5ffdfea2646970667358221220ec432b4747e143afd3ca9be003efbb7d4ac773fd8dbbac59b6729d6be9a1e1a164736f6c63430008180033a26469706673582212202e1c5d06d5890d3606f43fe7b9523b7dcd345dcad4b625566dcef7e6ad08040a64736f6c63430008180033"
}