{
  "address": "0xbca5dFb4Ff2a70dDe4A275661b462021B8eB1ebA",
  "abi": [
    {
      "inputs": [],
      "name": "AccountStorageInvalidError",
      "type": "error"
    },
    {
      "inputs": [],
      "name": "AccountStorageInvalidError",
      "type": "error"
    },
    {
      "inputs": [],
      "name": "CheckpointStorageInvalidError",
      "type": "error"
    },
    {
      "inputs": [],
      "name": "CheckpointStorageInvalidError",
      "type": "error"
    },
    {
      "inputs": [
        {
          "internalType": "uint256",
          "name": "value",
          "type": "uint256"
        }
      ],
      "name": "Fixed6OverflowError",
      "type": "error"
    },
    {
      "inputs": [
        {
          "internalType": "address",
          "name": "sender",
          "type": "address"
        }
      ],
      "name": "InstanceNotOwnerError",
      "type": "error"
    },
    {
      "inputs": [],
      "name": "InstancePausedError",
      "type": "error"
    },
    {
      "inputs": [],
      "name": "MappingStorageInvalidError",
      "type": "error"
    },
    {
      "inputs": [],
      "name": "MappingStorageInvalidError",
      "type": "error"
    },
    {
      "inputs": [],
      "name": "RegistrationStorageInvalidError",
      "type": "error"
    },
    {
      "inputs": [],
      "name": "RegistrationStorageInvalidError",
      "type": "error"
    },
    {
      "inputs": [
        {
          "internalType": "int256",
          "name": "value",
          "type": "int256"
        }
      ],
      "name": "UFixed6UnderflowError",
      "type": "error"
    },
    {
      "inputs": [
        {
          "internalType": "uint256",
          "name": "version",
          "type": "uint256"
        }
      ],
      "name": "UInitializableAlreadyInitializedError",
      "type": "error"
    },
    {
      "inputs": [],
      "name": "UInitializableNotInitializingError",
      "type": "error"
    },
    {
      "inputs": [],
      "name": "UInitializableZeroVersionError",
      "type": "error"
    },
    {
      "inputs": [],
      "name": "VaultDepositLimitExceededError",
      "type": "error"
    },
    {
      "inputs": [],
      "name": "VaultExistingOrderError",
      "type": "error"
    },
    {
      "inputs": [],
      "name": "VaultIncorrectAssetError",
      "type": "error"
    },
    {
      "inputs": [],
      "name": "VaultInsufficientMinimumError",
      "type": "error"
    },
    {
      "inputs": [],
      "name": "VaultMarketDoesNotExistError",
      "type": "error"
    },
    {
      "inputs": [],
      "name": "VaultMarketExistsError",
      "type": "error"
    },
    {
      "inputs": [],
      "name": "VaultNotMarketError",
      "type": "error"
    },
    {
      "inputs": [],
      "name": "VaultNotOperatorError",
      "type": "error"
    },
    {
      "inputs": [],
      "name": "VaultNotSingleSidedError",
      "type": "error"
    },
    {
      "inputs": [],
      "name": "VaultParameterStorageInvalidError",
      "type": "error"
    },
    {
      "inputs": [],
      "name": "VaultParameterStorageInvalidError",
      "type": "error"
    },
    {
      "inputs": [],
      "name": "VaultRedemptionLimitExceededError",
      "type": "error"
    },
    {
      "anonymous": false,
      "inputs": [
        {
          "indexed": false,
          "internalType": "uint256",
          "name": "version",
          "type": "uint256"
        }
      ],
      "name": "Initialized",
      "type": "event"
    },
    {
      "anonymous": false,
      "inputs": [
        {
          "indexed": true,
          "internalType": "uint256",
          "name": "marketId",
          "type": "uint256"
        },
        {
          "indexed": false,
          "internalType": "contract IMarket",
          "name": "market",
          "type": "address"
        }
      ],
      "name": "MarketRegistered",
      "type": "event"
    },
    {
      "anonymous": false,
      "inputs": [
        {
          "indexed": true,
          "internalType": "uint256",
          "name": "marketId",
          "type": "uint256"
        },
        {
          "indexed": false,
          "internalType": "uint256",
          "name": "newWeight",
          "type": "uint256"
        },
        {
          "indexed": false,
          "internalType": "UFixed6",
          "name": "newLeverage",
          "type": "uint256"
        }
      ],
      "name": "MarketUpdated",
      "type": "event"
    },
    {
      "anonymous": false,
      "inputs": [
        {
          "components": [
            {
              "internalType": "UFixed6",
              "name": "cap",
              "type": "uint256"
            }
          ],
          "indexed": false,
          "internalType": "struct VaultParameter",
          "name": "newParameter",
          "type": "tuple"
        }
      ],
      "name": "ParameterUpdated",
      "type": "event"
    },
    {
      "anonymous": false,
      "inputs": [
        {
          "indexed": true,
          "internalType": "address",
          "name": "sender",
          "type": "address"
        },
        {
          "indexed": true,
          "internalType": "address",
          "name": "account",
          "type": "address"
        },
        {
          "indexed": false,
          "internalType": "uint256",
          "name": "version",
          "type": "uint256"
        },
        {
          "indexed": false,
          "internalType": "UFixed6",
          "name": "depositAssets",
          "type": "uint256"
        },
        {
          "indexed": false,
          "internalType": "UFixed6",
          "name": "redeemShares",
          "type": "uint256"
        },
        {
          "indexed": false,
          "internalType": "UFixed6",
          "name": "claimAssets",
          "type": "uint256"
        }
      ],
      "name": "Update",
      "type": "event"
    },
    {
      "inputs": [
        {
          "components": [
            {
              "internalType": "UFixed6",
              "name": "settlementFee",
              "type": "uint256"
            },
            {
              "internalType": "uint256",
              "name": "totalWeight",
              "type": "uint256"
            },
            {
              "internalType": "uint256",
              "name": "currentId",
              "type": "uint256"
            },
            {
              "components": [
                {
                  "internalType": "contract IMarket",
                  "name": "market",
                  "type": "address"
                },
                {
                  "internalType": "uint256",
                  "name": "weight",
                  "type": "uint256"
                },
                {
                  "internalType": "UFixed6",
                  "name": "leverage",
                  "type": "uint256"
                }
              ],
              "internalType": "struct Registration[]",
              "name": "registrations",
              "type": "tuple[]"
            },
            {
              "components": [
                {
                  "internalType": "UFixed6",
                  "name": "latestPrice",
                  "type": "uint256"
                },
                {
                  "internalType": "UFixed6",
                  "name": "currentPosition",
                  "type": "uint256"
                },
                {
                  "internalType": "UFixed6",
                  "name": "currentNet",
                  "type": "uint256"
                },
                {
                  "internalType": "Fixed6",
                  "name": "collateral",
                  "type": "int256"
                }
              ],
              "internalType": "struct IVault.MarketContext[]",
              "name": "markets",
              "type": "tuple[]"
            },
            {
              "components": [
                {
                  "internalType": "uint256[]",
                  "name": "_ids",
                  "type": "uint256[]"
                }
              ],
              "internalType": "struct Mapping",
              "name": "currentIds",
              "type": "tuple"
            },
            {
              "components": [
                {
                  "internalType": "uint256[]",
                  "name": "_ids",
                  "type": "uint256[]"
                }
              ],
              "internalType": "struct Mapping",
              "name": "latestIds",
              "type": "tuple"
            },
            {
              "components": [
                {
                  "internalType": "UFixed6",
                  "name": "cap",
                  "type": "uint256"
                }
              ],
              "internalType": "struct VaultParameter",
              "name": "parameter",
              "type": "tuple"
            },
            {
              "components": [
                {
                  "internalType": "UFixed6",
                  "name": "deposit",
                  "type": "uint256"
                },
                {
                  "internalType": "UFixed6",
                  "name": "redemption",
                  "type": "uint256"
                },
                {
                  "internalType": "UFixed6",
                  "name": "shares",
                  "type": "uint256"
                },
                {
                  "internalType": "Fixed6",
                  "name": "assets",
                  "type": "int256"
                },
                {
                  "internalType": "UFixed6",
                  "name": "fee",
                  "type": "uint256"
                },
                {
                  "internalType": "UFixed6",
                  "name": "keeper",
                  "type": "uint256"
                },
                {
                  "internalType": "uint256",
                  "name": "count",
                  "type": "uint256"
                }
              ],
              "internalType": "struct Checkpoint",
              "name": "currentCheckpoint",
              "type": "tuple"
            },
            {
              "components": [
                {
                  "internalType": "UFixed6",
                  "name": "deposit",
                  "type": "uint256"
                },
                {
                  "internalType": "UFixed6",
                  "name": "redemption",
                  "type": "uint256"
                },
                {
                  "internalType": "UFixed6",
                  "name": "shares",
                  "type": "uint256"
                },
                {
                  "internalType": "Fixed6",
                  "name": "assets",
                  "type": "int256"
                },
                {
                  "internalType": "UFixed6",
                  "name": "fee",
                  "type": "uint256"
                },
                {
                  "internalType": "UFixed6",
                  "name": "keeper",
                  "type": "uint256"
                },
                {
                  "internalType": "uint256",
                  "name": "count",
                  "type": "uint256"
                }
              ],
              "internalType": "struct Checkpoint",
              "name": "latestCheckpoint",
              "type": "tuple"
            },
            {
              "components": [
                {
                  "internalType": "uint256",
                  "name": "current",
                  "type": "uint256"
                },
                {
                  "internalType": "uint256",
                  "name": "latest",
                  "type": "uint256"
                },
                {
                  "internalType": "UFixed6",
                  "name": "shares",
                  "type": "uint256"
                },
                {
                  "internalType": "UFixed6",
                  "name": "assets",
                  "type": "uint256"
                },
                {
                  "internalType": "UFixed6",
                  "name": "deposit",
                  "type": "uint256"
                },
                {
                  "internalType": "UFixed6",
                  "name": "redemption",
                  "type": "uint256"
                }
              ],
              "internalType": "struct Account",
              "name": "global",
              "type": "tuple"
            },
            {
              "components": [
                {
                  "internalType": "uint256",
                  "name": "current",
                  "type": "uint256"
                },
                {
                  "internalType": "uint256",
                  "name": "latest",
                  "type": "uint256"
                },
                {
                  "internalType": "UFixed6",
                  "name": "shares",
                  "type": "uint256"
                },
                {
                  "internalType": "UFixed6",
                  "name": "assets",
                  "type": "uint256"
                },
                {
                  "internalType": "UFixed6",
                  "name": "deposit",
                  "type": "uint256"
                },
                {
                  "internalType": "UFixed6",
                  "name": "redemption",
                  "type": "uint256"
                }
              ],
              "internalType": "struct Account",
              "name": "local",
              "type": "tuple"
            }
          ],
          "internalType": "struct IVault.Context",
          "name": "context",
          "type": "tuple"
        }
      ],
      "name": "_collateral",
      "outputs": [
        {
          "internalType": "Fixed6",
          "name": "value",
          "type": "int256"
        }
      ],
      "stateMutability": "view",
      "type": "function"
    },
    {
      "inputs": [
        {
          "components": [
            {
              "internalType": "UFixed6",
              "name": "settlementFee",
              "type": "uint256"
            },
            {
              "internalType": "uint256",
              "name": "totalWeight",
              "type": "uint256"
            },
            {
              "internalType": "uint256",
              "name": "currentId",
              "type": "uint256"
            },
            {
              "components": [
                {
                  "internalType": "contract IMarket",
                  "name": "market",
                  "type": "address"
                },
                {
                  "internalType": "uint256",
                  "name": "weight",
                  "type": "uint256"
                },
                {
                  "internalType": "UFixed6",
                  "name": "leverage",
                  "type": "uint256"
                }
              ],
              "internalType": "struct Registration[]",
              "name": "registrations",
              "type": "tuple[]"
            },
            {
              "components": [
                {
                  "internalType": "UFixed6",
                  "name": "latestPrice",
                  "type": "uint256"
                },
                {
                  "internalType": "UFixed6",
                  "name": "currentPosition",
                  "type": "uint256"
                },
                {
                  "internalType": "UFixed6",
                  "name": "currentNet",
                  "type": "uint256"
                },
                {
                  "internalType": "Fixed6",
                  "name": "collateral",
                  "type": "int256"
                }
              ],
              "internalType": "struct IVault.MarketContext[]",
              "name": "markets",
              "type": "tuple[]"
            },
            {
              "components": [
                {
                  "internalType": "uint256[]",
                  "name": "_ids",
                  "type": "uint256[]"
                }
              ],
              "internalType": "struct Mapping",
              "name": "currentIds",
              "type": "tuple"
            },
            {
              "components": [
                {
                  "internalType": "uint256[]",
                  "name": "_ids",
                  "type": "uint256[]"
                }
              ],
              "internalType": "struct Mapping",
              "name": "latestIds",
              "type": "tuple"
            },
            {
              "components": [
                {
                  "internalType": "UFixed6",
                  "name": "cap",
                  "type": "uint256"
                }
              ],
              "internalType": "struct VaultParameter",
              "name": "parameter",
              "type": "tuple"
            },
            {
              "components": [
                {
                  "internalType": "UFixed6",
                  "name": "deposit",
                  "type": "uint256"
                },
                {
                  "internalType": "UFixed6",
                  "name": "redemption",
                  "type": "uint256"
                },
                {
                  "internalType": "UFixed6",
                  "name": "shares",
                  "type": "uint256"
                },
                {
                  "internalType": "Fixed6",
                  "name": "assets",
                  "type": "int256"
                },
                {
                  "internalType": "UFixed6",
                  "name": "fee",
                  "type": "uint256"
                },
                {
                  "internalType": "UFixed6",
                  "name": "keeper",
                  "type": "uint256"
                },
                {
                  "internalType": "uint256",
                  "name": "count",
                  "type": "uint256"
                }
              ],
              "internalType": "struct Checkpoint",
              "name": "currentCheckpoint",
              "type": "tuple"
            },
            {
              "components": [
                {
                  "internalType": "UFixed6",
                  "name": "deposit",
                  "type": "uint256"
                },
                {
                  "internalType": "UFixed6",
                  "name": "redemption",
                  "type": "uint256"
                },
                {
                  "internalType": "UFixed6",
                  "name": "shares",
                  "type": "uint256"
                },
                {
                  "internalType": "Fixed6",
                  "name": "assets",
                  "type": "int256"
                },
                {
                  "internalType": "UFixed6",
                  "name": "fee",
                  "type": "uint256"
                },
                {
                  "internalType": "UFixed6",
                  "name": "keeper",
                  "type": "uint256"
                },
                {
                  "internalType": "uint256",
                  "name": "count",
                  "type": "uint256"
                }
              ],
              "internalType": "struct Checkpoint",
              "name": "latestCheckpoint",
              "type": "tuple"
            },
            {
              "components": [
                {
                  "internalType": "uint256",
                  "name": "current",
                  "type": "uint256"
                },
                {
                  "internalType": "uint256",
                  "name": "latest",
                  "type": "uint256"
                },
                {
                  "internalType": "UFixed6",
                  "name": "shares",
                  "type": "uint256"
                },
                {
                  "internalType": "UFixed6",
                  "name": "assets",
                  "type": "uint256"
                },
                {
                  "internalType": "UFixed6",
                  "name": "deposit",
                  "type": "uint256"
                },
                {
                  "internalType": "UFixed6",
                  "name": "redemption",
                  "type": "uint256"
                }
              ],
              "internalType": "struct Account",
              "name": "global",
              "type": "tuple"
            },
            {
              "components": [
                {
                  "internalType": "uint256",
                  "name": "current",
                  "type": "uint256"
                },
                {
                  "internalType": "uint256",
                  "name": "latest",
                  "type": "uint256"
                },
                {
                  "internalType": "UFixed6",
                  "name": "shares",
                  "type": "uint256"
                },
                {
                  "internalType": "UFixed6",
                  "name": "assets",
                  "type": "uint256"
                },
                {
                  "internalType": "UFixed6",
                  "name": "deposit",
                  "type": "uint256"
                },
                {
                  "internalType": "UFixed6",
                  "name": "redemption",
                  "type": "uint256"
                }
              ],
              "internalType": "struct Account",
              "name": "local",
              "type": "tuple"
            }
          ],
          "internalType": "struct IVault.Context",
          "name": "context",
          "type": "tuple"
        },
        {
          "internalType": "uint256",
          "name": "id",
          "type": "uint256"
        }
      ],
      "name": "_collateralAtId",
      "outputs": [
        {
          "internalType": "Fixed6",
          "name": "value",
          "type": "int256"
        },
        {
          "internalType": "UFixed6",
          "name": "fee",
          "type": "uint256"
        },
        {
          "internalType": "UFixed6",
          "name": "keeper",
          "type": "uint256"
        }
      ],
      "stateMutability": "view",
      "type": "function"
    },
    {
      "inputs": [
        {
          "internalType": "address",
          "name": "account",
          "type": "address"
        }
      ],
      "name": "accounts",
      "outputs": [
        {
          "components": [
            {
              "internalType": "uint256",
              "name": "current",
              "type": "uint256"
            },
            {
              "internalType": "uint256",
              "name": "latest",
              "type": "uint256"
            },
            {
              "internalType": "UFixed6",
              "name": "shares",
              "type": "uint256"
            },
            {
              "internalType": "UFixed6",
              "name": "assets",
              "type": "uint256"
            },
            {
              "internalType": "UFixed6",
              "name": "deposit",
              "type": "uint256"
            },
            {
              "internalType": "UFixed6",
              "name": "redemption",
              "type": "uint256"
            }
          ],
          "internalType": "struct Account",
          "name": "",
          "type": "tuple"
        }
      ],
      "stateMutability": "view",
      "type": "function"
    },
    {
      "inputs": [],
      "name": "asset",
      "outputs": [
        {
          "internalType": "Token18",
          "name": "",
          "type": "address"
        }
      ],
      "stateMutability": "view",
      "type": "function"
    },
    {
      "inputs": [],
      "name": "claimReward",
      "outputs": [],
      "stateMutability": "nonpayable",
      "type": "function"
    },
    {
      "inputs": [
        {
          "internalType": "UFixed6",
          "name": "shares",
          "type": "uint256"
        }
      ],
      "name": "convertToAssets",
      "outputs": [
        {
          "internalType": "UFixed6",
          "name": "",
          "type": "uint256"
        }
      ],
      "stateMutability": "view",
      "type": "function"
    },
    {
      "inputs": [
        {
          "internalType": "UFixed6",
          "name": "assets",
          "type": "uint256"
        }
      ],
      "name": "convertToShares",
      "outputs": [
        {
          "internalType": "UFixed6",
          "name": "",
          "type": "uint256"
        }
      ],
      "stateMutability": "view",
      "type": "function"
    },
    {
      "inputs": [],
      "name": "factory",
      "outputs": [
        {
          "internalType": "contract IFactory",
          "name": "",
          "type": "address"
        }
      ],
      "stateMutability": "view",
      "type": "function"
    },
    {
      "inputs": [
        {
          "internalType": "Token18",
          "name": "asset_",
          "type": "address"
        },
        {
          "internalType": "contract IMarket",
          "name": "initialMarket",
          "type": "address"
        },
        {
          "internalType": "string",
          "name": "name_",
          "type": "string"
        }
      ],
      "name": "initialize",
      "outputs": [],
      "stateMutability": "nonpayable",
      "type": "function"
    },
    {
      "inputs": [],
      "name": "name",
      "outputs": [
        {
          "internalType": "string",
          "name": "",
          "type": "string"
        }
      ],
      "stateMutability": "view",
      "type": "function"
    },
    {
      "inputs": [],
      "name": "parameter",
      "outputs": [
        {
          "components": [
            {
              "internalType": "UFixed6",
              "name": "cap",
              "type": "uint256"
            }
          ],
          "internalType": "struct VaultParameter",
          "name": "",
          "type": "tuple"
        }
      ],
      "stateMutability": "view",
      "type": "function"
    },
    {
      "inputs": [
        {
          "internalType": "contract IMarket",
          "name": "market",
          "type": "address"
        }
      ],
      "name": "register",
      "outputs": [],
      "stateMutability": "nonpayable",
      "type": "function"
    },
    {
      "inputs": [
        {
          "internalType": "uint256",
          "name": "marketId",
          "type": "uint256"
        }
      ],
      "name": "registrations",
      "outputs": [
        {
          "components": [
            {
              "internalType": "contract IMarket",
              "name": "market",
              "type": "address"
            },
            {
              "internalType": "uint256",
              "name": "weight",
              "type": "uint256"
            },
            {
              "internalType": "UFixed6",
              "name": "leverage",
              "type": "uint256"
            }
          ],
          "internalType": "struct Registration",
          "name": "",
          "type": "tuple"
        }
      ],
      "stateMutability": "view",
      "type": "function"
    },
    {
      "inputs": [
        {
          "internalType": "address",
          "name": "account",
          "type": "address"
        }
      ],
      "name": "settle",
      "outputs": [],
      "stateMutability": "nonpayable",
      "type": "function"
    },
    {
      "inputs": [],
      "name": "totalAssets",
      "outputs": [
        {
          "internalType": "Fixed6",
          "name": "",
          "type": "int256"
        }
      ],
      "stateMutability": "view",
      "type": "function"
    },
    {
      "inputs": [],
      "name": "totalMarkets",
      "outputs": [
        {
          "internalType": "uint256",
          "name": "",
          "type": "uint256"
        }
      ],
      "stateMutability": "view",
      "type": "function"
    },
    {
      "inputs": [],
      "name": "totalShares",
      "outputs": [
        {
          "internalType": "UFixed6",
          "name": "",
          "type": "uint256"
        }
      ],
      "stateMutability": "view",
      "type": "function"
    },
    {
      "inputs": [
        {
          "internalType": "address",
          "name": "account",
          "type": "address"
        },
        {
          "internalType": "UFixed6",
          "name": "depositAssets",
          "type": "uint256"
        },
        {
          "internalType": "UFixed6",
          "name": "redeemShares",
          "type": "uint256"
        },
        {
          "internalType": "UFixed6",
          "name": "claimAssets",
          "type": "uint256"
        }
      ],
      "name": "update",
      "outputs": [],
      "stateMutability": "nonpayable",
      "type": "function"
    },
    {
      "inputs": [
        {
          "internalType": "uint256",
          "name": "marketId",
          "type": "uint256"
        },
        {
          "internalType": "uint256",
          "name": "newWeight",
          "type": "uint256"
        },
        {
          "internalType": "UFixed6",
          "name": "newLeverage",
          "type": "uint256"
        }
      ],
      "name": "updateMarket",
      "outputs": [],
      "stateMutability": "nonpayable",
      "type": "function"
    },
    {
      "inputs": [
        {
          "components": [
            {
              "internalType": "UFixed6",
              "name": "cap",
              "type": "uint256"
            }
          ],
          "internalType": "struct VaultParameter",
          "name": "newParameter",
          "type": "tuple"
        }
      ],
      "name": "updateParameter",
      "outputs": [],
      "stateMutability": "nonpayable",
      "type": "function"
    }
  ],
  "transactionHash": "0x3fc35c30f901746fc4fb4bb9569c560e188ea6f3a1214657d80583406a778ce6",
  "args": [],
  "numDeployments": 1,
  "solcInputHash": "bcac0e353c824b005fba7cf8c3169255",
  "bytecode": "0x6080806040523461001757615fdb90816200001d8239f35b600080fdfe604060c081526004908136101561001557600080fd5b600091823560e01c806301e1d11414611c4a57806306fdde0314611b1d57806307a2d13a14611aca57806338d52e0f14611a955780633a98ef3914611a785780634420e486146118435780634571e3a6146114e55780635e5c06e21461145f5780636a256b291461133f5780637cff3309146112fb5780637edb68d6146112a65780638162486b14611287578063a145198c14611035578063a524574914610dc7578063ad4d4e2914610d96578063b88a802f14610ae9578063c45a015514610a95578063c6e6f59214610a28578063d2c3aaf2146101615763f4ddb5be146100fd57600080fd5b3461015d57602060031936011261015d578160609361012c9261011e612269565b50803582526020522061578a565b908080519273ffffffffffffffffffffffffffffffffffffffff815116845260208101516020850152015190820152f35b8280fd5b50919034610a24576080600319360112610a245761017d611caf565b9173ffffffffffffffffffffffffffffffffffffffff7f0aec74a1754fb10877b53c31a29be82096082042eb1fb374ec96fac88c0e621b8181541690845180927f5c975abb000000000000000000000000000000000000000000000000000000008252818960209586935afa908115610a1a5785916109e1575b506109b957610204612893565b61020d8661406d565b9461021786612998565b6101408601968751519082880191808352875260079586865261023b8489206156ba565b9161024c60a08b0193845190615611565b156109905761025b8451612449565b84526101008a01518b519061027584600154163090615cc3565b916102a66102a161029064e8d4a510008b8501519604615a5c565b92606060808201519101519061298b565b615a5c565b80820391908d13801582841316918312161761093c57908791606082015201528351895287875284892092519989805283885263ffffffff9687878c205416610968578b5151806108f85750601f1961031d8c5b61031361030682611e75565b8b5160a05260a051611e52565b8060a05152611e75565b01898c5b8281106108c6575050508a5b8c5180518210156103f557610343828b92612c13565b51116103cd578a8a61037d8f61037285828f80945151169682049661036a8860a051612c13565b515251612c13565b51169260a051612c13565b5101518c83068d81101561039e5760051b015261039990612449565b61032d565b50508f8d60326024927f4e487b7100000000000000000000000000000000000000000000000000000000835252fd5b8e88517ff003e2c3000000000000000000000000000000000000000000000000000000008152fd5b50509295969798999c9b919490939a508c5b60a051518110156104a3578d8c8b8b8e6104238660a051612c13565b51938686528352828d862094838151167fffffffffffffffffffffffffffffffffffffffffffffffffffffffff0000000087541617865501519285925b82841061048057505050505090600161047b93920155612449565b610407565b84968160019495965116918660051b92831b921b19161795019201908e8e610460565b50949b9a929850949298509594505b604435926064359460016104c587615c07565b146108b5575b60016104d686615c07565b146108a5575b8b8a1697878d8a331415928361080e575b5050506107e65760243592600161052c8d6105118a61050c8b8a61298b565b61298b565b90898811156107df5787905b508a8111156107d75790615c49565b036107b057600261054561053f8c6145e3565b86615c49565b1461078957600261055e6105588c61463d565b88615c49565b146107625783151580610750575b6106df5785151580610706575b6106df576101608a01908151898151910151036106b85750906106706106b59c9d6105ce8887818f610678986105c58f928585858f6105bb8284868198612805565b9e51905190614ae8565b518a5190614ae8565b60c06101008d01516105e188825161298b565b8c82016105ef8c825161298b565b90528152016105fe8151612449565b905261065c8a826001541661061289615b2b565b7f23b872dd000000000000000000000000000000000000000000000000000000008b519384015233602484015230604484015260648301526064825261065782611e36565b615d52565b610666838d612d18565b6001541691615b2b565b903390615c5a565b5194825195865285015283015260608201527ff3821e0673b3463cc26dcd09cb36e2bb16bf9d67945eae4354cda4b921373e9360803392a361458e565b80f35b85517fe4b29524000000000000000000000000000000000000000000000000000000008152fd5b84517ff2fbeec4000000000000000000000000000000000000000000000000000000008152fd5b506107348c6101208c01518c5190898982015115600014610741579050915b508181101561073a5790615b81565b15610579565b5080615b81565b61074a9161502f565b91610725565b5061075c8a5185615c49565b1561056c565b84517fc85650f7000000000000000000000000000000000000000000000000000000008152fd5b84517fa9785d3d000000000000000000000000000000000000000000000000000000008152fd5b84517fa65ac9fb000000000000000000000000000000000000000000000000000000008152fd5b508990615c49565b899061051d565b8284517f7eb267c7000000000000000000000000000000000000000000000000000000008152fd5b6044935054168651928380927f2637588e0000000000000000000000000000000000000000000000000000000082528d898301523360248301525afa90811561089b578c91610862575b5015878d386104ed565b90508781813d8311610894575b6108798183611e52565b810103126108905761088a906124a5565b38610858565b8b80fd5b503d61086f565b85513d8e823e3d90fd5b61016089015184015194506104dc565b6101608901516060015195506104cb565b89518e6108d282611cd7565b81528a516108df81611d52565b60e036823783820152828260a051010152018a90610321565b7fffffffffffffffffffffffffffffffffffffffffffffffffffffffffffffffff810190811161093c578a90046001810180911161093c5761031d601f19916102fa565b7f4e487b71000000000000000000000000000000000000000000000000000000008c5260118f5260248cfd5b8d87517ff003e2c3000000000000000000000000000000000000000000000000000000008152fd5b989799949650999050819291518952600685526109ae828a20615151565b6101008801526104b2565b8685517f4b94d2bb000000000000000000000000000000000000000000000000000000008152fd5b90508281813d8311610a13575b6109f88183611e52565b81010312610a0f57610a09906124a5565b386101f7565b8480fd5b503d6109ee565b86513d87823e3d90fd5b5080fd5b503461015d57602060031936011261015d57916020923590610a486122ba565b81811315610a8b57610a5990615b45565b90610a626123b3565b905080610a73575050905b51908152f35b610a8090610a8593615777565b615681565b90610a6d565b50610a5981615b45565b505034610a245781600319360112610a245760209073ffffffffffffffffffffffffffffffffffffffff7f0aec74a1754fb10877b53c31a29be82096082042eb1fb374ec96fac88c0e621b54169051908152f35b50903461015d578260031936011261015d5773ffffffffffffffffffffffffffffffffffffffff907f0aec74a1754fb10877b53c31a29be82096082042eb1fb374ec96fac88c0e621b9180835416825191827f8da5cb5b0000000000000000000000000000000000000000000000000000000092838252818860209687935afa908115610d8c579082918991610d50575b50163303610d215790869291835b600354811015610d1d5780855287845281610ba487872061578a565b5116803b15610cf9578580918a8951809481937fb88a802f0000000000000000000000000000000000000000000000000000000083525af18015610d045790899291610d0e575b508086528185528483610bff89892061578a565b51168851938480927f228cb7330000000000000000000000000000000000000000000000000000000082525afa918215610d04578692610cc9575b508885848a54168951928380928982525afa908115610cbf578791610c7d575b50610c7892610c7391610c6d3083615cc3565b91615c5a565b612449565b610b88565b90508581813d8311610cb8575b610c948183611e52565b81010312610cb457610c7892610cac610c7392612428565b915092610c5a565b8680fd5b503d610c8a565b88513d89823e3d90fd5b9091508481813d8311610cfd575b610ce18183611e52565b81010312610cf957610cf290612428565b9038610c3a565b8580fd5b503d610cd7565b87513d88823e3d90fd5b610d1790611d3e565b38610beb565b8480f35b83517f4d193d1f0000000000000000000000000000000000000000000000000000000081523381880152602490fd5b809250858092503d8311610d85575b610d698183611e52565b81010312610d8157610d7b8291612428565b38610b7a565b8780fd5b503d610d5f565b85513d8a823e3d90fd5b505034610a245781600319360112610a24576020918151610db681611d22565b52610dbf615924565b905190518152f35b50919034610a24576060600319360112610a245782359060243560443573ffffffffffffffffffffffffffffffffffffffff807f0aec74a1754fb10877b53c31a29be82096082042eb1fb374ec96fac88c0e621b54168451917f8da5cb5b00000000000000000000000000000000000000000000000000000000835260209283818b81865afa90811561102b578991610ff2575b50163303610fc3578188918651928380927f5c975abb0000000000000000000000000000000000000000000000000000000082525afa908115610fb9578791610f84575b50610f5c57610eac612893565b610ece610eb7613b5f565b610ec081612998565b610ec981612c56565b61453a565b600354851015610f3457610f288697867f19de27a5967d3c5ffdfa85f8f33ed63fcae289e86abc970d013e0ae2bc8bb27f979852808352610f10868a2061578a565b9085848301528487830152888a52835285892061581e565b8351928352820152a280f35b8684517f04467fe8000000000000000000000000000000000000000000000000000000008152fd5b8684517f4b94d2bb000000000000000000000000000000000000000000000000000000008152fd5b90508181813d8311610fb2575b610f9b8183611e52565b81010312610cb457610fac906124a5565b38610e9f565b503d610f91565b85513d89823e3d90fd5b84517f4d193d1f00000000000000000000000000000000000000000000000000000000815233818a0152602490fd5b90508381813d8311611024575b6110098183611e52565b810103126110205761101a90612428565b38610e5b565b8880fd5b503d610fff565b87513d8b823e3d90fd5b50919034610a24576020908160031936011261015d5780519061105782611d22565b8435825273ffffffffffffffffffffffffffffffffffffffff807f0aec74a1754fb10877b53c31a29be82096082042eb1fb374ec96fac88c0e621b54169082517f8da5cb5b00000000000000000000000000000000000000000000000000000000815285818981865afa90811561127d578791611248575b50163303611219578386918351928380927f5c975abb0000000000000000000000000000000000000000000000000000000082525afa90811561120f5785916111da575b506111b257611120612893565b61112b610eb7613b5f565b60026111378351615bec565b1461118a577f6aa12494b90f1eeec92df49ec47058878b0803a79ba307dead4905555159adc793945067ffffffffffffffff8251168584835161117981611cd7565b83815201526002555190518152a180f35b8490517f0f9f8b19000000000000000000000000000000000000000000000000000000008152fd5b8490517f4b94d2bb000000000000000000000000000000000000000000000000000000008152fd5b90508381813d8311611208575b6111f18183611e52565b81010312610a0f57611202906124a5565b38611113565b503d6111e7565b82513d87823e3d90fd5b81517f4d193d1f0000000000000000000000000000000000000000000000000000000081523381880152602490fd5b90508581813d8311611276575b61125f8183611e52565b81010312610cb45761127090612428565b386110cf565b503d611255565b84513d89823e3d90fd5b505034610a245781600319360112610a24576020906003549051908152f35b5091346112f857816003193601126112f85782359067ffffffffffffffff82116112f857506112dd6060936112e692369101611fc1565b602435906147e5565b91929081519384526020840152820152f35b80fd5b5091346112f85760206003193601126112f85782359067ffffffffffffffff82116112f8575061133360209361133892369101611fc1565b61474c565b9051908152f35b503461015d57602060031936011261015d57611359611caf565b9181602073ffffffffffffffffffffffffffffffffffffffff7f0aec74a1754fb10877b53c31a29be82096082042eb1fb374ec96fac88c0e621b54168351928380927f5c975abb0000000000000000000000000000000000000000000000000000000082525afa90811561120f578591611426575b5061140057836106b5846113e0612893565b6113e98161406d565b6113f281612998565b6113fb81612c56565b61458e565b517f4b94d2bb000000000000000000000000000000000000000000000000000000008152fd5b90506020813d8211611457575b8161144060209383611e52565b81010312610a0f57611451906124a5565b386113ce565b3d9150611433565b505034610a24576020600319360112610a245760a06114af8260c09473ffffffffffffffffffffffffffffffffffffffff611498611caf565b6114a0612288565b50168152600560205220614b2e565b825192815184526020820151602085015280820151908401526060810151606084015260808101516080840152015160a0820152f35b50919034610a24576060600319360112610a2457611501611caf565b90602493843573ffffffffffffffffffffffffffffffffffffffff8082168203610cf9576044359667ffffffffffffffff91828911610d81573660238a011215610d815788850135928311610d81573682848b010111610d81576001967f5db5abc19987c2b3729df7961b62b6bb0bae886dd47e3ce25bb3a3af34c6d80b8881541015611815578890557fad57d7911b7e3d6c3c79a68ba909a7f4ba41f9485e5207b12dee0d0c6af5398c95888755303b15158061180e575b6117e75750337f0aec74a1754fb10877b53c31a29be82096082042eb1fb374ec96fac88c0e621b55167fffffffffffffffffffffffff00000000000000000000000000000000000000008754161786556116148754612216565b97601f8911611786575b8780995095969790601f84116001146116b457928061169e9388969360209a98967fbe9b076dc5b65990cca9dd9d7366682482e7817a6f6bc7f4faf4dc32af497f329c9a936116a7575b5050507fffffffffffffffffffffffffffffffffffffffffffffffffffffffffffffffff82891b9260031b1c19161784556124b2565b5551908152a180f35b0101359050388080611668565b8680527f290decd9548b62a8d60345a988386fc84ba6bc95484008f6362f93160ef3e563929091601f198516885b81811061176b5750938a9896937fbe9b076dc5b65990cca9dd9d7366682482e7817a6f6bc7f4faf4dc32af497f329b93879360209c9a9861169e9810611731575b50505050811b0184556124b2565b7fffffffffffffffffffffffffffffffffffffffffffffffffffffffffffffffff60f88660031b161c199201013516905538808080611723565b82850184013586558c9950948b0194602092830192016116e2565b8780527f290decd9548b62a8d60345a988386fc84ba6bc95484008f6362f93160ef3e563601f840160051c810199602085106117dd575b601f0160051c01985b8981106117d3575061161e565b88815587016117c6565b90995089906117bd565b87517f689f12a4000000000000000000000000000000000000000000000000000000008152fd5b50896115ba565b83878a8a51917f1e7a9d95000000000000000000000000000000000000000000000000000000008352820152fd5b50919034610a24576020928360031936011261015d57611861611caf565b9173ffffffffffffffffffffffffffffffffffffffff90817f0aec74a1754fb10877b53c31a29be82096082042eb1fb374ec96fac88c0e621b541681517f8da5cb5b00000000000000000000000000000000000000000000000000000000815287818681855afa908115611a6e579084918891611a36575b50163303611a07578684918351928380927f5c975abb0000000000000000000000000000000000000000000000000000000082525afa9081156119fd5786916119c8575b506119a05761192a612893565b611935610eb7613b5f565b8460035492808616915b84811061195057876106b5886124b2565b8088528589528282611963868b2061578a565b5116146119785761197390612449565b61193f565b8584517f499943cd000000000000000000000000000000000000000000000000000000008152fd5b9050517f4b94d2bb000000000000000000000000000000000000000000000000000000008152fd5b90508681813d83116119f6575b6119df8183611e52565b81010312610cf9576119f0906124a5565b3861191d565b503d6119d5565b82513d88823e3d90fd5b81517f4d193d1f0000000000000000000000000000000000000000000000000000000081523381860152602490fd5b809250898092503d8311611a67575b611a4f8183611e52565b81010312610cb457611a618491612428565b386118d9565b503d611a45565b83513d89823e3d90fd5b505034610a245781600319360112610a24576020906113386123b3565b505034610a245781600319360112610a245760209073ffffffffffffffffffffffffffffffffffffffff600154169051908152f35b503461015d57602060031936011261015d57916020923590611aea6122ba565b81811315611b1357611afb90615b45565b611b036123b3565b915081610a735750509051908152f35b50611afb81615b45565b505034610a245781600319360112610a24578051906020927f506572656e6e69616c205632205661756c743a20000000000000000000000000848401528093815491611b6883612216565b92600190818116908115611c025750600114611ba5575b611ba18686611b97828b03601f198101845283611e52565b5191829182611c67565b0390f35b90808093949750527f290decd9548b62a8d60345a988386fc84ba6bc95484008f6362f93160ef3e5635b868310611bee5750505050611b97826034611ba1958201019438611b7f565b805486840160340152918301918101611bcf565b611ba1985087945060349350611b979592507fffffffffffffffffffffffffffffffffffffffffffffffffffffffffffffff0091501682840152801515028201019438611b7f565b505034610a245781600319360112610a24576020906113386122ba565b60208082528251818301819052939260005b858110611c9b57505050601f19601f8460006040809697860101520116010190565b818101830151848201604001528201611c79565b6004359073ffffffffffffffffffffffffffffffffffffffff82168203611cd257565b600080fd5b6040810190811067ffffffffffffffff821117611cf357604052565b7f4e487b7100000000000000000000000000000000000000000000000000000000600052604160045260246000fd5b6020810190811067ffffffffffffffff821117611cf357604052565b67ffffffffffffffff8111611cf357604052565b60e0810190811067ffffffffffffffff821117611cf357604052565b60c0810190811067ffffffffffffffff821117611cf357604052565b610180810190811067ffffffffffffffff821117611cf357604052565b6060810190811067ffffffffffffffff821117611cf357604052565b6080810190811067ffffffffffffffff821117611cf357604052565b610220810190811067ffffffffffffffff821117611cf357604052565b6101c0810190811067ffffffffffffffff821117611cf357604052565b610100810190811067ffffffffffffffff821117611cf357604052565b60a0810190811067ffffffffffffffff821117611cf357604052565b90601f601f19910116810190811067ffffffffffffffff821117611cf357604052565b67ffffffffffffffff8111611cf35760051b60200190565b919060208084830312611cd25760405190611ea782611d22565b819480359067ffffffffffffffff8211611cd257019280601f85011215611cd2578335611ed381611e75565b94611ee16040519687611e52565b818652838087019260051b820101928311611cd2578301905b828210611f08575050505052565b81358152908301908301611efa565b91908260e0910312611cd257604051611f2f81611d52565b60c0808294803584526020810135602085015260408101356040850152606081013560608501526080810135608085015260a081013560a08501520135910152565b91908260c0910312611cd257604051611f8981611d6e565b60a080829480358452602081013560208501526040810135604085015260608101356060850152608081013560808501520135910152565b9190828103926104408412611cd257604090815192611fdf84611d8a565b83958235855260209081840135828701528484013585870152606090818501359167ffffffffffffffff92838111611cd257860185601f82011215611cd25780359061202a82611e75565b916120378a519384611e52565b8083528684818501920283010191888311611cd2578701905b8282106121c05750505081890152608080870135848111611cd257870186601f82011215611cd257803561208381611e75565b936120908b519586611e52565b818552878086019260071b84010192898411611cd2578801915b838310612180575050505088015260a0850135828111611cd257846120d0918701611e8d565b60a088015260c0850135918211611cd25761210e847fffffffffffffffffffffffffffffffffffffffffffffffffffffffffffffff20938701611e8d565b60c08801520112611cd25761038061217b92610160945161212e81611d22565b60e0820135815260e087015261010061214984828401611f17565b9087015261215b836101e08301611f17565b61012087015261216f836102c08301611f71565b61014087015201611f71565b910152565b84838b0312611cd2578885918d80519061219982611dc3565b863582528387013584830152808701359082015284860135858201528152019201916120aa565b84828a0312611cd2578a51906121d582611da7565b82359073ffffffffffffffffffffffffffffffffffffffff82168203611cd25790825282890135898301528b8301358c830152908152908401908701612050565b90600182811c9216801561225f575b602083101461223057565b7f4e487b7100000000000000000000000000000000000000000000000000000000600052602260045260246000fd5b91607f1691612225565b6040519061227682611da7565b60006040838281528260208201520152565b6040519061229582611d6e565b8160a06000918281528260208201528260408201528260608201528260808201520152565b6000808052600560209081526122ef7f05b8ccbb9d4d8fb16ea74ce3c29a41f1b461fbdaff4714a0d9a8eb05499746bc614b2e565b01518152600660205261230460408220615151565b906060820151916123158151615a5c565b92828482019485129112908015821691151617612386576102a181602061233e93015190614f33565b91818382039312818412811691841390151617612359575090565b807f4e487b7100000000000000000000000000000000000000000000000000000000602492526011600452fd5b6024827f4e487b710000000000000000000000000000000000000000000000000000000081526011600452fd5b60008052600560209081526123e77f05b8ccbb9d4d8fb16ea74ce3c29a41f1b461fbdaff4714a0d9a8eb05499746bc614b2e565b015160005260066020526124256124016040600020615151565b602061241c6040830151612416845185614ed3565b9061298b565b91015190615b81565b90565b519073ffffffffffffffffffffffffffffffffffffffff82168203611cd257565b7fffffffffffffffffffffffffffffffffffffffffffffffffffffffffffffffff81146124765760010190565b7f4e487b7100000000000000000000000000000000000000000000000000000000600052601160045260246000fd5b51908115158203611cd257565b7f0aec74a1754fb10877b53c31a29be82096082042eb1fb374ec96fac88c0e621b54604080517f06ae709500000000000000000000000000000000000000000000000000000000815273ffffffffffffffffffffffffffffffffffffffff9493600493602093919084908490879082908b165afa92831561275d57879185916000956127c5575b5060248391855194859384927f032bb4430000000000000000000000000000000000000000000000000000000084521697888b840152165afa90811561275d57600091612790575b50156127685780517ffc0c546a00000000000000000000000000000000000000000000000000000000815283818681865afa90811561275d57600091612728575b50866001541696879116036127005782600094959660448351809781937f095ea7b3000000000000000000000000000000000000000000000000000000008352878b8401527fffffffffffffffffffffffffffffffffffffffffffffffffffffffffffffffff60248401525af180156126f5576126a1575b7f07796b317344e6f18fa32ed89b6074ad66549cee7fb7b8c3e9f1c42c496f1c5c93506003549461266a86612449565b60035585600052835261269a8160002082519061268682611da7565b84825260008683015260008483015261581e565b51908152a2565b8284813d83116126ee575b6126b68183611e52565b81010312611cd2576126e87f07796b317344e6f18fa32ed89b6074ad66549cee7fb7b8c3e9f1c42c496f1c5c946124a5565b5061263a565b503d6126ac565b50513d6000823e3d90fd5b8390517faddc4c0d000000000000000000000000000000000000000000000000000000008152fd5b908482813d8311612756575b61273e8183611e52565b810103126112f8575061275090612428565b386125c2565b503d612734565b82513d6000823e3d90fd5b8390517f7c04a019000000000000000000000000000000000000000000000000000000008152fd5b908482813d83116127be575b6127a68183611e52565b810103126112f857506127b8906124a5565b38612581565b503d61279c565b828193929694503d83116127fe575b6127de8183611e52565b81010312610a2457519087821682036112f8575091869084906024612539565b503d6127d4565b91909392610140830190606082510151156128895790610a806128539260606128406128308861474c565b6000808213156128825750615b45565b93510151928381101561287a5790615777565b93159081612871575b506128645750565b9161242591925190615b81565b9050153861285c565b508290615777565b9050615b45565b5060009450505050565b6000905b60035482101561298757816000526004918260205260409273ffffffffffffffffffffffffffffffffffffffff6128d08560002061578a565b511690813b15611cd25760009160c48392875194859384927f91eece2800000000000000000000000000000000000000000000000000000000845230908401527fffffffffffffffffffffffffffffffffffffffffffffffffffffffffffffffff60248401528160448401528160648401528160848401528160a48401525af1801561297c5761296793945061296d575b50612449565b90612897565b61297690611d3e565b38612961565b84513d6000823e3d90fd5b9050565b9190820180921161247657565b905b610140820191825180516020809201518091119081612bdd575b5015612af45780845101519060018201809211612ac657600082815260068083526040926129e3848420615151565b9461012087019586526129f681886147e5565b9188519260609182850180518a8382019384129112908015821691151617612a995791612a939c9d9e91612a8493526080948587015260a0809601525193612a7a8b51948b8651968a810151968a8c8b0152890190612a6d612a5d83516124168b85614f33565b938b01916124168b845192614ed3565b9052528601948551615b81565b9401918251615b81565b9052528352522090519061521f565b9061299a565b60248a7f4e487b710000000000000000000000000000000000000000000000000000000081526011600452fd5b602460007f4e487b710000000000000000000000000000000000000000000000000000000081526011600452fd5b509091506101608101908151906020825192015182119182612bb1575b5050612b1a5750565b80515190816000526006602052612b346040600020615151565b905190612b9a612b92608084019384519060a081019485519760208301526060820190612b886040612b7984518c8386015115600014612b9f57612416905b866150cf565b94019161241686845192614f68565b9052528451615b81565b938251615b81565b905252565b612bac612416918761502f565b612b73565b612bd69250600052600760205260c0612bcd60406000206156ba565b91015190615599565b3880612b11565b905060018101809111612ac657612c026040612c0d92600090815260078552206156ba565b60c084015190615599565b386129b4565b8051821015612c275760209160051b010190565b7f4e487b7100000000000000000000000000000000000000000000000000000000600052603260045260246000fd5b90610140612c638361474c565b9201612c7d6102a18251608060608201519101519061298b565b6000938181039185138015828413169183121617612ceb57620f4240612cdd612cb960809387612ce89798508082136000146128825750615b45565b612cd78551612cd160a060408301519201518261298b565b90615bad565b90615777565b04915101519061298b565b50565b6024847f4e487b710000000000000000000000000000000000000000000000000000000081526011600452fd5b919091612d2d612d278261474c565b93615a5c565b9260008482039412818512811691851390151617612476576101408101612d626102a18251608060608201519101519061298b565b90600082860392128583128116908684139015161761247657612d9a91600081131561383f57620f4240612cdd612cb9608093615b45565b612da384615ab7565b156137e757606082015193600081131561383157612dc390949294615b45565b91805193601f19612dec612dd687611e75565b96612de46040519889611e52565b808852611e75565b0160005b8181106138125750506000915b805183101561345e57600496612e138483612c13565b5194612e1d614994565b966101c073ffffffffffffffffffffffffffffffffffffffff8851166040519b8c80927fad4d4e290000000000000000000000000000000000000000000000000000000082525afa80156131af5760049a60009161342d575b5088526102a073ffffffffffffffffffffffffffffffffffffffff8851166040519b8c80927f4549a6290000000000000000000000000000000000000000000000000000000082525afa80156131af57600090613291575b60249a50602089015260a073ffffffffffffffffffffffffffffffffffffffff8851166040519b8c80927f5b4b96950000000000000000000000000000000000000000000000000000000082523060048301525afa998a156131af57612fb49a61010091600091613262575b508060408b015273ffffffffffffffffffffffffffffffffffffffff89511690519060405180809e81947fce813aed00000000000000000000000000000000000000000000000000000000835230600484016020909392919373ffffffffffffffffffffffffffffffffffffffff60408201951681520152565b03915afa80156131af5760049a600091613241575b50606089015261012073ffffffffffffffffffffffffffffffffffffffff8851166040519b8c80927fa05f99060000000000000000000000000000000000000000000000000000000082525afa998a156131af5760009a61320e575b5060e08a015160008112613206575b60a089015273ffffffffffffffffffffffffffffffffffffffff8751166101008b516024604051809481937fa1d0a11300000000000000000000000000000000000000000000000000000000835260048301525afa9081156131af576000916131e5575b5060808901526020604089015101515b6040890151518110156131bb5787516040517fce813aed000000000000000000000000000000000000000000000000000000008152306004820152602481018390529190610100908390604490829073ffffffffffffffffffffffffffffffffffffffff165afa9182156131af5761316d928d61315492600092613179575b5060e001516040519061313982611da7565b6000825260208201526001604082015260208d0151916159c8565b60c08b01518082111561317257505b60c08b0152612449565b6130a8565b9050613163565b60e09192506131a1906101003d610100116131a8575b6131998183611e52565b810190613ab4565b9190613127565b503d61318f565b6040513d6000823e3d90fd5b509491969095506131dd9298506131d28289612c13565b526129618188612c13565b919395612dfd565b61320091506101003d610100116131a8576131998183611e52565b38613098565b600003613034565b613233919a506101203d6101201161323a575b61322b8183611e52565b810190613a0e565b9838613025565b503d613221565b61325c91506101003d610100116131a8576131998183611e52565b38612fc9565b613284915060a03d60a01161328a575b61327c8183611e52565b810190613b19565b38612f3a565b503d613272565b506102a08a3d6102a011613425575b816132ae6102a09383611e52565b8101038060805212611cd2576040516132c681611ddf565b8a51815260208b0151602082015260408b0151604082015260608b0151606082015260808b0151608082015260a08b015160a082015260c0808c01519082015260e0808c015190820152610100808c015190820152610120808c0151908201526101408b015161014082015260807ffffffffffffffffffffffffffffffffffffffffffffffffffffffffffffffea081510112611cd25760405161336981611dc3565b610160808d015182526101808d015160208301526101a08d015160408301526101c08d0151606083015282015260407ffffffffffffffffffffffffffffffffffffffffffffffffffffffffffffffe206080510112611cd25760249a61341c610280604051926133d884611cd7565b6101e0808201518552610200948583015160208201526101808701526102208201516101a08701526102408201516101c087015261026082015190860152016124a5565b90820152612ece565b3d91506132a0565b61345191506101c03d6101c011613457575b6134498183611e52565b810190613951565b38612e76565b503d61343f565b9150929193946000936000936000955b84518710156134b0576134a36134966134a992602061348d8b8a612c13565b5101519061298b565b9660c061348d8a8d612c13565b96612449565b959461346e565b92969195509293845195601f196134df6134c989611e75565b986134d76040519a8b611e52565b808a52611e75565b0160005b8181106137ed57505060005b865181101561373b57899061353c8761241688610a808c60206135338861352d8d60c06135248461351e61392c565b9f612c13565b51015199615b81565b93612c13565b51015190615777565b825261355a86610a806020613551858d612c13565b51015188615777565b9180519262124f80938085810204851481151715612476578d94620f42409102048082101561373457505b60208201526101a0806135988486612c13565b51510151159081159161370b575b506136ff575b6135b68284612c13565b5161362b6060820191612416602084510151602060c0818061361060808801956135fc87516135e88582015191615986565b8951860151808210156136f7575090615b81565b8b51840151808210156136f7575090615b81565b985101519501510151915101518181101561073a5790615b81565b6060830152604082015260408061364c846136468551615a5c565b96612c13565b510151015183818103126000821216848281031360008312151617612476576136e3938260408f8d8f966136a59260a061369c8b87613693826020610a8098015198612c13565b51015193612c13565b51015192615777565b6060830151808210156136ef5750915b0151808211156136e857505b60206136d8866136d18188612c13565b5196612c13565b510152039052612449565b6134ef565b90506136c1565b9050916136b5565b905090615b81565b600060208201526135ac565b61372d915060208301519060206137228688612c13565b510151015190615c49565b15386135a6565b9050613585565b5096959750505050505060005b60808201515181101561379f578061376d6137666137779387612c13565b5151615ab7565b1561377c57612449565b613748565b610c7361378d826060860151612c13565b516137988388612c13565b5190613853565b5060005b6080820151518110156137e757806137c16137666137d79387612c13565b600281149081156137dc575b5061377c57612449565b6137a3565b6001915014386137cd565b50509050565b6020906040516137fc81611cd7565b6000815282600081830152828c010152016134e3565b60209061382198969498614994565b82828a0101520196929496612df0565b50612dc36000949294615b45565b506080620f4240612cdd612cb96000615b45565b73ffffffffffffffffffffffffffffffffffffffff90511660208201519151813b15611cd257604051927f91eece2800000000000000000000000000000000000000000000000000000000845230600485015260248401528260c48160008095819582604485015282606485015260848401528160a48401525af19081156138e857506138dd5750565b6138e690611d3e565b565b604051903d90823e3d90fd5b6040519061390182611d52565b8160c06000918281528260208201528260408201528260608201528260808201528260a08201520152565b6040519061393982611dc3565b60006060838281528260208201528260408201520152565b90816101c0910312611cd2576040519061396a82611dfc565b805182526020810151602083015260408101516040830152606081015160608301526080810151608083015260a081015160a083015260c081015160c083015260e081015160e08301526101008082015190830152610120808201519083015261014080820151908301526101606139e38183016124a5565b908301526101806139f58183016124a5565b90830152613a076101a08092016124a5565b9082015290565b809103906101208212611cd25760407fffffffffffffffffffffffffffffffffffffffffffffffffffffffffffffff40815193613a4a85611e19565b83518552602084015160208601528284015183860152606084015160608601526080840151608086015260a084015160a08601520112611cd25761010090604051613a9481611cd7565b60c0820151815260e0820151602082015260c0840152015160e082015290565b9081610100910312611cd25760e060405191613acf83611e19565b805183526020810151602084015260408101516040840152606081015160608401526080810151608084015260a081015160a084015260c081015160c0840152015160e082015290565b908160a0910312611cd257608060405191613b3383611e36565b805183526020810151602084015260408101516040840152606081015160608401520151608082015290565b60405190613b6c82611d8a565b60008252600060208301526000604083015260608083015260606080830152604051613b9781611d22565b6060815260a0830152604051613bac81611d22565b6060815260c0830152604051613bc181611d22565b6000815260e0830152613bd26138f4565b610100830152613be06138f4565b610120830152613bee612288565b610140830152613bfc612288565b61016083015281613c0b615924565b60e082015260a081015160035490613c2282615568565b905260c0820151613c3282615568565b9052613c3d81611e75565b613c4a6040519182611e52565b818152601f19613c5983611e75565b0160005b8181106140565750506060830152613c7481611e75565b613c816040519182611e52565b818152601f19613c9083611e75565b0160005b81811061403f575050608083015260005b818110613d40575050600080526005602052613ce07f05b8ccbb9d4d8fb16ea74ce3c29a41f1b461fbdaff4714a0d9a8eb05499746bc614b2e565b610140820152600080526005602052613d187f05b8ccbb9d4d8fb16ea74ce3c29a41f1b461fbdaff4714a0d9a8eb05499746bc614b2e565b61016082015260206101408201510151600052600660205261012061217b6040600020615151565b8060049160005281602052613d58604060002061578a565b6101c073ffffffffffffffffffffffffffffffffffffffff825116604051948580927fad4d4e290000000000000000000000000000000000000000000000000000000082525afa9283156131af57600493613ddf9160009161401e575b50613dd084606089015185613dca8383612c13565b52612c13565b5061014087519101519061298b565b855261012073ffffffffffffffffffffffffffffffffffffffff825116604051948580927fa05f99060000000000000000000000000000000000000000000000000000000082525afa9283156131af57600093613ffb575b5073ffffffffffffffffffffffffffffffffffffffff8151169261010081516024604051809781937fa1d0a11300000000000000000000000000000000000000000000000000000000835260048301525afa9182156131af57613ef260a09373ffffffffffffffffffffffffffffffffffffffff93602497600092613fd5575b5060e0015160008112613fcd575b613ed38760808c0151612c13565b515260208101516020613eea8860808d0151612c13565b510152615986565b6040613f028660808b0151612c13565b510152613f176020820151602089015161298b565b60208801525116604051938480927f5b4b96950000000000000000000000000000000000000000000000000000000082523060048301525afa80156131af57613fa992600091613fae575b5060408101516060613f78846080890151612c13565b51015260c0850151613f908360208401519251612c13565b52613fa38260a087015192519251612c13565b52612449565b613ca5565b613fc7915060a03d60a01161328a5761327c8183611e52565b38613f62565b600003613ec5565b60e0919250613ff4906101003d610100116131a8576131998183611e52565b9190613eb7565b6140179193506101203d6101201161323a5761322b8183611e52565b9138613e37565b61403991506101c03d6101c011613457576134498183611e52565b38613db5565b60209061404a61392c565b82828601015201613c94565b602090614061612269565b82828601015201613c5d565b9060405161407a81611d8a565b600081526000602082015260006040820152606080820152606060808201526040516140a581611d22565b6060815260a08201526040516140ba81611d22565b6060815260c08201526040516140cf81611d22565b6000815260e08201526140e06138f4565b6101008201526140ee6138f4565b6101208201526140fc612288565b61014082015261410a612288565b610160820152809261411a615924565b60e083015260a08201516003549061413182615568565b905260c083015161414182615568565b905261414c81611e75565b6141596040519182611e52565b818152601f1961416883611e75565b0160005b818110614523575050606084015261418381611e75565b6141906040519182611e52565b818152601f1961419f83611e75565b0160005b81811061450c575050608084015260005b81811061422157505060008052600560205273ffffffffffffffffffffffffffffffffffffffff906142057f05b8ccbb9d4d8fb16ea74ce3c29a41f1b461fbdaff4714a0d9a8eb05499746bc614b2e565b610140840152166000526005602052613d186040600020614b2e565b8060049160005281602052614239604060002061578a565b6101c073ffffffffffffffffffffffffffffffffffffffff825116604051948580927fad4d4e290000000000000000000000000000000000000000000000000000000082525afa9283156131af576004936142ba916000916144eb575b506142ab8460608a015185613dca8383612c13565b5061014088519101519061298b565b865261012073ffffffffffffffffffffffffffffffffffffffff825116604051948580927fa05f99060000000000000000000000000000000000000000000000000000000082525afa9283156131af576000936144c8575b5073ffffffffffffffffffffffffffffffffffffffff8151169261010081516024604051809781937fa1d0a11300000000000000000000000000000000000000000000000000000000835260048301525afa9182156131af576143c560a09373ffffffffffffffffffffffffffffffffffffffff936024976000926144a2575b5060e001516000811261449a575b6143ae8760808d0151612c13565b5152896020613eea88608083860151940151612c13565b60406143d58660808c0151612c13565b5101526143ea602082015160208a015161298b565b60208901525116604051938480927f5b4b96950000000000000000000000000000000000000000000000000000000082523060048301525afa80156131af576144769260009161447b575b506040810151606061444b8460808a0151612c13565b51015260c08601516144638360208401519251612c13565b52613fa38260a088015192519251612c13565b6141b4565b614494915060a03d60a01161328a5761327c8183611e52565b38614435565b6000036143a0565b60e09192506144c1906101003d610100116131a8576131998183611e52565b9190614392565b6144e49193506101203d6101201161323a5761322b8183611e52565b9138614312565b61450691506101c03d6101c011613457576134498183611e52565b38614296565b60209061451761392c565b828286010152016141a3565b60209061452e612269565b8282860101520161416c565b6138e69061010060406000808052600560205261455f82822061014086015190614beb565b808052600560205261457982822061016086015190614beb565b8184015181526006602052209101519061521f565b61010060406138e69373ffffffffffffffffffffffffffffffffffffffff60009182805260056020526145c984842061014088015190614beb565b168152600560205261457982822061016086015190614beb565b6145f161012082015161511d565b61463757612425906124166146076128306122ba565b60e060606146206101408601936080855101519061298b565b9251015193015151908181101561073a5790615b81565b50600090565b61012081019061464d825161511d565b614745576000907fffffffffffffffffffffffffffffffffffffffffffffffffffffffffffffffff5b6080820151805184101561473d578361468e91612c13565b5161469d846060850151612c13565b51602091828201918251158015614731575b6147235792610a80614706936146f384610a806147169998866146ff9801516146e86040918286015181811060001461073a5790615b81565b935191015192615777565b92880151905192615777565b8651614fab565b8082101561471c57505b92612449565b91614676565b9050614710565b505050509161471690612449565b506040810151156146af565b509392505050565b5050600090565b90600161478064e8d4a5100061477a73ffffffffffffffffffffffffffffffffffffffff8454163090615cc3565b04615a5c565b928160009182935b614793575b50505050565b90919294608082015180518710156147de576147b187606092612c13565b51015190848282019283129112908015821691151617612ceb576147d59095612449565b92919081614788565b509461478d565b9190600080818293835260076020526040926148028482206156ba565b9681955b88515187101561494b5773ffffffffffffffffffffffffffffffffffffffff614833886060850151612c13565b5151169483888b5180518210614939575b505087517fce813aed000000000000000000000000000000000000000000000000000000008152306004808301919091526024820192909252610100978890829060449082905afa97881561492f578698614910575b505060c0870151918583820193841291129080158216911516176148e457506148db9160a06148d26134a3939760808a01519061298b565b9701519061298b565b95939293614806565b8460116024927f4e487b7100000000000000000000000000000000000000000000000000000000835252fd5b614927929850803d106131a8576131998183611e52565b95388061489a565b89513d88823e3d90fd5b6149439250612c13565b518838614844565b955050509391509350565b6040519061496382611e19565b8160e06000918281528260208201528260408201528260608201528260808201528260a08201528260c08201520152565b6040908151916149a383611d52565b60c0838251926149b284611dfc565b60009384815284602082015284828201528460608201528460808201528460a082015284848201528460e0820152846101009181838201526101208281830152610140838184015283610160918183860152816101809481868801526101a09682888201528b52818a5199614a268b611ddf565b818b528160208c0152818c8c01528160608c01528160808c01528160a08c0152818e8c01528160e08c01528a0152880152860152614a6261392c565b90850152845190614a7282611cd7565b838252836020830152840152820152846101c0820152846101e0820152846102008201526020830152805190614aa782611e36565b8482528460208301528481830152846060830152846080830152820152614acc614956565b6060820152614ad9614956565b60808201528260a08201520152565b949291908552614afd60608601918251615b81565b91614b0d60408701918251615b81565b905252612b9a60a0614b246080860194855161298b565b940191825161298b565b614b36612288565b5060c0604051614b4581611d52565b8254600163ffffffff947fffffffffffffffffffffffffffffffffffffffffffffffff0000000000000000868416968786528460201c169384602087015216604085015201549167ffffffffffffffff9182841691826060820152838560401c16938460808301528560801c16948560a0830152861c958691015260405195614bcd87611d6e565b8652602086015260408501526060840152608083015260a082015290565b919063ffffffff9081815111614ea957602081019382855111614ea957604094858301916002614c1b8451615bec565b14614e805760608401916002614c318451615bec565b14614e575760808501936002614c478651615bec565b14614e2e5760a08601956002614c5d8851615bec565b14614e055792614d7494926000999a60c06001948b614dbd9b9a98511693519c8d9367ffffffffffffffff8080809551169a51169a51169b519d815195614ca387611d52565b8787521660208601528401528660608401528760808401528960a08401528b1691015267ffffffff0000000082549a827fffffffffffffffffffffffffffffffffffffffffffffffffffffffff000000008d1617845560201b1680827fffffffffffffffffffffffffffffffffffffffffffffffff0000000000000000809d1617178355178155019687541617865585907fffffffffffffffffffffffffffffffff0000000000000000ffffffffffffffff6fffffffffffffffff000000000000000083549260401b169116179055565b83547fffffffffffffffff0000000000000000ffffffffffffffffffffffffffffffff1660809190911b77ffffffffffffffff0000000000000000000000000000000016178355565b77ffffffffffffffffffffffffffffffffffffffffffffffff7fffffffffffffffff00000000000000000000000000000000000000000000000083549260c01b169116179055565b60048a517fb8a09499000000000000000000000000000000000000000000000000000000008152fd5b600489517fb8a09499000000000000000000000000000000000000000000000000000000008152fd5b600488517fb8a09499000000000000000000000000000000000000000000000000000000008152fd5b600487517fb8a09499000000000000000000000000000000000000000000000000000000008152fd5b60046040517fb8a09499000000000000000000000000000000000000000000000000000000008152fd5b604081015115614f2f57614eea6060820151615ab7565b8015908115614f24575b5060009015614f0257505090565b5060a081015161242592614f1e918181101561073a5790615b81565b90614ff9565b600191501438614ef4565b5090565b60a061242592604083015115600014614f5857915b01518181101561073a5790615b81565b614f62908361502f565b91614f48565b604081015115614f2f57614f7f6060820151615ab7565b8015908115614fa0575b5015614f93575090565b614f1e61242592826150cf565b600191501438614f89565b604081015115614f2f57614fc26060820151615ab7565b8015908115614fee575b5060009015614fda57505090565b61242592614f1e91811561073a5790615b81565b600191501438614fcc565b61502961242592610a8061501d606085015160008082136000146128825750615b45565b91604085015190615777565b9061505e565b61502961242592610a80615053606085015160008082136000146128825750615b45565b604085015192615777565b61509561507b606083015160008082136000146128825750615b45565b612416835191610a80602086015191604087015192615777565b90600090826150a45750505090565b6080015161242593610a80925090838110156150c557612cd7905b84615b81565b50612cd7836150bf565b60c081015190600090826150f5575050506124259060005b8181101561073a5790615b81565b60a0015190620f4240808402938404036123595750612425929161511891615b8e565b6150e7565b60408101511515908161512e575090565b61513c915060600151615ab7565b8015908115615149575090565b600191501490565b6151596138f4565b506040805161516781611e19565b82549267ffffffffffffffff90818516948584528281861c16948560208601526001848360801c1692838388015260c01d60070b938460608801520154958487169485608088015287831c16958660a082015260e07fffffffffffffffffffffffff000000000000000000000000000000000000000063ffffffff8a60801c16998a60c0850152169101528151976151fe89611d52565b885260208801528601526060850152608084015260a083015260c082015290565b906002918261522e8351615bec565b1461553e576020820192806152438551615bec565b1461553e57604091828401826152598251615bec565b1461551557606085018361526d8251615ad6565b146154ec5761527c8151615af8565b156154ec576080860191846152918451615bec565b146154c35760c087019563ffffffff978888511161549a5760a08101966152b88851615bec565b1461549a5767ffffffffffffffff808080809451169c51169451169451955116965116965197838251926152eb84611e19565b8b84528460208501528301528460070b60608301528660808301528760a0830152881660c082015260e001600090527fffffffffffffffffffffffffffffffffffffffffffffffff000000000000000097888554161784556153899084907fffffffffffffffffffffffffffffffff0000000000000000ffffffffffffffff6fffffffffffffffff000000000000000083549260401b169116179055565b82547fffffffffffffffff0000000000000000ffffffffffffffffffffffffffffffff1660809190911b77ffffffffffffffff000000000000000000000000000000001617825581549060c01b7fffffffffffffffff000000000000000000000000000000000000000000000000169077ffffffffffffffffffffffffffffffffffffffffffffffff16178155600101938454161783556154669083907fffffffffffffffffffffffffffffffff0000000000000000ffffffffffffffff6fffffffffffffffff000000000000000083549260401b169116179055565b81549060801b73ffffffff0000000000000000000000000000000016906fffffffffffffffffffffffffffffffff16179055565b600482517fba85116a000000000000000000000000000000000000000000000000000000008152fd5b600486517fba85116a000000000000000000000000000000000000000000000000000000008152fd5b600485517fba85116a000000000000000000000000000000000000000000000000000000008152fd5b600484517fba85116a000000000000000000000000000000000000000000000000000000008152fd5b60046040517fba85116a000000000000000000000000000000000000000000000000000000008152fd5b9061557282611e75565b61557f6040519182611e52565b828152601f1961558f8294611e75565b0190602036910137565b9060005b815151811015615609576000818451805182106155f7575b5050600090828451805182106155e3575b5050116155db576155d690612449565b61559d565b505050600090565b6155ee929350612c13565b519082386155c6565b6156019250612c13565b5181386155b5565b505050600190565b60005b825180518210908115615677578290600092615665575b505060009082845180518210615651575b5050116156095761564c90612449565b615614565b61565c929350612c13565b5190823861563c565b61566f9250612c13565b51813861562b565b5050505050600090565b811561568b570490565b7f4e487b7100000000000000000000000000000000000000000000000000000000600052601260045260246000fd5b6040606081516156c981611d22565b52600080805260209083825263ffffffff91828483205416916156eb83615568565b95815b84811061570b57505050505050519061570682611d22565b815290565b600780820484528285528784208183069182101561574a57600382901c0160010154615745929160051b60e0161c8716613fa3828b612c13565b6156ee565b6024857f4e487b710000000000000000000000000000000000000000000000000000000081526032600452fd5b8181029291811591840414171561247657565b615792612269565b50604051906157a082611dc3565b5473ffffffffffffffffffffffffffffffffffffffff81169182815263ffffffff9060607fffffffff00000000000000000000000000000000000000000000000000000000838560a01c16938460208501528560c01c1694856040850152169101526040519261580f84611da7565b83526020830152604082015290565b90602081019063ffffffff91828151116158fa576040820160026158428251615c32565b146158fa577fffffffff00000000000000000000000000000000000000000000000000000000936000606073ffffffffffffffffffffffffffffffffffffffff7bffffffff0000000000000000000000000000000000000000000000009651169451935192604051906158b482611dc3565b868252808616602083015284166040820152015260c01b9290921677ffffffff000000000000000000000000000000000000000060a09390931b92909216171790915550565b60046040517f92f03c86000000000000000000000000000000000000000000000000000000008152fd5b600060405161593281611d22565b5260405161593f81611cd7565b6002549060207fffffffffffffffffffffffffffffffffffffffffffffffff000000000000000067ffffffffffffffff841693848452169101526040519061570682611d22565b6159a060606159986040840151615a5c565b920151615a5c565b808203916000809212818412811691841390151617612359578082126159c4575090565b0390565b906159d282615a2d565b156155db57615a0f60206159e86101a094615a2d565b9201516000808212615a265750915b615a06620f4240938492615777565b04845190615777565b04910151808211600014615a21575090565b905090565b03916159f7565b602060408201516060830151808211600014615a545750915b015180821115615a21575090565b905091615a46565b7f7fffffffffffffffffffffffffffffffffffffffffffffffffffffffffffffff8111615a865790565b602490604051907feecaa25d0000000000000000000000000000000000000000000000000000000082526004820152fd5b60008113615ad057600013615acb57600190565b600090565b50600290565b677fffffffffffffff90818113615af15712615acb57600190565b5050600290565b7fffffffffffffffffffffffffffffffffffffffffffffffff800000000000000090818113615af15712615acb57600190565b64e8d4a51000908181029181830414901517156124765790565b60008112615b505790565b602490604051907fb02ef0870000000000000000000000000000000000000000000000000000000082526004820152fd5b9190820391821161247657565b90620f4240918281029281840414901517156124765761242591615681565b9080615be35750615bbf57620f424090565b7fffffffffffffffffffffffffffffffffffffffffffffffffffffffffffffffff90565b61242591615b8e565b67ffffffffffffffff90818111615af15710615acb57600190565b7fffffffffffffffffffffffffffffffffffffffffffffffffffffffffffffffff11615acb57600190565b63ffffffff90818111615af15710615acb57600190565b818111615af15710615acb57600190565b6040517fa9059cbb00000000000000000000000000000000000000000000000000000000602082015273ffffffffffffffffffffffffffffffffffffffff92831660248201526044808201949094529283526138e6929190615cbd606484611e52565b16615d52565b6020906024604051809481937f70a0823100000000000000000000000000000000000000000000000000000000835273ffffffffffffffffffffffffffffffffffffffff8092166004840152165afa9081156131af57600091615d24575090565b906020823d8211615d4a575b81615d3d60209383611e52565b810103126112f857505190565b3d9150615d30565b73ffffffffffffffffffffffffffffffffffffffff1690604051615d7581611cd7565b6020928382527f5361666545524332303a206c6f772d6c6576656c2063616c6c206661696c6564848301526000808486829651910182855af13d15615ed3573d9167ffffffffffffffff8311615ea65790615df093929160405192615de388601f19601f8401160185611e52565b83523d868885013e615edd565b90815180615dfe5750505050565b828491810103126112f8575081615e1591016124a5565b15615e225780808061478d565b608490604051907f08c379a00000000000000000000000000000000000000000000000000000000082526004820152602a60248201527f5361666545524332303a204552433230206f7065726174696f6e20646964206e60448201527f6f742073756363656564000000000000000000000000000000000000000000006064820152fd5b6024857f4e487b710000000000000000000000000000000000000000000000000000000081526041600452fd5b90615df092916060915b91929015615f585750815115615ef1575090565b3b15615efa5790565b60646040517f08c379a000000000000000000000000000000000000000000000000000000000815260206004820152601d60248201527f416464726573733a2063616c6c20746f206e6f6e2d636f6e74726163740000006044820152fd5b825190915015615f6b5750805190602001fd5b615fa1906040519182917f08c379a000000000000000000000000000000000000000000000000000000000835260048301611c67565b0390fdfea2646970667358221220bf638742f0ada71bb186a6d5ec38e6bdce405f7c6e39db70c8294310f4f3814264736f6c63430008130033"
}