{
  "address": "0xeC76cec3B1d3c88Ad1aB3fCF456aFc3326a827b2",
  "abi": [
    {
      "inputs": [
        {
          "internalType": "address",
          "name": "sender",
          "type": "address"
        }
      ],
      "name": "InstanceNotOwnerError",
      "type": "error"
    },
    {
      "inputs": [],
      "name": "InstancePausedError",
      "type": "error"
    },
    {
      "inputs": [],
      "name": "OracleNotFactoryError",
      "type": "error"
    },
    {
      "inputs": [],
      "name": "OracleOutOfOrderCommitError",
      "type": "error"
    },
    {
      "inputs": [],
      "name": "OracleOutOfSyncError",
      "type": "error"
    },
    {
      "inputs": [],
      "name": "OracleProviderUnauthorizedError",
      "type": "error"
    },
    {
      "inputs": [
        {
          "internalType": "uint256",
          "name": "version",
          "type": "uint256"
        }
      ],
      "name": "UInitializableAlreadyInitializedError",
      "type": "error"
    },
    {
      "inputs": [],
      "name": "UInitializableNotInitializingError",
      "type": "error"
    },
    {
      "inputs": [],
      "name": "UInitializableZeroVersionError",
      "type": "error"
    },
    {
      "anonymous": false,
      "inputs": [
        {
          "indexed": false,
          "internalType": "uint256",
          "name": "version",
          "type": "uint256"
        }
      ],
      "name": "Initialized",
      "type": "event"
    },
    {
      "anonymous": false,
      "inputs": [
        {
          "indexed": true,
          "internalType": "uint256",
          "name": "version",
          "type": "uint256"
        }
      ],
      "name": "OracleProviderVersionFulfilled",
      "type": "event"
    },
    {
      "anonymous": false,
      "inputs": [
        {
          "indexed": true,
          "internalType": "uint256",
          "name": "version",
          "type": "uint256"
        }
      ],
      "name": "OracleProviderVersionRequested",
      "type": "event"
    },
    {
      "anonymous": false,
      "inputs": [
        {
          "indexed": false,
          "internalType": "contract IOracleProvider",
          "name": "newProvider",
          "type": "address"
        }
      ],
      "name": "OracleUpdated",
      "type": "event"
    },
    {
      "inputs": [
        {
          "internalType": "uint256",
          "name": "timestamp",
          "type": "uint256"
        }
      ],
      "name": "at",
      "outputs": [
        {
          "components": [
            {
              "internalType": "uint256",
              "name": "timestamp",
              "type": "uint256"
            },
            {
              "internalType": "Fixed6",
              "name": "price",
              "type": "int256"
            },
            {
              "internalType": "bool",
              "name": "valid",
              "type": "bool"
            }
          ],
          "internalType": "struct OracleVersion",
          "name": "atVersion",
          "type": "tuple"
        }
      ],
      "stateMutability": "view",
      "type": "function"
    },
    {
      "inputs": [],
      "name": "current",
      "outputs": [
        {
          "internalType": "uint256",
          "name": "",
          "type": "uint256"
        }
      ],
      "stateMutability": "view",
      "type": "function"
    },
    {
      "inputs": [],
      "name": "factory",
      "outputs": [
        {
          "internalType": "contract IFactory",
          "name": "",
          "type": "address"
        }
      ],
      "stateMutability": "view",
      "type": "function"
    },
    {
      "inputs": [],
      "name": "global",
      "outputs": [
        {
          "internalType": "uint128",
          "name": "current",
          "type": "uint128"
        },
        {
          "internalType": "uint128",
          "name": "latest",
          "type": "uint128"
        }
      ],
      "stateMutability": "view",
      "type": "function"
    },
    {
      "inputs": [
        {
          "internalType": "contract IOracleProvider",
          "name": "initialProvider",
          "type": "address"
        }
      ],
      "name": "initialize",
      "outputs": [],
      "stateMutability": "nonpayable",
      "type": "function"
    },
    {
      "inputs": [],
      "name": "latest",
      "outputs": [
        {
          "components": [
            {
              "internalType": "uint256",
              "name": "timestamp",
              "type": "uint256"
            },
            {
              "internalType": "Fixed6",
              "name": "price",
              "type": "int256"
            },
            {
              "internalType": "bool",
              "name": "valid",
              "type": "bool"
            }
          ],
          "internalType": "struct OracleVersion",
          "name": "",
          "type": "tuple"
        }
      ],
      "stateMutability": "view",
      "type": "function"
    },
    {
      "inputs": [
        {
          "internalType": "uint256",
          "name": "",
          "type": "uint256"
        }
      ],
      "name": "oracles",
      "outputs": [
        {
          "internalType": "contract IOracleProvider",
          "name": "provider",
          "type": "address"
        },
        {
          "internalType": "uint96",
          "name": "timestamp",
          "type": "uint96"
        }
      ],
      "stateMutability": "view",
      "type": "function"
    },
    {
      "inputs": [
        {
          "internalType": "address",
          "name": "account",
          "type": "address"
        }
      ],
      "name": "request",
      "outputs": [],
      "stateMutability": "nonpayable",
      "type": "function"
    },
    {
      "inputs": [],
      "name": "status",
      "outputs": [
        {
          "components": [
            {
              "internalType": "uint256",
              "name": "timestamp",
              "type": "uint256"
            },
            {
              "internalType": "Fixed6",
              "name": "price",
              "type": "int256"
            },
            {
              "internalType": "bool",
              "name": "valid",
              "type": "bool"
            }
          ],
          "internalType": "struct OracleVersion",
          "name": "latestVersion",
          "type": "tuple"
        },
        {
          "internalType": "uint256",
          "name": "currentTimestamp",
          "type": "uint256"
        }
      ],
      "stateMutability": "view",
      "type": "function"
    },
    {
      "inputs": [
        {
          "internalType": "contract IOracleProvider",
          "name": "newProvider",
          "type": "address"
        }
      ],
      "name": "update",
      "outputs": [],
      "stateMutability": "nonpayable",
      "type": "function"
    }
  ],
  "transactionHash": "0xc6f42ae3d0cb24a8876b7e4643dc6a9f8b67a998c6bfad11d8dde1307e461bc6",
  "args": [],
  "numDeployments": 2,
  "solcInputHash": "67035323491d73d9ae6169bf4ba007c7",
  "bytecode": "0x60808060405234610016576114a2908161001c8239f35b600080fdfe608060408181526004918236101561001657600080fd5b600090813560e01c9081631c1b877214610a6157508063200d2ed21461094c57806327c78c421461064557806352bfe7891461053d5780635b69a7d8146104da5780639fa6a6e3146103f4578063a05f99061461039f578063c45a01551461032d578063c4d66de8146100f55763e0886f901461009257600080fd5b346100f25760207ffffffffffffffffffffffffffffffffffffffffffffffffffffffffffffffffc3601126100f257506100f06100d160609335610cb3565b9151809260408091805184526020810151602085015201511515910152565bf35b80fd5b5091346103295760207ffffffffffffffffffffffffffffffffffffffffffffffffffffffffffffffffc3601126103295780359073ffffffffffffffffffffffffffffffffffffffff8216808303610325577f5db5abc19987c2b3729df7961b62b6bb0bae886dd47e3ce25bb3a3af34c6d80b6001815410156102f557600190557fad57d7911b7e3d6c3c79a68ba909a7f4ba41f9485e5207b12dee0d0c6af5398c9260018455303b1515806102ee575b6102c657859392916101dc606092337f0aec74a1754fb10877b53c31a29be82096082042eb1fb374ec96fac88c0e621b55610e63565b8551928380927f52bfe7890000000000000000000000000000000000000000000000000000000082525afa9081156102bc57839161024f575b50917fbe9b076dc5b65990cca9dd9d7366682482e7817a6f6bc7f4faf4dc32af497f3293916102456020946111a9565b555160018152a180f35b92905060609391933d81116102b5575b6102698185610bef565b8301936060848603126102b1576102456102a67fbe9b076dc5b65990cca9dd9d7366682482e7817a6f6bc7f4faf4dc32af497f3296602096610c3d565b929450509193610215565b5080fd5b503d61025f565b84513d85823e3d90fd5b8285517f689f12a4000000000000000000000000000000000000000000000000000000008152fd5b50856101a6565b60248360018751917f1e7a9d95000000000000000000000000000000000000000000000000000000008352820152fd5b8480fd5b8280fd5b5090346102b157817ffffffffffffffffffffffffffffffffffffffffffffffffffffffffffffffffc3601126102b15760209073ffffffffffffffffffffffffffffffffffffffff7f0aec74a1754fb10877b53c31a29be82096082042eb1fb374ec96fac88c0e621b54169051908152f35b50346100f257807ffffffffffffffffffffffffffffffffffffffffffffffffffffffffffffffffc3601126100f257506001548151906fffffffffffffffffffffffffffffffff8116825260801c6020820152f35b5090346102b157817ffffffffffffffffffffffffffffffffffffffffffffffffffffffffffffffffc3601126102b1576fffffffffffffffffffffffffffffffff6001541682526020928284528373ffffffffffffffffffffffffffffffffffffffff83852054168351928380927f9fa6a6e30000000000000000000000000000000000000000000000000000000082525afa9283156104cf579261049b575b5051908152f35b9091508281813d83116104c8575b6104b38183610bef565b810103126104c357519038610494565b600080fd5b503d6104a9565b8251903d90823e3d90fd5b5091346103295760207ffffffffffffffffffffffffffffffffffffffffffffffffffffffffffffffffc3601126103295791819235815280602052205481519073ffffffffffffffffffffffffffffffffffffffff8116825260a01c6020820152f35b50346100f257807ffffffffffffffffffffffffffffffffffffffffffffffffffffffffffffffffc3601126100f257610574610c94565b506fffffffffffffffffffffffffffffffff60015416815280602052606073ffffffffffffffffffffffffffffffffffffffff83832054168351948580927f52bfe7890000000000000000000000000000000000000000000000000000000082525afa9283156106395781936105f4575b6060836100f06100d1876111fa565b90925060603d8111610632575b61060b8183610bef565b8101926060828503126100f257506100d161062b6060946100f093610c3d565b93506105e5565b503d610601565b509051903d90823e3d90fd5b5082346102b157602092837ffffffffffffffffffffffffffffffffffffffffffffffffffffffffffffffffc36011261032957813573ffffffffffffffffffffffffffffffffffffffff80821680920361032557602486827f0aec74a1754fb10877b53c31a29be82096082042eb1fb374ec96fac88c0e621b54168551928380927fb9181611000000000000000000000000000000000000000000000000000000008252338a8301525afa908115610942578691610909575b50156108e15783600154926fffffffffffffffffffffffffffffffff92838516808952888a52608082888b2054168851998a80927f200d2ed20000000000000000000000000000000000000000000000000000000082525afa9586156108d75789988a9761089f575b5090859160801c808b528a8c52888b205460a01c881160001461089857505b168852858820541690813b1561089457879160248392885194859384927f27c78c42000000000000000000000000000000000000000000000000000000008452888401525af1801561088a57610833575b60015483168752868852848720805473ffffffffffffffffffffffffffffffffffffffff1660a086901b7fffffffffffffffffffffffff00000000000000000000000000000000000000001617905586610830876111a9565b80f35b67ffffffffffffffff81989792981161085e578452949550816bffffffffffffffffffffffff6107d7565b60248260418a7f4e487b7100000000000000000000000000000000000000000000000000000000835252fd5b85513d89823e3d90fd5b8780fd5b9050610786565b869299506108c591975060803d81116108d0575b6108bd8183610bef565b810190610c76565b989098969091610767565b503d6108b3565b87513d8b823e3d90fd5b5050517f652fafab000000000000000000000000000000000000000000000000000000008152fd5b90508681813d831161093b575b6109208183610bef565b810103126109375761093190610c30565b876106fe565b8580fd5b503d610916565b84513d88823e3d90fd5b50913461032957827ffffffffffffffffffffffffffffffffffffffffffffffffffffffffffffffffc36011261032957610984610c94565b506fffffffffffffffffffffffffffffffff60015416835282602052608073ffffffffffffffffffffffffffffffffffffffff83852054168351928380927f200d2ed20000000000000000000000000000000000000000000000000000000082525afa908115610a5557926080938192610a2c575b50610a06610a25916111fa565b9251809360408091805184526020810151602085015201511515910152565b6060820152f35b610a069250610a259150610a4c90853d81116108d0576108bd8183610bef565b929091506109f9565b505051903d90823e3d90fd5b8484849234610ba05760207ffffffffffffffffffffffffffffffffffffffffffffffffffffffffffffffffc360112610ba057823573ffffffffffffffffffffffffffffffffffffffff9182821692838303610b9c577f0aec74a1754fb10877b53c31a29be82096082042eb1fb374ec96fac88c0e621b54163303610b75575090610aed606092610e63565b8251938480927f52bfe7890000000000000000000000000000000000000000000000000000000082525afa908115610b6c57508290610b31575b61083091506111a9565b5060603d8111610b65575b610b468183610bef565b8101906060818303126103295761083091610b6091610c3d565b610b27565b503d610b3c565b513d84823e3d90fd5b807fb9d5b7c900000000000000000000000000000000000000000000000000000000869252fd5b8680fd5b8380fd5b6060810190811067ffffffffffffffff821117610bc057604052565b7f4e487b7100000000000000000000000000000000000000000000000000000000600052604160045260246000fd5b90601f7fffffffffffffffffffffffffffffffffffffffffffffffffffffffffffffffe0910116810190811067ffffffffffffffff821117610bc057604052565b519081151582036104c357565b91908260609103126104c357604051610c5581610ba4565b6040610c71818395805185526020810151602086015201610c30565b910152565b91906080838203126104c357610c8e60609184610c3d565b92015190565b60405190610ca182610ba4565b60006040838281528260208201520152565b610cbb610c94565b8115610e5e57506fffffffffffffffffffffffffffffffff806001541660009181835260209383855273ffffffffffffffffffffffffffffffffffffffff92604095848787205416937fffffffffffffffffffffffffffffffffffffffffffffffffffffffffffffffff809301818111610e315716919085835b610dce575b50505050906024606092865194859384927fe0886f900000000000000000000000000000000000000000000000000000000084526004840152165afa928315610dc357508192610d8957505090565b9092915060603d8111610dbc575b610da18183610bef565b810190606081830312610ba057610db9929350610c3d565b90565b503d610d97565b51913d9150823e3d90fd5b9091929485885287835288882054908160a01c8611610e28575016938015610dfb57820191908583610d35565b6024877f4e487b710000000000000000000000000000000000000000000000000000000081526011600452fd5b95505080610d3a565b6024887f4e487b710000000000000000000000000000000000000000000000000000000081526011600452fd5b905090565b6001546fffffffffffffffffffffffffffffffff908181169060801c810361117f5780611065575b5073ffffffffffffffffffffffffffffffffffffffff80921660408051927f9fa6a6e30000000000000000000000000000000000000000000000000000000084526020938481600481875afa90811561105a5760009161102d575b5082519083820182811067ffffffffffffffff821117610bc05784528482528582016bffffffffffffffffffffffff809216815260015497848916858114610ffe577f3df77beb5db05fcdd70a30fc8adf3f83f9501b68579455adbd100b818094039499610ff79660017fffffffffffffffffffffffffffffffff00000000000000000000000000000000930116918291161760015560005260008852856000209351167fffffffffffffffffffffffff0000000000000000000000000000000000000000845416178355511673ffffffffffffffffffffffffffffffffffffffff7fffffffffffffffffffffffff000000000000000000000000000000000000000083549260a01b169116179055565b51908152a1565b7f4e487b7100000000000000000000000000000000000000000000000000000000600052601160045260246000fd5b908582813d8311611053575b6110438183610bef565b810103126100f257505138610ee6565b503d611039565b83513d6000823e3d90fd5b600490600081815280602052606073ffffffffffffffffffffffffffffffffffffffff604083205416604051948580927f52bfe7890000000000000000000000000000000000000000000000000000000082525afa928315611172578193611134575b506040908351928152806020522090815460a01c106110e8575b50610e8b565b9051815473ffffffffffffffffffffffffffffffffffffffff1660a09190911b7fffffffffffffffffffffffff00000000000000000000000000000000000000001617905538806110e2565b90925060603d811161116b575b61114b8183610bef565b810190606081830312610ba05760409161116491610c3d565b92906110c8565b503d611141565b50604051903d90823e3d90fd5b60046040517f8852e53b000000000000000000000000000000000000000000000000000000008152fd5b6111b290611363565b6111b857565b6001546fffffffffffffffffffffffffffffffff7fffffffffffffffffffffffffffffffff000000000000000000000000000000008260801b16911617600155565b90611203610c94565b50600154916fffffffffffffffffffffffffffffffff83169260801c9283811461135e5761123082611363565b91600083156112b75750905b81946000908460001461129457505060005260006020526bffffffffffffffffffffffff60406000205460a01c5b168092159182611289575b505061127e5750565b610db9919250610cb3565b511190508138611275565b6bffffffffffffffffffffffff925090604091815280602052205460a01c61126a565b6004915085815280602052606073ffffffffffffffffffffffffffffffffffffffff604083205416604051938480927f52bfe7890000000000000000000000000000000000000000000000000000000082525afa918215611172578192611321575b50509061123c565b90915060603d8111611357575b6113388183610bef565b8101916060828403126100f257509061135091610c3d565b3880611319565b503d61132e565b509150565b6fffffffffffffffffffffffffffffffff906001548060801c928391161461146557811561145e576000918083528260205260408320546040517f52bfe78900000000000000000000000000000000000000000000000000000000815260608160048173ffffffffffffffffffffffffffffffffffffffff86165afa908115611453578591611419575b50519060a01c1161141457825281602052604082205460a01c90511115610db95750600190565b505090565b905060603d811161144c575b61142f8183610bef565b810190606081830312610937579061144691610c3d565b386113ed565b503d611425565b6040513d87823e3d90fd5b5050600190565b505060009056fea26469706673582212206aa7a7cfc46df60489fc6cce814bdcbb325b2a861f63b89aecb0269164f07fca64736f6c63430008130033",
  "devdoc": {
    "details": "Manages swapping between different underlying oracle provider interfaces over time.",
    "kind": "dev",
    "methods": {
      "at(uint256)": {
        "params": {
          "timestamp": "The timestamp to query"
        },
        "returns": {
          "atVersion": "The oracle version at the given timestamp"
        }
      },
      "factory()": {
        "returns": {
          "_0": "The factory that created this instance"
        }
      },
      "initialize(address)": {
        "params": {
          "initialProvider": "The initial oracle provider"
        }
      },
      "request(address)": {
        "params": {
          "account": "Original sender to optionally use for callbacks"
        }
      },
      "status()": {
        "returns": {
          "currentTimestamp": "The current timestamp",
          "latestVersion": "The latest committed version"
        }
      },
      "update(address)": {
        "details": "Both the current and new oracle provider must have the same current",
        "params": {
          "newProvider": "The new oracle provider"
        }
      }
    },
    "title": "Oracle",
    "version": 1
  },
  "userdoc": {
    "kind": "user",
    "methods": {
      "at(uint256)": {
        "notice": "Returns the oracle version at a given timestamp"
      },
      "current()": {
        "notice": "Returns the current value"
      },
      "factory()": {
        "notice": "Returns the factory that created this instance"
      },
      "global()": {
        "notice": "The global state of the oracle"
      },
      "initialize(address)": {
        "notice": "Initializes the contract state"
      },
      "latest()": {
        "notice": "Returns the latest committed version"
      },
      "oracles(uint256)": {
        "notice": "A historical mapping of underlying oracle providers"
      },
      "request(address)": {
        "notice": "Requests a new version at the current timestamp"
      },
      "status()": {
        "notice": "Returns the latest committed version as well as the current timestamp"
      },
      "update(address)": {
        "notice": "Updates the current oracle provider"
      }
    },
    "notice": "The top-level oracle contract that implements an oracle provider interface.",
    "version": 1
  },
  "storageLayout": {
    "storage": [
      {
        "astId": 2468,
        "contract": "@equilibria/perennial-v2-oracle/contracts/Oracle.sol:Oracle",
        "label": "oracles",
        "offset": 0,
        "slot": "0",
        "type": "t_mapping(t_uint256,t_struct(Epoch)3361_storage)"
      },
      {
        "astId": 2472,
        "contract": "@equilibria/perennial-v2-oracle/contracts/Oracle.sol:Oracle",
        "label": "global",
        "offset": 0,
        "slot": "1",
        "type": "t_struct(Global)3368_storage"
      }
    ],
    "types": {
      "t_contract(IOracleProvider)13905": {
        "encoding": "inplace",
        "label": "contract IOracleProvider",
        "numberOfBytes": "20"
      },
      "t_mapping(t_uint256,t_struct(Epoch)3361_storage)": {
        "encoding": "mapping",
        "key": "t_uint256",
        "label": "mapping(uint256 => struct IOracle.Epoch)",
        "numberOfBytes": "32",
        "value": "t_struct(Epoch)3361_storage"
      },
      "t_struct(Epoch)3361_storage": {
        "encoding": "inplace",
        "label": "struct IOracle.Epoch",
        "members": [
          {
            "astId": 3357,
            "contract": "@equilibria/perennial-v2-oracle/contracts/Oracle.sol:Oracle",
            "label": "provider",
            "offset": 0,
            "slot": "0",
            "type": "t_contract(IOracleProvider)13905"
          },
          {
            "astId": 3360,
            "contract": "@equilibria/perennial-v2-oracle/contracts/Oracle.sol:Oracle",
            "label": "timestamp",
            "offset": 20,
            "slot": "0",
            "type": "t_uint96"
          }
        ],
        "numberOfBytes": "32"
      },
      "t_struct(Global)3368_storage": {
        "encoding": "inplace",
        "label": "struct IOracle.Global",
        "members": [
          {
            "astId": 3364,
            "contract": "@equilibria/perennial-v2-oracle/contracts/Oracle.sol:Oracle",
            "label": "current",
            "offset": 0,
            "slot": "0",
            "type": "t_uint128"
          },
          {
            "astId": 3367,
            "contract": "@equilibria/perennial-v2-oracle/contracts/Oracle.sol:Oracle",
            "label": "latest",
            "offset": 16,
            "slot": "0",
            "type": "t_uint128"
          }
        ],
        "numberOfBytes": "32"
      },
      "t_uint128": {
        "encoding": "inplace",
        "label": "uint128",
        "numberOfBytes": "16"
      },
      "t_uint256": {
        "encoding": "inplace",
        "label": "uint256",
        "numberOfBytes": "32"
      },
      "t_uint96": {
        "encoding": "inplace",
        "label": "uint96",
        "numberOfBytes": "12"
      }
    }
  }
}