{
  "address": "0xB364c1656E812d19DAA09cE5cb06E4a100e48704",
  "abi": [
    {
      "inputs": [],
      "name": "AccountStorageInvalidError",
      "type": "error"
    },
    {
      "inputs": [],
      "name": "AccountStorageInvalidError",
      "type": "error"
    },
    {
      "inputs": [],
      "name": "CheckpointStorageInvalidError",
      "type": "error"
    },
    {
      "inputs": [],
      "name": "CheckpointStorageInvalidError",
      "type": "error"
    },
    {
      "inputs": [
        {
          "internalType": "uint256",
          "name": "value",
          "type": "uint256"
        }
      ],
      "name": "Fixed6OverflowError",
      "type": "error"
    },
    {
      "inputs": [
        {
          "internalType": "address",
          "name": "sender",
          "type": "address"
        }
      ],
      "name": "InstanceNotOwnerError",
      "type": "error"
    },
    {
      "inputs": [],
      "name": "InstancePausedError",
      "type": "error"
    },
    {
      "inputs": [],
      "name": "MappingStorageInvalidError",
      "type": "error"
    },
    {
      "inputs": [],
      "name": "MappingStorageInvalidError",
      "type": "error"
    },
    {
      "inputs": [],
      "name": "RegistrationStorageInvalidError",
      "type": "error"
    },
    {
      "inputs": [],
      "name": "RegistrationStorageInvalidError",
      "type": "error"
    },
    {
      "inputs": [
        {
          "internalType": "int256",
          "name": "value",
          "type": "int256"
        }
      ],
      "name": "UFixed6UnderflowError",
      "type": "error"
    },
    {
      "inputs": [
        {
          "internalType": "uint256",
          "name": "version",
          "type": "uint256"
        }
      ],
      "name": "UInitializableAlreadyInitializedError",
      "type": "error"
    },
    {
      "inputs": [],
      "name": "UInitializableNotInitializingError",
      "type": "error"
    },
    {
      "inputs": [],
      "name": "UInitializableZeroVersionError",
      "type": "error"
    },
    {
      "inputs": [],
      "name": "VaultDepositLimitExceededError",
      "type": "error"
    },
    {
      "inputs": [],
      "name": "VaultExistingOrderError",
      "type": "error"
    },
    {
      "inputs": [],
      "name": "VaultIncorrectAssetError",
      "type": "error"
    },
    {
      "inputs": [],
      "name": "VaultInsufficientMinimumError",
      "type": "error"
    },
    {
      "inputs": [],
      "name": "VaultMarketDoesNotExistError",
      "type": "error"
    },
    {
      "inputs": [],
      "name": "VaultMarketExistsError",
      "type": "error"
    },
    {
      "inputs": [],
      "name": "VaultNotMarketError",
      "type": "error"
    },
    {
      "inputs": [],
      "name": "VaultNotOperatorError",
      "type": "error"
    },
    {
      "inputs": [],
      "name": "VaultNotSingleSidedError",
      "type": "error"
    },
    {
      "inputs": [],
      "name": "VaultParameterStorageInvalidError",
      "type": "error"
    },
    {
      "inputs": [],
      "name": "VaultParameterStorageInvalidError",
      "type": "error"
    },
    {
      "inputs": [],
      "name": "VaultRedemptionLimitExceededError",
      "type": "error"
    },
    {
      "anonymous": false,
      "inputs": [
        {
          "indexed": false,
          "internalType": "uint256",
          "name": "version",
          "type": "uint256"
        }
      ],
      "name": "Initialized",
      "type": "event"
    },
    {
      "anonymous": false,
      "inputs": [
        {
          "indexed": true,
          "internalType": "uint256",
          "name": "marketId",
          "type": "uint256"
        },
        {
          "indexed": false,
          "internalType": "contract IMarket",
          "name": "market",
          "type": "address"
        }
      ],
      "name": "MarketRegistered",
      "type": "event"
    },
    {
      "anonymous": false,
      "inputs": [
        {
          "indexed": true,
          "internalType": "uint256",
          "name": "marketId",
          "type": "uint256"
        },
        {
          "indexed": false,
          "internalType": "uint256",
          "name": "newWeight",
          "type": "uint256"
        },
        {
          "indexed": false,
          "internalType": "UFixed6",
          "name": "newLeverage",
          "type": "uint256"
        }
      ],
      "name": "MarketUpdated",
      "type": "event"
    },
    {
      "anonymous": false,
      "inputs": [
        {
          "components": [
            {
              "internalType": "UFixed6",
              "name": "cap",
              "type": "uint256"
            }
          ],
          "indexed": false,
          "internalType": "struct VaultParameter",
          "name": "newParameter",
          "type": "tuple"
        }
      ],
      "name": "ParameterUpdated",
      "type": "event"
    },
    {
      "anonymous": false,
      "inputs": [
        {
          "indexed": true,
          "internalType": "address",
          "name": "sender",
          "type": "address"
        },
        {
          "indexed": true,
          "internalType": "address",
          "name": "account",
          "type": "address"
        },
        {
          "indexed": false,
          "internalType": "uint256",
          "name": "version",
          "type": "uint256"
        },
        {
          "indexed": false,
          "internalType": "UFixed6",
          "name": "depositAssets",
          "type": "uint256"
        },
        {
          "indexed": false,
          "internalType": "UFixed6",
          "name": "redeemShares",
          "type": "uint256"
        },
        {
          "indexed": false,
          "internalType": "UFixed6",
          "name": "claimAssets",
          "type": "uint256"
        }
      ],
      "name": "Updated",
      "type": "event"
    },
    {
      "inputs": [
        {
          "components": [
            {
              "internalType": "UFixed6",
              "name": "settlementFee",
              "type": "uint256"
            },
            {
              "internalType": "uint256",
              "name": "totalWeight",
              "type": "uint256"
            },
            {
              "internalType": "uint256",
              "name": "currentId",
              "type": "uint256"
            },
            {
              "components": [
                {
                  "internalType": "contract IMarket",
                  "name": "market",
                  "type": "address"
                },
                {
                  "internalType": "uint256",
                  "name": "weight",
                  "type": "uint256"
                },
                {
                  "internalType": "UFixed6",
                  "name": "leverage",
                  "type": "uint256"
                }
              ],
              "internalType": "struct Registration[]",
              "name": "registrations",
              "type": "tuple[]"
            },
            {
              "components": [
                {
                  "internalType": "UFixed6",
                  "name": "latestPrice",
                  "type": "uint256"
                },
                {
                  "internalType": "UFixed6",
                  "name": "currentPosition",
                  "type": "uint256"
                },
                {
                  "internalType": "UFixed6",
                  "name": "currentNet",
                  "type": "uint256"
                },
                {
                  "internalType": "Fixed6",
                  "name": "collateral",
                  "type": "int256"
                },
                {
                  "internalType": "UFixed6",
                  "name": "latestAccountPosition",
                  "type": "uint256"
                },
                {
                  "internalType": "UFixed6",
                  "name": "currentAccountPosition",
                  "type": "uint256"
                }
              ],
              "internalType": "struct IVault.MarketContext[]",
              "name": "markets",
              "type": "tuple[]"
            },
            {
              "components": [
                {
                  "internalType": "uint256[]",
                  "name": "_ids",
                  "type": "uint256[]"
                }
              ],
              "internalType": "struct Mapping",
              "name": "currentIds",
              "type": "tuple"
            },
            {
              "components": [
                {
                  "internalType": "uint256[]",
                  "name": "_ids",
                  "type": "uint256[]"
                }
              ],
              "internalType": "struct Mapping",
              "name": "latestIds",
              "type": "tuple"
            },
            {
              "components": [
                {
                  "internalType": "UFixed6",
                  "name": "cap",
                  "type": "uint256"
                }
              ],
              "internalType": "struct VaultParameter",
              "name": "parameter",
              "type": "tuple"
            },
            {
              "components": [
                {
                  "internalType": "UFixed6",
                  "name": "deposit",
                  "type": "uint256"
                },
                {
                  "internalType": "UFixed6",
                  "name": "redemption",
                  "type": "uint256"
                },
                {
                  "internalType": "UFixed6",
                  "name": "shares",
                  "type": "uint256"
                },
                {
                  "internalType": "Fixed6",
                  "name": "assets",
                  "type": "int256"
                },
                {
                  "internalType": "UFixed6",
                  "name": "fee",
                  "type": "uint256"
                },
                {
                  "internalType": "UFixed6",
                  "name": "keeper",
                  "type": "uint256"
                },
                {
                  "internalType": "uint256",
                  "name": "count",
                  "type": "uint256"
                }
              ],
              "internalType": "struct Checkpoint",
              "name": "currentCheckpoint",
              "type": "tuple"
            },
            {
              "components": [
                {
                  "internalType": "UFixed6",
                  "name": "deposit",
                  "type": "uint256"
                },
                {
                  "internalType": "UFixed6",
                  "name": "redemption",
                  "type": "uint256"
                },
                {
                  "internalType": "UFixed6",
                  "name": "shares",
                  "type": "uint256"
                },
                {
                  "internalType": "Fixed6",
                  "name": "assets",
                  "type": "int256"
                },
                {
                  "internalType": "UFixed6",
                  "name": "fee",
                  "type": "uint256"
                },
                {
                  "internalType": "UFixed6",
                  "name": "keeper",
                  "type": "uint256"
                },
                {
                  "internalType": "uint256",
                  "name": "count",
                  "type": "uint256"
                }
              ],
              "internalType": "struct Checkpoint",
              "name": "latestCheckpoint",
              "type": "tuple"
            },
            {
              "components": [
                {
                  "internalType": "uint256",
                  "name": "current",
                  "type": "uint256"
                },
                {
                  "internalType": "uint256",
                  "name": "latest",
                  "type": "uint256"
                },
                {
                  "internalType": "UFixed6",
                  "name": "shares",
                  "type": "uint256"
                },
                {
                  "internalType": "UFixed6",
                  "name": "assets",
                  "type": "uint256"
                },
                {
                  "internalType": "UFixed6",
                  "name": "deposit",
                  "type": "uint256"
                },
                {
                  "internalType": "UFixed6",
                  "name": "redemption",
                  "type": "uint256"
                }
              ],
              "internalType": "struct Account",
              "name": "global",
              "type": "tuple"
            },
            {
              "components": [
                {
                  "internalType": "uint256",
                  "name": "current",
                  "type": "uint256"
                },
                {
                  "internalType": "uint256",
                  "name": "latest",
                  "type": "uint256"
                },
                {
                  "internalType": "UFixed6",
                  "name": "shares",
                  "type": "uint256"
                },
                {
                  "internalType": "UFixed6",
                  "name": "assets",
                  "type": "uint256"
                },
                {
                  "internalType": "UFixed6",
                  "name": "deposit",
                  "type": "uint256"
                },
                {
                  "internalType": "UFixed6",
                  "name": "redemption",
                  "type": "uint256"
                }
              ],
              "internalType": "struct Account",
              "name": "local",
              "type": "tuple"
            }
          ],
          "internalType": "struct IVault.Context",
          "name": "context",
          "type": "tuple"
        }
      ],
      "name": "_collateral",
      "outputs": [
        {
          "internalType": "Fixed6",
          "name": "value",
          "type": "int256"
        }
      ],
      "stateMutability": "view",
      "type": "function"
    },
    {
      "inputs": [
        {
          "components": [
            {
              "internalType": "UFixed6",
              "name": "settlementFee",
              "type": "uint256"
            },
            {
              "internalType": "uint256",
              "name": "totalWeight",
              "type": "uint256"
            },
            {
              "internalType": "uint256",
              "name": "currentId",
              "type": "uint256"
            },
            {
              "components": [
                {
                  "internalType": "contract IMarket",
                  "name": "market",
                  "type": "address"
                },
                {
                  "internalType": "uint256",
                  "name": "weight",
                  "type": "uint256"
                },
                {
                  "internalType": "UFixed6",
                  "name": "leverage",
                  "type": "uint256"
                }
              ],
              "internalType": "struct Registration[]",
              "name": "registrations",
              "type": "tuple[]"
            },
            {
              "components": [
                {
                  "internalType": "UFixed6",
                  "name": "latestPrice",
                  "type": "uint256"
                },
                {
                  "internalType": "UFixed6",
                  "name": "currentPosition",
                  "type": "uint256"
                },
                {
                  "internalType": "UFixed6",
                  "name": "currentNet",
                  "type": "uint256"
                },
                {
                  "internalType": "Fixed6",
                  "name": "collateral",
                  "type": "int256"
                },
                {
                  "internalType": "UFixed6",
                  "name": "latestAccountPosition",
                  "type": "uint256"
                },
                {
                  "internalType": "UFixed6",
                  "name": "currentAccountPosition",
                  "type": "uint256"
                }
              ],
              "internalType": "struct IVault.MarketContext[]",
              "name": "markets",
              "type": "tuple[]"
            },
            {
              "components": [
                {
                  "internalType": "uint256[]",
                  "name": "_ids",
                  "type": "uint256[]"
                }
              ],
              "internalType": "struct Mapping",
              "name": "currentIds",
              "type": "tuple"
            },
            {
              "components": [
                {
                  "internalType": "uint256[]",
                  "name": "_ids",
                  "type": "uint256[]"
                }
              ],
              "internalType": "struct Mapping",
              "name": "latestIds",
              "type": "tuple"
            },
            {
              "components": [
                {
                  "internalType": "UFixed6",
                  "name": "cap",
                  "type": "uint256"
                }
              ],
              "internalType": "struct VaultParameter",
              "name": "parameter",
              "type": "tuple"
            },
            {
              "components": [
                {
                  "internalType": "UFixed6",
                  "name": "deposit",
                  "type": "uint256"
                },
                {
                  "internalType": "UFixed6",
                  "name": "redemption",
                  "type": "uint256"
                },
                {
                  "internalType": "UFixed6",
                  "name": "shares",
                  "type": "uint256"
                },
                {
                  "internalType": "Fixed6",
                  "name": "assets",
                  "type": "int256"
                },
                {
                  "internalType": "UFixed6",
                  "name": "fee",
                  "type": "uint256"
                },
                {
                  "internalType": "UFixed6",
                  "name": "keeper",
                  "type": "uint256"
                },
                {
                  "internalType": "uint256",
                  "name": "count",
                  "type": "uint256"
                }
              ],
              "internalType": "struct Checkpoint",
              "name": "currentCheckpoint",
              "type": "tuple"
            },
            {
              "components": [
                {
                  "internalType": "UFixed6",
                  "name": "deposit",
                  "type": "uint256"
                },
                {
                  "internalType": "UFixed6",
                  "name": "redemption",
                  "type": "uint256"
                },
                {
                  "internalType": "UFixed6",
                  "name": "shares",
                  "type": "uint256"
                },
                {
                  "internalType": "Fixed6",
                  "name": "assets",
                  "type": "int256"
                },
                {
                  "internalType": "UFixed6",
                  "name": "fee",
                  "type": "uint256"
                },
                {
                  "internalType": "UFixed6",
                  "name": "keeper",
                  "type": "uint256"
                },
                {
                  "internalType": "uint256",
                  "name": "count",
                  "type": "uint256"
                }
              ],
              "internalType": "struct Checkpoint",
              "name": "latestCheckpoint",
              "type": "tuple"
            },
            {
              "components": [
                {
                  "internalType": "uint256",
                  "name": "current",
                  "type": "uint256"
                },
                {
                  "internalType": "uint256",
                  "name": "latest",
                  "type": "uint256"
                },
                {
                  "internalType": "UFixed6",
                  "name": "shares",
                  "type": "uint256"
                },
                {
                  "internalType": "UFixed6",
                  "name": "assets",
                  "type": "uint256"
                },
                {
                  "internalType": "UFixed6",
                  "name": "deposit",
                  "type": "uint256"
                },
                {
                  "internalType": "UFixed6",
                  "name": "redemption",
                  "type": "uint256"
                }
              ],
              "internalType": "struct Account",
              "name": "global",
              "type": "tuple"
            },
            {
              "components": [
                {
                  "internalType": "uint256",
                  "name": "current",
                  "type": "uint256"
                },
                {
                  "internalType": "uint256",
                  "name": "latest",
                  "type": "uint256"
                },
                {
                  "internalType": "UFixed6",
                  "name": "shares",
                  "type": "uint256"
                },
                {
                  "internalType": "UFixed6",
                  "name": "assets",
                  "type": "uint256"
                },
                {
                  "internalType": "UFixed6",
                  "name": "deposit",
                  "type": "uint256"
                },
                {
                  "internalType": "UFixed6",
                  "name": "redemption",
                  "type": "uint256"
                }
              ],
              "internalType": "struct Account",
              "name": "local",
              "type": "tuple"
            }
          ],
          "internalType": "struct IVault.Context",
          "name": "context",
          "type": "tuple"
        },
        {
          "internalType": "uint256",
          "name": "id",
          "type": "uint256"
        }
      ],
      "name": "_collateralAtId",
      "outputs": [
        {
          "internalType": "Fixed6",
          "name": "value",
          "type": "int256"
        },
        {
          "internalType": "UFixed6",
          "name": "fee",
          "type": "uint256"
        },
        {
          "internalType": "UFixed6",
          "name": "keeper",
          "type": "uint256"
        }
      ],
      "stateMutability": "view",
      "type": "function"
    },
    {
      "inputs": [
        {
          "internalType": "address",
          "name": "account",
          "type": "address"
        }
      ],
      "name": "accounts",
      "outputs": [
        {
          "components": [
            {
              "internalType": "uint256",
              "name": "current",
              "type": "uint256"
            },
            {
              "internalType": "uint256",
              "name": "latest",
              "type": "uint256"
            },
            {
              "internalType": "UFixed6",
              "name": "shares",
              "type": "uint256"
            },
            {
              "internalType": "UFixed6",
              "name": "assets",
              "type": "uint256"
            },
            {
              "internalType": "UFixed6",
              "name": "deposit",
              "type": "uint256"
            },
            {
              "internalType": "UFixed6",
              "name": "redemption",
              "type": "uint256"
            }
          ],
          "internalType": "struct Account",
          "name": "",
          "type": "tuple"
        }
      ],
      "stateMutability": "view",
      "type": "function"
    },
    {
      "inputs": [],
      "name": "asset",
      "outputs": [
        {
          "internalType": "Token18",
          "name": "",
          "type": "address"
        }
      ],
      "stateMutability": "view",
      "type": "function"
    },
    {
      "inputs": [
        {
          "internalType": "uint256",
          "name": "id",
          "type": "uint256"
        }
      ],
      "name": "checkpoints",
      "outputs": [
        {
          "components": [
            {
              "internalType": "UFixed6",
              "name": "deposit",
              "type": "uint256"
            },
            {
              "internalType": "UFixed6",
              "name": "redemption",
              "type": "uint256"
            },
            {
              "internalType": "UFixed6",
              "name": "shares",
              "type": "uint256"
            },
            {
              "internalType": "Fixed6",
              "name": "assets",
              "type": "int256"
            },
            {
              "internalType": "UFixed6",
              "name": "fee",
              "type": "uint256"
            },
            {
              "internalType": "UFixed6",
              "name": "keeper",
              "type": "uint256"
            },
            {
              "internalType": "uint256",
              "name": "count",
              "type": "uint256"
            }
          ],
          "internalType": "struct Checkpoint",
          "name": "",
          "type": "tuple"
        }
      ],
      "stateMutability": "view",
      "type": "function"
    },
    {
      "inputs": [],
      "name": "claimReward",
      "outputs": [],
      "stateMutability": "nonpayable",
      "type": "function"
    },
    {
      "inputs": [
        {
          "internalType": "UFixed6",
          "name": "shares",
          "type": "uint256"
        }
      ],
      "name": "convertToAssets",
      "outputs": [
        {
          "internalType": "UFixed6",
          "name": "",
          "type": "uint256"
        }
      ],
      "stateMutability": "view",
      "type": "function"
    },
    {
      "inputs": [
        {
          "internalType": "UFixed6",
          "name": "assets",
          "type": "uint256"
        }
      ],
      "name": "convertToShares",
      "outputs": [
        {
          "internalType": "UFixed6",
          "name": "",
          "type": "uint256"
        }
      ],
      "stateMutability": "view",
      "type": "function"
    },
    {
      "inputs": [],
      "name": "factory",
      "outputs": [
        {
          "internalType": "contract IFactory",
          "name": "",
          "type": "address"
        }
      ],
      "stateMutability": "view",
      "type": "function"
    },
    {
      "inputs": [
        {
          "internalType": "Token18",
          "name": "asset_",
          "type": "address"
        },
        {
          "internalType": "contract IMarket",
          "name": "initialMarket",
          "type": "address"
        },
        {
          "internalType": "UFixed6",
          "name": "cap",
          "type": "uint256"
        },
        {
          "internalType": "string",
          "name": "name_",
          "type": "string"
        }
      ],
      "name": "initialize",
      "outputs": [],
      "stateMutability": "nonpayable",
      "type": "function"
    },
    {
      "inputs": [
        {
          "internalType": "uint256",
          "name": "id",
          "type": "uint256"
        }
      ],
      "name": "mappings",
      "outputs": [
        {
          "components": [
            {
              "internalType": "uint256[]",
              "name": "_ids",
              "type": "uint256[]"
            }
          ],
          "internalType": "struct Mapping",
          "name": "",
          "type": "tuple"
        }
      ],
      "stateMutability": "view",
      "type": "function"
    },
    {
      "inputs": [],
      "name": "name",
      "outputs": [
        {
          "internalType": "string",
          "name": "",
          "type": "string"
        }
      ],
      "stateMutability": "view",
      "type": "function"
    },
    {
      "inputs": [],
      "name": "parameter",
      "outputs": [
        {
          "components": [
            {
              "internalType": "UFixed6",
              "name": "cap",
              "type": "uint256"
            }
          ],
          "internalType": "struct VaultParameter",
          "name": "",
          "type": "tuple"
        }
      ],
      "stateMutability": "view",
      "type": "function"
    },
    {
      "inputs": [
        {
          "internalType": "contract IMarket",
          "name": "market",
          "type": "address"
        }
      ],
      "name": "register",
      "outputs": [],
      "stateMutability": "nonpayable",
      "type": "function"
    },
    {
      "inputs": [
        {
          "internalType": "uint256",
          "name": "marketId",
          "type": "uint256"
        }
      ],
      "name": "registrations",
      "outputs": [
        {
          "components": [
            {
              "internalType": "contract IMarket",
              "name": "market",
              "type": "address"
            },
            {
              "internalType": "uint256",
              "name": "weight",
              "type": "uint256"
            },
            {
              "internalType": "UFixed6",
              "name": "leverage",
              "type": "uint256"
            }
          ],
          "internalType": "struct Registration",
          "name": "",
          "type": "tuple"
        }
      ],
      "stateMutability": "view",
      "type": "function"
    },
    {
      "inputs": [
        {
          "internalType": "address",
          "name": "account",
          "type": "address"
        }
      ],
      "name": "settle",
      "outputs": [],
      "stateMutability": "nonpayable",
      "type": "function"
    },
    {
      "inputs": [],
      "name": "totalAssets",
      "outputs": [
        {
          "internalType": "Fixed6",
          "name": "",
          "type": "int256"
        }
      ],
      "stateMutability": "view",
      "type": "function"
    },
    {
      "inputs": [],
      "name": "totalMarkets",
      "outputs": [
        {
          "internalType": "uint256",
          "name": "",
          "type": "uint256"
        }
      ],
      "stateMutability": "view",
      "type": "function"
    },
    {
      "inputs": [],
      "name": "totalShares",
      "outputs": [
        {
          "internalType": "UFixed6",
          "name": "",
          "type": "uint256"
        }
      ],
      "stateMutability": "view",
      "type": "function"
    },
    {
      "inputs": [
        {
          "internalType": "address",
          "name": "account",
          "type": "address"
        },
        {
          "internalType": "UFixed6",
          "name": "depositAssets",
          "type": "uint256"
        },
        {
          "internalType": "UFixed6",
          "name": "redeemShares",
          "type": "uint256"
        },
        {
          "internalType": "UFixed6",
          "name": "claimAssets",
          "type": "uint256"
        }
      ],
      "name": "update",
      "outputs": [],
      "stateMutability": "nonpayable",
      "type": "function"
    },
    {
      "inputs": [
        {
          "internalType": "uint256",
          "name": "marketId",
          "type": "uint256"
        },
        {
          "internalType": "uint256",
          "name": "newWeight",
          "type": "uint256"
        },
        {
          "internalType": "UFixed6",
          "name": "newLeverage",
          "type": "uint256"
        }
      ],
      "name": "updateMarket",
      "outputs": [],
      "stateMutability": "nonpayable",
      "type": "function"
    },
    {
      "inputs": [
        {
          "components": [
            {
              "internalType": "UFixed6",
              "name": "cap",
              "type": "uint256"
            }
          ],
          "internalType": "struct VaultParameter",
          "name": "newParameter",
          "type": "tuple"
        }
      ],
      "name": "updateParameter",
      "outputs": [],
      "stateMutability": "nonpayable",
      "type": "function"
    }
  ],
  "transactionHash": "0x72d73cab122f2a70867381f6c35eb2b3113743173ade156ed6850899c372306e",
  "args": [],
  "numDeployments": 2,
  "solcInputHash": "d58b878368d248d173dfe0dfb78d1bdc",
  "bytecode": "0x6080806040523461001757615e4490816200001d8239f35b600080fdfe604060a081526004908136101561001557600080fd5b600091823560e01c806301e1d114146119b557806306fdde03146118a657806307a2d13a1461185357806338d52e0f1461182b5780633a98ef391461180e5780634420e4861461164a5780635e5c06e2146115d15780636a256b29146114f25780638162486b146114d35780639fec600b14611169578063a145198c1461100d578063a524574914610e2a578063ad4d4e2914610df9578063b4d8b2d514610db5578063b66d406514610d60578063b88a802f14610af2578063b8a2425214610a7f578063c45a015514610a38578063c6e6f592146109cb578063d2c3aaf2146101ed578063ecf053d91461016a5763f4ddb5be1461011357600080fd5b34610166576020366003190112610166578160609361014292610134611f9a565b5080358252602052206155d0565b90808051926001600160a01b03815116845260208101516020850152015190820152f35b8280fd5b508290346101e957602090816003193601126101665760608493945161018f81611a36565b52358352600781526101a2828420615501565b92825193849383855284019051928080860152835180925280606086019401925b8281106101d257505050500390f35b8351855286955093810193928101926001016101c3565b5080fd5b509190346101e95760803660031901126101e957610209611a1b565b916001600160a01b037f0aec74a1754fb10877b53c31a29be82096082042eb1fb374ec96fac88c0e621b818154169084518092635c975abb60e01b8252818960209586935afa9081156109c1578591610988575b506109795761026a6125e6565b61027386613dd5565b9461027e878761280c565b610140860196875151908288019180835287526007958686526102a2848920615501565b916102b360a08b0193845190615471565b15610950576102c28451612173565b84526101008a01518b51906102dc84600154163090615bad565b9161030d6103086102f764e8d4a510008b85015196046159a6565b926060608082015191015190612699565b6159a6565b80820391908d13801582841316918312161761092e57908791606082015201528351895287875284892092519989805283885263ffffffff9687878c205416610941578b51518061091257508a5b61037461036782611bd7565b8951608052608051611bb5565b8060805152610385601f1991611bd7565b01898c5b8281106108e0575050508a5b8c51805182101561042b576103ab828b92612a0c565b511161041c578a8a6103e58f6103da85828f8094515116968204966103d288608051612a0c565b515251612a0c565b511692608051612a0c565b5101518c83068d8110156104065760051b015261040190612173565b610395565b50508f8d6032602492634e487b7160e01b835252fd5b8e885163f003e2c360e01b8152fd5b50509295969798999c9b919490939a508c5b608051518110156104be578d8c8b8b8e61045986608051612a0c565b51938686528352828d8620948381511663ffffffff1987541617865501519285925b82841061049b57505050505090600161049693920155612173565b61043d565b84968160019495965116918660051b92831b921b19161795019201908e8e61047b565b50949b9a929850949298509594505b604435926064359460016104e087615b01565b146108cf575b60016104f186615b01565b146108bf575b8b8a1697878d8a3314159283610828575b505050610800576024359260016105478d61052c8a6105278b8a612699565b612699565b90898811156107f95787905b508a8111156107f15790615b40565b036107ca57600261056061055a8c6143dd565b86615b40565b146107a35760026105796105738c614437565b88615b40565b1461077c578315158061076a575b6106f95785151580610720575b6106f9576101608a01908151898151910151036106d257509061068b6106cf9c9d6105e98887818f610693986105e08f928585858f6105d68284868198612558565b9e51905190614ace565b518a5190614ace565b60c06101008d01516105fc888251612699565b8c820161060a8c8251612699565b90528152016106198151612173565b90526106778a826001541661062d89615a5e565b7f23b872dd000000000000000000000000000000000000000000000000000000008b519384015233602484015230604484015260648301526064825261067282611b99565b615c2f565b610681838d612adc565b6001541691615a5e565b903390615b51565b5194825195865285015283015260608201527ecdda35b21914cc89ca2689f6ada564ebad3ad81f233699e25e44e13ab73f4960803392a361436e565b80f35b85517fe4b29524000000000000000000000000000000000000000000000000000000008152fd5b84517ff2fbeec4000000000000000000000000000000000000000000000000000000008152fd5b5061074e8c6101208c01518c519089898201511560001461075b579050915b50818110156107545790615ab4565b15610594565b5080615ab4565b61076491614f40565b9161073f565b506107768a5185615b40565b15610587565b84517fc85650f7000000000000000000000000000000000000000000000000000000008152fd5b84517fa9785d3d000000000000000000000000000000000000000000000000000000008152fd5b84517fa65ac9fb000000000000000000000000000000000000000000000000000000008152fd5b508990615b40565b8990610538565b8284517f7eb267c7000000000000000000000000000000000000000000000000000000008152fd5b6044935054168651928380927f2637588e0000000000000000000000000000000000000000000000000000000082528d898301523360248301525afa9081156108b5578c9161087c575b5015878d38610508565b90508781813d83116108ae575b6108938183611bb5565b810103126108aa576108a490612198565b38610872565b8b80fd5b503d610889565b85513d8e823e3d90fd5b61016089015184015194506104f7565b6101608901516060015195506104e6565b89518e6108ec82611a7c565b81528a516108f981611a98565b60e0368237838201528282608051010152018a90610389565b600019810190811161092e578a9004600181018091111561035b575b634e487b7160e01b8c5260118f5260248cfd5b8d875163f003e2c360e01b8152fd5b9897999496509990508192915189526006855261096e828a20615062565b6101008801526104cd565b868551634b94d2bb60e01b8152fd5b90508281813d83116109ba575b61099f8183611bb5565b810103126109b6576109b090612198565b3861025d565b8480fd5b503d610995565b86513d87823e3d90fd5b5034610166576020366003190112610166579160209235906109eb612023565b81811315610a2e576109fc90615a78565b90610a056120ea565b905080610a16575050905b51908152f35b610a2390610a28936155bd565b6154e1565b90610a10565b506109fc81615a78565b5050346101e957816003193601126101e9576020906001600160a01b037f0aec74a1754fb10877b53c31a29be82096082042eb1fb374ec96fac88c0e621b54169051908152f35b503461016657602036600319011261016657610ab28260e09460c093610aa3611feb565b50358152600660205220615062565b82519281518452602082015160208501528082015190840152606081015160608401526080810151608084015260a081015160a0840152015160c0820152f35b5090346101665782600319360112610166576001600160a01b03907f0aec74a1754fb10877b53c31a29be82096082042eb1fb374ec96fac88c0e621b918083541682519182638da5cb5b60e01b92838252818860209687935afa908115610d56579082918991610d1a575b50163303610d045790869291835b600354811015610d005780855287845281610b878787206155d0565b5116803b15610cdc578580918a8951809481937fb88a802f0000000000000000000000000000000000000000000000000000000083525af18015610ce75790899291610cf1575b508086528185528483610be28989206155d0565b51168851938480927f228cb7330000000000000000000000000000000000000000000000000000000082525afa918215610ce7578692610cac575b508885848a54168951928380928982525afa908115610ca2578791610c60575b50610c5b92610c5691610c503083615bad565b91615b51565b612173565b610b6b565b90508581813d8311610c9b575b610c778183611bb5565b81010312610c9757610c5b92610c8f610c569261215f565b915092610c3d565b8680fd5b503d610c6d565b88513d89823e3d90fd5b9091508481813d8311610ce0575b610cc48183611bb5565b81010312610cdc57610cd59061215f565b9038610c1d565b8580fd5b503d610cba565b87513d88823e3d90fd5b610cfa90611a68565b38610bce565b8480f35b8351634d193d1f60e01b81523381880152602490fd5b809250858092503d8311610d4f575b610d338183611bb5565b81010312610d4b57610d45829161215f565b38610b5d565b8780fd5b503d610d29565b85513d8a823e3d90fd5b509134610db25781600319360112610db25782359067ffffffffffffffff8211610db25750610d97606093610da092369101611d23565b602435906147bb565b91929081519384526020840152820152f35b80fd5b509134610db2576020366003190112610db25782359067ffffffffffffffff8211610db25750610ded602093610df292369101611d23565b61472f565b9051908152f35b5050346101e957816003193601126101e9576020918151610e1981611a36565b52610e22615750565b905190518152f35b509190346101e95760603660031901126101e9578235906024356044356001600160a01b03807f0aec74a1754fb10877b53c31a29be82096082042eb1fb374ec96fac88c0e621b5416845191638da5cb5b60e01b835260209283818b81865afa908115611003578991610fca575b50163303610fb457818891865192838092635c975abb60e01b82525afa908115610faa578791610f75575b50610f6657610ed06125e6565b610ef2610edb613896565b610ee4816126a6565b610eed81612a36565b614312565b600354851015610f5857610f4c8697867f19de27a5967d3c5ffdfa85f8f33ed63fcae289e86abc970d013e0ae2bc8bb27f979852808352610f34868a206155d0565b9085848301528487830152888a528352858920615657565b8351928352820152a280f35b8684516288cffd60e31b8152fd5b868451634b94d2bb60e01b8152fd5b90508181813d8311610fa3575b610f8c8183611bb5565b81010312610c9757610f9d90612198565b38610ec3565b503d610f82565b85513d89823e3d90fd5b8451634d193d1f60e01b815233818a0152602490fd5b90508381813d8311610ffc575b610fe18183611bb5565b81010312610ff857610ff29061215f565b38610e98565b8880fd5b503d610fd7565b87513d8b823e3d90fd5b503461016657602091826003193601126111655780519261102d84611a36565b823584526001600160a01b03807f0aec74a1754fb10877b53c31a29be82096082042eb1fb374ec96fac88c0e621b5416908351638da5cb5b60e01b815283818781865afa908115610d56578891611130575b5016330361111a57818491845192838092635c975abb60e01b82525afa9182156111105786926110da575b50506110cd57836106cf846110bd6125e6565b6110c8610edb613896565b6124cc565b51634b94d2bb60e01b8152fd5b90809250813d8311611109575b6110f18183611bb5565b810103126109b65761110290612198565b38806110aa565b503d6110e7565b83513d88823e3d90fd5b8251634d193d1f60e01b81523381860152602490fd5b90508381813d831161115e575b6111478183611bb5565b81010312610d4b576111589061215f565b3861107f565b503d61113d565b8380fd5b50903461016657608036600319011261016657611184611a1b565b6001600160a01b0392602480358581168103610c975767ffffffffffffffff606435818111610ff85736602382011215610ff85780850135918211610ff85736848383010111610ff8576001977f5db5abc19987c2b3729df7961b62b6bb0bae886dd47e3ce25bb3a3af34c6d80b89815410156114a5578990557fad57d7911b7e3d6c3c79a68ba909a7f4ba41f9485e5207b12dee0d0c6af5398c96898855303b15158061149e575b61147657337f0aec74a1754fb10877b53c31a29be82096082042eb1fb374ec96fac88c0e621b55167fffffffffffffffffffffffff00000000000000000000000000000000000000008954161788556112868954611f60565b601f8111611411575b508890601f8311600114611389579382916112c4958b9361137c575b505050600019600383901b1c191690871b1787556121a5565b6003541561136f5791847fbe9b076dc5b65990cca9dd9d7366682482e7817a6f6bc7f4faf4dc32af497f3294926113206020958380528087526113088585206155d0565b90868883015284868301528480528752848420615657565b817f19de27a5967d3c5ffdfa85f8f33ed63fcae289e86abc970d013e0ae2bc8bb27f8480518781528389820152a2611366835161135c81611a36565b60443581526124cc565b5551908152a180f35b82516288cffd60e31b8152fd5b01013590503880806112ab565b90889291601f198316958b80527f290decd9548b62a8d60345a988386fc84ba6bc95484008f6362f93160ef3e563928c5b8881106113f75750846112c498106113db575b50505050811b0187556121a5565b60001960f88660031b161c1992010135169055388080806113cd565b81840183013585558c9690940193602091820191016113ba565b8980527f290decd9548b62a8d60345a988386fc84ba6bc95484008f6362f93160ef3e563601f840160051c8101916020851061146c575b601f0160051c019089905b82811061146157505061128f565b8b8155018990611453565b9091508190611448565b8689517f689f12a4000000000000000000000000000000000000000000000000000000008152fd5b508a61122d565b85878b8b51917f1e7a9d95000000000000000000000000000000000000000000000000000000008352820152fd5b5050346101e957816003193601126101e9576020906003549051908152f35b50346101665760203660031901126101665761150c611a1b565b918160206001600160a01b037f0aec74a1754fb10877b53c31a29be82096082042eb1fb374ec96fac88c0e621b5416835192838092635c975abb60e01b82525afa9081156115c757859161158e575b506110cd57836106cf8461156d6125e6565b61157681613dd5565b611580828261280c565b61158981612a36565b61436e565b90506020813d82116115bf575b816115a860209383611bb5565b810103126109b6576115b990612198565b3861155b565b3d915061159b565b82513d87823e3d90fd5b5050346101e95760203660031901126101e95760a06116148260c0946001600160a01b036115fd611a1b565b611605611fb9565b50168152600560205220614b14565b825192815184526020820151602085015280820151908401526060810151606084015260808101516080840152015160a0820152f35b509190346101e9576020928360031936011261016657611668611a1b565b916001600160a01b0390817f0aec74a1754fb10877b53c31a29be82096082042eb1fb374ec96fac88c0e621b54168151638da5cb5b60e01b815287818681855afa9081156118045790849188916117cc575b501633036117b657868491835192838092635c975abb60e01b82525afa9081156117ac578691611777575b50611768576116f26125e6565b6116fd610edb613896565b8460035492808616915b84811061171857876106cf886121a5565b808852858952828261172b868b206155d0565b5116146117405761173b90612173565b611707565b8584517f499943cd000000000000000000000000000000000000000000000000000000008152fd5b905051634b94d2bb60e01b8152fd5b90508681813d83116117a5575b61178e8183611bb5565b81010312610cdc5761179f90612198565b386116e5565b503d611784565b82513d88823e3d90fd5b8151634d193d1f60e01b81523381860152602490fd5b809250898092503d83116117fd575b6117e58183611bb5565b81010312610c97576117f7849161215f565b386116ba565b503d6117db565b83513d89823e3d90fd5b5050346101e957816003193601126101e957602090610df26120ea565b5050346101e957816003193601126101e9576020906001600160a01b03600154169051908152f35b503461016657602036600319011261016657916020923590611873612023565b8181131561189c5761188490615a78565b61188c6120ea565b915081610a165750509051908152f35b5061188481615a78565b5050346101e957816003193601126101e9578051906020927f506572656e6e69616c205632205661756c743a200000000000000000000000008484015280938154916118f183611f60565b9260019081811690811561198b575060011461192e575b61192a8686611920828b03601f198101845283611bb5565b51918291826119d2565b0390f35b90808093949750527f290decd9548b62a8d60345a988386fc84ba6bc95484008f6362f93160ef3e5635b868310611977575050505061192082603461192a958201019438611908565b805486840160340152918301918101611958565b905061192a97508693506034925061192094915060ff191682840152801515028201019438611908565b5050346101e957816003193601126101e957602090610df2612023565b6020808252825181830181905290939260005b828110611a0757505060409293506000838284010152601f8019910116010190565b8181018601518482016040015285016119e5565b600435906001600160a01b0382168203611a3157565b600080fd5b6020810190811067ffffffffffffffff821117611a5257604052565b634e487b7160e01b600052604160045260246000fd5b67ffffffffffffffff8111611a5257604052565b6040810190811067ffffffffffffffff821117611a5257604052565b60e0810190811067ffffffffffffffff821117611a5257604052565b60c0810190811067ffffffffffffffff821117611a5257604052565b610180810190811067ffffffffffffffff821117611a5257604052565b6060810190811067ffffffffffffffff821117611a5257604052565b610260810190811067ffffffffffffffff821117611a5257604052565b6080810190811067ffffffffffffffff821117611a5257604052565b6101c0810190811067ffffffffffffffff821117611a5257604052565b610100810190811067ffffffffffffffff821117611a5257604052565b610120810190811067ffffffffffffffff821117611a5257604052565b60a0810190811067ffffffffffffffff821117611a5257604052565b90601f8019910116810190811067ffffffffffffffff821117611a5257604052565b67ffffffffffffffff8111611a525760051b60200190565b919060208084830312611a315760405190611c0982611a36565b819480359067ffffffffffffffff8211611a3157019280601f85011215611a31578335611c3581611bd7565b94611c436040519687611bb5565b818652838087019260051b820101928311611a31578301905b828210611c6a575050505052565b81358152908301908301611c5c565b91908260e0910312611a3157604051611c9181611a98565b60c0808294803584526020810135602085015260408101356040850152606081013560608501526080810135608085015260a081013560a08501520135910152565b91908260c0910312611a3157604051611ceb81611ab4565b60a080829480358452602081013560208501526040810135604085015260608101356060850152608081013560808501520135910152565b9190828103926104408412611a3157604090815192611d4184611ad0565b8395823585526020908184013582870152848401358587015260608085013567ffffffffffffffff90818111611a3157860185601f82011215611a3157803590611d8a82611bd7565b91611d978a519384611bb5565b8083528685818501920283010191888311611a31578701905b828210611f17575050508289015260809182870135828111611a315787019286601f85011215611a3157833593611de685611bd7565b92611df38b519485611bb5565b858452878401908860c0809802840101928a8411611a31578901915b838310611ec5575050505089015260a0860135818111611a315785611e35918801611bef565b60a089015281860135908111611a315784611e51918701611bef565b9087015260df190112611a3157610380611ec0926101609451611e7381611a36565b60e0820135815260e0870152610100611e8e84828401611c79565b90870152611ea0836101e08301611c79565b610120870152611eb4836102c08301611cd3565b61014087015201611cd3565b910152565b87838c0312611a31578988918e805190611ede82611ab4565b86358252838701358483015280870135908201528486013585820152878601358882015260a08087013590820152815201920191611e0f565b85828a0312611a31578a5190611f2c82611aed565b8235906001600160a01b0382168203611a315790825282890135898301528b8301358c830152908152908501908701611db0565b90600182811c92168015611f90575b6020831014611f7a57565b634e487b7160e01b600052602260045260246000fd5b91607f1691611f6f565b60405190611fa782611aed565b60006040838281528260208201520152565b60405190611fc682611ab4565b8160a06000918281528260208201528260408201528260608201528260808201520152565b60405190611ff882611a98565b8160c06000918281528260208201528260408201528260608201528260808201528260a08201520152565b6000808052600560209081526120587f05b8ccbb9d4d8fb16ea74ce3c29a41f1b461fbdaff4714a0d9a8eb05499746bc614b14565b01518152600660205261206d60408220615062565b9060608201519161207e81516159a6565b928284820194851291129080158216911516176120d6576103088160206120a793015190614e44565b918183820393128184128116918413901516176120c2575090565b80634e487b7160e01b602492526011600452fd5b602482634e487b7160e01b81526011600452fd5b600080526005602090815261211e7f05b8ccbb9d4d8fb16ea74ce3c29a41f1b461fbdaff4714a0d9a8eb05499746bc614b14565b0151600052600660205261215c6121386040600020615062565b6020612153604083015161214d845185614de4565b90612699565b91015190615ab4565b90565b51906001600160a01b0382168203611a3157565b60001981146121825760010190565b634e487b7160e01b600052601160045260246000fd5b51908115158203611a3157565b7f0aec74a1754fb10877b53c31a29be82096082042eb1fb374ec96fac88c0e621b54604080517f06ae70950000000000000000000000000000000000000000000000000000000081526001600160a01b039493600493602093919084908490879082908b165afa928315612424578791859160009561248c575b5060248391855194859384927f032bb4430000000000000000000000000000000000000000000000000000000084521697888b840152165afa90811561242457600091612457575b501561242f5780517ffc0c546a00000000000000000000000000000000000000000000000000000000815283818681865afa908115612424576000916123ef575b50866001541696879116036123c75782600094959660448351809781937f095ea7b3000000000000000000000000000000000000000000000000000000008352878b840152811960248401525af180156123bc57612368575b7f07796b317344e6f18fa32ed89b6074ad66549cee7fb7b8c3e9f1c42c496f1c5c93506003549461233186612173565b6003558560005283526123618160002082519061234d82611aed565b848252600086830152600084830152615657565b51908152a2565b8284813d83116123b5575b61237d8183611bb5565b81010312611a31576123af7f07796b317344e6f18fa32ed89b6074ad66549cee7fb7b8c3e9f1c42c496f1c5c94612198565b50612301565b503d612373565b50513d6000823e3d90fd5b8390517faddc4c0d000000000000000000000000000000000000000000000000000000008152fd5b908482813d831161241d575b6124058183611bb5565b81010312610db257506124179061215f565b386122a8565b503d6123fb565b82513d6000823e3d90fd5b8390517f7c04a019000000000000000000000000000000000000000000000000000000008152fd5b908482813d8311612485575b61246d8183611bb5565b81010312610db2575061247f90612198565b38612267565b503d612463565b828193929694503d83116124c5575b6124a58183611bb5565b810103126101e95751908782168203610db257509186908490602461221f565b503d61249b565b60026124d88251615b0e565b1461252e5760208167ffffffffffffffff7f6aa12494b90f1eeec92df49ec47058878b0803a79ba307dead4905555159adc793511660008360405161251c81611a7c565b838152015260025560405190518152a1565b60046040517f0f9f8b19000000000000000000000000000000000000000000000000000000008152fd5b91909392610140830190606082510151156125dc5790610a236125a69260606125936125838861472f565b6000808213156125d55750615a78565b9351015192838110156125cd57906155bd565b931590816125c4575b506125b75750565b9161215c91925190615ab4565b905015386125af565b5082906155bd565b9050615a78565b5060009450505050565b6000905b6003548210156126955781600052600491826020526040926001600160a01b03612616856000206155d0565b511690813b15611a315760009160c483928751948593849263123dd9c560e31b84523090840152811960248401528160448401528160648401528160848401528160a48401525af1801561268a5761267593945061267b575b50612173565b906125ea565b61268490611a68565b3861266f565b84513d6000823e3d90fd5b9050565b9190820180921161218257565b905b6101408201918251805160208092015180911190816127d6575b50156127d057808451015190600182018092116127bb57600082815260068083526040926126f1848420615062565b94610120870195865261270481886147bb565b9188519260609182850180518a83820193841291129080158216911516176127a757916127a19c9d9e9161279293526080948587015260a08096015251936127888b51948b8651968a810151968a8c8b015289019061277b61276b835161214d8b85614e44565b938b019161214d8b845192614de4565b9052528601948551615ab4565b9401918251615ab4565b90525283525220905190615130565b906126a8565b60248a634e487b7160e01b81526011600452fd5b60246000634e487b7160e01b81526011600452fd5b50509050565b9050600181018091116127bb576127fb60406128069260009081526007855220615501565b60c0840151906153f9565b386126c2565b9190915b6101408101928351805160208092015180911190816129d6575b50156128db57808551015190600182018092116127bb5760008281526006808352604092612859848420615062565b94610120880195865261286c81896147bb565b9188519260609182850180518a83820193841291129080158216911516176127a757916128d49c9d9e9f9161279293526080948587015260a08096015251936127888b51948b8651968a810151968a8c8b015289019061277b61276b835161214d8b85614e44565b9190612810565b506001600160a01b039192935016156129d35761016081019081519060208251920151821191826129a7575b50506129105750565b8051519081600052600660205261292a6040600020615062565b905190612990612988608084019384519060a08101948551976020830152606082019061297e604061296f84518c83860151156000146129955761214d905b86614fe0565b94019161214d86845192614e79565b9052528451615ab4565b938251615ab4565b905252565b6129a261214d9187614f40565b612969565b6129cc9250600052600760205260c06129c36040600020615501565b910151906153f9565b3880612907565b50565b9050600181018091116127bb576129fb6040612a069260009081526007855220615501565b60c0850151906153f9565b3861282a565b8051821015612a205760209160051b010190565b634e487b7160e01b600052603260045260246000fd5b90610140612a438361472f565b9201612a5d61030882516080606082015191015190612699565b6000938181039185138015828413169183121617612ac857620f4240612abd612a99608093876129d39798508082136000146125d55750615a78565b612ab78551612ab160a0604083015192015182612699565b90615ae0565b906155bd565b049151015190612699565b602484634e487b7160e01b81526011600452fd5b9190612af0612aea8461472f565b916159a6565b9060008282039212818312811691831390151617612182576101408301612b2561030882516080606082015191015190612699565b90600082840392128383128116908484139015161761218257612b5d9160008113156135dd57620f4240612abd612a99608093615a78565b90612b6781615a01565b156127d05760608401519060008113156135d157612b8790939193615a78565b918351612b9381611bd7565b90612ba16040519283611bb5565b808252612bb0601f1991611bd7565b0160005b8181106135ae5750506000915b855183101561319d578596612bd884600498612a0c565b5194612be2614959565b986101c06001600160a01b038851166040519a8b809263ad4d4e2960e01b82525afa8015612ecc5760049960009161316c575b508a526102e06001600160a01b038851166040519a8b80927f4549a6290000000000000000000000000000000000000000000000000000000082525afa8015612ecc57600090612ff2575b6024995060208b015260a06001600160a01b038851166040519a8b8092635b4b969560e01b82523060048301525afa8015612ecc57600499600091612fc3575b5060408b01526101206001600160a01b038851166040519a8b809263502fcc8360e11b82525afa988915612ecc57600099612f90575b5060e089015160c08b015260246101606001600160a01b038951166040519283809263055f575160e41b82523060048301525afa8015612ecc57602091600091612f6f575b508060808d0152612d2c818061579b565b612d648c8360c08201519160405192612d4484611aed565b60008452828401526001604084015201516101c081519101519184615912565b60e08d015180821115612f6857505b60e08d0152015193602060808c015101516101008c0152602060408c0151015160018101811161218257600101945b60408c0151518611612ed857885160405163ce813aed60e01b815230600482015260248101889052919061016090839060449082906001600160a01b03165afa918215612ecc57610100612e848f9294612e8e95600091612e9b575b50806060850152612e1360808501518261579b565b612e4c60c085015160405190612e2882611aed565b6000825260208201526001604082015260208601516101c081519101519184615912565b60e085015180821115612e9457505b60e0850152612e7e60208486015192019586518181106000146107545790615ab4565b90615ab4565b9101525195612173565b94612da2565b9050612e5b565b612ebf91506101603d61016011612ec5575b612eb78183611bb5565b8101906137b1565b38612dfe565b503d612ead565b6040513d6000823e3d90fd5b5095929991989350956001600160a01b03610160919895985116935160246040518096819363a1d0a11360e01b835260048301525afa8015612ecc57612f3b93600091612f47575b5060a0820152612f308288612a0c565b5261266f8187612a0c565b91949294939093612bc1565b612f6291506101603d61016011612ec557612eb78183611bb5565b38612f20565b9050612d73565b612f8a91506101603d61016011612ec557612eb78183611bb5565b38612d1b565b612fb59199506101203d61012011612fbc575b612fad8183611bb5565b810190613729565b9738612cd6565b503d612fa3565b612fe5915060a03d60a011612feb575b612fdd8183611bb5565b810190613850565b38612ca0565b503d612fd3565b506102e03d6102e011613165575b61300a818b611bb5565b6102e08a8281010312611a31576040519061302482611b09565b8a51825260208b0151602083015260408b0151604083015260608b0151606083015260808b0151608083015260a08b015160a083015260c0808c01519083015260e0808c015190830152610100808c015190830152610120808c0151908301526101408b0151610140830152610160808c015190830152608061017f198c838101030112611a315760409081516130ba81611b26565b610180808e015182526101a08e015160208301526101c08e0151848301526101e08e015160608301528401528b018b90036101ff190112611a315760249961315c6102c06040519261310b84611a7c565b61020093848201518152610220908183015160208201526101a087015261024094858301516101c08801526102608301516101e0880152610280830151908701526102a08201519086015201612198565b90820152612c60565b503d613000565b61319091506101c03d6101c011613196575b6131888183611bb5565b81019061366c565b38612c15565b503d61317e565b909590946000948594919350845b84518710156131ed576131e06131d36131e69260206131ca8b8a612a0c565b51015190612699565b9660e06131ca8a8d612a0c565b96612173565b95946131ab565b9296919550929384519561320087611bd7565b9661320e6040519889611bb5565b80885261321d601f1991611bd7565b0160005b81811061358957505060005b86518110156134dd5789906132406148ed565b61324a8284612a0c565b5160e001518761325a878b615ab4565b613264858d612a0c565b5160200151613272916155bd565b9061327c916154e1565b61328591612699565b815286613292838b612a0c565b51602001516132a190886155bd565b906132ab916154e1565b81516132b6906155a5565b620f42409004808210156134d657505b602082015261331889620f424061331160406132f6876101c060206132eb838d612a0c565b510151015195612a0c565b510151602080613306898b612a0c565b5101510151906155bd565b0490615ae0565b6101a06133258486612a0c565b5151015115908115916134c0575b506134b4575b6133438284612a0c565b516133c8606082019161214d602084510151602060e081806133ad60a0880195613389875161337585820151916158d0565b8951860151808210156134a5575090615ab4565b8b51840151808210156134ad57505b6101008a0151808210156134a5575090615ab4565b98510151950151015191510151818110156107545790615ab4565b606083015260408201526040806133e9846133e385516159a6565b96612a0c565b51015101518381810312600082121684828103136000831215161761218257613488938260408f8d8f9661344a9260c06134398b87613430826020610a2398015198612a0c565b51015193612a0c565b5101516000811261349c57926155bd565b6060830151808210156134945750915b01518082111561348d57505b602061347d866134768188612a0c565b5196612a0c565b510152039052612173565b61322d565b9050613466565b90509161345a565b600003926155bd565b905090615ab4565b9050613398565b60006020820152613339565b6134cf91506020830151615b40565b1538613333565b90506132c6565b5096959750505050505060005b608082015151811015613541578061350f6135086135199387612a0c565b5151615a01565b1561351e57612173565b6134ea565b610c5661352f826060860151612a0c565b5161353a8388612a0c565b51906135f1565b5060005b6080820151518110156127d057806135636135086135799387612a0c565b6002811490811561357e575b5061351e57612173565b613545565b60019150143861356f565b60209060405161359881611a7c565b6000815282600081830152828c01015201613221565b6020906135bf979597969396614959565b82828901015201959395949194612bb4565b5091612b876000615a78565b506080620f4240612abd612a996000615a78565b6001600160a01b0390511660208201519151813b15611a31576040519263123dd9c560e31b845230600485015260248401528260c48160008095819582604485015282606485015260848401528160a48401525af190811561366057506136555750565b61365e90611a68565b565b604051903d90823e3d90fd5b90816101c0910312611a31576040519061368582611b42565b805182526020810151602083015260408101516040830152606081015160608301526080810151608083015260a081015160a083015260c081015160c083015260e081015160e08301526101008082015190830152610120808201519083015261014080820151908301526101606136fe818301612198565b90830152610180613710818301612198565b908301526137226101a0809201612198565b9082015290565b809103906101208212611a3157604080519261374484611b5f565b82518452602083015160208501528183015182850152606083015160608501526080830151608085015260a083015160a085015260bf190112611a31576101009060405161379181611a7c565b60c0820151815260e0820151602082015260c0840152015160e082015290565b809103906101608212611a31576060604051926137cd84611b7c565b82518452602083015160208501526040830151604085015281830151828501526080830151608085015260a083015160a085015260c083015160c085015260e083015160e085015260ff190112611a31576040519061382b82611aed565b6101406101009182810151845261012081015160208501520151604083015282015290565b908160a0910312611a315760806040519161386a83611b99565b805183526020810151602084015260408101516040840152606081015160608401520151608082015290565b604051906138a382611ad0565b600082526000602083015260006040830152606080830152606060808301526040516138ce81611a36565b6060815260a08301526040516138e381611a36565b6060815260c08301526040516138f881611a36565b6000815260e0830152613909611feb565b610100830152613917611feb565b610120830152613925611fb9565b610140830152613933611fb9565b61016083015281613942615750565b60e082015260a081015160035490613959826153c7565b905260c0820151613969826153c7565b905261397481611bd7565b6139816040519182611bb5565b818152601f1961399083611bd7565b0160005b818110613dbe57505060608301526139ab81611bd7565b6139b86040519182611bb5565b818152601f196139c783611bd7565b0160005b818110613da7575050608083015260005b818110613a3a5750506000805260056020908152613a197f05b8ccbb9d4d8fb16ea74ce3c29a41f1b461fbdaff4714a0d9a8eb05499746bc614b14565b8061014084015201516000526006602052610120611ec06040600020615062565b8060049160005281602052613a5260406000206155d0565b6101c06001600160a01b038251166040519485809263ad4d4e2960e01b82525afa928315612ecc57600493613ab391600091613d86575b50613aa484606089015185613a9e8383612a0c565b52612a0c565b50610140875191015190612699565b85526101206001600160a01b038251166040519485809263502fcc8360e11b82525afa928315612ecc57600093613d63575b506001600160a01b03815116610160845160246040518094819363a1d0a11360e01b835260048301525afa8015612ecc57602494613b6092600092613d3d575b5060e0015160008112613d35575b613b418560808a0151612a0c565b515260208101516020613b588660808b0151612a0c565b5101526158d0565b6040613b70846080890151612a0c565b510152613b8560208201516020870151612699565b602086015260a06001600160a01b0382511660405194858092635b4b969560e01b82523060048301525afa908115612ecc57602493600092613d14575b506101606001600160a01b038251166040519586809263055f575160e41b82523060048301525afa938415612ecc57600094613ce4575b5051815160405163ce813aed60e01b81523060048201526024810191909152906101609082906001600160a01b03168180604481015b03915afa8015612ecc57613cba94602092600092613cbf575b50829060408501516060613c608860808d0151612a0c565b51015201516080613c7486828b0151612a0c565b510152015160a0613c89846080890151612a0c565b51015260c0850151613ca18360208401519251612a0c565b52613cb48260a087015192519251612a0c565b52612173565b6139dc565b83919250613cdd906101603d61016011612ec557612eb78183611bb5565b9190613c48565b613c2f9194506001600160a01b03613d0b61016092833d8511612ec557612eb78183611bb5565b95925050613bf9565b613d2e91925060a03d60a011612feb57612fdd8183611bb5565b9038613bc2565b600003613b33565b60e0919250613d5c906101603d61016011612ec557612eb78183611bb5565b9190613b25565b613d7f9193506101203d61012011612fbc57612fad8183611bb5565b9138613ae5565b613da191506101c03d6101c011613196576131888183611bb5565b38613a89565b602090613db2611fb9565b828286010152016139cb565b602090613dc9611f9a565b82828601015201613994565b90604051613de281611ad0565b60008152600060208201526000604082015260608082015260606080820152604051613e0d81611a36565b6060815260a0820152604051613e2281611a36565b6060815260c0820152604051613e3781611a36565b6000815260e0820152613e48611feb565b610100820152613e56611feb565b610120820152613e64611fb9565b610140820152613e72611fb9565b6101608201528092613e82615750565b60e083015260a082015160035490613e99826153c7565b905260c0830151613ea9826153c7565b9052613eb481611bd7565b613ec16040519182611bb5565b818152601f19613ed083611bd7565b0160005b8181106142fb5750506060840152613eeb81611bd7565b613ef86040519182611bb5565b818152601f19613f0783611bd7565b0160005b8181106142e4575050608084015260005b818110613f8a5750506001600160a01b031680613f69575b506000805260056020908152613a197f05b8ccbb9d4d8fb16ea74ce3c29a41f1b461fbdaff4714a0d9a8eb05499746bc614b14565b6000526005602052613f7e6040600020614b14565b61016082015238613f34565b8060049160005281602052613fa260406000206155d0565b6101c06001600160a01b038251166040519485809263ad4d4e2960e01b82525afa928315612ecc57600493613ffd916000916142c3575b50613fee8460608a015185613a9e8383612a0c565b50610140885191015190612699565b86526101206001600160a01b038251166040519485809263502fcc8360e11b82525afa928315612ecc576000936142a0575b506001600160a01b03815116610160845160246040518094819363a1d0a11360e01b835260048301525afa8015612ecc576024946140a29260009261427a575b5060e0015160008112614272575b61408b8560808b0151612a0c565b515260208101516020613b588660808c0151612a0c565b60406140b28460808a0151612a0c565b5101526140c760208201516020880151612699565b602087015260a06001600160a01b0382511660405194858092635b4b969560e01b82523060048301525afa908115612ecc57602493600092614251575b506101606001600160a01b038251166040519586809263055f575160e41b82523060048301525afa938415612ecc57600094614221575b5051815160405163ce813aed60e01b81523060048201526024810191909152906101609082906001600160a01b03168180604481015b03915afa8015612ecc576141f7946020926000926141fc575b5082908960606141a388608060408a0151940151612a0c565b510152015160806141b786828c0151612a0c565b510152015160a06141cc8460808a0151612a0c565b51015260c08601516141e48360208401519251612a0c565b52613cb48260a088015192519251612a0c565b613f1c565b8391925061421a906101603d61016011612ec557612eb78183611bb5565b919061418a565b6141719194506001600160a01b0361424861016092833d8511612ec557612eb78183611bb5565b9592505061413b565b61426b91925060a03d60a011612feb57612fdd8183611bb5565b9038614104565b60000361407d565b60e0919250614299906101603d61016011612ec557612eb78183611bb5565b919061406f565b6142bc9193506101203d61012011612fbc57612fad8183611bb5565b913861402f565b6142de91506101c03d6101c011613196576131888183611bb5565b38613fd9565b6020906142ef611fb9565b82828601015201613f0b565b602090614306611f9a565b82828601015201613ed4565b60008052600560205261014081015161365e9190614350907f05b8ccbb9d4d8fb16ea74ce3c29a41f1b461fbdaff4714a0d9a8eb05499746bc614bba565b60408101516000526006602052610100604060002091015190615130565b6001600160a01b0361365e9216806143bb575b50600080526005602052610140810151614350907f05b8ccbb9d4d8fb16ea74ce3c29a41f1b461fbdaff4714a0d9a8eb05499746bc614bba565b60005260056020526143d7604060002061016083015190614bba565b38614381565b6143eb61012082015161502e565b6144315761215c9061214d614401612583612023565b60e0606061441a61014086019360808551015190612699565b925101519301515190818110156107545790615ab4565b50600090565b61444561012082015161502e565b614431576000199160005b608092838101518051831015614728578261446a91612a0c565b519461447a836060840151612a0c565b519460208601511590811561471b575b81156146fd575b506146ef5790602492916144b8602088015160408901518181106000146107545790615ab4565b9560006101606001600160a01b036144d4876060880151612a0c565b5151166040519788809263055f575160e41b82523060048301525afa9586156146e25781966146bf575b50506020850197885198614512878061579b565b519860c08501518660009151805182106146ad575b50506001810181116121825760010199905b60a086015187600091518051821061469b575b50508b11614615576145a66101608c6001600160a01b036145718b60608c0151612a0c565b515116604051808095819463ce813aed60e01b83523060048401602090939291936001600160a01b0360408201951681520152565b03915afa918215612ecc57612e7e60206145ed946145e5946000916145f4575b506145d18d8261579b565b019485518181106000146107545790615ab4565b91519a612173565b9990614539565b61460f91506101603d61016011612ec557612eb78183611bb5565b386145c6565b61467395989a506146839750614658915091610a2361466895979a620f4240614640610a23966155a5565b04808210156146935750915b516040860151926155bd565b91602080890151910151926155bd565b610120850151614ebc565b8082101561468c57505b92612173565b92909192614450565b905061467d565b90509161464c565b6146a59250612a0c565b51873861454c565b6146b79250612a0c565b518638614527565b6146db9196506101603d61016011612ec557612eb78183611bb5565b94386144fe565b50604051903d90823e3d90fd5b935091935061468390612173565b9050860151158061470f575b38614491565b5060a086015115614709565b604087015115915061448a565b5050509050565b90600161475664e8d4a510006147506001600160a01b038454163090615bad565b046159a6565b928160009182935b614769575b50505050565b90919294608082015180518710156147b45761478787606092612a0c565b51015190848282019283129112908015821691151617612ac8576147ab9095612173565b9291908161475e565b5094614763565b9190600080818293835260076020526040926147d8848220615501565b9681955b8851518710156148e2576001600160a01b036147fc886060850151612a0c565b5151169483888b51805182106148d0575b5050875163ce813aed60e01b8152306004808301919091526024820192909252610160978890829060449082905afa9788156148c65786986148a7575b505060c087015191858382019384129112908015821691151617614894575061488b9160a06148826131e0939760808a015190612699565b97015190612699565b959392936147dc565b846011602492634e487b7160e01b835252fd5b6148be929850803d10612ec557612eb78183611bb5565b95388061484a565b89513d88823e3d90fd5b6148da9250612a0c565b51883861480d565b955050509391509350565b604051906148fa82611b26565b60006060838281528260208201528260408201520152565b6040519061491f82611b7c565b8160008082528060208301528060408301528060608301528060808301528060a08301528060c083015260e0820152610100611ec0611f9a565b60409081519161496883611b7c565b80518361497482611b42565b60009283835283602084015283818401528360608401528360808401528360a08401528360c08401528360e08401526101009284848201526101209085828201526101408681830152866101608181850152816101809381858701526101a09582878201528952818851976149e889611b09565b8189528160208a0152818a8a01528160608a01528160808a01528160a08a01528160c08a01528160e08a0152818c8a0152880152860152840152614a2a6148ed565b90830152825190614a3a82611a7c565b868252866020830152820152846101c0820152846101e08201528461020082015284610220820152846102408201526020830152805190614a7a82611b99565b8482528460208301528481830152846060830152846080830152820152614a9f614912565b6060820152614aac614912565b6080820152614ab9614912565b60a08201528260c08201528260e08201520152565b949291908552614ae360608601918251615ab4565b91614af360408701918251615ab4565b90525261299060a0614b0a60808601948551612699565b9401918251612699565b614b1c611fb9565b5060c0604051614b2b81611a98565b8254600163ffffffff94858316958685528360201c169283602086015267ffffffffffffffff1916604085015201549167ffffffffffffffff9182841691826060820152838560401c16938460808301528560801c16948560a0830152861c958691015260405195614b9c87611ab4565b8652602086015260408501526060840152608083015260a082015290565b919063ffffffff9081815111614dd357602081019382855111614dd357604094858301916002614bea8451615b0e565b14614dc35760608401916002614c008451615b0e565b14614db35760808501936002614c168651615b0e565b14614da35760a08601956002614c2c8851615b0e565b14614d935792614d0294926000999a60c06001948b614d4b9b9a98511693519c8d9367ffffffffffffffff8080809551169a51169a51169b519d815195614c7287611a98565b8787521660208601528401528660608401528760808401528960a08401528b1691015267ffffffff0000000082549a8263ffffffff198d1617845560201b16808267ffffffffffffffff19809d1617178355178155019687541617865585906fffffffffffffffff0000000000000000196fffffffffffffffff000000000000000083549260401b169116179055565b83547fffffffffffffffff0000000000000000ffffffffffffffffffffffffffffffff1660809190911b77ffffffffffffffff0000000000000000000000000000000016178355565b77ffffffffffffffffffffffffffffffffffffffffffffffff7fffffffffffffffff00000000000000000000000000000000000000000000000083549260c01b169116179055565b60048a5163b8a0949960e01b8152fd5b6004895163b8a0949960e01b8152fd5b6004885163b8a0949960e01b8152fd5b6004875163b8a0949960e01b8152fd5b600460405163b8a0949960e01b8152fd5b604081015115614e4057614dfb6060820151615a01565b8015908115614e35575b5060009015614e1357505090565b5060a081015161215c92614e2f91818110156107545790615ab4565b90614f0a565b600191501438614e05565b5090565b60a061215c92604083015115600014614e6957915b0151818110156107545790615ab4565b614e739083614f40565b91614e59565b604081015115614e4057614e906060820151615a01565b8015908115614eb1575b5015614ea4575090565b614e2f61215c9282614fe0565b600191501438614e9a565b604081015115614e4057614ed36060820151615a01565b8015908115614eff575b5060009015614eeb57505090565b61215c92614e2f9181156107545790615ab4565b600191501438614edd565b614f3a61215c92610a23614f2e606085015160008082136000146125d55750615a78565b916040850151906155bd565b90614f6f565b614f3a61215c92610a23614f64606085015160008082136000146125d55750615a78565b6040850151926155bd565b614fa6614f8c606083015160008082136000146125d55750615a78565b61214d835191610a236020860151916040870151926155bd565b9060009082614fb55750505090565b6080015161215c93610a2392509083811015614fd657612ab7905b84615ab4565b50612ab783614fd0565b60c081015190600090826150065750505061215c9060005b818110156107545790615ab4565b60a0015190620f4240808402938404036120c2575061215c929161502991615ac1565b614ff8565b60408101511515908161503f575090565b61504d915060600151615a01565b801590811561505a575090565b600191501490565b61506a611feb565b506040805161507881611b5f565b82549267ffffffffffffffff90818516948584528281861c16948560208601526001848360801c1692838388015260c01d60070b938460608801520154958487169485608088015287831c16958660a082015260e07fffffffffffffffffffffffff000000000000000000000000000000000000000063ffffffff8a60801c16998a60c08501521691015281519761510f89611a98565b885260208801528601526060850152608084015260a083015260c082015290565b906002918261513f8351615b0e565b146153b6576020820192806151548551615b0e565b146153b6576040918284018261516a8251615b0e565b146153a657606085018361517e8251615a20565b146153965761518d8151615a42565b15615396576080860191846151a28451615b0e565b146153865760c087019563ffffffff97888851116153765760a08101966151c98851615b0e565b146153765767ffffffffffffffff808080809451169c51169451169451955116965116965197838251926151fc84611b5f565b8b84528460208501528301528460070b60608301528660808301528760a0830152881660c082015260e0016000905267ffffffffffffffff1997888554161784556152749084906fffffffffffffffff0000000000000000196fffffffffffffffff000000000000000083549260401b169116179055565b82547fffffffffffffffff0000000000000000ffffffffffffffffffffffffffffffff1660809190911b77ffffffffffffffff000000000000000000000000000000001617825581549060c01b7fffffffffffffffff000000000000000000000000000000000000000000000000169077ffffffffffffffffffffffffffffffffffffffffffffffff16178155600101938454161783556153429083906fffffffffffffffff0000000000000000196fffffffffffffffff000000000000000083549260401b169116179055565b81549060801b73ffffffff0000000000000000000000000000000016906fffffffffffffffffffffffffffffffff16179055565b60048251635d4288b560e11b8152fd5b60048651635d4288b560e11b8152fd5b60048551635d4288b560e11b8152fd5b60048451635d4288b560e11b8152fd5b6004604051635d4288b560e11b8152fd5b906153d182611bd7565b6153de6040519182611bb5565b82815280926153ef601f1991611bd7565b0190602036910137565b9060005b81515181101561546957600081845180518210615457575b505060009082845180518210615443575b50501161543b5761543690612173565b6153fd565b505050600090565b61544e929350612a0c565b51908238615426565b6154619250612a0c565b518138615415565b505050600190565b60005b8251805182109081156154d75782906000926154c5575b5050600090828451805182106154b1575b505011615469576154ac90612173565b615474565b6154bc929350612a0c565b5190823861549c565b6154cf9250612a0c565b51813861548b565b5050505050600090565b81156154eb570490565b634e487b7160e01b600052601260045260246000fd5b60406060815161551081611a36565b52600080805260209083825263ffffffff9182848320541691615532836153c7565b95815b84811061555257505050505050519061554d82611a36565b815290565b600780820484528285528784208183069182101561559157600382901c016001015461558c929160051b60e0161c8716613cb4828b612a0c565b615535565b602485634e487b7160e01b81526032600452fd5b9062124f809182810292818404149015171561218257565b8181029291811591840414171561218257565b6155d8611f9a565b50604051906155e682611b26565b546001600160a01b0381169182815263ffffffff9060607fffffffff00000000000000000000000000000000000000000000000000000000838560a01c16938460208501528560c01c1694856040850152169101526040519261564884611aed565b83526020830152604082015290565b90602081019063ffffffff91828151116157265760408201600261567b8251615b29565b14615726577fffffffff0000000000000000000000000000000000000000000000000000000093600060606001600160a01b037bffffffff0000000000000000000000000000000000000000000000009651169451935192604051906156e082611b26565b868252808616602083015284166040820152015260c01b9290921677ffffffff000000000000000000000000000000000000000060a09390931b92909216171790915550565b60046040517f92f03c86000000000000000000000000000000000000000000000000000000008152fd5b600060405161575e81611a36565b5260405161576b81611a7c565b60025490602067ffffffffffffffff83169283835267ffffffffffffffff19169101526040519061554d82611a36565b906101008091015190820151916157b0611f9a565b9180518451908181039060008093128183128116918313901516176120d65784526020820151916020860151928284820394128185128116918513901516176120d65760408091602087019485520151950151948186820396128187128116918713901516176120c25760408401948552602083019361583085516159a6565b9051908282820192831291129080158216911516176120d65761585290615a78565b94604084019261586284516159a6565b9051908382820192831291129080158216911516176158bc57615886606091615a78565b94019161589383516159a6565b9151918183820193841291129080158216911516176120c257506158b690615a78565b90525252565b602483634e487b7160e01b81526011600452fd5b6158ea60606158e260408401516159a6565b9201516159a6565b8082039160008092128184128116918413901516176120c25780821261590e575090565b0390565b909161591d82615977565b1561596e57602061593061595493615977565b93015160008082126159675750925b61594e620f42409485926155bd565b046155bd565b049080821115615962575090565b905090565b039261593f565b50505050600090565b60206040820151606083015180821160001461599e5750915b015180821115615962575090565b905091615990565b7f7fffffffffffffffffffffffffffffffffffffffffffffffffffffffffffffff81116159d05790565b602490604051907feecaa25d0000000000000000000000000000000000000000000000000000000082526004820152fd5b60008113615a1a57600013615a1557600190565b600090565b50600290565b677fffffffffffffff90818113615a3b5712615a1557600190565b5050600290565b677fffffffffffffff1990818113615a3b5712615a1557600190565b64e8d4a51000908181029181830414901517156121825790565b60008112615a835790565b602490604051907fb02ef0870000000000000000000000000000000000000000000000000000000082526004820152fd5b9190820391821161218257565b90620f4240918281029281840414901517156121825761215c916154e1565b9080615af85750615af257620f424090565b60001990565b61215c91615ac1565b60001911615a1557600190565b67ffffffffffffffff90818111615a3b5710615a1557600190565b63ffffffff90818111615a3b5710615a1557600190565b818111615a3b5710615a1557600190565b6040517fa9059cbb0000000000000000000000000000000000000000000000000000000060208201526001600160a01b03928316602482015260448082019490945292835261365e929190615ba7606484611bb5565b16615c2f565b6020906024604051809481937f70a082310000000000000000000000000000000000000000000000000000000083526001600160a01b038092166004840152165afa908115612ecc57600091615c01575090565b906020823d8211615c27575b81615c1a60209383611bb5565b81010312610db257505190565b3d9150615c0d565b6001600160a01b031690604051615c4581611a7c565b6020928382527f5361666545524332303a206c6f772d6c6576656c2063616c6c206661696c6564848301526000808486829651910182855af13d15615d70573d9167ffffffffffffffff8311615d5c5790615cc093929160405192615cb388601f19601f8401160185611bb5565b83523d868885013e615d7a565b90815180615cce5750505050565b82849181010312610db2575081615ce59101612198565b15615cf257808080614763565b6084906040519062461bcd60e51b82526004820152602a60248201527f5361666545524332303a204552433230206f7065726174696f6e20646964206e60448201527f6f742073756363656564000000000000000000000000000000000000000000006064820152fd5b602485634e487b7160e01b81526041600452fd5b90615cc092916060915b91929015615ddb5750815115615d8e575090565b3b15615d975790565b606460405162461bcd60e51b815260206004820152601d60248201527f416464726573733a2063616c6c20746f206e6f6e2d636f6e74726163740000006044820152fd5b825190915015615dee5750805190602001fd5b615e0a9060405191829162461bcd60e51b8352600483016119d2565b0390fdfea2646970667358221220a8ff549bb99367cc9efccf4fbc834e23c5e22d8207f0ec5567bc9348db50829464736f6c63430008130033"
}