{
  "address": "0x9406F878e46aF86B51EdaFBd9C2F24E851FF0291",
  "abi": [
    {
      "inputs": [],
      "name": "AccountStorageInvalidError",
      "type": "error"
    },
    {
      "inputs": [],
      "name": "AccountStorageInvalidError",
      "type": "error"
    },
    {
      "inputs": [],
      "name": "CheckpointStorageInvalidError",
      "type": "error"
    },
    {
      "inputs": [],
      "name": "CheckpointStorageInvalidError",
      "type": "error"
    },
    {
      "inputs": [
        {
          "internalType": "uint256",
          "name": "value",
          "type": "uint256"
        }
      ],
      "name": "Fixed6OverflowError",
      "type": "error"
    },
    {
      "inputs": [
        {
          "internalType": "address",
          "name": "sender",
          "type": "address"
        }
      ],
      "name": "InstanceNotOwnerError",
      "type": "error"
    },
    {
      "inputs": [],
      "name": "InstancePausedError",
      "type": "error"
    },
    {
      "inputs": [],
      "name": "MappingStorageInvalidError",
      "type": "error"
    },
    {
      "inputs": [],
      "name": "MappingStorageInvalidError",
      "type": "error"
    },
    {
      "inputs": [],
      "name": "RegistrationStorageInvalidError",
      "type": "error"
    },
    {
      "inputs": [],
      "name": "RegistrationStorageInvalidError",
      "type": "error"
    },
    {
      "inputs": [
        {
          "internalType": "int256",
          "name": "value",
          "type": "int256"
        }
      ],
      "name": "UFixed6UnderflowError",
      "type": "error"
    },
    {
      "inputs": [
        {
          "internalType": "uint256",
          "name": "version",
          "type": "uint256"
        }
      ],
      "name": "UInitializableAlreadyInitializedError",
      "type": "error"
    },
    {
      "inputs": [],
      "name": "UInitializableNotInitializingError",
      "type": "error"
    },
    {
      "inputs": [],
      "name": "UInitializableZeroVersionError",
      "type": "error"
    },
    {
      "inputs": [],
      "name": "VaultDepositLimitExceededError",
      "type": "error"
    },
    {
      "inputs": [],
      "name": "VaultExistingOrderError",
      "type": "error"
    },
    {
      "inputs": [],
      "name": "VaultIncorrectAssetError",
      "type": "error"
    },
    {
      "inputs": [],
      "name": "VaultInsufficientMinimumError",
      "type": "error"
    },
    {
      "inputs": [],
      "name": "VaultMarketDoesNotExistError",
      "type": "error"
    },
    {
      "inputs": [],
      "name": "VaultMarketExistsError",
      "type": "error"
    },
    {
      "inputs": [],
      "name": "VaultNotMarketError",
      "type": "error"
    },
    {
      "inputs": [],
      "name": "VaultNotOperatorError",
      "type": "error"
    },
    {
      "inputs": [],
      "name": "VaultNotSingleSidedError",
      "type": "error"
    },
    {
      "inputs": [],
      "name": "VaultParameterStorageInvalidError",
      "type": "error"
    },
    {
      "inputs": [],
      "name": "VaultParameterStorageInvalidError",
      "type": "error"
    },
    {
      "inputs": [],
      "name": "VaultRedemptionLimitExceededError",
      "type": "error"
    },
    {
      "anonymous": false,
      "inputs": [
        {
          "indexed": false,
          "internalType": "uint256",
          "name": "version",
          "type": "uint256"
        }
      ],
      "name": "Initialized",
      "type": "event"
    },
    {
      "anonymous": false,
      "inputs": [
        {
          "indexed": true,
          "internalType": "uint256",
          "name": "marketId",
          "type": "uint256"
        },
        {
          "indexed": false,
          "internalType": "contract IMarket",
          "name": "market",
          "type": "address"
        }
      ],
      "name": "MarketRegistered",
      "type": "event"
    },
    {
      "anonymous": false,
      "inputs": [
        {
          "indexed": true,
          "internalType": "uint256",
          "name": "marketId",
          "type": "uint256"
        },
        {
          "indexed": false,
          "internalType": "uint256",
          "name": "newWeight",
          "type": "uint256"
        },
        {
          "indexed": false,
          "internalType": "UFixed6",
          "name": "newLeverage",
          "type": "uint256"
        }
      ],
      "name": "MarketUpdated",
      "type": "event"
    },
    {
      "anonymous": false,
      "inputs": [
        {
          "components": [
            {
              "internalType": "UFixed6",
              "name": "cap",
              "type": "uint256"
            }
          ],
          "indexed": false,
          "internalType": "struct VaultParameter",
          "name": "newParameter",
          "type": "tuple"
        }
      ],
      "name": "ParameterUpdated",
      "type": "event"
    },
    {
      "anonymous": false,
      "inputs": [
        {
          "indexed": true,
          "internalType": "address",
          "name": "sender",
          "type": "address"
        },
        {
          "indexed": true,
          "internalType": "address",
          "name": "account",
          "type": "address"
        },
        {
          "indexed": false,
          "internalType": "uint256",
          "name": "version",
          "type": "uint256"
        },
        {
          "indexed": false,
          "internalType": "UFixed6",
          "name": "depositAssets",
          "type": "uint256"
        },
        {
          "indexed": false,
          "internalType": "UFixed6",
          "name": "redeemShares",
          "type": "uint256"
        },
        {
          "indexed": false,
          "internalType": "UFixed6",
          "name": "claimAssets",
          "type": "uint256"
        }
      ],
      "name": "Update",
      "type": "event"
    },
    {
      "inputs": [
        {
          "components": [
            {
              "internalType": "UFixed6",
              "name": "settlementFee",
              "type": "uint256"
            },
            {
              "internalType": "uint256",
              "name": "totalWeight",
              "type": "uint256"
            },
            {
              "internalType": "uint256",
              "name": "currentId",
              "type": "uint256"
            },
            {
              "components": [
                {
                  "internalType": "contract IMarket",
                  "name": "market",
                  "type": "address"
                },
                {
                  "internalType": "uint256",
                  "name": "weight",
                  "type": "uint256"
                },
                {
                  "internalType": "UFixed6",
                  "name": "leverage",
                  "type": "uint256"
                }
              ],
              "internalType": "struct Registration[]",
              "name": "registrations",
              "type": "tuple[]"
            },
            {
              "components": [
                {
                  "internalType": "UFixed6",
                  "name": "latestPrice",
                  "type": "uint256"
                },
                {
                  "internalType": "UFixed6",
                  "name": "currentPosition",
                  "type": "uint256"
                },
                {
                  "internalType": "UFixed6",
                  "name": "currentNet",
                  "type": "uint256"
                },
                {
                  "internalType": "Fixed6",
                  "name": "collateral",
                  "type": "int256"
                }
              ],
              "internalType": "struct IVault.MarketContext[]",
              "name": "markets",
              "type": "tuple[]"
            },
            {
              "components": [
                {
                  "internalType": "uint256[]",
                  "name": "_ids",
                  "type": "uint256[]"
                }
              ],
              "internalType": "struct Mapping",
              "name": "currentIds",
              "type": "tuple"
            },
            {
              "components": [
                {
                  "internalType": "uint256[]",
                  "name": "_ids",
                  "type": "uint256[]"
                }
              ],
              "internalType": "struct Mapping",
              "name": "latestIds",
              "type": "tuple"
            },
            {
              "components": [
                {
                  "internalType": "UFixed6",
                  "name": "cap",
                  "type": "uint256"
                }
              ],
              "internalType": "struct VaultParameter",
              "name": "parameter",
              "type": "tuple"
            },
            {
              "components": [
                {
                  "internalType": "UFixed6",
                  "name": "deposit",
                  "type": "uint256"
                },
                {
                  "internalType": "UFixed6",
                  "name": "redemption",
                  "type": "uint256"
                },
                {
                  "internalType": "UFixed6",
                  "name": "shares",
                  "type": "uint256"
                },
                {
                  "internalType": "Fixed6",
                  "name": "assets",
                  "type": "int256"
                },
                {
                  "internalType": "UFixed6",
                  "name": "fee",
                  "type": "uint256"
                },
                {
                  "internalType": "UFixed6",
                  "name": "keeper",
                  "type": "uint256"
                },
                {
                  "internalType": "uint256",
                  "name": "count",
                  "type": "uint256"
                }
              ],
              "internalType": "struct Checkpoint",
              "name": "currentCheckpoint",
              "type": "tuple"
            },
            {
              "components": [
                {
                  "internalType": "UFixed6",
                  "name": "deposit",
                  "type": "uint256"
                },
                {
                  "internalType": "UFixed6",
                  "name": "redemption",
                  "type": "uint256"
                },
                {
                  "internalType": "UFixed6",
                  "name": "shares",
                  "type": "uint256"
                },
                {
                  "internalType": "Fixed6",
                  "name": "assets",
                  "type": "int256"
                },
                {
                  "internalType": "UFixed6",
                  "name": "fee",
                  "type": "uint256"
                },
                {
                  "internalType": "UFixed6",
                  "name": "keeper",
                  "type": "uint256"
                },
                {
                  "internalType": "uint256",
                  "name": "count",
                  "type": "uint256"
                }
              ],
              "internalType": "struct Checkpoint",
              "name": "latestCheckpoint",
              "type": "tuple"
            },
            {
              "components": [
                {
                  "internalType": "uint256",
                  "name": "current",
                  "type": "uint256"
                },
                {
                  "internalType": "uint256",
                  "name": "latest",
                  "type": "uint256"
                },
                {
                  "internalType": "UFixed6",
                  "name": "shares",
                  "type": "uint256"
                },
                {
                  "internalType": "UFixed6",
                  "name": "assets",
                  "type": "uint256"
                },
                {
                  "internalType": "UFixed6",
                  "name": "deposit",
                  "type": "uint256"
                },
                {
                  "internalType": "UFixed6",
                  "name": "redemption",
                  "type": "uint256"
                }
              ],
              "internalType": "struct Account",
              "name": "global",
              "type": "tuple"
            },
            {
              "components": [
                {
                  "internalType": "uint256",
                  "name": "current",
                  "type": "uint256"
                },
                {
                  "internalType": "uint256",
                  "name": "latest",
                  "type": "uint256"
                },
                {
                  "internalType": "UFixed6",
                  "name": "shares",
                  "type": "uint256"
                },
                {
                  "internalType": "UFixed6",
                  "name": "assets",
                  "type": "uint256"
                },
                {
                  "internalType": "UFixed6",
                  "name": "deposit",
                  "type": "uint256"
                },
                {
                  "internalType": "UFixed6",
                  "name": "redemption",
                  "type": "uint256"
                }
              ],
              "internalType": "struct Account",
              "name": "local",
              "type": "tuple"
            }
          ],
          "internalType": "struct IVault.Context",
          "name": "context",
          "type": "tuple"
        }
      ],
      "name": "_collateral",
      "outputs": [
        {
          "internalType": "Fixed6",
          "name": "value",
          "type": "int256"
        }
      ],
      "stateMutability": "view",
      "type": "function"
    },
    {
      "inputs": [
        {
          "components": [
            {
              "internalType": "UFixed6",
              "name": "settlementFee",
              "type": "uint256"
            },
            {
              "internalType": "uint256",
              "name": "totalWeight",
              "type": "uint256"
            },
            {
              "internalType": "uint256",
              "name": "currentId",
              "type": "uint256"
            },
            {
              "components": [
                {
                  "internalType": "contract IMarket",
                  "name": "market",
                  "type": "address"
                },
                {
                  "internalType": "uint256",
                  "name": "weight",
                  "type": "uint256"
                },
                {
                  "internalType": "UFixed6",
                  "name": "leverage",
                  "type": "uint256"
                }
              ],
              "internalType": "struct Registration[]",
              "name": "registrations",
              "type": "tuple[]"
            },
            {
              "components": [
                {
                  "internalType": "UFixed6",
                  "name": "latestPrice",
                  "type": "uint256"
                },
                {
                  "internalType": "UFixed6",
                  "name": "currentPosition",
                  "type": "uint256"
                },
                {
                  "internalType": "UFixed6",
                  "name": "currentNet",
                  "type": "uint256"
                },
                {
                  "internalType": "Fixed6",
                  "name": "collateral",
                  "type": "int256"
                }
              ],
              "internalType": "struct IVault.MarketContext[]",
              "name": "markets",
              "type": "tuple[]"
            },
            {
              "components": [
                {
                  "internalType": "uint256[]",
                  "name": "_ids",
                  "type": "uint256[]"
                }
              ],
              "internalType": "struct Mapping",
              "name": "currentIds",
              "type": "tuple"
            },
            {
              "components": [
                {
                  "internalType": "uint256[]",
                  "name": "_ids",
                  "type": "uint256[]"
                }
              ],
              "internalType": "struct Mapping",
              "name": "latestIds",
              "type": "tuple"
            },
            {
              "components": [
                {
                  "internalType": "UFixed6",
                  "name": "cap",
                  "type": "uint256"
                }
              ],
              "internalType": "struct VaultParameter",
              "name": "parameter",
              "type": "tuple"
            },
            {
              "components": [
                {
                  "internalType": "UFixed6",
                  "name": "deposit",
                  "type": "uint256"
                },
                {
                  "internalType": "UFixed6",
                  "name": "redemption",
                  "type": "uint256"
                },
                {
                  "internalType": "UFixed6",
                  "name": "shares",
                  "type": "uint256"
                },
                {
                  "internalType": "Fixed6",
                  "name": "assets",
                  "type": "int256"
                },
                {
                  "internalType": "UFixed6",
                  "name": "fee",
                  "type": "uint256"
                },
                {
                  "internalType": "UFixed6",
                  "name": "keeper",
                  "type": "uint256"
                },
                {
                  "internalType": "uint256",
                  "name": "count",
                  "type": "uint256"
                }
              ],
              "internalType": "struct Checkpoint",
              "name": "currentCheckpoint",
              "type": "tuple"
            },
            {
              "components": [
                {
                  "internalType": "UFixed6",
                  "name": "deposit",
                  "type": "uint256"
                },
                {
                  "internalType": "UFixed6",
                  "name": "redemption",
                  "type": "uint256"
                },
                {
                  "internalType": "UFixed6",
                  "name": "shares",
                  "type": "uint256"
                },
                {
                  "internalType": "Fixed6",
                  "name": "assets",
                  "type": "int256"
                },
                {
                  "internalType": "UFixed6",
                  "name": "fee",
                  "type": "uint256"
                },
                {
                  "internalType": "UFixed6",
                  "name": "keeper",
                  "type": "uint256"
                },
                {
                  "internalType": "uint256",
                  "name": "count",
                  "type": "uint256"
                }
              ],
              "internalType": "struct Checkpoint",
              "name": "latestCheckpoint",
              "type": "tuple"
            },
            {
              "components": [
                {
                  "internalType": "uint256",
                  "name": "current",
                  "type": "uint256"
                },
                {
                  "internalType": "uint256",
                  "name": "latest",
                  "type": "uint256"
                },
                {
                  "internalType": "UFixed6",
                  "name": "shares",
                  "type": "uint256"
                },
                {
                  "internalType": "UFixed6",
                  "name": "assets",
                  "type": "uint256"
                },
                {
                  "internalType": "UFixed6",
                  "name": "deposit",
                  "type": "uint256"
                },
                {
                  "internalType": "UFixed6",
                  "name": "redemption",
                  "type": "uint256"
                }
              ],
              "internalType": "struct Account",
              "name": "global",
              "type": "tuple"
            },
            {
              "components": [
                {
                  "internalType": "uint256",
                  "name": "current",
                  "type": "uint256"
                },
                {
                  "internalType": "uint256",
                  "name": "latest",
                  "type": "uint256"
                },
                {
                  "internalType": "UFixed6",
                  "name": "shares",
                  "type": "uint256"
                },
                {
                  "internalType": "UFixed6",
                  "name": "assets",
                  "type": "uint256"
                },
                {
                  "internalType": "UFixed6",
                  "name": "deposit",
                  "type": "uint256"
                },
                {
                  "internalType": "UFixed6",
                  "name": "redemption",
                  "type": "uint256"
                }
              ],
              "internalType": "struct Account",
              "name": "local",
              "type": "tuple"
            }
          ],
          "internalType": "struct IVault.Context",
          "name": "context",
          "type": "tuple"
        },
        {
          "internalType": "uint256",
          "name": "id",
          "type": "uint256"
        }
      ],
      "name": "_collateralAtId",
      "outputs": [
        {
          "internalType": "Fixed6",
          "name": "value",
          "type": "int256"
        },
        {
          "internalType": "UFixed6",
          "name": "fee",
          "type": "uint256"
        },
        {
          "internalType": "UFixed6",
          "name": "keeper",
          "type": "uint256"
        }
      ],
      "stateMutability": "view",
      "type": "function"
    },
    {
      "inputs": [
        {
          "internalType": "address",
          "name": "account",
          "type": "address"
        }
      ],
      "name": "accounts",
      "outputs": [
        {
          "components": [
            {
              "internalType": "uint256",
              "name": "current",
              "type": "uint256"
            },
            {
              "internalType": "uint256",
              "name": "latest",
              "type": "uint256"
            },
            {
              "internalType": "UFixed6",
              "name": "shares",
              "type": "uint256"
            },
            {
              "internalType": "UFixed6",
              "name": "assets",
              "type": "uint256"
            },
            {
              "internalType": "UFixed6",
              "name": "deposit",
              "type": "uint256"
            },
            {
              "internalType": "UFixed6",
              "name": "redemption",
              "type": "uint256"
            }
          ],
          "internalType": "struct Account",
          "name": "",
          "type": "tuple"
        }
      ],
      "stateMutability": "view",
      "type": "function"
    },
    {
      "inputs": [],
      "name": "asset",
      "outputs": [
        {
          "internalType": "Token18",
          "name": "",
          "type": "address"
        }
      ],
      "stateMutability": "view",
      "type": "function"
    },
    {
      "inputs": [
        {
          "internalType": "uint256",
          "name": "id",
          "type": "uint256"
        }
      ],
      "name": "checkpoints",
      "outputs": [
        {
          "components": [
            {
              "internalType": "UFixed6",
              "name": "deposit",
              "type": "uint256"
            },
            {
              "internalType": "UFixed6",
              "name": "redemption",
              "type": "uint256"
            },
            {
              "internalType": "UFixed6",
              "name": "shares",
              "type": "uint256"
            },
            {
              "internalType": "Fixed6",
              "name": "assets",
              "type": "int256"
            },
            {
              "internalType": "UFixed6",
              "name": "fee",
              "type": "uint256"
            },
            {
              "internalType": "UFixed6",
              "name": "keeper",
              "type": "uint256"
            },
            {
              "internalType": "uint256",
              "name": "count",
              "type": "uint256"
            }
          ],
          "internalType": "struct Checkpoint",
          "name": "",
          "type": "tuple"
        }
      ],
      "stateMutability": "view",
      "type": "function"
    },
    {
      "inputs": [],
      "name": "claimReward",
      "outputs": [],
      "stateMutability": "nonpayable",
      "type": "function"
    },
    {
      "inputs": [
        {
          "internalType": "UFixed6",
          "name": "shares",
          "type": "uint256"
        }
      ],
      "name": "convertToAssets",
      "outputs": [
        {
          "internalType": "UFixed6",
          "name": "",
          "type": "uint256"
        }
      ],
      "stateMutability": "view",
      "type": "function"
    },
    {
      "inputs": [
        {
          "internalType": "UFixed6",
          "name": "assets",
          "type": "uint256"
        }
      ],
      "name": "convertToShares",
      "outputs": [
        {
          "internalType": "UFixed6",
          "name": "",
          "type": "uint256"
        }
      ],
      "stateMutability": "view",
      "type": "function"
    },
    {
      "inputs": [],
      "name": "factory",
      "outputs": [
        {
          "internalType": "contract IFactory",
          "name": "",
          "type": "address"
        }
      ],
      "stateMutability": "view",
      "type": "function"
    },
    {
      "inputs": [
        {
          "internalType": "Token18",
          "name": "asset_",
          "type": "address"
        },
        {
          "internalType": "contract IMarket",
          "name": "initialMarket",
          "type": "address"
        },
        {
          "internalType": "string",
          "name": "name_",
          "type": "string"
        }
      ],
      "name": "initialize",
      "outputs": [],
      "stateMutability": "nonpayable",
      "type": "function"
    },
    {
      "inputs": [
        {
          "internalType": "uint256",
          "name": "id",
          "type": "uint256"
        }
      ],
      "name": "mappings",
      "outputs": [
        {
          "components": [
            {
              "internalType": "uint256[]",
              "name": "_ids",
              "type": "uint256[]"
            }
          ],
          "internalType": "struct Mapping",
          "name": "",
          "type": "tuple"
        }
      ],
      "stateMutability": "view",
      "type": "function"
    },
    {
      "inputs": [],
      "name": "name",
      "outputs": [
        {
          "internalType": "string",
          "name": "",
          "type": "string"
        }
      ],
      "stateMutability": "view",
      "type": "function"
    },
    {
      "inputs": [],
      "name": "parameter",
      "outputs": [
        {
          "components": [
            {
              "internalType": "UFixed6",
              "name": "cap",
              "type": "uint256"
            }
          ],
          "internalType": "struct VaultParameter",
          "name": "",
          "type": "tuple"
        }
      ],
      "stateMutability": "view",
      "type": "function"
    },
    {
      "inputs": [
        {
          "internalType": "contract IMarket",
          "name": "market",
          "type": "address"
        }
      ],
      "name": "register",
      "outputs": [],
      "stateMutability": "nonpayable",
      "type": "function"
    },
    {
      "inputs": [
        {
          "internalType": "uint256",
          "name": "marketId",
          "type": "uint256"
        }
      ],
      "name": "registrations",
      "outputs": [
        {
          "components": [
            {
              "internalType": "contract IMarket",
              "name": "market",
              "type": "address"
            },
            {
              "internalType": "uint256",
              "name": "weight",
              "type": "uint256"
            },
            {
              "internalType": "UFixed6",
              "name": "leverage",
              "type": "uint256"
            }
          ],
          "internalType": "struct Registration",
          "name": "",
          "type": "tuple"
        }
      ],
      "stateMutability": "view",
      "type": "function"
    },
    {
      "inputs": [
        {
          "internalType": "address",
          "name": "account",
          "type": "address"
        }
      ],
      "name": "settle",
      "outputs": [],
      "stateMutability": "nonpayable",
      "type": "function"
    },
    {
      "inputs": [],
      "name": "totalAssets",
      "outputs": [
        {
          "internalType": "Fixed6",
          "name": "",
          "type": "int256"
        }
      ],
      "stateMutability": "view",
      "type": "function"
    },
    {
      "inputs": [],
      "name": "totalMarkets",
      "outputs": [
        {
          "internalType": "uint256",
          "name": "",
          "type": "uint256"
        }
      ],
      "stateMutability": "view",
      "type": "function"
    },
    {
      "inputs": [],
      "name": "totalShares",
      "outputs": [
        {
          "internalType": "UFixed6",
          "name": "",
          "type": "uint256"
        }
      ],
      "stateMutability": "view",
      "type": "function"
    },
    {
      "inputs": [
        {
          "internalType": "address",
          "name": "account",
          "type": "address"
        },
        {
          "internalType": "UFixed6",
          "name": "depositAssets",
          "type": "uint256"
        },
        {
          "internalType": "UFixed6",
          "name": "redeemShares",
          "type": "uint256"
        },
        {
          "internalType": "UFixed6",
          "name": "claimAssets",
          "type": "uint256"
        }
      ],
      "name": "update",
      "outputs": [],
      "stateMutability": "nonpayable",
      "type": "function"
    },
    {
      "inputs": [
        {
          "internalType": "uint256",
          "name": "marketId",
          "type": "uint256"
        },
        {
          "internalType": "uint256",
          "name": "newWeight",
          "type": "uint256"
        },
        {
          "internalType": "UFixed6",
          "name": "newLeverage",
          "type": "uint256"
        }
      ],
      "name": "updateMarket",
      "outputs": [],
      "stateMutability": "nonpayable",
      "type": "function"
    },
    {
      "inputs": [
        {
          "components": [
            {
              "internalType": "UFixed6",
              "name": "cap",
              "type": "uint256"
            }
          ],
          "internalType": "struct VaultParameter",
          "name": "newParameter",
          "type": "tuple"
        }
      ],
      "name": "updateParameter",
      "outputs": [],
      "stateMutability": "nonpayable",
      "type": "function"
    }
  ],
  "transactionHash": "0x86315aaa5c34cb0449c8aa418d2782a1b7c8e7ad3ba7a2b357fe1e790b0d75af",
  "args": [],
  "numDeployments": 2,
  "solcInputHash": "b8c7cafb0613e796681a6c72228229aa",
  "bytecode": "0x6080806040523461001757615fd590816200001d8239f35b600080fdfe604060c081526004908136101561001557600080fd5b600091823560e01c806301e1d11414611cf857806306fdde0314611bcb57806307a2d13a14611b7857806338d52e0f14611b435780633a98ef3914611b265780634420e486146118f15780634571e3a6146115cf5780635e5c06e2146115495780636a256b29146114295780637cff3309146113e55780637edb68d6146113905780638162486b14611371578063a145198c1461111f578063a524574914610eb1578063ad4d4e2914610e80578063b88a802f14610bd3578063b8a2425214610b60578063c45a015514610b0c578063c6e6f59214610a9f578063d2c3aaf2146101fa578063ecf053d9146101775763f4ddb5be1461011357600080fd5b34610173576020600319360112610173578160609361014292610134612317565b5080358252602052206157c0565b908080519273ffffffffffffffffffffffffffffffffffffffff815116845260208101516020850152015190820152f35b8280fd5b508290346101f657602090816003193601126101735760608493945161019c81611dd0565b52358352600781526101af8284206156f0565b92825193849383855284019051928080860152835180925280606086019401925b8281106101df57505050500390f35b8351855286955093810193928101926001016101d0565b5080fd5b509190346101f65760806003193601126101f657610216611d5d565b9173ffffffffffffffffffffffffffffffffffffffff7f0aec74a1754fb10877b53c31a29be82096082042eb1fb374ec96fac88c0e621b8181541690845180927f5c975abb000000000000000000000000000000000000000000000000000000008252818960209586935afa908115610a95578591610a5c575b50610a345761029d61293d565b6102a6866140c1565b946102b086612a24565b610140860196875151908288019180835287526007958686526102d48489206156f0565b916102e560a08b0193845190615647565b15610a0b576102f4845161252f565b84526101008a01518b519061030e84600154163090615cbd565b9161033f61033a61032964e8d4a510008b8501519604615a92565b926060608082015191015190612a17565b615a92565b80820391908d1380158284131691831216176109b757908791606082015201528351895287875284892092519989805283885263ffffffff9687878c2054166109e3578b5151806109915750601f196103b68c5b6103ac61039f82611f23565b8b5160a05260a051611f00565b8060a05152611f23565b01898c5b82811061095f575050508a5b8c51805182101561048e576103dc828b92612c9f565b5111610466578a8a6104168f61040b85828f8094515116968204966104038860a051612c9f565b515251612c9f565b51169260a051612c9f565b5101518c83068d8110156104375760051b01526104329061252f565b6103c6565b50508f8d60326024927f4e487b7100000000000000000000000000000000000000000000000000000000835252fd5b8e88517ff003e2c3000000000000000000000000000000000000000000000000000000008152fd5b50509295969798999c9b919490939a508c5b60a0515181101561053c578d8c8b8b8e6104bc8660a051612c9f565b51938686528352828d862094838151167fffffffffffffffffffffffffffffffffffffffffffffffffffffffff0000000087541617865501519285925b8284106105195750505050509060016105149392015561252f565b6104a0565b84968160019495965116918660051b92831b921b19161795019201908e8e6104f9565b50949b9a929850949298509594505b6044359260643594600161055e87615c1f565b1461094e575b600161056f86615c1f565b1461093e575b8b8a1697878d8a33141592836108a7575b50505061087f576024359260016105c58d6105aa8a6105a58b8a612a17565b612a17565b90898811156108785787905b508a8111156108705790615c43565b036108495760026105de6105d88c614637565b86615c43565b146108225760026105f76105f18c614691565b88615c43565b146107fb57831515806107e9575b610778578515158061079f575b610778576101608a019081518981519101510361075157509061070961074e9c9d6106678887818f6107119861065e8f928585858f61065482848681986128af565b9e51905190614b1e565b518a5190614b1e565b60c06101008d015161067a888251612a17565b8c82016106888c8251612a17565b9052815201610697815161252f565b90526106f58a82600154166106ab89615b61565b7f23b872dd000000000000000000000000000000000000000000000000000000008b51938401523360248401523060448401526064830152606482526106f082611ee4565b615d4c565b6106ff838d612da4565b6001541691615b61565b903390615c54565b5194825195865285015283015260608201527ff3821e0673b3463cc26dcd09cb36e2bb16bf9d67945eae4354cda4b921373e9360803392a36145e2565b80f35b85517fe4b29524000000000000000000000000000000000000000000000000000000008152fd5b84517ff2fbeec4000000000000000000000000000000000000000000000000000000008152fd5b506107cd8c6101208c01518c51908989820151156000146107da579050915b50818110156107d35790615bb7565b15610612565b5080615bb7565b6107e391615065565b916107be565b506107f58a5185615c43565b15610605565b84517fc85650f7000000000000000000000000000000000000000000000000000000008152fd5b84517fa9785d3d000000000000000000000000000000000000000000000000000000008152fd5b84517fa65ac9fb000000000000000000000000000000000000000000000000000000008152fd5b508990615c43565b89906105b6565b8284517f7eb267c7000000000000000000000000000000000000000000000000000000008152fd5b6044935054168651928380927f2637588e0000000000000000000000000000000000000000000000000000000082528d898301523360248301525afa908115610934578c916108fb575b5015878d38610586565b90508781813d831161092d575b6109128183611f00565b81010312610929576109239061256d565b386108f1565b8b80fd5b503d610908565b85513d8e823e3d90fd5b6101608901518401519450610575565b610160890151606001519550610564565b89518e61096b82611d85565b81528a5161097881611e00565b60e036823783820152828260a051010152018a906103ba565b60001981019081116109b7578a9004600181018091116109b7576103b6601f1991610393565b7f4e487b71000000000000000000000000000000000000000000000000000000008c5260118f5260248cfd5b8d87517ff003e2c3000000000000000000000000000000000000000000000000000000008152fd5b98979994965099905081929151895260068552610a29828a20615187565b61010088015261054b565b8685517f4b94d2bb000000000000000000000000000000000000000000000000000000008152fd5b90508281813d8311610a8e575b610a738183611f00565b81010312610a8a57610a849061256d565b38610290565b8480fd5b503d610a69565b86513d87823e3d90fd5b503461017357602060031936011261017357916020923590610abf6123a0565b81811315610b0257610ad090615b7b565b90610ad9612499565b905080610aea575050905b51908152f35b610af790610afc936157ad565b6156b7565b90610ae4565b50610ad081615b7b565b5050346101f657816003193601126101f65760209073ffffffffffffffffffffffffffffffffffffffff7f0aec74a1754fb10877b53c31a29be82096082042eb1fb374ec96fac88c0e621b54169051908152f35b503461017357602060031936011261017357610b938260e09460c093610b84612368565b50358152600660205220615187565b82519281518452602082015160208501528082015190840152606081015160608401526080810151608084015260a081015160a0840152015160c0820152f35b50903461017357826003193601126101735773ffffffffffffffffffffffffffffffffffffffff907f0aec74a1754fb10877b53c31a29be82096082042eb1fb374ec96fac88c0e621b9180835416825191827f8da5cb5b0000000000000000000000000000000000000000000000000000000092838252818860209687935afa908115610e76579082918991610e3a575b50163303610e0b5790869291835b600354811015610e075780855287845281610c8e8787206157c0565b5116803b15610de3578580918a8951809481937fb88a802f0000000000000000000000000000000000000000000000000000000083525af18015610dee5790899291610df8575b508086528185528483610ce98989206157c0565b51168851938480927f228cb7330000000000000000000000000000000000000000000000000000000082525afa918215610dee578692610db3575b508885848a54168951928380928982525afa908115610da9578791610d67575b50610d6292610d5d91610d573083615cbd565b91615c54565b61252f565b610c72565b90508581813d8311610da2575b610d7e8183611f00565b81010312610d9e57610d6292610d96610d5d9261250e565b915092610d44565b8680fd5b503d610d74565b88513d89823e3d90fd5b9091508481813d8311610de7575b610dcb8183611f00565b81010312610de357610ddc9061250e565b9038610d24565b8580fd5b503d610dc1565b87513d88823e3d90fd5b610e0190611dec565b38610cd5565b8480f35b83517f4d193d1f0000000000000000000000000000000000000000000000000000000081523381880152602490fd5b809250858092503d8311610e6f575b610e538183611f00565b81010312610e6b57610e65829161250e565b38610c64565b8780fd5b503d610e49565b85513d8a823e3d90fd5b5050346101f657816003193601126101f6576020918151610ea081611dd0565b52610ea961595a565b905190518152f35b509190346101f65760606003193601126101f65782359060243560443573ffffffffffffffffffffffffffffffffffffffff807f0aec74a1754fb10877b53c31a29be82096082042eb1fb374ec96fac88c0e621b54168451917f8da5cb5b00000000000000000000000000000000000000000000000000000000835260209283818b81865afa9081156111155789916110dc575b501633036110ad578188918651928380927f5c975abb0000000000000000000000000000000000000000000000000000000082525afa9081156110a357879161106e575b5061104657610f9661293d565b610fb8610fa1613bb3565b610faa81612a24565b610fb381612ce2565b61458e565b60035485101561101e576110128697867f19de27a5967d3c5ffdfa85f8f33ed63fcae289e86abc970d013e0ae2bc8bb27f979852808352610ffa868a206157c0565b9085848301528487830152888a528352858920615854565b8351928352820152a280f35b8684517f04467fe8000000000000000000000000000000000000000000000000000000008152fd5b8684517f4b94d2bb000000000000000000000000000000000000000000000000000000008152fd5b90508181813d831161109c575b6110858183611f00565b81010312610d9e576110969061256d565b38610f89565b503d61107b565b85513d89823e3d90fd5b84517f4d193d1f00000000000000000000000000000000000000000000000000000000815233818a0152602490fd5b90508381813d831161110e575b6110f38183611f00565b8101031261110a576111049061250e565b38610f45565b8880fd5b503d6110e9565b87513d8b823e3d90fd5b509190346101f657602090816003193601126101735780519061114182611dd0565b8435825273ffffffffffffffffffffffffffffffffffffffff807f0aec74a1754fb10877b53c31a29be82096082042eb1fb374ec96fac88c0e621b54169082517f8da5cb5b00000000000000000000000000000000000000000000000000000000815285818981865afa908115611367578791611332575b50163303611303578386918351928380927f5c975abb0000000000000000000000000000000000000000000000000000000082525afa9081156112f95785916112c4575b5061129c5761120a61293d565b611215610fa1613bb3565b60026112218351615c04565b14611274577f6aa12494b90f1eeec92df49ec47058878b0803a79ba307dead4905555159adc793945067ffffffffffffffff8251168584835161126381611d85565b83815201526002555190518152a180f35b8490517f0f9f8b19000000000000000000000000000000000000000000000000000000008152fd5b8490517f4b94d2bb000000000000000000000000000000000000000000000000000000008152fd5b90508381813d83116112f2575b6112db8183611f00565b81010312610a8a576112ec9061256d565b386111fd565b503d6112d1565b82513d87823e3d90fd5b81517f4d193d1f0000000000000000000000000000000000000000000000000000000081523381880152602490fd5b90508581813d8311611360575b6113498183611f00565b81010312610d9e5761135a9061250e565b386111b9565b503d61133f565b84513d89823e3d90fd5b5050346101f657816003193601126101f6576020906003549051908152f35b5091346113e257816003193601126113e25782359067ffffffffffffffff82116113e257506113c76060936113d09236910161206f565b6024359061481b565b91929081519384526020840152820152f35b80fd5b5091346113e25760206003193601126113e25782359067ffffffffffffffff82116113e2575061141d6020936114229236910161206f565b614782565b9051908152f35b503461017357602060031936011261017357611443611d5d565b9181602073ffffffffffffffffffffffffffffffffffffffff7f0aec74a1754fb10877b53c31a29be82096082042eb1fb374ec96fac88c0e621b54168351928380927f5c975abb0000000000000000000000000000000000000000000000000000000082525afa9081156112f9578591611510575b506114ea578361074e846114ca61293d565b6114d3816140c1565b6114dc81612a24565b6114e581612ce2565b6145e2565b517f4b94d2bb000000000000000000000000000000000000000000000000000000008152fd5b90506020813d8211611541575b8161152a60209383611f00565b81010312610a8a5761153b9061256d565b386114b8565b3d915061151d565b5050346101f65760206003193601126101f65760a06115998260c09473ffffffffffffffffffffffffffffffffffffffff611582611d5d565b61158a612336565b50168152600560205220614b64565b825192815184526020820151602085015280820151908401526060810151606084015260808101516080840152015160a0820152f35b509190346101f65760606003193601126101f6576115eb611d5d565b90602493843573ffffffffffffffffffffffffffffffffffffffff8082168203610de3576044359667ffffffffffffffff91828911610e6b573660238a011215610e6b5788850135928311610e6b573682848b010111610e6b576001967f5db5abc19987c2b3729df7961b62b6bb0bae886dd47e3ce25bb3a3af34c6d80b88815410156118c3578890557fad57d7911b7e3d6c3c79a68ba909a7f4ba41f9485e5207b12dee0d0c6af5398c95888755303b1515806118bc575b6118955750337f0aec74a1754fb10877b53c31a29be82096082042eb1fb374ec96fac88c0e621b55167fffffffffffffffffffffffff00000000000000000000000000000000000000008754161786556116fe87546122c4565b97601f8911611834575b8780995095969790601f841160011461178057928061176a9388969360209a98967fbe9b076dc5b65990cca9dd9d7366682482e7817a6f6bc7f4faf4dc32af497f329c9a93611773575b50505060001982891b9260031b1c191617845561257a565b5551908152a180f35b0101359050388080611752565b8680527f290decd9548b62a8d60345a988386fc84ba6bc95484008f6362f93160ef3e563929091601f198516885b8181106118195750938a9896937fbe9b076dc5b65990cca9dd9d7366682482e7817a6f6bc7f4faf4dc32af497f329b93879360209c9a9861176a98106117fd575b50505050811b01845561257a565b60001960f88660031b161c1992010135169055388080806117ef565b82850184013586558c9950948b0194602092830192016117ae565b8780527f290decd9548b62a8d60345a988386fc84ba6bc95484008f6362f93160ef3e563601f840160051c8101996020851061188b575b601f0160051c01985b8981106118815750611708565b8881558701611874565b909950899061186b565b87517f689f12a4000000000000000000000000000000000000000000000000000000008152fd5b50896116a4565b83878a8a51917f1e7a9d95000000000000000000000000000000000000000000000000000000008352820152fd5b509190346101f657602092836003193601126101735761190f611d5d565b9173ffffffffffffffffffffffffffffffffffffffff90817f0aec74a1754fb10877b53c31a29be82096082042eb1fb374ec96fac88c0e621b541681517f8da5cb5b00000000000000000000000000000000000000000000000000000000815287818681855afa908115611b1c579084918891611ae4575b50163303611ab5578684918351928380927f5c975abb0000000000000000000000000000000000000000000000000000000082525afa908115611aab578691611a76575b50611a4e576119d861293d565b6119e3610fa1613bb3565b8460035492808616915b8481106119fe578761074e8861257a565b8088528589528282611a11868b206157c0565b511614611a2657611a219061252f565b6119ed565b8584517f499943cd000000000000000000000000000000000000000000000000000000008152fd5b9050517f4b94d2bb000000000000000000000000000000000000000000000000000000008152fd5b90508681813d8311611aa4575b611a8d8183611f00565b81010312610de357611a9e9061256d565b386119cb565b503d611a83565b82513d88823e3d90fd5b81517f4d193d1f0000000000000000000000000000000000000000000000000000000081523381860152602490fd5b809250898092503d8311611b15575b611afd8183611f00565b81010312610d9e57611b0f849161250e565b38611987565b503d611af3565b83513d89823e3d90fd5b5050346101f657816003193601126101f657602090611422612499565b5050346101f657816003193601126101f65760209073ffffffffffffffffffffffffffffffffffffffff600154169051908152f35b503461017357602060031936011261017357916020923590611b986123a0565b81811315611bc157611ba990615b7b565b611bb1612499565b915081610aea5750509051908152f35b50611ba981615b7b565b5050346101f657816003193601126101f6578051906020927f506572656e6e69616c205632205661756c743a20000000000000000000000000848401528093815491611c16836122c4565b92600190818116908115611cb05750600114611c53575b611c4f8686611c45828b03601f198101845283611f00565b5191829182611d15565b0390f35b90808093949750527f290decd9548b62a8d60345a988386fc84ba6bc95484008f6362f93160ef3e5635b868310611c9c5750505050611c45826034611c4f958201019438611c2d565b805486840160340152918301918101611c7d565b611c4f985087945060349350611c459592507fffffffffffffffffffffffffffffffffffffffffffffffffffffffffffffff0091501682840152801515028201019438611c2d565b5050346101f657816003193601126101f6576020906114226123a0565b60208082528251818301819052939260005b858110611d4957505050601f19601f8460006040809697860101520116010190565b818101830151848201604001528201611d27565b6004359073ffffffffffffffffffffffffffffffffffffffff82168203611d8057565b600080fd5b6040810190811067ffffffffffffffff821117611da157604052565b7f4e487b7100000000000000000000000000000000000000000000000000000000600052604160045260246000fd5b6020810190811067ffffffffffffffff821117611da157604052565b67ffffffffffffffff8111611da157604052565b60e0810190811067ffffffffffffffff821117611da157604052565b60c0810190811067ffffffffffffffff821117611da157604052565b610180810190811067ffffffffffffffff821117611da157604052565b6060810190811067ffffffffffffffff821117611da157604052565b6080810190811067ffffffffffffffff821117611da157604052565b610220810190811067ffffffffffffffff821117611da157604052565b6101c0810190811067ffffffffffffffff821117611da157604052565b610100810190811067ffffffffffffffff821117611da157604052565b60a0810190811067ffffffffffffffff821117611da157604052565b90601f601f19910116810190811067ffffffffffffffff821117611da157604052565b67ffffffffffffffff8111611da15760051b60200190565b919060208084830312611d805760405190611f5582611dd0565b819480359067ffffffffffffffff8211611d8057019280601f85011215611d80578335611f8181611f23565b94611f8f6040519687611f00565b818652838087019260051b820101928311611d80578301905b828210611fb6575050505052565b81358152908301908301611fa8565b91908260e0910312611d8057604051611fdd81611e00565b60c0808294803584526020810135602085015260408101356040850152606081013560608501526080810135608085015260a081013560a08501520135910152565b91908260c0910312611d805760405161203781611e1c565b60a080829480358452602081013560208501526040810135604085015260608101356060850152608081013560808501520135910152565b9190828103926104408412611d805760409081519261208d84611e38565b83958235855260209081840135828701528484013585870152606090818501359167ffffffffffffffff92838111611d8057860185601f82011215611d80578035906120d882611f23565b916120e58a519384611f00565b8083528684818501920283010191888311611d80578701905b82821061226e5750505081890152608080870135848111611d8057870186601f82011215611d8057803561213181611f23565b9361213e8b519586611f00565b818552878086019260071b84010192898411611d80578801915b83831061222e575050505088015260a0850135828111611d80578461217e918701611f3b565b60a088015260c0850135918211611d80576121bc847fffffffffffffffffffffffffffffffffffffffffffffffffffffffffffffff20938701611f3b565b60c08801520112611d80576103806122299261016094516121dc81611dd0565b60e0820135815260e08701526101006121f784828401611fc5565b90870152612209836101e08301611fc5565b61012087015261221d836102c0830161201f565b6101408701520161201f565b910152565b84838b0312611d80578885918d80519061224782611e71565b86358252838701358483015280870135908201528486013585820152815201920191612158565b84828a0312611d80578a519061228382611e55565b82359073ffffffffffffffffffffffffffffffffffffffff82168203611d805790825282890135898301528b8301358c8301529081529084019087016120fe565b90600182811c9216801561230d575b60208310146122de57565b7f4e487b7100000000000000000000000000000000000000000000000000000000600052602260045260246000fd5b91607f16916122d3565b6040519061232482611e55565b60006040838281528260208201520152565b6040519061234382611e1c565b8160a06000918281528260208201528260408201528260608201528260808201520152565b6040519061237582611e00565b8160c06000918281528260208201528260408201528260608201528260808201528260a08201520152565b6000808052600560209081526123d57f05b8ccbb9d4d8fb16ea74ce3c29a41f1b461fbdaff4714a0d9a8eb05499746bc614b64565b0151815260066020526123ea60408220615187565b906060820151916123fb8151615a92565b9282848201948512911290801582169115161761246c5761033a81602061242493015190614f69565b9181838203931281841281169184139015161761243f575090565b807f4e487b7100000000000000000000000000000000000000000000000000000000602492526011600452fd5b6024827f4e487b710000000000000000000000000000000000000000000000000000000081526011600452fd5b60008052600560209081526124cd7f05b8ccbb9d4d8fb16ea74ce3c29a41f1b461fbdaff4714a0d9a8eb05499746bc614b64565b0151600052600660205261250b6124e76040600020615187565b602061250260408301516124fc845185614f09565b90612a17565b91015190615bb7565b90565b519073ffffffffffffffffffffffffffffffffffffffff82168203611d8057565b600019811461253e5760010190565b7f4e487b7100000000000000000000000000000000000000000000000000000000600052601160045260246000fd5b51908115158203611d8057565b7f0aec74a1754fb10877b53c31a29be82096082042eb1fb374ec96fac88c0e621b54604080517f06ae709500000000000000000000000000000000000000000000000000000000815273ffffffffffffffffffffffffffffffffffffffff9493600493602093919084908490879082908b165afa928315612807578791859160009561286f575b5060248391855194859384927f032bb4430000000000000000000000000000000000000000000000000000000084521697888b840152165afa9081156128075760009161283a575b50156128125780517ffc0c546a00000000000000000000000000000000000000000000000000000000815283818681865afa908115612807576000916127d2575b50866001541696879116036127aa5782600094959660448351809781937f095ea7b3000000000000000000000000000000000000000000000000000000008352878b84015260001960248401525af1801561279f5761274b575b7f07796b317344e6f18fa32ed89b6074ad66549cee7fb7b8c3e9f1c42c496f1c5c9350600354946127148661252f565b6003558560005283526127448160002082519061273082611e55565b848252600086830152600084830152615854565b51908152a2565b8284813d8311612798575b6127608183611f00565b81010312611d80576127927f07796b317344e6f18fa32ed89b6074ad66549cee7fb7b8c3e9f1c42c496f1c5c9461256d565b506126e4565b503d612756565b50513d6000823e3d90fd5b8390517faddc4c0d000000000000000000000000000000000000000000000000000000008152fd5b908482813d8311612800575b6127e88183611f00565b810103126113e257506127fa9061250e565b3861268a565b503d6127de565b82513d6000823e3d90fd5b8390517f7c04a019000000000000000000000000000000000000000000000000000000008152fd5b908482813d8311612868575b6128508183611f00565b810103126113e257506128629061256d565b38612649565b503d612846565b828193929694503d83116128a8575b6128888183611f00565b810103126101f657519087821682036113e2575091869084906024612601565b503d61287e565b91909392610140830190606082510151156129335790610af76128fd9260606128ea6128da88614782565b60008082131561292c5750615b7b565b93510151928381101561292457906157ad565b9315908161291b575b5061290e5750565b9161250b91925190615bb7565b90501538612906565b5082906157ad565b9050615b7b565b5060009450505050565b6000905b600354821015612a1357816000526004918260205260409273ffffffffffffffffffffffffffffffffffffffff61297a856000206157c0565b511690813b15611d805760009160c48392875194859384927f91eece28000000000000000000000000000000000000000000000000000000008452309084015260001960248401528160448401528160648401528160848401528160a48401525af18015612a08576129f39394506129f9575b5061252f565b90612941565b612a0290611dec565b386129ed565b84513d6000823e3d90fd5b9050565b9190820180921161253e57565b905b610140820191825180516020809201518091119081612c69575b5015612b805780845101519060018201809211612b525760008281526006808352604092612a6f848420615187565b946101208701958652612a82818861481b565b9188519260609182850180518a8382019384129112908015821691151617612b255791612b1f9c9d9e91612b1093526080948587015260a0809601525193612b068b51948b8651968a810151968a8c8b0152890190612af9612ae983516124fc8b85614f69565b938b01916124fc8b845192614f09565b9052528601948551615bb7565b9401918251615bb7565b90525283525220905190615255565b90612a26565b60248a7f4e487b710000000000000000000000000000000000000000000000000000000081526011600452fd5b602460007f4e487b710000000000000000000000000000000000000000000000000000000081526011600452fd5b509091506101608101908151906020825192015182119182612c3d575b5050612ba65750565b80515190816000526006602052612bc06040600020615187565b905190612c26612c1e608084019384519060a081019485519760208301526060820190612c146040612c0584518c8386015115600014612c2b576124fc905b86615105565b9401916124fc86845192614f9e565b9052528451615bb7565b938251615bb7565b905252565b612c386124fc9187615065565b612bff565b612c629250600052600760205260c0612c5960406000206156f0565b910151906155cf565b3880612b9d565b905060018101809111612b5257612c8e6040612c9992600090815260078552206156f0565b60c0840151906155cf565b38612a40565b8051821015612cb35760209160051b010190565b7f4e487b7100000000000000000000000000000000000000000000000000000000600052603260045260246000fd5b90610140612cef83614782565b9201612d0961033a82516080606082015191015190612a17565b6000938181039185138015828413169183121617612d7757620f4240612d69612d4560809387612d7497985080821360001461292c5750615b7b565b612d638551612d5d60a0604083015192015182612a17565b90615be3565b906157ad565b049151015190612a17565b50565b6024847f4e487b710000000000000000000000000000000000000000000000000000000081526011600452fd5b919091612db9612db382614782565b93615a92565b926000848203941281851281169185139015161761253e576101408101612dee61033a82516080606082015191015190612a17565b90600082860392128583128116908684139015161761253e57612e269160008113156138cb57620f4240612d69612d45608093615b7b565b612e2f84615aed565b156138735760608201519360008113156138bd57612e4f90949294615b7b565b91805193601f19612e78612e6287611f23565b96612e706040519889611f00565b808852611f23565b0160005b81811061389e5750506000915b80518310156134ea57600496612e9f8483612c9f565b5194612ea96149ca565b966101c073ffffffffffffffffffffffffffffffffffffffff8851166040519b8c80927fad4d4e290000000000000000000000000000000000000000000000000000000082525afa801561323b5760049a6000916134b9575b5088526102a073ffffffffffffffffffffffffffffffffffffffff8851166040519b8c80927f4549a6290000000000000000000000000000000000000000000000000000000082525afa801561323b5760009061331d575b60249a50602089015260a073ffffffffffffffffffffffffffffffffffffffff8851166040519b8c80927f5b4b96950000000000000000000000000000000000000000000000000000000082523060048301525afa998a1561323b576130409a610100916000916132ee575b508060408b015273ffffffffffffffffffffffffffffffffffffffff89511690519060405180809e81947fce813aed00000000000000000000000000000000000000000000000000000000835230600484016020909392919373ffffffffffffffffffffffffffffffffffffffff60408201951681520152565b03915afa801561323b5760049a6000916132cd575b50606089015261012073ffffffffffffffffffffffffffffffffffffffff8851166040519b8c80927fa05f99060000000000000000000000000000000000000000000000000000000082525afa998a1561323b5760009a61329a575b5060e08a015160008112613292575b60a089015273ffffffffffffffffffffffffffffffffffffffff8751166101008b516024604051809481937fa1d0a11300000000000000000000000000000000000000000000000000000000835260048301525afa90811561323b57600091613271575b5060808901526020604089015101515b6040890151518110156132475787516040517fce813aed000000000000000000000000000000000000000000000000000000008152306004820152602481018390529190610100908390604490829073ffffffffffffffffffffffffffffffffffffffff165afa91821561323b576131f9928d6131e092600092613205575b5060e00151604051906131c582611e55565b6000825260208201526001604082015260208d0151916159fe565b60c08b0151808211156131fe57505b60c08b015261252f565b613134565b90506131ef565b60e091925061322d906101003d61010011613234575b6132258183611f00565b810190613b08565b91906131b3565b503d61321b565b6040513d6000823e3d90fd5b5094919690955061326992985061325e8289612c9f565b526129ed8188612c9f565b919395612e89565b61328c91506101003d61010011613234576132258183611f00565b38613124565b6000036130c0565b6132bf919a506101203d610120116132c6575b6132b78183611f00565b810190613a62565b98386130b1565b503d6132ad565b6132e891506101003d61010011613234576132258183611f00565b38613055565b613310915060a03d60a011613316575b6133088183611f00565b810190613b6d565b38612fc6565b503d6132fe565b506102a08a3d6102a0116134b1575b8161333a6102a09383611f00565b8101038060805212611d805760405161335281611e8d565b8a51815260208b0151602082015260408b0151604082015260608b0151606082015260808b0151608082015260a08b015160a082015260c0808c01519082015260e0808c015190820152610100808c015190820152610120808c0151908201526101408b015161014082015260807ffffffffffffffffffffffffffffffffffffffffffffffffffffffffffffffea081510112611d80576040516133f581611e71565b610160808d015182526101808d015160208301526101a08d015160408301526101c08d0151606083015282015260407ffffffffffffffffffffffffffffffffffffffffffffffffffffffffffffffe206080510112611d805760249a6134a86102806040519261346484611d85565b6101e0808201518552610200948583015160208201526101808701526102208201516101a08701526102408201516101c0870152610260820151908601520161256d565b90820152612f5a565b3d915061332c565b6134dd91506101c03d6101c0116134e3575b6134d58183611f00565b8101906139a5565b38612f02565b503d6134cb565b9150929193946000936000936000955b845187101561353c5761352f6135226135359260206135198b8a612c9f565b51015190612a17565b9660c06135198a8d612c9f565b9661252f565b95946134fa565b92969195509293845195601f1961356b61355589611f23565b986135636040519a8b611f00565b808a52611f23565b0160005b81811061387957505060005b86518110156137c75789906135c8876124fc88610af78c60206135bf886135b98d60c06135b0846135aa613980565b9f612c9f565b51015199615bb7565b93612c9f565b510151906157ad565b82526135e686610af760206135dd858d612c9f565b510151886157ad565b9180519262124f8093808581020485148115171561253e578d94620f4240910204808210156137c057505b60208201526101a0806136248486612c9f565b515101511590811591613797575b5061378b575b6136428284612c9f565b516136b760608201916124fc602084510151602060c0818061369c6080880195613688875161367485820151916159bc565b895186015180821015613783575090615bb7565b8b5184015180821015613783575090615bb7565b98510151950151015191510151818110156107d35790615bb7565b606083015260408201526040806136d8846136d28551615a92565b96612c9f565b51015101518381810312600082121684828103136000831215161761253e5761376f938260408f8d8f966137319260a06137288b8761371f826020610af798015198612c9f565b51015193612c9f565b510151926157ad565b60608301518082101561377b5750915b01518082111561377457505b60206137648661375d8188612c9f565b5196612c9f565b51015203905261252f565b61357b565b905061374d565b905091613741565b905090615bb7565b60006020820152613638565b6137b9915060208301519060206137ae8688612c9f565b510151015190615c43565b1538613632565b9050613611565b5096959750505050505060005b60808201515181101561382b57806137f96137f26138039387612c9f565b5151615aed565b156138085761252f565b6137d4565b610d5d613819826060860151612c9f565b516138248388612c9f565b51906138df565b5060005b608082015151811015613873578061384d6137f26138639387612c9f565b60028114908115613868575b506138085761252f565b61382f565b600191501438613859565b50509050565b60209060405161388881611d85565b6000815282600081830152828c0101520161356f565b6020906138ad989694986149ca565b82828a0101520196929496612e7c565b50612e4f6000949294615b7b565b506080620f4240612d69612d456000615b7b565b73ffffffffffffffffffffffffffffffffffffffff90511660208201519151813b15611d8057604051927f91eece2800000000000000000000000000000000000000000000000000000000845230600485015260248401528260c48160008095819582604485015282606485015260848401528160a48401525af190811561397457506139695750565b61397290611dec565b565b604051903d90823e3d90fd5b6040519061398d82611e71565b60006060838281528260208201528260408201520152565b90816101c0910312611d8057604051906139be82611eaa565b805182526020810151602083015260408101516040830152606081015160608301526080810151608083015260a081015160a083015260c081015160c083015260e081015160e0830152610100808201519083015261012080820151908301526101408082015190830152610160613a3781830161256d565b90830152610180613a4981830161256d565b90830152613a5b6101a080920161256d565b9082015290565b809103906101208212611d805760407fffffffffffffffffffffffffffffffffffffffffffffffffffffffffffffff40815193613a9e85611ec7565b83518552602084015160208601528284015183860152606084015160608601526080840151608086015260a084015160a08601520112611d805761010090604051613ae881611d85565b60c0820151815260e0820151602082015260c0840152015160e082015290565b9081610100910312611d805760e060405191613b2383611ec7565b805183526020810151602084015260408101516040840152606081015160608401526080810151608084015260a081015160a084015260c081015160c0840152015160e082015290565b908160a0910312611d8057608060405191613b8783611ee4565b805183526020810151602084015260408101516040840152606081015160608401520151608082015290565b60405190613bc082611e38565b60008252600060208301526000604083015260608083015260606080830152604051613beb81611dd0565b6060815260a0830152604051613c0081611dd0565b6060815260c0830152604051613c1581611dd0565b6000815260e0830152613c26612368565b610100830152613c34612368565b610120830152613c42612336565b610140830152613c50612336565b61016083015281613c5f61595a565b60e082015260a081015160035490613c768261559e565b905260c0820151613c868261559e565b9052613c9181611f23565b613c9e6040519182611f00565b818152601f19613cad83611f23565b0160005b8181106140aa5750506060830152613cc881611f23565b613cd56040519182611f00565b818152601f19613ce483611f23565b0160005b818110614093575050608083015260005b818110613d94575050600080526005602052613d347f05b8ccbb9d4d8fb16ea74ce3c29a41f1b461fbdaff4714a0d9a8eb05499746bc614b64565b610140820152600080526005602052613d6c7f05b8ccbb9d4d8fb16ea74ce3c29a41f1b461fbdaff4714a0d9a8eb05499746bc614b64565b6101608201526020610140820151015160005260066020526101206122296040600020615187565b8060049160005281602052613dac60406000206157c0565b6101c073ffffffffffffffffffffffffffffffffffffffff825116604051948580927fad4d4e290000000000000000000000000000000000000000000000000000000082525afa92831561323b57600493613e3391600091614072575b50613e2484606089015185613e1e8383612c9f565b52612c9f565b50610140875191015190612a17565b855261012073ffffffffffffffffffffffffffffffffffffffff825116604051948580927fa05f99060000000000000000000000000000000000000000000000000000000082525afa92831561323b5760009361404f575b5073ffffffffffffffffffffffffffffffffffffffff8151169261010081516024604051809781937fa1d0a11300000000000000000000000000000000000000000000000000000000835260048301525afa91821561323b57613f4660a09373ffffffffffffffffffffffffffffffffffffffff93602497600092614029575b5060e0015160008112614021575b613f278760808c0151612c9f565b515260208101516020613f3e8860808d0151612c9f565b5101526159bc565b6040613f568660808b0151612c9f565b510152613f6b60208201516020890151612a17565b60208801525116604051938480927f5b4b96950000000000000000000000000000000000000000000000000000000082523060048301525afa801561323b57613ffd92600091614002575b5060408101516060613fcc846080890151612c9f565b51015260c0850151613fe48360208401519251612c9f565b52613ff78260a087015192519251612c9f565b5261252f565b613cf9565b61401b915060a03d60a011613316576133088183611f00565b38613fb6565b600003613f19565b60e0919250614048906101003d61010011613234576132258183611f00565b9190613f0b565b61406b9193506101203d610120116132c6576132b78183611f00565b9138613e8b565b61408d91506101c03d6101c0116134e3576134d58183611f00565b38613e09565b60209061409e613980565b82828601015201613ce8565b6020906140b5612317565b82828601015201613cb1565b906040516140ce81611e38565b600081526000602082015260006040820152606080820152606060808201526040516140f981611dd0565b6060815260a082015260405161410e81611dd0565b6060815260c082015260405161412381611dd0565b6000815260e0820152614134612368565b610100820152614142612368565b610120820152614150612336565b61014082015261415e612336565b610160820152809261416e61595a565b60e083015260a0820151600354906141858261559e565b905260c08301516141958261559e565b90526141a081611f23565b6141ad6040519182611f00565b818152601f196141bc83611f23565b0160005b81811061457757505060608401526141d781611f23565b6141e46040519182611f00565b818152601f196141f383611f23565b0160005b818110614560575050608084015260005b81811061427557505060008052600560205273ffffffffffffffffffffffffffffffffffffffff906142597f05b8ccbb9d4d8fb16ea74ce3c29a41f1b461fbdaff4714a0d9a8eb05499746bc614b64565b610140840152166000526005602052613d6c6040600020614b64565b806004916000528160205261428d60406000206157c0565b6101c073ffffffffffffffffffffffffffffffffffffffff825116604051948580927fad4d4e290000000000000000000000000000000000000000000000000000000082525afa92831561323b5760049361430e9160009161453f575b506142ff8460608a015185613e1e8383612c9f565b50610140885191015190612a17565b865261012073ffffffffffffffffffffffffffffffffffffffff825116604051948580927fa05f99060000000000000000000000000000000000000000000000000000000082525afa92831561323b5760009361451c575b5073ffffffffffffffffffffffffffffffffffffffff8151169261010081516024604051809781937fa1d0a11300000000000000000000000000000000000000000000000000000000835260048301525afa91821561323b5761441960a09373ffffffffffffffffffffffffffffffffffffffff936024976000926144f6575b5060e00151600081126144ee575b6144028760808d0151612c9f565b5152896020613f3e88608083860151940151612c9f565b60406144298660808c0151612c9f565b51015261443e602082015160208a0151612a17565b60208901525116604051938480927f5b4b96950000000000000000000000000000000000000000000000000000000082523060048301525afa801561323b576144ca926000916144cf575b506040810151606061449f8460808a0151612c9f565b51015260c08601516144b78360208401519251612c9f565b52613ff78260a088015192519251612c9f565b614208565b6144e8915060a03d60a011613316576133088183611f00565b38614489565b6000036143f4565b60e0919250614515906101003d61010011613234576132258183611f00565b91906143e6565b6145389193506101203d610120116132c6576132b78183611f00565b9138614366565b61455a91506101c03d6101c0116134e3576134d58183611f00565b386142ea565b60209061456b613980565b828286010152016141f7565b602090614582612317565b828286010152016141c0565b613972906101006040600080805260056020526145b382822061014086015190614c21565b80805260056020526145cd82822061016086015190614c21565b81840151815260066020522091015190615255565b61010060406139729373ffffffffffffffffffffffffffffffffffffffff600091828052600560205261461d84842061014088015190614c21565b16815260056020526145cd82822061016086015190614c21565b614645610120820151615153565b61468b5761250b906124fc61465b6128da6123a0565b60e0606061467461014086019360808551015190612a17565b925101519301515190818110156107d35790615bb7565b50600090565b6101208101906146a18251615153565b61477b576000906000195b6080820151805184101561477357836146c491612c9f565b516146d3846060850151612c9f565b51602091828201918251158015614767575b6147595792610af761473c9361472984610af761474c99988661473598015161471e604091828601518181106000146107d35790615bb7565b9351910151926157ad565b928801519051926157ad565b8651614fe1565b8082101561475257505b9261252f565b916146ac565b9050614746565b505050509161474c9061252f565b506040810151156146e5565b509392505050565b5050600090565b9060016147b664e8d4a510006147b073ffffffffffffffffffffffffffffffffffffffff8454163090615cbd565b04615a92565b928160009182935b6147c9575b50505050565b9091929460808201518051871015614814576147e787606092612c9f565b51015190848282019283129112908015821691151617612d775761480b909561252f565b929190816147be565b50946147c3565b9190600080818293835260076020526040926148388482206156f0565b9681955b8851518710156149815773ffffffffffffffffffffffffffffffffffffffff614869886060850151612c9f565b5151169483888b518051821061496f575b505087517fce813aed000000000000000000000000000000000000000000000000000000008152306004808301919091526024820192909252610100978890829060449082905afa978815614965578698614946575b505060c08701519185838201938412911290801582169115161761491a57506149119160a061490861352f939760808a015190612a17565b97015190612a17565b9593929361483c565b8460116024927f4e487b7100000000000000000000000000000000000000000000000000000000835252fd5b61495d929850803d10613234576132258183611f00565b9538806148d0565b89513d88823e3d90fd5b6149799250612c9f565b51883861487a565b955050509391509350565b6040519061499982611ec7565b8160e06000918281528260208201528260408201528260608201528260808201528260a08201528260c08201520152565b6040908151916149d983611e00565b60c0838251926149e884611eaa565b60009384815284602082015284828201528460608201528460808201528460a082015284848201528460e0820152846101009181838201526101208281830152610140838184015283610160918183860152816101809481868801526101a09682888201528b52818a5199614a5c8b611e8d565b818b528160208c0152818c8c01528160608c01528160808c01528160a08c0152818e8c01528160e08c01528a0152880152860152614a98613980565b90850152845190614aa882611d85565b838252836020830152840152820152846101c0820152846101e0820152846102008201526020830152805190614add82611ee4565b8482528460208301528481830152846060830152846080830152820152614b0261498c565b6060820152614b0f61498c565b60808201528260a08201520152565b949291908552614b3360608601918251615bb7565b91614b4360408701918251615bb7565b905252612c2660a0614b5a60808601948551612a17565b9401918251612a17565b614b6c612336565b5060c0604051614b7b81611e00565b8254600163ffffffff947fffffffffffffffffffffffffffffffffffffffffffffffff0000000000000000868416968786528460201c169384602087015216604085015201549167ffffffffffffffff9182841691826060820152838560401c16938460808301528560801c16948560a0830152861c958691015260405195614c0387611e1c565b8652602086015260408501526060840152608083015260a082015290565b919063ffffffff9081815111614edf57602081019382855111614edf57604094858301916002614c518451615c04565b14614eb65760608401916002614c678451615c04565b14614e8d5760808501936002614c7d8651615c04565b14614e645760a08601956002614c938851615c04565b14614e3b5792614daa94926000999a60c06001948b614df39b9a98511693519c8d9367ffffffffffffffff8080809551169a51169a51169b519d815195614cd987611e00565b8787521660208601528401528660608401528760808401528960a08401528b1691015267ffffffff0000000082549a827fffffffffffffffffffffffffffffffffffffffffffffffffffffffff000000008d1617845560201b1680827fffffffffffffffffffffffffffffffffffffffffffffffff0000000000000000809d1617178355178155019687541617865585907fffffffffffffffffffffffffffffffff0000000000000000ffffffffffffffff6fffffffffffffffff000000000000000083549260401b169116179055565b83547fffffffffffffffff0000000000000000ffffffffffffffffffffffffffffffff1660809190911b77ffffffffffffffff0000000000000000000000000000000016178355565b77ffffffffffffffffffffffffffffffffffffffffffffffff7fffffffffffffffff00000000000000000000000000000000000000000000000083549260c01b169116179055565b60048a517fb8a09499000000000000000000000000000000000000000000000000000000008152fd5b600489517fb8a09499000000000000000000000000000000000000000000000000000000008152fd5b600488517fb8a09499000000000000000000000000000000000000000000000000000000008152fd5b600487517fb8a09499000000000000000000000000000000000000000000000000000000008152fd5b60046040517fb8a09499000000000000000000000000000000000000000000000000000000008152fd5b604081015115614f6557614f206060820151615aed565b8015908115614f5a575b5060009015614f3857505090565b5060a081015161250b92614f5491818110156107d35790615bb7565b9061502f565b600191501438614f2a565b5090565b60a061250b92604083015115600014614f8e57915b0151818110156107d35790615bb7565b614f989083615065565b91614f7e565b604081015115614f6557614fb56060820151615aed565b8015908115614fd6575b5015614fc9575090565b614f5461250b9282615105565b600191501438614fbf565b604081015115614f6557614ff86060820151615aed565b8015908115615024575b506000901561501057505090565b61250b92614f549181156107d35790615bb7565b600191501438615002565b61505f61250b92610af76150536060850151600080821360001461292c5750615b7b565b916040850151906157ad565b90615094565b61505f61250b92610af76150896060850151600080821360001461292c5750615b7b565b6040850151926157ad565b6150cb6150b16060830151600080821360001461292c5750615b7b565b6124fc835191610af76020860151916040870151926157ad565b90600090826150da5750505090565b6080015161250b93610af7925090838110156150fb57612d63905b84615bb7565b50612d63836150f5565b60c0810151906000908261512b5750505061250b9060005b818110156107d35790615bb7565b60a0015190620f42408084029384040361243f575061250b929161514e91615bc4565b61511d565b604081015115159081615164575090565b615172915060600151615aed565b801590811561517f575090565b600191501490565b61518f612368565b506040805161519d81611ec7565b82549267ffffffffffffffff90818516948584528281861c16948560208601526001848360801c1692838388015260c01d60070b938460608801520154958487169485608088015287831c16958660a082015260e07fffffffffffffffffffffffff000000000000000000000000000000000000000063ffffffff8a60801c16998a60c08501521691015281519761523489611e00565b885260208801528601526060850152608084015260a083015260c082015290565b90600291826152648351615c04565b14615574576020820192806152798551615c04565b14615574576040918284018261528f8251615c04565b1461554b5760608501836152a38251615b0c565b14615522576152b28151615b2e565b15615522576080860191846152c78451615c04565b146154f95760c087019563ffffffff97888851116154d05760a08101966152ee8851615c04565b146154d05767ffffffffffffffff808080809451169c511694511694519551169651169651978382519261532184611ec7565b8b84528460208501528301528460070b60608301528660808301528760a0830152881660c082015260e001600090527fffffffffffffffffffffffffffffffffffffffffffffffff000000000000000097888554161784556153bf9084907fffffffffffffffffffffffffffffffff0000000000000000ffffffffffffffff6fffffffffffffffff000000000000000083549260401b169116179055565b82547fffffffffffffffff0000000000000000ffffffffffffffffffffffffffffffff1660809190911b77ffffffffffffffff000000000000000000000000000000001617825581549060c01b7fffffffffffffffff000000000000000000000000000000000000000000000000169077ffffffffffffffffffffffffffffffffffffffffffffffff161781556001019384541617835561549c9083907fffffffffffffffffffffffffffffffff0000000000000000ffffffffffffffff6fffffffffffffffff000000000000000083549260401b169116179055565b81549060801b73ffffffff0000000000000000000000000000000016906fffffffffffffffffffffffffffffffff16179055565b600482517fba85116a000000000000000000000000000000000000000000000000000000008152fd5b600486517fba85116a000000000000000000000000000000000000000000000000000000008152fd5b600485517fba85116a000000000000000000000000000000000000000000000000000000008152fd5b600484517fba85116a000000000000000000000000000000000000000000000000000000008152fd5b60046040517fba85116a000000000000000000000000000000000000000000000000000000008152fd5b906155a882611f23565b6155b56040519182611f00565b828152601f196155c58294611f23565b0190602036910137565b9060005b81515181101561563f5760008184518051821061562d575b505060009082845180518210615619575b5050116156115761560c9061252f565b6155d3565b505050600090565b615624929350612c9f565b519082386155fc565b6156379250612c9f565b5181386155eb565b505050600190565b60005b8251805182109081156156ad57829060009261569b575b505060009082845180518210615687575b50501161563f576156829061252f565b61564a565b615692929350612c9f565b51908238615672565b6156a59250612c9f565b518138615661565b5050505050600090565b81156156c1570490565b7f4e487b7100000000000000000000000000000000000000000000000000000000600052601260045260246000fd5b6040606081516156ff81611dd0565b52600080805260209083825263ffffffff91828483205416916157218361559e565b95815b84811061574157505050505050519061573c82611dd0565b815290565b600780820484528285528784208183069182101561578057600382901c016001015461577b929160051b60e0161c8716613ff7828b612c9f565b615724565b6024857f4e487b710000000000000000000000000000000000000000000000000000000081526032600452fd5b8181029291811591840414171561253e57565b6157c8612317565b50604051906157d682611e71565b5473ffffffffffffffffffffffffffffffffffffffff81169182815263ffffffff9060607fffffffff00000000000000000000000000000000000000000000000000000000838560a01c16938460208501528560c01c1694856040850152169101526040519261584584611e55565b83526020830152604082015290565b90602081019063ffffffff9182815111615930576040820160026158788251615c2c565b14615930577fffffffff00000000000000000000000000000000000000000000000000000000936000606073ffffffffffffffffffffffffffffffffffffffff7bffffffff0000000000000000000000000000000000000000000000009651169451935192604051906158ea82611e71565b868252808616602083015284166040820152015260c01b9290921677ffffffff000000000000000000000000000000000000000060a09390931b92909216171790915550565b60046040517f92f03c86000000000000000000000000000000000000000000000000000000008152fd5b600060405161596881611dd0565b5260405161597581611d85565b6002549060207fffffffffffffffffffffffffffffffffffffffffffffffff000000000000000067ffffffffffffffff841693848452169101526040519061573c82611dd0565b6159d660606159ce6040840151615a92565b920151615a92565b80820391600080921281841281169184139015161761243f578082126159fa575090565b0390565b90615a0882615a63565b1561561157615a456020615a1e6101a094615a63565b9201516000808212615a5c5750915b615a3c620f42409384926157ad565b048451906157ad565b04910151808211600014615a57575090565b905090565b0391615a2d565b602060408201516060830151808211600014615a8a5750915b015180821115615a57575090565b905091615a7c565b7f7fffffffffffffffffffffffffffffffffffffffffffffffffffffffffffffff8111615abc5790565b602490604051907feecaa25d0000000000000000000000000000000000000000000000000000000082526004820152fd5b60008113615b0657600013615b0157600190565b600090565b50600290565b677fffffffffffffff90818113615b275712615b0157600190565b5050600290565b7fffffffffffffffffffffffffffffffffffffffffffffffff800000000000000090818113615b275712615b0157600190565b64e8d4a510009081810291818304149015171561253e5790565b60008112615b865790565b602490604051907fb02ef0870000000000000000000000000000000000000000000000000000000082526004820152fd5b9190820391821161253e57565b90620f42409182810292818404149015171561253e5761250b916156b7565b9080615bfb5750615bf557620f424090565b60001990565b61250b91615bc4565b67ffffffffffffffff90818111615b275710615b0157600190565b60001911615b0157600190565b63ffffffff90818111615b275710615b0157600190565b818111615b275710615b0157600190565b6040517fa9059cbb00000000000000000000000000000000000000000000000000000000602082015273ffffffffffffffffffffffffffffffffffffffff9283166024820152604480820194909452928352613972929190615cb7606484611f00565b16615d4c565b6020906024604051809481937f70a0823100000000000000000000000000000000000000000000000000000000835273ffffffffffffffffffffffffffffffffffffffff8092166004840152165afa90811561323b57600091615d1e575090565b906020823d8211615d44575b81615d3760209383611f00565b810103126113e257505190565b3d9150615d2a565b73ffffffffffffffffffffffffffffffffffffffff1690604051615d6f81611d85565b6020928382527f5361666545524332303a206c6f772d6c6576656c2063616c6c206661696c6564848301526000808486829651910182855af13d15615ecd573d9167ffffffffffffffff8311615ea05790615dea93929160405192615ddd88601f19601f8401160185611f00565b83523d868885013e615ed7565b90815180615df85750505050565b828491810103126113e2575081615e0f910161256d565b15615e1c578080806147c3565b608490604051907f08c379a00000000000000000000000000000000000000000000000000000000082526004820152602a60248201527f5361666545524332303a204552433230206f7065726174696f6e20646964206e60448201527f6f742073756363656564000000000000000000000000000000000000000000006064820152fd5b6024857f4e487b710000000000000000000000000000000000000000000000000000000081526041600452fd5b90615dea92916060915b91929015615f525750815115615eeb575090565b3b15615ef45790565b60646040517f08c379a000000000000000000000000000000000000000000000000000000000815260206004820152601d60248201527f416464726573733a2063616c6c20746f206e6f6e2d636f6e74726163740000006044820152fd5b825190915015615f655750805190602001fd5b615f9b906040519182917f08c379a000000000000000000000000000000000000000000000000000000000835260048301611d15565b0390fdfea2646970667358221220b29ec12d12baa2aba4fa39a830e9704199318f9d0d54b791352580643334387664736f6c63430008130033"
}