{
  "address": "0x9d2CaE012AAe0aE00f4d8F42CD287a6923612456",
  "abi": [
    {
      "inputs": [
        {
          "internalType": "uint256",
          "name": "value",
          "type": "uint256"
        }
      ],
      "name": "Fixed6OverflowError",
      "type": "error"
    },
    {
      "inputs": [
        {
          "internalType": "Fixed6",
          "name": "price",
          "type": "int256"
        }
      ],
      "name": "payoff",
      "outputs": [
        {
          "internalType": "Fixed6",
          "name": "",
          "type": "int256"
        }
      ],
      "stateMutability": "pure",
      "type": "function"
    }
  ],
  "transactionHash": "0x025a009c3a34a84c9ca5042d623ad3ba264d9f0d402f945bbba5e7736ee7558e",
  "args": [],
  "numDeployments": 1,
  "solcInputHash": "c00e0b6ab696ec04bf536435476c1cf2",
  "bytecode": "0x608080604052346100165761032a908161001c8239f35b600080fdfe6080604052600436101561001257600080fd5b6000803560e01c63d7c7a9351461002857600080fd5b3461012d5760207ffffffffffffffffffffffffffffffffffffffffffffffffffffffffffffffffc36011261012d5761007690600435818112610126575b61007c620f424080948193610130565b04610130565b048281029281840414901517156100f957610096826101b1565b7f7fffffffffffffffffffffffffffffffffffffffffffffffffffffffffffffff81116100c857602090604051908152f35b602490604051907feecaa25d0000000000000000000000000000000000000000000000000000000082526004820152fd5b807f4e487b7100000000000000000000000000000000000000000000000000000000602492526011600452fd5b8103610066565b80fd5b90633b9aca009182810292818404149015171561014957565b7f4e487b7100000000000000000000000000000000000000000000000000000000600052601160045260246000fd5b8115610182570490565b7f4e487b7100000000000000000000000000000000000000000000000000000000600052601260045260246000fd5b80156102ee5761027c816000908360801c806102e2575b508060401c806102d5575b508060201c806102c8575b508060101c806102bb575b508060081c806102ae575b508060041c806102a1575b508060021c80610294575b50600191828092811c61028d575b1c1b6102248185610178565b01811c6102318185610178565b01811c61023e8185610178565b01811c61024b8185610178565b01811c6102588185610178565b01811c6102658185610178565b01811c6102728185610178565b01901c8092610178565b80821015610288575090565b905090565b0181610218565b600291509101903861020a565b60049150910190386101ff565b60089150910190386101f4565b60109150910190386101e9565b60209150910190386101de565b60409150910190386101d3565b915050608090386101c8565b5060009056fea26469706673582212200094e09e4b596559b42392f0f1779de1b484d02b90e5ab264eb4fe5fb6985dd864736f6c63430008130033",
  "devdoc": {
    "kind": "dev",
    "methods": {},
    "version": 1
  },
  "userdoc": {
    "kind": "user",
    "methods": {},
    "version": 1
  },
  "storageLayout": {
    "storage": [],
    "types": null
  }
}