{
  "address": "0xf3E88d5a0036BFDc240A309DBc765C895Dc8b509",
  "abi": [
    {
      "inputs": [
        {
          "internalType": "address",
          "name": "_logic",
          "type": "address"
        },
        {
          "internalType": "address",
          "name": "admin_",
          "type": "address"
        },
        {
          "internalType": "bytes",
          "name": "_data",
          "type": "bytes"
        }
      ],
      "stateMutability": "payable",
      "type": "constructor"
    },
    {
      "anonymous": false,
      "inputs": [
        {
          "indexed": false,
          "internalType": "address",
          "name": "previousAdmin",
          "type": "address"
        },
        {
          "indexed": false,
          "internalType": "address",
          "name": "newAdmin",
          "type": "address"
        }
      ],
      "name": "AdminChanged",
      "type": "event"
    },
    {
      "anonymous": false,
      "inputs": [
        {
          "indexed": true,
          "internalType": "address",
          "name": "beacon",
          "type": "address"
        }
      ],
      "name": "BeaconUpgraded",
      "type": "event"
    },
    {
      "anonymous": false,
      "inputs": [
        {
          "indexed": true,
          "internalType": "address",
          "name": "implementation",
          "type": "address"
        }
      ],
      "name": "Upgraded",
      "type": "event"
    },
    {
      "stateMutability": "payable",
      "type": "fallback"
    },
    {
      "inputs": [],
      "name": "admin",
      "outputs": [
        {
          "internalType": "address",
          "name": "admin_",
          "type": "address"
        }
      ],
      "stateMutability": "nonpayable",
      "type": "function"
    },
    {
      "inputs": [
        {
          "internalType": "address",
          "name": "newAdmin",
          "type": "address"
        }
      ],
      "name": "changeAdmin",
      "outputs": [],
      "stateMutability": "nonpayable",
      "type": "function"
    },
    {
      "inputs": [],
      "name": "implementation",
      "outputs": [
        {
          "internalType": "address",
          "name": "implementation_",
          "type": "address"
        }
      ],
      "stateMutability": "nonpayable",
      "type": "function"
    },
    {
      "inputs": [
        {
          "internalType": "address",
          "name": "newImplementation",
          "type": "address"
        }
      ],
      "name": "upgradeTo",
      "outputs": [],
      "stateMutability": "nonpayable",
      "type": "function"
    },
    {
      "inputs": [
        {
          "internalType": "address",
          "name": "newImplementation",
          "type": "address"
        },
        {
          "internalType": "bytes",
          "name": "data",
          "type": "bytes"
        }
      ],
      "name": "upgradeToAndCall",
      "outputs": [],
      "stateMutability": "payable",
      "type": "function"
    },
    {
      "stateMutability": "payable",
      "type": "receive"
    }
  ],
  "transactionHash": "0x0c9b12a6cac7d0ab9586a265cd1156b967d19bd1142d6065bf4985770ca03b47",
  "args": [
    "0x01Caa6743a96cd8Ed98787579feee12Cbe3DD515",
    "0x41b32C53D4e504BF39a0a080d0F7e3908108e4E1",
    "0xc4d66de800000000000000000000000071041dddad3595f9ced3dccfbe3d1f4b0a16bb70"
  ],
  "numDeployments": 1,
  "solcInputHash": "c00e0b6ab696ec04bf536435476c1cf2",
  "bytecode": "0x60406080815262000ed18038038062000018816200030b565b9283398101906060818303126200030657620000348162000347565b916020926200004584840162000347565b8584015190936001600160401b0391908282116200030657019280601f850112156200030657835193620000836200007d866200035c565b6200030b565b948086528786019288828401011162000306578288620000a4930162000378565b823b15620002ac577f360894a13ba1a3210667c828492db98dca3e2076cc3735a920a3ca505d382bbc80546001600160a01b03199081166001600160a01b0386811691821790935590959194600093909290917fbc7cd75a20ee27fd9adebab32041f755214dbc6bffa90cc0225b39da2e5c2d3b8580a2805115801590620002a4575b620001f5575b50505050507fb53127684a568b3173ae13b9f8a6016e243e63b6e8ee1178d6a717850b5d6103937f7e644d79422f17c01e4894b5f4f588d331ebfa28653d42ae832dc59e38c9798f86865493815196818616885216958684820152a18315620001a357501617905551610a7a9081620004578239f35b60849086519062461bcd60e51b82526004820152602660248201527f455243313936373a206e65772061646d696e20697320746865207a65726f206160448201526564647265737360d01b6064820152fd5b895194606086019081118682101762000290578a52602785527f416464726573733a206c6f772d6c6576656c2064656c65676174652063616c6c89860152660819985a5b195960ca1b8a860152516200027a9493929183918291845af4903d1562000286573d6200026a6200007d826200035c565b90815280938a3d92013e6200039d565b5038808080806200012d565b606092506200039d565b634e487b7160e01b85526041600452602485fd5b508362000127565b865162461bcd60e51b815260048101879052602d60248201527f455243313936373a206e657720696d706c656d656e746174696f6e206973206e60448201526c1bdd08184818dbdb9d1c9858dd609a1b6064820152608490fd5b600080fd5b6040519190601f01601f191682016001600160401b038111838210176200033157604052565b634e487b7160e01b600052604160045260246000fd5b51906001600160a01b03821682036200030657565b6001600160401b0381116200033157601f01601f191660200190565b60005b8381106200038c5750506000910152565b81810151838201526020016200037b565b91929015620004025750815115620003b3575090565b3b15620003bd5790565b60405162461bcd60e51b815260206004820152601d60248201527f416464726573733a2063616c6c20746f206e6f6e2d636f6e74726163740000006044820152606490fd5b825190915015620004165750805190602001fd5b6044604051809262461bcd60e51b82526020600483015262000448815180928160248601526020868601910162000378565b601f01601f19168101030190fdfe60806040526004361015610019575b36610485575b610485565b6000803560e01c9081633659cfe61461006c575080634f1ef286146100675780635c60da1b146100625780638f2839701461005d5763f851a4400361000e57610404565b6102a0565b610201565b610127565b346100fc5760207ffffffffffffffffffffffffffffffffffffffffffffffffffffffffffffffffc3601126100fc576100a36100ff565b73ffffffffffffffffffffffffffffffffffffffff7fb53127684a568b3173ae13b9f8a6016e243e63b6e8ee1178d6a717850b5d610354163314600014610014576100f9906100f06105df565b90838252610682565b80f35b80fd5b6004359073ffffffffffffffffffffffffffffffffffffffff8216820361012257565b600080fd5b60407ffffffffffffffffffffffffffffffffffffffffffffffffffffffffffffffffc360112610122576101596100ff565b60243567ffffffffffffffff9182821161012257366023830112156101225781600401359283116101225736602484840101116101225773ffffffffffffffffffffffffffffffffffffffff7fb53127684a568b3173ae13b9f8a6016e243e63b6e8ee1178d6a717850b5d6103541633146000146100145760006020848060246101ed6101e86101ff99610648565b610604565b968288520183870137840101526107c2565b005b346101225760007ffffffffffffffffffffffffffffffffffffffffffffffffffffffffffffffffc3601126101225773ffffffffffffffffffffffffffffffffffffffff807fb53127684a568b3173ae13b9f8a6016e243e63b6e8ee1178d6a717850b5d610354163314600014610014577f360894a13ba1a3210667c828492db98dca3e2076cc3735a920a3ca505d382bbc5460405191168152602090f35b346101225760207ffffffffffffffffffffffffffffffffffffffffffffffffffffffffffffffffc360112610122576102d76100ff565b73ffffffffffffffffffffffffffffffffffffffff907fb53127684a568b3173ae13b9f8a6016e243e63b6e8ee1178d6a717850b5d610391808354163314600014610014577f7e644d79422f17c01e4894b5f4f588d331ebfa28653d42ae832dc59e38c9798f604084549281519481851686521693846020820152a18115610380577fffffffffffffffffffffffff000000000000000000000000000000000000000016179055005b60846040517f08c379a000000000000000000000000000000000000000000000000000000000815260206004820152602660248201527f455243313936373a206e65772061646d696e20697320746865207a65726f206160448201527f64647265737300000000000000000000000000000000000000000000000000006064820152fd5b346101225760007ffffffffffffffffffffffffffffffffffffffffffffffffffffffffffffffffc3601126101225773ffffffffffffffffffffffffffffffffffffffff7fb53127684a568b3173ae13b9f8a6016e243e63b6e8ee1178d6a717850b5d61039080825416331460001461001457905460405191168152602090f35b73ffffffffffffffffffffffffffffffffffffffff807fb53127684a568b3173ae13b9f8a6016e243e63b6e8ee1178d6a717850b5d610354163314610506577f360894a13ba1a3210667c828492db98dca3e2076cc3735a920a3ca505d382bbc54166000808092368280378136915af43d82803e15610502573d90f35b3d90fd5b60a46040517f08c379a000000000000000000000000000000000000000000000000000000000815260206004820152604260248201527f5472616e73706172656e745570677261646561626c6550726f78793a2061646d60448201527f696e2063616e6e6f742066616c6c6261636b20746f2070726f7879207461726760648201527f65740000000000000000000000000000000000000000000000000000000000006084820152fd5b7f4e487b7100000000000000000000000000000000000000000000000000000000600052604160045260246000fd5b604051906020820182811067ffffffffffffffff8211176105ff57604052565b6105b0565b907fffffffffffffffffffffffffffffffffffffffffffffffffffffffffffffffe0601f604051930116820182811067ffffffffffffffff8211176105ff57604052565b67ffffffffffffffff81116105ff57601f017fffffffffffffffffffffffffffffffffffffffffffffffffffffffffffffffe01660200190565b803b1561073e5773ffffffffffffffffffffffffffffffffffffffff81167f360894a13ba1a3210667c828492db98dca3e2076cc3735a920a3ca505d382bbc817fffffffffffffffffffffffff00000000000000000000000000000000000000008254161790557fbc7cd75a20ee27fd9adebab32041f755214dbc6bffa90cc0225b39da2e5c2d3b600080a2815115801590610736575b610721575050565b6107339161072d610868565b916108d8565b50565b506000610719565b60846040517f08c379a000000000000000000000000000000000000000000000000000000000815260206004820152602d60248201527f455243313936373a206e657720696d706c656d656e746174696f6e206973206e60448201527f6f74206120636f6e7472616374000000000000000000000000000000000000006064820152fd5b803b1561073e5773ffffffffffffffffffffffffffffffffffffffff81167f360894a13ba1a3210667c828492db98dca3e2076cc3735a920a3ca505d382bbc817fffffffffffffffffffffffff00000000000000000000000000000000000000008254161790557fbc7cd75a20ee27fd9adebab32041f755214dbc6bffa90cc0225b39da2e5c2d3b600080a281511580159061086057610721575050565b506001610719565b604051906060820182811067ffffffffffffffff8211176105ff57604052602782527f206661696c6564000000000000000000000000000000000000000000000000006040837f416464726573733a206c6f772d6c6576656c2064656c65676174652063616c6c60208201520152565b60008061090d9493602081519101845af43d15610910573d916108fd6101e884610648565b9283523d6000602085013e61097d565b90565b60609161097d565b1561091f57565b60646040517f08c379a000000000000000000000000000000000000000000000000000000000815260206004820152601d60248201527f416464726573733a2063616c6c20746f206e6f6e2d636f6e74726163740000006044820152fd5b9192901561099d5750815115610991575090565b61090d903b1515610918565b8251909150156109b05750805190602001fd5b604051907f08c379a000000000000000000000000000000000000000000000000000000000825281602080600483015282519283602484015260005b848110610a2d575050507fffffffffffffffffffffffffffffffffffffffffffffffffffffffffffffffe0601f836000604480968601015201168101030190fd5b8181018301518682016044015285935082016109ec56fea264697066735822122089d629776832164cc577515a971ac01101731d543cb7c6624f314f7f3f4222da64736f6c63430008130033",
  "devdoc": {
    "details": "This contract implements a proxy that is upgradeable by an admin. To avoid https://medium.com/nomic-labs-blog/malicious-backdoors-in-ethereum-proxies-62629adf3357[proxy selector clashing], which can potentially be used in an attack, this contract uses the https://blog.openzeppelin.com/the-transparent-proxy-pattern/[transparent proxy pattern]. This pattern implies two things that go hand in hand: 1. If any account other than the admin calls the proxy, the call will be forwarded to the implementation, even if that call matches one of the admin functions exposed by the proxy itself. 2. If the admin calls the proxy, it can access the admin functions, but its calls will never be forwarded to the implementation. If the admin tries to call a function on the implementation it will fail with an error that says \"admin cannot fallback to proxy target\". These properties mean that the admin account can only be used for admin actions like upgrading the proxy or changing the admin, so it's best if it's a dedicated account that is not used for anything else. This will avoid headaches due to sudden errors when trying to call a function from the proxy implementation. Our recommendation is for the dedicated account to be an instance of the {ProxyAdmin} contract. If set up this way, you should think of the `ProxyAdmin` instance as the real administrative interface of your proxy.",
    "events": {
      "AdminChanged(address,address)": {
        "details": "Emitted when the admin account has changed."
      },
      "BeaconUpgraded(address)": {
        "details": "Emitted when the beacon is upgraded."
      },
      "Upgraded(address)": {
        "details": "Emitted when the implementation is upgraded."
      }
    },
    "kind": "dev",
    "methods": {
      "admin()": {
        "details": "Returns the current admin. NOTE: Only the admin can call this function. See {ProxyAdmin-getProxyAdmin}. TIP: To get this value clients can read directly from the storage slot shown below (specified by EIP1967) using the https://eth.wiki/json-rpc/API#eth_getstorageat[`eth_getStorageAt`] RPC call. `0xb53127684a568b3173ae13b9f8a6016e243e63b6e8ee1178d6a717850b5d6103`"
      },
      "changeAdmin(address)": {
        "details": "Changes the admin of the proxy. Emits an {AdminChanged} event. NOTE: Only the admin can call this function. See {ProxyAdmin-changeProxyAdmin}."
      },
      "constructor": {
        "details": "Initializes an upgradeable proxy managed by `_admin`, backed by the implementation at `_logic`, and optionally initialized with `_data` as explained in {ERC1967Proxy-constructor}."
      },
      "implementation()": {
        "details": "Returns the current implementation. NOTE: Only the admin can call this function. See {ProxyAdmin-getProxyImplementation}. TIP: To get this value clients can read directly from the storage slot shown below (specified by EIP1967) using the https://eth.wiki/json-rpc/API#eth_getstorageat[`eth_getStorageAt`] RPC call. `0x360894a13ba1a3210667c828492db98dca3e2076cc3735a920a3ca505d382bbc`"
      },
      "upgradeTo(address)": {
        "details": "Upgrade the implementation of the proxy. NOTE: Only the admin can call this function. See {ProxyAdmin-upgrade}."
      },
      "upgradeToAndCall(address,bytes)": {
        "details": "Upgrade the implementation of the proxy, and then call a function from the new implementation as specified by `data`, which should be an encoded function call. This is useful to initialize new storage variables in the proxied contract. NOTE: Only the admin can call this function. See {ProxyAdmin-upgradeAndCall}."
      }
    },
    "version": 1
  },
  "userdoc": {
    "kind": "user",
    "methods": {},
    "version": 1
  },
  "storageLayout": {
    "storage": [],
    "types": null
  }
}