{
  "address": "0x5A572B5fBBC43387B5eF8de2C4728A4108ef24a6",
  "abi": [
    {
      "inputs": [],
      "stateMutability": "nonpayable",
      "type": "constructor"
    },
    {
      "inputs": [],
      "name": "FactoryNotInstanceError",
      "type": "error"
    },
    {
      "inputs": [
        {
          "internalType": "uint256",
          "name": "version",
          "type": "uint256"
        }
      ],
      "name": "InitializableAlreadyInitializedError",
      "type": "error"
    },
    {
      "inputs": [],
      "name": "InitializableNotInitializingError",
      "type": "error"
    },
    {
      "inputs": [],
      "name": "InitializableZeroVersionError",
      "type": "error"
    },
    {
      "inputs": [
        {
          "internalType": "address",
          "name": "sender",
          "type": "address"
        }
      ],
      "name": "OwnableNotOwnerError",
      "type": "error"
    },
    {
      "inputs": [
        {
          "internalType": "address",
          "name": "sender",
          "type": "address"
        }
      ],
      "name": "OwnableNotPendingOwnerError",
      "type": "error"
    },
    {
      "inputs": [
        {
          "internalType": "address",
          "name": "sender",
          "type": "address"
        }
      ],
      "name": "PausableNotPauserError",
      "type": "error"
    },
    {
      "inputs": [],
      "name": "PausablePausedError",
      "type": "error"
    },
    {
      "anonymous": false,
      "inputs": [
        {
          "indexed": false,
          "internalType": "uint256",
          "name": "version",
          "type": "uint256"
        }
      ],
      "name": "Initialized",
      "type": "event"
    },
    {
      "anonymous": false,
      "inputs": [
        {
          "indexed": true,
          "internalType": "contract IInstance",
          "name": "instance",
          "type": "address"
        }
      ],
      "name": "InstanceRegistered",
      "type": "event"
    },
    {
      "anonymous": false,
      "inputs": [
        {
          "indexed": true,
          "internalType": "address",
          "name": "newOwner",
          "type": "address"
        }
      ],
      "name": "OwnerUpdated",
      "type": "event"
    },
    {
      "anonymous": false,
      "inputs": [],
      "name": "Paused",
      "type": "event"
    },
    {
      "anonymous": false,
      "inputs": [
        {
          "indexed": true,
          "internalType": "address",
          "name": "newPauser",
          "type": "address"
        }
      ],
      "name": "PauserUpdated",
      "type": "event"
    },
    {
      "anonymous": false,
      "inputs": [
        {
          "indexed": true,
          "internalType": "address",
          "name": "newPendingOwner",
          "type": "address"
        }
      ],
      "name": "PendingOwnerUpdated",
      "type": "event"
    },
    {
      "anonymous": false,
      "inputs": [],
      "name": "Unpaused",
      "type": "event"
    },
    {
      "inputs": [],
      "name": "acceptOwner",
      "outputs": [],
      "stateMutability": "nonpayable",
      "type": "function"
    },
    {
      "inputs": [],
      "name": "implementation",
      "outputs": [
        {
          "internalType": "address",
          "name": "",
          "type": "address"
        }
      ],
      "stateMutability": "view",
      "type": "function"
    },
    {
      "inputs": [],
      "name": "initialize",
      "outputs": [],
      "stateMutability": "nonpayable",
      "type": "function"
    },
    {
      "inputs": [
        {
          "internalType": "contract IInstance",
          "name": "instance",
          "type": "address"
        }
      ],
      "name": "instances",
      "outputs": [
        {
          "internalType": "bool",
          "name": "",
          "type": "bool"
        }
      ],
      "stateMutability": "view",
      "type": "function"
    },
    {
      "inputs": [],
      "name": "owner",
      "outputs": [
        {
          "internalType": "address",
          "name": "",
          "type": "address"
        }
      ],
      "stateMutability": "view",
      "type": "function"
    },
    {
      "inputs": [],
      "name": "pause",
      "outputs": [],
      "stateMutability": "nonpayable",
      "type": "function"
    },
    {
      "inputs": [],
      "name": "paused",
      "outputs": [
        {
          "internalType": "bool",
          "name": "",
          "type": "bool"
        }
      ],
      "stateMutability": "view",
      "type": "function"
    },
    {
      "inputs": [],
      "name": "pauser",
      "outputs": [
        {
          "internalType": "address",
          "name": "",
          "type": "address"
        }
      ],
      "stateMutability": "view",
      "type": "function"
    },
    {
      "inputs": [],
      "name": "pendingOwner",
      "outputs": [
        {
          "internalType": "address",
          "name": "",
          "type": "address"
        }
      ],
      "stateMutability": "view",
      "type": "function"
    },
    {
      "inputs": [
        {
          "internalType": "contract IPayoffProvider",
          "name": "payoff",
          "type": "address"
        }
      ],
      "name": "register",
      "outputs": [],
      "stateMutability": "nonpayable",
      "type": "function"
    },
    {
      "inputs": [],
      "name": "unpause",
      "outputs": [],
      "stateMutability": "nonpayable",
      "type": "function"
    },
    {
      "inputs": [
        {
          "internalType": "address",
          "name": "newPauser",
          "type": "address"
        }
      ],
      "name": "updatePauser",
      "outputs": [],
      "stateMutability": "nonpayable",
      "type": "function"
    },
    {
      "inputs": [
        {
          "internalType": "address",
          "name": "newPendingOwner",
          "type": "address"
        }
      ],
      "name": "updatePendingOwner",
      "outputs": [],
      "stateMutability": "nonpayable",
      "type": "function"
    }
  ],
  "transactionHash": "0x0ba14473b05b0e24358d03c16fdefca66363769db8e83a761fc86dfd238aca49",
  "args": [],
  "numDeployments": 1,
  "solcInputHash": "c00e0b6ab696ec04bf536435476c1cf2",
  "bytecode": "0x60a08060405234610024576000608052610b7a908161002a82396080518161079a0152f35b600080fdfe60406080815260048036101561001457600080fd5b600090813560e01c8063032bb44314610a975780633f4ba83a146109a65780634420e48614610889578063554bab3c146107be5780635c60da1b1461074f5780635c975abb146106f15780638129fc1c146105775780638456cb59146104555780638da5cb5b146103e35780639fd0506d14610371578063b5ee69551461026e578063e30c3978146101fc5763ebbc4965146100af57600080fd5b346101f857817ffffffffffffffffffffffffffffffffffffffffffffffffffffffffffffffffc3601126101f8577f675c83682abbc3e7dd47e40515a778fbbde4393395c3dd3588244203c3e4788390815473ffffffffffffffffffffffffffffffffffffffff8116908133036101c9577fe7742ddf0fecd2926e7ef4d6d6e91a7b2f0b1f8805b78953dac8454e86273ed255807f4ffd725fc4a22075e9ec71c59edf9c38cdeb588a91b24fc5b61388c5be41282b8580a233036101995750819055807f69f201bc2089b9be6195d876d97a0136b4cf56bbf8986a52dcb50697f7d1cac58180a280f35b6024908451907f99bf63590000000000000000000000000000000000000000000000000000000082523390820152fd5b85517fd0d5e1b00000000000000000000000000000000000000000000000000000000081523381850152602490fd5b5080fd5b8284346101f857817ffffffffffffffffffffffffffffffffffffffffffffffffffffffffffffffffc3601126101f85760209073ffffffffffffffffffffffffffffffffffffffff7f675c83682abbc3e7dd47e40515a778fbbde4393395c3dd3588244203c3e4788354915191168152f35b5082903461036d5760207ffffffffffffffffffffffffffffffffffffffffffffffffffffffffffffffffc36011261036d5780359073ffffffffffffffffffffffffffffffffffffffff9283831693848403610369577fe7742ddf0fecd2926e7ef4d6d6e91a7b2f0b1f8805b78953dac8454e86273ed254339116036103395750507f675c83682abbc3e7dd47e40515a778fbbde4393395c3dd3588244203c3e47883557f69f201bc2089b9be6195d876d97a0136b4cf56bbf8986a52dcb50697f7d1cac58280a280f35b6024925051907f99bf63590000000000000000000000000000000000000000000000000000000082523390820152fd5b8580fd5b8280fd5b8284346101f857817ffffffffffffffffffffffffffffffffffffffffffffffffffffffffffffffffc3601126101f85760209073ffffffffffffffffffffffffffffffffffffffff7f18e50ee9696440d335192aeeeffc26f47782eaa914f1700d8ad36d6d7f7261b354915191168152f35b8284346101f857817ffffffffffffffffffffffffffffffffffffffffffffffffffffffffffffffffc3601126101f85760209073ffffffffffffffffffffffffffffffffffffffff7fe7742ddf0fecd2926e7ef4d6d6e91a7b2f0b1f8805b78953dac8454e86273ed254915191168152f35b50823461036d57827ffffffffffffffffffffffffffffffffffffffffffffffffffffffffffffffffc36011261036d5773ffffffffffffffffffffffffffffffffffffffff807f18e50ee9696440d335192aeeeffc26f47782eaa914f1700d8ad36d6d7f7261b354163314159081610549575b50610519578260017f3d13b7e57307bea7f94c474c597247d2da93d7de9136f8e123ed6525f50bbcec557f9e87fac88ff661f02d44f95383c817fece4bce600a3dab7a54406878b965e7528180a180f35b6024925051907ff7987a920000000000000000000000000000000000000000000000000000000082523390820152fd5b90507fe7742ddf0fecd2926e7ef4d6d6e91a7b2f0b1f8805b78953dac8454e86273ed25416331415846104c8565b5082903461036d57827ffffffffffffffffffffffffffffffffffffffffffffffffffffffffffffffffc36011261036d577f6fee9688c285c5c5c97d6a1a29adced674e6b2ad0888b8ad2116b58a8b3ea2486001815410156106c15760019055303b1515806106ba575b61068c57303b1515806106b3575b61068c575060207fbe9b076dc5b65990cca9dd9d7366682482e7817a6f6bc7f4faf4dc32af497f3291337fe7742ddf0fecd2926e7ef4d6d6e91a7b2f0b1f8805b78953dac8454e86273ed255337f4ffd725fc4a22075e9ec71c59edf9c38cdeb588a91b24fc5b61388c5be41282b8580a2837f2801b00eb06461cf9fcb9758b5fafd884ff06a86177386f73b6c49f0bf5a5af0555160018152a180f35b90517fb9a621e1000000000000000000000000000000000000000000000000000000008152fd5b50826105ef565b50826105e1565b50600160249251917f3db738da000000000000000000000000000000000000000000000000000000008352820152fd5b8284346101f857817ffffffffffffffffffffffffffffffffffffffffffffffffffffffffffffffffc3601126101f8576020907f3d13b7e57307bea7f94c474c597247d2da93d7de9136f8e123ed6525f50bbcec5490519015158152f35b8284346101f857817ffffffffffffffffffffffffffffffffffffffffffffffffffffffffffffffffc3601126101f8576020905173ffffffffffffffffffffffffffffffffffffffff7f0000000000000000000000000000000000000000000000000000000000000000168152f35b5082903461036d5760207ffffffffffffffffffffffffffffffffffffffffffffffffffffffffffffffffc36011261036d5780359073ffffffffffffffffffffffffffffffffffffffff9283831693848403610369577fe7742ddf0fecd2926e7ef4d6d6e91a7b2f0b1f8805b78953dac8454e86273ed254339116036103395750507f18e50ee9696440d335192aeeeffc26f47782eaa914f1700d8ad36d6d7f7261b3557fa4336c0cb1e245b95ad204faed7e940d6dc999684fd8b5e1ff597a0c4efca8ab8280a280f35b5082903461036d5760207ffffffffffffffffffffffffffffffffffffffffffffffffffffffffffffffffc36011261036d5780359173ffffffffffffffffffffffffffffffffffffffff8084168094036109a2577fe7742ddf0fecd2926e7ef4d6d6e91a7b2f0b1f8805b78953dac8454e86273ed254339116036103395750506109528173ffffffffffffffffffffffffffffffffffffffff166000527f81796b4965de195665289d95668a8a9e7020858e15f5341c42bcf9951c1768ad602052604060002090565b60017fffffffffffffffffffffffffffffffffffffffffffffffffffffffffffffff008254161790557f4fe45192317a7d3ad19c3eaa395c0c3a1b7a0f53c3536fb96764c3561a8e9dad8280a280f35b8480fd5b50823461036d57827ffffffffffffffffffffffffffffffffffffffffffffffffffffffffffffffffc36011261036d5773ffffffffffffffffffffffffffffffffffffffff807f18e50ee9696440d335192aeeeffc26f47782eaa914f1700d8ad36d6d7f7261b354163314159081610a69575b506105195782807f3d13b7e57307bea7f94c474c597247d2da93d7de9136f8e123ed6525f50bbcec557fa45f47fdea8a1efdd9029a5691c7f759c32b7c698632b563573e155625d169338180a180f35b90507fe7742ddf0fecd2926e7ef4d6d6e91a7b2f0b1f8805b78953dac8454e86273ed2541633141584610a19565b5082903461036d5760207ffffffffffffffffffffffffffffffffffffffffffffffffffffffffffffffffc36011261036d57359173ffffffffffffffffffffffffffffffffffffffff83168303610b41575060ff610b3660209373ffffffffffffffffffffffffffffffffffffffff166000527f81796b4965de195665289d95668a8a9e7020858e15f5341c42bcf9951c1768ad602052604060002090565b541690519015158152f35b80fdfea26469706673582212208f45d72dab03cee0f5874174ee9493e05fb096ea3aaa0169d0a8305a1dcc4e6964736f6c63430008130033",
  "devdoc": {
    "kind": "dev",
    "methods": {
      "acceptOwner()": {
        "details": "Can only be called by the pending owner to ensure correctness. Calls to the `_beforeAcceptOwner` hook      to perform logic before updating ownership."
      },
      "instances(address)": {
        "params": {
          "instance": "The instance to check"
        },
        "returns": {
          "_0": "Whether the instance is valid"
        }
      },
      "pause()": {
        "details": "Can only be called by the pauser"
      },
      "unpause()": {
        "details": "Can only be called by the pauser"
      },
      "updatePauser(address)": {
        "details": "Can only be called by the current owner",
        "params": {
          "newPauser": "New pauser address"
        }
      },
      "updatePendingOwner(address)": {
        "details": "Can only be called by the current owner      New owner does not take affect until that address calls `acceptOwner()`",
        "params": {
          "newPendingOwner": "New pending owner address"
        }
      }
    },
    "title": "PayoffFactory",
    "version": 1
  },
  "userdoc": {
    "kind": "user",
    "methods": {
      "acceptOwner()": {
        "notice": "Accepts and transfers the ownership of the contract to the pending owner"
      },
      "constructor": {
        "notice": "Constructs the contract"
      },
      "implementation()": {
        "notice": "The instance implementation address"
      },
      "initialize()": {
        "notice": "Initializes the contract state"
      },
      "instances(address)": {
        "notice": "Returns whether the instance is valid"
      },
      "pause()": {
        "notice": "Pauses the contract"
      },
      "register(address)": {
        "notice": "Registers a new payoff provider"
      },
      "unpause()": {
        "notice": "Unpauses the contract"
      },
      "updatePauser(address)": {
        "notice": "Updates the new pauser"
      },
      "updatePendingOwner(address)": {
        "notice": "Updates the new pending owner"
      }
    },
    "notice": "The payoff factory that manages valid payoff contracts",
    "version": 1
  },
  "storageLayout": {
    "storage": [],
    "types": null
  }
}