{
  "address": "0x025A29875E690728341197D7AE1a3C102F57aDCf",
  "abi": [
    {
      "inputs": [
        {
          "internalType": "contract AbstractPyth",
          "name": "pyth_",
          "type": "address"
        },
        {
          "internalType": "address",
          "name": "implementation_",
          "type": "address"
        },
        {
          "internalType": "uint256",
          "name": "validFrom_",
          "type": "uint256"
        },
        {
          "internalType": "uint256",
          "name": "validTo_",
          "type": "uint256"
        },
        {
          "components": [
            {
              "internalType": "UFixed18",
              "name": "multiplierBase",
              "type": "uint256"
            },
            {
              "internalType": "uint256",
              "name": "bufferBase",
              "type": "uint256"
            },
            {
              "internalType": "UFixed18",
              "name": "multiplierCalldata",
              "type": "uint256"
            },
            {
              "internalType": "uint256",
              "name": "bufferCalldata",
              "type": "uint256"
            }
          ],
          "internalType": "struct IKept.KeepConfig",
          "name": "commitKeepConfig_",
          "type": "tuple"
        },
        {
          "components": [
            {
              "internalType": "UFixed18",
              "name": "multiplierBase",
              "type": "uint256"
            },
            {
              "internalType": "uint256",
              "name": "bufferBase",
              "type": "uint256"
            },
            {
              "internalType": "UFixed18",
              "name": "multiplierCalldata",
              "type": "uint256"
            },
            {
              "internalType": "uint256",
              "name": "bufferCalldata",
              "type": "uint256"
            }
          ],
          "internalType": "struct IKept.KeepConfig",
          "name": "settleKeepConfig_",
          "type": "tuple"
        },
        {
          "internalType": "uint256",
          "name": "keepCommitIncrementalBufferData_",
          "type": "uint256"
        }
      ],
      "stateMutability": "nonpayable",
      "type": "constructor"
    },
    {
      "inputs": [],
      "name": "DivisionByZero",
      "type": "error"
    },
    {
      "inputs": [],
      "name": "FactoryNotInstanceError",
      "type": "error"
    },
    {
      "inputs": [
        {
          "internalType": "uint256",
          "name": "version",
          "type": "uint256"
        }
      ],
      "name": "InitializableAlreadyInitializedError",
      "type": "error"
    },
    {
      "inputs": [],
      "name": "InitializableNotInitializingError",
      "type": "error"
    },
    {
      "inputs": [],
      "name": "InitializableZeroVersionError",
      "type": "error"
    },
    {
      "inputs": [],
      "name": "KeeperFactoryAlreadyAssociatedError",
      "type": "error"
    },
    {
      "inputs": [],
      "name": "KeeperFactoryAlreadyCreatedError",
      "type": "error"
    },
    {
      "inputs": [],
      "name": "KeeperFactoryInvalidGranularityError",
      "type": "error"
    },
    {
      "inputs": [],
      "name": "KeeperFactoryInvalidIdError",
      "type": "error"
    },
    {
      "inputs": [],
      "name": "KeeperFactoryInvalidSettleError",
      "type": "error"
    },
    {
      "inputs": [],
      "name": "KeeperFactoryNotAssociatedError",
      "type": "error"
    },
    {
      "inputs": [],
      "name": "KeeperFactoryNotInstanceError",
      "type": "error"
    },
    {
      "inputs": [
        {
          "internalType": "address",
          "name": "sender",
          "type": "address"
        }
      ],
      "name": "OwnableNotOwnerError",
      "type": "error"
    },
    {
      "inputs": [
        {
          "internalType": "address",
          "name": "sender",
          "type": "address"
        }
      ],
      "name": "OwnableNotPendingOwnerError",
      "type": "error"
    },
    {
      "inputs": [
        {
          "internalType": "address",
          "name": "sender",
          "type": "address"
        }
      ],
      "name": "PausableNotPauserError",
      "type": "error"
    },
    {
      "inputs": [],
      "name": "PausablePausedError",
      "type": "error"
    },
    {
      "inputs": [],
      "name": "PythFactoryInvalidIdError",
      "type": "error"
    },
    {
      "inputs": [
        {
          "internalType": "int256",
          "name": "value",
          "type": "int256"
        }
      ],
      "name": "UFixed18UnderflowError",
      "type": "error"
    },
    {
      "anonymous": false,
      "inputs": [
        {
          "indexed": true,
          "internalType": "contract IFactory",
          "name": "caller",
          "type": "address"
        }
      ],
      "name": "CallerAuthorized",
      "type": "event"
    },
    {
      "anonymous": false,
      "inputs": [
        {
          "indexed": false,
          "internalType": "uint256",
          "name": "newGranularity",
          "type": "uint256"
        },
        {
          "indexed": false,
          "internalType": "uint256",
          "name": "effectiveAfter",
          "type": "uint256"
        }
      ],
      "name": "GranularityUpdated",
      "type": "event"
    },
    {
      "anonymous": false,
      "inputs": [
        {
          "indexed": false,
          "internalType": "uint256",
          "name": "version",
          "type": "uint256"
        }
      ],
      "name": "Initialized",
      "type": "event"
    },
    {
      "anonymous": false,
      "inputs": [
        {
          "indexed": true,
          "internalType": "contract IInstance",
          "name": "instance",
          "type": "address"
        }
      ],
      "name": "InstanceRegistered",
      "type": "event"
    },
    {
      "anonymous": false,
      "inputs": [
        {
          "indexed": true,
          "internalType": "address",
          "name": "sender",
          "type": "address"
        },
        {
          "indexed": false,
          "internalType": "uint256",
          "name": "applicableGas",
          "type": "uint256"
        },
        {
          "indexed": false,
          "internalType": "uint256",
          "name": "applicableValue",
          "type": "uint256"
        },
        {
          "indexed": false,
          "internalType": "UFixed18",
          "name": "baseFee",
          "type": "uint256"
        },
        {
          "indexed": false,
          "internalType": "UFixed18",
          "name": "calldataFee",
          "type": "uint256"
        },
        {
          "indexed": false,
          "internalType": "UFixed18",
          "name": "keeperFee",
          "type": "uint256"
        }
      ],
      "name": "KeeperCall",
      "type": "event"
    },
    {
      "anonymous": false,
      "inputs": [
        {
          "indexed": true,
          "internalType": "bytes32",
          "name": "id",
          "type": "bytes32"
        },
        {
          "indexed": true,
          "internalType": "bytes32",
          "name": "underlyingId",
          "type": "bytes32"
        }
      ],
      "name": "OracleAssociated",
      "type": "event"
    },
    {
      "anonymous": false,
      "inputs": [
        {
          "indexed": true,
          "internalType": "contract IOracleProvider",
          "name": "oracle",
          "type": "address"
        },
        {
          "indexed": true,
          "internalType": "bytes32",
          "name": "id",
          "type": "bytes32"
        }
      ],
      "name": "OracleCreated",
      "type": "event"
    },
    {
      "anonymous": false,
      "inputs": [
        {
          "indexed": true,
          "internalType": "address",
          "name": "newOwner",
          "type": "address"
        }
      ],
      "name": "OwnerUpdated",
      "type": "event"
    },
    {
      "anonymous": false,
      "inputs": [],
      "name": "Paused",
      "type": "event"
    },
    {
      "anonymous": false,
      "inputs": [
        {
          "indexed": true,
          "internalType": "address",
          "name": "newPauser",
          "type": "address"
        }
      ],
      "name": "PauserUpdated",
      "type": "event"
    },
    {
      "anonymous": false,
      "inputs": [
        {
          "indexed": true,
          "internalType": "address",
          "name": "newPendingOwner",
          "type": "address"
        }
      ],
      "name": "PendingOwnerUpdated",
      "type": "event"
    },
    {
      "anonymous": false,
      "inputs": [],
      "name": "Unpaused",
      "type": "event"
    },
    {
      "inputs": [],
      "name": "MAX_GRANULARITY",
      "outputs": [
        {
          "internalType": "uint256",
          "name": "",
          "type": "uint256"
        }
      ],
      "stateMutability": "view",
      "type": "function"
    },
    {
      "inputs": [],
      "name": "acceptOwner",
      "outputs": [],
      "stateMutability": "nonpayable",
      "type": "function"
    },
    {
      "inputs": [
        {
          "internalType": "bytes32",
          "name": "id",
          "type": "bytes32"
        },
        {
          "internalType": "bytes32",
          "name": "underlyingId",
          "type": "bytes32"
        }
      ],
      "name": "associate",
      "outputs": [],
      "stateMutability": "nonpayable",
      "type": "function"
    },
    {
      "inputs": [
        {
          "internalType": "bytes32",
          "name": "id",
          "type": "bytes32"
        }
      ],
      "name": "associated",
      "outputs": [
        {
          "internalType": "bool",
          "name": "",
          "type": "bool"
        }
      ],
      "stateMutability": "view",
      "type": "function"
    },
    {
      "inputs": [
        {
          "internalType": "contract IFactory",
          "name": "factory",
          "type": "address"
        }
      ],
      "name": "authorize",
      "outputs": [],
      "stateMutability": "nonpayable",
      "type": "function"
    },
    {
      "inputs": [
        {
          "internalType": "address",
          "name": "caller",
          "type": "address"
        }
      ],
      "name": "authorized",
      "outputs": [
        {
          "internalType": "bool",
          "name": "",
          "type": "bool"
        }
      ],
      "stateMutability": "view",
      "type": "function"
    },
    {
      "inputs": [
        {
          "internalType": "contract IFactory",
          "name": "",
          "type": "address"
        }
      ],
      "name": "callers",
      "outputs": [
        {
          "internalType": "bool",
          "name": "",
          "type": "bool"
        }
      ],
      "stateMutability": "view",
      "type": "function"
    },
    {
      "inputs": [
        {
          "internalType": "bytes32[]",
          "name": "ids",
          "type": "bytes32[]"
        },
        {
          "internalType": "uint256",
          "name": "version",
          "type": "uint256"
        },
        {
          "internalType": "bytes",
          "name": "data",
          "type": "bytes"
        }
      ],
      "name": "commit",
      "outputs": [],
      "stateMutability": "payable",
      "type": "function"
    },
    {
      "inputs": [
        {
          "internalType": "uint256",
          "name": "numRequested",
          "type": "uint256"
        }
      ],
      "name": "commitKeepConfig",
      "outputs": [
        {
          "components": [
            {
              "internalType": "UFixed18",
              "name": "multiplierBase",
              "type": "uint256"
            },
            {
              "internalType": "uint256",
              "name": "bufferBase",
              "type": "uint256"
            },
            {
              "internalType": "UFixed18",
              "name": "multiplierCalldata",
              "type": "uint256"
            },
            {
              "internalType": "uint256",
              "name": "bufferCalldata",
              "type": "uint256"
            }
          ],
          "internalType": "struct IKept.KeepConfig",
          "name": "",
          "type": "tuple"
        }
      ],
      "stateMutability": "view",
      "type": "function"
    },
    {
      "inputs": [
        {
          "internalType": "bytes32",
          "name": "id",
          "type": "bytes32"
        }
      ],
      "name": "create",
      "outputs": [
        {
          "internalType": "contract IKeeperOracle",
          "name": "newOracle",
          "type": "address"
        }
      ],
      "stateMutability": "nonpayable",
      "type": "function"
    },
    {
      "inputs": [],
      "name": "current",
      "outputs": [
        {
          "internalType": "uint256",
          "name": "",
          "type": "uint256"
        }
      ],
      "stateMutability": "view",
      "type": "function"
    },
    {
      "inputs": [],
      "name": "ethTokenOracleFeed",
      "outputs": [
        {
          "internalType": "contract AggregatorV3Interface",
          "name": "",
          "type": "address"
        }
      ],
      "stateMutability": "view",
      "type": "function"
    },
    {
      "inputs": [
        {
          "internalType": "bytes32",
          "name": "",
          "type": "bytes32"
        }
      ],
      "name": "fromUnderlyingId",
      "outputs": [
        {
          "internalType": "bytes32",
          "name": "",
          "type": "bytes32"
        }
      ],
      "stateMutability": "view",
      "type": "function"
    },
    {
      "inputs": [],
      "name": "granularity",
      "outputs": [
        {
          "components": [
            {
              "internalType": "uint64",
              "name": "latestGranularity",
              "type": "uint64"
            },
            {
              "internalType": "uint64",
              "name": "currentGranularity",
              "type": "uint64"
            },
            {
              "internalType": "uint128",
              "name": "effectiveAfter",
              "type": "uint128"
            }
          ],
          "internalType": "struct IKeeperFactory.Granularity",
          "name": "",
          "type": "tuple"
        }
      ],
      "stateMutability": "view",
      "type": "function"
    },
    {
      "inputs": [],
      "name": "implementation",
      "outputs": [
        {
          "internalType": "address",
          "name": "",
          "type": "address"
        }
      ],
      "stateMutability": "view",
      "type": "function"
    },
    {
      "inputs": [
        {
          "internalType": "contract IOracleFactory",
          "name": "oracleFactory_",
          "type": "address"
        },
        {
          "internalType": "contract AggregatorV3Interface",
          "name": "chainlinkFeed_",
          "type": "address"
        },
        {
          "internalType": "Token18",
          "name": "dsu_",
          "type": "address"
        }
      ],
      "name": "initialize",
      "outputs": [],
      "stateMutability": "nonpayable",
      "type": "function"
    },
    {
      "inputs": [
        {
          "internalType": "contract IInstance",
          "name": "instance",
          "type": "address"
        }
      ],
      "name": "instances",
      "outputs": [
        {
          "internalType": "bool",
          "name": "",
          "type": "bool"
        }
      ],
      "stateMutability": "view",
      "type": "function"
    },
    {
      "inputs": [],
      "name": "keeperToken",
      "outputs": [
        {
          "internalType": "Token18",
          "name": "",
          "type": "address"
        }
      ],
      "stateMutability": "view",
      "type": "function"
    },
    {
      "inputs": [],
      "name": "oracleFactory",
      "outputs": [
        {
          "internalType": "contract IOracleFactory",
          "name": "",
          "type": "address"
        }
      ],
      "stateMutability": "view",
      "type": "function"
    },
    {
      "inputs": [
        {
          "internalType": "bytes32",
          "name": "",
          "type": "bytes32"
        }
      ],
      "name": "oracles",
      "outputs": [
        {
          "internalType": "contract IOracleProvider",
          "name": "",
          "type": "address"
        }
      ],
      "stateMutability": "view",
      "type": "function"
    },
    {
      "inputs": [],
      "name": "owner",
      "outputs": [
        {
          "internalType": "address",
          "name": "",
          "type": "address"
        }
      ],
      "stateMutability": "view",
      "type": "function"
    },
    {
      "inputs": [],
      "name": "pause",
      "outputs": [],
      "stateMutability": "nonpayable",
      "type": "function"
    },
    {
      "inputs": [],
      "name": "paused",
      "outputs": [
        {
          "internalType": "bool",
          "name": "",
          "type": "bool"
        }
      ],
      "stateMutability": "view",
      "type": "function"
    },
    {
      "inputs": [],
      "name": "pauser",
      "outputs": [
        {
          "internalType": "address",
          "name": "",
          "type": "address"
        }
      ],
      "stateMutability": "view",
      "type": "function"
    },
    {
      "inputs": [],
      "name": "pendingOwner",
      "outputs": [
        {
          "internalType": "address",
          "name": "",
          "type": "address"
        }
      ],
      "stateMutability": "view",
      "type": "function"
    },
    {
      "inputs": [],
      "name": "pyth",
      "outputs": [
        {
          "internalType": "contract AbstractPyth",
          "name": "",
          "type": "address"
        }
      ],
      "stateMutability": "view",
      "type": "function"
    },
    {
      "inputs": [
        {
          "internalType": "bytes32[]",
          "name": "ids",
          "type": "bytes32[]"
        },
        {
          "internalType": "contract IMarket[]",
          "name": "markets",
          "type": "address[]"
        },
        {
          "internalType": "uint256[]",
          "name": "versions",
          "type": "uint256[]"
        },
        {
          "internalType": "uint256[]",
          "name": "maxCounts",
          "type": "uint256[]"
        }
      ],
      "name": "settle",
      "outputs": [],
      "stateMutability": "nonpayable",
      "type": "function"
    },
    {
      "inputs": [],
      "name": "settleKeepConfig",
      "outputs": [
        {
          "components": [
            {
              "internalType": "UFixed18",
              "name": "multiplierBase",
              "type": "uint256"
            },
            {
              "internalType": "uint256",
              "name": "bufferBase",
              "type": "uint256"
            },
            {
              "internalType": "UFixed18",
              "name": "multiplierCalldata",
              "type": "uint256"
            },
            {
              "internalType": "uint256",
              "name": "bufferCalldata",
              "type": "uint256"
            }
          ],
          "internalType": "struct IKept.KeepConfig",
          "name": "",
          "type": "tuple"
        }
      ],
      "stateMutability": "view",
      "type": "function"
    },
    {
      "inputs": [
        {
          "internalType": "bytes32",
          "name": "",
          "type": "bytes32"
        }
      ],
      "name": "toUnderlyingId",
      "outputs": [
        {
          "internalType": "bytes32",
          "name": "",
          "type": "bytes32"
        }
      ],
      "stateMutability": "view",
      "type": "function"
    },
    {
      "inputs": [],
      "name": "unpause",
      "outputs": [],
      "stateMutability": "nonpayable",
      "type": "function"
    },
    {
      "inputs": [
        {
          "internalType": "uint256",
          "name": "newGranularity",
          "type": "uint256"
        }
      ],
      "name": "updateGranularity",
      "outputs": [],
      "stateMutability": "nonpayable",
      "type": "function"
    },
    {
      "inputs": [
        {
          "internalType": "address",
          "name": "newPauser",
          "type": "address"
        }
      ],
      "name": "updatePauser",
      "outputs": [],
      "stateMutability": "nonpayable",
      "type": "function"
    },
    {
      "inputs": [
        {
          "internalType": "address",
          "name": "newPendingOwner",
          "type": "address"
        }
      ],
      "name": "updatePendingOwner",
      "outputs": [],
      "stateMutability": "nonpayable",
      "type": "function"
    },
    {
      "inputs": [],
      "name": "validFrom",
      "outputs": [
        {
          "internalType": "uint256",
          "name": "",
          "type": "uint256"
        }
      ],
      "stateMutability": "view",
      "type": "function"
    },
    {
      "inputs": [],
      "name": "validTo",
      "outputs": [
        {
          "internalType": "uint256",
          "name": "",
          "type": "uint256"
        }
      ],
      "stateMutability": "view",
      "type": "function"
    }
  ],
  "transactionHash": "0x9d09d541f5610c32078d80200db61d6c58752eb18c64bcdc6d9485ac5976b1b5",
  "args": [
    "0x8250f4aF4B972684F7b336503E2D6dFeDeB1487a",
    "0x427BC8694ea59f063b7Caa43e3DD77D416922250",
    4,
    12,
    {
      "multiplierBase": 0,
      "bufferBase": 900000,
      "multiplierCalldata": 0,
      "bufferCalldata": 17000
    },
    {
      "multiplierBase": "1100000000000000000",
      "bufferBase": 100000,
      "multiplierCalldata": "1100000000000000000",
      "bufferCalldata": 0
    },
    4200
  ],
  "numDeployments": 1,
  "solcInputHash": "c00e0b6ab696ec04bf536435476c1cf2",
  "bytecode": "0x610220346200019257620043513881900390601f8201601f19168301906001600160401b038211848310176200019757829160405283398101906101a0808284031262000192578151906001600160a01b039081831683036200019257602084015191821682036200019257604084015190606085015194620000868760808301620001ad565b956200009861010098898401620001ad565b93610180809301519560805260a05260c052855160e052602086015187526060604087015196610120978852015193610140948552610160908152835182526020840151835260606040850151946101c09586520151946101e095865261020096875260405197614155998a620001fc8b396080518a6112e1015260a0518a81816114b20152611aa2015260c0518a81816109d90152611ad1015260e0518a613145015251896130c00152518861316d0152518761310f015251866130e8015251856131b4015251846131d7015251836131fd0152518261322301525181818161020e01528181610eee01528181611bbf0152611f3c0152f35b600080fd5b634e487b7160e01b600052604160045260246000fd5b91908260809103126200019257604051608081016001600160401b0381118282101762000197576040526060808294805184526020810151602085015260408101516040850152015191015256fe608060405260043610156200001357600080fd5b60003560e01c8063032bb4431462002c775780631b7d635714620024d75780631e298b90146200189d57806320cbccc21462001851578063316ed345146200180457806332878cc91462001791578063344e0f8a14620017455780633f4ba83a146200165057806341c6a70f14620014d557806345f84c16146200147a578063554bab3c14620013b1578063556f0dc714620013055780635c60da1b14620012945780635c975abb14620012355780636311c46414620011f35780637368a8ce1462000e615780637893d9361462000d5b5780637bbf4a3f1462000ceb5780638456cb591462000bc65780638da5cb5b1462000b535780639d57c4311462000b165780639fa6a6e31462000ad15780639fd0506d1462000a5e578063a81a267714620009fc578063a88780ef14620009a1578063b20caf45146200092e578063b5ee69551462000865578063b6a5d7de1462000788578063b91816111462000737578063c0c53b8b14620004c1578063c7f7fb90146200046d578063cd3bb38c14620003f9578063e30c39781462000386578063ebbc496514620002375763f98d06f014620001c157600080fd5b34620002325760007ffffffffffffffffffffffffffffffffffffffffffffffffffffffffffffffffc3601126200023257602060405173ffffffffffffffffffffffffffffffffffffffff7f0000000000000000000000000000000000000000000000000000000000000000168152f35b600080fd5b34620002325760007ffffffffffffffffffffffffffffffffffffffffffffffffffffffffffffffffc36011262000232577f675c83682abbc3e7dd47e40515a778fbbde4393395c3dd3588244203c3e47883805473ffffffffffffffffffffffffffffffffffffffff81169081330362000356577fe7742ddf0fecd2926e7ef4d6d6e91a7b2f0b1f8805b78953dac8454e86273ed255807f4ffd725fc4a22075e9ec71c59edf9c38cdeb588a91b24fc5b61388c5be41282b600080a2330362000326576000905560007f69f201bc2089b9be6195d876d97a0136b4cf56bbf8986a52dcb50697f7d1cac58180a2005b60246040517f99bf6359000000000000000000000000000000000000000000000000000000008152336004820152fd5b60246040517fd0d5e1b0000000000000000000000000000000000000000000000000000000008152336004820152fd5b34620002325760007ffffffffffffffffffffffffffffffffffffffffffffffffffffffffffffffffc360112620002325760207f675c83682abbc3e7dd47e40515a778fbbde4393395c3dd3588244203c3e478835473ffffffffffffffffffffffffffffffffffffffff60405191168152f35b34620002325760007ffffffffffffffffffffffffffffffffffffffffffffffffffffffffffffffffc3601126200023257620004696200043862003199565b6040519182918291909160608060808301948051845260208101516020850152604081015160408501520151910152565b0390f35b34620002325760007ffffffffffffffffffffffffffffffffffffffffffffffffffffffffffffffffc3601126200023257602073ffffffffffffffffffffffffffffffffffffffff60005416604051908152f35b34620002325760607ffffffffffffffffffffffffffffffffffffffffffffffffffffffffffffffffc360112620002325760043573ffffffffffffffffffffffffffffffffffffffff80821680920362000232576024358181168091036200023257604435918216820362000232577f6fee9688c285c5c5c97d6a1a29adced674e6b2ad0888b8ad2116b58a8b3ea248600181541015620007065760019055303b151580620006fd575b620006c157303b151580620006f4575b620006c157337fe7742ddf0fecd2926e7ef4d6d6e91a7b2f0b1f8805b78953dac8454e86273ed255337f4ffd725fc4a22075e9ec71c59edf9c38cdeb588a91b24fc5b61388c5be41282b600080a2303b151580620006eb575b620006c1577f2b50211693ec91bcfe327771928b74a8f475c508d53e86fca4153bcf0f0e8776557f5b5cbfa852c5bd03e540eba853f8faf28a604a4d82bee1091096bfaea14d08c3557fffffffffffffffffffffffff00000000000000000000000000000000000000006000541617600055600060408051620006578162002d38565b8281526001602082015201526801000000000000000060055560007f2801b00eb06461cf9fcb9758b5fafd884ff06a86177386f73b6c49f0bf5a5af0557fbe9b076dc5b65990cca9dd9d7366682482e7817a6f6bc7f4faf4dc32af497f32602060405160018152a1005b60046040517fb9a621e1000000000000000000000000000000000000000000000000000000008152fd5b506000620005d4565b5060006200057b565b5060006200056b565b60246040517f3db738da00000000000000000000000000000000000000000000000000000000815260016004820152fd5b34620002325760207ffffffffffffffffffffffffffffffffffffffffffffffffffffffffffffffffc360112620002325760206200077e6200077862002e6d565b620032c9565b6040519015158152f35b34620002325760207ffffffffffffffffffffffffffffffffffffffffffffffffffffffffffffffffc360112620002325760043573ffffffffffffffffffffffffffffffffffffffff80821680920362000232577fe7742ddf0fecd2926e7ef4d6d6e91a7b2f0b1f8805b78953dac8454e86273ed254339116036200032657806000526001602052604060002060017fffffffffffffffffffffffffffffffffffffffffffffffffffffffffffffff008254161790557f6acfd92212f0ec670af78f8ba2273e4a85ac17023475650c25be0440602bff2d600080a2005b34620002325760207ffffffffffffffffffffffffffffffffffffffffffffffffffffffffffffffffc3601126200023257620008a062002e6d565b7fe7742ddf0fecd2926e7ef4d6d6e91a7b2f0b1f8805b78953dac8454e86273ed2549073ffffffffffffffffffffffffffffffffffffffff9182339116036200032657807f675c83682abbc3e7dd47e40515a778fbbde4393395c3dd3588244203c3e4788355167f69f201bc2089b9be6195d876d97a0136b4cf56bbf8986a52dcb50697f7d1cac5600080a2005b34620002325760007ffffffffffffffffffffffffffffffffffffffffffffffffffffffffffffffffc3601126200023257602073ffffffffffffffffffffffffffffffffffffffff7f2b50211693ec91bcfe327771928b74a8f475c508d53e86fca4153bcf0f0e87765416604051908152f35b34620002325760007ffffffffffffffffffffffffffffffffffffffffffffffffffffffffffffffffc360112620002325760206040517f00000000000000000000000000000000000000000000000000000000000000008152f35b34620002325760207ffffffffffffffffffffffffffffffffffffffffffffffffffffffffffffffffc36011262000232576004356000526002602052602073ffffffffffffffffffffffffffffffffffffffff60406000205416604051908152f35b34620002325760007ffffffffffffffffffffffffffffffffffffffffffffffffffffffffffffffffc360112620002325760207f18e50ee9696440d335192aeeeffc26f47782eaa914f1700d8ad36d6d7f7261b35473ffffffffffffffffffffffffffffffffffffffff60405191168152f35b34620002325760007ffffffffffffffffffffffffffffffffffffffffffffffffffffffffffffffffc3601126200023257602062000b0e62002ec3565b604051908152f35b34620002325760007ffffffffffffffffffffffffffffffffffffffffffffffffffffffffffffffffc36011262000232576020604051610e108152f35b34620002325760007ffffffffffffffffffffffffffffffffffffffffffffffffffffffffffffffffc360112620002325760207fe7742ddf0fecd2926e7ef4d6d6e91a7b2f0b1f8805b78953dac8454e86273ed25473ffffffffffffffffffffffffffffffffffffffff60405191168152f35b34620002325760007ffffffffffffffffffffffffffffffffffffffffffffffffffffffffffffffffc360112620002325773ffffffffffffffffffffffffffffffffffffffff807f18e50ee9696440d335192aeeeffc26f47782eaa914f1700d8ad36d6d7f7261b35416331415908162000cbc575b5062000c8c5760017f3d13b7e57307bea7f94c474c597247d2da93d7de9136f8e123ed6525f50bbcec557f9e87fac88ff661f02d44f95383c817fece4bce600a3dab7a54406878b965e752600080a1005b60246040517ff7987a92000000000000000000000000000000000000000000000000000000008152336004820152fd5b90507fe7742ddf0fecd2926e7ef4d6d6e91a7b2f0b1f8805b78953dac8454e86273ed254163314158162000c3b565b34620002325760207ffffffffffffffffffffffffffffffffffffffffffffffffffffffffffffffffc360112620002325760043573ffffffffffffffffffffffffffffffffffffffff811680910362000232576000526001602052602060ff604060002054166040519015158152f35b34620002325760407ffffffffffffffffffffffffffffffffffffffffffffffffffffffffffffffffc3601126200023257600435602435907fe7742ddf0fecd2926e7ef4d6d6e91a7b2f0b1f8805b78953dac8454e86273ed25473ffffffffffffffffffffffffffffffffffffffff33911603620003265762000deb816000526003602052604060002054151590565b62000e375780600052600360205281604060002055816000526004602052806040600020557f6a3eb77720f63e0b51253c3a4397f2dd326d8bcdc0700e2e8397d702a8b02100600080a3005b60046040517ff0253cdc000000000000000000000000000000000000000000000000000000008152fd5b3462000232576020807ffffffffffffffffffffffffffffffffffffffffffffffffffffffffffffffffc36011262000232576004358060005260038252604060002054604051907fb5ec0261000000000000000000000000000000000000000000000000000000008252600482015273ffffffffffffffffffffffffffffffffffffffff908381602481857f0000000000000000000000000000000000000000000000000000000000000000165afa9081156200110657600091620011bf575b501562001195577fe7742ddf0fecd2926e7ef4d6d6e91a7b2f0b1f8805b78953dac8454e86273ed25481339116036200032657816000526002835280604060002054166200116b5762000f81826000526003602052604060002054151590565b1562001141576040517f8129fc1c00000000000000000000000000000000000000000000000000000000848201526004815262000fbe8162002d8f565b60405190610741908183019083821067ffffffffffffffff8311176200111257604062000ffd928594620039df8639308152818982015201906200345b565b03906000f08015620011065716620010548173ffffffffffffffffffffffffffffffffffffffff166000527f81796b4965de195665289d95668a8a9e7020858e15f5341c42bcf9951c1768ad602052604060002090565b60017fffffffffffffffffffffffffffffffffffffffffffffffffffffffffffffff0082541617905560405191817f4fe45192317a7d3ad19c3eaa395c0c3a1b7a0f53c3536fb96764c3561a8e9dad600080a280600052600284526040600020827fffffffffffffffffffffffff0000000000000000000000000000000000000000825416179055817fb37c10e9bd31f2f04a1985d7ae7c9fd566192aa02f769929da69b972f73ff995600080a38152f35b6040513d6000823e3d90fd5b7f4e487b7100000000000000000000000000000000000000000000000000000000600052604160045260246000fd5b60046040517f267646d7000000000000000000000000000000000000000000000000000000008152fd5b60046040517f953ec95c000000000000000000000000000000000000000000000000000000008152fd5b60046040517f22445848000000000000000000000000000000000000000000000000000000008152fd5b620011e49150843d8611620011eb575b620011db818362002dac565b81019062003057565b8462000f21565b503d620011cf565b34620002325760207ffffffffffffffffffffffffffffffffffffffffffffffffffffffffffffffffc36011262000232576200046962000438600435620030a6565b34620002325760007ffffffffffffffffffffffffffffffffffffffffffffffffffffffffffffffffc360112620002325760207f3d13b7e57307bea7f94c474c597247d2da93d7de9136f8e123ed6525f50bbcec546040519015158152f35b34620002325760007ffffffffffffffffffffffffffffffffffffffffffffffffffffffffffffffffc3601126200023257602060405173ffffffffffffffffffffffffffffffffffffffff7f0000000000000000000000000000000000000000000000000000000000000000168152f35b34620002325760007ffffffffffffffffffffffffffffffffffffffffffffffffffffffffffffffffc3601126200023257600060408051620013478162002d38565b82815282602082015201526060604051620013628162002d38565b6fffffffffffffffffffffffffffffffff60055467ffffffffffffffff80821693848152604060208201918385831c168352019260801c83526040519485525116602084015251166040820152f35b34620002325760207ffffffffffffffffffffffffffffffffffffffffffffffffffffffffffffffffc3601126200023257620013ec62002e6d565b7fe7742ddf0fecd2926e7ef4d6d6e91a7b2f0b1f8805b78953dac8454e86273ed2549073ffffffffffffffffffffffffffffffffffffffff9182339116036200032657807f18e50ee9696440d335192aeeeffc26f47782eaa914f1700d8ad36d6d7f7261b355167fa4336c0cb1e245b95ad204faed7e940d6dc999684fd8b5e1ff597a0c4efca8ab600080a2005b34620002325760007ffffffffffffffffffffffffffffffffffffffffffffffffffffffffffffffffc360112620002325760206040517f00000000000000000000000000000000000000000000000000000000000000008152f35b34620002325760207ffffffffffffffffffffffffffffffffffffffffffffffffffffffffffffffffc36011262000232576004357fe7742ddf0fecd2926e7ef4d6d6e91a7b2f0b1f8805b78953dac8454e86273ed25473ffffffffffffffffffffffffffffffffffffffff3391160362000326576200155362002ec3565b9080156200162657600554908160801c8311156200162657610e10811162001626577f1a5059878e785140a1fb5c714f4e1431d5ef2b6dcdd5edbdc61ffe4a76dd10459260409267ffffffffffffffff8091851c1690845190620015b78262002d38565b82825284166020820152846fffffffffffffffffffffffffffffffff84169101527fffffffffffffffffffffffffffffffff000000000000000000000000000000008260801b16906fffffffffffffffff000000000000000084861b16171760055582519182526020820152a1005b60046040517f19136990000000000000000000000000000000000000000000000000000000008152fd5b34620002325760007ffffffffffffffffffffffffffffffffffffffffffffffffffffffffffffffffc360112620002325773ffffffffffffffffffffffffffffffffffffffff807f18e50ee9696440d335192aeeeffc26f47782eaa914f1700d8ad36d6d7f7261b35416331415908162001716575b5062000c8c5760007f3d13b7e57307bea7f94c474c597247d2da93d7de9136f8e123ed6525f50bbcec557fa45f47fdea8a1efdd9029a5691c7f759c32b7c698632b563573e155625d16933600080a1005b90507fe7742ddf0fecd2926e7ef4d6d6e91a7b2f0b1f8805b78953dac8454e86273ed2541633141581620016c5565b34620002325760207ffffffffffffffffffffffffffffffffffffffffffffffffffffffffffffffffc360112620002325760043560005260036020526020604060002054604051908152f35b34620002325760007ffffffffffffffffffffffffffffffffffffffffffffffffffffffffffffffffc360112620002325760207f5b5cbfa852c5bd03e540eba853f8faf28a604a4d82bee1091096bfaea14d08c35473ffffffffffffffffffffffffffffffffffffffff60405191168152f35b34620002325760207ffffffffffffffffffffffffffffffffffffffffffffffffffffffffffffffffc360112620002325760206200077e6004356000526003602052604060002054151590565b34620002325760207ffffffffffffffffffffffffffffffffffffffffffffffffffffffffffffffffc360112620002325760043560005260046020526020604060002054604051908152f35b60607ffffffffffffffffffffffffffffffffffffffffffffffffffffffffffffffffc360112620002325760043567ffffffffffffffff81116200023257620018eb90369060040162002e07565b6044359067ffffffffffffffff8211620002325736602383011215620002325781600401359067ffffffffffffffff82116200023257366024838501011162000232578115620024c25762001941815162002f82565b9060405191620019518362002d8f565b6001835260005b602080821015620019755790606060209282870101520162001958565b50509192909381602462001989826200324a565b9262001999604051948562002dac565b828452016020830137600060208383010152620019b68462003005565b52620019c28362003005565b508351917fffffffffffffffffffffffffffffffffffffffffffffffffffffffffffffffe062001a0f620019f68562002dee565b9462001a06604051968762002dac565b80865262002dee565b0136602085013760005b855181101562001a865762001a4762001a33828862003042565b516000526003602052604060002054151590565b1562001141578062001a5e62001a80928862003042565b51600052600360205260406000205462001a79828762003042565b5262002fd7565b62001a19565b5091939092936024359062001af762001ac862001ace62001ac87f00000000000000000000000000000000000000000000000000000000000000008662003098565b62003944565b937f00000000000000000000000000000000000000000000000000000000000000009062003098565b6040519687927f4716e9c50000000000000000000000000000000000000000000000000000000084526084840160806004860152825180915260a4850190602060a48260051b8801019401916000905b828210620024705750505050839267ffffffffffffffff62001b988482947ffffffffffffffffffffffffffffffffffffffffffffffffffffffffffffffffc8860009b980301602489015262003293565b9316604485015216606483015203813473ffffffffffffffffffffffffffffffffffffffff7f0000000000000000000000000000000000000000000000000000000000000000165af1938415620011065760009462002388575b5060005b845181101562001dbd57602062001c0e828762003042565b5101515160070b906040602062001c26838962003042565b51015101516006600391820b01907fffffffffffffffffffffffffffffffffffffffffffffffffffffffff800000008212637fffffff83131762001d08570b9162001c8962001c836000851294851560001462001db457620034bb565b6200361c565b921562001d665762001c9b906200361c565b91801562001d37577fffffffffffffffffffffffffffffffffffffffffffffffffffffffffffffffff81147f800000000000000000000000000000000000000000000000000000000000000084141662001d085762001d0292055b62001a79828662003042565b62001bf6565b7f4e487b7100000000000000000000000000000000000000000000000000000000600052601160045260246000fd5b7f4e487b7100000000000000000000000000000000000000000000000000000000600052601260045260246000fd5b828102927f80000000000000000000000000000000000000000000000000000000000000008114600083121662001d0857818405149015171562001d0857620f424062001d02920562001cf6565b600003620034bb565b509250905b600090602435825b855181101562001edf5762001de0818762003042565b5160005260206002815273ffffffffffffffffffffffffffffffffffffffff604060002054168162001e13848962003042565b51606460405162001e248162002d38565b878152838101928352600060408201958a1515875260405196879586947f8fdd594700000000000000000000000000000000000000000000000000000000865251600486015251602485015251151560448401525af1918215620011065760009262001ebd575b505062001ea4575b62001e9e9062002fd7565b62001dca565b9262001eb462001e9e9162002fd7565b93905062001e93565b62001ed79250803d10620011eb57620011db818362002dac565b878062001e8b565b838062001ee857005b62001ef381620030a6565b90604051907f48b6404d00000000000000000000000000000000000000000000000000000000825260209273ffffffffffffffffffffffffffffffffffffffff928481600481877f0000000000000000000000000000000000000000000000000000000000000000165afa908115620011065760009162002352575b5062001fcb9262001f809162002eaf565b600060405162001f908162002d72565b5262001f9e5a5a9062003285565b94825162001fdf8285015162001fc5670de0b6b3a76400008098819562001fc58d62002e91565b62002eaf565b0462001fd8489362002e91565b9062003098565b0492606060408201519101516040517fde26c4a1000000000000000000000000000000000000000000000000000000008152836004820152600060248201526000604482015273420000000000000000000000000000000000000f918482604481865afa91821562001106576000926200231d575b50604051927f519b4bd30000000000000000000000000000000000000000000000000000000084528584600481845afa9384156200110657600094620022e8575b506040517ff45e65d80000000000000000000000000000000000000000000000000000000081528681600481855afa94851562001106578791600096620022ae575b50600495620020e69162002eaf565b91604051958680927f313ce5670000000000000000000000000000000000000000000000000000000082525afa80156200110657899460009162002273575b50846200215c62002164969762001fc56200215562001fc597966200214e62001fd897620034bb565b9062003611565b9762002e91565b049162002e91565b04936200219262002181866200217b878762003098565b62003098565b6200218b620034e2565b9062002eaf565b049460005416620021a38662003896565b813b1562000232576000916024839260405194859384927f379607f500000000000000000000000000000000000000000000000000000000845260048401525af18015620011065762002261575b5062002221857f5b5cbfa852c5bd03e540eba853f8faf28a604a4d82bee1091096bfaea14d08c354339062003635565b6040519586528501526040840152606083015260808201527ffa0333956d06e335c550bd5fc4ac9c003c6545e371331b1071fa4d5d8519d6c160a03392a2005b6200226c9062002d23565b86620021f1565b8093929550878092503d8311620022a6575b62002291818362002dac565b81010312620002325790518893908462002125565b503d62002285565b95509085813d8111620022e0575b620022c8818362002dac565b8101031262000232579351938690620020e6620020d7565b503d620022bc565b9093508581813d831162002315575b62002303818362002dac565b81010312620002325751928b62002095565b503d620022f7565b9091508481813d83116200234a575b62002338818362002dac565b81010312620002325751908a62002054565b503d6200232c565b90508481813d831162002380575b6200236c818362002dac565b8101031262000232575162001fcb62001f6f565b503d62002360565b9093503d806000833e6200239d818362002dac565b810190602081830312620002325780519067ffffffffffffffff821162000232570181601f820112156200023257805190620023d98262002dee565b92620023e9604051948562002dac565b828452602084016020610120809502840101928284116200023257602001905b8382106200241e575050505050928462001bf2565b84828403126200023257602085916040516200243a8162002d38565b845181526200244c86848701620033f3565b838201526200245f8660a08701620033f3565b604082015281520191019062002409565b9193946020620024af827fffffffffffffffffffffffffffffffffffffffffffffffffffffffffffffff5c600195979a9b84950301865289516200345b565b9701920192018b96959493919262001b47565b9150620024d0825162002f82565b9062001dc2565b34620002325760807ffffffffffffffffffffffffffffffffffffffffffffffffffffffffffffffffc360112620002325767ffffffffffffffff60043581811162000232576200252c90369060040162002e07565b602435918083116200023257366023840112156200023257826004013591620025558362002dee565b9362002565604051958662002dac565b83855260208501906024829560051b820101903682116200023257602401915b81831062002c48575050506044358281116200023257620025ab90369060040162002e07565b916064359081116200023257620025c790369060040162002e07565b90620025d262003199565b6000604051620025e28162002d72565b525a94825190811591821562002c3b575b821562002c2e575b821562002c21575b50811562002b01575b5062002ad75760005b8251811015620026f9576200262b818462003042565b51600052600260205273ffffffffffffffffffffffffffffffffffffffff908160406000205416916200265f828a62003042565b51166200266d828862003042565b516200267a838862003042565b5193803b1562000232576000928360649260405197889586947f3c4c6a280000000000000000000000000000000000000000000000000000000086526004860152602485015260448401525af19182156200110657620026e192620026e7575b5062002fd7565b62002615565b620026f29062002d23565b88620026da565b5062002707855a9062003285565b9062001fcb815162002733602084015162001fc5670de0b6b3a76400008095819562001fc58a62002e91565b0491606060408201519101516040517fde26c4a100000000000000000000000000000000000000000000000000000000815260206004820152366024820152366000604483013760006044368301015273420000000000000000000000000000000000000f916020826044817fffffffffffffffffffffffffffffffffffffffffffffffffffffffffffffffe0601f3601168101030181865afa918215620011065760009262002a9d575b50604051927f519b4bd3000000000000000000000000000000000000000000000000000000008452602084600481845afa938415620011065760009462002a63575b50604051937ff45e65d8000000000000000000000000000000000000000000000000000000008552602085600481855afa948515620011065760009562002a26575b506200287360049560209262002eaf565b91604051958680927f313ce5670000000000000000000000000000000000000000000000000000000082525afa801562001106578694600091620029e7575b50846200215c620028db969762001fc56200215562001fc597966200214e62001fd897620034bb565b0490620028ed62002181838562003098565b049173ffffffffffffffffffffffffffffffffffffffff60005416620029138462003896565b813b1562000232576000916024839260405194859384927f379607f500000000000000000000000000000000000000000000000000000000845260048401525af180156200110657620029d5575b5062002991837f5b5cbfa852c5bd03e540eba853f8faf28a604a4d82bee1091096bfaea14d08c354339062003635565b604051938452600060208501526040840152606083015260808201527ffa0333956d06e335c550bd5fc4ac9c003c6545e371331b1071fa4d5d8519d6c160a03392a2005b620029e09062002d23565b8462002961565b92919450506020823d60201162002a1d575b8162002a086020938362002dac565b810103126200023257905185939084620028b2565b3d9150620029f9565b94506020853d60201162002a5a575b8162002a446020938362002dac565b8101031262000232579351936200287362002862565b3d915062002a35565b9093506020813d60201162002a94575b8162002a826020938362002dac565b81010312620002325751928862002820565b3d915062002a73565b9091506020813d60201162002ace575b8162002abc6020938362002dac565b810103126200023257519087620027de565b3d915062002aad565b60046040517fb043fd7b000000000000000000000000000000000000000000000000000000008152fd5b6040517f1b7d63570000000000000000000000000000000000000000000000000000000060208201526080602482015291508162002b4360a482018662003293565b917fffffffffffffffffffffffffffffffffffffffffffffffffffffffffffffffdc928383820301604484015260208b519182815201919060005b81811062002bf1575050508262002ba88262002be6958562002bb995030160648601528a62003293565b908382030160848401528762003293565b037fffffffffffffffffffffffffffffffffffffffffffffffffffffffffffffffe0810183528262002dac565b51361415876200260c565b825173ffffffffffffffffffffffffffffffffffffffff1684528694506020938401939092019160010162002b7e565b8551141591508862002603565b86518114159250620025fb565b88518114159250620025f3565b823573ffffffffffffffffffffffffffffffffffffffff81168103620002325781526020928301920162002585565b34620002325760207ffffffffffffffffffffffffffffffffffffffffffffffffffffffffffffffffc360112620002325760043573ffffffffffffffffffffffffffffffffffffffff81168103620002325760ff62002d1760209273ffffffffffffffffffffffffffffffffffffffff166000527f81796b4965de195665289d95668a8a9e7020858e15f5341c42bcf9951c1768ad602052604060002090565b54166040519015158152f35b67ffffffffffffffff81116200111257604052565b6060810190811067ffffffffffffffff8211176200111257604052565b6080810190811067ffffffffffffffff8211176200111257604052565b6020810190811067ffffffffffffffff8211176200111257604052565b6040810190811067ffffffffffffffff8211176200111257604052565b90601f7fffffffffffffffffffffffffffffffffffffffffffffffffffffffffffffffe0910116810190811067ffffffffffffffff8211176200111257604052565b67ffffffffffffffff8111620011125760051b60200190565b81601f82011215620002325780359162002e218362002dee565b9262002e31604051948562002dac565b808452602092838086019260051b82010192831162000232578301905b82821062002e5d575050505090565b8135815290830190830162002e4e565b6004359073ffffffffffffffffffffffffffffffffffffffff821682036200023257565b90670de0b6b3a76400009182810292818404149015171562001d0857565b8181029291811591840414171562001d0857565b60055467ffffffffffffffff90608081901c421162002f775716905b6000914262002efa5762002ef7919250600062002eaf565b90565b7fffffffffffffffffffffffffffffffffffffffffffffffffffffffffffffffff420142811162002f4a578162002f319162003611565b6001810180911162002f4a5762002ef792935062002eaf565b6024847f4e487b710000000000000000000000000000000000000000000000000000000081526011600452fd5b60401c169062002edf565b9062002f8e8262002dee565b62002f9d604051918262002dac565b8281527fffffffffffffffffffffffffffffffffffffffffffffffffffffffffffffffe062002fcd829462002dee565b0190602036910137565b7fffffffffffffffffffffffffffffffffffffffffffffffffffffffffffffffff811462001d085760010190565b805115620030135760200190565b7f4e487b7100000000000000000000000000000000000000000000000000000000600052603260045260246000fd5b8051821015620030135760209160051b010190565b908160209103126200023257518015158103620002325790565b60405190620030808262002d55565b60006060838281528260208201528260408201520152565b9190820180921162001d0857565b620030b062003071565b50620031346200310d620030e5837f000000000000000000000000000000000000000000000000000000000000000062002eaf565b927f000000000000000000000000000000000000000000000000000000000000000062002eaf565b7f000000000000000000000000000000000000000000000000000000000000000062003098565b60405191620031438362002d55565b7f0000000000000000000000000000000000000000000000000000000000000000835260208301527f00000000000000000000000000000000000000000000000000000000000000006040830152606082015290565b620031a362003071565b50604051620031b28162002d55565b7f000000000000000000000000000000000000000000000000000000000000000081527f000000000000000000000000000000000000000000000000000000000000000060208201527f000000000000000000000000000000000000000000000000000000000000000060408201527f0000000000000000000000000000000000000000000000000000000000000000606082015290565b67ffffffffffffffff81116200111257601f017fffffffffffffffffffffffffffffffffffffffffffffffffffffffffffffffe01660200190565b9190820391821162001d0857565b90815180825260208080930193019160005b828110620032b4575050505090565b835185529381019392810192600101620032a5565b6040517fc45a015500000000000000000000000000000000000000000000000000000000815273ffffffffffffffffffffffffffffffffffffffff918216916020918281600481875afa9081156200110657600091620033af575b501691604051907f032bb44300000000000000000000000000000000000000000000000000000000825260048201528181602481865afa90811562001106576000916200338d575b501562003386576001916000525260ff6040600020541690565b5050600090565b620033a89150823d8411620011eb57620011db818362002dac565b386200336c565b8381813d8311620033eb575b620033c7818362002dac565b81010312620033e75751908282168203620033e457503862003324565b80fd5b5080fd5b503d620033bb565b919082608091031262000232576040516200340e8162002d55565b809280518060070b810362000232578252602081015167ffffffffffffffff811681036200023257602083015260408101518060030b810362000232576040830152606090810151910152565b919082519283825260005b848110620034a65750507fffffffffffffffffffffffffffffffffffffffffffffffffffffffffffffffe0601f8460006020809697860101520116010190565b60208183018101518483018201520162003466565b604d811162001d0857600a0a90565b519069ffffffffffffffffffff821682036200023257565b600460a073ffffffffffffffffffffffffffffffffffffffff7f2b50211693ec91bcfe327771928b74a8f475c508d53e86fca4153bcf0f0e87765416604051928380927ffeaf968c0000000000000000000000000000000000000000000000000000000082525afa9081156200110657600091620035bb575b50670de0b6b3a76400009081810291818305149015171562001d08576305f5e1009005600081126200358a5790565b602490604051907f501f289e0000000000000000000000000000000000000000000000000000000082526004820152fd5b9060a0823d821162003608575b81620035d760a0938362002dac565b81010312620033e45750620035ec81620034ca565b5062003600608060208301519201620034ca565b50386200355b565b3d9150620035c8565b811562001d37570490565b90620f42409182810292818405149015171562001d0857565b916200370f9160008073ffffffffffffffffffffffffffffffffffffffff8096169260405194602097888701927fa9059cbb0000000000000000000000000000000000000000000000000000000084521660248701526044860152604485526200369f8562002d55565b60405194620036ae8662002d8f565b8786527f5361666545524332303a206c6f772d6c6576656c2063616c6c206661696c656488870152519082855af13d15620037bc573d91620036f0836200324a565b9262003700604051948562002dac565b83523d60008785013e620037c0565b805190816200371d57505050565b82806200372f93830101910162003057565b15620037385750565b608490604051907f08c379a00000000000000000000000000000000000000000000000000000000082526004820152602a60248201527f5361666545524332303a204552433230206f7065726174696f6e20646964206e60448201527f6f742073756363656564000000000000000000000000000000000000000000006064820152fd5b6060915b919290156200383e5750815115620037d6575090565b3b15620037e05790565b60646040517f08c379a000000000000000000000000000000000000000000000000000000000815260206004820152601d60248201527f416464726573733a2063616c6c20746f206e6f6e2d636f6e74726163740000006044820152fd5b825190915015620038525750805190602001fd5b62003892906040519182917f08c379a00000000000000000000000000000000000000000000000000000000083526020600484015260248301906200345b565b0390fd5b60009080620038a6575050600090565b7fffffffffffffffffffffffffffffffffffffffffffffffffffffffffffffffff8101908111620039175764e8d4a5100090049060018201809211620038ea575090565b807f4e487b7100000000000000000000000000000000000000000000000000000000602492526011600452fd5b6024827f4e487b710000000000000000000000000000000000000000000000000000000081526011600452fd5b67ffffffffffffffff908181116200395a571690565b60846040517f08c379a000000000000000000000000000000000000000000000000000000000815260206004820152602660248201527f53616665436173743a2076616c756520646f65736e27742066697420696e203660448201527f34206269747300000000000000000000000000000000000000000000000000006064820152fdfe608060409080825261074180380380916100198285610350565b8339810190828183031261034b5761003081610373565b6020828101516001600160401b039391929184821161034b57019084601f8301121561034b5781519161006283610387565b9261006f88519485610350565b8084528484019685828401011161034b57868561008c93016103a2565b803b156102f9578551635c60da1b60e01b80825292916001600160a01b0316908481600481855afa9081156102ee576000916102b9575b503b1561025c577fa3f0ad74e5423aebfd80d3ef4346578335a9a72aeaee59ff6cb3582b35133d5080546001600160a01b03191682179055865192817f1cf3b03a6cf19fa2baba4df148e9dcabedea7f8a5c07840e207e5c089be95d3e600080a2825115801590610254575b610142575b87516102c890816104798239f35b6004848693819382525afa9182156102495760009261020f575b5085519360608501908111858210176101f9578652602784527f416464726573733a206c6f772d6c6576656c2064656c65676174652063616c6c83850152660819985a5b195960ca1b84870152516101e3946000918291845af4903d156101f0573d6101c781610387565b906101d488519283610350565b8152600081943d92013e6103c5565b5038808080808080610134565b606092506103c5565b634e487b7160e01b600052604160045260246000fd5b90918382813d8311610242575b6102268183610350565b8101031261023f575061023890610373565b903861015c565b80fd5b503d61021c565b86513d6000823e3d90fd5b50600061012f565b865162461bcd60e51b815260048101859052603060248201527f455243313936373a20626561636f6e20696d706c656d656e746174696f6e206960448201526f1cc81b9bdd08184818dbdb9d1c9858dd60821b6064820152608490fd5b908582813d83116102e7575b6102cf8183610350565b8101031261023f57506102e190610373565b386100c3565b503d6102c5565b88513d6000823e3d90fd5b855162461bcd60e51b815260048101849052602560248201527f455243313936373a206e657720626561636f6e206973206e6f74206120636f6e6044820152641d1c9858dd60da1b6064820152608490fd5b600080fd5b601f909101601f19168101906001600160401b038211908210176101f957604052565b51906001600160a01b038216820361034b57565b6001600160401b0381116101f957601f01601f191660200190565b60005b8381106103b55750506000910152565b81810151838201526020016103a5565b9192901561042757508151156103d9575090565b3b156103e25790565b60405162461bcd60e51b815260206004820152601d60248201527f416464726573733a2063616c6c20746f206e6f6e2d636f6e74726163740000006044820152606490fd5b82519091501561043a5750805190602001fd5b6044604051809262461bcd60e51b82526020600483015261046a81518092816024860152602086860191016103a2565b601f01601f19168101030190fdfe6080806040523661011d5760208160048173ffffffffffffffffffffffffffffffffffffffff7fa3f0ad74e5423aebfd80d3ef4346578335a9a72aeaee59ff6cb3582b35133d5054167f5c60da1b0000000000000000000000000000000000000000000000000000000082525afa90811561011157600091610082575b506101f5565b6020903d8211610109575b7fffffffffffffffffffffffffffffffffffffffffffffffffffffffffffffffe0601f830116810181811067ffffffffffffffff8211176100dc576100d6935060405201610214565b3861007c565b6024847f4e487b710000000000000000000000000000000000000000000000000000000081526041600452fd5b3d915061008d565b6040513d6000823e3d90fd5b6004602073ffffffffffffffffffffffffffffffffffffffff7fa3f0ad74e5423aebfd80d3ef4346578335a9a72aeaee59ff6cb3582b35133d505416604051928380927f5c60da1b0000000000000000000000000000000000000000000000000000000082525afa9081156101115760009161019957506101f5565b60203d81116101ee575b7fffffffffffffffffffffffffffffffffffffffffffffffffffffffffffffffe0601f820116820182811067ffffffffffffffff8211176100dc576100d69350604052810190610266565b503d6101a3565b6000808092368280378136915af43d82803e15610210573d90f35b3d90fd5b7fffffffffffffffffffffffffffffffffffffffffffffffffffffffffffffff8060209101126102615760805173ffffffffffffffffffffffffffffffffffffffff811681036102615790565b600080fd5b90816020910312610261575173ffffffffffffffffffffffffffffffffffffffff81168103610261579056fea2646970667358221220daf86900acfb28e586ea058dac4858519c232f66a9b314650fd6d1ad7f6a688964736f6c63430008130033a2646970667358221220026f1a44dcdc3f4eb659dca27298421be7d2a81f00a242f04a4bdb69ec28c22364736f6c63430008130033",
  "devdoc": {
    "details": "Additionally incentivizes keepers with L1 rollup fees according to the Optimism spec",
    "kind": "dev",
    "methods": {
      "acceptOwner()": {
        "details": "Can only be called by the pending owner to ensure correctness. Calls to the `_beforeAcceptOwner` hook      to perform logic before updating ownership."
      },
      "associate(bytes32,bytes32)": {
        "params": {
          "id": "The oracle id",
          "underlyingId": "The underlying price feed id within the oracle's specific implementation"
        }
      },
      "authorize(address)": {
        "params": {
          "factory": "The factory to authorize"
        }
      },
      "authorized(address)": {
        "params": {
          "caller": "The caller to check"
        },
        "returns": {
          "_0": "Whether the caller is authorized"
        }
      },
      "commit(bytes32[],uint256,bytes)": {
        "details": "Accepts both requested and non-requested versions.      Requested versions will pay out a keeper reward, non-requested versions will not.      Accepts any publish time in the underlying price message, as long as it is within the validity window,      which means its possible for publish times to be slightly out of order with respect to versions.      Batched updates are supported by passing in a list of price feed ids along with a valid batch update data.",
        "params": {
          "data": "The update data to commit",
          "ids": "The list of price feed ids to commit",
          "version": "The oracle version to commit"
        }
      },
      "create(bytes32)": {
        "params": {
          "id": "The id of the oracle to create"
        },
        "returns": {
          "newOracle": "The newly created oracle instance"
        }
      },
      "current()": {
        "details": "Rounded up to the nearest granularity",
        "returns": {
          "_0": "The current timestamp"
        }
      },
      "granularity()": {
        "returns": {
          "_0": "The granularity"
        }
      },
      "initialize(address,address,address)": {
        "params": {
          "oracleFactory_": "The root oracle factory"
        }
      },
      "instances(address)": {
        "params": {
          "instance": "The instance to check"
        },
        "returns": {
          "_0": "Whether the instance is valid"
        }
      },
      "pause()": {
        "details": "Can only be called by the pauser"
      },
      "settle(bytes32[],address[],uint256[],uint256[])": {
        "details": "Pays out a keeper incentive if all supplied local settlement callbacks succeed      Each array must be the same length, each index is a separate corresponding callback entry",
        "params": {
          "ids": "The list of price feed ids to settle",
          "markets": "The list of markets to settle",
          "maxCounts": "The list of maximum number of settlement callbacks to perform before exiting",
          "versions": "The list of versions to settle"
        }
      },
      "unpause()": {
        "details": "Can only be called by the pauser"
      },
      "updateGranularity(uint256)": {
        "params": {
          "newGranularity": "The new granularity"
        }
      },
      "updatePauser(address)": {
        "details": "Can only be called by the current owner",
        "params": {
          "newPauser": "New pauser address"
        }
      },
      "updatePendingOwner(address)": {
        "details": "Can only be called by the current owner      New owner does not take affect until that address calls `acceptOwner()`",
        "params": {
          "newPendingOwner": "New pending owner address"
        }
      }
    },
    "title": "PythFactory_Optimism",
    "version": 1
  },
  "userdoc": {
    "kind": "user",
    "methods": {
      "acceptOwner()": {
        "notice": "Accepts and transfers the ownership of the contract to the pending owner"
      },
      "associate(bytes32,bytes32)": {
        "notice": "Associates an oracle id with an underlying id"
      },
      "authorize(address)": {
        "notice": "Authorizes a factory's instances to request from this factory's instances"
      },
      "authorized(address)": {
        "notice": "Returns whether a caller is authorized to request from this factory's instances"
      },
      "commit(bytes32[],uint256,bytes)": {
        "notice": "Commits the price to specified version"
      },
      "commitKeepConfig(uint256)": {
        "notice": "Returns the keep config for commit"
      },
      "create(bytes32)": {
        "notice": "Creates a new oracle instance"
      },
      "current()": {
        "notice": "Returns the current timestamp"
      },
      "granularity()": {
        "notice": "Returns the granularity"
      },
      "implementation()": {
        "notice": "The instance implementation address"
      },
      "initialize(address,address,address)": {
        "notice": "Initializes the contract state"
      },
      "instances(address)": {
        "notice": "Returns whether the instance is valid"
      },
      "pause()": {
        "notice": "Pauses the contract"
      },
      "settle(bytes32[],address[],uint256[],uint256[])": {
        "notice": "Performs a list of local settlement callbacks"
      },
      "settleKeepConfig()": {
        "notice": "Returns the keep config for settle"
      },
      "unpause()": {
        "notice": "Unpauses the contract"
      },
      "updateGranularity(uint256)": {
        "notice": "Updates the granularity"
      },
      "updatePauser(address)": {
        "notice": "Updates the new pauser"
      },
      "updatePendingOwner(address)": {
        "notice": "Updates the new pending owner"
      }
    },
    "notice": "Optimism Kept Oracle implementation for Pyth price feeds.",
    "version": 1
  },
  "storageLayout": {
    "storage": [
      {
        "astId": 4071,
        "contract": "@equilibria/perennial-v2-oracle/contracts/pyth/PythFactory_Optimism.sol:PythFactory_Optimism",
        "label": "oracleFactory",
        "offset": 0,
        "slot": "0",
        "type": "t_contract(IOracleFactory)3997"
      },
      {
        "astId": 4077,
        "contract": "@equilibria/perennial-v2-oracle/contracts/pyth/PythFactory_Optimism.sol:PythFactory_Optimism",
        "label": "callers",
        "offset": 0,
        "slot": "1",
        "type": "t_mapping(t_contract(IFactory)25488,t_bool)"
      },
      {
        "astId": 4083,
        "contract": "@equilibria/perennial-v2-oracle/contracts/pyth/PythFactory_Optimism.sol:PythFactory_Optimism",
        "label": "oracles",
        "offset": 0,
        "slot": "2",
        "type": "t_mapping(t_bytes32,t_contract(IOracleProvider)14908)"
      },
      {
        "astId": 4088,
        "contract": "@equilibria/perennial-v2-oracle/contracts/pyth/PythFactory_Optimism.sol:PythFactory_Optimism",
        "label": "toUnderlyingId",
        "offset": 0,
        "slot": "3",
        "type": "t_mapping(t_bytes32,t_bytes32)"
      },
      {
        "astId": 4093,
        "contract": "@equilibria/perennial-v2-oracle/contracts/pyth/PythFactory_Optimism.sol:PythFactory_Optimism",
        "label": "fromUnderlyingId",
        "offset": 0,
        "slot": "4",
        "type": "t_mapping(t_bytes32,t_bytes32)"
      },
      {
        "astId": 4097,
        "contract": "@equilibria/perennial-v2-oracle/contracts/pyth/PythFactory_Optimism.sol:PythFactory_Optimism",
        "label": "_granularity",
        "offset": 0,
        "slot": "5",
        "type": "t_struct(Granularity)3580_storage"
      }
    ],
    "types": {
      "t_bool": {
        "encoding": "inplace",
        "label": "bool",
        "numberOfBytes": "1"
      },
      "t_bytes32": {
        "encoding": "inplace",
        "label": "bytes32",
        "numberOfBytes": "32"
      },
      "t_contract(IFactory)25488": {
        "encoding": "inplace",
        "label": "contract IFactory",
        "numberOfBytes": "20"
      },
      "t_contract(IOracleFactory)3997": {
        "encoding": "inplace",
        "label": "contract IOracleFactory",
        "numberOfBytes": "20"
      },
      "t_contract(IOracleProvider)14908": {
        "encoding": "inplace",
        "label": "contract IOracleProvider",
        "numberOfBytes": "20"
      },
      "t_mapping(t_bytes32,t_bytes32)": {
        "encoding": "mapping",
        "key": "t_bytes32",
        "label": "mapping(bytes32 => bytes32)",
        "numberOfBytes": "32",
        "value": "t_bytes32"
      },
      "t_mapping(t_bytes32,t_contract(IOracleProvider)14908)": {
        "encoding": "mapping",
        "key": "t_bytes32",
        "label": "mapping(bytes32 => contract IOracleProvider)",
        "numberOfBytes": "32",
        "value": "t_contract(IOracleProvider)14908"
      },
      "t_mapping(t_contract(IFactory)25488,t_bool)": {
        "encoding": "mapping",
        "key": "t_contract(IFactory)25488",
        "label": "mapping(contract IFactory => bool)",
        "numberOfBytes": "32",
        "value": "t_bool"
      },
      "t_struct(Granularity)3580_storage": {
        "encoding": "inplace",
        "label": "struct IKeeperFactory.Granularity",
        "members": [
          {
            "astId": 3575,
            "contract": "@equilibria/perennial-v2-oracle/contracts/pyth/PythFactory_Optimism.sol:PythFactory_Optimism",
            "label": "latestGranularity",
            "offset": 0,
            "slot": "0",
            "type": "t_uint64"
          },
          {
            "astId": 3577,
            "contract": "@equilibria/perennial-v2-oracle/contracts/pyth/PythFactory_Optimism.sol:PythFactory_Optimism",
            "label": "currentGranularity",
            "offset": 8,
            "slot": "0",
            "type": "t_uint64"
          },
          {
            "astId": 3579,
            "contract": "@equilibria/perennial-v2-oracle/contracts/pyth/PythFactory_Optimism.sol:PythFactory_Optimism",
            "label": "effectiveAfter",
            "offset": 16,
            "slot": "0",
            "type": "t_uint128"
          }
        ],
        "numberOfBytes": "32"
      },
      "t_uint128": {
        "encoding": "inplace",
        "label": "uint128",
        "numberOfBytes": "16"
      },
      "t_uint64": {
        "encoding": "inplace",
        "label": "uint64",
        "numberOfBytes": "8"
      }
    }
  }
}