{
  "address": "0x3a5358300BFFcF2F13AF8c6D2Ede0E5580deD9D8",
  "abi": [
    {
      "inputs": [],
      "name": "AccountStorageInvalidError",
      "type": "error"
    },
    {
      "inputs": [],
      "name": "AccountStorageInvalidError",
      "type": "error"
    },
    {
      "inputs": [],
      "name": "CheckpointStorageInvalidError",
      "type": "error"
    },
    {
      "inputs": [],
      "name": "CheckpointStorageInvalidError",
      "type": "error"
    },
    {
      "inputs": [
        {
          "internalType": "uint256",
          "name": "value",
          "type": "uint256"
        }
      ],
      "name": "Fixed6OverflowError",
      "type": "error"
    },
    {
      "inputs": [
        {
          "internalType": "uint256",
          "name": "version",
          "type": "uint256"
        }
      ],
      "name": "InitializableAlreadyInitializedError",
      "type": "error"
    },
    {
      "inputs": [],
      "name": "InitializableNotInitializingError",
      "type": "error"
    },
    {
      "inputs": [],
      "name": "InitializableZeroVersionError",
      "type": "error"
    },
    {
      "inputs": [
        {
          "internalType": "address",
          "name": "sender",
          "type": "address"
        }
      ],
      "name": "InstanceNotFactoryError",
      "type": "error"
    },
    {
      "inputs": [
        {
          "internalType": "address",
          "name": "sender",
          "type": "address"
        }
      ],
      "name": "InstanceNotOwnerError",
      "type": "error"
    },
    {
      "inputs": [],
      "name": "InstancePausedError",
      "type": "error"
    },
    {
      "inputs": [],
      "name": "MappingStorageInvalidError",
      "type": "error"
    },
    {
      "inputs": [],
      "name": "MappingStorageInvalidError",
      "type": "error"
    },
    {
      "inputs": [],
      "name": "RegistrationStorageInvalidError",
      "type": "error"
    },
    {
      "inputs": [],
      "name": "RegistrationStorageInvalidError",
      "type": "error"
    },
    {
      "inputs": [],
      "name": "StrategyLibInsufficientMarginError",
      "type": "error"
    },
    {
      "inputs": [],
      "name": "StrategyLibInsufficientMarginError",
      "type": "error"
    },
    {
      "inputs": [
        {
          "internalType": "int256",
          "name": "value",
          "type": "int256"
        }
      ],
      "name": "UFixed6UnderflowError",
      "type": "error"
    },
    {
      "inputs": [],
      "name": "VaultDepositLimitExceededError",
      "type": "error"
    },
    {
      "inputs": [],
      "name": "VaultExistingOrderError",
      "type": "error"
    },
    {
      "inputs": [],
      "name": "VaultIncorrectAssetError",
      "type": "error"
    },
    {
      "inputs": [],
      "name": "VaultInsufficientMinimumError",
      "type": "error"
    },
    {
      "inputs": [],
      "name": "VaultMarketDoesNotExistError",
      "type": "error"
    },
    {
      "inputs": [],
      "name": "VaultMarketExistsError",
      "type": "error"
    },
    {
      "inputs": [],
      "name": "VaultNotMarketError",
      "type": "error"
    },
    {
      "inputs": [],
      "name": "VaultNotOperatorError",
      "type": "error"
    },
    {
      "inputs": [],
      "name": "VaultNotSingleSidedError",
      "type": "error"
    },
    {
      "inputs": [],
      "name": "VaultParameterStorageInvalidError",
      "type": "error"
    },
    {
      "inputs": [],
      "name": "VaultParameterStorageInvalidError",
      "type": "error"
    },
    {
      "inputs": [],
      "name": "VaultRedemptionLimitExceededError",
      "type": "error"
    },
    {
      "anonymous": false,
      "inputs": [
        {
          "indexed": false,
          "internalType": "uint256",
          "name": "version",
          "type": "uint256"
        }
      ],
      "name": "Initialized",
      "type": "event"
    },
    {
      "anonymous": false,
      "inputs": [
        {
          "indexed": true,
          "internalType": "uint256",
          "name": "marketId",
          "type": "uint256"
        },
        {
          "indexed": false,
          "internalType": "contract IMarket",
          "name": "market",
          "type": "address"
        }
      ],
      "name": "MarketRegistered",
      "type": "event"
    },
    {
      "anonymous": false,
      "inputs": [
        {
          "indexed": true,
          "internalType": "uint256",
          "name": "marketId",
          "type": "uint256"
        },
        {
          "indexed": false,
          "internalType": "uint256",
          "name": "newWeight",
          "type": "uint256"
        },
        {
          "indexed": false,
          "internalType": "UFixed6",
          "name": "newLeverage",
          "type": "uint256"
        }
      ],
      "name": "MarketUpdated",
      "type": "event"
    },
    {
      "anonymous": false,
      "inputs": [
        {
          "components": [
            {
              "internalType": "UFixed6",
              "name": "cap",
              "type": "uint256"
            }
          ],
          "indexed": false,
          "internalType": "struct VaultParameter",
          "name": "newParameter",
          "type": "tuple"
        }
      ],
      "name": "ParameterUpdated",
      "type": "event"
    },
    {
      "anonymous": false,
      "inputs": [
        {
          "indexed": true,
          "internalType": "address",
          "name": "sender",
          "type": "address"
        },
        {
          "indexed": true,
          "internalType": "address",
          "name": "account",
          "type": "address"
        },
        {
          "indexed": false,
          "internalType": "uint256",
          "name": "version",
          "type": "uint256"
        },
        {
          "indexed": false,
          "internalType": "UFixed6",
          "name": "depositAssets",
          "type": "uint256"
        },
        {
          "indexed": false,
          "internalType": "UFixed6",
          "name": "redeemShares",
          "type": "uint256"
        },
        {
          "indexed": false,
          "internalType": "UFixed6",
          "name": "claimAssets",
          "type": "uint256"
        }
      ],
      "name": "Updated",
      "type": "event"
    },
    {
      "inputs": [
        {
          "components": [
            {
              "components": [
                {
                  "components": [
                    {
                      "components": [
                        {
                          "internalType": "UFixed6",
                          "name": "fundingFee",
                          "type": "uint256"
                        },
                        {
                          "internalType": "UFixed6",
                          "name": "interestFee",
                          "type": "uint256"
                        },
                        {
                          "internalType": "UFixed6",
                          "name": "positionFee",
                          "type": "uint256"
                        },
                        {
                          "internalType": "UFixed6",
                          "name": "oracleFee",
                          "type": "uint256"
                        },
                        {
                          "internalType": "UFixed6",
                          "name": "riskFee",
                          "type": "uint256"
                        },
                        {
                          "internalType": "uint256",
                          "name": "maxPendingGlobal",
                          "type": "uint256"
                        },
                        {
                          "internalType": "uint256",
                          "name": "maxPendingLocal",
                          "type": "uint256"
                        },
                        {
                          "internalType": "UFixed6",
                          "name": "makerRewardRate",
                          "type": "uint256"
                        },
                        {
                          "internalType": "UFixed6",
                          "name": "longRewardRate",
                          "type": "uint256"
                        },
                        {
                          "internalType": "UFixed6",
                          "name": "shortRewardRate",
                          "type": "uint256"
                        },
                        {
                          "internalType": "UFixed6",
                          "name": "settlementFee",
                          "type": "uint256"
                        },
                        {
                          "internalType": "bool",
                          "name": "takerCloseAlways",
                          "type": "bool"
                        },
                        {
                          "internalType": "bool",
                          "name": "makerCloseAlways",
                          "type": "bool"
                        },
                        {
                          "internalType": "bool",
                          "name": "closed",
                          "type": "bool"
                        }
                      ],
                      "internalType": "struct MarketParameter",
                      "name": "marketParameter",
                      "type": "tuple"
                    },
                    {
                      "components": [
                        {
                          "internalType": "UFixed6",
                          "name": "margin",
                          "type": "uint256"
                        },
                        {
                          "internalType": "UFixed6",
                          "name": "maintenance",
                          "type": "uint256"
                        },
                        {
                          "internalType": "UFixed6",
                          "name": "takerFee",
                          "type": "uint256"
                        },
                        {
                          "internalType": "UFixed6",
                          "name": "takerSkewFee",
                          "type": "uint256"
                        },
                        {
                          "internalType": "UFixed6",
                          "name": "takerImpactFee",
                          "type": "uint256"
                        },
                        {
                          "internalType": "UFixed6",
                          "name": "makerFee",
                          "type": "uint256"
                        },
                        {
                          "internalType": "UFixed6",
                          "name": "makerImpactFee",
                          "type": "uint256"
                        },
                        {
                          "internalType": "UFixed6",
                          "name": "makerLimit",
                          "type": "uint256"
                        },
                        {
                          "internalType": "UFixed6",
                          "name": "efficiencyLimit",
                          "type": "uint256"
                        },
                        {
                          "internalType": "UFixed6",
                          "name": "liquidationFee",
                          "type": "uint256"
                        },
                        {
                          "internalType": "UFixed6",
                          "name": "minLiquidationFee",
                          "type": "uint256"
                        },
                        {
                          "internalType": "UFixed6",
                          "name": "maxLiquidationFee",
                          "type": "uint256"
                        },
                        {
                          "components": [
                            {
                              "internalType": "UFixed6",
                              "name": "minRate",
                              "type": "uint256"
                            },
                            {
                              "internalType": "UFixed6",
                              "name": "maxRate",
                              "type": "uint256"
                            },
                            {
                              "internalType": "UFixed6",
                              "name": "targetRate",
                              "type": "uint256"
                            },
                            {
                              "internalType": "UFixed6",
                              "name": "targetUtilization",
                              "type": "uint256"
                            }
                          ],
                          "internalType": "struct UJumpRateUtilizationCurve6",
                          "name": "utilizationCurve",
                          "type": "tuple"
                        },
                        {
                          "components": [
                            {
                              "internalType": "UFixed6",
                              "name": "k",
                              "type": "uint256"
                            },
                            {
                              "internalType": "UFixed6",
                              "name": "max",
                              "type": "uint256"
                            }
                          ],
                          "internalType": "struct PController6",
                          "name": "pController",
                          "type": "tuple"
                        },
                        {
                          "internalType": "UFixed6",
                          "name": "minMargin",
                          "type": "uint256"
                        },
                        {
                          "internalType": "UFixed6",
                          "name": "minMaintenance",
                          "type": "uint256"
                        },
                        {
                          "internalType": "UFixed6",
                          "name": "skewScale",
                          "type": "uint256"
                        },
                        {
                          "internalType": "uint256",
                          "name": "staleAfter",
                          "type": "uint256"
                        },
                        {
                          "internalType": "bool",
                          "name": "makerReceiveOnly",
                          "type": "bool"
                        }
                      ],
                      "internalType": "struct RiskParameter",
                      "name": "riskParameter",
                      "type": "tuple"
                    },
                    {
                      "components": [
                        {
                          "internalType": "uint256",
                          "name": "currentId",
                          "type": "uint256"
                        },
                        {
                          "internalType": "uint256",
                          "name": "latestId",
                          "type": "uint256"
                        },
                        {
                          "internalType": "Fixed6",
                          "name": "collateral",
                          "type": "int256"
                        },
                        {
                          "internalType": "UFixed6",
                          "name": "reward",
                          "type": "uint256"
                        },
                        {
                          "internalType": "uint256",
                          "name": "protection",
                          "type": "uint256"
                        },
                        {
                          "internalType": "address",
                          "name": "protectionInitiator",
                          "type": "address"
                        },
                        {
                          "internalType": "UFixed6",
                          "name": "protectionAmount",
                          "type": "uint256"
                        }
                      ],
                      "internalType": "struct Local",
                      "name": "local",
                      "type": "tuple"
                    },
                    {
                      "components": [
                        {
                          "internalType": "uint256",
                          "name": "timestamp",
                          "type": "uint256"
                        },
                        {
                          "internalType": "UFixed6",
                          "name": "maker",
                          "type": "uint256"
                        },
                        {
                          "internalType": "UFixed6",
                          "name": "long",
                          "type": "uint256"
                        },
                        {
                          "internalType": "UFixed6",
                          "name": "short",
                          "type": "uint256"
                        },
                        {
                          "internalType": "Fixed6",
                          "name": "fee",
                          "type": "int256"
                        },
                        {
                          "internalType": "UFixed6",
                          "name": "keeper",
                          "type": "uint256"
                        },
                        {
                          "internalType": "Fixed6",
                          "name": "collateral",
                          "type": "int256"
                        },
                        {
                          "internalType": "Fixed6",
                          "name": "delta",
                          "type": "int256"
                        },
                        {
                          "components": [
                            {
                              "internalType": "Fixed6",
                              "name": "maker",
                              "type": "int256"
                            },
                            {
                              "internalType": "Fixed6",
                              "name": "long",
                              "type": "int256"
                            },
                            {
                              "internalType": "Fixed6",
                              "name": "short",
                              "type": "int256"
                            }
                          ],
                          "internalType": "struct Invalidation",
                          "name": "invalidation",
                          "type": "tuple"
                        }
                      ],
                      "internalType": "struct Position",
                      "name": "currentAccountPosition",
                      "type": "tuple"
                    },
                    {
                      "components": [
                        {
                          "internalType": "uint256",
                          "name": "timestamp",
                          "type": "uint256"
                        },
                        {
                          "internalType": "UFixed6",
                          "name": "maker",
                          "type": "uint256"
                        },
                        {
                          "internalType": "UFixed6",
                          "name": "long",
                          "type": "uint256"
                        },
                        {
                          "internalType": "UFixed6",
                          "name": "short",
                          "type": "uint256"
                        },
                        {
                          "internalType": "Fixed6",
                          "name": "fee",
                          "type": "int256"
                        },
                        {
                          "internalType": "UFixed6",
                          "name": "keeper",
                          "type": "uint256"
                        },
                        {
                          "internalType": "Fixed6",
                          "name": "collateral",
                          "type": "int256"
                        },
                        {
                          "internalType": "Fixed6",
                          "name": "delta",
                          "type": "int256"
                        },
                        {
                          "components": [
                            {
                              "internalType": "Fixed6",
                              "name": "maker",
                              "type": "int256"
                            },
                            {
                              "internalType": "Fixed6",
                              "name": "long",
                              "type": "int256"
                            },
                            {
                              "internalType": "Fixed6",
                              "name": "short",
                              "type": "int256"
                            }
                          ],
                          "internalType": "struct Invalidation",
                          "name": "invalidation",
                          "type": "tuple"
                        }
                      ],
                      "internalType": "struct Position",
                      "name": "latestAccountPosition",
                      "type": "tuple"
                    },
                    {
                      "components": [
                        {
                          "internalType": "uint256",
                          "name": "timestamp",
                          "type": "uint256"
                        },
                        {
                          "internalType": "UFixed6",
                          "name": "maker",
                          "type": "uint256"
                        },
                        {
                          "internalType": "UFixed6",
                          "name": "long",
                          "type": "uint256"
                        },
                        {
                          "internalType": "UFixed6",
                          "name": "short",
                          "type": "uint256"
                        },
                        {
                          "internalType": "Fixed6",
                          "name": "fee",
                          "type": "int256"
                        },
                        {
                          "internalType": "UFixed6",
                          "name": "keeper",
                          "type": "uint256"
                        },
                        {
                          "internalType": "Fixed6",
                          "name": "collateral",
                          "type": "int256"
                        },
                        {
                          "internalType": "Fixed6",
                          "name": "delta",
                          "type": "int256"
                        },
                        {
                          "components": [
                            {
                              "internalType": "Fixed6",
                              "name": "maker",
                              "type": "int256"
                            },
                            {
                              "internalType": "Fixed6",
                              "name": "long",
                              "type": "int256"
                            },
                            {
                              "internalType": "Fixed6",
                              "name": "short",
                              "type": "int256"
                            }
                          ],
                          "internalType": "struct Invalidation",
                          "name": "invalidation",
                          "type": "tuple"
                        }
                      ],
                      "internalType": "struct Position",
                      "name": "currentPosition",
                      "type": "tuple"
                    },
                    {
                      "internalType": "Fixed6",
                      "name": "latestPrice",
                      "type": "int256"
                    },
                    {
                      "internalType": "UFixed6",
                      "name": "margin",
                      "type": "uint256"
                    },
                    {
                      "internalType": "UFixed6",
                      "name": "closable",
                      "type": "uint256"
                    },
                    {
                      "internalType": "UFixed6",
                      "name": "pendingFee",
                      "type": "uint256"
                    }
                  ],
                  "internalType": "struct MarketStrategyContext[]",
                  "name": "marketContexts",
                  "type": "tuple[]"
                }
              ],
              "internalType": "struct Strategy",
              "name": "strategy",
              "type": "tuple"
            },
            {
              "internalType": "UFixed6",
              "name": "settlementFee",
              "type": "uint256"
            },
            {
              "internalType": "uint256",
              "name": "totalWeight",
              "type": "uint256"
            },
            {
              "internalType": "uint256",
              "name": "currentId",
              "type": "uint256"
            },
            {
              "components": [
                {
                  "internalType": "contract IMarket",
                  "name": "market",
                  "type": "address"
                },
                {
                  "internalType": "uint256",
                  "name": "weight",
                  "type": "uint256"
                },
                {
                  "internalType": "UFixed6",
                  "name": "leverage",
                  "type": "uint256"
                }
              ],
              "internalType": "struct Registration[]",
              "name": "registrations",
              "type": "tuple[]"
            },
            {
              "internalType": "Fixed6[]",
              "name": "collaterals",
              "type": "int256[]"
            },
            {
              "components": [
                {
                  "internalType": "uint256[]",
                  "name": "_ids",
                  "type": "uint256[]"
                }
              ],
              "internalType": "struct Mapping",
              "name": "currentIds",
              "type": "tuple"
            },
            {
              "components": [
                {
                  "internalType": "uint256[]",
                  "name": "_ids",
                  "type": "uint256[]"
                }
              ],
              "internalType": "struct Mapping",
              "name": "latestIds",
              "type": "tuple"
            },
            {
              "components": [
                {
                  "internalType": "UFixed6",
                  "name": "cap",
                  "type": "uint256"
                }
              ],
              "internalType": "struct VaultParameter",
              "name": "parameter",
              "type": "tuple"
            },
            {
              "components": [
                {
                  "internalType": "UFixed6",
                  "name": "deposit",
                  "type": "uint256"
                },
                {
                  "internalType": "UFixed6",
                  "name": "redemption",
                  "type": "uint256"
                },
                {
                  "internalType": "UFixed6",
                  "name": "shares",
                  "type": "uint256"
                },
                {
                  "internalType": "Fixed6",
                  "name": "assets",
                  "type": "int256"
                },
                {
                  "internalType": "UFixed6",
                  "name": "fee",
                  "type": "uint256"
                },
                {
                  "internalType": "UFixed6",
                  "name": "keeper",
                  "type": "uint256"
                },
                {
                  "internalType": "uint256",
                  "name": "count",
                  "type": "uint256"
                }
              ],
              "internalType": "struct Checkpoint",
              "name": "currentCheckpoint",
              "type": "tuple"
            },
            {
              "components": [
                {
                  "internalType": "UFixed6",
                  "name": "deposit",
                  "type": "uint256"
                },
                {
                  "internalType": "UFixed6",
                  "name": "redemption",
                  "type": "uint256"
                },
                {
                  "internalType": "UFixed6",
                  "name": "shares",
                  "type": "uint256"
                },
                {
                  "internalType": "Fixed6",
                  "name": "assets",
                  "type": "int256"
                },
                {
                  "internalType": "UFixed6",
                  "name": "fee",
                  "type": "uint256"
                },
                {
                  "internalType": "UFixed6",
                  "name": "keeper",
                  "type": "uint256"
                },
                {
                  "internalType": "uint256",
                  "name": "count",
                  "type": "uint256"
                }
              ],
              "internalType": "struct Checkpoint",
              "name": "latestCheckpoint",
              "type": "tuple"
            },
            {
              "components": [
                {
                  "internalType": "uint256",
                  "name": "current",
                  "type": "uint256"
                },
                {
                  "internalType": "uint256",
                  "name": "latest",
                  "type": "uint256"
                },
                {
                  "internalType": "UFixed6",
                  "name": "shares",
                  "type": "uint256"
                },
                {
                  "internalType": "UFixed6",
                  "name": "assets",
                  "type": "uint256"
                },
                {
                  "internalType": "UFixed6",
                  "name": "deposit",
                  "type": "uint256"
                },
                {
                  "internalType": "UFixed6",
                  "name": "redemption",
                  "type": "uint256"
                }
              ],
              "internalType": "struct Account",
              "name": "global",
              "type": "tuple"
            },
            {
              "components": [
                {
                  "internalType": "uint256",
                  "name": "current",
                  "type": "uint256"
                },
                {
                  "internalType": "uint256",
                  "name": "latest",
                  "type": "uint256"
                },
                {
                  "internalType": "UFixed6",
                  "name": "shares",
                  "type": "uint256"
                },
                {
                  "internalType": "UFixed6",
                  "name": "assets",
                  "type": "uint256"
                },
                {
                  "internalType": "UFixed6",
                  "name": "deposit",
                  "type": "uint256"
                },
                {
                  "internalType": "UFixed6",
                  "name": "redemption",
                  "type": "uint256"
                }
              ],
              "internalType": "struct Account",
              "name": "local",
              "type": "tuple"
            }
          ],
          "internalType": "struct IVault.Context",
          "name": "context",
          "type": "tuple"
        }
      ],
      "name": "_collateral",
      "outputs": [
        {
          "internalType": "Fixed6",
          "name": "value",
          "type": "int256"
        }
      ],
      "stateMutability": "view",
      "type": "function"
    },
    {
      "inputs": [
        {
          "components": [
            {
              "components": [
                {
                  "components": [
                    {
                      "components": [
                        {
                          "internalType": "UFixed6",
                          "name": "fundingFee",
                          "type": "uint256"
                        },
                        {
                          "internalType": "UFixed6",
                          "name": "interestFee",
                          "type": "uint256"
                        },
                        {
                          "internalType": "UFixed6",
                          "name": "positionFee",
                          "type": "uint256"
                        },
                        {
                          "internalType": "UFixed6",
                          "name": "oracleFee",
                          "type": "uint256"
                        },
                        {
                          "internalType": "UFixed6",
                          "name": "riskFee",
                          "type": "uint256"
                        },
                        {
                          "internalType": "uint256",
                          "name": "maxPendingGlobal",
                          "type": "uint256"
                        },
                        {
                          "internalType": "uint256",
                          "name": "maxPendingLocal",
                          "type": "uint256"
                        },
                        {
                          "internalType": "UFixed6",
                          "name": "makerRewardRate",
                          "type": "uint256"
                        },
                        {
                          "internalType": "UFixed6",
                          "name": "longRewardRate",
                          "type": "uint256"
                        },
                        {
                          "internalType": "UFixed6",
                          "name": "shortRewardRate",
                          "type": "uint256"
                        },
                        {
                          "internalType": "UFixed6",
                          "name": "settlementFee",
                          "type": "uint256"
                        },
                        {
                          "internalType": "bool",
                          "name": "takerCloseAlways",
                          "type": "bool"
                        },
                        {
                          "internalType": "bool",
                          "name": "makerCloseAlways",
                          "type": "bool"
                        },
                        {
                          "internalType": "bool",
                          "name": "closed",
                          "type": "bool"
                        }
                      ],
                      "internalType": "struct MarketParameter",
                      "name": "marketParameter",
                      "type": "tuple"
                    },
                    {
                      "components": [
                        {
                          "internalType": "UFixed6",
                          "name": "margin",
                          "type": "uint256"
                        },
                        {
                          "internalType": "UFixed6",
                          "name": "maintenance",
                          "type": "uint256"
                        },
                        {
                          "internalType": "UFixed6",
                          "name": "takerFee",
                          "type": "uint256"
                        },
                        {
                          "internalType": "UFixed6",
                          "name": "takerSkewFee",
                          "type": "uint256"
                        },
                        {
                          "internalType": "UFixed6",
                          "name": "takerImpactFee",
                          "type": "uint256"
                        },
                        {
                          "internalType": "UFixed6",
                          "name": "makerFee",
                          "type": "uint256"
                        },
                        {
                          "internalType": "UFixed6",
                          "name": "makerImpactFee",
                          "type": "uint256"
                        },
                        {
                          "internalType": "UFixed6",
                          "name": "makerLimit",
                          "type": "uint256"
                        },
                        {
                          "internalType": "UFixed6",
                          "name": "efficiencyLimit",
                          "type": "uint256"
                        },
                        {
                          "internalType": "UFixed6",
                          "name": "liquidationFee",
                          "type": "uint256"
                        },
                        {
                          "internalType": "UFixed6",
                          "name": "minLiquidationFee",
                          "type": "uint256"
                        },
                        {
                          "internalType": "UFixed6",
                          "name": "maxLiquidationFee",
                          "type": "uint256"
                        },
                        {
                          "components": [
                            {
                              "internalType": "UFixed6",
                              "name": "minRate",
                              "type": "uint256"
                            },
                            {
                              "internalType": "UFixed6",
                              "name": "maxRate",
                              "type": "uint256"
                            },
                            {
                              "internalType": "UFixed6",
                              "name": "targetRate",
                              "type": "uint256"
                            },
                            {
                              "internalType": "UFixed6",
                              "name": "targetUtilization",
                              "type": "uint256"
                            }
                          ],
                          "internalType": "struct UJumpRateUtilizationCurve6",
                          "name": "utilizationCurve",
                          "type": "tuple"
                        },
                        {
                          "components": [
                            {
                              "internalType": "UFixed6",
                              "name": "k",
                              "type": "uint256"
                            },
                            {
                              "internalType": "UFixed6",
                              "name": "max",
                              "type": "uint256"
                            }
                          ],
                          "internalType": "struct PController6",
                          "name": "pController",
                          "type": "tuple"
                        },
                        {
                          "internalType": "UFixed6",
                          "name": "minMargin",
                          "type": "uint256"
                        },
                        {
                          "internalType": "UFixed6",
                          "name": "minMaintenance",
                          "type": "uint256"
                        },
                        {
                          "internalType": "UFixed6",
                          "name": "skewScale",
                          "type": "uint256"
                        },
                        {
                          "internalType": "uint256",
                          "name": "staleAfter",
                          "type": "uint256"
                        },
                        {
                          "internalType": "bool",
                          "name": "makerReceiveOnly",
                          "type": "bool"
                        }
                      ],
                      "internalType": "struct RiskParameter",
                      "name": "riskParameter",
                      "type": "tuple"
                    },
                    {
                      "components": [
                        {
                          "internalType": "uint256",
                          "name": "currentId",
                          "type": "uint256"
                        },
                        {
                          "internalType": "uint256",
                          "name": "latestId",
                          "type": "uint256"
                        },
                        {
                          "internalType": "Fixed6",
                          "name": "collateral",
                          "type": "int256"
                        },
                        {
                          "internalType": "UFixed6",
                          "name": "reward",
                          "type": "uint256"
                        },
                        {
                          "internalType": "uint256",
                          "name": "protection",
                          "type": "uint256"
                        },
                        {
                          "internalType": "address",
                          "name": "protectionInitiator",
                          "type": "address"
                        },
                        {
                          "internalType": "UFixed6",
                          "name": "protectionAmount",
                          "type": "uint256"
                        }
                      ],
                      "internalType": "struct Local",
                      "name": "local",
                      "type": "tuple"
                    },
                    {
                      "components": [
                        {
                          "internalType": "uint256",
                          "name": "timestamp",
                          "type": "uint256"
                        },
                        {
                          "internalType": "UFixed6",
                          "name": "maker",
                          "type": "uint256"
                        },
                        {
                          "internalType": "UFixed6",
                          "name": "long",
                          "type": "uint256"
                        },
                        {
                          "internalType": "UFixed6",
                          "name": "short",
                          "type": "uint256"
                        },
                        {
                          "internalType": "Fixed6",
                          "name": "fee",
                          "type": "int256"
                        },
                        {
                          "internalType": "UFixed6",
                          "name": "keeper",
                          "type": "uint256"
                        },
                        {
                          "internalType": "Fixed6",
                          "name": "collateral",
                          "type": "int256"
                        },
                        {
                          "internalType": "Fixed6",
                          "name": "delta",
                          "type": "int256"
                        },
                        {
                          "components": [
                            {
                              "internalType": "Fixed6",
                              "name": "maker",
                              "type": "int256"
                            },
                            {
                              "internalType": "Fixed6",
                              "name": "long",
                              "type": "int256"
                            },
                            {
                              "internalType": "Fixed6",
                              "name": "short",
                              "type": "int256"
                            }
                          ],
                          "internalType": "struct Invalidation",
                          "name": "invalidation",
                          "type": "tuple"
                        }
                      ],
                      "internalType": "struct Position",
                      "name": "currentAccountPosition",
                      "type": "tuple"
                    },
                    {
                      "components": [
                        {
                          "internalType": "uint256",
                          "name": "timestamp",
                          "type": "uint256"
                        },
                        {
                          "internalType": "UFixed6",
                          "name": "maker",
                          "type": "uint256"
                        },
                        {
                          "internalType": "UFixed6",
                          "name": "long",
                          "type": "uint256"
                        },
                        {
                          "internalType": "UFixed6",
                          "name": "short",
                          "type": "uint256"
                        },
                        {
                          "internalType": "Fixed6",
                          "name": "fee",
                          "type": "int256"
                        },
                        {
                          "internalType": "UFixed6",
                          "name": "keeper",
                          "type": "uint256"
                        },
                        {
                          "internalType": "Fixed6",
                          "name": "collateral",
                          "type": "int256"
                        },
                        {
                          "internalType": "Fixed6",
                          "name": "delta",
                          "type": "int256"
                        },
                        {
                          "components": [
                            {
                              "internalType": "Fixed6",
                              "name": "maker",
                              "type": "int256"
                            },
                            {
                              "internalType": "Fixed6",
                              "name": "long",
                              "type": "int256"
                            },
                            {
                              "internalType": "Fixed6",
                              "name": "short",
                              "type": "int256"
                            }
                          ],
                          "internalType": "struct Invalidation",
                          "name": "invalidation",
                          "type": "tuple"
                        }
                      ],
                      "internalType": "struct Position",
                      "name": "latestAccountPosition",
                      "type": "tuple"
                    },
                    {
                      "components": [
                        {
                          "internalType": "uint256",
                          "name": "timestamp",
                          "type": "uint256"
                        },
                        {
                          "internalType": "UFixed6",
                          "name": "maker",
                          "type": "uint256"
                        },
                        {
                          "internalType": "UFixed6",
                          "name": "long",
                          "type": "uint256"
                        },
                        {
                          "internalType": "UFixed6",
                          "name": "short",
                          "type": "uint256"
                        },
                        {
                          "internalType": "Fixed6",
                          "name": "fee",
                          "type": "int256"
                        },
                        {
                          "internalType": "UFixed6",
                          "name": "keeper",
                          "type": "uint256"
                        },
                        {
                          "internalType": "Fixed6",
                          "name": "collateral",
                          "type": "int256"
                        },
                        {
                          "internalType": "Fixed6",
                          "name": "delta",
                          "type": "int256"
                        },
                        {
                          "components": [
                            {
                              "internalType": "Fixed6",
                              "name": "maker",
                              "type": "int256"
                            },
                            {
                              "internalType": "Fixed6",
                              "name": "long",
                              "type": "int256"
                            },
                            {
                              "internalType": "Fixed6",
                              "name": "short",
                              "type": "int256"
                            }
                          ],
                          "internalType": "struct Invalidation",
                          "name": "invalidation",
                          "type": "tuple"
                        }
                      ],
                      "internalType": "struct Position",
                      "name": "currentPosition",
                      "type": "tuple"
                    },
                    {
                      "internalType": "Fixed6",
                      "name": "latestPrice",
                      "type": "int256"
                    },
                    {
                      "internalType": "UFixed6",
                      "name": "margin",
                      "type": "uint256"
                    },
                    {
                      "internalType": "UFixed6",
                      "name": "closable",
                      "type": "uint256"
                    },
                    {
                      "internalType": "UFixed6",
                      "name": "pendingFee",
                      "type": "uint256"
                    }
                  ],
                  "internalType": "struct MarketStrategyContext[]",
                  "name": "marketContexts",
                  "type": "tuple[]"
                }
              ],
              "internalType": "struct Strategy",
              "name": "strategy",
              "type": "tuple"
            },
            {
              "internalType": "UFixed6",
              "name": "settlementFee",
              "type": "uint256"
            },
            {
              "internalType": "uint256",
              "name": "totalWeight",
              "type": "uint256"
            },
            {
              "internalType": "uint256",
              "name": "currentId",
              "type": "uint256"
            },
            {
              "components": [
                {
                  "internalType": "contract IMarket",
                  "name": "market",
                  "type": "address"
                },
                {
                  "internalType": "uint256",
                  "name": "weight",
                  "type": "uint256"
                },
                {
                  "internalType": "UFixed6",
                  "name": "leverage",
                  "type": "uint256"
                }
              ],
              "internalType": "struct Registration[]",
              "name": "registrations",
              "type": "tuple[]"
            },
            {
              "internalType": "Fixed6[]",
              "name": "collaterals",
              "type": "int256[]"
            },
            {
              "components": [
                {
                  "internalType": "uint256[]",
                  "name": "_ids",
                  "type": "uint256[]"
                }
              ],
              "internalType": "struct Mapping",
              "name": "currentIds",
              "type": "tuple"
            },
            {
              "components": [
                {
                  "internalType": "uint256[]",
                  "name": "_ids",
                  "type": "uint256[]"
                }
              ],
              "internalType": "struct Mapping",
              "name": "latestIds",
              "type": "tuple"
            },
            {
              "components": [
                {
                  "internalType": "UFixed6",
                  "name": "cap",
                  "type": "uint256"
                }
              ],
              "internalType": "struct VaultParameter",
              "name": "parameter",
              "type": "tuple"
            },
            {
              "components": [
                {
                  "internalType": "UFixed6",
                  "name": "deposit",
                  "type": "uint256"
                },
                {
                  "internalType": "UFixed6",
                  "name": "redemption",
                  "type": "uint256"
                },
                {
                  "internalType": "UFixed6",
                  "name": "shares",
                  "type": "uint256"
                },
                {
                  "internalType": "Fixed6",
                  "name": "assets",
                  "type": "int256"
                },
                {
                  "internalType": "UFixed6",
                  "name": "fee",
                  "type": "uint256"
                },
                {
                  "internalType": "UFixed6",
                  "name": "keeper",
                  "type": "uint256"
                },
                {
                  "internalType": "uint256",
                  "name": "count",
                  "type": "uint256"
                }
              ],
              "internalType": "struct Checkpoint",
              "name": "currentCheckpoint",
              "type": "tuple"
            },
            {
              "components": [
                {
                  "internalType": "UFixed6",
                  "name": "deposit",
                  "type": "uint256"
                },
                {
                  "internalType": "UFixed6",
                  "name": "redemption",
                  "type": "uint256"
                },
                {
                  "internalType": "UFixed6",
                  "name": "shares",
                  "type": "uint256"
                },
                {
                  "internalType": "Fixed6",
                  "name": "assets",
                  "type": "int256"
                },
                {
                  "internalType": "UFixed6",
                  "name": "fee",
                  "type": "uint256"
                },
                {
                  "internalType": "UFixed6",
                  "name": "keeper",
                  "type": "uint256"
                },
                {
                  "internalType": "uint256",
                  "name": "count",
                  "type": "uint256"
                }
              ],
              "internalType": "struct Checkpoint",
              "name": "latestCheckpoint",
              "type": "tuple"
            },
            {
              "components": [
                {
                  "internalType": "uint256",
                  "name": "current",
                  "type": "uint256"
                },
                {
                  "internalType": "uint256",
                  "name": "latest",
                  "type": "uint256"
                },
                {
                  "internalType": "UFixed6",
                  "name": "shares",
                  "type": "uint256"
                },
                {
                  "internalType": "UFixed6",
                  "name": "assets",
                  "type": "uint256"
                },
                {
                  "internalType": "UFixed6",
                  "name": "deposit",
                  "type": "uint256"
                },
                {
                  "internalType": "UFixed6",
                  "name": "redemption",
                  "type": "uint256"
                }
              ],
              "internalType": "struct Account",
              "name": "global",
              "type": "tuple"
            },
            {
              "components": [
                {
                  "internalType": "uint256",
                  "name": "current",
                  "type": "uint256"
                },
                {
                  "internalType": "uint256",
                  "name": "latest",
                  "type": "uint256"
                },
                {
                  "internalType": "UFixed6",
                  "name": "shares",
                  "type": "uint256"
                },
                {
                  "internalType": "UFixed6",
                  "name": "assets",
                  "type": "uint256"
                },
                {
                  "internalType": "UFixed6",
                  "name": "deposit",
                  "type": "uint256"
                },
                {
                  "internalType": "UFixed6",
                  "name": "redemption",
                  "type": "uint256"
                }
              ],
              "internalType": "struct Account",
              "name": "local",
              "type": "tuple"
            }
          ],
          "internalType": "struct IVault.Context",
          "name": "context",
          "type": "tuple"
        },
        {
          "internalType": "uint256",
          "name": "id",
          "type": "uint256"
        }
      ],
      "name": "_collateralAtId",
      "outputs": [
        {
          "internalType": "Fixed6",
          "name": "value",
          "type": "int256"
        },
        {
          "internalType": "UFixed6",
          "name": "fee",
          "type": "uint256"
        },
        {
          "internalType": "UFixed6",
          "name": "keeper",
          "type": "uint256"
        }
      ],
      "stateMutability": "view",
      "type": "function"
    },
    {
      "inputs": [
        {
          "internalType": "address",
          "name": "account",
          "type": "address"
        }
      ],
      "name": "accounts",
      "outputs": [
        {
          "components": [
            {
              "internalType": "uint256",
              "name": "current",
              "type": "uint256"
            },
            {
              "internalType": "uint256",
              "name": "latest",
              "type": "uint256"
            },
            {
              "internalType": "UFixed6",
              "name": "shares",
              "type": "uint256"
            },
            {
              "internalType": "UFixed6",
              "name": "assets",
              "type": "uint256"
            },
            {
              "internalType": "UFixed6",
              "name": "deposit",
              "type": "uint256"
            },
            {
              "internalType": "UFixed6",
              "name": "redemption",
              "type": "uint256"
            }
          ],
          "internalType": "struct Account",
          "name": "",
          "type": "tuple"
        }
      ],
      "stateMutability": "view",
      "type": "function"
    },
    {
      "inputs": [],
      "name": "asset",
      "outputs": [
        {
          "internalType": "Token18",
          "name": "",
          "type": "address"
        }
      ],
      "stateMutability": "view",
      "type": "function"
    },
    {
      "inputs": [
        {
          "internalType": "uint256",
          "name": "id",
          "type": "uint256"
        }
      ],
      "name": "checkpoints",
      "outputs": [
        {
          "components": [
            {
              "internalType": "UFixed6",
              "name": "deposit",
              "type": "uint256"
            },
            {
              "internalType": "UFixed6",
              "name": "redemption",
              "type": "uint256"
            },
            {
              "internalType": "UFixed6",
              "name": "shares",
              "type": "uint256"
            },
            {
              "internalType": "Fixed6",
              "name": "assets",
              "type": "int256"
            },
            {
              "internalType": "UFixed6",
              "name": "fee",
              "type": "uint256"
            },
            {
              "internalType": "UFixed6",
              "name": "keeper",
              "type": "uint256"
            },
            {
              "internalType": "uint256",
              "name": "count",
              "type": "uint256"
            }
          ],
          "internalType": "struct Checkpoint",
          "name": "",
          "type": "tuple"
        }
      ],
      "stateMutability": "view",
      "type": "function"
    },
    {
      "inputs": [
        {
          "internalType": "UFixed6",
          "name": "shares",
          "type": "uint256"
        }
      ],
      "name": "convertToAssets",
      "outputs": [
        {
          "internalType": "UFixed6",
          "name": "",
          "type": "uint256"
        }
      ],
      "stateMutability": "view",
      "type": "function"
    },
    {
      "inputs": [
        {
          "internalType": "UFixed6",
          "name": "assets",
          "type": "uint256"
        }
      ],
      "name": "convertToShares",
      "outputs": [
        {
          "internalType": "UFixed6",
          "name": "",
          "type": "uint256"
        }
      ],
      "stateMutability": "view",
      "type": "function"
    },
    {
      "inputs": [],
      "name": "factory",
      "outputs": [
        {
          "internalType": "contract IFactory",
          "name": "",
          "type": "address"
        }
      ],
      "stateMutability": "view",
      "type": "function"
    },
    {
      "inputs": [
        {
          "internalType": "Token18",
          "name": "asset_",
          "type": "address"
        },
        {
          "internalType": "contract IMarket",
          "name": "initialMarket",
          "type": "address"
        },
        {
          "internalType": "UFixed6",
          "name": "cap",
          "type": "uint256"
        },
        {
          "internalType": "string",
          "name": "name_",
          "type": "string"
        }
      ],
      "name": "initialize",
      "outputs": [],
      "stateMutability": "nonpayable",
      "type": "function"
    },
    {
      "inputs": [
        {
          "internalType": "uint256",
          "name": "id",
          "type": "uint256"
        }
      ],
      "name": "mappings",
      "outputs": [
        {
          "components": [
            {
              "internalType": "uint256[]",
              "name": "_ids",
              "type": "uint256[]"
            }
          ],
          "internalType": "struct Mapping",
          "name": "",
          "type": "tuple"
        }
      ],
      "stateMutability": "view",
      "type": "function"
    },
    {
      "inputs": [],
      "name": "name",
      "outputs": [
        {
          "internalType": "string",
          "name": "",
          "type": "string"
        }
      ],
      "stateMutability": "view",
      "type": "function"
    },
    {
      "inputs": [],
      "name": "parameter",
      "outputs": [
        {
          "components": [
            {
              "internalType": "UFixed6",
              "name": "cap",
              "type": "uint256"
            }
          ],
          "internalType": "struct VaultParameter",
          "name": "",
          "type": "tuple"
        }
      ],
      "stateMutability": "view",
      "type": "function"
    },
    {
      "inputs": [
        {
          "internalType": "contract IMarket",
          "name": "market",
          "type": "address"
        }
      ],
      "name": "register",
      "outputs": [],
      "stateMutability": "nonpayable",
      "type": "function"
    },
    {
      "inputs": [
        {
          "internalType": "uint256",
          "name": "marketId",
          "type": "uint256"
        }
      ],
      "name": "registrations",
      "outputs": [
        {
          "components": [
            {
              "internalType": "contract IMarket",
              "name": "market",
              "type": "address"
            },
            {
              "internalType": "uint256",
              "name": "weight",
              "type": "uint256"
            },
            {
              "internalType": "UFixed6",
              "name": "leverage",
              "type": "uint256"
            }
          ],
          "internalType": "struct Registration",
          "name": "",
          "type": "tuple"
        }
      ],
      "stateMutability": "view",
      "type": "function"
    },
    {
      "inputs": [
        {
          "internalType": "address",
          "name": "account",
          "type": "address"
        }
      ],
      "name": "settle",
      "outputs": [],
      "stateMutability": "nonpayable",
      "type": "function"
    },
    {
      "inputs": [],
      "name": "totalAssets",
      "outputs": [
        {
          "internalType": "Fixed6",
          "name": "",
          "type": "int256"
        }
      ],
      "stateMutability": "view",
      "type": "function"
    },
    {
      "inputs": [],
      "name": "totalMarkets",
      "outputs": [
        {
          "internalType": "uint256",
          "name": "",
          "type": "uint256"
        }
      ],
      "stateMutability": "view",
      "type": "function"
    },
    {
      "inputs": [],
      "name": "totalShares",
      "outputs": [
        {
          "internalType": "UFixed6",
          "name": "",
          "type": "uint256"
        }
      ],
      "stateMutability": "view",
      "type": "function"
    },
    {
      "inputs": [
        {
          "internalType": "address",
          "name": "account",
          "type": "address"
        },
        {
          "internalType": "UFixed6",
          "name": "depositAssets",
          "type": "uint256"
        },
        {
          "internalType": "UFixed6",
          "name": "redeemShares",
          "type": "uint256"
        },
        {
          "internalType": "UFixed6",
          "name": "claimAssets",
          "type": "uint256"
        }
      ],
      "name": "update",
      "outputs": [],
      "stateMutability": "nonpayable",
      "type": "function"
    },
    {
      "inputs": [
        {
          "internalType": "uint256",
          "name": "marketId",
          "type": "uint256"
        },
        {
          "internalType": "uint256",
          "name": "newWeight",
          "type": "uint256"
        },
        {
          "internalType": "UFixed6",
          "name": "newLeverage",
          "type": "uint256"
        }
      ],
      "name": "updateMarket",
      "outputs": [],
      "stateMutability": "nonpayable",
      "type": "function"
    },
    {
      "inputs": [
        {
          "components": [
            {
              "internalType": "UFixed6",
              "name": "cap",
              "type": "uint256"
            }
          ],
          "internalType": "struct VaultParameter",
          "name": "newParameter",
          "type": "tuple"
        }
      ],
      "name": "updateParameter",
      "outputs": [],
      "stateMutability": "nonpayable",
      "type": "function"
    }
  ],
  "transactionHash": "0xbb95c80a3dca6d97ba6ae494e94545cce144592a329eb0c419ba8f58aba89c49",
  "args": [],
  "numDeployments": 1,
  "solcInputHash": "3f423e6f2134376a9944b77fd482f52c",
  "bytecode": "0x6080806040523461001757615da490816200001d8239f35b600080fdfe60c0604052600436101561001257600080fd5b60003560e01c806301e1d1141461218a57806306fdde031461207a57806307a2d13a1461202757806338d52e0f146120005780633a98ef3914611fe55780634420e48614611e535780635e5c06e214611dd65780636a256b2914611d015780638162486b14611ce35780639fec600b14611973578063a145198c14611843578063a524574914611646578063ad4d4e2914611613578063b8a242521461159a578063c2884e4414611548578063c45a015514611502578063c6e6f5921461149e578063d2c3aaf214610228578063daefe14e146101e5578063ecf053d9146101615763f4ddb5be1461010357600080fd5b3461015c57602036600319011261015c5761011c612b7d565b5060043560005260046020526060610137604060002061560f565b60408051916001600160a01b0381511683526020810151602084015201516040820152f35b600080fd5b3461015c5760208060031936011261015c57606060405161018181612218565b52600435600052600781526101996040600020615558565b906040519181839283526040830191519181808501528251809152816060850193019160005b8281106101ce57505050500390f35b8351855286955093810193928101926001016101bf565b3461015c57602036600319011261015c5760043567ffffffffffffffff811161015c5761022061021b602092369060040161259d565b6142b2565b604051908152f35b3461015c57608036600319011261015c576102416121ee565b600460206001600160a01b037f0aec74a1754fb10877b53c31a29be82096082042eb1fb374ec96fac88c0e621b541660405192838092635c975abb60e01b82525afa9081156109ab57600091611464575b5061143a5761029f613126565b6102a881613cc4565b6102b2828261334b565b6101608101515180606083015260005260076020526102e26102d76040600020615558565b60c0830151906154c8565b15611414576102f46060820151612d50565b60608201526101208101516101608201516103196001600160a01b0360015416615b0f565b9161034b61034661033564e8d4a510006040860151960461594d565b9360606080820151910151906131d8565b61594d565b600081128382810312811690848381031390151617610b245760409203606082015201526060810151600052600760205260406000209160c082015190600080528360205263ffffffff6040600020541661047757815151806113f157506000935b6103b6856123a4565b946103c46040519687612382565b8086526103d3601f19916123a4565b0160005b8181106113bd57505060005b835180518210156104a1576103fd8263ffffffff9261354b565b51116104775763ffffffff8451511690600781049161041c838961354b565b5152602061043c63ffffffff61043384895161354b565b5116938961354b565b51015191600782069260078410156104615761045c9360051b0152612d50565b6103e3565b634e487b7160e01b600052603260045260246000fd5b60046040517ff003e2c3000000000000000000000000000000000000000000000000000000008152fd5b505093915060005b8251811015610530576104bc818461354b565b518160005285602052602060406000209163ffffffff81511663ffffffff1984541617835501519060009160005b600781106105065750506001015561050190612d50565b6104a9565b9092602060019163ffffffff8651169063ffffffff8560051b92831b921b191617940191016104ea565b50925050905b60443591606435926080820151906040519361055185612218565b606085528251610560816123a4565b9061056e6040519283612382565b80825261057d601f19916123a4565b0160005b81811061139a57505085526000915b8351831015610e05579082916105a86004948661354b565b51946105b261457d565b986101c06001600160a01b038851166040519788809263ad4d4e2960e01b82525afa80156109ab57600496600091610dd4575b508a526102e06001600160a01b03885116604051978880927f4549a6290000000000000000000000000000000000000000000000000000000082525afa80156109ab57600090610c5a575b6024965060208b015260e06001600160a01b0388511660405197888092635b4b969560e01b82523060048301525afa80156109ab57600496600091610c2b575b5060408b01526101206001600160a01b03885116604051978880927fa05f99060000000000000000000000000000000000000000000000000000000082525afa9586156109ab57600096610b77575b5060e086015160c08b015260246101606001600160a01b03895116604051928380927f55f575100000000000000000000000000000000000000000000000000000000082523060048301525afa80156109ab578b602092600092610b48575b506107c7610120828460806107d295015261073985806157da565b61079460c08201516040519061074e826122c3565b6000825288820152600160408201528783015160408801516060890151808211600014610b4157505b888a01518082111561096a5750915b6101c08251920151926158fb565b60e082015180821115610b3a57505b60e0820152015160808401516000811315610951576107c190615a36565b906131d8565b60a0830151906131d8565b6101208d0152015193602060808c015101516101008c0152602060408c01510151600181018111610b2457600101945b60408c01515186116109b757885160405163ce813aed60e01b815230600482015260248101889052919061016090839060449082906001600160a01b03165afa9182156109ab576101206109418f929461094b9560009161097a575b508060608501526108736080850151826157da565b61091060c08501519560405196610889886122c3565b600088526020880152600160408801526108da602087015197604085015160608601518082116000146109725750985b60208601998a5180821160001461096a5750916101c08251920151926158fb565b60e08701518082111561096357505b60e087015261090a61010087015191885181811060001461095c5790615a72565b90615a72565b61010085015260a061093884860151608084015160008113600014610951576107c190615a36565b910151906131d8565b9101525195612d50565b94610802565b506107c16000615a36565b5080615a72565b90506108e9565b905091610786565b9050986108b9565b61099e91506101603d610160116109a4575b6109968183612382565b81019061433a565b3861085e565b503d61098c565b6040513d6000823e3d90fd5b509593509598600491979492996101606001600160a01b03825116604051948580927f09218e910000000000000000000000000000000000000000000000000000000082525afa9283156109ab57600093610af8575b506001600160a01b0361016091511694516024604051809781937fa1d0a11300000000000000000000000000000000000000000000000000000000835260048301525afa9081156109ab57610a79610abe938593610ac497600091610ad7575b508060a08501526157da565b610aa5610120820151604083015160808401516080820151905110600014610ace5760c00151906131d8565b610120820152895190610ab8838361354b565b5261354b565b50612d50565b9190939295610590565b506000906131d8565b610af291506101603d610160116109a4576109968183612382565b8e610a6d565b610160919350610b1c6001600160a01b0391833d85116109a4576109968183612382565b939150610a0d565b634e487b7160e01b600052601160045260246000fd5b90506107a3565b9050610777565b6107d2919250610120610b6e6107c7926101603d610160116109a4576109968183612382565b9392505061071e565b909550610120903d61012011610c23575b610b928282612382565b61012081838101031261015c576040805192610bad84612289565b82518452602083015160208501528183015182850152606083015160608501526080830151608085015260a080840151908501528260bf1991810103011261015c5761010090604051610bff81612234565b60c0820151815260e0820151602082015260c0840152015160e0820152948a6106bf565b3d9150610b88565b610c4d915060e03d60e011610c53575b610c458183612382565b81019061395f565b8b610670565b503d610c3b565b506102e03d6102e011610dcd575b610c728188612382565b6102e087828101031261015c5760405190610c8c82612250565b875182526020880151602083015260408801516040830152606088015160608301526080880151608083015260a0808901519083015260c088015160c083015260e088015160e0830152610100808901519083015261012080890151908301526101408089015190830152610160880151610160830152608061017f198983810103011261015c576040908151610d228161226d565b6101808a81015182526101a08b015160208301526101c08b0151848301526101e08b0151606083015284015288018890036101ff19011261015c57602496610dc46102c060405192610d7384612234565b61020093848201518152610220908183015160208201526101a087015261024094858301516101c08801526102608301516101e0880152610280830151908701526102a08201519086015201612d5f565b90820152610630565b503d610c68565b610df891506101c03d6101c011610dfe575b610df08183612382565b8101906138a2565b8b6105e5565b503d610de6565b925093905082526001610e1785615abf565b14611389575b6001610e2882615abf565b14611379575b6001600160a01b038316331415806112b8575b61128e576001610e7d610e5f86610e5a856024356131d8565b6131d8565b8360243511600014611288576024355b878111156112805790615afe565b03611256576002610e98610e908461409f565b602435615afe565b1461122c576002610eb1610eab846140ff565b83615afe565b14611202576024351515806111eb575b61117c57801515806111a6575b61117c57610180820151602081519101510361115257610eed826142b2565b600081131561114757610eff90615a36565b610160830151606001518061111b5750506000935b846024351580611113575b6110fb575b50610f4082610160850151818460243592606089015190614b26565b610f5b82610180850151818460243592606089015190614b26565b60c0610120840151610f7060243582516131d8565b60208201610f7f8682516131d8565b9052815201610f8e8151612d50565b90526001600160a01b0360015416610fa7602435615a1c565b604051907f23b872dd0000000000000000000000000000000000000000000000000000000060208301523360248301523060448301526064820152606481528060a081011067ffffffffffffffff60a0830111176110e5576110e39661101a826110909460a061107d9501604052615b8f565b611024818761360c565b61108b61103c6001600160a01b036001541692615a1c565b6040517fa9059cbb00000000000000000000000000000000000000000000000000000000602082015233602482015260448101919091529283906064820190565b03601f198101845283612382565b615b8f565b6060830151916040519283526024356020840152604083015260608201526001600160a01b038316907ecdda35b21914cc89ca2689f6ada564ebad3ad81f233699e25e44e13ab73f4960803392a3614030565b005b634e487b7160e01b600052604160045260246000fd5b61110c919550602084015190615a72565b9385610f24565b508215610f1f565b611137918181101561113d57611132905b876155fc565b615538565b93610f14565b506111328161112c565b50610eff6000615a36565b60046040517fe4b29524000000000000000000000000000000000000000000000000000000008152fd5b60046040517ff2fbeec4000000000000000000000000000000000000000000000000000000008152fd5b506111d6610140830151602084015190836040820151156000146111dc579050905b8181101561095c5790615a72565b15610ece565b6111e591614f98565b906111c8565b506111fc6020830151602435615afe565b15610ec1565b60046040517fc85650f7000000000000000000000000000000000000000000000000000000008152fd5b60046040517fa9785d3d000000000000000000000000000000000000000000000000000000008152fd5b60046040517fa65ac9fb000000000000000000000000000000000000000000000000000000008152fd5b508690615afe565b83610e6f565b60046040517f7eb267c7000000000000000000000000000000000000000000000000000000008152fd5b50604460206001600160a01b037f0aec74a1754fb10877b53c31a29be82096082042eb1fb374ec96fac88c0e621b5416604051928380927f2637588e0000000000000000000000000000000000000000000000000000000082526001600160a01b03891660048301523360248301525afa9081156109ab5760009161133f575b5015610e41565b90506020813d602011611371575b8161135a60209383612382565b8101031261015c5761136b90612d5f565b85611338565b3d915061134d565b5060406101808201510151610e2e565b610180820151606001519350610e1d565b6020906113ab99969794959961457d565b82828601015201979392959497610581565b6020906040516113cc81612234565b600081526040516113dc816122df565b60e03682378382015282828a010152016103d7565b6000198101908111610b245760079004600181018111610b2457600101936103ad565b6060810151600052600660205261142e60406000206150b9565b61012082015290610536565b60046040517f4b94d2bb000000000000000000000000000000000000000000000000000000008152fd5b90506020813d602011611496575b8161147f60209383612382565b8101031261015c5761149090612d5f565b82610292565b3d9150611472565b3461015c57602036600319011261015c5760206004356114bc612c06565b60008113156114f7576114ce90615a36565b6114d6612ccd565b806114e5575050604051908152f35b611132906114f2936155fc565b610220565b506114ce6000615a36565b3461015c57600036600319011261015c5760206001600160a01b037f0aec74a1754fb10877b53c31a29be82096082042eb1fb374ec96fac88c0e621b5416604051908152f35b3461015c57604036600319011261015c5760043567ffffffffffffffff811161015c5761158761157e606092369060040161259d565b602435906143d9565b9060405192835260208301526040820152f35b3461015c57602036600319011261015c576115b3612bce565b50600435600052600660205260e06115ce60406000206150b9565b60c060405191805183526020810151602084015260408101516040840152606081015160608401526080810151608084015260a081015160a0840152015160c0820152f35b3461015c57600036600319011261015c57600060405161163281612218565b52602061163d61578f565b60405190518152f35b3461015c57606036600319011261015c57600435602435604435906001600160a01b0390817f0aec74a1754fb10877b53c31a29be82096082042eb1fb374ec96fac88c0e621b541660405192638da5cb5b60e01b84526020938481600481865afa9081156109ab5760009161180e575b501633036117de578260049160405192838092635c975abb60e01b82525afa9081156109ab576000916117a9575b5061143a576116f1613126565b6117136116fc6139c0565b611705816131e5565b61170e8161355f565b613fd4565b60035484101561177f577f19de27a5967d3c5ffdfa85f8f33ed63fcae289e86abc970d013e0ae2bc8bb27f9260409285600052600481526117746117598560002061560f565b84838201528386820152876000526004835285600020615696565b8351928352820152a2005b60046040517f04467fe8000000000000000000000000000000000000000000000000000000008152fd5b90508281813d83116117d7575b6117c08183612382565b8101031261015c576117d190612d5f565b856116e4565b503d6117b6565b60246040517f4d193d1f000000000000000000000000000000000000000000000000000000008152336004820152fd5b90508481813d831161183c575b6118258183612382565b8101031261015c5761183690612d3c565b876116b6565b503d61181b565b3461015c5760208060031936011261015c576040519061186282612218565b60043582526001600160a01b03807f0aec74a1754fb10877b53c31a29be82096082042eb1fb374ec96fac88c0e621b541690604051638da5cb5b60e01b81528381600481865afa9081156109ab5760009161193e575b501633036117de578160049160405192838092635c975abb60e01b82525afa9182156109ab57600092611908575b505061143a576110e3906118f8613126565b6119036116fc6139c0565b61309a565b90809250813d8311611937575b61191f8183612382565b8101031261015c5761193090612d5f565b82806118e6565b503d611915565b90508381813d831161196c575b6119558183612382565b8101031261015c5761196690612d3c565b856118b8565b503d61194b565b3461015c57608036600319011261015c5761198c6121ee565b6001600160a01b039060248035838116810361015c5767ffffffffffffffff60643581811161015c573660238201121561015c57806004013591821161015c573684838301011161015c576001957f6fee9688c285c5c5c97d6a1a29adced674e6b2ad0888b8ad2116b58a8b3ea2488781541015611cb3578790557f2801b00eb06461cf9fcb9758b5fafd884ff06a86177386f73b6c49f0bf5a5af095878755303b151580611cab575b611c8157337f0aec74a1754fb10877b53c31a29be82096082042eb1fb374ec96fac88c0e621b55167fffffffffffffffffffffffff0000000000000000000000000000000000000000875416178655611a90600054612b43565b601f8111611c1a575b50600090601f8311600114611b9057938291611ad195600093611b83575b505050600019600383901b1c191690851b17600055612d6c565b6003541561177f577fbe9b076dc5b65990cca9dd9d7366682482e7817a6f6bc7f4faf4dc32af497f3291600060209281805260048452611b31611b166040842061560f565b84868201528360408201528380526004865260408420615696565b817f19de27a5967d3c5ffdfa85f8f33ed63fcae289e86abc970d013e0ae2bc8bb27f604080518681528388820152a2611b79604051611b6f81612218565b604435815261309a565b55604051908152a1005b0101359050868080611ab7565b6000808052601f198416958894937f290decd9548b62a8d60345a988386fc84ba6bc95484008f6362f93160ef3e56393925b888110611c00575084611ad19810611be4575b50505050811b01600055612d6c565b60001960f88660031b161c199201013516905586808080611bd5565b81840183013585558a969094019360209182019101611bc2565b600080527f290decd9548b62a8d60345a988386fc84ba6bc95484008f6362f93160ef3e563601f840160051c81019160208510611c77575b601f0160051c019087905b828110611c6b575050611a99565b60008155018790611c5d565b9091508190611c52565b60046040517fb9a621e1000000000000000000000000000000000000000000000000000000008152fd5b506000611a36565b8588604051907f3db738da0000000000000000000000000000000000000000000000000000000082526004820152fd5b3461015c57600036600319011261015c576020600354604051908152f35b3461015c57602036600319011261015c57611d1a6121ee565b600460206001600160a01b037f0aec74a1754fb10877b53c31a29be82096082042eb1fb374ec96fac88c0e621b541660405192838092635c975abb60e01b82525afa9081156109ab57600091611d9d575b5061143a576110e390611d7c613126565b611d8581613cc4565b611d8f828261334b565b611d988161355f565b614030565b90506020813d8211611dce575b81611db760209383612382565b8101031261015c57611dc890612d5f565b82611d6b565b3d9150611daa565b3461015c57602036600319011261015c576001600160a01b03611df76121ee565b611dff612b9c565b5016600052600560205260c0611e186040600020614b6c565b60a0604051918051835260208101516020840152604081015160408401526060810151606084015260808101516080840152015160a0820152f35b3461015c5760208060031936011261015c57611e6d6121ee565b6001600160a01b0391827f0aec74a1754fb10877b53c31a29be82096082042eb1fb374ec96fac88c0e621b5416604051638da5cb5b60e01b81528281600481855afa80156109ab578591600091611fad575b501633036117de578160049160405192838092635c975abb60e01b82525afa9081156109ab57600091611f78575b5061143a5791611efb613126565b611f066116fc6139c0565b60009060035493818416925b858110611f22576110e385612d6c565b80600052600482528383611f39604060002061560f565b511614611f4e57611f4990612d50565b611f12565b60046040517f499943cd000000000000000000000000000000000000000000000000000000008152fd5b90508181813d8311611fa6575b611f8f8183612382565b8101031261015c57611fa090612d5f565b84611eed565b503d611f85565b809250848092503d8311611fde575b611fc68183612382565b8101031261015c57611fd88591612d3c565b86611ebf565b503d611fbc565b3461015c57600036600319011261015c576020610220612ccd565b3461015c57600036600319011261015c5760206001600160a01b0360015416604051908152f35b3461015c57602036600319011261015c576020600435612045612c06565b600081131561206f5761205790615a36565b61205f612ccd565b90816114e5575050604051908152f35b506120576000615a36565b3461015c57600036600319011261015c5760405160207f506572656e6e69616c205632205661756c743a2000000000000000000000000081830152600090600054906120c582612b43565b916001908181169081156121615750600114612103575b6120ff856120f3818703601f198101835282612382565b604051918291826121a5565b0390f35b90919250600080527f290decd9548b62a8d60345a988386fc84ba6bc95484008f6362f93160ef3e563906000915b84831061214d575050505081016034016120f3826120ff6120dc565b805486840160340152918301918101612131565b8695506120ff969350603492506120f394915060ff1916828401528015150282010192936120dc565b3461015c57600036600319011261015c576020610220612c06565b6020808252825181830181905290939260005b8281106121da57505060409293506000838284010152601f8019910116010190565b8181018601518482016040015285016121b8565b600435906001600160a01b038216820361015c57565b35906001600160a01b038216820361015c57565b6020810190811067ffffffffffffffff8211176110e557604052565b6040810190811067ffffffffffffffff8211176110e557604052565b610260810190811067ffffffffffffffff8211176110e557604052565b6080810190811067ffffffffffffffff8211176110e557604052565b610100810190811067ffffffffffffffff8211176110e557604052565b610120810190811067ffffffffffffffff8211176110e557604052565b6060810190811067ffffffffffffffff8211176110e557604052565b60e0810190811067ffffffffffffffff8211176110e557604052565b60c0810190811067ffffffffffffffff8211176110e557604052565b6101a0810190811067ffffffffffffffff8211176110e557604052565b610140810190811067ffffffffffffffff8211176110e557604052565b6101c0810190811067ffffffffffffffff8211176110e557604052565b67ffffffffffffffff81116110e557604052565b90601f8019910116810190811067ffffffffffffffff8211176110e557604052565b67ffffffffffffffff81116110e55760051b60200190565b3590811515820361015c57565b8092910391610160831261015c57604051906123e4826122a6565b6060829482358452602083013560208501526040830135604085015281830135828501526080830135608085015260a083013560a085015260c083013560c085015260e083013560e085015260ff19011261015c5760405191612446836122c3565b610140610100928381013585526101208101356020860152013560408401520152565b91906020808483031261015c576040519061248382612218565b819480359067ffffffffffffffff821161015c57019280601f8501121561015c5783356124af816123a4565b946124bd6040519687612382565b818652838087019260051b82010192831161015c578301905b8282106124e4575050505052565b813581529083019083016124d6565b91908260e091031261015c5760405161250b816122df565b60c0808294803584526020810135602085015260408101356040850152606081013560608501526080810135608085015260a081013560a08501520135910152565b91908260c091031261015c57604051612565816122fb565b60a080829480358452602081013560208501526040810135604085015260608101356060850152608081013560808501520135910152565b8082039291610460841261015c57604051916125b883612317565b829481359067ffffffffffffffff9182811161015c57830160208186031261015c57604051906125e782612218565b80359084821161015c570185601f8201121561015c578035612608816123a4565b916126166040519384612382565b818352602083016020610a208094028301019189831161015c57602001905b82821061281e575050505081528552602083013560208601526040830135604086015260608084013581870152608084013583811161015c5784019085601f8301121561015c57813591612688836123a4565b926126966040519485612382565b80845260208381860192028301019188831161015c57602001905b8282106127dd5750505050608086015260a083013582811161015c57830184601f8201121561015c578035906126e6826123a4565b916126f46040519384612382565b80835260208084019160051b8301019187831161015c57602001905b8282106127cd5750505060a086015260c083013582811161015c5784612737918501612469565b60c086015260e083013591821161015c57612756846020938501612469565b60e086015260ff19011261015c57610180916103a06127c89260405161277b81612218565b610100808301358252870152610120612796848284016124f3565b908701526127a88361020083016124f3565b6101408701526127bc836102e0830161254d565b6101608701520161254d565b910152565b8135815260209182019101612710565b83828a031261015c57602084916040516127f6816122c3565b6127ff85612204565b81528285013583820152604085013560408201528152019101906126b1565b83828b031261015c5760405161283381612334565b6101c0838c031261015c5760405161284a81612351565b833581526020840135602082015260408401356040820152606084013560608201526080840135608082015260a084013560a082015260c084013560c082015260e084013560e08201526101008401356101008201526101208401356101208201526101408401356101408201526128c561016085016123bc565b6101608201526128d861018085016123bc565b6101808201526128eb6101a085016123bc565b6101a082015281526102e0838c036101bf19011261015c5760405161290f81612250565b6101c084013581526101e0840135602082015261020084013560408201526102208401356060820152610240840135608082015261026084013560a082015261028084013560c08201526102a084013560e08201526102c08401356101008201526102e084013561012082015261030084013561014082015261032084013561016082015260808c8561033f199103011261015c576040516129b08161226d565b6103408501358152610360850135602082015261038085013560408201526103a0850135606082015261018082015260408c856103bf199103011261015c576040516129fb81612234565b6103c085013581526103e085013560208201526101a08201526104008401356101c08201526104208401356101e0820152610440840135610200820152610460840135610220820152612a5161048085016123bc565b610240820152602082015260e0838c0361049f19011261015c578491602091604051612a7c816122df565b6104a086013581526104c0860135848201526104e0860135604082015261050086013560608201526105208601356080820152612abc6105408701612204565b60a082015261056086013560c08201526040820152612adf8d61058087016123c9565b6060820152612af28d6106e087016123c9565b6080820152612b058d61084087016123c9565b60a08201526109a085013560c08201526109c085013560e08201526109e0850135610100820152610a00850135610120820152815201910190612635565b90600182811c92168015612b73575b6020831014612b5d57565b634e487b7160e01b600052602260045260246000fd5b91607f1691612b52565b60405190612b8a826122c3565b60006040838281528260208201520152565b60405190612ba9826122fb565b8160a06000918281528260208201528260408201528260608201528260808201520152565b60405190612bdb826122df565b8160c06000918281528260208201528260408201528260608201528260808201528260a08201520152565b600080805260056020908152612c3b7f05b8ccbb9d4d8fb16ea74ce3c29a41f1b461fbdaff4714a0d9a8eb05499746bc614b6c565b015181526006602052612c50604082206150b9565b90606082015191612c61815161594d565b92828482019485129112908015821691151617612cb957610346816020612c8a93015190614e9c565b91818382039312818412811691841390151617612ca5575090565b80634e487b7160e01b602492526011600452fd5b602482634e487b7160e01b81526011600452fd5b6000805260056020908152612d017f05b8ccbb9d4d8fb16ea74ce3c29a41f1b461fbdaff4714a0d9a8eb05499746bc614b6c565b01516000526006602052612d39612d1b60406000206150b9565b6020612d3060408301516107c1845185614e3c565b91015190615a72565b90565b51906001600160a01b038216820361015c57565b6000198114610b245760010190565b5190811515820361015c57565b7f0aec74a1754fb10877b53c31a29be82096082042eb1fb374ec96fac88c0e621b54604080517f06ae70950000000000000000000000000000000000000000000000000000000081526001600160a01b039493600493602093919084908490879082908b165afa928315612fee5787918591600095613056575b5060248391855194859384927f032bb4430000000000000000000000000000000000000000000000000000000084521697888b840152165afa908115612fee57600091613021575b5015612ff95780517ffc0c546a00000000000000000000000000000000000000000000000000000000815283818681865afa908115612fee57600091612fb6575b5086600154169687911603612f8e5782600094959660448351809781937f095ea7b3000000000000000000000000000000000000000000000000000000008352878b840152811960248401525af18015612f8357612f2f575b7f07796b317344e6f18fa32ed89b6074ad66549cee7fb7b8c3e9f1c42c496f1c5c935060035494612ef886612d50565b600355856000528352612f2881600020825190612f14826122c3565b848252600086830152600084830152615696565b51908152a2565b8284813d8311612f7c575b612f448183612382565b8101031261015c57612f767f07796b317344e6f18fa32ed89b6074ad66549cee7fb7b8c3e9f1c42c496f1c5c94612d5f565b50612ec8565b503d612f3a565b50513d6000823e3d90fd5b8390517faddc4c0d000000000000000000000000000000000000000000000000000000008152fd5b908482813d8311612fe7575b612fcc8183612382565b81010312612fe45750612fde90612d3c565b38612e6f565b80fd5b503d612fc2565b82513d6000823e3d90fd5b8390517f7c04a019000000000000000000000000000000000000000000000000000000008152fd5b908482813d831161304f575b6130378183612382565b81010312612fe4575061304990612d5f565b38612e2e565b503d61302d565b828193929694503d8311613093575b61306f8183612382565b8101031261308f5751908782168203612fe4575091869084906024612de6565b5080fd5b503d613065565b60026130a68251615acc565b146130fc5760208167ffffffffffffffff7f6aa12494b90f1eeec92df49ec47058878b0803a79ba307dead4905555159adc79351166000836040516130ea81612234565b838152015260025560405190518152a1565b60046040517f0f9f8b19000000000000000000000000000000000000000000000000000000008152fd5b6000905b6003548210156131d45781600052600491826020526040926001600160a01b036131568560002061560f565b511690813b1561015c5760009160c483928751948593849263123dd9c560e31b84523090840152811960248401528160448401528160648401528160848401528160a48401525af180156131c9576131b49394506131ba5750612d50565b9061312a565b6131c39061236e565b38610abe565b84513d6000823e3d90fd5b9050565b91908201809211610b2457565b905b610160820191825180516020809201518091119081613315575b501561330f57808451015190600182018092116132fa57600082815260068083526040926132308484206150b9565b94610140870195865261324381886143d9565b9188519260609182850180518a83820193841291129080158216911516176132e657916132e09c9d9e916132d193526080948587015260a08096015251936132c78b51948b8651968a810151968a8c8b01528901906132ba6132aa83516107c18b85614e9c565b938b01916107c18b845192614e3c565b9052528601948551615a72565b9401918251615a72565b90525283525220905190615187565b906131e7565b60248a634e487b7160e01b81526011600452fd5b60246000634e487b7160e01b81526011600452fd5b50509050565b9050600181018091116132fa5761333a60406133459260009081526007855220615558565b60e084015190615450565b38613201565b9190915b610160810192835180516020809201518091119081613515575b501561341a57808551015190600182018092116132fa57600082815260068083526040926133988484206150b9565b9461014088019586526133ab81896143d9565b9188519260609182850180518a83820193841291129080158216911516176132e657916134139c9d9e9f916132d193526080948587015260a08096015251936132c78b51948b8651968a810151968a8c8b01528901906132ba6132aa83516107c18b85614e9c565b919061334f565b506001600160a01b039192935016156135125761018081019081519060208251920151821191826134e6575b505061344f5750565b8051519081600052600660205261346960406000206150b9565b9051906134cf6134c7608084019384519060a0810194855197602083015260608201906134bd60406134ae84518c83860151156000146134d4576107c1905b86615038565b9401916107c186845192614ed1565b9052528451615a72565b938251615a72565b905252565b6134e16107c19187614f98565b6134a8565b61350b9250600052600760205260e06135026040600020615558565b91015190615450565b3880613446565b50565b9050600181018091116132fa5761353a60406135459260009081526007855220615558565b60e085015190615450565b38613369565b80518210156104615760209160051b010190565b9061016061356c836142b2565b9201613586610346825160806060820151910151906131d8565b60009381810391851380158284131691831216176135f857620f42406135e66135c2608093876135129798508082136000146135f15750615a36565b6135e085516135da60a06040830151920151826131d8565b90615a9e565b906155fc565b0491510151906131d8565b9050615a36565b602484634e487b7160e01b81526011600452fd5b9161361f613619846142b2565b9261594d565b808303926000809212818512811691851390151617612ca5576101608401613655610346825160806060820151910151906131d8565b828186039112858212811690868313901516176138135761368b91908381131561380057620f42406135e66135c2608093615a36565b613694846159a8565b156137f9576136c0608086519601918251958481136000146137ef576136b990615a36565b86886146f2565b92825b855181101561373357806136e46136de61371e938a5161354b565b51614a36565b602091826136f2858b61354b565b510151908082111561372b5750905b808210156137235750905b613716838961354b565b510152612d50565b6136c3565b90509061370c565b905090613701565b50919350919350825b825151811015613792578061375e613757613768938861354b565b51516159a8565b1561376d57612d50565b61373c565b61378d61377b82865161354b565b51613786838961354b565b5190613827565b612d50565b50915b81515181101561330f57806137b06137576137c6938761354b565b600281149081156137e4575b506137cb57612d50565b613795565b61378d6137d982855161354b565b51613786838861354b565b6001915014386137bc565b506136b984615a36565b5050915050565b506080620f42406135e66135c286615a36565b602483634e487b7160e01b81526011600452fd5b6001600160a01b0390511660208201519151813b1561015c576040519263123dd9c560e31b845230600485015260248401528260c48160008095819582604485015282606485015260848401528160a48401525af1908115613896575061388b5750565b6138949061236e565b565b604051903d90823e3d90fd5b90816101c091031261015c57604051906138bb82612351565b805182526020810151602083015260408101516040830152606081015160608301526080810151608083015260a081015160a083015260c081015160c083015260e081015160e0830152610100808201519083015261012080820151908301526101408082015190830152610160613934818301612d5f565b90830152610180613946818301612d5f565b908301526139586101a0809201612d5f565b9082015290565b908160e091031261015c5760c060405191613979836122df565b80518352602081015160208401526040810151604084015260608101516060840152608081015160808401526139b160a08201612d3c565b60a0840152015160c082015290565b604051906139cd82612317565b6040516139d981612218565b606090818152835260006020840152600060408401526000818401528060808401528060a0840152604051613a0d81612218565b81815260c084015260405190613a2282612218565b815260e0830152610100820191604051613a3b81612218565b600081528352613a49612bce565b610120820152610140810190613a5d612bce565b8252613a67612b9c565b610160820152613a75612b9c565b6101808201528093613a8561578f565b905260c081015160035490613a998261541e565b905260e0820151613aa98261541e565b9052613ab4816123a4565b613ac16040519182612382565b818152601f19613ad0836123a4565b0160005b818110613cad5750506080830152613aeb816123a4565b613af86040519182612382565b818152601f19613b07836123a4565b0136602083013760a083015260005b818110613b5a5750506101606020916000805260058352613b3a6040600020614b6c565b918291015201516000526006602052613b5660406000206150b9565b9052565b806000526004602052613b70604060002061560f565b9060046101c06001600160a01b038451166040519283809263ad4d4e2960e01b82525afa80156109ab57602493613bf26001600160a01b039260e094600091613c8c575b50613bc98660808b015185610ab8838361354b565b50613bdc602084015160408b01516131d8565b60408a015261014060208a0151910151906131d8565b6020880152511660405193848092635b4b969560e01b82523060048301525afa9182156109ab57613c6892604091600091613c6d575b5060e0860151613c3e846020840151925161354b565b5260c0860151613c51848351925161354b565b520151613c628260a087015161354b565b52612d50565b613b16565b613c86915060e03d60e011610c5357610c458183612382565b38613c28565b613ca791506101c03d6101c011610dfe57610df08183612382565b38613bb4565b602090613cb8612b7d565b82828601015201613ad4565b9060405191613cd283612317565b604051613cde81612218565b606090818152845260006020850152600060408501526000818501528060808501528060a0850152604051613d1281612218565b81815260c085015260405190613d2782612218565b815260e0840152610100830192604051613d4081612218565b600081528452613d4e612bce565b610120820152610140810191613d62612bce565b8352613d6c612b9c565b610160830152613d7a612b9c565b6101808301528194613d8a61578f565b905260c082015160035490613d9e8261541e565b905260e0830151613dae8261541e565b9052613db9816123a4565b613dc66040519182612382565b818152601f19613dd5836123a4565b0160005b818110613fbd5750506080840152613df0816123a4565b613dfd6040519182612382565b818152601f19613e0c836123a4565b0136602083013760a084015260005b818110613e705750506020916001600160a01b03610160921680613e50575b506000805260058352613b3a6040600020614b6c565b60005260058352613e646040600020614b6c565b61018082015238613e3a565b806000526004602052613e86604060002061560f565b9060046101c06001600160a01b038451166040519283809263ad4d4e2960e01b82525afa80156109ab57602493613f086001600160a01b039260e094600091613f9c575b50613edf8660808c015185610ab8838361354b565b50613ef2602084015160408c01516131d8565b60408b015261014060208b0151910151906131d8565b6020890152511660405193848092635b4b969560e01b82523060048301525afa9182156109ab57613f7892604091600091613f7d575b5060e0870151613f54846020840151925161354b565b5260c0870151613f67848351925161354b565b520151613c628260a088015161354b565b613e1b565b613f96915060e03d60e011610c5357610c458183612382565b38613f3e565b613fb791506101c03d6101c011610dfe57610df08183612382565b38613eca565b602090613fc8612b7d565b82828601015201613dd9565b6000805260056020526101608101516138949190614012907f05b8ccbb9d4d8fb16ea74ce3c29a41f1b461fbdaff4714a0d9a8eb05499746bc614c12565b60608101516000526006602052610120604060002091015190615187565b6001600160a01b0361389492168061407d575b50600080526005602052610160810151614012907f05b8ccbb9d4d8fb16ea74ce3c29a41f1b461fbdaff4714a0d9a8eb05499746bc614c12565b6000526005602052614099604060002061018083015190614c12565b38614043565b6140ad610140820151615085565b6140f957612d39906101006140e66140d66140c6612c06565b6000808213156135f15750615a36565b60806101608501510151906131d8565b91015151908181101561095c5790615a72565b50600090565b61014081019161410f8351615085565b6142aa5781519160808082015191604080820151906141306140c6846142b2565b956141406000199780888b6146f2565b936000975b895180518a101561425b578961415a9161354b565b516141658a8a61354b565b51602091828201928351158015614250575b8015614232575b61422457906141bf8a8e94936141ac61419685614a36565b5096826141a3828661354b565b5101519361354b565b5101518086101561090a57508490615a72565b921561422457886141f76141ff946111326142109897958c60c061113297015160008082121560001461421d5750915b0151926155fc565b9251926155fc565b908082101561421657505b98612d50565b97614145565b905061420a565b03916141ef565b505050509761421090612d50565b50808b830151015115801561417e575080606083015101511561417e565b508783015115614177565b509650975097935094505050600161427283615abf565b03614296575050610180600019925b0151015180821015614291575090565b905090565b610180916142a49151614f14565b92614281565b915050600090565b9060016142d764e8d4a510006142d16001600160a01b03845416615b0f565b0461594d565b928160009182935b6142ea575b50505050565b90919294608082015151861015614334576143098660a084015161354b565b51908482820192831291129080158216911516176135f85761432b9095612d50565b929190816142df565b946142e4565b80910390610160821261015c57606060405192614356846122a6565b82518452602083015160208501526040830151604085015281830151828501526080830151608085015260a083015160a085015260c083015160c085015260e083015160e085015260ff19011261015c57604051906143b4826122c3565b6101406101009182810151845261012081015160208501520151604083015282015290565b9190600092600093848093815260076020526040926143f9848320615558565b9682955b88515187101561452b576080916001600160a01b0361441f898587015161354b565b5151169585898c5180518210614519575b5050885163ce813aed60e01b8152306004808301919091526024820192909252610160988990829060449082905afa98891561450f5788996144f0575b505060c0880151918783820193841291129080158216911516176144dd57509160a06144b66144bf936144c595968a01518981136000146144d6575b8981126144ce57906131d8565b970151906131d8565b96612d50565b959390936143fd565b8903906131d8565b50886144a9565b866011602492634e487b7160e01b835252fd5b614507929950803d106109a4576109968183612382565b96388061446d565b8a513d8a823e3d90fd5b614523925061354b565b518938614430565b955095935050509350565b60405190614543826122a6565b8160008082528060208301528060408301528060608301528060808301528060a08301528060c083015260e08201526101006127c8612b7d565b60409081519161458c83612334565b80518361459882612351565b6000809381845281602085015281818501528160608501528160808501528160a08501528160c08501528160e08501526101009082828601526101209483868201526101409084828201526101608581830152856101809181838501526101a093828582015289528186519561460d87612250565b81875281602088015281888801528160608801528160808801528160a08801528160c08801528160e08801528189880152818c8801528601528401528351906146558261226d565b868252866020830152868583015286606083015283015282519061467882612234565b858252856020830152820152836101c0820152836101e082015283610200820152836102208201528361024082015260208501526146b4612bce565b908401526146c0614536565b60608401526146cd614536565b60808401526146da614536565b60a08401528160c08401528160e08401528201520152565b93929193608060a05260a05152614707612bce565b9060a05151519260009560009384975b84518910156147535761420a61473f61474c9260206147368d8a61354b565b510151906131d8565b9660e06147368c8b61354b565b9794614717565b969193955091965061477360a083019460c0840197818952865284615afe565b15614a0c5794845191614785836123a4565b9460409361479585519788612382565b8087526147a4601f19916123a4565b0160005b8181106149e257505085986000936020968785019b60a0518601965b8b518110156149d35761480c8a6107c18e61113260e06147e88760a051515161354b565b51015193614801876147fb8c518c615a72565b9461354b565b5101518b51926155fc565b875261012061481f8260a051515161354b565b5101518c828c888410156149be57614842611132926147fb61484d965b8c615a72565b5101518951926155fc565b87519062124f8091828102928184041490151715610b24578f916148cd928f92620f42408093048082106000146149b65750905b526148c68d8d6148a8876101c08461489d8360a051515161354b565b51015101519661354b565b51015190806148bb8860a051515161354b565b5101510151906155fc565b0490615a9e565b88528d6101a06148e18360a051515161354b565b51510151158015906149a2575b614998575b506148fe875161594d565b90898061490f8360a051515161354b565b51015101519160008382039312818412811691841390151617610b245761498c918f61496d8f8f928e6149478761113293519461354b565b51015160c061495a8860a051515161354b565b51015160008082126149915750926155fc565b8d6149838561497c818661354b565b519461354b565b51015252612d50565b6147c4565b03926155fc565b600090528d6148f3565b506149b081518a5190615afe565b156148ee565b905090614881565b61484d9350614842611132926147fb8b61483c565b509b5050505050505050505050565b602090869a959a516149f381612234565b6000815282600081830152828b010152019893986147a8565b60046040517f9c8507ac000000000000000000000000000000000000000000000000000000008152fd5b9060608201916020808451015160a083019182519181830151614a696060614a61604087015161594d565b95015161594d565b6000948181039186138015828413169183121617614b12578380614adf87958c83614abc612d399d9c9a9860e0986107c19d508b811215600014614b0b575b8c5184015180821015614afc575090615a72565b9151015180821015614b0457505b6101008b015180821015614afc575090615a72565b9a51015196015101519251015190508181101561095c5790615a72565b905090615a72565b9050614aca565b8b03614aa8565b602485634e487b7160e01b81526011600452fd5b949291908552614b3b60608601918251615a72565b91614b4b60408701918251615a72565b9052526134cf60a0614b62608086019485516131d8565b94019182516131d8565b614b74612b9c565b5060c0604051614b83816122df565b8254600163ffffffff9467ffffffffffffffff19868416968786528460201c169384602087015216604085015201549167ffffffffffffffff9182841691826060820152838560401c16938460808301528560801c16948560a0830152861c958691015260405195614bf4876122fb565b8652602086015260408501526060840152608083015260a082015290565b919063ffffffff9081815111614e2b57602081019382855111614e2b57604094858301916002614c428451615acc565b14614e1b5760608401916002614c588451615acc565b14614e0b5760808501936002614c6e8651615acc565b14614dfb5760a08601956002614c848851615acc565b14614deb5792614d5a94926000999a60c06001948b614da39b9a98511693519c8d9367ffffffffffffffff8080809551169a51169a51169b519d815195614cca876122df565b8787521660208601528401528660608401528760808401528960a08401528b1691015267ffffffff0000000082549a8263ffffffff198d1617845560201b16808267ffffffffffffffff19809d1617178355178155019687541617865585906fffffffffffffffff0000000000000000196fffffffffffffffff000000000000000083549260401b169116179055565b83547fffffffffffffffff0000000000000000ffffffffffffffffffffffffffffffff1660809190911b77ffffffffffffffff0000000000000000000000000000000016178355565b77ffffffffffffffffffffffffffffffffffffffffffffffff7fffffffffffffffff00000000000000000000000000000000000000000000000083549260c01b169116179055565b60048a5163b8a0949960e01b8152fd5b6004895163b8a0949960e01b8152fd5b6004885163b8a0949960e01b8152fd5b6004875163b8a0949960e01b8152fd5b600460405163b8a0949960e01b8152fd5b604081015115614e9857614e5360608201516159a8565b8015908115614e8d575b5060009015614e6b57505090565b5060a0810151612d3992614e87918181101561095c5790615a72565b90614f62565b600191501438614e5d565b5090565b60a0612d3992604083015115600014614ec157915b01518181101561095c5790615a72565b614ecb9083614f98565b91614eb1565b604081015115614e9857614ee860608201516159a8565b8015908115614f09575b5015614efc575090565b614e87612d399282615038565b600191501438614ef2565b604081015115614e9857614f2b60608201516159a8565b8015908115614f57575b5060009015614f4357505090565b612d3992614e8791811561095c5790615a72565b600191501438614f35565b614f92612d3992611132614f86606085015160008082136000146135f15750615a36565b916040850151906155fc565b90614fc7565b614f92612d3992611132614fbc606085015160008082136000146135f15750615a36565b6040850151926155fc565b614ffe614fe4606083015160008082136000146135f15750615a36565b6107c18351916111326020860151916040870151926155fc565b906000908261500d5750505090565b60800151612d39936111329250908381101561502e576135e0905b84615a72565b506135e083615028565b60c0810151906000908261505d57505050612d399060008181101561095c5790615a72565b60a0015190620f424080840293840403612ca55750612d39929161508091615a7f565b6111c8565b604081015115159081615096575090565b6150a49150606001516159a8565b80159081156150b1575090565b600191501490565b6150c1612bce565b50604080516150cf81612289565b82549267ffffffffffffffff90818516948584528281861c16948560208601526001848360801c1692838388015260c01d60070b938460608801520154958487169485608088015287831c16958660a082015260e07fffffffffffffffffffffffff000000000000000000000000000000000000000063ffffffff8a60801c16998a60c085015216910152815197615166896122df565b885260208801528601526060850152608084015260a083015260c082015290565b90600291826151968351615acc565b1461540d576020820192806151ab8551615acc565b1461540d57604091828401826151c18251615acc565b146153fd5760608501836151d582516159c7565b146153ed576151e481516159e9565b156153ed576080860191846151f98451615acc565b146153dd5760c087019563ffffffff97888851116153cd5760a08101966152208851615acc565b146153cd5767ffffffffffffffff808080809451169c511694511694519551169651169651978382519261525384612289565b8b84528460208501528301528460070b60608301528660808301528760a0830152881660c082015260e0016000905267ffffffffffffffff1997888554161784556152cb9084906fffffffffffffffff0000000000000000196fffffffffffffffff000000000000000083549260401b169116179055565b82547fffffffffffffffff0000000000000000ffffffffffffffffffffffffffffffff1660809190911b77ffffffffffffffff000000000000000000000000000000001617825581549060c01b7fffffffffffffffff000000000000000000000000000000000000000000000000169077ffffffffffffffffffffffffffffffffffffffffffffffff16178155600101938454161783556153999083906fffffffffffffffff0000000000000000196fffffffffffffffff000000000000000083549260401b169116179055565b81549060801b73ffffffff0000000000000000000000000000000016906fffffffffffffffffffffffffffffffff16179055565b60048251635d4288b560e11b8152fd5b60048651635d4288b560e11b8152fd5b60048551635d4288b560e11b8152fd5b60048451635d4288b560e11b8152fd5b6004604051635d4288b560e11b8152fd5b90615428826123a4565b6154356040519182612382565b8281528092615446601f19916123a4565b0190602036910137565b9060005b8151518110156154c0576000818451805182106154ae575b50506000908284518051821061549a575b5050116154925761548d90612d50565b615454565b505050600090565b6154a592935061354b565b5190823861547d565b6154b8925061354b565b51813861546c565b505050600190565b60005b82518051821090811561552e57829060009261551c575b505060009082845180518210615508575b5050116154c05761550390612d50565b6154cb565b61551392935061354b565b519082386154f3565b615526925061354b565b5181386154e2565b5050505050600090565b8115615542570490565b634e487b7160e01b600052601260045260246000fd5b60406060815161556781612218565b52600080805260209083825263ffffffff91828483205416916155898361541e565b95815b8481106155a95750505050505051906155a482612218565b815290565b60078082048452828552878420818306918210156155e857600382901c01600101546155e3929160051b60e0161c8716613c62828b61354b565b61558c565b602485634e487b7160e01b81526032600452fd5b81810292918115918404141715610b2457565b615617612b7d565b50604051906156258261226d565b546001600160a01b0381169182815263ffffffff9060607fffffffff00000000000000000000000000000000000000000000000000000000838560a01c16938460208501528560c01c16948560408501521691015260405192615687846122c3565b83526020830152604082015290565b90602081019063ffffffff9182815111615765576040820160026156ba8251615ae7565b14615765577fffffffff0000000000000000000000000000000000000000000000000000000093600060606001600160a01b037bffffffff00000000000000000000000000000000000000000000000096511694519351926040519061571f8261226d565b868252808616602083015284166040820152015260c01b9290921677ffffffff000000000000000000000000000000000000000060a09390931b92909216171790915550565b60046040517f92f03c86000000000000000000000000000000000000000000000000000000008152fd5b600060405161579d81612218565b526040516157aa81612234565b60025490602067ffffffffffffffff1967ffffffffffffffff84169384845216910152604051906155a482612218565b906101008091015190820151916157ef612b7d565b918051845190818103906000809312818312811691831390151617612cb9578452602082015191602086015192828482039412818512811691851390151617612cb9576040809160208701948552015195015194818682039612818712811691871390151617612ca55760408401948552602083019361586f855161594d565b905190828282019283129112908015821691151617612cb95761589190615a36565b9460408401926158a1845161594d565b905190838282019283129112908015821691151617613813576158c5606091615a36565b9401916158d2835161594d565b915191818382019384129112908015821691151617612ca557506158f590615a36565b90525252565b91821561594457602061592f92015160008082121560001461593d5750925b615929620f42409485926155fc565b046155fc565b049080821115614291575090565b039261591a565b50505050600090565b7f7fffffffffffffffffffffffffffffffffffffffffffffffffffffffffffffff81116159775790565b602490604051907feecaa25d0000000000000000000000000000000000000000000000000000000082526004820152fd5b600081136159c1576000136159bc57600190565b600090565b50600290565b677fffffffffffffff908181136159e257126159bc57600190565b5050600290565b7fffffffffffffffffffffffffffffffffffffffffffffffff8000000000000000908181136159e257126159bc57600190565b64e8d4a5100090818102918183041490151715610b245790565b60008112615a415790565b602490604051907fb02ef0870000000000000000000000000000000000000000000000000000000082526004820152fd5b91908203918211610b2457565b90620f424091828102928184041490151715610b2457612d3991615538565b9080615ab65750615ab057620f424090565b60001990565b612d3991615a7f565b600019116159bc57600190565b67ffffffffffffffff908181116159e257106159bc57600190565b63ffffffff908181116159e257106159bc57600190565b8181116159e257106159bc57600190565b60206001600160a01b03916024604051809481937f70a08231000000000000000000000000000000000000000000000000000000008352306004840152165afa9081156109ab57600091615b61575090565b906020823d8211615b87575b81615b7a60209383612382565b81010312612fe457505190565b3d9150615b6d565b6001600160a01b031690604051615ba581612234565b6020928382527f5361666545524332303a206c6f772d6c6576656c2063616c6c206661696c6564848301526000808486829651910182855af13d15615cd0573d9167ffffffffffffffff8311615cbc5790615c2093929160405192615c1388601f19601f8401160185612382565b83523d868885013e615cda565b90815180615c2e5750505050565b82849181010312612fe4575081615c459101612d5f565b15615c52578080806142e4565b6084906040519062461bcd60e51b82526004820152602a60248201527f5361666545524332303a204552433230206f7065726174696f6e20646964206e60448201527f6f742073756363656564000000000000000000000000000000000000000000006064820152fd5b602485634e487b7160e01b81526041600452fd5b90615c2092916060915b91929015615d3b5750815115615cee575090565b3b15615cf75790565b606460405162461bcd60e51b815260206004820152601d60248201527f416464726573733a2063616c6c20746f206e6f6e2d636f6e74726163740000006044820152fd5b825190915015615d4e5750805190602001fd5b615d6a9060405191829162461bcd60e51b8352600483016121a5565b0390fdfea2646970667358221220d0bab359c8954dc04e1d0a54f0885faf437149fe9dbd66520c2294dc0c7f421c64736f6c63430008130033"
}