{
  "address": "0xa367A181854D04c855F6a834660c184eD33aA86B",
  "abi": [
    {
      "inputs": [],
      "name": "CurveMath6OutOfBoundsError",
      "type": "error"
    },
    {
      "inputs": [],
      "name": "DivisionByZero",
      "type": "error"
    },
    {
      "inputs": [
        {
          "internalType": "uint256",
          "name": "value",
          "type": "uint256"
        }
      ],
      "name": "Fixed6OverflowError",
      "type": "error"
    },
    {
      "inputs": [],
      "name": "GlobalStorageInvalidError",
      "type": "error"
    },
    {
      "inputs": [],
      "name": "GlobalStorageInvalidError",
      "type": "error"
    },
    {
      "inputs": [
        {
          "internalType": "uint256",
          "name": "version",
          "type": "uint256"
        }
      ],
      "name": "InitializableAlreadyInitializedError",
      "type": "error"
    },
    {
      "inputs": [],
      "name": "InitializableNotInitializingError",
      "type": "error"
    },
    {
      "inputs": [],
      "name": "InitializableZeroVersionError",
      "type": "error"
    },
    {
      "inputs": [
        {
          "internalType": "address",
          "name": "sender",
          "type": "address"
        }
      ],
      "name": "InstanceNotFactoryError",
      "type": "error"
    },
    {
      "inputs": [
        {
          "internalType": "address",
          "name": "sender",
          "type": "address"
        }
      ],
      "name": "InstanceNotOwnerError",
      "type": "error"
    },
    {
      "inputs": [],
      "name": "InstancePausedError",
      "type": "error"
    },
    {
      "inputs": [],
      "name": "LocalStorageInvalidError",
      "type": "error"
    },
    {
      "inputs": [],
      "name": "LocalStorageInvalidError",
      "type": "error"
    },
    {
      "inputs": [],
      "name": "MarketClosedError",
      "type": "error"
    },
    {
      "inputs": [],
      "name": "MarketCollateralBelowLimitError",
      "type": "error"
    },
    {
      "inputs": [],
      "name": "MarketEfficiencyUnderLimitError",
      "type": "error"
    },
    {
      "inputs": [],
      "name": "MarketExceedsPendingIdLimitError",
      "type": "error"
    },
    {
      "inputs": [],
      "name": "MarketInsufficientCollateralError",
      "type": "error"
    },
    {
      "inputs": [],
      "name": "MarketInsufficientLiquidityError",
      "type": "error"
    },
    {
      "inputs": [],
      "name": "MarketInsufficientMarginError",
      "type": "error"
    },
    {
      "inputs": [
        {
          "internalType": "uint256",
          "name": "code",
          "type": "uint256"
        }
      ],
      "name": "MarketInvalidMarketParameterError",
      "type": "error"
    },
    {
      "inputs": [],
      "name": "MarketInvalidProtectionError",
      "type": "error"
    },
    {
      "inputs": [
        {
          "internalType": "uint256",
          "name": "code",
          "type": "uint256"
        }
      ],
      "name": "MarketInvalidRiskParameterError",
      "type": "error"
    },
    {
      "inputs": [],
      "name": "MarketMakerOverLimitError",
      "type": "error"
    },
    {
      "inputs": [],
      "name": "MarketNotBeneficiaryError",
      "type": "error"
    },
    {
      "inputs": [],
      "name": "MarketNotCoordinatorError",
      "type": "error"
    },
    {
      "inputs": [],
      "name": "MarketNotSingleSidedError",
      "type": "error"
    },
    {
      "inputs": [],
      "name": "MarketOperatorNotAllowedError",
      "type": "error"
    },
    {
      "inputs": [],
      "name": "MarketOverCloseError",
      "type": "error"
    },
    {
      "inputs": [],
      "name": "MarketParameterStorageInvalidError",
      "type": "error"
    },
    {
      "inputs": [],
      "name": "MarketProtectedError",
      "type": "error"
    },
    {
      "inputs": [],
      "name": "MarketStalePriceError",
      "type": "error"
    },
    {
      "inputs": [],
      "name": "PositionStorageInvalidError",
      "type": "error"
    },
    {
      "inputs": [],
      "name": "PositionStorageLocalInvalidError",
      "type": "error"
    },
    {
      "inputs": [],
      "name": "ReentrancyGuardReentrantCallError",
      "type": "error"
    },
    {
      "inputs": [],
      "name": "RiskParameterStorageInvalidError",
      "type": "error"
    },
    {
      "inputs": [
        {
          "internalType": "int256",
          "name": "value",
          "type": "int256"
        }
      ],
      "name": "UFixed6UnderflowError",
      "type": "error"
    },
    {
      "inputs": [],
      "name": "VersionStorageInvalidError",
      "type": "error"
    },
    {
      "inputs": [],
      "name": "VersionStorageInvalidError",
      "type": "error"
    },
    {
      "anonymous": false,
      "inputs": [
        {
          "indexed": true,
          "internalType": "address",
          "name": "account",
          "type": "address"
        },
        {
          "indexed": true,
          "internalType": "uint256",
          "name": "fromOracleVersion",
          "type": "uint256"
        },
        {
          "indexed": true,
          "internalType": "uint256",
          "name": "toOracleVersion",
          "type": "uint256"
        },
        {
          "indexed": false,
          "internalType": "uint256",
          "name": "fromPosition",
          "type": "uint256"
        },
        {
          "indexed": false,
          "internalType": "uint256",
          "name": "toPosition",
          "type": "uint256"
        },
        {
          "components": [
            {
              "internalType": "Fixed6",
              "name": "collateralAmount",
              "type": "int256"
            },
            {
              "internalType": "UFixed6",
              "name": "rewardAmount",
              "type": "uint256"
            },
            {
              "internalType": "Fixed6",
              "name": "positionFee",
              "type": "int256"
            },
            {
              "internalType": "UFixed6",
              "name": "keeper",
              "type": "uint256"
            }
          ],
          "indexed": false,
          "internalType": "struct LocalAccumulationResult",
          "name": "accumulationResult",
          "type": "tuple"
        }
      ],
      "name": "AccountPositionProcessed",
      "type": "event"
    },
    {
      "anonymous": false,
      "inputs": [
        {
          "indexed": false,
          "internalType": "address",
          "name": "newBeneficiary",
          "type": "address"
        }
      ],
      "name": "BeneficiaryUpdated",
      "type": "event"
    },
    {
      "anonymous": false,
      "inputs": [
        {
          "indexed": false,
          "internalType": "address",
          "name": "newCoordinator",
          "type": "address"
        }
      ],
      "name": "CoordinatorUpdated",
      "type": "event"
    },
    {
      "anonymous": false,
      "inputs": [
        {
          "indexed": true,
          "internalType": "address",
          "name": "account",
          "type": "address"
        },
        {
          "indexed": false,
          "internalType": "UFixed6",
          "name": "amount",
          "type": "uint256"
        }
      ],
      "name": "FeeClaimed",
      "type": "event"
    },
    {
      "anonymous": false,
      "inputs": [
        {
          "indexed": false,
          "internalType": "uint256",
          "name": "version",
          "type": "uint256"
        }
      ],
      "name": "Initialized",
      "type": "event"
    },
    {
      "anonymous": false,
      "inputs": [
        {
          "indexed": true,
          "internalType": "address",
          "name": "account",
          "type": "address"
        },
        {
          "indexed": false,
          "internalType": "uint256",
          "name": "version",
          "type": "uint256"
        },
        {
          "components": [
            {
              "internalType": "Fixed6",
              "name": "maker",
              "type": "int256"
            },
            {
              "internalType": "Fixed6",
              "name": "long",
              "type": "int256"
            },
            {
              "internalType": "Fixed6",
              "name": "short",
              "type": "int256"
            },
            {
              "internalType": "Fixed6",
              "name": "net",
              "type": "int256"
            },
            {
              "internalType": "UFixed6",
              "name": "skew",
              "type": "uint256"
            },
            {
              "internalType": "Fixed6",
              "name": "impact",
              "type": "int256"
            },
            {
              "internalType": "Fixed6",
              "name": "utilization",
              "type": "int256"
            },
            {
              "internalType": "Fixed6",
              "name": "efficiency",
              "type": "int256"
            },
            {
              "internalType": "Fixed6",
              "name": "fee",
              "type": "int256"
            },
            {
              "internalType": "UFixed6",
              "name": "keeper",
              "type": "uint256"
            }
          ],
          "indexed": false,
          "internalType": "struct Order",
          "name": "order",
          "type": "tuple"
        },
        {
          "indexed": false,
          "internalType": "Fixed6",
          "name": "collateral",
          "type": "int256"
        }
      ],
      "name": "OrderCreated",
      "type": "event"
    },
    {
      "anonymous": false,
      "inputs": [
        {
          "components": [
            {
              "internalType": "UFixed6",
              "name": "fundingFee",
              "type": "uint256"
            },
            {
              "internalType": "UFixed6",
              "name": "interestFee",
              "type": "uint256"
            },
            {
              "internalType": "UFixed6",
              "name": "positionFee",
              "type": "uint256"
            },
            {
              "internalType": "UFixed6",
              "name": "oracleFee",
              "type": "uint256"
            },
            {
              "internalType": "UFixed6",
              "name": "riskFee",
              "type": "uint256"
            },
            {
              "internalType": "uint256",
              "name": "maxPendingGlobal",
              "type": "uint256"
            },
            {
              "internalType": "uint256",
              "name": "maxPendingLocal",
              "type": "uint256"
            },
            {
              "internalType": "UFixed6",
              "name": "makerRewardRate",
              "type": "uint256"
            },
            {
              "internalType": "UFixed6",
              "name": "longRewardRate",
              "type": "uint256"
            },
            {
              "internalType": "UFixed6",
              "name": "shortRewardRate",
              "type": "uint256"
            },
            {
              "internalType": "UFixed6",
              "name": "settlementFee",
              "type": "uint256"
            },
            {
              "internalType": "bool",
              "name": "takerCloseAlways",
              "type": "bool"
            },
            {
              "internalType": "bool",
              "name": "makerCloseAlways",
              "type": "bool"
            },
            {
              "internalType": "bool",
              "name": "closed",
              "type": "bool"
            }
          ],
          "indexed": false,
          "internalType": "struct MarketParameter",
          "name": "newParameter",
          "type": "tuple"
        }
      ],
      "name": "ParameterUpdated",
      "type": "event"
    },
    {
      "anonymous": false,
      "inputs": [
        {
          "indexed": true,
          "internalType": "uint256",
          "name": "fromOracleVersion",
          "type": "uint256"
        },
        {
          "indexed": true,
          "internalType": "uint256",
          "name": "toOracleVersion",
          "type": "uint256"
        },
        {
          "indexed": false,
          "internalType": "uint256",
          "name": "fromPosition",
          "type": "uint256"
        },
        {
          "indexed": false,
          "internalType": "uint256",
          "name": "toPosition",
          "type": "uint256"
        },
        {
          "components": [
            {
              "internalType": "Fixed6",
              "name": "positionFeeMaker",
              "type": "int256"
            },
            {
              "internalType": "UFixed6",
              "name": "positionFeeFee",
              "type": "uint256"
            },
            {
              "internalType": "Fixed6",
              "name": "fundingMaker",
              "type": "int256"
            },
            {
              "internalType": "Fixed6",
              "name": "fundingLong",
              "type": "int256"
            },
            {
              "internalType": "Fixed6",
              "name": "fundingShort",
              "type": "int256"
            },
            {
              "internalType": "UFixed6",
              "name": "fundingFee",
              "type": "uint256"
            },
            {
              "internalType": "Fixed6",
              "name": "interestMaker",
              "type": "int256"
            },
            {
              "internalType": "Fixed6",
              "name": "interestLong",
              "type": "int256"
            },
            {
              "internalType": "Fixed6",
              "name": "interestShort",
              "type": "int256"
            },
            {
              "internalType": "UFixed6",
              "name": "interestFee",
              "type": "uint256"
            },
            {
              "internalType": "Fixed6",
              "name": "pnlMaker",
              "type": "int256"
            },
            {
              "internalType": "Fixed6",
              "name": "pnlLong",
              "type": "int256"
            },
            {
              "internalType": "Fixed6",
              "name": "pnlShort",
              "type": "int256"
            },
            {
              "internalType": "UFixed6",
              "name": "rewardMaker",
              "type": "uint256"
            },
            {
              "internalType": "UFixed6",
              "name": "rewardLong",
              "type": "uint256"
            },
            {
              "internalType": "UFixed6",
              "name": "rewardShort",
              "type": "uint256"
            }
          ],
          "indexed": false,
          "internalType": "struct VersionAccumulationResult",
          "name": "accumulationResult",
          "type": "tuple"
        }
      ],
      "name": "PositionProcessed",
      "type": "event"
    },
    {
      "anonymous": false,
      "inputs": [
        {
          "indexed": true,
          "internalType": "address",
          "name": "account",
          "type": "address"
        },
        {
          "indexed": false,
          "internalType": "UFixed6",
          "name": "amount",
          "type": "uint256"
        }
      ],
      "name": "RewardClaimed",
      "type": "event"
    },
    {
      "anonymous": false,
      "inputs": [
        {
          "components": [
            {
              "internalType": "UFixed6",
              "name": "margin",
              "type": "uint256"
            },
            {
              "internalType": "UFixed6",
              "name": "maintenance",
              "type": "uint256"
            },
            {
              "internalType": "UFixed6",
              "name": "takerFee",
              "type": "uint256"
            },
            {
              "internalType": "UFixed6",
              "name": "takerSkewFee",
              "type": "uint256"
            },
            {
              "internalType": "UFixed6",
              "name": "takerImpactFee",
              "type": "uint256"
            },
            {
              "internalType": "UFixed6",
              "name": "makerFee",
              "type": "uint256"
            },
            {
              "internalType": "UFixed6",
              "name": "makerImpactFee",
              "type": "uint256"
            },
            {
              "internalType": "UFixed6",
              "name": "makerLimit",
              "type": "uint256"
            },
            {
              "internalType": "UFixed6",
              "name": "efficiencyLimit",
              "type": "uint256"
            },
            {
              "internalType": "UFixed6",
              "name": "liquidationFee",
              "type": "uint256"
            },
            {
              "internalType": "UFixed6",
              "name": "minLiquidationFee",
              "type": "uint256"
            },
            {
              "internalType": "UFixed6",
              "name": "maxLiquidationFee",
              "type": "uint256"
            },
            {
              "components": [
                {
                  "internalType": "UFixed6",
                  "name": "minRate",
                  "type": "uint256"
                },
                {
                  "internalType": "UFixed6",
                  "name": "maxRate",
                  "type": "uint256"
                },
                {
                  "internalType": "UFixed6",
                  "name": "targetRate",
                  "type": "uint256"
                },
                {
                  "internalType": "UFixed6",
                  "name": "targetUtilization",
                  "type": "uint256"
                }
              ],
              "internalType": "struct UJumpRateUtilizationCurve6",
              "name": "utilizationCurve",
              "type": "tuple"
            },
            {
              "components": [
                {
                  "internalType": "UFixed6",
                  "name": "k",
                  "type": "uint256"
                },
                {
                  "internalType": "UFixed6",
                  "name": "max",
                  "type": "uint256"
                }
              ],
              "internalType": "struct PController6",
              "name": "pController",
              "type": "tuple"
            },
            {
              "internalType": "UFixed6",
              "name": "minMargin",
              "type": "uint256"
            },
            {
              "internalType": "UFixed6",
              "name": "minMaintenance",
              "type": "uint256"
            },
            {
              "internalType": "UFixed6",
              "name": "skewScale",
              "type": "uint256"
            },
            {
              "internalType": "uint256",
              "name": "staleAfter",
              "type": "uint256"
            },
            {
              "internalType": "bool",
              "name": "makerReceiveOnly",
              "type": "bool"
            }
          ],
          "indexed": false,
          "internalType": "struct RiskParameter",
          "name": "newRiskParameter",
          "type": "tuple"
        }
      ],
      "name": "RiskParameterUpdated",
      "type": "event"
    },
    {
      "anonymous": false,
      "inputs": [
        {
          "indexed": true,
          "internalType": "address",
          "name": "sender",
          "type": "address"
        },
        {
          "indexed": true,
          "internalType": "address",
          "name": "account",
          "type": "address"
        },
        {
          "indexed": false,
          "internalType": "uint256",
          "name": "version",
          "type": "uint256"
        },
        {
          "indexed": false,
          "internalType": "UFixed6",
          "name": "newMaker",
          "type": "uint256"
        },
        {
          "indexed": false,
          "internalType": "UFixed6",
          "name": "newLong",
          "type": "uint256"
        },
        {
          "indexed": false,
          "internalType": "UFixed6",
          "name": "newShort",
          "type": "uint256"
        },
        {
          "indexed": false,
          "internalType": "Fixed6",
          "name": "collateral",
          "type": "int256"
        },
        {
          "indexed": false,
          "internalType": "bool",
          "name": "protect",
          "type": "bool"
        }
      ],
      "name": "Updated",
      "type": "event"
    },
    {
      "inputs": [],
      "name": "claimFee",
      "outputs": [],
      "stateMutability": "nonpayable",
      "type": "function"
    },
    {
      "inputs": [],
      "name": "factory",
      "outputs": [
        {
          "internalType": "contract IFactory",
          "name": "",
          "type": "address"
        }
      ],
      "stateMutability": "view",
      "type": "function"
    },
    {
      "inputs": [],
      "name": "global",
      "outputs": [
        {
          "components": [
            {
              "internalType": "uint256",
              "name": "currentId",
              "type": "uint256"
            },
            {
              "internalType": "uint256",
              "name": "latestId",
              "type": "uint256"
            },
            {
              "internalType": "UFixed6",
              "name": "protocolFee",
              "type": "uint256"
            },
            {
              "internalType": "UFixed6",
              "name": "oracleFee",
              "type": "uint256"
            },
            {
              "internalType": "UFixed6",
              "name": "riskFee",
              "type": "uint256"
            },
            {
              "internalType": "UFixed6",
              "name": "donation",
              "type": "uint256"
            },
            {
              "components": [
                {
                  "internalType": "Fixed6",
                  "name": "_value",
                  "type": "int256"
                },
                {
                  "internalType": "Fixed6",
                  "name": "_skew",
                  "type": "int256"
                }
              ],
              "internalType": "struct PAccumulator6",
              "name": "pAccumulator",
              "type": "tuple"
            },
            {
              "internalType": "Fixed6",
              "name": "latestPrice",
              "type": "int256"
            }
          ],
          "internalType": "struct Global",
          "name": "",
          "type": "tuple"
        }
      ],
      "stateMutability": "view",
      "type": "function"
    },
    {
      "inputs": [
        {
          "components": [
            {
              "internalType": "Token18",
              "name": "token",
              "type": "address"
            },
            {
              "internalType": "contract IOracleProvider",
              "name": "oracle",
              "type": "address"
            },
            {
              "internalType": "contract IPayoffProvider",
              "name": "payoff",
              "type": "address"
            }
          ],
          "internalType": "struct IMarket.MarketDefinition",
          "name": "definition_",
          "type": "tuple"
        }
      ],
      "name": "initialize",
      "outputs": [],
      "stateMutability": "nonpayable",
      "type": "function"
    },
    {
      "inputs": [
        {
          "internalType": "address",
          "name": "account",
          "type": "address"
        }
      ],
      "name": "locals",
      "outputs": [
        {
          "components": [
            {
              "internalType": "uint256",
              "name": "currentId",
              "type": "uint256"
            },
            {
              "internalType": "uint256",
              "name": "latestId",
              "type": "uint256"
            },
            {
              "internalType": "Fixed6",
              "name": "collateral",
              "type": "int256"
            },
            {
              "internalType": "UFixed6",
              "name": "reward",
              "type": "uint256"
            },
            {
              "internalType": "uint256",
              "name": "protection",
              "type": "uint256"
            },
            {
              "internalType": "address",
              "name": "protectionInitiator",
              "type": "address"
            },
            {
              "internalType": "UFixed6",
              "name": "protectionAmount",
              "type": "uint256"
            }
          ],
          "internalType": "struct Local",
          "name": "",
          "type": "tuple"
        }
      ],
      "stateMutability": "view",
      "type": "function"
    },
    {
      "inputs": [],
      "name": "oracle",
      "outputs": [
        {
          "internalType": "contract IOracleProvider",
          "name": "",
          "type": "address"
        }
      ],
      "stateMutability": "view",
      "type": "function"
    },
    {
      "inputs": [],
      "name": "parameter",
      "outputs": [
        {
          "components": [
            {
              "internalType": "UFixed6",
              "name": "fundingFee",
              "type": "uint256"
            },
            {
              "internalType": "UFixed6",
              "name": "interestFee",
              "type": "uint256"
            },
            {
              "internalType": "UFixed6",
              "name": "positionFee",
              "type": "uint256"
            },
            {
              "internalType": "UFixed6",
              "name": "oracleFee",
              "type": "uint256"
            },
            {
              "internalType": "UFixed6",
              "name": "riskFee",
              "type": "uint256"
            },
            {
              "internalType": "uint256",
              "name": "maxPendingGlobal",
              "type": "uint256"
            },
            {
              "internalType": "uint256",
              "name": "maxPendingLocal",
              "type": "uint256"
            },
            {
              "internalType": "UFixed6",
              "name": "makerRewardRate",
              "type": "uint256"
            },
            {
              "internalType": "UFixed6",
              "name": "longRewardRate",
              "type": "uint256"
            },
            {
              "internalType": "UFixed6",
              "name": "shortRewardRate",
              "type": "uint256"
            },
            {
              "internalType": "UFixed6",
              "name": "settlementFee",
              "type": "uint256"
            },
            {
              "internalType": "bool",
              "name": "takerCloseAlways",
              "type": "bool"
            },
            {
              "internalType": "bool",
              "name": "makerCloseAlways",
              "type": "bool"
            },
            {
              "internalType": "bool",
              "name": "closed",
              "type": "bool"
            }
          ],
          "internalType": "struct MarketParameter",
          "name": "",
          "type": "tuple"
        }
      ],
      "stateMutability": "view",
      "type": "function"
    },
    {
      "inputs": [],
      "name": "payoff",
      "outputs": [
        {
          "internalType": "contract IPayoffProvider",
          "name": "",
          "type": "address"
        }
      ],
      "stateMutability": "view",
      "type": "function"
    },
    {
      "inputs": [
        {
          "internalType": "uint256",
          "name": "id",
          "type": "uint256"
        }
      ],
      "name": "pendingPosition",
      "outputs": [
        {
          "components": [
            {
              "internalType": "uint256",
              "name": "timestamp",
              "type": "uint256"
            },
            {
              "internalType": "UFixed6",
              "name": "maker",
              "type": "uint256"
            },
            {
              "internalType": "UFixed6",
              "name": "long",
              "type": "uint256"
            },
            {
              "internalType": "UFixed6",
              "name": "short",
              "type": "uint256"
            },
            {
              "internalType": "Fixed6",
              "name": "fee",
              "type": "int256"
            },
            {
              "internalType": "UFixed6",
              "name": "keeper",
              "type": "uint256"
            },
            {
              "internalType": "Fixed6",
              "name": "collateral",
              "type": "int256"
            },
            {
              "internalType": "Fixed6",
              "name": "delta",
              "type": "int256"
            },
            {
              "components": [
                {
                  "internalType": "Fixed6",
                  "name": "maker",
                  "type": "int256"
                },
                {
                  "internalType": "Fixed6",
                  "name": "long",
                  "type": "int256"
                },
                {
                  "internalType": "Fixed6",
                  "name": "short",
                  "type": "int256"
                }
              ],
              "internalType": "struct Invalidation",
              "name": "invalidation",
              "type": "tuple"
            }
          ],
          "internalType": "struct Position",
          "name": "",
          "type": "tuple"
        }
      ],
      "stateMutability": "view",
      "type": "function"
    },
    {
      "inputs": [
        {
          "internalType": "address",
          "name": "account",
          "type": "address"
        },
        {
          "internalType": "uint256",
          "name": "id",
          "type": "uint256"
        }
      ],
      "name": "pendingPositions",
      "outputs": [
        {
          "components": [
            {
              "internalType": "uint256",
              "name": "timestamp",
              "type": "uint256"
            },
            {
              "internalType": "UFixed6",
              "name": "maker",
              "type": "uint256"
            },
            {
              "internalType": "UFixed6",
              "name": "long",
              "type": "uint256"
            },
            {
              "internalType": "UFixed6",
              "name": "short",
              "type": "uint256"
            },
            {
              "internalType": "Fixed6",
              "name": "fee",
              "type": "int256"
            },
            {
              "internalType": "UFixed6",
              "name": "keeper",
              "type": "uint256"
            },
            {
              "internalType": "Fixed6",
              "name": "collateral",
              "type": "int256"
            },
            {
              "internalType": "Fixed6",
              "name": "delta",
              "type": "int256"
            },
            {
              "components": [
                {
                  "internalType": "Fixed6",
                  "name": "maker",
                  "type": "int256"
                },
                {
                  "internalType": "Fixed6",
                  "name": "long",
                  "type": "int256"
                },
                {
                  "internalType": "Fixed6",
                  "name": "short",
                  "type": "int256"
                }
              ],
              "internalType": "struct Invalidation",
              "name": "invalidation",
              "type": "tuple"
            }
          ],
          "internalType": "struct Position",
          "name": "",
          "type": "tuple"
        }
      ],
      "stateMutability": "view",
      "type": "function"
    },
    {
      "inputs": [],
      "name": "position",
      "outputs": [
        {
          "components": [
            {
              "internalType": "uint256",
              "name": "timestamp",
              "type": "uint256"
            },
            {
              "internalType": "UFixed6",
              "name": "maker",
              "type": "uint256"
            },
            {
              "internalType": "UFixed6",
              "name": "long",
              "type": "uint256"
            },
            {
              "internalType": "UFixed6",
              "name": "short",
              "type": "uint256"
            },
            {
              "internalType": "Fixed6",
              "name": "fee",
              "type": "int256"
            },
            {
              "internalType": "UFixed6",
              "name": "keeper",
              "type": "uint256"
            },
            {
              "internalType": "Fixed6",
              "name": "collateral",
              "type": "int256"
            },
            {
              "internalType": "Fixed6",
              "name": "delta",
              "type": "int256"
            },
            {
              "components": [
                {
                  "internalType": "Fixed6",
                  "name": "maker",
                  "type": "int256"
                },
                {
                  "internalType": "Fixed6",
                  "name": "long",
                  "type": "int256"
                },
                {
                  "internalType": "Fixed6",
                  "name": "short",
                  "type": "int256"
                }
              ],
              "internalType": "struct Invalidation",
              "name": "invalidation",
              "type": "tuple"
            }
          ],
          "internalType": "struct Position",
          "name": "",
          "type": "tuple"
        }
      ],
      "stateMutability": "view",
      "type": "function"
    },
    {
      "inputs": [
        {
          "internalType": "address",
          "name": "account",
          "type": "address"
        }
      ],
      "name": "positions",
      "outputs": [
        {
          "components": [
            {
              "internalType": "uint256",
              "name": "timestamp",
              "type": "uint256"
            },
            {
              "internalType": "UFixed6",
              "name": "maker",
              "type": "uint256"
            },
            {
              "internalType": "UFixed6",
              "name": "long",
              "type": "uint256"
            },
            {
              "internalType": "UFixed6",
              "name": "short",
              "type": "uint256"
            },
            {
              "internalType": "Fixed6",
              "name": "fee",
              "type": "int256"
            },
            {
              "internalType": "UFixed6",
              "name": "keeper",
              "type": "uint256"
            },
            {
              "internalType": "Fixed6",
              "name": "collateral",
              "type": "int256"
            },
            {
              "internalType": "Fixed6",
              "name": "delta",
              "type": "int256"
            },
            {
              "components": [
                {
                  "internalType": "Fixed6",
                  "name": "maker",
                  "type": "int256"
                },
                {
                  "internalType": "Fixed6",
                  "name": "long",
                  "type": "int256"
                },
                {
                  "internalType": "Fixed6",
                  "name": "short",
                  "type": "int256"
                }
              ],
              "internalType": "struct Invalidation",
              "name": "invalidation",
              "type": "tuple"
            }
          ],
          "internalType": "struct Position",
          "name": "",
          "type": "tuple"
        }
      ],
      "stateMutability": "view",
      "type": "function"
    },
    {
      "inputs": [],
      "name": "riskParameter",
      "outputs": [
        {
          "components": [
            {
              "internalType": "UFixed6",
              "name": "margin",
              "type": "uint256"
            },
            {
              "internalType": "UFixed6",
              "name": "maintenance",
              "type": "uint256"
            },
            {
              "internalType": "UFixed6",
              "name": "takerFee",
              "type": "uint256"
            },
            {
              "internalType": "UFixed6",
              "name": "takerSkewFee",
              "type": "uint256"
            },
            {
              "internalType": "UFixed6",
              "name": "takerImpactFee",
              "type": "uint256"
            },
            {
              "internalType": "UFixed6",
              "name": "makerFee",
              "type": "uint256"
            },
            {
              "internalType": "UFixed6",
              "name": "makerImpactFee",
              "type": "uint256"
            },
            {
              "internalType": "UFixed6",
              "name": "makerLimit",
              "type": "uint256"
            },
            {
              "internalType": "UFixed6",
              "name": "efficiencyLimit",
              "type": "uint256"
            },
            {
              "internalType": "UFixed6",
              "name": "liquidationFee",
              "type": "uint256"
            },
            {
              "internalType": "UFixed6",
              "name": "minLiquidationFee",
              "type": "uint256"
            },
            {
              "internalType": "UFixed6",
              "name": "maxLiquidationFee",
              "type": "uint256"
            },
            {
              "components": [
                {
                  "internalType": "UFixed6",
                  "name": "minRate",
                  "type": "uint256"
                },
                {
                  "internalType": "UFixed6",
                  "name": "maxRate",
                  "type": "uint256"
                },
                {
                  "internalType": "UFixed6",
                  "name": "targetRate",
                  "type": "uint256"
                },
                {
                  "internalType": "UFixed6",
                  "name": "targetUtilization",
                  "type": "uint256"
                }
              ],
              "internalType": "struct UJumpRateUtilizationCurve6",
              "name": "utilizationCurve",
              "type": "tuple"
            },
            {
              "components": [
                {
                  "internalType": "UFixed6",
                  "name": "k",
                  "type": "uint256"
                },
                {
                  "internalType": "UFixed6",
                  "name": "max",
                  "type": "uint256"
                }
              ],
              "internalType": "struct PController6",
              "name": "pController",
              "type": "tuple"
            },
            {
              "internalType": "UFixed6",
              "name": "minMargin",
              "type": "uint256"
            },
            {
              "internalType": "UFixed6",
              "name": "minMaintenance",
              "type": "uint256"
            },
            {
              "internalType": "UFixed6",
              "name": "skewScale",
              "type": "uint256"
            },
            {
              "internalType": "uint256",
              "name": "staleAfter",
              "type": "uint256"
            },
            {
              "internalType": "bool",
              "name": "makerReceiveOnly",
              "type": "bool"
            }
          ],
          "internalType": "struct RiskParameter",
          "name": "",
          "type": "tuple"
        }
      ],
      "stateMutability": "view",
      "type": "function"
    },
    {
      "inputs": [],
      "name": "token",
      "outputs": [
        {
          "internalType": "Token18",
          "name": "",
          "type": "address"
        }
      ],
      "stateMutability": "view",
      "type": "function"
    },
    {
      "inputs": [
        {
          "internalType": "address",
          "name": "account",
          "type": "address"
        },
        {
          "internalType": "UFixed6",
          "name": "newMaker",
          "type": "uint256"
        },
        {
          "internalType": "UFixed6",
          "name": "newLong",
          "type": "uint256"
        },
        {
          "internalType": "UFixed6",
          "name": "newShort",
          "type": "uint256"
        },
        {
          "internalType": "Fixed6",
          "name": "collateral",
          "type": "int256"
        },
        {
          "internalType": "bool",
          "name": "protect",
          "type": "bool"
        }
      ],
      "name": "update",
      "outputs": [],
      "stateMutability": "nonpayable",
      "type": "function"
    },
    {
      "inputs": [
        {
          "internalType": "address",
          "name": "newBeneficiary",
          "type": "address"
        },
        {
          "internalType": "address",
          "name": "newCoordinator",
          "type": "address"
        },
        {
          "components": [
            {
              "internalType": "UFixed6",
              "name": "fundingFee",
              "type": "uint256"
            },
            {
              "internalType": "UFixed6",
              "name": "interestFee",
              "type": "uint256"
            },
            {
              "internalType": "UFixed6",
              "name": "positionFee",
              "type": "uint256"
            },
            {
              "internalType": "UFixed6",
              "name": "oracleFee",
              "type": "uint256"
            },
            {
              "internalType": "UFixed6",
              "name": "riskFee",
              "type": "uint256"
            },
            {
              "internalType": "uint256",
              "name": "maxPendingGlobal",
              "type": "uint256"
            },
            {
              "internalType": "uint256",
              "name": "maxPendingLocal",
              "type": "uint256"
            },
            {
              "internalType": "UFixed6",
              "name": "makerRewardRate",
              "type": "uint256"
            },
            {
              "internalType": "UFixed6",
              "name": "longRewardRate",
              "type": "uint256"
            },
            {
              "internalType": "UFixed6",
              "name": "shortRewardRate",
              "type": "uint256"
            },
            {
              "internalType": "UFixed6",
              "name": "settlementFee",
              "type": "uint256"
            },
            {
              "internalType": "bool",
              "name": "takerCloseAlways",
              "type": "bool"
            },
            {
              "internalType": "bool",
              "name": "makerCloseAlways",
              "type": "bool"
            },
            {
              "internalType": "bool",
              "name": "closed",
              "type": "bool"
            }
          ],
          "internalType": "struct MarketParameter",
          "name": "newParameter",
          "type": "tuple"
        }
      ],
      "name": "updateParameter",
      "outputs": [],
      "stateMutability": "nonpayable",
      "type": "function"
    },
    {
      "inputs": [
        {
          "components": [
            {
              "internalType": "UFixed6",
              "name": "margin",
              "type": "uint256"
            },
            {
              "internalType": "UFixed6",
              "name": "maintenance",
              "type": "uint256"
            },
            {
              "internalType": "UFixed6",
              "name": "takerFee",
              "type": "uint256"
            },
            {
              "internalType": "UFixed6",
              "name": "takerSkewFee",
              "type": "uint256"
            },
            {
              "internalType": "UFixed6",
              "name": "takerImpactFee",
              "type": "uint256"
            },
            {
              "internalType": "UFixed6",
              "name": "makerFee",
              "type": "uint256"
            },
            {
              "internalType": "UFixed6",
              "name": "makerImpactFee",
              "type": "uint256"
            },
            {
              "internalType": "UFixed6",
              "name": "makerLimit",
              "type": "uint256"
            },
            {
              "internalType": "UFixed6",
              "name": "efficiencyLimit",
              "type": "uint256"
            },
            {
              "internalType": "UFixed6",
              "name": "liquidationFee",
              "type": "uint256"
            },
            {
              "internalType": "UFixed6",
              "name": "minLiquidationFee",
              "type": "uint256"
            },
            {
              "internalType": "UFixed6",
              "name": "maxLiquidationFee",
              "type": "uint256"
            },
            {
              "components": [
                {
                  "internalType": "UFixed6",
                  "name": "minRate",
                  "type": "uint256"
                },
                {
                  "internalType": "UFixed6",
                  "name": "maxRate",
                  "type": "uint256"
                },
                {
                  "internalType": "UFixed6",
                  "name": "targetRate",
                  "type": "uint256"
                },
                {
                  "internalType": "UFixed6",
                  "name": "targetUtilization",
                  "type": "uint256"
                }
              ],
              "internalType": "struct UJumpRateUtilizationCurve6",
              "name": "utilizationCurve",
              "type": "tuple"
            },
            {
              "components": [
                {
                  "internalType": "UFixed6",
                  "name": "k",
                  "type": "uint256"
                },
                {
                  "internalType": "UFixed6",
                  "name": "max",
                  "type": "uint256"
                }
              ],
              "internalType": "struct PController6",
              "name": "pController",
              "type": "tuple"
            },
            {
              "internalType": "UFixed6",
              "name": "minMargin",
              "type": "uint256"
            },
            {
              "internalType": "UFixed6",
              "name": "minMaintenance",
              "type": "uint256"
            },
            {
              "internalType": "UFixed6",
              "name": "skewScale",
              "type": "uint256"
            },
            {
              "internalType": "uint256",
              "name": "staleAfter",
              "type": "uint256"
            },
            {
              "internalType": "bool",
              "name": "makerReceiveOnly",
              "type": "bool"
            }
          ],
          "internalType": "struct RiskParameter",
          "name": "newRiskParameter",
          "type": "tuple"
        }
      ],
      "name": "updateRiskParameter",
      "outputs": [],
      "stateMutability": "nonpayable",
      "type": "function"
    },
    {
      "inputs": [
        {
          "internalType": "uint256",
          "name": "timestamp",
          "type": "uint256"
        }
      ],
      "name": "versions",
      "outputs": [
        {
          "components": [
            {
              "internalType": "bool",
              "name": "valid",
              "type": "bool"
            },
            {
              "components": [
                {
                  "internalType": "Fixed6",
                  "name": "_value",
                  "type": "int256"
                }
              ],
              "internalType": "struct Accumulator6",
              "name": "makerValue",
              "type": "tuple"
            },
            {
              "components": [
                {
                  "internalType": "Fixed6",
                  "name": "_value",
                  "type": "int256"
                }
              ],
              "internalType": "struct Accumulator6",
              "name": "longValue",
              "type": "tuple"
            },
            {
              "components": [
                {
                  "internalType": "Fixed6",
                  "name": "_value",
                  "type": "int256"
                }
              ],
              "internalType": "struct Accumulator6",
              "name": "shortValue",
              "type": "tuple"
            },
            {
              "components": [
                {
                  "internalType": "UFixed6",
                  "name": "_value",
                  "type": "uint256"
                }
              ],
              "internalType": "struct UAccumulator6",
              "name": "makerReward",
              "type": "tuple"
            },
            {
              "components": [
                {
                  "internalType": "UFixed6",
                  "name": "_value",
                  "type": "uint256"
                }
              ],
              "internalType": "struct UAccumulator6",
              "name": "longReward",
              "type": "tuple"
            },
            {
              "components": [
                {
                  "internalType": "UFixed6",
                  "name": "_value",
                  "type": "uint256"
                }
              ],
              "internalType": "struct UAccumulator6",
              "name": "shortReward",
              "type": "tuple"
            }
          ],
          "internalType": "struct Version",
          "name": "",
          "type": "tuple"
        }
      ],
      "stateMutability": "view",
      "type": "function"
    }
  ],
  "transactionHash": "0xeb9168c1a135eabda1f7290e7e883d12e62b6859e2c3c8b7383abc9d6432439c",
  "args": [],
  "numDeployments": 1,
  "solcInputHash": "0d2a365277395bb800d452d9850f4c1d",
  "bytecode": "0x6080806040523461001757615f1790816200001d8239f35b600080fdfe6080604052600436101561001257600080fd5b6000803560e01c806309218e91146122c05780633934fe3614611fda5780634549a62914611f5057806355f5751014611f085780635b4b969514611e7b5780637dc0d1d014611e5257806387aee00e14611dd257806391eece2814610a9d57806395fcd83614610a7457806399d32fc4146108ea578063a05f990614610869578063a1d0a11314610835578063ad4d4e2914610790578063b329230e14610382578063c45a01551461034c578063ce813aed14610273578063d26b3e261461010c5763fc0c546a146100e357600080fd5b34610109578060031936011261010957546040516001600160a01b039091168152602090f35b80fd5b5034610109576060366003190112610109577f6fee9688c285c5c5c97d6a1a29adced674e6b2ad0888b8ad2116b58a8b3ea24860018154101561025a5760019055303b151580610253575b61023a5733600080516020615ea283398151915255303b15158061024c575b61023a576001600080516020615e82833981519152556001600160a01b03600435818116908190036102325782546001600160a01b031990811690911783556024358281169081900361023657816002541617600255604435918216809203610232576003541617600355807f2801b00eb06461cf9fcb9758b5fafd884ff06a86177386f73b6c49f0bf5a5af0557fbe9b076dc5b65990cca9dd9d7366682482e7817a6f6bc7f4faf4dc32af497f32602060405160018152a180f35b8280fd5b8380fd5b60405163b9a621e160e01b8152600490fd5b5080610176565b5080610157565b604051631edb9c6d60e11b815260016004820152602490fd5b5034610109576040366003190112610109576004356001600160a01b03811691908290036103475760406102c691610343936102ad612954565b50815260126020528181206024358252602052206149f8565b60405191829182919091610140604061016083019480518452602081015160208501528181015182850152606081015160608501526080810151608085015260a081015160a085015260c081015160c085015260e081015160e0850152610100809101519081519085015260208101516101208501520151910152565b0390f35b600080fd5b5034610109578060031936011261010957600080516020615ea2833981519152546040516001600160a01b039091168152602090f35b5034610109576102e0366003190112610109576040516103a4610260826122e7565b6004358152602435602082015260443560408201526064356060820152608435608082015260a43560a082015260c43560c082015260e43560e0820152610104356101008201526101243561012082015261014435610140820152610164356101608201526080610183193601126106b2576040516104246080826122e7565b6101843581526101a43560208201526101c43560408201526101e43560608201526101808201526040610203193601126106b2576040516104666040826122e7565b6102043581526102243560208201526101a0820152610244356101c0820152610264356101e0820152610284356102008201526102a4356102208201526102c43515156102c43503610347576102c4356102408201526005546001600160a01b031633141580610702575b6106f057600080516020615ea28339815191525460405163ad4d4e2960e01b8152839160e090829060049082906001600160a01b03165afa9081156106b65782916106c1575b5073566ADeD4e644F40A6a943c40Bd40A2419d5D517F3b156106b25761063e604051916302903c7960e21b83526006600484015284516024840152602085015160448401526040850151606484015260608501516084840152608085015160a484015260a085015160c484015260c085015160e484015260e08501516101048401526101008501516101248401526101208501516101448401526101408501516101648401526101608501516101848401526105dd6101808601516101a4850190612320565b60206101a0860151805161022486015201516102448401526101c08501516102648401526101e08501516102848401526102008501516102a48401526102208501516102c484015261024085015115156102e4840152610304830190612547565b81816103e48173566ADeD4e644F40A6a943c40Bd40A2419d5D517F5af480156106b65761069d575b506040517f823c5e592916c45a8b43a655f22eb029f79dfd3c63f6d122df594aaf83e09b0290806106978582612343565b0390a180f35b816106a7916122e7565b6106b2578138610666565b5080fd5b6040513d84823e3d90fd5b6106e3915060e03d60e0116106e9575b6106db81836122e7565b8101906124eb565b38610517565b503d6106d1565b604051639bca062560e01b8152600490fd5b50600080516020615ea283398151915254604051638da5cb5b60e01b815290602090829060049082906001600160a01b03165afa908115610785578391610756575b506001600160a01b03163314156104d1565b610778915060203d60201161077e575b61077081836122e7565b8101906124cc565b38610744565b503d610766565b6040513d85823e3d90fd5b50346101095780600319360112610109576107a96125f0565b506040516338ecab9f60e21b8152600960048201526101c091908281602481735B540290bAEdDaa5266d071113EB1A44FC9Ca8535af491821561082957916107fc575b506107fa604051809261242c565bf35b61081c9150823d8411610822575b61081481836122e7565b81019061265b565b386107ec565b503d61080a565b604051903d90823e3d90fd5b5034610109576020366003190112610109576102c6604061034392610858612954565b506004358152600f60205220614864565b50346101095780600319360112610109576108826129a3565b50610120610890600b613c2c565b60e060405191805183526020810151602084015260408101516040840152606081015160608401526080810151608084015260a081015160a0840152602060c0820151805160c08601520151828401520151610100820152f35b5034610109578060031936011261010957610905600b613c2c565b600080516020615ea28339815191528054604051638da5cb5b60e01b81526001600160a01b0393928592602092908390829060049082908a165afa8015610a695760049285889286948291610a4c575b5061096660408a0191825190612588565b610a44575b5050541660405192838092630c7f7fb960e41b82525afa918215610785578392610a09575b505092816109ee946109aa60608601918483519116612588565b610a01575b5081600554166109c56080860191825190612588565b6109f9575b5050600454166109e060a0840191825190612588565b6109f1575b5050600b613cc5565b80f35b5282386109e5565b5281386109ca565b5281386109af565b90809250813d8311610a3d575b610a2081836122e7565b810103126106b257519280841684036106b25792816109ee610990565b503d610a16565b52853861096b565b610a639150853d871161077e5761077081836122e7565b38610955565b6040513d86823e3d90fd5b50346101095780600319360112610109576003546040516001600160a01b039091168152602090f35b50346101095760c0366003190112610109576004356001600160a01b03811690036103475760a435151560a43503610347576002600080516020615e828339815191525414611dc0576002600080516020615e8283398151915255600080516020615ea283398151915254604051635c975abb60e01b81526001600160a01b0390911690602081600481855afa908115610785578391611d86575b50611d7457600460e060405192610b516101c0856122e7565b610b59612a8a565b8452610b636125f0565b6020850152610b70612741565b6040850152846060850152610b83612933565b6080850152610b90612933565b60a0850152610b9d6129a3565b60c0850152610baa612a8a565b82850152610bb6612d20565b610100850152610bc4612d20565b610120850152846101408501528461016085015284610180850152846101a08501526040519283809263ad4d4e29851b82525afa908115610785578391611d55575b5081526040516338ecab9f60e21b8152600960048201526101c081602481735B540290bAEdDaa5266d071113EB1A44FC9Ca8535af4908115610785578391611d34575b506020820152604051635da3780d60e01b8152600660048201526102e08160248173566ADeD4e644F40A6a943c40Bd40A2419d5D517F5af4908115610785578391611d03575b506040820152610c9f600b613c2c565b60c08201526004356001600160a01b03168252601060205260408220610cc490613f7d565b60e0820152610cd1612933565b50600254604051631006976960e11b815290608090829060049082906001600160a01b03165afa80156107855783918491611cc1575b50610d1182613bb3565b60608301526080820152610d2e610d28600d614864565b82613af3565b60a0820152610d3d600d614864565b610120820151526004356001600160a01b03168252601160205260408220610d64906149f8565b60206101208301510152610d76612954565b905b60c081015160208151910151809114159081611c95575b5015610dcf57602060c08201510151600181018111610dbb57826001610db6920183612d44565b610d78565b634e487b7160e01b84526011600452602484fd5b91905b60e083015160208151910151809114159081611c54575b5015610ffb576004356001600160a01b0316825260126020908152604080842060e086810151840151865292528320610e21906149f8565b015192602060e08201510151600181018111610dbb57826001610e4892016004358461310a565b60018060a01b03600435168352601260205260408320602060e083015101518452602052610e78604084206149f8565b60018060a01b0360043516845260126020526040842060e0830151518552602052610ea5604085206149f8565b9460e06040818501510151960151958582128783810312811690888481031390151617610fe7578187038681128015918303838113929092169183131617610fe757608085015182880382038781128015918301831391821691151617610fd357610f1360a08701516158bb565b91838903810382018881128015918501851391821691151617610fbf57610f46610f418860e0890151613f64565b6158bb565b93808a038203830184018981128015918701871391821691151617610fab57610fa49697989903900301010160c082015260018060a01b03600435168552601260205260408520602060e08501510151865260205260408520614ada565b9190610dd2565b634e487b7160e01b89526011600452602489fd5b634e487b7160e01b88526011600452602488fd5b634e487b7160e01b87526011600452602487fd5b634e487b7160e01b86526011600452602486fd5b5090608081015151610120820151515110611c0e575b608081015151602061012083015101515110611bc2575b60e060c0820151015160206080830151015261104b61012082015151600d614910565b6004356001600160a01b0316825260116020908152604083206101208301519091015161107791614ada565b604060e08201510151610160820152611098602061012083015101516146c7565b6101408201526110ad60c08201515182612bb2565b610100820151526110d36101008083015151015161010061012084015151015190613ea1565b6110e560e08201515160043583612be4565b602061010083015101526111146101006020818401510151015161010060206101208501510151015190613ea1565b6060810151602061010083015101515110611b9a575b6060810151610100820151515110611b75575b602060e08201510151600181018111611b61576001015b60e082015151811015611185578061117b6111756111809360043586612be4565b84612ac4565b612b80565b611154565b506101608101516111a7610f4160e08401516020610120860151015190613f64565b908382128183810312811690828481031390151617610dbb57036101608201526111d360843582612c4f565b906111ed6024356020806101008501510151015183612ca0565b611207604435604060206101008601510151015184612ca0565b92611222606435606060206101008701510151015185612ca0565b916020610100850151015192606085015160405194611243610140876122e7565b8886528860208701528860408701528860608701528860808701528860a08701528860c08701528860e08701528861010087015288610120870152611287846158bb565b61129460208301516158bb565b908a82128183810312811690828481031390151617611b4d576112b68a6158bb565b6112c360408501516158bb565b908c82128183810312811690828481031390151617611a75578c6112e6886158bb565b6112f360608801516158bb565b9182128183810312811690828481031390151617611aa6570360408b0152036020890152038652826060820152876040820152836020820152526101008501515160608601516102006040880151019161134e835182614728565b9161135b610f41836146ed565b611367610f41846147e9565b611373610f4185614784565b60c08b015260e08a0152606089015261138f60208301516158bb565b88519081808201128d8212908015821691151617611a75576113b19101615a1d565b6113be60408401516158bb565b60208a0151908d8280830112908212908015821691151617611aba576113e49101615a1d565b8c6113f260608601516158bb565b60408c0151918280830112908212908015821691151617611aa6576114179101615a1d565b6060850152604084015260208301528152611433835182614728565b90611440610f41826146ed565b926060890151948c86128587810312811690868881031390151617611a75578051611b2a57508b925b600161147583836159d3565b03611ace5750508a905b61148b610f41826147e9565b60e08a0151918d83128284810312811690838581031390151617611aba576114b6610f418f92614784565b60c08c01519182128183810312811690828481031390151617611aa6570360c08b01520360e089015260a088015260808701520360608501526080850151602086015190604087015161150c60a08201516158bb565b611533620f424061152e61152360c08601516158bb565b60c08c015190612c2c565b6158e4565b9081808201128c8212908015821691151617611a92578b82820113600014611a895701905b61156560408201516158bb565b90611586620f4240611580606084015160808d0151906159f0565b046158bb565b9081808401128d8412908015821691151617611a7557620f424061152e6115b360806115be9401516158bb565b60a08d015190612c2c565b91828083830101128d83830112908015821691151617611a755761163d620f42406115808f976116376116638f9a8561152e61166a9c61163d8f9b611580859f61152e9f60209161162a9189958b6116429c5080848484010113600014611a6b575001019f5b51615e50565b9a01996116378b51615e50565b906159f0565b612c2c565b9a61165d60406116556020840151615e50565b920151615e50565b90612ba5565b9151615e50565b9081808201128a8212908015821691151617611a57576101a083015115611a51575050875b61010086015261169e856143b1565b611a475750865b6101208501526116be846020610100880151015161468a565b6116ce846101008701515161468a565b604060e08601510180518480820112898212908015821691151617610fab578401905260e0602061010087015101510180518480820112898212908015821691151617610fab57840190526101608501518380820112888212908015821691151617610fbf57830161016086015261174f6020610100870151015186612ac4565b61177460e086015160408701519086608089015160608a01519060a435943394613ebb565b9561177e856143b1565b6119d9575b6117956119409785876004358a613422565b60c0860151518852600f6020526117b6604089206101008801515190614910565b6004356001600160a01b03168852601260209081526040808a2060e0890151518b5282528920610100880151909101516117ef91614ada565b6117f884615964565b60018114611982575b60001914611955575b60608601519260405193845260208401526040830152606082015281608082015260a435151560a082015260018060a01b0360043516907f29083474b417ce11b6e16e049302e231f5d3d753484fe3e8155ea0b7ffe4f3c160c03392a361012060608401519260405193845280516020850152602081015160408501526040810151606085015260608101516080850152608081015160a085015260a081015160c085015260c081015160e085015260e08101516101008501526101008101518285015201516101408301526101608201527fbbbad390211bc8fbc03c550e5c69ef38db7ddb94900123f4e565339f81fb8fc661018060018060a01b036004351692a261191c60c0820151600b613cc5565b6004356001600160a01b0316835260106020526040832060e0919091015190613ff4565b6001600080516020615e828339815191525580f35b875461197d906001600160a01b031661197561197087615e50565b615a03565b903390615aef565b61180a565b88546119d4906001600160a01b031661199d61197088615e50565b90604051916323b872dd60e01b60208401523360248401523060448401526064830152606482526119cf6084836122e7565b615c64565b611801565b60025488906001600160a01b0316803b156106b257818091604460405180948193631a9be9fd60e11b835230600484015260018060a01b036004351660248401525af180156106b657611a2e575b5050611783565b81611a38916122e7565b611a43578738611a27565b8780fd5b61014001516116a5565b0161168f565b634e487b7160e01b8a52601160045260248afd5b925050509f611624565b634e487b7160e01b8d52601160045260248dfd5b50508990611558565b634e487b7160e01b8c52601160045260248cfd5b634e487b7160e01b8f52601160045260248ffd5b634e487b7160e01b8e52601160045260248efd5b80808301128d83128015918015821690831617611aa6578284810312169082848103131617611a75579061152e611b2492620f424090611b1d8261163d611b16878503615964565b6002612c2c565b9301612c2c565b9061147f565b611b4790611b3f611b3a8c6143b1565b615e50565b905190615a4a565b92611469565b634e487b7160e01b8b52601160045260248bfd5b634e487b7160e01b83526011600452602483fd5b60c0810151611b848151612b80565b9052611b9561010082015151614429565b61113d565b60e0810151611ba98151612b80565b9052611bbd60206101008301510151614429565b61112a565b611c09611bda602060e0840151015160043584612be4565b611bf7608084015182905190600060a08201526000608082015252565b602060e084015101516004358461310a565b611028565b611c4f611c23602060c0840151015183612bb2565b611c40608084015182905190600060a08201526000608082015252565b602060c0840151015183612d44565b611011565b915050600181018111611c81576001611c71910160043584612be4565b6080830151518151111538610de9565b634e487b7160e01b82526011600452602482fd5b91925050600181018111611b61576001611cb0910182612bb2565b906080810151518251111538610d8f565b91505060803d608011611cfc575b611cd981836122e7565b608082828101031261023657611cf3606091830183613abd565b91015138610d07565b503d611ccf565b611d2791506102e03d6102e011611d2d575b611d1f81836122e7565b8101906127ec565b38610c8f565b503d611d15565b611d4f91506101c03d6101c0116108225761081481836122e7565b38610c49565b611d6e915060e03d60e0116106e9576106db81836122e7565b38610c06565b604051634b94d2bb60e01b8152600490fd5b90506020813d602011611db8575b81611da1602093836122e7565b8101031261023257611db2906124bf565b38610b38565b3d9150611d94565b6040516345f6780960e11b8152600490fd5b503461010957602036600319011261010957611e05604060e092611df46129fa565b5060043581526013602052206156d1565b60c060405191805115158352602081015151602084015260408101515160408401526060810151516060840152608081015151608084015260a08101515160a084015201515160c0820152f35b50346101095780600319360112610109576002546040516001600160a01b039091168152602090f35b5034610109576020366003190112610109576001600160a01b036004358181169081900361034757611ec4604060e09460c093611eb6612a8a565b508152601060205220613f7d565b60405192815184526020820151602085015260408201516040850152606082015160608501526080820151608085015260a08201511660a0840152015160c0820152f35b5034610109576020366003190112610109576004356001600160a01b03811691908290036103475760406102c69161034393611f42612954565b5081526011602052206149f8565b5034610109578060031936011261010957611f69612741565b50604051635da3780d60e01b8152600660048201526102e090818160248173566ADeD4e644F40A6a943c40Bd40A2419d5D517F5af4918215610785576103439392611fbd575b505060405191829182612343565b611fd39250803d10611d2d57611d1f81836122e7565b3880611faf565b503461010957610200366003190112610109576001600160a01b0390600435828116908190036106b257602435838116809103610232576101c09182604319360112610236576040519461202e84876122e7565b604435865260209060643582880152608435604088015260a435606088015260c435608088015260e43560a08801526101043560c08801526101243560e08801526101443561010088015261016435610120880152610184356101408801526101a43580151581036122bc576101608801526101c43580151581036122bc576101808801526101e49283358015158103611a43576101a089015281600080516020615ea2833981519152541692604051638da5cb5b60e01b81528181600481885afa9081156122b1579084918a91612294575b5016330361227c57856004967fc258faa9a17ddfdf4130b4acff63a289202e7d5f9e42f366add65368575486bc937feee59a71c694e68368a1cb0d135c448051bbfb12289e6c2223b0ceb100c2321d8460018060a01b03199280848d5416178c55604051908152a16005541617600555604051908152a160e0735B540290bAEdDaa5266d071113EB1A44FC9Ca853926040519586809263ad4d4e29851b82525afa938415612271578694612250575b5060015416813b1561224c5785926121f694926102e49260405196879586946310317ba160e11b8652600960048701526121ee8d602488019061242c565b850190612547565b6102c48301525af480156107855761222c575b50600080516020615e628339815191529192612228604051809261242c565ba180f35b9161224681600080516020615e62833981519152946122e7565b91612209565b8580fd5b61226a91945060e03d60e0116106e9576106db81836122e7565b92386121b0565b6040513d88823e3d90fd5b604051634d193d1f60e01b8152336004820152602490fd5b6122ab9150833d851161077e5761077081836122e7565b38612101565b6040513d8b823e3d90fd5b8680fd5b50346101095780600319360112610109576122d9612954565b506103436102c6600d614864565b601f909101601f19168101906001600160401b0382119082101761230a57604052565b634e487b7160e01b600052604160045260246000fd5b606080918051845260208101516020850152604081015160408501520151910152565b9190916102c06102e0820193805183526020810151602084015260408101516040840152606081015160608401526080810151608084015260a081015160a084015260c081015160c084015260e081015160e084015261010080820151908401526101208082015190840152610140808201519084015261016080820151908401526123d86101808083015190850190612320565b6101a08101519060208251926102009384870152015161022090818601526101c08201519261024093848701526101e08301516102608701528201516102808601528101516102a085015201511515910152565b805182526020810151602083015260408101516040830152606081015160608301526080810151608083015260a081015160a083015260c081015160c083015260e081015160e083015261010080820151908301526101208082015190830152610140808201519083015261016080820151151590830152610180808201511515908301526101a0809101511515910152565b5190811515820361034757565b9081602091031261034757516001600160a01b03811681036103475790565b908160e09103126103475760c06040519161250760e0846122e7565b805183526020810151602084015260408101516040840152606081015160608401526080810151608084015260a081015160a0840152015160c082015290565b60c08091805184526020810151602085015260408101516040850152606081015160608501526080810151608085015260a081015160a08501520151910152565b6001600160a01b0381811692909190338490036125e7576125db6020927f20ca5094f3a20c321cbe4123d0f01b276b81df0fa24cd4d83d9253956035d8639460005416906125d584615a03565b91615aef565b604051908152a2600190565b50505050600090565b604051906126006101c0836122e7565b816101a06000918281528260208201528260408201528260608201528260808201528260a08201528260c08201528260e082015282610100820152826101208201528261014082015282610160820152826101808201520152565b80916101c092839103126103475761267660405192836122e7565b805182526020810151602083015260408101516040830152606081015160608301526080810151608083015260a081015160a083015260c081015160c083015260e081015160e08301526101008082015190830152610120808201519083015261014080820151908301526101606126ef8183016124bf565b908301526101806127018183016124bf565b908301526127136101a08092016124bf565b9082015290565b604051906127296080836122e7565b60006060838281528260208201528260408201520152565b60405190612751610260836122e7565b816102406000918281528260208201528260408201528260608201528260808201528260a08201528260c08201528260e0820152826101008201528261012082015282610140820152826101608201526127a961271a565b6101808201526040516127bd6040826122e7565b8381528360208201526101a0820152826101c0820152826101e082015282610200820152826102208201520152565b8091036102e081126103475760408051926102609061280b82866122e7565b80518552602081015160208601528281015183860152606081015160608601526080810151608086015260a081015160a086015260c081015160c086015260e081015160e08601526101008082015190860152610120808201519086015261014080820151908601526101608082015190860152608061017f198501126103475782519361289a6080866122e7565b61018093848301518652806101a0928385015160208901526101c09788860151838201526101e0978887015160608301528a01526101ff19011261034757612713946102c0946128ec835193846122e7565b61020092838601518152610220948587015160208301528a01526102409788860151908a015284015190880152610280830151908701526102a082015190860152016124bf565b604051906129426060836122e7565b60006040838281528260208201520152565b60405190612964610120836122e7565b8160008082528060208301528060408301528060608301528060808301528060a08301528060c083015260e082015261010061299e612933565b910152565b604051906129b3610100836122e7565b8160e06000918281528260208201528260408201528260608201528260808201528260a08201526040516129e86040826122e7565b83815283602082015260c08201520152565b604090815191612a0b60e0846122e7565b60c0836000808252612a84845194602095612a2687826122e7565b838152868501528051612a3987826122e7565b838152818501528051612a4c87826122e7565b83815260608501528051612a6087826122e7565b83815260808501528051612a7487826122e7565b83815260a08501525194856122e7565b83520152565b60405190612a9960e0836122e7565b8160c06000918281528260208201528260408201528260608201528260808201528260a08201520152565b610160810180516080840151600095949281830392909187138015828513169184121617610fe757612af960a08401516158bb565b91868382039312818412811691841390151617610fe757526101408201805193945092612b5f926002612b34612b2e856146c7565b84615a84565b03612b63576101a0915001612b58815161165d8651612b52866146c7565b90612c93565b90526146c7565b9052565b610180612b5891019161165d835191612b7b866146c7565b612c93565b6000198114612b8f5760010190565b634e487b7160e01b600052601160045260246000fd5b91908201809211612b8f57565b9190612bbc612954565b50600052600f602052612be2610120612bd86040600020614864565b9301515183614569565b565b929190612bef612954565b5060018060a01b03166000526012602052604060002090600052602052612be26020610120612c2160406000206149f8565b940151015183614569565b818102929160008212600160ff1b821416612b8f578184051490151715612b8f57565b6001612c5f600160ff1b846159d3565b14612c68575090565b60e0015160400151612c909150620f42409061152e90612c8a83600019612c2c565b90612c2c565b90565b91908203918211612b8f57565b6001612cae60001985615a84565b14612d1a576001612cc160011985615a84565b14612ccb57505090565b9080925015612d1657612c909150610140612cfd612cf1602061012085015101516146c7565b6101a084015190612c93565b9101519081811015612d0f5790612c93565b5080612c93565b5090565b50905090565b60405190612d2f6040836122e7565b81612d38612954565b8152602061299e612954565b9091610120820190815151516000526013602052612d6560406000206156d1565b91612d708285613af3565b906040820151156130f9575b8051519160a083519685612dba612db08960c08501518760208201519a86898901519160208a01519460408b015196614d1f565b9290965151614404565b60c082015160e06020860151918c60208201520152612e748360c08401516080828b0151612e586020880151612e32612e04620f4240612dfc8c51518c6159f0565b04809a612c93565b612b7b620f4240612e2981612e1d6060880151866159f0565b049889960151846159f0565b04968792612c93565b97612e4260408701918251612ba5565b9052612e5360608601938451612ba5565b612ba5565b9052612e6960808301918251612ba5565b905201918251612ba5565b90520152825160005260136020526040600020926002600180603f1b0381612ea18260208a0151516159d3565b146130e75760208701515160016001603f1b03199190612ec29083906159d3565b156130e75782612ed78260408b0151516159d3565b146130e757612eeb8260408a0151516159d3565b156130e757612f00839160608a0151516159d3565b146130e757612f14906060880151516159d3565b156130e7576080860151518190612f33906001600160401b0390615a84565b146130e75760a0860151518190612f52906001600160401b0390615a84565b146130e75760c086015151612f6f906001600160401b0390615a84565b146130e757846001610240957fb7e62f90ed3551a4e4ea3d0520667e7d084c5fb661b47292451bf9bb8cc9eafc975115156000146130e057815b6101008360481b0360208501515160081b1660ff8460481b8560881b0360408701515160481b16921617178260881b8360c81b0360608501515160881b161792828060401b03608082015151168360401b8460801b0360a08301515160401b16179060c08460801b85821b039101515160801b1617928155015551956040519283526020830152805160408301526020810151606083015260408101516080830152606081015160a0830152608081015160c083015260a081015160e083015260c0810151610100908184015260e0820151610120840152810151906101409182840152610120810151916101609283850152810151916101809283850152810151916101a09283850152810151916101c09283850152810151916101e092838501528101516102008401520151610220820152a3565b6000612fa9565b60405163693bbf3960e11b8152600490fd5b6131058382515161443e565b612d7c565b91928051600052601360205261312360406000206156d1565b9182511561340a575b602061012085015101519182519460e081015160208101519587600052601360205261315b60406000206156d1565b61316361271a565b96602083015161317f602084015191602084019283519161579a565b6131976040860151604086015160408601519161579a565b9060008282019283129112908015821691151617612b8f576131c76060860151606086015160608601519161579a565b9060008282019283129112908015821691151617612b8f5761325993613213613240620f424061321881968f96613239975261321360808c015191608088015190519251905190612c93565b6159f0565b048561323960a08b015161321360a088015160408c01519251905190612c93565b0490612ba5565b94606060c0808a01519401519101519251905190612c93565b6020870152608084015180604088015261327c60a08601518060608a01526158bb565b9060008282019283129112908015821691151617612b8f57604083015187519060008282019283129112908015821691151617612b8f57600082128183810312811690828481031390151617612b8f57613310938b92602092036040820152606081016132ee8151848c015190612ba5565b905201526133058460206101208601510151614404565b8360e0840151613f0d565b613366575b50906060600080516020615ec28339815191529360c093519760405196875260208701528051604087015260208101518287015260408101516080870152015160a085015260018060a01b031692a4565b919060018060a01b0360a060e0850151015116600052601060205261338e6040600020613f7d565b9360e0840151916133a760c060408801519401516158bb565b92838082011260008212908015821691151617612b8f57600080516020615ec28339815191529660c0966060956134009301604083015260a060e0600180831b0392015101511660005260106020526040600020613ff4565b9293509350613315565b61341d826020610120870151015161443e565b61312c565b949392916101a093848701948551916101208901906002978861345460209661344e88875101516146c7565b90615a84565b14613aab5781908161398e575b5061397c5761010091828b019661347b86895101516146c7565b1580613968575b1580613929575b80613902575b6138f157858c0194855101511515806138ce575b6138bc578b9986895151015193816134c66040809e019660e08851015190615a84565b14806138a8575b613897576134df888b5101518a61418f565b158015613882575b61387157613862576001600160a01b0391821633811415928890846137d2575b5050508161378d575b5061377c5760c08b015161352f86825192015160a08751015190612ba5565b10801561375b575b61374a5761356198999a85885101516135666080830191825186519061016086019e8f51936146c7565b6147fb565b1561373a576135989061358b61357f89865101516146c7565b61018085015190612ba5565b90518551908d51926147fb565b1561372a5760e00151608001519051850151511080613719575b613708576135c183518661426c565b91826136f0575b826136ce575b50506136bd576135df90518361426c565b928361365d575b505081613644575b506136335760006135fe916159d3565b15908161361e575b5061360e5750565b5163442145e560e01b8152600490fd5b61362c9150600090516159d3565b1538613606565b82516303fa425960e21b8152600490fd5b613656915060608151910151906159d3565b15386135ee565b909192505151908101908151906136888761367e6060840194855190612ba5565b9201518092615a84565b1592831561369c575b5050509038806135e6565b6136b49350906136ac9151612ba5565b905190615a84565b15388080613691565b865163015f9ae760e41b8152600490fd5b6136e892506136de8751516147e9565b9151015190615a84565b1538806135ce565b9150613701600060e08701516159d3565b15916135c8565b885163ba555da760e01b8152600490fd5b50613723856143b1565b15156135b2565b8a51621c56d560e31b8152600490fd5b8b51621c56d560e31b8152600490fd5b885163935bdc2160e01b8152600490fd5b5060e08b015161377686825192015160c08751015190612ba5565b10613537565b88516302ded67360e51b8152600490fd5b9050613798876143b1565b1590816137a8575b501538613510565b90506137b560008a6159d3565b9081149081156137c7575b50386137a0565b6001915014386137c0565b9091929350600080516020615ea283398151915254169160448d518094819363131bac4760e11b835260048301523360248301525afa90811561385757600091613822575b501590388781613507565b908782813d8311613850575b61383881836122e7565b81010312610109575061384a906124bf565b38613817565b503d61382e565b8b513d6000823e3d90fd5b50505050505050505050509050565b8b5163229a307760e21b8152600490fd5b5061389188855101518a61418f565b156134e7565b8b5163376a1ec760e11b8152600490fd5b50816138b660008b516159d3565b146134cd565b604051630a6ad31160e21b8152600490fd5b50896138dc600089516159d3565b14806134a357506138ec8761415b565b6134a3565b60405162558f1d60e91b8152600490fd5b508b610220604061391d606084015160808501515190612c93565b9201510151111561348f565b50613933876143b1565b1580613940575b15613489565b5061394c60008a6159d3565b8a811490811561395d575b5061393a565b600191501438613957565b5061397686835101516146c7565b15613482565b6040516329a7bff360e11b8152600490fd5b90505160016139a586855101519261344e846146c7565b1490811591613a37575b508015613a25575b80156139c4575b38613461565b508451848601518082019081126000809312908015821691151617611c8157604087015190828282019283129112908015821691151617611c815790613a09916159d3565b888114908115613a1a575b506139be565b600191501438613a14565b50613a316000886159d3565b156139b7565b905060808b01519060408c01516101608d0151918a830390600093848d12818412811691841390151617610dbb5792613a9792610f4192613a7b613a9d97966146c7565b9280821315613aa35750945b6101e08b8301519201519261482d565b906159b2565b386139af565b905094613a87565b6040516339b7cfed60e11b8152600490fd5b919082606091031261034757604051613ad76060826122e7565b604061299e8183958051855260208101516020860152016124bf565b9190613afd612933565b5051613b07612933565b50600254604051630e0886f960e41b81526004810192909252606090829060249082906001600160a01b03165afa908115613ba757600091613b6e575b50613b4e81613bb3565b8092604082015115613b5e575050565b60e060c060209201510151910152565b60603d8111613ba0575b613b8281836122e7565b810191606082840312610109575090613b9a91613abd565b38613b44565b503d613b78565b6040513d6000823e3d90fd5b6003546001600160a01b03169081613bc9575050565b6020016020815160246040518095819363d7c7a93560e01b835260048301525afa918215613ba757600092613bfc575052565b90916020823d8211613c24575b81613c16602093836122e7565b810103126101095750519052565b3d9150613c09565b613c346129a3565b5060018154910154604051613c4a6040826122e7565b8160e01b60e01d81528160c81b60e81d602082015260405192613c6f610100856122e7565b63ffffffff80821685528160201c16602085015265ffffffffffff808260401c166040860152808260701c1660608601528160a01c16608085015260d01c60a084015260c083015260881b60c01d60e082015290565b91909163ffffffff9081845111613e8f576020918285019281845111613e8f576040918287019260029365ffffffffffff9185613d03848451615a84565b14613e7f5760608a019086613d19858451615a84565b14613e7f5760808b019287613d2f868651615a84565b14613e6e5787613d4460a08e01968751615a84565b14613e6e5760c08c019988613d5f637fffffff8d51516159d3565b14613e5d57613d75637fffffff198c51516159d3565b15613e5d5788613d8c627fffff8a8e5101516159d3565b14613e5d57613da3627fffff19898d5101516159d3565b15613e5d5760e08d0198613dbe600180603f1b038b516159d3565b14613e5d578851613dd89060016001603f1b0319906159d3565b15613e5d578660019b9c9d51169063ffffffff60201b9051891b16179165ffffffffffff60401b9151901b16179065ffffffffffff60701b905160701b16179065ffffffffffff60a01b905160a01b1617905160d01b17955190815116918062ffffff60201b920151901b1617908360381b8460781b03905160381b16179281550155565b8251632142bc2760e01b8152600490fd5b8151632142bc2760e01b8152600490fd5b51632142bc2760e01b8152600490fd5b604051632142bc2760e01b8152600490fd5b815191604060208201519101516040830152602082015252565b9391949295158015613eff575b613ef457608094613ed89261430b565b6001600160a01b0390911660a083015260c08201520152600190565b505050505050600090565b506080840151855110613ec8565b915115908115613f54575b50613f4e5760408101613f3060c082519301516158bb565b9160008382039312818412811691841390151617612b8f5752600190565b50600090565b9050516080820151141538613f18565b608081015191516000921115612d165760c09150015190565b613f85612a8a565b50600181549101549060405191613f9d60e0846122e7565b63ffffffff8083168452808360201c1660208501528260801b60c01d604085015260018060401b0392838160801c16606086015260c01c16608084015260018060a01b03811660a084015260a01c1660c082015290565b919063ffffffff92838251116141495760208201848151116141495760409081840191600261402a600180603f1b0385516159d3565b146141395782516140449060016001603f1b0319906159d3565b1561413957606085019060018060401b03936002614063868551615a84565b146141285760808701938985511161411757600261408660c08a01978851615a84565b14614117578751905191519351945160a098890151965160c09190911b63ffffffff60c01b1660809690961b600160801b600160c01b03169490931b600160401b600160801b031660209290921b63ffffffff60201b1699169890981797909717171782559390911b600160a01b600160e01b03166001600160a01b03939093169290921760019290920191909155565b825163320f423b60e21b8152600490fd5b815163320f423b60e21b8152600490fd5b5163320f423b60e21b8152600490fd5b60405163320f423b60e21b8152600490fd5b600261416c600060208401516159d3565b14908115614178575090565b600291506000604061418b9201516159d3565b1490565b8051159182918261425f575b83614252575b83614245575b8315614201575b83156141bb575b50505090565b6040015115925090826141f9575b50816141ec575b816141df575b503880806141b5565b60209150015115386141d6565b60608101511591506141d0565b9150386141c9565b925060208301511580614239575b8061422d575b80614221575b926141ae565b5060608101511561421b565b50604081015115614215565b5060408301511561420f565b60408201511593506141a7565b60208201511593506141a1565b602081015115935061419b565b906101a08101511591826142cb575b8261428557505090565b602081015115925090826142be575b82156142b0575b5081156142a6575090565b612c90915061415b565b61016001511591503861429b565b6040820151159250614294565b8092505180159081156142fd575b81156142e7575b509161427b565b6002915060006142f6916159d3565b14386142e0565b6101808301511591506142d9565b90614315826143b1565b156143a957614373602061435461163793614348614338611b3a610140986143b1565b620f424096879586940151615e50565b046020870151906159f0565b046101e08501518082116000146143a257505b610120850151906159f0565b0461016083015180821060001461439a5750915b015180821115614395575090565b905090565b905091614387565b9050614367565b505050600090565b80516020820151918282019283126000809312908015821691151617611c815760400151918183820193841291129080158216911516176143f0575090565b634e487b7160e01b81526011600452602490fd5b8151916020810151906060604082015191015160608401526040830152602082015252565b60c06000918260808201528260a08201520152565b61010081015191825192602083019161445783516158bb565b93602082019461446786516158bb565b96878203916000809912818412811691841390151617610fbf57878282019283129112908015821691151617610fd3578352602083019586519360408301976144b089516158bb565b9060408601966144c088516158bb565b9285848203941281851281169185139015161761455557848382019384129112908015821691151617610dbb5790604092915201946060865193019561450687516158bb565b90606086019461451686516158bb565b9285848203941281851281169185139015161761455557848382019384129112908015821691151617610dbb5752519651945160809390930152525252565b634e487b7160e01b85526011600452602485fd5b9061010080910151908201519161457e612933565b918051845190818103906000809312818312811691831390151617611c81578452602082015191602086015192828482039412818512811691851390151617611c815760408091602087019485520151950151948186820396128187128116918713901516176143f0576040840194855260208301936145fe85516158bb565b905190828282019283129112908015821691151617611c815761462090615a1d565b94604084019261463084516158bb565b905190838282019283129112908015821691151617611b6157614654606091615a1d565b94019161466183516158bb565b9151918183820193841291129080158216911516176143f0575061468490615a1d565b90525252565b608081018051916101008401519260008482019485129112908015821691151617612b8f57612b5f9260a092520191610120835191015190612ba5565b60206040820151606083015180821160001461439a575091015180821115614395575090565b61470760606146ff60408401516158bb565b9201516158bb565b9060008282039212818312811691831390151617612b8f57612c9090615e50565b9060008161473857505050600090565b614752606061474a60408601516158bb565b9401516158bb565b928184820394128185128116918513901516176143f057509061152e620f424061477e612c90946158bb565b92612c2c565b6147a9906147a3614794826147b9565b9161165d6020820151916147d1565b90615a69565b620f424080821015614395575090565b60606040820151910151808211600014614395575090565b60606040820151910151808210600014614395575090565b6147a9906147a36020820151916147b9565b610f4190613a979293612c909560008082136000146148255750945b6101c082519201519261482d565b905094614817565b909181156125e75760209261485061485693611637620f42409687940151615e50565b046159f0565b049080821115614395575090565b61486c612954565b50600181549101549065ffffffffffff6040519161488b6060846122e7565b8360801b60c01d83528360401b60c01d60208401528360c01d6040840152604051936148b9610120866122e7565b63ffffffff8216855260018060401b0380911660208601528160801c1660408501528060c01c60608501528060b01b60d01d608085015260501c1660a0830152600060c0830152600060e083015261010082015290565b9061491a81614be9565b602081019060018060401b03916002614934848351615a84565b146149e6576040820192600261494b828651615a84565b146149e65760608301906002614962828451615a84565b146149e65760019461010060409263ffffffff87511665ffffffffffff60201b608089015160201b161765ffffffffffff60501b60a089015160501b16178860801b8960c01b0380945160801b161794519551169501519486831b8760801b038651841b161790602086015160801b16179301519160c01b17845560c01b17910155565b6040516352a8a97f60e01b8152600490fd5b614a00612954565b50805460019091015460016001603e1b03600282901c1691600382169181600084614ad45750845b600060018603614ace575080945b600090600203614ac757505b604090815195614a536060886122e7565b60c0948060801b861d885280841b861d6020890152851d83880152825197614a7d6101208a6122e7565b63ffffffff8516895260208901528288015260608701528160b01b60d01d608087015265ffffffffffff8260501c1660a08701521b811d818501521d60e083015261010082015290565b9050614a42565b94614a36565b94614a28565b614ae382614be9565b600180603e1b03906002614afb836020860151615a84565b146149e65760408301916002614b12828551615a84565b146149e6576002614b2860608601928351615a84565b146149e6576001925115600014614be15751614bda5760005b925b604063ffffffff82511665ffffffffffff60201b608084015160201b161765ffffffffffff60501b60a084015160501b16178460801b8560c01b03908160c085015160801b161760e084015160c01b1795610100600487851b03614ba6866146c7565b60021b1694015193600387851b8860801b038651861b169216171790602084015160801b161791015160c01b179281550155565b6002614b41565b508192614b43565b63ffffffff8151116149e6576080810160029081614c0e657fffffffffff83516159d3565b146149e65751614c2690657fffffffffff19906159d3565b156149e65780614c4065ffffffffffff60a0850151615a84565b146149e65760c0820190600180603f1b039281614c5e8585516159d3565b146149e657915160016001603f1b03199290614c7b9084906159d3565b156149e65760e0810182614c908683516159d3565b146149e65783614ca091516159d3565b156149e657610100019281614cb7828651516159d3565b146149e657614cc8838551516159d3565b156149e65781614cdd826020875101516159d3565b146149e657614cf1836020865101516159d3565b156149e657614d05906040855101516159d3565b146149e6576040614d18925101516159d3565b156149e657565b959297969491939460405198614d376102008b6122e7565b60008a52600060208b0152600060408b0152600060608b0152600060808b0152600060a08b0152600060c08b0152600060e08b015260006101008b015260006101208b015260006101408b015260006101608b015260006101808b015260006101a08b015260006101c08b015260006101e08b015289604085015115158952614dc28683898c6155f6565b919082602083015281526101a08701516155e857505060c0614de261271a565b930151614dfb6101a08401519261020085015190614728565b620f42408112156155de575b614e16620f4240600019612c2c565b808213156155d757505b88519288620f4240614e3c8c61163760206116558d51966156a4565b0484614e72614e61620f424061152e8a61163d8361163d60208951990151938b612c93565b61152e620f424061477e88516158bb565b8080830112946000831215958015600085121690871617612b8f57614eba614e9b838501615964565b6020830151614eab858701615e50565b808210156155cf575090615984565b95614ecd614ec88b88612c93565b615a95565b9183850185810381811260008812169112831617612b8f576002614eff6020614ef588615e50565b9301518093615a84565b036155915750506000925b828101810361551f575050505081620f4240810204620f42401482151715612b8f57620f42408202955b855190848083011260008312908015821691151617612b8f5780620f4240810204620f42401481151715612b8f578288614f8b9387620f4240614f7995029101615aad565b61152e620f424061477e816002612c2c565b9582620f4240810204620f42401483151715612b8f57620f4240614fb193029084615aad565b92848085011260008512908015821691151617612b8f5761503494614f7994620f4240946020846150289661502096520152818101916102408901511515806154f0575b6154cb575b50506150108461152e8361163d83600019612c2c565b8160408a01526020890152615e50565b8851906159f0565b048060608601526158bb565b602083015161504660608501516158bb565b90600082128183810312811690828481031390151617612b8f5782808383030112600083830312908015821691151617612b8f57604085015191600084128385810312811690848681031390151617612b8f57839182840360408801520301602085015260026150bf604089015160608a015190615a84565b14615485575b50508483878b8a60026150e16060870151604088015190615a84565b14615430575b6151e195620f4240614850602097611637614ec86151d8996151cc651cae8c13e0009a879f60408f9c61515b60608c9f9e6151d29f6151329082015160208e90895191015191615816565b61514a858201516020878f918a015191015191615816565b01518385015160608c015191615816565b82519260208101519060608482015191015160a08401526080830152606082015201526151c2610180896151b861519b60408b015160608c015190612ba5565b60208b01518082101561542957505b602061163790870151615e50565b049a015196614784565b9051925195615b32565b93612c93565b04615a4a565b940151846159f0565b046151eb846147b9565b615401576151f8836158bb565b615201846158bb565b91600082128383810312811690848481031390151617612b8f57615262620f424061152e615234610f418560209a612c93565b9561524e8361152e61524882600019612c2c565b89612c2c565b9561525b84600019612c2c565b9103612c2c565b90615275868a015185888a015191615816565b61528960408a01518460408a015191615816565b61529d60608a01518360608a015191615816565b6101208b01526101008a015260e089015260c088015201805160208401519060008282039212818312811691831390151617612b8f57615308620f424061152e602093612c8a6152f58689015160608a015190612ba5565b6040890151808210156153fa57506158bb565b93015190519060008282039212818312811691831390151617612b8f57620f424061152e61535992612c8a6153466020870151604088015190612ba5565b6060870151808210156153fa57506158bb565b908183019082821260008512908015821691151617612b8f5760209485615390620f424061152e6153c696612c8a83600019612c2c565b96826153a760408a95015189604088015191615816565b6153bb606082015188606088015191615816565b015192015191615816565b610180850152610160840152610140830152612c906153ee602084015160a085015190612ba5565b61012084015190612ba5565b90506158bb565b6151f8610f41604086015161542461541d606089015183612ba5565b91876159f0565b615a40565b90506151aa565b5050505050615450620f424061152e6020850151612c8a610f418a615669565b90818352602083015190600083128284810312811690838581031390151617612b8f5791900360208301528483878b8a6150e7565b61152e620f42409161549d9361525b610f418b615669565b8083526040830151600082128183810312811690828481031390151617612b8f5703604083015238806150c5565b6154e99250859161152e916154e284600019612c2c565b9101612c2c565b3880614ffa565b508c615518615513615503848601615964565b9261550d816147b9565b90614728565b615964565b1415614ff5565b89620f4240810204620f4240148a151715612b8f5761555c9361554b8261555195615424940103615e50565b926159f0565b620f42408802612ba5565b82620f4240810204620f42401483151715612b8f57620f42408302811015615585575b95614f34565b50620f4240820261557f565b6155a7906155a28686810103615964565b615984565b90818581031260008612169082868103131617612b8f57836155c99103615e50565b92614f0a565b905090615984565b9050614e20565b50620f4240614e07565b9a5098975050505050505050565b93916080909391930192602061560c8551615e50565b91019182511561565f57620f42409160406156289201516159f0565b04925190615635846158bb565b9160008382039312818412811691841390151617612b8f57816020612be293960151915191615816565b5060009450925050565b615672816156a4565b61567c5750600090565b8061569e61569861568f612c90946156a4565b612b52846147d1565b916156a4565b90615a4a565b6156c56156b0826147b9565b9160206156bc826147d1565b91015190612ba5565b80821015614395575090565b6156d96129fa565b5060018154910154604080516020916156f283836122e7565b8460b81b60c01d8252805161570784826122e7565b8560781b60c01d815281519161571d85846122e7565b8660381b60c01d835280519361573386866122e7565b6001600160401b0387811686528251969061574e82896122e7565b8089851c168852835198615762838b6122e7565b60801c16885260ff83519961577860e08c6122e7565b16151589528801528601526060850152608084015260a083015260c082015290565b519051808203929160009091128015828513169184121617612b8f576000196157c283615964565b0361580257612c9091612c8a6157d7926158bb565b612c8a6157e382615964565b6157fd6157f7620f424092612c8a84615964565b93615e50565b615915565b61152e612c9092612c8a620f4240936158bb565b909182156158b65781519261582a81615964565b91600019830361589b57615850615850615846615856936158bb565b94612c8a86615964565b92615e50565b91620f424090818102918183041490151715612b8f5761587f9261587991615915565b90615984565b915b60008382019384129112908015821691151617612b8f5752565b6158b09250620f424061477e61152e926158bb565b91615881565b505050565b6001600160ff1b0381116158cc5790565b6024906040519063eecaa25d60e01b82526004820152fd5b81156158ff57600160ff1b8114600019831416612b8f570590565b634e487b7160e01b600052601260045260246000fd5b908015615952576000918061592c57505050600090565b6000198101908111611b61579061594291615a40565b90600182018092116143f0575090565b6040516323d359a360e01b8152600490fd5b6000811361597e5760001361597857600090565b60001990565b50600190565b600081136159a8576000136159995750600090565b6159a2906158bb565b60000390565b50612c90906158bb565b906159bc916159d3565b600281149081156159cb575090565b600191501490565b8181136159e957126159e457600190565b600090565b5050600290565b81810292918115918404141715612b8f57565b64e8d4a5100090818102918183041490151715612b8f5790565b60008112615a285790565b6024906040519063b02ef08760e01b82526004820152fd5b81156158ff570490565b90620f424091828102928184041490151715612b8f57612c9091615a40565b9080615a7b575061597857620f424090565b612c9091615a4a565b8181116159e957106159e457600190565b620f424090818102918183041490151715612b8f5790565b61152e9161152e612c9095612c8a615ada610f419761152e615ae097612c8a620f42409b8c998a95612c93565b916158bb565b9161477e816301e13380612c2c565b60405163a9059cbb60e01b60208201526001600160a01b039283166024820152604480820194909452928352612be2929190615b2c6064846122e7565b16615c64565b90606082018051615b438184615a84565b15615b7f5750620f424090615b588284615a84565b15615b67575050506020015190565b90612c90939151916020604082015191015192615b90565b8391506040612c9094519201519160005b90615ba1615ba791959394956158bb565b946158bb565b92615bb28284615a84565b158015615c36575b615c245781615bc891612c93565b90848403926000948587128186128116918613901516176145555792612c8a610f41620f424094615bff61152e95615c0498612c93565b615a4a565b8183820193841291129080158216911516176143f05750612c9090615a1d565b604051634a83a53f60e01b8152600490fd5b506002615c438285615a84565b14615bba565b6001600160401b03811161230a57601f01601f191660200190565b60209190615cee906001600160a01b0316615c7e84615c49565b90615c8c60405192836122e7565b8482527f5361666545524332303a206c6f772d6c6576656c2063616c6c206661696c6564858301526000808587829751910182855af13d15615d78573d91615cd383615c49565b92615ce160405194856122e7565b83523d868885013e615d7c565b90815180615cfd575b50505050565b82849181010312610109575081615d1491016124bf565b15615d2157808080615cf7565b6084906040519062461bcd60e51b82526004820152602a60248201527f5361666545524332303a204552433230206f7065726174696f6e20646964206e6044820152691bdd081cdd58d8d9595960b21b6064820152fd5b6060915b91929015615dde5750815115615d90575090565b3b15615d995790565b60405162461bcd60e51b815260206004820152601d60248201527f416464726573733a2063616c6c20746f206e6f6e2d636f6e74726163740000006044820152606490fd5b825190915015615df15750805190602001fd5b6040519062461bcd60e51b82528160208060048301528251908160248401526000935b828510615e37575050604492506000838284010152601f80199101168101030190fd5b8481018201518686016044015293810193859350615e14565b6000808212615e5d575090565b039056fef12be1637c87b6840bce6a43024d842fdde312893b5711402d511dc296b61fc6a9c835c21e93a672e5a6ef8ca0374f90b7d4378f7eec5769dcf22fdefd60ffae0aec74a1754fb10877b53c31a29be82096082042eb1fb374ec96fac88c0e621be70b99d7f26b781c8b9ce19e28f0fd5af173ec01acfae12f9f3a3914ec74dc71a26469706673582212206d092744065c72b83b4bda06da327f15566b2b5fd4097dca41a096368ea97cc864736f6c63430008130033",
  "deployedBytecode": "0x6080604052600436101561001257600080fd5b6000803560e01c806309218e91146122c05780633934fe3614611fda5780634549a62914611f5057806355f5751014611f085780635b4b969514611e7b5780637dc0d1d014611e5257806387aee00e14611dd257806391eece2814610a9d57806395fcd83614610a7457806399d32fc4146108ea578063a05f990614610869578063a1d0a11314610835578063ad4d4e2914610790578063b329230e14610382578063c45a01551461034c578063ce813aed14610273578063d26b3e261461010c5763fc0c546a146100e357600080fd5b34610109578060031936011261010957546040516001600160a01b039091168152602090f35b80fd5b5034610109576060366003190112610109577f6fee9688c285c5c5c97d6a1a29adced674e6b2ad0888b8ad2116b58a8b3ea24860018154101561025a5760019055303b151580610253575b61023a5733600080516020615ea283398151915255303b15158061024c575b61023a576001600080516020615e82833981519152556001600160a01b03600435818116908190036102325782546001600160a01b031990811690911783556024358281169081900361023657816002541617600255604435918216809203610232576003541617600355807f2801b00eb06461cf9fcb9758b5fafd884ff06a86177386f73b6c49f0bf5a5af0557fbe9b076dc5b65990cca9dd9d7366682482e7817a6f6bc7f4faf4dc32af497f32602060405160018152a180f35b8280fd5b8380fd5b60405163b9a621e160e01b8152600490fd5b5080610176565b5080610157565b604051631edb9c6d60e11b815260016004820152602490fd5b5034610109576040366003190112610109576004356001600160a01b03811691908290036103475760406102c691610343936102ad612954565b50815260126020528181206024358252602052206149f8565b60405191829182919091610140604061016083019480518452602081015160208501528181015182850152606081015160608501526080810151608085015260a081015160a085015260c081015160c085015260e081015160e0850152610100809101519081519085015260208101516101208501520151910152565b0390f35b600080fd5b5034610109578060031936011261010957600080516020615ea2833981519152546040516001600160a01b039091168152602090f35b5034610109576102e0366003190112610109576040516103a4610260826122e7565b6004358152602435602082015260443560408201526064356060820152608435608082015260a43560a082015260c43560c082015260e43560e0820152610104356101008201526101243561012082015261014435610140820152610164356101608201526080610183193601126106b2576040516104246080826122e7565b6101843581526101a43560208201526101c43560408201526101e43560608201526101808201526040610203193601126106b2576040516104666040826122e7565b6102043581526102243560208201526101a0820152610244356101c0820152610264356101e0820152610284356102008201526102a4356102208201526102c43515156102c43503610347576102c4356102408201526005546001600160a01b031633141580610702575b6106f057600080516020615ea28339815191525460405163ad4d4e2960e01b8152839160e090829060049082906001600160a01b03165afa9081156106b65782916106c1575b5073__$f0b9cef6bb3cbdd03cb6172b8c4e9f952f$__3b156106b25761063e604051916302903c7960e21b83526006600484015284516024840152602085015160448401526040850151606484015260608501516084840152608085015160a484015260a085015160c484015260c085015160e484015260e08501516101048401526101008501516101248401526101208501516101448401526101408501516101648401526101608501516101848401526105dd6101808601516101a4850190612320565b60206101a0860151805161022486015201516102448401526101c08501516102648401526101e08501516102848401526102008501516102a48401526102208501516102c484015261024085015115156102e4840152610304830190612547565b81816103e48173__$f0b9cef6bb3cbdd03cb6172b8c4e9f952f$__5af480156106b65761069d575b506040517f823c5e592916c45a8b43a655f22eb029f79dfd3c63f6d122df594aaf83e09b0290806106978582612343565b0390a180f35b816106a7916122e7565b6106b2578138610666565b5080fd5b6040513d84823e3d90fd5b6106e3915060e03d60e0116106e9575b6106db81836122e7565b8101906124eb565b38610517565b503d6106d1565b604051639bca062560e01b8152600490fd5b50600080516020615ea283398151915254604051638da5cb5b60e01b815290602090829060049082906001600160a01b03165afa908115610785578391610756575b506001600160a01b03163314156104d1565b610778915060203d60201161077e575b61077081836122e7565b8101906124cc565b38610744565b503d610766565b6040513d85823e3d90fd5b50346101095780600319360112610109576107a96125f0565b506040516338ecab9f60e21b8152600960048201526101c09190828160248173__$c5b758809b18b7c9fcabb156ae018568b0$__5af491821561082957916107fc575b506107fa604051809261242c565bf35b61081c9150823d8411610822575b61081481836122e7565b81019061265b565b386107ec565b503d61080a565b604051903d90823e3d90fd5b5034610109576020366003190112610109576102c6604061034392610858612954565b506004358152600f60205220614864565b50346101095780600319360112610109576108826129a3565b50610120610890600b613c2c565b60e060405191805183526020810151602084015260408101516040840152606081015160608401526080810151608084015260a081015160a0840152602060c0820151805160c08601520151828401520151610100820152f35b5034610109578060031936011261010957610905600b613c2c565b600080516020615ea28339815191528054604051638da5cb5b60e01b81526001600160a01b0393928592602092908390829060049082908a165afa8015610a695760049285889286948291610a4c575b5061096660408a0191825190612588565b610a44575b5050541660405192838092630c7f7fb960e41b82525afa918215610785578392610a09575b505092816109ee946109aa60608601918483519116612588565b610a01575b5081600554166109c56080860191825190612588565b6109f9575b5050600454166109e060a0840191825190612588565b6109f1575b5050600b613cc5565b80f35b5282386109e5565b5281386109ca565b5281386109af565b90809250813d8311610a3d575b610a2081836122e7565b810103126106b257519280841684036106b25792816109ee610990565b503d610a16565b52853861096b565b610a639150853d871161077e5761077081836122e7565b38610955565b6040513d86823e3d90fd5b50346101095780600319360112610109576003546040516001600160a01b039091168152602090f35b50346101095760c0366003190112610109576004356001600160a01b03811690036103475760a435151560a43503610347576002600080516020615e828339815191525414611dc0576002600080516020615e8283398151915255600080516020615ea283398151915254604051635c975abb60e01b81526001600160a01b0390911690602081600481855afa908115610785578391611d86575b50611d7457600460e060405192610b516101c0856122e7565b610b59612a8a565b8452610b636125f0565b6020850152610b70612741565b6040850152846060850152610b83612933565b6080850152610b90612933565b60a0850152610b9d6129a3565b60c0850152610baa612a8a565b82850152610bb6612d20565b610100850152610bc4612d20565b610120850152846101408501528461016085015284610180850152846101a08501526040519283809263ad4d4e29851b82525afa908115610785578391611d55575b5081526040516338ecab9f60e21b8152600960048201526101c08160248173__$c5b758809b18b7c9fcabb156ae018568b0$__5af4908115610785578391611d34575b506020820152604051635da3780d60e01b8152600660048201526102e08160248173__$f0b9cef6bb3cbdd03cb6172b8c4e9f952f$__5af4908115610785578391611d03575b506040820152610c9f600b613c2c565b60c08201526004356001600160a01b03168252601060205260408220610cc490613f7d565b60e0820152610cd1612933565b50600254604051631006976960e11b815290608090829060049082906001600160a01b03165afa80156107855783918491611cc1575b50610d1182613bb3565b60608301526080820152610d2e610d28600d614864565b82613af3565b60a0820152610d3d600d614864565b610120820151526004356001600160a01b03168252601160205260408220610d64906149f8565b60206101208301510152610d76612954565b905b60c081015160208151910151809114159081611c95575b5015610dcf57602060c08201510151600181018111610dbb57826001610db6920183612d44565b610d78565b634e487b7160e01b84526011600452602484fd5b91905b60e083015160208151910151809114159081611c54575b5015610ffb576004356001600160a01b0316825260126020908152604080842060e086810151840151865292528320610e21906149f8565b015192602060e08201510151600181018111610dbb57826001610e4892016004358461310a565b60018060a01b03600435168352601260205260408320602060e083015101518452602052610e78604084206149f8565b60018060a01b0360043516845260126020526040842060e0830151518552602052610ea5604085206149f8565b9460e06040818501510151960151958582128783810312811690888481031390151617610fe7578187038681128015918303838113929092169183131617610fe757608085015182880382038781128015918301831391821691151617610fd357610f1360a08701516158bb565b91838903810382018881128015918501851391821691151617610fbf57610f46610f418860e0890151613f64565b6158bb565b93808a038203830184018981128015918701871391821691151617610fab57610fa49697989903900301010160c082015260018060a01b03600435168552601260205260408520602060e08501510151865260205260408520614ada565b9190610dd2565b634e487b7160e01b89526011600452602489fd5b634e487b7160e01b88526011600452602488fd5b634e487b7160e01b87526011600452602487fd5b634e487b7160e01b86526011600452602486fd5b5090608081015151610120820151515110611c0e575b608081015151602061012083015101515110611bc2575b60e060c0820151015160206080830151015261104b61012082015151600d614910565b6004356001600160a01b0316825260116020908152604083206101208301519091015161107791614ada565b604060e08201510151610160820152611098602061012083015101516146c7565b6101408201526110ad60c08201515182612bb2565b610100820151526110d36101008083015151015161010061012084015151015190613ea1565b6110e560e08201515160043583612be4565b602061010083015101526111146101006020818401510151015161010060206101208501510151015190613ea1565b6060810151602061010083015101515110611b9a575b6060810151610100820151515110611b75575b602060e08201510151600181018111611b61576001015b60e082015151811015611185578061117b6111756111809360043586612be4565b84612ac4565b612b80565b611154565b506101608101516111a7610f4160e08401516020610120860151015190613f64565b908382128183810312811690828481031390151617610dbb57036101608201526111d360843582612c4f565b906111ed6024356020806101008501510151015183612ca0565b611207604435604060206101008601510151015184612ca0565b92611222606435606060206101008701510151015185612ca0565b916020610100850151015192606085015160405194611243610140876122e7565b8886528860208701528860408701528860608701528860808701528860a08701528860c08701528860e08701528861010087015288610120870152611287846158bb565b61129460208301516158bb565b908a82128183810312811690828481031390151617611b4d576112b68a6158bb565b6112c360408501516158bb565b908c82128183810312811690828481031390151617611a75578c6112e6886158bb565b6112f360608801516158bb565b9182128183810312811690828481031390151617611aa6570360408b0152036020890152038652826060820152876040820152836020820152526101008501515160608601516102006040880151019161134e835182614728565b9161135b610f41836146ed565b611367610f41846147e9565b611373610f4185614784565b60c08b015260e08a0152606089015261138f60208301516158bb565b88519081808201128d8212908015821691151617611a75576113b19101615a1d565b6113be60408401516158bb565b60208a0151908d8280830112908212908015821691151617611aba576113e49101615a1d565b8c6113f260608601516158bb565b60408c0151918280830112908212908015821691151617611aa6576114179101615a1d565b6060850152604084015260208301528152611433835182614728565b90611440610f41826146ed565b926060890151948c86128587810312811690868881031390151617611a75578051611b2a57508b925b600161147583836159d3565b03611ace5750508a905b61148b610f41826147e9565b60e08a0151918d83128284810312811690838581031390151617611aba576114b6610f418f92614784565b60c08c01519182128183810312811690828481031390151617611aa6570360c08b01520360e089015260a088015260808701520360608501526080850151602086015190604087015161150c60a08201516158bb565b611533620f424061152e61152360c08601516158bb565b60c08c015190612c2c565b6158e4565b9081808201128c8212908015821691151617611a92578b82820113600014611a895701905b61156560408201516158bb565b90611586620f4240611580606084015160808d0151906159f0565b046158bb565b9081808401128d8412908015821691151617611a7557620f424061152e6115b360806115be9401516158bb565b60a08d015190612c2c565b91828083830101128d83830112908015821691151617611a755761163d620f42406115808f976116376116638f9a8561152e61166a9c61163d8f9b611580859f61152e9f60209161162a9189958b6116429c5080848484010113600014611a6b575001019f5b51615e50565b9a01996116378b51615e50565b906159f0565b612c2c565b9a61165d60406116556020840151615e50565b920151615e50565b90612ba5565b9151615e50565b9081808201128a8212908015821691151617611a57576101a083015115611a51575050875b61010086015261169e856143b1565b611a475750865b6101208501526116be846020610100880151015161468a565b6116ce846101008701515161468a565b604060e08601510180518480820112898212908015821691151617610fab578401905260e0602061010087015101510180518480820112898212908015821691151617610fab57840190526101608501518380820112888212908015821691151617610fbf57830161016086015261174f6020610100870151015186612ac4565b61177460e086015160408701519086608089015160608a01519060a435943394613ebb565b9561177e856143b1565b6119d9575b6117956119409785876004358a613422565b60c0860151518852600f6020526117b6604089206101008801515190614910565b6004356001600160a01b03168852601260209081526040808a2060e0890151518b5282528920610100880151909101516117ef91614ada565b6117f884615964565b60018114611982575b60001914611955575b60608601519260405193845260208401526040830152606082015281608082015260a435151560a082015260018060a01b0360043516907f29083474b417ce11b6e16e049302e231f5d3d753484fe3e8155ea0b7ffe4f3c160c03392a361012060608401519260405193845280516020850152602081015160408501526040810151606085015260608101516080850152608081015160a085015260a081015160c085015260c081015160e085015260e08101516101008501526101008101518285015201516101408301526101608201527fbbbad390211bc8fbc03c550e5c69ef38db7ddb94900123f4e565339f81fb8fc661018060018060a01b036004351692a261191c60c0820151600b613cc5565b6004356001600160a01b0316835260106020526040832060e0919091015190613ff4565b6001600080516020615e828339815191525580f35b875461197d906001600160a01b031661197561197087615e50565b615a03565b903390615aef565b61180a565b88546119d4906001600160a01b031661199d61197088615e50565b90604051916323b872dd60e01b60208401523360248401523060448401526064830152606482526119cf6084836122e7565b615c64565b611801565b60025488906001600160a01b0316803b156106b257818091604460405180948193631a9be9fd60e11b835230600484015260018060a01b036004351660248401525af180156106b657611a2e575b5050611783565b81611a38916122e7565b611a43578738611a27565b8780fd5b61014001516116a5565b0161168f565b634e487b7160e01b8a52601160045260248afd5b925050509f611624565b634e487b7160e01b8d52601160045260248dfd5b50508990611558565b634e487b7160e01b8c52601160045260248cfd5b634e487b7160e01b8f52601160045260248ffd5b634e487b7160e01b8e52601160045260248efd5b80808301128d83128015918015821690831617611aa6578284810312169082848103131617611a75579061152e611b2492620f424090611b1d8261163d611b16878503615964565b6002612c2c565b9301612c2c565b9061147f565b611b4790611b3f611b3a8c6143b1565b615e50565b905190615a4a565b92611469565b634e487b7160e01b8b52601160045260248bfd5b634e487b7160e01b83526011600452602483fd5b60c0810151611b848151612b80565b9052611b9561010082015151614429565b61113d565b60e0810151611ba98151612b80565b9052611bbd60206101008301510151614429565b61112a565b611c09611bda602060e0840151015160043584612be4565b611bf7608084015182905190600060a08201526000608082015252565b602060e084015101516004358461310a565b611028565b611c4f611c23602060c0840151015183612bb2565b611c40608084015182905190600060a08201526000608082015252565b602060c0840151015183612d44565b611011565b915050600181018111611c81576001611c71910160043584612be4565b6080830151518151111538610de9565b634e487b7160e01b82526011600452602482fd5b91925050600181018111611b61576001611cb0910182612bb2565b906080810151518251111538610d8f565b91505060803d608011611cfc575b611cd981836122e7565b608082828101031261023657611cf3606091830183613abd565b91015138610d07565b503d611ccf565b611d2791506102e03d6102e011611d2d575b611d1f81836122e7565b8101906127ec565b38610c8f565b503d611d15565b611d4f91506101c03d6101c0116108225761081481836122e7565b38610c49565b611d6e915060e03d60e0116106e9576106db81836122e7565b38610c06565b604051634b94d2bb60e01b8152600490fd5b90506020813d602011611db8575b81611da1602093836122e7565b8101031261023257611db2906124bf565b38610b38565b3d9150611d94565b6040516345f6780960e11b8152600490fd5b503461010957602036600319011261010957611e05604060e092611df46129fa565b5060043581526013602052206156d1565b60c060405191805115158352602081015151602084015260408101515160408401526060810151516060840152608081015151608084015260a08101515160a084015201515160c0820152f35b50346101095780600319360112610109576002546040516001600160a01b039091168152602090f35b5034610109576020366003190112610109576001600160a01b036004358181169081900361034757611ec4604060e09460c093611eb6612a8a565b508152601060205220613f7d565b60405192815184526020820151602085015260408201516040850152606082015160608501526080820151608085015260a08201511660a0840152015160c0820152f35b5034610109576020366003190112610109576004356001600160a01b03811691908290036103475760406102c69161034393611f42612954565b5081526011602052206149f8565b5034610109578060031936011261010957611f69612741565b50604051635da3780d60e01b8152600660048201526102e090818160248173__$f0b9cef6bb3cbdd03cb6172b8c4e9f952f$__5af4918215610785576103439392611fbd575b505060405191829182612343565b611fd39250803d10611d2d57611d1f81836122e7565b3880611faf565b503461010957610200366003190112610109576001600160a01b0390600435828116908190036106b257602435838116809103610232576101c09182604319360112610236576040519461202e84876122e7565b604435865260209060643582880152608435604088015260a435606088015260c435608088015260e43560a08801526101043560c08801526101243560e08801526101443561010088015261016435610120880152610184356101408801526101a43580151581036122bc576101608801526101c43580151581036122bc576101808801526101e49283358015158103611a43576101a089015281600080516020615ea2833981519152541692604051638da5cb5b60e01b81528181600481885afa9081156122b1579084918a91612294575b5016330361227c57856004967fc258faa9a17ddfdf4130b4acff63a289202e7d5f9e42f366add65368575486bc937feee59a71c694e68368a1cb0d135c448051bbfb12289e6c2223b0ceb100c2321d8460018060a01b03199280848d5416178c55604051908152a16005541617600555604051908152a160e073__$c5b758809b18b7c9fcabb156ae018568b0$__926040519586809263ad4d4e29851b82525afa938415612271578694612250575b5060015416813b1561224c5785926121f694926102e49260405196879586946310317ba160e11b8652600960048701526121ee8d602488019061242c565b850190612547565b6102c48301525af480156107855761222c575b50600080516020615e628339815191529192612228604051809261242c565ba180f35b9161224681600080516020615e62833981519152946122e7565b91612209565b8580fd5b61226a91945060e03d60e0116106e9576106db81836122e7565b92386121b0565b6040513d88823e3d90fd5b604051634d193d1f60e01b8152336004820152602490fd5b6122ab9150833d851161077e5761077081836122e7565b38612101565b6040513d8b823e3d90fd5b8680fd5b50346101095780600319360112610109576122d9612954565b506103436102c6600d614864565b601f909101601f19168101906001600160401b0382119082101761230a57604052565b634e487b7160e01b600052604160045260246000fd5b606080918051845260208101516020850152604081015160408501520151910152565b9190916102c06102e0820193805183526020810151602084015260408101516040840152606081015160608401526080810151608084015260a081015160a084015260c081015160c084015260e081015160e084015261010080820151908401526101208082015190840152610140808201519084015261016080820151908401526123d86101808083015190850190612320565b6101a08101519060208251926102009384870152015161022090818601526101c08201519261024093848701526101e08301516102608701528201516102808601528101516102a085015201511515910152565b805182526020810151602083015260408101516040830152606081015160608301526080810151608083015260a081015160a083015260c081015160c083015260e081015160e083015261010080820151908301526101208082015190830152610140808201519083015261016080820151151590830152610180808201511515908301526101a0809101511515910152565b5190811515820361034757565b9081602091031261034757516001600160a01b03811681036103475790565b908160e09103126103475760c06040519161250760e0846122e7565b805183526020810151602084015260408101516040840152606081015160608401526080810151608084015260a081015160a0840152015160c082015290565b60c08091805184526020810151602085015260408101516040850152606081015160608501526080810151608085015260a081015160a08501520151910152565b6001600160a01b0381811692909190338490036125e7576125db6020927f20ca5094f3a20c321cbe4123d0f01b276b81df0fa24cd4d83d9253956035d8639460005416906125d584615a03565b91615aef565b604051908152a2600190565b50505050600090565b604051906126006101c0836122e7565b816101a06000918281528260208201528260408201528260608201528260808201528260a08201528260c08201528260e082015282610100820152826101208201528261014082015282610160820152826101808201520152565b80916101c092839103126103475761267660405192836122e7565b805182526020810151602083015260408101516040830152606081015160608301526080810151608083015260a081015160a083015260c081015160c083015260e081015160e08301526101008082015190830152610120808201519083015261014080820151908301526101606126ef8183016124bf565b908301526101806127018183016124bf565b908301526127136101a08092016124bf565b9082015290565b604051906127296080836122e7565b60006060838281528260208201528260408201520152565b60405190612751610260836122e7565b816102406000918281528260208201528260408201528260608201528260808201528260a08201528260c08201528260e0820152826101008201528261012082015282610140820152826101608201526127a961271a565b6101808201526040516127bd6040826122e7565b8381528360208201526101a0820152826101c0820152826101e082015282610200820152826102208201520152565b8091036102e081126103475760408051926102609061280b82866122e7565b80518552602081015160208601528281015183860152606081015160608601526080810151608086015260a081015160a086015260c081015160c086015260e081015160e08601526101008082015190860152610120808201519086015261014080820151908601526101608082015190860152608061017f198501126103475782519361289a6080866122e7565b61018093848301518652806101a0928385015160208901526101c09788860151838201526101e0978887015160608301528a01526101ff19011261034757612713946102c0946128ec835193846122e7565b61020092838601518152610220948587015160208301528a01526102409788860151908a015284015190880152610280830151908701526102a082015190860152016124bf565b604051906129426060836122e7565b60006040838281528260208201520152565b60405190612964610120836122e7565b8160008082528060208301528060408301528060608301528060808301528060a08301528060c083015260e082015261010061299e612933565b910152565b604051906129b3610100836122e7565b8160e06000918281528260208201528260408201528260608201528260808201528260a08201526040516129e86040826122e7565b83815283602082015260c08201520152565b604090815191612a0b60e0846122e7565b60c0836000808252612a84845194602095612a2687826122e7565b838152868501528051612a3987826122e7565b838152818501528051612a4c87826122e7565b83815260608501528051612a6087826122e7565b83815260808501528051612a7487826122e7565b83815260a08501525194856122e7565b83520152565b60405190612a9960e0836122e7565b8160c06000918281528260208201528260408201528260608201528260808201528260a08201520152565b610160810180516080840151600095949281830392909187138015828513169184121617610fe757612af960a08401516158bb565b91868382039312818412811691841390151617610fe757526101408201805193945092612b5f926002612b34612b2e856146c7565b84615a84565b03612b63576101a0915001612b58815161165d8651612b52866146c7565b90612c93565b90526146c7565b9052565b610180612b5891019161165d835191612b7b866146c7565b612c93565b6000198114612b8f5760010190565b634e487b7160e01b600052601160045260246000fd5b91908201809211612b8f57565b9190612bbc612954565b50600052600f602052612be2610120612bd86040600020614864565b9301515183614569565b565b929190612bef612954565b5060018060a01b03166000526012602052604060002090600052602052612be26020610120612c2160406000206149f8565b940151015183614569565b818102929160008212600160ff1b821416612b8f578184051490151715612b8f57565b6001612c5f600160ff1b846159d3565b14612c68575090565b60e0015160400151612c909150620f42409061152e90612c8a83600019612c2c565b90612c2c565b90565b91908203918211612b8f57565b6001612cae60001985615a84565b14612d1a576001612cc160011985615a84565b14612ccb57505090565b9080925015612d1657612c909150610140612cfd612cf1602061012085015101516146c7565b6101a084015190612c93565b9101519081811015612d0f5790612c93565b5080612c93565b5090565b50905090565b60405190612d2f6040836122e7565b81612d38612954565b8152602061299e612954565b9091610120820190815151516000526013602052612d6560406000206156d1565b91612d708285613af3565b906040820151156130f9575b8051519160a083519685612dba612db08960c08501518760208201519a86898901519160208a01519460408b015196614d1f565b9290965151614404565b60c082015160e06020860151918c60208201520152612e748360c08401516080828b0151612e586020880151612e32612e04620f4240612dfc8c51518c6159f0565b04809a612c93565b612b7b620f4240612e2981612e1d6060880151866159f0565b049889960151846159f0565b04968792612c93565b97612e4260408701918251612ba5565b9052612e5360608601938451612ba5565b612ba5565b9052612e6960808301918251612ba5565b905201918251612ba5565b90520152825160005260136020526040600020926002600180603f1b0381612ea18260208a0151516159d3565b146130e75760208701515160016001603f1b03199190612ec29083906159d3565b156130e75782612ed78260408b0151516159d3565b146130e757612eeb8260408a0151516159d3565b156130e757612f00839160608a0151516159d3565b146130e757612f14906060880151516159d3565b156130e7576080860151518190612f33906001600160401b0390615a84565b146130e75760a0860151518190612f52906001600160401b0390615a84565b146130e75760c086015151612f6f906001600160401b0390615a84565b146130e757846001610240957fb7e62f90ed3551a4e4ea3d0520667e7d084c5fb661b47292451bf9bb8cc9eafc975115156000146130e057815b6101008360481b0360208501515160081b1660ff8460481b8560881b0360408701515160481b16921617178260881b8360c81b0360608501515160881b161792828060401b03608082015151168360401b8460801b0360a08301515160401b16179060c08460801b85821b039101515160801b1617928155015551956040519283526020830152805160408301526020810151606083015260408101516080830152606081015160a0830152608081015160c083015260a081015160e083015260c0810151610100908184015260e0820151610120840152810151906101409182840152610120810151916101609283850152810151916101809283850152810151916101a09283850152810151916101c09283850152810151916101e092838501528101516102008401520151610220820152a3565b6000612fa9565b60405163693bbf3960e11b8152600490fd5b6131058382515161443e565b612d7c565b91928051600052601360205261312360406000206156d1565b9182511561340a575b602061012085015101519182519460e081015160208101519587600052601360205261315b60406000206156d1565b61316361271a565b96602083015161317f602084015191602084019283519161579a565b6131976040860151604086015160408601519161579a565b9060008282019283129112908015821691151617612b8f576131c76060860151606086015160608601519161579a565b9060008282019283129112908015821691151617612b8f5761325993613213613240620f424061321881968f96613239975261321360808c015191608088015190519251905190612c93565b6159f0565b048561323960a08b015161321360a088015160408c01519251905190612c93565b0490612ba5565b94606060c0808a01519401519101519251905190612c93565b6020870152608084015180604088015261327c60a08601518060608a01526158bb565b9060008282019283129112908015821691151617612b8f57604083015187519060008282019283129112908015821691151617612b8f57600082128183810312811690828481031390151617612b8f57613310938b92602092036040820152606081016132ee8151848c015190612ba5565b905201526133058460206101208601510151614404565b8360e0840151613f0d565b613366575b50906060600080516020615ec28339815191529360c093519760405196875260208701528051604087015260208101518287015260408101516080870152015160a085015260018060a01b031692a4565b919060018060a01b0360a060e0850151015116600052601060205261338e6040600020613f7d565b9360e0840151916133a760c060408801519401516158bb565b92838082011260008212908015821691151617612b8f57600080516020615ec28339815191529660c0966060956134009301604083015260a060e0600180831b0392015101511660005260106020526040600020613ff4565b9293509350613315565b61341d826020610120870151015161443e565b61312c565b949392916101a093848701948551916101208901906002978861345460209661344e88875101516146c7565b90615a84565b14613aab5781908161398e575b5061397c5761010091828b019661347b86895101516146c7565b1580613968575b1580613929575b80613902575b6138f157858c0194855101511515806138ce575b6138bc578b9986895151015193816134c66040809e019660e08851015190615a84565b14806138a8575b613897576134df888b5101518a61418f565b158015613882575b61387157613862576001600160a01b0391821633811415928890846137d2575b5050508161378d575b5061377c5760c08b015161352f86825192015160a08751015190612ba5565b10801561375b575b61374a5761356198999a85885101516135666080830191825186519061016086019e8f51936146c7565b6147fb565b1561373a576135989061358b61357f89865101516146c7565b61018085015190612ba5565b90518551908d51926147fb565b1561372a5760e00151608001519051850151511080613719575b613708576135c183518661426c565b91826136f0575b826136ce575b50506136bd576135df90518361426c565b928361365d575b505081613644575b506136335760006135fe916159d3565b15908161361e575b5061360e5750565b5163442145e560e01b8152600490fd5b61362c9150600090516159d3565b1538613606565b82516303fa425960e21b8152600490fd5b613656915060608151910151906159d3565b15386135ee565b909192505151908101908151906136888761367e6060840194855190612ba5565b9201518092615a84565b1592831561369c575b5050509038806135e6565b6136b49350906136ac9151612ba5565b905190615a84565b15388080613691565b865163015f9ae760e41b8152600490fd5b6136e892506136de8751516147e9565b9151015190615a84565b1538806135ce565b9150613701600060e08701516159d3565b15916135c8565b885163ba555da760e01b8152600490fd5b50613723856143b1565b15156135b2565b8a51621c56d560e31b8152600490fd5b8b51621c56d560e31b8152600490fd5b885163935bdc2160e01b8152600490fd5b5060e08b015161377686825192015160c08751015190612ba5565b10613537565b88516302ded67360e51b8152600490fd5b9050613798876143b1565b1590816137a8575b501538613510565b90506137b560008a6159d3565b9081149081156137c7575b50386137a0565b6001915014386137c0565b9091929350600080516020615ea283398151915254169160448d518094819363131bac4760e11b835260048301523360248301525afa90811561385757600091613822575b501590388781613507565b908782813d8311613850575b61383881836122e7565b81010312610109575061384a906124bf565b38613817565b503d61382e565b8b513d6000823e3d90fd5b50505050505050505050509050565b8b5163229a307760e21b8152600490fd5b5061389188855101518a61418f565b156134e7565b8b5163376a1ec760e11b8152600490fd5b50816138b660008b516159d3565b146134cd565b604051630a6ad31160e21b8152600490fd5b50896138dc600089516159d3565b14806134a357506138ec8761415b565b6134a3565b60405162558f1d60e91b8152600490fd5b508b610220604061391d606084015160808501515190612c93565b9201510151111561348f565b50613933876143b1565b1580613940575b15613489565b5061394c60008a6159d3565b8a811490811561395d575b5061393a565b600191501438613957565b5061397686835101516146c7565b15613482565b6040516329a7bff360e11b8152600490fd5b90505160016139a586855101519261344e846146c7565b1490811591613a37575b508015613a25575b80156139c4575b38613461565b508451848601518082019081126000809312908015821691151617611c8157604087015190828282019283129112908015821691151617611c815790613a09916159d3565b888114908115613a1a575b506139be565b600191501438613a14565b50613a316000886159d3565b156139b7565b905060808b01519060408c01516101608d0151918a830390600093848d12818412811691841390151617610dbb5792613a9792610f4192613a7b613a9d97966146c7565b9280821315613aa35750945b6101e08b8301519201519261482d565b906159b2565b386139af565b905094613a87565b6040516339b7cfed60e11b8152600490fd5b919082606091031261034757604051613ad76060826122e7565b604061299e8183958051855260208101516020860152016124bf565b9190613afd612933565b5051613b07612933565b50600254604051630e0886f960e41b81526004810192909252606090829060249082906001600160a01b03165afa908115613ba757600091613b6e575b50613b4e81613bb3565b8092604082015115613b5e575050565b60e060c060209201510151910152565b60603d8111613ba0575b613b8281836122e7565b810191606082840312610109575090613b9a91613abd565b38613b44565b503d613b78565b6040513d6000823e3d90fd5b6003546001600160a01b03169081613bc9575050565b6020016020815160246040518095819363d7c7a93560e01b835260048301525afa918215613ba757600092613bfc575052565b90916020823d8211613c24575b81613c16602093836122e7565b810103126101095750519052565b3d9150613c09565b613c346129a3565b5060018154910154604051613c4a6040826122e7565b8160e01b60e01d81528160c81b60e81d602082015260405192613c6f610100856122e7565b63ffffffff80821685528160201c16602085015265ffffffffffff808260401c166040860152808260701c1660608601528160a01c16608085015260d01c60a084015260c083015260881b60c01d60e082015290565b91909163ffffffff9081845111613e8f576020918285019281845111613e8f576040918287019260029365ffffffffffff9185613d03848451615a84565b14613e7f5760608a019086613d19858451615a84565b14613e7f5760808b019287613d2f868651615a84565b14613e6e5787613d4460a08e01968751615a84565b14613e6e5760c08c019988613d5f637fffffff8d51516159d3565b14613e5d57613d75637fffffff198c51516159d3565b15613e5d5788613d8c627fffff8a8e5101516159d3565b14613e5d57613da3627fffff19898d5101516159d3565b15613e5d5760e08d0198613dbe600180603f1b038b516159d3565b14613e5d578851613dd89060016001603f1b0319906159d3565b15613e5d578660019b9c9d51169063ffffffff60201b9051891b16179165ffffffffffff60401b9151901b16179065ffffffffffff60701b905160701b16179065ffffffffffff60a01b905160a01b1617905160d01b17955190815116918062ffffff60201b920151901b1617908360381b8460781b03905160381b16179281550155565b8251632142bc2760e01b8152600490fd5b8151632142bc2760e01b8152600490fd5b51632142bc2760e01b8152600490fd5b604051632142bc2760e01b8152600490fd5b815191604060208201519101516040830152602082015252565b9391949295158015613eff575b613ef457608094613ed89261430b565b6001600160a01b0390911660a083015260c08201520152600190565b505050505050600090565b506080840151855110613ec8565b915115908115613f54575b50613f4e5760408101613f3060c082519301516158bb565b9160008382039312818412811691841390151617612b8f5752600190565b50600090565b9050516080820151141538613f18565b608081015191516000921115612d165760c09150015190565b613f85612a8a565b50600181549101549060405191613f9d60e0846122e7565b63ffffffff8083168452808360201c1660208501528260801b60c01d604085015260018060401b0392838160801c16606086015260c01c16608084015260018060a01b03811660a084015260a01c1660c082015290565b919063ffffffff92838251116141495760208201848151116141495760409081840191600261402a600180603f1b0385516159d3565b146141395782516140449060016001603f1b0319906159d3565b1561413957606085019060018060401b03936002614063868551615a84565b146141285760808701938985511161411757600261408660c08a01978851615a84565b14614117578751905191519351945160a098890151965160c09190911b63ffffffff60c01b1660809690961b600160801b600160c01b03169490931b600160401b600160801b031660209290921b63ffffffff60201b1699169890981797909717171782559390911b600160a01b600160e01b03166001600160a01b03939093169290921760019290920191909155565b825163320f423b60e21b8152600490fd5b815163320f423b60e21b8152600490fd5b5163320f423b60e21b8152600490fd5b60405163320f423b60e21b8152600490fd5b600261416c600060208401516159d3565b14908115614178575090565b600291506000604061418b9201516159d3565b1490565b8051159182918261425f575b83614252575b83614245575b8315614201575b83156141bb575b50505090565b6040015115925090826141f9575b50816141ec575b816141df575b503880806141b5565b60209150015115386141d6565b60608101511591506141d0565b9150386141c9565b925060208301511580614239575b8061422d575b80614221575b926141ae565b5060608101511561421b565b50604081015115614215565b5060408301511561420f565b60408201511593506141a7565b60208201511593506141a1565b602081015115935061419b565b906101a08101511591826142cb575b8261428557505090565b602081015115925090826142be575b82156142b0575b5081156142a6575090565b612c90915061415b565b61016001511591503861429b565b6040820151159250614294565b8092505180159081156142fd575b81156142e7575b509161427b565b6002915060006142f6916159d3565b14386142e0565b6101808301511591506142d9565b90614315826143b1565b156143a957614373602061435461163793614348614338611b3a610140986143b1565b620f424096879586940151615e50565b046020870151906159f0565b046101e08501518082116000146143a257505b610120850151906159f0565b0461016083015180821060001461439a5750915b015180821115614395575090565b905090565b905091614387565b9050614367565b505050600090565b80516020820151918282019283126000809312908015821691151617611c815760400151918183820193841291129080158216911516176143f0575090565b634e487b7160e01b81526011600452602490fd5b8151916020810151906060604082015191015160608401526040830152602082015252565b60c06000918260808201528260a08201520152565b61010081015191825192602083019161445783516158bb565b93602082019461446786516158bb565b96878203916000809912818412811691841390151617610fbf57878282019283129112908015821691151617610fd3578352602083019586519360408301976144b089516158bb565b9060408601966144c088516158bb565b9285848203941281851281169185139015161761455557848382019384129112908015821691151617610dbb5790604092915201946060865193019561450687516158bb565b90606086019461451686516158bb565b9285848203941281851281169185139015161761455557848382019384129112908015821691151617610dbb5752519651945160809390930152525252565b634e487b7160e01b85526011600452602485fd5b9061010080910151908201519161457e612933565b918051845190818103906000809312818312811691831390151617611c81578452602082015191602086015192828482039412818512811691851390151617611c815760408091602087019485520151950151948186820396128187128116918713901516176143f0576040840194855260208301936145fe85516158bb565b905190828282019283129112908015821691151617611c815761462090615a1d565b94604084019261463084516158bb565b905190838282019283129112908015821691151617611b6157614654606091615a1d565b94019161466183516158bb565b9151918183820193841291129080158216911516176143f0575061468490615a1d565b90525252565b608081018051916101008401519260008482019485129112908015821691151617612b8f57612b5f9260a092520191610120835191015190612ba5565b60206040820151606083015180821160001461439a575091015180821115614395575090565b61470760606146ff60408401516158bb565b9201516158bb565b9060008282039212818312811691831390151617612b8f57612c9090615e50565b9060008161473857505050600090565b614752606061474a60408601516158bb565b9401516158bb565b928184820394128185128116918513901516176143f057509061152e620f424061477e612c90946158bb565b92612c2c565b6147a9906147a3614794826147b9565b9161165d6020820151916147d1565b90615a69565b620f424080821015614395575090565b60606040820151910151808211600014614395575090565b60606040820151910151808210600014614395575090565b6147a9906147a36020820151916147b9565b610f4190613a979293612c909560008082136000146148255750945b6101c082519201519261482d565b905094614817565b909181156125e75760209261485061485693611637620f42409687940151615e50565b046159f0565b049080821115614395575090565b61486c612954565b50600181549101549065ffffffffffff6040519161488b6060846122e7565b8360801b60c01d83528360401b60c01d60208401528360c01d6040840152604051936148b9610120866122e7565b63ffffffff8216855260018060401b0380911660208601528160801c1660408501528060c01c60608501528060b01b60d01d608085015260501c1660a0830152600060c0830152600060e083015261010082015290565b9061491a81614be9565b602081019060018060401b03916002614934848351615a84565b146149e6576040820192600261494b828651615a84565b146149e65760608301906002614962828451615a84565b146149e65760019461010060409263ffffffff87511665ffffffffffff60201b608089015160201b161765ffffffffffff60501b60a089015160501b16178860801b8960c01b0380945160801b161794519551169501519486831b8760801b038651841b161790602086015160801b16179301519160c01b17845560c01b17910155565b6040516352a8a97f60e01b8152600490fd5b614a00612954565b50805460019091015460016001603e1b03600282901c1691600382169181600084614ad45750845b600060018603614ace575080945b600090600203614ac757505b604090815195614a536060886122e7565b60c0948060801b861d885280841b861d6020890152851d83880152825197614a7d6101208a6122e7565b63ffffffff8516895260208901528288015260608701528160b01b60d01d608087015265ffffffffffff8260501c1660a08701521b811d818501521d60e083015261010082015290565b9050614a42565b94614a36565b94614a28565b614ae382614be9565b600180603e1b03906002614afb836020860151615a84565b146149e65760408301916002614b12828551615a84565b146149e6576002614b2860608601928351615a84565b146149e6576001925115600014614be15751614bda5760005b925b604063ffffffff82511665ffffffffffff60201b608084015160201b161765ffffffffffff60501b60a084015160501b16178460801b8560c01b03908160c085015160801b161760e084015160c01b1795610100600487851b03614ba6866146c7565b60021b1694015193600387851b8860801b038651861b169216171790602084015160801b161791015160c01b179281550155565b6002614b41565b508192614b43565b63ffffffff8151116149e6576080810160029081614c0e657fffffffffff83516159d3565b146149e65751614c2690657fffffffffff19906159d3565b156149e65780614c4065ffffffffffff60a0850151615a84565b146149e65760c0820190600180603f1b039281614c5e8585516159d3565b146149e657915160016001603f1b03199290614c7b9084906159d3565b156149e65760e0810182614c908683516159d3565b146149e65783614ca091516159d3565b156149e657610100019281614cb7828651516159d3565b146149e657614cc8838551516159d3565b156149e65781614cdd826020875101516159d3565b146149e657614cf1836020865101516159d3565b156149e657614d05906040855101516159d3565b146149e6576040614d18925101516159d3565b156149e657565b959297969491939460405198614d376102008b6122e7565b60008a52600060208b0152600060408b0152600060608b0152600060808b0152600060a08b0152600060c08b0152600060e08b015260006101008b015260006101208b015260006101408b015260006101608b015260006101808b015260006101a08b015260006101c08b015260006101e08b015289604085015115158952614dc28683898c6155f6565b919082602083015281526101a08701516155e857505060c0614de261271a565b930151614dfb6101a08401519261020085015190614728565b620f42408112156155de575b614e16620f4240600019612c2c565b808213156155d757505b88519288620f4240614e3c8c61163760206116558d51966156a4565b0484614e72614e61620f424061152e8a61163d8361163d60208951990151938b612c93565b61152e620f424061477e88516158bb565b8080830112946000831215958015600085121690871617612b8f57614eba614e9b838501615964565b6020830151614eab858701615e50565b808210156155cf575090615984565b95614ecd614ec88b88612c93565b615a95565b9183850185810381811260008812169112831617612b8f576002614eff6020614ef588615e50565b9301518093615a84565b036155915750506000925b828101810361551f575050505081620f4240810204620f42401482151715612b8f57620f42408202955b855190848083011260008312908015821691151617612b8f5780620f4240810204620f42401481151715612b8f578288614f8b9387620f4240614f7995029101615aad565b61152e620f424061477e816002612c2c565b9582620f4240810204620f42401483151715612b8f57620f4240614fb193029084615aad565b92848085011260008512908015821691151617612b8f5761503494614f7994620f4240946020846150289661502096520152818101916102408901511515806154f0575b6154cb575b50506150108461152e8361163d83600019612c2c565b8160408a01526020890152615e50565b8851906159f0565b048060608601526158bb565b602083015161504660608501516158bb565b90600082128183810312811690828481031390151617612b8f5782808383030112600083830312908015821691151617612b8f57604085015191600084128385810312811690848681031390151617612b8f57839182840360408801520301602085015260026150bf604089015160608a015190615a84565b14615485575b50508483878b8a60026150e16060870151604088015190615a84565b14615430575b6151e195620f4240614850602097611637614ec86151d8996151cc651cae8c13e0009a879f60408f9c61515b60608c9f9e6151d29f6151329082015160208e90895191015191615816565b61514a858201516020878f918a015191015191615816565b01518385015160608c015191615816565b82519260208101519060608482015191015160a08401526080830152606082015201526151c2610180896151b861519b60408b015160608c015190612ba5565b60208b01518082101561542957505b602061163790870151615e50565b049a015196614784565b9051925195615b32565b93612c93565b04615a4a565b940151846159f0565b046151eb846147b9565b615401576151f8836158bb565b615201846158bb565b91600082128383810312811690848481031390151617612b8f57615262620f424061152e615234610f418560209a612c93565b9561524e8361152e61524882600019612c2c565b89612c2c565b9561525b84600019612c2c565b9103612c2c565b90615275868a015185888a015191615816565b61528960408a01518460408a015191615816565b61529d60608a01518360608a015191615816565b6101208b01526101008a015260e089015260c088015201805160208401519060008282039212818312811691831390151617612b8f57615308620f424061152e602093612c8a6152f58689015160608a015190612ba5565b6040890151808210156153fa57506158bb565b93015190519060008282039212818312811691831390151617612b8f57620f424061152e61535992612c8a6153466020870151604088015190612ba5565b6060870151808210156153fa57506158bb565b908183019082821260008512908015821691151617612b8f5760209485615390620f424061152e6153c696612c8a83600019612c2c565b96826153a760408a95015189604088015191615816565b6153bb606082015188606088015191615816565b015192015191615816565b610180850152610160840152610140830152612c906153ee602084015160a085015190612ba5565b61012084015190612ba5565b90506158bb565b6151f8610f41604086015161542461541d606089015183612ba5565b91876159f0565b615a40565b90506151aa565b5050505050615450620f424061152e6020850151612c8a610f418a615669565b90818352602083015190600083128284810312811690838581031390151617612b8f5791900360208301528483878b8a6150e7565b61152e620f42409161549d9361525b610f418b615669565b8083526040830151600082128183810312811690828481031390151617612b8f5703604083015238806150c5565b6154e99250859161152e916154e284600019612c2c565b9101612c2c565b3880614ffa565b508c615518615513615503848601615964565b9261550d816147b9565b90614728565b615964565b1415614ff5565b89620f4240810204620f4240148a151715612b8f5761555c9361554b8261555195615424940103615e50565b926159f0565b620f42408802612ba5565b82620f4240810204620f42401483151715612b8f57620f42408302811015615585575b95614f34565b50620f4240820261557f565b6155a7906155a28686810103615964565b615984565b90818581031260008612169082868103131617612b8f57836155c99103615e50565b92614f0a565b905090615984565b9050614e20565b50620f4240614e07565b9a5098975050505050505050565b93916080909391930192602061560c8551615e50565b91019182511561565f57620f42409160406156289201516159f0565b04925190615635846158bb565b9160008382039312818412811691841390151617612b8f57816020612be293960151915191615816565b5060009450925050565b615672816156a4565b61567c5750600090565b8061569e61569861568f612c90946156a4565b612b52846147d1565b916156a4565b90615a4a565b6156c56156b0826147b9565b9160206156bc826147d1565b91015190612ba5565b80821015614395575090565b6156d96129fa565b5060018154910154604080516020916156f283836122e7565b8460b81b60c01d8252805161570784826122e7565b8560781b60c01d815281519161571d85846122e7565b8660381b60c01d835280519361573386866122e7565b6001600160401b0387811686528251969061574e82896122e7565b8089851c168852835198615762838b6122e7565b60801c16885260ff83519961577860e08c6122e7565b16151589528801528601526060850152608084015260a083015260c082015290565b519051808203929160009091128015828513169184121617612b8f576000196157c283615964565b0361580257612c9091612c8a6157d7926158bb565b612c8a6157e382615964565b6157fd6157f7620f424092612c8a84615964565b93615e50565b615915565b61152e612c9092612c8a620f4240936158bb565b909182156158b65781519261582a81615964565b91600019830361589b57615850615850615846615856936158bb565b94612c8a86615964565b92615e50565b91620f424090818102918183041490151715612b8f5761587f9261587991615915565b90615984565b915b60008382019384129112908015821691151617612b8f5752565b6158b09250620f424061477e61152e926158bb565b91615881565b505050565b6001600160ff1b0381116158cc5790565b6024906040519063eecaa25d60e01b82526004820152fd5b81156158ff57600160ff1b8114600019831416612b8f570590565b634e487b7160e01b600052601260045260246000fd5b908015615952576000918061592c57505050600090565b6000198101908111611b61579061594291615a40565b90600182018092116143f0575090565b6040516323d359a360e01b8152600490fd5b6000811361597e5760001361597857600090565b60001990565b50600190565b600081136159a8576000136159995750600090565b6159a2906158bb565b60000390565b50612c90906158bb565b906159bc916159d3565b600281149081156159cb575090565b600191501490565b8181136159e957126159e457600190565b600090565b5050600290565b81810292918115918404141715612b8f57565b64e8d4a5100090818102918183041490151715612b8f5790565b60008112615a285790565b6024906040519063b02ef08760e01b82526004820152fd5b81156158ff570490565b90620f424091828102928184041490151715612b8f57612c9091615a40565b9080615a7b575061597857620f424090565b612c9091615a4a565b8181116159e957106159e457600190565b620f424090818102918183041490151715612b8f5790565b61152e9161152e612c9095612c8a615ada610f419761152e615ae097612c8a620f42409b8c998a95612c93565b916158bb565b9161477e816301e13380612c2c565b60405163a9059cbb60e01b60208201526001600160a01b039283166024820152604480820194909452928352612be2929190615b2c6064846122e7565b16615c64565b90606082018051615b438184615a84565b15615b7f5750620f424090615b588284615a84565b15615b67575050506020015190565b90612c90939151916020604082015191015192615b90565b8391506040612c9094519201519160005b90615ba1615ba791959394956158bb565b946158bb565b92615bb28284615a84565b158015615c36575b615c245781615bc891612c93565b90848403926000948587128186128116918613901516176145555792612c8a610f41620f424094615bff61152e95615c0498612c93565b615a4a565b8183820193841291129080158216911516176143f05750612c9090615a1d565b604051634a83a53f60e01b8152600490fd5b506002615c438285615a84565b14615bba565b6001600160401b03811161230a57601f01601f191660200190565b60209190615cee906001600160a01b0316615c7e84615c49565b90615c8c60405192836122e7565b8482527f5361666545524332303a206c6f772d6c6576656c2063616c6c206661696c6564858301526000808587829751910182855af13d15615d78573d91615cd383615c49565b92615ce160405194856122e7565b83523d868885013e615d7c565b90815180615cfd575b50505050565b82849181010312610109575081615d1491016124bf565b15615d2157808080615cf7565b6084906040519062461bcd60e51b82526004820152602a60248201527f5361666545524332303a204552433230206f7065726174696f6e20646964206e6044820152691bdd081cdd58d8d9595960b21b6064820152fd5b6060915b91929015615dde5750815115615d90575090565b3b15615d995790565b60405162461bcd60e51b815260206004820152601d60248201527f416464726573733a2063616c6c20746f206e6f6e2d636f6e74726163740000006044820152606490fd5b825190915015615df15750805190602001fd5b6040519062461bcd60e51b82528160208060048301528251908160248401526000935b828510615e37575050604492506000838284010152601f80199101168101030190fd5b8481018201518686016044015293810193859350615e14565b6000808212615e5d575090565b039056fef12be1637c87b6840bce6a43024d842fdde312893b5711402d511dc296b61fc6a9c835c21e93a672e5a6ef8ca0374f90b7d4378f7eec5769dcf22fdefd60ffae0aec74a1754fb10877b53c31a29be82096082042eb1fb374ec96fac88c0e621be70b99d7f26b781c8b9ce19e28f0fd5af173ec01acfae12f9f3a3914ec74dc71a26469706673582212206d092744065c72b83b4bda06da327f15566b2b5fd4097dca41a096368ea97cc864736f6c63430008130033",
  "libraries": {
    "MarketParameterStorageLib": "0x5B540290bAEdDaa5266d071113EB1A44FC9Ca853",
    "RiskParameterStorageLib": "0x566ADeD4e644F40A6a943c40Bd40A2419d5D517F"
  }
}