{
  "address": "0x298e0B0a38fF8B99bf1a3b697B0efB2195cfE47D",
  "abi": [
    {
      "inputs": [
        {
          "internalType": "address",
          "name": "implementation",
          "type": "address"
        },
        {
          "internalType": "contract IMarketFactory",
          "name": "marketFactory",
          "type": "address"
        },
        {
          "internalType": "contract IVerifierBase",
          "name": "nonceManager",
          "type": "address"
        }
      ],
      "stateMutability": "nonpayable",
      "type": "constructor"
    },
    {
      "inputs": [],
      "name": "ControllerGroupBalancedError",
      "type": "error"
    },
    {
      "inputs": [],
      "name": "ControllerInvalidRebalanceConfigError",
      "type": "error"
    },
    {
      "inputs": [],
      "name": "ControllerInvalidRebalanceGroupError",
      "type": "error"
    },
    {
      "inputs": [],
      "name": "ControllerInvalidRebalanceMarketsError",
      "type": "error"
    },
    {
      "inputs": [],
      "name": "ControllerInvalidRebalanceTargetsError",
      "type": "error"
    },
    {
      "inputs": [],
      "name": "ControllerInvalidSignerError",
      "type": "error"
    },
    {
      "inputs": [
        {
          "internalType": "contract IMarket",
          "name": "market",
          "type": "address"
        },
        {
          "internalType": "uint256",
          "name": "group",
          "type": "uint256"
        }
      ],
      "name": "ControllerMarketAlreadyInGroupError",
      "type": "error"
    },
    {
      "inputs": [
        {
          "internalType": "contract IMarket",
          "name": "market",
          "type": "address"
        }
      ],
      "name": "ControllerUnsupportedMarketError",
      "type": "error"
    },
    {
      "inputs": [],
      "name": "FactoryNotInstanceError",
      "type": "error"
    },
    {
      "inputs": [
        {
          "internalType": "uint256",
          "name": "value",
          "type": "uint256"
        }
      ],
      "name": "Fixed6OverflowError",
      "type": "error"
    },
    {
      "inputs": [
        {
          "internalType": "uint256",
          "name": "version",
          "type": "uint256"
        }
      ],
      "name": "InitializableAlreadyInitializedError",
      "type": "error"
    },
    {
      "inputs": [],
      "name": "InitializableNotInitializingError",
      "type": "error"
    },
    {
      "inputs": [],
      "name": "InitializableZeroVersionError",
      "type": "error"
    },
    {
      "inputs": [],
      "name": "OwnableAlreadyInitializedError",
      "type": "error"
    },
    {
      "inputs": [
        {
          "internalType": "address",
          "name": "sender",
          "type": "address"
        }
      ],
      "name": "OwnableNotOwnerError",
      "type": "error"
    },
    {
      "inputs": [
        {
          "internalType": "address",
          "name": "sender",
          "type": "address"
        }
      ],
      "name": "OwnableNotPendingOwnerError",
      "type": "error"
    },
    {
      "inputs": [
        {
          "internalType": "address",
          "name": "sender",
          "type": "address"
        }
      ],
      "name": "PausableNotPauserError",
      "type": "error"
    },
    {
      "inputs": [],
      "name": "PausablePausedError",
      "type": "error"
    },
    {
      "inputs": [
        {
          "internalType": "int256",
          "name": "value",
          "type": "int256"
        }
      ],
      "name": "UFixed18UnderflowError",
      "type": "error"
    },
    {
      "anonymous": false,
      "inputs": [
        {
          "indexed": true,
          "internalType": "address",
          "name": "owner",
          "type": "address"
        },
        {
          "indexed": true,
          "internalType": "contract IAccount",
          "name": "account",
          "type": "address"
        }
      ],
      "name": "AccountDeployed",
      "type": "event"
    },
    {
      "anonymous": false,
      "inputs": [
        {
          "indexed": true,
          "internalType": "address",
          "name": "owner",
          "type": "address"
        },
        {
          "indexed": true,
          "internalType": "uint256",
          "name": "group",
          "type": "uint256"
        }
      ],
      "name": "GroupRebalanced",
      "type": "event"
    },
    {
      "anonymous": false,
      "inputs": [
        {
          "indexed": false,
          "internalType": "uint256",
          "name": "version",
          "type": "uint256"
        }
      ],
      "name": "Initialized",
      "type": "event"
    },
    {
      "anonymous": false,
      "inputs": [
        {
          "indexed": true,
          "internalType": "contract IInstance",
          "name": "instance",
          "type": "address"
        }
      ],
      "name": "InstanceRegistered",
      "type": "event"
    },
    {
      "anonymous": false,
      "inputs": [
        {
          "indexed": true,
          "internalType": "address",
          "name": "sender",
          "type": "address"
        },
        {
          "indexed": false,
          "internalType": "uint256",
          "name": "applicableGas",
          "type": "uint256"
        },
        {
          "indexed": false,
          "internalType": "uint256",
          "name": "applicableValue",
          "type": "uint256"
        },
        {
          "indexed": false,
          "internalType": "UFixed18",
          "name": "baseFee",
          "type": "uint256"
        },
        {
          "indexed": false,
          "internalType": "UFixed18",
          "name": "calldataFee",
          "type": "uint256"
        },
        {
          "indexed": false,
          "internalType": "UFixed18",
          "name": "keeperFee",
          "type": "uint256"
        }
      ],
      "name": "KeeperCall",
      "type": "event"
    },
    {
      "anonymous": false,
      "inputs": [
        {
          "indexed": true,
          "internalType": "address",
          "name": "newOwner",
          "type": "address"
        }
      ],
      "name": "OwnerUpdated",
      "type": "event"
    },
    {
      "anonymous": false,
      "inputs": [],
      "name": "Paused",
      "type": "event"
    },
    {
      "anonymous": false,
      "inputs": [
        {
          "indexed": true,
          "internalType": "address",
          "name": "newPauser",
          "type": "address"
        }
      ],
      "name": "PauserUpdated",
      "type": "event"
    },
    {
      "anonymous": false,
      "inputs": [
        {
          "indexed": true,
          "internalType": "address",
          "name": "newPendingOwner",
          "type": "address"
        }
      ],
      "name": "PendingOwnerUpdated",
      "type": "event"
    },
    {
      "anonymous": false,
      "inputs": [
        {
          "indexed": true,
          "internalType": "address",
          "name": "owner",
          "type": "address"
        },
        {
          "indexed": true,
          "internalType": "uint256",
          "name": "group",
          "type": "uint256"
        },
        {
          "indexed": false,
          "internalType": "uint256",
          "name": "markets",
          "type": "uint256"
        }
      ],
      "name": "RebalanceGroupConfigured",
      "type": "event"
    },
    {
      "anonymous": false,
      "inputs": [
        {
          "indexed": true,
          "internalType": "address",
          "name": "owner",
          "type": "address"
        },
        {
          "indexed": true,
          "internalType": "uint256",
          "name": "group",
          "type": "uint256"
        },
        {
          "indexed": true,
          "internalType": "address",
          "name": "market",
          "type": "address"
        },
        {
          "components": [
            {
              "internalType": "UFixed6",
              "name": "target",
              "type": "uint256"
            },
            {
              "internalType": "UFixed6",
              "name": "threshold",
              "type": "uint256"
            }
          ],
          "indexed": false,
          "internalType": "struct RebalanceConfig",
          "name": "newConfig",
          "type": "tuple"
        }
      ],
      "name": "RebalanceMarketConfigured",
      "type": "event"
    },
    {
      "anonymous": false,
      "inputs": [],
      "name": "Unpaused",
      "type": "event"
    },
    {
      "inputs": [],
      "name": "DSU",
      "outputs": [
        {
          "internalType": "Token18",
          "name": "",
          "type": "address"
        }
      ],
      "stateMutability": "view",
      "type": "function"
    },
    {
      "inputs": [],
      "name": "MAX_GROUPS_PER_OWNER",
      "outputs": [
        {
          "internalType": "uint256",
          "name": "",
          "type": "uint256"
        }
      ],
      "stateMutability": "view",
      "type": "function"
    },
    {
      "inputs": [],
      "name": "MAX_MARKETS_PER_GROUP",
      "outputs": [
        {
          "internalType": "uint256",
          "name": "",
          "type": "uint256"
        }
      ],
      "stateMutability": "view",
      "type": "function"
    },
    {
      "inputs": [],
      "name": "OPT_BASE_FEE_MULTIPLIER",
      "outputs": [
        {
          "internalType": "uint256",
          "name": "",
          "type": "uint256"
        }
      ],
      "stateMutability": "view",
      "type": "function"
    },
    {
      "inputs": [],
      "name": "SALT",
      "outputs": [
        {
          "internalType": "bytes32",
          "name": "",
          "type": "bytes32"
        }
      ],
      "stateMutability": "view",
      "type": "function"
    },
    {
      "inputs": [],
      "name": "USDC",
      "outputs": [
        {
          "internalType": "Token6",
          "name": "",
          "type": "address"
        }
      ],
      "stateMutability": "view",
      "type": "function"
    },
    {
      "inputs": [],
      "name": "acceptOwner",
      "outputs": [],
      "stateMutability": "nonpayable",
      "type": "function"
    },
    {
      "inputs": [
        {
          "components": [
            {
              "internalType": "uint256",
              "name": "group",
              "type": "uint256"
            },
            {
              "internalType": "address[]",
              "name": "markets",
              "type": "address[]"
            },
            {
              "components": [
                {
                  "internalType": "UFixed6",
                  "name": "target",
                  "type": "uint256"
                },
                {
                  "internalType": "UFixed6",
                  "name": "threshold",
                  "type": "uint256"
                }
              ],
              "internalType": "struct RebalanceConfig[]",
              "name": "configs",
              "type": "tuple[]"
            },
            {
              "internalType": "UFixed6",
              "name": "maxFee",
              "type": "uint256"
            },
            {
              "components": [
                {
                  "internalType": "UFixed6",
                  "name": "maxFee",
                  "type": "uint256"
                },
                {
                  "components": [
                    {
                      "internalType": "address",
                      "name": "account",
                      "type": "address"
                    },
                    {
                      "internalType": "address",
                      "name": "signer",
                      "type": "address"
                    },
                    {
                      "internalType": "address",
                      "name": "domain",
                      "type": "address"
                    },
                    {
                      "internalType": "uint256",
                      "name": "nonce",
                      "type": "uint256"
                    },
                    {
                      "internalType": "uint256",
                      "name": "group",
                      "type": "uint256"
                    },
                    {
                      "internalType": "uint256",
                      "name": "expiry",
                      "type": "uint256"
                    }
                  ],
                  "internalType": "struct Common",
                  "name": "common",
                  "type": "tuple"
                }
              ],
              "internalType": "struct Action",
              "name": "action",
              "type": "tuple"
            }
          ],
          "internalType": "struct RebalanceConfigChange",
          "name": "configChange",
          "type": "tuple"
        },
        {
          "internalType": "bytes",
          "name": "signature",
          "type": "bytes"
        }
      ],
      "name": "changeRebalanceConfigWithSignature",
      "outputs": [],
      "stateMutability": "nonpayable",
      "type": "function"
    },
    {
      "inputs": [
        {
          "internalType": "address",
          "name": "owner",
          "type": "address"
        },
        {
          "internalType": "uint256",
          "name": "group",
          "type": "uint256"
        }
      ],
      "name": "checkGroup",
      "outputs": [
        {
          "internalType": "Fixed6",
          "name": "groupCollateral",
          "type": "int256"
        },
        {
          "internalType": "bool",
          "name": "canRebalance",
          "type": "bool"
        },
        {
          "internalType": "Fixed6[]",
          "name": "imbalances",
          "type": "int256[]"
        }
      ],
      "stateMutability": "view",
      "type": "function"
    },
    {
      "inputs": [],
      "name": "deployAccount",
      "outputs": [
        {
          "internalType": "contract IAccount",
          "name": "",
          "type": "address"
        }
      ],
      "stateMutability": "nonpayable",
      "type": "function"
    },
    {
      "inputs": [
        {
          "components": [
            {
              "components": [
                {
                  "internalType": "UFixed6",
                  "name": "maxFee",
                  "type": "uint256"
                },
                {
                  "components": [
                    {
                      "internalType": "address",
                      "name": "account",
                      "type": "address"
                    },
                    {
                      "internalType": "address",
                      "name": "signer",
                      "type": "address"
                    },
                    {
                      "internalType": "address",
                      "name": "domain",
                      "type": "address"
                    },
                    {
                      "internalType": "uint256",
                      "name": "nonce",
                      "type": "uint256"
                    },
                    {
                      "internalType": "uint256",
                      "name": "group",
                      "type": "uint256"
                    },
                    {
                      "internalType": "uint256",
                      "name": "expiry",
                      "type": "uint256"
                    }
                  ],
                  "internalType": "struct Common",
                  "name": "common",
                  "type": "tuple"
                }
              ],
              "internalType": "struct Action",
              "name": "action",
              "type": "tuple"
            }
          ],
          "internalType": "struct DeployAccount",
          "name": "deployAccount_",
          "type": "tuple"
        },
        {
          "internalType": "bytes",
          "name": "signature",
          "type": "bytes"
        }
      ],
      "name": "deployAccountWithSignature",
      "outputs": [],
      "stateMutability": "nonpayable",
      "type": "function"
    },
    {
      "inputs": [],
      "name": "ethTokenOracleFeed",
      "outputs": [
        {
          "internalType": "contract AggregatorV3Interface",
          "name": "",
          "type": "address"
        }
      ],
      "stateMutability": "view",
      "type": "function"
    },
    {
      "inputs": [
        {
          "internalType": "address",
          "name": "owner",
          "type": "address"
        }
      ],
      "name": "getAccountAddress",
      "outputs": [
        {
          "internalType": "address",
          "name": "",
          "type": "address"
        }
      ],
      "stateMutability": "view",
      "type": "function"
    },
    {
      "inputs": [
        {
          "internalType": "address",
          "name": "",
          "type": "address"
        },
        {
          "internalType": "uint256",
          "name": "",
          "type": "uint256"
        },
        {
          "internalType": "uint256",
          "name": "",
          "type": "uint256"
        }
      ],
      "name": "groupToMarkets",
      "outputs": [
        {
          "internalType": "contract IMarket",
          "name": "",
          "type": "address"
        }
      ],
      "stateMutability": "view",
      "type": "function"
    },
    {
      "inputs": [
        {
          "internalType": "address",
          "name": "",
          "type": "address"
        },
        {
          "internalType": "uint256",
          "name": "",
          "type": "uint256"
        }
      ],
      "name": "groupToMaxRebalanceFee",
      "outputs": [
        {
          "internalType": "UFixed6",
          "name": "",
          "type": "uint256"
        }
      ],
      "stateMutability": "view",
      "type": "function"
    },
    {
      "inputs": [],
      "name": "implementation",
      "outputs": [
        {
          "internalType": "address",
          "name": "",
          "type": "address"
        }
      ],
      "stateMutability": "view",
      "type": "function"
    },
    {
      "inputs": [
        {
          "internalType": "contract IAccountVerifier",
          "name": "verifier_",
          "type": "address"
        }
      ],
      "name": "initialize",
      "outputs": [],
      "stateMutability": "nonpayable",
      "type": "function"
    },
    {
      "inputs": [
        {
          "internalType": "contract IAccountVerifier",
          "name": "verifier_",
          "type": "address"
        },
        {
          "internalType": "contract AggregatorV3Interface",
          "name": "chainlinkFeed_",
          "type": "address"
        },
        {
          "components": [
            {
              "internalType": "UFixed18",
              "name": "multiplierBase",
              "type": "uint256"
            },
            {
              "internalType": "uint256",
              "name": "bufferBase",
              "type": "uint256"
            },
            {
              "internalType": "UFixed18",
              "name": "multiplierCalldata",
              "type": "uint256"
            },
            {
              "internalType": "uint256",
              "name": "bufferCalldata",
              "type": "uint256"
            }
          ],
          "internalType": "struct IKept.KeepConfig",
          "name": "keepConfig_",
          "type": "tuple"
        },
        {
          "components": [
            {
              "internalType": "UFixed18",
              "name": "multiplierBase",
              "type": "uint256"
            },
            {
              "internalType": "uint256",
              "name": "bufferBase",
              "type": "uint256"
            },
            {
              "internalType": "UFixed18",
              "name": "multiplierCalldata",
              "type": "uint256"
            },
            {
              "internalType": "uint256",
              "name": "bufferCalldata",
              "type": "uint256"
            }
          ],
          "internalType": "struct IKept.KeepConfig",
          "name": "keepConfigBuffered_",
          "type": "tuple"
        },
        {
          "components": [
            {
              "internalType": "UFixed18",
              "name": "multiplierBase",
              "type": "uint256"
            },
            {
              "internalType": "uint256",
              "name": "bufferBase",
              "type": "uint256"
            },
            {
              "internalType": "UFixed18",
              "name": "multiplierCalldata",
              "type": "uint256"
            },
            {
              "internalType": "uint256",
              "name": "bufferCalldata",
              "type": "uint256"
            }
          ],
          "internalType": "struct IKept.KeepConfig",
          "name": "keepConfigWithdrawal_",
          "type": "tuple"
        }
      ],
      "name": "initialize",
      "outputs": [],
      "stateMutability": "nonpayable",
      "type": "function"
    },
    {
      "inputs": [
        {
          "internalType": "contract IInstance",
          "name": "instance",
          "type": "address"
        }
      ],
      "name": "instances",
      "outputs": [
        {
          "internalType": "bool",
          "name": "",
          "type": "bool"
        }
      ],
      "stateMutability": "view",
      "type": "function"
    },
    {
      "inputs": [],
      "name": "keepConfig",
      "outputs": [
        {
          "internalType": "UFixed18",
          "name": "multiplierBase",
          "type": "uint256"
        },
        {
          "internalType": "uint256",
          "name": "bufferBase",
          "type": "uint256"
        },
        {
          "internalType": "UFixed18",
          "name": "multiplierCalldata",
          "type": "uint256"
        },
        {
          "internalType": "uint256",
          "name": "bufferCalldata",
          "type": "uint256"
        }
      ],
      "stateMutability": "view",
      "type": "function"
    },
    {
      "inputs": [],
      "name": "keepConfigBuffered",
      "outputs": [
        {
          "internalType": "UFixed18",
          "name": "multiplierBase",
          "type": "uint256"
        },
        {
          "internalType": "uint256",
          "name": "bufferBase",
          "type": "uint256"
        },
        {
          "internalType": "UFixed18",
          "name": "multiplierCalldata",
          "type": "uint256"
        },
        {
          "internalType": "uint256",
          "name": "bufferCalldata",
          "type": "uint256"
        }
      ],
      "stateMutability": "view",
      "type": "function"
    },
    {
      "inputs": [],
      "name": "keepConfigWithdrawal",
      "outputs": [
        {
          "internalType": "UFixed18",
          "name": "multiplierBase",
          "type": "uint256"
        },
        {
          "internalType": "uint256",
          "name": "bufferBase",
          "type": "uint256"
        },
        {
          "internalType": "UFixed18",
          "name": "multiplierCalldata",
          "type": "uint256"
        },
        {
          "internalType": "uint256",
          "name": "bufferCalldata",
          "type": "uint256"
        }
      ],
      "stateMutability": "view",
      "type": "function"
    },
    {
      "inputs": [],
      "name": "keeperToken",
      "outputs": [
        {
          "internalType": "Token18",
          "name": "",
          "type": "address"
        }
      ],
      "stateMutability": "view",
      "type": "function"
    },
    {
      "inputs": [],
      "name": "marketFactory",
      "outputs": [
        {
          "internalType": "contract IMarketFactory",
          "name": "",
          "type": "address"
        }
      ],
      "stateMutability": "view",
      "type": "function"
    },
    {
      "inputs": [
        {
          "internalType": "address",
          "name": "",
          "type": "address"
        },
        {
          "internalType": "address",
          "name": "",
          "type": "address"
        }
      ],
      "name": "marketToGroup",
      "outputs": [
        {
          "internalType": "uint256",
          "name": "",
          "type": "uint256"
        }
      ],
      "stateMutability": "view",
      "type": "function"
    },
    {
      "inputs": [
        {
          "components": [
            {
              "internalType": "address",
              "name": "market",
              "type": "address"
            },
            {
              "internalType": "Fixed6",
              "name": "amount",
              "type": "int256"
            },
            {
              "components": [
                {
                  "internalType": "UFixed6",
                  "name": "maxFee",
                  "type": "uint256"
                },
                {
                  "components": [
                    {
                      "internalType": "address",
                      "name": "account",
                      "type": "address"
                    },
                    {
                      "internalType": "address",
                      "name": "signer",
                      "type": "address"
                    },
                    {
                      "internalType": "address",
                      "name": "domain",
                      "type": "address"
                    },
                    {
                      "internalType": "uint256",
                      "name": "nonce",
                      "type": "uint256"
                    },
                    {
                      "internalType": "uint256",
                      "name": "group",
                      "type": "uint256"
                    },
                    {
                      "internalType": "uint256",
                      "name": "expiry",
                      "type": "uint256"
                    }
                  ],
                  "internalType": "struct Common",
                  "name": "common",
                  "type": "tuple"
                }
              ],
              "internalType": "struct Action",
              "name": "action",
              "type": "tuple"
            }
          ],
          "internalType": "struct MarketTransfer",
          "name": "marketTransfer",
          "type": "tuple"
        },
        {
          "internalType": "bytes",
          "name": "signature",
          "type": "bytes"
        }
      ],
      "name": "marketTransferWithSignature",
      "outputs": [],
      "stateMutability": "nonpayable",
      "type": "function"
    },
    {
      "inputs": [],
      "name": "nonceManager",
      "outputs": [
        {
          "internalType": "contract IVerifierBase",
          "name": "",
          "type": "address"
        }
      ],
      "stateMutability": "view",
      "type": "function"
    },
    {
      "inputs": [],
      "name": "owner",
      "outputs": [
        {
          "internalType": "address",
          "name": "",
          "type": "address"
        }
      ],
      "stateMutability": "view",
      "type": "function"
    },
    {
      "inputs": [],
      "name": "pause",
      "outputs": [],
      "stateMutability": "nonpayable",
      "type": "function"
    },
    {
      "inputs": [],
      "name": "paused",
      "outputs": [
        {
          "internalType": "bool",
          "name": "",
          "type": "bool"
        }
      ],
      "stateMutability": "view",
      "type": "function"
    },
    {
      "inputs": [],
      "name": "pauser",
      "outputs": [
        {
          "internalType": "address",
          "name": "",
          "type": "address"
        }
      ],
      "stateMutability": "view",
      "type": "function"
    },
    {
      "inputs": [],
      "name": "pendingOwner",
      "outputs": [
        {
          "internalType": "address",
          "name": "",
          "type": "address"
        }
      ],
      "stateMutability": "view",
      "type": "function"
    },
    {
      "inputs": [
        {
          "internalType": "address",
          "name": "owner",
          "type": "address"
        },
        {
          "internalType": "uint256",
          "name": "group",
          "type": "uint256"
        },
        {
          "internalType": "address",
          "name": "market",
          "type": "address"
        }
      ],
      "name": "rebalanceConfigs",
      "outputs": [
        {
          "components": [
            {
              "internalType": "UFixed6",
              "name": "target",
              "type": "uint256"
            },
            {
              "internalType": "UFixed6",
              "name": "threshold",
              "type": "uint256"
            }
          ],
          "internalType": "struct RebalanceConfig",
          "name": "",
          "type": "tuple"
        }
      ],
      "stateMutability": "view",
      "type": "function"
    },
    {
      "inputs": [
        {
          "internalType": "address",
          "name": "owner",
          "type": "address"
        },
        {
          "internalType": "uint256",
          "name": "group",
          "type": "uint256"
        }
      ],
      "name": "rebalanceGroup",
      "outputs": [],
      "stateMutability": "nonpayable",
      "type": "function"
    },
    {
      "inputs": [
        {
          "internalType": "address",
          "name": "owner",
          "type": "address"
        },
        {
          "internalType": "uint256",
          "name": "group",
          "type": "uint256"
        }
      ],
      "name": "rebalanceGroupMarkets",
      "outputs": [
        {
          "internalType": "contract IMarket[]",
          "name": "markets",
          "type": "address[]"
        }
      ],
      "stateMutability": "view",
      "type": "function"
    },
    {
      "inputs": [
        {
          "components": [
            {
              "components": [
                {
                  "components": [
                    {
                      "internalType": "address",
                      "name": "accessor",
                      "type": "address"
                    },
                    {
                      "internalType": "bool",
                      "name": "approved",
                      "type": "bool"
                    }
                  ],
                  "internalType": "struct AccessUpdate[]",
                  "name": "operators",
                  "type": "tuple[]"
                },
                {
                  "components": [
                    {
                      "internalType": "address",
                      "name": "accessor",
                      "type": "address"
                    },
                    {
                      "internalType": "bool",
                      "name": "approved",
                      "type": "bool"
                    }
                  ],
                  "internalType": "struct AccessUpdate[]",
                  "name": "signers",
                  "type": "tuple[]"
                },
                {
                  "components": [
                    {
                      "internalType": "address",
                      "name": "account",
                      "type": "address"
                    },
                    {
                      "internalType": "address",
                      "name": "signer",
                      "type": "address"
                    },
                    {
                      "internalType": "address",
                      "name": "domain",
                      "type": "address"
                    },
                    {
                      "internalType": "uint256",
                      "name": "nonce",
                      "type": "uint256"
                    },
                    {
                      "internalType": "uint256",
                      "name": "group",
                      "type": "uint256"
                    },
                    {
                      "internalType": "uint256",
                      "name": "expiry",
                      "type": "uint256"
                    }
                  ],
                  "internalType": "struct Common",
                  "name": "common",
                  "type": "tuple"
                }
              ],
              "internalType": "struct AccessUpdateBatch",
              "name": "accessUpdateBatch",
              "type": "tuple"
            },
            {
              "components": [
                {
                  "internalType": "UFixed6",
                  "name": "maxFee",
                  "type": "uint256"
                },
                {
                  "components": [
                    {
                      "internalType": "address",
                      "name": "account",
                      "type": "address"
                    },
                    {
                      "internalType": "address",
                      "name": "signer",
                      "type": "address"
                    },
                    {
                      "internalType": "address",
                      "name": "domain",
                      "type": "address"
                    },
                    {
                      "internalType": "uint256",
                      "name": "nonce",
                      "type": "uint256"
                    },
                    {
                      "internalType": "uint256",
                      "name": "group",
                      "type": "uint256"
                    },
                    {
                      "internalType": "uint256",
                      "name": "expiry",
                      "type": "uint256"
                    }
                  ],
                  "internalType": "struct Common",
                  "name": "common",
                  "type": "tuple"
                }
              ],
              "internalType": "struct Action",
              "name": "action",
              "type": "tuple"
            }
          ],
          "internalType": "struct RelayedAccessUpdateBatch",
          "name": "message",
          "type": "tuple"
        },
        {
          "internalType": "bytes",
          "name": "outerSignature",
          "type": "bytes"
        },
        {
          "internalType": "bytes",
          "name": "innerSignature",
          "type": "bytes"
        }
      ],
      "name": "relayAccessUpdateBatch",
      "outputs": [],
      "stateMutability": "nonpayable",
      "type": "function"
    },
    {
      "inputs": [
        {
          "components": [
            {
              "components": [
                {
                  "internalType": "uint256",
                  "name": "group",
                  "type": "uint256"
                },
                {
                  "components": [
                    {
                      "internalType": "address",
                      "name": "account",
                      "type": "address"
                    },
                    {
                      "internalType": "address",
                      "name": "signer",
                      "type": "address"
                    },
                    {
                      "internalType": "address",
                      "name": "domain",
                      "type": "address"
                    },
                    {
                      "internalType": "uint256",
                      "name": "nonce",
                      "type": "uint256"
                    },
                    {
                      "internalType": "uint256",
                      "name": "group",
                      "type": "uint256"
                    },
                    {
                      "internalType": "uint256",
                      "name": "expiry",
                      "type": "uint256"
                    }
                  ],
                  "internalType": "struct Common",
                  "name": "common",
                  "type": "tuple"
                }
              ],
              "internalType": "struct GroupCancellation",
              "name": "groupCancellation",
              "type": "tuple"
            },
            {
              "components": [
                {
                  "internalType": "UFixed6",
                  "name": "maxFee",
                  "type": "uint256"
                },
                {
                  "components": [
                    {
                      "internalType": "address",
                      "name": "account",
                      "type": "address"
                    },
                    {
                      "internalType": "address",
                      "name": "signer",
                      "type": "address"
                    },
                    {
                      "internalType": "address",
                      "name": "domain",
                      "type": "address"
                    },
                    {
                      "internalType": "uint256",
                      "name": "nonce",
                      "type": "uint256"
                    },
                    {
                      "internalType": "uint256",
                      "name": "group",
                      "type": "uint256"
                    },
                    {
                      "internalType": "uint256",
                      "name": "expiry",
                      "type": "uint256"
                    }
                  ],
                  "internalType": "struct Common",
                  "name": "common",
                  "type": "tuple"
                }
              ],
              "internalType": "struct Action",
              "name": "action",
              "type": "tuple"
            }
          ],
          "internalType": "struct RelayedGroupCancellation",
          "name": "message",
          "type": "tuple"
        },
        {
          "internalType": "bytes",
          "name": "outerSignature",
          "type": "bytes"
        },
        {
          "internalType": "bytes",
          "name": "innerSignature",
          "type": "bytes"
        }
      ],
      "name": "relayGroupCancellation",
      "outputs": [],
      "stateMutability": "nonpayable",
      "type": "function"
    },
    {
      "inputs": [
        {
          "components": [
            {
              "components": [
                {
                  "internalType": "address",
                  "name": "account",
                  "type": "address"
                },
                {
                  "internalType": "address",
                  "name": "signer",
                  "type": "address"
                },
                {
                  "internalType": "address",
                  "name": "domain",
                  "type": "address"
                },
                {
                  "internalType": "uint256",
                  "name": "nonce",
                  "type": "uint256"
                },
                {
                  "internalType": "uint256",
                  "name": "group",
                  "type": "uint256"
                },
                {
                  "internalType": "uint256",
                  "name": "expiry",
                  "type": "uint256"
                }
              ],
              "internalType": "struct Common",
              "name": "nonceCancellation",
              "type": "tuple"
            },
            {
              "components": [
                {
                  "internalType": "UFixed6",
                  "name": "maxFee",
                  "type": "uint256"
                },
                {
                  "components": [
                    {
                      "internalType": "address",
                      "name": "account",
                      "type": "address"
                    },
                    {
                      "internalType": "address",
                      "name": "signer",
                      "type": "address"
                    },
                    {
                      "internalType": "address",
                      "name": "domain",
                      "type": "address"
                    },
                    {
                      "internalType": "uint256",
                      "name": "nonce",
                      "type": "uint256"
                    },
                    {
                      "internalType": "uint256",
                      "name": "group",
                      "type": "uint256"
                    },
                    {
                      "internalType": "uint256",
                      "name": "expiry",
                      "type": "uint256"
                    }
                  ],
                  "internalType": "struct Common",
                  "name": "common",
                  "type": "tuple"
                }
              ],
              "internalType": "struct Action",
              "name": "action",
              "type": "tuple"
            }
          ],
          "internalType": "struct RelayedNonceCancellation",
          "name": "message",
          "type": "tuple"
        },
        {
          "internalType": "bytes",
          "name": "outerSignature",
          "type": "bytes"
        },
        {
          "internalType": "bytes",
          "name": "innerSignature",
          "type": "bytes"
        }
      ],
      "name": "relayNonceCancellation",
      "outputs": [],
      "stateMutability": "nonpayable",
      "type": "function"
    },
    {
      "inputs": [
        {
          "components": [
            {
              "components": [
                {
                  "components": [
                    {
                      "internalType": "address",
                      "name": "accessor",
                      "type": "address"
                    },
                    {
                      "internalType": "bool",
                      "name": "approved",
                      "type": "bool"
                    }
                  ],
                  "internalType": "struct AccessUpdate",
                  "name": "access",
                  "type": "tuple"
                },
                {
                  "components": [
                    {
                      "internalType": "address",
                      "name": "account",
                      "type": "address"
                    },
                    {
                      "internalType": "address",
                      "name": "signer",
                      "type": "address"
                    },
                    {
                      "internalType": "address",
                      "name": "domain",
                      "type": "address"
                    },
                    {
                      "internalType": "uint256",
                      "name": "nonce",
                      "type": "uint256"
                    },
                    {
                      "internalType": "uint256",
                      "name": "group",
                      "type": "uint256"
                    },
                    {
                      "internalType": "uint256",
                      "name": "expiry",
                      "type": "uint256"
                    }
                  ],
                  "internalType": "struct Common",
                  "name": "common",
                  "type": "tuple"
                }
              ],
              "internalType": "struct OperatorUpdate",
              "name": "operatorUpdate",
              "type": "tuple"
            },
            {
              "components": [
                {
                  "internalType": "UFixed6",
                  "name": "maxFee",
                  "type": "uint256"
                },
                {
                  "components": [
                    {
                      "internalType": "address",
                      "name": "account",
                      "type": "address"
                    },
                    {
                      "internalType": "address",
                      "name": "signer",
                      "type": "address"
                    },
                    {
                      "internalType": "address",
                      "name": "domain",
                      "type": "address"
                    },
                    {
                      "internalType": "uint256",
                      "name": "nonce",
                      "type": "uint256"
                    },
                    {
                      "internalType": "uint256",
                      "name": "group",
                      "type": "uint256"
                    },
                    {
                      "internalType": "uint256",
                      "name": "expiry",
                      "type": "uint256"
                    }
                  ],
                  "internalType": "struct Common",
                  "name": "common",
                  "type": "tuple"
                }
              ],
              "internalType": "struct Action",
              "name": "action",
              "type": "tuple"
            }
          ],
          "internalType": "struct RelayedOperatorUpdate",
          "name": "message",
          "type": "tuple"
        },
        {
          "internalType": "bytes",
          "name": "outerSignature",
          "type": "bytes"
        },
        {
          "internalType": "bytes",
          "name": "innerSignature",
          "type": "bytes"
        }
      ],
      "name": "relayOperatorUpdate",
      "outputs": [],
      "stateMutability": "nonpayable",
      "type": "function"
    },
    {
      "inputs": [
        {
          "components": [
            {
              "components": [
                {
                  "components": [
                    {
                      "internalType": "address",
                      "name": "accessor",
                      "type": "address"
                    },
                    {
                      "internalType": "bool",
                      "name": "approved",
                      "type": "bool"
                    }
                  ],
                  "internalType": "struct AccessUpdate",
                  "name": "access",
                  "type": "tuple"
                },
                {
                  "components": [
                    {
                      "internalType": "address",
                      "name": "account",
                      "type": "address"
                    },
                    {
                      "internalType": "address",
                      "name": "signer",
                      "type": "address"
                    },
                    {
                      "internalType": "address",
                      "name": "domain",
                      "type": "address"
                    },
                    {
                      "internalType": "uint256",
                      "name": "nonce",
                      "type": "uint256"
                    },
                    {
                      "internalType": "uint256",
                      "name": "group",
                      "type": "uint256"
                    },
                    {
                      "internalType": "uint256",
                      "name": "expiry",
                      "type": "uint256"
                    }
                  ],
                  "internalType": "struct Common",
                  "name": "common",
                  "type": "tuple"
                }
              ],
              "internalType": "struct SignerUpdate",
              "name": "signerUpdate",
              "type": "tuple"
            },
            {
              "components": [
                {
                  "internalType": "UFixed6",
                  "name": "maxFee",
                  "type": "uint256"
                },
                {
                  "components": [
                    {
                      "internalType": "address",
                      "name": "account",
                      "type": "address"
                    },
                    {
                      "internalType": "address",
                      "name": "signer",
                      "type": "address"
                    },
                    {
                      "internalType": "address",
                      "name": "domain",
                      "type": "address"
                    },
                    {
                      "internalType": "uint256",
                      "name": "nonce",
                      "type": "uint256"
                    },
                    {
                      "internalType": "uint256",
                      "name": "group",
                      "type": "uint256"
                    },
                    {
                      "internalType": "uint256",
                      "name": "expiry",
                      "type": "uint256"
                    }
                  ],
                  "internalType": "struct Common",
                  "name": "common",
                  "type": "tuple"
                }
              ],
              "internalType": "struct Action",
              "name": "action",
              "type": "tuple"
            }
          ],
          "internalType": "struct RelayedSignerUpdate",
          "name": "message",
          "type": "tuple"
        },
        {
          "internalType": "bytes",
          "name": "outerSignature",
          "type": "bytes"
        },
        {
          "internalType": "bytes",
          "name": "innerSignature",
          "type": "bytes"
        }
      ],
      "name": "relaySignerUpdate",
      "outputs": [],
      "stateMutability": "nonpayable",
      "type": "function"
    },
    {
      "inputs": [],
      "name": "unpause",
      "outputs": [],
      "stateMutability": "nonpayable",
      "type": "function"
    },
    {
      "inputs": [
        {
          "internalType": "address",
          "name": "newPauser",
          "type": "address"
        }
      ],
      "name": "updatePauser",
      "outputs": [],
      "stateMutability": "nonpayable",
      "type": "function"
    },
    {
      "inputs": [
        {
          "internalType": "address",
          "name": "newPendingOwner",
          "type": "address"
        }
      ],
      "name": "updatePendingOwner",
      "outputs": [],
      "stateMutability": "nonpayable",
      "type": "function"
    },
    {
      "inputs": [],
      "name": "verifier",
      "outputs": [
        {
          "internalType": "contract IAccountVerifier",
          "name": "",
          "type": "address"
        }
      ],
      "stateMutability": "view",
      "type": "function"
    },
    {
      "inputs": [
        {
          "components": [
            {
              "internalType": "UFixed6",
              "name": "amount",
              "type": "uint256"
            },
            {
              "internalType": "bool",
              "name": "unwrap",
              "type": "bool"
            },
            {
              "components": [
                {
                  "internalType": "UFixed6",
                  "name": "maxFee",
                  "type": "uint256"
                },
                {
                  "components": [
                    {
                      "internalType": "address",
                      "name": "account",
                      "type": "address"
                    },
                    {
                      "internalType": "address",
                      "name": "signer",
                      "type": "address"
                    },
                    {
                      "internalType": "address",
                      "name": "domain",
                      "type": "address"
                    },
                    {
                      "internalType": "uint256",
                      "name": "nonce",
                      "type": "uint256"
                    },
                    {
                      "internalType": "uint256",
                      "name": "group",
                      "type": "uint256"
                    },
                    {
                      "internalType": "uint256",
                      "name": "expiry",
                      "type": "uint256"
                    }
                  ],
                  "internalType": "struct Common",
                  "name": "common",
                  "type": "tuple"
                }
              ],
              "internalType": "struct Action",
              "name": "action",
              "type": "tuple"
            }
          ],
          "internalType": "struct Withdrawal",
          "name": "withdrawal",
          "type": "tuple"
        },
        {
          "internalType": "bytes",
          "name": "signature",
          "type": "bytes"
        }
      ],
      "name": "withdrawWithSignature",
      "outputs": [],
      "stateMutability": "nonpayable",
      "type": "function"
    }
  ],
  "transactionHash": "0x2c5fe98c1744b2b21f1ca70b93462e6f107d55c02c4dea643d435f0bdfb9f126",
  "args": [
    "0x5d3A779CEa67947927bF78c61473778c46A97236",
    "0x5A572B5fBBC43387B5eF8de2C4728A4108ef24a6",
    "0xA59eF0208418559770a48D7ae4f260A28763167B"
  ],
  "numDeployments": 1,
  "solcInputHash": "cfff389cf382208ac68c68dc4d5b1cf4",
  "bytecode": "0x6101206040818152346200017657606082620051ba8038038091620000258285620001d8565b83398101031262000176576200003b8262000210565b60208084015191936001600160a01b0390818416840362000176578401519481861686036200017657806080521683516389a3027160e01b81528281600481855afa908115620001ce579083915f916200018c575b5060a052845163a2060bcf60e01b815291829060049082905afa91821562000182575f9262000140575b505060c05260e05261010091825251614f949182620002268339608051826124dc015260a05182612273015260c051828181610a71015281816110ab0152818161214d01528181612c640152613e75015260e051828181612088015281816126280152818161299b0152612e0401525181818161025201528181611a120152611d550152f35b90809250813d83116200017a575b6200015a8183620001d8565b8101031262000176576200016e9062000210565b5f80620000ba565b5f80fd5b503d6200014e565b84513d5f823e3d90fd5b82819392503d8311620001c6575b620001a68183620001d8565b810103126200017657600491620001be849262000210565b909262000090565b503d6200019a565b85513d5f823e3d90fd5b601f909101601f19168101906001600160401b03821190821017620001fc57604052565b634e487b7160e01b5f52604160045260245ffd5b51906001600160a01b0382168203620001765756fe608080604052600436101562000013575f80fd5b5f905f3560e01c908163032bb4431462002f6f5750806303b1faf31462002e3357806306ae70951462002dec578063132d4eb11462002b415780631af3a6e61462002aab5780632b7ac3f31462002a8257806332878cc91462002a4a57806332cd1a9a14620028025780633f4ba83a146200276e57806345065f0f146200275057806351b4c18d1462002709578063554bab3c146200268e578063583dec3214620025865780635872fe45146200256257806358c81fcb146200250b5780635c60da1b14620024c45780635c975abb14620024955780635d33db3c14620023d15780637fefe809146200239f578063825ee62314620023815780638456cb5914620022d4578063872053a614620022a257806389a30271146200225b5780638c29933e14620021ec5780638da5cb5b14620021b45780639fd0506d146200217c578063a2060bcf1462002135578063b20caf4514620020fd578063b3684e131462001f63578063b51cf0a91462001edf578063b5ee69551462001e76578063b7e8ef401462001e44578063b8a5e3cd1462001e0e578063ba9a91a51462001de3578063c402f8601462001bbc578063c4d66de81462001ad2578063d55cde1f146200187e578063db06b6ae14620011e3578063db90490214620011c5578063e201ce971462000f08578063e30c39781462000ed0578063ebbc49651462000e25578063f2842ace1462000662578063f72e323c14620002845763fddc205f146200023b575f80fd5b3462000281578060031936011262000281576040517f00000000000000000000000000000000000000000000000000000000000000006001600160a01b03168152602090f35b80fd5b5034620002815760403660031901126200028157620002a26200302f565b81602480359060405160209080620002be858885840162003404565b0393620002d4601f199586810184528362003197565b60018060a01b0392838816958688526004825260408820838952825260408820549887895260039485845260408a20858b5284526200033d60408b2054936200031d84620036a2565b620003306040519e8f9289840162003404565b039081018d528c62003197565b5a8a5b8a8c5287865260408c20878d52865260408c2054811015620003ed57886200037a8260408f8f81528c8b528181208c82528b5220620030d5565b9054908a1b1c16803b15620003e9578c80918c8e6040519485938492636a256b2960e01b845260048401525af1908115620003de578d91620003c2575b505060010162000340565b620003cd90620030ff565b620003da578b5f620003b7565b8b80fd5b6040513d8f823e3d90fd5b8c80fd5b50919892999a90975062000402858a620037db565b9a9150156200065057620004178891620036a2565b16978b5b8a51811015620004ea57848d528786528c8760408220915286528c89620004468360408420620030d5565b9054908b1b1c168c826200045b8583620037c6565b51126200046f575b5050506001016200041b565b836200047b91620037c6565b51908c3b15620004e657620004ab918d84928360405180968195829463e1638ba360e01b84526004840162003404565b03925af18015620004db57620004c3575b8c62000463565b620004ce90620030ff565b620003e9578c8e620004bc565b6040513d84823e3d90fd5b8280fd5b509091998b5b8a51811015620005b057848d528786528c8760408220915286528c896200051b8360408420620030d5565b9054908b1b1c168c82620005308583620037c6565b511362000544575b505050600101620004f0565b836200055091620037c6565b51908c3b15620004e65762000580918d84928360405180968195829463e1638ba360e01b84526004840162003404565b03925af18015620004db5762000598575b8c62000538565b620005a390620030ff565b620003e9578c8e62000591565b50938b94620005eb8c886200063b977fd58ec24dc80af351d45ae5fa8586232e0013343355190b0ef9b77bd8dbb68d718a80a35a906200341f565b9181156200063e57600954916200060581600a5462003479565b62000616600b5492600c5462003479565b9260405194620006268662003127565b85528401526040830152606082015262003b7f565b80f35b50506200064a6200342d565b62003b7f565b6040516301b8e5e560e71b8152600490fd5b50346200028157620006743662002fed565b916200068d6200068760608301620031d2565b620036a2565b9260405193620006ba85620006ab6040860135846020840162003404565b03601f19810187528662003197565b604051620006e281620006d38588886020850162003b40565b03601f19810183528262003197565b60405190620006f18262003127565b600d5491828152600e54806020830152600f54604083015260105460608301525f93156001171562000c3a576200073d670de0b6b3a7640000916200073748916200345b565b62003479565b049162000772602060606040850151940151926040518093819263de26c4a160e01b8352846004840152602483019062004199565b0381600f602160991b015afa90811562000c22575f9162000ded575b506040516318b30b2360e31b8152602081600481600f602160991b015afa90811562000c22575f9162000db5575b506001600160fc1b038116810362000c3a5760405163519b4bd360e01b815290602082600481600f602160991b015afa90811562000c22575f9162000d78575b6200080b925060041b62003479565b60405163346aee5360e11b815290602082600481600f602160991b015afa91821562000c22575f9262000d3e575b506040516303e0818560e61b8152602081600481600f602160991b015afa90811562000c22575f9162000d03575b5062000878906200087f9362003479565b9062004466565b60405163313ce56760e01b81529092602082600481600f602160991b015afa91821562000c22575f9262000cc9575b50604d821162000c3a57600a82900a6001600160fc1b038116900362000c3a5762000878670de0b6b3a764000062000907819762000737620009006200090f996200073798600a0a60041b9062004489565b976200345b565b04916200345b565b046200091c818362004466565b5f8051602062004d9f83398151915254604051633fabe5a360e21b81529060a090829060049082906001600160a01b03165afa90811562000c22575f9162000c67575b50620009706305f5e10091620042d6565b05905f821262000c4e57670de0b6b3a7640000916200098f9162003479565b0460408980518101031262000c2d576020890151986001600160a01b038a168a0362000c2d576040015164e8d4a510009081810291818304149015171562000c3a578082101562000c315750915b6001600160a01b0389163b1562000c2d57604051630b220c3960e01b8152600481018490525f602482018190529099908a604481836001600160a01b0386165af1998a1562000c22578b9a62000c09575b506040516323b872dd60e01b60208201526001600160a01b0390911660248201523060448201526064808201859052815262000a9f9062000a6f816200315f565b7f00000000000000000000000000000000000000000000000000000000000000006001600160a01b031662004586565b5f8051602062004edf8339815191525460405163a9059cbb60e01b602082015262000af79162000ae88262000ad988336024840162003404565b03601f19810184528362003197565b6001600160a01b031662004586565b6040519380855260208501526040840152606083015260808201525f8051602062004e3f83398151915260a03392a284546001600160a01b0391821694911691823b1562000c055762000b659286928360405180968195829463cb5cd50960e01b84528a6004850162003b40565b03925af190811562000bfa57849162000bde575b5050602081013580151580910362000bd957823b1562000bd95760448492836040519586948593631c683a1b60e11b855235600485015260248401525af18015620004db5762000bc65750f35b62000bd190620030ff565b620002815780f35b505050fd5b62000be990620030ff565b62000bf657825f62000b79565b5050fd5b6040513d86823e3d90fd5b8580fd5b62000c16919550620030ff565b5f9362000a9f62000a2e565b6040513d5f823e3d90fd5b5f80fd5b905091620009dd565b634e487b7160e01b5f52601160045260245ffd5b60405163280f944f60e11b815260048101839052602490fd5b905060a0813d60a01162000cc0575b8162000c8560a0938362003197565b8101031262000c2d57620009708162000ca36305f5e1009362004474565b5062000cb760806020830151920162004474565b5091506200095f565b3d915062000c76565b9091506020813d60201162000cfa575b8162000ce86020938362003197565b8101031262000c2d5751905f620008ae565b3d915062000cd9565b90506020813d60201162000d35575b8162000d216020938362003197565b8101031262000c2d57516200087f62000867565b3d915062000d12565b9091506020813d60201162000d6f575b8162000d5d6020938362003197565b8101031262000c2d5751905f62000839565b3d915062000d4e565b90506020823d60201162000dac575b8162000d966020938362003197565b8101031262000c2d576200080b915190620007fc565b3d915062000d87565b90506020813d60201162000de4575b8162000dd36020938362003197565b8101031262000c2d57515f620007bc565b3d915062000dc4565b90506020813d60201162000e1c575b8162000e0b6020938362003197565b8101031262000c2d57515f6200078e565b3d915062000dfc565b503462000281578060031936011262000281575f8051602062004f1f83398151915280546001600160a01b038116903382900362000eb8575f8051602062004ddf83398151915255805f8051602062004e5f8339815191525f80a2330362000ea057819055805f8051602062004f3f8339815191528180a280f35b6040516399bf635960e01b8152336004820152602490fd5b604051630d0d5e1b60e41b8152336004820152602490fd5b503462000281578060031936011262000281575f8051602062004f1f833981519152546040516001600160a01b039091168152602090f35b503462000281576101c0366003190112620002815762000f276200302f565b6024356001600160a01b0381168103620004e657608036604319011262000c2d576040519162000f578362003127565b60443583526064356020840152608435604084015260a435606084015260803660c319011262000c2d5760405162000f8f8162003127565b60c435815260e435602082015261010435604082015261012435606082015260803661014319011262000c2d576040519262000fcb8462003127565b6101443584526101643560208501526101843560408501526101a435606085015260015f8051602062004e1f833981519152541015620011ac5760015f8051602062004e1f8339815191525560015f8051602062004dbf83398151915255303b151580620011a4575b6200117057303b1515806200119c575b62001170575f8051602062004ddf83398151915280546001600160a01b03166200118a57339055335f8051602062004e5f8339815191525f80a2303b15158062001182575b62001170576001600160a01b039081165f8051602062004d9f833981519152557f00000000000000000000000000000000000000000000000000000000000000005f8051602062004edf8339815191525585546001600160a01b03191692169190911784558251600555602080840151600655604080850151600755606094850151600855825160095582820151600a5582810151600b5591840151600c558251600d5582810151600e5582820151600f5591909201516010555f8051602062004dbf8339815191528390559051600181525f8051602062004dff8339815191529190a180f35b60405163b9a621e160e01b8152600490fd5b505f62001089565b60405163721deea760e11b8152600490fd5b508562001044565b508562001034565b604051631edb9c6d60e11b815260016004820152602490fd5b50346200028157806003193601126200028157602060405160108152f35b503462000281576003196040368201126200187a576001600160401b03906004358210620004e65761016090600435360301126200187a576024359081116200187a576200123a6200129f91369060040162002fbd565b9060a460043501846200124d82620031d2565b93620012ac6040519562001287876200127185896004356004016020850162003a1d565b039162000687601f19938481018b528a62003197565b60405198899160846004350135906020840162003404565b0390810188528762003197565b5a9360018060a01b0383541691823b156200187657620012ec9284928360405180968195829463bbcb574160e01b84526004356004016004850162003a1d565b03925af18015620004db576200185a575b50506200130a90620031d2565b916004356004013515801562001849575b620018375760046200133560248235018235830162004494565b9050116200182557845b6001600160a01b03841686526003602081815260408089206004803501358a52909152872054821015620014065790600191828060a01b038616885280602052604088206004356004013589526020526200139e8260408a20620030d5565b848060a09493941b039254911b1c16828060a01b03861688525f838060205260408a20600435600401358b5260205260408a20838352602052604082208281550155828060a01b0386168852600260205260408820905f526020525f6040812055016200133f565b5050929060018060a01b0383168552600360205260408520600435600401358652602052604085208054908681558162001805575b5050849185925b6200145860246004350160043560040162004494565b90508410156200173d576001600160a01b038516875260026020526040872084620014aa620014a4620014946004803560248101910162004494565b6001600160a01b039491620044cc565b620031d2565b165f5260205260405f205480620016ff57506001600160a01b038516875260026020526040872084620014ee620014a4620014946004803560248101910162004494565b165f526020526004356004013560405f205562001522846200151b604460043501600435600401620044dd565b9062004515565b60018060a01b0386168852600160205260408820600435600401358952602052604088208562001565620014a46200149460246004350160043560040162004494565b165f526020526001602060405f209280358455013591015560018060a01b03851687526003602052604087206004356004013588526020526040872084620015c0620014a46200149460246004350160043560040162004494565b8254911691600160401b821015620016eb5791620015eb8262001652946001809795018155620030d5565b819291549060031b91821b91868060a01b03901b1916179055828060a01b0387168952600460205260408920600435600401358a526020526064600435013560408a20556200164a866200151b604460043501600435600401620044dd565b359062004466565b9362001679620014a4826200167260246004350160043560040162004494565b90620044cc565b62001694826200151b604460043501600435600401620044dd565b906020604051928035845201356020830152838060a01b03169060043560040135907f499f2d584337dd47a4e71a8a4c57b77ad0058bb1a360335a855979a5ca3061d46040868060a01b038b1692a4019262001442565b634e487b7160e01b8a52604160045260248afd5b6044908562001721620014a46200149460246004350160043560040162004494565b16906040519163710a325d60e11b835260048301526024820152fd5b9093919492506200175960246004350160043560040162004494565b905015159081620017ed575b50620017db576200063b93620017d1916200178b60246004350160043560040162004494565b604051908152600480350135926001600160a01b031691507f18fea070ebed40821f9c45ae1f8c875c49b031e4ff3b701b4772ade527f5108890602090a35a906200341f565b6200064a6200342d565b604051631916028760e21b8152600490fd5b60019150620017fc9062004554565b14155f62001765565b865260208620908101905b818110156200143b575f815560010162001810565b6040516376674fed60e11b8152600490fd5b6040516350b5d3f960e11b8152600490fd5b50600860043560040135116200131b565b6200186590620030ff565b6200187257845f620012fd565b8480fd5b8380fd5b5080fd5b5034620002815736600319016101e081126200187a576101a01362000281576001600160401b036101a435818111620004e657620018c190369060040162002fbd565b916101c4359081116200187657620018de90369060040162002fbd565b90919060e4356001600160a01b038116900362000c2d5762001982928591604051936200190e60208601620031e7565b60c43560e0860152620019256101008601620032f8565b6101e06101c08601526200195d85620006ab6200194861020083018b86620033b6565b828103601f19016101e08401528587620033b6565b620019916200196e60e435620036a2565b60405197889160c435906020840162003404565b03601f19810188528762003197565b5a9660018060a01b0385541691823b1562000c0557620019fa9286928360405180968195829463f5ba0b1d60e01b8452620019cf60048501620031e7565b60c43560c4850152620019e560e48501620032f8565b6101c06101a48501526101c4840191620033b6565b03925af190811562000bfa57849162001aba575b50507f00000000000000000000000000000000000000000000000000000000000000006001600160a01b031691823b15620018765762001a7e92849283604051809681958294631d0a82e560e11b845262001a6c60048501620031e7565b60e060c485015260e4840191620033b6565b03925af18015620004db5762001aa2575b5050620017d16200063b935a906200341f565b62001aad90620030ff565b6200187657835f62001a8f565b62001ac590620030ff565b620004e657825f62001a0e565b503462000281576020366003190112620002815762001af06200302f565b5f8051602062004e1f833981519152600181541015620011ac57600190555f8051602062004dbf83398151915260018155303b15158062001bb4575b6200117057303b15158062001bac575b62001170575f8051602062004ddf833981519152805490926001600160a01b039182166200118a578493339055335f8051602062004e5f8339815191525f80a283546001600160a01b031916911617825555604051600181525f8051602062004dff83398151915290602090a180f35b508262001b3c565b508262001b2c565b50346200028157366003190161020081126200187a576101c01362000281576001600160401b036101c435818111620004e65762001bff90369060040162002fbd565b916101e435908111620018765762001c1c90369060040162002fbd565b909190610104356001600160a01b038116900362000c2d576200198292859160405193600435602086015262001c556040860162003240565b60e43561010086015262001c6d610120860162003299565b6102006101e086015262001ca585620006ab62001c9061022083018b86620033b6565b828103601f19016102008401528587620033b6565b62001ccb62001cb761010435620036a2565b60405197889160e435906020840162003404565b5a9660018060a01b0385541691823b1562000c055762001d3d9286928360405180968195829463106941a960e31b8452600435600485015262001d116024850162003240565b60e43560e485015262001d28610104850162003299565b6101e06101c48501526101e4840191620033b6565b03925af190811562000bfa57849162001dcb575b50507f00000000000000000000000000000000000000000000000000000000000000006001600160a01b031691823b15620018765762001a7e9284928360405180968195829463715a86c560e01b8452600435600485015262001db76024850162003240565b61010060e4850152610104840191620033b6565b62001dd690620030ff565b620004e657825f62001d51565b5034620002815780600319360112620002815760206040515f8051602062004ebf8339815191528152f35b50346200028157806003193601126200028157600d54600e549062001e40600f546010549060405194859485620030b9565b0390f35b50346200028157806003193601126200028157600954600a549062001e40600b54600c549060405194859485620030b9565b503462000281576020366003190112620002815762001e946200302f565b5f8051602062004ddf833981519152546001600160a01b039190339083160362000ea057805f8051602062004f1f83398151915255165f8051602062004f3f8339815191528280a280f35b503462000281576040366003190112620002815762001f0b62001f016200302f565b60243590620037db565b90919260405193849360608501918552602090151560208601526060604086015283518092526020608086019401925b82811062001f4b57505050500390f35b83518552869550938101939281019260010162001f3b565b50346200028157806200200c62001f7a366200305b565b8362001f906101208794959799969901620031d2565b95620020196040519762001fa860208a01876200362d565b62001ff561022091620006878b62001fe862001fd361020099878b85015289610240850191620033b6565b601f19968784830301908401528a8d620033b6565b038481018d528c62003197565b6040519a8b91610100890135906020840162003404565b039081018a528962003197565b5a865490996001600160a01b039390918416803b15620020f9576200205e89886200207082966040519889978896879563de4030ed60e01b875260048701906200362d565b6101e4850152610204840191620033b6565b03925af1908115620020ee578691620020d6575b50507f000000000000000000000000000000000000000000000000000000000000000016803b15620018725762001a7e938580946040519687958694859363c655a23d60e01b8552600485016200366b565b620020e190620030ff565b6200187257845f62002084565b6040513d88823e3d90fd5b8880fd5b503462000281578060031936011262000281575f8051602062004d9f833981519152546040516001600160a01b039091168152602090f35b503462000281578060031936011262000281576040517f00000000000000000000000000000000000000000000000000000000000000006001600160a01b03168152602090f35b503462000281578060031936011262000281575f8051602062004e7f833981519152546040516001600160a01b039091168152602090f35b503462000281578060031936011262000281575f8051602062004ddf833981519152546040516001600160a01b039091168152602090f35b50346200028157606036600319011262000281576200220a6200302f565b6001600160a01b03908116825260036020908152604080842060243585529091528220805460443593908410156200028157506020926200224b91620030d5565b90549060031b1c16604051908152f35b503462000281578060031936011262000281576040517f00000000000000000000000000000000000000000000000000000000000000006001600160a01b03168152602090f35b503462000281578060031936011262000281576005546006549062001e406007546008549060405194859485620030b9565b503462000281578060031936011262000281575f8051602062004e7f83398151915254336001600160a01b039182161415908162002364575b506200234c5760015f8051602062004eff833981519152557f9e87fac88ff661f02d44f95383c817fece4bce600a3dab7a54406878b965e7528180a180f35b604051637bcc3d4960e11b8152336004820152602490fd5b90505f8051602062004ddf83398151915254163314155f6200230d565b50346200028157806003193601126200028157602060405160088152f35b503462000281578060031936011262000281576020620023bf33620041e4565b6040516001600160a01b039091168152f35b5034620002815760403660031901126200028157620023ef6200302f565b9060018060a01b0380921681526020906003825260408120602435825282526040812090604051808484549182815201908194845285842090845b8181106200247e57505050816200244391038262003197565b6040519380850191818652518092526040850193925b828110620024675785850386f35b835187168552938101939281019260010162002459565b82548916845292870192600192830192016200242a565b5034620002815780600319360112620002815760205f8051602062004eff833981519152546040519015158152f35b503462000281578060031936011262000281576040517f00000000000000000000000000000000000000000000000000000000000000006001600160a01b03168152602090f35b5034620002815760403660031901126200028157620025296200302f565b6024356001600160a01b03818116939184900362000c2d57604092168152600260205220905f52602052602060405f2054604051908152f35b50346200028157602036600319011262000281576020620023bf620006876200302f565b50346200028157806200200c6200259d366200305b565b83620025b36101208794959799969901620031d2565b95620025cb6040519762001fa860208a01876200362d565b5a865490996001600160a01b039390918416803b15620020f9576200205e898862002610829660405198899788968795631ea190c560e31b875260048701906200362d565b03925af1908115620020ee57869162002676575b50507f000000000000000000000000000000000000000000000000000000000000000016803b15620018725762001a7e938580946040519687958694859363aac3454b60e01b8552600485016200366b565b6200268190620030ff565b6200187257845f62002624565b5034620002815760203660031901126200028157620026ac6200302f565b5f8051602062004ddf833981519152546001600160a01b039190339083160362000ea057805f8051602062004e7f83398151915255167fa4336c0cb1e245b95ad204faed7e940d6dc999684fd8b5e1ff597a0c4efca8ab8280a280f35b50346200028157604036600319011262000281576020906040906001600160a01b03620027356200302f565b16815260048352818120602435825283522054604051908152f35b50346200028157806003193601126200028157602060405160048152f35b503462000281578060031936011262000281575f8051602062004e7f83398151915254336001600160a01b0391821614159081620027e5575b506200234c57805f8051602062004eff833981519152557fa45f47fdea8a1efdd9029a5691c7f759c32b7c698632b563573e155625d169338180a180f35b90505f8051602062004ddf83398151915254163314155f620027a7565b503462000281576003196060368201126200187a576001600160401b03906004359082821162001876578382600401918336039061010081830112620004e65760243586811162001876576200285d90369060040162002fbd565b95909660443590811162001872576200287b90369060040162002fbd565b9590926200288c60448401620031d2565b6040516060602082015297908990898c620028ab6080830188620035e8565b601f199d8e848303016040850152620028c492620033b6565b8c828203016060830152620028db90858a620033b6565b038b81018b52620028ed908b62003197565b620028f890620036a2565b99604051809b60248801356020830191620029139262003404565b039081018b5262002925908b62003197565b5a8854909b6001600160a01b03929091831690813b1562002a46578a916200297283896200298360405197889687958694630644642f60e21b8652604060048701526044860190620035e8565b918d858403016024860152620033b6565b03925af190811562002a3b57899162002a1f575b50507f000000000000000000000000000000000000000000000000000000000000000016923595610102190186121562002a1b57823b1562002a1b5762002a0b9562001a7e60049389979388946040519a8b998a98899763b557198f60e01b89526040828a01526044890192010162003593565b92858403016024860152620033b6565b8680fd5b62002a2a90620030ff565b62002a3757875f62002997565b8780fd5b6040513d8b823e3d90fd5b8a80fd5b503462000281578060031936011262000281575f8051602062004edf833981519152546040516001600160a01b039091168152602090f35b50346200028157806003193601126200028157546040516001600160a01b039091168152602090f35b503462000281576060366003190112620002815762002ac96200302f565b6044356001600160a01b038181169182900362000c2d57604093849182519462002af38662003143565b82865282602080970152168152600184528181206024358252845220905f528152815f2090825162002b258162003143565b8160018454948584520154910190815283519283525190820152f35b5034620002815762002b533662002fed565b6060839294930162000687858462002b6b84620031d2565b9462002bc76040519662002ba28862002b8c8560209e8f9d8e85016200348d565b039162000687601f19938481018c528b62003197565b62002bba6040519a8b92604088013591840162003404565b0390810189528862003197565b5a946001600160a01b0394859162002be09190620031d2565b16928489541690813b1562002de85791899162002c16938360405180968195829463c4786d9b60e01b84528a600485016200348d565b03925af1801562002ddd5790889162002dc5575b50508262002c3882620031d2565b604051637e062a3560e11b81529116938982600481885afa91821562002a3b57899262002d86575b50807f00000000000000000000000000000000000000000000000000000000000000001691160362002d6d57813b1562002a1b57918691888362002cbf956040519687958694859363e1638ba360e01b85520135906004840162003404565b03925af1801562002d625790859162002d4a575b505062002ce2905a906200341f565b600954600a548080046001148115171562002d3657600b54600c54918280046001148315171562002d22576200063b979860405194620006268662003127565b634e487b7160e01b88526011600452602488fd5b634e487b7160e01b86526011600452602486fd5b62002d5590620030ff565b6200187657835f62002cd3565b6040513d87823e3d90fd5b60405163950cd07160e01b815260048101849052602490fd5b9091508981813d831162002dbd575b62002da1818362003197565b81010312620020f957518181168103620020f957905f62002c60565b503d62002d95565b62002dd090620030ff565b62002a1b57865f62002c2a565b6040513d8a823e3d90fd5b8980fd5b503462000281578060031936011262000281576040517f00000000000000000000000000000000000000000000000000000000000000006001600160a01b03168152602090f35b503462000c2d573660031901610100811262000c2d5760e01362000c2d5760e435906001600160401b03821162000c2d5762002e7862002ecd92369060040162002fbd565b62002e85939193620031bb565b9062002eda6040519262002eb98462002ea3858a60208401620033d6565b039162000687601f199384810188528762003197565b604051958691600435906020840162003404565b0390810185528462003197565b5a9062002ee6620031bb565b9560018060a01b035f541691823b1562000c2d5762002f1f925f9283604051809681958294638008e34960e01b845260048401620033d6565b03925af1801562000c225762002f4f575b50620017d19062002f466200063b9596620041e4565b505a906200341f565b6200063b94509062002f65620017d192620030ff565b5f94509062002f30565b3462000c2d57602036600319011262000c2d576004356001600160a01b038116919082900362000c2d576020915f525f8051602062004e9f833981519152825260ff60405f20541615158152f35b9181601f8401121562000c2d578235916001600160401b03831162000c2d576020838186019501011162000c2d57565b906003198201610140811262000c2d576101201362000c2d5760049161012435906001600160401b03821162000c2d576200302b9160040162002fbd565b9091565b600435906001600160a01b038216820362000c2d57565b35906001600160a01b038216820362000c2d57565b906003198201610220811262000c2d576101e01362000c2d576004916001600160401b03916101e43583811162000c2d57826200309b9160040162002fbd565b939093926102043591821162000c2d576200302b9160040162002fbd565b9094939260609260808301968352602083015260408201520152565b8054821015620030eb575f5260205f2001905f90565b634e487b7160e01b5f52603260045260245ffd5b6001600160401b0381116200311357604052565b634e487b7160e01b5f52604160045260245ffd5b608081019081106001600160401b038211176200311357604052565b604081019081106001600160401b038211176200311357604052565b60a081019081106001600160401b038211176200311357604052565b606081019081106001600160401b038211176200311357604052565b601f909101601f19168101906001600160401b038211908210176200311357604052565b6024356001600160a01b038116810362000c2d5790565b356001600160a01b038116810362000c2d5790565b6001600160a01b036004358181169081900362000c2d57825260243581811680910362000c2d57602083015260443590811680910362000c2d5760408201526064356060820152608435608082015260a060a435910152565b6001600160a01b036024358181169081900362000c2d57825260443581811680910362000c2d57602083015260643590811680910362000c2d576040820152608435606082015260a435608082015260a060c435910152565b6001600160a01b03610104358181169081900362000c2d5782526101243581811680910362000c2d5760208301526101443590811680910362000c2d57604082015261016435606082015261018435608082015260a06101a435910152565b6001600160a01b0360e4358181169081900362000c2d5782526101043581811680910362000c2d5760208301526101243590811680910362000c2d57604082015261014435606082015261016435608082015260a061018435910152565b60a09081906001600160a01b03806200336f8362003046565b16855280620033816020840162003046565b166020860152620033956040830162003046565b16604085015260608101356060850152608081013560808501520135910152565b908060209392818452848401375f828201840152601f01601f1916010190565b916200340192610100906004358152620033f36020820162003240565b8160e08201520191620033b6565b90565b6001600160a01b039091168152602081019190915260400190565b9190820391821162000c3a57565b604051906200343c8262003127565b6005548252600654602083015260075460408301526008546060830152565b90670de0b6b3a76400009182810292818404149015171562000c3a57565b8181029291811591840414171562000c3a57565b6200340193916101409190620034d4906001600160a01b03620034b08262003046565b16835260208101356020840152604081013560408401526060808401910162003356565b816101208201520191620033b6565b9035601e198236030181121562000c2d570160208101919035906001600160401b03821162000c2d578160061b3603831362000c2d57565b3590811515820362000c2d57565b602090620035509082906001600160a01b03620035468262003046565b168552016200351b565b1515910152565b916020908281520191905f5b818110620035715750505090565b90919280620035836001928662003529565b6040908101940192910162003563565b6200340190604080620035de620035c0610100620035b28680620034e3565b9091808a5289019162003557565b620035cf6020860186620034e3565b9088830360208a015262003557565b9401910162003356565b8035906101003682900360fe190183121562000c2d5760406200361962003401948484849589528801910162003593565b946020840135602082015201910162003356565b62003669916200363e818362003529565b62003650604082016040840162003356565b6101008083013590820152610120809101910162003356565b565b90620034019391620036936101209262003686838262003529565b6040808401910162003356565b816101008201520191620033b6565b600b6055915f8051602062004ebf833981519152604091825160209163189acdbd60e31b8383015260018060a01b0316602482015260248152620036e6816200317b565b620037516200375e8361065593875190620037048387018362003197565b858252828201956200474a873988516200372881620006d3868201943086620041c0565b895195869362003741868601998a925192839162004176565b8401915180938684019062004176565b0103808452018262003197565b5190208351938401528201523081520160ff81532090565b6001600160401b038111620031135760051b60200190565b906200379a8262003776565b620037a9604051918262003197565b8281528092620037bc601f199162003776565b0190602036910137565b8051821015620030eb5760209160051b010190565b915f905f60018060a01b0380951691825f5260039560209660038852604096875f20815f52895262003810885f20546200378e565b935f955b85518710156200392e57875f52838b52895f20835f528b52846200383b888c5f20620030d5565b905490861b1c168a5190635b4b969560e01b825281806004928c84830152608092839160249687915afa9182156200392457908e92915f92620038c2575b5050015192836200388b8b8b620037c6565b525f8482019485129112908015821691151617620038b157505060019096019562003814565b601190634e487b7160e01b5f52525ffd5b8193508092503d83116200391c575b620038dd818362003197565b8101031262000c2d578c518d918f620038f68362003127565b8151835280820151908301528281015183830152606080910151908201525f8062003879565b503d620038d1565b8e513d5f823e3d90fd5b95509792989091959885966200394586516200378e565b975f995b87518b101562003a0e576001908a8c8f620039e9818e8e620039e18f8f908f918f928f938b94620039f29b5f52808352845f20845f5283526200398f86865f20620030d5565b9054911b1c1697805f528e98898352845f20845f528352845f20905f528252835f2098845199620039c08b62003143565b80548b520154828a01525f5260048152825f20915f52525f205492620037c6565b5192620042f4565b929093620037c6565b52811562003a05575b509a019962003949565b90505f620039fb565b9a9899509a5050505050505050565b9193929093604092604081526101a08101938635604083015260209081880135601e198936030181121562000c2d578801828101969035906001600160401b03821162000c2d578160051b3603881362000c2d5781906101606060870152526101c0840196905f5b81811062003b18575050508162003aa060408a018a620034e3565b919097603f198682030160808701528281520196915f5b82811062003afb575050505062003aef876060620034019899013560a0850152608081013560c085015260a060e08501910162003356565b818503910152620033b6565b8335895284840135858a0152978101979281019260010162003ab7565b9091978480600192838060a01b0362003b318d62003046565b16815201990192910162003a85565b90620034019391620034d4610140928035835262003b61602082016200351b565b15156020840152604081013560408401526060808401910162003356565b9290925f9080519160206200073762003bbf82850151620007378a62003bb2670de0b6b3a7640000998a9687936200345b565b046200087848936200345b565b049360409360608582015191015185519163de26c4a160e01b83528262003bf260049b878d840152602483019062004199565b600f602160991b019187918691900381845afa93841562003fd1575f9462004141575b5087516318b30b2360e31b815286818d81855afa90811562004137575f9162004104575b506001600160fc1b0390808216810362003fee57895163519b4bd360e01b815288818f81875afa908115620040c1578e905f92620040cb575b509162003c80921b62003479565b895163346aee5360e11b815288818f81875afa908115620040c157908e915f916200408a575b50898c5180936303e0818560e61b825281885afa9182156200408057918f93918b935f926200403e575b5062003ce29291620008789162003479565b938b519283809263313ce56760e01b82525afa90811562004034575f9162004001575b50604d811162003fee57600a0a908116810362003fdb57926200087886620009078197958f62000900620007379762003d459a62000737931b9062004489565b049562003d53878762004466565b5f8051602062004d9f833981519152548651633fabe5a360e21b81526001600160a01b0394929160a09082908d90829089165afa90811562003fd1575f9162003f70575b5062003da86305f5e10091620042d6565b05905f821262003f59579062003dbe9162003479565b04858280518101031262000c2d57838201519183831680930362000c2d5786015164e8d4a510009081810291818304149015171562003f46578082101562003f3d5750975b813b1562000c2d5788865191630b220c3960e01b83528201525f60248201525f8160448183865af1801562003f335762003f11575b509062003e9b62003ee6928651906323b872dd60e01b8683015260248201523060448201528960648201526064815262003e72816200315f565b827f00000000000000000000000000000000000000000000000000000000000000001662004586565b5f8051602062004edf83398151915254855163a9059cbb60e01b85820152919062003edf8362003ed08c336024840162003404565b03601f19810185528462003197565b1662004586565b8251968752860152840152606083015260808201525f8051602062004e3f83398151915260a03392a2565b62003ee69291945062003f2490620030ff565b62003e9b5f9491925062003e38565b86513d5f823e3d90fd5b90509762003e03565b60118a634e487b7160e01b5f525260245ffd5b875163280f944f60e11b8152808c01839052602490fd5b905060a0813d60a01162003fc8575b8162003f8e60a0938362003197565b8101031262000c2d5762003da88162003fac6305f5e1009362004474565b5062003fbf608089830151920162004474565b50915062003d97565b3d915062003f7f565b88513d5f823e3d90fd5b60118c634e487b7160e01b5f525260245ffd5b60118d634e487b7160e01b5f525260245ffd5b90508781813d83116200402c575b6200401b818362003197565b8101031262000c2d57515f62003d05565b503d6200400f565b8a513d5f823e3d90fd5b9384919395508092503d831162004078575b6200405c818362003197565b8101031262000c2d5790518e928a929091906200087862003cd0565b503d62004050565b8c513d5f823e3d90fd5b8092508a8092503d8311620040b9575b620040a6818362003197565b8101031262000c2d578d90515f62003ca6565b503d6200409a565b8b513d5f823e3d90fd5b8092508a8092503d8311620040fc575b620040e7818362003197565b8101031262000c2d57518d62003c8062003c72565b503d620040db565b90508681813d83116200412f575b6200411e818362003197565b8101031262000c2d57515f62003c39565b503d62004112565b89513d5f823e3d90fd5b9093508581813d83116200416e575b6200415c818362003197565b8101031262000c2d5751925f62003c15565b503d62004150565b5f5b838110620041885750505f910152565b818101518382015260200162004178565b90602091620041b48151809281855285808601910162004176565b601f01601f1916010190565b6001600160a01b039091168152604060208201819052620034019291019062004199565b60405163189acdbd60e31b60208201526001600160a01b039182166024808301829052825292919062004217816200317b565b604051610655808201906001600160401b0382118383101762003113575f8051602062004ebf83398151915293839262004259926200474a85393090620041c0565b03905ff5801562000c225716805f525f8051602062004e9f83398151915260205260405f20600160ff19825416179055807f4fe45192317a7d3ad19c3eaa395c0c3a1b7a0f53c3536fb96764c3561a8e9dad5f80a280927f2682a218602b9036c9869f006c5405ee4a1a65267653eb7e286123e5e1afde4c5f80a3565b90670de0b6b3a76400009182810292818405149015171562000c3a57565b80519293926001600160ff1b0381116200444e5784810294600160ff1b915f82128382141662000c3a57818705149015171562000c3a57620f4240809505906001620043408362004526565b14620043fb578585029085820587148615171562000c3a578215620043e75781145f1983141662000c3a57819005945f868203961281871281169187139015161762000c3a575f848203941281851281169185139015161762000c3a57620043bc6002916020620043b2869762004544565b9101519062004573565b149182620043c957505091565b6002925090620043dd620043e39262004544565b62004573565b1491565b634e487b7160e01b5f52601260045260245ffd5b505050909291620f423f1980850290858205148515171562000c3a576001916200442791059462004526565b141590816200443557509190565b600291506200444990620043dd8562004544565b149190565b6024906040519063eecaa25d60e01b82526004820152fd5b9190820180921162000c3a57565b51906001600160501b038216820362000c2d57565b8115620043e7570490565b903590601e198136030182121562000c2d57018035906001600160401b03821162000c2d57602001918160051b3603831362000c2d57565b9190811015620030eb5760051b0190565b903590601e198136030182121562000c2d57018035906001600160401b03821162000c2d57602001918160061b3603831362000c2d57565b9190811015620030eb5760061b0190565b5f81136200453e575f136200453a57600190565b5f90565b50600290565b5f81126200454f5790565b5f0390565b620f4240908181116200456c57106200453a57600190565b5050600290565b8181116200456c57106200453a57600190565b60018060a01b03166040516200459c8162003143565b5f806020948584527f5361666545524332303a206c6f772d6c6576656c2063616c6c206661696c656486850152858151910182865af13d156200469c573d906001600160401b03821162003113576200461693604051926200460887601f19601f840116018562003197565b83523d5f8785013e620046a6565b8051806200462357505050565b8183918101031262000c2d5781015180159081150362000c2d57620046455750565b6084906040519062461bcd60e51b82526004820152602a60248201527f5361666545524332303a204552433230206f7065726174696f6e20646964206e6044820152691bdd081cdd58d8d9595960b21b6064820152fd5b9162004616926060915b919290156200470b5750815115620046bc575090565b3b15620046c65790565b60405162461bcd60e51b815260206004820152601d60248201527f416464726573733a2063616c6c20746f206e6f6e2d636f6e74726163740000006044820152606490fd5b8251909150156200471f5750805190602001fd5b60405162461bcd60e51b8152602060048201529081906200474590602483019062004199565b0390fdfe608060409080825261065580380380916100198285610342565b833981019082818303126102385761003081610365565b6020828101516001600160401b039391929184821161023857019084601f830112156102385781519161006283610379565b9261006f88519485610342565b8084528484019685828401011161023857868561008c9301610394565b803b156102f0578551635c60da1b60e01b80825292916001600160a01b0316908481600481855afa9081156102e6575f916102b1575b503b15610254577fa3f0ad74e5423aebfd80d3ef4346578335a9a72aeaee59ff6cb3582b35133d5080546001600160a01b03191682179055865192817f1cf3b03a6cf19fa2baba4df148e9dcabedea7f8a5c07840e207e5c089be95d3e5f80a282511580159061024d575b610140575b87516101ec90816104698239f35b6004848693819382525afa918215610243575f92610208575b5085519360608501908111858210176101f4578652602784527f416464726573733a206c6f772d6c6576656c2064656c65676174652063616c6c83850152660819985a5b195960ca1b84870152516101de945f918291845af4903d156101eb573d6101c381610379565b906101d088519283610342565b81525f81943d92013e6103b5565b505f808080808080610132565b606092506103b5565b634e487b7160e01b5f52604160045260245ffd5b9091508281813d831161023c575b6102208183610342565b810103126102385761023190610365565b905f610159565b5f80fd5b503d610216565b86513d5f823e3d90fd5b505f61012d565b865162461bcd60e51b815260048101859052603060248201527f455243313936373a20626561636f6e20696d706c656d656e746174696f6e206960448201526f1cc81b9bdd08184818dbdb9d1c9858dd60821b6064820152608490fd5b90508481813d83116102df575b6102c88183610342565b81010312610238576102d990610365565b5f6100c2565b503d6102be565b88513d5f823e3d90fd5b855162461bcd60e51b815260048101849052602560248201527f455243313936373a206e657720626561636f6e206973206e6f74206120636f6e6044820152641d1c9858dd60da1b6064820152608490fd5b601f909101601f19168101906001600160401b038211908210176101f457604052565b51906001600160a01b038216820361023857565b6001600160401b0381116101f457601f01601f191660200190565b5f5b8381106103a55750505f910152565b8181015183820152602001610396565b9192901561041757508151156103c9575090565b3b156103d25790565b60405162461bcd60e51b815260206004820152601d60248201527f416464726573733a2063616c6c20746f206e6f6e2d636f6e74726163740000006044820152606490fd5b82519091501561042a5750805190602001fd5b6044604051809262461bcd60e51b82526020600483015261045a8151809281602486015260208686019101610394565b601f01601f19168101030190fdfe608080604052366100af575f8051602061019783398151915254635c60da1b60e01b8252602090829060049082906001600160a01b03165afa9081156100a4575f9161004c575b50610179565b905060203d60201161009d575b601f8101601f19168201916001600160401b03831181841017610089576100839260405201610134565b5f610046565b634e487b7160e01b5f52604160045260245ffd5b503d610059565b6040513d5f823e3d90fd5b5f8051602061019783398151915254604051635c60da1b60e01b815290602090829060049082906001600160a01b03165afa9081156100a4575f916100f45750610179565b602091503d821161012c575b601f8201601f19168101916001600160401b03831182841017610089576100839260405281019061015a565b3d9150610100565b602090607f190112610156576080516001600160a01b03811681036101565790565b5f80fd5b9081602091031261015657516001600160a01b03811681036101565790565b5f8091368280378136915af43d5f803e15610192573d5ff35b3d5ffdfea3f0ad74e5423aebfd80d3ef4346578335a9a72aeaee59ff6cb3582b35133d50a26469706673582212204f0ab61d331c360c51475166a3e420f36ae998b54d56087661bab140a2136b5364736f6c634300081800332b50211693ec91bcfe327771928b74a8f475c508d53e86fca4153bcf0f0e87762801b00eb06461cf9fcb9758b5fafd884ff06a86177386f73b6c49f0bf5a5af0e7742ddf0fecd2926e7ef4d6d6e91a7b2f0b1f8805b78953dac8454e86273ed2be9b076dc5b65990cca9dd9d7366682482e7817a6f6bc7f4faf4dc32af497f326fee9688c285c5c5c97d6a1a29adced674e6b2ad0888b8ad2116b58a8b3ea248fa0333956d06e335c550bd5fc4ac9c003c6545e371331b1071fa4d5d8519d6c14ffd725fc4a22075e9ec71c59edf9c38cdeb588a91b24fc5b61388c5be41282b18e50ee9696440d335192aeeeffc26f47782eaa914f1700d8ad36d6d7f7261b381796b4965de195665289d95668a8a9e7020858e15f5341c42bcf9951c1768ada7061a14e3ecf6b6005ae012e8d4e1b45b16518ae5b5553dad6dcd441776ee675b5cbfa852c5bd03e540eba853f8faf28a604a4d82bee1091096bfaea14d08c33d13b7e57307bea7f94c474c597247d2da93d7de9136f8e123ed6525f50bbcec675c83682abbc3e7dd47e40515a778fbbde4393395c3dd3588244203c3e4788369f201bc2089b9be6195d876d97a0136b4cf56bbf8986a52dcb50697f7d1cac5a2646970667358221220cf754f6fda7bcf93dab0817be6691b5304670feba8d6d02f835caee28a9372b864736f6c63430008180033"
}