{
  "address": "0x3B778B8f92aA501de6f1f73F6CfF32322dBfA0dF",
  "abi": [
    {
      "inputs": [
        {
          "internalType": "address",
          "name": "implementation",
          "type": "address"
        },
        {
          "internalType": "contract IMarketFactory",
          "name": "marketFactory",
          "type": "address"
        },
        {
          "internalType": "contract IVerifierBase",
          "name": "nonceManager",
          "type": "address"
        }
      ],
      "stateMutability": "nonpayable",
      "type": "constructor"
    },
    {
      "inputs": [],
      "name": "ControllerGroupBalancedError",
      "type": "error"
    },
    {
      "inputs": [],
      "name": "ControllerInvalidRebalanceConfigError",
      "type": "error"
    },
    {
      "inputs": [],
      "name": "ControllerInvalidRebalanceGroupError",
      "type": "error"
    },
    {
      "inputs": [],
      "name": "ControllerInvalidRebalanceMarketsError",
      "type": "error"
    },
    {
      "inputs": [],
      "name": "ControllerInvalidRebalanceTargetsError",
      "type": "error"
    },
    {
      "inputs": [],
      "name": "ControllerInvalidSignerError",
      "type": "error"
    },
    {
      "inputs": [
        {
          "internalType": "contract IMarket",
          "name": "market",
          "type": "address"
        },
        {
          "internalType": "uint256",
          "name": "group",
          "type": "uint256"
        }
      ],
      "name": "ControllerMarketAlreadyInGroupError",
      "type": "error"
    },
    {
      "inputs": [],
      "name": "ControllerNotOperatorError",
      "type": "error"
    },
    {
      "inputs": [
        {
          "internalType": "contract IMarket",
          "name": "market",
          "type": "address"
        }
      ],
      "name": "ControllerUnsupportedMarketError",
      "type": "error"
    },
    {
      "inputs": [],
      "name": "FactoryNotInstanceError",
      "type": "error"
    },
    {
      "inputs": [
        {
          "internalType": "uint256",
          "name": "value",
          "type": "uint256"
        }
      ],
      "name": "Fixed6OverflowError",
      "type": "error"
    },
    {
      "inputs": [
        {
          "internalType": "uint256",
          "name": "version",
          "type": "uint256"
        }
      ],
      "name": "InitializableAlreadyInitializedError",
      "type": "error"
    },
    {
      "inputs": [],
      "name": "InitializableNotInitializingError",
      "type": "error"
    },
    {
      "inputs": [],
      "name": "InitializableZeroVersionError",
      "type": "error"
    },
    {
      "inputs": [],
      "name": "OwnableAlreadyInitializedError",
      "type": "error"
    },
    {
      "inputs": [
        {
          "internalType": "address",
          "name": "sender",
          "type": "address"
        }
      ],
      "name": "OwnableNotOwnerError",
      "type": "error"
    },
    {
      "inputs": [
        {
          "internalType": "address",
          "name": "sender",
          "type": "address"
        }
      ],
      "name": "OwnableNotPendingOwnerError",
      "type": "error"
    },
    {
      "inputs": [
        {
          "internalType": "address",
          "name": "sender",
          "type": "address"
        }
      ],
      "name": "PausableNotPauserError",
      "type": "error"
    },
    {
      "inputs": [],
      "name": "PausablePausedError",
      "type": "error"
    },
    {
      "inputs": [
        {
          "internalType": "int256",
          "name": "value",
          "type": "int256"
        }
      ],
      "name": "UFixed18UnderflowError",
      "type": "error"
    },
    {
      "anonymous": false,
      "inputs": [
        {
          "indexed": true,
          "internalType": "address",
          "name": "owner",
          "type": "address"
        },
        {
          "indexed": true,
          "internalType": "contract IAccount",
          "name": "account",
          "type": "address"
        }
      ],
      "name": "AccountDeployed",
      "type": "event"
    },
    {
      "anonymous": false,
      "inputs": [
        {
          "indexed": true,
          "internalType": "address",
          "name": "owner",
          "type": "address"
        },
        {
          "indexed": true,
          "internalType": "uint256",
          "name": "group",
          "type": "uint256"
        }
      ],
      "name": "GroupRebalanced",
      "type": "event"
    },
    {
      "anonymous": false,
      "inputs": [
        {
          "indexed": false,
          "internalType": "uint256",
          "name": "version",
          "type": "uint256"
        }
      ],
      "name": "Initialized",
      "type": "event"
    },
    {
      "anonymous": false,
      "inputs": [
        {
          "indexed": true,
          "internalType": "contract IInstance",
          "name": "instance",
          "type": "address"
        }
      ],
      "name": "InstanceRegistered",
      "type": "event"
    },
    {
      "anonymous": false,
      "inputs": [
        {
          "indexed": true,
          "internalType": "address",
          "name": "sender",
          "type": "address"
        },
        {
          "indexed": false,
          "internalType": "uint256",
          "name": "applicableGas",
          "type": "uint256"
        },
        {
          "indexed": false,
          "internalType": "uint256",
          "name": "applicableValue",
          "type": "uint256"
        },
        {
          "indexed": false,
          "internalType": "UFixed18",
          "name": "baseFee",
          "type": "uint256"
        },
        {
          "indexed": false,
          "internalType": "UFixed18",
          "name": "calldataFee",
          "type": "uint256"
        },
        {
          "indexed": false,
          "internalType": "UFixed18",
          "name": "keeperFee",
          "type": "uint256"
        }
      ],
      "name": "KeeperCall",
      "type": "event"
    },
    {
      "anonymous": false,
      "inputs": [
        {
          "indexed": true,
          "internalType": "address",
          "name": "newOwner",
          "type": "address"
        }
      ],
      "name": "OwnerUpdated",
      "type": "event"
    },
    {
      "anonymous": false,
      "inputs": [],
      "name": "Paused",
      "type": "event"
    },
    {
      "anonymous": false,
      "inputs": [
        {
          "indexed": true,
          "internalType": "address",
          "name": "newPauser",
          "type": "address"
        }
      ],
      "name": "PauserUpdated",
      "type": "event"
    },
    {
      "anonymous": false,
      "inputs": [
        {
          "indexed": true,
          "internalType": "address",
          "name": "newPendingOwner",
          "type": "address"
        }
      ],
      "name": "PendingOwnerUpdated",
      "type": "event"
    },
    {
      "anonymous": false,
      "inputs": [
        {
          "indexed": true,
          "internalType": "address",
          "name": "owner",
          "type": "address"
        },
        {
          "indexed": true,
          "internalType": "uint256",
          "name": "group",
          "type": "uint256"
        },
        {
          "indexed": false,
          "internalType": "uint256",
          "name": "markets",
          "type": "uint256"
        }
      ],
      "name": "RebalanceGroupConfigured",
      "type": "event"
    },
    {
      "anonymous": false,
      "inputs": [
        {
          "indexed": true,
          "internalType": "address",
          "name": "owner",
          "type": "address"
        },
        {
          "indexed": true,
          "internalType": "uint256",
          "name": "group",
          "type": "uint256"
        },
        {
          "indexed": true,
          "internalType": "address",
          "name": "market",
          "type": "address"
        },
        {
          "components": [
            {
              "internalType": "UFixed6",
              "name": "target",
              "type": "uint256"
            },
            {
              "internalType": "UFixed6",
              "name": "threshold",
              "type": "uint256"
            }
          ],
          "indexed": false,
          "internalType": "struct RebalanceConfig",
          "name": "newConfig",
          "type": "tuple"
        }
      ],
      "name": "RebalanceMarketConfigured",
      "type": "event"
    },
    {
      "anonymous": false,
      "inputs": [],
      "name": "Unpaused",
      "type": "event"
    },
    {
      "inputs": [],
      "name": "DSU",
      "outputs": [
        {
          "internalType": "Token18",
          "name": "",
          "type": "address"
        }
      ],
      "stateMutability": "view",
      "type": "function"
    },
    {
      "inputs": [],
      "name": "MAX_GROUPS_PER_OWNER",
      "outputs": [
        {
          "internalType": "uint256",
          "name": "",
          "type": "uint256"
        }
      ],
      "stateMutability": "view",
      "type": "function"
    },
    {
      "inputs": [],
      "name": "MAX_MARKETS_PER_GROUP",
      "outputs": [
        {
          "internalType": "uint256",
          "name": "",
          "type": "uint256"
        }
      ],
      "stateMutability": "view",
      "type": "function"
    },
    {
      "inputs": [],
      "name": "OPT_BASE_FEE_MULTIPLIER",
      "outputs": [
        {
          "internalType": "uint256",
          "name": "",
          "type": "uint256"
        }
      ],
      "stateMutability": "view",
      "type": "function"
    },
    {
      "inputs": [],
      "name": "SALT",
      "outputs": [
        {
          "internalType": "bytes32",
          "name": "",
          "type": "bytes32"
        }
      ],
      "stateMutability": "view",
      "type": "function"
    },
    {
      "inputs": [],
      "name": "USDC",
      "outputs": [
        {
          "internalType": "Token6",
          "name": "",
          "type": "address"
        }
      ],
      "stateMutability": "view",
      "type": "function"
    },
    {
      "inputs": [],
      "name": "acceptOwner",
      "outputs": [],
      "stateMutability": "nonpayable",
      "type": "function"
    },
    {
      "inputs": [
        {
          "components": [
            {
              "internalType": "uint256",
              "name": "group",
              "type": "uint256"
            },
            {
              "internalType": "address[]",
              "name": "markets",
              "type": "address[]"
            },
            {
              "components": [
                {
                  "internalType": "UFixed6",
                  "name": "target",
                  "type": "uint256"
                },
                {
                  "internalType": "UFixed6",
                  "name": "threshold",
                  "type": "uint256"
                }
              ],
              "internalType": "struct RebalanceConfig[]",
              "name": "configs",
              "type": "tuple[]"
            },
            {
              "internalType": "UFixed6",
              "name": "maxFee",
              "type": "uint256"
            },
            {
              "components": [
                {
                  "internalType": "UFixed6",
                  "name": "maxFee",
                  "type": "uint256"
                },
                {
                  "components": [
                    {
                      "internalType": "address",
                      "name": "account",
                      "type": "address"
                    },
                    {
                      "internalType": "address",
                      "name": "signer",
                      "type": "address"
                    },
                    {
                      "internalType": "address",
                      "name": "domain",
                      "type": "address"
                    },
                    {
                      "internalType": "uint256",
                      "name": "nonce",
                      "type": "uint256"
                    },
                    {
                      "internalType": "uint256",
                      "name": "group",
                      "type": "uint256"
                    },
                    {
                      "internalType": "uint256",
                      "name": "expiry",
                      "type": "uint256"
                    }
                  ],
                  "internalType": "struct Common",
                  "name": "common",
                  "type": "tuple"
                }
              ],
              "internalType": "struct Action",
              "name": "action",
              "type": "tuple"
            }
          ],
          "internalType": "struct RebalanceConfigChange",
          "name": "configChange",
          "type": "tuple"
        },
        {
          "internalType": "bytes",
          "name": "signature",
          "type": "bytes"
        }
      ],
      "name": "changeRebalanceConfigWithSignature",
      "outputs": [],
      "stateMutability": "nonpayable",
      "type": "function"
    },
    {
      "inputs": [
        {
          "internalType": "address",
          "name": "owner",
          "type": "address"
        },
        {
          "internalType": "UFixed6",
          "name": "amount",
          "type": "uint256"
        }
      ],
      "name": "chargeFee",
      "outputs": [],
      "stateMutability": "nonpayable",
      "type": "function"
    },
    {
      "inputs": [
        {
          "internalType": "address",
          "name": "owner",
          "type": "address"
        },
        {
          "internalType": "uint256",
          "name": "group",
          "type": "uint256"
        }
      ],
      "name": "checkGroup",
      "outputs": [
        {
          "internalType": "Fixed6",
          "name": "groupCollateral",
          "type": "int256"
        },
        {
          "internalType": "bool",
          "name": "canRebalance",
          "type": "bool"
        },
        {
          "internalType": "Fixed6[]",
          "name": "imbalances",
          "type": "int256[]"
        }
      ],
      "stateMutability": "view",
      "type": "function"
    },
    {
      "inputs": [],
      "name": "deployAccount",
      "outputs": [
        {
          "internalType": "contract IAccount",
          "name": "",
          "type": "address"
        }
      ],
      "stateMutability": "nonpayable",
      "type": "function"
    },
    {
      "inputs": [
        {
          "components": [
            {
              "components": [
                {
                  "internalType": "UFixed6",
                  "name": "maxFee",
                  "type": "uint256"
                },
                {
                  "components": [
                    {
                      "internalType": "address",
                      "name": "account",
                      "type": "address"
                    },
                    {
                      "internalType": "address",
                      "name": "signer",
                      "type": "address"
                    },
                    {
                      "internalType": "address",
                      "name": "domain",
                      "type": "address"
                    },
                    {
                      "internalType": "uint256",
                      "name": "nonce",
                      "type": "uint256"
                    },
                    {
                      "internalType": "uint256",
                      "name": "group",
                      "type": "uint256"
                    },
                    {
                      "internalType": "uint256",
                      "name": "expiry",
                      "type": "uint256"
                    }
                  ],
                  "internalType": "struct Common",
                  "name": "common",
                  "type": "tuple"
                }
              ],
              "internalType": "struct Action",
              "name": "action",
              "type": "tuple"
            }
          ],
          "internalType": "struct DeployAccount",
          "name": "deployAccount_",
          "type": "tuple"
        },
        {
          "internalType": "bytes",
          "name": "signature",
          "type": "bytes"
        }
      ],
      "name": "deployAccountWithSignature",
      "outputs": [],
      "stateMutability": "nonpayable",
      "type": "function"
    },
    {
      "inputs": [],
      "name": "ethTokenOracleFeed",
      "outputs": [
        {
          "internalType": "contract AggregatorV3Interface",
          "name": "",
          "type": "address"
        }
      ],
      "stateMutability": "view",
      "type": "function"
    },
    {
      "inputs": [
        {
          "internalType": "address",
          "name": "owner",
          "type": "address"
        }
      ],
      "name": "getAccountAddress",
      "outputs": [
        {
          "internalType": "address",
          "name": "",
          "type": "address"
        }
      ],
      "stateMutability": "view",
      "type": "function"
    },
    {
      "inputs": [
        {
          "internalType": "address",
          "name": "",
          "type": "address"
        },
        {
          "internalType": "uint256",
          "name": "",
          "type": "uint256"
        },
        {
          "internalType": "uint256",
          "name": "",
          "type": "uint256"
        }
      ],
      "name": "groupToMarkets",
      "outputs": [
        {
          "internalType": "contract IMarket",
          "name": "",
          "type": "address"
        }
      ],
      "stateMutability": "view",
      "type": "function"
    },
    {
      "inputs": [
        {
          "internalType": "address",
          "name": "",
          "type": "address"
        },
        {
          "internalType": "uint256",
          "name": "",
          "type": "uint256"
        }
      ],
      "name": "groupToMaxRebalanceFee",
      "outputs": [
        {
          "internalType": "UFixed6",
          "name": "",
          "type": "uint256"
        }
      ],
      "stateMutability": "view",
      "type": "function"
    },
    {
      "inputs": [],
      "name": "implementation",
      "outputs": [
        {
          "internalType": "address",
          "name": "",
          "type": "address"
        }
      ],
      "stateMutability": "view",
      "type": "function"
    },
    {
      "inputs": [
        {
          "internalType": "contract IAccountVerifier",
          "name": "verifier_",
          "type": "address"
        }
      ],
      "name": "initialize",
      "outputs": [],
      "stateMutability": "nonpayable",
      "type": "function"
    },
    {
      "inputs": [
        {
          "internalType": "contract IAccountVerifier",
          "name": "verifier_",
          "type": "address"
        },
        {
          "internalType": "contract AggregatorV3Interface",
          "name": "chainlinkFeed_",
          "type": "address"
        },
        {
          "components": [
            {
              "internalType": "UFixed18",
              "name": "multiplierBase",
              "type": "uint256"
            },
            {
              "internalType": "uint256",
              "name": "bufferBase",
              "type": "uint256"
            },
            {
              "internalType": "UFixed18",
              "name": "multiplierCalldata",
              "type": "uint256"
            },
            {
              "internalType": "uint256",
              "name": "bufferCalldata",
              "type": "uint256"
            }
          ],
          "internalType": "struct IKept.KeepConfig",
          "name": "keepConfig_",
          "type": "tuple"
        },
        {
          "components": [
            {
              "internalType": "UFixed18",
              "name": "multiplierBase",
              "type": "uint256"
            },
            {
              "internalType": "uint256",
              "name": "bufferBase",
              "type": "uint256"
            },
            {
              "internalType": "UFixed18",
              "name": "multiplierCalldata",
              "type": "uint256"
            },
            {
              "internalType": "uint256",
              "name": "bufferCalldata",
              "type": "uint256"
            }
          ],
          "internalType": "struct IKept.KeepConfig",
          "name": "keepConfigBuffered_",
          "type": "tuple"
        },
        {
          "components": [
            {
              "internalType": "UFixed18",
              "name": "multiplierBase",
              "type": "uint256"
            },
            {
              "internalType": "uint256",
              "name": "bufferBase",
              "type": "uint256"
            },
            {
              "internalType": "UFixed18",
              "name": "multiplierCalldata",
              "type": "uint256"
            },
            {
              "internalType": "uint256",
              "name": "bufferCalldata",
              "type": "uint256"
            }
          ],
          "internalType": "struct IKept.KeepConfig",
          "name": "keepConfigWithdrawal_",
          "type": "tuple"
        }
      ],
      "name": "initialize",
      "outputs": [],
      "stateMutability": "nonpayable",
      "type": "function"
    },
    {
      "inputs": [
        {
          "internalType": "contract IInstance",
          "name": "instance",
          "type": "address"
        }
      ],
      "name": "instances",
      "outputs": [
        {
          "internalType": "bool",
          "name": "",
          "type": "bool"
        }
      ],
      "stateMutability": "view",
      "type": "function"
    },
    {
      "inputs": [],
      "name": "keepConfig",
      "outputs": [
        {
          "internalType": "UFixed18",
          "name": "multiplierBase",
          "type": "uint256"
        },
        {
          "internalType": "uint256",
          "name": "bufferBase",
          "type": "uint256"
        },
        {
          "internalType": "UFixed18",
          "name": "multiplierCalldata",
          "type": "uint256"
        },
        {
          "internalType": "uint256",
          "name": "bufferCalldata",
          "type": "uint256"
        }
      ],
      "stateMutability": "view",
      "type": "function"
    },
    {
      "inputs": [],
      "name": "keepConfigBuffered",
      "outputs": [
        {
          "internalType": "UFixed18",
          "name": "multiplierBase",
          "type": "uint256"
        },
        {
          "internalType": "uint256",
          "name": "bufferBase",
          "type": "uint256"
        },
        {
          "internalType": "UFixed18",
          "name": "multiplierCalldata",
          "type": "uint256"
        },
        {
          "internalType": "uint256",
          "name": "bufferCalldata",
          "type": "uint256"
        }
      ],
      "stateMutability": "view",
      "type": "function"
    },
    {
      "inputs": [],
      "name": "keepConfigWithdrawal",
      "outputs": [
        {
          "internalType": "UFixed18",
          "name": "multiplierBase",
          "type": "uint256"
        },
        {
          "internalType": "uint256",
          "name": "bufferBase",
          "type": "uint256"
        },
        {
          "internalType": "UFixed18",
          "name": "multiplierCalldata",
          "type": "uint256"
        },
        {
          "internalType": "uint256",
          "name": "bufferCalldata",
          "type": "uint256"
        }
      ],
      "stateMutability": "view",
      "type": "function"
    },
    {
      "inputs": [],
      "name": "keeperToken",
      "outputs": [
        {
          "internalType": "Token18",
          "name": "",
          "type": "address"
        }
      ],
      "stateMutability": "view",
      "type": "function"
    },
    {
      "inputs": [],
      "name": "marketFactory",
      "outputs": [
        {
          "internalType": "contract IMarketFactory",
          "name": "",
          "type": "address"
        }
      ],
      "stateMutability": "view",
      "type": "function"
    },
    {
      "inputs": [
        {
          "internalType": "address",
          "name": "",
          "type": "address"
        },
        {
          "internalType": "address",
          "name": "",
          "type": "address"
        }
      ],
      "name": "marketToGroup",
      "outputs": [
        {
          "internalType": "uint256",
          "name": "",
          "type": "uint256"
        }
      ],
      "stateMutability": "view",
      "type": "function"
    },
    {
      "inputs": [
        {
          "components": [
            {
              "internalType": "address",
              "name": "market",
              "type": "address"
            },
            {
              "internalType": "Fixed6",
              "name": "amount",
              "type": "int256"
            },
            {
              "components": [
                {
                  "internalType": "UFixed6",
                  "name": "maxFee",
                  "type": "uint256"
                },
                {
                  "components": [
                    {
                      "internalType": "address",
                      "name": "account",
                      "type": "address"
                    },
                    {
                      "internalType": "address",
                      "name": "signer",
                      "type": "address"
                    },
                    {
                      "internalType": "address",
                      "name": "domain",
                      "type": "address"
                    },
                    {
                      "internalType": "uint256",
                      "name": "nonce",
                      "type": "uint256"
                    },
                    {
                      "internalType": "uint256",
                      "name": "group",
                      "type": "uint256"
                    },
                    {
                      "internalType": "uint256",
                      "name": "expiry",
                      "type": "uint256"
                    }
                  ],
                  "internalType": "struct Common",
                  "name": "common",
                  "type": "tuple"
                }
              ],
              "internalType": "struct Action",
              "name": "action",
              "type": "tuple"
            }
          ],
          "internalType": "struct MarketTransfer",
          "name": "marketTransfer",
          "type": "tuple"
        },
        {
          "internalType": "bytes",
          "name": "signature",
          "type": "bytes"
        }
      ],
      "name": "marketTransferWithSignature",
      "outputs": [],
      "stateMutability": "nonpayable",
      "type": "function"
    },
    {
      "inputs": [],
      "name": "nonceManager",
      "outputs": [
        {
          "internalType": "contract IVerifierBase",
          "name": "",
          "type": "address"
        }
      ],
      "stateMutability": "view",
      "type": "function"
    },
    {
      "inputs": [],
      "name": "owner",
      "outputs": [
        {
          "internalType": "address",
          "name": "",
          "type": "address"
        }
      ],
      "stateMutability": "view",
      "type": "function"
    },
    {
      "inputs": [],
      "name": "pause",
      "outputs": [],
      "stateMutability": "nonpayable",
      "type": "function"
    },
    {
      "inputs": [],
      "name": "paused",
      "outputs": [
        {
          "internalType": "bool",
          "name": "",
          "type": "bool"
        }
      ],
      "stateMutability": "view",
      "type": "function"
    },
    {
      "inputs": [],
      "name": "pauser",
      "outputs": [
        {
          "internalType": "address",
          "name": "",
          "type": "address"
        }
      ],
      "stateMutability": "view",
      "type": "function"
    },
    {
      "inputs": [],
      "name": "pendingOwner",
      "outputs": [
        {
          "internalType": "address",
          "name": "",
          "type": "address"
        }
      ],
      "stateMutability": "view",
      "type": "function"
    },
    {
      "inputs": [
        {
          "internalType": "address",
          "name": "owner",
          "type": "address"
        },
        {
          "internalType": "uint256",
          "name": "group",
          "type": "uint256"
        },
        {
          "internalType": "address",
          "name": "market",
          "type": "address"
        }
      ],
      "name": "rebalanceConfigs",
      "outputs": [
        {
          "components": [
            {
              "internalType": "UFixed6",
              "name": "target",
              "type": "uint256"
            },
            {
              "internalType": "UFixed6",
              "name": "threshold",
              "type": "uint256"
            }
          ],
          "internalType": "struct RebalanceConfig",
          "name": "",
          "type": "tuple"
        }
      ],
      "stateMutability": "view",
      "type": "function"
    },
    {
      "inputs": [
        {
          "internalType": "address",
          "name": "owner",
          "type": "address"
        },
        {
          "internalType": "uint256",
          "name": "group",
          "type": "uint256"
        }
      ],
      "name": "rebalanceGroup",
      "outputs": [],
      "stateMutability": "nonpayable",
      "type": "function"
    },
    {
      "inputs": [
        {
          "internalType": "address",
          "name": "owner",
          "type": "address"
        },
        {
          "internalType": "uint256",
          "name": "group",
          "type": "uint256"
        }
      ],
      "name": "rebalanceGroupMarkets",
      "outputs": [
        {
          "internalType": "contract IMarket[]",
          "name": "markets",
          "type": "address[]"
        }
      ],
      "stateMutability": "view",
      "type": "function"
    },
    {
      "inputs": [
        {
          "components": [
            {
              "components": [
                {
                  "components": [
                    {
                      "internalType": "address",
                      "name": "accessor",
                      "type": "address"
                    },
                    {
                      "internalType": "bool",
                      "name": "approved",
                      "type": "bool"
                    }
                  ],
                  "internalType": "struct AccessUpdate[]",
                  "name": "operators",
                  "type": "tuple[]"
                },
                {
                  "components": [
                    {
                      "internalType": "address",
                      "name": "accessor",
                      "type": "address"
                    },
                    {
                      "internalType": "bool",
                      "name": "approved",
                      "type": "bool"
                    }
                  ],
                  "internalType": "struct AccessUpdate[]",
                  "name": "signers",
                  "type": "tuple[]"
                },
                {
                  "components": [
                    {
                      "internalType": "address",
                      "name": "account",
                      "type": "address"
                    },
                    {
                      "internalType": "address",
                      "name": "signer",
                      "type": "address"
                    },
                    {
                      "internalType": "address",
                      "name": "domain",
                      "type": "address"
                    },
                    {
                      "internalType": "uint256",
                      "name": "nonce",
                      "type": "uint256"
                    },
                    {
                      "internalType": "uint256",
                      "name": "group",
                      "type": "uint256"
                    },
                    {
                      "internalType": "uint256",
                      "name": "expiry",
                      "type": "uint256"
                    }
                  ],
                  "internalType": "struct Common",
                  "name": "common",
                  "type": "tuple"
                }
              ],
              "internalType": "struct AccessUpdateBatch",
              "name": "accessUpdateBatch",
              "type": "tuple"
            },
            {
              "components": [
                {
                  "internalType": "UFixed6",
                  "name": "maxFee",
                  "type": "uint256"
                },
                {
                  "components": [
                    {
                      "internalType": "address",
                      "name": "account",
                      "type": "address"
                    },
                    {
                      "internalType": "address",
                      "name": "signer",
                      "type": "address"
                    },
                    {
                      "internalType": "address",
                      "name": "domain",
                      "type": "address"
                    },
                    {
                      "internalType": "uint256",
                      "name": "nonce",
                      "type": "uint256"
                    },
                    {
                      "internalType": "uint256",
                      "name": "group",
                      "type": "uint256"
                    },
                    {
                      "internalType": "uint256",
                      "name": "expiry",
                      "type": "uint256"
                    }
                  ],
                  "internalType": "struct Common",
                  "name": "common",
                  "type": "tuple"
                }
              ],
              "internalType": "struct Action",
              "name": "action",
              "type": "tuple"
            }
          ],
          "internalType": "struct RelayedAccessUpdateBatch",
          "name": "message",
          "type": "tuple"
        },
        {
          "internalType": "bytes",
          "name": "outerSignature",
          "type": "bytes"
        },
        {
          "internalType": "bytes",
          "name": "innerSignature",
          "type": "bytes"
        }
      ],
      "name": "relayAccessUpdateBatch",
      "outputs": [],
      "stateMutability": "nonpayable",
      "type": "function"
    },
    {
      "inputs": [
        {
          "components": [
            {
              "components": [
                {
                  "internalType": "uint256",
                  "name": "group",
                  "type": "uint256"
                },
                {
                  "components": [
                    {
                      "internalType": "address",
                      "name": "account",
                      "type": "address"
                    },
                    {
                      "internalType": "address",
                      "name": "signer",
                      "type": "address"
                    },
                    {
                      "internalType": "address",
                      "name": "domain",
                      "type": "address"
                    },
                    {
                      "internalType": "uint256",
                      "name": "nonce",
                      "type": "uint256"
                    },
                    {
                      "internalType": "uint256",
                      "name": "group",
                      "type": "uint256"
                    },
                    {
                      "internalType": "uint256",
                      "name": "expiry",
                      "type": "uint256"
                    }
                  ],
                  "internalType": "struct Common",
                  "name": "common",
                  "type": "tuple"
                }
              ],
              "internalType": "struct GroupCancellation",
              "name": "groupCancellation",
              "type": "tuple"
            },
            {
              "components": [
                {
                  "internalType": "UFixed6",
                  "name": "maxFee",
                  "type": "uint256"
                },
                {
                  "components": [
                    {
                      "internalType": "address",
                      "name": "account",
                      "type": "address"
                    },
                    {
                      "internalType": "address",
                      "name": "signer",
                      "type": "address"
                    },
                    {
                      "internalType": "address",
                      "name": "domain",
                      "type": "address"
                    },
                    {
                      "internalType": "uint256",
                      "name": "nonce",
                      "type": "uint256"
                    },
                    {
                      "internalType": "uint256",
                      "name": "group",
                      "type": "uint256"
                    },
                    {
                      "internalType": "uint256",
                      "name": "expiry",
                      "type": "uint256"
                    }
                  ],
                  "internalType": "struct Common",
                  "name": "common",
                  "type": "tuple"
                }
              ],
              "internalType": "struct Action",
              "name": "action",
              "type": "tuple"
            }
          ],
          "internalType": "struct RelayedGroupCancellation",
          "name": "message",
          "type": "tuple"
        },
        {
          "internalType": "bytes",
          "name": "outerSignature",
          "type": "bytes"
        },
        {
          "internalType": "bytes",
          "name": "innerSignature",
          "type": "bytes"
        }
      ],
      "name": "relayGroupCancellation",
      "outputs": [],
      "stateMutability": "nonpayable",
      "type": "function"
    },
    {
      "inputs": [
        {
          "components": [
            {
              "components": [
                {
                  "internalType": "address",
                  "name": "account",
                  "type": "address"
                },
                {
                  "internalType": "address",
                  "name": "signer",
                  "type": "address"
                },
                {
                  "internalType": "address",
                  "name": "domain",
                  "type": "address"
                },
                {
                  "internalType": "uint256",
                  "name": "nonce",
                  "type": "uint256"
                },
                {
                  "internalType": "uint256",
                  "name": "group",
                  "type": "uint256"
                },
                {
                  "internalType": "uint256",
                  "name": "expiry",
                  "type": "uint256"
                }
              ],
              "internalType": "struct Common",
              "name": "nonceCancellation",
              "type": "tuple"
            },
            {
              "components": [
                {
                  "internalType": "UFixed6",
                  "name": "maxFee",
                  "type": "uint256"
                },
                {
                  "components": [
                    {
                      "internalType": "address",
                      "name": "account",
                      "type": "address"
                    },
                    {
                      "internalType": "address",
                      "name": "signer",
                      "type": "address"
                    },
                    {
                      "internalType": "address",
                      "name": "domain",
                      "type": "address"
                    },
                    {
                      "internalType": "uint256",
                      "name": "nonce",
                      "type": "uint256"
                    },
                    {
                      "internalType": "uint256",
                      "name": "group",
                      "type": "uint256"
                    },
                    {
                      "internalType": "uint256",
                      "name": "expiry",
                      "type": "uint256"
                    }
                  ],
                  "internalType": "struct Common",
                  "name": "common",
                  "type": "tuple"
                }
              ],
              "internalType": "struct Action",
              "name": "action",
              "type": "tuple"
            }
          ],
          "internalType": "struct RelayedNonceCancellation",
          "name": "message",
          "type": "tuple"
        },
        {
          "internalType": "bytes",
          "name": "outerSignature",
          "type": "bytes"
        },
        {
          "internalType": "bytes",
          "name": "innerSignature",
          "type": "bytes"
        }
      ],
      "name": "relayNonceCancellation",
      "outputs": [],
      "stateMutability": "nonpayable",
      "type": "function"
    },
    {
      "inputs": [
        {
          "components": [
            {
              "components": [
                {
                  "components": [
                    {
                      "internalType": "address",
                      "name": "accessor",
                      "type": "address"
                    },
                    {
                      "internalType": "bool",
                      "name": "approved",
                      "type": "bool"
                    }
                  ],
                  "internalType": "struct AccessUpdate",
                  "name": "access",
                  "type": "tuple"
                },
                {
                  "components": [
                    {
                      "internalType": "address",
                      "name": "account",
                      "type": "address"
                    },
                    {
                      "internalType": "address",
                      "name": "signer",
                      "type": "address"
                    },
                    {
                      "internalType": "address",
                      "name": "domain",
                      "type": "address"
                    },
                    {
                      "internalType": "uint256",
                      "name": "nonce",
                      "type": "uint256"
                    },
                    {
                      "internalType": "uint256",
                      "name": "group",
                      "type": "uint256"
                    },
                    {
                      "internalType": "uint256",
                      "name": "expiry",
                      "type": "uint256"
                    }
                  ],
                  "internalType": "struct Common",
                  "name": "common",
                  "type": "tuple"
                }
              ],
              "internalType": "struct OperatorUpdate",
              "name": "operatorUpdate",
              "type": "tuple"
            },
            {
              "components": [
                {
                  "internalType": "UFixed6",
                  "name": "maxFee",
                  "type": "uint256"
                },
                {
                  "components": [
                    {
                      "internalType": "address",
                      "name": "account",
                      "type": "address"
                    },
                    {
                      "internalType": "address",
                      "name": "signer",
                      "type": "address"
                    },
                    {
                      "internalType": "address",
                      "name": "domain",
                      "type": "address"
                    },
                    {
                      "internalType": "uint256",
                      "name": "nonce",
                      "type": "uint256"
                    },
                    {
                      "internalType": "uint256",
                      "name": "group",
                      "type": "uint256"
                    },
                    {
                      "internalType": "uint256",
                      "name": "expiry",
                      "type": "uint256"
                    }
                  ],
                  "internalType": "struct Common",
                  "name": "common",
                  "type": "tuple"
                }
              ],
              "internalType": "struct Action",
              "name": "action",
              "type": "tuple"
            }
          ],
          "internalType": "struct RelayedOperatorUpdate",
          "name": "message",
          "type": "tuple"
        },
        {
          "internalType": "bytes",
          "name": "outerSignature",
          "type": "bytes"
        },
        {
          "internalType": "bytes",
          "name": "innerSignature",
          "type": "bytes"
        }
      ],
      "name": "relayOperatorUpdate",
      "outputs": [],
      "stateMutability": "nonpayable",
      "type": "function"
    },
    {
      "inputs": [
        {
          "components": [
            {
              "components": [
                {
                  "components": [
                    {
                      "internalType": "address",
                      "name": "accessor",
                      "type": "address"
                    },
                    {
                      "internalType": "bool",
                      "name": "approved",
                      "type": "bool"
                    }
                  ],
                  "internalType": "struct AccessUpdate",
                  "name": "access",
                  "type": "tuple"
                },
                {
                  "components": [
                    {
                      "internalType": "address",
                      "name": "account",
                      "type": "address"
                    },
                    {
                      "internalType": "address",
                      "name": "signer",
                      "type": "address"
                    },
                    {
                      "internalType": "address",
                      "name": "domain",
                      "type": "address"
                    },
                    {
                      "internalType": "uint256",
                      "name": "nonce",
                      "type": "uint256"
                    },
                    {
                      "internalType": "uint256",
                      "name": "group",
                      "type": "uint256"
                    },
                    {
                      "internalType": "uint256",
                      "name": "expiry",
                      "type": "uint256"
                    }
                  ],
                  "internalType": "struct Common",
                  "name": "common",
                  "type": "tuple"
                }
              ],
              "internalType": "struct SignerUpdate",
              "name": "signerUpdate",
              "type": "tuple"
            },
            {
              "components": [
                {
                  "internalType": "UFixed6",
                  "name": "maxFee",
                  "type": "uint256"
                },
                {
                  "components": [
                    {
                      "internalType": "address",
                      "name": "account",
                      "type": "address"
                    },
                    {
                      "internalType": "address",
                      "name": "signer",
                      "type": "address"
                    },
                    {
                      "internalType": "address",
                      "name": "domain",
                      "type": "address"
                    },
                    {
                      "internalType": "uint256",
                      "name": "nonce",
                      "type": "uint256"
                    },
                    {
                      "internalType": "uint256",
                      "name": "group",
                      "type": "uint256"
                    },
                    {
                      "internalType": "uint256",
                      "name": "expiry",
                      "type": "uint256"
                    }
                  ],
                  "internalType": "struct Common",
                  "name": "common",
                  "type": "tuple"
                }
              ],
              "internalType": "struct Action",
              "name": "action",
              "type": "tuple"
            }
          ],
          "internalType": "struct RelayedSignerUpdate",
          "name": "message",
          "type": "tuple"
        },
        {
          "internalType": "bytes",
          "name": "outerSignature",
          "type": "bytes"
        },
        {
          "internalType": "bytes",
          "name": "innerSignature",
          "type": "bytes"
        }
      ],
      "name": "relaySignerUpdate",
      "outputs": [],
      "stateMutability": "nonpayable",
      "type": "function"
    },
    {
      "inputs": [
        {
          "components": [
            {
              "components": [
                {
                  "internalType": "Fixed6",
                  "name": "amount",
                  "type": "int256"
                },
                {
                  "internalType": "address",
                  "name": "referrer",
                  "type": "address"
                },
                {
                  "components": [
                    {
                      "internalType": "address",
                      "name": "account",
                      "type": "address"
                    },
                    {
                      "internalType": "address",
                      "name": "signer",
                      "type": "address"
                    },
                    {
                      "internalType": "address",
                      "name": "domain",
                      "type": "address"
                    },
                    {
                      "internalType": "uint256",
                      "name": "nonce",
                      "type": "uint256"
                    },
                    {
                      "internalType": "uint256",
                      "name": "group",
                      "type": "uint256"
                    },
                    {
                      "internalType": "uint256",
                      "name": "expiry",
                      "type": "uint256"
                    }
                  ],
                  "internalType": "struct Common",
                  "name": "common",
                  "type": "tuple"
                }
              ],
              "internalType": "struct Take",
              "name": "take",
              "type": "tuple"
            },
            {
              "components": [
                {
                  "internalType": "UFixed6",
                  "name": "maxFee",
                  "type": "uint256"
                },
                {
                  "components": [
                    {
                      "internalType": "address",
                      "name": "account",
                      "type": "address"
                    },
                    {
                      "internalType": "address",
                      "name": "signer",
                      "type": "address"
                    },
                    {
                      "internalType": "address",
                      "name": "domain",
                      "type": "address"
                    },
                    {
                      "internalType": "uint256",
                      "name": "nonce",
                      "type": "uint256"
                    },
                    {
                      "internalType": "uint256",
                      "name": "group",
                      "type": "uint256"
                    },
                    {
                      "internalType": "uint256",
                      "name": "expiry",
                      "type": "uint256"
                    }
                  ],
                  "internalType": "struct Common",
                  "name": "common",
                  "type": "tuple"
                }
              ],
              "internalType": "struct Action",
              "name": "action",
              "type": "tuple"
            }
          ],
          "internalType": "struct RelayedTake",
          "name": "message",
          "type": "tuple"
        },
        {
          "internalType": "bytes",
          "name": "outerSignature",
          "type": "bytes"
        },
        {
          "internalType": "bytes",
          "name": "innerSignature",
          "type": "bytes"
        }
      ],
      "name": "relayTake",
      "outputs": [],
      "stateMutability": "nonpayable",
      "type": "function"
    },
    {
      "inputs": [],
      "name": "unpause",
      "outputs": [],
      "stateMutability": "nonpayable",
      "type": "function"
    },
    {
      "inputs": [
        {
          "internalType": "address",
          "name": "newPauser",
          "type": "address"
        }
      ],
      "name": "updatePauser",
      "outputs": [],
      "stateMutability": "nonpayable",
      "type": "function"
    },
    {
      "inputs": [
        {
          "internalType": "address",
          "name": "newPendingOwner",
          "type": "address"
        }
      ],
      "name": "updatePendingOwner",
      "outputs": [],
      "stateMutability": "nonpayable",
      "type": "function"
    },
    {
      "inputs": [],
      "name": "verifier",
      "outputs": [
        {
          "internalType": "contract IAccountVerifier",
          "name": "",
          "type": "address"
        }
      ],
      "stateMutability": "view",
      "type": "function"
    },
    {
      "inputs": [
        {
          "components": [
            {
              "internalType": "UFixed6",
              "name": "amount",
              "type": "uint256"
            },
            {
              "internalType": "bool",
              "name": "unwrap",
              "type": "bool"
            },
            {
              "components": [
                {
                  "internalType": "UFixed6",
                  "name": "maxFee",
                  "type": "uint256"
                },
                {
                  "components": [
                    {
                      "internalType": "address",
                      "name": "account",
                      "type": "address"
                    },
                    {
                      "internalType": "address",
                      "name": "signer",
                      "type": "address"
                    },
                    {
                      "internalType": "address",
                      "name": "domain",
                      "type": "address"
                    },
                    {
                      "internalType": "uint256",
                      "name": "nonce",
                      "type": "uint256"
                    },
                    {
                      "internalType": "uint256",
                      "name": "group",
                      "type": "uint256"
                    },
                    {
                      "internalType": "uint256",
                      "name": "expiry",
                      "type": "uint256"
                    }
                  ],
                  "internalType": "struct Common",
                  "name": "common",
                  "type": "tuple"
                }
              ],
              "internalType": "struct Action",
              "name": "action",
              "type": "tuple"
            }
          ],
          "internalType": "struct Withdrawal",
          "name": "withdrawal",
          "type": "tuple"
        },
        {
          "internalType": "bytes",
          "name": "signature",
          "type": "bytes"
        }
      ],
      "name": "withdrawWithSignature",
      "outputs": [],
      "stateMutability": "nonpayable",
      "type": "function"
    }
  ],
  "transactionHash": "0x7a90db96afedc6df5e82c071e8d4a4d8fb4b511f4b2efdb9ca32db33539a1dbd",
  "args": [
    "0x443cef645e29aE12C053f358b2875DF0B9A43166",
    "0xFfB33F838096cF3C3c7dD21c1F941BB2705248E1",
    "0x7AAF9184EE1299226d46fFEB36595Bb8D0EdF753"
  ],
  "numDeployments": 1,
  "solcInputHash": "fc0753c3b3477aa8a82c5d495249c9e0",
  "bytecode": "0x61012060408181523462000184576060826200553d8038038091620000258285620001e6565b83398101031262000184576200003b826200021e565b60208084015191936001600160a01b0390818416840362000184578401519481861686036200018457806080521683516389a3027160e01b81528281600481855afa908115620001dc579083915f916200019a575b5060a052845163a2060bcf60e01b815291829060049082905afa91821562000190575f926200014e575b505060c05260e052610100918252516153099182620002348339608051826127fd015260a05182612594015260c051828181610a510152818161108001528181611b8e0152818161246e01528181612f81015261418e015260e051828181611af2015281816123b40152818161294901528181612cbc015261312101525181818161026a015281816119e701526120810152f35b90809250813d831162000188575b620001688183620001e6565b8101031262000184576200017c906200021e565b5f80620000ba565b5f80fd5b503d6200015c565b84513d5f823e3d90fd5b82819392503d8311620001d4575b620001b48183620001e6565b810103126200018457600491620001cc84926200021e565b909262000090565b503d620001a8565b85513d5f823e3d90fd5b601f909101601f19168101906001600160401b038211908210176200020a57604052565b634e487b7160e01b5f52604160045260245ffd5b51906001600160a01b0382168203620001845756fe608080604052600436101562000013575f80fd5b5f905f3560e01c908163032bb443146200328c5750806303b1faf3146200315057806306ae70951462003109578063132d4eb11462002e5e5780631af3a6e61462002dc85780632b7ac3f31462002d9f57806332878cc91462002d6757806332cd1a9a1462002b235780633f4ba83a1462002a8f57806345065f0f1462002a7157806351b4c18d1462002a2a578063554bab3c14620029af578063583dec3214620028a75780635872fe45146200288357806358c81fcb146200282c5780635c60da1b14620027e55780635c975abb14620027b65780635d33db3c14620026f25780637fefe80914620026c0578063825ee62314620026a25780638456cb5914620025f5578063872053a614620025c357806389a30271146200257c5780638c29933e146200250d5780638da5cb5b14620024d55780639fd0506d146200249d578063a2060bcf1462002456578063b20caf45146200241e578063b3684e13146200228f578063b51cf0a9146200220b578063b5ee695514620021a2578063b7e8ef401462002170578063b8a5e3cd146200213a578063ba9a91a5146200210f578063c402f8601462001ee8578063c4d66de81462001dfe578063cdb02a5f1462001c14578063d3beb2981462001aa7578063d55cde1f1462001853578063db06b6ae14620011b8578063db904902146200119a578063e201ce971462000edd578063e30c39781462000ea5578063ebbc49651462000dfa578063f2842ace146200067a578063f72e323c146200029c5763fddc205f1462000253575f80fd5b3462000299578060031936011262000299576040517f00000000000000000000000000000000000000000000000000000000000000006001600160a01b03168152602090f35b80fd5b5034620002995760403660031901126200029957620002ba6200334c565b81602480359060405160209080620002d6858885840162003705565b0393620002ec601f199586810184528362003498565b60018060a01b0392838816958688526004825260408820838952825260408820549887895260039485845260408a20858b5284526200035560408b2054936200033584620039a3565b620003486040519e8f9289840162003705565b039081018d528c62003498565b5a8a5b8a8c5287865260408c20878d52865260408c2054811015620004055788620003928260408f8f81528c8b528181208c82528b5220620033f2565b9054908a1b1c16803b1562000401578c80918c8e6040519485938492636a256b2960e01b845260048401525af1908115620003f6578d91620003da575b505060010162000358565b620003e5906200341c565b620003f2578b5f620003cf565b8b80fd5b6040513d8f823e3d90fd5b8c80fd5b50919892999a9097506200041a858a62003adc565b9a91501562000668576200042f8891620039a3565b16978b5b8a518110156200050257848d528786528c8760408220915286528c896200045e8360408420620033f2565b9054908b1b1c168c8262000473858362003ac7565b511262000487575b50505060010162000433565b83620004939162003ac7565b51908c3b15620004fe57620004c3918d84928360405180968195829463e1638ba360e01b84526004840162003705565b03925af18015620004f357620004db575b8c6200047b565b620004e6906200341c565b62000401578c8e620004d4565b6040513d84823e3d90fd5b8280fd5b509091998b5b8a51811015620005c857848d528786528c8760408220915286528c89620005338360408420620033f2565b9054908b1b1c168c8262000548858362003ac7565b51136200055c575b50505060010162000508565b83620005689162003ac7565b51908c3b15620004fe5762000598918d84928360405180968195829463e1638ba360e01b84526004840162003705565b03925af18015620004f357620005b0575b8c62000550565b620005bb906200341c565b62000401578c8e620005a9565b50938b94620006038c8862000653977fd58ec24dc80af351d45ae5fa8586232e0013343355190b0ef9b77bd8dbb68d718a80a35a9062003720565b9181156200065657600954916200061d81600a546200377a565b6200062e600b5492600c546200377a565b92604051946200063e8662003444565b85528401526040830152606082015262003ecd565b80f35b5050620006626200372e565b62003ecd565b6040516301b8e5e560e71b8152600490fd5b503462000299576200068c366200330a565b91620006a56200069f60608301620034d3565b620039a3565b9260405193620006d285620006c36040860135846020840162003705565b03601f19810187528662003498565b604051620006fa81620006eb8588886020850162003e8e565b03601f19810183528262003498565b60405190620007098262003444565b600d5491828152600e54806020830152600f54604083015260105460608301525f93156001171562000c8a5762000755670de0b6b3a7640000916200074f48916200375c565b6200377a565b04916200078a602060606040850151940151926040518093819263de26c4a160e01b835284600484015260248301906200449e565b0381600f602160991b015afa90811562000bf7575f9162000dc2575b506040516318b30b2360e31b8152602081600481600f602160991b015afa90811562000bf7575f9162000d8a575b506001600160fc1b038116810362000c8a5760405163519b4bd360e01b815290602082600481600f602160991b015afa90811562000bf7575f9162000d4d575b62000823925060041b6200377a565b60405163346aee5360e11b815290602082600481600f602160991b015afa91821562000bf7575f9262000d13575b506040516303e0818560e61b8152602081600481600f602160991b015afa90811562000bf7575f9162000cd8575b50620008909062000897936200377a565b9062004786565b60405163313ce56760e01b81529092602082600481600f602160991b015afa91821562000bf7575f9262000c9e575b50604d821162000c8a57600a82900a6001600160fc1b038116900362000c8a5762000890670de0b6b3a76400006200091f81976200074f6200091862000927996200074f98600a0a60041b90620047a9565b976200375c565b04916200375c565b0462000934818362004786565b5f805160206200511483398151915254604051633fabe5a360e21b81529060a090829060049082906001600160a01b03165afa90811562000bf7575f9162000c28575b50620009886305f5e10091620045db565b05905f821262000c0f57670de0b6b3a764000091620009a7916200377a565b0460408980518101031262000c02576020890151986001600160a01b038a168a0362000c02576040620009dc9101516200476b565b8082101562000c065750915b6001600160a01b0389163b1562000c0257604051630b220c3960e01b8152600481018490525f602482018190529099908a604481836001600160a01b0386165af1998a1562000bf7578b9a62000be1575b5062000a7790849030906001600160a01b03908116907f000000000000000000000000000000000000000000000000000000000000000016620047b4565b5f80516020620052548339815191525460405163a9059cbb60e01b602082015262000acf9162000ac08262000ab188336024840162003705565b03601f19810184528362003498565b6001600160a01b031662004901565b6040519380855260208501526040840152606083015260808201525f80516020620051b483398151915260a03392a284546001600160a01b0391821694911691823b1562000bdd5762000b3d9286928360405180968195829463cb5cd50960e01b84528a6004850162003e8e565b03925af190811562000bd257849162000bb6575b5050602081013580151580910362000bb157823b1562000bb15760448492836040519586948593631c683a1b60e11b855235600485015260248401525af18015620004f35762000b9e5750f35b62000ba9906200341c565b620002995780f35b505050fd5b62000bc1906200341c565b62000bce57825f62000b51565b5050fd5b6040513d86823e3d90fd5b8580fd5b62000bee9195506200341c565b5f938362000a39565b6040513d5f823e3d90fd5b5f80fd5b905091620009e8565b60405163280f944f60e11b815260048101839052602490fd5b905060a0813d60a01162000c81575b8162000c4660a0938362003498565b8101031262000c0257620009888162000c646305f5e1009362004794565b5062000c7860806020830151920162004794565b50915062000977565b3d915062000c37565b634e487b7160e01b5f52601160045260245ffd5b9091506020813d60201162000ccf575b8162000cbd6020938362003498565b8101031262000c025751905f620008c6565b3d915062000cae565b90506020813d60201162000d0a575b8162000cf66020938362003498565b8101031262000c025751620008976200087f565b3d915062000ce7565b9091506020813d60201162000d44575b8162000d326020938362003498565b8101031262000c025751905f62000851565b3d915062000d23565b90506020823d60201162000d81575b8162000d6b6020938362003498565b8101031262000c02576200082391519062000814565b3d915062000d5c565b90506020813d60201162000db9575b8162000da86020938362003498565b8101031262000c0257515f620007d4565b3d915062000d99565b90506020813d60201162000df1575b8162000de06020938362003498565b8101031262000c0257515f620007a6565b3d915062000dd1565b503462000299578060031936011262000299575f805160206200529483398151915280546001600160a01b038116903382900362000e8d575f805160206200515483398151915255805f80516020620051d48339815191525f80a2330362000e7557819055805f80516020620052b48339815191528180a280f35b6040516399bf635960e01b8152336004820152602490fd5b604051630d0d5e1b60e41b8152336004820152602490fd5b503462000299578060031936011262000299575f8051602062005294833981519152546040516001600160a01b039091168152602090f35b503462000299576101c0366003190112620002995762000efc6200334c565b6024356001600160a01b0381168103620004fe57608036604319011262000c02576040519162000f2c8362003444565b60443583526064356020840152608435604084015260a435606084015260803660c319011262000c025760405162000f648162003444565b60c435815260e435602082015261010435604082015261012435606082015260803661014319011262000c02576040519262000fa08462003444565b6101443584526101643560208501526101843560408501526101a435606085015260015f8051602062005194833981519152541015620011815760015f80516020620051948339815191525560015f805160206200513483398151915255303b15158062001179575b6200114557303b15158062001171575b62001145575f805160206200515483398151915280546001600160a01b03166200115f57339055335f80516020620051d48339815191525f80a2303b15158062001157575b62001145576001600160a01b039081165f8051602062005114833981519152557f00000000000000000000000000000000000000000000000000000000000000005f80516020620052548339815191525585546001600160a01b03191692169190911784558251600555602080840151600655604080850151600755606094850151600855825160095582820151600a5582810151600b5591840151600c558251600d5582810151600e5582820151600f5591909201516010555f80516020620051348339815191528390559051600181525f80516020620051748339815191529190a180f35b60405163b9a621e160e01b8152600490fd5b505f6200105e565b60405163721deea760e11b8152600490fd5b508562001019565b508562001009565b604051631edb9c6d60e11b815260016004820152602490fd5b50346200029957806003193601126200029957602060405160108152f35b503462000299576003196040368201126200184f576001600160401b03906004358210620004fe5761016090600435360301126200184f576024359081116200184f576200120f62001274913690600401620032da565b9060a460043501846200122282620034d3565b9362001281604051956200125c876200124685896004356004016020850162003d6b565b03916200069f601f19938481018b528a62003498565b60405198899160846004350135906020840162003705565b0390810188528762003498565b5a9360018060a01b0383541691823b156200184b57620012c19284928360405180968195829463bbcb574160e01b84526004356004016004850162003d6b565b03925af18015620004f3576200182f575b5050620012df90620034d3565b91600435600401351580156200181e575b6200180c5760046200130a6024823501823583016200480f565b905011620017fa57845b6001600160a01b03841686526003602081815260408089206004803501358a52909152872054821015620013db5790600191828060a01b03861688528060205260408820600435600401358952602052620013738260408a20620033f2565b848060a09493941b039254911b1c16828060a01b03861688525f838060205260408a20600435600401358b5260205260408a20838352602052604082208281550155828060a01b0386168852600260205260408820905f526020525f60408120550162001314565b5050929060018060a01b03831685526003602052604085206004356004013586526020526040852080549086815581620017da575b5050849185925b6200142d6024600435016004356004016200480f565b905084101562001712576001600160a01b0385168752600260205260408720846200147f6200147962001469600480356024810191016200480f565b6001600160a01b03949162004847565b620034d3565b165f5260205260405f205480620016d457506001600160a01b038516875260026020526040872084620014c36200147962001469600480356024810191016200480f565b165f526020526004356004013560405f2055620014f784620014f060446004350160043560040162004858565b9062004890565b60018060a01b038616885260016020526040882060043560040135895260205260408820856200153a62001479620014696024600435016004356004016200480f565b165f526020526001602060405f209280358455013591015560018060a01b038516875260036020526040872060043560040135885260205260408720846200159562001479620014696024600435016004356004016200480f565b8254911691600160401b821015620016c05791620015c08262001627946001809795018155620033f2565b819291549060031b91821b91868060a01b03901b1916179055828060a01b0387168952600460205260408920600435600401358a526020526064600435013560408a20556200161f86620014f060446004350160043560040162004858565b359062004786565b936200164e6200147982620016476024600435016004356004016200480f565b9062004847565b6200166982620014f060446004350160043560040162004858565b906020604051928035845201356020830152838060a01b03169060043560040135907f499f2d584337dd47a4e71a8a4c57b77ad0058bb1a360335a855979a5ca3061d46040868060a01b038b1692a4019262001417565b634e487b7160e01b8a52604160045260248afd5b60449085620016f662001479620014696024600435016004356004016200480f565b16906040519163710a325d60e11b835260048301526024820152fd5b9093919492506200172e6024600435016004356004016200480f565b905015159081620017c2575b50620017b0576200065393620017a691620017606024600435016004356004016200480f565b604051908152600480350135926001600160a01b031691507f18fea070ebed40821f9c45ae1f8c875c49b031e4ff3b701b4772ade527f5108890602090a35a9062003720565b620006626200372e565b604051631916028760e21b8152600490fd5b60019150620017d190620048cf565b14155f6200173a565b865260208620908101905b8181101562001410575f8155600101620017e5565b6040516376674fed60e11b8152600490fd5b6040516350b5d3f960e11b8152600490fd5b5060086004356004013511620012f0565b6200183a906200341c565b6200184757845f620012d2565b8480fd5b8380fd5b5080fd5b5034620002995736600319016101e081126200184f576101a01362000299576001600160401b036101a435818111620004fe5762001896903690600401620032da565b916101c4359081116200184b57620018b3903690600401620032da565b90919060e4356001600160a01b038116900362000c02576200195792859160405193620018e360208601620034e8565b60c43560e0860152620018fa6101008601620035f9565b6101e06101c08601526200193285620006c36200191d61020083018b86620036b7565b828103601f19016101e08401528587620036b7565b620019666200194360e435620039a3565b60405197889160c435906020840162003705565b03601f19810188528762003498565b5a9660018060a01b0385541691823b1562000bdd57620019cf9286928360405180968195829463f5ba0b1d60e01b8452620019a460048501620034e8565b60c43560c4850152620019ba60e48501620035f9565b6101c06101a48501526101c4840191620036b7565b03925af190811562000bd257849162001a8f575b50507f00000000000000000000000000000000000000000000000000000000000000006001600160a01b031691823b156200184b5762001a5392849283604051809681958294631d0a82e560e11b845262001a4160048501620034e8565b60e060c485015260e4840191620036b7565b03925af18015620004f35762001a77575b5050620017a662000653935a9062003720565b62001a82906200341c565b6200184b57835f62001a64565b62001a9a906200341c565b620004fe57825f620019e3565b503462000299576040366003190112620002995762001ac56200334c565b60405163131bac4760e11b81526001600160a01b03828116600483015233602483015291906020816044817f000000000000000000000000000000000000000000000000000000000000000087165afa90811562000bd257849162001bde575b501562001bcc5762001b3790620039a3565b9062001b456024356200476b565b9083818416803b156200184f57818091604460405180948193630b220c3960e01b83528960048401528160248401525af18015620004f35762001bb4575b5050620006539233917f000000000000000000000000000000000000000000000000000000000000000016620047b4565b62001bbf906200341c565b6200184b57835f62001b83565b604051630c8e427960e11b8152600490fd5b62001c05915060203d60201162001c0c575b62001bfc818362003498565b81019062003d51565b5f62001b25565b503d62001bf0565b503462000299578062001cda62001c9f62001c2f3662003378565b92969362001ce962001cc362001c4b60408496959601620034d3565b6200069f8b62001cb46040519b8c9262001c69602085018a62003d1e565b61010089013561012085015262001c8961014085016101208b0162003657565b61022061020085015289610240850191620036b7565b828103601f19016102208401528a8a620036b7565b03601f1981018b528a62003498565b604051988991610100850135906020840162003705565b03601f19810189528862003498565b5a85549098906001600160a01b0316803b1562001dfa5760405163428a9aed60e11b8152918791839182908490829062001d639062001d2c600484018b62003d1e565b6101008a01356101048401526101249a62001d4e8c85016101208d0162003657565b6102006101e4850152610204840191620036b7565b03925af190811562001def57869162001dd7575b506001600160a01b03905062001d9060808301620034d3565b1690813b1562000bdd578562001dc59162001a538296604051988997889687956338648b1f60e21b8752600487019062003d1e565b610120610104860152840191620036b7565b62001de2906200341c565b6200184757845f62001d77565b6040513d88823e3d90fd5b8680fd5b503462000299576020366003190112620002995762001e1c6200334c565b5f80516020620051948339815191526001815410156200118157600190555f805160206200513483398151915260018155303b15158062001ee0575b6200114557303b15158062001ed8575b62001145575f8051602062005154833981519152805490926001600160a01b039182166200115f578493339055335f80516020620051d48339815191525f80a283546001600160a01b031916911617825555604051600181525f805160206200517483398151915290602090a180f35b508262001e68565b508262001e58565b50346200029957366003190161020081126200184f576101c01362000299576001600160401b036101c435818111620004fe5762001f2b903690600401620032da565b916101e4359081116200184b5762001f48903690600401620032da565b909190610104356001600160a01b038116900362000c02576200195792859160405193600435602086015262001f816040860162003541565b60e43561010086015262001f9961012086016200359a565b6102006101e086015262001fd185620006c362001fbc61022083018b86620036b7565b828103601f19016102008401528587620036b7565b62001ff762001fe361010435620039a3565b60405197889160e435906020840162003705565b5a9660018060a01b0385541691823b1562000bdd57620020699286928360405180968195829463106941a960e31b845260043560048501526200203d6024850162003541565b60e43560e48501526200205461010485016200359a565b6101e06101c48501526101e4840191620036b7565b03925af190811562000bd2578491620020f7575b50507f00000000000000000000000000000000000000000000000000000000000000006001600160a01b031691823b156200184b5762001a539284928360405180968195829463715a86c560e01b84526004356004850152620020e36024850162003541565b61010060e4850152610104840191620036b7565b62002102906200341c565b620004fe57825f6200207d565b5034620002995780600319360112620002995760206040515f80516020620052348339815191528152f35b50346200029957806003193601126200029957600d54600e54906200216c600f546010549060405194859485620033d6565b0390f35b50346200029957806003193601126200029957600954600a54906200216c600b54600c549060405194859485620033d6565b5034620002995760203660031901126200029957620021c06200334c565b5f8051602062005154833981519152546001600160a01b039190339083160362000e7557805f805160206200529483398151915255165f80516020620052b48339815191528280a280f35b5034620002995760403660031901126200029957620022376200222d6200334c565b6024359062003adc565b90919260405193849360608501918552602090151560208601526060604086015283518092526020608086019401925b8281106200227757505050500390f35b83518552869550938101939281019260010162002267565b503462000299578062002338620022a63662003378565b83620022bc6101208794959799969901620034d3565b956200234560405197620022d460208a01876200392e565b62002321610220916200069f8b62002314620022ff61020099878b85015289610240850191620036b7565b601f19968784830301908401528a8d620036b7565b038481018d528c62003498565b6040519a8b91610100890135906020840162003705565b039081018a528962003498565b5a865490996001600160a01b039390918416803b156200241a576200238a89886200239c82966040519889978896879563de4030ed60e01b875260048701906200392e565b6101e4850152610204840191620036b7565b03925af190811562001def57869162002402575b50507f000000000000000000000000000000000000000000000000000000000000000016803b15620018475762001a53938580946040519687958694859363c655a23d60e01b8552600485016200396c565b6200240d906200341c565b6200184757845f620023b0565b8880fd5b503462000299578060031936011262000299575f8051602062005114833981519152546040516001600160a01b039091168152602090f35b503462000299578060031936011262000299576040517f00000000000000000000000000000000000000000000000000000000000000006001600160a01b03168152602090f35b503462000299578060031936011262000299575f80516020620051f4833981519152546040516001600160a01b039091168152602090f35b503462000299578060031936011262000299575f8051602062005154833981519152546040516001600160a01b039091168152602090f35b50346200029957606036600319011262000299576200252b6200334c565b6001600160a01b03908116825260036020908152604080842060243585529091528220805460443593908410156200029957506020926200256c91620033f2565b90549060031b1c16604051908152f35b503462000299578060031936011262000299576040517f00000000000000000000000000000000000000000000000000000000000000006001600160a01b03168152602090f35b50346200029957806003193601126200029957600554600654906200216c6007546008549060405194859485620033d6565b503462000299578060031936011262000299575f80516020620051f483398151915254336001600160a01b039182161415908162002685575b506200266d5760015f8051602062005274833981519152557f9e87fac88ff661f02d44f95383c817fece4bce600a3dab7a54406878b965e7528180a180f35b604051637bcc3d4960e11b8152336004820152602490fd5b90505f805160206200515483398151915254163314155f6200262e565b50346200029957806003193601126200029957602060405160088152f35b503462000299578060031936011262000299576020620026e033620044e9565b6040516001600160a01b039091168152f35b5034620002995760403660031901126200029957620027106200334c565b9060018060a01b0380921681526020906003825260408120602435825282526040812090604051808484549182815201908194845285842090845b8181106200279f57505050816200276491038262003498565b6040519380850191818652518092526040850193925b828110620027885785850386f35b83518716855293810193928101926001016200277a565b82548916845292870192600192830192016200274b565b5034620002995780600319360112620002995760205f8051602062005274833981519152546040519015158152f35b503462000299578060031936011262000299576040517f00000000000000000000000000000000000000000000000000000000000000006001600160a01b03168152602090f35b50346200029957604036600319011262000299576200284a6200334c565b6024356001600160a01b03818116939184900362000c0257604092168152600260205220905f52602052602060405f2054604051908152f35b50346200029957602036600319011262000299576020620026e06200069f6200334c565b503462000299578062002338620028be3662003378565b83620028d46101208794959799969901620034d3565b95620028ec60405197620022d460208a01876200392e565b5a865490996001600160a01b039390918416803b156200241a576200238a898862002931829660405198899788968795631ea190c560e31b875260048701906200392e565b03925af190811562001def57869162002997575b50507f000000000000000000000000000000000000000000000000000000000000000016803b15620018475762001a53938580946040519687958694859363aac3454b60e01b8552600485016200396c565b620029a2906200341c565b6200184757845f62002945565b5034620002995760203660031901126200029957620029cd6200334c565b5f8051602062005154833981519152546001600160a01b039190339083160362000e7557805f80516020620051f483398151915255167fa4336c0cb1e245b95ad204faed7e940d6dc999684fd8b5e1ff597a0c4efca8ab8280a280f35b50346200029957604036600319011262000299576020906040906001600160a01b0362002a566200334c565b16815260048352818120602435825283522054604051908152f35b50346200029957806003193601126200029957602060405160048152f35b503462000299578060031936011262000299575f80516020620051f483398151915254336001600160a01b039182161415908162002b06575b506200266d57805f8051602062005274833981519152557fa45f47fdea8a1efdd9029a5691c7f759c32b7c698632b563573e155625d169338180a180f35b90505f805160206200515483398151915254163314155f62002ac8565b503462000299576003196060368201126200184f576001600160401b0390600435908282116200184b578382600401918336039061010081830112620004fe576024358681116200184b5762002b7e903690600401620032da565b959096604435908111620018475762002b9c903690600401620032da565b95909262002bad60448401620034d3565b6040516060602082015297908990898c62002bcc6080830188620038e9565b601f199d8e84830301604085015262002be592620036b7565b8c82820301606083015262002bfc90858a620036b7565b038b81018b5262002c0e908b62003498565b62002c1990620039a3565b99604051809b6024880135602083019162002c349262003705565b039081018b5262002c46908b62003498565b5a8854909b6001600160a01b03929091831690813b1562002d63578a9162002c93838962002ca460405197889687958694630644642f60e21b8652604060048701526044860190620038e9565b918d858403016024860152620036b7565b03925af190811562002d5857899162002d3c575b50507f000000000000000000000000000000000000000000000000000000000000000016923595610102190186121562001dfa57823b1562001dfa5762002d2c9562001a5360049389979388946040519a8b998a98899763b557198f60e01b89526040828a01526044890192010162003894565b92858403016024860152620036b7565b62002d47906200341c565b62002d5457875f62002cb8565b8780fd5b6040513d8b823e3d90fd5b8a80fd5b503462000299578060031936011262000299575f8051602062005254833981519152546040516001600160a01b039091168152602090f35b50346200029957806003193601126200029957546040516001600160a01b039091168152602090f35b503462000299576060366003190112620002995762002de66200334c565b6044356001600160a01b038181169182900362000c0257604093849182519462002e108662003460565b82865282602080970152168152600184528181206024358252845220905f528152815f2090825162002e428162003460565b8160018454948584520154910190815283519283525190820152f35b5034620002995762002e70366200330a565b606083929493016200069f858462002e8884620034d3565b9462002ee46040519662002ebf8862002ea98560209e8f9d8e85016200378e565b03916200069f601f19938481018c528b62003498565b62002ed76040519a8b92604088013591840162003705565b0390810189528862003498565b5a946001600160a01b0394859162002efd9190620034d3565b16928489541690813b15620031055791899162002f33938360405180968195829463c4786d9b60e01b84528a600485016200378e565b03925af18015620030fa57908891620030e2575b50508262002f5582620034d3565b604051637e062a3560e11b81529116938982600481885afa91821562002d58578992620030a3575b50807f0000000000000000000000000000000000000000000000000000000000000000169116036200308a57813b1562001dfa57918691888362002fdc956040519687958694859363e1638ba360e01b85520135906004840162003705565b03925af180156200307f5790859162003067575b505062002fff905a9062003720565b600954600a54808004600114811517156200305357600b54600c5491828004600114831517156200303f57620006539798604051946200063e8662003444565b634e487b7160e01b88526011600452602488fd5b634e487b7160e01b86526011600452602486fd5b62003072906200341c565b6200184b57835f62002ff0565b6040513d87823e3d90fd5b60405163950cd07160e01b815260048101849052602490fd5b9091508981813d8311620030da575b620030be818362003498565b810103126200241a575181811681036200241a57905f62002f7d565b503d620030b2565b620030ed906200341c565b62001dfa57865f62002f47565b6040513d8a823e3d90fd5b8980fd5b503462000299578060031936011262000299576040517f00000000000000000000000000000000000000000000000000000000000000006001600160a01b03168152602090f35b503462000c02573660031901610100811262000c025760e01362000c025760e435906001600160401b03821162000c025762003195620031ea923690600401620032da565b620031a2939193620034bc565b90620031f760405192620031d684620031c0858a60208401620036d7565b03916200069f601f199384810188528762003498565b604051958691600435906020840162003705565b0390810185528462003498565b5a9062003203620034bc565b9560018060a01b035f541691823b1562000c02576200323c925f9283604051809681958294638008e34960e01b845260048401620036d7565b03925af1801562000bf7576200326c575b50620017a69062003263620006539596620044e9565b505a9062003720565b6200065394509062003282620017a6926200341c565b5f9450906200324d565b3462000c0257602036600319011262000c02576004356001600160a01b038116919082900362000c02576020915f525f8051602062005214833981519152825260ff60405f20541615158152f35b9181601f8401121562000c02578235916001600160401b03831162000c02576020838186019501011162000c0257565b906003198201610140811262000c02576101201362000c025760049161012435906001600160401b03821162000c02576200334891600401620032da565b9091565b600435906001600160a01b038216820362000c0257565b35906001600160a01b038216820362000c0257565b906003198201610220811262000c02576101e01362000c02576004916001600160401b03916101e43583811162000c025782620033b891600401620032da565b939093926102043591821162000c02576200334891600401620032da565b9094939260609260808301968352602083015260408201520152565b805482101562003408575f5260205f2001905f90565b634e487b7160e01b5f52603260045260245ffd5b6001600160401b0381116200343057604052565b634e487b7160e01b5f52604160045260245ffd5b608081019081106001600160401b038211176200343057604052565b604081019081106001600160401b038211176200343057604052565b606081019081106001600160401b038211176200343057604052565b601f909101601f19168101906001600160401b038211908210176200343057604052565b6024356001600160a01b038116810362000c025790565b356001600160a01b038116810362000c025790565b6001600160a01b036004358181169081900362000c0257825260243581811680910362000c0257602083015260443590811680910362000c025760408201526064356060820152608435608082015260a060a435910152565b6001600160a01b036024358181169081900362000c0257825260443581811680910362000c0257602083015260643590811680910362000c02576040820152608435606082015260a435608082015260a060c435910152565b6001600160a01b03610104358181169081900362000c025782526101243581811680910362000c025760208301526101443590811680910362000c0257604082015261016435606082015261018435608082015260a06101a435910152565b6001600160a01b0360e4358181169081900362000c025782526101043581811680910362000c025760208301526101243590811680910362000c0257604082015261014435606082015261016435608082015260a061018435910152565b60a09081906001600160a01b0380620036708362003363565b16855280620036826020840162003363565b166020860152620036966040830162003363565b16604085015260608101356060850152608081013560808501520135910152565b908060209392818452848401375f828201840152601f01601f1916010190565b916200370292610100906004358152620036f46020820162003541565b8160e08201520191620036b7565b90565b6001600160a01b039091168152602081019190915260400190565b9190820391821162000c8a57565b604051906200373d8262003444565b6005548252600654602083015260075460408301526008546060830152565b90670de0b6b3a76400009182810292818404149015171562000c8a57565b8181029291811591840414171562000c8a57565b6200370293916101409190620037d5906001600160a01b03620037b18262003363565b16835260208101356020840152604081013560408401526060808401910162003657565b816101208201520191620036b7565b9035601e198236030181121562000c02570160208101919035906001600160401b03821162000c02578160061b3603831362000c0257565b3590811515820362000c0257565b602090620038519082906001600160a01b03620038478262003363565b168552016200381c565b1515910152565b916020908281520191905f5b818110620038725750505090565b9091928062003884600192866200382a565b6040908101940192910162003864565b6200370290604080620038df620038c1610100620038b38680620037e4565b9091808a5289019162003858565b620038d06020860186620037e4565b9088830360208a015262003858565b9401910162003657565b8035906101003682900360fe190183121562000c025760406200391a62003702948484849589528801910162003894565b946020840135602082015201910162003657565b6200396a916200393f81836200382a565b62003951604082016040840162003657565b6101008083013590820152610120809101910162003657565b565b9062003702939162003994610120926200398783826200382a565b6040808401910162003657565b816101008201520191620036b7565b600b6055915f8051602062005234833981519152604091825160209163189acdbd60e31b8383015260018060a01b0316602482015260248152620039e7816200347c565b62003a5262003a5f836106559387519062003a058387018362003498565b8582528282019562004abf8739885162003a2981620006eb868201943086620044c5565b895195869362003a42868601998a92519283916200447b565b840191518093868401906200447b565b0103808452018262003498565b5190208351938401528201523081520160ff81532090565b6001600160401b038111620034305760051b60200190565b9062003a9b8262003a77565b62003aaa604051918262003498565b828152809262003abd601f199162003a77565b0190602036910137565b8051821015620034085760209160051b010190565b915f905f60018060a01b0380951691825f5260039560209660038852604096875f20815f52895262003b11885f205462003a8f565b935f955b855187101562003c2f57875f52838b52895f20835f528b528462003b3c888c5f20620033f2565b905490861b1c168a5190635b4b969560e01b825281806004928c84830152608092839160249687915afa91821562003c2557908e92915f9262003bc3575b50500151928362003b8c8b8b62003ac7565b525f848201948512911290801582169115161762003bb257505060019096019562003b15565b601190634e487b7160e01b5f52525ffd5b8193508092503d831162003c1d575b62003bde818362003498565b8101031262000c02578c518d918f62003bf78362003444565b8151835280820151908301528281015183830152606080910151908201525f8062003b7a565b503d62003bd2565b8e513d5f823e3d90fd5b955097929890919598859662003c46865162003a8f565b975f995b87518b101562003d0f576001908a8c8f62003cea818e8e62003ce28f8f908f918f928f938b9462003cf39b5f52808352845f20845f52835262003c9086865f20620033f2565b9054911b1c1697805f528e98898352845f20845f528352845f20905f528252835f209884519962003cc18b62003460565b80548b520154828a01525f5260048152825f20915f52525f20549262003ac7565b5192620045f9565b92909362003ac7565b52811562003d06575b509a019962003c4a565b90505f62003cfc565b9a9899509a5050505050505050565b803582526200396a9160409081906001600160a01b0362003d426020860162003363565b16602082015201910162003657565b9081602091031262000c025751801515810362000c025790565b9193929093604092604081526101a08101938635604083015260209081880135601e198936030181121562000c02578801828101969035906001600160401b03821162000c02578160051b3603881362000c025781906101606060870152526101c0840196905f5b81811062003e66575050508162003dee60408a018a620037e4565b919097603f198682030160808701528281520196915f5b82811062003e49575050505062003e3d876060620037029899013560a0850152608081013560c085015260a060e08501910162003657565b818503910152620036b7565b8335895284840135858a0152978101979281019260010162003e05565b9091978480600192838060a01b0362003e7f8d62003363565b16815201990192910162003dd3565b90620037029391620037d5610140928035835262003eaf602082016200381c565b15156020840152604081013560408401526060808401910162003657565b9290925f9080519160206200074f62003f0d828501516200074f8a62003f00670de0b6b3a7640000998a9687936200375c565b046200089048936200375c565b049360409360608582015191015185519163de26c4a160e01b83528262003f4060049b878d84015260248301906200449e565b600f602160991b019187918691900381845afa938415620042d6575f9462004446575b5087516318b30b2360e31b815286818d81855afa9081156200443c575f9162004409575b506001600160fc1b03908082168103620042f357895163519b4bd360e01b815288818f81875afa908115620043c6578e905f92620043d0575b509162003fce921b6200377a565b895163346aee5360e11b815288818f81875afa908115620043c657908e915f916200438f575b50898c5180936303e0818560e61b825281885afa9182156200438557918f93918b935f9262004343575b5062004030929162000890916200377a565b938b519283809263313ce56760e01b82525afa90811562004339575f9162004306575b50604d8111620042f357600a0a9081168103620042e0579262000890866200091f8197958f620009186200074f97620040939a6200074f931b90620047a9565b0495620040a1878762004786565b5f8051602062005114833981519152548651633fabe5a360e21b81526001600160a01b0394929160a09082908d90829089165afa908115620042d6575f9162004275575b50620040f66305f5e10091620045db565b05905f82126200425e57906200410c916200377a565b04858280518101031262000c0257838201519183831680930362000c025786620041389101516200476b565b80821015620042555750975b813b1562000c025788865191630b220c3960e01b83528201525f60248201525f8160448183865af180156200424b57908992916200422a575b50620041ff9291620041b4913090847f000000000000000000000000000000000000000000000000000000000000000016620047b4565b5f805160206200525483398151915254855163a9059cbb60e01b858201529190620041f883620041e98c336024840162003705565b03601f19810185528462003498565b1662004901565b8251968752860152840152606083015260808201525f80516020620051b483398151915260a03392a2565b6200423e919550620041ff9392506200341c565b5f9390918891906200417d565b86513d5f823e3d90fd5b90509762004144565b875163280f944f60e11b8152808c01839052602490fd5b905060a0813d60a011620042cd575b816200429360a0938362003498565b8101031262000c0257620040f681620042b16305f5e1009362004794565b50620042c4608089830151920162004794565b509150620040e5565b3d915062004284565b88513d5f823e3d90fd5b60118c634e487b7160e01b5f525260245ffd5b60118d634e487b7160e01b5f525260245ffd5b90508781813d831162004331575b62004320818362003498565b8101031262000c0257515f62004053565b503d62004314565b8a513d5f823e3d90fd5b9384919395508092503d83116200437d575b62004361818362003498565b8101031262000c025790518e928a92909190620008906200401e565b503d62004355565b8c513d5f823e3d90fd5b8092508a8092503d8311620043be575b620043ab818362003498565b8101031262000c02578d90515f62003ff4565b503d6200439f565b8b513d5f823e3d90fd5b8092508a8092503d831162004401575b620043ec818362003498565b8101031262000c0257518d62003fce62003fc0565b503d620043e0565b90508681813d831162004434575b62004423818362003498565b8101031262000c0257515f62003f87565b503d62004417565b89513d5f823e3d90fd5b9093508581813d831162004473575b62004461818362003498565b8101031262000c025751925f62003f63565b503d62004455565b5f5b8381106200448d5750505f910152565b81810151838201526020016200447d565b90602091620044b9815180928185528580860191016200447b565b601f01601f1916010190565b6001600160a01b03909116815260406020820181905262003702929101906200449e565b60405163189acdbd60e31b60208201526001600160a01b03918216602480830182905282529291906200451c816200347c565b604051610655808201906001600160401b0382118383101762003430575f80516020620052348339815191529383926200455e9262004abf85393090620044c5565b03905ff5801562000bf75716805f525f805160206200521483398151915260205260405f20600160ff19825416179055807f4fe45192317a7d3ad19c3eaa395c0c3a1b7a0f53c3536fb96764c3561a8e9dad5f80a280927f2682a218602b9036c9869f006c5405ee4a1a65267653eb7e286123e5e1afde4c5f80a3565b90670de0b6b3a76400009182810292818405149015171562000c8a57565b80519293926001600160ff1b038111620047535784810294600160ff1b915f82128382141662000c8a57818705149015171562000c8a57620f42408095059060016200464583620048a1565b1462004700578585029085820587148615171562000c8a578215620046ec5781145f1983141662000c8a57819005945f868203961281871281169187139015161762000c8a575f848203941281851281169185139015161762000c8a57620046c16002916020620046b78697620048bf565b91015190620048ee565b149182620046ce57505091565b6002925090620046e2620046e892620048bf565b620048ee565b1491565b634e487b7160e01b5f52601260045260245ffd5b505050909291620f423f1980850290858205148515171562000c8a576001916200472c910594620048a1565b141590816200473a57509190565b600291506200474e90620046e285620048bf565b149190565b6024906040519063eecaa25d60e01b82526004820152fd5b64e8d4a510009081810291818304149015171562000c8a5790565b9190820180921162000c8a57565b51906001600160501b038216820362000c0257565b8115620046ec570490565b6040516323b872dd60e01b60208201526001600160a01b03928316602482015292909116604483015260648083019390935291815260a08101918183106001600160401b0384111762003430576200396a9260405262004901565b903590601e198136030182121562000c0257018035906001600160401b03821162000c0257602001918160051b3603831362000c0257565b9190811015620034085760051b0190565b903590601e198136030182121562000c0257018035906001600160401b03821162000c0257602001918160061b3603831362000c0257565b9190811015620034085760061b0190565b5f8113620048b9575f13620048b557600190565b5f90565b50600290565b5f8112620048ca5790565b5f0390565b620f424090818111620048e75710620048b557600190565b5050600290565b818111620048e75710620048b557600190565b60018060a01b0316604051620049178162003460565b5f806020948584527f5361666545524332303a206c6f772d6c6576656c2063616c6c206661696c656486850152858151910182865af13d1562004a11573d906001600160401b03821162003430576200499193604051926200498387601f19601f840116018562003498565b83523d5f8785013e62004a1b565b805190816200499f57505050565b8280620049b193830101910162003d51565b15620049ba5750565b6084906040519062461bcd60e51b82526004820152602a60248201527f5361666545524332303a204552433230206f7065726174696f6e20646964206e6044820152691bdd081cdd58d8d9595960b21b6064820152fd5b9162004991926060915b9192901562004a80575081511562004a31575090565b3b1562004a3b5790565b60405162461bcd60e51b815260206004820152601d60248201527f416464726573733a2063616c6c20746f206e6f6e2d636f6e74726163740000006044820152606490fd5b82519091501562004a945750805190602001fd5b60405162461bcd60e51b81526020600482015290819062004aba9060248301906200449e565b0390fdfe608060409080825261065580380380916100198285610342565b833981019082818303126102385761003081610365565b6020828101516001600160401b039391929184821161023857019084601f830112156102385781519161006283610379565b9261006f88519485610342565b8084528484019685828401011161023857868561008c9301610394565b803b156102f0578551635c60da1b60e01b80825292916001600160a01b0316908481600481855afa9081156102e6575f916102b1575b503b15610254577fa3f0ad74e5423aebfd80d3ef4346578335a9a72aeaee59ff6cb3582b35133d5080546001600160a01b03191682179055865192817f1cf3b03a6cf19fa2baba4df148e9dcabedea7f8a5c07840e207e5c089be95d3e5f80a282511580159061024d575b610140575b87516101ec90816104698239f35b6004848693819382525afa918215610243575f92610208575b5085519360608501908111858210176101f4578652602784527f416464726573733a206c6f772d6c6576656c2064656c65676174652063616c6c83850152660819985a5b195960ca1b84870152516101de945f918291845af4903d156101eb573d6101c381610379565b906101d088519283610342565b81525f81943d92013e6103b5565b505f808080808080610132565b606092506103b5565b634e487b7160e01b5f52604160045260245ffd5b9091508281813d831161023c575b6102208183610342565b810103126102385761023190610365565b905f610159565b5f80fd5b503d610216565b86513d5f823e3d90fd5b505f61012d565b865162461bcd60e51b815260048101859052603060248201527f455243313936373a20626561636f6e20696d706c656d656e746174696f6e206960448201526f1cc81b9bdd08184818dbdb9d1c9858dd60821b6064820152608490fd5b90508481813d83116102df575b6102c88183610342565b81010312610238576102d990610365565b5f6100c2565b503d6102be565b88513d5f823e3d90fd5b855162461bcd60e51b815260048101849052602560248201527f455243313936373a206e657720626561636f6e206973206e6f74206120636f6e6044820152641d1c9858dd60da1b6064820152608490fd5b601f909101601f19168101906001600160401b038211908210176101f457604052565b51906001600160a01b038216820361023857565b6001600160401b0381116101f457601f01601f191660200190565b5f5b8381106103a55750505f910152565b8181015183820152602001610396565b9192901561041757508151156103c9575090565b3b156103d25790565b60405162461bcd60e51b815260206004820152601d60248201527f416464726573733a2063616c6c20746f206e6f6e2d636f6e74726163740000006044820152606490fd5b82519091501561042a5750805190602001fd5b6044604051809262461bcd60e51b82526020600483015261045a8151809281602486015260208686019101610394565b601f01601f19168101030190fdfe608080604052366100af575f8051602061019783398151915254635c60da1b60e01b8252602090829060049082906001600160a01b03165afa9081156100a4575f9161004c575b50610179565b905060203d60201161009d575b601f8101601f19168201916001600160401b03831181841017610089576100839260405201610134565b5f610046565b634e487b7160e01b5f52604160045260245ffd5b503d610059565b6040513d5f823e3d90fd5b5f8051602061019783398151915254604051635c60da1b60e01b815290602090829060049082906001600160a01b03165afa9081156100a4575f916100f45750610179565b602091503d821161012c575b601f8201601f19168101916001600160401b03831182841017610089576100839260405281019061015a565b3d9150610100565b602090607f190112610156576080516001600160a01b03811681036101565790565b5f80fd5b9081602091031261015657516001600160a01b03811681036101565790565b5f8091368280378136915af43d5f803e15610192573d5ff35b3d5ffdfea3f0ad74e5423aebfd80d3ef4346578335a9a72aeaee59ff6cb3582b35133d50a26469706673582212204f0ab61d331c360c51475166a3e420f36ae998b54d56087661bab140a2136b5364736f6c634300081800332b50211693ec91bcfe327771928b74a8f475c508d53e86fca4153bcf0f0e87762801b00eb06461cf9fcb9758b5fafd884ff06a86177386f73b6c49f0bf5a5af0e7742ddf0fecd2926e7ef4d6d6e91a7b2f0b1f8805b78953dac8454e86273ed2be9b076dc5b65990cca9dd9d7366682482e7817a6f6bc7f4faf4dc32af497f326fee9688c285c5c5c97d6a1a29adced674e6b2ad0888b8ad2116b58a8b3ea248fa0333956d06e335c550bd5fc4ac9c003c6545e371331b1071fa4d5d8519d6c14ffd725fc4a22075e9ec71c59edf9c38cdeb588a91b24fc5b61388c5be41282b18e50ee9696440d335192aeeeffc26f47782eaa914f1700d8ad36d6d7f7261b381796b4965de195665289d95668a8a9e7020858e15f5341c42bcf9951c1768ada7061a14e3ecf6b6005ae012e8d4e1b45b16518ae5b5553dad6dcd441776ee675b5cbfa852c5bd03e540eba853f8faf28a604a4d82bee1091096bfaea14d08c33d13b7e57307bea7f94c474c597247d2da93d7de9136f8e123ed6525f50bbcec675c83682abbc3e7dd47e40515a778fbbde4393395c3dd3588244203c3e4788369f201bc2089b9be6195d876d97a0136b4cf56bbf8986a52dcb50697f7d1cac5a26469706673582212209492b6b9ece6aff22791aa363971b429014cb3fac5c699ec5720fa738bb8efc264736f6c63430008180033"
}