{
  "address": "0xD614F92F5980cEcA0CE3Bb61fFae6eF3C907bf68",
  "abi": [
    {
      "inputs": [
        {
          "internalType": "Token6",
          "name": "usdc",
          "type": "address"
        },
        {
          "internalType": "Token18",
          "name": "dsu",
          "type": "address"
        },
        {
          "internalType": "contract IEmptySetReserve",
          "name": "reserve",
          "type": "address"
        },
        {
          "internalType": "contract IMarketFactory",
          "name": "marketFactory",
          "type": "address"
        },
        {
          "internalType": "contract IOrderVerifier",
          "name": "verifier",
          "type": "address"
        },
        {
          "internalType": "contract IController",
          "name": "controller",
          "type": "address"
        }
      ],
      "stateMutability": "nonpayable",
      "type": "constructor"
    },
    {
      "inputs": [],
      "name": "DivisionByZero",
      "type": "error"
    },
    {
      "inputs": [
        {
          "internalType": "uint256",
          "name": "value",
          "type": "uint256"
        }
      ],
      "name": "Fixed6OverflowError",
      "type": "error"
    },
    {
      "inputs": [
        {
          "internalType": "uint256",
          "name": "version",
          "type": "uint256"
        }
      ],
      "name": "InitializableAlreadyInitializedError",
      "type": "error"
    },
    {
      "inputs": [],
      "name": "InitializableNotInitializingError",
      "type": "error"
    },
    {
      "inputs": [],
      "name": "InitializableZeroVersionError",
      "type": "error"
    },
    {
      "inputs": [],
      "name": "ManagerCannotCancelError",
      "type": "error"
    },
    {
      "inputs": [],
      "name": "ManagerCannotExecuteError",
      "type": "error"
    },
    {
      "inputs": [],
      "name": "ManagerCannotReduceMaxFee",
      "type": "error"
    },
    {
      "inputs": [],
      "name": "ManagerInvalidOrderNonceError",
      "type": "error"
    },
    {
      "inputs": [],
      "name": "ManagerInvalidSignerError",
      "type": "error"
    },
    {
      "inputs": [],
      "name": "ManagerNotOperatorError",
      "type": "error"
    },
    {
      "inputs": [],
      "name": "TriggerOrderInvalidError",
      "type": "error"
    },
    {
      "inputs": [],
      "name": "TriggerOrderStorageInvalidError",
      "type": "error"
    },
    {
      "inputs": [
        {
          "internalType": "int256",
          "name": "value",
          "type": "int256"
        }
      ],
      "name": "UFixed18UnderflowError",
      "type": "error"
    },
    {
      "inputs": [
        {
          "internalType": "int256",
          "name": "value",
          "type": "int256"
        }
      ],
      "name": "UFixed6UnderflowError",
      "type": "error"
    },
    {
      "anonymous": false,
      "inputs": [
        {
          "indexed": false,
          "internalType": "uint256",
          "name": "version",
          "type": "uint256"
        }
      ],
      "name": "Initialized",
      "type": "event"
    },
    {
      "anonymous": false,
      "inputs": [
        {
          "indexed": true,
          "internalType": "address",
          "name": "sender",
          "type": "address"
        },
        {
          "indexed": false,
          "internalType": "uint256",
          "name": "applicableGas",
          "type": "uint256"
        },
        {
          "indexed": false,
          "internalType": "uint256",
          "name": "applicableValue",
          "type": "uint256"
        },
        {
          "indexed": false,
          "internalType": "UFixed18",
          "name": "baseFee",
          "type": "uint256"
        },
        {
          "indexed": false,
          "internalType": "UFixed18",
          "name": "calldataFee",
          "type": "uint256"
        },
        {
          "indexed": false,
          "internalType": "UFixed18",
          "name": "keeperFee",
          "type": "uint256"
        }
      ],
      "name": "KeeperCall",
      "type": "event"
    },
    {
      "anonymous": false,
      "inputs": [
        {
          "indexed": true,
          "internalType": "contract IMarket",
          "name": "market",
          "type": "address"
        },
        {
          "indexed": true,
          "internalType": "address",
          "name": "account",
          "type": "address"
        },
        {
          "indexed": false,
          "internalType": "uint256",
          "name": "orderId",
          "type": "uint256"
        }
      ],
      "name": "TriggerOrderCancelled",
      "type": "event"
    },
    {
      "anonymous": false,
      "inputs": [
        {
          "indexed": true,
          "internalType": "contract IMarket",
          "name": "market",
          "type": "address"
        },
        {
          "indexed": true,
          "internalType": "address",
          "name": "account",
          "type": "address"
        },
        {
          "components": [
            {
              "internalType": "uint8",
              "name": "side",
              "type": "uint8"
            },
            {
              "internalType": "int8",
              "name": "comparison",
              "type": "int8"
            },
            {
              "internalType": "Fixed6",
              "name": "price",
              "type": "int256"
            },
            {
              "internalType": "Fixed6",
              "name": "delta",
              "type": "int256"
            },
            {
              "internalType": "UFixed6",
              "name": "maxFee",
              "type": "uint256"
            },
            {
              "internalType": "bool",
              "name": "isSpent",
              "type": "bool"
            },
            {
              "internalType": "address",
              "name": "referrer",
              "type": "address"
            },
            {
              "components": [
                {
                  "internalType": "UFixed6",
                  "name": "amount",
                  "type": "uint256"
                },
                {
                  "internalType": "address",
                  "name": "receiver",
                  "type": "address"
                },
                {
                  "internalType": "bool",
                  "name": "fixedFee",
                  "type": "bool"
                },
                {
                  "internalType": "bool",
                  "name": "unwrap",
                  "type": "bool"
                }
              ],
              "internalType": "struct InterfaceFee",
              "name": "interfaceFee",
              "type": "tuple"
            }
          ],
          "indexed": false,
          "internalType": "struct TriggerOrder",
          "name": "order",
          "type": "tuple"
        },
        {
          "indexed": false,
          "internalType": "uint256",
          "name": "orderId",
          "type": "uint256"
        }
      ],
      "name": "TriggerOrderExecuted",
      "type": "event"
    },
    {
      "anonymous": false,
      "inputs": [
        {
          "indexed": true,
          "internalType": "address",
          "name": "account",
          "type": "address"
        },
        {
          "indexed": true,
          "internalType": "contract IMarket",
          "name": "market",
          "type": "address"
        },
        {
          "components": [
            {
              "internalType": "UFixed6",
              "name": "amount",
              "type": "uint256"
            },
            {
              "internalType": "address",
              "name": "receiver",
              "type": "address"
            },
            {
              "internalType": "bool",
              "name": "fixedFee",
              "type": "bool"
            },
            {
              "internalType": "bool",
              "name": "unwrap",
              "type": "bool"
            }
          ],
          "indexed": false,
          "internalType": "struct InterfaceFee",
          "name": "fee",
          "type": "tuple"
        }
      ],
      "name": "TriggerOrderInterfaceFeeCharged",
      "type": "event"
    },
    {
      "anonymous": false,
      "inputs": [
        {
          "indexed": true,
          "internalType": "contract IMarket",
          "name": "market",
          "type": "address"
        },
        {
          "indexed": true,
          "internalType": "address",
          "name": "account",
          "type": "address"
        },
        {
          "components": [
            {
              "internalType": "uint8",
              "name": "side",
              "type": "uint8"
            },
            {
              "internalType": "int8",
              "name": "comparison",
              "type": "int8"
            },
            {
              "internalType": "Fixed6",
              "name": "price",
              "type": "int256"
            },
            {
              "internalType": "Fixed6",
              "name": "delta",
              "type": "int256"
            },
            {
              "internalType": "UFixed6",
              "name": "maxFee",
              "type": "uint256"
            },
            {
              "internalType": "bool",
              "name": "isSpent",
              "type": "bool"
            },
            {
              "internalType": "address",
              "name": "referrer",
              "type": "address"
            },
            {
              "components": [
                {
                  "internalType": "UFixed6",
                  "name": "amount",
                  "type": "uint256"
                },
                {
                  "internalType": "address",
                  "name": "receiver",
                  "type": "address"
                },
                {
                  "internalType": "bool",
                  "name": "fixedFee",
                  "type": "bool"
                },
                {
                  "internalType": "bool",
                  "name": "unwrap",
                  "type": "bool"
                }
              ],
              "internalType": "struct InterfaceFee",
              "name": "interfaceFee",
              "type": "tuple"
            }
          ],
          "indexed": false,
          "internalType": "struct TriggerOrder",
          "name": "order",
          "type": "tuple"
        },
        {
          "indexed": false,
          "internalType": "uint256",
          "name": "orderId",
          "type": "uint256"
        }
      ],
      "name": "TriggerOrderPlaced",
      "type": "event"
    },
    {
      "inputs": [],
      "name": "DSU",
      "outputs": [
        {
          "internalType": "Token18",
          "name": "",
          "type": "address"
        }
      ],
      "stateMutability": "view",
      "type": "function"
    },
    {
      "inputs": [],
      "name": "OPT_BASE_FEE_MULTIPLIER",
      "outputs": [
        {
          "internalType": "uint256",
          "name": "",
          "type": "uint256"
        }
      ],
      "stateMutability": "view",
      "type": "function"
    },
    {
      "inputs": [],
      "name": "USDC",
      "outputs": [
        {
          "internalType": "Token6",
          "name": "",
          "type": "address"
        }
      ],
      "stateMutability": "view",
      "type": "function"
    },
    {
      "inputs": [
        {
          "internalType": "contract IMarket",
          "name": "market",
          "type": "address"
        },
        {
          "internalType": "uint256",
          "name": "orderId",
          "type": "uint256"
        }
      ],
      "name": "cancelOrder",
      "outputs": [],
      "stateMutability": "nonpayable",
      "type": "function"
    },
    {
      "inputs": [
        {
          "components": [
            {
              "components": [
                {
                  "internalType": "contract IMarket",
                  "name": "market",
                  "type": "address"
                },
                {
                  "internalType": "uint256",
                  "name": "orderId",
                  "type": "uint256"
                },
                {
                  "internalType": "UFixed6",
                  "name": "maxFee",
                  "type": "uint256"
                },
                {
                  "components": [
                    {
                      "internalType": "address",
                      "name": "account",
                      "type": "address"
                    },
                    {
                      "internalType": "address",
                      "name": "signer",
                      "type": "address"
                    },
                    {
                      "internalType": "address",
                      "name": "domain",
                      "type": "address"
                    },
                    {
                      "internalType": "uint256",
                      "name": "nonce",
                      "type": "uint256"
                    },
                    {
                      "internalType": "uint256",
                      "name": "group",
                      "type": "uint256"
                    },
                    {
                      "internalType": "uint256",
                      "name": "expiry",
                      "type": "uint256"
                    }
                  ],
                  "internalType": "struct Common",
                  "name": "common",
                  "type": "tuple"
                }
              ],
              "internalType": "struct Action",
              "name": "action",
              "type": "tuple"
            }
          ],
          "internalType": "struct CancelOrderAction",
          "name": "request",
          "type": "tuple"
        },
        {
          "internalType": "bytes",
          "name": "signature",
          "type": "bytes"
        }
      ],
      "name": "cancelOrderWithSignature",
      "outputs": [],
      "stateMutability": "nonpayable",
      "type": "function"
    },
    {
      "inputs": [
        {
          "internalType": "contract IMarket",
          "name": "market",
          "type": "address"
        },
        {
          "internalType": "address",
          "name": "account",
          "type": "address"
        },
        {
          "internalType": "uint256",
          "name": "orderId",
          "type": "uint256"
        }
      ],
      "name": "checkOrder",
      "outputs": [
        {
          "components": [
            {
              "internalType": "uint8",
              "name": "side",
              "type": "uint8"
            },
            {
              "internalType": "int8",
              "name": "comparison",
              "type": "int8"
            },
            {
              "internalType": "Fixed6",
              "name": "price",
              "type": "int256"
            },
            {
              "internalType": "Fixed6",
              "name": "delta",
              "type": "int256"
            },
            {
              "internalType": "UFixed6",
              "name": "maxFee",
              "type": "uint256"
            },
            {
              "internalType": "bool",
              "name": "isSpent",
              "type": "bool"
            },
            {
              "internalType": "address",
              "name": "referrer",
              "type": "address"
            },
            {
              "components": [
                {
                  "internalType": "UFixed6",
                  "name": "amount",
                  "type": "uint256"
                },
                {
                  "internalType": "address",
                  "name": "receiver",
                  "type": "address"
                },
                {
                  "internalType": "bool",
                  "name": "fixedFee",
                  "type": "bool"
                },
                {
                  "internalType": "bool",
                  "name": "unwrap",
                  "type": "bool"
                }
              ],
              "internalType": "struct InterfaceFee",
              "name": "interfaceFee",
              "type": "tuple"
            }
          ],
          "internalType": "struct TriggerOrder",
          "name": "order",
          "type": "tuple"
        },
        {
          "internalType": "bool",
          "name": "canExecute",
          "type": "bool"
        }
      ],
      "stateMutability": "view",
      "type": "function"
    },
    {
      "inputs": [
        {
          "internalType": "address",
          "name": "account",
          "type": "address"
        },
        {
          "internalType": "bool",
          "name": "unwrap",
          "type": "bool"
        }
      ],
      "name": "claim",
      "outputs": [],
      "stateMutability": "nonpayable",
      "type": "function"
    },
    {
      "inputs": [
        {
          "internalType": "address",
          "name": "",
          "type": "address"
        }
      ],
      "name": "claimable",
      "outputs": [
        {
          "internalType": "UFixed6",
          "name": "",
          "type": "uint256"
        }
      ],
      "stateMutability": "view",
      "type": "function"
    },
    {
      "inputs": [],
      "name": "controller",
      "outputs": [
        {
          "internalType": "contract IController",
          "name": "",
          "type": "address"
        }
      ],
      "stateMutability": "view",
      "type": "function"
    },
    {
      "inputs": [],
      "name": "ethTokenOracleFeed",
      "outputs": [
        {
          "internalType": "contract AggregatorV3Interface",
          "name": "",
          "type": "address"
        }
      ],
      "stateMutability": "view",
      "type": "function"
    },
    {
      "inputs": [
        {
          "internalType": "contract IMarket",
          "name": "market",
          "type": "address"
        },
        {
          "internalType": "address",
          "name": "account",
          "type": "address"
        },
        {
          "internalType": "uint256",
          "name": "orderId",
          "type": "uint256"
        }
      ],
      "name": "executeOrder",
      "outputs": [],
      "stateMutability": "nonpayable",
      "type": "function"
    },
    {
      "inputs": [
        {
          "internalType": "contract AggregatorV3Interface",
          "name": "ethOracle_",
          "type": "address"
        },
        {
          "components": [
            {
              "internalType": "UFixed18",
              "name": "multiplierBase",
              "type": "uint256"
            },
            {
              "internalType": "uint256",
              "name": "bufferBase",
              "type": "uint256"
            },
            {
              "internalType": "UFixed18",
              "name": "multiplierCalldata",
              "type": "uint256"
            },
            {
              "internalType": "uint256",
              "name": "bufferCalldata",
              "type": "uint256"
            }
          ],
          "internalType": "struct IKept.KeepConfig",
          "name": "keepConfig_",
          "type": "tuple"
        },
        {
          "components": [
            {
              "internalType": "UFixed18",
              "name": "multiplierBase",
              "type": "uint256"
            },
            {
              "internalType": "uint256",
              "name": "bufferBase",
              "type": "uint256"
            },
            {
              "internalType": "UFixed18",
              "name": "multiplierCalldata",
              "type": "uint256"
            },
            {
              "internalType": "uint256",
              "name": "bufferCalldata",
              "type": "uint256"
            }
          ],
          "internalType": "struct IKept.KeepConfig",
          "name": "keepConfigBuffered_",
          "type": "tuple"
        }
      ],
      "name": "initialize",
      "outputs": [],
      "stateMutability": "nonpayable",
      "type": "function"
    },
    {
      "inputs": [],
      "name": "keepConfig",
      "outputs": [
        {
          "internalType": "UFixed18",
          "name": "multiplierBase",
          "type": "uint256"
        },
        {
          "internalType": "uint256",
          "name": "bufferBase",
          "type": "uint256"
        },
        {
          "internalType": "UFixed18",
          "name": "multiplierCalldata",
          "type": "uint256"
        },
        {
          "internalType": "uint256",
          "name": "bufferCalldata",
          "type": "uint256"
        }
      ],
      "stateMutability": "view",
      "type": "function"
    },
    {
      "inputs": [],
      "name": "keepConfigBuffered",
      "outputs": [
        {
          "internalType": "UFixed18",
          "name": "multiplierBase",
          "type": "uint256"
        },
        {
          "internalType": "uint256",
          "name": "bufferBase",
          "type": "uint256"
        },
        {
          "internalType": "UFixed18",
          "name": "multiplierCalldata",
          "type": "uint256"
        },
        {
          "internalType": "uint256",
          "name": "bufferCalldata",
          "type": "uint256"
        }
      ],
      "stateMutability": "view",
      "type": "function"
    },
    {
      "inputs": [],
      "name": "keeperToken",
      "outputs": [
        {
          "internalType": "Token18",
          "name": "",
          "type": "address"
        }
      ],
      "stateMutability": "view",
      "type": "function"
    },
    {
      "inputs": [],
      "name": "marketFactory",
      "outputs": [
        {
          "internalType": "contract IMarketFactory",
          "name": "",
          "type": "address"
        }
      ],
      "stateMutability": "view",
      "type": "function"
    },
    {
      "inputs": [
        {
          "internalType": "contract IMarket",
          "name": "market",
          "type": "address"
        },
        {
          "internalType": "address",
          "name": "account",
          "type": "address"
        },
        {
          "internalType": "uint256",
          "name": "orderId",
          "type": "uint256"
        }
      ],
      "name": "orders",
      "outputs": [
        {
          "components": [
            {
              "internalType": "uint8",
              "name": "side",
              "type": "uint8"
            },
            {
              "internalType": "int8",
              "name": "comparison",
              "type": "int8"
            },
            {
              "internalType": "Fixed6",
              "name": "price",
              "type": "int256"
            },
            {
              "internalType": "Fixed6",
              "name": "delta",
              "type": "int256"
            },
            {
              "internalType": "UFixed6",
              "name": "maxFee",
              "type": "uint256"
            },
            {
              "internalType": "bool",
              "name": "isSpent",
              "type": "bool"
            },
            {
              "internalType": "address",
              "name": "referrer",
              "type": "address"
            },
            {
              "components": [
                {
                  "internalType": "UFixed6",
                  "name": "amount",
                  "type": "uint256"
                },
                {
                  "internalType": "address",
                  "name": "receiver",
                  "type": "address"
                },
                {
                  "internalType": "bool",
                  "name": "fixedFee",
                  "type": "bool"
                },
                {
                  "internalType": "bool",
                  "name": "unwrap",
                  "type": "bool"
                }
              ],
              "internalType": "struct InterfaceFee",
              "name": "interfaceFee",
              "type": "tuple"
            }
          ],
          "internalType": "struct TriggerOrder",
          "name": "",
          "type": "tuple"
        }
      ],
      "stateMutability": "view",
      "type": "function"
    },
    {
      "inputs": [
        {
          "internalType": "contract IMarket",
          "name": "market",
          "type": "address"
        },
        {
          "internalType": "uint256",
          "name": "orderId",
          "type": "uint256"
        },
        {
          "components": [
            {
              "internalType": "uint8",
              "name": "side",
              "type": "uint8"
            },
            {
              "internalType": "int8",
              "name": "comparison",
              "type": "int8"
            },
            {
              "internalType": "Fixed6",
              "name": "price",
              "type": "int256"
            },
            {
              "internalType": "Fixed6",
              "name": "delta",
              "type": "int256"
            },
            {
              "internalType": "UFixed6",
              "name": "maxFee",
              "type": "uint256"
            },
            {
              "internalType": "bool",
              "name": "isSpent",
              "type": "bool"
            },
            {
              "internalType": "address",
              "name": "referrer",
              "type": "address"
            },
            {
              "components": [
                {
                  "internalType": "UFixed6",
                  "name": "amount",
                  "type": "uint256"
                },
                {
                  "internalType": "address",
                  "name": "receiver",
                  "type": "address"
                },
                {
                  "internalType": "bool",
                  "name": "fixedFee",
                  "type": "bool"
                },
                {
                  "internalType": "bool",
                  "name": "unwrap",
                  "type": "bool"
                }
              ],
              "internalType": "struct InterfaceFee",
              "name": "interfaceFee",
              "type": "tuple"
            }
          ],
          "internalType": "struct TriggerOrder",
          "name": "order",
          "type": "tuple"
        }
      ],
      "name": "placeOrder",
      "outputs": [],
      "stateMutability": "nonpayable",
      "type": "function"
    },
    {
      "inputs": [
        {
          "components": [
            {
              "components": [
                {
                  "internalType": "uint8",
                  "name": "side",
                  "type": "uint8"
                },
                {
                  "internalType": "int8",
                  "name": "comparison",
                  "type": "int8"
                },
                {
                  "internalType": "Fixed6",
                  "name": "price",
                  "type": "int256"
                },
                {
                  "internalType": "Fixed6",
                  "name": "delta",
                  "type": "int256"
                },
                {
                  "internalType": "UFixed6",
                  "name": "maxFee",
                  "type": "uint256"
                },
                {
                  "internalType": "bool",
                  "name": "isSpent",
                  "type": "bool"
                },
                {
                  "internalType": "address",
                  "name": "referrer",
                  "type": "address"
                },
                {
                  "components": [
                    {
                      "internalType": "UFixed6",
                      "name": "amount",
                      "type": "uint256"
                    },
                    {
                      "internalType": "address",
                      "name": "receiver",
                      "type": "address"
                    },
                    {
                      "internalType": "bool",
                      "name": "fixedFee",
                      "type": "bool"
                    },
                    {
                      "internalType": "bool",
                      "name": "unwrap",
                      "type": "bool"
                    }
                  ],
                  "internalType": "struct InterfaceFee",
                  "name": "interfaceFee",
                  "type": "tuple"
                }
              ],
              "internalType": "struct TriggerOrder",
              "name": "order",
              "type": "tuple"
            },
            {
              "components": [
                {
                  "internalType": "contract IMarket",
                  "name": "market",
                  "type": "address"
                },
                {
                  "internalType": "uint256",
                  "name": "orderId",
                  "type": "uint256"
                },
                {
                  "internalType": "UFixed6",
                  "name": "maxFee",
                  "type": "uint256"
                },
                {
                  "components": [
                    {
                      "internalType": "address",
                      "name": "account",
                      "type": "address"
                    },
                    {
                      "internalType": "address",
                      "name": "signer",
                      "type": "address"
                    },
                    {
                      "internalType": "address",
                      "name": "domain",
                      "type": "address"
                    },
                    {
                      "internalType": "uint256",
                      "name": "nonce",
                      "type": "uint256"
                    },
                    {
                      "internalType": "uint256",
                      "name": "group",
                      "type": "uint256"
                    },
                    {
                      "internalType": "uint256",
                      "name": "expiry",
                      "type": "uint256"
                    }
                  ],
                  "internalType": "struct Common",
                  "name": "common",
                  "type": "tuple"
                }
              ],
              "internalType": "struct Action",
              "name": "action",
              "type": "tuple"
            }
          ],
          "internalType": "struct PlaceOrderAction",
          "name": "request",
          "type": "tuple"
        },
        {
          "internalType": "bytes",
          "name": "signature",
          "type": "bytes"
        }
      ],
      "name": "placeOrderWithSignature",
      "outputs": [],
      "stateMutability": "nonpayable",
      "type": "function"
    },
    {
      "inputs": [],
      "name": "reserve",
      "outputs": [
        {
          "internalType": "contract IEmptySetReserve",
          "name": "",
          "type": "address"
        }
      ],
      "stateMutability": "view",
      "type": "function"
    },
    {
      "inputs": [],
      "name": "verifier",
      "outputs": [
        {
          "internalType": "contract IOrderVerifier",
          "name": "",
          "type": "address"
        }
      ],
      "stateMutability": "view",
      "type": "function"
    }
  ],
  "transactionHash": "0x9e07a74cd770dcd907aeeca1a60938cfab6b154302ab1b947b375abef3f0d5ca",
  "args": [
    "0x37Fa204b282e46f54744660bf3dF48b43A554EbC",
    "0x52C64b8998eB7C80b6F526E99E29ABdcC86B841b",
    "0x16b38364bA6f55B6E150cC7f52D22E89643f3535",
    "0xFfB33F838096cF3C3c7dD21c1F941BB2705248E1",
    "0x6b1C4978142A9BC9dD5777866AA8Ad610deD696c",
    "0x07B891ae5E0eeAF7FB407552C28EAc785Ac8AF9C"
  ],
  "numDeployments": 1,
  "solcInputHash": "ad7beb37074154fca2b1b88526ebd1a5",
  "bytecode": "0x610140346200014457601f62003d9238819003918201601f19168301916001600160401b03831184841017620001485780849260c09460405283398101031262000144576200004e816200015c565b6200005c602083016200015c565b60408301516001600160a01b03929183821682036200014457606085015192848416840362000144576080860151958587168703620001445760a001519485168503620001445760805260a05260c05260e05261010091825261012090815260405190613c209283620001728439608051838181610d260152610f54015260a051838181610c7501528181610e03015281816114370152611551015260c05183818161075601528181610d5301526114e8015260e051838181610e8d01526119c90152518281816108eb0152818161178a01526118be01525181818161061201526136540152f35b5f80fd5b634e487b7160e01b5f52604160045260245ffd5b51906001600160a01b0382168203620001445756fe6080806040526004361015610012575f80fd5b5f905f3560e01c90816306ae7095146119815750806323a985fc146117ae5780632b7ac3f31461173f57806332878cc9146116ce578063402914f51461166b5780636573bb431461129d5780636a206137146112575780636a5a6be414610fce578063872053a614610f7857806389a3027114610f0957806392fd2daf14610c99578063a2060bcf14610c2a578063b20caf4514610bb9578063b662d3ab146107d2578063b7e8ef401461077a578063cd3293de1461070b578063db904902146106d1578063dd02df1614610668578063f077370014610636578063f77c4791146105c75763fe0e55de14610105575f80fd5b346105c45761011336611b16565b5a90610120818486612042565b9190911561059a57610133828587612e27565b9073ffffffffffffffffffffffffffffffffffffffff9182871694853b1561059657604051917f6a256b2900000000000000000000000000000000000000000000000000000000835289858916938460048201528181602481838d5af180156104b357610582575b50604051957f6e1936800000000000000000000000000000000000000000000000000000000087528460048801526101a09687816024818d5afa978815610548578398610553575b5050604051967f55f575100000000000000000000000000000000000000000000000000000000088528560048901526080886024818d5afa978815610548578398610513575b5061023490886136cf565b600460ff895116146104f8575b600560ff895116146104dd575b600660ff895116146104c2575b6020968781015191606060408301519201519060c08b015116918b3b156104be57604051937f977b1f5f0000000000000000000000000000000000000000000000000000000085528860048601526024850152604484015260648301528260848301528260a483015260c4820152818160e481838d5af180156104b357610494575b50608061036a6103cf948a878b61041c9f9782847f5111ddcdf8e6b98f5a0d74f1ea4b8f9268d6d0e9c5a54e144459ed0541bc67908f8f6103468760406103a39f61018095600160a0850152888252600881528282208a5f528152825f20908683525220612fa5565b604051906103548289611b76565b610160820152a361041f575b5050505a90611d8a565b9701516040805173ffffffffffffffffffffffffffffffffffffffff94851689820190815294909b166020850152830152889160600190565b037fffffffffffffffffffffffffffffffffffffffffffffffffffffffffffffffe08101885287611ad5565b604051948386015260408501526060840152606083526103ee83611a7f565b604051906103fb82611a7f565b600454825260055490820152600654604082015260075460608201526121d8565b80f35b8560e07f53287d6489871e2ad186467efe70bdd15afbbd29f769f1e1c639b4d5a5d654ed92015161048b6040518092606080918051845273ffffffffffffffffffffffffffffffffffffffff602082015116602085015260408101511515604085015201511515910152565ba38a878b610360565b906104a2819b939492611a3e565b6104af579190985f6102dd565b8980fd5b6040513d84823e3d90fd5b8480fd5b606087016104d6815160608b0151906137fa565b905261025b565b604087016104f1815160608b0151906137fa565b905261024e565b6020870161050c815160608b0151906137fa565b9052610241565b61023491985061053a9060803d608011610541575b6105328183611ad5565b810190612f69565b9790610229565b503d610528565b6040513d85823e3d90fd5b610573929850803d1061057b575b61056b8183611ad5565b810190612ecc565b955f806101e3565b503d610561565b61058b90611a3e565b6104af57895f61019b565b8880fd5b60046040517f8013a216000000000000000000000000000000000000000000000000000000008152fd5b80fd5b50346105c457807ffffffffffffffffffffffffffffffffffffffffffffffffffffffffffffffffc3601126105c457602060405173ffffffffffffffffffffffffffffffffffffffff7f0000000000000000000000000000000000000000000000000000000000000000168152f35b50346105c45761018061065161064b36611b16565b91612042565b61065e6040518093611b76565b1515610160820152f35b50346105c4576106c260406101609261068036611b16565b91610689611f6e565b5073ffffffffffffffffffffffffffffffffffffffff8091168452600860205284842091165f52602052825f2090825260205220612bdb565b6106cf6040518092611b76565bf35b50346105c457807ffffffffffffffffffffffffffffffffffffffffffffffffffffffffffffffffc3601126105c457602060405160108152f35b50346105c457807ffffffffffffffffffffffffffffffffffffffffffffffffffffffffffffffffc3601126105c457602060405173ffffffffffffffffffffffffffffffffffffffff7f0000000000000000000000000000000000000000000000000000000000000000168152f35b50346105c457807ffffffffffffffffffffffffffffffffffffffffffffffffffffffffffffffffc3601126105c457600454600554600654600754604080519485526020850193909352918301526060820152608090f35b50346105c4577ffffffffffffffffffffffffffffffffffffffffffffffffffffffffffffffffc36016102a08112610bb5576102808112610bb5576102843567ffffffffffffffff8111610bb15761082e9036906004016119ed565b919060405190602093826108458284888401611eb6565b03936108777fffffffffffffffffffffffffffffffffffffffffffffffffffffffffffffffe095868101865285611ad5565b6108cf610882611d1f565b9561088b611d66565b6040805173ffffffffffffffffffffffffffffffffffffffff998a168b82019081529290991660208301526101a43590820152879060600103908101875286611ad5565b865a9273ffffffffffffffffffffffffffffffffffffffff94857f00000000000000000000000000000000000000000000000000000000000000001691823b15610bad5761094f928492836040518096819582947f1f55630a00000000000000000000000000000000000000000000000000000000845260048401611eb6565b03925af180156104b357610b95575b5050610968611d1f565b95610971611d66565b918461018435981691825f52600881528560405f20941693845f52815260405f20895f5281526109a360405f20612bdb565b60a0810151610b6b576109b581612d4f565b159081610b4f575b50610b2557825f526008815260405f20845f52815260405f20895f52815260405f2091610160809112610b2157604051966109f788611a9b565b60043560ff81168103610b21578852602435805f0b8103610b21578389015260443560408901526064356060890152608435608089015260a4358015158103610b215760a089015260c4358181168103610b215760c089015260807fffffffffffffffffffffffffffffffffffffffffffffffffffffffffffffff1c360112610b215760405192610a8784611a7f565b60e4358452610104359182168203610b2157830152610124358015158103610b2157604083015261014435998a15158b03610b2157610afc610b14987f5754f935e3165da0bd9fec6569d718ced687f59a5d19938799d1be43f3db6796958561041c9e606061018098015260e0830152612fa5565b60405191610b0983611dfc565b820152a35a90611d8a565b610b1c611dc4565b6121d8565b5f80fd5b60046040517f170dda16000000000000000000000000000000000000000000000000000000008152fd5b600291506080610b64910151608435906138ba565b145f6109bd565b60046040517fd0cfc108000000000000000000000000000000000000000000000000000000008152fd5b610b9e90611a3e565b610ba957865f61095e565b8680fd5b8380fd5b8280fd5b5080fd5b50346105c457807ffffffffffffffffffffffffffffffffffffffffffffffffffffffffffffffffc3601126105c457602073ffffffffffffffffffffffffffffffffffffffff7f2b50211693ec91bcfe327771928b74a8f475c508d53e86fca4153bcf0f0e87765416604051908152f35b50346105c457807ffffffffffffffffffffffffffffffffffffffffffffffffffffffffffffffffc3601126105c457602060405173ffffffffffffffffffffffffffffffffffffffff7f0000000000000000000000000000000000000000000000000000000000000000168152f35b50346105c45760407ffffffffffffffffffffffffffffffffffffffffffffffffffffffffffffffffc3601126105c457610cd1611a1b565b6024358015158103610b215773ffffffffffffffffffffffffffffffffffffffff8092163381141580610e51575b610e275783526009602052604083209083825492555f14610df257610d23906129fd565b827f000000000000000000000000000000000000000000000000000000000000000091610d503084613478565b937f00000000000000000000000000000000000000000000000000000000000000001690813b15610bb15782916024839260405194859384927fdb006a7500000000000000000000000000000000000000000000000000000000845260048401525af180156104b357610dde575b5050610dd661041c92610dd13084613478565b611d8a565b903390612a17565b610de790611a3e565b610bb157825f610dbe565b61041c9150610e00906129fd565b337f0000000000000000000000000000000000000000000000000000000000000000612a17565b60046040517f13722df5000000000000000000000000000000000000000000000000000000008152fd5b506040517f2637588e000000000000000000000000000000000000000000000000000000008152816004820152336024820152602081604481877f0000000000000000000000000000000000000000000000000000000000000000165afa908115610efe578591610ec4575b5015610cff565b90506020813d602011610ef6575b81610edf60209383611ad5565b810103126104be57610ef090611def565b5f610ebd565b3d9150610ed2565b6040513d87823e3d90fd5b50346105c457807ffffffffffffffffffffffffffffffffffffffffffffffffffffffffffffffffc3601126105c457602060405173ffffffffffffffffffffffffffffffffffffffff7f0000000000000000000000000000000000000000000000000000000000000000168152f35b50346105c457807ffffffffffffffffffffffffffffffffffffffffffffffffffffffffffffffffc3601126105c45754600154600254600354604080519485526020850193909352918301526060820152608090f35b50346105c4576101a07ffffffffffffffffffffffffffffffffffffffffffffffffffffffffffffffffc3601126105c457611007611a1b565b610160807fffffffffffffffffffffffffffffffffffffffffffffffffffffffffffffffbc360112610bb15773ffffffffffffffffffffffffffffffffffffffff8083165f52600860205260405f20335f5260205260405f206024355f5260205261107460405f20612bdb565b60a0810151610b6b5761108681612d4f565b15908161123b575b50610b25578083165f52600860205260405f20335f5260205260405f206024355f5260205260405f20604051916110c483611a9b565b6044359360ff85168503610b215784845260643593845f0b8503610b2157846020820152608435604082015260a435606082015260c435608082015260e435908115158203610b21578160a082015261010435908482168203610b21578160c082015260807ffffffffffffffffffffffffffffffffffffffffffffffffffffffffffffffedc360112610b21576040519561115e87611a7f565b61012435875261014435908682168203610b215781602089015261016435938415158503610b21578460408a015261018435958615158703610b21577f5754f935e3165da0bd9fec6569d718ced687f59a5d19938799d1be43f3db67969a6111d78a9687958d8b6101809f6060015260e0830152612fa5565b60ff6040519d168d525f0b60208d015260843560408d015260a43560608d015260c43560808d0152151560a08c01521660c08a01526101243560e08a015216610100880152151561012087015215156101408601526024359085015233941692a380f35b60029150608061125091015160c435906138ba565b145f61108e565b50346105c45760407ffffffffffffffffffffffffffffffffffffffffffffffffffffffffffffffffc3601126105c45761041c611292611a1b565b6024359033906128e7565b50346105c4576101207ffffffffffffffffffffffffffffffffffffffffffffffffffffffffffffffffc3601126105c45760043573ffffffffffffffffffffffffffffffffffffffff81168103610bb55760807fffffffffffffffffffffffffffffffffffffffffffffffffffffffffffffffdc360112610b21576040519061132582611a7f565b602435825260443560208301526064356040830152608435606083015260807fffffffffffffffffffffffffffffffffffffffffffffffffffffffffffffff5c360112610b21576040519061137982611a7f565b60a435825260c435602083015260e43560408301526101043560608301527f6fee9688c285c5c5c97d6a1a29adced674e6b2ad0888b8ad2116b58a8b3ea24860018154101561163a576001905560017f2801b00eb06461cf9fcb9758b5fafd884ff06a86177386f73b6c49f0bf5a5af055303b151580611633575b6116095760609273ffffffffffffffffffffffffffffffffffffffff8492167f2b50211693ec91bcfe327771928b74a8f475c508d53e86fca4153bcf0f0e8776557f00000000000000000000000000000000000000000000000000000000000000007f5b5cbfa852c5bd03e540eba853f8faf28a604a4d82bee1091096bfaea14d08c3558051855560208101516001556040810151600255015160035580516004556020810151600555604081015160065501516007556040517f095ea7b300000000000000000000000000000000000000000000000000000000815273ffffffffffffffffffffffffffffffffffffffff7f00000000000000000000000000000000000000000000000000000000000000001660048201527fffffffffffffffffffffffffffffffffffffffffffffffffffffffffffffffff60248201526020816044818573ffffffffffffffffffffffffffffffffffffffff7f0000000000000000000000000000000000000000000000000000000000000000165af180156104b3576115d0575b50807f2801b00eb06461cf9fcb9758b5fafd884ff06a86177386f73b6c49f0bf5a5af0557fbe9b076dc5b65990cca9dd9d7366682482e7817a6f6bc7f4faf4dc32af497f32602060405160018152a180f35b6020813d602011611601575b816115e960209383611ad5565b81010312610bb5576115fa90611def565b505f61157e565b3d91506115dc565b60046040517fb9a621e1000000000000000000000000000000000000000000000000000000008152fd5b50836113f4565b60246040517f3db738da00000000000000000000000000000000000000000000000000000000815260016004820152fd5b50346105c45760207ffffffffffffffffffffffffffffffffffffffffffffffffffffffffffffffffc3601126105c457604060209173ffffffffffffffffffffffffffffffffffffffff6116bd611a1b565b168152600983522054604051908152f35b50346105c457807ffffffffffffffffffffffffffffffffffffffffffffffffffffffffffffffffc3601126105c45760207f5b5cbfa852c5bd03e540eba853f8faf28a604a4d82bee1091096bfaea14d08c35473ffffffffffffffffffffffffffffffffffffffff60405191168152f35b50346105c457807ffffffffffffffffffffffffffffffffffffffffffffffffffffffffffffffffc3601126105c457602060405173ffffffffffffffffffffffffffffffffffffffff7f0000000000000000000000000000000000000000000000000000000000000000168152f35b5034610b21577ffffffffffffffffffffffffffffffffffffffffffffffffffffffffffffffffc36016101408112610b215761012013610b21576101243567ffffffffffffffff8111610b21576118099036906004016119ed565b6040929192518061181e838660208401611c5d565b03916118507fffffffffffffffffffffffffffffffffffffffffffffffffffffffffffffffe093848101845283611ad5565b6118a561185b611cfc565b93611864611d43565b6040805173ffffffffffffffffffffffffffffffffffffffff9788166020820152919096169581019590955260443560608601526080908101855284611ad5565b5a9473ffffffffffffffffffffffffffffffffffffffff7f00000000000000000000000000000000000000000000000000000000000000001691823b15610b2157611922925f92836040518096819582947f4ddd9dfc00000000000000000000000000000000000000000000000000000000845260048401611c5d565b03925af180156119765761195d575b50610b1461041c9394611956611945611cfc565b61194d611d43565b602435916128e7565b5a90611d8a565b61041c935061196b90611a3e565b610b145f9350611931565b6040513d5f823e3d90fd5b34610b21575f7ffffffffffffffffffffffffffffffffffffffffffffffffffffffffffffffffc360112610b215760209073ffffffffffffffffffffffffffffffffffffffff7f0000000000000000000000000000000000000000000000000000000000000000168152f35b9181601f84011215610b215782359167ffffffffffffffff8311610b215760208381860195010111610b2157565b6004359073ffffffffffffffffffffffffffffffffffffffff82168203610b2157565b67ffffffffffffffff8111611a5257604052565b7f4e487b71000000000000000000000000000000000000000000000000000000005f52604160045260245ffd5b6080810190811067ffffffffffffffff821117611a5257604052565b610100810190811067ffffffffffffffff821117611a5257604052565b6101a0810190811067ffffffffffffffff821117611a5257604052565b90601f7fffffffffffffffffffffffffffffffffffffffffffffffffffffffffffffffe0910116810190811067ffffffffffffffff821117611a5257604052565b7ffffffffffffffffffffffffffffffffffffffffffffffffffffffffffffffffc6060910112610b215773ffffffffffffffffffffffffffffffffffffffff906004358281168103610b2157916024359081168103610b21579060443590565b9060e080611c1d9360ff815116845260208101515f0b602085015260408101516040850152606081015160608501526080810151608085015260a0810151151560a085015273ffffffffffffffffffffffffffffffffffffffff60c08201511660c08501520151910190606080918051845273ffffffffffffffffffffffffffffffffffffffff602082015116602085015260408101511515604085015201511515910152565b565b601f82602094937fffffffffffffffffffffffffffffffffffffffffffffffffffffffffffffffe093818652868601375f8582860101520116010190565b916101406004359373ffffffffffffffffffffffffffffffffffffffff94858116809103610b2157815260243560208201526044356040820152606435858116809103610b21576060820152608435858116809103610b2157608082015260a435948516809503610b2157611cf99460a082015260c43560c082015260e43560e082015261010435610100820152816101208201520191611c1f565b90565b60043573ffffffffffffffffffffffffffffffffffffffff81168103610b215790565b6101643573ffffffffffffffffffffffffffffffffffffffff81168103610b215790565b60643573ffffffffffffffffffffffffffffffffffffffff81168103610b215790565b6101c43573ffffffffffffffffffffffffffffffffffffffff81168103610b215790565b91908203918211611d9757565b7f4e487b71000000000000000000000000000000000000000000000000000000005f52601160045260245ffd5b60405190611dd182611a7f565b5f548252600154602083015260025460408301526003546060830152565b51908115158203610b2157565b60043560ff8116809103610b21578152602435805f0b809103610b2157602082015260443560408201526064356060820152608435608082015260a435801515809103610b215760a082015260c43573ffffffffffffffffffffffffffffffffffffffff90818116809103610b215760c083015260e43560e083015261010435908116809103610b215761010082015261012435801515809103610b21576101208201526101443590811515809203610b21576101400152565b916102a0611ec384611dfc565b610164359373ffffffffffffffffffffffffffffffffffffffff94858116809103610b2157610160820152610184356101808201526101a4356101a08201526101c435858116809103610b21576101c08201526101e435858116809103610b21576101e082015261020435948516809503610b2157611cf994610200820152610224356102208201526102443561024082015261026435610260820152816102808201520191611c1f565b60405190611f7b82611a9b565b815f81525f60208201525f60408201525f60608201525f60808201525f60a08201525f60c082015260e060405191611fb283611a7f565b5f83525f60208401525f60408401525f60608401520152565b90816020910312610b21575173ffffffffffffffffffffffffffffffffffffffff81168103610b215790565b90816060910312610b2157604051906060820182811067ffffffffffffffff821117611a525761203a916040918252805184526020810151602085015201611def565b604082015290565b92919261204d611f6e565b5073ffffffffffffffffffffffffffffffffffffffff80911693845f526020906008825260409383855f2091165f528252835f20905f528152612091835f20612bdb565b9460a0860151158015906121c9575b6121a057816004918551928380927f7dc0d1d00000000000000000000000000000000000000000000000000000000082525afa9182156121965790606092915f92612169575b505060048451809481937f52bfe789000000000000000000000000000000000000000000000000000000008352165afa918215612160575090611cf9915f91612131575b5083612d91565b612153915060603d606011612159575b61214b8183611ad5565b810190611ff7565b5f61212a565b503d612141565b513d5f823e3d90fd5b6121889250803d1061218f575b6121808183611ad5565b810190611fcb565b5f806120e6565b503d612176565b84513d5f823e3d90fd5b600484517fd0cfc108000000000000000000000000000000000000000000000000000000008152fd5b506121d386612d4f565b6120a0565b91909282519261220960209461221a86840151612204670de0b6b3a7640000809581956122048d6129cd565b6129ea565b0461221448936129cd565b90613454565b04926040926060848201519101518451917fde26c4a10000000000000000000000000000000000000000000000000000000083526004928061226660249a8c878401528b830190613838565b03918a8273420000000000000000000000000000000000000f9481865afa91821561270e575f926128b8575b508751917fc59859180000000000000000000000000000000000000000000000000000000083528b838781875afa9283156128ae575f9361287f575b507f0fffffffffffffffffffffffffffffffffffffffffffffffffffffffffffffff92838116810361276e578951907f519b4bd30000000000000000000000000000000000000000000000000000000082528d828981895afa908115612844575f9161284e575b6123419250881b6129ea565b89517f68d5dca60000000000000000000000000000000000000000000000000000000081528d818981895afa90811561284457908e915f91612815575b508b51917ff8206140000000000000000000000000000000000000000000000000000000008352828a818a5afa91821561280b57918f92918a94925f926127d0575b506123cf9291612214916129ea565b958b51928380927f313ce5670000000000000000000000000000000000000000000000000000000082525afa9081156127c6575f91612799575b50604d811161276e57600a0a80871b938116036127435782156127185792612214889593866124416122049561220461244a996129cd565b049204936129cd565b04956124568787613454565b9373ffffffffffffffffffffffffffffffffffffffff948360a0877f2b50211693ec91bcfe327771928b74a8f475c508d53e86fca4153bcf0f0e877654168951928380927ffeaf968c0000000000000000000000000000000000000000000000000000000082525afa90811561270e575f916126c2575b5082810290808205841490151715612697576305f5e1009005905f821261266957906124f8916129ea565b0492606081805181010312610b21578881015185811603610b215785810151948516809503610b21576060015192806125c4575050505f9161254b6125509284905b80821086146125bb5750809261363c565b6129fd565b9461257e867f5b5cbfa852c5bd03e540eba853f8faf28a604a4d82bee1091096bfaea14d08c3543390612a17565b8251968752860152840152606083015260808201527ffa0333956d06e335c550bd5fc4ac9c003c6545e371331b1071fa4d5d8519d6c160a03392a2565b9050809261363c565b7fffffffffffffffffffffffffffffffffffffffffffffffffffffffffffffffff810190811161263e5764e8d4a51000900491600183018093116126145750509161254b612550925f949061253a565b6011907f4e487b71000000000000000000000000000000000000000000000000000000005f52525ffd5b506011827f4e487b71000000000000000000000000000000000000000000000000000000005f52525ffd5b8385838a51917f501f289e000000000000000000000000000000000000000000000000000000008352820152fd5b836011867f4e487b71000000000000000000000000000000000000000000000000000000005f52525ffd5b905060a0813d60a011612706575b816126dd60a09383611ad5565b81010312610b21576126ee81613461565b506126ff60808c8301519201613461565b505f6124cd565b3d91506126d0565b88513d5f823e3d90fd5b8a6012877f4e487b71000000000000000000000000000000000000000000000000000000005f52525ffd5b8a6011877f4e487b71000000000000000000000000000000000000000000000000000000005f52525ffd5b8b6011887f4e487b71000000000000000000000000000000000000000000000000000000005f52525ffd5b90508c81813d83116127bf575b6127b08183611ad5565b81010312610b2157515f612409565b503d6127a6565b8a513d5f823e3d90fd5b9384919395508092503d8311612804575b6127eb8183611ad5565b81010312610b2157905188928f929091906122146123c0565b503d6127e1565b8c513d5f823e3d90fd5b82819392503d831161283d575b61282c8183611ad5565b81010312610b21578d90515f61237e565b503d612822565b8b513d5f823e3d90fd5b90508d82813d8311612878575b6128658183611ad5565b81010312610b2157612341915190612335565b503d61285b565b9092508b81813d83116128a7575b6128978183611ad5565b81010312610b215751915f6122ce565b503d61288d565b89513d5f823e3d90fd5b9091508a81813d83116128e0575b6128d08183611ad5565b81010312610b215751905f612292565b503d6128c6565b91909173ffffffffffffffffffffffffffffffffffffffff80911691825f5260209160088352604090815f20951694855f528352805f20825f52835261292e815f20612bdb565b61293781612d4f565b80156129c0575b612997579061299082600160a07fa7e8b7ad64b09d9d45f4ad65f9fd654f99b90f9ce66bb414f72a9f69ba03db329796950152865f5260088552825f20885f528552825f20845f528552825f20612fa5565b51908152a3565b600482517f955cc4b9000000000000000000000000000000000000000000000000000000008152fd5b5060a0810151151561293e565b90670de0b6b3a764000091828102928184041490151715611d9757565b81810292918115918404141715611d9757565b64e8d4a5100090818102918183041490151715611d975790565b9173ffffffffffffffffffffffffffffffffffffffff80931690604092835191602095868401927fa9059cbb000000000000000000000000000000000000000000000000000000008452166024840152604483015260448252612a7982611a7f565b83519184830167ffffffffffffffff9284821084831117611a52575f92839288528886527f5361666545524332303a206c6f772d6c6576656c2063616c6c206661696c656489870152519082875af13d15612bce573d918211611a5257612b1b93855192612b0e887fffffffffffffffffffffffffffffffffffffffffffffffffffffffffffffffe0601f8401160185611ad5565b83523d5f8885013e613b1a565b805180612b29575b50505050565b81849181010312610b215782612b3f9101611def565b15612b4b578080612b23565b6084925051907f08c379a00000000000000000000000000000000000000000000000000000000082526004820152602a60248201527f5361666545524332303a204552433230206f7065726174696f6e20646964206e60448201527f6f742073756363656564000000000000000000000000000000000000000000006064820152fd5b612b1b9360609250613b1a565b612be3611f6e565b50604090600260a06080845193612bf985611ab8565b80549060ff8216968787528260081c5f0b8060208901526101808460101c60070b9384848b01528560501c60070b958660608c01527fffffffffff00000000000000000000000000000000000000000000000000000067ffffffffffffffff918c838260901c169a8b9101528c60ff8260d01c1615159b8c9101521660c08c01526001820154998a928c6101007fffffffffffffffffffffffff000000000000000000000000000000000000000073ffffffffffffffffffffffffffffffffffffffff8097169e8f60e085015216910152015491821690816101208d01528260a01c169a8b61014082015260ff808460e01c161515938461016084015260e81c161515938491015284519a612d0d8c611a7f565b8b5260208b0152838a01526060890152815198612d298a611a9b565b895260208901528701526060860152608085015260a084015260c083015260e082015290565b60ff815116159081612d82575b81612d75575b81612d6b575090565b6060915001511590565b6040810151159150612d62565b60208101515f0b159150612d5c565b604082015115612e215760208101515f0b60018114612dfe577fffffffffffffffffffffffffffffffffffffffffffffffffffffffffffffffff14612dd65750505f90565b60406020612de993015191015190613b09565b8015908115612df6575090565b600191501490565b5060406020612e1293015191015190613b09565b60028114908115612df6575090565b50505f90565b9160e0810192835190815115612ec35760408492015115155f14612e9d57505050612e55825151809261363c565b6020612e8773ffffffffffffffffffffffffffffffffffffffff92838386510151165f526009835260405f2054613454565b92510151165f52600960205260405f2055600190565b612eb2620f424092612ebb92612e5595613509565b855151906129ea565b04809261363c565b50505050505f90565b90816101a0910312610b215760405190612ee582611ab8565b805182526020810151602083015260408101516040830152606081015160608301526080810151608083015260a081015160a083015260c081015160c083015260e081015160e08301526101008082015190830152610120808201519083015261014080820151908301526101608082015190830152610180809101519082015290565b90816080910312610b2157606060405191612f8383611a7f565b8051835260208101516020840152604081015160408401520151606082015290565b91909160ff835116600381119081613449575b5080613405575b156133db57604090818401936002612fd78651613abb565b146133b257612fe68551613ad6565b156133b25760608101916002612ffc8451613abb565b146133895761300b8351613ad6565b1561338957608082019560026130218851613894565b146133605760e08301906002613038835151613894565b1461333757859697845160ff16916020860151905196519151968367ffffffffffffffff9860a089015115159373ffffffffffffffffffffffffffffffffffffffff60c0819b01511697519a8b9a60208c0151169d8e918c519e8f9d015115159d6060015115159c8d938351936130ae85611ab8565b888552865f0b60208601528960070b908501528a60070b606085015282871660808501528960a085015260c084015f90528c60e085015261010084015f9052610120840152166101408201528c6101608201526101800152885490837fffffffffffffffffffffffffffffffffffffffffffffffffffffffffffffff008316178a5560081b9161ff00928084169586867fffffffffffffffffffffffffffffffffffffffffffffffffffffffffffff0000861617178c5560101b9369ffffffffffffffff000098858a168098887fffffffffffffffffffffffffffffffffffffffffffff0000000000000000000088161717178d5560501b91169371ffffffffffffffff00000000000000000000928284168098887fffffffffffffffffffffffffffff000000000000000000000000000000000000881617881717178d5560901b79ffffffffffffffff000000000000000000000000000000000000169889911696867fffffffffffff00000000000000000000000000000000000000000000000000008616178617881717178b55169460d01b7aff000000000000000000000000000000000000000000000000000016967fffffffffff0000000000000000000000000000000000000000000000000000008892161782178417851786171788551717171717825560018201556002019384549160e81b7dff0000000000000000000000000000000000000000000000000000000000169360a01b7bffffffffffffffff000000000000000000000000000000000000000016917fffff0000000000000000000000000000000000000000000000000000000000001617179060e01b7cff000000000000000000000000000000000000000000000000000000001617179055565b600486517ff3469aa7000000000000000000000000000000000000000000000000000000008152fd5b600485517ff3469aa7000000000000000000000000000000000000000000000000000000008152fd5b600484517ff3469aa7000000000000000000000000000000000000000000000000000000008152fd5b600483517ff3469aa7000000000000000000000000000000000000000000000000000000008152fd5b60046040517f5b8c7e99000000000000000000000000000000000000000000000000000000008152fd5b5060208301515f0b7fffffffffffffffffffffffffffffffffffffffffffffffffffffffffffffffff811490811561343e575b50612fbf565b60019150145f613438565b60079150105f612fb8565b91908201809211611d9757565b519069ffffffffffffffffffff82168203610b2157565b90602090602473ffffffffffffffffffffffffffffffffffffffff918260405195869485937f70a08231000000000000000000000000000000000000000000000000000000008552166004840152165afa908115611976575f916134da575090565b90506020813d602011613501575b816134f560209383611ad5565b81010312610b21575190565b3d91506134e8565b73ffffffffffffffffffffffffffffffffffffffff926040517f7dc0d1d00000000000000000000000000000000000000000000000000000000081526020816004818888165afa8015611976576060915f9161361d575b506004604051809781937f52bfe789000000000000000000000000000000000000000000000000000000008352165afa93841561197657620f4240946020915f916135fe575b5001515f81126135f657915b606081015160016135c282613ad6565b036135df5750926122049160ff6135db955116916138cb565b0490565b6135db94509150505f8112156129ea575f036129ea565b5f03916135b2565b613617915060603d6060116121595761214b8183611ad5565b5f6135a6565b613636915060203d60201161218f576121808183611ad5565b5f613560565b73ffffffffffffffffffffffffffffffffffffffff807f000000000000000000000000000000000000000000000000000000000000000016803b15610b21575f928360449260405196879586947fd3beb29800000000000000000000000000000000000000000000000000000000865216600485015260248401525af18015611976576136c65750565b611c1d90611a3e565b8151815260208101906136e28251613a25565b6136ef6060850151613a25565b906136fd6080860151613a25565b915f8382039312818412811691841390151617611d97575f8282019283129112908015821691151617611d975761373390613a80565b9260408201906137438251613a25565b61375060a0830151613a25565b9061375e60c0840151613a25565b915f8382039312818412811691841390151617611d97575f8282019283129112908015821691151617611d9757613796606091613a80565b9301906137a38251613a25565b6137be6101006137b660e0850151613a25565b930151613a25565b915f8382039312818412811691841390151617611d97575f8282019283129112908015821691151617611d97576137f490613a80565b90525252565b600161380583613ad6565b036138105750505f90565b61381990613a25565b5f8282019283129112908015821691151617611d9757611cf990613a80565b91908251928382525f5b8481106138805750507fffffffffffffffffffffffffffffffffffffffffffffffffffffffffffffffe0601f845f6020809697860101520116010190565b602081830181015184830182015201613842565b67ffffffffffffffff908181116138b357106138af57600190565b5f90565b5050600290565b8181116138b357106138af57600190565b9173ffffffffffffffffffffffffffffffffffffffff8093166040938451937f55f5751000000000000000000000000000000000000000000000000000000000855216806004850152608084602481855afa9384156139fa575f94613a04575b5084519182917f6e19368000000000000000000000000000000000000000000000000000000000835260048301528160246101a09485935afa9182156139fa57916139839160ff94935f926139dd575b5050846136cf565b1660048103613996575060209150015190565b600581036139a45750015190565b6006146139d457600482517f5b8c7e99000000000000000000000000000000000000000000000000000000008152fd5b60609150015190565b6139f39250803d1061057b5761056b8183611ad5565b5f8061397b565b85513d5f823e3d90fd5b613a1e91945060803d608011610541576105328183611ad5565b925f61392b565b7f7fffffffffffffffffffffffffffffffffffffffffffffffffffffffffffffff8111613a4f5790565b602490604051907feecaa25d0000000000000000000000000000000000000000000000000000000082526004820152fd5b5f8112613a8a5790565b602490604051907fb02ef0870000000000000000000000000000000000000000000000000000000082526004820152fd5b677fffffffffffffff908181136138b357126138af57600190565b7fffffffffffffffffffffffffffffffffffffffffffffffff8000000000000000908181136138b357126138af57600190565b8181136138b357126138af57600190565b91929015613b955750815115613b2e575090565b3b15613b375790565b60646040517f08c379a000000000000000000000000000000000000000000000000000000000815260206004820152601d60248201527f416464726573733a2063616c6c20746f206e6f6e2d636f6e74726163740000006044820152fd5b825190915015613ba85750805190602001fd5b613be6906040519182917f08c379a0000000000000000000000000000000000000000000000000000000008352602060048401526024830190613838565b0390fdfea2646970667358221220abd574c1b9307f8fe247491d4bff59490167907ad7870058121da3a77212a23c64736f6c63430008180033",
  "devdoc": {
    "errors": {
      "ManagerCannotCancelError()": [
        {
          "custom:error": "Order does not exist or was already cancelled or executed"
        }
      ],
      "ManagerCannotExecuteError()": [
        {
          "custom:error": "Conditions required for order execution are not currently met"
        }
      ],
      "ManagerCannotReduceMaxFee()": [
        {
          "custom:error": "Replacement order may not reduce maxFee; must cancel and resubmit with new orderId"
        }
      ],
      "ManagerInvalidOrderNonceError()": [
        {
          "custom:error": "Order nonce has already been used"
        }
      ],
      "ManagerInvalidSignerError()": [
        {
          "custom:error": "Signer is not authorized to interact with markets for the specified user"
        }
      ],
      "ManagerNotOperatorError()": [
        {
          "custom:error": "Operator is not authorized to interact with markets for the specified user"
        }
      ],
      "TriggerOrderInvalidError()": [
        {
          "custom:error": "side or comparison is not supported"
        }
      ],
      "TriggerOrderStorageInvalidError()": [
        {
          "custom:error": "price, delta, maxFee, or interface fee amount is out-of-bounds"
        }
      ]
    },
    "events": {
      "TriggerOrderCancelled(address,address,uint256)": {
        "params": {
          "account": "Actor whose order was cancelled",
          "market": "Perennial market for which the order was intended",
          "orderId": "Uniquely identifies the cancelled order"
        }
      },
      "TriggerOrderExecuted(address,address,(uint8,int8,int256,int256,uint256,bool,address,(uint256,address,bool,bool)),uint256)": {
        "params": {
          "account": "Actor whose position was changed",
          "market": "Perennial market which the order affected",
          "order": "Change in position and conditions which were satisfied",
          "orderId": "Uniquely identifies the executed order"
        }
      },
      "TriggerOrderInterfaceFeeCharged(address,address,(uint256,address,bool,bool))": {
        "params": {
          "account": "Actor who paid the fee",
          "fee": "Details including the fee amount and recipient of the fee",
          "market": "Perennial market from which the fee was pulled"
        }
      },
      "TriggerOrderPlaced(address,address,(uint8,int8,int256,int256,uint256,bool,address,(uint256,address,bool,bool)),uint256)": {
        "params": {
          "account": "Actor who wants to change their position in the market",
          "market": "Perennial market for which the order is intended",
          "order": "Desired change in position and conditions upon which change may be made",
          "orderId": "Client-supplied order identifier, unique to client"
        }
      }
    },
    "kind": "dev",
    "methods": {
      "cancelOrder(address,uint256)": {
        "params": {
          "market": "Perennial market for which the order was submitted",
          "orderId": "Uniquely identifies the order to cancel"
        }
      },
      "cancelOrderWithSignature(((address,uint256,uint256,(address,address,address,uint256,uint256,uint256))),bytes)": {
        "params": {
          "request": "Message containing the market, order, and nonce used to uniquely identify the order to cancel",
          "signature": "EIP712 message signature"
        }
      },
      "checkOrder(address,address,uint256)": {
        "params": {
          "account": "Actor whose position is to be changed",
          "market": "Perennial market for which the order is intended",
          "orderId": "Uniquely identifies the order for an account"
        },
        "returns": {
          "canExecute": "True if trigger conditions have been met and executeOrder may be called on the order",
          "order": "Trigger order read from storage"
        }
      },
      "claim(address,bool)": {
        "params": {
          "account": "Account to claim fees for",
          "unwrap": "Wheather to wrap/unwrap collateral on withdrawal"
        }
      },
      "constructor": {
        "details": "passthrough constructor"
      },
      "executeOrder(address,address,uint256)": {
        "params": {
          "account": "Actor whose position is to be changed",
          "market": "Perennial market for which the order is intended",
          "orderId": "Uniquely identifies the order for an account"
        }
      },
      "initialize(address,(uint256,uint256,uint256,uint256),(uint256,uint256,uint256,uint256))": {
        "params": {
          "ethOracle_": "Chainlink ETH/USD oracle used for keeper compensation",
          "keepConfigBuffered_": "Configuration used for price commitments",
          "keepConfig_": "Keeper compensation configuration"
        }
      },
      "orders(address,address,uint256)": {
        "params": {
          "account": "User for whom the order was submitted",
          "market": "Perennial market for which the order was submitted",
          "orderId": "Uniquely identifies the order for a user"
        }
      },
      "placeOrder(address,uint256,(uint8,int8,int256,int256,uint256,bool,address,(uint256,address,bool,bool)))": {
        "params": {
          "market": "Perennial market in which user wants to change their position",
          "order": "Desired change in position and conditions upon which change may be made",
          "orderId": "Client-specific order identifier"
        }
      },
      "placeOrderWithSignature(((uint8,int8,int256,int256,uint256,bool,address,(uint256,address,bool,bool)),(address,uint256,uint256,(address,address,address,uint256,uint256,uint256))),bytes)": {
        "params": {
          "request": "Message containing the market, order, and nonce used to uniquely identify the user's order.",
          "signature": "EIP712 message signature"
        }
      }
    },
    "version": 1
  },
  "userdoc": {
    "events": {
      "TriggerOrderCancelled(address,address,uint256)": {
        "notice": "Emitted when an order has been cancelled"
      },
      "TriggerOrderExecuted(address,address,(uint8,int8,int256,int256,uint256,bool,address,(uint256,address,bool,bool)),uint256)": {
        "notice": "Emitted when a trigger orders conditions have been met and the user's position has been updated"
      },
      "TriggerOrderInterfaceFeeCharged(address,address,(uint256,address,bool,bool))": {
        "notice": "Emitted when an interface fee specified on a trigger order has been paid"
      },
      "TriggerOrderPlaced(address,address,(uint8,int8,int256,int256,uint256,bool,address,(uint256,address,bool,bool)),uint256)": {
        "notice": "Emitted when a trigger order is written to storage, whether as a new order or a replacement"
      }
    },
    "kind": "user",
    "methods": {
      "cancelOrder(address,uint256)": {
        "notice": "Cancels a trigger order"
      },
      "cancelOrderWithSignature(((address,uint256,uint256,(address,address,address,uint256,uint256,uint256))),bytes)": {
        "notice": "Called by keeper to cancel a trigger order via a signed message"
      },
      "checkOrder(address,address,uint256)": {
        "notice": "Determines whether trigger conditions for an order have been met"
      },
      "claim(address,bool)": {
        "notice": "withdraw DSU or unwrap DSU to withdraw USDC from this address to `account`"
      },
      "executeOrder(address,address,uint256)": {
        "notice": "Called by keeper to execute an order whose trigger conditions have been met"
      },
      "initialize(address,(uint256,uint256,uint256,uint256),(uint256,uint256,uint256,uint256))": {
        "notice": "Initialize the contract"
      },
      "orders(address,address,uint256)": {
        "notice": "Retrieves an unexecuted trigger order"
      },
      "placeOrder(address,uint256,(uint8,int8,int256,int256,uint256,bool,address,(uint256,address,bool,bool)))": {
        "notice": "Store a new trigger order or replace an existing trigger order"
      },
      "placeOrderWithSignature(((uint8,int8,int256,int256,uint256,bool,address,(uint256,address,bool,bool)),(address,uint256,uint256,(address,address,address,uint256,uint256,uint256))),bytes)": {
        "notice": "Called by keeper to store a new or replace an existing trigger order via a signed message"
      }
    },
    "version": 1
  },
  "storageLayout": {
    "storage": [
      {
        "astId": 43785,
        "contract": "@perennial/v2-periphery/contracts/TriggerOrders/Manager_Optimism.sol:Manager_Optimism",
        "label": "keepConfig",
        "offset": 0,
        "slot": "0",
        "type": "t_struct(KeepConfig)2205_storage"
      },
      {
        "astId": 43789,
        "contract": "@perennial/v2-periphery/contracts/TriggerOrders/Manager_Optimism.sol:Manager_Optimism",
        "label": "keepConfigBuffered",
        "offset": 0,
        "slot": "4",
        "type": "t_struct(KeepConfig)2205_storage"
      },
      {
        "astId": 43800,
        "contract": "@perennial/v2-periphery/contracts/TriggerOrders/Manager_Optimism.sol:Manager_Optimism",
        "label": "_orders",
        "offset": 0,
        "slot": "8",
        "type": "t_mapping(t_contract(IMarket)16305,t_mapping(t_address,t_mapping(t_uint256,t_struct(TriggerOrderStorage)45890_storage)))"
      },
      {
        "astId": 43806,
        "contract": "@perennial/v2-periphery/contracts/TriggerOrders/Manager_Optimism.sol:Manager_Optimism",
        "label": "claimable",
        "offset": 0,
        "slot": "9",
        "type": "t_mapping(t_address,t_userDefinedValueType(UFixed6)5528)"
      }
    ],
    "types": {
      "t_address": {
        "encoding": "inplace",
        "label": "address",
        "numberOfBytes": "20"
      },
      "t_bool": {
        "encoding": "inplace",
        "label": "bool",
        "numberOfBytes": "1"
      },
      "t_bytes12": {
        "encoding": "inplace",
        "label": "bytes12",
        "numberOfBytes": "12"
      },
      "t_bytes5": {
        "encoding": "inplace",
        "label": "bytes5",
        "numberOfBytes": "5"
      },
      "t_contract(IMarket)16305": {
        "encoding": "inplace",
        "label": "contract IMarket",
        "numberOfBytes": "20"
      },
      "t_int64": {
        "encoding": "inplace",
        "label": "int64",
        "numberOfBytes": "8"
      },
      "t_int8": {
        "encoding": "inplace",
        "label": "int8",
        "numberOfBytes": "1"
      },
      "t_mapping(t_address,t_mapping(t_uint256,t_struct(TriggerOrderStorage)45890_storage))": {
        "encoding": "mapping",
        "key": "t_address",
        "label": "mapping(address => mapping(uint256 => struct TriggerOrderStorage))",
        "numberOfBytes": "32",
        "value": "t_mapping(t_uint256,t_struct(TriggerOrderStorage)45890_storage)"
      },
      "t_mapping(t_address,t_userDefinedValueType(UFixed6)5528)": {
        "encoding": "mapping",
        "key": "t_address",
        "label": "mapping(address => UFixed6)",
        "numberOfBytes": "32",
        "value": "t_userDefinedValueType(UFixed6)5528"
      },
      "t_mapping(t_contract(IMarket)16305,t_mapping(t_address,t_mapping(t_uint256,t_struct(TriggerOrderStorage)45890_storage)))": {
        "encoding": "mapping",
        "key": "t_contract(IMarket)16305",
        "label": "mapping(contract IMarket => mapping(address => mapping(uint256 => struct TriggerOrderStorage)))",
        "numberOfBytes": "32",
        "value": "t_mapping(t_address,t_mapping(t_uint256,t_struct(TriggerOrderStorage)45890_storage))"
      },
      "t_mapping(t_uint256,t_struct(TriggerOrderStorage)45890_storage)": {
        "encoding": "mapping",
        "key": "t_uint256",
        "label": "mapping(uint256 => struct TriggerOrderStorage)",
        "numberOfBytes": "32",
        "value": "t_struct(TriggerOrderStorage)45890_storage"
      },
      "t_struct(KeepConfig)2205_storage": {
        "encoding": "inplace",
        "label": "struct IKept.KeepConfig",
        "members": [
          {
            "astId": 2197,
            "contract": "@perennial/v2-periphery/contracts/TriggerOrders/Manager_Optimism.sol:Manager_Optimism",
            "label": "multiplierBase",
            "offset": 0,
            "slot": "0",
            "type": "t_userDefinedValueType(UFixed18)4710"
          },
          {
            "astId": 2199,
            "contract": "@perennial/v2-periphery/contracts/TriggerOrders/Manager_Optimism.sol:Manager_Optimism",
            "label": "bufferBase",
            "offset": 0,
            "slot": "1",
            "type": "t_uint256"
          },
          {
            "astId": 2202,
            "contract": "@perennial/v2-periphery/contracts/TriggerOrders/Manager_Optimism.sol:Manager_Optimism",
            "label": "multiplierCalldata",
            "offset": 0,
            "slot": "2",
            "type": "t_userDefinedValueType(UFixed18)4710"
          },
          {
            "astId": 2204,
            "contract": "@perennial/v2-periphery/contracts/TriggerOrders/Manager_Optimism.sol:Manager_Optimism",
            "label": "bufferCalldata",
            "offset": 0,
            "slot": "3",
            "type": "t_uint256"
          }
        ],
        "numberOfBytes": "128"
      },
      "t_struct(StoredTriggerOrder)45886_storage": {
        "encoding": "inplace",
        "label": "struct StoredTriggerOrder",
        "members": [
          {
            "astId": 45861,
            "contract": "@perennial/v2-periphery/contracts/TriggerOrders/Manager_Optimism.sol:Manager_Optimism",
            "label": "side",
            "offset": 0,
            "slot": "0",
            "type": "t_uint8"
          },
          {
            "astId": 45863,
            "contract": "@perennial/v2-periphery/contracts/TriggerOrders/Manager_Optimism.sol:Manager_Optimism",
            "label": "comparison",
            "offset": 1,
            "slot": "0",
            "type": "t_int8"
          },
          {
            "astId": 45865,
            "contract": "@perennial/v2-periphery/contracts/TriggerOrders/Manager_Optimism.sol:Manager_Optimism",
            "label": "price",
            "offset": 2,
            "slot": "0",
            "type": "t_int64"
          },
          {
            "astId": 45867,
            "contract": "@perennial/v2-periphery/contracts/TriggerOrders/Manager_Optimism.sol:Manager_Optimism",
            "label": "delta",
            "offset": 10,
            "slot": "0",
            "type": "t_int64"
          },
          {
            "astId": 45869,
            "contract": "@perennial/v2-periphery/contracts/TriggerOrders/Manager_Optimism.sol:Manager_Optimism",
            "label": "maxFee",
            "offset": 18,
            "slot": "0",
            "type": "t_uint64"
          },
          {
            "astId": 45871,
            "contract": "@perennial/v2-periphery/contracts/TriggerOrders/Manager_Optimism.sol:Manager_Optimism",
            "label": "isSpent",
            "offset": 26,
            "slot": "0",
            "type": "t_bool"
          },
          {
            "astId": 45873,
            "contract": "@perennial/v2-periphery/contracts/TriggerOrders/Manager_Optimism.sol:Manager_Optimism",
            "label": "__unallocated0__",
            "offset": 27,
            "slot": "0",
            "type": "t_bytes5"
          },
          {
            "astId": 45875,
            "contract": "@perennial/v2-periphery/contracts/TriggerOrders/Manager_Optimism.sol:Manager_Optimism",
            "label": "referrer",
            "offset": 0,
            "slot": "1",
            "type": "t_address"
          },
          {
            "astId": 45877,
            "contract": "@perennial/v2-periphery/contracts/TriggerOrders/Manager_Optimism.sol:Manager_Optimism",
            "label": "__unallocated1__",
            "offset": 20,
            "slot": "1",
            "type": "t_bytes12"
          },
          {
            "astId": 45879,
            "contract": "@perennial/v2-periphery/contracts/TriggerOrders/Manager_Optimism.sol:Manager_Optimism",
            "label": "interfaceFeeReceiver",
            "offset": 0,
            "slot": "2",
            "type": "t_address"
          },
          {
            "astId": 45881,
            "contract": "@perennial/v2-periphery/contracts/TriggerOrders/Manager_Optimism.sol:Manager_Optimism",
            "label": "interfaceFeeAmount",
            "offset": 20,
            "slot": "2",
            "type": "t_uint64"
          },
          {
            "astId": 45883,
            "contract": "@perennial/v2-periphery/contracts/TriggerOrders/Manager_Optimism.sol:Manager_Optimism",
            "label": "interfaceFeeFlat",
            "offset": 28,
            "slot": "2",
            "type": "t_bool"
          },
          {
            "astId": 45885,
            "contract": "@perennial/v2-periphery/contracts/TriggerOrders/Manager_Optimism.sol:Manager_Optimism",
            "label": "interfaceFeeUnwrap",
            "offset": 29,
            "slot": "2",
            "type": "t_bool"
          }
        ],
        "numberOfBytes": "96"
      },
      "t_struct(TriggerOrderStorage)45890_storage": {
        "encoding": "inplace",
        "label": "struct TriggerOrderStorage",
        "members": [
          {
            "astId": 45889,
            "contract": "@perennial/v2-periphery/contracts/TriggerOrders/Manager_Optimism.sol:Manager_Optimism",
            "label": "value",
            "offset": 0,
            "slot": "0",
            "type": "t_struct(StoredTriggerOrder)45886_storage"
          }
        ],
        "numberOfBytes": "96"
      },
      "t_uint256": {
        "encoding": "inplace",
        "label": "uint256",
        "numberOfBytes": "32"
      },
      "t_uint64": {
        "encoding": "inplace",
        "label": "uint64",
        "numberOfBytes": "8"
      },
      "t_uint8": {
        "encoding": "inplace",
        "label": "uint8",
        "numberOfBytes": "1"
      },
      "t_userDefinedValueType(UFixed18)4710": {
        "encoding": "inplace",
        "label": "UFixed18",
        "numberOfBytes": "32"
      },
      "t_userDefinedValueType(UFixed6)5528": {
        "encoding": "inplace",
        "label": "UFixed6",
        "numberOfBytes": "32"
      }
    }
  }
}