{
  "address": "0x3c2177AF256a07C3D6457cDEa35c21aC59AD9DDD",
  "abi": [
    {
      "inputs": [
        {
          "internalType": "contract IVerifier",
          "name": "verifier_",
          "type": "address"
        }
      ],
      "stateMutability": "nonpayable",
      "type": "constructor"
    },
    {
      "inputs": [],
      "name": "Adiabatic6ZeroScaleError",
      "type": "error"
    },
    {
      "inputs": [
        {
          "internalType": "uint256",
          "name": "value",
          "type": "uint256"
        }
      ],
      "name": "Fixed6OverflowError",
      "type": "error"
    },
    {
      "inputs": [],
      "name": "GlobalStorageInvalidError",
      "type": "error"
    },
    {
      "inputs": [
        {
          "internalType": "uint256",
          "name": "version",
          "type": "uint256"
        }
      ],
      "name": "InitializableAlreadyInitializedError",
      "type": "error"
    },
    {
      "inputs": [],
      "name": "InitializableNotInitializingError",
      "type": "error"
    },
    {
      "inputs": [],
      "name": "InitializableZeroVersionError",
      "type": "error"
    },
    {
      "inputs": [
        {
          "internalType": "address",
          "name": "sender",
          "type": "address"
        }
      ],
      "name": "InstanceNotFactoryError",
      "type": "error"
    },
    {
      "inputs": [
        {
          "internalType": "address",
          "name": "sender",
          "type": "address"
        }
      ],
      "name": "InstanceNotOwnerError",
      "type": "error"
    },
    {
      "inputs": [],
      "name": "InstancePausedError",
      "type": "error"
    },
    {
      "inputs": [],
      "name": "LocalStorageInvalidError",
      "type": "error"
    },
    {
      "inputs": [],
      "name": "LocalStorageInvalidError",
      "type": "error"
    },
    {
      "inputs": [],
      "name": "MarketClosedError",
      "type": "error"
    },
    {
      "inputs": [],
      "name": "MarketCollateralBelowLimitError",
      "type": "error"
    },
    {
      "inputs": [],
      "name": "MarketEfficiencyUnderLimitError",
      "type": "error"
    },
    {
      "inputs": [],
      "name": "MarketExceedsPendingIdLimitError",
      "type": "error"
    },
    {
      "inputs": [],
      "name": "MarketInsufficientCollateralError",
      "type": "error"
    },
    {
      "inputs": [],
      "name": "MarketInsufficientLiquidityError",
      "type": "error"
    },
    {
      "inputs": [],
      "name": "MarketInsufficientMarginError",
      "type": "error"
    },
    {
      "inputs": [],
      "name": "MarketIntentPriceDeviationError",
      "type": "error"
    },
    {
      "inputs": [],
      "name": "MarketInvalidIntentFeeError",
      "type": "error"
    },
    {
      "inputs": [
        {
          "internalType": "uint256",
          "name": "code",
          "type": "uint256"
        }
      ],
      "name": "MarketInvalidMarketParameterError",
      "type": "error"
    },
    {
      "inputs": [],
      "name": "MarketInvalidProtectionError",
      "type": "error"
    },
    {
      "inputs": [],
      "name": "MarketInvalidReferrerError",
      "type": "error"
    },
    {
      "inputs": [
        {
          "internalType": "uint256",
          "name": "code",
          "type": "uint256"
        }
      ],
      "name": "MarketInvalidRiskParameterError",
      "type": "error"
    },
    {
      "inputs": [],
      "name": "MarketMakerOverLimitError",
      "type": "error"
    },
    {
      "inputs": [],
      "name": "MarketNotCoordinatorError",
      "type": "error"
    },
    {
      "inputs": [],
      "name": "MarketNotOperatorError",
      "type": "error"
    },
    {
      "inputs": [],
      "name": "MarketNotSingleSidedError",
      "type": "error"
    },
    {
      "inputs": [],
      "name": "MarketOperatorNotAllowedError",
      "type": "error"
    },
    {
      "inputs": [],
      "name": "MarketOverCloseError",
      "type": "error"
    },
    {
      "inputs": [],
      "name": "MarketParameterStorageInvalidError",
      "type": "error"
    },
    {
      "inputs": [],
      "name": "MarketProtectedError",
      "type": "error"
    },
    {
      "inputs": [],
      "name": "MarketSettleOnlyError",
      "type": "error"
    },
    {
      "inputs": [],
      "name": "MarketStalePriceError",
      "type": "error"
    },
    {
      "inputs": [],
      "name": "PositionStorageLocalInvalidError",
      "type": "error"
    },
    {
      "inputs": [],
      "name": "ReentrancyGuardReentrantCallError",
      "type": "error"
    },
    {
      "inputs": [],
      "name": "RiskParameterStorageInvalidError",
      "type": "error"
    },
    {
      "inputs": [
        {
          "internalType": "int256",
          "name": "value",
          "type": "int256"
        }
      ],
      "name": "UFixed6UnderflowError",
      "type": "error"
    },
    {
      "inputs": [],
      "name": "VersionStorageInvalidError",
      "type": "error"
    },
    {
      "anonymous": false,
      "inputs": [
        {
          "indexed": true,
          "internalType": "address",
          "name": "account",
          "type": "address"
        },
        {
          "indexed": false,
          "internalType": "uint256",
          "name": "orderId",
          "type": "uint256"
        },
        {
          "components": [
            {
              "internalType": "uint256",
              "name": "timestamp",
              "type": "uint256"
            },
            {
              "internalType": "uint256",
              "name": "orders",
              "type": "uint256"
            },
            {
              "internalType": "Fixed6",
              "name": "collateral",
              "type": "int256"
            },
            {
              "internalType": "UFixed6",
              "name": "makerPos",
              "type": "uint256"
            },
            {
              "internalType": "UFixed6",
              "name": "makerNeg",
              "type": "uint256"
            },
            {
              "internalType": "UFixed6",
              "name": "longPos",
              "type": "uint256"
            },
            {
              "internalType": "UFixed6",
              "name": "longNeg",
              "type": "uint256"
            },
            {
              "internalType": "UFixed6",
              "name": "shortPos",
              "type": "uint256"
            },
            {
              "internalType": "UFixed6",
              "name": "shortNeg",
              "type": "uint256"
            },
            {
              "internalType": "uint256",
              "name": "protection",
              "type": "uint256"
            },
            {
              "internalType": "uint256",
              "name": "invalidation",
              "type": "uint256"
            },
            {
              "internalType": "UFixed6",
              "name": "makerReferral",
              "type": "uint256"
            },
            {
              "internalType": "UFixed6",
              "name": "takerReferral",
              "type": "uint256"
            }
          ],
          "indexed": false,
          "internalType": "struct Order",
          "name": "order",
          "type": "tuple"
        },
        {
          "components": [
            {
              "internalType": "Fixed6",
              "name": "collateral",
              "type": "int256"
            },
            {
              "internalType": "Fixed6",
              "name": "priceOverride",
              "type": "int256"
            },
            {
              "internalType": "UFixed6",
              "name": "tradeFee",
              "type": "uint256"
            },
            {
              "internalType": "Fixed6",
              "name": "offset",
              "type": "int256"
            },
            {
              "internalType": "UFixed6",
              "name": "settlementFee",
              "type": "uint256"
            },
            {
              "internalType": "UFixed6",
              "name": "liquidationFee",
              "type": "uint256"
            },
            {
              "internalType": "UFixed6",
              "name": "subtractiveFee",
              "type": "uint256"
            },
            {
              "internalType": "UFixed6",
              "name": "solverFee",
              "type": "uint256"
            }
          ],
          "indexed": false,
          "internalType": "struct CheckpointAccumulationResult",
          "name": "accumulationResult",
          "type": "tuple"
        }
      ],
      "name": "AccountPositionProcessed",
      "type": "event"
    },
    {
      "anonymous": false,
      "inputs": [
        {
          "indexed": false,
          "internalType": "address",
          "name": "newCoordinator",
          "type": "address"
        }
      ],
      "name": "CoordinatorUpdated",
      "type": "event"
    },
    {
      "anonymous": false,
      "inputs": [
        {
          "indexed": true,
          "internalType": "address",
          "name": "account",
          "type": "address"
        },
        {
          "indexed": false,
          "internalType": "Fixed6",
          "name": "amount",
          "type": "int256"
        }
      ],
      "name": "ExposureClaimed",
      "type": "event"
    },
    {
      "anonymous": false,
      "inputs": [
        {
          "indexed": true,
          "internalType": "address",
          "name": "account",
          "type": "address"
        },
        {
          "indexed": true,
          "internalType": "address",
          "name": "receiver",
          "type": "address"
        },
        {
          "indexed": false,
          "internalType": "UFixed6",
          "name": "amount",
          "type": "uint256"
        }
      ],
      "name": "FeeClaimed",
      "type": "event"
    },
    {
      "anonymous": false,
      "inputs": [
        {
          "indexed": false,
          "internalType": "uint256",
          "name": "version",
          "type": "uint256"
        }
      ],
      "name": "Initialized",
      "type": "event"
    },
    {
      "anonymous": false,
      "inputs": [
        {
          "indexed": true,
          "internalType": "address",
          "name": "account",
          "type": "address"
        },
        {
          "components": [
            {
              "internalType": "uint256",
              "name": "timestamp",
              "type": "uint256"
            },
            {
              "internalType": "uint256",
              "name": "orders",
              "type": "uint256"
            },
            {
              "internalType": "Fixed6",
              "name": "collateral",
              "type": "int256"
            },
            {
              "internalType": "UFixed6",
              "name": "makerPos",
              "type": "uint256"
            },
            {
              "internalType": "UFixed6",
              "name": "makerNeg",
              "type": "uint256"
            },
            {
              "internalType": "UFixed6",
              "name": "longPos",
              "type": "uint256"
            },
            {
              "internalType": "UFixed6",
              "name": "longNeg",
              "type": "uint256"
            },
            {
              "internalType": "UFixed6",
              "name": "shortPos",
              "type": "uint256"
            },
            {
              "internalType": "UFixed6",
              "name": "shortNeg",
              "type": "uint256"
            },
            {
              "internalType": "uint256",
              "name": "protection",
              "type": "uint256"
            },
            {
              "internalType": "uint256",
              "name": "invalidation",
              "type": "uint256"
            },
            {
              "internalType": "UFixed6",
              "name": "makerReferral",
              "type": "uint256"
            },
            {
              "internalType": "UFixed6",
              "name": "takerReferral",
              "type": "uint256"
            }
          ],
          "indexed": false,
          "internalType": "struct Order",
          "name": "order",
          "type": "tuple"
        },
        {
          "components": [
            {
              "internalType": "uint256",
              "name": "orders",
              "type": "uint256"
            },
            {
              "internalType": "Fixed6",
              "name": "notional",
              "type": "int256"
            },
            {
              "internalType": "UFixed6",
              "name": "longPos",
              "type": "uint256"
            },
            {
              "internalType": "UFixed6",
              "name": "longNeg",
              "type": "uint256"
            },
            {
              "internalType": "UFixed6",
              "name": "shortPos",
              "type": "uint256"
            },
            {
              "internalType": "UFixed6",
              "name": "shortNeg",
              "type": "uint256"
            },
            {
              "internalType": "UFixed6",
              "name": "takerFee",
              "type": "uint256"
            },
            {
              "internalType": "UFixed6",
              "name": "orderReferral",
              "type": "uint256"
            },
            {
              "internalType": "UFixed6",
              "name": "solverReferral",
              "type": "uint256"
            }
          ],
          "indexed": false,
          "internalType": "struct Guarantee",
          "name": "guarantee",
          "type": "tuple"
        },
        {
          "indexed": false,
          "internalType": "address",
          "name": "liquidator",
          "type": "address"
        },
        {
          "indexed": false,
          "internalType": "address",
          "name": "orderReferrer",
          "type": "address"
        },
        {
          "indexed": false,
          "internalType": "address",
          "name": "guaranteeReferrer",
          "type": "address"
        }
      ],
      "name": "OrderCreated",
      "type": "event"
    },
    {
      "anonymous": false,
      "inputs": [
        {
          "components": [
            {
              "internalType": "UFixed6",
              "name": "fundingFee",
              "type": "uint256"
            },
            {
              "internalType": "UFixed6",
              "name": "interestFee",
              "type": "uint256"
            },
            {
              "internalType": "UFixed6",
              "name": "makerFee",
              "type": "uint256"
            },
            {
              "internalType": "UFixed6",
              "name": "takerFee",
              "type": "uint256"
            },
            {
              "internalType": "UFixed6",
              "name": "riskFee",
              "type": "uint256"
            },
            {
              "internalType": "uint256",
              "name": "maxPendingGlobal",
              "type": "uint256"
            },
            {
              "internalType": "uint256",
              "name": "maxPendingLocal",
              "type": "uint256"
            },
            {
              "internalType": "UFixed6",
              "name": "maxPriceDeviation",
              "type": "uint256"
            },
            {
              "internalType": "bool",
              "name": "closed",
              "type": "bool"
            },
            {
              "internalType": "bool",
              "name": "settle",
              "type": "bool"
            }
          ],
          "indexed": false,
          "internalType": "struct MarketParameter",
          "name": "newParameter",
          "type": "tuple"
        }
      ],
      "name": "ParameterUpdated",
      "type": "event"
    },
    {
      "anonymous": false,
      "inputs": [
        {
          "indexed": false,
          "internalType": "uint256",
          "name": "orderId",
          "type": "uint256"
        },
        {
          "components": [
            {
              "internalType": "uint256",
              "name": "timestamp",
              "type": "uint256"
            },
            {
              "internalType": "uint256",
              "name": "orders",
              "type": "uint256"
            },
            {
              "internalType": "Fixed6",
              "name": "collateral",
              "type": "int256"
            },
            {
              "internalType": "UFixed6",
              "name": "makerPos",
              "type": "uint256"
            },
            {
              "internalType": "UFixed6",
              "name": "makerNeg",
              "type": "uint256"
            },
            {
              "internalType": "UFixed6",
              "name": "longPos",
              "type": "uint256"
            },
            {
              "internalType": "UFixed6",
              "name": "longNeg",
              "type": "uint256"
            },
            {
              "internalType": "UFixed6",
              "name": "shortPos",
              "type": "uint256"
            },
            {
              "internalType": "UFixed6",
              "name": "shortNeg",
              "type": "uint256"
            },
            {
              "internalType": "uint256",
              "name": "protection",
              "type": "uint256"
            },
            {
              "internalType": "uint256",
              "name": "invalidation",
              "type": "uint256"
            },
            {
              "internalType": "UFixed6",
              "name": "makerReferral",
              "type": "uint256"
            },
            {
              "internalType": "UFixed6",
              "name": "takerReferral",
              "type": "uint256"
            }
          ],
          "indexed": false,
          "internalType": "struct Order",
          "name": "order",
          "type": "tuple"
        },
        {
          "components": [
            {
              "internalType": "UFixed6",
              "name": "tradeFee",
              "type": "uint256"
            },
            {
              "internalType": "UFixed6",
              "name": "subtractiveFee",
              "type": "uint256"
            },
            {
              "internalType": "Fixed6",
              "name": "tradeOffset",
              "type": "int256"
            },
            {
              "internalType": "Fixed6",
              "name": "tradeOffsetMaker",
              "type": "int256"
            },
            {
              "internalType": "UFixed6",
              "name": "tradeOffsetMarket",
              "type": "uint256"
            },
            {
              "internalType": "Fixed6",
              "name": "adiabaticExposure",
              "type": "int256"
            },
            {
              "internalType": "Fixed6",
              "name": "adiabaticExposureMaker",
              "type": "int256"
            },
            {
              "internalType": "Fixed6",
              "name": "adiabaticExposureMarket",
              "type": "int256"
            },
            {
              "internalType": "Fixed6",
              "name": "fundingMaker",
              "type": "int256"
            },
            {
              "internalType": "Fixed6",
              "name": "fundingLong",
              "type": "int256"
            },
            {
              "internalType": "Fixed6",
              "name": "fundingShort",
              "type": "int256"
            },
            {
              "internalType": "UFixed6",
              "name": "fundingFee",
              "type": "uint256"
            },
            {
              "internalType": "Fixed6",
              "name": "interestMaker",
              "type": "int256"
            },
            {
              "internalType": "Fixed6",
              "name": "interestLong",
              "type": "int256"
            },
            {
              "internalType": "Fixed6",
              "name": "interestShort",
              "type": "int256"
            },
            {
              "internalType": "UFixed6",
              "name": "interestFee",
              "type": "uint256"
            },
            {
              "internalType": "Fixed6",
              "name": "pnlMaker",
              "type": "int256"
            },
            {
              "internalType": "Fixed6",
              "name": "pnlLong",
              "type": "int256"
            },
            {
              "internalType": "Fixed6",
              "name": "pnlShort",
              "type": "int256"
            },
            {
              "internalType": "UFixed6",
              "name": "settlementFee",
              "type": "uint256"
            },
            {
              "internalType": "UFixed6",
              "name": "liquidationFee",
              "type": "uint256"
            }
          ],
          "indexed": false,
          "internalType": "struct VersionAccumulationResult",
          "name": "accumulationResult",
          "type": "tuple"
        }
      ],
      "name": "PositionProcessed",
      "type": "event"
    },
    {
      "anonymous": false,
      "inputs": [
        {
          "components": [
            {
              "internalType": "UFixed6",
              "name": "margin",
              "type": "uint256"
            },
            {
              "internalType": "UFixed6",
              "name": "maintenance",
              "type": "uint256"
            },
            {
              "components": [
                {
                  "internalType": "UFixed6",
                  "name": "linearFee",
                  "type": "uint256"
                },
                {
                  "internalType": "UFixed6",
                  "name": "proportionalFee",
                  "type": "uint256"
                },
                {
                  "internalType": "UFixed6",
                  "name": "adiabaticFee",
                  "type": "uint256"
                },
                {
                  "internalType": "UFixed6",
                  "name": "scale",
                  "type": "uint256"
                }
              ],
              "internalType": "struct LinearAdiabatic6",
              "name": "takerFee",
              "type": "tuple"
            },
            {
              "components": [
                {
                  "internalType": "UFixed6",
                  "name": "linearFee",
                  "type": "uint256"
                },
                {
                  "internalType": "UFixed6",
                  "name": "proportionalFee",
                  "type": "uint256"
                },
                {
                  "internalType": "UFixed6",
                  "name": "scale",
                  "type": "uint256"
                }
              ],
              "internalType": "struct NoopAdiabatic6",
              "name": "makerFee",
              "type": "tuple"
            },
            {
              "internalType": "UFixed6",
              "name": "makerLimit",
              "type": "uint256"
            },
            {
              "internalType": "UFixed6",
              "name": "efficiencyLimit",
              "type": "uint256"
            },
            {
              "internalType": "UFixed6",
              "name": "liquidationFee",
              "type": "uint256"
            },
            {
              "components": [
                {
                  "internalType": "UFixed6",
                  "name": "minRate",
                  "type": "uint256"
                },
                {
                  "internalType": "UFixed6",
                  "name": "maxRate",
                  "type": "uint256"
                },
                {
                  "internalType": "UFixed6",
                  "name": "targetRate",
                  "type": "uint256"
                },
                {
                  "internalType": "UFixed6",
                  "name": "targetUtilization",
                  "type": "uint256"
                }
              ],
              "internalType": "struct UJumpRateUtilizationCurve6",
              "name": "utilizationCurve",
              "type": "tuple"
            },
            {
              "components": [
                {
                  "internalType": "UFixed6",
                  "name": "k",
                  "type": "uint256"
                },
                {
                  "internalType": "Fixed6",
                  "name": "min",
                  "type": "int256"
                },
                {
                  "internalType": "Fixed6",
                  "name": "max",
                  "type": "int256"
                }
              ],
              "internalType": "struct PController6",
              "name": "pController",
              "type": "tuple"
            },
            {
              "internalType": "UFixed6",
              "name": "minMargin",
              "type": "uint256"
            },
            {
              "internalType": "UFixed6",
              "name": "minMaintenance",
              "type": "uint256"
            },
            {
              "internalType": "uint256",
              "name": "staleAfter",
              "type": "uint256"
            },
            {
              "internalType": "bool",
              "name": "makerReceiveOnly",
              "type": "bool"
            }
          ],
          "indexed": false,
          "internalType": "struct RiskParameter",
          "name": "newRiskParameter",
          "type": "tuple"
        }
      ],
      "name": "RiskParameterUpdated",
      "type": "event"
    },
    {
      "inputs": [
        {
          "internalType": "address",
          "name": "account",
          "type": "address"
        },
        {
          "internalType": "uint256",
          "name": "version",
          "type": "uint256"
        }
      ],
      "name": "checkpoints",
      "outputs": [
        {
          "components": [
            {
              "internalType": "Fixed6",
              "name": "tradeFee",
              "type": "int256"
            },
            {
              "internalType": "UFixed6",
              "name": "settlementFee",
              "type": "uint256"
            },
            {
              "internalType": "Fixed6",
              "name": "transfer",
              "type": "int256"
            },
            {
              "internalType": "Fixed6",
              "name": "collateral",
              "type": "int256"
            }
          ],
          "internalType": "struct Checkpoint",
          "name": "",
          "type": "tuple"
        }
      ],
      "stateMutability": "view",
      "type": "function"
    },
    {
      "inputs": [],
      "name": "claimExposure",
      "outputs": [],
      "stateMutability": "nonpayable",
      "type": "function"
    },
    {
      "inputs": [
        {
          "internalType": "address",
          "name": "account",
          "type": "address"
        }
      ],
      "name": "claimFee",
      "outputs": [
        {
          "internalType": "UFixed6",
          "name": "feeReceived",
          "type": "uint256"
        }
      ],
      "stateMutability": "nonpayable",
      "type": "function"
    },
    {
      "inputs": [],
      "name": "factory",
      "outputs": [
        {
          "internalType": "contract IFactory",
          "name": "",
          "type": "address"
        }
      ],
      "stateMutability": "view",
      "type": "function"
    },
    {
      "inputs": [],
      "name": "global",
      "outputs": [
        {
          "components": [
            {
              "internalType": "uint256",
              "name": "currentId",
              "type": "uint256"
            },
            {
              "internalType": "uint256",
              "name": "latestId",
              "type": "uint256"
            },
            {
              "internalType": "UFixed6",
              "name": "protocolFee",
              "type": "uint256"
            },
            {
              "internalType": "UFixed6",
              "name": "oracleFee",
              "type": "uint256"
            },
            {
              "internalType": "UFixed6",
              "name": "riskFee",
              "type": "uint256"
            },
            {
              "internalType": "Fixed6",
              "name": "latestPrice",
              "type": "int256"
            },
            {
              "internalType": "Fixed6",
              "name": "exposure",
              "type": "int256"
            },
            {
              "components": [
                {
                  "internalType": "Fixed6",
                  "name": "_value",
                  "type": "int256"
                },
                {
                  "internalType": "Fixed6",
                  "name": "_skew",
                  "type": "int256"
                }
              ],
              "internalType": "struct PAccumulator6",
              "name": "pAccumulator",
              "type": "tuple"
            }
          ],
          "internalType": "struct Global",
          "name": "",
          "type": "tuple"
        }
      ],
      "stateMutability": "view",
      "type": "function"
    },
    {
      "inputs": [
        {
          "internalType": "uint256",
          "name": "id",
          "type": "uint256"
        }
      ],
      "name": "guarantee",
      "outputs": [
        {
          "components": [
            {
              "internalType": "uint256",
              "name": "orders",
              "type": "uint256"
            },
            {
              "internalType": "Fixed6",
              "name": "notional",
              "type": "int256"
            },
            {
              "internalType": "UFixed6",
              "name": "longPos",
              "type": "uint256"
            },
            {
              "internalType": "UFixed6",
              "name": "longNeg",
              "type": "uint256"
            },
            {
              "internalType": "UFixed6",
              "name": "shortPos",
              "type": "uint256"
            },
            {
              "internalType": "UFixed6",
              "name": "shortNeg",
              "type": "uint256"
            },
            {
              "internalType": "UFixed6",
              "name": "takerFee",
              "type": "uint256"
            },
            {
              "internalType": "UFixed6",
              "name": "orderReferral",
              "type": "uint256"
            },
            {
              "internalType": "UFixed6",
              "name": "solverReferral",
              "type": "uint256"
            }
          ],
          "internalType": "struct Guarantee",
          "name": "",
          "type": "tuple"
        }
      ],
      "stateMutability": "view",
      "type": "function"
    },
    {
      "inputs": [
        {
          "internalType": "address",
          "name": "",
          "type": "address"
        },
        {
          "internalType": "uint256",
          "name": "",
          "type": "uint256"
        }
      ],
      "name": "guaranteeReferrers",
      "outputs": [
        {
          "internalType": "address",
          "name": "",
          "type": "address"
        }
      ],
      "stateMutability": "view",
      "type": "function"
    },
    {
      "inputs": [
        {
          "internalType": "address",
          "name": "account",
          "type": "address"
        },
        {
          "internalType": "uint256",
          "name": "id",
          "type": "uint256"
        }
      ],
      "name": "guarantees",
      "outputs": [
        {
          "components": [
            {
              "internalType": "uint256",
              "name": "orders",
              "type": "uint256"
            },
            {
              "internalType": "Fixed6",
              "name": "notional",
              "type": "int256"
            },
            {
              "internalType": "UFixed6",
              "name": "longPos",
              "type": "uint256"
            },
            {
              "internalType": "UFixed6",
              "name": "longNeg",
              "type": "uint256"
            },
            {
              "internalType": "UFixed6",
              "name": "shortPos",
              "type": "uint256"
            },
            {
              "internalType": "UFixed6",
              "name": "shortNeg",
              "type": "uint256"
            },
            {
              "internalType": "UFixed6",
              "name": "takerFee",
              "type": "uint256"
            },
            {
              "internalType": "UFixed6",
              "name": "orderReferral",
              "type": "uint256"
            },
            {
              "internalType": "UFixed6",
              "name": "solverReferral",
              "type": "uint256"
            }
          ],
          "internalType": "struct Guarantee",
          "name": "",
          "type": "tuple"
        }
      ],
      "stateMutability": "view",
      "type": "function"
    },
    {
      "inputs": [
        {
          "components": [
            {
              "internalType": "Token18",
              "name": "token",
              "type": "address"
            },
            {
              "internalType": "contract IOracleProvider",
              "name": "oracle",
              "type": "address"
            }
          ],
          "internalType": "struct IMarket.MarketDefinition",
          "name": "definition_",
          "type": "tuple"
        }
      ],
      "name": "initialize",
      "outputs": [],
      "stateMutability": "nonpayable",
      "type": "function"
    },
    {
      "inputs": [
        {
          "internalType": "address",
          "name": "",
          "type": "address"
        },
        {
          "internalType": "uint256",
          "name": "",
          "type": "uint256"
        }
      ],
      "name": "liquidators",
      "outputs": [
        {
          "internalType": "address",
          "name": "",
          "type": "address"
        }
      ],
      "stateMutability": "view",
      "type": "function"
    },
    {
      "inputs": [
        {
          "internalType": "address",
          "name": "account",
          "type": "address"
        }
      ],
      "name": "locals",
      "outputs": [
        {
          "components": [
            {
              "internalType": "uint256",
              "name": "currentId",
              "type": "uint256"
            },
            {
              "internalType": "uint256",
              "name": "latestId",
              "type": "uint256"
            },
            {
              "internalType": "Fixed6",
              "name": "collateral",
              "type": "int256"
            },
            {
              "internalType": "UFixed6",
              "name": "claimable",
              "type": "uint256"
            }
          ],
          "internalType": "struct Local",
          "name": "",
          "type": "tuple"
        }
      ],
      "stateMutability": "view",
      "type": "function"
    },
    {
      "inputs": [],
      "name": "oracle",
      "outputs": [
        {
          "internalType": "contract IOracleProvider",
          "name": "",
          "type": "address"
        }
      ],
      "stateMutability": "view",
      "type": "function"
    },
    {
      "inputs": [
        {
          "internalType": "address",
          "name": "",
          "type": "address"
        },
        {
          "internalType": "uint256",
          "name": "",
          "type": "uint256"
        }
      ],
      "name": "orderReferrers",
      "outputs": [
        {
          "internalType": "address",
          "name": "",
          "type": "address"
        }
      ],
      "stateMutability": "view",
      "type": "function"
    },
    {
      "inputs": [],
      "name": "parameter",
      "outputs": [
        {
          "components": [
            {
              "internalType": "UFixed6",
              "name": "fundingFee",
              "type": "uint256"
            },
            {
              "internalType": "UFixed6",
              "name": "interestFee",
              "type": "uint256"
            },
            {
              "internalType": "UFixed6",
              "name": "makerFee",
              "type": "uint256"
            },
            {
              "internalType": "UFixed6",
              "name": "takerFee",
              "type": "uint256"
            },
            {
              "internalType": "UFixed6",
              "name": "riskFee",
              "type": "uint256"
            },
            {
              "internalType": "uint256",
              "name": "maxPendingGlobal",
              "type": "uint256"
            },
            {
              "internalType": "uint256",
              "name": "maxPendingLocal",
              "type": "uint256"
            },
            {
              "internalType": "UFixed6",
              "name": "maxPriceDeviation",
              "type": "uint256"
            },
            {
              "internalType": "bool",
              "name": "closed",
              "type": "bool"
            },
            {
              "internalType": "bool",
              "name": "settle",
              "type": "bool"
            }
          ],
          "internalType": "struct MarketParameter",
          "name": "",
          "type": "tuple"
        }
      ],
      "stateMutability": "view",
      "type": "function"
    },
    {
      "inputs": [],
      "name": "pending",
      "outputs": [
        {
          "components": [
            {
              "internalType": "uint256",
              "name": "timestamp",
              "type": "uint256"
            },
            {
              "internalType": "uint256",
              "name": "orders",
              "type": "uint256"
            },
            {
              "internalType": "Fixed6",
              "name": "collateral",
              "type": "int256"
            },
            {
              "internalType": "UFixed6",
              "name": "makerPos",
              "type": "uint256"
            },
            {
              "internalType": "UFixed6",
              "name": "makerNeg",
              "type": "uint256"
            },
            {
              "internalType": "UFixed6",
              "name": "longPos",
              "type": "uint256"
            },
            {
              "internalType": "UFixed6",
              "name": "longNeg",
              "type": "uint256"
            },
            {
              "internalType": "UFixed6",
              "name": "shortPos",
              "type": "uint256"
            },
            {
              "internalType": "UFixed6",
              "name": "shortNeg",
              "type": "uint256"
            },
            {
              "internalType": "uint256",
              "name": "protection",
              "type": "uint256"
            },
            {
              "internalType": "uint256",
              "name": "invalidation",
              "type": "uint256"
            },
            {
              "internalType": "UFixed6",
              "name": "makerReferral",
              "type": "uint256"
            },
            {
              "internalType": "UFixed6",
              "name": "takerReferral",
              "type": "uint256"
            }
          ],
          "internalType": "struct Order",
          "name": "",
          "type": "tuple"
        }
      ],
      "stateMutability": "view",
      "type": "function"
    },
    {
      "inputs": [
        {
          "internalType": "uint256",
          "name": "id",
          "type": "uint256"
        }
      ],
      "name": "pendingOrder",
      "outputs": [
        {
          "components": [
            {
              "internalType": "uint256",
              "name": "timestamp",
              "type": "uint256"
            },
            {
              "internalType": "uint256",
              "name": "orders",
              "type": "uint256"
            },
            {
              "internalType": "Fixed6",
              "name": "collateral",
              "type": "int256"
            },
            {
              "internalType": "UFixed6",
              "name": "makerPos",
              "type": "uint256"
            },
            {
              "internalType": "UFixed6",
              "name": "makerNeg",
              "type": "uint256"
            },
            {
              "internalType": "UFixed6",
              "name": "longPos",
              "type": "uint256"
            },
            {
              "internalType": "UFixed6",
              "name": "longNeg",
              "type": "uint256"
            },
            {
              "internalType": "UFixed6",
              "name": "shortPos",
              "type": "uint256"
            },
            {
              "internalType": "UFixed6",
              "name": "shortNeg",
              "type": "uint256"
            },
            {
              "internalType": "uint256",
              "name": "protection",
              "type": "uint256"
            },
            {
              "internalType": "uint256",
              "name": "invalidation",
              "type": "uint256"
            },
            {
              "internalType": "UFixed6",
              "name": "makerReferral",
              "type": "uint256"
            },
            {
              "internalType": "UFixed6",
              "name": "takerReferral",
              "type": "uint256"
            }
          ],
          "internalType": "struct Order",
          "name": "",
          "type": "tuple"
        }
      ],
      "stateMutability": "view",
      "type": "function"
    },
    {
      "inputs": [
        {
          "internalType": "address",
          "name": "account",
          "type": "address"
        },
        {
          "internalType": "uint256",
          "name": "id",
          "type": "uint256"
        }
      ],
      "name": "pendingOrders",
      "outputs": [
        {
          "components": [
            {
              "internalType": "uint256",
              "name": "timestamp",
              "type": "uint256"
            },
            {
              "internalType": "uint256",
              "name": "orders",
              "type": "uint256"
            },
            {
              "internalType": "Fixed6",
              "name": "collateral",
              "type": "int256"
            },
            {
              "internalType": "UFixed6",
              "name": "makerPos",
              "type": "uint256"
            },
            {
              "internalType": "UFixed6",
              "name": "makerNeg",
              "type": "uint256"
            },
            {
              "internalType": "UFixed6",
              "name": "longPos",
              "type": "uint256"
            },
            {
              "internalType": "UFixed6",
              "name": "longNeg",
              "type": "uint256"
            },
            {
              "internalType": "UFixed6",
              "name": "shortPos",
              "type": "uint256"
            },
            {
              "internalType": "UFixed6",
              "name": "shortNeg",
              "type": "uint256"
            },
            {
              "internalType": "uint256",
              "name": "protection",
              "type": "uint256"
            },
            {
              "internalType": "uint256",
              "name": "invalidation",
              "type": "uint256"
            },
            {
              "internalType": "UFixed6",
              "name": "makerReferral",
              "type": "uint256"
            },
            {
              "internalType": "UFixed6",
              "name": "takerReferral",
              "type": "uint256"
            }
          ],
          "internalType": "struct Order",
          "name": "",
          "type": "tuple"
        }
      ],
      "stateMutability": "view",
      "type": "function"
    },
    {
      "inputs": [
        {
          "internalType": "address",
          "name": "account",
          "type": "address"
        }
      ],
      "name": "pendings",
      "outputs": [
        {
          "components": [
            {
              "internalType": "uint256",
              "name": "timestamp",
              "type": "uint256"
            },
            {
              "internalType": "uint256",
              "name": "orders",
              "type": "uint256"
            },
            {
              "internalType": "Fixed6",
              "name": "collateral",
              "type": "int256"
            },
            {
              "internalType": "UFixed6",
              "name": "makerPos",
              "type": "uint256"
            },
            {
              "internalType": "UFixed6",
              "name": "makerNeg",
              "type": "uint256"
            },
            {
              "internalType": "UFixed6",
              "name": "longPos",
              "type": "uint256"
            },
            {
              "internalType": "UFixed6",
              "name": "longNeg",
              "type": "uint256"
            },
            {
              "internalType": "UFixed6",
              "name": "shortPos",
              "type": "uint256"
            },
            {
              "internalType": "UFixed6",
              "name": "shortNeg",
              "type": "uint256"
            },
            {
              "internalType": "uint256",
              "name": "protection",
              "type": "uint256"
            },
            {
              "internalType": "uint256",
              "name": "invalidation",
              "type": "uint256"
            },
            {
              "internalType": "UFixed6",
              "name": "makerReferral",
              "type": "uint256"
            },
            {
              "internalType": "UFixed6",
              "name": "takerReferral",
              "type": "uint256"
            }
          ],
          "internalType": "struct Order",
          "name": "",
          "type": "tuple"
        }
      ],
      "stateMutability": "view",
      "type": "function"
    },
    {
      "inputs": [],
      "name": "position",
      "outputs": [
        {
          "components": [
            {
              "internalType": "uint256",
              "name": "timestamp",
              "type": "uint256"
            },
            {
              "internalType": "UFixed6",
              "name": "maker",
              "type": "uint256"
            },
            {
              "internalType": "UFixed6",
              "name": "long",
              "type": "uint256"
            },
            {
              "internalType": "UFixed6",
              "name": "short",
              "type": "uint256"
            }
          ],
          "internalType": "struct Position",
          "name": "",
          "type": "tuple"
        }
      ],
      "stateMutability": "view",
      "type": "function"
    },
    {
      "inputs": [
        {
          "internalType": "address",
          "name": "account",
          "type": "address"
        }
      ],
      "name": "positions",
      "outputs": [
        {
          "components": [
            {
              "internalType": "uint256",
              "name": "timestamp",
              "type": "uint256"
            },
            {
              "internalType": "UFixed6",
              "name": "maker",
              "type": "uint256"
            },
            {
              "internalType": "UFixed6",
              "name": "long",
              "type": "uint256"
            },
            {
              "internalType": "UFixed6",
              "name": "short",
              "type": "uint256"
            }
          ],
          "internalType": "struct Position",
          "name": "",
          "type": "tuple"
        }
      ],
      "stateMutability": "view",
      "type": "function"
    },
    {
      "inputs": [],
      "name": "riskParameter",
      "outputs": [
        {
          "components": [
            {
              "internalType": "UFixed6",
              "name": "margin",
              "type": "uint256"
            },
            {
              "internalType": "UFixed6",
              "name": "maintenance",
              "type": "uint256"
            },
            {
              "components": [
                {
                  "internalType": "UFixed6",
                  "name": "linearFee",
                  "type": "uint256"
                },
                {
                  "internalType": "UFixed6",
                  "name": "proportionalFee",
                  "type": "uint256"
                },
                {
                  "internalType": "UFixed6",
                  "name": "adiabaticFee",
                  "type": "uint256"
                },
                {
                  "internalType": "UFixed6",
                  "name": "scale",
                  "type": "uint256"
                }
              ],
              "internalType": "struct LinearAdiabatic6",
              "name": "takerFee",
              "type": "tuple"
            },
            {
              "components": [
                {
                  "internalType": "UFixed6",
                  "name": "linearFee",
                  "type": "uint256"
                },
                {
                  "internalType": "UFixed6",
                  "name": "proportionalFee",
                  "type": "uint256"
                },
                {
                  "internalType": "UFixed6",
                  "name": "scale",
                  "type": "uint256"
                }
              ],
              "internalType": "struct NoopAdiabatic6",
              "name": "makerFee",
              "type": "tuple"
            },
            {
              "internalType": "UFixed6",
              "name": "makerLimit",
              "type": "uint256"
            },
            {
              "internalType": "UFixed6",
              "name": "efficiencyLimit",
              "type": "uint256"
            },
            {
              "internalType": "UFixed6",
              "name": "liquidationFee",
              "type": "uint256"
            },
            {
              "components": [
                {
                  "internalType": "UFixed6",
                  "name": "minRate",
                  "type": "uint256"
                },
                {
                  "internalType": "UFixed6",
                  "name": "maxRate",
                  "type": "uint256"
                },
                {
                  "internalType": "UFixed6",
                  "name": "targetRate",
                  "type": "uint256"
                },
                {
                  "internalType": "UFixed6",
                  "name": "targetUtilization",
                  "type": "uint256"
                }
              ],
              "internalType": "struct UJumpRateUtilizationCurve6",
              "name": "utilizationCurve",
              "type": "tuple"
            },
            {
              "components": [
                {
                  "internalType": "UFixed6",
                  "name": "k",
                  "type": "uint256"
                },
                {
                  "internalType": "Fixed6",
                  "name": "min",
                  "type": "int256"
                },
                {
                  "internalType": "Fixed6",
                  "name": "max",
                  "type": "int256"
                }
              ],
              "internalType": "struct PController6",
              "name": "pController",
              "type": "tuple"
            },
            {
              "internalType": "UFixed6",
              "name": "minMargin",
              "type": "uint256"
            },
            {
              "internalType": "UFixed6",
              "name": "minMaintenance",
              "type": "uint256"
            },
            {
              "internalType": "uint256",
              "name": "staleAfter",
              "type": "uint256"
            },
            {
              "internalType": "bool",
              "name": "makerReceiveOnly",
              "type": "bool"
            }
          ],
          "internalType": "struct RiskParameter",
          "name": "",
          "type": "tuple"
        }
      ],
      "stateMutability": "view",
      "type": "function"
    },
    {
      "inputs": [
        {
          "internalType": "address",
          "name": "account",
          "type": "address"
        }
      ],
      "name": "settle",
      "outputs": [],
      "stateMutability": "nonpayable",
      "type": "function"
    },
    {
      "inputs": [],
      "name": "token",
      "outputs": [
        {
          "internalType": "Token18",
          "name": "",
          "type": "address"
        }
      ],
      "stateMutability": "view",
      "type": "function"
    },
    {
      "inputs": [
        {
          "internalType": "address",
          "name": "account",
          "type": "address"
        },
        {
          "internalType": "Fixed6",
          "name": "amount",
          "type": "int256"
        },
        {
          "internalType": "Fixed6",
          "name": "collateral",
          "type": "int256"
        },
        {
          "internalType": "address",
          "name": "referrer",
          "type": "address"
        }
      ],
      "name": "update",
      "outputs": [],
      "stateMutability": "nonpayable",
      "type": "function"
    },
    {
      "inputs": [
        {
          "internalType": "address",
          "name": "account",
          "type": "address"
        },
        {
          "components": [
            {
              "internalType": "Fixed6",
              "name": "amount",
              "type": "int256"
            },
            {
              "internalType": "Fixed6",
              "name": "price",
              "type": "int256"
            },
            {
              "internalType": "UFixed6",
              "name": "fee",
              "type": "uint256"
            },
            {
              "internalType": "address",
              "name": "originator",
              "type": "address"
            },
            {
              "internalType": "address",
              "name": "solver",
              "type": "address"
            },
            {
              "internalType": "UFixed6",
              "name": "collateralization",
              "type": "uint256"
            },
            {
              "components": [
                {
                  "internalType": "address",
                  "name": "account",
                  "type": "address"
                },
                {
                  "internalType": "address",
                  "name": "signer",
                  "type": "address"
                },
                {
                  "internalType": "address",
                  "name": "domain",
                  "type": "address"
                },
                {
                  "internalType": "uint256",
                  "name": "nonce",
                  "type": "uint256"
                },
                {
                  "internalType": "uint256",
                  "name": "group",
                  "type": "uint256"
                },
                {
                  "internalType": "uint256",
                  "name": "expiry",
                  "type": "uint256"
                }
              ],
              "internalType": "struct Common",
              "name": "common",
              "type": "tuple"
            }
          ],
          "internalType": "struct Intent",
          "name": "intent",
          "type": "tuple"
        },
        {
          "internalType": "bytes",
          "name": "signature",
          "type": "bytes"
        }
      ],
      "name": "update",
      "outputs": [],
      "stateMutability": "nonpayable",
      "type": "function"
    },
    {
      "inputs": [
        {
          "internalType": "address",
          "name": "account",
          "type": "address"
        },
        {
          "internalType": "Fixed6",
          "name": "amount",
          "type": "int256"
        },
        {
          "internalType": "address",
          "name": "referrer",
          "type": "address"
        }
      ],
      "name": "update",
      "outputs": [],
      "stateMutability": "nonpayable",
      "type": "function"
    },
    {
      "inputs": [
        {
          "internalType": "address",
          "name": "account",
          "type": "address"
        },
        {
          "internalType": "UFixed6",
          "name": "newMaker",
          "type": "uint256"
        },
        {
          "internalType": "UFixed6",
          "name": "newLong",
          "type": "uint256"
        },
        {
          "internalType": "UFixed6",
          "name": "newShort",
          "type": "uint256"
        },
        {
          "internalType": "Fixed6",
          "name": "collateral",
          "type": "int256"
        },
        {
          "internalType": "bool",
          "name": "protect",
          "type": "bool"
        }
      ],
      "name": "update",
      "outputs": [],
      "stateMutability": "nonpayable",
      "type": "function"
    },
    {
      "inputs": [
        {
          "internalType": "address",
          "name": "account",
          "type": "address"
        },
        {
          "internalType": "UFixed6",
          "name": "newMaker",
          "type": "uint256"
        },
        {
          "internalType": "UFixed6",
          "name": "newLong",
          "type": "uint256"
        },
        {
          "internalType": "UFixed6",
          "name": "newShort",
          "type": "uint256"
        },
        {
          "internalType": "Fixed6",
          "name": "collateral",
          "type": "int256"
        },
        {
          "internalType": "bool",
          "name": "protect",
          "type": "bool"
        },
        {
          "internalType": "address",
          "name": "referrer",
          "type": "address"
        }
      ],
      "name": "update",
      "outputs": [],
      "stateMutability": "nonpayable",
      "type": "function"
    },
    {
      "inputs": [
        {
          "components": [
            {
              "internalType": "Fixed6",
              "name": "amount",
              "type": "int256"
            },
            {
              "internalType": "address",
              "name": "referrer",
              "type": "address"
            },
            {
              "components": [
                {
                  "internalType": "address",
                  "name": "account",
                  "type": "address"
                },
                {
                  "internalType": "address",
                  "name": "signer",
                  "type": "address"
                },
                {
                  "internalType": "address",
                  "name": "domain",
                  "type": "address"
                },
                {
                  "internalType": "uint256",
                  "name": "nonce",
                  "type": "uint256"
                },
                {
                  "internalType": "uint256",
                  "name": "group",
                  "type": "uint256"
                },
                {
                  "internalType": "uint256",
                  "name": "expiry",
                  "type": "uint256"
                }
              ],
              "internalType": "struct Common",
              "name": "common",
              "type": "tuple"
            }
          ],
          "internalType": "struct Take",
          "name": "take",
          "type": "tuple"
        },
        {
          "internalType": "bytes",
          "name": "signature",
          "type": "bytes"
        }
      ],
      "name": "update",
      "outputs": [],
      "stateMutability": "nonpayable",
      "type": "function"
    },
    {
      "inputs": [
        {
          "internalType": "address",
          "name": "account",
          "type": "address"
        },
        {
          "internalType": "Fixed6",
          "name": "makerAmount",
          "type": "int256"
        },
        {
          "internalType": "Fixed6",
          "name": "takerAmount",
          "type": "int256"
        },
        {
          "internalType": "Fixed6",
          "name": "collateral",
          "type": "int256"
        },
        {
          "internalType": "address",
          "name": "referrer",
          "type": "address"
        }
      ],
      "name": "update",
      "outputs": [],
      "stateMutability": "nonpayable",
      "type": "function"
    },
    {
      "inputs": [
        {
          "components": [
            {
              "components": [
                {
                  "internalType": "Fixed6",
                  "name": "amount",
                  "type": "int256"
                },
                {
                  "internalType": "Fixed6",
                  "name": "price",
                  "type": "int256"
                },
                {
                  "internalType": "UFixed6",
                  "name": "fee",
                  "type": "uint256"
                },
                {
                  "internalType": "address",
                  "name": "originator",
                  "type": "address"
                },
                {
                  "internalType": "address",
                  "name": "solver",
                  "type": "address"
                },
                {
                  "internalType": "UFixed6",
                  "name": "collateralization",
                  "type": "uint256"
                },
                {
                  "components": [
                    {
                      "internalType": "address",
                      "name": "account",
                      "type": "address"
                    },
                    {
                      "internalType": "address",
                      "name": "signer",
                      "type": "address"
                    },
                    {
                      "internalType": "address",
                      "name": "domain",
                      "type": "address"
                    },
                    {
                      "internalType": "uint256",
                      "name": "nonce",
                      "type": "uint256"
                    },
                    {
                      "internalType": "uint256",
                      "name": "group",
                      "type": "uint256"
                    },
                    {
                      "internalType": "uint256",
                      "name": "expiry",
                      "type": "uint256"
                    }
                  ],
                  "internalType": "struct Common",
                  "name": "common",
                  "type": "tuple"
                }
              ],
              "internalType": "struct Intent",
              "name": "intent",
              "type": "tuple"
            },
            {
              "components": [
                {
                  "internalType": "address",
                  "name": "account",
                  "type": "address"
                },
                {
                  "internalType": "address",
                  "name": "signer",
                  "type": "address"
                },
                {
                  "internalType": "address",
                  "name": "domain",
                  "type": "address"
                },
                {
                  "internalType": "uint256",
                  "name": "nonce",
                  "type": "uint256"
                },
                {
                  "internalType": "uint256",
                  "name": "group",
                  "type": "uint256"
                },
                {
                  "internalType": "uint256",
                  "name": "expiry",
                  "type": "uint256"
                }
              ],
              "internalType": "struct Common",
              "name": "common",
              "type": "tuple"
            }
          ],
          "internalType": "struct Fill",
          "name": "fill",
          "type": "tuple"
        },
        {
          "internalType": "bytes",
          "name": "traderSignature",
          "type": "bytes"
        },
        {
          "internalType": "bytes",
          "name": "solverSignature",
          "type": "bytes"
        }
      ],
      "name": "update",
      "outputs": [],
      "stateMutability": "nonpayable",
      "type": "function"
    },
    {
      "inputs": [
        {
          "internalType": "address",
          "name": "newCoordinator",
          "type": "address"
        }
      ],
      "name": "updateCoordinator",
      "outputs": [],
      "stateMutability": "nonpayable",
      "type": "function"
    },
    {
      "inputs": [
        {
          "components": [
            {
              "internalType": "UFixed6",
              "name": "fundingFee",
              "type": "uint256"
            },
            {
              "internalType": "UFixed6",
              "name": "interestFee",
              "type": "uint256"
            },
            {
              "internalType": "UFixed6",
              "name": "makerFee",
              "type": "uint256"
            },
            {
              "internalType": "UFixed6",
              "name": "takerFee",
              "type": "uint256"
            },
            {
              "internalType": "UFixed6",
              "name": "riskFee",
              "type": "uint256"
            },
            {
              "internalType": "uint256",
              "name": "maxPendingGlobal",
              "type": "uint256"
            },
            {
              "internalType": "uint256",
              "name": "maxPendingLocal",
              "type": "uint256"
            },
            {
              "internalType": "UFixed6",
              "name": "maxPriceDeviation",
              "type": "uint256"
            },
            {
              "internalType": "bool",
              "name": "closed",
              "type": "bool"
            },
            {
              "internalType": "bool",
              "name": "settle",
              "type": "bool"
            }
          ],
          "internalType": "struct MarketParameter",
          "name": "newParameter",
          "type": "tuple"
        }
      ],
      "name": "updateParameter",
      "outputs": [],
      "stateMutability": "nonpayable",
      "type": "function"
    },
    {
      "inputs": [
        {
          "components": [
            {
              "internalType": "UFixed6",
              "name": "margin",
              "type": "uint256"
            },
            {
              "internalType": "UFixed6",
              "name": "maintenance",
              "type": "uint256"
            },
            {
              "components": [
                {
                  "internalType": "UFixed6",
                  "name": "linearFee",
                  "type": "uint256"
                },
                {
                  "internalType": "UFixed6",
                  "name": "proportionalFee",
                  "type": "uint256"
                },
                {
                  "internalType": "UFixed6",
                  "name": "adiabaticFee",
                  "type": "uint256"
                },
                {
                  "internalType": "UFixed6",
                  "name": "scale",
                  "type": "uint256"
                }
              ],
              "internalType": "struct LinearAdiabatic6",
              "name": "takerFee",
              "type": "tuple"
            },
            {
              "components": [
                {
                  "internalType": "UFixed6",
                  "name": "linearFee",
                  "type": "uint256"
                },
                {
                  "internalType": "UFixed6",
                  "name": "proportionalFee",
                  "type": "uint256"
                },
                {
                  "internalType": "UFixed6",
                  "name": "scale",
                  "type": "uint256"
                }
              ],
              "internalType": "struct NoopAdiabatic6",
              "name": "makerFee",
              "type": "tuple"
            },
            {
              "internalType": "UFixed6",
              "name": "makerLimit",
              "type": "uint256"
            },
            {
              "internalType": "UFixed6",
              "name": "efficiencyLimit",
              "type": "uint256"
            },
            {
              "internalType": "UFixed6",
              "name": "liquidationFee",
              "type": "uint256"
            },
            {
              "components": [
                {
                  "internalType": "UFixed6",
                  "name": "minRate",
                  "type": "uint256"
                },
                {
                  "internalType": "UFixed6",
                  "name": "maxRate",
                  "type": "uint256"
                },
                {
                  "internalType": "UFixed6",
                  "name": "targetRate",
                  "type": "uint256"
                },
                {
                  "internalType": "UFixed6",
                  "name": "targetUtilization",
                  "type": "uint256"
                }
              ],
              "internalType": "struct UJumpRateUtilizationCurve6",
              "name": "utilizationCurve",
              "type": "tuple"
            },
            {
              "components": [
                {
                  "internalType": "UFixed6",
                  "name": "k",
                  "type": "uint256"
                },
                {
                  "internalType": "Fixed6",
                  "name": "min",
                  "type": "int256"
                },
                {
                  "internalType": "Fixed6",
                  "name": "max",
                  "type": "int256"
                }
              ],
              "internalType": "struct PController6",
              "name": "pController",
              "type": "tuple"
            },
            {
              "internalType": "UFixed6",
              "name": "minMargin",
              "type": "uint256"
            },
            {
              "internalType": "UFixed6",
              "name": "minMaintenance",
              "type": "uint256"
            },
            {
              "internalType": "uint256",
              "name": "staleAfter",
              "type": "uint256"
            },
            {
              "internalType": "bool",
              "name": "makerReceiveOnly",
              "type": "bool"
            }
          ],
          "internalType": "struct RiskParameter",
          "name": "newRiskParameter",
          "type": "tuple"
        }
      ],
      "name": "updateRiskParameter",
      "outputs": [],
      "stateMutability": "nonpayable",
      "type": "function"
    },
    {
      "inputs": [],
      "name": "verifier",
      "outputs": [
        {
          "internalType": "contract IVerifier",
          "name": "",
          "type": "address"
        }
      ],
      "stateMutability": "view",
      "type": "function"
    },
    {
      "inputs": [
        {
          "internalType": "uint256",
          "name": "timestamp",
          "type": "uint256"
        }
      ],
      "name": "versions",
      "outputs": [
        {
          "components": [
            {
              "internalType": "bool",
              "name": "valid",
              "type": "bool"
            },
            {
              "internalType": "Fixed6",
              "name": "price",
              "type": "int256"
            },
            {
              "components": [
                {
                  "internalType": "Fixed6",
                  "name": "_value",
                  "type": "int256"
                }
              ],
              "internalType": "struct Accumulator6",
              "name": "makerValue",
              "type": "tuple"
            },
            {
              "components": [
                {
                  "internalType": "Fixed6",
                  "name": "_value",
                  "type": "int256"
                }
              ],
              "internalType": "struct Accumulator6",
              "name": "longValue",
              "type": "tuple"
            },
            {
              "components": [
                {
                  "internalType": "Fixed6",
                  "name": "_value",
                  "type": "int256"
                }
              ],
              "internalType": "struct Accumulator6",
              "name": "shortValue",
              "type": "tuple"
            },
            {
              "components": [
                {
                  "internalType": "Fixed6",
                  "name": "_value",
                  "type": "int256"
                }
              ],
              "internalType": "struct Accumulator6",
              "name": "makerFee",
              "type": "tuple"
            },
            {
              "components": [
                {
                  "internalType": "Fixed6",
                  "name": "_value",
                  "type": "int256"
                }
              ],
              "internalType": "struct Accumulator6",
              "name": "takerFee",
              "type": "tuple"
            },
            {
              "components": [
                {
                  "internalType": "Fixed6",
                  "name": "_value",
                  "type": "int256"
                }
              ],
              "internalType": "struct Accumulator6",
              "name": "makerOffset",
              "type": "tuple"
            },
            {
              "components": [
                {
                  "internalType": "Fixed6",
                  "name": "_value",
                  "type": "int256"
                }
              ],
              "internalType": "struct Accumulator6",
              "name": "takerPosOffset",
              "type": "tuple"
            },
            {
              "components": [
                {
                  "internalType": "Fixed6",
                  "name": "_value",
                  "type": "int256"
                }
              ],
              "internalType": "struct Accumulator6",
              "name": "takerNegOffset",
              "type": "tuple"
            },
            {
              "components": [
                {
                  "internalType": "Fixed6",
                  "name": "_value",
                  "type": "int256"
                }
              ],
              "internalType": "struct Accumulator6",
              "name": "settlementFee",
              "type": "tuple"
            },
            {
              "components": [
                {
                  "internalType": "Fixed6",
                  "name": "_value",
                  "type": "int256"
                }
              ],
              "internalType": "struct Accumulator6",
              "name": "liquidationFee",
              "type": "tuple"
            }
          ],
          "internalType": "struct Version",
          "name": "",
          "type": "tuple"
        }
      ],
      "stateMutability": "view",
      "type": "function"
    }
  ],
  "transactionHash": "0x3706ccdcb4fabed6ff75ebe169754e53c29b5c93938d034d8fcb32a041d3e7fb",
  "args": [
    "0x7AAF9184EE1299226d46fFEB36595Bb8D0EdF753"
  ],
  "numDeployments": 2,
  "solcInputHash": "1eeb23a095cb26dedeffdda438cf05d8",
  "bytecode": "0x60a0346200008557601f6200604238819003918201601f19168301916001600160401b0383118484101762000089578084926020946040528339810103126200008557516001600160a01b03811681036200008557608052604051615fa490816200009e8239608051818181610288015281816107eb015281816117e70152611ef80152f35b5f80fd5b634e487b7160e01b5f52604160045260245ffdfe6080604081815260049081361015610015575f80fd5b5f9260e05f35811c91826305349f56146121e85750816309218e91146121be5781630cdfebfa1461216c5781631a65df2814611f5e5781632b56d95c14611f275781632b7ac3f314611ee35781634468d9b814611de45781634549a62914611dac57816355f5751014611d645781635b4b969514611d135781636a256b2914611c325781636e19368014611be95781636ebc51e114611948578163736a01df1461171a5781637cc4d340146116c75781637dc0d1d01461169e57816380ce5327146115a157816387aee00e146114e857816390dbc10b146110dc57816391eece2814610fea578163977b1f5f14610e41578163a05f990614610dc257508063a4d1548714610c05578063ac9ed34b14610bbf578063ad4d4e2914610b8a578063b68af80a14610b44578063b6a597dd14610a09578063c45a0155146109d4578063c496969b1461099e578063cee6c2ec14610943578063e1922c7c14610748578063e20ccec314610711578063f9f94e341461061e578063fc0c546a146105f2578063fe90945e146104bc5763ff6cade7146101af575f80fd5b346104b457366003190161028081126104b857610240136104b4576001600160401b036102448035828111610411576101eb903690860161245b565b926102649283359081116104b057610206903690870161245b565b5f80516020615f0f8339815191529460028654146104a057600286555f80516020615f2f833981519152548351635c975abb60e01b81526001600160a01b03959160209082908b9082908a165afa908115610496578a91610458575b506104485760443593620f424096600261027c89886154e3565b1461043857908a9291877f00000000000000000000000000000000000000000000000000000000000000001695863b15610434578251635f2d6ed760e01b81526101a497906102cd818f018f6127ff565b8681806102e76101849b6101a08d8401528d830190612860565b038183865af1801561042a57908791610415575b5050803b1561041157610333868e6103478a95839761026061033c9b8b519c8d9a8b998a98634619e6f360e01b8a52808a01906127ff565b808801906127a5565b850152830190612860565b03925af190811561040857506103ef575b5050359083821682036103eb57359583871687036103eb57878080806103a3956103988296359a61039361038d825f1961289e565b8d61289e565b613810565b6024359c8d9261383e565b60c4359082821682036103eb5760e4359280841684036103eb5760643581811681036103eb5760843591821682036103eb576001976103e796899660a4359661383e565b5580f35b5f80fd5b816103f991612263565b61040457875f610358565b8780fd5b513d84823e3d90fd5b8580fd5b8161041f91612263565b61041157855f6102fb565b85513d89823e3d90fd5b8480fd5b8151630f4e914b60e11b81528a90fd5b8351634b94d2bb60e01b81528890fd5b90506020813d60201161048e575b8161047360209383612263565b8101031261048a5761048490612642565b5f610262565b8980fd5b3d9150610466565b85513d8c823e3d90fd5b82516345f6780960e11b81528790fd5b8680fd5b8280fd5b8380fd5b50346104b45760a03660031901126104b4576001600160a01b039180359083821682036103eb576084359284841684036103eb575f80516020615f0f8339815191529460028654146105e45760208391600288555f80516020615f2f8339815191525416835192838092635c975abb60e01b82525afa9081156105da5787916105a0575b5061059357856001866103e75f8861055c828080848a8e613af9565b6105846080830151888661014085015192608086015193606435916044359160243591614a0c565b9061058d6125fc565b92614013565b51634b94d2bb60e01b8152fd5b90506020813d6020116105d2575b816105bb60209383612263565b810103126104b0576105cc90612642565b5f610540565b3d91506105ae565b82513d89823e3d90fd5b50516345f6780960e11b8152fd5b83823461061a578160031936011261061a57905490516001600160a01b039091168152602090f35b5080fd5b50346104b45760203660031901126104b45781356001600160a01b0381811693918490036103eb57816020825f80516020615f2f8339815191525416855192838092638da5cb5b60e01b82525afa9081156107075786916106d8575b501633036106c25750600280546001600160a01b03191683179055519081527fc258faa9a17ddfdf4130b4acff63a289202e7d5f9e42f366add65368575486bc90602090a180f35b6024915190634d193d1f60e01b82523390820152fd5b6106fa915060203d602011610700575b6106f28183612263565b81019061256a565b5f61067a565b503d6106e8565b84513d88823e3d90fd5b83823461061a578160031936011261061a576101a09061072f6126ed565b5061074661073d60116148d5565b915180926123be565bf35b50346104b45761012090366003190182811261043457610100136104b85761010480356001600160401b03811161041157610786903690860161245b565b925f80516020615f0f83398151915293600285541461093357600285555f80516020615f2f833981519152548451635c975abb60e01b81526001600160a01b03959160209082908a9082908a165afa9081156109295789916108ef575b506108e057847f00000000000000000000000000000000000000000000000000000000000000001693843b156108dc578151926379ed496760e11b84528835809985015260243595878716918288036103eb578b86610865819593839a8498849660248601526108576044860160446127a5565b840152610124830190612860565b03925af190811561040857506108c7575b50506044359082821682036103eb5760643592831683036103eb576001946105846108a9888080866103e7998299613af9565b91909288868060808701519381610140880151608089015196614a0c565b816108d191612263565b61043457845f610876565b8880fd5b51634b94d2bb60e01b81528690fd5b90506020813d602011610921575b8161090a60209383612263565b810103126108dc5761091b90612642565b5f6107e3565b3d91506108fd565b82513d8b823e3d90fd5b83516345f6780960e11b81528690fd5b5090346104b457816003193601126104b457356001600160a01b038116908190036103eb5761099582610120946107469361097c6125fc565b508152601a602052818120602435825260205220614982565b9151809261229a565b5090346104b45760203660031901126104b45761073d826101a094610746936109c56126ed565b50358152600f602052206148d5565b83823461061a578160031936011261061a575f80516020615f2f8339815191525490516001600160a01b039091168152602090f35b5090346104b457816003193601126104b4576001907f6fee9688c285c5c5c97d6a1a29adced674e6b2ad0888b8ad2116b58a8b3ea2488281541015610b2e57829055303b151580610b27575b610b1257335f80516020615f2f83398151915255303b151580610b20575b610b1257815f80516020615f0f83398151915255359060018060a01b03928383168093036103eb5784546001600160a01b0319908116909317855560243593841693849003610434577fbe9b076dc5b65990cca9dd9d7366682482e7817a6f6bc7f4faf4dc32af497f3293602093835416178255847f2801b00eb06461cf9fcb9758b5fafd884ff06a86177386f73b6c49f0bf5a5af05551908152a180f35b825163b9a621e160e01b8152fd5b5083610a73565b5083610a55565b509151631edb9c6d60e11b815291820152602490fd5b5090346104b457816003193601126104b4576001600160a01b039035818116908190036103eb578383916020955260168552818120602435825285522054169051908152f35b83823461061a578160031936011261061a5761014090610ba8612a37565b50610746610bb66006614846565b915180926124df565b5090346104b457816003193601126104b4576001600160a01b039035818116908190036103eb578383916020955260178552818120602435825285522054169051908152f35b5091903461061a578160031936011261061a575f80516020615f2f833981519152548351638da5cb5b60e01b81526001600160a01b03929160209082908490829087165afa908115610db8579083918591610d99575b50163303610d825792829383610c716008613654565b9360c085019081516001610c84826147e7565b14610d60575b5081515f19610c98826147e7565b14610d39575b5050805184519081527f25e5e4c41e0fec8db036b4544824413a63ffe455e2b4decd71d72932f607ff5960203392a25273FB17EB91262c4d4ef81C5f00A216Cf4F31556a2290813b15610434576101446008918693610d148651978895869463045a766b60e01b8652850152602484019061274f565b5af49081156104085750610d255750f35b81610d2f91612263565b610d365780f35b80fd5b610d51610d4c610d599386541692615657565b6137b3565b903390614803565b5f80610c9e565b610d7c90610d74610d4c8487541692615657565b9033906137cd565b5f610c8a565b602490845190634d193d1f60e01b82523390820152fd5b610db2915060203d602011610700576106f28183612263565b5f610c5b565b85513d86823e3d90fd5b828534610d365780600319360112610d365750602061012092610de36129e1565b5080610def6008613654565b8451948151865284820151858701528082015190860152606081015160608601526080810151608086015260a081015160a086015260c081015160c08601520151908151908401520151610100820152f35b84939150346104b8573660031901126104b4576001600160a01b0391813583811681036103eb576084359160a4359182151583036103eb5760c4359486861686036103eb575f80516020615f0f833981519152966002885414610fdb576020829160028a555f80516020615f2f8339815191525416855192838092635c975abb60e01b82525afa908115610fd1578991610f97575b50610f89575092869261058486936001610ef9878080849d9c816103e79d613af9565b94909582610f0a8160ff1b836159db565b03610f845750610f348360c08801510151610393620f424091610f2e835f1961289e565b9061289e565b610140860193610f5e610f4f6024356020885101518b61554e565b9160443590875101518a61554e565b90610f716064356060885101518b61554e565b9260808a0151965160808a015197613e93565b610f34565b8251634b94d2bb60e01b8152fd5b90506020813d602011610fc9575b81610fb260209383612263565b810103126108dc57610fc390612642565b89610ed6565b3d9150610fa5565b84513d8b823e3d90fd5b5082516345f6780960e11b8152fd5b505090346104b45760c03660031901126104b4576001600160a01b03918135919083831683036103eb576084359260a4359283151584036103eb575f80516020615f0f833981519152956002875414610fdb5760208291600289555f80516020615f2f8339815191525416855192838092635c975abb60e01b82525afa9081156110d2578891611098575b50610f895750600194936103e793610584889488610ef98780808080809b613af9565b90506020813d6020116110ca575b816110b360209383612263565b81010312610404576110c490612642565b5f611075565b3d91506110a6565b84513d8a823e3d90fd5b848484346104b4576102e03660031901126104b45780516110ff6101a082612263565b82358152602092602435848301526111183660446124a1565b838301526060958660c3193601126104115783516111368882612263565b60c435815260e4358682015261010435858201528784015261012435608084015261014490813560a08501526101643560c0850152611177366101846124a1565b9084015286610203193601126104115783516111938882612263565b61020435815261022435868201526102443585820152610100840152610120926102643584820152610284356101408201526102a4356101608201526102c43580151581036103eb5761018082015260018060a01b03958660025416331415908161147c575b5061146c576112086008613654565b93611213600a612a84565b9161121e6003612b98565b97858373eea68DbE228210454D4443f4E1B37E842B848C3d925f80516020615f2f83398151915254168a519283809263ad4d4e2960e01b82525afa938415611462578b94611433575b5050803b1561048a576104248a9261129d926112a88b5196879586946302903c7960e21b865260038d87015260248601906129bd565b61030484019061229a565b5af4801561142957908891611414575b505084806112c66003612b98565b970151918882808a0151926112da906154ff565b928c848460a08c01516112ec90615657565b9788938501519401516112fe94615d9f565b9b85015194015161130e94615d9f565b968688820398128189128116918913901516176114015760c083019687518782820392128183128116918313901516176113ee578697969495965273FB17EB91262c4d4ef81C5f00A216Cf4F31556a2290813b1561043457849260089261138c8851968795869463045a766b60e01b8652850152602484019061274f565b5af480156113e4576113cf575b5081517f685ea8dd49033251570436255683e840d43dd33fbc52b69e04450747dc56fed290806113c98682612309565b0390a180f35b816113d991612263565b6104b4578284611399565b83513d84823e3d90fd5b634e487b7160e01b875260118352602487fd5b634e487b7160e01b865260118252602486fd5b8161141e91612263565b6104b05786896112b8565b86513d8a823e3d90fd5b611453929450803d1061145b575b61144b8183612263565b810190612589565b918b80611267565b503d611441565b89513d8d823e3d90fd5b8451639bca062560e01b81528390fd5b90508381885f80516020615f2f8339815191525416885192838092638da5cb5b60e01b82525afa9182156114de57908892918a926114c1575b505016331415896111f9565b6114d79250803d10610700576106f28183612263565b8a806114b5565b87513d8b823e3d90fd5b91929050346104b85760203660031901126104b857826101809461151d9261150e6128d4565b50358152600e6020522061390e565b90825192825115158452602083015160208501528083015151908401526060820151516060840152608082015151608084015260a08201515160a084015260c08201515160c0840152808201515190830152610100808201515190830152610120808201515190830152610140808201515190830152610160809101515190820152f35b5050346104b45760603660031901126104b4576001600160a01b039180359083821682036103eb576044359284841684036103eb575f80516020615f0f8339815191529460028654146105e45760208391600288555f80516020615f2f8339815191525416835192838092635c975abb60e01b82525afa9081156105da578791611664575b5061059357856001866103e7838861164282808084338e613af9565b6105846080830151888680610140860151938160808801519560243592614a0c565b90506020813d602011611696575b8161167f60209383612263565b810103126104b05761169090612642565b5f611626565b3d9150611672565b84833461061a578160031936011261061a5760015490516001600160a01b039091168152602090f35b505090346104b457816003193601126104b457356001600160a01b038116908190036103eb5761073d826101a094610746936117016126ed565b508152601060205281812060243582526020522061359b565b5050346104b4576101c03660031901126104b4578135916001600160a01b0380841684036103eb57610180366023190112610434576101a49182356001600160401b0381116104b057611770903690830161245b565b5f80516020615f0f8339815191529460028654146119395760028655826020855f80516020615f2f8339815191525416835192838092635c975abb60e01b82525afa9081156109295789916118ff575b506118f05760643592620f42409560026117da88876154e3565b146118e1579089939291867f000000000000000000000000000000000000000000000000000000000000000016803b1561041157611833868094611844875198899687958694635f2d6ed760e01b8652850160246127ff565b6101a0610184850152830190612860565b03925af190811561040857506118cc575b50808080806118879461187960243599610393611873825f1961289e565b8c61289e565b9a6044359b8c91339061383e565b60e4359082821682036103eb57610104359280841684036103eb5760843581811681036103eb5760a43591821682036103eb576001976103e796899660c4359661383e565b816118d691612263565b61041157855f611855565b509051630f4e914b60e11b8152fd5b51634b94d2bb60e01b81529050fd5b90506020813d602011611931575b8161191a60209383612263565b810103126108dc5761192b90612642565b5f6117c0565b3d915061190d565b516345f6780960e11b81529050fd5b5050346104b45760209283600319360112610d365782356001600160a01b0381811692918390036103eb578233141580611b63575b611b5357819461198d6008613654565b848452600c885261199f868520612d9c565b918089855f80516020615f2f8339815191525416895192838092638da5cb5b60e01b82525afa908115611b49579085918791611b2c575b50168614611b13575b83600154168614611afb575b83600254168614611ae3575b84611a0860608501998a5190612fe8565b985273FB17EB91262c4d4ef81C5f00A216Cf4F31556a22803b15610411576101448692600892611a4f8b51968795869463045a766b60e01b8652850152602484019061274f565b5af48015611ad957908491611ac4575b509084611a739252600c88528584206136f3565b84611a82575b50505051908152f35b611a91915416610d74856137b3565b8151908382527f4a34429a0ef883c4301d5b40aa8ae85d4eb024946062f2c7ebd8320acedc831a853393a35f8080611a79565b81611ace91612263565b6104b457825f611a5f565b86513d86823e3d90fd5b84611af460808401998a5190612fe8565b98526119f7565b84611b0c60608401998a5190612fe8565b98526119eb565b96508581019684611b25895182612fe8565b98526119df565b611b4391508b3d8d11610700576106f28183612263565b5f6119d6565b88513d88823e3d90fd5b50505051633222db4560e01b8152fd5b50604486825f80516020615f2f833981519152541686519283809263131bac4760e11b8252888b8301523360248301525afa908115611bdf578391611baa575b501561197d565b90508681813d8311611bd8575b611bc18183612263565b810103126104b457611bd290612642565b5f611ba3565b503d611bb7565b85513d85823e3d90fd5b505090346104b45760203660031901126104b457356001600160a01b038116908190036103eb5761073d826101a09461074693611c246126ed565b50815260146020522061359b565b505090346104b45760203660031901126104b4576001600160a01b03918135919083831683036103eb575f80516020615f0f8339815191529360028554146105e45760208391600287555f80516020615f2f8339815191525416835192838092635c975abb60e01b82525afa908115611d09578691611ccf575b5061059357846001856103e7611cc187612eb4565b611cca81612ff5565b6132ff565b90506020813d602011611d01575b81611cea60209383612263565b8101031261041157611cfb90612642565b5f611cac565b3d9150611cdd565b82513d88823e3d90fd5b505090346104b45760203660031901126104b457356001600160a01b038116908190036103eb57611d5b8260809461074693611d4d612544565b508152600c60205220612d9c565b91518092612240565b505090346104b45760203660031901126104b457356001600160a01b038116908190036103eb57611d5b8260809461074693611d9e612544565b508152600d60205220612d20565b84833461061a578160031936011261061a57611de090611dca61266f565b50611dd56003612b98565b905191829182612309565b0390f35b5050346104b45760803660031901126104b4576001600160a01b039180359083821682036103eb576064359284841684036103eb575f80516020615f0f8339815191529460028654146105e45760208391600288555f80516020615f2f8339815191525416835192838092635c975abb60e01b82525afa9081156105da578791611ea9575b5061059357856001866103e78388611e8582808084818e613af9565b61058460808301518886610140850151608086015193826044359260243592614a0c565b90506020813d602011611edb575b81611ec460209383612263565b810103126104b057611ed590612642565b5f611e69565b3d9150611eb7565b84833461061a578160031936011261061a57517f00000000000000000000000000000000000000000000000000000000000000006001600160a01b03168152602090f35b505090346104b45760203660031901126104b457610995826101209461074693611f4f6125fc565b50358152601960205220612b1b565b84848492346103eb5761014091826003193601126103eb57845191611f838484612263565b813583526024356020840152604435868401526064356060840152608435608084015260a43560a084015260c43560c084015260e435908301526101043580151581036103eb57610100830152610124359081151582036103eb57610120838101929092525f80516020615f2f833981519152548651638da5cb5b60e01b81526001600160a01b039182169291906020818481875afa908115612162575f91612143575b5016330361212c57808373dA381aeD086f544BaC66e73C071E158374cc105B9389519283809263ad4d4e2960e01b82525afa938415612122575f94612103575b5050813b156103eb576102846006915f936120a78a5196879586946373a328f760e11b865285015261209c602485018a6124df565b61016484019061229a565b5af480156120f9576120d4575b506120d05f80516020615f4f83398151915293945180926124df565ba180f35b5f80516020615f4f83398151915293505f6120ee91612263565b6120d05f93506120b4565b85513d5f823e3d90fd5b61211a929450803d1061145b5761144b8183612263565b918780612067565b88513d5f823e3d90fd5b602490875190634d193d1f60e01b82523390820152fd5b61215c915060203d602011610700576106f28183612263565b89612027565b89513d5f823e3d90fd5b8284346103eb57816003193601126103eb57356001600160a01b03811691908290036103eb5760809161219d612544565b505f526015602052805f206024355f52602052610746611d5b825f20612ace565b82346103eb575f3660031901126103eb576080906121da612544565b50610746611d5b600a612a84565b839085346103eb57826003193601126103eb576001600160a01b03903581811693908490036103eb576020935f5260188452805f206024355f5284525f2054168152f35b35906001600160a01b03821682036103eb57565b606080918051845260208101516020850152604081015160408501520151910152565b601f909101601f19168101906001600160401b0382119082101761228657604052565b634e487b7160e01b5f52604160045260245ffd5b805182526020810151602083015260408101516040830152606081015160608301526080810151608083015260a081015160a083015260c081015160c083015260e081015160e083015261010080910151910152565b6040809180518452602081015160208501520151910152565b9190916102c06102e0820193805183526020810151602084015261233560408201516040850190612240565b612347606082015160c08501906122f0565b608081015190610120918285015260a0810151610140908186015260c082015190610160918287015260e0830151936123866101809586890190612240565b61239a6101008501516102008901906122f0565b8301516102608701528201516102808601528101516102a085015201511515910152565b805182526020810151602083015260408101516040830152606081015160608301526080810151608083015260a081015160a083015260c081015160c083015260e081015160e0830152610100808201519083015261012080820151908301526101408082015190830152610160808201519083015261018080910151910152565b6001600160401b03811161228657601f01601f191660200190565b81601f820112156103eb5780359061247282612440565b926124806040519485612263565b828452602083830101116103eb57815f926020809301838601378301015290565b91908260809103126103eb576040516124bb608082612263565b60608082948035845260208101356020850152604081013560408501520135910152565b805182526020810151602083015260408101516040830152606081015160608301526080810151608083015260a081015160a083015260c081015160c083015260e081015160e083015261010080820151151590830152610120809101511515910152565b60405190612553608083612263565b5f6060838281528260208201528260408201520152565b908160209103126103eb57516001600160a01b03811681036103eb5790565b809161012092839103126103eb576125a46040519283612263565b805182526020810151602083015260408101516040830152606081015160608301526080810151608083015260a081015160a083015260c081015160c083015260e081015160e0830152610100809101519082015290565b6040519061260c61012083612263565b5f610100838281528260208201528260408201528260608201528260808201528260a08201528260c08201528260e08201520152565b519081151582036103eb57565b6040519061265e606083612263565b5f6040838281528260208201520152565b6040519061267f6101a083612263565b5f61018083828152826020820152612695612544565b60408201526126a261264f565b60608201528260808201528260a08201528260c08201526126c1612544565b60e08201526126ce61264f565b6101008201528261012082015282610140820152826101608201520152565b604051906126fd6101a083612263565b5f610180838281528260208201528260408201528260608201528260808201528260a08201528260c08201528260e0820152826101008201528261012082015282610140820152826101608201520152565b602060e06101009280518552828101518386015260408101516040860152606081015160608601526080810151608086015260a081015160a086015260c081015160c08601520151805160e08501520151910152565b60a09081906001600160a01b03806127bc8361222c565b168552806127cc6020840161222c565b1660208601526127de6040830161222c565b16604085015260608101356060850152608081013560808501520135910152565b60c08061285e9383358152602084013560208201526040840135604082015261282a6060850161222c565b6001600160a01b0390811660608301526128466080860161222c565b16608082015260a084013560a08201520191016127a5565b565b91908251928382525f5b84811061288a575050825f602080949584010152601f8019910116010190565b60208183018101518483018201520161286a565b81810292915f8212600160ff1b8214166128c05781840514901517156128c057565b634e487b7160e01b5f52601160045260245ffd5b6040908151916128e661018084612263565b610160835f81526129b66020935f8584015280516129048682612263565b5f81528184015280516129178682612263565b5f81526060840152805161292b8682612263565b5f81526080840152805161293f8682612263565b5f815260a084015280516129538682612263565b5f815260c084015280516129678682612263565b5f815260e0840152805161297b8682612263565b5f815261010084015280516129908682612263565b5f815261012084015280516129a58682612263565b5f8152610140840152519384612263565b5f83520152565b6102c090805183526020810151602084015261233560408201516040850190612240565b604051906129f161010083612263565b815f81525f60208201525f60408201525f60608201525f60808201525f60a08201525f60c082015260e060405191612a2a604084612263565b5f83525f60208401520152565b60405190612a4761014083612263565b5f610120838281528260208201528260408201528260608201528260808201528260a08201528260c08201528260e0820152826101008201520152565b612a8c612544565b5054604051906001600160401b03612aa5608084612263565b63ffffffff82168352808260401c1660208401528160801c16604083015260c01c606082015290565b612ad6612544565b505460405190612ae7608083612263565b8060d01b60d01d825265ffffffffffff8160301c1660208301528060601b60c01d604083015260201b60c01d606082015290565b612b236125fc565b508054600190910154604051916001600160401b0391612b4561012085612263565b63ffffffff821684525f60208501528281166040850152828160401c166060850152828160801c16608085015260c01c60a0840152818160201c1660c084015260601c1660e08201525f61010082015290565b60ff6101a091612ba661266f565b50805490600260018201549101549162ffffff9160608365ffffffffffff93612bd3858560481c16614aac565b604093845191612be4608084612263565b848460301c168352848460481c1660208401528484831c168684015281830152612c12878760181c16614aac565b90855191612c208284612263565b858560781c168352858560901c16602084015286830152612c45888560a81c16614aac565b92865196612c54608089612263565b868960781c168852868960901c166020890152868960a81c1681890152868960c01c1683890152805198612c88848b612263565b8a8d168a5260081b60e01d60208a01528b60b01b60e01d818a0152612caf81519e8f612263565b8d87871690528d6020888860181c169101528d01528b015260808a015260d81c1660a088015263ffffffff8560b01c1660c088015260e0870152610100860152808360501c166101208601528260801c166101408501528160d01c1661016084015260e81c16151561018082015290565b612d28612544565b5054602281901c60016001603e1b0316602082901c60031680612d9557815b60018203612d8c57600281925b03612d8457915b63ffffffff60405194612d6f608087612263565b16845260208401526040830152606082015290565b505f91612d5b565b60025f92612d54565b5f91612d47565b612da4612544565b50546040519063ffffffff612dba608084612263565b8181168352602082811c90911690830152608081811b60c01d60408401521c6001600160401b0316606082015290565b60405190612dfa61016083612263565b815f8152612e06612a37565b6020820152612e1361266f565b6040820152612e2061264f565b60608201525f6080820152612e336129e1565b60a0820152612e40612544565b60c0820152612e4d612544565b60e0820152612e5a612544565b610100820152612e686126ed565b610120820152610140612e796126ed565b910152565b91908260609103126103eb57604051612e98606082612263565b6040612e79818395805185526020810151602086015201612642565b906004612ebf612dea565b6001600160a01b03938416808252909390612eda6006614846565b60208601526080612eeb6003612b98565b926040938488015260015416835194858092631006976960e11b82525afa8015612fde575f905f90612f9c575b612f94945060808701526060860152612f316008613654565b60a0860152805f52600c602052612f49825f20612d9c565b60c0860152612f58600a612a84565b60e0860152805f52600d602052612f70825f20612d20565b610100860152612f8060116148d5565b6101208601525f5260146020525f2061359b565b610140830152565b505060803d608011612fd7575b612fb38185612263565b8301926080818503126103eb576060612fcf612f949583612e7e565b910151612f18565b503d612fa9565b82513d5f823e3d90fd5b919082018092116128c057565b60409081516060613007606083612263565b61300f6128d4565b825260209182810192613020612544565b845285820161302d61264f565b815260e08601908151515f52600e8352613048885f2061390e565b845260018060a01b0394858851165f5260158452885f20966101008901978851515f5285526130788a5f20612ace565b9052600186815416908451518b5193630e0886f960e41b8552600491600486015260a08560248181975afa9485156132f5575f956132c1575b508483949596526130c760a08d019687516156b1565b826130d06126ed565b945b61323c575b61318b575b5050505050610120838801510151613181576060870191838351519151518211613157575b50505051519351518411613118575b505050505050565b61314c956131469160c08701908082510151958851165f526010815280835f20925101515f52525f2061359b565b93615179565b5f8080808080613110565b6131799251015190815f52600f85526131718a5f206148d5565b91868a614cc1565b5f8083613101565b5050505050505050565b8760c08d0180518281519101511415806131e0575b156131d9575101518381018091116131c7576131c2858e86938d835192615179565b6130d7565b85601184634e487b7160e01b5f52525ffd5b50506130dc565b50919293945050898c51165f52601088528c5f20888251015185810180911161322a5791838f8f97969594908c9461321d925f5285525f2061359b565b96015151865111156131a0565b86601186634e487b7160e01b5f52525ffd5b50855188815191015180911415908161327e575b508390156131c2575087865101518381018091116131c757613278858e86938d835192614cc1565b806130d2565b80929550849150018091116132af575f52600f875261329e8c5f206148d5565b9282818d0151518551111590613250565b84601183634e487b7160e01b5f52525ffd5b839495506132e69060a03d60a0116132ee575b6132de8183612263565b810190614ac4565b5094936130b1565b503d6132d4565b8d513d5f823e3d90fd5b73FB17EB91262c4d4ef81C5f00A216Cf4F31556a2260a082015191813b156103eb576101445f60409384519283809263045a766b60e01b825261334e859960086004850152602484019061274f565b5af480156135915761357c575b5080516001600160a01b039081168452600c60205282842060c0830151613381916136f3565b735bEA99BF18624AA504580546Ac9D9Ac3b9aeb74760e0830151813b15610411576133cb60a48792875194859384926366e4915160e01b8452600a60048501526024840190612240565b5af4801561355d57908591613567575b5050815181168452600d6020528284206101008301519073f817521610600c4674364246A5CF4af8e627805D803b156104b0579160a487926134379488519586948593635c7731d160e11b855260048501526024840190612240565b5af4801561355d57908591613548575b505073831E64292bF41bF0bDbC6D58d9FDd93D7C9396D790610120830151823b156104115784516397cf143760e01b815260116004820152928391879183916134949060248401906123be565b6101c49586915af4801561353e57908691613529575b505082511684526014602052828420610140738Da96a2eDe1dd5Af8Bd3BD142226820f6Bb0975193015192803b156104115791849391869361350596519687948593632b8d072960e11b8552600485015260248401906123be565b5af49081156104085750613517575050565b613522828092612263565b610d365750565b8161353391612263565b61043457845f6134aa565b85513d88823e3d90fd5b8161355291612263565b6104b857835f613447565b84513d87823e3d90fd5b8161357191612263565b6104b857835f6133db565b6135899193505f90612263565b5f915f61335b565b83513d5f823e3d90fd5b6135a36126ed565b5080546001820154600290920154604051926001600160401b039263ffffffff6135cf6101a087612263565b80821686528160201c1660208601528060801b60c01d6040860152838160801c16606086015260c01c608085015282811660a0850152828160401c1660c0850152828160801c1660e085015260c01c61010084015260018160801c1661012084015260ff8160811c1661014084015281811661016084015260401c1661018082015290565b61365c6129e1565b50600181549101549063ffffffff9165ffffffffffff60405192613681604085612263565b8260e01b60e01d84528260c81b60e81d6020850152604051946136a661010087612263565b80821686528160201c166020860152818160401c166040860152818160701c16606086015260a01c1660808401528060881b60c01d60a084015260481b60c01d60c083015260e082015290565b9063ffffffff808251116137a15760208201818151116137a15760408301916002613725600180603f1b0385516159db565b146137a157825161373f9060016001603f1b0319906159db565b156137a1576060840193600261375c60018060401b0387516154e3565b146137a1575191519251935160801b600160801b600160c01b031660409490941b600160401b600160801b031660209390931b63ffffffff60201b1691161717179055565b60405163320f423b60e21b8152600490fd5b64e8d4a51000908181029181830414901517156128c05790565b60405163a9059cbb60e01b60208201526001600160a01b03928316602482015260448082019490945292835261285e92919061380a606484612263565b166159ec565b811561382a57600160ff1b81145f198314166128c0570590565b634e487b7160e01b5f52601260045260245ffd5b8597859761285e9a976138f797613877979561385995613af9565b9390925f8080608087015193816101408a015160808b015196614a0c565b9384916138e0620f424061039360c0880151936138926125fc565b9a60208801518c5260a08801518c606060c08b01519160e08c0151610100809d015160a08301526080820152015260408d01525f14613900575f5b60c08c01526138db8b615b27565b61289e565b60208801526101808601805160e089015251615612565b90850152614013565b6139098a615afb565b6138cd565b6139166128d4565b508054600182015491600201548260c09160409384519160209485948461393e878097612263565b8460b81b831d815288516139528782612263565b8560781b841d81528951916139678884612263565b8660381b851d835260d09a8b97898251966139828289612263565b898b1b8b1d8852835199613996838c612263565b60a01b8b1d8a5283519a6139aa838d612263565b8160901b811d8c5284519c6139bf908e612263565b8160601b811d8d5284519d6139d4908f612263565b8d8260301b821d905284519e8f906139eb91612263565b1d8d528251809e6139fc8383612263565b8360081b901d905282519e8f92613a1561018085612263565b60ff1615158352881b881d9101528c015260608b015260808a015260a089015287015260e086015261010085015261012084015261014083015261016082015290565b60405190613a6861020083612263565b5f6101e0838281528260208201528260408201528260608201528260808201528260a08201528260c0820152613a9c6126ed565b60e0820152613aa96126ed565b610100820152613ab7612544565b610120820152613ac5612544565b610140820152613ad36125fc565b610160820152613ae16125fc565b610180820152826101a0820152826101c08201520152565b613b1b9096959391949296613b0c612dea565b50613b15613a58565b50612eb4565b95613b2587612ff5565b6060613b2f613a58565b95613b51613b4060e08b0151615b59565b61012081818b01528b01519061583b565b61010095613b75613b64888c0151615b59565b61014081818c01528c01519061583b565b60a08a018051515f52600f602052613b8f60405f206148d5565b60e08a015260018060a01b038b51165f52601060205260405f2060c08c0151515f52602052613bc060405f2061359b565b888a015251515f526019602052613bd960405f20612b1b565b61016089015260018060a01b038a51165f52601a60205260405f2060c08b0151515f52602052613c0b60405f20614982565b61018089015289516001600160a01b039081165f90815260166020908152604080832060c08f018051518552908352818420548516828e01528e51851684526017835281842081515185528352818420548516888e01528e51851684526018835281842090515184529091529081902054821660a08b01526101a08a01929092525f80516020615f2f833981519152548b51925163029138af60e21b81529282166004840152336024840152928116604483015293841660648201529283916084918391165afa908115613e88575f915f915f91613e38575b50608087015215156020860152151584526001600160a01b0316613e2d575b50613d1c613d1382860151615b59565b91850151615b99565b6101e0830152602060c08501510151600181018091116128c0575b60c0850151518111613e28576101c08301519060018060a01b038651165f52601a60205260405f20815f52602052613d7160405f20614982565b6020613d8e620f42406103938360608c015101516138db86615b27565b910151905f82820392128183128116918313901516176128c05780808401125f84129080158216911516176128c057613e1c92016101c085015260018060a01b038651165f52601060205260405f20815f52602052613df8613df260405f2061359b565b8461583b565b6101e0840151613e0784615b99565b80821115613e2157505b6101e0850152615533565b613d37565b9050613e11565b505090565b60c08301525f613d03565b925050506060813d606011613e80575b81613e5560609383612263565b810103126103eb57613e6681612642565b6040613e7460208401612642565b9201519091905f613ce4565b3d9150613e48565b6040513d5f823e3d90fd5b918894919599989399613ea46126ed565b9a602088015190613eb4916155ff565b92604088015190613ec4916155ff565b966060015190613ed3916155ff565b928a5260408a0152885f82135f1495613f83613f7e95613f7e613f9495613f8e95613f9a9b61400a57613f0582615657565b60608201525f82121561400157613f1b82615657565b60808201525f861315613ff857613f3186615657565b60a08201525f861215613fef57613f4786615657565b60c08201525f891315613fe657613f5d89615657565b60e08201525f891215613fda57610100613f768a615657565b910152615657565b615612565b6101608c0152615657565b91615657565b90612fe8565b610180850152613fcd575b613fae8361562b565b15613fb65750565b60016020840152613fc357565b6001610140830152565b6001610120840152613fa5565b610100613f765f615657565b613f5d5f615657565b613f475f615657565b613f315f615657565b613f1b5f615657565b613f055f615657565b93909192959495610120602086015101965f97516147d55760808601805161010086015151811161478d575b505160e0850151518111614758575b5061405e8561012086015161583b565b61406d8561014086015161583b565b61407c85610100860151615bc7565b61408a8560e0860151615bc7565b61409985610120880151615bc7565b6140a885610140880151615bc7565b6140b782610160860151615ce5565b6140c682610180860151615ce5565b60c08601519260408087015194019384515f82820192831291129080158216911516176128c05789945261012086015161474d575b6101608601511580159061473f575b614706575b506101008201516146bb575b506141258461562b565b158061468b575b614622575b73D691C504fC56582E3d0f97eC0Cf5CDC6b71778bE3b1561061a57604051638df462cb60e01b81529061427c9061416b6004840188614b44565b84511515610aa484015260208501511515610ac484015260408501516001600160a01b03908116610ae485015260608601518116610b048501526080860151610b2485015260a086015116610b4484015260c0850151610b6484015260e08501516141db90610b848501906123be565b6141ef610100860151610d248501906123be565b614203610120860151610ec4850190612240565b614217610140860151610f44850190612240565b61422b610160860151610fc485019061229a565b61423f6101808601516110e485019061229a565b6101a08501516112048401526101c08501516112248401526101e08501516112448401526142716112648401876123be565b61140483019061229a565b81816115248173D691C504fC56582E3d0f97eC0Cf5CDC6b71778bE5af480156145cd5761460d575b505060a083018051518652600f602052856040812073831E64292bF41bF0bDbC6D58d9FDd93D7C9396D760e085015190803b156104b85761430292849160405194859485936397cf143760e01b8552600485015260248401906123be565b6101c49485915af49081156146025783916145ed575b505060018060a01b03865116825260106020526040822060c08701515183526020526040822090738Da96a2eDe1dd5Af8Bd3BD142226820f6Bb097519061010086015190823b156104345761438a9385936040519586948593632b8d072960e11b8552600485015260248401906123be565b5af480156145cd576145d8575b5050515185526019602052604085208573DE7E2d1005Ea46a0e261E243F762Fc7Ca849ACAB61016084015190803b156104b4576143f1938391604051958694859363bf2ffa0360e01b85526004850152602484019061229a565b6101449586915af480156145cd576145b8575b505083516001600160a01b03168652601a6020908152604080882060c0870151518952909152862061018083015173fEeFDbcCfabF023A6a9F0fa0b67aEE80A861c7ed928892843b156104b857614476946040519586948593636435ad9960e11b85526004850152602484019061229a565b5af480156145ad57614598575b5060408181015184516001600160a01b0390811688526016602090815283892060c088018051518b52908252848a2080546001600160a01b03199081169585169590951790556060860151885184168b5260178352858b208251518c528352858b208054861691851691909117905560a090950151875183168a5260188252848a209551518a52949052828820805490921693169290921790915580820151939461285e949092906001614536826147e7565b14614578575b5001515f1961454a826147e7565b14614557575b50506132ff565b610d74610d4c6145719360018060a01b0390541692615657565b5f80614550565b61459290610d51610d4c60018060a01b0387541692615657565b5f61453c565b6145a3868092612263565b610434575f614483565b6040513d88823e3d90fd5b816145c291612263565b61041157855f614404565b6040513d84823e3d90fd5b816145e291612263565b61041157855f614397565b816145f791612263565b61061a57815f614318565b6040513d85823e3d90fd5b8161461791612263565b61043457845f6142a4565b60015485519192506001600160a01b039081169116813b156103eb575f91604483926040519485938492631a9be9fd60e11b845230600485015260248401525af18015613e8857614676575b508590614131565b6146839196505f90612263565b5f945f61466e565b506146b56146a2604083015160a084015190612fe8565b613f946060840151608085015190612fe8565b1561412c565b60a08401805192935090916001600160a01b039182918216156146fc575b51169116036146ea5785905f61411b565b604051639dbdc5fd60e01b8152600490fd5b81841681526146d9565b60608501805192945090916001600160a01b03918291821615614735575b51169116036146ea5786915f61410f565b8184168152614724565b50610180860151151561410a565b3360408601526140fb565b6147606126ed565b90815260e08501526147706125fc565b61016085015260a08601516147858151615533565b90525f61404e565b6147956126ed565b9081526101008601526147a66125fc565b6101808601525f60408601525f60608601525f60a086015260c08701516147cd8151615533565b90525f61403f565b604051630b8b968760e31b8152600490fd5b5f81136147fd575f136147f8575f90565b5f1990565b50600190565b6040516323b872dd60e01b60208201526001600160a01b03928316602482015230604482015260648082019490945292835261285e92919061380a608484612263565b61484e612a37565b50546008808260c81c62ffffff61ffff946040519561486f61014088612263565b8282168752828260181c166020880152828260301c166040880152828260481c166060880152828260601c166080880152808260781c1660a08801528160881c1660c087015260981c1660e0850152600480821614610100850152161461012082015290565b6148dd6126ed565b5080546001820154600290920154604051926001600160401b039263ffffffff6149096101a087612263565b80821686528160201c1660208601528060801b60c01d6040860152838160801c16606086015260c01c608085015282811660a0850152828160401c1660c0850152828160801c1660e085015260c01c6101008401525f6101208401525f61014084015281811661016084015260401c1661018082015290565b61498a6125fc565b5080546001820154600290920154604051926001600160401b039283916149b361012087612263565b63ffffffff821686528160a01b60c01d60208701528281166040870152828160401c166060870152828160801c16608087015260c01c60a086015260601c1660c084015281811660e084015260401c1661010082015290565b9291969594939096614a1c6126ed565b50614a2a6020890151615666565b5f82820192831291129080158216911516176128c057614a499061568f565b90614a53886154ff565b5f84820194851291129080158216911516176128c057614a96975f841315614aa357614a7e84615657565b935f811215614a9957614a9090615657565b94613e93565b90565b50614a905f615657565b614a7e5f615657565b620f4240908181029181830414901517156128c05790565b808203929160a084126103eb57614add60409183612e7e565b93605f1901126103eb57608060405191614af8604084612263565b606081015183520151602082015290565b91908260209103126103eb57604051614b23602082612263565b91518252565b60408091805184526020810151602085015201511515910152565b80516001600160a01b0316825260208082015161285e93926109009261014092614b70918601906124df565b614b8360408201516101608601906129bd565b614b966060820151610440860190614b29565b60808101516104a0850152614bb460a08201516104c086019061274f565b614bc760c08201516105e0860190612240565b614bda60e0820151610660860190612240565b614bee6101008201516106e0860190612240565b614c026101208201516107608601906123be565b01519101906123be565b8051151582526020810151602083015260408101515160408301526060810151516060830152608081015151608083015260a08101515160a083015260c08101515160c083015260e08101515160e08301526101008082015151908301526101208082015151908301526101408082015151908301526101608091015151910152565b90610200604061285e93614ca4848251614c0c565b614cb76020820151610180860190612240565b0151910190614b29565b929391909360018060a01b03600154166040948551938492630e0886f960e41b845284600485015283602460a09788935afa94851561516f575f935f9661514a575b5080830194614d138587516156b1565b614d1b6125fc565b97805182115f1461512d5750614d2f6126ed565b908152945b61012097614d45878a8701516156c9565b898601511561511e575b614d5761264f565b508951634d54b69d60e01b815290614da490614d766004840188614b44565b614d84610aa484018e614c8f565b85610d04840152614d99610d2484018a6123be565b610ec483019061229a565b614db2610fe4820187614b29565b875161104482015260208098019283516110648301526103009081836110848173136BbCEc28546b6bf20bF8fac8FB686ea0eE1EF55af49a8b15615114575f935f935f9d614f2c575b505050509160c09493918a9382528c525192614e40614e396080614e30614e298d8b01519751965187615612565b8096615541565b95015185615612565b8094615541565b9089850152614e538b8501918251612fe8565b9052614e716060840191614e6c83518b8d015190612fe8565b612fe8565b9052614e8260808301918251612fe8565b90520194868651910151905f82820192831291129080158216911516176128c05760e0614eb6928592600e9852015161583b565b84860152515f5252805f20737a98eFCe4A399794aE7524faEb2cc6A8eF730fCF9251833b156103eb576101a45f92614f089585519687948593631cf7ef4560e11b855260048501526024840190614c0c565b5af4908115614f235750614f195750565b5f61285e91612263565b513d5f823e3d90fd5b929c5094925095949250803d821161510d575b614f498186612263565b84019a848c039182126103eb57610180968783126103eb578790614fe88f8f908f614f7682519d8e612263565b614f7f8b612642565b8d52808b0151908d0152614f9582828c01614b09565b908c0152614fa68160608b01614b09565b60608c0152614fb88160808b01614b09565b60808c0152614fc981868b01614b09565b858c0152614fda8160c08b01614b09565b60c08c015260e08901614b09565b60e08a01526101009d8e614ffe82828b01614b09565b908b015261500e81838a01614b09565b828b015261014061502182828b01614b09565b908b015261503461016091828a01614b09565b908a015261017f198401126103eb5761504f8e519d8e612263565b8501518c526101a08501518b8d01526101c08501518d8d01526101e085015160608d015261020085015160808d0152610220850151908c015261024084015160c08c01528b61025f198201126103eb576060908c6150af81519182612263565b61026086015181526102808601518c82015260e08d015261029f1901126103eb5760c0946102e08c51946150e4606087612263565b6102a081015186526102c08101518c87015201518c8501529992999193945f8080959395614dfb565b503d614f3f565b8c513d5f823e3d90fd5b61512881886157f0565b614d4f565b95975050815f526019602052615144885f20612b1b565b96614d34565b908096506151659294503d87116132ee576132de8183612263565b929092945f614d03565b87513d5f823e3d90fd5b929094939161010090818501918251925f93515f52602091600e83526040996151a38b5f2061390e565b96805f52600e85526151b68c5f2061390e565b906151bf6125fc565b99805182115f146154b657506151d36126ed565b908152975b6151e7896101408d01516156c9565b8151156154a7575b6151f7612544565b508c51630604fb1160e21b81529961521260048c018d614b44565b615220610aa48c0185614c8f565b87610d048c0152610d248b01615236908b6123be565b610ec48b016152449161229a565b610fe48a0161525291614c0c565b611164890161526091614c0c565b818873f2240d873E9174F2a7B0c816109908812A8e47e0815a916112e492f497881561549d575f925f996153fa575b5050830190815260c08801518a8101908151938951945f86820196871291129080158216911516176128c057858a01946152c98651615666565b905f82820392128183128116918313901516176128c057868a9389926152f2965201525161583b565b60018060a01b0395868951165f52601584528a5f2090515f528352895f2073C233A4d46052f4927f2d60aefAC6aBb51bb5A2E09151823b156103eb5760a45f92615356948e51958694859363be49f2e760e01b855260048501526024840190612240565b5af480156153f0579160609695939161285e9a9b95936153d9575b508851861684526016825284842083855282528484205490516153969187168a615966565b8488511683526017815283832082845281526153bc85858520541685890151908a615966565b848851168352601881528383209183525220541691015191615966565b6153e69194505f90612263565b5f92615396615371565b8a513d5f823e3d90fd5b809299508193503d8311615496575b6154138183612263565b8101039081126103eb57608081126103eb5760808b51916154348284612263565b8351835285840151868401528c8401518d84015260608401516060840152607f1901126103eb57839060e08c519361546d608086612263565b6080810151855260a08101518486015260c08101518e860152015160608401529197905f61528f565b503d615409565b8b513d5f823e3d90fd5b6154b18a8a6157f0565b6151ef565b9899505060018060a01b038a51165f52601a85528b5f20865f5285526154dd8c5f20614982565b986151d8565b8181116154f857106154f457600190565b5f90565b5050600290565b61551960606155116040840151615666565b920151615666565b905f82820392128183128116918313901516176128c05790565b5f1981146128c05760010190565b919082039182116128c057565b600161555b5f19856154e3565b146155f957600161556e600119856154e3565b1461557857505090565b61014091925001805161559460a082015160c083015190612fe8565b151590816155db575b506155d7576155c5905160e06155bc606083015160a084015190612fe8565b91015190612fe8565b90808210156155d2575090565b905090565b5090565b6155f1915061010060e082015191015190612fe8565b15155f61559d565b50905090565b9061560c61551991615666565b91615666565b8181029181830414901517156128c057620f4240900490565b61563e6060820151608083015190612fe8565b159081615649575090565b6156539150615afb565b1590565b5f81126156615790565b5f0390565b6001600160ff1b0381116156775790565b6024906040519063eecaa25d60e01b82526004820152fd5b5f81126156995790565b6024906040519063b02ef08760e01b82526004820152fd5b90602001908151156156c1575050565b60a001519052565b602081016156dd8151602085015190615541565b90604083018051906040860151915f83820393128184128116918413901516176128c0576101206157178187019182519089015190615541565b9061014061572e818901918251908b015190615541565b90610160615745818b01918251908d015190615541565b908a61575d8d61018080930192835191015190615541565b9052525252525260608101906157798251606085015190615541565b92608082019061578f8251608083015190615541565b9260a08101906157a5825160a085015190615541565b9260c08201906157bb825160c083015190615541565b9260e08101906157e76157d4835160e086015190615541565b9361010080930192835191015190615541565b90525252525252565b6060905f9260e081015161018083015283610160830152604081015190838101519060a0608082015191015161010085015260e084015260c083015260a08201528260808201520152565b81518152602081019061584e8251615666565b61585b6060850151615666565b906158696080860151615666565b915f83820393128184128116918413901516176128c0575f82820192831291129080158216911516176128c05761589f9061568f565b9260408201906158af8251615666565b6158bc60a0830151615666565b906158ca60c0840151615666565b915f83820393128184128116918413901516176128c0575f82820192831291129080158216911516176128c05761590260609161568f565b93019061590f8251615666565b61592a61010061592260e0850151615666565b930151615666565b915f83820393128184128116918413901516176128c0575f82820192831291129080158216911516176128c0576159609061568f565b90525252565b9082156159d65781516001600160a01b039182169116810361599a5750606060c061599692015101918251612fe8565b9052565b61285e929150805f52600c6020526159b460405f20612d9c565b916159c460608401918251612fe8565b90525f52600c60205260405f206136f3565b505050565b8181136154f857126154f457600190565b602091615a72916001600160a01b03165f80615a0786612440565b93615a156040519586612263565b8685527f5361666545524332303a206c6f772d6c6576656c2063616c6c206661696c656487860152868151910182855af13d15615af3573d91615a5783612440565b92615a656040519485612263565b83523d5f8785013e615e71565b805180615a7e57505050565b818391810103126103eb5781615a949101612642565b15615a9c5750565b6084906040519062461bcd60e51b82526004820152602a60248201527f5361666545524332303a204552433230206f7065726174696f6e20646964206e6044820152691bdd081cdd58d8d9595960b21b6064820152fd5b606091615e71565b614a9690613f94615b1660a083015161010084015190612fe8565b9160c060e082015191015190612fe8565b615519615b43615b48615b43604085015160a086015190612fe8565b615666565b926080606082015191015190612fe8565b615b61612544565b50805190602081015190606060408201519101519160405193615b85608086612263565b845260208401526040830152606082015290565b6020604082015160608301518082115f14615bbf5750915b0151808211156155d2575090565b905091615bb1565b60208101615bdb8151602085015190612fe8565b90604083018051906040860151915f83820193841291129080158216911516176128c057610120615c158187019182519089015190612fe8565b90610140615c2c818901918251908b015190612fe8565b90610160615c43818b01918251908d015190612fe8565b908a615c5b8d61018080930192835191015190612fe8565b905252525252526060810190615c778251606085015190612fe8565b926080820190615c8d8251608083015190612fe8565b9260a0810190615ca3825160a085015190612fe8565b9260c0820190615cb9825160c083015190612fe8565b9260e08101906157e7615cd2835160e086015190612fe8565b9361010080930192835191015190612fe8565b90615cf38251825190612fe8565b8252602082018051906020830151915f83820193841291129080158216911516176128c05760408401615d2c8151604086015190612fe8565b9060608601615d418151606088015190612fe8565b9060808801615d56815160808a015190612fe8565b9060a08a01615d6b815160a08c015190612fe8565b90525252525260c0820190615d86825160c083015190612fe8565b9260e0810190615960615cd2835160e086015190612fe8565b939190811580615e69575b615e60578415615e4e5761039361039391610f2e61560c615e0395610393615dd18b615666565b99610f2e615dfd615df3615ded620f42409e8f9c8d809961289e565b9e615666565b610393868561289e565b9a615666565b92818101918212905f81129081159280158316908416176128c0578301928312908115169116176128c057614a9692610f2e6103939261039385615e4881600261289e565b9261289e565b60405163c7d40ac960e01b8152600490fd5b50505050505f90565b508315615daa565b91929015615ed35750815115615e85575090565b3b15615e8e5790565b60405162461bcd60e51b815260206004820152601d60248201527f416464726573733a2063616c6c20746f206e6f6e2d636f6e74726163740000006044820152606490fd5b825190915015615ee65750805190602001fd5b60405162461bcd60e51b815260206004820152908190615f0a906024830190612860565b0390fdfea9c835c21e93a672e5a6ef8ca0374f90b7d4378f7eec5769dcf22fdefd60ffae0aec74a1754fb10877b53c31a29be82096082042eb1fb374ec96fac88c0e621ba0c85df4ab9af89d2ff184f9d4c24f93d6105f799b04c85e12d76a89fa0f99f0a264697066735822122026074bbc7570b33cb6406fec00e9aa61e63cca852d95db6e386eaf8d423feb1d64736f6c63430008180033",
  "deployedBytecode": "0x6080604081815260049081361015610015575f80fd5b5f9260e05f35811c91826305349f56146121e85750816309218e91146121be5781630cdfebfa1461216c5781631a65df2814611f5e5781632b56d95c14611f275781632b7ac3f314611ee35781634468d9b814611de45781634549a62914611dac57816355f5751014611d645781635b4b969514611d135781636a256b2914611c325781636e19368014611be95781636ebc51e114611948578163736a01df1461171a5781637cc4d340146116c75781637dc0d1d01461169e57816380ce5327146115a157816387aee00e146114e857816390dbc10b146110dc57816391eece2814610fea578163977b1f5f14610e41578163a05f990614610dc257508063a4d1548714610c05578063ac9ed34b14610bbf578063ad4d4e2914610b8a578063b68af80a14610b44578063b6a597dd14610a09578063c45a0155146109d4578063c496969b1461099e578063cee6c2ec14610943578063e1922c7c14610748578063e20ccec314610711578063f9f94e341461061e578063fc0c546a146105f2578063fe90945e146104bc5763ff6cade7146101af575f80fd5b346104b457366003190161028081126104b857610240136104b4576001600160401b036102448035828111610411576101eb903690860161245b565b926102649283359081116104b057610206903690870161245b565b5f80516020615f0f8339815191529460028654146104a057600286555f80516020615f2f833981519152548351635c975abb60e01b81526001600160a01b03959160209082908b9082908a165afa908115610496578a91610458575b506104485760443593620f424096600261027c89886154e3565b1461043857908a9291877f00000000000000000000000000000000000000000000000000000000000000001695863b15610434578251635f2d6ed760e01b81526101a497906102cd818f018f6127ff565b8681806102e76101849b6101a08d8401528d830190612860565b038183865af1801561042a57908791610415575b5050803b1561041157610333868e6103478a95839761026061033c9b8b519c8d9a8b998a98634619e6f360e01b8a52808a01906127ff565b808801906127a5565b850152830190612860565b03925af190811561040857506103ef575b5050359083821682036103eb57359583871687036103eb57878080806103a3956103988296359a61039361038d825f1961289e565b8d61289e565b613810565b6024359c8d9261383e565b60c4359082821682036103eb5760e4359280841684036103eb5760643581811681036103eb5760843591821682036103eb576001976103e796899660a4359661383e565b5580f35b5f80fd5b816103f991612263565b61040457875f610358565b8780fd5b513d84823e3d90fd5b8580fd5b8161041f91612263565b61041157855f6102fb565b85513d89823e3d90fd5b8480fd5b8151630f4e914b60e11b81528a90fd5b8351634b94d2bb60e01b81528890fd5b90506020813d60201161048e575b8161047360209383612263565b8101031261048a5761048490612642565b5f610262565b8980fd5b3d9150610466565b85513d8c823e3d90fd5b82516345f6780960e11b81528790fd5b8680fd5b8280fd5b8380fd5b50346104b45760a03660031901126104b4576001600160a01b039180359083821682036103eb576084359284841684036103eb575f80516020615f0f8339815191529460028654146105e45760208391600288555f80516020615f2f8339815191525416835192838092635c975abb60e01b82525afa9081156105da5787916105a0575b5061059357856001866103e75f8861055c828080848a8e613af9565b6105846080830151888661014085015192608086015193606435916044359160243591614a0c565b9061058d6125fc565b92614013565b51634b94d2bb60e01b8152fd5b90506020813d6020116105d2575b816105bb60209383612263565b810103126104b0576105cc90612642565b5f610540565b3d91506105ae565b82513d89823e3d90fd5b50516345f6780960e11b8152fd5b83823461061a578160031936011261061a57905490516001600160a01b039091168152602090f35b5080fd5b50346104b45760203660031901126104b45781356001600160a01b0381811693918490036103eb57816020825f80516020615f2f8339815191525416855192838092638da5cb5b60e01b82525afa9081156107075786916106d8575b501633036106c25750600280546001600160a01b03191683179055519081527fc258faa9a17ddfdf4130b4acff63a289202e7d5f9e42f366add65368575486bc90602090a180f35b6024915190634d193d1f60e01b82523390820152fd5b6106fa915060203d602011610700575b6106f28183612263565b81019061256a565b5f61067a565b503d6106e8565b84513d88823e3d90fd5b83823461061a578160031936011261061a576101a09061072f6126ed565b5061074661073d60116148d5565b915180926123be565bf35b50346104b45761012090366003190182811261043457610100136104b85761010480356001600160401b03811161041157610786903690860161245b565b925f80516020615f0f83398151915293600285541461093357600285555f80516020615f2f833981519152548451635c975abb60e01b81526001600160a01b03959160209082908a9082908a165afa9081156109295789916108ef575b506108e057847f00000000000000000000000000000000000000000000000000000000000000001693843b156108dc578151926379ed496760e11b84528835809985015260243595878716918288036103eb578b86610865819593839a8498849660248601526108576044860160446127a5565b840152610124830190612860565b03925af190811561040857506108c7575b50506044359082821682036103eb5760643592831683036103eb576001946105846108a9888080866103e7998299613af9565b91909288868060808701519381610140880151608089015196614a0c565b816108d191612263565b61043457845f610876565b8880fd5b51634b94d2bb60e01b81528690fd5b90506020813d602011610921575b8161090a60209383612263565b810103126108dc5761091b90612642565b5f6107e3565b3d91506108fd565b82513d8b823e3d90fd5b83516345f6780960e11b81528690fd5b5090346104b457816003193601126104b457356001600160a01b038116908190036103eb5761099582610120946107469361097c6125fc565b508152601a602052818120602435825260205220614982565b9151809261229a565b5090346104b45760203660031901126104b45761073d826101a094610746936109c56126ed565b50358152600f602052206148d5565b83823461061a578160031936011261061a575f80516020615f2f8339815191525490516001600160a01b039091168152602090f35b5090346104b457816003193601126104b4576001907f6fee9688c285c5c5c97d6a1a29adced674e6b2ad0888b8ad2116b58a8b3ea2488281541015610b2e57829055303b151580610b27575b610b1257335f80516020615f2f83398151915255303b151580610b20575b610b1257815f80516020615f0f83398151915255359060018060a01b03928383168093036103eb5784546001600160a01b0319908116909317855560243593841693849003610434577fbe9b076dc5b65990cca9dd9d7366682482e7817a6f6bc7f4faf4dc32af497f3293602093835416178255847f2801b00eb06461cf9fcb9758b5fafd884ff06a86177386f73b6c49f0bf5a5af05551908152a180f35b825163b9a621e160e01b8152fd5b5083610a73565b5083610a55565b509151631edb9c6d60e11b815291820152602490fd5b5090346104b457816003193601126104b4576001600160a01b039035818116908190036103eb578383916020955260168552818120602435825285522054169051908152f35b83823461061a578160031936011261061a5761014090610ba8612a37565b50610746610bb66006614846565b915180926124df565b5090346104b457816003193601126104b4576001600160a01b039035818116908190036103eb578383916020955260178552818120602435825285522054169051908152f35b5091903461061a578160031936011261061a575f80516020615f2f833981519152548351638da5cb5b60e01b81526001600160a01b03929160209082908490829087165afa908115610db8579083918591610d99575b50163303610d825792829383610c716008613654565b9360c085019081516001610c84826147e7565b14610d60575b5081515f19610c98826147e7565b14610d39575b5050805184519081527f25e5e4c41e0fec8db036b4544824413a63ffe455e2b4decd71d72932f607ff5960203392a25273__$9d2bb023e3b7e03791b38ee879f762a6b9$__90813b15610434576101446008918693610d148651978895869463045a766b60e01b8652850152602484019061274f565b5af49081156104085750610d255750f35b81610d2f91612263565b610d365780f35b80fd5b610d51610d4c610d599386541692615657565b6137b3565b903390614803565b5f80610c9e565b610d7c90610d74610d4c8487541692615657565b9033906137cd565b5f610c8a565b602490845190634d193d1f60e01b82523390820152fd5b610db2915060203d602011610700576106f28183612263565b5f610c5b565b85513d86823e3d90fd5b828534610d365780600319360112610d365750602061012092610de36129e1565b5080610def6008613654565b8451948151865284820151858701528082015190860152606081015160608601526080810151608086015260a081015160a086015260c081015160c08601520151908151908401520151610100820152f35b84939150346104b8573660031901126104b4576001600160a01b0391813583811681036103eb576084359160a4359182151583036103eb5760c4359486861686036103eb575f80516020615f0f833981519152966002885414610fdb576020829160028a555f80516020615f2f8339815191525416855192838092635c975abb60e01b82525afa908115610fd1578991610f97575b50610f89575092869261058486936001610ef9878080849d9c816103e79d613af9565b94909582610f0a8160ff1b836159db565b03610f845750610f348360c08801510151610393620f424091610f2e835f1961289e565b9061289e565b610140860193610f5e610f4f6024356020885101518b61554e565b9160443590875101518a61554e565b90610f716064356060885101518b61554e565b9260808a0151965160808a015197613e93565b610f34565b8251634b94d2bb60e01b8152fd5b90506020813d602011610fc9575b81610fb260209383612263565b810103126108dc57610fc390612642565b89610ed6565b3d9150610fa5565b84513d8b823e3d90fd5b5082516345f6780960e11b8152fd5b505090346104b45760c03660031901126104b4576001600160a01b03918135919083831683036103eb576084359260a4359283151584036103eb575f80516020615f0f833981519152956002875414610fdb5760208291600289555f80516020615f2f8339815191525416855192838092635c975abb60e01b82525afa9081156110d2578891611098575b50610f895750600194936103e793610584889488610ef98780808080809b613af9565b90506020813d6020116110ca575b816110b360209383612263565b81010312610404576110c490612642565b5f611075565b3d91506110a6565b84513d8a823e3d90fd5b848484346104b4576102e03660031901126104b45780516110ff6101a082612263565b82358152602092602435848301526111183660446124a1565b838301526060958660c3193601126104115783516111368882612263565b60c435815260e4358682015261010435858201528784015261012435608084015261014490813560a08501526101643560c0850152611177366101846124a1565b9084015286610203193601126104115783516111938882612263565b61020435815261022435868201526102443585820152610100840152610120926102643584820152610284356101408201526102a4356101608201526102c43580151581036103eb5761018082015260018060a01b03958660025416331415908161147c575b5061146c576112086008613654565b93611213600a612a84565b9161121e6003612b98565b97858373__$99ef06c6ddb41b143d1ff6a1811b993728$__925f80516020615f2f83398151915254168a519283809263ad4d4e2960e01b82525afa938415611462578b94611433575b5050803b1561048a576104248a9261129d926112a88b5196879586946302903c7960e21b865260038d87015260248601906129bd565b61030484019061229a565b5af4801561142957908891611414575b505084806112c66003612b98565b970151918882808a0151926112da906154ff565b928c848460a08c01516112ec90615657565b9788938501519401516112fe94615d9f565b9b85015194015161130e94615d9f565b968688820398128189128116918913901516176114015760c083019687518782820392128183128116918313901516176113ee578697969495965273__$9d2bb023e3b7e03791b38ee879f762a6b9$__90813b1561043457849260089261138c8851968795869463045a766b60e01b8652850152602484019061274f565b5af480156113e4576113cf575b5081517f685ea8dd49033251570436255683e840d43dd33fbc52b69e04450747dc56fed290806113c98682612309565b0390a180f35b816113d991612263565b6104b4578284611399565b83513d84823e3d90fd5b634e487b7160e01b875260118352602487fd5b634e487b7160e01b865260118252602486fd5b8161141e91612263565b6104b05786896112b8565b86513d8a823e3d90fd5b611453929450803d1061145b575b61144b8183612263565b810190612589565b918b80611267565b503d611441565b89513d8d823e3d90fd5b8451639bca062560e01b81528390fd5b90508381885f80516020615f2f8339815191525416885192838092638da5cb5b60e01b82525afa9182156114de57908892918a926114c1575b505016331415896111f9565b6114d79250803d10610700576106f28183612263565b8a806114b5565b87513d8b823e3d90fd5b91929050346104b85760203660031901126104b857826101809461151d9261150e6128d4565b50358152600e6020522061390e565b90825192825115158452602083015160208501528083015151908401526060820151516060840152608082015151608084015260a08201515160a084015260c08201515160c0840152808201515190830152610100808201515190830152610120808201515190830152610140808201515190830152610160809101515190820152f35b5050346104b45760603660031901126104b4576001600160a01b039180359083821682036103eb576044359284841684036103eb575f80516020615f0f8339815191529460028654146105e45760208391600288555f80516020615f2f8339815191525416835192838092635c975abb60e01b82525afa9081156105da578791611664575b5061059357856001866103e7838861164282808084338e613af9565b6105846080830151888680610140860151938160808801519560243592614a0c565b90506020813d602011611696575b8161167f60209383612263565b810103126104b05761169090612642565b5f611626565b3d9150611672565b84833461061a578160031936011261061a5760015490516001600160a01b039091168152602090f35b505090346104b457816003193601126104b457356001600160a01b038116908190036103eb5761073d826101a094610746936117016126ed565b508152601060205281812060243582526020522061359b565b5050346104b4576101c03660031901126104b4578135916001600160a01b0380841684036103eb57610180366023190112610434576101a49182356001600160401b0381116104b057611770903690830161245b565b5f80516020615f0f8339815191529460028654146119395760028655826020855f80516020615f2f8339815191525416835192838092635c975abb60e01b82525afa9081156109295789916118ff575b506118f05760643592620f42409560026117da88876154e3565b146118e1579089939291867f000000000000000000000000000000000000000000000000000000000000000016803b1561041157611833868094611844875198899687958694635f2d6ed760e01b8652850160246127ff565b6101a0610184850152830190612860565b03925af190811561040857506118cc575b50808080806118879461187960243599610393611873825f1961289e565b8c61289e565b9a6044359b8c91339061383e565b60e4359082821682036103eb57610104359280841684036103eb5760843581811681036103eb5760a43591821682036103eb576001976103e796899660c4359661383e565b816118d691612263565b61041157855f611855565b509051630f4e914b60e11b8152fd5b51634b94d2bb60e01b81529050fd5b90506020813d602011611931575b8161191a60209383612263565b810103126108dc5761192b90612642565b5f6117c0565b3d915061190d565b516345f6780960e11b81529050fd5b5050346104b45760209283600319360112610d365782356001600160a01b0381811692918390036103eb578233141580611b63575b611b5357819461198d6008613654565b848452600c885261199f868520612d9c565b918089855f80516020615f2f8339815191525416895192838092638da5cb5b60e01b82525afa908115611b49579085918791611b2c575b50168614611b13575b83600154168614611afb575b83600254168614611ae3575b84611a0860608501998a5190612fe8565b985273__$9d2bb023e3b7e03791b38ee879f762a6b9$__803b15610411576101448692600892611a4f8b51968795869463045a766b60e01b8652850152602484019061274f565b5af48015611ad957908491611ac4575b509084611a739252600c88528584206136f3565b84611a82575b50505051908152f35b611a91915416610d74856137b3565b8151908382527f4a34429a0ef883c4301d5b40aa8ae85d4eb024946062f2c7ebd8320acedc831a853393a35f8080611a79565b81611ace91612263565b6104b457825f611a5f565b86513d86823e3d90fd5b84611af460808401998a5190612fe8565b98526119f7565b84611b0c60608401998a5190612fe8565b98526119eb565b96508581019684611b25895182612fe8565b98526119df565b611b4391508b3d8d11610700576106f28183612263565b5f6119d6565b88513d88823e3d90fd5b50505051633222db4560e01b8152fd5b50604486825f80516020615f2f833981519152541686519283809263131bac4760e11b8252888b8301523360248301525afa908115611bdf578391611baa575b501561197d565b90508681813d8311611bd8575b611bc18183612263565b810103126104b457611bd290612642565b5f611ba3565b503d611bb7565b85513d85823e3d90fd5b505090346104b45760203660031901126104b457356001600160a01b038116908190036103eb5761073d826101a09461074693611c246126ed565b50815260146020522061359b565b505090346104b45760203660031901126104b4576001600160a01b03918135919083831683036103eb575f80516020615f0f8339815191529360028554146105e45760208391600287555f80516020615f2f8339815191525416835192838092635c975abb60e01b82525afa908115611d09578691611ccf575b5061059357846001856103e7611cc187612eb4565b611cca81612ff5565b6132ff565b90506020813d602011611d01575b81611cea60209383612263565b8101031261041157611cfb90612642565b5f611cac565b3d9150611cdd565b82513d88823e3d90fd5b505090346104b45760203660031901126104b457356001600160a01b038116908190036103eb57611d5b8260809461074693611d4d612544565b508152600c60205220612d9c565b91518092612240565b505090346104b45760203660031901126104b457356001600160a01b038116908190036103eb57611d5b8260809461074693611d9e612544565b508152600d60205220612d20565b84833461061a578160031936011261061a57611de090611dca61266f565b50611dd56003612b98565b905191829182612309565b0390f35b5050346104b45760803660031901126104b4576001600160a01b039180359083821682036103eb576064359284841684036103eb575f80516020615f0f8339815191529460028654146105e45760208391600288555f80516020615f2f8339815191525416835192838092635c975abb60e01b82525afa9081156105da578791611ea9575b5061059357856001866103e78388611e8582808084818e613af9565b61058460808301518886610140850151608086015193826044359260243592614a0c565b90506020813d602011611edb575b81611ec460209383612263565b810103126104b057611ed590612642565b5f611e69565b3d9150611eb7565b84833461061a578160031936011261061a57517f00000000000000000000000000000000000000000000000000000000000000006001600160a01b03168152602090f35b505090346104b45760203660031901126104b457610995826101209461074693611f4f6125fc565b50358152601960205220612b1b565b84848492346103eb5761014091826003193601126103eb57845191611f838484612263565b813583526024356020840152604435868401526064356060840152608435608084015260a43560a084015260c43560c084015260e435908301526101043580151581036103eb57610100830152610124359081151582036103eb57610120838101929092525f80516020615f2f833981519152548651638da5cb5b60e01b81526001600160a01b039182169291906020818481875afa908115612162575f91612143575b5016330361212c57808373__$68bcd2ba7d2740641ed8e1b56e1d5406c7$__9389519283809263ad4d4e2960e01b82525afa938415612122575f94612103575b5050813b156103eb576102846006915f936120a78a5196879586946373a328f760e11b865285015261209c602485018a6124df565b61016484019061229a565b5af480156120f9576120d4575b506120d05f80516020615f4f83398151915293945180926124df565ba180f35b5f80516020615f4f83398151915293505f6120ee91612263565b6120d05f93506120b4565b85513d5f823e3d90fd5b61211a929450803d1061145b5761144b8183612263565b918780612067565b88513d5f823e3d90fd5b602490875190634d193d1f60e01b82523390820152fd5b61215c915060203d602011610700576106f28183612263565b89612027565b89513d5f823e3d90fd5b8284346103eb57816003193601126103eb57356001600160a01b03811691908290036103eb5760809161219d612544565b505f526015602052805f206024355f52602052610746611d5b825f20612ace565b82346103eb575f3660031901126103eb576080906121da612544565b50610746611d5b600a612a84565b839085346103eb57826003193601126103eb576001600160a01b03903581811693908490036103eb576020935f5260188452805f206024355f5284525f2054168152f35b35906001600160a01b03821682036103eb57565b606080918051845260208101516020850152604081015160408501520151910152565b601f909101601f19168101906001600160401b0382119082101761228657604052565b634e487b7160e01b5f52604160045260245ffd5b805182526020810151602083015260408101516040830152606081015160608301526080810151608083015260a081015160a083015260c081015160c083015260e081015160e083015261010080910151910152565b6040809180518452602081015160208501520151910152565b9190916102c06102e0820193805183526020810151602084015261233560408201516040850190612240565b612347606082015160c08501906122f0565b608081015190610120918285015260a0810151610140908186015260c082015190610160918287015260e0830151936123866101809586890190612240565b61239a6101008501516102008901906122f0565b8301516102608701528201516102808601528101516102a085015201511515910152565b805182526020810151602083015260408101516040830152606081015160608301526080810151608083015260a081015160a083015260c081015160c083015260e081015160e0830152610100808201519083015261012080820151908301526101408082015190830152610160808201519083015261018080910151910152565b6001600160401b03811161228657601f01601f191660200190565b81601f820112156103eb5780359061247282612440565b926124806040519485612263565b828452602083830101116103eb57815f926020809301838601378301015290565b91908260809103126103eb576040516124bb608082612263565b60608082948035845260208101356020850152604081013560408501520135910152565b805182526020810151602083015260408101516040830152606081015160608301526080810151608083015260a081015160a083015260c081015160c083015260e081015160e083015261010080820151151590830152610120809101511515910152565b60405190612553608083612263565b5f6060838281528260208201528260408201520152565b908160209103126103eb57516001600160a01b03811681036103eb5790565b809161012092839103126103eb576125a46040519283612263565b805182526020810151602083015260408101516040830152606081015160608301526080810151608083015260a081015160a083015260c081015160c083015260e081015160e0830152610100809101519082015290565b6040519061260c61012083612263565b5f610100838281528260208201528260408201528260608201528260808201528260a08201528260c08201528260e08201520152565b519081151582036103eb57565b6040519061265e606083612263565b5f6040838281528260208201520152565b6040519061267f6101a083612263565b5f61018083828152826020820152612695612544565b60408201526126a261264f565b60608201528260808201528260a08201528260c08201526126c1612544565b60e08201526126ce61264f565b6101008201528261012082015282610140820152826101608201520152565b604051906126fd6101a083612263565b5f610180838281528260208201528260408201528260608201528260808201528260a08201528260c08201528260e0820152826101008201528261012082015282610140820152826101608201520152565b602060e06101009280518552828101518386015260408101516040860152606081015160608601526080810151608086015260a081015160a086015260c081015160c08601520151805160e08501520151910152565b60a09081906001600160a01b03806127bc8361222c565b168552806127cc6020840161222c565b1660208601526127de6040830161222c565b16604085015260608101356060850152608081013560808501520135910152565b60c08061285e9383358152602084013560208201526040840135604082015261282a6060850161222c565b6001600160a01b0390811660608301526128466080860161222c565b16608082015260a084013560a08201520191016127a5565b565b91908251928382525f5b84811061288a575050825f602080949584010152601f8019910116010190565b60208183018101518483018201520161286a565b81810292915f8212600160ff1b8214166128c05781840514901517156128c057565b634e487b7160e01b5f52601160045260245ffd5b6040908151916128e661018084612263565b610160835f81526129b66020935f8584015280516129048682612263565b5f81528184015280516129178682612263565b5f81526060840152805161292b8682612263565b5f81526080840152805161293f8682612263565b5f815260a084015280516129538682612263565b5f815260c084015280516129678682612263565b5f815260e0840152805161297b8682612263565b5f815261010084015280516129908682612263565b5f815261012084015280516129a58682612263565b5f8152610140840152519384612263565b5f83520152565b6102c090805183526020810151602084015261233560408201516040850190612240565b604051906129f161010083612263565b815f81525f60208201525f60408201525f60608201525f60808201525f60a08201525f60c082015260e060405191612a2a604084612263565b5f83525f60208401520152565b60405190612a4761014083612263565b5f610120838281528260208201528260408201528260608201528260808201528260a08201528260c08201528260e0820152826101008201520152565b612a8c612544565b5054604051906001600160401b03612aa5608084612263565b63ffffffff82168352808260401c1660208401528160801c16604083015260c01c606082015290565b612ad6612544565b505460405190612ae7608083612263565b8060d01b60d01d825265ffffffffffff8160301c1660208301528060601b60c01d604083015260201b60c01d606082015290565b612b236125fc565b508054600190910154604051916001600160401b0391612b4561012085612263565b63ffffffff821684525f60208501528281166040850152828160401c166060850152828160801c16608085015260c01c60a0840152818160201c1660c084015260601c1660e08201525f61010082015290565b60ff6101a091612ba661266f565b50805490600260018201549101549162ffffff9160608365ffffffffffff93612bd3858560481c16614aac565b604093845191612be4608084612263565b848460301c168352848460481c1660208401528484831c168684015281830152612c12878760181c16614aac565b90855191612c208284612263565b858560781c168352858560901c16602084015286830152612c45888560a81c16614aac565b92865196612c54608089612263565b868960781c168852868960901c166020890152868960a81c1681890152868960c01c1683890152805198612c88848b612263565b8a8d168a5260081b60e01d60208a01528b60b01b60e01d818a0152612caf81519e8f612263565b8d87871690528d6020888860181c169101528d01528b015260808a015260d81c1660a088015263ffffffff8560b01c1660c088015260e0870152610100860152808360501c166101208601528260801c166101408501528160d01c1661016084015260e81c16151561018082015290565b612d28612544565b5054602281901c60016001603e1b0316602082901c60031680612d9557815b60018203612d8c57600281925b03612d8457915b63ffffffff60405194612d6f608087612263565b16845260208401526040830152606082015290565b505f91612d5b565b60025f92612d54565b5f91612d47565b612da4612544565b50546040519063ffffffff612dba608084612263565b8181168352602082811c90911690830152608081811b60c01d60408401521c6001600160401b0316606082015290565b60405190612dfa61016083612263565b815f8152612e06612a37565b6020820152612e1361266f565b6040820152612e2061264f565b60608201525f6080820152612e336129e1565b60a0820152612e40612544565b60c0820152612e4d612544565b60e0820152612e5a612544565b610100820152612e686126ed565b610120820152610140612e796126ed565b910152565b91908260609103126103eb57604051612e98606082612263565b6040612e79818395805185526020810151602086015201612642565b906004612ebf612dea565b6001600160a01b03938416808252909390612eda6006614846565b60208601526080612eeb6003612b98565b926040938488015260015416835194858092631006976960e11b82525afa8015612fde575f905f90612f9c575b612f94945060808701526060860152612f316008613654565b60a0860152805f52600c602052612f49825f20612d9c565b60c0860152612f58600a612a84565b60e0860152805f52600d602052612f70825f20612d20565b610100860152612f8060116148d5565b6101208601525f5260146020525f2061359b565b610140830152565b505060803d608011612fd7575b612fb38185612263565b8301926080818503126103eb576060612fcf612f949583612e7e565b910151612f18565b503d612fa9565b82513d5f823e3d90fd5b919082018092116128c057565b60409081516060613007606083612263565b61300f6128d4565b825260209182810192613020612544565b845285820161302d61264f565b815260e08601908151515f52600e8352613048885f2061390e565b845260018060a01b0394858851165f5260158452885f20966101008901978851515f5285526130788a5f20612ace565b9052600186815416908451518b5193630e0886f960e41b8552600491600486015260a08560248181975afa9485156132f5575f956132c1575b508483949596526130c760a08d019687516156b1565b826130d06126ed565b945b61323c575b61318b575b5050505050610120838801510151613181576060870191838351519151518211613157575b50505051519351518411613118575b505050505050565b61314c956131469160c08701908082510151958851165f526010815280835f20925101515f52525f2061359b565b93615179565b5f8080808080613110565b6131799251015190815f52600f85526131718a5f206148d5565b91868a614cc1565b5f8083613101565b5050505050505050565b8760c08d0180518281519101511415806131e0575b156131d9575101518381018091116131c7576131c2858e86938d835192615179565b6130d7565b85601184634e487b7160e01b5f52525ffd5b50506130dc565b50919293945050898c51165f52601088528c5f20888251015185810180911161322a5791838f8f97969594908c9461321d925f5285525f2061359b565b96015151865111156131a0565b86601186634e487b7160e01b5f52525ffd5b50855188815191015180911415908161327e575b508390156131c2575087865101518381018091116131c757613278858e86938d835192614cc1565b806130d2565b80929550849150018091116132af575f52600f875261329e8c5f206148d5565b9282818d0151518551111590613250565b84601183634e487b7160e01b5f52525ffd5b839495506132e69060a03d60a0116132ee575b6132de8183612263565b810190614ac4565b5094936130b1565b503d6132d4565b8d513d5f823e3d90fd5b73__$9d2bb023e3b7e03791b38ee879f762a6b9$__60a082015191813b156103eb576101445f60409384519283809263045a766b60e01b825261334e859960086004850152602484019061274f565b5af480156135915761357c575b5080516001600160a01b039081168452600c60205282842060c0830151613381916136f3565b73__$08eb13a335cf83a0abaa0eb223b990fd38$__60e0830151813b15610411576133cb60a48792875194859384926366e4915160e01b8452600a60048501526024840190612240565b5af4801561355d57908591613567575b5050815181168452600d6020528284206101008301519073__$27030d7c971ebcdd7cb7176fc941784901$__803b156104b0579160a487926134379488519586948593635c7731d160e11b855260048501526024840190612240565b5af4801561355d57908591613548575b505073__$45e87f0d53e9c4c249a69aae712d2c7da2$__90610120830151823b156104115784516397cf143760e01b815260116004820152928391879183916134949060248401906123be565b6101c49586915af4801561353e57908691613529575b50508251168452601460205282842061014073__$f09a14985ff08a968a55a41319dc87c162$__93015192803b156104115791849391869361350596519687948593632b8d072960e11b8552600485015260248401906123be565b5af49081156104085750613517575050565b613522828092612263565b610d365750565b8161353391612263565b61043457845f6134aa565b85513d88823e3d90fd5b8161355291612263565b6104b857835f613447565b84513d87823e3d90fd5b8161357191612263565b6104b857835f6133db565b6135899193505f90612263565b5f915f61335b565b83513d5f823e3d90fd5b6135a36126ed565b5080546001820154600290920154604051926001600160401b039263ffffffff6135cf6101a087612263565b80821686528160201c1660208601528060801b60c01d6040860152838160801c16606086015260c01c608085015282811660a0850152828160401c1660c0850152828160801c1660e085015260c01c61010084015260018160801c1661012084015260ff8160811c1661014084015281811661016084015260401c1661018082015290565b61365c6129e1565b50600181549101549063ffffffff9165ffffffffffff60405192613681604085612263565b8260e01b60e01d84528260c81b60e81d6020850152604051946136a661010087612263565b80821686528160201c166020860152818160401c166040860152818160701c16606086015260a01c1660808401528060881b60c01d60a084015260481b60c01d60c083015260e082015290565b9063ffffffff808251116137a15760208201818151116137a15760408301916002613725600180603f1b0385516159db565b146137a157825161373f9060016001603f1b0319906159db565b156137a1576060840193600261375c60018060401b0387516154e3565b146137a1575191519251935160801b600160801b600160c01b031660409490941b600160401b600160801b031660209390931b63ffffffff60201b1691161717179055565b60405163320f423b60e21b8152600490fd5b64e8d4a51000908181029181830414901517156128c05790565b60405163a9059cbb60e01b60208201526001600160a01b03928316602482015260448082019490945292835261285e92919061380a606484612263565b166159ec565b811561382a57600160ff1b81145f198314166128c0570590565b634e487b7160e01b5f52601260045260245ffd5b8597859761285e9a976138f797613877979561385995613af9565b9390925f8080608087015193816101408a015160808b015196614a0c565b9384916138e0620f424061039360c0880151936138926125fc565b9a60208801518c5260a08801518c606060c08b01519160e08c0151610100809d015160a08301526080820152015260408d01525f14613900575f5b60c08c01526138db8b615b27565b61289e565b60208801526101808601805160e089015251615612565b90850152614013565b6139098a615afb565b6138cd565b6139166128d4565b508054600182015491600201548260c09160409384519160209485948461393e878097612263565b8460b81b831d815288516139528782612263565b8560781b841d81528951916139678884612263565b8660381b851d835260d09a8b97898251966139828289612263565b898b1b8b1d8852835199613996838c612263565b60a01b8b1d8a5283519a6139aa838d612263565b8160901b811d8c5284519c6139bf908e612263565b8160601b811d8d5284519d6139d4908f612263565b8d8260301b821d905284519e8f906139eb91612263565b1d8d528251809e6139fc8383612263565b8360081b901d905282519e8f92613a1561018085612263565b60ff1615158352881b881d9101528c015260608b015260808a015260a089015287015260e086015261010085015261012084015261014083015261016082015290565b60405190613a6861020083612263565b5f6101e0838281528260208201528260408201528260608201528260808201528260a08201528260c0820152613a9c6126ed565b60e0820152613aa96126ed565b610100820152613ab7612544565b610120820152613ac5612544565b610140820152613ad36125fc565b610160820152613ae16125fc565b610180820152826101a0820152826101c08201520152565b613b1b9096959391949296613b0c612dea565b50613b15613a58565b50612eb4565b95613b2587612ff5565b6060613b2f613a58565b95613b51613b4060e08b0151615b59565b61012081818b01528b01519061583b565b61010095613b75613b64888c0151615b59565b61014081818c01528c01519061583b565b60a08a018051515f52600f602052613b8f60405f206148d5565b60e08a015260018060a01b038b51165f52601060205260405f2060c08c0151515f52602052613bc060405f2061359b565b888a015251515f526019602052613bd960405f20612b1b565b61016089015260018060a01b038a51165f52601a60205260405f2060c08b0151515f52602052613c0b60405f20614982565b61018089015289516001600160a01b039081165f90815260166020908152604080832060c08f018051518552908352818420548516828e01528e51851684526017835281842081515185528352818420548516888e01528e51851684526018835281842090515184529091529081902054821660a08b01526101a08a01929092525f80516020615f2f833981519152548b51925163029138af60e21b81529282166004840152336024840152928116604483015293841660648201529283916084918391165afa908115613e88575f915f915f91613e38575b50608087015215156020860152151584526001600160a01b0316613e2d575b50613d1c613d1382860151615b59565b91850151615b99565b6101e0830152602060c08501510151600181018091116128c0575b60c0850151518111613e28576101c08301519060018060a01b038651165f52601a60205260405f20815f52602052613d7160405f20614982565b6020613d8e620f42406103938360608c015101516138db86615b27565b910151905f82820392128183128116918313901516176128c05780808401125f84129080158216911516176128c057613e1c92016101c085015260018060a01b038651165f52601060205260405f20815f52602052613df8613df260405f2061359b565b8461583b565b6101e0840151613e0784615b99565b80821115613e2157505b6101e0850152615533565b613d37565b9050613e11565b505090565b60c08301525f613d03565b925050506060813d606011613e80575b81613e5560609383612263565b810103126103eb57613e6681612642565b6040613e7460208401612642565b9201519091905f613ce4565b3d9150613e48565b6040513d5f823e3d90fd5b918894919599989399613ea46126ed565b9a602088015190613eb4916155ff565b92604088015190613ec4916155ff565b966060015190613ed3916155ff565b928a5260408a0152885f82135f1495613f83613f7e95613f7e613f9495613f8e95613f9a9b61400a57613f0582615657565b60608201525f82121561400157613f1b82615657565b60808201525f861315613ff857613f3186615657565b60a08201525f861215613fef57613f4786615657565b60c08201525f891315613fe657613f5d89615657565b60e08201525f891215613fda57610100613f768a615657565b910152615657565b615612565b6101608c0152615657565b91615657565b90612fe8565b610180850152613fcd575b613fae8361562b565b15613fb65750565b60016020840152613fc357565b6001610140830152565b6001610120840152613fa5565b610100613f765f615657565b613f5d5f615657565b613f475f615657565b613f315f615657565b613f1b5f615657565b613f055f615657565b93909192959495610120602086015101965f97516147d55760808601805161010086015151811161478d575b505160e0850151518111614758575b5061405e8561012086015161583b565b61406d8561014086015161583b565b61407c85610100860151615bc7565b61408a8560e0860151615bc7565b61409985610120880151615bc7565b6140a885610140880151615bc7565b6140b782610160860151615ce5565b6140c682610180860151615ce5565b60c08601519260408087015194019384515f82820192831291129080158216911516176128c05789945261012086015161474d575b6101608601511580159061473f575b614706575b506101008201516146bb575b506141258461562b565b158061468b575b614622575b73__$713c466d81d369d353fdbbc35496630b03$__3b1561061a57604051638df462cb60e01b81529061427c9061416b6004840188614b44565b84511515610aa484015260208501511515610ac484015260408501516001600160a01b03908116610ae485015260608601518116610b048501526080860151610b2485015260a086015116610b4484015260c0850151610b6484015260e08501516141db90610b848501906123be565b6141ef610100860151610d248501906123be565b614203610120860151610ec4850190612240565b614217610140860151610f44850190612240565b61422b610160860151610fc485019061229a565b61423f6101808601516110e485019061229a565b6101a08501516112048401526101c08501516112248401526101e08501516112448401526142716112648401876123be565b61140483019061229a565b81816115248173__$713c466d81d369d353fdbbc35496630b03$__5af480156145cd5761460d575b505060a083018051518652600f602052856040812073__$45e87f0d53e9c4c249a69aae712d2c7da2$__60e085015190803b156104b85761430292849160405194859485936397cf143760e01b8552600485015260248401906123be565b6101c49485915af49081156146025783916145ed575b505060018060a01b03865116825260106020526040822060c0870151518352602052604082209073__$f09a14985ff08a968a55a41319dc87c162$__9061010086015190823b156104345761438a9385936040519586948593632b8d072960e11b8552600485015260248401906123be565b5af480156145cd576145d8575b5050515185526019602052604085208573__$043414b7209209becb8f51cbf0f3ffaf0c$__61016084015190803b156104b4576143f1938391604051958694859363bf2ffa0360e01b85526004850152602484019061229a565b6101449586915af480156145cd576145b8575b505083516001600160a01b03168652601a6020908152604080882060c0870151518952909152862061018083015173__$d3eefab05f249ddc27df0954fa7a3e2d8e$__928892843b156104b857614476946040519586948593636435ad9960e11b85526004850152602484019061229a565b5af480156145ad57614598575b5060408181015184516001600160a01b0390811688526016602090815283892060c088018051518b52908252848a2080546001600160a01b03199081169585169590951790556060860151885184168b5260178352858b208251518c528352858b208054861691851691909117905560a090950151875183168a5260188252848a209551518a52949052828820805490921693169290921790915580820151939461285e949092906001614536826147e7565b14614578575b5001515f1961454a826147e7565b14614557575b50506132ff565b610d74610d4c6145719360018060a01b0390541692615657565b5f80614550565b61459290610d51610d4c60018060a01b0387541692615657565b5f61453c565b6145a3868092612263565b610434575f614483565b6040513d88823e3d90fd5b816145c291612263565b61041157855f614404565b6040513d84823e3d90fd5b816145e291612263565b61041157855f614397565b816145f791612263565b61061a57815f614318565b6040513d85823e3d90fd5b8161461791612263565b61043457845f6142a4565b60015485519192506001600160a01b039081169116813b156103eb575f91604483926040519485938492631a9be9fd60e11b845230600485015260248401525af18015613e8857614676575b508590614131565b6146839196505f90612263565b5f945f61466e565b506146b56146a2604083015160a084015190612fe8565b613f946060840151608085015190612fe8565b1561412c565b60a08401805192935090916001600160a01b039182918216156146fc575b51169116036146ea5785905f61411b565b604051639dbdc5fd60e01b8152600490fd5b81841681526146d9565b60608501805192945090916001600160a01b03918291821615614735575b51169116036146ea5786915f61410f565b8184168152614724565b50610180860151151561410a565b3360408601526140fb565b6147606126ed565b90815260e08501526147706125fc565b61016085015260a08601516147858151615533565b90525f61404e565b6147956126ed565b9081526101008601526147a66125fc565b6101808601525f60408601525f60608601525f60a086015260c08701516147cd8151615533565b90525f61403f565b604051630b8b968760e31b8152600490fd5b5f81136147fd575f136147f8575f90565b5f1990565b50600190565b6040516323b872dd60e01b60208201526001600160a01b03928316602482015230604482015260648082019490945292835261285e92919061380a608484612263565b61484e612a37565b50546008808260c81c62ffffff61ffff946040519561486f61014088612263565b8282168752828260181c166020880152828260301c166040880152828260481c166060880152828260601c166080880152808260781c1660a08801528160881c1660c087015260981c1660e0850152600480821614610100850152161461012082015290565b6148dd6126ed565b5080546001820154600290920154604051926001600160401b039263ffffffff6149096101a087612263565b80821686528160201c1660208601528060801b60c01d6040860152838160801c16606086015260c01c608085015282811660a0850152828160401c1660c0850152828160801c1660e085015260c01c6101008401525f6101208401525f61014084015281811661016084015260401c1661018082015290565b61498a6125fc565b5080546001820154600290920154604051926001600160401b039283916149b361012087612263565b63ffffffff821686528160a01b60c01d60208701528281166040870152828160401c166060870152828160801c16608087015260c01c60a086015260601c1660c084015281811660e084015260401c1661010082015290565b9291969594939096614a1c6126ed565b50614a2a6020890151615666565b5f82820192831291129080158216911516176128c057614a499061568f565b90614a53886154ff565b5f84820194851291129080158216911516176128c057614a96975f841315614aa357614a7e84615657565b935f811215614a9957614a9090615657565b94613e93565b90565b50614a905f615657565b614a7e5f615657565b620f4240908181029181830414901517156128c05790565b808203929160a084126103eb57614add60409183612e7e565b93605f1901126103eb57608060405191614af8604084612263565b606081015183520151602082015290565b91908260209103126103eb57604051614b23602082612263565b91518252565b60408091805184526020810151602085015201511515910152565b80516001600160a01b0316825260208082015161285e93926109009261014092614b70918601906124df565b614b8360408201516101608601906129bd565b614b966060820151610440860190614b29565b60808101516104a0850152614bb460a08201516104c086019061274f565b614bc760c08201516105e0860190612240565b614bda60e0820151610660860190612240565b614bee6101008201516106e0860190612240565b614c026101208201516107608601906123be565b01519101906123be565b8051151582526020810151602083015260408101515160408301526060810151516060830152608081015151608083015260a08101515160a083015260c08101515160c083015260e08101515160e08301526101008082015151908301526101208082015151908301526101408082015151908301526101608091015151910152565b90610200604061285e93614ca4848251614c0c565b614cb76020820151610180860190612240565b0151910190614b29565b929391909360018060a01b03600154166040948551938492630e0886f960e41b845284600485015283602460a09788935afa94851561516f575f935f9661514a575b5080830194614d138587516156b1565b614d1b6125fc565b97805182115f1461512d5750614d2f6126ed565b908152945b61012097614d45878a8701516156c9565b898601511561511e575b614d5761264f565b508951634d54b69d60e01b815290614da490614d766004840188614b44565b614d84610aa484018e614c8f565b85610d04840152614d99610d2484018a6123be565b610ec483019061229a565b614db2610fe4820187614b29565b875161104482015260208098019283516110648301526103009081836110848173__$c59e72735b93de02f3798226e3c2ccc72f$__5af49a8b15615114575f935f935f9d614f2c575b505050509160c09493918a9382528c525192614e40614e396080614e30614e298d8b01519751965187615612565b8096615541565b95015185615612565b8094615541565b9089850152614e538b8501918251612fe8565b9052614e716060840191614e6c83518b8d015190612fe8565b612fe8565b9052614e8260808301918251612fe8565b90520194868651910151905f82820192831291129080158216911516176128c05760e0614eb6928592600e9852015161583b565b84860152515f5252805f2073__$dfe4b7f2fe1b72a108ef439addfc623310$__9251833b156103eb576101a45f92614f089585519687948593631cf7ef4560e11b855260048501526024840190614c0c565b5af4908115614f235750614f195750565b5f61285e91612263565b513d5f823e3d90fd5b929c5094925095949250803d821161510d575b614f498186612263565b84019a848c039182126103eb57610180968783126103eb578790614fe88f8f908f614f7682519d8e612263565b614f7f8b612642565b8d52808b0151908d0152614f9582828c01614b09565b908c0152614fa68160608b01614b09565b60608c0152614fb88160808b01614b09565b60808c0152614fc981868b01614b09565b858c0152614fda8160c08b01614b09565b60c08c015260e08901614b09565b60e08a01526101009d8e614ffe82828b01614b09565b908b015261500e81838a01614b09565b828b015261014061502182828b01614b09565b908b015261503461016091828a01614b09565b908a015261017f198401126103eb5761504f8e519d8e612263565b8501518c526101a08501518b8d01526101c08501518d8d01526101e085015160608d015261020085015160808d0152610220850151908c015261024084015160c08c01528b61025f198201126103eb576060908c6150af81519182612263565b61026086015181526102808601518c82015260e08d015261029f1901126103eb5760c0946102e08c51946150e4606087612263565b6102a081015186526102c08101518c87015201518c8501529992999193945f8080959395614dfb565b503d614f3f565b8c513d5f823e3d90fd5b61512881886157f0565b614d4f565b95975050815f526019602052615144885f20612b1b565b96614d34565b908096506151659294503d87116132ee576132de8183612263565b929092945f614d03565b87513d5f823e3d90fd5b929094939161010090818501918251925f93515f52602091600e83526040996151a38b5f2061390e565b96805f52600e85526151b68c5f2061390e565b906151bf6125fc565b99805182115f146154b657506151d36126ed565b908152975b6151e7896101408d01516156c9565b8151156154a7575b6151f7612544565b508c51630604fb1160e21b81529961521260048c018d614b44565b615220610aa48c0185614c8f565b87610d048c0152610d248b01615236908b6123be565b610ec48b016152449161229a565b610fe48a0161525291614c0c565b611164890161526091614c0c565b818873__$96b1813f760aaef2362858ec79a14aaf40$__815a916112e492f497881561549d575f925f996153fa575b5050830190815260c08801518a8101908151938951945f86820196871291129080158216911516176128c057858a01946152c98651615666565b905f82820392128183128116918313901516176128c057868a9389926152f2965201525161583b565b60018060a01b0395868951165f52601584528a5f2090515f528352895f2073__$6b7c509aecc215d049aceab43ccd56652d$__9151823b156103eb5760a45f92615356948e51958694859363be49f2e760e01b855260048501526024840190612240565b5af480156153f0579160609695939161285e9a9b95936153d9575b508851861684526016825284842083855282528484205490516153969187168a615966565b8488511683526017815283832082845281526153bc85858520541685890151908a615966565b848851168352601881528383209183525220541691015191615966565b6153e69194505f90612263565b5f92615396615371565b8a513d5f823e3d90fd5b809299508193503d8311615496575b6154138183612263565b8101039081126103eb57608081126103eb5760808b51916154348284612263565b8351835285840151868401528c8401518d84015260608401516060840152607f1901126103eb57839060e08c519361546d608086612263565b6080810151855260a08101518486015260c08101518e860152015160608401529197905f61528f565b503d615409565b8b513d5f823e3d90fd5b6154b18a8a6157f0565b6151ef565b9899505060018060a01b038a51165f52601a85528b5f20865f5285526154dd8c5f20614982565b986151d8565b8181116154f857106154f457600190565b5f90565b5050600290565b61551960606155116040840151615666565b920151615666565b905f82820392128183128116918313901516176128c05790565b5f1981146128c05760010190565b919082039182116128c057565b600161555b5f19856154e3565b146155f957600161556e600119856154e3565b1461557857505090565b61014091925001805161559460a082015160c083015190612fe8565b151590816155db575b506155d7576155c5905160e06155bc606083015160a084015190612fe8565b91015190612fe8565b90808210156155d2575090565b905090565b5090565b6155f1915061010060e082015191015190612fe8565b15155f61559d565b50905090565b9061560c61551991615666565b91615666565b8181029181830414901517156128c057620f4240900490565b61563e6060820151608083015190612fe8565b159081615649575090565b6156539150615afb565b1590565b5f81126156615790565b5f0390565b6001600160ff1b0381116156775790565b6024906040519063eecaa25d60e01b82526004820152fd5b5f81126156995790565b6024906040519063b02ef08760e01b82526004820152fd5b90602001908151156156c1575050565b60a001519052565b602081016156dd8151602085015190615541565b90604083018051906040860151915f83820393128184128116918413901516176128c0576101206157178187019182519089015190615541565b9061014061572e818901918251908b015190615541565b90610160615745818b01918251908d015190615541565b908a61575d8d61018080930192835191015190615541565b9052525252525260608101906157798251606085015190615541565b92608082019061578f8251608083015190615541565b9260a08101906157a5825160a085015190615541565b9260c08201906157bb825160c083015190615541565b9260e08101906157e76157d4835160e086015190615541565b9361010080930192835191015190615541565b90525252525252565b6060905f9260e081015161018083015283610160830152604081015190838101519060a0608082015191015161010085015260e084015260c083015260a08201528260808201520152565b81518152602081019061584e8251615666565b61585b6060850151615666565b906158696080860151615666565b915f83820393128184128116918413901516176128c0575f82820192831291129080158216911516176128c05761589f9061568f565b9260408201906158af8251615666565b6158bc60a0830151615666565b906158ca60c0840151615666565b915f83820393128184128116918413901516176128c0575f82820192831291129080158216911516176128c05761590260609161568f565b93019061590f8251615666565b61592a61010061592260e0850151615666565b930151615666565b915f83820393128184128116918413901516176128c0575f82820192831291129080158216911516176128c0576159609061568f565b90525252565b9082156159d65781516001600160a01b039182169116810361599a5750606060c061599692015101918251612fe8565b9052565b61285e929150805f52600c6020526159b460405f20612d9c565b916159c460608401918251612fe8565b90525f52600c60205260405f206136f3565b505050565b8181136154f857126154f457600190565b602091615a72916001600160a01b03165f80615a0786612440565b93615a156040519586612263565b8685527f5361666545524332303a206c6f772d6c6576656c2063616c6c206661696c656487860152868151910182855af13d15615af3573d91615a5783612440565b92615a656040519485612263565b83523d5f8785013e615e71565b805180615a7e57505050565b818391810103126103eb5781615a949101612642565b15615a9c5750565b6084906040519062461bcd60e51b82526004820152602a60248201527f5361666545524332303a204552433230206f7065726174696f6e20646964206e6044820152691bdd081cdd58d8d9595960b21b6064820152fd5b606091615e71565b614a9690613f94615b1660a083015161010084015190612fe8565b9160c060e082015191015190612fe8565b615519615b43615b48615b43604085015160a086015190612fe8565b615666565b926080606082015191015190612fe8565b615b61612544565b50805190602081015190606060408201519101519160405193615b85608086612263565b845260208401526040830152606082015290565b6020604082015160608301518082115f14615bbf5750915b0151808211156155d2575090565b905091615bb1565b60208101615bdb8151602085015190612fe8565b90604083018051906040860151915f83820193841291129080158216911516176128c057610120615c158187019182519089015190612fe8565b90610140615c2c818901918251908b015190612fe8565b90610160615c43818b01918251908d015190612fe8565b908a615c5b8d61018080930192835191015190612fe8565b905252525252526060810190615c778251606085015190612fe8565b926080820190615c8d8251608083015190612fe8565b9260a0810190615ca3825160a085015190612fe8565b9260c0820190615cb9825160c083015190612fe8565b9260e08101906157e7615cd2835160e086015190612fe8565b9361010080930192835191015190612fe8565b90615cf38251825190612fe8565b8252602082018051906020830151915f83820193841291129080158216911516176128c05760408401615d2c8151604086015190612fe8565b9060608601615d418151606088015190612fe8565b9060808801615d56815160808a015190612fe8565b9060a08a01615d6b815160a08c015190612fe8565b90525252525260c0820190615d86825160c083015190612fe8565b9260e0810190615960615cd2835160e086015190612fe8565b939190811580615e69575b615e60578415615e4e5761039361039391610f2e61560c615e0395610393615dd18b615666565b99610f2e615dfd615df3615ded620f42409e8f9c8d809961289e565b9e615666565b610393868561289e565b9a615666565b92818101918212905f81129081159280158316908416176128c0578301928312908115169116176128c057614a9692610f2e6103939261039385615e4881600261289e565b9261289e565b60405163c7d40ac960e01b8152600490fd5b50505050505f90565b508315615daa565b91929015615ed35750815115615e85575090565b3b15615e8e5790565b60405162461bcd60e51b815260206004820152601d60248201527f416464726573733a2063616c6c20746f206e6f6e2d636f6e74726163740000006044820152606490fd5b825190915015615ee65750805190602001fd5b60405162461bcd60e51b815260206004820152908190615f0a906024830190612860565b0390fdfea9c835c21e93a672e5a6ef8ca0374f90b7d4378f7eec5769dcf22fdefd60ffae0aec74a1754fb10877b53c31a29be82096082042eb1fb374ec96fac88c0e621ba0c85df4ab9af89d2ff184f9d4c24f93d6105f799b04c85e12d76a89fa0f99f0a264697066735822122026074bbc7570b33cb6406fec00e9aa61e63cca852d95db6e386eaf8d423feb1d64736f6c63430008180033",
  "libraries": {
    "CheckpointLib": "0xf2240d873E9174F2a7B0c816109908812A8e47e0",
    "InvariantLib": "0xD691C504fC56582E3d0f97eC0Cf5CDC6b71778bE",
    "VersionLib": "0x136BbCEc28546b6bf20bF8fac8FB686ea0eE1EF5",
    "CheckpointStorageLib": "0xC233A4d46052f4927f2d60aefAC6aBb51bb5A2E0",
    "GlobalStorageLib": "0xFB17EB91262c4d4ef81C5f00A216Cf4F31556a22",
    "MarketParameterStorageLib": "0xdA381aeD086f544BaC66e73C071E158374cc105B",
    "PositionStorageGlobalLib": "0x5bEA99BF18624AA504580546Ac9D9Ac3b9aeb747",
    "PositionStorageLocalLib": "0xf817521610600c4674364246A5CF4af8e627805D",
    "RiskParameterStorageLib": "0xeea68DbE228210454D4443f4E1B37E842B848C3d",
    "VersionStorageLib": "0x7a98eFCe4A399794aE7524faEb2cc6A8eF730fCF",
    "GuaranteeStorageGlobalLib": "0xDE7E2d1005Ea46a0e261E243F762Fc7Ca849ACAB",
    "GuaranteeStorageLocalLib": "0xfEeFDbcCfabF023A6a9F0fa0b67aEE80A861c7ed",
    "OrderStorageLocalLib": "0x8Da96a2eDe1dd5Af8Bd3BD142226820f6Bb09751",
    "OrderStorageGlobalLib": "0x831E64292bF41bF0bDbC6D58d9FDd93D7C9396D7"
  }
}