{
  "address": "0x9d2CaE012AAe0aE00f4d8F42CD287a6923612456",
  "abi": [
    {
      "inputs": [
        {
          "internalType": "Token6",
          "name": "usdc_",
          "type": "address"
        },
        {
          "internalType": "Token18",
          "name": "dsu_",
          "type": "address"
        },
        {
          "internalType": "contract IFactory",
          "name": "marketFactory_",
          "type": "address"
        },
        {
          "internalType": "contract IFactory",
          "name": "vaultFactory_",
          "type": "address"
        },
        {
          "internalType": "contract IBatcher",
          "name": "batcher_",
          "type": "address"
        },
        {
          "internalType": "contract IEmptySetReserve",
          "name": "reserve_",
          "type": "address"
        },
        {
          "internalType": "uint256",
          "name": "keepBufferBase_",
          "type": "uint256"
        },
        {
          "internalType": "uint256",
          "name": "keepBufferCalldata_",
          "type": "uint256"
        }
      ],
      "stateMutability": "nonpayable",
      "type": "constructor"
    },
    {
      "inputs": [],
      "name": "DivisionByZero",
      "type": "error"
    },
    {
      "inputs": [
        {
          "internalType": "uint256",
          "name": "value",
          "type": "uint256"
        }
      ],
      "name": "Fixed18OverflowError",
      "type": "error"
    },
    {
      "inputs": [
        {
          "internalType": "uint256",
          "name": "value",
          "type": "uint256"
        }
      ],
      "name": "Fixed6OverflowError",
      "type": "error"
    },
    {
      "inputs": [
        {
          "internalType": "uint256",
          "name": "version",
          "type": "uint256"
        }
      ],
      "name": "InitializableAlreadyInitializedError",
      "type": "error"
    },
    {
      "inputs": [],
      "name": "InitializableNotInitializingError",
      "type": "error"
    },
    {
      "inputs": [],
      "name": "InitializableZeroVersionError",
      "type": "error"
    },
    {
      "inputs": [],
      "name": "MultiInvokerCantExecuteError",
      "type": "error"
    },
    {
      "inputs": [],
      "name": "MultiInvokerInvalidInstanceError",
      "type": "error"
    },
    {
      "inputs": [],
      "name": "MultiInvokerInvalidOrderError",
      "type": "error"
    },
    {
      "inputs": [],
      "name": "MultiInvokerMaxFeeExceededError",
      "type": "error"
    },
    {
      "inputs": [],
      "name": "MultiInvokerOrderMustBeSingleSidedError",
      "type": "error"
    },
    {
      "inputs": [],
      "name": "MultiInvokerUnauthorizedError",
      "type": "error"
    },
    {
      "inputs": [],
      "name": "TriggerOrderStorageInvalidError",
      "type": "error"
    },
    {
      "inputs": [
        {
          "internalType": "int256",
          "name": "value",
          "type": "int256"
        }
      ],
      "name": "UFixed18UnderflowError",
      "type": "error"
    },
    {
      "inputs": [
        {
          "internalType": "int256",
          "name": "value",
          "type": "int256"
        }
      ],
      "name": "UFixed6UnderflowError",
      "type": "error"
    },
    {
      "anonymous": false,
      "inputs": [
        {
          "indexed": false,
          "internalType": "uint256",
          "name": "version",
          "type": "uint256"
        }
      ],
      "name": "Initialized",
      "type": "event"
    },
    {
      "anonymous": false,
      "inputs": [
        {
          "indexed": true,
          "internalType": "address",
          "name": "account",
          "type": "address"
        },
        {
          "indexed": true,
          "internalType": "contract IMarket",
          "name": "market",
          "type": "address"
        },
        {
          "components": [
            {
              "internalType": "UFixed6",
              "name": "amount",
              "type": "uint256"
            },
            {
              "internalType": "address",
              "name": "receiver",
              "type": "address"
            }
          ],
          "indexed": false,
          "internalType": "struct InterfaceFee",
          "name": "fee",
          "type": "tuple"
        }
      ],
      "name": "InterfaceFeeCharged",
      "type": "event"
    },
    {
      "anonymous": false,
      "inputs": [
        {
          "indexed": true,
          "internalType": "address",
          "name": "sender",
          "type": "address"
        },
        {
          "indexed": false,
          "internalType": "uint256",
          "name": "applicableGas",
          "type": "uint256"
        },
        {
          "indexed": false,
          "internalType": "uint256",
          "name": "applicableValue",
          "type": "uint256"
        },
        {
          "indexed": false,
          "internalType": "UFixed18",
          "name": "baseFee",
          "type": "uint256"
        },
        {
          "indexed": false,
          "internalType": "UFixed18",
          "name": "calldataFee",
          "type": "uint256"
        },
        {
          "indexed": false,
          "internalType": "UFixed18",
          "name": "keeperFee",
          "type": "uint256"
        }
      ],
      "name": "KeeperCall",
      "type": "event"
    },
    {
      "anonymous": false,
      "inputs": [
        {
          "indexed": true,
          "internalType": "address",
          "name": "account",
          "type": "address"
        },
        {
          "indexed": true,
          "internalType": "address",
          "name": "market",
          "type": "address"
        },
        {
          "indexed": true,
          "internalType": "address",
          "name": "to",
          "type": "address"
        },
        {
          "indexed": false,
          "internalType": "UFixed6",
          "name": "fee",
          "type": "uint256"
        }
      ],
      "name": "KeeperFeeCharged",
      "type": "event"
    },
    {
      "anonymous": false,
      "inputs": [
        {
          "indexed": true,
          "internalType": "address",
          "name": "account",
          "type": "address"
        },
        {
          "indexed": true,
          "internalType": "address",
          "name": "operator",
          "type": "address"
        },
        {
          "indexed": false,
          "internalType": "bool",
          "name": "newEnabled",
          "type": "bool"
        }
      ],
      "name": "OperatorUpdated",
      "type": "event"
    },
    {
      "anonymous": false,
      "inputs": [
        {
          "indexed": true,
          "internalType": "address",
          "name": "account",
          "type": "address"
        },
        {
          "indexed": true,
          "internalType": "contract IMarket",
          "name": "market",
          "type": "address"
        },
        {
          "indexed": false,
          "internalType": "uint256",
          "name": "nonce",
          "type": "uint256"
        }
      ],
      "name": "OrderCancelled",
      "type": "event"
    },
    {
      "anonymous": false,
      "inputs": [
        {
          "indexed": true,
          "internalType": "address",
          "name": "account",
          "type": "address"
        },
        {
          "indexed": true,
          "internalType": "contract IMarket",
          "name": "market",
          "type": "address"
        },
        {
          "indexed": false,
          "internalType": "uint256",
          "name": "nonce",
          "type": "uint256"
        }
      ],
      "name": "OrderExecuted",
      "type": "event"
    },
    {
      "anonymous": false,
      "inputs": [
        {
          "indexed": true,
          "internalType": "address",
          "name": "account",
          "type": "address"
        },
        {
          "indexed": true,
          "internalType": "contract IMarket",
          "name": "market",
          "type": "address"
        },
        {
          "indexed": true,
          "internalType": "uint256",
          "name": "nonce",
          "type": "uint256"
        },
        {
          "components": [
            {
              "internalType": "uint8",
              "name": "side",
              "type": "uint8"
            },
            {
              "internalType": "int8",
              "name": "comparison",
              "type": "int8"
            },
            {
              "internalType": "UFixed6",
              "name": "fee",
              "type": "uint256"
            },
            {
              "internalType": "Fixed6",
              "name": "price",
              "type": "int256"
            },
            {
              "internalType": "Fixed6",
              "name": "delta",
              "type": "int256"
            },
            {
              "components": [
                {
                  "internalType": "UFixed6",
                  "name": "amount",
                  "type": "uint256"
                },
                {
                  "internalType": "address",
                  "name": "receiver",
                  "type": "address"
                }
              ],
              "internalType": "struct InterfaceFee",
              "name": "interfaceFee1",
              "type": "tuple"
            },
            {
              "components": [
                {
                  "internalType": "UFixed6",
                  "name": "amount",
                  "type": "uint256"
                },
                {
                  "internalType": "address",
                  "name": "receiver",
                  "type": "address"
                }
              ],
              "internalType": "struct InterfaceFee",
              "name": "interfaceFee2",
              "type": "tuple"
            }
          ],
          "indexed": false,
          "internalType": "struct TriggerOrder",
          "name": "order",
          "type": "tuple"
        }
      ],
      "name": "OrderPlaced",
      "type": "event"
    },
    {
      "inputs": [],
      "name": "DSU",
      "outputs": [
        {
          "internalType": "Token18",
          "name": "",
          "type": "address"
        }
      ],
      "stateMutability": "view",
      "type": "function"
    },
    {
      "inputs": [],
      "name": "OPT_BASE_FEE_MULTIPLIER",
      "outputs": [
        {
          "internalType": "uint256",
          "name": "",
          "type": "uint256"
        }
      ],
      "stateMutability": "view",
      "type": "function"
    },
    {
      "inputs": [],
      "name": "USDC",
      "outputs": [
        {
          "internalType": "Token6",
          "name": "",
          "type": "address"
        }
      ],
      "stateMutability": "view",
      "type": "function"
    },
    {
      "inputs": [],
      "name": "batcher",
      "outputs": [
        {
          "internalType": "contract IBatcher",
          "name": "",
          "type": "address"
        }
      ],
      "stateMutability": "view",
      "type": "function"
    },
    {
      "inputs": [
        {
          "internalType": "address",
          "name": "account",
          "type": "address"
        },
        {
          "internalType": "contract IMarket",
          "name": "market",
          "type": "address"
        },
        {
          "internalType": "uint256",
          "name": "nonce",
          "type": "uint256"
        }
      ],
      "name": "canExecuteOrder",
      "outputs": [
        {
          "internalType": "bool",
          "name": "",
          "type": "bool"
        }
      ],
      "stateMutability": "view",
      "type": "function"
    },
    {
      "inputs": [
        {
          "internalType": "address",
          "name": "account",
          "type": "address"
        },
        {
          "internalType": "bool",
          "name": "unwrap",
          "type": "bool"
        }
      ],
      "name": "claim",
      "outputs": [],
      "stateMutability": "nonpayable",
      "type": "function"
    },
    {
      "inputs": [
        {
          "internalType": "address",
          "name": "",
          "type": "address"
        }
      ],
      "name": "claimable",
      "outputs": [
        {
          "internalType": "UFixed6",
          "name": "",
          "type": "uint256"
        }
      ],
      "stateMutability": "view",
      "type": "function"
    },
    {
      "inputs": [],
      "name": "ethTokenOracleFeed",
      "outputs": [
        {
          "internalType": "contract AggregatorV3Interface",
          "name": "",
          "type": "address"
        }
      ],
      "stateMutability": "view",
      "type": "function"
    },
    {
      "inputs": [
        {
          "internalType": "contract AggregatorV3Interface",
          "name": "ethOracle_",
          "type": "address"
        }
      ],
      "name": "initialize",
      "outputs": [],
      "stateMutability": "nonpayable",
      "type": "function"
    },
    {
      "inputs": [
        {
          "components": [
            {
              "internalType": "enum IMultiInvoker.PerennialAction",
              "name": "action",
              "type": "uint8"
            },
            {
              "internalType": "bytes",
              "name": "args",
              "type": "bytes"
            }
          ],
          "internalType": "struct IMultiInvoker.Invocation[]",
          "name": "invocations",
          "type": "tuple[]"
        }
      ],
      "name": "invoke",
      "outputs": [],
      "stateMutability": "payable",
      "type": "function"
    },
    {
      "inputs": [
        {
          "internalType": "address",
          "name": "account",
          "type": "address"
        },
        {
          "components": [
            {
              "internalType": "enum IMultiInvoker.PerennialAction",
              "name": "action",
              "type": "uint8"
            },
            {
              "internalType": "bytes",
              "name": "args",
              "type": "bytes"
            }
          ],
          "internalType": "struct IMultiInvoker.Invocation[]",
          "name": "invocations",
          "type": "tuple[]"
        }
      ],
      "name": "invoke",
      "outputs": [],
      "stateMutability": "payable",
      "type": "function"
    },
    {
      "inputs": [],
      "name": "keepBufferBase",
      "outputs": [
        {
          "internalType": "uint256",
          "name": "",
          "type": "uint256"
        }
      ],
      "stateMutability": "view",
      "type": "function"
    },
    {
      "inputs": [],
      "name": "keepBufferCalldata",
      "outputs": [
        {
          "internalType": "uint256",
          "name": "",
          "type": "uint256"
        }
      ],
      "stateMutability": "view",
      "type": "function"
    },
    {
      "inputs": [],
      "name": "keeperToken",
      "outputs": [
        {
          "internalType": "Token18",
          "name": "",
          "type": "address"
        }
      ],
      "stateMutability": "view",
      "type": "function"
    },
    {
      "inputs": [],
      "name": "latestNonce",
      "outputs": [
        {
          "internalType": "uint256",
          "name": "",
          "type": "uint256"
        }
      ],
      "stateMutability": "view",
      "type": "function"
    },
    {
      "inputs": [],
      "name": "marketFactory",
      "outputs": [
        {
          "internalType": "contract IFactory",
          "name": "",
          "type": "address"
        }
      ],
      "stateMutability": "view",
      "type": "function"
    },
    {
      "inputs": [
        {
          "internalType": "address",
          "name": "",
          "type": "address"
        },
        {
          "internalType": "address",
          "name": "",
          "type": "address"
        }
      ],
      "name": "operators",
      "outputs": [
        {
          "internalType": "bool",
          "name": "",
          "type": "bool"
        }
      ],
      "stateMutability": "view",
      "type": "function"
    },
    {
      "inputs": [
        {
          "internalType": "address",
          "name": "account",
          "type": "address"
        },
        {
          "internalType": "contract IMarket",
          "name": "market",
          "type": "address"
        },
        {
          "internalType": "uint256",
          "name": "nonce",
          "type": "uint256"
        }
      ],
      "name": "orders",
      "outputs": [
        {
          "components": [
            {
              "internalType": "uint8",
              "name": "side",
              "type": "uint8"
            },
            {
              "internalType": "int8",
              "name": "comparison",
              "type": "int8"
            },
            {
              "internalType": "UFixed6",
              "name": "fee",
              "type": "uint256"
            },
            {
              "internalType": "Fixed6",
              "name": "price",
              "type": "int256"
            },
            {
              "internalType": "Fixed6",
              "name": "delta",
              "type": "int256"
            },
            {
              "components": [
                {
                  "internalType": "UFixed6",
                  "name": "amount",
                  "type": "uint256"
                },
                {
                  "internalType": "address",
                  "name": "receiver",
                  "type": "address"
                }
              ],
              "internalType": "struct InterfaceFee",
              "name": "interfaceFee1",
              "type": "tuple"
            },
            {
              "components": [
                {
                  "internalType": "UFixed6",
                  "name": "amount",
                  "type": "uint256"
                },
                {
                  "internalType": "address",
                  "name": "receiver",
                  "type": "address"
                }
              ],
              "internalType": "struct InterfaceFee",
              "name": "interfaceFee2",
              "type": "tuple"
            }
          ],
          "internalType": "struct TriggerOrder",
          "name": "",
          "type": "tuple"
        }
      ],
      "stateMutability": "view",
      "type": "function"
    },
    {
      "inputs": [],
      "name": "reserve",
      "outputs": [
        {
          "internalType": "contract IEmptySetReserve",
          "name": "",
          "type": "address"
        }
      ],
      "stateMutability": "view",
      "type": "function"
    },
    {
      "inputs": [
        {
          "internalType": "address",
          "name": "operator",
          "type": "address"
        },
        {
          "internalType": "bool",
          "name": "newEnabled",
          "type": "bool"
        }
      ],
      "name": "updateOperator",
      "outputs": [],
      "stateMutability": "nonpayable",
      "type": "function"
    },
    {
      "inputs": [],
      "name": "vaultFactory",
      "outputs": [
        {
          "internalType": "contract IFactory",
          "name": "",
          "type": "address"
        }
      ],
      "stateMutability": "view",
      "type": "function"
    }
  ],
  "transactionHash": "0xc15dd826d438cf8f770fb5ebdf394f4a634ba56924b2c0b45564b398784af2fe",
  "args": [
    "0x2E067461766dB5459Ac219f51C1e511CE8E24A6C",
    "0x52C64b8998eB7C80b6F526E99E29ABdcC86B841b",
    "0x5A572B5fBBC43387B5eF8de2C4728A4108ef24a6",
    "0x8820B93bee4f6947aC9CdEd07239604b160827Cd",
    "0x0000000000000000000000000000000000000000",
    "0x16b38364bA6f55B6E150cC7f52D22E89643f3535",
    1500000,
    21200
  ],
  "numDeployments": 1,
  "solcInputHash": "3f66bd2a61bef978bcb9eee6629cc02f",
  "bytecode": "0x610180346200029457620058b738819003601f8101601f191683016001600160401b0381118482101762000298578392829160405283396101009283918101031262000294576200005081620002ac565b6200005e60208301620002ac565b916200006d60408201620002ac565b6200007b60608301620002ac565b60808301516001600160a01b03959092908684168403620002945760a08501519687168703620002945760e060c08601519501519560805260a05260c05260e0528452610120928352610140908152610160918252604051926155f59485620002c28639608051858181612471015281816142da015281816149f901528181614b0501528181614f09015261503a015260a05185818161037701528181610469015281816108e5015281816115db015281816116d301528181611cff01528181611de001528181611e0701528181611f23015281816123c7015281816126930152818161277601528181612bbf01528181612c640152818161371b0152818161381301528181613ddf01528181613eab01528181613fb20152818161423101528181614b5401528181614ff8015261506d015260c051858181610338015281816106ab01528181610af80152818161159c01528181611ed70152818161208a015281816126540152818161299101528181612dbe015281816136dc01528181613f6a01528181614104015261444d015260e0518581816108a701528181611f64015281816122ba01528181612b7d0152613fec01525184818161241f0152818161448e015281816149c70152614f3701525183818161231a0152818161244801528181614a270152614f69015251828181610fa30152818161221a0152613150015251818181610fcf015281816121e0015261317c0152f35b5f80fd5b634e487b7160e01b5f52604160045260245ffd5b51906001600160a01b0382168203620002945756fe6080806040526004361015610012575f80fd5b5f3560e01c908163025a3a291461447c5750806306ae7095146144385780632637588e146143e257806332878cc9146143ae578063402914f5146143765780636d44a3b21461430957806389a30271146142c557806392fd2daf14614260578063a2060bcf1461421c578063b20caf45146141e8578063bdec4a2714612509578063c4d66de814612349578063cd3293de14612305578063cf542a4d146122e9578063d8a06f73146122a5578063db9049021461228a578063dd02df1614612260578063df80522a1461223d578063f331efef14612203578063f3a8f356146121c95763f5ad712614610103575f80fd5b60403660031901126104e2576101176144bd565b6024356001600160401b0381116104e257610136903690600401614502565b906001600160a01b038316331415806121a0575b61218e575f5b82811061022457478047106101df575f80808093335af161016f614e30565b501561017757005b60405162461bcd60e51b815260206004820152603a60248201527f416464726573733a20756e61626c6520746f2073656e642076616c75652c20726044820152791958da5c1a595b9d081b585e481a185d99481c995d995c9d195960321b6064820152608490fd5b60405162461bcd60e51b815260206004820152601d60248201527f416464726573733a20696e73756666696369656e742062616c616e63650000006044820152606490fd5b8060051b820135603e19833603018112156104e25782016040813603126104e25760405190610252826145df565b8035600b8110156104e257825260208101356001600160401b0381116104e25736601f8284010112156104e25761029191369101803590602001614b93565b60208201528051600b81101561217a576001036105525760200151908151820161014083602083019203126104e2576102cc60208401614bc9565b9260408101519360608201519160808101519060a08101519361030c6102f460c08401614863565b966101206103058260e08701614c40565b9401614c40565b60405163032bb44360e01b81526001600160a01b038681166004830152919691602090829060249082907f0000000000000000000000000000000000000000000000000000000000000000165afa9081156104d7575f91610518575b5015610506576103a061039b307f0000000000000000000000000000000000000000000000000000000000000000614e5f565b6150af565b938c8860016103ae856150d7565b146104ec575b505060208401516001600160a01b0316806104e6575060208701516001600160a01b0316925b6001600160a01b0387163b156104e2578d9a6040519b63977b1f5f60e01b8d5260018060a01b031660048d015260248c015260448b015260648a015260848901525f60a489015260018060a01b031660c48801525f8760e4818360018060a01b0388165af19485156104d75764e8d4a510006104926104a39460019a6104a9996104c8575b5061048d61039b307f0000000000000000000000000000000000000000000000000000000000000000614e5f565b6150f3565b0590816104af575b5050828a61510b565b8761510b565b01610150565b6104bb6104c1926153c0565b8c614b35565b5f8061049a565b6104d1906145fa565b5f61045f565b6040513d5f823e3d90fd5b5f80fd5b926103da565b6104ff916104f9856153c0565b90615028565b8c886103b4565b60405163047b7c1b60e41b8152600490fd5b90506020813d60201161054a575b8161053360209383614695565b810103126104e25761054490614863565b5f610368565b3d9150610526565b8051600b81101561217a5760090361082457602001519081518201916101c0818403126104e25761058560208201614bc9565b92610180828203601f1901126104e257604051916105a283614644565b6040810151835260608101516020840152608081015160408401526105c960a08201614bc9565b60608401526105da60c08201614bc9565b608084015260e081015160a084015260c081830360df1901126104e2576040516106038161465f565b6106106101008301614bc9565b815261061f6101208301614bc9565b60208201526106316101408301614bc9565b6040820152610160820151606082015261018082015160808201526101a082015160a082015260c08401526101c0810151916001600160401b0383116104e257610682926020809201920101614bfe565b60405163032bb44360e01b81526001600160a01b038581166004830152602090829060249082907f0000000000000000000000000000000000000000000000000000000000000000165afa9081156104d7575f916107ea575b5015610506576001600160a01b0384163b156104e2576040805163736a01df60e01b81526001600160a01b03808a16600483015284516024830152602080860151604484015283860151606484015260608087015183166084850152608080880151841660a486015260a08881015160c487015260c0909801518051851660e48701529283015184166101048601529482015190921661012484015290810151610144830152918201516101648201529201516101848301526101c06101a483015290925f918491908290849082906107b9906101c4830190614e0b565b03926001600160a01b03165af19182156104d7576001926107db575b506104a9565b6107e4906145fa565b5f6107d5565b90506020813d60201161081c575b8161080560209383614695565b810103126104e25761081690614863565b5f6106db565b3d91506107f8565b8051600b81101561217a57600203610a1357602001519081805160a0938491810103126104e25760208101516001600160a01b03811681036104e25760408201519061087b60608401519560808501519401614863565b60405163032bb44360e01b81526001600160a01b038381166004830152919491602090829060249082907f0000000000000000000000000000000000000000000000000000000000000000165afa9081156104d7575f916109d9575b501561050657826109c9575b7f00000000000000000000000000000000000000000000000000000000000000009161090f3084614e5f565b936001600160a01b0382163b156104e257604051636961d57960e11b81526001600160a01b03808d16600483015260248201929092526044810198909852606488018390525f91889160849183918591165af19586156104d7576001966109ba575b506109995750505f905b81610988575b50506104a9565b6109929187614b35565b5f80610981565b64e8d4a51000916109ae6109b3923090614e5f565b614eca565b049061097b565b6109c3906145fa565b5f610971565b6109d484848b615028565b6108e3565b90506020813d602011610a0b575b816109f460209383614695565b810103126104e257610a0590614863565b5f6108d7565b3d91506109e7565b8051600b81101561217a57600303610e8b57602001519081518201918083039261014084126104e257610120610a4b60208401614bc9565b94601f1901126104e25760405191610a6283614644565b604081015160ff811681036104e2578352606081015191825f0b83036104e257602061012091610aca94828701526080840151604087015260a0840151606087015260c08401516080870152610abd82820160e08601614c40565b60a0870152019101614c40565b60c082015260405163032bb44360e01b81526001600160a01b038481166004830152602090829060249082907f0000000000000000000000000000000000000000000000000000000000000000165afa9081156104d7575f91610e51575b501561050657604081015115610df75760208101515f0b5f198114159081610e45575b50610df75760ff81511660038111908115610e09575b50610df7576001600160a01b038681165f908152600160209081526040808320938716835292905290812090545f198114610de357600101805f555f5260205260405f209260ff8083511611610dd157607f60208301515f0b13610dd157607f1960208301515f0b12610dd1576002610bdd6040840151615272565b14610dd1576002610bf1606084015161546c565b14610dd157610c036060830151615439565b15610dd1576002610c17608084015161546c565b14610dd157610c296080830151615439565b15610dd1576002610c3e60a084015151615297565b14610dd1576002610c5360c084015151615297565b14610dd15765ffffffffffff60c0610d9484600197600260ff83511691602084015192604085015160608601519060808701519261ff0060a0890151976001610160815f9260a01b0360208c0151169e8f9b51169d8e9c01519a60018c60208265ffffffffffff9360a01b03910151169c51169c60405191610cd483614628565b87835285850b602084015260018060401b03891660408401528960070b60608401528a60070b60808401528460a084015260c083015260e0820152826101008201528b6101208201528c610140820152015260081b161790620100008f60501b039060101b1617908d60501b8e60901b039060501b1617908c60901b8d60d01b039060901b16178155610d798b8201968c8060a01b0319988989541617885587614ed7565b8a8060d01b0395868154169055019485541617845583614ed7565b81541690555f54915f8051602061554083398151915260405192868060a01b03169280610dc9888060a01b038c16948261457f565b0390a46104a9565b60405163f3469aa760e01b8152600490fd5b634e487b7160e01b5f52601160045260245ffd5b6040516316d7df6b60e31b8152600490fd5b600391501480610e1a575b5f610b61565b50610e286080820151615454565b60028114908115610e3a575b50610e14565b60019150145f610e34565b6001915014155f610b4b565b90506020813d602011610e83575b81610e6c60209383614695565b810103126104e257610e7d90614863565b5f610b28565b3d9150610e5f565b8051600b81101561217a57600403610f245760200151906040828051810103126104e257816040610ec0602060019501614bc9565b910151838060a01b0387165f528360205260405f2091848060a01b031691825f5260205260405f20815f526020525f600260408220828155828782015501556040519081525f805160206155208339815191526020858060a01b03891692a36104a9565b8051600b81101561217a57600503611c065760200151906060828051810103126104e257610f5460208301614bc9565b6060610f6260408501614bc9565b930151610f7981856001600160a01b038516614870565b15611bf457610f9281856001600160a01b038516614717565b604051610f9e8161460d565b5f81527f000000000000000000000000000000000000000000000000000000000000000060208201525f60408201527f0000000000000000000000000000000000000000000000000000000000000000606082015260408201516040519060018060a01b038616602083015260018060a01b038816604083015260608201526060815261102a8161460d565b604051916110378361467a565b5f83525f6020840152670de0b6b3a7640000611076825161107183611060602087015193614d76565b0461106b4893614d59565b906152fc565b614d84565b04926110a9602060606040850151940151926040518093819263de26c4a160e01b83528460048401526024830190614e0b565b0381600f602160991b015afa9081156104d7575f91611bc2575b506040516318b30b2360e31b8152602081600481600f602160991b015afa9081156104d7575f91611b90575b506001600160fc1b0381168103610de35760405163519b4bd360e01b815290602082600481600f602160991b015afa9081156104d7575f91611b5a575b611139925060041b614d84565b60405163346aee5360e11b815290602082600481600f602160991b015afa9182156104d7575f92611b26575b506040516303e0818560e61b8152602081600481600f602160991b015afa9081156104d7575f91611af2575b5061106b9061119f93614d84565b60405163313ce56760e01b81529092602082600481600f602160991b015afa9182156104d7575f92611abe575b50604d8211610de357600a82900a6001600160fc1b0381169003610de35761106b670de0b6b3a764000061121b81976110716112156112229961107198600a0a60041b90615091565b97614d59565b0491614d59565b049061122e82846152fc565b5f8051602061556083398151915254604051633fabe5a360e21b81529060a090829060049082906001600160a01b03165afa9081156104d7575f91611a71575b5080670de0b6b3a7640000810205670de0b6b3a76400001481151715610de3575f6305f5e100670de0b6b3a764000083020512611a4957670de0b6b3a7640000916305f5e100836112c193020590614d84565b04906060818051810103126104e2576112dc60208201614bc9565b60606112ea60408401614bc9565b9201519280611a1a575061131b90611320935f905b80821015611a1057509283915b6001600160a01b0316906153cf565b614d97565b9061133a82335f805160206155a083398151915254614db1565b604051925f84525f60208501526040840152606083015260808201525f8051602061558083398151915260a03392a26001600160a01b0385163b156104e257604051636a256b2960e01b81526001600160a01b0384811660048301525f908290602490829084908b165af180156104d757611a01575b5060405162dc326d60e71b81526001600160a01b03848116600483015261018090829060249082908a165afa9081156104d7575f9161194a575b5060405163055f575160e41b81526001600160a01b0385811660048301529096906080908890602490829085165afa9687156104d7575f976118e9575b5081518752611439602088015161531d565b61145c611449606085015161531d565b611456608086015161531d565b906150f3565b80808301125f8312908015821691151617610de35761147b9101615346565b91611489604089015161531d565b6114a661149960a084015161531d565b61145660c085015161531d565b80808301125f8312908015821691151617610de3576114c59101615346565b906114f26114d660608b015161531d565b916114566101006114ea60e084015161531d565b92015161531d565b80808301125f8312908015821691151617610de3576115119101615346565b606089015260408801528160208801525f9160ff8451161561189d575b50600160ff84511614611853575b600260ff84511614611809575b600360ff845116146117e0575b602087015191606060408901519801519760c060a08601519501519160405163032bb44360e01b815260018060a01b038516600482015260208160248160018060a01b037f0000000000000000000000000000000000000000000000000000000000000000165afa9081156104d7575f916117a6575b5015610506576115ff61039b307f0000000000000000000000000000000000000000000000000000000000000000614e5f565b99600161160b836150d7565b14611786575b60208701516001600160a01b031680611780575060208401516001600160a01b0316925b6001600160a01b0386163b156104e2576040519663977b1f5f60e01b885260018060a01b038b16600489015260248801526044870152606486015260848501525f60a485015260018060a01b031660c48401525f8360e4818360018060a01b0387165af19081156104d75761170d5f805160206155008339815191529564e8d4a510006116f760019c60209861171b976104c8575061048d61039b307f0000000000000000000000000000000000000000000000000000000000000000614e5f565b0580611761575b50848b8060a01b038a1661510b565b82898060a01b03881661510b565b60a087901b8790039485165f8181528884526040808220939097168082529284528681208682528452868120818155808a018290556002015594519384529392a36104a9565b61176d61177a916153c0565b8c8060a01b038b166149b1565b5f6116fe565b92611635565b6117a1611792836153c0565b6001600160a01b038b16614efe565b611611565b90506020813d6020116117d8575b816117c160209383614695565b810103126104e2576117d290614863565b5f6115cc565b3d91506117b4565b9050608082015160016117f282615439565b036118045750600160ff1b5b90611556565b6117fe565b60808301805161182057505f5b6060880152611549565b61182d606089015161531d565b905180808301125f8312908015821691151617610de35761184e9101615346565b611816565b60808301805161186a57505f5b604088015261153c565b611877604089015161531d565b905180808301125f8312908015821691151617610de3576118989101615346565b611860565b60808401908151155f146118ba5750505f5b60208801525f61152e565b6118c39061531d565b905180808301125f8312908015821691151617610de3576118e49101615346565b6118af565b9096506080813d608011611942575b8161190560809383614695565b810103126104e25760606040519161191c8361460d565b80518352602081015160208401526040810151604084015201516060820152955f611427565b3d91506118f8565b9050610180813d610180116119f9575b816119686101809383614695565b810103126104e2576040519061197d82614628565b805182526020810151602083015260408101516040830152606081015160608301526080810151608083015260a081015160a083015260c0808201519083015260e081015160e083015261010080820151908301526101208082015190830152610140808201519083015261016080910151908201525f6113ea565b3d915061195a565b611a0a906145fa565b5f6113b0565b905092839161130c565b5f198101908111610de35764e8d4a51000900490600182018211610de35761132093600161131b9301906112ff565b6024906305f5e100670de0b6b3a76400006040519263280f944f60e11b845202056004820152fd5b905060a0813d60a011611ab6575b81611a8c60a09383614695565b810103126104e257611a9d81615309565b50611aaf608060208301519201615309565b505f61126e565b3d9150611a7f565b9091506020813d602011611aea575b81611ada60209383614695565b810103126104e25751905f6111cc565b3d9150611acd565b90506020813d602011611b1e575b81611b0d60209383614695565b810103126104e2575161119f611191565b3d9150611b00565b9091506020813d602011611b52575b81611b4260209383614695565b810103126104e25751905f611165565b3d9150611b35565b90506020823d602011611b88575b81611b7560209383614695565b810103126104e25761113991519061112c565b3d9150611b68565b90506020813d602011611bba575b81611bab60209383614695565b810103126104e257515f6110ef565b3d9150611b9e565b90506020813d602011611bec575b81611bdd60209383614695565b810103126104e257515f6110c3565b3d9150611bd0565b6040516337a314b160e11b8152600490fd5b8051600b81101561217a57600603611e7f57602001518051810160c0828203126104e257611c3660208301614bc9565b6040830151606084015191906001600160401b0383116104e25760208401603f8487010112156104e25784830160200151926001600160401b038411611e6b578360051b9060405194611c8c6020840187614695565b855260208501809260208801604082858c010101116104e2576040838a0101915b604082858c0101018310611e5b5750505050608086015160a08701519095906001600160401b0381116104e257611cf160c091602080611cf89501918b0101614bfe565b9701614863565b95611d23307f0000000000000000000000000000000000000000000000000000000000000000614e5f565b956001600160a01b0385163b156104e2576040516301e298b960e41b815260606004820152955160648701819052869493608486019392915f905b808210611e3f57505050611d8985935f97959385936024850152600319848303016044850152614e0b565b03926001600160a01b03165af19081611e30575b50611dce5750611dab614e30565b90611db957506001906104a9565b60405190611dc68261467a565b5f82526152c1565b6001929150611e04611e2b916109ae307f0000000000000000000000000000000000000000000000000000000000000000614e5f565b337f0000000000000000000000000000000000000000000000000000000000000000614db1565b6104a9565b611e39906145fa565b5f611d9d565b8251865289975060209586019590920191600190910190611d5e565b8251815260209283019201611cad565b634e487b7160e01b5f52604160045260245ffd5b8051600b81101561217a5760080361201757602001516020818051810103126104e2576001600160a01b0390611eb790602001614bc9565b60405163032bb44360e01b815291166004820181905291906020816024817f00000000000000000000000000000000000000000000000000000000000000006001600160a01b03165afa9081156104d7575f91611fdd575b501580611f47575b61050657611e2b6001927f0000000000000000000000000000000000000000000000000000000000000000614c6f565b5060405163032bb44360e01b8152600481018390526020816024817f00000000000000000000000000000000000000000000000000000000000000006001600160a01b03165afa9081156104d7575f91611fa3575b5015611f17565b90506020813d602011611fd5575b81611fbe60209383614695565b810103126104e257611fcf90614863565b5f611f9c565b3d9150611fb1565b90506020813d60201161200f575b81611ff860209383614695565b810103126104e25761200990614863565b5f611f0f565b3d9150611feb565b8051600b81101561217a57600a14612033575b506001906104a9565b60200151906040828051810103126104e25761205d604061205660208501614bc9565b9301614863565b60405163032bb44360e01b81526001600160a01b03938416600482018190529193602090829060249082907f0000000000000000000000000000000000000000000000000000000000000000165afa9081156104d7575f91612140575b501561050657604051636ebc51e160e01b81526001600160a01b038716600482015290602090829060249082905f905af19081156104d7575f9161210d575b506001926121079187614b35565b9061202a565b90506020813d602011612138575b8161212860209383614695565b810103126104e2575160016120f9565b3d915061211b565b90506020813d602011612172575b8161215b60209383614695565b810103126104e25761216c90614863565b5f6120ba565b3d915061214e565b634e487b7160e01b5f52602160045260245ffd5b6040516342ecdedb60e01b8152600490fd5b5060018060a01b0383165f52600260205260405f20335f5260205260ff60405f2054161561014a565b346104e2575f3660031901126104e25760206040517f00000000000000000000000000000000000000000000000000000000000000008152f35b346104e2575f3660031901126104e25760206040517f00000000000000000000000000000000000000000000000000000000000000008152f35b346104e257602061225661225036614532565b91614870565b6040519015158152f35b346104e25761228661227a61227436614532565b91614717565b6040519182918261457f565b0390f35b346104e2575f3660031901126104e257602060405160108152f35b346104e2575f3660031901126104e2576040517f00000000000000000000000000000000000000000000000000000000000000006001600160a01b03168152602090f35b346104e2575f3660031901126104e25760205f54604051908152f35b346104e2575f3660031901126104e2576040517f00000000000000000000000000000000000000000000000000000000000000006001600160a01b03168152602090f35b346104e25760203660031901126104e2576004356001600160a01b03818116918290036104e2577f6fee9688c285c5c5c97d6a1a29adced674e6b2ad0888b8ad2116b58a8b3ea2486002815410156124f057600290557f2801b00eb06461cf9fcb9758b5fafd884ff06a86177386f73b6c49f0bf5a5af090600182557f0000000000000000000000000000000000000000000000000000000000000000303b1515806124e9575b6124d75761246f612495925f955f8051602061556083398151915255825f805160206155a083398151915255807f000000000000000000000000000000000000000000000000000000000000000016806124c3575b507f0000000000000000000000000000000000000000000000000000000000000000168092614c6f565b7f0000000000000000000000000000000000000000000000000000000000000000614c6f565b557fbe9b076dc5b65990cca9dd9d7366682482e7817a6f6bc7f4faf4dc32af497f32602060405160028152a1005b8061246f6124d19286614c6f565b86612445565b60405163b9a621e160e01b8152600490fd5b505f6123f0565b604051631edb9c6d60e11b815260026004820152602490fd5b60203660031901126104e2576004356001600160401b0381116104e257612534903690600401614502565b905f5b82811061255657478047106101df575f80808093335af161016f614e30565b8060051b820135603e19833603018112156104e25782016040813603126104e25760405190612584826145df565b600b908035828110156104e25783526020810135906001600160401b0382116104e2570136601f820112156104e2576125c4903690602081359101614b93565b916020810192835280518281101561217a5760010361283757505051908151820161014083602083019203126104e25761260060208401614bc9565b9260408101519360608201519160808101519060a0810151936126286102f460c08401614863565b60405163032bb44360e01b81526001600160a01b038681166004830152919691602090829060249082907f0000000000000000000000000000000000000000000000000000000000000000165afa9081156104d7575f916127fd575b5015610506576126b761039b307f0000000000000000000000000000000000000000000000000000000000000000614e5f565b9360016126c3836150d7565b146127e5575b60208401516001600160a01b0316806127df575060208701516001600160a01b0316925b6001600160a01b0387163b156104e25760405163977b1f5f60e01b8152336004820152602481019b909b5260448b015260648a015260848901525f60a489018190526001600160a01b0391821660c48a015290889060e4908290849088165af19485156104d75764e8d4a5100061279a6127ab9460019a6127b1996127d0575061048d61039b307f0000000000000000000000000000000000000000000000000000000000000000614e5f565b0590816127b7575b5050823361510b565b3361510b565b01612537565b6127c36127c9926153c0565b33614b35565b89806127a2565b6127d9906145fa565b8d61045f565b926126ed565b6127f8886127f2846153c0565b33615028565b6126c9565b90506020813d60201161282f575b8161281860209383614695565b810103126104e25761282990614863565b8c612684565b3d915061280b565b80518281101561217a57600903612b07575050519081518201916101c0818403126104e25761286860208201614bc9565b92610180828203601f1901126104e2576040519061288582614644565b6040830151825260608301516020830152608083015160408301526128ac60a08401614bc9565b606083015260c0926128bf848201614bc9565b608084015260e081015160a08401528360df1982840301126104e2576040516128e78161465f565b6128f46101008301614bc9565b81526129036101208301614bc9565b60208201526129156101408301614bc9565b6040820152610160820151606082015261018082015160808201526101a082015160a0820152838501526101c0810151916001600160401b0383116104e257612965926020809201920101614bfe565b60405163032bb44360e01b81526001600160a01b038087166004830152919591602090829060249082907f0000000000000000000000000000000000000000000000000000000000000000165afa9081156104d7575f91612acd575b5015610506576001600160a01b0381163b156104e2576040805163736a01df60e01b81523360048201528351602482015260208085015160448301528483015160648301526060808601516001600160a01b039081166084850152608080880151821660a486015260a08089015160c487015298909701518051821660e4860152928301518116610104850152938201519093166101248301529182015161014482015292810151610164840152909201516101848201526101c06101a4820152925f918491829084908290612a9c906101c4830190614e0b565b03926001600160a01b03165af19182156104d757600192612abe575b506127b1565b612ac7906145fa565b84612ab8565b90506020813d602011612aff575b81612ae860209383614695565b810103126104e257612af990614863565b886129c1565b3d9150612adb565b80518281101561217a57600203612ce8575050519081805160a0918291810103126104e2576020830151926001600160a01b039081851685036104e2576040810151612b5e60608301519460808401519301614863565b9360405163032bb44360e01b81528488166004820152602081602481887f0000000000000000000000000000000000000000000000000000000000000000165afa9081156104d7575f91612cae575b50156105065781612c9e575b612be3307f0000000000000000000000000000000000000000000000000000000000000000614e5f565b938088163b156104e2575f92836084926040519a8b958694636961d57960e11b865233600487015260248601526044850152876064850152165af19485156104d757600195612c8f575b50612c5457505f905b81612c43575b50506127b1565b612c4d9133614b35565b8480612c3c565b612c8864e8d4a51000916109ae307f0000000000000000000000000000000000000000000000000000000000000000614e5f565b0490612c36565b612c98906145fa565b87612c2d565b612ca9858333615028565b612bb9565b90506020813d602011612ce0575b81612cc960209383614695565b810103126104e257612cda90614863565b8a612bad565b3d9150612cbc565b80518281101561217a5760030361304a575050519081518201918083039261014084126104e257610120612d1e60208401614bc9565b94601f1901126104e25760405191612d3583614644565b604081015160ff811681036104e2578352606081015191825f0b83036104e257602061012091612d9094828701526080840151604087015260a0840151606087015260c08401516080870152610abd82820160e08601614c40565b60c082015260405163032bb44360e01b81526001600160a01b038481166004830152602090829060249082907f0000000000000000000000000000000000000000000000000000000000000000165afa9081156104d7575f91613010575b501561050657604081015115610df75760208101515f0b5f198114159081613004575b50610df75760ff81511660038111908115612fc8575b50610df757335f52600160205260405f2060018060a01b0384165f5260205260405f205f545f198114610de357600101805f555f5260205260405f209260ff8083511611610dd157607f60208301515f0b13610dd157607f1960208301515f0b12610dd1576002612e9b6040840151615272565b14610dd1576002612eaf606084015161546c565b14610dd157612ec16060830151615439565b15610dd1576002612ed5608084015161546c565b14610dd157612ee76080830151615439565b15610dd1576002612efc60a084015151615297565b14610dd1576002612f1160c084015151615297565b14610dd15765ffffffffffff60c0612f9284600197600260ff83511691602084015192604085015160608601519060808701519261ff0060a0890151976001610160815f9260a01b0360208c0151169e8f9b51169d8e9c01519a60018c60208265ffffffffffff9360a01b03910151169c51169c60405191610cd483614628565b81541690555f54915f8051602061554083398151915260405192868060a01b03169280612fc033948261457f565b0390a46127b1565b600391501480612fd9575b86612e27565b50612fe76080820151615454565b60028114908115612ff9575b50612fd3565b600191501486612ff3565b60019150141586612e11565b90506020813d602011613042575b8161302b60209383614695565b810103126104e25761303c90614863565b86612dee565b3d915061301e565b80518281101561217a576004036130d357505051906040828051810103126104e25781604061307d602060019501614bc9565b910151335f528360205260405f2091848060a01b031691825f5260205260405f20815f526020525f600260408220828155828782015501556040519081525f8051602061552083398151915260203392a36127b1565b80518281101561217a57600503613cef57505051906060828051810103126104e25761310160208301614bc9565b606061310f60408501614bc9565b93015161312681856001600160a01b038516614870565b15611bf45761313f81856001600160a01b038516614717565b60405161314b8161460d565b5f81527f000000000000000000000000000000000000000000000000000000000000000060208201525f60408201527f0000000000000000000000000000000000000000000000000000000000000000606082015260408201516040519060018060a01b038616602083015260018060a01b03881660408301526060820152606081526131d78161460d565b604051916131e48361467a565b5f83525f6020840152670de0b6b3a764000061320d825161107183611060602087015193614d76565b0492613240602060606040850151940151926040518093819263de26c4a160e01b83528460048401526024830190614e0b565b0381600f602160991b015afa9081156104d7575f91613cbd575b506040516318b30b2360e31b8152602081600481600f602160991b015afa9081156104d7575f91613c8b575b506001600160fc1b0381168103610de35760405163519b4bd360e01b815290602082600481600f602160991b015afa9081156104d7575f91613c55575b6132d0925060041b614d84565b60405163346aee5360e11b815290602082600481600f602160991b015afa9182156104d7575f92613c21575b506040516303e0818560e61b8152602081600481600f602160991b015afa9081156104d7575f91613bed575b5061106b9061333693614d84565b60405163313ce56760e01b81529092602082600481600f602160991b015afa9182156104d7575f92613bb9575b50604d8211610de357600a82900a6001600160fc1b0381169003610de35761106b670de0b6b3a764000061121b81976110716112156133ac9961107198600a0a60041b90615091565b04906133b882846152fc565b5f8051602061556083398151915254604051633fabe5a360e21b81529060a090829060049082906001600160a01b03165afa9081156104d7575f91613b6c575b50670de0b6b3a7640000810290808205670de0b6b3a76400001490151715610de3575f6305f5e100820512613b4d57670de0b6b3a7640000916305f5e100613441920590614d84565b04906060818051810103126104e25761345c60208201614bc9565b606061346a60408401614bc9565b9201519280613b1e57506134989261131b91905f908015611a1057509283916001600160a01b0316906153cf565b906134b282335f805160206155a083398151915254614db1565b604051925f84525f60208501526040840152606083015260808201525f8051602061558083398151915260a03392a26001600160a01b0385163b156104e257604051636a256b2960e01b81526001600160a01b0384811660048301525f908290602490829084908b165af180156104d757613b0f575b5060405162dc326d60e71b81526001600160a01b03848116600483015261018091908290829060249082908b165afa9182156104d7575f92613a5f575b505060405163055f575160e41b81526001600160a01b0385811660048301529096906080908890602490829085165afa9687156104d7575f976139fe575b50815187526135b5602088015161531d565b6135c5611449606085015161531d565b80808301125f8312908015821691151617610de3576135e49101615346565b916135f2604089015161531d565b61360261149960a084015161531d565b80808301125f8312908015821691151617610de3576136219101615346565b906136326114d660608b015161531d565b80808301125f8312908015821691151617610de3576136519101615346565b606089015260408801528160208801525f9160ff845116156139b2575b50600160ff84511614613968575b600260ff8451161461391e575b600360ff845116146138f5575b602087015191606060408901519801519760c060a08601519501519160405163032bb44360e01b815260018060a01b038516600482015260208160248160018060a01b037f0000000000000000000000000000000000000000000000000000000000000000165afa9081156104d7575f916138bb575b50156105065761373f61039b307f0000000000000000000000000000000000000000000000000000000000000000614e5f565b99600161374b836150d7565b146138aa575b60208701516001600160a01b0316806138a4575060208401516001600160a01b0316925b6001600160a01b0386163b156104e2576040519663977b1f5f60e01b885260018060a01b038b16600489015260248801526044870152606486015260848501525f60a485015260018060a01b031660c48401525f8360e4818360018060a01b0387165af19081156104d75761170d5f805160206155008339815191529564e8d4a5100061383760019c60209861384c976104c8575061048d61039b307f0000000000000000000000000000000000000000000000000000000000000000614e5f565b05806138925750848b8060a01b038a1661510b565b60a087901b8790039485165f8181528884526040808220939097168082529284528681208682528452868120818155808a018290556002015594519384529392a36127b1565b61176d61389e916153c0565b8d6116fe565b92613775565b6138b6611792836153c0565b613751565b90506020813d6020116138ed575b816138d660209383614695565b810103126104e2576138e790614863565b8d61370c565b3d91506138c9565b90506080820151600161390782615439565b036139195750600160ff1b5b90613696565b613913565b60808301805161393557505f5b6060880152613689565b613942606089015161531d565b905180808301125f8312908015821691151617610de3576139639101615346565b61392b565b60808301805161397f57505f5b604088015261367c565b61398c604089015161531d565b905180808301125f8312908015821691151617610de3576139ad9101615346565b613975565b60808401908151155f146139cf5750505f5b60208801528961366e565b6139d89061531d565b905180808301125f8312908015821691151617610de3576139f99101615346565b6139c4565b9096506080813d608011613a57575b81613a1a60809383614695565b810103126104e257606060405191613a318361460d565b8051835260208101516020840152604081015160408401520151606082015295896135a3565b3d9150613a0d565b90809250813d8311613b08575b613a768183614695565b810103126104e25760405190613a8b82614628565b805182526020810151602083015260408101516040830152606081015160608301526080810151608083015260a081015160a083015260c0808201519083015260e081015160e083015261010080820151908301526101208082015190830152610140808201519083015261016080910151908201528880613565565b503d613a6c565b613b18906145fa565b87613528565b5f198101908111610de35764e8d4a51000900490600182018211610de35761349893600161131b9301906112ff565b60405163280f944f60e11b81526305f5e1009091056004820152602490fd5b905060a0813d60a011613bb1575b81613b8760a09383614695565b810103126104e257613b9881615309565b50613baa608060208301519201615309565b508c6133f8565b3d9150613b7a565b9091506020813d602011613be5575b81613bd560209383614695565b810103126104e25751908e613363565b3d9150613bc8565b90506020813d602011613c19575b81613c0860209383614695565b810103126104e25751613336613328565b3d9150613bfb565b9091506020813d602011613c4d575b81613c3d60209383614695565b810103126104e25751908e6132fc565b3d9150613c30565b90506020823d602011613c83575b81613c7060209383614695565b810103126104e2576132d09151906132c3565b3d9150613c63565b90506020813d602011613cb5575b81613ca660209383614695565b810103126104e257518d613286565b3d9150613c99565b90506020813d602011613ce7575b81613cd860209383614695565b810103126104e257518c61325a565b3d9150613ccb565b80518281101561217a57600603613f0f575050518051810160c0828203126104e257613d1d60208301614bc9565b6040830151606084015191906001600160401b0383116104e25760208401603f8487010112156104e25784830160200151926001600160401b038411611e6b578360051b9060405194613d736020840187614695565b855260208501809260208801604082858c010101116104e2576040838a0101915b604082858c0101018310613eff5750505050608086015160a08701519095906001600160401b0381116104e257611cf160c091602080613dd89501918b0101614bfe565b95613e03307f0000000000000000000000000000000000000000000000000000000000000000614e5f565b956001600160a01b0385163b156104e2576040516301e298b960e41b815260606004820152955160648701819052869493608486019392915f905b808210613ee357505050613e6985935f97959385936024850152600319848303016044850152614e0b565b03926001600160a01b03165af19081613ed4575b50613e995750613e8b614e30565b90611db957506001906127b1565b6001929150611e04613ecf916109ae307f0000000000000000000000000000000000000000000000000000000000000000614e5f565b6127b1565b613edd906145fa565b86613e7d565b8251865289975060209586019590920191600190910190613e3e565b8251815260209283019201613d94565b80518281101561217a5760080361409a57505051906020828051810103126104e2576001600160a01b03918290613f4890602001614bc9565b16916040519063032bb44360e01b8083528460048401526024926020818581867f0000000000000000000000000000000000000000000000000000000000000000165afa9081156104d7575f91614060575b50159283613fd6575b50505061050657613ecf6001927f0000000000000000000000000000000000000000000000000000000000000000614c6f565b60209293506040518094819382528760048301527f0000000000000000000000000000000000000000000000000000000000000000165afa9081156104d7575f91614026575b5015858080613fa3565b90506020813d602011614058575b8161404160209383614695565b810103126104e25761405290614863565b8561401c565b3d9150614034565b90506020813d602011614092575b8161407b60209383614695565b810103126104e25761408c90614863565b88613f9a565b3d915061406e565b519081101561217a57600a146140b4575b506001906127b1565b51906040828051810103126104e2576140d4604061205660208501614bc9565b60405163032bb44360e01b81526001600160a01b03938416600482018190529193602491906020908290849082907f0000000000000000000000000000000000000000000000000000000000000000165afa9081156104d7575f916141ae575b501561050657604051636ebc51e160e01b815233600482015291602091839182905f905af19081156104d7575f9161417b575b506001926141759133614b35565b906140ab565b90506020813d6020116141a6575b8161419660209383614695565b810103126104e257516001614167565b3d9150614189565b90506020813d6020116141e0575b816141c960209383614695565b810103126104e2576141da90614863565b87614134565b3d91506141bc565b346104e2575f3660031901126104e2575f80516020615560833981519152546040516001600160a01b039091168152602090f35b346104e2575f3660031901126104e2576040517f00000000000000000000000000000000000000000000000000000000000000006001600160a01b03168152602090f35b346104e25761426e366144d3565b6001600160a01b039091169033821415806142a4575b61218e576142a2915f52600360205260405f205f8154915533614b35565b005b50815f52600260205260405f20335f5260205260ff60405f20541615614284565b346104e2575f3660031901126104e2576040517f00000000000000000000000000000000000000000000000000000000000000006001600160a01b03168152602090f35b346104e257614317366144d3565b335f52600260205260405f209160018060a01b031691825f5260205260405f209015159060ff1981541660ff83161790556040519081527f2738289d9deecdc30eb8ffc42876633caecca1ffa166e4efa89f408e17373a1a60203392a3005b346104e25760203660031901126104e2576001600160a01b036143976144bd565b165f526003602052602060405f2054604051908152f35b346104e2575f3660031901126104e2575f805160206155a0833981519152546040516001600160a01b039091168152602090f35b346104e25760403660031901126104e2576143fb6144bd565b6001600160a01b0360243581811692908390036104e257165f52600260205260405f20905f52602052602060ff60405f2054166040519015158152f35b346104e2575f3660031901126104e2576040517f00000000000000000000000000000000000000000000000000000000000000006001600160a01b03168152602090f35b346104e2575f3660031901126104e2577f00000000000000000000000000000000000000000000000000000000000000006001600160a01b03168152602090f35b600435906001600160a01b03821682036104e257565b60409060031901126104e2576004356001600160a01b03811681036104e2579060243580151581036104e25790565b9181601f840112156104e2578235916001600160401b0383116104e2576020808501948460051b0101116104e257565b60609060031901126104e2576001600160a01b039060043582811681036104e2579160243590811681036104e2579060443590565b805182526020908101516001600160a01b0316910152565b6145dd9092919260e060c061012083019560ff815116845260208101515f0b60208501526040810151604085015260608101516060850152608081015160808501526145d360a082015160a0860190614567565b0151910190614567565b565b604081019081106001600160401b03821117611e6b57604052565b6001600160401b038111611e6b57604052565b608081019081106001600160401b03821117611e6b57604052565b61018081019081106001600160401b03821117611e6b57604052565b60e081019081106001600160401b03821117611e6b57604052565b60c081019081106001600160401b03821117611e6b57604052565b602081019081106001600160401b03821117611e6b57604052565b601f909101601f19168101906001600160401b03821190821017611e6b57604052565b604051906146c582614644565b815f81525f60208201525f60408201525f60608201525f60808201526040516146ed816145df565b5f81525f602082015260a082015260c06040519161470a836145df565b5f83525f60208401520152565b9190916147226146b8565b506001600160a01b039081165f908152600160209081526040808320958416835294815284822093825292835283902061475a6146b8565b5083519161476783614628565b81549360ff8516958685528560081c5f0b808387015260018060401b038760101c169283838801528760501c60070b948560608901528860901c60070b968760808a015260018060d01b0319809a1660a08a015260018101549889916002848416918260c08501528d65ffffffffffff809660a01c169d8e60e08701521661010085015201549161016061012082019d8e8786169052610140830194868160a01c1686521691015286519a61481b8c6145df565b8b52848b015251169851168351986148328a6145df565b8952818901528251986148448a614644565b89528801528601526060850152608084015260a083015260c082015290565b519081151582036104e257565b918161487c9293614717565b60409081810151156149aa5781516307dc0d1d60e41b81526001600160a01b03936020919082908290600490829089165afa80156149a0575f90614969575b6060915060048551809781936352bfe78960e01b8352165afa928315614960575f936148f1575b50506148ee9250614ce2565b90565b909192506060843d606011614958575b8161490e60609383614695565b810103126104e257805191606083016001600160401b03811184821017611e6b5782528451835280850151908301526148ee9361494c908201614863565b90820152905f806148e2565b3d9150614901565b513d5f823e3d90fd5b508181813d8311614999575b61497f8183614695565b810103126104e2575184811681036104e2576060906148bb565b503d614975565b84513d5f823e3d90fd5b5050505f90565b906149bb90614d97565b906001600160a01b03907f0000000000000000000000000000000000000000000000000000000000000000821680158015614af6575b15614aae57507f000000000000000000000000000000000000000000000000000000000000000091614a233084614e5f565b93817f00000000000000000000000000000000000000000000000000000000000000001690813b156104e2575f9160248392604051948593849263db006a7560e01b845260048401525af180156104d757614a9f575b503090821603614a8857505050565b614a996145dd936109ae3085614e5f565b91614db1565b614aa8906145fa565b5f614a79565b809392503b156104e257614adb925f9283604051809681958294637647691d60e01b845260048401614df2565b03925af180156104d757614aed575b50565b6145dd906145fa565b506002614b2f614b2961131b847f0000000000000000000000000000000000000000000000000000000000000000614e5f565b866152b0565b146149f1565b9115614b44576149bb90614d97565b90614b516145dd92614d97565b907f0000000000000000000000000000000000000000000000000000000000000000614db1565b6001600160401b038111611e6b57601f01601f191660200190565b929192614b9f82614b78565b91614bad6040519384614695565b8294818452818301116104e2578281602093845f960137010152565b51906001600160a01b03821682036104e257565b5f5b838110614bee5750505f910152565b8181015183820152602001614bdf565b81601f820112156104e2578051614c1481614b78565b92614c226040519485614695565b818452602082840101116104e2576148ee9160208085019101614bdd565b91908260409103126104e257604051614c58816145df565b6020614c6a8183958051855201614bc9565b910152565b60405163095ea7b360e01b81526001600160a01b0392831660048201525f19602482015291602091839160449183915f91165af180156104d757614cb05750565b6020813d602011614cda575b81614cc960209383614695565b810103126104e257614aea90614863565b3d9150614cbc565b604082015115614d535760208101515f0b60018114614d30575f1914614d085750505f90565b60606020614d1b93015191015190615486565b8015908115614d28575090565b600191501490565b5060606020614d4493015191015190615486565b60028114908115614d28575090565b50505f90565b90670de0b6b3a764000091828102928184041490151715610de357565b905f911560011715610de357565b81810292918115918404141715610de357565b64e8d4a5100090818102918183041490151715610de35790565b60405163a9059cbb60e01b60208201526001600160a01b0392831660248201526044808201949094529283526145dd929190614dec8361460d565b16615194565b9081526001600160a01b03909116602082015260400190565b90602091614e2481518092818552858086019101614bdd565b601f01601f1916010190565b3d15614e5a573d90614e4182614b78565b91614e4f6040519384614695565b82523d5f602084013e565b606090565b6040516370a0823160e01b81526001600160a01b0392831660048201529160209183916024918391165afa9081156104d7575f91614e9b575090565b90506020813d602011614ec2575b81614eb660209383614695565b810103126104e2575190565b3d9150614ea9565b91908203918211610de357565b805465ffffffffffff60a01b191660a09290921b65ffffffffffff60a01b16919091179055565b9061131b81614f2d937f0000000000000000000000000000000000000000000000000000000000000000615368565b6001600160a01b037f0000000000000000000000000000000000000000000000000000000000000000811680158015614fec575b15614fbd57507f00000000000000000000000000000000000000000000000000000000000000001690813b156104e2575f9160248392604051948593849263140e25ad60e31b845260048401525af180156104d757614aed5750565b8091503b156104e257604051629dd64160e51b8152915f918391829084908290614adb90309060048401614df2565b50600261502261501c837f0000000000000000000000000000000000000000000000000000000000000000614e5f565b856152b0565b14614f61565b90911561505e579061131b81614f2d937f0000000000000000000000000000000000000000000000000000000000000000615368565b61506a6145dd92614d97565b907f0000000000000000000000000000000000000000000000000000000000000000615368565b811561509b570490565b634e487b7160e01b5f52601260045260245ffd5b6001600160ff1b0381116150c05790565b6024906040519062a07eb560e01b82526004820152fd5b5f81136150ed575f136150e8575f90565b5f1990565b50600190565b81810392915f138015828513169184121617610de357565b91908151801561518e5781615144604092867f037af8589fe92360e800c649b0515b0b2bf77b577766ff952b17630c4ad25f47956153cf565b6020840160018060a01b03918183809351165f5260036020528261516d865f20548951906152fc565b9151165f526003602052845f205561518784518097614567565b16941692a3565b50505050565b6040516151f1916001600160a01b03166151ad826145df565b5f806020958685527f5361666545524332303a206c6f772d6c6576656c2063616c6c206661696c656487860152868151910182855af16151eb614e30565b91615497565b8051806151fd57505050565b818391810103126104e257816152139101614863565b1561521b5750565b6084906040519062461bcd60e51b82526004820152602a60248201527f5361666545524332303a204552433230206f7065726174696f6e20646964206e6044820152691bdd081cdd58d8d9595960b21b6064820152fd5b6001600160401b0390818111615290571061528c57600190565b5f90565b5050600290565b65ffffffffffff90818111615290571061528c57600190565b818111615290571061528c57600190565b8051909190156152d45750805190602001fd5b60405162461bcd60e51b8152602060048201529081906152f8906024830190614e0b565b0390fd5b91908201809211610de357565b51906001600160501b03821682036104e257565b6001600160ff1b03811161532e5790565b6024906040519063eecaa25d60e01b82526004820152fd5b5f81126153505790565b6024906040519063b02ef08760e01b82526004820152fd5b6040516323b872dd60e01b60208201526001600160a01b03928316602482015230604482015260648082019490945292835260a083019291906001600160401b03841183851017611e6b576145dd9360405216615194565b5f81126153ca5790565b5f0390565b6001600160a01b03908116926153e49061531d565b92803b156104e2575f928360c492604051968795869463123dd9c560e31b865216600485015282198060248601528060448601526064850152820360848401528160a48401525af180156104d757614aed5750565b60016001603f1b031990818113615290571261528c57600190565b5f8113615466575f1361528c57600190565b50600290565b60016001603f1b0390818113615290571261528c57600190565b818113615290571261528c57600190565b919290156154f957508151156154ab575090565b3b156154b45790565b60405162461bcd60e51b815260206004820152601d60248201527f416464726573733a2063616c6c20746f206e6f6e2d636f6e74726163740000006044820152606490fd5b826152c156fe889f0643d669fbac53cbc7d1826992b9bce1fab5e9644034cffb9c0137fe9dd1d23ac4476ccf3eeb78c76d4b7bb113597bcd16c15d47656627ea6221d685ad73b32ded07b7d673202a5f35a959c39fc092a3d213bff00dadc295545acedf22d32b50211693ec91bcfe327771928b74a8f475c508d53e86fca4153bcf0f0e8776fa0333956d06e335c550bd5fc4ac9c003c6545e371331b1071fa4d5d8519d6c15b5cbfa852c5bd03e540eba853f8faf28a604a4d82bee1091096bfaea14d08c3a26469706673582212206f8612cbe19ee66f22c847bff82c8783b6e5e3ca587a9036e33f86873edd4d6a64736f6c63430008180033"
}