{
  "address": "0x699e37DfCEe5c6E4c5D0bC1C2FFbC2afEC55f6FB",
  "abi": [
    {
      "inputs": [],
      "name": "AccountStorageInvalidError",
      "type": "error"
    },
    {
      "inputs": [],
      "name": "AccountStorageInvalidError",
      "type": "error"
    },
    {
      "inputs": [],
      "name": "CheckpointStorageInvalidError",
      "type": "error"
    },
    {
      "inputs": [],
      "name": "CheckpointStorageInvalidError",
      "type": "error"
    },
    {
      "inputs": [
        {
          "internalType": "uint256",
          "name": "value",
          "type": "uint256"
        }
      ],
      "name": "Fixed6OverflowError",
      "type": "error"
    },
    {
      "inputs": [
        {
          "internalType": "uint256",
          "name": "version",
          "type": "uint256"
        }
      ],
      "name": "InitializableAlreadyInitializedError",
      "type": "error"
    },
    {
      "inputs": [],
      "name": "InitializableNotInitializingError",
      "type": "error"
    },
    {
      "inputs": [],
      "name": "InitializableZeroVersionError",
      "type": "error"
    },
    {
      "inputs": [
        {
          "internalType": "address",
          "name": "sender",
          "type": "address"
        }
      ],
      "name": "InstanceNotOwnerError",
      "type": "error"
    },
    {
      "inputs": [],
      "name": "InstancePausedError",
      "type": "error"
    },
    {
      "inputs": [],
      "name": "MappingStorageInvalidError",
      "type": "error"
    },
    {
      "inputs": [],
      "name": "MappingStorageInvalidError",
      "type": "error"
    },
    {
      "inputs": [],
      "name": "RegistrationStorageInvalidError",
      "type": "error"
    },
    {
      "inputs": [],
      "name": "RegistrationStorageInvalidError",
      "type": "error"
    },
    {
      "inputs": [
        {
          "internalType": "int256",
          "name": "value",
          "type": "int256"
        }
      ],
      "name": "UFixed6UnderflowError",
      "type": "error"
    },
    {
      "inputs": [],
      "name": "VaultDepositLimitExceededError",
      "type": "error"
    },
    {
      "inputs": [],
      "name": "VaultExistingOrderError",
      "type": "error"
    },
    {
      "inputs": [],
      "name": "VaultIncorrectAssetError",
      "type": "error"
    },
    {
      "inputs": [],
      "name": "VaultInsufficientMinimumError",
      "type": "error"
    },
    {
      "inputs": [],
      "name": "VaultMarketDoesNotExistError",
      "type": "error"
    },
    {
      "inputs": [],
      "name": "VaultMarketExistsError",
      "type": "error"
    },
    {
      "inputs": [],
      "name": "VaultNotMarketError",
      "type": "error"
    },
    {
      "inputs": [],
      "name": "VaultNotOperatorError",
      "type": "error"
    },
    {
      "inputs": [],
      "name": "VaultNotSingleSidedError",
      "type": "error"
    },
    {
      "inputs": [],
      "name": "VaultParameterStorageInvalidError",
      "type": "error"
    },
    {
      "inputs": [],
      "name": "VaultParameterStorageInvalidError",
      "type": "error"
    },
    {
      "inputs": [],
      "name": "VaultRedemptionLimitExceededError",
      "type": "error"
    },
    {
      "anonymous": false,
      "inputs": [
        {
          "indexed": false,
          "internalType": "uint256",
          "name": "version",
          "type": "uint256"
        }
      ],
      "name": "Initialized",
      "type": "event"
    },
    {
      "anonymous": false,
      "inputs": [
        {
          "indexed": true,
          "internalType": "uint256",
          "name": "marketId",
          "type": "uint256"
        },
        {
          "indexed": false,
          "internalType": "contract IMarket",
          "name": "market",
          "type": "address"
        }
      ],
      "name": "MarketRegistered",
      "type": "event"
    },
    {
      "anonymous": false,
      "inputs": [
        {
          "indexed": true,
          "internalType": "uint256",
          "name": "marketId",
          "type": "uint256"
        },
        {
          "indexed": false,
          "internalType": "uint256",
          "name": "newWeight",
          "type": "uint256"
        },
        {
          "indexed": false,
          "internalType": "UFixed6",
          "name": "newLeverage",
          "type": "uint256"
        }
      ],
      "name": "MarketUpdated",
      "type": "event"
    },
    {
      "anonymous": false,
      "inputs": [
        {
          "components": [
            {
              "internalType": "UFixed6",
              "name": "cap",
              "type": "uint256"
            }
          ],
          "indexed": false,
          "internalType": "struct VaultParameter",
          "name": "newParameter",
          "type": "tuple"
        }
      ],
      "name": "ParameterUpdated",
      "type": "event"
    },
    {
      "anonymous": false,
      "inputs": [
        {
          "indexed": true,
          "internalType": "address",
          "name": "sender",
          "type": "address"
        },
        {
          "indexed": true,
          "internalType": "address",
          "name": "account",
          "type": "address"
        },
        {
          "indexed": false,
          "internalType": "uint256",
          "name": "version",
          "type": "uint256"
        },
        {
          "indexed": false,
          "internalType": "UFixed6",
          "name": "depositAssets",
          "type": "uint256"
        },
        {
          "indexed": false,
          "internalType": "UFixed6",
          "name": "redeemShares",
          "type": "uint256"
        },
        {
          "indexed": false,
          "internalType": "UFixed6",
          "name": "claimAssets",
          "type": "uint256"
        }
      ],
      "name": "Updated",
      "type": "event"
    },
    {
      "inputs": [
        {
          "components": [
            {
              "internalType": "UFixed6",
              "name": "settlementFee",
              "type": "uint256"
            },
            {
              "internalType": "uint256",
              "name": "totalWeight",
              "type": "uint256"
            },
            {
              "internalType": "uint256",
              "name": "currentId",
              "type": "uint256"
            },
            {
              "components": [
                {
                  "internalType": "contract IMarket",
                  "name": "market",
                  "type": "address"
                },
                {
                  "internalType": "uint256",
                  "name": "weight",
                  "type": "uint256"
                },
                {
                  "internalType": "UFixed6",
                  "name": "leverage",
                  "type": "uint256"
                }
              ],
              "internalType": "struct Registration[]",
              "name": "registrations",
              "type": "tuple[]"
            },
            {
              "components": [
                {
                  "internalType": "UFixed6",
                  "name": "latestPrice",
                  "type": "uint256"
                },
                {
                  "internalType": "UFixed6",
                  "name": "currentPosition",
                  "type": "uint256"
                },
                {
                  "internalType": "UFixed6",
                  "name": "currentNet",
                  "type": "uint256"
                },
                {
                  "internalType": "Fixed6",
                  "name": "collateral",
                  "type": "int256"
                },
                {
                  "internalType": "UFixed6",
                  "name": "latestAccountPosition",
                  "type": "uint256"
                },
                {
                  "internalType": "UFixed6",
                  "name": "currentAccountPosition",
                  "type": "uint256"
                }
              ],
              "internalType": "struct IVault.MarketContext[]",
              "name": "markets",
              "type": "tuple[]"
            },
            {
              "components": [
                {
                  "internalType": "uint256[]",
                  "name": "_ids",
                  "type": "uint256[]"
                }
              ],
              "internalType": "struct Mapping",
              "name": "currentIds",
              "type": "tuple"
            },
            {
              "components": [
                {
                  "internalType": "uint256[]",
                  "name": "_ids",
                  "type": "uint256[]"
                }
              ],
              "internalType": "struct Mapping",
              "name": "latestIds",
              "type": "tuple"
            },
            {
              "components": [
                {
                  "internalType": "UFixed6",
                  "name": "cap",
                  "type": "uint256"
                }
              ],
              "internalType": "struct VaultParameter",
              "name": "parameter",
              "type": "tuple"
            },
            {
              "components": [
                {
                  "internalType": "UFixed6",
                  "name": "deposit",
                  "type": "uint256"
                },
                {
                  "internalType": "UFixed6",
                  "name": "redemption",
                  "type": "uint256"
                },
                {
                  "internalType": "UFixed6",
                  "name": "shares",
                  "type": "uint256"
                },
                {
                  "internalType": "Fixed6",
                  "name": "assets",
                  "type": "int256"
                },
                {
                  "internalType": "UFixed6",
                  "name": "fee",
                  "type": "uint256"
                },
                {
                  "internalType": "UFixed6",
                  "name": "keeper",
                  "type": "uint256"
                },
                {
                  "internalType": "uint256",
                  "name": "count",
                  "type": "uint256"
                }
              ],
              "internalType": "struct Checkpoint",
              "name": "currentCheckpoint",
              "type": "tuple"
            },
            {
              "components": [
                {
                  "internalType": "UFixed6",
                  "name": "deposit",
                  "type": "uint256"
                },
                {
                  "internalType": "UFixed6",
                  "name": "redemption",
                  "type": "uint256"
                },
                {
                  "internalType": "UFixed6",
                  "name": "shares",
                  "type": "uint256"
                },
                {
                  "internalType": "Fixed6",
                  "name": "assets",
                  "type": "int256"
                },
                {
                  "internalType": "UFixed6",
                  "name": "fee",
                  "type": "uint256"
                },
                {
                  "internalType": "UFixed6",
                  "name": "keeper",
                  "type": "uint256"
                },
                {
                  "internalType": "uint256",
                  "name": "count",
                  "type": "uint256"
                }
              ],
              "internalType": "struct Checkpoint",
              "name": "latestCheckpoint",
              "type": "tuple"
            },
            {
              "components": [
                {
                  "internalType": "uint256",
                  "name": "current",
                  "type": "uint256"
                },
                {
                  "internalType": "uint256",
                  "name": "latest",
                  "type": "uint256"
                },
                {
                  "internalType": "UFixed6",
                  "name": "shares",
                  "type": "uint256"
                },
                {
                  "internalType": "UFixed6",
                  "name": "assets",
                  "type": "uint256"
                },
                {
                  "internalType": "UFixed6",
                  "name": "deposit",
                  "type": "uint256"
                },
                {
                  "internalType": "UFixed6",
                  "name": "redemption",
                  "type": "uint256"
                }
              ],
              "internalType": "struct Account",
              "name": "global",
              "type": "tuple"
            },
            {
              "components": [
                {
                  "internalType": "uint256",
                  "name": "current",
                  "type": "uint256"
                },
                {
                  "internalType": "uint256",
                  "name": "latest",
                  "type": "uint256"
                },
                {
                  "internalType": "UFixed6",
                  "name": "shares",
                  "type": "uint256"
                },
                {
                  "internalType": "UFixed6",
                  "name": "assets",
                  "type": "uint256"
                },
                {
                  "internalType": "UFixed6",
                  "name": "deposit",
                  "type": "uint256"
                },
                {
                  "internalType": "UFixed6",
                  "name": "redemption",
                  "type": "uint256"
                }
              ],
              "internalType": "struct Account",
              "name": "local",
              "type": "tuple"
            }
          ],
          "internalType": "struct IVault.Context",
          "name": "context",
          "type": "tuple"
        }
      ],
      "name": "_collateral",
      "outputs": [
        {
          "internalType": "Fixed6",
          "name": "value",
          "type": "int256"
        }
      ],
      "stateMutability": "view",
      "type": "function"
    },
    {
      "inputs": [
        {
          "components": [
            {
              "internalType": "UFixed6",
              "name": "settlementFee",
              "type": "uint256"
            },
            {
              "internalType": "uint256",
              "name": "totalWeight",
              "type": "uint256"
            },
            {
              "internalType": "uint256",
              "name": "currentId",
              "type": "uint256"
            },
            {
              "components": [
                {
                  "internalType": "contract IMarket",
                  "name": "market",
                  "type": "address"
                },
                {
                  "internalType": "uint256",
                  "name": "weight",
                  "type": "uint256"
                },
                {
                  "internalType": "UFixed6",
                  "name": "leverage",
                  "type": "uint256"
                }
              ],
              "internalType": "struct Registration[]",
              "name": "registrations",
              "type": "tuple[]"
            },
            {
              "components": [
                {
                  "internalType": "UFixed6",
                  "name": "latestPrice",
                  "type": "uint256"
                },
                {
                  "internalType": "UFixed6",
                  "name": "currentPosition",
                  "type": "uint256"
                },
                {
                  "internalType": "UFixed6",
                  "name": "currentNet",
                  "type": "uint256"
                },
                {
                  "internalType": "Fixed6",
                  "name": "collateral",
                  "type": "int256"
                },
                {
                  "internalType": "UFixed6",
                  "name": "latestAccountPosition",
                  "type": "uint256"
                },
                {
                  "internalType": "UFixed6",
                  "name": "currentAccountPosition",
                  "type": "uint256"
                }
              ],
              "internalType": "struct IVault.MarketContext[]",
              "name": "markets",
              "type": "tuple[]"
            },
            {
              "components": [
                {
                  "internalType": "uint256[]",
                  "name": "_ids",
                  "type": "uint256[]"
                }
              ],
              "internalType": "struct Mapping",
              "name": "currentIds",
              "type": "tuple"
            },
            {
              "components": [
                {
                  "internalType": "uint256[]",
                  "name": "_ids",
                  "type": "uint256[]"
                }
              ],
              "internalType": "struct Mapping",
              "name": "latestIds",
              "type": "tuple"
            },
            {
              "components": [
                {
                  "internalType": "UFixed6",
                  "name": "cap",
                  "type": "uint256"
                }
              ],
              "internalType": "struct VaultParameter",
              "name": "parameter",
              "type": "tuple"
            },
            {
              "components": [
                {
                  "internalType": "UFixed6",
                  "name": "deposit",
                  "type": "uint256"
                },
                {
                  "internalType": "UFixed6",
                  "name": "redemption",
                  "type": "uint256"
                },
                {
                  "internalType": "UFixed6",
                  "name": "shares",
                  "type": "uint256"
                },
                {
                  "internalType": "Fixed6",
                  "name": "assets",
                  "type": "int256"
                },
                {
                  "internalType": "UFixed6",
                  "name": "fee",
                  "type": "uint256"
                },
                {
                  "internalType": "UFixed6",
                  "name": "keeper",
                  "type": "uint256"
                },
                {
                  "internalType": "uint256",
                  "name": "count",
                  "type": "uint256"
                }
              ],
              "internalType": "struct Checkpoint",
              "name": "currentCheckpoint",
              "type": "tuple"
            },
            {
              "components": [
                {
                  "internalType": "UFixed6",
                  "name": "deposit",
                  "type": "uint256"
                },
                {
                  "internalType": "UFixed6",
                  "name": "redemption",
                  "type": "uint256"
                },
                {
                  "internalType": "UFixed6",
                  "name": "shares",
                  "type": "uint256"
                },
                {
                  "internalType": "Fixed6",
                  "name": "assets",
                  "type": "int256"
                },
                {
                  "internalType": "UFixed6",
                  "name": "fee",
                  "type": "uint256"
                },
                {
                  "internalType": "UFixed6",
                  "name": "keeper",
                  "type": "uint256"
                },
                {
                  "internalType": "uint256",
                  "name": "count",
                  "type": "uint256"
                }
              ],
              "internalType": "struct Checkpoint",
              "name": "latestCheckpoint",
              "type": "tuple"
            },
            {
              "components": [
                {
                  "internalType": "uint256",
                  "name": "current",
                  "type": "uint256"
                },
                {
                  "internalType": "uint256",
                  "name": "latest",
                  "type": "uint256"
                },
                {
                  "internalType": "UFixed6",
                  "name": "shares",
                  "type": "uint256"
                },
                {
                  "internalType": "UFixed6",
                  "name": "assets",
                  "type": "uint256"
                },
                {
                  "internalType": "UFixed6",
                  "name": "deposit",
                  "type": "uint256"
                },
                {
                  "internalType": "UFixed6",
                  "name": "redemption",
                  "type": "uint256"
                }
              ],
              "internalType": "struct Account",
              "name": "global",
              "type": "tuple"
            },
            {
              "components": [
                {
                  "internalType": "uint256",
                  "name": "current",
                  "type": "uint256"
                },
                {
                  "internalType": "uint256",
                  "name": "latest",
                  "type": "uint256"
                },
                {
                  "internalType": "UFixed6",
                  "name": "shares",
                  "type": "uint256"
                },
                {
                  "internalType": "UFixed6",
                  "name": "assets",
                  "type": "uint256"
                },
                {
                  "internalType": "UFixed6",
                  "name": "deposit",
                  "type": "uint256"
                },
                {
                  "internalType": "UFixed6",
                  "name": "redemption",
                  "type": "uint256"
                }
              ],
              "internalType": "struct Account",
              "name": "local",
              "type": "tuple"
            }
          ],
          "internalType": "struct IVault.Context",
          "name": "context",
          "type": "tuple"
        },
        {
          "internalType": "uint256",
          "name": "id",
          "type": "uint256"
        }
      ],
      "name": "_collateralAtId",
      "outputs": [
        {
          "internalType": "Fixed6",
          "name": "value",
          "type": "int256"
        },
        {
          "internalType": "UFixed6",
          "name": "fee",
          "type": "uint256"
        },
        {
          "internalType": "UFixed6",
          "name": "keeper",
          "type": "uint256"
        }
      ],
      "stateMutability": "view",
      "type": "function"
    },
    {
      "inputs": [
        {
          "internalType": "address",
          "name": "account",
          "type": "address"
        }
      ],
      "name": "accounts",
      "outputs": [
        {
          "components": [
            {
              "internalType": "uint256",
              "name": "current",
              "type": "uint256"
            },
            {
              "internalType": "uint256",
              "name": "latest",
              "type": "uint256"
            },
            {
              "internalType": "UFixed6",
              "name": "shares",
              "type": "uint256"
            },
            {
              "internalType": "UFixed6",
              "name": "assets",
              "type": "uint256"
            },
            {
              "internalType": "UFixed6",
              "name": "deposit",
              "type": "uint256"
            },
            {
              "internalType": "UFixed6",
              "name": "redemption",
              "type": "uint256"
            }
          ],
          "internalType": "struct Account",
          "name": "",
          "type": "tuple"
        }
      ],
      "stateMutability": "view",
      "type": "function"
    },
    {
      "inputs": [],
      "name": "asset",
      "outputs": [
        {
          "internalType": "Token18",
          "name": "",
          "type": "address"
        }
      ],
      "stateMutability": "view",
      "type": "function"
    },
    {
      "inputs": [
        {
          "internalType": "uint256",
          "name": "id",
          "type": "uint256"
        }
      ],
      "name": "checkpoints",
      "outputs": [
        {
          "components": [
            {
              "internalType": "UFixed6",
              "name": "deposit",
              "type": "uint256"
            },
            {
              "internalType": "UFixed6",
              "name": "redemption",
              "type": "uint256"
            },
            {
              "internalType": "UFixed6",
              "name": "shares",
              "type": "uint256"
            },
            {
              "internalType": "Fixed6",
              "name": "assets",
              "type": "int256"
            },
            {
              "internalType": "UFixed6",
              "name": "fee",
              "type": "uint256"
            },
            {
              "internalType": "UFixed6",
              "name": "keeper",
              "type": "uint256"
            },
            {
              "internalType": "uint256",
              "name": "count",
              "type": "uint256"
            }
          ],
          "internalType": "struct Checkpoint",
          "name": "",
          "type": "tuple"
        }
      ],
      "stateMutability": "view",
      "type": "function"
    },
    {
      "inputs": [],
      "name": "claimReward",
      "outputs": [],
      "stateMutability": "nonpayable",
      "type": "function"
    },
    {
      "inputs": [
        {
          "internalType": "UFixed6",
          "name": "shares",
          "type": "uint256"
        }
      ],
      "name": "convertToAssets",
      "outputs": [
        {
          "internalType": "UFixed6",
          "name": "",
          "type": "uint256"
        }
      ],
      "stateMutability": "view",
      "type": "function"
    },
    {
      "inputs": [
        {
          "internalType": "UFixed6",
          "name": "assets",
          "type": "uint256"
        }
      ],
      "name": "convertToShares",
      "outputs": [
        {
          "internalType": "UFixed6",
          "name": "",
          "type": "uint256"
        }
      ],
      "stateMutability": "view",
      "type": "function"
    },
    {
      "inputs": [],
      "name": "factory",
      "outputs": [
        {
          "internalType": "contract IFactory",
          "name": "",
          "type": "address"
        }
      ],
      "stateMutability": "view",
      "type": "function"
    },
    {
      "inputs": [
        {
          "internalType": "Token18",
          "name": "asset_",
          "type": "address"
        },
        {
          "internalType": "contract IMarket",
          "name": "initialMarket",
          "type": "address"
        },
        {
          "internalType": "UFixed6",
          "name": "cap",
          "type": "uint256"
        },
        {
          "internalType": "string",
          "name": "name_",
          "type": "string"
        }
      ],
      "name": "initialize",
      "outputs": [],
      "stateMutability": "nonpayable",
      "type": "function"
    },
    {
      "inputs": [
        {
          "internalType": "uint256",
          "name": "id",
          "type": "uint256"
        }
      ],
      "name": "mappings",
      "outputs": [
        {
          "components": [
            {
              "internalType": "uint256[]",
              "name": "_ids",
              "type": "uint256[]"
            }
          ],
          "internalType": "struct Mapping",
          "name": "",
          "type": "tuple"
        }
      ],
      "stateMutability": "view",
      "type": "function"
    },
    {
      "inputs": [],
      "name": "name",
      "outputs": [
        {
          "internalType": "string",
          "name": "",
          "type": "string"
        }
      ],
      "stateMutability": "view",
      "type": "function"
    },
    {
      "inputs": [],
      "name": "parameter",
      "outputs": [
        {
          "components": [
            {
              "internalType": "UFixed6",
              "name": "cap",
              "type": "uint256"
            }
          ],
          "internalType": "struct VaultParameter",
          "name": "",
          "type": "tuple"
        }
      ],
      "stateMutability": "view",
      "type": "function"
    },
    {
      "inputs": [
        {
          "internalType": "contract IMarket",
          "name": "market",
          "type": "address"
        }
      ],
      "name": "register",
      "outputs": [],
      "stateMutability": "nonpayable",
      "type": "function"
    },
    {
      "inputs": [
        {
          "internalType": "uint256",
          "name": "marketId",
          "type": "uint256"
        }
      ],
      "name": "registrations",
      "outputs": [
        {
          "components": [
            {
              "internalType": "contract IMarket",
              "name": "market",
              "type": "address"
            },
            {
              "internalType": "uint256",
              "name": "weight",
              "type": "uint256"
            },
            {
              "internalType": "UFixed6",
              "name": "leverage",
              "type": "uint256"
            }
          ],
          "internalType": "struct Registration",
          "name": "",
          "type": "tuple"
        }
      ],
      "stateMutability": "view",
      "type": "function"
    },
    {
      "inputs": [
        {
          "internalType": "address",
          "name": "account",
          "type": "address"
        }
      ],
      "name": "settle",
      "outputs": [],
      "stateMutability": "nonpayable",
      "type": "function"
    },
    {
      "inputs": [],
      "name": "totalAssets",
      "outputs": [
        {
          "internalType": "Fixed6",
          "name": "",
          "type": "int256"
        }
      ],
      "stateMutability": "view",
      "type": "function"
    },
    {
      "inputs": [],
      "name": "totalMarkets",
      "outputs": [
        {
          "internalType": "uint256",
          "name": "",
          "type": "uint256"
        }
      ],
      "stateMutability": "view",
      "type": "function"
    },
    {
      "inputs": [],
      "name": "totalShares",
      "outputs": [
        {
          "internalType": "UFixed6",
          "name": "",
          "type": "uint256"
        }
      ],
      "stateMutability": "view",
      "type": "function"
    },
    {
      "inputs": [
        {
          "internalType": "address",
          "name": "account",
          "type": "address"
        },
        {
          "internalType": "UFixed6",
          "name": "depositAssets",
          "type": "uint256"
        },
        {
          "internalType": "UFixed6",
          "name": "redeemShares",
          "type": "uint256"
        },
        {
          "internalType": "UFixed6",
          "name": "claimAssets",
          "type": "uint256"
        }
      ],
      "name": "update",
      "outputs": [],
      "stateMutability": "nonpayable",
      "type": "function"
    },
    {
      "inputs": [
        {
          "internalType": "uint256",
          "name": "marketId",
          "type": "uint256"
        },
        {
          "internalType": "uint256",
          "name": "newWeight",
          "type": "uint256"
        },
        {
          "internalType": "UFixed6",
          "name": "newLeverage",
          "type": "uint256"
        }
      ],
      "name": "updateMarket",
      "outputs": [],
      "stateMutability": "nonpayable",
      "type": "function"
    },
    {
      "inputs": [
        {
          "components": [
            {
              "internalType": "UFixed6",
              "name": "cap",
              "type": "uint256"
            }
          ],
          "internalType": "struct VaultParameter",
          "name": "newParameter",
          "type": "tuple"
        }
      ],
      "name": "updateParameter",
      "outputs": [],
      "stateMutability": "nonpayable",
      "type": "function"
    }
  ],
  "transactionHash": "0x2bfb94455c7c5fa85063d6161f00782cd5bfb6262b0797aec87cc41bcd35103b",
  "args": [],
  "numDeployments": 1,
  "solcInputHash": "a794fb9579dc467f461bbc3c8b4e73cf",
  "bytecode": "0x6080806040523461001757615fcc90816200001d8239f35b600080fdfe608060405260048036101561001357600080fd5b60003560e01c806301e1d11414611a6957806306fdde031461195957806307a2d13a1461190657806338d52e0f146118df5780633a98ef39146118c45780634420e486146117245780635e5c06e2146116a75780636a256b29146115d25780638162486b146115b45780639fec600b14611238578063a145198c146110f3578063a524574914610f1c578063ad4d4e2914610ee9578063b4d8b2d514610eae578063b66d406514610e5c578063b88a802f14610c13578063b8a2425214610b9b578063c45a015514610b55578063c6e6f59214610af0578063d2c3aaf2146101ee578063ecf053d91461016a5763f4ddb5be1461010f57600080fd5b3461016557602036600319011261016557610128612047565b50803560005260205260606101406040600020615741565b60408051916001600160a01b0381511683526020810151602084015201516040820152f35b600080fd5b5034610165576020908160031936011261016557606060405161018c81611ae3565b5235600052600781526101a26040600020615672565b906040519181839283526040830191519181808501528251809152816060850193019160005b8281106101d757505050500390f35b8351855286955093810193928101926001016101c8565b503461016557608036600319011261016557610208611acd565b8160206001600160a01b037f0aec74a1754fb10877b53c31a29be82096082042eb1fb374ec96fac88c0e621b541660405192838092635c975abb60e01b82525afa9081156109c157600091610ab6575b50610aa65761026561260c565b61026e81613ecb565b906102798183612832565b6101408201515180604084015260005260078060205261029c6040600020615672565b916102ad60a08501938451906155e2565b15610a7c576102bf6040850151612220565b6040850152610100840151610140850151906102e76001600160a01b03600154163090615d35565b9161031961031461030364e8d4a5100060408501519604615b17565b9260606080820151910151906126bf565b615b17565b8082039160009091128015828413169183121617610a675790604091606082015201526040840151600052816020526040600020925190600080528360205263ffffffff60406000205416610a575781515180610a2257506000935b61037e85611c84565b9461038c6040519687611c62565b80865261039b601f1991611c84565b0160005b8181106109ee57505060005b83518051821015610448576103c58263ffffffff92612a32565b51116104385763ffffffff84515116858204906103e28289612a32565b5152602061040263ffffffff6103f9858951612a32565b51169289612a32565b510151868306878110156104235760051b015261041e90612220565b6103ab565b60328b634e487b7160e01b6000525260246000fd5b8760405163f003e2c360e01b8152fd5b505095915092919260005b83518110156104d9576104668185612a32565b518160005287602052602060406000209163ffffffff81511663ffffffff1984541617835501519060009160005b8881106104af575050600101556104aa90612220565b610453565b9092602060019163ffffffff8651169063ffffffff8560051b92831b921b19161794019101610494565b509392509350505b60443560643560016104f282615c89565b146109de575b600161050383615c89565b146109cd575b6001600160a01b03841633141580610901575b6108d857600161055861053a83610535866024356126bf565b6126bf565b84602435116000146108d2576024355b848111156108ca5790615cc8565b036108a157600261057361056b8561453f565b602435615cc8565b1461087857600261058c610586856145a9565b84615cc8565b1461084f576024351580158061083b575b61082b578215958615806107e2575b6107d35761016085015160208151910151036107ab575061075795610704916105d4866148a1565b60008113156107a0576105e690615c00565b61014087015160600151806107745750506000905b81928161076c575b50610759575b506106258461014087015181866024359260408b015190614c40565b6106408461016087015181866024359260408b015190614c40565b60c061010086015161065560243582516126bf565b602082016106648882516126bf565b90528152016106738151612220565b90526106dd6001600160a01b036001541661068f602435615be6565b90604051917f23b872dd0000000000000000000000000000000000000000000000000000000060208401523360248401523060448401526064830152606482526106d882611c46565b615db7565b6106e78186612b09565b6106fc6001600160a01b036001541691615be6565b903390615cd9565b6040830151916040519283526024356020840152604083015260608201526001600160a01b038316907ecdda35b21914cc89ca2689f6ada564ebad3ad81f233699e25e44e13ab73f4960803392a36144d0565b005b6107669150855190615c3c565b38610609565b905038610603565b61079091818110156107965761078b905b8761572e565b615652565b906105fb565b5061078b81610785565b506105e66000615c00565b6040517fe4b29524000000000000000000000000000000000000000000000000000000008152fd5b604051633cbefbb160e21b8152fd5b5061080f6101208601518651908660408201511560001461081c579050905b818110156108155790615c3c565b156105ac565b5080615c3c565b610825916150b2565b90610801565b85604051633cbefbb160e21b8152fd5b506108498451602435615cc8565b1561059d565b846040517fc85650f7000000000000000000000000000000000000000000000000000000008152fd5b846040517fa9785d3d000000000000000000000000000000000000000000000000000000008152fd5b846040517fa65ac9fb000000000000000000000000000000000000000000000000000000008152fd5b508390615cc8565b8461054a565b846040517f7eb267c7000000000000000000000000000000000000000000000000000000008152fd5b50604460206001600160a01b037f0aec74a1754fb10877b53c31a29be82096082042eb1fb374ec96fac88c0e621b5416604051928380927f2637588e0000000000000000000000000000000000000000000000000000000082526001600160a01b038a168b8301523360248301525afa9081156109c157600091610987575b501561051c565b90506020813d6020116109b9575b816109a260209383611c62565b81010312610165576109b390612245565b38610980565b3d9150610995565b6040513d6000823e3d90fd5b610160830151604001519150610509565b50606061016083015101516104f8565b6020906040516109fd81611b29565b60008152604051610a0d81611b45565b60e03682378382015282828a0101520161039f565b6000198101908111610a425783900460018101809111610a425793610375565b601187634e487b7160e01b6000525260246000fd5b8560405163f003e2c360e01b8152fd5b601188634e487b7160e01b6000525260246000fd5b928092506040915001516000526006602052610a9b60406000206151d3565b6101008201526104e1565b50604051634b94d2bb60e01b8152fd5b90506020813d602011610ae8575b81610ad160209383611c62565b8101031261016557610ae290612245565b38610258565b3d9150610ac4565b50346101655760203660031901126101655760209035610b0e6120d0565b6000811315610b4a57610b2090615c00565b610b28612197565b80610b385750505b604051908152f35b61078b90610b459361572e565b610b30565b50610b206000615c00565b346101655760003660031901126101655760206001600160a01b037f0aec74a1754fb10877b53c31a29be82096082042eb1fb374ec96fac88c0e621b5416604051908152f35b503461016557602036600319011261016557610bb5612098565b5035600052600660205260e0610bce60406000206151d3565b60c060405191805183526020810151602084015260408101516040840152606081015160608401526080810151608084015260a081015160a0840152015160c0820152f35b5034610165576000366003190112610165576001600160a01b037f0aec74a1754fb10877b53c31a29be82096082042eb1fb374ec96fac88c0e621b81815416906040519182638da5cb5b60e01b91828252818760209687935afa80156109c1578591600091610e24575b50163303610e0d5760005b600354811015610757578060005285845284610ca76040600020615741565b511690813b15610165576000809288604051809581937fb88a802f0000000000000000000000000000000000000000000000000000000083525af19182156109c1578792610dfe575b50806000528185528486610d076040600020615741565b5116604051938480927f228cb7330000000000000000000000000000000000000000000000000000000082525afa9182156109c157600092610dc7575b50868587865416604051928380928882525afa9081156109c157600091610d89575b50610d8492610d7f91610d793083615d35565b91615cd9565b612220565b610c88565b90508581813d8311610dc0575b610da08183611c62565b8101031261016557610d8492610db8610d7f9261220c565b915092610d66565b503d610d96565b9091508481813d8311610df7575b610ddf8183611c62565b8101031261016557610df09061220c565b9038610d44565b503d610dd5565b610e0790611b15565b38610cf0565b604051634d193d1f60e01b81523381870152602490fd5b809250858092503d8311610e55575b610e3d8183611c62565b8101031261016557610e4f859161220c565b38610c7d565b503d610e33565b50346101655760403660031901126101655780359067ffffffffffffffff821161016557610e92610e9b91606093369101611dd0565b6024359061492d565b9060405192835260208301526040820152f35b50346101655760203660031901126101655780359067ffffffffffffffff821161016557610ee4610b3091602093369101611dd0565b6148a1565b34610165576000366003190112610165576000604051610f0881611ae3565b526020610f136158c1565b60405190518152f35b50346101655760603660031901126101655780359060243590604435906001600160a01b0390817f0aec74a1754fb10877b53c31a29be82096082042eb1fb374ec96fac88c0e621b541660405192638da5cb5b60e01b845260209384818581865afa9081156109c1576000916110be575b501633036110a75782829160405192838092635c975abb60e01b82525afa9081156109c157600091611072575b5061106357610fc761260c565b610fe9610fd2613920565b610fdb816126cc565b610fe481612a5c565b614474565b60035485101561105557917f19de27a5967d3c5ffdfa85f8f33ed63fcae289e86abc970d013e0ae2bc8bb27f939161104a6040948760005280835261103086600020615741565b9085848301528487830152886000528352856000206157c8565b8351928352820152a2005b6040516288cffd60e31b8152fd5b604051634b94d2bb60e01b8152fd5b90508281813d83116110a0575b6110898183611c62565b810103126101655761109a90612245565b38610fba565b503d61107f565b604051634d193d1f60e01b81523381840152602490fd5b90508481813d83116110ec575b6110d58183611c62565b81010312610165576110e69061220c565b38610f8d565b503d6110cb565b503461016557602080600319360112610165576040519061111382611ae3565b823582526001600160a01b03807f0aec74a1754fb10877b53c31a29be82096082042eb1fb374ec96fac88c0e621b541690604051638da5cb5b60e01b815283818781865afa9081156109c157600091611203575b501633036111ec5781849160405192838092635c975abb60e01b82525afa9182156109c1576000926111b6575b5050610aa657610757906111a661260c565b6111b1610fd2613920565b612580565b90809250813d83116111e5575b6111cd8183611c62565b81010312610165576111de90612245565b3880611194565b503d6111c3565b604051634d193d1f60e01b81523381860152602490fd5b90508381813d8311611231575b61121a8183611c62565b810103126101655761122b9061220c565b38611167565b503d611210565b503461016557608036600319011261016557611252611acd565b6001600160a01b03906024803583811681036101655767ffffffffffffffff606435818111610165573660238201121561016557808701359182116101655736848383010111610165576001957f6fee9688c285c5c5c97d6a1a29adced674e6b2ad0888b8ad2116b58a8b3ea2488781541015611585578790557f2801b00eb06461cf9fcb9758b5fafd884ff06a86177386f73b6c49f0bf5a5af095878755303b15158061157d575b61155457337f0aec74a1754fb10877b53c31a29be82096082042eb1fb374ec96fac88c0e621b55167fffffffffffffffffffffffff000000000000000000000000000000000000000087541617865561135560005461200d565b601f81116114ed575b50600090601f83116001146114635793829161139695600093611456575b505050600019600383901b1c191690851b17600055612252565b60035415611447579060006020926113f57fbe9b076dc5b65990cca9dd9d7366682482e7817a6f6bc7f4faf4dc32af497f32958380528086526113db60408520615741565b9085878301528460408301528480528652604084206157c8565b817f19de27a5967d3c5ffdfa85f8f33ed63fcae289e86abc970d013e0ae2bc8bb27f604080518681528388820152a261143d60405161143381611ae3565b6044358152612580565b55604051908152a1005b826040516288cffd60e31b8152fd5b010135905038808061137c565b6000808052601f198416958894937f290decd9548b62a8d60345a988386fc84ba6bc95484008f6362f93160ef3e56393925b8881106114d357508461139698106114b7575b50505050811b01600055612252565b60001960f88660031b161c1992010135169055388080806114a8565b81840183013585558a969094019360209182019101611495565b600080527f290decd9548b62a8d60345a988386fc84ba6bc95484008f6362f93160ef3e563601f840160051c8101916020851061154a575b601f0160051c019087905b82811061153e57505061135e565b60008155018790611530565b9091508190611525565b886040517fb9a621e1000000000000000000000000000000000000000000000000000000008152fd5b5060006112fb565b858989604051917f3db738da000000000000000000000000000000000000000000000000000000008352820152fd5b34610165576000366003190112610165576020600354604051908152f35b5034610165576020366003190112610165576115ec611acd565b8160206001600160a01b037f0aec74a1754fb10877b53c31a29be82096082042eb1fb374ec96fac88c0e621b541660405192838092635c975abb60e01b82525afa9081156109c15760009161166e575b50610aa6576107579061164d61260c565b61165681613ecb565b6116608282612832565b61166981612a5c565b6144d0565b90506020813d821161169f575b8161168860209383611c62565b810103126101655761169990612245565b3861163c565b3d915061167b565b34610165576020366003190112610165576001600160a01b036116c8611acd565b6116d0612066565b5016600052600560205260c06116e96040600020614c86565b60a0604051918051835260208101516020840152604081015160408401526060810151606084015260808101516080840152015160a0820152f35b5034610165576020806003193601126101655761173f611acd565b906001600160a01b0390817f0aec74a1754fb10877b53c31a29be82096082042eb1fb374ec96fac88c0e621b5416604051638da5cb5b60e01b815282818781855afa80156109c157849160009161188c575b50163303610e0d5781859160405192838092635c975abb60e01b82525afa9081156109c157600091611857575b5061184757906117cc61260c565b6117d7610fd2613920565b60009060035492818516925b8481106117f35761075786612252565b8060005286825283836118096040600020615741565b51161461181e5761181990612220565b6117e3565b866040517f499943cd000000000000000000000000000000000000000000000000000000008152fd5b83604051634b94d2bb60e01b8152fd5b90508181813d8311611885575b61186e8183611c62565b810103126101655761187f90612245565b386117be565b503d611864565b809250848092503d83116118bd575b6118a58183611c62565b81010312610165576118b7849161220c565b38611791565b503d61189b565b34610165576000366003190112610165576020610b30612197565b346101655760003660031901126101655760206001600160a01b0360015416604051908152f35b503461016557602036600319011261016557602090356119246120d0565b600081131561194e5761193690615c00565b61193e612197565b9081610b38575050604051908152f35b506119366000615c00565b346101655760003660031901126101655760405160207f506572656e6e69616c205632205661756c743a2000000000000000000000000081830152600090600054906119a48261200d565b91600190818116908115611a4057506001146119e2575b6119de856119d2818703601f198101835282611c62565b60405191829182611a84565b0390f35b90919250600080527f290decd9548b62a8d60345a988386fc84ba6bc95484008f6362f93160ef3e563906000915b848310611a2c575050505081016034016119d2826119de6119bb565b805486840160340152918301918101611a10565b8695506119de969350603492506119d294915060ff1916828401528015150282010192936119bb565b34610165576000366003190112610165576020610b306120d0565b6020808252825181830181905290939260005b828110611ab957505060409293506000838284010152601f8019910116010190565b818101860151848201604001528501611a97565b600435906001600160a01b038216820361016557565b6020810190811067ffffffffffffffff821117611aff57604052565b634e487b7160e01b600052604160045260246000fd5b67ffffffffffffffff8111611aff57604052565b6040810190811067ffffffffffffffff821117611aff57604052565b60e0810190811067ffffffffffffffff821117611aff57604052565b60c0810190811067ffffffffffffffff821117611aff57604052565b610180810190811067ffffffffffffffff821117611aff57604052565b6060810190811067ffffffffffffffff821117611aff57604052565b610260810190811067ffffffffffffffff821117611aff57604052565b6080810190811067ffffffffffffffff821117611aff57604052565b6101c0810190811067ffffffffffffffff821117611aff57604052565b610100810190811067ffffffffffffffff821117611aff57604052565b610120810190811067ffffffffffffffff821117611aff57604052565b60a0810190811067ffffffffffffffff821117611aff57604052565b90601f8019910116810190811067ffffffffffffffff821117611aff57604052565b67ffffffffffffffff8111611aff5760051b60200190565b9190602080848303126101655760405190611cb682611ae3565b819480359067ffffffffffffffff821161016557019280601f85011215610165578335611ce281611c84565b94611cf06040519687611c62565b818652838087019260051b820101928311610165578301905b828210611d17575050505052565b81358152908301908301611d09565b91908260e091031261016557604051611d3e81611b45565b60c0808294803584526020810135602085015260408101356040850152606081013560608501526080810135608085015260a081013560a08501520135910152565b91908260c091031261016557604051611d9881611b61565b60a080829480358452602081013560208501526040810135604085015260608101356060850152608081013560808501520135910152565b919082810392610440841261016557604090815192611dee84611b7d565b8395823585526020908184013582870152848401358587015260608085013567ffffffffffffffff9081811161016557860185601f8201121561016557803590611e3782611c84565b91611e448a519384611c62565b8083528685818501920283010191888311610165578701905b828210611fc45750505082890152608091828701358281116101655787019286601f8501121561016557833593611e9385611c84565b92611ea08b519485611c62565b858452878401908860c0809802840101928a8411610165578901915b838310611f72575050505089015260a08601358181116101655785611ee2918801611c9c565b60a0890152818601359081116101655784611efe918701611c9c565b9087015260df19011261016557610380611f6d926101609451611f2081611ae3565b60e0820135815260e0870152610100611f3b84828401611d26565b90870152611f4d836101e08301611d26565b610120870152611f61836102c08301611d80565b61014087015201611d80565b910152565b87838c0312610165578988918e805190611f8b82611b61565b86358252838701358483015280870135908201528486013585820152878601358882015260a08087013590820152815201920191611ebc565b85828a0312610165578a5190611fd982611b9a565b8235906001600160a01b03821682036101655790825282890135898301528b8301358c830152908152908501908701611e5d565b90600182811c9216801561203d575b602083101461202757565b634e487b7160e01b600052602260045260246000fd5b91607f169161201c565b6040519061205482611b9a565b60006040838281528260208201520152565b6040519061207382611b61565b8160a06000918281528260208201528260408201528260608201528260808201520152565b604051906120a582611b45565b8160c06000918281528260208201528260408201528260608201528260808201528260a08201520152565b6000808052600560209081526121057f05b8ccbb9d4d8fb16ea74ce3c29a41f1b461fbdaff4714a0d9a8eb05499746bc614c86565b01518152600660205261211a604082206151d3565b9060608201519161212b8151615b17565b928284820194851291129080158216911516176121835761031481602061215493015190614fb6565b9181838203931281841281169184139015161761216f575090565b80634e487b7160e01b602492526011600452fd5b602482634e487b7160e01b81526011600452fd5b60008052600560209081526121cb7f05b8ccbb9d4d8fb16ea74ce3c29a41f1b461fbdaff4714a0d9a8eb05499746bc614c86565b015160005260066020526122096121e560406000206151d3565b602061220060408301516121fa845185614f56565b906126bf565b91015190615c3c565b90565b51906001600160a01b038216820361016557565b600019811461222f5760010190565b634e487b7160e01b600052601160045260246000fd5b5190811515820361016557565b7f0aec74a1754fb10877b53c31a29be82096082042eb1fb374ec96fac88c0e621b54604080517f06ae70950000000000000000000000000000000000000000000000000000000081526001600160a01b039493600493602093919084908490879082908b165afa9283156124d4578791859160009561253c575b5060248391855194859384927f032bb4430000000000000000000000000000000000000000000000000000000084521697888b840152165afa9081156124d457600091612507575b50156124df5780517ffc0c546a00000000000000000000000000000000000000000000000000000000815283818681865afa9081156124d45760009161249c575b50866001541696879116036124745782600094959660448351809781937f095ea7b3000000000000000000000000000000000000000000000000000000008352878b840152811960248401525af1801561246957612415575b7f07796b317344e6f18fa32ed89b6074ad66549cee7fb7b8c3e9f1c42c496f1c5c9350600354946123de86612220565b60035585600052835261240e816000208251906123fa82611b9a565b8482526000868301526000848301526157c8565b51908152a2565b8284813d8311612462575b61242a8183611c62565b810103126101655761245c7f07796b317344e6f18fa32ed89b6074ad66549cee7fb7b8c3e9f1c42c496f1c5c94612245565b506123ae565b503d612420565b50513d6000823e3d90fd5b8390517faddc4c0d000000000000000000000000000000000000000000000000000000008152fd5b908482813d83116124cd575b6124b28183611c62565b810103126124ca57506124c49061220c565b38612355565b80fd5b503d6124a8565b82513d6000823e3d90fd5b8390517f7c04a019000000000000000000000000000000000000000000000000000000008152fd5b908482813d8311612535575b61251d8183611c62565b810103126124ca575061252f90612245565b38612314565b503d612513565b828193929694503d8311612579575b6125558183611c62565b8101031261257557519087821682036124ca5750918690849060246122cc565b5080fd5b503d61254b565b600261258c8251615c96565b146125e25760208167ffffffffffffffff7f6aa12494b90f1eeec92df49ec47058878b0803a79ba307dead4905555159adc79351166000836040516125d081611b29565b838152015260025560405190518152a1565b60046040517f0f9f8b19000000000000000000000000000000000000000000000000000000008152fd5b6000905b6003548210156126bb5781600052600491826020526040926001600160a01b0361263c85600020615741565b511690813b156101655760009160c483928751948593849263123dd9c560e31b84523090840152811960248401528160448401528160648401528160848401528160a48401525af180156126b05761269b9394506126a1575b50612220565b90612610565b6126aa90611b15565b38612695565b84513d6000823e3d90fd5b9050565b9190820180921161222f57565b905b6101408201918251805160208092015180911190816127fc575b50156127f657808451015190600182018092116127e157600082815260068083526040926127178484206151d3565b94610120870195865261272a818861492d565b9188519260609182850180518a83820193841291129080158216911516176127cd57916127c79c9d9e916127b893526080948587015260a08096015251936127ae8b51948b8651968a810151968a8c8b01528901906127a161279183516121fa8b85614fb6565b938b01916121fa8b845192614f56565b9052528601948551615c3c565b9401918251615c3c565b905252835252209051906152a1565b906126ce565b60248a634e487b7160e01b81526011600452fd5b60246000634e487b7160e01b81526011600452fd5b50509050565b9050600181018091116127e157612821604061282c9260009081526007855220615672565b60c08401519061556a565b386126e8565b9190915b6101408101928351805160208092015180911190816129fc575b501561290157808551015190600182018092116127e1576000828152600680835260409261287f8484206151d3565b946101208801958652612892818961492d565b9188519260609182850180518a83820193841291129080158216911516176127cd57916128fa9c9d9e9f916127b893526080948587015260a08096015251936127ae8b51948b8651968a810151968a8c8b01528901906127a161279183516121fa8b85614fb6565b9190612836565b506001600160a01b039192935016156129f95761016081019081519060208251920151821191826129cd575b50506129365750565b8051519081600052600660205261295060406000206151d3565b9051906129b66129ae608084019384519060a0810194855197602083015260608201906129a4604061299584518c83860151156000146129bb576121fa905b86615152565b9401916121fa86845192614feb565b9052528451615c3c565b938251615c3c565b905252565b6129c86121fa91876150b2565b61298f565b6129f29250600052600760205260c06129e96040600020615672565b9101519061556a565b388061292d565b50565b9050600181018091116127e157612a216040612a2c9260009081526007855220615672565b60c08501519061556a565b38612850565b8051821015612a465760209160051b010190565b634e487b7160e01b600052603260045260246000fd5b90610140612a69836148a1565b9201612a83610314825160806060820151910151906126bf565b6000938181039185138015828413169183121617612af557620f4240612ae3612abf608093876129f9979850808213600014612aee5750615c00565b612add8551612ad760a06040830151920151826126bf565b90615c68565b9061572e565b0491510151906126bf565b9050615c00565b602484634e487b7160e01b81526011600452fd5b9190612b1d612b17846148a1565b91615b17565b906000828203921281831281169183139015161761222f576101408301612b52610314825160806060820151910151906126bf565b90600082840392128383128116908484139015161761222f57612b8a91600081131561366757620f4240612ae3612abf608093615c00565b612b9382615b72565b156127f657606084015191600081131561365b57612bb390939193615c00565b91805192612bc084611c84565b93612bce6040519586611c62565b808552612bdd601f1991611c84565b0160005b8181106136385750506000905b8251821015613229578293949596612c0883600495612a32565b5194612c12614acb565b986101c06001600160a01b038851166040519788809263ad4d4e2960e01b82525afa80156109c1576004966000916131f8575b508a526102e06001600160a01b03885116604051978880927f4549a6290000000000000000000000000000000000000000000000000000000082525afa80156109c15760009061307e575b6024965060208b015260a06001600160a01b0388511660405197888092635b4b969560e01b82523060048301525afa80156109c15760049660009161304f575b5060408b01526101206001600160a01b038851166040519788809263502fcc8360e11b82525afa9586156109c15760009661301c575b5060e086015160c08b015260246101606001600160a01b038951166040519283809263055f575160e41b82523060048301525afa80156109c157602091600091612ffb575b508060808d0152612d5c818061590c565b612d948c8360c08201519160405192612d7484611b9a565b60008452828401526001604084015201516101c081519101519184615a83565b60e08d015180821115612ff457505b60e08d0152015193602060808c015101516101008c0152602060408c0151015160018101811161222f57600101945b60408c0151518611612efc57885160405163ce813aed60e01b815230600482015260248101889052919061016090839060449082906001600160a01b03165afa9182156109c157610100612eb48f9294612ebe95600091612ecb575b50806060850152612e4360808501518261590c565b612e7c60c085015160405190612e5882611b9a565b6000825260208201526001604082015260208601516101c081519101519184615a83565b60e085015180821115612ec457505b60e0850152612eae60208486015192019586518181106000146108155790615c3c565b90615c3c565b9101525195612220565b94612dd2565b9050612e8b565b612eef91506101603d61016011612ef5575b612ee78183611c62565b81019061383b565b38612e2e565b503d612edd565b50959096600494509991979492996101606001600160a01b03825116604051968780926309218e9160e01b82525afa9485156109c157600095612fc8575b506001600160a01b03610160915116915160246040518094819363a1d0a11360e01b835260048301525afa9384156109c157612f9d94612f8892600091612fa7575b508060a085015261590c565b612f928289612a32565b526126958188612a32565b9092949391612bee565b612fc291506101603d61016011612ef557612ee78183611c62565b38612f7c565b610160919550612fec6001600160a01b0391833d8511612ef557612ee78183611c62565b959150612f3a565b9050612da3565b61301691506101603d61016011612ef557612ee78183611c62565b38612d4b565b6130419196506101203d61012011613048575b6130398183611c62565b8101906137b3565b9438612d06565b503d61302f565b613071915060a03d60a011613077575b6130698183611c62565b8101906138da565b38612cd0565b503d61305f565b506102e03d6102e0116131f1575b6130968188611c62565b6102e087828101031261016557604051906130b082611bb6565b875182526020880151602083015260408801516040830152606088015160608301526080880151608083015260a088015160a083015260c0808901519083015260e08089015190830152610100808901519083015261012080890151908301526101408801516101408301526101608089015190830152608061017f198983810103011261016557604090815161314681611bd3565b6101808a81015182526101a08b015160208301526101c08b0151848301526101e08b0151606083015284015288018890036101ff190112610165576024966131e86102c06040519261319784611b29565b61020093848201518152610220908183015160208201526101a087015261024094858301516101c08801526102608301516101e0880152610280830151908701526102a08201519086015201612245565b90820152612c90565b503d61308c565b61321c91506101c03d6101c011613222575b6132148183611c62565b8101906136f6565b38612c45565b503d61320a565b93956000948594919250845b84518710156132775761326a61325d6132709260206132548b8a612a32565b510151906126bf565b9660e06132548a8d612a32565b96612220565b9594613235565b9296919550929384519561328a87611c84565b966132986040519889611c62565b8088526132a7601f1991611c84565b0160005b81811061361357505060005b86518110156135675789906132ca614a5f565b6132d48284612a32565b5160e00151876132e4878b615c3c565b6132ee858d612a32565b51602001516132fc9161572e565b9061330691615652565b61330f916126bf565b81528661331c838b612a32565b516020015161332b908861572e565b9061333591615652565b815161334090615716565b620f424090048082101561356057505b60208201526133a289620f424061339b6040613380876101c06020613375838d612a32565b510151015195612a32565b510151602080613390898b612a32565b51015101519061572e565b0490615c68565b6101a06133af8486612a32565b51510151159081159161354a575b5061353e575b6133cd8284612a32565b5161345260608201916121fa602084510151602060e0818061343760a088019561341387516133ff8582015191615a41565b89518601518082101561352f575090615c3c565b8b518401518082101561353757505b6101008a01518082101561352f575090615c3c565b98510151950151015191510151818110156108155790615c3c565b606083015260408201526040806134738461346d8551615b17565b96612a32565b51015101518381810312600082121684828103136000831215161761222f57613512938260408f8d8f966134d49260c06134c38b876134ba82602061078b98015198612a32565b51015193612a32565b51015160008112613526579261572e565b60608301518082101561351e5750915b01518082111561351757505b6020613507866135008188612a32565b5196612a32565b510152039052612220565b6132b7565b90506134f0565b9050916134e4565b6000039261572e565b905090615c3c565b9050613422565b600060208201526133c3565b61355991506020830151615cc8565b15386133bd565b9050613350565b5096959750505050505060005b6080820151518110156135cb57806135996135926135a39387612a32565b5151615b72565b156135a857612220565b613574565b610d7f6135b9826060860151612a32565b516135c48388612a32565b519061367b565b5060005b6080820151518110156127f657806135ed6135926136039387612a32565b60028114908115613608575b506135a857612220565b6135cf565b6001915014386135f9565b60209060405161362281611b29565b6000815282600081830152828c010152016132ab565b602090613649979593949697614acb565b82828a01015201959492919395612be1565b5091612bb36000615c00565b506080620f4240612ae3612abf6000615c00565b6001600160a01b0390511660208201519151813b15610165576040519263123dd9c560e31b845230600485015260248401528260c48160008095819582604485015282606485015260848401528160a48401525af19081156136ea57506136df5750565b6136e890611b15565b565b604051903d90823e3d90fd5b90816101c0910312610165576040519061370f82611bef565b805182526020810151602083015260408101516040830152606081015160608301526080810151608083015260a081015160a083015260c081015160c083015260e081015160e0830152610100808201519083015261012080820151908301526101408082015190830152610160613788818301612245565b9083015261018061379a818301612245565b908301526137ac6101a0809201612245565b9082015290565b8091039061012082126101655760408051926137ce84611c0c565b82518452602083015160208501528183015182850152606083015160608501526080830151608085015260a083015160a085015260bf190112610165576101009060405161381b81611b29565b60c0820151815260e0820151602082015260c0840152015160e082015290565b8091039061016082126101655760606040519261385784611c29565b82518452602083015160208501526040830151604085015281830151828501526080830151608085015260a083015160a085015260c083015160c085015260e083015160e085015260ff19011261016557604051906138b582611b9a565b6101406101009182810151845261012081015160208501520151604083015282015290565b908160a0910312610165576080604051916138f483611c46565b805183526020810151602084015260408101516040840152606081015160608401520151608082015290565b6040519061392d82611b7d565b6000825260006020830152600060408301526060808301526060608083015260405161395881611ae3565b6060815260a083015260405161396d81611ae3565b6060815260c083015260405161398281611ae3565b6000815260e0830152613993612098565b6101008301526139a1612098565b6101208301526139af612066565b6101408301526139bd612066565b610160830152816139cc6158c1565b60e082015260a0810151600354906139e382615538565b905260c08201516139f382615538565b90526139fe81611c84565b613a0b6040519182611c62565b818152601f19613a1a83611c84565b0160005b818110613eb45750506060830152613a3581611c84565b613a426040519182611c62565b818152601f19613a5183611c84565b0160005b818110613e9d575050608083015260005b818110613ac45750506000805260056020908152613aa37f05b8ccbb9d4d8fb16ea74ce3c29a41f1b461fbdaff4714a0d9a8eb05499746bc614c86565b8061014084015201516000526006602052610120611f6d60406000206151d3565b8060049160005281602052613adc6040600020615741565b6101c06001600160a01b038251166040519485809263ad4d4e2960e01b82525afa9283156109c157600493613b3d91600091613e7c575b50613b2e84606089015185613b288383612a32565b52612a32565b506101408751910151906126bf565b85526101206001600160a01b038251166040519485809263502fcc8360e11b82525afa9283156109c157600093613e59575b5060046101606001600160a01b03835116604051928380926309218e9160e01b82525afa9081156109c157600091613e38575b506001600160a01b0382511690610160855160246040518095819363a1d0a11360e01b835260048301525afa80156109c157602495613c2993600092613e10575b50613bf1829360e09361590c565b015160008112613e08575b613c0a8560808a0151612a32565b515260208101516020613c218660808b0151612a32565b510152615a41565b6040613c39846080890151612a32565b510152613c4e602082015160208701516126bf565b602086015260a06001600160a01b0382511660405194858092635b4b969560e01b82523060048301525afa9081156109c157602493600092613de7575b506101606001600160a01b038251166040519586809263055f575160e41b82523060048301525afa9384156109c157600094613db7575b5051815160405163ce813aed60e01b81523060048201526024810191909152906101609082906001600160a01b03168180604481015b03915afa80156109c157613d8d94602092600092613d92575b5080613d1e84928461590c565b60408501516060613d338860808d0151612a32565b51015201516080613d4786828b0151612a32565b510152015160a0613d5c846080890151612a32565b51015260c0850151613d748360208401519251612a32565b52613d878260a087015192519251612a32565b52612220565b613a66565b83919250613db0906101603d61016011612ef557612ee78183611c62565b9190613d11565b613cf89194506001600160a01b03613dde61016092833d8511612ef557612ee78183611c62565b95925050613cc2565b613e0191925060a03d60a011613077576130698183611c62565b9038613c8b565b600003613bfc565b60e09250613e31613bf1916101603d61016011612ef557612ee78183611c62565b9250613be3565b613e5391506101603d61016011612ef557612ee78183611c62565b38613ba2565b613e759193506101203d61012011613048576130398183611c62565b9138613b6f565b613e9791506101c03d6101c011613222576132148183611c62565b38613b13565b602090613ea8612066565b82828601015201613a55565b602090613ebf612047565b82828601015201613a1e565b90604051613ed881611b7d565b60008152600060208201526000604082015260608082015260606080820152604051613f0381611ae3565b6060815260a0820152604051613f1881611ae3565b6060815260c0820152604051613f2d81611ae3565b6000815260e0820152613f3e612098565b610100820152613f4c612098565b610120820152613f5a612066565b610140820152613f68612066565b6101608201528092613f786158c1565b60e083015260a082015160035490613f8f82615538565b905260c0830151613f9f82615538565b9052613faa81611c84565b613fb76040519182611c62565b818152601f19613fc683611c84565b0160005b81811061445d5750506060840152613fe181611c84565b613fee6040519182611c62565b818152601f19613ffd83611c84565b0160005b818110614446575050608084015260005b8181106140805750506001600160a01b03168061405f575b506000805260056020908152613aa37f05b8ccbb9d4d8fb16ea74ce3c29a41f1b461fbdaff4714a0d9a8eb05499746bc614c86565b60005260056020526140746040600020614c86565b6101608201523861402a565b80600491600052816020526140986040600020615741565b6101c06001600160a01b038251166040519485809263ad4d4e2960e01b82525afa9283156109c1576004936140f391600091614425575b506140e48460608a015185613b288383612a32565b506101408851910151906126bf565b86526101206001600160a01b038251166040519485809263502fcc8360e11b82525afa9283156109c157600093614402575b5060046101606001600160a01b03835116604051928380926309218e9160e01b82525afa9081156109c1576000916143e1575b506001600160a01b0382511690610160855160246040518095819363a1d0a11360e01b835260048301525afa80156109c1576024956141d7936000926143b9575b506141a7829360e09361590c565b0151600081126143b1575b6141c08560808b0151612a32565b515260208101516020613c218660808c0151612a32565b60406141e78460808a0151612a32565b5101526141fc602082015160208801516126bf565b602087015260a06001600160a01b0382511660405194858092635b4b969560e01b82523060048301525afa9081156109c157602493600092614390575b506101606001600160a01b038251166040519586809263055f575160e41b82523060048301525afa9384156109c157600094614360575b5051815160405163ce813aed60e01b81523060048201526024810191909152906101609082906001600160a01b03168180604481015b03915afa80156109c1576143369460209260009261433b575b50806142cc84928461590c565b8960606142e288608060408a0151940151612a32565b510152015160806142f686828c0151612a32565b510152015160a061430b8460808a0151612a32565b51015260c08601516143238360208401519251612a32565b52613d878260a088015192519251612a32565b614012565b83919250614359906101603d61016011612ef557612ee78183611c62565b91906142bf565b6142a69194506001600160a01b0361438761016092833d8511612ef557612ee78183611c62565b95925050614270565b6143aa91925060a03d60a011613077576130698183611c62565b9038614239565b6000036141b2565b60e092506143da6141a7916101603d61016011612ef557612ee78183611c62565b9250614199565b6143fc91506101603d61016011612ef557612ee78183611c62565b38614158565b61441e9193506101203d61012011613048576130398183611c62565b9138614125565b61444091506101c03d6101c011613222576132148183611c62565b386140cf565b602090614451612066565b82828601015201614001565b602090614468612047565b82828601015201613fca565b6000805260056020526101408101516136e891906144b2907f05b8ccbb9d4d8fb16ea74ce3c29a41f1b461fbdaff4714a0d9a8eb05499746bc614d2c565b604081015160005260066020526101006040600020910151906152a1565b6001600160a01b036136e892168061451d575b506000805260056020526101408101516144b2907f05b8ccbb9d4d8fb16ea74ce3c29a41f1b461fbdaff4714a0d9a8eb05499746bc614d2c565b6000526005602052614539604060002061016083015190614d2c565b386144e3565b61454d61012082015161519f565b6145a357612209906121fa6145736145636120d0565b600080821315612aee5750615c00565b60e0606061458c610140860193608085510151906126bf565b925101519301515190818110156108155790615c3c565b50600090565b6145b761012082015161519f565b6145a3576000199160005b60809283810151805183101561489a57826145dc91612a32565b51946145ec836060840151612a32565b519460208601511590811561488d575b811561486f575b5061486157906024929161462a602088015160408901518181106000146108155790615c3c565b9560006101606001600160a01b03614646876060880151612a32565b5151166040519788809263055f575160e41b82523060048301525afa958615614854578196614831575b50506020850197885198614684878061590c565b519860c085015186600091518051821061481f575b505060018101811161222f5760010199905b60a086015187600091518051821061480d575b50508b11614787576147186101608c6001600160a01b036146e38b60608c0151612a32565b515116604051808095819463ce813aed60e01b83523060048401602090939291936001600160a01b0360408201951681520152565b03915afa9182156109c157612eae602061475f9461475794600091614766575b506147438d8261590c565b019485518181106000146108155790615c3c565b91519a612220565b99906146ab565b61478191506101603d61016011612ef557612ee78183611c62565b38614738565b6147e595989a506147f597506147ca91509161078b6147da95979a620f42406147b261078b96615716565b04808210156148055750915b5160408601519261572e565b916020808901519101519261572e565b61012085015161502e565b808210156147fe57505b92612220565b929091926145c2565b90506147ef565b9050916147be565b6148179250612a32565b5187386146be565b6148299250612a32565b518638614699565b61484d9196506101603d61016011612ef557612ee78183611c62565b9438614670565b50604051903d90823e3d90fd5b93509193506147f590612220565b90508601511580614881575b38614603565b5060a08601511561487b565b60408701511591506145fc565b5050509050565b9060016148c864e8d4a510006148c26001600160a01b038454163090615d35565b04615b17565b928160009182935b6148db575b50505050565b9091929460808201518051871015614926576148f987606092612a32565b51015190848282019283129112908015821691151617612af55761491d9095612220565b929190816148d0565b50946148d5565b91906000808182938352600760205260409261494a848220615672565b9681955b885151871015614a54576001600160a01b0361496e886060850151612a32565b5151169483888b5180518210614a42575b5050875163ce813aed60e01b8152306004808301919091526024820192909252610160978890829060449082905afa978815614a38578698614a19575b505060c087015191858382019384129112908015821691151617614a0657506149fd9160a06149f461326a939760808a0151906126bf565b970151906126bf565b9593929361494e565b846011602492634e487b7160e01b835252fd5b614a30929850803d10612ef557612ee78183611c62565b9538806149bc565b89513d88823e3d90fd5b614a4c9250612a32565b51883861497f565b955050509391509350565b60405190614a6c82611bd3565b60006060838281528260208201528260408201520152565b60405190614a9182611c29565b8160008082528060208301528060408301528060608301528060808301528060a08301528060c083015260e0820152610100611f6d612047565b604090815191614ada83611c29565b805183614ae682611bef565b60009283835283602084015283818401528360608401528360808401528360a08401528360c08401528360e08401526101009284848201526101209085828201526101408681830152866101608181850152816101809381858701526101a0958287820152895281885197614b5a89611bb6565b8189528160208a0152818a8a01528160608a01528160808a01528160a08a01528160c08a01528160e08a0152818c8a0152880152860152840152614b9c614a5f565b90830152825190614bac82611b29565b868252866020830152820152846101c0820152846101e08201528461020082015284610220820152846102408201526020830152805190614bec82611c46565b8482528460208301528481830152846060830152846080830152820152614c11614a84565b6060820152614c1e614a84565b6080820152614c2b614a84565b60a08201528260c08201528260e08201520152565b949291908552614c5560608601918251615c3c565b91614c6560408701918251615c3c565b9052526129b660a0614c7c608086019485516126bf565b94019182516126bf565b614c8e612066565b5060c0604051614c9d81611b45565b8254600163ffffffff9467ffffffffffffffff19868416968786528460201c169384602087015216604085015201549167ffffffffffffffff9182841691826060820152838560401c16938460808301528560801c16948560a0830152861c958691015260405195614d0e87611b61565b8652602086015260408501526060840152608083015260a082015290565b919063ffffffff9081815111614f4557602081019382855111614f4557604094858301916002614d5c8451615c96565b14614f355760608401916002614d728451615c96565b14614f255760808501936002614d888651615c96565b14614f155760a08601956002614d9e8851615c96565b14614f055792614e7494926000999a60c06001948b614ebd9b9a98511693519c8d9367ffffffffffffffff8080809551169a51169a51169b519d815195614de487611b45565b8787521660208601528401528660608401528760808401528960a08401528b1691015267ffffffff0000000082549a8263ffffffff198d1617845560201b16808267ffffffffffffffff19809d1617178355178155019687541617865585906fffffffffffffffff0000000000000000196fffffffffffffffff000000000000000083549260401b169116179055565b83547fffffffffffffffff0000000000000000ffffffffffffffffffffffffffffffff1660809190911b77ffffffffffffffff0000000000000000000000000000000016178355565b77ffffffffffffffffffffffffffffffffffffffffffffffff7fffffffffffffffff00000000000000000000000000000000000000000000000083549260c01b169116179055565b60048a5163b8a0949960e01b8152fd5b6004895163b8a0949960e01b8152fd5b6004885163b8a0949960e01b8152fd5b6004875163b8a0949960e01b8152fd5b600460405163b8a0949960e01b8152fd5b604081015115614fb257614f6d6060820151615b72565b8015908115614fa7575b5060009015614f8557505090565b5060a081015161220992614fa191818110156108155790615c3c565b9061507c565b600191501438614f77565b5090565b60a061220992604083015115600014614fdb57915b0151818110156108155790615c3c565b614fe590836150b2565b91614fcb565b604081015115614fb2576150026060820151615b72565b8015908115615023575b5015615016575090565b614fa16122099282615152565b60019150143861500c565b604081015115614fb2576150456060820151615b72565b8015908115615071575b506000901561505d57505090565b61220992614fa19181156108155790615c3c565b60019150143861504f565b6150ac6122099261078b6150a060608501516000808213600014612aee5750615c00565b9160408501519061572e565b906150e1565b6150ac6122099261078b6150d660608501516000808213600014612aee5750615c00565b60408501519261572e565b6151186150fe60608301516000808213600014612aee5750615c00565b6121fa83519161078b60208601519160408701519261572e565b90600090826151275750505090565b608001516122099361078b9250908381101561514857612add905b84615c3c565b50612add83615142565b60c0810151906000908261517757505050612209906000818110156108155790615c3c565b60a0015190620f42408084029384040361216f5750612209929161519a91615c49565b610801565b6040810151151590816151b0575090565b6151be915060600151615b72565b80159081156151cb575090565b600191501490565b6151db612098565b50604080516151e981611c0c565b82549267ffffffffffffffff90818516948584528281861c16948560208601526001848360801c1692838388015260c01d60070b938460608801520154958487169485608088015287831c16958660a082015260e07fffffffffffffffffffffffff000000000000000000000000000000000000000063ffffffff8a60801c16998a60c08501521691015281519761528089611b45565b885260208801528601526060850152608084015260a083015260c082015290565b90600291826152b08351615c96565b14615527576020820192806152c58551615c96565b1461552757604091828401826152db8251615c96565b146155175760608501836152ef8251615b91565b14615507576152fe8151615bb3565b15615507576080860191846153138451615c96565b146154f75760c087019563ffffffff97888851116154e75760a081019661533a8851615c96565b146154e75767ffffffffffffffff808080809451169c511694511694519551169651169651978382519261536d84611c0c565b8b84528460208501528301528460070b60608301528660808301528760a0830152881660c082015260e0016000905267ffffffffffffffff1997888554161784556153e59084906fffffffffffffffff0000000000000000196fffffffffffffffff000000000000000083549260401b169116179055565b82547fffffffffffffffff0000000000000000ffffffffffffffffffffffffffffffff1660809190911b77ffffffffffffffff000000000000000000000000000000001617825581549060c01b7fffffffffffffffff000000000000000000000000000000000000000000000000169077ffffffffffffffffffffffffffffffffffffffffffffffff16178155600101938454161783556154b39083906fffffffffffffffff0000000000000000196fffffffffffffffff000000000000000083549260401b169116179055565b81549060801b73ffffffff0000000000000000000000000000000016906fffffffffffffffffffffffffffffffff16179055565b60048251635d4288b560e11b8152fd5b60048651635d4288b560e11b8152fd5b60048551635d4288b560e11b8152fd5b60048451635d4288b560e11b8152fd5b6004604051635d4288b560e11b8152fd5b9061554282611c84565b61554f6040519182611c62565b8281528092615560601f1991611c84565b0190602036910137565b9060005b8151518110156155da576000818451805182106155c8575b5050600090828451805182106155b4575b5050116155ac576155a790612220565b61556e565b505050600090565b6155bf929350612a32565b51908238615597565b6155d29250612a32565b518138615586565b505050600190565b60005b825180518210908115615648578290600092615636575b505060009082845180518210615622575b5050116155da5761561d90612220565b6155e5565b61562d929350612a32565b5190823861560d565b6156409250612a32565b5181386155fc565b5050505050600090565b811561565c570490565b634e487b7160e01b600052601260045260246000fd5b60406060815161568181611ae3565b52600080805260209083825263ffffffff91828483205416916156a383615538565b95815b8481106156c35750505050505051906156be82611ae3565b815290565b600780820484528285528784208183069182101561570257600382901c01600101546156fd929160051b60e0161c8716613d87828b612a32565b6156a6565b602485634e487b7160e01b81526032600452fd5b9062124f809182810292818404149015171561222f57565b8181029291811591840414171561222f57565b615749612047565b506040519061575782611bd3565b546001600160a01b0381169182815263ffffffff9060607fffffffff00000000000000000000000000000000000000000000000000000000838560a01c16938460208501528560c01c169485604085015216910152604051926157b984611b9a565b83526020830152604082015290565b90602081019063ffffffff9182815111615897576040820160026157ec8251615cb1565b14615897577fffffffff0000000000000000000000000000000000000000000000000000000093600060606001600160a01b037bffffffff00000000000000000000000000000000000000000000000096511694519351926040519061585182611bd3565b868252808616602083015284166040820152015260c01b9290921677ffffffff000000000000000000000000000000000000000060a09390931b92909216171790915550565b60046040517f92f03c86000000000000000000000000000000000000000000000000000000008152fd5b60006040516158cf81611ae3565b526040516158dc81611b29565b60025490602067ffffffffffffffff1967ffffffffffffffff84169384845216910152604051906156be82611ae3565b90610100809101519082015191615921612047565b91805184519081810390600080931281831281169183139015161761218357845260208201519160208601519282848203941281851281169185139015161761218357604080916020870194855201519501519481868203961281871281169187139015161761216f576040840194855260208301936159a18551615b17565b905190828282019283129112908015821691151617612183576159c390615c00565b9460408401926159d38451615b17565b905190838282019283129112908015821691151617615a2d576159f7606091615c00565b940191615a048351615b17565b91519181838201938412911290801582169115161761216f5750615a2790615c00565b90525252565b602483634e487b7160e01b81526011600452fd5b615a5b6060615a536040840151615b17565b920151615b17565b80820391600080921281841281169184139015161761216f57808212615a7f575090565b0390565b9091615a8e82615ae8565b15615adf576020615aa1615ac593615ae8565b9301516000808212615ad85750925b615abf620f424094859261572e565b0461572e565b049080821115615ad3575090565b905090565b0392615ab0565b50505050600090565b602060408201516060830151808211600014615b0f5750915b015180821115615ad3575090565b905091615b01565b7f7fffffffffffffffffffffffffffffffffffffffffffffffffffffffffffffff8111615b415790565b602490604051907feecaa25d0000000000000000000000000000000000000000000000000000000082526004820152fd5b60008113615b8b57600013615b8657600190565b600090565b50600290565b677fffffffffffffff90818113615bac5712615b8657600190565b5050600290565b7fffffffffffffffffffffffffffffffffffffffffffffffff800000000000000090818113615bac5712615b8657600190565b64e8d4a510009081810291818304149015171561222f5790565b60008112615c0b5790565b602490604051907fb02ef0870000000000000000000000000000000000000000000000000000000082526004820152fd5b9190820391821161222f57565b90620f42409182810292818404149015171561222f5761220991615652565b9080615c805750615c7a57620f424090565b60001990565b61220991615c49565b60001911615b8657600190565b67ffffffffffffffff90818111615bac5710615b8657600190565b63ffffffff90818111615bac5710615b8657600190565b818111615bac5710615b8657600190565b6040517fa9059cbb0000000000000000000000000000000000000000000000000000000060208201526001600160a01b0392831660248201526044808201949094529283526136e8929190615d2f606484611c62565b16615db7565b6020906024604051809481937f70a082310000000000000000000000000000000000000000000000000000000083526001600160a01b038092166004840152165afa9081156109c157600091615d89575090565b906020823d8211615daf575b81615da260209383611c62565b810103126124ca57505190565b3d9150615d95565b6001600160a01b031690604051615dcd81611b29565b6020928382527f5361666545524332303a206c6f772d6c6576656c2063616c6c206661696c6564848301526000808486829651910182855af13d15615ef8573d9167ffffffffffffffff8311615ee45790615e4893929160405192615e3b88601f19601f8401160185611c62565b83523d868885013e615f02565b90815180615e565750505050565b828491810103126124ca575081615e6d9101612245565b15615e7a578080806148d5565b6084906040519062461bcd60e51b82526004820152602a60248201527f5361666545524332303a204552433230206f7065726174696f6e20646964206e60448201527f6f742073756363656564000000000000000000000000000000000000000000006064820152fd5b602485634e487b7160e01b81526041600452fd5b90615e4892916060915b91929015615f635750815115615f16575090565b3b15615f1f5790565b606460405162461bcd60e51b815260206004820152601d60248201527f416464726573733a2063616c6c20746f206e6f6e2d636f6e74726163740000006044820152fd5b825190915015615f765750805190602001fd5b615f929060405191829162461bcd60e51b835260048301611a84565b0390fdfea2646970667358221220abc099a6bab5229220202e5bef34edd7a690b1024faa1fb084f565678aa6f26864736f6c63430008130033"
}