{
  "address": "0xD5fbF1E37786a4507ec115BB35A938DdCbaE137d",
  "abi": [
    {
      "inputs": [],
      "name": "CurveMath6OutOfBoundsError",
      "type": "error"
    },
    {
      "inputs": [],
      "name": "DivisionByZero",
      "type": "error"
    },
    {
      "inputs": [
        {
          "internalType": "uint256",
          "name": "value",
          "type": "uint256"
        }
      ],
      "name": "Fixed6OverflowError",
      "type": "error"
    },
    {
      "inputs": [],
      "name": "GlobalStorageInvalidError",
      "type": "error"
    },
    {
      "inputs": [],
      "name": "GlobalStorageInvalidError",
      "type": "error"
    },
    {
      "inputs": [
        {
          "internalType": "uint256",
          "name": "version",
          "type": "uint256"
        }
      ],
      "name": "InitializableAlreadyInitializedError",
      "type": "error"
    },
    {
      "inputs": [],
      "name": "InitializableNotInitializingError",
      "type": "error"
    },
    {
      "inputs": [],
      "name": "InitializableZeroVersionError",
      "type": "error"
    },
    {
      "inputs": [
        {
          "internalType": "address",
          "name": "sender",
          "type": "address"
        }
      ],
      "name": "InstanceNotOwnerError",
      "type": "error"
    },
    {
      "inputs": [],
      "name": "InstancePausedError",
      "type": "error"
    },
    {
      "inputs": [],
      "name": "LocalStorageInvalidError",
      "type": "error"
    },
    {
      "inputs": [],
      "name": "LocalStorageInvalidError",
      "type": "error"
    },
    {
      "inputs": [],
      "name": "MarketClosedError",
      "type": "error"
    },
    {
      "inputs": [],
      "name": "MarketCollateralBelowLimitError",
      "type": "error"
    },
    {
      "inputs": [],
      "name": "MarketEfficiencyUnderLimitError",
      "type": "error"
    },
    {
      "inputs": [],
      "name": "MarketExceedsPendingIdLimitError",
      "type": "error"
    },
    {
      "inputs": [],
      "name": "MarketInsufficientCollateralError",
      "type": "error"
    },
    {
      "inputs": [],
      "name": "MarketInsufficientLiquidityError",
      "type": "error"
    },
    {
      "inputs": [],
      "name": "MarketInsufficientMaintenanceError",
      "type": "error"
    },
    {
      "inputs": [],
      "name": "MarketInsufficientMarginError",
      "type": "error"
    },
    {
      "inputs": [
        {
          "internalType": "uint256",
          "name": "code",
          "type": "uint256"
        }
      ],
      "name": "MarketInvalidMarketParameterError",
      "type": "error"
    },
    {
      "inputs": [],
      "name": "MarketInvalidProtectionError",
      "type": "error"
    },
    {
      "inputs": [],
      "name": "MarketInvalidRewardError",
      "type": "error"
    },
    {
      "inputs": [
        {
          "internalType": "uint256",
          "name": "code",
          "type": "uint256"
        }
      ],
      "name": "MarketInvalidRiskParameterError",
      "type": "error"
    },
    {
      "inputs": [],
      "name": "MarketMakerOverLimitError",
      "type": "error"
    },
    {
      "inputs": [],
      "name": "MarketNotBeneficiaryError",
      "type": "error"
    },
    {
      "inputs": [],
      "name": "MarketNotCoordinatorError",
      "type": "error"
    },
    {
      "inputs": [],
      "name": "MarketNotSingleSidedError",
      "type": "error"
    },
    {
      "inputs": [],
      "name": "MarketOperatorNotAllowedError",
      "type": "error"
    },
    {
      "inputs": [],
      "name": "MarketOverCloseError",
      "type": "error"
    },
    {
      "inputs": [],
      "name": "MarketParameterStorageInvalidError",
      "type": "error"
    },
    {
      "inputs": [],
      "name": "MarketProtectedError",
      "type": "error"
    },
    {
      "inputs": [],
      "name": "MarketRewardAlreadySetError",
      "type": "error"
    },
    {
      "inputs": [],
      "name": "MarketStalePriceError",
      "type": "error"
    },
    {
      "inputs": [],
      "name": "PositionStorageInvalidError",
      "type": "error"
    },
    {
      "inputs": [],
      "name": "PositionStorageLocalInvalidError",
      "type": "error"
    },
    {
      "inputs": [],
      "name": "ReentrancyGuardReentrantCallError",
      "type": "error"
    },
    {
      "inputs": [],
      "name": "RiskParameterStorageInvalidError",
      "type": "error"
    },
    {
      "inputs": [
        {
          "internalType": "int256",
          "name": "value",
          "type": "int256"
        }
      ],
      "name": "UFixed6UnderflowError",
      "type": "error"
    },
    {
      "inputs": [],
      "name": "VersionStorageInvalidError",
      "type": "error"
    },
    {
      "inputs": [],
      "name": "VersionStorageInvalidError",
      "type": "error"
    },
    {
      "anonymous": false,
      "inputs": [
        {
          "indexed": true,
          "internalType": "address",
          "name": "account",
          "type": "address"
        },
        {
          "indexed": true,
          "internalType": "uint256",
          "name": "fromOracleVersion",
          "type": "uint256"
        },
        {
          "indexed": true,
          "internalType": "uint256",
          "name": "toOracleVersion",
          "type": "uint256"
        },
        {
          "indexed": false,
          "internalType": "uint256",
          "name": "fromPosition",
          "type": "uint256"
        },
        {
          "indexed": false,
          "internalType": "uint256",
          "name": "toPosition",
          "type": "uint256"
        },
        {
          "components": [
            {
              "internalType": "Fixed6",
              "name": "collateralAmount",
              "type": "int256"
            },
            {
              "internalType": "UFixed6",
              "name": "rewardAmount",
              "type": "uint256"
            },
            {
              "internalType": "UFixed6",
              "name": "positionFee",
              "type": "uint256"
            },
            {
              "internalType": "UFixed6",
              "name": "keeper",
              "type": "uint256"
            }
          ],
          "indexed": false,
          "internalType": "struct LocalAccumulationResult",
          "name": "accumulationResult",
          "type": "tuple"
        }
      ],
      "name": "AccountPositionProcessed",
      "type": "event"
    },
    {
      "anonymous": false,
      "inputs": [
        {
          "indexed": false,
          "internalType": "address",
          "name": "newBeneficiary",
          "type": "address"
        }
      ],
      "name": "BeneficiaryUpdated",
      "type": "event"
    },
    {
      "anonymous": false,
      "inputs": [
        {
          "indexed": false,
          "internalType": "address",
          "name": "newCoordinator",
          "type": "address"
        }
      ],
      "name": "CoordinatorUpdated",
      "type": "event"
    },
    {
      "anonymous": false,
      "inputs": [
        {
          "indexed": true,
          "internalType": "address",
          "name": "account",
          "type": "address"
        },
        {
          "indexed": false,
          "internalType": "UFixed6",
          "name": "amount",
          "type": "uint256"
        }
      ],
      "name": "FeeClaimed",
      "type": "event"
    },
    {
      "anonymous": false,
      "inputs": [
        {
          "indexed": false,
          "internalType": "uint256",
          "name": "version",
          "type": "uint256"
        }
      ],
      "name": "Initialized",
      "type": "event"
    },
    {
      "anonymous": false,
      "inputs": [
        {
          "components": [
            {
              "internalType": "UFixed6",
              "name": "fundingFee",
              "type": "uint256"
            },
            {
              "internalType": "UFixed6",
              "name": "interestFee",
              "type": "uint256"
            },
            {
              "internalType": "UFixed6",
              "name": "positionFee",
              "type": "uint256"
            },
            {
              "internalType": "UFixed6",
              "name": "oracleFee",
              "type": "uint256"
            },
            {
              "internalType": "UFixed6",
              "name": "riskFee",
              "type": "uint256"
            },
            {
              "internalType": "uint256",
              "name": "maxPendingGlobal",
              "type": "uint256"
            },
            {
              "internalType": "uint256",
              "name": "maxPendingLocal",
              "type": "uint256"
            },
            {
              "internalType": "UFixed6",
              "name": "makerRewardRate",
              "type": "uint256"
            },
            {
              "internalType": "UFixed6",
              "name": "longRewardRate",
              "type": "uint256"
            },
            {
              "internalType": "UFixed6",
              "name": "shortRewardRate",
              "type": "uint256"
            },
            {
              "internalType": "UFixed6",
              "name": "settlementFee",
              "type": "uint256"
            },
            {
              "internalType": "bool",
              "name": "takerCloseAlways",
              "type": "bool"
            },
            {
              "internalType": "bool",
              "name": "makerCloseAlways",
              "type": "bool"
            },
            {
              "internalType": "bool",
              "name": "closed",
              "type": "bool"
            }
          ],
          "indexed": false,
          "internalType": "struct MarketParameter",
          "name": "newParameter",
          "type": "tuple"
        }
      ],
      "name": "ParameterUpdated",
      "type": "event"
    },
    {
      "anonymous": false,
      "inputs": [
        {
          "indexed": true,
          "internalType": "uint256",
          "name": "fromOracleVersion",
          "type": "uint256"
        },
        {
          "indexed": true,
          "internalType": "uint256",
          "name": "toOracleVersion",
          "type": "uint256"
        },
        {
          "indexed": false,
          "internalType": "uint256",
          "name": "fromPosition",
          "type": "uint256"
        },
        {
          "indexed": false,
          "internalType": "uint256",
          "name": "toPosition",
          "type": "uint256"
        },
        {
          "components": [
            {
              "internalType": "UFixed6",
              "name": "positionFeeMaker",
              "type": "uint256"
            },
            {
              "internalType": "UFixed6",
              "name": "positionFeeFee",
              "type": "uint256"
            },
            {
              "internalType": "Fixed6",
              "name": "fundingMaker",
              "type": "int256"
            },
            {
              "internalType": "Fixed6",
              "name": "fundingLong",
              "type": "int256"
            },
            {
              "internalType": "Fixed6",
              "name": "fundingShort",
              "type": "int256"
            },
            {
              "internalType": "UFixed6",
              "name": "fundingFee",
              "type": "uint256"
            },
            {
              "internalType": "Fixed6",
              "name": "interestMaker",
              "type": "int256"
            },
            {
              "internalType": "Fixed6",
              "name": "interestLong",
              "type": "int256"
            },
            {
              "internalType": "Fixed6",
              "name": "interestShort",
              "type": "int256"
            },
            {
              "internalType": "UFixed6",
              "name": "interestFee",
              "type": "uint256"
            },
            {
              "internalType": "Fixed6",
              "name": "pnlMaker",
              "type": "int256"
            },
            {
              "internalType": "Fixed6",
              "name": "pnlLong",
              "type": "int256"
            },
            {
              "internalType": "Fixed6",
              "name": "pnlShort",
              "type": "int256"
            },
            {
              "internalType": "UFixed6",
              "name": "rewardMaker",
              "type": "uint256"
            },
            {
              "internalType": "UFixed6",
              "name": "rewardLong",
              "type": "uint256"
            },
            {
              "internalType": "UFixed6",
              "name": "rewardShort",
              "type": "uint256"
            }
          ],
          "indexed": false,
          "internalType": "struct VersionAccumulationResult",
          "name": "accumulationResult",
          "type": "tuple"
        }
      ],
      "name": "PositionProcessed",
      "type": "event"
    },
    {
      "anonymous": false,
      "inputs": [
        {
          "indexed": true,
          "internalType": "address",
          "name": "account",
          "type": "address"
        },
        {
          "indexed": false,
          "internalType": "UFixed6",
          "name": "amount",
          "type": "uint256"
        }
      ],
      "name": "RewardClaimed",
      "type": "event"
    },
    {
      "anonymous": false,
      "inputs": [
        {
          "indexed": false,
          "internalType": "Token18",
          "name": "newReward",
          "type": "address"
        }
      ],
      "name": "RewardUpdated",
      "type": "event"
    },
    {
      "anonymous": false,
      "inputs": [
        {
          "components": [
            {
              "internalType": "UFixed6",
              "name": "margin",
              "type": "uint256"
            },
            {
              "internalType": "UFixed6",
              "name": "maintenance",
              "type": "uint256"
            },
            {
              "internalType": "UFixed6",
              "name": "takerFee",
              "type": "uint256"
            },
            {
              "internalType": "UFixed6",
              "name": "takerSkewFee",
              "type": "uint256"
            },
            {
              "internalType": "UFixed6",
              "name": "takerImpactFee",
              "type": "uint256"
            },
            {
              "internalType": "UFixed6",
              "name": "makerFee",
              "type": "uint256"
            },
            {
              "internalType": "UFixed6",
              "name": "makerImpactFee",
              "type": "uint256"
            },
            {
              "internalType": "UFixed6",
              "name": "makerLimit",
              "type": "uint256"
            },
            {
              "internalType": "UFixed6",
              "name": "efficiencyLimit",
              "type": "uint256"
            },
            {
              "internalType": "UFixed6",
              "name": "liquidationFee",
              "type": "uint256"
            },
            {
              "internalType": "UFixed6",
              "name": "minLiquidationFee",
              "type": "uint256"
            },
            {
              "internalType": "UFixed6",
              "name": "maxLiquidationFee",
              "type": "uint256"
            },
            {
              "components": [
                {
                  "internalType": "UFixed6",
                  "name": "minRate",
                  "type": "uint256"
                },
                {
                  "internalType": "UFixed6",
                  "name": "maxRate",
                  "type": "uint256"
                },
                {
                  "internalType": "UFixed6",
                  "name": "targetRate",
                  "type": "uint256"
                },
                {
                  "internalType": "UFixed6",
                  "name": "targetUtilization",
                  "type": "uint256"
                }
              ],
              "internalType": "struct UJumpRateUtilizationCurve6",
              "name": "utilizationCurve",
              "type": "tuple"
            },
            {
              "components": [
                {
                  "internalType": "UFixed6",
                  "name": "k",
                  "type": "uint256"
                },
                {
                  "internalType": "UFixed6",
                  "name": "max",
                  "type": "uint256"
                }
              ],
              "internalType": "struct PController6",
              "name": "pController",
              "type": "tuple"
            },
            {
              "internalType": "UFixed6",
              "name": "minMargin",
              "type": "uint256"
            },
            {
              "internalType": "UFixed6",
              "name": "minMaintenance",
              "type": "uint256"
            },
            {
              "internalType": "UFixed6",
              "name": "virtualTaker",
              "type": "uint256"
            },
            {
              "internalType": "uint256",
              "name": "staleAfter",
              "type": "uint256"
            },
            {
              "internalType": "bool",
              "name": "makerReceiveOnly",
              "type": "bool"
            }
          ],
          "indexed": false,
          "internalType": "struct RiskParameter",
          "name": "newRiskParameter",
          "type": "tuple"
        }
      ],
      "name": "RiskParameterUpdated",
      "type": "event"
    },
    {
      "anonymous": false,
      "inputs": [
        {
          "indexed": true,
          "internalType": "address",
          "name": "sender",
          "type": "address"
        },
        {
          "indexed": true,
          "internalType": "address",
          "name": "account",
          "type": "address"
        },
        {
          "indexed": false,
          "internalType": "uint256",
          "name": "version",
          "type": "uint256"
        },
        {
          "indexed": false,
          "internalType": "UFixed6",
          "name": "newMaker",
          "type": "uint256"
        },
        {
          "indexed": false,
          "internalType": "UFixed6",
          "name": "newLong",
          "type": "uint256"
        },
        {
          "indexed": false,
          "internalType": "UFixed6",
          "name": "newShort",
          "type": "uint256"
        },
        {
          "indexed": false,
          "internalType": "Fixed6",
          "name": "collateral",
          "type": "int256"
        },
        {
          "indexed": false,
          "internalType": "bool",
          "name": "protect",
          "type": "bool"
        }
      ],
      "name": "Updated",
      "type": "event"
    },
    {
      "inputs": [],
      "name": "beneficiary",
      "outputs": [
        {
          "internalType": "address",
          "name": "",
          "type": "address"
        }
      ],
      "stateMutability": "view",
      "type": "function"
    },
    {
      "inputs": [],
      "name": "claimFee",
      "outputs": [],
      "stateMutability": "nonpayable",
      "type": "function"
    },
    {
      "inputs": [],
      "name": "claimReward",
      "outputs": [],
      "stateMutability": "nonpayable",
      "type": "function"
    },
    {
      "inputs": [],
      "name": "coordinator",
      "outputs": [
        {
          "internalType": "address",
          "name": "",
          "type": "address"
        }
      ],
      "stateMutability": "view",
      "type": "function"
    },
    {
      "inputs": [],
      "name": "factory",
      "outputs": [
        {
          "internalType": "contract IFactory",
          "name": "",
          "type": "address"
        }
      ],
      "stateMutability": "view",
      "type": "function"
    },
    {
      "inputs": [],
      "name": "global",
      "outputs": [
        {
          "components": [
            {
              "internalType": "uint256",
              "name": "currentId",
              "type": "uint256"
            },
            {
              "internalType": "uint256",
              "name": "latestId",
              "type": "uint256"
            },
            {
              "internalType": "UFixed6",
              "name": "protocolFee",
              "type": "uint256"
            },
            {
              "internalType": "UFixed6",
              "name": "oracleFee",
              "type": "uint256"
            },
            {
              "internalType": "UFixed6",
              "name": "riskFee",
              "type": "uint256"
            },
            {
              "internalType": "UFixed6",
              "name": "donation",
              "type": "uint256"
            },
            {
              "components": [
                {
                  "internalType": "Fixed6",
                  "name": "_value",
                  "type": "int256"
                },
                {
                  "internalType": "Fixed6",
                  "name": "_skew",
                  "type": "int256"
                }
              ],
              "internalType": "struct PAccumulator6",
              "name": "pAccumulator",
              "type": "tuple"
            },
            {
              "internalType": "Fixed6",
              "name": "latestPrice",
              "type": "int256"
            }
          ],
          "internalType": "struct Global",
          "name": "",
          "type": "tuple"
        }
      ],
      "stateMutability": "view",
      "type": "function"
    },
    {
      "inputs": [
        {
          "components": [
            {
              "internalType": "Token18",
              "name": "token",
              "type": "address"
            },
            {
              "internalType": "contract IOracleProvider",
              "name": "oracle",
              "type": "address"
            },
            {
              "internalType": "contract IPayoffProvider",
              "name": "payoff",
              "type": "address"
            }
          ],
          "internalType": "struct IMarket.MarketDefinition",
          "name": "definition_",
          "type": "tuple"
        }
      ],
      "name": "initialize",
      "outputs": [],
      "stateMutability": "nonpayable",
      "type": "function"
    },
    {
      "inputs": [
        {
          "internalType": "address",
          "name": "account",
          "type": "address"
        }
      ],
      "name": "locals",
      "outputs": [
        {
          "components": [
            {
              "internalType": "uint256",
              "name": "currentId",
              "type": "uint256"
            },
            {
              "internalType": "uint256",
              "name": "latestId",
              "type": "uint256"
            },
            {
              "internalType": "Fixed6",
              "name": "collateral",
              "type": "int256"
            },
            {
              "internalType": "UFixed6",
              "name": "reward",
              "type": "uint256"
            },
            {
              "internalType": "uint256",
              "name": "protection",
              "type": "uint256"
            }
          ],
          "internalType": "struct Local",
          "name": "",
          "type": "tuple"
        }
      ],
      "stateMutability": "view",
      "type": "function"
    },
    {
      "inputs": [],
      "name": "oracle",
      "outputs": [
        {
          "internalType": "contract IOracleProvider",
          "name": "",
          "type": "address"
        }
      ],
      "stateMutability": "view",
      "type": "function"
    },
    {
      "inputs": [],
      "name": "parameter",
      "outputs": [
        {
          "components": [
            {
              "internalType": "UFixed6",
              "name": "fundingFee",
              "type": "uint256"
            },
            {
              "internalType": "UFixed6",
              "name": "interestFee",
              "type": "uint256"
            },
            {
              "internalType": "UFixed6",
              "name": "positionFee",
              "type": "uint256"
            },
            {
              "internalType": "UFixed6",
              "name": "oracleFee",
              "type": "uint256"
            },
            {
              "internalType": "UFixed6",
              "name": "riskFee",
              "type": "uint256"
            },
            {
              "internalType": "uint256",
              "name": "maxPendingGlobal",
              "type": "uint256"
            },
            {
              "internalType": "uint256",
              "name": "maxPendingLocal",
              "type": "uint256"
            },
            {
              "internalType": "UFixed6",
              "name": "makerRewardRate",
              "type": "uint256"
            },
            {
              "internalType": "UFixed6",
              "name": "longRewardRate",
              "type": "uint256"
            },
            {
              "internalType": "UFixed6",
              "name": "shortRewardRate",
              "type": "uint256"
            },
            {
              "internalType": "UFixed6",
              "name": "settlementFee",
              "type": "uint256"
            },
            {
              "internalType": "bool",
              "name": "takerCloseAlways",
              "type": "bool"
            },
            {
              "internalType": "bool",
              "name": "makerCloseAlways",
              "type": "bool"
            },
            {
              "internalType": "bool",
              "name": "closed",
              "type": "bool"
            }
          ],
          "internalType": "struct MarketParameter",
          "name": "",
          "type": "tuple"
        }
      ],
      "stateMutability": "view",
      "type": "function"
    },
    {
      "inputs": [],
      "name": "payoff",
      "outputs": [
        {
          "internalType": "contract IPayoffProvider",
          "name": "",
          "type": "address"
        }
      ],
      "stateMutability": "view",
      "type": "function"
    },
    {
      "inputs": [
        {
          "internalType": "uint256",
          "name": "id",
          "type": "uint256"
        }
      ],
      "name": "pendingPosition",
      "outputs": [
        {
          "components": [
            {
              "internalType": "uint256",
              "name": "timestamp",
              "type": "uint256"
            },
            {
              "internalType": "UFixed6",
              "name": "maker",
              "type": "uint256"
            },
            {
              "internalType": "UFixed6",
              "name": "long",
              "type": "uint256"
            },
            {
              "internalType": "UFixed6",
              "name": "short",
              "type": "uint256"
            },
            {
              "internalType": "UFixed6",
              "name": "fee",
              "type": "uint256"
            },
            {
              "internalType": "UFixed6",
              "name": "keeper",
              "type": "uint256"
            },
            {
              "internalType": "Fixed6",
              "name": "collateral",
              "type": "int256"
            },
            {
              "internalType": "Fixed6",
              "name": "delta",
              "type": "int256"
            },
            {
              "components": [
                {
                  "internalType": "Fixed6",
                  "name": "maker",
                  "type": "int256"
                },
                {
                  "internalType": "Fixed6",
                  "name": "long",
                  "type": "int256"
                },
                {
                  "internalType": "Fixed6",
                  "name": "short",
                  "type": "int256"
                }
              ],
              "internalType": "struct Invalidation",
              "name": "invalidation",
              "type": "tuple"
            }
          ],
          "internalType": "struct Position",
          "name": "",
          "type": "tuple"
        }
      ],
      "stateMutability": "view",
      "type": "function"
    },
    {
      "inputs": [
        {
          "internalType": "address",
          "name": "account",
          "type": "address"
        },
        {
          "internalType": "uint256",
          "name": "id",
          "type": "uint256"
        }
      ],
      "name": "pendingPositions",
      "outputs": [
        {
          "components": [
            {
              "internalType": "uint256",
              "name": "timestamp",
              "type": "uint256"
            },
            {
              "internalType": "UFixed6",
              "name": "maker",
              "type": "uint256"
            },
            {
              "internalType": "UFixed6",
              "name": "long",
              "type": "uint256"
            },
            {
              "internalType": "UFixed6",
              "name": "short",
              "type": "uint256"
            },
            {
              "internalType": "UFixed6",
              "name": "fee",
              "type": "uint256"
            },
            {
              "internalType": "UFixed6",
              "name": "keeper",
              "type": "uint256"
            },
            {
              "internalType": "Fixed6",
              "name": "collateral",
              "type": "int256"
            },
            {
              "internalType": "Fixed6",
              "name": "delta",
              "type": "int256"
            },
            {
              "components": [
                {
                  "internalType": "Fixed6",
                  "name": "maker",
                  "type": "int256"
                },
                {
                  "internalType": "Fixed6",
                  "name": "long",
                  "type": "int256"
                },
                {
                  "internalType": "Fixed6",
                  "name": "short",
                  "type": "int256"
                }
              ],
              "internalType": "struct Invalidation",
              "name": "invalidation",
              "type": "tuple"
            }
          ],
          "internalType": "struct Position",
          "name": "",
          "type": "tuple"
        }
      ],
      "stateMutability": "view",
      "type": "function"
    },
    {
      "inputs": [],
      "name": "position",
      "outputs": [
        {
          "components": [
            {
              "internalType": "uint256",
              "name": "timestamp",
              "type": "uint256"
            },
            {
              "internalType": "UFixed6",
              "name": "maker",
              "type": "uint256"
            },
            {
              "internalType": "UFixed6",
              "name": "long",
              "type": "uint256"
            },
            {
              "internalType": "UFixed6",
              "name": "short",
              "type": "uint256"
            },
            {
              "internalType": "UFixed6",
              "name": "fee",
              "type": "uint256"
            },
            {
              "internalType": "UFixed6",
              "name": "keeper",
              "type": "uint256"
            },
            {
              "internalType": "Fixed6",
              "name": "collateral",
              "type": "int256"
            },
            {
              "internalType": "Fixed6",
              "name": "delta",
              "type": "int256"
            },
            {
              "components": [
                {
                  "internalType": "Fixed6",
                  "name": "maker",
                  "type": "int256"
                },
                {
                  "internalType": "Fixed6",
                  "name": "long",
                  "type": "int256"
                },
                {
                  "internalType": "Fixed6",
                  "name": "short",
                  "type": "int256"
                }
              ],
              "internalType": "struct Invalidation",
              "name": "invalidation",
              "type": "tuple"
            }
          ],
          "internalType": "struct Position",
          "name": "",
          "type": "tuple"
        }
      ],
      "stateMutability": "view",
      "type": "function"
    },
    {
      "inputs": [
        {
          "internalType": "address",
          "name": "account",
          "type": "address"
        }
      ],
      "name": "positions",
      "outputs": [
        {
          "components": [
            {
              "internalType": "uint256",
              "name": "timestamp",
              "type": "uint256"
            },
            {
              "internalType": "UFixed6",
              "name": "maker",
              "type": "uint256"
            },
            {
              "internalType": "UFixed6",
              "name": "long",
              "type": "uint256"
            },
            {
              "internalType": "UFixed6",
              "name": "short",
              "type": "uint256"
            },
            {
              "internalType": "UFixed6",
              "name": "fee",
              "type": "uint256"
            },
            {
              "internalType": "UFixed6",
              "name": "keeper",
              "type": "uint256"
            },
            {
              "internalType": "Fixed6",
              "name": "collateral",
              "type": "int256"
            },
            {
              "internalType": "Fixed6",
              "name": "delta",
              "type": "int256"
            },
            {
              "components": [
                {
                  "internalType": "Fixed6",
                  "name": "maker",
                  "type": "int256"
                },
                {
                  "internalType": "Fixed6",
                  "name": "long",
                  "type": "int256"
                },
                {
                  "internalType": "Fixed6",
                  "name": "short",
                  "type": "int256"
                }
              ],
              "internalType": "struct Invalidation",
              "name": "invalidation",
              "type": "tuple"
            }
          ],
          "internalType": "struct Position",
          "name": "",
          "type": "tuple"
        }
      ],
      "stateMutability": "view",
      "type": "function"
    },
    {
      "inputs": [],
      "name": "reward",
      "outputs": [
        {
          "internalType": "Token18",
          "name": "",
          "type": "address"
        }
      ],
      "stateMutability": "view",
      "type": "function"
    },
    {
      "inputs": [],
      "name": "riskParameter",
      "outputs": [
        {
          "components": [
            {
              "internalType": "UFixed6",
              "name": "margin",
              "type": "uint256"
            },
            {
              "internalType": "UFixed6",
              "name": "maintenance",
              "type": "uint256"
            },
            {
              "internalType": "UFixed6",
              "name": "takerFee",
              "type": "uint256"
            },
            {
              "internalType": "UFixed6",
              "name": "takerSkewFee",
              "type": "uint256"
            },
            {
              "internalType": "UFixed6",
              "name": "takerImpactFee",
              "type": "uint256"
            },
            {
              "internalType": "UFixed6",
              "name": "makerFee",
              "type": "uint256"
            },
            {
              "internalType": "UFixed6",
              "name": "makerImpactFee",
              "type": "uint256"
            },
            {
              "internalType": "UFixed6",
              "name": "makerLimit",
              "type": "uint256"
            },
            {
              "internalType": "UFixed6",
              "name": "efficiencyLimit",
              "type": "uint256"
            },
            {
              "internalType": "UFixed6",
              "name": "liquidationFee",
              "type": "uint256"
            },
            {
              "internalType": "UFixed6",
              "name": "minLiquidationFee",
              "type": "uint256"
            },
            {
              "internalType": "UFixed6",
              "name": "maxLiquidationFee",
              "type": "uint256"
            },
            {
              "components": [
                {
                  "internalType": "UFixed6",
                  "name": "minRate",
                  "type": "uint256"
                },
                {
                  "internalType": "UFixed6",
                  "name": "maxRate",
                  "type": "uint256"
                },
                {
                  "internalType": "UFixed6",
                  "name": "targetRate",
                  "type": "uint256"
                },
                {
                  "internalType": "UFixed6",
                  "name": "targetUtilization",
                  "type": "uint256"
                }
              ],
              "internalType": "struct UJumpRateUtilizationCurve6",
              "name": "utilizationCurve",
              "type": "tuple"
            },
            {
              "components": [
                {
                  "internalType": "UFixed6",
                  "name": "k",
                  "type": "uint256"
                },
                {
                  "internalType": "UFixed6",
                  "name": "max",
                  "type": "uint256"
                }
              ],
              "internalType": "struct PController6",
              "name": "pController",
              "type": "tuple"
            },
            {
              "internalType": "UFixed6",
              "name": "minMargin",
              "type": "uint256"
            },
            {
              "internalType": "UFixed6",
              "name": "minMaintenance",
              "type": "uint256"
            },
            {
              "internalType": "UFixed6",
              "name": "virtualTaker",
              "type": "uint256"
            },
            {
              "internalType": "uint256",
              "name": "staleAfter",
              "type": "uint256"
            },
            {
              "internalType": "bool",
              "name": "makerReceiveOnly",
              "type": "bool"
            }
          ],
          "internalType": "struct RiskParameter",
          "name": "",
          "type": "tuple"
        }
      ],
      "stateMutability": "view",
      "type": "function"
    },
    {
      "inputs": [],
      "name": "token",
      "outputs": [
        {
          "internalType": "Token18",
          "name": "",
          "type": "address"
        }
      ],
      "stateMutability": "view",
      "type": "function"
    },
    {
      "inputs": [
        {
          "internalType": "address",
          "name": "account",
          "type": "address"
        },
        {
          "internalType": "UFixed6",
          "name": "newMaker",
          "type": "uint256"
        },
        {
          "internalType": "UFixed6",
          "name": "newLong",
          "type": "uint256"
        },
        {
          "internalType": "UFixed6",
          "name": "newShort",
          "type": "uint256"
        },
        {
          "internalType": "Fixed6",
          "name": "collateral",
          "type": "int256"
        },
        {
          "internalType": "bool",
          "name": "protect",
          "type": "bool"
        }
      ],
      "name": "update",
      "outputs": [],
      "stateMutability": "nonpayable",
      "type": "function"
    },
    {
      "inputs": [
        {
          "internalType": "address",
          "name": "newBeneficiary",
          "type": "address"
        }
      ],
      "name": "updateBeneficiary",
      "outputs": [],
      "stateMutability": "nonpayable",
      "type": "function"
    },
    {
      "inputs": [
        {
          "internalType": "address",
          "name": "newCoordinator",
          "type": "address"
        }
      ],
      "name": "updateCoordinator",
      "outputs": [],
      "stateMutability": "nonpayable",
      "type": "function"
    },
    {
      "inputs": [
        {
          "components": [
            {
              "internalType": "UFixed6",
              "name": "fundingFee",
              "type": "uint256"
            },
            {
              "internalType": "UFixed6",
              "name": "interestFee",
              "type": "uint256"
            },
            {
              "internalType": "UFixed6",
              "name": "positionFee",
              "type": "uint256"
            },
            {
              "internalType": "UFixed6",
              "name": "oracleFee",
              "type": "uint256"
            },
            {
              "internalType": "UFixed6",
              "name": "riskFee",
              "type": "uint256"
            },
            {
              "internalType": "uint256",
              "name": "maxPendingGlobal",
              "type": "uint256"
            },
            {
              "internalType": "uint256",
              "name": "maxPendingLocal",
              "type": "uint256"
            },
            {
              "internalType": "UFixed6",
              "name": "makerRewardRate",
              "type": "uint256"
            },
            {
              "internalType": "UFixed6",
              "name": "longRewardRate",
              "type": "uint256"
            },
            {
              "internalType": "UFixed6",
              "name": "shortRewardRate",
              "type": "uint256"
            },
            {
              "internalType": "UFixed6",
              "name": "settlementFee",
              "type": "uint256"
            },
            {
              "internalType": "bool",
              "name": "takerCloseAlways",
              "type": "bool"
            },
            {
              "internalType": "bool",
              "name": "makerCloseAlways",
              "type": "bool"
            },
            {
              "internalType": "bool",
              "name": "closed",
              "type": "bool"
            }
          ],
          "internalType": "struct MarketParameter",
          "name": "newParameter",
          "type": "tuple"
        }
      ],
      "name": "updateParameter",
      "outputs": [],
      "stateMutability": "nonpayable",
      "type": "function"
    },
    {
      "inputs": [
        {
          "internalType": "Token18",
          "name": "newReward",
          "type": "address"
        }
      ],
      "name": "updateReward",
      "outputs": [],
      "stateMutability": "nonpayable",
      "type": "function"
    },
    {
      "inputs": [
        {
          "components": [
            {
              "internalType": "UFixed6",
              "name": "margin",
              "type": "uint256"
            },
            {
              "internalType": "UFixed6",
              "name": "maintenance",
              "type": "uint256"
            },
            {
              "internalType": "UFixed6",
              "name": "takerFee",
              "type": "uint256"
            },
            {
              "internalType": "UFixed6",
              "name": "takerSkewFee",
              "type": "uint256"
            },
            {
              "internalType": "UFixed6",
              "name": "takerImpactFee",
              "type": "uint256"
            },
            {
              "internalType": "UFixed6",
              "name": "makerFee",
              "type": "uint256"
            },
            {
              "internalType": "UFixed6",
              "name": "makerImpactFee",
              "type": "uint256"
            },
            {
              "internalType": "UFixed6",
              "name": "makerLimit",
              "type": "uint256"
            },
            {
              "internalType": "UFixed6",
              "name": "efficiencyLimit",
              "type": "uint256"
            },
            {
              "internalType": "UFixed6",
              "name": "liquidationFee",
              "type": "uint256"
            },
            {
              "internalType": "UFixed6",
              "name": "minLiquidationFee",
              "type": "uint256"
            },
            {
              "internalType": "UFixed6",
              "name": "maxLiquidationFee",
              "type": "uint256"
            },
            {
              "components": [
                {
                  "internalType": "UFixed6",
                  "name": "minRate",
                  "type": "uint256"
                },
                {
                  "internalType": "UFixed6",
                  "name": "maxRate",
                  "type": "uint256"
                },
                {
                  "internalType": "UFixed6",
                  "name": "targetRate",
                  "type": "uint256"
                },
                {
                  "internalType": "UFixed6",
                  "name": "targetUtilization",
                  "type": "uint256"
                }
              ],
              "internalType": "struct UJumpRateUtilizationCurve6",
              "name": "utilizationCurve",
              "type": "tuple"
            },
            {
              "components": [
                {
                  "internalType": "UFixed6",
                  "name": "k",
                  "type": "uint256"
                },
                {
                  "internalType": "UFixed6",
                  "name": "max",
                  "type": "uint256"
                }
              ],
              "internalType": "struct PController6",
              "name": "pController",
              "type": "tuple"
            },
            {
              "internalType": "UFixed6",
              "name": "minMargin",
              "type": "uint256"
            },
            {
              "internalType": "UFixed6",
              "name": "minMaintenance",
              "type": "uint256"
            },
            {
              "internalType": "UFixed6",
              "name": "virtualTaker",
              "type": "uint256"
            },
            {
              "internalType": "uint256",
              "name": "staleAfter",
              "type": "uint256"
            },
            {
              "internalType": "bool",
              "name": "makerReceiveOnly",
              "type": "bool"
            }
          ],
          "internalType": "struct RiskParameter",
          "name": "newRiskParameter",
          "type": "tuple"
        }
      ],
      "name": "updateRiskParameter",
      "outputs": [],
      "stateMutability": "nonpayable",
      "type": "function"
    },
    {
      "inputs": [
        {
          "internalType": "uint256",
          "name": "timestamp",
          "type": "uint256"
        }
      ],
      "name": "versions",
      "outputs": [
        {
          "components": [
            {
              "internalType": "bool",
              "name": "valid",
              "type": "bool"
            },
            {
              "components": [
                {
                  "internalType": "Fixed6",
                  "name": "_value",
                  "type": "int256"
                }
              ],
              "internalType": "struct Accumulator6",
              "name": "makerValue",
              "type": "tuple"
            },
            {
              "components": [
                {
                  "internalType": "Fixed6",
                  "name": "_value",
                  "type": "int256"
                }
              ],
              "internalType": "struct Accumulator6",
              "name": "longValue",
              "type": "tuple"
            },
            {
              "components": [
                {
                  "internalType": "Fixed6",
                  "name": "_value",
                  "type": "int256"
                }
              ],
              "internalType": "struct Accumulator6",
              "name": "shortValue",
              "type": "tuple"
            },
            {
              "components": [
                {
                  "internalType": "UFixed6",
                  "name": "_value",
                  "type": "uint256"
                }
              ],
              "internalType": "struct UAccumulator6",
              "name": "makerReward",
              "type": "tuple"
            },
            {
              "components": [
                {
                  "internalType": "UFixed6",
                  "name": "_value",
                  "type": "uint256"
                }
              ],
              "internalType": "struct UAccumulator6",
              "name": "longReward",
              "type": "tuple"
            },
            {
              "components": [
                {
                  "internalType": "UFixed6",
                  "name": "_value",
                  "type": "uint256"
                }
              ],
              "internalType": "struct UAccumulator6",
              "name": "shortReward",
              "type": "tuple"
            }
          ],
          "internalType": "struct Version",
          "name": "",
          "type": "tuple"
        }
      ],
      "stateMutability": "view",
      "type": "function"
    }
  ],
  "transactionHash": "0xd9478e994975f5ff929d39baa87c2dfd8100c2c6a398bf47571b3367583f16b1",
  "args": [],
  "numDeployments": 1,
  "solcInputHash": "1461b245b3a9c35fdf87e75e17cbd6f1",
  "bytecode": "0x6080806040523461001757615ff590816200001d8239f35b600080fdfe6080604052600436101561001257600080fd5b6000803560e01c806309218e91146124cd5780630a009097146124a45780630aaffd2a146123de578063228cb733146123b557806338af3eed1461238c5780634549a6291461230257806355f57510146122bb5780635b4b969514612244578063632447c9146121485780637dc0d1d01461211f57806387aee00e1461209f57806391eece2814610e8157806395fcd83614610e5857806399d32fc414610cdc578063a05f990614610c5b578063a1d0a11314610c27578063ad4d4e2914610b82578063b329230e146107a3578063b88a802f14610712578063b9bcc3bd146104c8578063c45a015514610492578063ce813aed146103be578063d26b3e2614610257578063f9f94e34146101595763fc0c546a1461013057600080fd5b34610156578060031936011261015657546040516001600160a01b039091168152602090f35b80fd5b5034610156576020366003190112610156576004356001600160a01b0381811691829003610252576004602082600080516020615fa0833981519152541660405192838092638da5cb5b60e01b82525afa908115610247578491610219575b5016330361020157600580546001600160a01b031916821790556040519081527fc258faa9a17ddfdf4130b4acff63a289202e7d5f9e42f366add65368575486bc90602090a180f35b604051634d193d1f60e01b8152336004820152602490fd5b61023a915060203d8111610240575b6102328183612693565b8101906126d9565b386101b8565b503d610228565b6040513d86823e3d90fd5b600080fd5b5034610156576060366003190112610156577f6fee9688c285c5c5c97d6a1a29adced674e6b2ad0888b8ad2116b58a8b3ea2486001815410156103a55760019055303b15158061039e575b6103855733600080516020615fa083398151915255303b151580610397575b610385576001600080516020615f80833981519152556001600160a01b036004358181169081900361037d5782546001600160a01b03199081169091178355602435828116908190036103815781600254161760025560443591821680920361037d576003541617600355807f2801b00eb06461cf9fcb9758b5fafd884ff06a86177386f73b6c49f0bf5a5af0557fbe9b076dc5b65990cca9dd9d7366682482e7817a6f6bc7f4faf4dc32af497f32602060405160018152a180f35b8280fd5b8380fd5b60405163b9a621e160e01b8152600490fd5b50806102c1565b50806102a2565b604051631edb9c6d60e11b815260016004820152602490fd5b5034610156576040366003190112610156576004356001600160a01b03811691908290036102525760406104119161048e936103f8612b61565b5081526012602052818120602435825260205220614a70565b60405191829182919091610140604061016083019480518452602081015160208501528181015182850152606081015160608501526080810151608085015260a081015160a085015260c081015160c085015260e081015160e0850152610100809101519081519085015260208101516101208501520151910152565b0390f35b5034610156578060031936011261015657600080516020615fa0833981519152546040516001600160a01b039091168152602090f35b5034610156576101c08060031936011261070e57604051906104ea8183612693565b6004358252602435602083015260443560408301526064356060830152608435608083015260a43560a083015260c43560c083015260e43560e083015261010435610100830152610124356101208301526101443561014083015261016435801515810361025257610160830152610184358015158103610252576101808301526101a4358015158103610252576101a0830152600080516020615fa083398151915254604051638da5cb5b60e01b81526001600160a01b039182169190602081600481865afa801561070357829187916106e5575b5016330361020157849160049160e0738a159CDB5FA8AF4A71f987F3Fb2D5229eC63c758926040519485809263ad4d4e29851b82525afa9283156102475784936106b4575b506001541691813b15610381576102e461064c91859360405195869485936310317ba160e11b855260096004860152610641602486018d612600565b6101e4850190612754565b6102c48301525af480156106a957610694575b50507ff12be1637c87b6840bce6a43024d842fdde312893b5711402d511dc296b61fc6916106906040518092612600565ba180f35b8161069e91612693565b61037d57823861065f565b6040513d84823e3d90fd5b6106d791935060e03d60e0116106de575b6106cf8183612693565b8101906126f8565b9138610605565b503d6106c5565b6106fd915060203d8111610240576102328183612693565b386105c0565b6040513d88823e3d90fd5b5080fd5b503461015657806003193601126101565733815260106020526107a061073a60408320614073565b8260018060a01b036001541661076060608401916107588351615b21565b903390615c0d565b80516040519081527f106f923f993c2149d49b4255ff723acafa1f2d94393f561d3eda32ae348f724160203392a2523383526010602052604083206140cb565b80f35b5034610156576102e0366003190112610156576040516107c561026082612693565b6004358152602435602082015260443560408201526064356060820152608435608082015260a43560a082015260c43560c082015260e43560e08201526101043561010082015261012435610120820152610144356101408201526101643561016082015260806101831936011261070e57604051610845608082612693565b6101843581526101a43560208201526101c43560408201526101e435606082015261018082015260406102031936011261070e57604051610887604082612693565b6102043581526102243560208201526101a0820152610244356101c0820152610264356101e0820152610284356102008201526102a4356102208201526102c43515156102c43503610252576102c4356102408201526005546001600160a01b031633141580610b04575b610af257600080516020615fa08339815191525460405163ad4d4e2960e01b8152839160e090829060049082906001600160a01b03165afa9081156106a9578291610ad3575b5073c24FeF7BB2f7AB454A3f982eD3b4B8268fF850BD3b1561070e57610a5f604051916302903c7960e21b83526006600484015284516024840152602085015160448401526040850151606484015260608501516084840152608085015160a484015260a085015160c484015260c085015160e484015260e08501516101048401526101008501516101248401526101208501516101448401526101408501516101648401526101608501516101848401526109fe6101808601516101a48501906124f4565b60206101a0860151805161022486015201516102448401526101c08501516102648401526101e08501516102848401526102008501516102a48401526102208501516102c484015261024085015115156102e4840152610304830190612754565b81816103e48173c24FeF7BB2f7AB454A3f982eD3b4B8268fF850BD5af480156106a957610abe575b506040517f823c5e592916c45a8b43a655f22eb029f79dfd3c63f6d122df594aaf83e09b029080610ab88582612517565b0390a180f35b81610ac891612693565b61070e578138610a87565b610aec915060e03d60e0116106de576106cf8183612693565b38610938565b604051639bca062560e01b8152600490fd5b50600080516020615fa083398151915254604051638da5cb5b60e01b815290602090829060049082906001600160a01b03165afa908115610b77578391610b58575b506001600160a01b03163314156108f2565b610b71915060203d602011610240576102328183612693565b38610b46565b6040513d85823e3d90fd5b5034610156578060031936011261015657610b9b6127fd565b506040516338ecab9f60e21b8152600960048201526101c091908281602481738a159CDB5FA8AF4A71f987F3Fb2D5229eC63c7585af4918215610c1b5791610bee575b50610bec6040518092612600565bf35b610c0e9150823d8411610c14575b610c068183612693565b810190612868565b38610bde565b503d610bfc565b604051903d90823e3d90fd5b503461015657602036600319011261015657610411604061048e92610c4a612b61565b506004358152600f602052206148dc565b5034610156578060031936011261015657610c74612bb0565b50610120610c82600b613db4565b60e060405191805183526020810151602084015260408101516040840152606081015160608401526080810151608084015260a081015160a0840152602060c0820151805160c08601520151828401520151610100820152f35b5034610156578060031936011261015657610cf7600b613db4565b600080516020615fa08339815191528054604051638da5cb5b60e01b81526001600160a01b0393928592602092908390829060049082908a165afa80156102475760049285889286948291610e3b575b50610d5860408a0191825190612795565b610e33575b5050541660405192838092630c7f7fb960e41b82525afa918215610b77578392610df8575b505092816107a094610d9c60608601918483519116612795565b610df0575b508160055416610db76080860191825190612795565b610de8575b505060045416610dd260a0840191825190612795565b610de0575b5050600b613e4d565b528238610dd7565b528138610dbc565b528138610da1565b90809250813d8311610e2c575b610e0f8183612693565b8101031261070e575192808416840361070e5792816107a0610d82565b503d610e05565b528538610d5d565b610e529150853d8711610240576102328183612693565b38610d47565b50346101565780600319360112610156576003546040516001600160a01b039091168152602090f35b50346101565760c0366003190112610156576004356001600160a01b03811690036101565760a435151560a43503610156576002600080516020615f80833981519152541461208d576002600080516020615f8083398151915255600080516020615fa083398151915254604051635c975abb60e01b81526001600160a01b0390911690602081600481855afa908115610b77578391612053575b5061204157600460e060405192610f3561014085612693565b604051610f428382612693565b8581528560208201528560408201528560608201528560808201528560a08201528560c08201528452610f736127fd565b6020850152610f8061294e565b6040850152846060850152610f93612b40565b6080850152610fa0612b40565b60a0850152610fad612bb0565b60c0850152610fba612c97565b82850152610fc6612d0c565b610100850152610fd4612d0c565b6101208501526040519283809263ad4d4e29851b82525afa908115610b77578391612022575b5081526040516338ecab9f60e21b8152600960048201526101c081602481738a159CDB5FA8AF4A71f987F3Fb2D5229eC63c7585af4908115610b77578391612001575b506020820152604051635da3780d60e01b8152600660048201526102e08160248173c24FeF7BB2f7AB454A3f982eD3b4B8268fF850BD5af4908115610b77578391611fd0575b506040820152611093600b613db4565b60c08201526004356001600160a01b031682526010602052604082206110b890614073565b60e08201526110c5612b40565b50600254604051631006976960e11b815290608090829060049082906001600160a01b03165afa8015610b775783918491611f8e575b5061110582613d3b565b6060830152608082015261112261111c600d6148dc565b82613c87565b60a0820152611131600d6148dc565b610120820151526004356001600160a01b0316825260116020526040822061115890614a70565b6020610120830151015261116a612b61565b905b60c081015160208151910151809114159081611f59575b50156111c357602060c082015101516001810181116111af578260016111aa920183612d3d565b61116c565b634e487b7160e01b84526011600452602484fd5b91905b60e083015160208151910151141580611ef4575b156113aa576004356001600160a01b0316825260126020908152604080842060e08681015184015186529252832061121190614a70565b015192602060e082015101516001810181116111af57826001611238920160043584613114565b60018060a01b03600435168352601260205260408320602060e08301510151845260205261126860408420614a70565b60018060a01b0360043516845260126020526040842060e083015151855260205261129560408520614a70565b9460e06040818501510151960151958582128783810312811690888481031390151617611396578187038681128015918303838113929092169183131617611396576112e460808601516159d9565b90828803810387811280159184018413918216911516176113825761130c60a08701516159d9565b9280890382038301888112801591860186139182169115161761136e5761136795969798039003010160c082015260018060a01b03600435168552601260205260408520602060e08501510151865260205260408520614b51565b91906111c6565b634e487b7160e01b88526011600452602488fd5b634e487b7160e01b87526011600452602487fd5b634e487b7160e01b86526011600452602486fd5b50608082015151610120830151515110611ea4575b608082015151602061012084015101515110611e3d575b60e060c083015101516020608084015101526113f961012083015151600d614988565b6004356001600160a01b0316815260116020908152604082206101208401519091015161142591614b51565b6044359160243560843560643561143a612d0c565b60c0850151518652600f602052611453604087206148dc565b815260018060a01b0360043516865260126020526040862060e08601515187526020526114e661010061148860408920614a70565b602084019081526114a184516101208a015151906145c8565b6114b6815160206101208b01510151906145c8565b6114ce8285510151836101208b015151015190614029565b51015161010060206101208901510151015190614029565b61010085015260016114fc600160ff1b84615af1565b14611e0f575b600161151060001985615bba565b14611dfa575b600161152460001988615bba565b14611de5575b600161153860001983615bba565b14611dd1575b6060840151602061010086015101515110611da9575b6060840151610100850151515110611d84575b60206101008501510151956060850151604051976115876101408a612693565b8789528760208a01528760408a01528760608a01528760808a01528760a08a01528760c08a01528760e08a0152876101008a0152876101208a01526115cb866159d9565b6115d860208301516159d9565b908982128183810312811690828481031390151617611d70576115fa856159d9565b61160760408501516159d9565b908b82128183810312811690828481031390151617611d0357611629886159d9565b61163660608701516159d9565b908d82128183810312811690828481031390151617611d48578e91604091039101520360208c0152038952836060820152826040820152856020820152526101008501515160608601519061020060408801510161169581518361477b565b926116a76116a284614740565b6159d9565b6116b36116a28561484e565b8c60c06116c26116a288614801565b91015260e08d015260608c01526116dc60208401516159d9565b8b519081808201128c8212908015821691151617611d03576116fe9101615b3b565b61170b60408501516159d9565b60208d01519081808201128d8212908015821691151617611d5c576117309101615b3b565b8c604061174060608801516159d9565b910151908d8280830112908212908015821691151617611d48576117649101615b3b565b60608601526040850152602084015282526117816116a283614740565b9160608b0151938a85128486810312811690858781031390151617611d20576117ab83518361477b565b8b82128183810312811690828481031390151617611d03576116a26117ea6116a26117e56117dd866117f09603615f6e565b97518761477b565b615f6e565b92615f6e565b918b83128284810312811690838581031390151617611d03578c60e06118186116a28461484e565b910151918d83128284810312811690838581031390151617611d48578e60c08f926116a261184591614801565b9101519182128183810312811690828481031390151617611d34578f9160c091039101520360e08d01520360a08b015260808a01520360608801526080850151602086015190604087015161189d60a08201516159d9565b6118c4620f42406118bf8d60c06118b6818801516159d9565b91015190612cc4565b615a30565b9081808201128b8212908015821691151617611d2057908b918b82820113600014611d175701915b61191a620f424061191461190360408501516159d9565b946080606086015191015190615b0e565b046159d9565b9081808401128c8412908015821691151617611d0357620f42406118bf8e60a06118b6608061194a9601516159d9565b91828083830101128c83830112908015821691151617611d03576119c0620f42406119c68f96978f6119ef846119cd6119fd9c6119c0836119c68f9c829f6119f69f906119b3916020938c6119c09d5080848484010113600014611cf9575001019e5b51615f6e565b9901986119c08a51615f6e565b90615b0e565b0491615b3b565b04996119e960406119e16020840151615f6e565b920151615f6e565b90612d30565b9151615f6e565b0490612d30565b6101a082015115611cf45750865b610100890152611a1a88614449565b15611cea5750855b610120880152611a3b87602061010088015101516146e9565b611a4b87610100870151516146e9565b604060e0860151018051848082011288821290801582169115161761136e578401905260e060206101008701510151018051848082011288821290801582169115161761136e5784019052611ab860e0860151602061012088015101519060a43591606089015191614043565b611ac188614449565b15611c6f575b611ada9084611bde9899600435896133e3565b60c0850151518752600f602052611afb604088206101008701515190614988565b6004356001600160a01b0316875260126020908152604080892060e0880151518a528252882061010087015190910151611b3491614b51565b611b3d83615ab0565b60018114611c18575b60001914611bf3575b606085015193604051948552602085015260408401526060830152608082015260a435151560a082015260018060a01b0360043516907f29083474b417ce11b6e16e049302e231f5d3d753484fe3e8155ea0b7ffe4f3c160c03392a3611bba60c0820151600b613e4d565b6004356001600160a01b0316835260106020526040832060e09190910151906140cb565b6001600080516020615f808339815191525580f35b8654611c13906001600160a01b0316610758611c0e86615f6e565b615b21565b611b4f565b8754611c6a906001600160a01b0316611c33611c0e87615f6e565b90604051916323b872dd60e01b6020840152336024840152306044840152606483015260648252611c65608483612693565b615d82565b611b46565b6002546001600160a01b0316803b15611ce6576040516313e3c62160e11b8152600480356001600160a01b0316908201529088908290602490829084905af18015611cdb57611cbf575b50611ac7565b908488611cd2611bde9a611ada95612693565b98505090611cb9565b6040513d8a823e3d90fd5b8780fd5b6101400151611a22565b611a0b565b925050509e6119ad565b634e487b7160e01b8c52601160045260248cfd5b505089916118ec565b634e487b7160e01b8b52601160045260248bfd5b634e487b7160e01b8f52601160045260248ffd5b634e487b7160e01b8e52601160045260248efd5b634e487b7160e01b8d52601160045260248dfd5b634e487b7160e01b8a52601160045260248afd5b60c0840151611d938151612cfd565b9052611da461010085015151614488565b611567565b60e0840151611db88151612cfd565b9052611dcc60206101008601510151614488565b611554565b50606060206101008501510151015161153e565b6101008401516020015160400151955061152a565b91506020806101008501510151015191611516565b9050611e37604060e085015101516118bf620f424091611e3183600019612cc4565b90612cc4565b90611502565b60018060a01b03600435168152601260205260408120602060e084015101518252602052611e9f611e7060408320614a70565b611e8d608085015182905190600060a08201526000608082015252565b602060e0850151015160043585613114565b6113d6565b602060c083015101518152600f602052611eef611ec3604083206148dc565b611ee0608085015182905190600060a08201526000608082015252565b602060c0850151015184612d3d565b6113bf565b50506004356001600160a01b03168152601260209081526040822060e084015190910151600181018111611f45576001018252602052611f3660408220614a70565b608083015151815111156111da565b634e487b7160e01b83526011600452602483fd5b91925050600181018111611f45576001018252600f602052611f7d604083206148dc565b906080810151518251111538611183565b91505060803d608011611fc9575b611fa68183612693565b608082828101031261038157611fc0606091830183613c51565b910151386110fb565b503d611f9c565b611ff491506102e03d6102e011611ffa575b611fec8183612693565b8101906129f9565b38611083565b503d611fe2565b61201c91506101c03d6101c011610c1457610c068183612693565b3861103d565b61203b915060e03d60e0116106de576106cf8183612693565b38610ffa565b604051634b94d2bb60e01b8152600490fd5b90506020813d602011612085575b8161206e60209383612693565b8101031261037d5761207f906126cc565b38610f1c565b3d9150612061565b6040516345f6780960e11b8152600490fd5b5034610156576020366003190112610156576120d2604060e0926120c1612c07565b5060043581526013602052206157de565b60c060405191805115158352602081015151602084015260408101515160408401526060810151516060840152608081015151608084015260a08101515160a084015201515160c0820152f35b50346101565780600319360112610156576002546040516001600160a01b039091168152602090f35b5034610156576020366003190112610156576004356001600160a01b038181169182900361037d576004602082600080516020615fa0833981519152541660405192838092638da5cb5b60e01b82525afa80156102475782918591612226575b501633036102015760015490808216612214578354168214612202576001600160a01b03191681176001556040519081527ff0f334a92951c3f240a6d627261c6a075ab711edba3ce91573923831cbe4d4d190602090a180f35b60405163037df82360e11b8152600490fd5b60405163473b50fd60e01b8152600490fd5b61223e915060203d8111610240576102328183612693565b386121a8565b5034610156576020366003190112610156576004356001600160a01b0381169081900361070e57604060a09261228a9261227c612c97565b508152601060205220614073565b6080604051918051835260208101516020840152604081015160408401526060810151606084015201516080820152f35b5034610156576020366003190112610156576004356001600160a01b0381169081900361070e57604061048e92610411926122f4612b61565b508152601160205220614a70565b503461015657806003193601126101565761231b61294e565b50604051635da3780d60e01b8152600660048201526102e090818160248173c24FeF7BB2f7AB454A3f982eD3b4B8268fF850BD5af4918215610b775761048e939261236f575b505060405191829182612517565b6123859250803d10611ffa57611fec8183612693565b3880612361565b50346101565780600319360112610156576004546040516001600160a01b039091168152602090f35b50346101565780600319360112610156576001546040516001600160a01b039091168152602090f35b5034610156576020366003190112610156576004356001600160a01b038181169182900361037d576004602082600080516020615fa0833981519152541660405192838092638da5cb5b60e01b82525afa908115610247578491612486575b5016330361020157600480546001600160a01b031916821790556040519081527feee59a71c694e68368a1cb0d135c448051bbfb12289e6c2223b0ceb100c2321d90602090a180f35b61249e915060203d8111610240576102328183612693565b3861243d565b50346101565780600319360112610156576005546040516001600160a01b039091168152602090f35b50346101565780600319360112610156576124e6612b61565b5061048e610411600d6148dc565b606080918051845260208101516020850152604081015160408501520151910152565b9190916102c06102e0820193805183526020810151602084015260408101516040840152606081015160608401526080810151608084015260a081015160a084015260c081015160c084015260e081015160e084015261010080820151908401526101208082015190840152610140808201519084015261016080820151908401526125ac61018080830151908501906124f4565b6101a08101519060208251926102009384870152015161022090818601526101c08201519261024093848701526101e08301516102608701528201516102808601528101516102a085015201511515910152565b805182526020810151602083015260408101516040830152606081015160608301526080810151608083015260a081015160a083015260c081015160c083015260e081015160e083015261010080820151908301526101208082015190830152610140808201519083015261016080820151151590830152610180808201511515908301526101a0809101511515910152565b601f909101601f19168101906001600160401b038211908210176126b657604052565b634e487b7160e01b600052604160045260246000fd5b5190811515820361025257565b9081602091031261025257516001600160a01b03811681036102525790565b908160e09103126102525760c06040519161271460e084612693565b805183526020810151602084015260408101516040840152606081015160608401526080810151608084015260a081015160a0840152015160c082015290565b60c08091805184526020810151602085015260408101516040850152606081015160608501526080810151608085015260a081015160a08501520151910152565b6001600160a01b0381811692909190338490036127f4576127e86020927f20ca5094f3a20c321cbe4123d0f01b276b81df0fa24cd4d83d9253956035d8639460005416906127e284615b21565b91615c0d565b604051908152a2600190565b50505050600090565b6040519061280d6101c083612693565b816101a06000918281528260208201528260408201528260608201528260808201528260a08201528260c08201528260e082015282610100820152826101208201528261014082015282610160820152826101808201520152565b80916101c09283910312610252576128836040519283612693565b805182526020810151602083015260408101516040830152606081015160608301526080810151608083015260a081015160a083015260c081015160c083015260e081015160e08301526101008082015190830152610120808201519083015261014080820151908301526101606128fc8183016126cc565b9083015261018061290e8183016126cc565b908301526129206101a08092016126cc565b9082015290565b60405190612936608083612693565b60006060838281528260208201528260408201520152565b6040519061295e61026083612693565b816102406000918281528260208201528260408201528260608201528260808201528260a08201528260c08201528260e0820152826101008201528261012082015282610140820152826101608201526129b6612927565b6101808201526040516129ca604082612693565b8381528360208201526101a0820152826101c0820152826101e082015282610200820152826102208201520152565b8091036102e0811261025257604080519261026090612a188286612693565b80518552602081015160208601528281015183860152606081015160608601526080810151608086015260a081015160a086015260c081015160c086015260e081015160e08601526101008082015190860152610120808201519086015261014080820151908601526101608082015190860152608061017f1985011261025257825193612aa7608086612693565b61018093848301518652806101a0928385015160208901526101c09788860151838201526101e0978887015160608301528a01526101ff19011261025257612920946102c094612af983519384612693565b61020092838601518152610220948587015160208301528a01526102409788860151908a015284015190880152610280830151908701526102a082015190860152016126cc565b60405190612b4f606083612693565b60006040838281528260208201520152565b60405190612b7161012083612693565b8160008082528060208301528060408301528060608301528060808301528060a08301528060c083015260e0820152610100612bab612b40565b910152565b60405190612bc061010083612693565b8160e06000918281528260208201528260408201528260608201528260808201528260a0820152604051612bf5604082612693565b83815283602082015260c08201520152565b604090815191612c1860e084612693565b60c0836000808252612c91845194602095612c338782612693565b838152868501528051612c468782612693565b838152818501528051612c598782612693565b83815260608501528051612c6d8782612693565b83815260808501528051612c818782612693565b83815260a0850152519485612693565b83520152565b60405190612ca660a083612693565b60006080838281528260208201528260408201528260608201520152565b818102929160008212600160ff1b821416612ce7578184051490151715612ce757565b634e487b7160e01b600052601160045260246000fd5b6000198114612ce75760010190565b60405190612d1b604083612693565b81612d24612b61565b81526020612bab612b61565b91908201809211612ce757565b9091610120820190612d51825151826145c8565b815151516000526013602052612d6a60406000206157de565b91612d758285613c87565b90604082015115613103575b8051519160a083519685612dbf612db58960c08501518760208201519a86898901519160208a01519460408b015196614d77565b9290965151614463565b60c082015160e06020860151918c60208201520152612e7e8360c08401516080828b0151612e626020880151612e3c612e09620f4240612e018c51518c615b0e565b04809a6133ac565b612e37620f4240612e2e81612e22606088015186615b0e565b04988996015184615b0e565b049687926133ac565b6133ac565b97612e4c60408701918251612d30565b9052612e5d60608601938451612d30565b612d30565b9052612e7360808301918251612d30565b905201918251612d30565b90520152825160005260136020526040600020926002600180603f1b0381612eab8260208a015151615af1565b146130f15760208701515160016001603f1b03199190612ecc908390615af1565b156130f15782612ee18260408b015151615af1565b146130f157612ef58260408a015151615af1565b156130f157612f0a839160608a015151615af1565b146130f157612f1e90606088015151615af1565b156130f1576080860151518190612f3d906001600160401b0390615bba565b146130f15760a0860151518190612f5c906001600160401b0390615bba565b146130f15760c086015151612f79906001600160401b0390615bba565b146130f157846001610240957fd67bab6cdd205804bd5c55f9eebe24e2d16bcd12950b9fab152e727ae331f732975115156000146130ea57815b6101008360481b0360208501515160081b1660ff8460481b8560881b0360408701515160481b16921617178260881b8360c81b0360608501515160881b161792828060401b03608082015151168360401b8460801b0360a08301515160401b16179060c08460801b85821b039101515160801b1617928155015551956040519283526020830152805160408301526020810151606083015260408101516080830152606081015160a0830152608081015160c083015260a081015160e083015260c0810151610100908184015260e0820151610120840152810151906101409182840152610120810151916101609283850152810151916101809283850152810151916101a09283850152810151916101c09283850152810151916101e092838501528101516102008401520151610220820152a3565b6000612fb3565b60405163693bbf3960e11b8152600490fd5b61310f8382515161449d565b612d81565b919061012083019360209461312d8682510151836145c8565b81519060009182526013875260406131468184206157de565b95865115613399575b88835101519060e08251990151958a8701948551998b885260138d528c613177878a206157de565b61317f612927565b966131978385015184840151948301948551916158a7565b89850151906131b08b850151928c8501938451916158a7565b908d8282019283129112908015821691151617611d5c576131e060608701516060808701519501948551916158a7565b908d8282019283129112908015821691151617611d5c57895260808501519360808401519051945190620f424095869283925161321c916133ac565b9061322691615b0e565b049160a08701519060a0860151905191519051613242916133ac565b9061324c91615b0e565b0461325691612d30565b9360c001519160c0015190519151905161326f916133ac565b9061327991615b0e565b0461328391612d30565b958c8501968752608083015198868601988a8a5260a08501519a606088019b808d526132ae91612d30565b6132b7906159d9565b908883019081518951908282820192831291129080158216911516176133855781848203941281851281169185139015161761337157508f90948787957f537fc20b2c68750bd35f0521f860cddf4fc12323e0b41e684a2dac8ed0fcc1839f9d9b999760c09f9d9b99959661334397606092520161333881518d5190612d30565b905252510151614463565b5183519a8b529b8a015251908801525160608701525160808601525160a08501526001600160a01b031692a4565b634e487b7160e01b81526011600452602490fd5b634e487b7160e01b82526011600452602482fd5b6133a7858a8551015161449d565b61314f565b91908203918211612ce757565b80518210156133cd5760209160051b010190565b634e487b7160e01b600052603260045260246000fd5b92939490919460e08401519060408201519061342261340a6020610120890151015161471a565b93602081519101518181106000146135f057906133ac565b9761342c89613c3a565b9861343a6040519a8b612693565b808a52613449601f1991613c3a565b0160005b818110613c22575050839460005b8a516000198101908111612ce7578110156134fd5760018060a01b0388166000526012602052604060002090602060e08b0151015191600183018311612ce7576134e2828e6134f3936134b48360016134f89901612d30565b6000526020526134c76040600020614a70565b6134d183836133b9565b526134dc82826133b9565b506133b9565b5160206101208d01510151906145c8565b612cfd565b61345b565b5090929496979591939560206101008a015101518a5180600019810111612ce7579798919761353f9161353460001983018e6133b9565b52600019018b6133b9565b506000975b8a518910156135f757613564608061355c8b8e6133b9565b5101516159d9565b9660008882039812818912811691891390151617612ce75761358b60a061355c8b8e6133b9565b9660008882039812818912811691891390151617612ce7576135cb6135d1926135bd6135b78c8f6133b9565b5161471a565b818110156135f057906133ac565b906133ac565b956135e86135e26135b78a8d6133b9565b98612cfd565b979096613544565b50806133ac565b905084999598929693975093909381613b14575b50613b02576060810151956136276080830197885151906133ac565b956040830196610220885101511115613af15760208301996101a08b510151151580613acd575b613abb57600261366e602061010087015151015160e08b51015190615bba565b14613aa9576136866020610100860151015184614214565b158015613a8f575b613a7d57613a71576001600160a01b039081163381141591826139dc575b5050806139a4575b6139925760c08201516136d36020825192015160a08c51015190612d30565b108015613970575b61395e576136f788602061012085015101518951895191614860565b156137405760005b85516000198101908111612ce7578110156137525761372d8961372283896133b9565b518a518a5191614860565b156137405761373b90612cfd565b6136ff565b60405163a8e7d40960e01b8152600490fd5b5093909491959792978151916000198301928311612ce7576116a261377d6137a7946137a1936133b9565b5192519285516000808d1360001461395857508b945b6101c0825192015192614895565b90615ad0565b1561394757608060e0850151015160206101208601510151511080613937575b613925576137d68251846142f1565b908161390d575b816138e7575b506138d5576137f39051826142f1565b9182613871575b5081613858575b5061384657600061381191615af1565b159081613832575b5061382057565b60405163442145e560e01b8152600490fd5b61383f9150600090615af1565b1538613819565b6040516303fa425960e21b8152600490fd5b61386a91506060815191015190615af1565b1538613801565b61010091925001515160208101908151906138a160406138976060840194855190612d30565b9201518092615bba565b159283156138b4575b50505090386137fa565b6138cc9350906138c49151612d30565b905190615bba565b153880806138aa565b60405163015f9ae760e41b8152600490fd5b61390691506101006138fc818701515161484e565b9151015190615bba565b15386137e3565b905061391e600060e0850151615af1565b15906137dd565b60405163ba555da760e01b8152600490fd5b5061394183614449565b156137c7565b604051621c56d560e31b8152600490fd5b94613793565b60405163935bdc2160e01b8152600490fd5b5060e082015161398c6020825192015160c08c51015190612d30565b106136db565b6040516302ded67360e51b8152600490fd5b506139ae81614449565b806139d4575b806139c0575b156136b4565b5060026139ce600085615af1565b146139ba565b5087156139b4565b6020919250600080516020615fa083398151915254169160446040518094819363131bac4760e11b835260048301523360248301525afa908115613a6557600091613a2b575b501538806136ac565b906020823d602011613a5d575b81613a4560209383612693565b810103126101565750613a57906126cc565b38613a22565b3d9150613a38565b6040513d6000823e3d90fd5b50505050945050505050565b60405163229a307760e21b8152600490fd5b50613aa36020610120860151015184614214565b1561368e565b60405163376a1ec760e11b8152600490fd5b604051630a6ad31160e21b8152600490fd5b506002613adc60008551615af1565b148061364e5750613aec836141e0565b61364e565b60405162558f1d60e91b8152600490fd5b6040516329a7bff360e11b8152600490fd5b1580159150613be6575b8015613b2b575b3861360b565b50613b40608082015160408301519088614393565b6000546040516370a0823160e01b815230600482015290602090829060249082906001600160a01b03165afa908115613a6557600091613bb2575b50613ba59164e8d4a51000613b9f9204808210600014613bab57505b600019615a02565b83615af1565b15613b25565b9050613b97565b906020823d602011613bde575b81613bcc60209383612693565b81010312610156575051613ba5613b7b565b3d9150613bbf565b506020610120820151015160808201516040830151848a0391600086128b84128116908c851390151617612ce757613c1d93614860565b613b1e565b808b60208093613c30612b61565b920101520161344d565b6001600160401b0381116126b65760051b60200190565b919082606091031261025257604051613c6b606082612693565b6040612bab8183958051855260208101516020860152016126cc565b9190613c91612b40565b5051613c9b612b40565b50600254604051630e0886f960e41b81526004810192909252606090829060249082906001600160a01b03165afa908115613a6557600091613d02575b50613ce281613d3b565b8092604082015115613cf2575050565b60e060c060209201510151910152565b60603d8111613d34575b613d168183612693565b810191606082840312610156575090613d2e91613c51565b38613cd8565b503d613d0c565b6003546001600160a01b03169081613d51575050565b6020016020815160246040518095819363d7c7a93560e01b835260048301525afa918215613a6557600092613d84575052565b90916020823d8211613dac575b81613d9e60209383612693565b810103126101565750519052565b3d9150613d91565b613dbc612bb0565b5060018154910154604051613dd2604082612693565b8160e01b60e01d81528160c81b60e81d602082015260405192613df761010085612693565b63ffffffff80821685528160201c16602085015265ffffffffffff808260401c166040860152808260701c1660608601528160a01c16608085015260d01c60a084015260c083015260881b60c01d60e082015290565b91909163ffffffff9081845111614017576020918285019281845111614017576040918287019260029365ffffffffffff9185613e8b848451615bba565b146140075760608a019086613ea1858451615bba565b146140075760808b019287613eb7868651615bba565b14613ff65787613ecc60a08e01968751615bba565b14613ff65760c08c019988613ee7637fffffff8d5151615af1565b14613fe557613efd637fffffff198c5151615af1565b15613fe55788613f14627fffff8a8e510151615af1565b14613fe557613f2b627fffff19898d510151615af1565b15613fe55760e08d0198613f46600180603f1b038b51615af1565b14613fe5578851613f609060016001603f1b031990615af1565b15613fe5578660019b9c9d51169063ffffffff60201b9051891b16179165ffffffffffff60401b9151901b16179065ffffffffffff60701b905160701b16179065ffffffffffff60a01b905160a01b1617905160d01b17955190815116918062ffffff60201b920151901b1617908360381b8460781b03905160381b16179281550155565b8251632142bc2760e01b8152600490fd5b8151632142bc2760e01b8152600490fd5b51632142bc2760e01b8152600490fd5b604051632142bc2760e01b8152600490fd5b815191604060208201519101516040830152602082015252565b919215908115614063575b5061405c5760800152600190565b5050600090565b905060808201519051103861404e565b61407b612c97565b50546040519061408c60a083612693565b63ffffffff908181168352818160201c1660208401528060801b60c01d604084015260018060401b038160801c16606084015260c01c16608082015290565b9063ffffffff808251116141ce5760208201818151116141ce576040908184019060026140ff600180603f1b038451615af1565b146141bd5781516141199060016001603f1b031990615af1565b156141bd576060850193600261413660018060401b038751615bba565b146141ac5760808601958187511161419b5751915192519451955160c01b63ffffffff60c01b1660809690961b600160801b600160c01b03169490931b600160401b600160801b031660209290921b63ffffffff60201b169216919091171717179055565b845163320f423b60e21b8152600490fd5b835163320f423b60e21b8152600490fd5b825163320f423b60e21b8152600490fd5b60405163320f423b60e21b8152600490fd5b60026141f160006020840151615af1565b149081156141fd575090565b6002915060006040614210920151615af1565b1490565b805115918291826142e4575b836142d7575b836142ca575b8315614286575b8315614240575b50505090565b60400151159250908261427e575b5081614271575b81614264575b5038808061423a565b602091500151153861425b565b6060810151159150614255565b91503861424e565b9250602083015115806142be575b806142b2575b806142a6575b92614233565b506060810151156142a0565b5060408101511561429a565b50604083015115614294565b604082015115935061422c565b6020820151159350614226565b6020810151159350614220565b906101a0810151159182614353575b8261430a57505090565b60208101511592509082614346575b8215614338575b50811561432b575090565b61433591506141e0565b90565b610160015115915038614320565b6040820151159250614319565b809250518015908115614385575b811561436f575b5091614300565b60029150600061437e91615af1565b1438614368565b610180830151159150614361565b6143b6906119e960406119e16143a98451615f6e565b6119e96020860151615f6e565b9081156144415761440b60206143ec6119c0936143e061014096620f424096879586940151615f6e565b04602087015190615b0e565b046101e085015180821160001461443a57505b61012085015190615b0e565b046101608301518082106000146144325750915b01518082111561442d575090565b905090565b90509161441f565b90506143ff565b505050600090565b61445f906119e960406119e16143a98451615f6e565b1590565b8151916020810151906060604082015191015160608401526040830152602082015252565b60c06000918260808201528260a08201520152565b6101008101519182519260208301916144b683516159d9565b9360208201946144c686516159d9565b9687820391600080991281841281169184139015161761136e578782820192831291129080158216911516176113825783526020830195865193604083019761450f89516159d9565b90604086019661451f88516159d9565b928584820394128185128116918513901516176145b4578483820193841291129080158216911516176111af5790604092915201946060865193019561456587516159d9565b90606086019461457586516159d9565b928584820394128185128116918513901516176145b4578483820193841291129080158216911516176111af5752519651945160809390930152525252565b634e487b7160e01b85526011600452602485fd5b906101008091015190820151916145dd612b40565b9180518451908181039060008093128183128116918313901516176133855784526020820151916020860151928284820394128185128116918513901516176133855760408091602087019485520151950151948186820396128187128116918713901516176133715760408401948552602083019361465d85516159d9565b9051908282820192831291129080158216911516176133855761467f90615b3b565b94604084019261468f84516159d9565b905190838282019283129112908015821691151617611f45576146b3606091615b3b565b9401916146c083516159d9565b91519181838201938412911290801582169115161761337157506146e390615b3b565b90525252565b60a06147169160808101614704815161010087015190612d30565b90520191610120835191015190612d30565b9052565b60206040820151606083015180821160001461443257509101518082111561442d575090565b61475a606061475260408401516159d9565b9201516159d9565b9060008282039212818312811691831390151617612ce75761433590615f6e565b90614785826147e9565b6000929061479557505050600090565b6147a260408201516159d9565b926147b060608301516159d9565b938185820395128186128116918613901516176133715750620f42406147e36116a26143359594612e5d6118bf956147e9565b92612cc4565b6060604082015191015180821160001461442d575090565b61482690614820614811826147e9565b916119e9602082015191614836565b90615b9f565b620f42408082101561442d575090565b6060604082015191015180821060001461442d575090565b614826906148206020820151916147e9565b6116a2906137a1929361433595600080821360001461488d5750945b6101e0602083015192015192614895565b90509461487c565b90916148a08261471a565b156127f4576020926148c86148b76148ce9461471a565b6119c0620f42409687940151615f6e565b04615b0e565b04908082111561442d575090565b6148e4612b61565b506001815491015490604051906148fc606083612693565b8260801b60c01d82528260401b60c01d60208301528260c01d60408301526040519261492a61012085612693565b63ffffffff8216845260018060401b0380911660208501528160801c1660408401528060c01c606084015265ffffffffffff90818160201c16608085015260501c1660a0830152600060c0830152600060e083015261010082015290565b9061499281614c60565b602081019060018060401b039160026149ac848351615bba565b14614a5e57604082019260026149c3828651615bba565b14614a5e57606083019060026149da828451615bba565b14614a5e5760019461010060409263ffffffff87511665ffffffffffff60201b608089015160201b161765ffffffffffff60501b60a089015160501b16178860801b8960c01b0380945160801b161794519551169501519486831b8760801b038651841b161790602086015160801b16179301519160c01b17845560c01b17910155565b6040516352a8a97f60e01b8152600490fd5b614a78612b61565b50805460019091015460016001603e1b03600282901c1691600382169181600084614b4b5750845b600060018603614b45575080945b600090600203614b3e57505b604090815195614acb606088612693565b60c0948060801b861d885280841b861d6020890152851d83880152825197614af56101208a612693565b63ffffffff85168952602089015282880152606087015265ffffffffffff808360201c1660808801528260501c1660a08701521b811d818501521d60e083015261010082015290565b9050614aba565b94614aae565b94614aa0565b614b5a82614c60565b600180603e1b03906002614b72836020860151615bba565b14614a5e5760408301916002614b89828551615bba565b14614a5e576002614b9f60608601928351615bba565b14614a5e576001925115600014614c585751614c515760005b925b604063ffffffff82511665ffffffffffff60201b608084015160201b161765ffffffffffff60501b60a084015160501b16178460801b8560c01b03908160c085015160801b161760e084015160c01b1795610100600487851b03614c1d8661471a565b60021b1694015193600387851b8860801b038651861b169216171790602084015160801b161791015160c01b179281550155565b6002614bb8565b508192614bba565b63ffffffff815111614a5e57600265ffffffffffff81614c84826080860151615bba565b14614a5e57614c98829160a0850151615bba565b14614a5e5760c0820190600180603f1b039281614cb6858551615af1565b14614a5e57915160016001603f1b03199290614cd3908490615af1565b15614a5e5760e0810182614ce8868351615af1565b14614a5e5783614cf89151615af1565b15614a5e57610100019281614d0f82865151615af1565b14614a5e57614d2083855151615af1565b15614a5e5781614d3582602087510151615af1565b14614a5e57614d4983602086510151615af1565b15614a5e57614d5d90604085510151615af1565b14614a5e576040614d7092510151615af1565b15614a5e57565b9593949297969060405198614d8e6102008b612693565b60008a52600060208b0152600060408b0152600060608b0152600060808b0152600060a08b0152600060c08b0152600060e08b015260006101008b015260006101208b015260006101408b015260006101608b015260006101808b015260006101a08b015260006101c08b015260006101e08b015289604086015115158952614e198783878c615716565b919082602083015281526101a088015161570857505060c0614e39612927565b920151614e526101a0850151926102008601519061477b565b8851928751620f4240614e6d8c6119c060206119e18d6157b1565b0484614ea8614e97620f42406118bf8a614e9283614e9260208951990151938b6133ac565b612cc4565b6118bf620f42406147e388516159d9565b8080830112801560008412169060008412151617612ce757614eed614ece828401615ab0565b6020870151614ede848601615f6e565b80821015615700575090615a02565b94614f00614efb8a876133ac565b615b5e565b90828401848103818112600087129081169290911390151617612ce7576002614f376020614f2d87615f6e565b9301518093615bba565b036156bf57506000925b828101810361564d575050505081620f4240810204620f42401482151715612ce757620f42408202955b855190848083011260008312908015821691151617612ce75780620f4240810204620f42401481151715612ce7578288614fc29387620f4240614fb095029101615bcb565b6118bf620f42406147e3816002612cc4565b9582620f4240810204620f42401483151715612ce757620f4240614fe893029084615bcb565b92848085011260008512908015821691151617612ce75761506b94614fb094620f42409460208461505f9661505796520152818101916102408a0151151580615626575b615601575b5050615047846118bf83614e9283600019612cc4565b8160408901526020880152615f6e565b895190615b0e565b048060608501526159d9565b9060208101519061507f60608201516159d9565b90600082128383810312811690848481031390151617612ce75783808385030112600083850312908015821691151617612ce757604081015180858103126000861216818681031360008712151617612ce75784808b948a968a98850360408701520301602084015260026150fd6040880151606089015190615bba565b146155b2575b50508b8a600261511c6060880151604089015190615bba565b1461555d575b651cae8c13e000956119c0614efb620f4240976151fc615202986152089c9860408c9961518c60608b61516460206148c89e01518d6020895191015191615923565b61517b858201518d8760208a015191015191615923565b01518385015160608c015191615923565b82519260208101519060608482015191015160a08401526080830152606082015201526151f2610180896151e86151cc60408b015160608c015190612d30565b60208b01518082101561555657505b6119c06020870151615f6e565b049a015196614801565b9051925195615c50565b936133ac565b04615b80565b620f424061521a602086015183615b0e565b04615224836147e9565b61552e57615231826159d9565b9061523b836159d9565b92600083128484810312811690858581031390151617612ce757620f42406118bf61526c6116a28561529a956133ac565b95615286836118bf61528082600019612cc4565b89612cc4565b9561529384600019612cc4565b9103612cc4565b906152af60208a015185602088015191615923565b6152c360408a015184604088015191615923565b6152d760608a015183606088015191615923565b6101208b01526101008a015260e089015260c08801526020820151602085015190600082128183810312811690828481031390151617612ce7576118bf620f424091615346936152936153336020880151606089015190612d30565b60408801518082101561552757506159d9565b6020850151602084015190600082128183810312811690828481031390151617612ce7576118bf620f42409161539f9361529361538c602089015160408a015190612d30565b60608901518082101561552757506159d9565b90818082011260008212908015821691151617612ce7576153d4620f42406118bf6153cc82600019612cc4565b858501612cc4565b916153e9604089015183604087015191615923565b6153fd606089015182606087015191615923565b615411602089015184602087015191615923565b6101808a015261016089015261014088015260009461543b614efb600096600095519051906133ac565b9360208301516154f8575b60408301516154c8575b6060830151615493575b50505090506101e08501526101c08401526101a0830152614335615487602084015160a085015190612d30565b61012084015190612d30565b6154bf9350620f42406154b060c096610120606094015190615b0e565b049485920151920151916159c2565b8038808061545a565b9450620f42406154dd61010087015186615b0e565b04946154f360a0830151876040860151916159c2565b615450565b9550620f424061550c60e088015186615b0e565b04956155226080830151886020860151916159c2565b615446565b90506159d9565b6152316116a2604085015161555161554a606088015183612d30565b9186615b0e565b615b76565b90506151db565b50509250505061557e620f42406118bf6020840151611e316116a288615776565b8082526020820151600082128183810312811690828481031390151617612ce7570360208201528290849087908b8a615122565b6155cd9450620f424093506152936116a26118bf9497615776565b8082526040820151600082128183810312811690828481031390151617612ce7578492869289920360408201523880615103565b61561f925085916118bf9161561884600019612cc4565b9101612cc4565b3880615031565b508a615646615641600061563b858701615ab0565b9361477b565b615ab0565b141561502c565b89620f4240810204620f4240148a151715612ce75761568a936156798261567f95615551940103615f6e565b92615b0e565b620f42408802612d30565b82620f4240810204620f42401483151715612ce757620f424083028110156156b3575b95614f6b565b50620f424082026156ad565b6156d5906156d08585810103615ab0565b615a02565b80848103126000851216818581031360008612151617612ce757836156fa9103615f6e565b92614f41565b905090615a02565b9a5098975050505050505050565b939192906020019081511561576757906020615750620f424061574760806040615765970151980197885190615b0e565b048096516133ac565b9501519061575d866159d9565b905191615923565b565b50509150608001519060009190565b61577f816157b1565b6157895750600090565b806157ab6157a561579c614335946157b1565b6135cb84614836565b916157b1565b90615b80565b6157d26157bd826147e9565b9160206157c982614836565b91015190612d30565b8082101561442d575090565b6157e6612c07565b5060018154910154604080516020916157ff8383612693565b8460b81b60c01d825280516158148482612693565b8560781b60c01d815281519161582a8584612693565b8660381b60c01d83528051936158408686612693565b6001600160401b0387811686528251969061585b8289612693565b8089851c16885283519861586f838b612693565b60801c16885260ff83519961588560e08c612693565b16151589528801528601526060850152608084015260a083015260c082015290565b519051808203929160009091128015828513169184121617612ce7576000196158cf83615ab0565b0361590f5761433591611e316158e4926159d9565b611e316158f082615ab0565b61590a615904620f424092611e3184615ab0565b93615f6e565b615a61565b6118bf61433592611e31620f4240936159d9565b909182156159bd5781519261593781615ab0565b9160001983036159a2576117ea6117ea61595361595d936159d9565b94611e3186615ab0565b91620f424090818102918183041490151715612ce7576159869261598091615a61565b90615a02565b915b60008382019384129112908015821691151617612ce75752565b6159b79250620f42406147e36118bf926159d9565b91615988565b505050565b919080156159bd576119e961471692845192615b80565b6001600160ff1b0381116159ea5790565b6024906040519063eecaa25d60e01b82526004820152fd5b60008113615a2657600013615a175750600090565b615a20906159d9565b60000390565b50614335906159d9565b8115615a4b57600160ff1b8114600019831416612ce7570590565b634e487b7160e01b600052601260045260246000fd5b908015615a9e5760009180615a7857505050600090565b6000198101908111611f455790615a8e91615b76565b9060018201809211613371575090565b6040516323d359a360e01b8152600490fd5b60008113615aca57600013615ac457600090565b60001990565b50600190565b90615ada91615af1565b60028114908115615ae9575090565b600191501490565b818113615b075712615b0257600190565b600090565b5050600290565b81810292918115918404141715612ce757565b64e8d4a5100090818102918183041490151715612ce75790565b60008112615b465790565b6024906040519063b02ef08760e01b82526004820152fd5b620f424090818102918183041490151715612ce75790565b8115615a4b570490565b90620f424091828102928184041490151715612ce75761433591615b76565b9080615bb15750615ac457620f424090565b61433591615b80565b818111615b075710615b0257600190565b6118bf916118bf61433595611e31615bf86116a2976118bf615bfe97611e31620f42409b8c998a956133ac565b916159d9565b916147e3816301e13380612cc4565b60405163a9059cbb60e01b60208201526001600160a01b039283166024820152604480820194909452928352615765929190615c4a606484612693565b16615d82565b90606082018051615c618184615bba565b15615c9d5750620f424090615c768284615bba565b15615c85575050506020015190565b90614335939151916020604082015191015192615cae565b839150604061433594519201519160005b90615cbf615cc591959394956159d9565b946159d9565b92615cd08284615bba565b158015615d54575b615d425781615ce6916133ac565b90848403926000948587128186128116918613901516176145b45792611e316116a2620f424094615d1d6118bf95615d22986133ac565b615b80565b818382019384129112908015821691151617613371575061433590615b3b565b604051634a83a53f60e01b8152600490fd5b506002615d618285615bba565b14615cd8565b6001600160401b0381116126b657601f01601f191660200190565b60209190615e0c906001600160a01b0316615d9c84615d67565b90615daa6040519283612693565b8482527f5361666545524332303a206c6f772d6c6576656c2063616c6c206661696c6564858301526000808587829751910182855af13d15615e96573d91615df183615d67565b92615dff6040519485612693565b83523d868885013e615e9a565b90815180615e1b575b50505050565b82849181010312610156575081615e3291016126cc565b15615e3f57808080615e15565b6084906040519062461bcd60e51b82526004820152602a60248201527f5361666545524332303a204552433230206f7065726174696f6e20646964206e6044820152691bdd081cdd58d8d9595960b21b6064820152fd5b6060915b91929015615efc5750815115615eae575090565b3b15615eb75790565b60405162461bcd60e51b815260206004820152601d60248201527f416464726573733a2063616c6c20746f206e6f6e2d636f6e74726163740000006044820152606490fd5b825190915015615f0f5750805190602001fd5b6040519062461bcd60e51b82528160208060048301528251908160248401526000935b828510615f55575050604492506000838284010152601f80199101168101030190fd5b8481018201518686016044015293810193859350615f32565b6000808212615f7b575090565b039056fea9c835c21e93a672e5a6ef8ca0374f90b7d4378f7eec5769dcf22fdefd60ffae0aec74a1754fb10877b53c31a29be82096082042eb1fb374ec96fac88c0e621ba26469706673582212204116ca600725adb9232f0b2a1a1ffef7bd1308aa15c58b6f8225ee46cd0fa9a964736f6c63430008130033",
  "deployedBytecode": "0x6080604052600436101561001257600080fd5b6000803560e01c806309218e91146124cd5780630a009097146124a45780630aaffd2a146123de578063228cb733146123b557806338af3eed1461238c5780634549a6291461230257806355f57510146122bb5780635b4b969514612244578063632447c9146121485780637dc0d1d01461211f57806387aee00e1461209f57806391eece2814610e8157806395fcd83614610e5857806399d32fc414610cdc578063a05f990614610c5b578063a1d0a11314610c27578063ad4d4e2914610b82578063b329230e146107a3578063b88a802f14610712578063b9bcc3bd146104c8578063c45a015514610492578063ce813aed146103be578063d26b3e2614610257578063f9f94e34146101595763fc0c546a1461013057600080fd5b34610156578060031936011261015657546040516001600160a01b039091168152602090f35b80fd5b5034610156576020366003190112610156576004356001600160a01b0381811691829003610252576004602082600080516020615fa0833981519152541660405192838092638da5cb5b60e01b82525afa908115610247578491610219575b5016330361020157600580546001600160a01b031916821790556040519081527fc258faa9a17ddfdf4130b4acff63a289202e7d5f9e42f366add65368575486bc90602090a180f35b604051634d193d1f60e01b8152336004820152602490fd5b61023a915060203d8111610240575b6102328183612693565b8101906126d9565b386101b8565b503d610228565b6040513d86823e3d90fd5b600080fd5b5034610156576060366003190112610156577f6fee9688c285c5c5c97d6a1a29adced674e6b2ad0888b8ad2116b58a8b3ea2486001815410156103a55760019055303b15158061039e575b6103855733600080516020615fa083398151915255303b151580610397575b610385576001600080516020615f80833981519152556001600160a01b036004358181169081900361037d5782546001600160a01b03199081169091178355602435828116908190036103815781600254161760025560443591821680920361037d576003541617600355807f2801b00eb06461cf9fcb9758b5fafd884ff06a86177386f73b6c49f0bf5a5af0557fbe9b076dc5b65990cca9dd9d7366682482e7817a6f6bc7f4faf4dc32af497f32602060405160018152a180f35b8280fd5b8380fd5b60405163b9a621e160e01b8152600490fd5b50806102c1565b50806102a2565b604051631edb9c6d60e11b815260016004820152602490fd5b5034610156576040366003190112610156576004356001600160a01b03811691908290036102525760406104119161048e936103f8612b61565b5081526012602052818120602435825260205220614a70565b60405191829182919091610140604061016083019480518452602081015160208501528181015182850152606081015160608501526080810151608085015260a081015160a085015260c081015160c085015260e081015160e0850152610100809101519081519085015260208101516101208501520151910152565b0390f35b5034610156578060031936011261015657600080516020615fa0833981519152546040516001600160a01b039091168152602090f35b5034610156576101c08060031936011261070e57604051906104ea8183612693565b6004358252602435602083015260443560408301526064356060830152608435608083015260a43560a083015260c43560c083015260e43560e083015261010435610100830152610124356101208301526101443561014083015261016435801515810361025257610160830152610184358015158103610252576101808301526101a4358015158103610252576101a0830152600080516020615fa083398151915254604051638da5cb5b60e01b81526001600160a01b039182169190602081600481865afa801561070357829187916106e5575b5016330361020157849160049160e073__$c5b758809b18b7c9fcabb156ae018568b0$__926040519485809263ad4d4e29851b82525afa9283156102475784936106b4575b506001541691813b15610381576102e461064c91859360405195869485936310317ba160e11b855260096004860152610641602486018d612600565b6101e4850190612754565b6102c48301525af480156106a957610694575b50507ff12be1637c87b6840bce6a43024d842fdde312893b5711402d511dc296b61fc6916106906040518092612600565ba180f35b8161069e91612693565b61037d57823861065f565b6040513d84823e3d90fd5b6106d791935060e03d60e0116106de575b6106cf8183612693565b8101906126f8565b9138610605565b503d6106c5565b6106fd915060203d8111610240576102328183612693565b386105c0565b6040513d88823e3d90fd5b5080fd5b503461015657806003193601126101565733815260106020526107a061073a60408320614073565b8260018060a01b036001541661076060608401916107588351615b21565b903390615c0d565b80516040519081527f106f923f993c2149d49b4255ff723acafa1f2d94393f561d3eda32ae348f724160203392a2523383526010602052604083206140cb565b80f35b5034610156576102e0366003190112610156576040516107c561026082612693565b6004358152602435602082015260443560408201526064356060820152608435608082015260a43560a082015260c43560c082015260e43560e08201526101043561010082015261012435610120820152610144356101408201526101643561016082015260806101831936011261070e57604051610845608082612693565b6101843581526101a43560208201526101c43560408201526101e435606082015261018082015260406102031936011261070e57604051610887604082612693565b6102043581526102243560208201526101a0820152610244356101c0820152610264356101e0820152610284356102008201526102a4356102208201526102c43515156102c43503610252576102c4356102408201526005546001600160a01b031633141580610b04575b610af257600080516020615fa08339815191525460405163ad4d4e2960e01b8152839160e090829060049082906001600160a01b03165afa9081156106a9578291610ad3575b5073__$f0b9cef6bb3cbdd03cb6172b8c4e9f952f$__3b1561070e57610a5f604051916302903c7960e21b83526006600484015284516024840152602085015160448401526040850151606484015260608501516084840152608085015160a484015260a085015160c484015260c085015160e484015260e08501516101048401526101008501516101248401526101208501516101448401526101408501516101648401526101608501516101848401526109fe6101808601516101a48501906124f4565b60206101a0860151805161022486015201516102448401526101c08501516102648401526101e08501516102848401526102008501516102a48401526102208501516102c484015261024085015115156102e4840152610304830190612754565b81816103e48173__$f0b9cef6bb3cbdd03cb6172b8c4e9f952f$__5af480156106a957610abe575b506040517f823c5e592916c45a8b43a655f22eb029f79dfd3c63f6d122df594aaf83e09b029080610ab88582612517565b0390a180f35b81610ac891612693565b61070e578138610a87565b610aec915060e03d60e0116106de576106cf8183612693565b38610938565b604051639bca062560e01b8152600490fd5b50600080516020615fa083398151915254604051638da5cb5b60e01b815290602090829060049082906001600160a01b03165afa908115610b77578391610b58575b506001600160a01b03163314156108f2565b610b71915060203d602011610240576102328183612693565b38610b46565b6040513d85823e3d90fd5b5034610156578060031936011261015657610b9b6127fd565b506040516338ecab9f60e21b8152600960048201526101c09190828160248173__$c5b758809b18b7c9fcabb156ae018568b0$__5af4918215610c1b5791610bee575b50610bec6040518092612600565bf35b610c0e9150823d8411610c14575b610c068183612693565b810190612868565b38610bde565b503d610bfc565b604051903d90823e3d90fd5b503461015657602036600319011261015657610411604061048e92610c4a612b61565b506004358152600f602052206148dc565b5034610156578060031936011261015657610c74612bb0565b50610120610c82600b613db4565b60e060405191805183526020810151602084015260408101516040840152606081015160608401526080810151608084015260a081015160a0840152602060c0820151805160c08601520151828401520151610100820152f35b5034610156578060031936011261015657610cf7600b613db4565b600080516020615fa08339815191528054604051638da5cb5b60e01b81526001600160a01b0393928592602092908390829060049082908a165afa80156102475760049285889286948291610e3b575b50610d5860408a0191825190612795565b610e33575b5050541660405192838092630c7f7fb960e41b82525afa918215610b77578392610df8575b505092816107a094610d9c60608601918483519116612795565b610df0575b508160055416610db76080860191825190612795565b610de8575b505060045416610dd260a0840191825190612795565b610de0575b5050600b613e4d565b528238610dd7565b528138610dbc565b528138610da1565b90809250813d8311610e2c575b610e0f8183612693565b8101031261070e575192808416840361070e5792816107a0610d82565b503d610e05565b528538610d5d565b610e529150853d8711610240576102328183612693565b38610d47565b50346101565780600319360112610156576003546040516001600160a01b039091168152602090f35b50346101565760c0366003190112610156576004356001600160a01b03811690036101565760a435151560a43503610156576002600080516020615f80833981519152541461208d576002600080516020615f8083398151915255600080516020615fa083398151915254604051635c975abb60e01b81526001600160a01b0390911690602081600481855afa908115610b77578391612053575b5061204157600460e060405192610f3561014085612693565b604051610f428382612693565b8581528560208201528560408201528560608201528560808201528560a08201528560c08201528452610f736127fd565b6020850152610f8061294e565b6040850152846060850152610f93612b40565b6080850152610fa0612b40565b60a0850152610fad612bb0565b60c0850152610fba612c97565b82850152610fc6612d0c565b610100850152610fd4612d0c565b6101208501526040519283809263ad4d4e29851b82525afa908115610b77578391612022575b5081526040516338ecab9f60e21b8152600960048201526101c08160248173__$c5b758809b18b7c9fcabb156ae018568b0$__5af4908115610b77578391612001575b506020820152604051635da3780d60e01b8152600660048201526102e08160248173__$f0b9cef6bb3cbdd03cb6172b8c4e9f952f$__5af4908115610b77578391611fd0575b506040820152611093600b613db4565b60c08201526004356001600160a01b031682526010602052604082206110b890614073565b60e08201526110c5612b40565b50600254604051631006976960e11b815290608090829060049082906001600160a01b03165afa8015610b775783918491611f8e575b5061110582613d3b565b6060830152608082015261112261111c600d6148dc565b82613c87565b60a0820152611131600d6148dc565b610120820151526004356001600160a01b0316825260116020526040822061115890614a70565b6020610120830151015261116a612b61565b905b60c081015160208151910151809114159081611f59575b50156111c357602060c082015101516001810181116111af578260016111aa920183612d3d565b61116c565b634e487b7160e01b84526011600452602484fd5b91905b60e083015160208151910151141580611ef4575b156113aa576004356001600160a01b0316825260126020908152604080842060e08681015184015186529252832061121190614a70565b015192602060e082015101516001810181116111af57826001611238920160043584613114565b60018060a01b03600435168352601260205260408320602060e08301510151845260205261126860408420614a70565b60018060a01b0360043516845260126020526040842060e083015151855260205261129560408520614a70565b9460e06040818501510151960151958582128783810312811690888481031390151617611396578187038681128015918303838113929092169183131617611396576112e460808601516159d9565b90828803810387811280159184018413918216911516176113825761130c60a08701516159d9565b9280890382038301888112801591860186139182169115161761136e5761136795969798039003010160c082015260018060a01b03600435168552601260205260408520602060e08501510151865260205260408520614b51565b91906111c6565b634e487b7160e01b88526011600452602488fd5b634e487b7160e01b87526011600452602487fd5b634e487b7160e01b86526011600452602486fd5b50608082015151610120830151515110611ea4575b608082015151602061012084015101515110611e3d575b60e060c083015101516020608084015101526113f961012083015151600d614988565b6004356001600160a01b0316815260116020908152604082206101208401519091015161142591614b51565b6044359160243560843560643561143a612d0c565b60c0850151518652600f602052611453604087206148dc565b815260018060a01b0360043516865260126020526040862060e08601515187526020526114e661010061148860408920614a70565b602084019081526114a184516101208a015151906145c8565b6114b6815160206101208b01510151906145c8565b6114ce8285510151836101208b015151015190614029565b51015161010060206101208901510151015190614029565b61010085015260016114fc600160ff1b84615af1565b14611e0f575b600161151060001985615bba565b14611dfa575b600161152460001988615bba565b14611de5575b600161153860001983615bba565b14611dd1575b6060840151602061010086015101515110611da9575b6060840151610100850151515110611d84575b60206101008501510151956060850151604051976115876101408a612693565b8789528760208a01528760408a01528760608a01528760808a01528760a08a01528760c08a01528760e08a0152876101008a0152876101208a01526115cb866159d9565b6115d860208301516159d9565b908982128183810312811690828481031390151617611d70576115fa856159d9565b61160760408501516159d9565b908b82128183810312811690828481031390151617611d0357611629886159d9565b61163660608701516159d9565b908d82128183810312811690828481031390151617611d48578e91604091039101520360208c0152038952836060820152826040820152856020820152526101008501515160608601519061020060408801510161169581518361477b565b926116a76116a284614740565b6159d9565b6116b36116a28561484e565b8c60c06116c26116a288614801565b91015260e08d015260608c01526116dc60208401516159d9565b8b519081808201128c8212908015821691151617611d03576116fe9101615b3b565b61170b60408501516159d9565b60208d01519081808201128d8212908015821691151617611d5c576117309101615b3b565b8c604061174060608801516159d9565b910151908d8280830112908212908015821691151617611d48576117649101615b3b565b60608601526040850152602084015282526117816116a283614740565b9160608b0151938a85128486810312811690858781031390151617611d20576117ab83518361477b565b8b82128183810312811690828481031390151617611d03576116a26117ea6116a26117e56117dd866117f09603615f6e565b97518761477b565b615f6e565b92615f6e565b918b83128284810312811690838581031390151617611d03578c60e06118186116a28461484e565b910151918d83128284810312811690838581031390151617611d48578e60c08f926116a261184591614801565b9101519182128183810312811690828481031390151617611d34578f9160c091039101520360e08d01520360a08b015260808a01520360608801526080850151602086015190604087015161189d60a08201516159d9565b6118c4620f42406118bf8d60c06118b6818801516159d9565b91015190612cc4565b615a30565b9081808201128b8212908015821691151617611d2057908b918b82820113600014611d175701915b61191a620f424061191461190360408501516159d9565b946080606086015191015190615b0e565b046159d9565b9081808401128c8412908015821691151617611d0357620f42406118bf8e60a06118b6608061194a9601516159d9565b91828083830101128c83830112908015821691151617611d03576119c0620f42406119c68f96978f6119ef846119cd6119fd9c6119c0836119c68f9c829f6119f69f906119b3916020938c6119c09d5080848484010113600014611cf9575001019e5b51615f6e565b9901986119c08a51615f6e565b90615b0e565b0491615b3b565b04996119e960406119e16020840151615f6e565b920151615f6e565b90612d30565b9151615f6e565b0490612d30565b6101a082015115611cf45750865b610100890152611a1a88614449565b15611cea5750855b610120880152611a3b87602061010088015101516146e9565b611a4b87610100870151516146e9565b604060e0860151018051848082011288821290801582169115161761136e578401905260e060206101008701510151018051848082011288821290801582169115161761136e5784019052611ab860e0860151602061012088015101519060a43591606089015191614043565b611ac188614449565b15611c6f575b611ada9084611bde9899600435896133e3565b60c0850151518752600f602052611afb604088206101008701515190614988565b6004356001600160a01b0316875260126020908152604080892060e0880151518a528252882061010087015190910151611b3491614b51565b611b3d83615ab0565b60018114611c18575b60001914611bf3575b606085015193604051948552602085015260408401526060830152608082015260a435151560a082015260018060a01b0360043516907f29083474b417ce11b6e16e049302e231f5d3d753484fe3e8155ea0b7ffe4f3c160c03392a3611bba60c0820151600b613e4d565b6004356001600160a01b0316835260106020526040832060e09190910151906140cb565b6001600080516020615f808339815191525580f35b8654611c13906001600160a01b0316610758611c0e86615f6e565b615b21565b611b4f565b8754611c6a906001600160a01b0316611c33611c0e87615f6e565b90604051916323b872dd60e01b6020840152336024840152306044840152606483015260648252611c65608483612693565b615d82565b611b46565b6002546001600160a01b0316803b15611ce6576040516313e3c62160e11b8152600480356001600160a01b0316908201529088908290602490829084905af18015611cdb57611cbf575b50611ac7565b908488611cd2611bde9a611ada95612693565b98505090611cb9565b6040513d8a823e3d90fd5b8780fd5b6101400151611a22565b611a0b565b925050509e6119ad565b634e487b7160e01b8c52601160045260248cfd5b505089916118ec565b634e487b7160e01b8b52601160045260248bfd5b634e487b7160e01b8f52601160045260248ffd5b634e487b7160e01b8e52601160045260248efd5b634e487b7160e01b8d52601160045260248dfd5b634e487b7160e01b8a52601160045260248afd5b60c0840151611d938151612cfd565b9052611da461010085015151614488565b611567565b60e0840151611db88151612cfd565b9052611dcc60206101008601510151614488565b611554565b50606060206101008501510151015161153e565b6101008401516020015160400151955061152a565b91506020806101008501510151015191611516565b9050611e37604060e085015101516118bf620f424091611e3183600019612cc4565b90612cc4565b90611502565b60018060a01b03600435168152601260205260408120602060e084015101518252602052611e9f611e7060408320614a70565b611e8d608085015182905190600060a08201526000608082015252565b602060e0850151015160043585613114565b6113d6565b602060c083015101518152600f602052611eef611ec3604083206148dc565b611ee0608085015182905190600060a08201526000608082015252565b602060c0850151015184612d3d565b6113bf565b50506004356001600160a01b03168152601260209081526040822060e084015190910151600181018111611f45576001018252602052611f3660408220614a70565b608083015151815111156111da565b634e487b7160e01b83526011600452602483fd5b91925050600181018111611f45576001018252600f602052611f7d604083206148dc565b906080810151518251111538611183565b91505060803d608011611fc9575b611fa68183612693565b608082828101031261038157611fc0606091830183613c51565b910151386110fb565b503d611f9c565b611ff491506102e03d6102e011611ffa575b611fec8183612693565b8101906129f9565b38611083565b503d611fe2565b61201c91506101c03d6101c011610c1457610c068183612693565b3861103d565b61203b915060e03d60e0116106de576106cf8183612693565b38610ffa565b604051634b94d2bb60e01b8152600490fd5b90506020813d602011612085575b8161206e60209383612693565b8101031261037d5761207f906126cc565b38610f1c565b3d9150612061565b6040516345f6780960e11b8152600490fd5b5034610156576020366003190112610156576120d2604060e0926120c1612c07565b5060043581526013602052206157de565b60c060405191805115158352602081015151602084015260408101515160408401526060810151516060840152608081015151608084015260a08101515160a084015201515160c0820152f35b50346101565780600319360112610156576002546040516001600160a01b039091168152602090f35b5034610156576020366003190112610156576004356001600160a01b038181169182900361037d576004602082600080516020615fa0833981519152541660405192838092638da5cb5b60e01b82525afa80156102475782918591612226575b501633036102015760015490808216612214578354168214612202576001600160a01b03191681176001556040519081527ff0f334a92951c3f240a6d627261c6a075ab711edba3ce91573923831cbe4d4d190602090a180f35b60405163037df82360e11b8152600490fd5b60405163473b50fd60e01b8152600490fd5b61223e915060203d8111610240576102328183612693565b386121a8565b5034610156576020366003190112610156576004356001600160a01b0381169081900361070e57604060a09261228a9261227c612c97565b508152601060205220614073565b6080604051918051835260208101516020840152604081015160408401526060810151606084015201516080820152f35b5034610156576020366003190112610156576004356001600160a01b0381169081900361070e57604061048e92610411926122f4612b61565b508152601160205220614a70565b503461015657806003193601126101565761231b61294e565b50604051635da3780d60e01b8152600660048201526102e090818160248173__$f0b9cef6bb3cbdd03cb6172b8c4e9f952f$__5af4918215610b775761048e939261236f575b505060405191829182612517565b6123859250803d10611ffa57611fec8183612693565b3880612361565b50346101565780600319360112610156576004546040516001600160a01b039091168152602090f35b50346101565780600319360112610156576001546040516001600160a01b039091168152602090f35b5034610156576020366003190112610156576004356001600160a01b038181169182900361037d576004602082600080516020615fa0833981519152541660405192838092638da5cb5b60e01b82525afa908115610247578491612486575b5016330361020157600480546001600160a01b031916821790556040519081527feee59a71c694e68368a1cb0d135c448051bbfb12289e6c2223b0ceb100c2321d90602090a180f35b61249e915060203d8111610240576102328183612693565b3861243d565b50346101565780600319360112610156576005546040516001600160a01b039091168152602090f35b50346101565780600319360112610156576124e6612b61565b5061048e610411600d6148dc565b606080918051845260208101516020850152604081015160408501520151910152565b9190916102c06102e0820193805183526020810151602084015260408101516040840152606081015160608401526080810151608084015260a081015160a084015260c081015160c084015260e081015160e084015261010080820151908401526101208082015190840152610140808201519084015261016080820151908401526125ac61018080830151908501906124f4565b6101a08101519060208251926102009384870152015161022090818601526101c08201519261024093848701526101e08301516102608701528201516102808601528101516102a085015201511515910152565b805182526020810151602083015260408101516040830152606081015160608301526080810151608083015260a081015160a083015260c081015160c083015260e081015160e083015261010080820151908301526101208082015190830152610140808201519083015261016080820151151590830152610180808201511515908301526101a0809101511515910152565b601f909101601f19168101906001600160401b038211908210176126b657604052565b634e487b7160e01b600052604160045260246000fd5b5190811515820361025257565b9081602091031261025257516001600160a01b03811681036102525790565b908160e09103126102525760c06040519161271460e084612693565b805183526020810151602084015260408101516040840152606081015160608401526080810151608084015260a081015160a0840152015160c082015290565b60c08091805184526020810151602085015260408101516040850152606081015160608501526080810151608085015260a081015160a08501520151910152565b6001600160a01b0381811692909190338490036127f4576127e86020927f20ca5094f3a20c321cbe4123d0f01b276b81df0fa24cd4d83d9253956035d8639460005416906127e284615b21565b91615c0d565b604051908152a2600190565b50505050600090565b6040519061280d6101c083612693565b816101a06000918281528260208201528260408201528260608201528260808201528260a08201528260c08201528260e082015282610100820152826101208201528261014082015282610160820152826101808201520152565b80916101c09283910312610252576128836040519283612693565b805182526020810151602083015260408101516040830152606081015160608301526080810151608083015260a081015160a083015260c081015160c083015260e081015160e08301526101008082015190830152610120808201519083015261014080820151908301526101606128fc8183016126cc565b9083015261018061290e8183016126cc565b908301526129206101a08092016126cc565b9082015290565b60405190612936608083612693565b60006060838281528260208201528260408201520152565b6040519061295e61026083612693565b816102406000918281528260208201528260408201528260608201528260808201528260a08201528260c08201528260e0820152826101008201528261012082015282610140820152826101608201526129b6612927565b6101808201526040516129ca604082612693565b8381528360208201526101a0820152826101c0820152826101e082015282610200820152826102208201520152565b8091036102e0811261025257604080519261026090612a188286612693565b80518552602081015160208601528281015183860152606081015160608601526080810151608086015260a081015160a086015260c081015160c086015260e081015160e08601526101008082015190860152610120808201519086015261014080820151908601526101608082015190860152608061017f1985011261025257825193612aa7608086612693565b61018093848301518652806101a0928385015160208901526101c09788860151838201526101e0978887015160608301528a01526101ff19011261025257612920946102c094612af983519384612693565b61020092838601518152610220948587015160208301528a01526102409788860151908a015284015190880152610280830151908701526102a082015190860152016126cc565b60405190612b4f606083612693565b60006040838281528260208201520152565b60405190612b7161012083612693565b8160008082528060208301528060408301528060608301528060808301528060a08301528060c083015260e0820152610100612bab612b40565b910152565b60405190612bc061010083612693565b8160e06000918281528260208201528260408201528260608201528260808201528260a0820152604051612bf5604082612693565b83815283602082015260c08201520152565b604090815191612c1860e084612693565b60c0836000808252612c91845194602095612c338782612693565b838152868501528051612c468782612693565b838152818501528051612c598782612693565b83815260608501528051612c6d8782612693565b83815260808501528051612c818782612693565b83815260a0850152519485612693565b83520152565b60405190612ca660a083612693565b60006080838281528260208201528260408201528260608201520152565b818102929160008212600160ff1b821416612ce7578184051490151715612ce757565b634e487b7160e01b600052601160045260246000fd5b6000198114612ce75760010190565b60405190612d1b604083612693565b81612d24612b61565b81526020612bab612b61565b91908201809211612ce757565b9091610120820190612d51825151826145c8565b815151516000526013602052612d6a60406000206157de565b91612d758285613c87565b90604082015115613103575b8051519160a083519685612dbf612db58960c08501518760208201519a86898901519160208a01519460408b015196614d77565b9290965151614463565b60c082015160e06020860151918c60208201520152612e7e8360c08401516080828b0151612e626020880151612e3c612e09620f4240612e018c51518c615b0e565b04809a6133ac565b612e37620f4240612e2e81612e22606088015186615b0e565b04988996015184615b0e565b049687926133ac565b6133ac565b97612e4c60408701918251612d30565b9052612e5d60608601938451612d30565b612d30565b9052612e7360808301918251612d30565b905201918251612d30565b90520152825160005260136020526040600020926002600180603f1b0381612eab8260208a015151615af1565b146130f15760208701515160016001603f1b03199190612ecc908390615af1565b156130f15782612ee18260408b015151615af1565b146130f157612ef58260408a015151615af1565b156130f157612f0a839160608a015151615af1565b146130f157612f1e90606088015151615af1565b156130f1576080860151518190612f3d906001600160401b0390615bba565b146130f15760a0860151518190612f5c906001600160401b0390615bba565b146130f15760c086015151612f79906001600160401b0390615bba565b146130f157846001610240957fd67bab6cdd205804bd5c55f9eebe24e2d16bcd12950b9fab152e727ae331f732975115156000146130ea57815b6101008360481b0360208501515160081b1660ff8460481b8560881b0360408701515160481b16921617178260881b8360c81b0360608501515160881b161792828060401b03608082015151168360401b8460801b0360a08301515160401b16179060c08460801b85821b039101515160801b1617928155015551956040519283526020830152805160408301526020810151606083015260408101516080830152606081015160a0830152608081015160c083015260a081015160e083015260c0810151610100908184015260e0820151610120840152810151906101409182840152610120810151916101609283850152810151916101809283850152810151916101a09283850152810151916101c09283850152810151916101e092838501528101516102008401520151610220820152a3565b6000612fb3565b60405163693bbf3960e11b8152600490fd5b61310f8382515161449d565b612d81565b919061012083019360209461312d8682510151836145c8565b81519060009182526013875260406131468184206157de565b95865115613399575b88835101519060e08251990151958a8701948551998b885260138d528c613177878a206157de565b61317f612927565b966131978385015184840151948301948551916158a7565b89850151906131b08b850151928c8501938451916158a7565b908d8282019283129112908015821691151617611d5c576131e060608701516060808701519501948551916158a7565b908d8282019283129112908015821691151617611d5c57895260808501519360808401519051945190620f424095869283925161321c916133ac565b9061322691615b0e565b049160a08701519060a0860151905191519051613242916133ac565b9061324c91615b0e565b0461325691612d30565b9360c001519160c0015190519151905161326f916133ac565b9061327991615b0e565b0461328391612d30565b958c8501968752608083015198868601988a8a5260a08501519a606088019b808d526132ae91612d30565b6132b7906159d9565b908883019081518951908282820192831291129080158216911516176133855781848203941281851281169185139015161761337157508f90948787957f537fc20b2c68750bd35f0521f860cddf4fc12323e0b41e684a2dac8ed0fcc1839f9d9b999760c09f9d9b99959661334397606092520161333881518d5190612d30565b905252510151614463565b5183519a8b529b8a015251908801525160608701525160808601525160a08501526001600160a01b031692a4565b634e487b7160e01b81526011600452602490fd5b634e487b7160e01b82526011600452602482fd5b6133a7858a8551015161449d565b61314f565b91908203918211612ce757565b80518210156133cd5760209160051b010190565b634e487b7160e01b600052603260045260246000fd5b92939490919460e08401519060408201519061342261340a6020610120890151015161471a565b93602081519101518181106000146135f057906133ac565b9761342c89613c3a565b9861343a6040519a8b612693565b808a52613449601f1991613c3a565b0160005b818110613c22575050839460005b8a516000198101908111612ce7578110156134fd5760018060a01b0388166000526012602052604060002090602060e08b0151015191600183018311612ce7576134e2828e6134f3936134b48360016134f89901612d30565b6000526020526134c76040600020614a70565b6134d183836133b9565b526134dc82826133b9565b506133b9565b5160206101208d01510151906145c8565b612cfd565b61345b565b5090929496979591939560206101008a015101518a5180600019810111612ce7579798919761353f9161353460001983018e6133b9565b52600019018b6133b9565b506000975b8a518910156135f757613564608061355c8b8e6133b9565b5101516159d9565b9660008882039812818912811691891390151617612ce75761358b60a061355c8b8e6133b9565b9660008882039812818912811691891390151617612ce7576135cb6135d1926135bd6135b78c8f6133b9565b5161471a565b818110156135f057906133ac565b906133ac565b956135e86135e26135b78a8d6133b9565b98612cfd565b979096613544565b50806133ac565b905084999598929693975093909381613b14575b50613b02576060810151956136276080830197885151906133ac565b956040830196610220885101511115613af15760208301996101a08b510151151580613acd575b613abb57600261366e602061010087015151015160e08b51015190615bba565b14613aa9576136866020610100860151015184614214565b158015613a8f575b613a7d57613a71576001600160a01b039081163381141591826139dc575b5050806139a4575b6139925760c08201516136d36020825192015160a08c51015190612d30565b108015613970575b61395e576136f788602061012085015101518951895191614860565b156137405760005b85516000198101908111612ce7578110156137525761372d8961372283896133b9565b518a518a5191614860565b156137405761373b90612cfd565b6136ff565b60405163a8e7d40960e01b8152600490fd5b5093909491959792978151916000198301928311612ce7576116a261377d6137a7946137a1936133b9565b5192519285516000808d1360001461395857508b945b6101c0825192015192614895565b90615ad0565b1561394757608060e0850151015160206101208601510151511080613937575b613925576137d68251846142f1565b908161390d575b816138e7575b506138d5576137f39051826142f1565b9182613871575b5081613858575b5061384657600061381191615af1565b159081613832575b5061382057565b60405163442145e560e01b8152600490fd5b61383f9150600090615af1565b1538613819565b6040516303fa425960e21b8152600490fd5b61386a91506060815191015190615af1565b1538613801565b61010091925001515160208101908151906138a160406138976060840194855190612d30565b9201518092615bba565b159283156138b4575b50505090386137fa565b6138cc9350906138c49151612d30565b905190615bba565b153880806138aa565b60405163015f9ae760e41b8152600490fd5b61390691506101006138fc818701515161484e565b9151015190615bba565b15386137e3565b905061391e600060e0850151615af1565b15906137dd565b60405163ba555da760e01b8152600490fd5b5061394183614449565b156137c7565b604051621c56d560e31b8152600490fd5b94613793565b60405163935bdc2160e01b8152600490fd5b5060e082015161398c6020825192015160c08c51015190612d30565b106136db565b6040516302ded67360e51b8152600490fd5b506139ae81614449565b806139d4575b806139c0575b156136b4565b5060026139ce600085615af1565b146139ba565b5087156139b4565b6020919250600080516020615fa083398151915254169160446040518094819363131bac4760e11b835260048301523360248301525afa908115613a6557600091613a2b575b501538806136ac565b906020823d602011613a5d575b81613a4560209383612693565b810103126101565750613a57906126cc565b38613a22565b3d9150613a38565b6040513d6000823e3d90fd5b50505050945050505050565b60405163229a307760e21b8152600490fd5b50613aa36020610120860151015184614214565b1561368e565b60405163376a1ec760e11b8152600490fd5b604051630a6ad31160e21b8152600490fd5b506002613adc60008551615af1565b148061364e5750613aec836141e0565b61364e565b60405162558f1d60e91b8152600490fd5b6040516329a7bff360e11b8152600490fd5b1580159150613be6575b8015613b2b575b3861360b565b50613b40608082015160408301519088614393565b6000546040516370a0823160e01b815230600482015290602090829060249082906001600160a01b03165afa908115613a6557600091613bb2575b50613ba59164e8d4a51000613b9f9204808210600014613bab57505b600019615a02565b83615af1565b15613b25565b9050613b97565b906020823d602011613bde575b81613bcc60209383612693565b81010312610156575051613ba5613b7b565b3d9150613bbf565b506020610120820151015160808201516040830151848a0391600086128b84128116908c851390151617612ce757613c1d93614860565b613b1e565b808b60208093613c30612b61565b920101520161344d565b6001600160401b0381116126b65760051b60200190565b919082606091031261025257604051613c6b606082612693565b6040612bab8183958051855260208101516020860152016126cc565b9190613c91612b40565b5051613c9b612b40565b50600254604051630e0886f960e41b81526004810192909252606090829060249082906001600160a01b03165afa908115613a6557600091613d02575b50613ce281613d3b565b8092604082015115613cf2575050565b60e060c060209201510151910152565b60603d8111613d34575b613d168183612693565b810191606082840312610156575090613d2e91613c51565b38613cd8565b503d613d0c565b6003546001600160a01b03169081613d51575050565b6020016020815160246040518095819363d7c7a93560e01b835260048301525afa918215613a6557600092613d84575052565b90916020823d8211613dac575b81613d9e60209383612693565b810103126101565750519052565b3d9150613d91565b613dbc612bb0565b5060018154910154604051613dd2604082612693565b8160e01b60e01d81528160c81b60e81d602082015260405192613df761010085612693565b63ffffffff80821685528160201c16602085015265ffffffffffff808260401c166040860152808260701c1660608601528160a01c16608085015260d01c60a084015260c083015260881b60c01d60e082015290565b91909163ffffffff9081845111614017576020918285019281845111614017576040918287019260029365ffffffffffff9185613e8b848451615bba565b146140075760608a019086613ea1858451615bba565b146140075760808b019287613eb7868651615bba565b14613ff65787613ecc60a08e01968751615bba565b14613ff65760c08c019988613ee7637fffffff8d5151615af1565b14613fe557613efd637fffffff198c5151615af1565b15613fe55788613f14627fffff8a8e510151615af1565b14613fe557613f2b627fffff19898d510151615af1565b15613fe55760e08d0198613f46600180603f1b038b51615af1565b14613fe5578851613f609060016001603f1b031990615af1565b15613fe5578660019b9c9d51169063ffffffff60201b9051891b16179165ffffffffffff60401b9151901b16179065ffffffffffff60701b905160701b16179065ffffffffffff60a01b905160a01b1617905160d01b17955190815116918062ffffff60201b920151901b1617908360381b8460781b03905160381b16179281550155565b8251632142bc2760e01b8152600490fd5b8151632142bc2760e01b8152600490fd5b51632142bc2760e01b8152600490fd5b604051632142bc2760e01b8152600490fd5b815191604060208201519101516040830152602082015252565b919215908115614063575b5061405c5760800152600190565b5050600090565b905060808201519051103861404e565b61407b612c97565b50546040519061408c60a083612693565b63ffffffff908181168352818160201c1660208401528060801b60c01d604084015260018060401b038160801c16606084015260c01c16608082015290565b9063ffffffff808251116141ce5760208201818151116141ce576040908184019060026140ff600180603f1b038451615af1565b146141bd5781516141199060016001603f1b031990615af1565b156141bd576060850193600261413660018060401b038751615bba565b146141ac5760808601958187511161419b5751915192519451955160c01b63ffffffff60c01b1660809690961b600160801b600160c01b03169490931b600160401b600160801b031660209290921b63ffffffff60201b169216919091171717179055565b845163320f423b60e21b8152600490fd5b835163320f423b60e21b8152600490fd5b825163320f423b60e21b8152600490fd5b60405163320f423b60e21b8152600490fd5b60026141f160006020840151615af1565b149081156141fd575090565b6002915060006040614210920151615af1565b1490565b805115918291826142e4575b836142d7575b836142ca575b8315614286575b8315614240575b50505090565b60400151159250908261427e575b5081614271575b81614264575b5038808061423a565b602091500151153861425b565b6060810151159150614255565b91503861424e565b9250602083015115806142be575b806142b2575b806142a6575b92614233565b506060810151156142a0565b5060408101511561429a565b50604083015115614294565b604082015115935061422c565b6020820151159350614226565b6020810151159350614220565b906101a0810151159182614353575b8261430a57505090565b60208101511592509082614346575b8215614338575b50811561432b575090565b61433591506141e0565b90565b610160015115915038614320565b6040820151159250614319565b809250518015908115614385575b811561436f575b5091614300565b60029150600061437e91615af1565b1438614368565b610180830151159150614361565b6143b6906119e960406119e16143a98451615f6e565b6119e96020860151615f6e565b9081156144415761440b60206143ec6119c0936143e061014096620f424096879586940151615f6e565b04602087015190615b0e565b046101e085015180821160001461443a57505b61012085015190615b0e565b046101608301518082106000146144325750915b01518082111561442d575090565b905090565b90509161441f565b90506143ff565b505050600090565b61445f906119e960406119e16143a98451615f6e565b1590565b8151916020810151906060604082015191015160608401526040830152602082015252565b60c06000918260808201528260a08201520152565b6101008101519182519260208301916144b683516159d9565b9360208201946144c686516159d9565b9687820391600080991281841281169184139015161761136e578782820192831291129080158216911516176113825783526020830195865193604083019761450f89516159d9565b90604086019661451f88516159d9565b928584820394128185128116918513901516176145b4578483820193841291129080158216911516176111af5790604092915201946060865193019561456587516159d9565b90606086019461457586516159d9565b928584820394128185128116918513901516176145b4578483820193841291129080158216911516176111af5752519651945160809390930152525252565b634e487b7160e01b85526011600452602485fd5b906101008091015190820151916145dd612b40565b9180518451908181039060008093128183128116918313901516176133855784526020820151916020860151928284820394128185128116918513901516176133855760408091602087019485520151950151948186820396128187128116918713901516176133715760408401948552602083019361465d85516159d9565b9051908282820192831291129080158216911516176133855761467f90615b3b565b94604084019261468f84516159d9565b905190838282019283129112908015821691151617611f45576146b3606091615b3b565b9401916146c083516159d9565b91519181838201938412911290801582169115161761337157506146e390615b3b565b90525252565b60a06147169160808101614704815161010087015190612d30565b90520191610120835191015190612d30565b9052565b60206040820151606083015180821160001461443257509101518082111561442d575090565b61475a606061475260408401516159d9565b9201516159d9565b9060008282039212818312811691831390151617612ce75761433590615f6e565b90614785826147e9565b6000929061479557505050600090565b6147a260408201516159d9565b926147b060608301516159d9565b938185820395128186128116918613901516176133715750620f42406147e36116a26143359594612e5d6118bf956147e9565b92612cc4565b6060604082015191015180821160001461442d575090565b61482690614820614811826147e9565b916119e9602082015191614836565b90615b9f565b620f42408082101561442d575090565b6060604082015191015180821060001461442d575090565b614826906148206020820151916147e9565b6116a2906137a1929361433595600080821360001461488d5750945b6101e0602083015192015192614895565b90509461487c565b90916148a08261471a565b156127f4576020926148c86148b76148ce9461471a565b6119c0620f42409687940151615f6e565b04615b0e565b04908082111561442d575090565b6148e4612b61565b506001815491015490604051906148fc606083612693565b8260801b60c01d82528260401b60c01d60208301528260c01d60408301526040519261492a61012085612693565b63ffffffff8216845260018060401b0380911660208501528160801c1660408401528060c01c606084015265ffffffffffff90818160201c16608085015260501c1660a0830152600060c0830152600060e083015261010082015290565b9061499281614c60565b602081019060018060401b039160026149ac848351615bba565b14614a5e57604082019260026149c3828651615bba565b14614a5e57606083019060026149da828451615bba565b14614a5e5760019461010060409263ffffffff87511665ffffffffffff60201b608089015160201b161765ffffffffffff60501b60a089015160501b16178860801b8960c01b0380945160801b161794519551169501519486831b8760801b038651841b161790602086015160801b16179301519160c01b17845560c01b17910155565b6040516352a8a97f60e01b8152600490fd5b614a78612b61565b50805460019091015460016001603e1b03600282901c1691600382169181600084614b4b5750845b600060018603614b45575080945b600090600203614b3e57505b604090815195614acb606088612693565b60c0948060801b861d885280841b861d6020890152851d83880152825197614af56101208a612693565b63ffffffff85168952602089015282880152606087015265ffffffffffff808360201c1660808801528260501c1660a08701521b811d818501521d60e083015261010082015290565b9050614aba565b94614aae565b94614aa0565b614b5a82614c60565b600180603e1b03906002614b72836020860151615bba565b14614a5e5760408301916002614b89828551615bba565b14614a5e576002614b9f60608601928351615bba565b14614a5e576001925115600014614c585751614c515760005b925b604063ffffffff82511665ffffffffffff60201b608084015160201b161765ffffffffffff60501b60a084015160501b16178460801b8560c01b03908160c085015160801b161760e084015160c01b1795610100600487851b03614c1d8661471a565b60021b1694015193600387851b8860801b038651861b169216171790602084015160801b161791015160c01b179281550155565b6002614bb8565b508192614bba565b63ffffffff815111614a5e57600265ffffffffffff81614c84826080860151615bba565b14614a5e57614c98829160a0850151615bba565b14614a5e5760c0820190600180603f1b039281614cb6858551615af1565b14614a5e57915160016001603f1b03199290614cd3908490615af1565b15614a5e5760e0810182614ce8868351615af1565b14614a5e5783614cf89151615af1565b15614a5e57610100019281614d0f82865151615af1565b14614a5e57614d2083855151615af1565b15614a5e5781614d3582602087510151615af1565b14614a5e57614d4983602086510151615af1565b15614a5e57614d5d90604085510151615af1565b14614a5e576040614d7092510151615af1565b15614a5e57565b9593949297969060405198614d8e6102008b612693565b60008a52600060208b0152600060408b0152600060608b0152600060808b0152600060a08b0152600060c08b0152600060e08b015260006101008b015260006101208b015260006101408b015260006101608b015260006101808b015260006101a08b015260006101c08b015260006101e08b015289604086015115158952614e198783878c615716565b919082602083015281526101a088015161570857505060c0614e39612927565b920151614e526101a0850151926102008601519061477b565b8851928751620f4240614e6d8c6119c060206119e18d6157b1565b0484614ea8614e97620f42406118bf8a614e9283614e9260208951990151938b6133ac565b612cc4565b6118bf620f42406147e388516159d9565b8080830112801560008412169060008412151617612ce757614eed614ece828401615ab0565b6020870151614ede848601615f6e565b80821015615700575090615a02565b94614f00614efb8a876133ac565b615b5e565b90828401848103818112600087129081169290911390151617612ce7576002614f376020614f2d87615f6e565b9301518093615bba565b036156bf57506000925b828101810361564d575050505081620f4240810204620f42401482151715612ce757620f42408202955b855190848083011260008312908015821691151617612ce75780620f4240810204620f42401481151715612ce7578288614fc29387620f4240614fb095029101615bcb565b6118bf620f42406147e3816002612cc4565b9582620f4240810204620f42401483151715612ce757620f4240614fe893029084615bcb565b92848085011260008512908015821691151617612ce75761506b94614fb094620f42409460208461505f9661505796520152818101916102408a0151151580615626575b615601575b5050615047846118bf83614e9283600019612cc4565b8160408901526020880152615f6e565b895190615b0e565b048060608501526159d9565b9060208101519061507f60608201516159d9565b90600082128383810312811690848481031390151617612ce75783808385030112600083850312908015821691151617612ce757604081015180858103126000861216818681031360008712151617612ce75784808b948a968a98850360408701520301602084015260026150fd6040880151606089015190615bba565b146155b2575b50508b8a600261511c6060880151604089015190615bba565b1461555d575b651cae8c13e000956119c0614efb620f4240976151fc615202986152089c9860408c9961518c60608b61516460206148c89e01518d6020895191015191615923565b61517b858201518d8760208a015191015191615923565b01518385015160608c015191615923565b82519260208101519060608482015191015160a08401526080830152606082015201526151f2610180896151e86151cc60408b015160608c015190612d30565b60208b01518082101561555657505b6119c06020870151615f6e565b049a015196614801565b9051925195615c50565b936133ac565b04615b80565b620f424061521a602086015183615b0e565b04615224836147e9565b61552e57615231826159d9565b9061523b836159d9565b92600083128484810312811690858581031390151617612ce757620f42406118bf61526c6116a28561529a956133ac565b95615286836118bf61528082600019612cc4565b89612cc4565b9561529384600019612cc4565b9103612cc4565b906152af60208a015185602088015191615923565b6152c360408a015184604088015191615923565b6152d760608a015183606088015191615923565b6101208b01526101008a015260e089015260c08801526020820151602085015190600082128183810312811690828481031390151617612ce7576118bf620f424091615346936152936153336020880151606089015190612d30565b60408801518082101561552757506159d9565b6020850151602084015190600082128183810312811690828481031390151617612ce7576118bf620f42409161539f9361529361538c602089015160408a015190612d30565b60608901518082101561552757506159d9565b90818082011260008212908015821691151617612ce7576153d4620f42406118bf6153cc82600019612cc4565b858501612cc4565b916153e9604089015183604087015191615923565b6153fd606089015182606087015191615923565b615411602089015184602087015191615923565b6101808a015261016089015261014088015260009461543b614efb600096600095519051906133ac565b9360208301516154f8575b60408301516154c8575b6060830151615493575b50505090506101e08501526101c08401526101a0830152614335615487602084015160a085015190612d30565b61012084015190612d30565b6154bf9350620f42406154b060c096610120606094015190615b0e565b049485920151920151916159c2565b8038808061545a565b9450620f42406154dd61010087015186615b0e565b04946154f360a0830151876040860151916159c2565b615450565b9550620f424061550c60e088015186615b0e565b04956155226080830151886020860151916159c2565b615446565b90506159d9565b6152316116a2604085015161555161554a606088015183612d30565b9186615b0e565b615b76565b90506151db565b50509250505061557e620f42406118bf6020840151611e316116a288615776565b8082526020820151600082128183810312811690828481031390151617612ce7570360208201528290849087908b8a615122565b6155cd9450620f424093506152936116a26118bf9497615776565b8082526040820151600082128183810312811690828481031390151617612ce7578492869289920360408201523880615103565b61561f925085916118bf9161561884600019612cc4565b9101612cc4565b3880615031565b508a615646615641600061563b858701615ab0565b9361477b565b615ab0565b141561502c565b89620f4240810204620f4240148a151715612ce75761568a936156798261567f95615551940103615f6e565b92615b0e565b620f42408802612d30565b82620f4240810204620f42401483151715612ce757620f424083028110156156b3575b95614f6b565b50620f424082026156ad565b6156d5906156d08585810103615ab0565b615a02565b80848103126000851216818581031360008612151617612ce757836156fa9103615f6e565b92614f41565b905090615a02565b9a5098975050505050505050565b939192906020019081511561576757906020615750620f424061574760806040615765970151980197885190615b0e565b048096516133ac565b9501519061575d866159d9565b905191615923565b565b50509150608001519060009190565b61577f816157b1565b6157895750600090565b806157ab6157a561579c614335946157b1565b6135cb84614836565b916157b1565b90615b80565b6157d26157bd826147e9565b9160206157c982614836565b91015190612d30565b8082101561442d575090565b6157e6612c07565b5060018154910154604080516020916157ff8383612693565b8460b81b60c01d825280516158148482612693565b8560781b60c01d815281519161582a8584612693565b8660381b60c01d83528051936158408686612693565b6001600160401b0387811686528251969061585b8289612693565b8089851c16885283519861586f838b612693565b60801c16885260ff83519961588560e08c612693565b16151589528801528601526060850152608084015260a083015260c082015290565b519051808203929160009091128015828513169184121617612ce7576000196158cf83615ab0565b0361590f5761433591611e316158e4926159d9565b611e316158f082615ab0565b61590a615904620f424092611e3184615ab0565b93615f6e565b615a61565b6118bf61433592611e31620f4240936159d9565b909182156159bd5781519261593781615ab0565b9160001983036159a2576117ea6117ea61595361595d936159d9565b94611e3186615ab0565b91620f424090818102918183041490151715612ce7576159869261598091615a61565b90615a02565b915b60008382019384129112908015821691151617612ce75752565b6159b79250620f42406147e36118bf926159d9565b91615988565b505050565b919080156159bd576119e961471692845192615b80565b6001600160ff1b0381116159ea5790565b6024906040519063eecaa25d60e01b82526004820152fd5b60008113615a2657600013615a175750600090565b615a20906159d9565b60000390565b50614335906159d9565b8115615a4b57600160ff1b8114600019831416612ce7570590565b634e487b7160e01b600052601260045260246000fd5b908015615a9e5760009180615a7857505050600090565b6000198101908111611f455790615a8e91615b76565b9060018201809211613371575090565b6040516323d359a360e01b8152600490fd5b60008113615aca57600013615ac457600090565b60001990565b50600190565b90615ada91615af1565b60028114908115615ae9575090565b600191501490565b818113615b075712615b0257600190565b600090565b5050600290565b81810292918115918404141715612ce757565b64e8d4a5100090818102918183041490151715612ce75790565b60008112615b465790565b6024906040519063b02ef08760e01b82526004820152fd5b620f424090818102918183041490151715612ce75790565b8115615a4b570490565b90620f424091828102928184041490151715612ce75761433591615b76565b9080615bb15750615ac457620f424090565b61433591615b80565b818111615b075710615b0257600190565b6118bf916118bf61433595611e31615bf86116a2976118bf615bfe97611e31620f42409b8c998a956133ac565b916159d9565b916147e3816301e13380612cc4565b60405163a9059cbb60e01b60208201526001600160a01b039283166024820152604480820194909452928352615765929190615c4a606484612693565b16615d82565b90606082018051615c618184615bba565b15615c9d5750620f424090615c768284615bba565b15615c85575050506020015190565b90614335939151916020604082015191015192615cae565b839150604061433594519201519160005b90615cbf615cc591959394956159d9565b946159d9565b92615cd08284615bba565b158015615d54575b615d425781615ce6916133ac565b90848403926000948587128186128116918613901516176145b45792611e316116a2620f424094615d1d6118bf95615d22986133ac565b615b80565b818382019384129112908015821691151617613371575061433590615b3b565b604051634a83a53f60e01b8152600490fd5b506002615d618285615bba565b14615cd8565b6001600160401b0381116126b657601f01601f191660200190565b60209190615e0c906001600160a01b0316615d9c84615d67565b90615daa6040519283612693565b8482527f5361666545524332303a206c6f772d6c6576656c2063616c6c206661696c6564858301526000808587829751910182855af13d15615e96573d91615df183615d67565b92615dff6040519485612693565b83523d868885013e615e9a565b90815180615e1b575b50505050565b82849181010312610156575081615e3291016126cc565b15615e3f57808080615e15565b6084906040519062461bcd60e51b82526004820152602a60248201527f5361666545524332303a204552433230206f7065726174696f6e20646964206e6044820152691bdd081cdd58d8d9595960b21b6064820152fd5b6060915b91929015615efc5750815115615eae575090565b3b15615eb75790565b60405162461bcd60e51b815260206004820152601d60248201527f416464726573733a2063616c6c20746f206e6f6e2d636f6e74726163740000006044820152606490fd5b825190915015615f0f5750805190602001fd5b6040519062461bcd60e51b82528160208060048301528251908160248401526000935b828510615f55575050604492506000838284010152601f80199101168101030190fd5b8481018201518686016044015293810193859350615f32565b6000808212615f7b575090565b039056fea9c835c21e93a672e5a6ef8ca0374f90b7d4378f7eec5769dcf22fdefd60ffae0aec74a1754fb10877b53c31a29be82096082042eb1fb374ec96fac88c0e621ba26469706673582212204116ca600725adb9232f0b2a1a1ffef7bd1308aa15c58b6f8225ee46cd0fa9a964736f6c63430008130033",
  "libraries": {
    "MarketParameterStorageLib": "0x8a159CDB5FA8AF4A71f987F3Fb2D5229eC63c758",
    "RiskParameterStorageLib": "0xc24FeF7BB2f7AB454A3f982eD3b4B8268fF850BD"
  }
}