{
  "address": "0xed4b2545510336236760f523890Dc38b3e01ff26",
  "abi": [
    {
      "inputs": [],
      "name": "CurveMath6OutOfBoundsError",
      "type": "error"
    },
    {
      "inputs": [],
      "name": "DivisionByZero",
      "type": "error"
    },
    {
      "inputs": [
        {
          "internalType": "uint256",
          "name": "value",
          "type": "uint256"
        }
      ],
      "name": "Fixed6OverflowError",
      "type": "error"
    },
    {
      "inputs": [],
      "name": "GlobalStorageInvalidError",
      "type": "error"
    },
    {
      "inputs": [],
      "name": "GlobalStorageInvalidError",
      "type": "error"
    },
    {
      "inputs": [
        {
          "internalType": "uint256",
          "name": "version",
          "type": "uint256"
        }
      ],
      "name": "InitializableAlreadyInitializedError",
      "type": "error"
    },
    {
      "inputs": [],
      "name": "InitializableNotInitializingError",
      "type": "error"
    },
    {
      "inputs": [],
      "name": "InitializableZeroVersionError",
      "type": "error"
    },
    {
      "inputs": [
        {
          "internalType": "address",
          "name": "sender",
          "type": "address"
        }
      ],
      "name": "InstanceNotOwnerError",
      "type": "error"
    },
    {
      "inputs": [],
      "name": "InstancePausedError",
      "type": "error"
    },
    {
      "inputs": [],
      "name": "LocalStorageInvalidError",
      "type": "error"
    },
    {
      "inputs": [],
      "name": "LocalStorageInvalidError",
      "type": "error"
    },
    {
      "inputs": [],
      "name": "MarketClosedError",
      "type": "error"
    },
    {
      "inputs": [],
      "name": "MarketCollateralBelowLimitError",
      "type": "error"
    },
    {
      "inputs": [],
      "name": "MarketEfficiencyUnderLimitError",
      "type": "error"
    },
    {
      "inputs": [],
      "name": "MarketExceedsPendingIdLimitError",
      "type": "error"
    },
    {
      "inputs": [],
      "name": "MarketInsufficientCollateralError",
      "type": "error"
    },
    {
      "inputs": [],
      "name": "MarketInsufficientLiquidityError",
      "type": "error"
    },
    {
      "inputs": [],
      "name": "MarketInsufficientMaintenanceError",
      "type": "error"
    },
    {
      "inputs": [],
      "name": "MarketInsufficientMarginError",
      "type": "error"
    },
    {
      "inputs": [
        {
          "internalType": "uint256",
          "name": "code",
          "type": "uint256"
        }
      ],
      "name": "MarketInvalidMarketParameterError",
      "type": "error"
    },
    {
      "inputs": [],
      "name": "MarketInvalidProtectionError",
      "type": "error"
    },
    {
      "inputs": [],
      "name": "MarketInvalidRewardError",
      "type": "error"
    },
    {
      "inputs": [
        {
          "internalType": "uint256",
          "name": "code",
          "type": "uint256"
        }
      ],
      "name": "MarketInvalidRiskParameterError",
      "type": "error"
    },
    {
      "inputs": [],
      "name": "MarketMakerOverLimitError",
      "type": "error"
    },
    {
      "inputs": [],
      "name": "MarketNotBeneficiaryError",
      "type": "error"
    },
    {
      "inputs": [],
      "name": "MarketNotCoordinatorError",
      "type": "error"
    },
    {
      "inputs": [],
      "name": "MarketNotSingleSidedError",
      "type": "error"
    },
    {
      "inputs": [],
      "name": "MarketOperatorNotAllowedError",
      "type": "error"
    },
    {
      "inputs": [],
      "name": "MarketOverCloseError",
      "type": "error"
    },
    {
      "inputs": [],
      "name": "MarketParameterStorageInvalidError",
      "type": "error"
    },
    {
      "inputs": [],
      "name": "MarketProtectedError",
      "type": "error"
    },
    {
      "inputs": [],
      "name": "MarketRewardAlreadySetError",
      "type": "error"
    },
    {
      "inputs": [],
      "name": "MarketStalePriceError",
      "type": "error"
    },
    {
      "inputs": [],
      "name": "PositionStorageInvalidError",
      "type": "error"
    },
    {
      "inputs": [],
      "name": "PositionStorageLocalInvalidError",
      "type": "error"
    },
    {
      "inputs": [],
      "name": "ReentrancyGuardReentrantCallError",
      "type": "error"
    },
    {
      "inputs": [],
      "name": "RiskParameterStorageInvalidError",
      "type": "error"
    },
    {
      "inputs": [
        {
          "internalType": "int256",
          "name": "value",
          "type": "int256"
        }
      ],
      "name": "UFixed6UnderflowError",
      "type": "error"
    },
    {
      "inputs": [],
      "name": "VersionStorageInvalidError",
      "type": "error"
    },
    {
      "inputs": [],
      "name": "VersionStorageInvalidError",
      "type": "error"
    },
    {
      "anonymous": false,
      "inputs": [
        {
          "indexed": true,
          "internalType": "address",
          "name": "account",
          "type": "address"
        },
        {
          "indexed": true,
          "internalType": "uint256",
          "name": "fromOracleVersion",
          "type": "uint256"
        },
        {
          "indexed": true,
          "internalType": "uint256",
          "name": "toOracleVersion",
          "type": "uint256"
        },
        {
          "indexed": false,
          "internalType": "uint256",
          "name": "fromPosition",
          "type": "uint256"
        },
        {
          "indexed": false,
          "internalType": "uint256",
          "name": "toPosition",
          "type": "uint256"
        },
        {
          "components": [
            {
              "internalType": "Fixed6",
              "name": "collateralAmount",
              "type": "int256"
            },
            {
              "internalType": "UFixed6",
              "name": "rewardAmount",
              "type": "uint256"
            },
            {
              "internalType": "UFixed6",
              "name": "positionFee",
              "type": "uint256"
            },
            {
              "internalType": "UFixed6",
              "name": "keeper",
              "type": "uint256"
            }
          ],
          "indexed": false,
          "internalType": "struct LocalAccumulationResult",
          "name": "accumulationResult",
          "type": "tuple"
        }
      ],
      "name": "AccountPositionProcessed",
      "type": "event"
    },
    {
      "anonymous": false,
      "inputs": [
        {
          "indexed": false,
          "internalType": "address",
          "name": "newBeneficiary",
          "type": "address"
        }
      ],
      "name": "BeneficiaryUpdated",
      "type": "event"
    },
    {
      "anonymous": false,
      "inputs": [
        {
          "indexed": false,
          "internalType": "address",
          "name": "newCoordinator",
          "type": "address"
        }
      ],
      "name": "CoordinatorUpdated",
      "type": "event"
    },
    {
      "anonymous": false,
      "inputs": [
        {
          "indexed": true,
          "internalType": "address",
          "name": "account",
          "type": "address"
        },
        {
          "indexed": false,
          "internalType": "UFixed6",
          "name": "amount",
          "type": "uint256"
        }
      ],
      "name": "FeeClaimed",
      "type": "event"
    },
    {
      "anonymous": false,
      "inputs": [
        {
          "indexed": false,
          "internalType": "uint256",
          "name": "version",
          "type": "uint256"
        }
      ],
      "name": "Initialized",
      "type": "event"
    },
    {
      "anonymous": false,
      "inputs": [
        {
          "indexed": true,
          "internalType": "address",
          "name": "account",
          "type": "address"
        },
        {
          "indexed": false,
          "internalType": "uint256",
          "name": "version",
          "type": "uint256"
        },
        {
          "components": [
            {
              "internalType": "Fixed6",
              "name": "maker",
              "type": "int256"
            },
            {
              "internalType": "Fixed6",
              "name": "long",
              "type": "int256"
            },
            {
              "internalType": "Fixed6",
              "name": "short",
              "type": "int256"
            },
            {
              "internalType": "Fixed6",
              "name": "net",
              "type": "int256"
            },
            {
              "internalType": "UFixed6",
              "name": "skew",
              "type": "uint256"
            },
            {
              "internalType": "Fixed6",
              "name": "impact",
              "type": "int256"
            },
            {
              "internalType": "Fixed6",
              "name": "utilization",
              "type": "int256"
            },
            {
              "internalType": "Fixed6",
              "name": "efficiency",
              "type": "int256"
            },
            {
              "internalType": "UFixed6",
              "name": "fee",
              "type": "uint256"
            },
            {
              "internalType": "UFixed6",
              "name": "keeper",
              "type": "uint256"
            }
          ],
          "indexed": false,
          "internalType": "struct Order",
          "name": "order",
          "type": "tuple"
        },
        {
          "indexed": false,
          "internalType": "Fixed6",
          "name": "collateral",
          "type": "int256"
        }
      ],
      "name": "OrderCreated",
      "type": "event"
    },
    {
      "anonymous": false,
      "inputs": [
        {
          "components": [
            {
              "internalType": "UFixed6",
              "name": "fundingFee",
              "type": "uint256"
            },
            {
              "internalType": "UFixed6",
              "name": "interestFee",
              "type": "uint256"
            },
            {
              "internalType": "UFixed6",
              "name": "positionFee",
              "type": "uint256"
            },
            {
              "internalType": "UFixed6",
              "name": "oracleFee",
              "type": "uint256"
            },
            {
              "internalType": "UFixed6",
              "name": "riskFee",
              "type": "uint256"
            },
            {
              "internalType": "uint256",
              "name": "maxPendingGlobal",
              "type": "uint256"
            },
            {
              "internalType": "uint256",
              "name": "maxPendingLocal",
              "type": "uint256"
            },
            {
              "internalType": "UFixed6",
              "name": "makerRewardRate",
              "type": "uint256"
            },
            {
              "internalType": "UFixed6",
              "name": "longRewardRate",
              "type": "uint256"
            },
            {
              "internalType": "UFixed6",
              "name": "shortRewardRate",
              "type": "uint256"
            },
            {
              "internalType": "UFixed6",
              "name": "settlementFee",
              "type": "uint256"
            },
            {
              "internalType": "bool",
              "name": "takerCloseAlways",
              "type": "bool"
            },
            {
              "internalType": "bool",
              "name": "makerCloseAlways",
              "type": "bool"
            },
            {
              "internalType": "bool",
              "name": "closed",
              "type": "bool"
            }
          ],
          "indexed": false,
          "internalType": "struct MarketParameter",
          "name": "newParameter",
          "type": "tuple"
        }
      ],
      "name": "ParameterUpdated",
      "type": "event"
    },
    {
      "anonymous": false,
      "inputs": [
        {
          "indexed": true,
          "internalType": "uint256",
          "name": "fromOracleVersion",
          "type": "uint256"
        },
        {
          "indexed": true,
          "internalType": "uint256",
          "name": "toOracleVersion",
          "type": "uint256"
        },
        {
          "indexed": false,
          "internalType": "uint256",
          "name": "fromPosition",
          "type": "uint256"
        },
        {
          "indexed": false,
          "internalType": "uint256",
          "name": "toPosition",
          "type": "uint256"
        },
        {
          "components": [
            {
              "internalType": "UFixed6",
              "name": "positionFeeMaker",
              "type": "uint256"
            },
            {
              "internalType": "UFixed6",
              "name": "positionFeeFee",
              "type": "uint256"
            },
            {
              "internalType": "Fixed6",
              "name": "fundingMaker",
              "type": "int256"
            },
            {
              "internalType": "Fixed6",
              "name": "fundingLong",
              "type": "int256"
            },
            {
              "internalType": "Fixed6",
              "name": "fundingShort",
              "type": "int256"
            },
            {
              "internalType": "UFixed6",
              "name": "fundingFee",
              "type": "uint256"
            },
            {
              "internalType": "Fixed6",
              "name": "interestMaker",
              "type": "int256"
            },
            {
              "internalType": "Fixed6",
              "name": "interestLong",
              "type": "int256"
            },
            {
              "internalType": "Fixed6",
              "name": "interestShort",
              "type": "int256"
            },
            {
              "internalType": "UFixed6",
              "name": "interestFee",
              "type": "uint256"
            },
            {
              "internalType": "Fixed6",
              "name": "pnlMaker",
              "type": "int256"
            },
            {
              "internalType": "Fixed6",
              "name": "pnlLong",
              "type": "int256"
            },
            {
              "internalType": "Fixed6",
              "name": "pnlShort",
              "type": "int256"
            },
            {
              "internalType": "UFixed6",
              "name": "rewardMaker",
              "type": "uint256"
            },
            {
              "internalType": "UFixed6",
              "name": "rewardLong",
              "type": "uint256"
            },
            {
              "internalType": "UFixed6",
              "name": "rewardShort",
              "type": "uint256"
            }
          ],
          "indexed": false,
          "internalType": "struct VersionAccumulationResult",
          "name": "accumulationResult",
          "type": "tuple"
        }
      ],
      "name": "PositionProcessed",
      "type": "event"
    },
    {
      "anonymous": false,
      "inputs": [
        {
          "indexed": true,
          "internalType": "address",
          "name": "account",
          "type": "address"
        },
        {
          "indexed": false,
          "internalType": "UFixed6",
          "name": "amount",
          "type": "uint256"
        }
      ],
      "name": "RewardClaimed",
      "type": "event"
    },
    {
      "anonymous": false,
      "inputs": [
        {
          "indexed": false,
          "internalType": "Token18",
          "name": "newReward",
          "type": "address"
        }
      ],
      "name": "RewardUpdated",
      "type": "event"
    },
    {
      "anonymous": false,
      "inputs": [
        {
          "components": [
            {
              "internalType": "UFixed6",
              "name": "margin",
              "type": "uint256"
            },
            {
              "internalType": "UFixed6",
              "name": "maintenance",
              "type": "uint256"
            },
            {
              "internalType": "UFixed6",
              "name": "takerFee",
              "type": "uint256"
            },
            {
              "internalType": "UFixed6",
              "name": "takerSkewFee",
              "type": "uint256"
            },
            {
              "internalType": "UFixed6",
              "name": "takerImpactFee",
              "type": "uint256"
            },
            {
              "internalType": "UFixed6",
              "name": "makerFee",
              "type": "uint256"
            },
            {
              "internalType": "UFixed6",
              "name": "makerImpactFee",
              "type": "uint256"
            },
            {
              "internalType": "UFixed6",
              "name": "makerLimit",
              "type": "uint256"
            },
            {
              "internalType": "UFixed6",
              "name": "efficiencyLimit",
              "type": "uint256"
            },
            {
              "internalType": "UFixed6",
              "name": "liquidationFee",
              "type": "uint256"
            },
            {
              "internalType": "UFixed6",
              "name": "minLiquidationFee",
              "type": "uint256"
            },
            {
              "internalType": "UFixed6",
              "name": "maxLiquidationFee",
              "type": "uint256"
            },
            {
              "components": [
                {
                  "internalType": "UFixed6",
                  "name": "minRate",
                  "type": "uint256"
                },
                {
                  "internalType": "UFixed6",
                  "name": "maxRate",
                  "type": "uint256"
                },
                {
                  "internalType": "UFixed6",
                  "name": "targetRate",
                  "type": "uint256"
                },
                {
                  "internalType": "UFixed6",
                  "name": "targetUtilization",
                  "type": "uint256"
                }
              ],
              "internalType": "struct UJumpRateUtilizationCurve6",
              "name": "utilizationCurve",
              "type": "tuple"
            },
            {
              "components": [
                {
                  "internalType": "UFixed6",
                  "name": "k",
                  "type": "uint256"
                },
                {
                  "internalType": "UFixed6",
                  "name": "max",
                  "type": "uint256"
                }
              ],
              "internalType": "struct PController6",
              "name": "pController",
              "type": "tuple"
            },
            {
              "internalType": "UFixed6",
              "name": "minMargin",
              "type": "uint256"
            },
            {
              "internalType": "UFixed6",
              "name": "minMaintenance",
              "type": "uint256"
            },
            {
              "internalType": "UFixed6",
              "name": "virtualTaker",
              "type": "uint256"
            },
            {
              "internalType": "uint256",
              "name": "staleAfter",
              "type": "uint256"
            },
            {
              "internalType": "bool",
              "name": "makerReceiveOnly",
              "type": "bool"
            }
          ],
          "indexed": false,
          "internalType": "struct RiskParameter",
          "name": "newRiskParameter",
          "type": "tuple"
        }
      ],
      "name": "RiskParameterUpdated",
      "type": "event"
    },
    {
      "anonymous": false,
      "inputs": [
        {
          "indexed": true,
          "internalType": "address",
          "name": "sender",
          "type": "address"
        },
        {
          "indexed": true,
          "internalType": "address",
          "name": "account",
          "type": "address"
        },
        {
          "indexed": false,
          "internalType": "uint256",
          "name": "version",
          "type": "uint256"
        },
        {
          "indexed": false,
          "internalType": "UFixed6",
          "name": "newMaker",
          "type": "uint256"
        },
        {
          "indexed": false,
          "internalType": "UFixed6",
          "name": "newLong",
          "type": "uint256"
        },
        {
          "indexed": false,
          "internalType": "UFixed6",
          "name": "newShort",
          "type": "uint256"
        },
        {
          "indexed": false,
          "internalType": "Fixed6",
          "name": "collateral",
          "type": "int256"
        },
        {
          "indexed": false,
          "internalType": "bool",
          "name": "protect",
          "type": "bool"
        }
      ],
      "name": "Updated",
      "type": "event"
    },
    {
      "inputs": [],
      "name": "claimFee",
      "outputs": [],
      "stateMutability": "nonpayable",
      "type": "function"
    },
    {
      "inputs": [],
      "name": "claimReward",
      "outputs": [],
      "stateMutability": "nonpayable",
      "type": "function"
    },
    {
      "inputs": [],
      "name": "factory",
      "outputs": [
        {
          "internalType": "contract IFactory",
          "name": "",
          "type": "address"
        }
      ],
      "stateMutability": "view",
      "type": "function"
    },
    {
      "inputs": [],
      "name": "global",
      "outputs": [
        {
          "components": [
            {
              "internalType": "uint256",
              "name": "currentId",
              "type": "uint256"
            },
            {
              "internalType": "uint256",
              "name": "latestId",
              "type": "uint256"
            },
            {
              "internalType": "UFixed6",
              "name": "protocolFee",
              "type": "uint256"
            },
            {
              "internalType": "UFixed6",
              "name": "oracleFee",
              "type": "uint256"
            },
            {
              "internalType": "UFixed6",
              "name": "riskFee",
              "type": "uint256"
            },
            {
              "internalType": "UFixed6",
              "name": "donation",
              "type": "uint256"
            },
            {
              "components": [
                {
                  "internalType": "Fixed6",
                  "name": "_value",
                  "type": "int256"
                },
                {
                  "internalType": "Fixed6",
                  "name": "_skew",
                  "type": "int256"
                }
              ],
              "internalType": "struct PAccumulator6",
              "name": "pAccumulator",
              "type": "tuple"
            },
            {
              "internalType": "Fixed6",
              "name": "latestPrice",
              "type": "int256"
            }
          ],
          "internalType": "struct Global",
          "name": "",
          "type": "tuple"
        }
      ],
      "stateMutability": "view",
      "type": "function"
    },
    {
      "inputs": [
        {
          "components": [
            {
              "internalType": "Token18",
              "name": "token",
              "type": "address"
            },
            {
              "internalType": "contract IOracleProvider",
              "name": "oracle",
              "type": "address"
            },
            {
              "internalType": "contract IPayoffProvider",
              "name": "payoff",
              "type": "address"
            }
          ],
          "internalType": "struct IMarket.MarketDefinition",
          "name": "definition_",
          "type": "tuple"
        }
      ],
      "name": "initialize",
      "outputs": [],
      "stateMutability": "nonpayable",
      "type": "function"
    },
    {
      "inputs": [
        {
          "internalType": "address",
          "name": "account",
          "type": "address"
        }
      ],
      "name": "locals",
      "outputs": [
        {
          "components": [
            {
              "internalType": "uint256",
              "name": "currentId",
              "type": "uint256"
            },
            {
              "internalType": "uint256",
              "name": "latestId",
              "type": "uint256"
            },
            {
              "internalType": "Fixed6",
              "name": "collateral",
              "type": "int256"
            },
            {
              "internalType": "UFixed6",
              "name": "reward",
              "type": "uint256"
            },
            {
              "internalType": "uint256",
              "name": "protection",
              "type": "uint256"
            }
          ],
          "internalType": "struct Local",
          "name": "",
          "type": "tuple"
        }
      ],
      "stateMutability": "view",
      "type": "function"
    },
    {
      "inputs": [],
      "name": "oracle",
      "outputs": [
        {
          "internalType": "contract IOracleProvider",
          "name": "",
          "type": "address"
        }
      ],
      "stateMutability": "view",
      "type": "function"
    },
    {
      "inputs": [],
      "name": "parameter",
      "outputs": [
        {
          "components": [
            {
              "internalType": "UFixed6",
              "name": "fundingFee",
              "type": "uint256"
            },
            {
              "internalType": "UFixed6",
              "name": "interestFee",
              "type": "uint256"
            },
            {
              "internalType": "UFixed6",
              "name": "positionFee",
              "type": "uint256"
            },
            {
              "internalType": "UFixed6",
              "name": "oracleFee",
              "type": "uint256"
            },
            {
              "internalType": "UFixed6",
              "name": "riskFee",
              "type": "uint256"
            },
            {
              "internalType": "uint256",
              "name": "maxPendingGlobal",
              "type": "uint256"
            },
            {
              "internalType": "uint256",
              "name": "maxPendingLocal",
              "type": "uint256"
            },
            {
              "internalType": "UFixed6",
              "name": "makerRewardRate",
              "type": "uint256"
            },
            {
              "internalType": "UFixed6",
              "name": "longRewardRate",
              "type": "uint256"
            },
            {
              "internalType": "UFixed6",
              "name": "shortRewardRate",
              "type": "uint256"
            },
            {
              "internalType": "UFixed6",
              "name": "settlementFee",
              "type": "uint256"
            },
            {
              "internalType": "bool",
              "name": "takerCloseAlways",
              "type": "bool"
            },
            {
              "internalType": "bool",
              "name": "makerCloseAlways",
              "type": "bool"
            },
            {
              "internalType": "bool",
              "name": "closed",
              "type": "bool"
            }
          ],
          "internalType": "struct MarketParameter",
          "name": "",
          "type": "tuple"
        }
      ],
      "stateMutability": "view",
      "type": "function"
    },
    {
      "inputs": [],
      "name": "payoff",
      "outputs": [
        {
          "internalType": "contract IPayoffProvider",
          "name": "",
          "type": "address"
        }
      ],
      "stateMutability": "view",
      "type": "function"
    },
    {
      "inputs": [
        {
          "internalType": "uint256",
          "name": "id",
          "type": "uint256"
        }
      ],
      "name": "pendingPosition",
      "outputs": [
        {
          "components": [
            {
              "internalType": "uint256",
              "name": "timestamp",
              "type": "uint256"
            },
            {
              "internalType": "UFixed6",
              "name": "maker",
              "type": "uint256"
            },
            {
              "internalType": "UFixed6",
              "name": "long",
              "type": "uint256"
            },
            {
              "internalType": "UFixed6",
              "name": "short",
              "type": "uint256"
            },
            {
              "internalType": "UFixed6",
              "name": "fee",
              "type": "uint256"
            },
            {
              "internalType": "UFixed6",
              "name": "keeper",
              "type": "uint256"
            },
            {
              "internalType": "Fixed6",
              "name": "collateral",
              "type": "int256"
            },
            {
              "internalType": "Fixed6",
              "name": "delta",
              "type": "int256"
            },
            {
              "components": [
                {
                  "internalType": "Fixed6",
                  "name": "maker",
                  "type": "int256"
                },
                {
                  "internalType": "Fixed6",
                  "name": "long",
                  "type": "int256"
                },
                {
                  "internalType": "Fixed6",
                  "name": "short",
                  "type": "int256"
                }
              ],
              "internalType": "struct Invalidation",
              "name": "invalidation",
              "type": "tuple"
            }
          ],
          "internalType": "struct Position",
          "name": "",
          "type": "tuple"
        }
      ],
      "stateMutability": "view",
      "type": "function"
    },
    {
      "inputs": [
        {
          "internalType": "address",
          "name": "account",
          "type": "address"
        },
        {
          "internalType": "uint256",
          "name": "id",
          "type": "uint256"
        }
      ],
      "name": "pendingPositions",
      "outputs": [
        {
          "components": [
            {
              "internalType": "uint256",
              "name": "timestamp",
              "type": "uint256"
            },
            {
              "internalType": "UFixed6",
              "name": "maker",
              "type": "uint256"
            },
            {
              "internalType": "UFixed6",
              "name": "long",
              "type": "uint256"
            },
            {
              "internalType": "UFixed6",
              "name": "short",
              "type": "uint256"
            },
            {
              "internalType": "UFixed6",
              "name": "fee",
              "type": "uint256"
            },
            {
              "internalType": "UFixed6",
              "name": "keeper",
              "type": "uint256"
            },
            {
              "internalType": "Fixed6",
              "name": "collateral",
              "type": "int256"
            },
            {
              "internalType": "Fixed6",
              "name": "delta",
              "type": "int256"
            },
            {
              "components": [
                {
                  "internalType": "Fixed6",
                  "name": "maker",
                  "type": "int256"
                },
                {
                  "internalType": "Fixed6",
                  "name": "long",
                  "type": "int256"
                },
                {
                  "internalType": "Fixed6",
                  "name": "short",
                  "type": "int256"
                }
              ],
              "internalType": "struct Invalidation",
              "name": "invalidation",
              "type": "tuple"
            }
          ],
          "internalType": "struct Position",
          "name": "",
          "type": "tuple"
        }
      ],
      "stateMutability": "view",
      "type": "function"
    },
    {
      "inputs": [],
      "name": "position",
      "outputs": [
        {
          "components": [
            {
              "internalType": "uint256",
              "name": "timestamp",
              "type": "uint256"
            },
            {
              "internalType": "UFixed6",
              "name": "maker",
              "type": "uint256"
            },
            {
              "internalType": "UFixed6",
              "name": "long",
              "type": "uint256"
            },
            {
              "internalType": "UFixed6",
              "name": "short",
              "type": "uint256"
            },
            {
              "internalType": "UFixed6",
              "name": "fee",
              "type": "uint256"
            },
            {
              "internalType": "UFixed6",
              "name": "keeper",
              "type": "uint256"
            },
            {
              "internalType": "Fixed6",
              "name": "collateral",
              "type": "int256"
            },
            {
              "internalType": "Fixed6",
              "name": "delta",
              "type": "int256"
            },
            {
              "components": [
                {
                  "internalType": "Fixed6",
                  "name": "maker",
                  "type": "int256"
                },
                {
                  "internalType": "Fixed6",
                  "name": "long",
                  "type": "int256"
                },
                {
                  "internalType": "Fixed6",
                  "name": "short",
                  "type": "int256"
                }
              ],
              "internalType": "struct Invalidation",
              "name": "invalidation",
              "type": "tuple"
            }
          ],
          "internalType": "struct Position",
          "name": "",
          "type": "tuple"
        }
      ],
      "stateMutability": "view",
      "type": "function"
    },
    {
      "inputs": [
        {
          "internalType": "address",
          "name": "account",
          "type": "address"
        }
      ],
      "name": "positions",
      "outputs": [
        {
          "components": [
            {
              "internalType": "uint256",
              "name": "timestamp",
              "type": "uint256"
            },
            {
              "internalType": "UFixed6",
              "name": "maker",
              "type": "uint256"
            },
            {
              "internalType": "UFixed6",
              "name": "long",
              "type": "uint256"
            },
            {
              "internalType": "UFixed6",
              "name": "short",
              "type": "uint256"
            },
            {
              "internalType": "UFixed6",
              "name": "fee",
              "type": "uint256"
            },
            {
              "internalType": "UFixed6",
              "name": "keeper",
              "type": "uint256"
            },
            {
              "internalType": "Fixed6",
              "name": "collateral",
              "type": "int256"
            },
            {
              "internalType": "Fixed6",
              "name": "delta",
              "type": "int256"
            },
            {
              "components": [
                {
                  "internalType": "Fixed6",
                  "name": "maker",
                  "type": "int256"
                },
                {
                  "internalType": "Fixed6",
                  "name": "long",
                  "type": "int256"
                },
                {
                  "internalType": "Fixed6",
                  "name": "short",
                  "type": "int256"
                }
              ],
              "internalType": "struct Invalidation",
              "name": "invalidation",
              "type": "tuple"
            }
          ],
          "internalType": "struct Position",
          "name": "",
          "type": "tuple"
        }
      ],
      "stateMutability": "view",
      "type": "function"
    },
    {
      "inputs": [],
      "name": "reward",
      "outputs": [
        {
          "internalType": "Token18",
          "name": "",
          "type": "address"
        }
      ],
      "stateMutability": "view",
      "type": "function"
    },
    {
      "inputs": [],
      "name": "riskParameter",
      "outputs": [
        {
          "components": [
            {
              "internalType": "UFixed6",
              "name": "margin",
              "type": "uint256"
            },
            {
              "internalType": "UFixed6",
              "name": "maintenance",
              "type": "uint256"
            },
            {
              "internalType": "UFixed6",
              "name": "takerFee",
              "type": "uint256"
            },
            {
              "internalType": "UFixed6",
              "name": "takerSkewFee",
              "type": "uint256"
            },
            {
              "internalType": "UFixed6",
              "name": "takerImpactFee",
              "type": "uint256"
            },
            {
              "internalType": "UFixed6",
              "name": "makerFee",
              "type": "uint256"
            },
            {
              "internalType": "UFixed6",
              "name": "makerImpactFee",
              "type": "uint256"
            },
            {
              "internalType": "UFixed6",
              "name": "makerLimit",
              "type": "uint256"
            },
            {
              "internalType": "UFixed6",
              "name": "efficiencyLimit",
              "type": "uint256"
            },
            {
              "internalType": "UFixed6",
              "name": "liquidationFee",
              "type": "uint256"
            },
            {
              "internalType": "UFixed6",
              "name": "minLiquidationFee",
              "type": "uint256"
            },
            {
              "internalType": "UFixed6",
              "name": "maxLiquidationFee",
              "type": "uint256"
            },
            {
              "components": [
                {
                  "internalType": "UFixed6",
                  "name": "minRate",
                  "type": "uint256"
                },
                {
                  "internalType": "UFixed6",
                  "name": "maxRate",
                  "type": "uint256"
                },
                {
                  "internalType": "UFixed6",
                  "name": "targetRate",
                  "type": "uint256"
                },
                {
                  "internalType": "UFixed6",
                  "name": "targetUtilization",
                  "type": "uint256"
                }
              ],
              "internalType": "struct UJumpRateUtilizationCurve6",
              "name": "utilizationCurve",
              "type": "tuple"
            },
            {
              "components": [
                {
                  "internalType": "UFixed6",
                  "name": "k",
                  "type": "uint256"
                },
                {
                  "internalType": "UFixed6",
                  "name": "max",
                  "type": "uint256"
                }
              ],
              "internalType": "struct PController6",
              "name": "pController",
              "type": "tuple"
            },
            {
              "internalType": "UFixed6",
              "name": "minMargin",
              "type": "uint256"
            },
            {
              "internalType": "UFixed6",
              "name": "minMaintenance",
              "type": "uint256"
            },
            {
              "internalType": "UFixed6",
              "name": "virtualTaker",
              "type": "uint256"
            },
            {
              "internalType": "uint256",
              "name": "staleAfter",
              "type": "uint256"
            },
            {
              "internalType": "bool",
              "name": "makerReceiveOnly",
              "type": "bool"
            }
          ],
          "internalType": "struct RiskParameter",
          "name": "",
          "type": "tuple"
        }
      ],
      "stateMutability": "view",
      "type": "function"
    },
    {
      "inputs": [],
      "name": "token",
      "outputs": [
        {
          "internalType": "Token18",
          "name": "",
          "type": "address"
        }
      ],
      "stateMutability": "view",
      "type": "function"
    },
    {
      "inputs": [
        {
          "internalType": "address",
          "name": "account",
          "type": "address"
        },
        {
          "internalType": "UFixed6",
          "name": "newMaker",
          "type": "uint256"
        },
        {
          "internalType": "UFixed6",
          "name": "newLong",
          "type": "uint256"
        },
        {
          "internalType": "UFixed6",
          "name": "newShort",
          "type": "uint256"
        },
        {
          "internalType": "Fixed6",
          "name": "collateral",
          "type": "int256"
        },
        {
          "internalType": "bool",
          "name": "protect",
          "type": "bool"
        }
      ],
      "name": "update",
      "outputs": [],
      "stateMutability": "nonpayable",
      "type": "function"
    },
    {
      "inputs": [
        {
          "internalType": "address",
          "name": "newBeneficiary",
          "type": "address"
        },
        {
          "internalType": "address",
          "name": "newCoordinator",
          "type": "address"
        },
        {
          "components": [
            {
              "internalType": "UFixed6",
              "name": "fundingFee",
              "type": "uint256"
            },
            {
              "internalType": "UFixed6",
              "name": "interestFee",
              "type": "uint256"
            },
            {
              "internalType": "UFixed6",
              "name": "positionFee",
              "type": "uint256"
            },
            {
              "internalType": "UFixed6",
              "name": "oracleFee",
              "type": "uint256"
            },
            {
              "internalType": "UFixed6",
              "name": "riskFee",
              "type": "uint256"
            },
            {
              "internalType": "uint256",
              "name": "maxPendingGlobal",
              "type": "uint256"
            },
            {
              "internalType": "uint256",
              "name": "maxPendingLocal",
              "type": "uint256"
            },
            {
              "internalType": "UFixed6",
              "name": "makerRewardRate",
              "type": "uint256"
            },
            {
              "internalType": "UFixed6",
              "name": "longRewardRate",
              "type": "uint256"
            },
            {
              "internalType": "UFixed6",
              "name": "shortRewardRate",
              "type": "uint256"
            },
            {
              "internalType": "UFixed6",
              "name": "settlementFee",
              "type": "uint256"
            },
            {
              "internalType": "bool",
              "name": "takerCloseAlways",
              "type": "bool"
            },
            {
              "internalType": "bool",
              "name": "makerCloseAlways",
              "type": "bool"
            },
            {
              "internalType": "bool",
              "name": "closed",
              "type": "bool"
            }
          ],
          "internalType": "struct MarketParameter",
          "name": "newParameter",
          "type": "tuple"
        }
      ],
      "name": "updateParameter",
      "outputs": [],
      "stateMutability": "nonpayable",
      "type": "function"
    },
    {
      "inputs": [
        {
          "internalType": "Token18",
          "name": "newReward",
          "type": "address"
        }
      ],
      "name": "updateReward",
      "outputs": [],
      "stateMutability": "nonpayable",
      "type": "function"
    },
    {
      "inputs": [
        {
          "components": [
            {
              "internalType": "UFixed6",
              "name": "margin",
              "type": "uint256"
            },
            {
              "internalType": "UFixed6",
              "name": "maintenance",
              "type": "uint256"
            },
            {
              "internalType": "UFixed6",
              "name": "takerFee",
              "type": "uint256"
            },
            {
              "internalType": "UFixed6",
              "name": "takerSkewFee",
              "type": "uint256"
            },
            {
              "internalType": "UFixed6",
              "name": "takerImpactFee",
              "type": "uint256"
            },
            {
              "internalType": "UFixed6",
              "name": "makerFee",
              "type": "uint256"
            },
            {
              "internalType": "UFixed6",
              "name": "makerImpactFee",
              "type": "uint256"
            },
            {
              "internalType": "UFixed6",
              "name": "makerLimit",
              "type": "uint256"
            },
            {
              "internalType": "UFixed6",
              "name": "efficiencyLimit",
              "type": "uint256"
            },
            {
              "internalType": "UFixed6",
              "name": "liquidationFee",
              "type": "uint256"
            },
            {
              "internalType": "UFixed6",
              "name": "minLiquidationFee",
              "type": "uint256"
            },
            {
              "internalType": "UFixed6",
              "name": "maxLiquidationFee",
              "type": "uint256"
            },
            {
              "components": [
                {
                  "internalType": "UFixed6",
                  "name": "minRate",
                  "type": "uint256"
                },
                {
                  "internalType": "UFixed6",
                  "name": "maxRate",
                  "type": "uint256"
                },
                {
                  "internalType": "UFixed6",
                  "name": "targetRate",
                  "type": "uint256"
                },
                {
                  "internalType": "UFixed6",
                  "name": "targetUtilization",
                  "type": "uint256"
                }
              ],
              "internalType": "struct UJumpRateUtilizationCurve6",
              "name": "utilizationCurve",
              "type": "tuple"
            },
            {
              "components": [
                {
                  "internalType": "UFixed6",
                  "name": "k",
                  "type": "uint256"
                },
                {
                  "internalType": "UFixed6",
                  "name": "max",
                  "type": "uint256"
                }
              ],
              "internalType": "struct PController6",
              "name": "pController",
              "type": "tuple"
            },
            {
              "internalType": "UFixed6",
              "name": "minMargin",
              "type": "uint256"
            },
            {
              "internalType": "UFixed6",
              "name": "minMaintenance",
              "type": "uint256"
            },
            {
              "internalType": "UFixed6",
              "name": "virtualTaker",
              "type": "uint256"
            },
            {
              "internalType": "uint256",
              "name": "staleAfter",
              "type": "uint256"
            },
            {
              "internalType": "bool",
              "name": "makerReceiveOnly",
              "type": "bool"
            }
          ],
          "internalType": "struct RiskParameter",
          "name": "newRiskParameter",
          "type": "tuple"
        }
      ],
      "name": "updateRiskParameter",
      "outputs": [],
      "stateMutability": "nonpayable",
      "type": "function"
    },
    {
      "inputs": [
        {
          "internalType": "uint256",
          "name": "timestamp",
          "type": "uint256"
        }
      ],
      "name": "versions",
      "outputs": [
        {
          "components": [
            {
              "internalType": "bool",
              "name": "valid",
              "type": "bool"
            },
            {
              "components": [
                {
                  "internalType": "Fixed6",
                  "name": "_value",
                  "type": "int256"
                }
              ],
              "internalType": "struct Accumulator6",
              "name": "makerValue",
              "type": "tuple"
            },
            {
              "components": [
                {
                  "internalType": "Fixed6",
                  "name": "_value",
                  "type": "int256"
                }
              ],
              "internalType": "struct Accumulator6",
              "name": "longValue",
              "type": "tuple"
            },
            {
              "components": [
                {
                  "internalType": "Fixed6",
                  "name": "_value",
                  "type": "int256"
                }
              ],
              "internalType": "struct Accumulator6",
              "name": "shortValue",
              "type": "tuple"
            },
            {
              "components": [
                {
                  "internalType": "UFixed6",
                  "name": "_value",
                  "type": "uint256"
                }
              ],
              "internalType": "struct UAccumulator6",
              "name": "makerReward",
              "type": "tuple"
            },
            {
              "components": [
                {
                  "internalType": "UFixed6",
                  "name": "_value",
                  "type": "uint256"
                }
              ],
              "internalType": "struct UAccumulator6",
              "name": "longReward",
              "type": "tuple"
            },
            {
              "components": [
                {
                  "internalType": "UFixed6",
                  "name": "_value",
                  "type": "uint256"
                }
              ],
              "internalType": "struct UAccumulator6",
              "name": "shortReward",
              "type": "tuple"
            }
          ],
          "internalType": "struct Version",
          "name": "",
          "type": "tuple"
        }
      ],
      "stateMutability": "view",
      "type": "function"
    }
  ],
  "transactionHash": "0xad4f5598ecd911d0f0256c0baee3fd85a4b617192fccce97c183cb419a383857",
  "args": [],
  "numDeployments": 3,
  "solcInputHash": "934ef76960aad0404f2e0a4fb0d8dea1",
  "bytecode": "0x6080806040523461001757615fe790816200001d8239f35b600080fdfe6080604052600436101561001257600080fd5b6000803560e01c806309218e9114612418578063228cb733146123ef5780633934fe36146121215780634549a6291461209757806355f575101461204f5780635b4b969514611fd7578063632447c914611ebf5780637dc0d1d014611e9657806387aee00e14611e1657806391eece2814610b4c57806395fcd83614610b2357806399d32fc41461099c578063a05f99061461091b578063a1d0a113146108e7578063ad4d4e2914610842578063b329230e14610434578063b88a802f146103a3578063c45a01551461036d578063ce813aed14610294578063d26b3e261461012d5763fc0c546a1461010457600080fd5b3461012a578060031936011261012a57546040516001600160a01b039091168152602090f35b80fd5b503461012a57606036600319011261012a577f6fee9688c285c5c5c97d6a1a29adced674e6b2ad0888b8ad2116b58a8b3ea24860018154101561027b5760019055303b151580610274575b61025b5733600080516020615f9283398151915255303b15158061026d575b61025b576001600080516020615f72833981519152556001600160a01b03600435818116908190036102535782546001600160a01b031990811690911783556024358281169081900361025757816002541617600255604435918216809203610253576003541617600355807f2801b00eb06461cf9fcb9758b5fafd884ff06a86177386f73b6c49f0bf5a5af0557fbe9b076dc5b65990cca9dd9d7366682482e7817a6f6bc7f4faf4dc32af497f32602060405160018152a180f35b8280fd5b8380fd5b60405163b9a621e160e01b8152600490fd5b5080610197565b5080610178565b604051631edb9c6d60e11b815260016004820152602490fd5b503461012a57604036600319011261012a576004356001600160a01b03811691908290036103685760406102e791610364936102ce612aac565b5081526012602052818120602435825260205220614a42565b60405191829182919091610140604061016083019480518452602081015160208501528181015182850152606081015160608501526080810151608085015260a081015160a085015260c081015160c085015260e081015160e0850152610100809101519081519085015260208101516101208501520151910152565b0390f35b600080fd5b503461012a578060031936011261012a57600080516020615f92833981519152546040516001600160a01b039091168152602090f35b503461012a578060031936011261012a5733815260106020526104316103cb60408320614045565b8260018060a01b03600154166103f160608401916103e98351615af3565b903390615bdf565b80516040519081527f106f923f993c2149d49b4255ff723acafa1f2d94393f561d3eda32ae348f724160203392a25233835260106020526040832061409d565b80f35b503461012a576102e036600319011261012a576040516104566102608261243f565b6004358152602435602082015260443560408201526064356060820152608435608082015260a43560a082015260c43560c082015260e43560e082015261010435610100820152610124356101208201526101443561014082015261016435610160820152608061018319360112610764576040516104d660808261243f565b6101843581526101a43560208201526101c43560408201526101e43560608201526101808201526040610203193601126107645760405161051860408261243f565b6102043581526102243560208201526101a0820152610244356101c0820152610264356101e0820152610284356102008201526102a4356102208201526102c43515156102c43503610368576102c4356102408201526005546001600160a01b0316331415806107b4575b6107a257600080516020615f928339815191525460405163ad4d4e2960e01b8152839160e090829060049082906001600160a01b03165afa908115610768578291610773575b5073c24FeF7BB2f7AB454A3f982eD3b4B8268fF850BD3b15610764576106f0604051916302903c7960e21b83526006600484015284516024840152602085015160448401526040850151606484015260608501516084840152608085015160a484015260a085015160c484015260c085015160e484015260e085015161010484015261010085015161012484015261012085015161014484015261014085015161016484015261016085015161018484015261068f6101808601516101a4850190612478565b60206101a0860151805161022486015201516102448401526101c08501516102648401526101e08501516102848401526102008501516102a48401526102208501516102c484015261024085015115156102e484015261030483019061269f565b81816103e48173c24FeF7BB2f7AB454A3f982eD3b4B8268fF850BD5af480156107685761074f575b506040517f823c5e592916c45a8b43a655f22eb029f79dfd3c63f6d122df594aaf83e09b029080610749858261249b565b0390a180f35b816107599161243f565b610764578138610718565b5080fd5b6040513d84823e3d90fd5b610795915060e03d60e01161079b575b61078d818361243f565b810190612643565b386105c9565b503d610783565b604051639bca062560e01b8152600490fd5b50600080516020615f9283398151915254604051638da5cb5b60e01b815290602090829060049082906001600160a01b03165afa908115610837578391610808575b506001600160a01b0316331415610583565b61082a915060203d602011610830575b610822818361243f565b810190612624565b386107f6565b503d610818565b6040513d85823e3d90fd5b503461012a578060031936011261012a5761085b612748565b506040516338ecab9f60e21b8152600960048201526101c091908281602481738a159CDB5FA8AF4A71f987F3Fb2D5229eC63c7585af49182156108db57916108ae575b506108ac6040518092612584565bf35b6108ce9150823d84116108d4575b6108c6818361243f565b8101906127b3565b3861089e565b503d6108bc565b604051903d90823e3d90fd5b503461012a57602036600319011261012a576102e760406103649261090a612aac565b506004358152600f602052206148ae565b503461012a578060031936011261012a57610934612afb565b50610120610942600b613d86565b60e060405191805183526020810151602084015260408101516040840152606081015160608401526080810151608084015260a081015160a0840152602060c0820151805160c08601520151828401520151610100820152f35b503461012a578060031936011261012a576109b7600b613d86565b600080516020615f928339815191528054604051638da5cb5b60e01b81526001600160a01b0393928592602092908390829060049082908a165afa8015610b185760049285889286948291610afb575b50610a1860408a01918251906126e0565b610af3575b5050541660405192838092630c7f7fb960e41b82525afa918215610837578392610ab8575b5050928161043194610a5c606086019184835191166126e0565b610ab0575b508160055416610a7760808601918251906126e0565b610aa8575b505060045416610a9260a08401918251906126e0565b610aa0575b5050600b613e1f565b528238610a97565b528138610a7c565b528138610a61565b90809250813d8311610aec575b610acf818361243f565b810103126107645751928084168403610764579281610431610a42565b503d610ac5565b528538610a1d565b610b129150853d871161083057610822818361243f565b38610a07565b6040513d86823e3d90fd5b503461012a578060031936011261012a576003546040516001600160a01b039091168152602090f35b503461012a5760c036600319011261012a576004356001600160a01b03811690036103685760a435151560a43503610368576002600080516020615f728339815191525414611e04576002600080516020615f7283398151915255600080516020615f9283398151915254604051635c975abb60e01b81526001600160a01b0390911690602081600481855afa908115610837578391611dca575b50611db857600460e060405192610c006101408561243f565b604051610c0d838261243f565b8581528560208201528560408201528560608201528560808201528560a08201528560c08201528452610c3e612748565b6020850152610c4b612899565b6040850152846060850152610c5e612a8b565b6080850152610c6b612a8b565b60a0850152610c78612afb565b60c0850152610c85612be2565b82850152610c91612c57565b610100850152610c9f612c57565b6101208501526040519283809263ad4d4e29851b82525afa908115610837578391611d99575b5081526040516338ecab9f60e21b8152600960048201526101c081602481738a159CDB5FA8AF4A71f987F3Fb2D5229eC63c7585af4908115610837578391611d78575b506020820152604051635da3780d60e01b8152600660048201526102e08160248173c24FeF7BB2f7AB454A3f982eD3b4B8268fF850BD5af4908115610837578391611d47575b506040820152610d5e600b613d86565b60c08201526004356001600160a01b03168252601060205260408220610d8390614045565b60e0820152610d90612a8b565b50600254604051631006976960e11b815290608090829060049082906001600160a01b03165afa80156108375783918491611d05575b50610dd082613d0d565b60608301526080820152610ded610de7600d6148ae565b82613c59565b60a0820152610dfc600d6148ae565b610120820151526004356001600160a01b03168252601160205260408220610e2390614a42565b60206101208301510152610e35612aac565b905b60c081015160208151910151809114159081611cd0575b5015610e8e57602060c08201510151600181018111610e7a57826001610e75920183612c88565b610e37565b634e487b7160e01b84526011600452602484fd5b91905b60e083015160208151910151141580611c6b575b15611075576004356001600160a01b0316825260126020908152604080842060e086810151840151865292528320610edc90614a42565b015192602060e08201510151600181018111610e7a57826001610f0392016004358461305f565b60018060a01b03600435168352601260205260408320602060e083015101518452602052610f3360408420614a42565b60018060a01b0360043516845260126020526040842060e0830151518552602052610f6060408520614a42565b9460e0604081850151015196015195858212878381031281169088848103139015161761106157818703868112801591830383811392909216918313161761106157610faf60808601516159ab565b908288038103878112801591840184139182169115161761104d57610fd760a08701516159ab565b928089038203830188811280159186018613918216911516176110395761103295969798039003010160c082015260018060a01b03600435168552601260205260408520602060e08501510151865260205260408520614b23565b9190610e91565b634e487b7160e01b88526011600452602488fd5b634e487b7160e01b87526011600452602487fd5b634e487b7160e01b86526011600452602486fd5b5090608081015151610120820151515110611c1b575b608081015151602061012083015101515110611bb4575b60e060c082015101516020608083015101526110c561012082015151600d61495a565b6004356001600160a01b031682526011602090815260408320610120830151909101516110f191614b23565b60443590606435608435602435611106612c57565b60c0850151518752600f60205261111f604088206148ae565b815260018060a01b0360043516875260126020526040872060e08601515188526020526111b261010061115460408a20614a42565b6020840190815261116d84516101208a0151519061459a565b611182815160206101208b015101519061459a565b61119a8285510151836101208b015151015190613ffb565b51015161010060206101208901510151015190613ffb565b61010085015260016111c8600160ff1b84615ac3565b14611b86575b60016111dc60001983615b8c565b14611b73575b60016111f060001987615b8c565b14611b5e575b600161120460001985615b8c565b14611b49575b6060840151602061010086015101515110611b21575b6060840151610100850151515110611afc575b60206101008501510151926060850151604051946112536101408761243f565b8886528860208701528860408701528860608701528860808701528860a08701528860c08701528860e08701528861010087015288610120870152611297846159ab565b6112a460208301516159ab565b908a82128183810312811690828481031390151617611ae8576112c68a6159ab565b6112d360408501516159ab565b908c82128183810312811690828481031390151617611a7a578c6112f6886159ab565b61130360608801516159ab565b9182128183810312811690828481031390151617611ac0570360408b0152036020890152038652826060820152876040820152836020820152526101008501515160608601519061020060408801510161135e81518361474d565b9261137061136b84614712565b6159ab565b61137c61136b85614820565b61138861136b866147d3565b60c08b015260e08a015260608901526113a460208401516159ab565b88519081808201128d8212908015821691151617611a7a576113c69101615b0d565b6113d360408501516159ab565b60208a0151908d8280830112908212908015821691151617611ad4576113f99101615b0d565b8c61140760608701516159ab565b60408c0151918280830112908212908015821691151617611ac05761142c9101615b0d565b606086015260408501526020840152825261144961136b83614712565b916060880151938b85128486810312811690858781031390151617611a975761147383518361474d565b8c82128183810312811690828481031390151617611a7a5761136b6114b261136b6114ad6114a5866114b89603615f40565b97518761474d565b615f40565b92615f40565b918c83128284810312811690838581031390151617611a7a57806114df61136b8f93614820565b9060e08c01519283128284810312811690838581031390151617611ac05761150b8f9161136b906147d3565b60c08d01519182128183810312811690828481031390151617611aab570360c08c01520360e08a01520360a088015260808701520360608501526080850151602086015190604087015161156260a08201516159ab565b611589620f424061158461157960c08601516159ab565b60c08c015190612c0f565b615a02565b9081808201128c8212908015821691151617611a97578b82820113600014611a8e5701905b6115bb60408201516159ab565b906115dc620f42406115d6606084015160808d015190615ae0565b046159ab565b9081808401128d8412908015821691151617611a7a57620f424061158461160960806116149401516159ab565b60a08d015190612c0f565b91828083830101128d83830112908015821691151617611a7a5761168b620f42406116918f9761168b6116ba8f99611698869a9161168b886116c89f8f9c61167e6116c19f97849860209385611691965080848484010113600014611a70575001019e5b51615f40565b99019861168b8a51615f40565b90615ae0565b0491615b0d565b04996116b460406116ac6020840151615f40565b920151615f40565b90612c7b565b9151615f40565b0490612c7b565b6101a082015115611a6b5750875b6101008601526116e58561441b565b15611a615750865b61012085015261170684602061010088015101516146bb565b61171684610100870151516146bb565b604060e08601510180518480820112898212908015821691151617611a4d578401905260e0602061010087015101510180518480820112898212908015821691151617611a4d578401905261178360e0860151602061012088015101519060a43591606089015191614015565b9561178d8561441b565b156119e1575b6117a56119509785876004358a61332e565b60c0860151518852600f6020526117c660408920610100880151519061495a565b6004356001600160a01b03168852601260209081526040808a2060e0890151518b5282528920610100880151909101516117ff91614b23565b61180884615a82565b6001811461198a575b60001914611965575b60608601519260405193845260208401526040830152606082015281608082015260a435151560a082015260018060a01b0360043516907f29083474b417ce11b6e16e049302e231f5d3d753484fe3e8155ea0b7ffe4f3c160c03392a361012060608401519260405193845280516020850152602081015160408501526040810151606085015260608101516080850152608081015160a085015260a081015160c085015260c081015160e085015260e08101516101008501526101008101518285015201516101408301526101608201527fade6625fedfa1b9ae2563a494cd5a4627fcae900709f46272c3c702e53ad1dc961018060018060a01b036004351692a261192c60c0820151600b613e1f565b6004356001600160a01b0316835260106020526040832060e091909101519061409d565b6001600080516020615f728339815191525580f35b8754611985906001600160a01b03166103e961198087615f40565b615af3565b61181a565b88546119dc906001600160a01b03166119a561198088615f40565b90604051916323b872dd60e01b60208401523360248401523060448401526064830152606482526119d760848361243f565b615d54565b611811565b60025488906001600160a01b0316803b15610764576040516313e3c62160e11b8152600480356001600160a01b0316908201529082908290602490829084905af1801561076857611a34575b5050611793565b81611a3e9161243f565b611a49578738611a2d565b8780fd5b634e487b7160e01b89526011600452602489fd5b61014001516116ed565b6116d6565b925050509e611678565b634e487b7160e01b8d52601160045260248dfd5b505089906115ae565b634e487b7160e01b8c52601160045260248cfd5b50634e487b7160e01b8f52601160045260248ffd5b634e487b7160e01b8f52601160045260248ffd5b634e487b7160e01b8e52601160045260248efd5b634e487b7160e01b8b52601160045260248bfd5b60c0840151611b0b8151612c48565b9052611b1c6101008501515161445a565b611233565b60e0840151611b308151612c48565b9052611b446020610100860151015161445a565b611220565b6101008401516020015160600151925061120a565b610100840151602001516040015194506111f6565b50602080610100850151015101516111e2565b9050611bae604060e08501510151611584620f424091611ba883600019612c0f565b90612c0f565b906111ce565b60018060a01b03600435168252601260205260408220602060e083015101518352602052611c16611be760408420614a42565b611c04608084015182905190600060a08201526000608082015252565b602060e084015101516004358461305f565b6110a2565b602060c082015101518252600f602052611c66611c3a604084206148ae565b611c57608084015182905190600060a08201526000608082015252565b602060c0840151015183612c88565b61108b565b50506004356001600160a01b03168152601260209081526040822060e084015190910151600181018111611cbc576001018252602052611cad60408220614a42565b60808301515181511115610ea5565b634e487b7160e01b83526011600452602483fd5b91925050600181018111611cbc576001018252600f602052611cf4604083206148ae565b906080810151518251111538610e4e565b91505060803d608011611d40575b611d1d818361243f565b608082828101031261025757611d37606091830183613c23565b91015138610dc6565b503d611d13565b611d6b91506102e03d6102e011611d71575b611d63818361243f565b810190612944565b38610d4e565b503d611d59565b611d9391506101c03d6101c0116108d4576108c6818361243f565b38610d08565b611db2915060e03d60e01161079b5761078d818361243f565b38610cc5565b604051634b94d2bb60e01b8152600490fd5b90506020813d602011611dfc575b81611de56020938361243f565b8101031261025357611df690612617565b38610be7565b3d9150611dd8565b6040516345f6780960e11b8152600490fd5b503461012a57602036600319011261012a57611e49604060e092611e38612b52565b5060043581526013602052206157b0565b60c060405191805115158352602081015151602084015260408101515160408401526060810151516060840152608081015151608084015260a08101515160a084015201515160c0820152f35b503461012a578060031936011261012a576002546040516001600160a01b039091168152602090f35b503461012a57602036600319011261012a576004356001600160a01b0381811691829003610368576004602082600080516020615f92833981519152541660405192838092638da5cb5b60e01b82525afa8015610b185782918591611fb9575b50163303611fa1576001549080841681831603611f8f578354168214611f7d576001600160a01b03191681176001556040519081527ff0f334a92951c3f240a6d627261c6a075ab711edba3ce91573923831cbe4d4d190602090a180f35b60405163037df82360e11b8152600490fd5b60405163473b50fd60e01b8152600490fd5b604051634d193d1f60e01b8152336004820152602490fd5b611fd1915060203d811161083057610822818361243f565b38611f1f565b503461012a57602036600319011261012a576004356001600160a01b038116919082900361036857604061201e9160a093612010612be2565b508152601060205220614045565b6080604051918051835260208101516020840152604081015160408401526060810151606084015201516080820152f35b503461012a57602036600319011261012a576004356001600160a01b03811691908290036103685760406102e79161036493612089612aac565b508152601160205220614a42565b503461012a578060031936011261012a576120b0612899565b50604051635da3780d60e01b8152600660048201526102e090818160248173c24FeF7BB2f7AB454A3f982eD3b4B8268fF850BD5af4918215610837576103649392612104575b50506040519182918261249b565b61211a9250803d10611d7157611d63818361243f565b38806120f6565b503461012a5761020036600319011261012a576001600160a01b03906004358281169081900361076457602435838116809103610253576101c091826043193601126102575760405194612175848761243f565b604435865260209060643582880152608435604088015260a435606088015260c435608088015260e43560a08801526101043560c08801526101243560e08801526101443561010088015261016435610120880152610184356101408801526101a43580151581036123eb576101608801526101c43580151581036123eb576101808801526101e49283358015158103611a49576101a089015281600080516020615f92833981519152541692604051638da5cb5b60e01b81528181600481885afa9081156123e0579084918a916123c3575b50163303611fa157856004967fc258faa9a17ddfdf4130b4acff63a289202e7d5f9e42f366add65368575486bc937feee59a71c694e68368a1cb0d135c448051bbfb12289e6c2223b0ceb100c2321d8460018060a01b03199280848d5416178c55604051908152a16005541617600555604051908152a160e0738a159CDB5FA8AF4A71f987F3Fb2D5229eC63c758926040519586809263ad4d4e29851b82525afa9384156123b8578694612397575b5060015416813b1561239357859261233d94926102e49260405196879586946310317ba160e11b8652600960048701526123358d6024880190612584565b85019061269f565b6102c48301525af4801561083757612373575b50600080516020615f52833981519152919261236f6040518092612584565ba180f35b9161238d81600080516020615f528339815191529461243f565b91612350565b8580fd5b6123b191945060e03d60e01161079b5761078d818361243f565b92386122f7565b6040513d88823e3d90fd5b6123da9150833d851161083057610822818361243f565b38612248565b6040513d8b823e3d90fd5b8680fd5b503461012a578060031936011261012a576001546040516001600160a01b039091168152602090f35b503461012a578060031936011261012a57612431612aac565b506103646102e7600d6148ae565b601f909101601f19168101906001600160401b0382119082101761246257604052565b634e487b7160e01b600052604160045260246000fd5b606080918051845260208101516020850152604081015160408501520151910152565b9190916102c06102e0820193805183526020810151602084015260408101516040840152606081015160608401526080810151608084015260a081015160a084015260c081015160c084015260e081015160e084015261010080820151908401526101208082015190840152610140808201519084015261016080820151908401526125306101808083015190850190612478565b6101a08101519060208251926102009384870152015161022090818601526101c08201519261024093848701526101e08301516102608701528201516102808601528101516102a085015201511515910152565b805182526020810151602083015260408101516040830152606081015160608301526080810151608083015260a081015160a083015260c081015160c083015260e081015160e083015261010080820151908301526101208082015190830152610140808201519083015261016080820151151590830152610180808201511515908301526101a0809101511515910152565b5190811515820361036857565b9081602091031261036857516001600160a01b03811681036103685790565b908160e09103126103685760c06040519161265f60e08461243f565b805183526020810151602084015260408101516040840152606081015160608401526080810151608084015260a081015160a0840152015160c082015290565b60c08091805184526020810151602085015260408101516040850152606081015160608501526080810151608085015260a081015160a08501520151910152565b6001600160a01b03818116929091903384900361273f576127336020927f20ca5094f3a20c321cbe4123d0f01b276b81df0fa24cd4d83d9253956035d86394600054169061272d84615af3565b91615bdf565b604051908152a2600190565b50505050600090565b604051906127586101c08361243f565b816101a06000918281528260208201528260408201528260608201528260808201528260a08201528260c08201528260e082015282610100820152826101208201528261014082015282610160820152826101808201520152565b80916101c09283910312610368576127ce604051928361243f565b805182526020810151602083015260408101516040830152606081015160608301526080810151608083015260a081015160a083015260c081015160c083015260e081015160e0830152610100808201519083015261012080820151908301526101408082015190830152610160612847818301612617565b90830152610180612859818301612617565b9083015261286b6101a0809201612617565b9082015290565b6040519061288160808361243f565b60006060838281528260208201528260408201520152565b604051906128a96102608361243f565b816102406000918281528260208201528260408201528260608201528260808201528260a08201528260c08201528260e082015282610100820152826101208201528261014082015282610160820152612901612872565b61018082015260405161291560408261243f565b8381528360208201526101a0820152826101c0820152826101e082015282610200820152826102208201520152565b8091036102e0811261036857604080519261026090612963828661243f565b80518552602081015160208601528281015183860152606081015160608601526080810151608086015260a081015160a086015260c081015160c086015260e081015160e08601526101008082015190860152610120808201519086015261014080820151908601526101608082015190860152608061017f19850112610368578251936129f260808661243f565b61018093848301518652806101a0928385015160208901526101c09788860151838201526101e0978887015160608301528a01526101ff1901126103685761286b946102c094612a448351938461243f565b61020092838601518152610220948587015160208301528a01526102409788860151908a015284015190880152610280830151908701526102a08201519086015201612617565b60405190612a9a60608361243f565b60006040838281528260208201520152565b60405190612abc6101208361243f565b8160008082528060208301528060408301528060608301528060808301528060a08301528060c083015260e0820152610100612af6612a8b565b910152565b60405190612b0b6101008361243f565b8160e06000918281528260208201528260408201528260608201528260808201528260a0820152604051612b4060408261243f565b83815283602082015260c08201520152565b604090815191612b6360e08461243f565b60c0836000808252612bdc845194602095612b7e878261243f565b838152868501528051612b91878261243f565b838152818501528051612ba4878261243f565b83815260608501528051612bb8878261243f565b83815260808501528051612bcc878261243f565b83815260a085015251948561243f565b83520152565b60405190612bf160a08361243f565b60006080838281528260208201528260408201528260608201520152565b818102929160008212600160ff1b821416612c32578184051490151715612c3257565b634e487b7160e01b600052601160045260246000fd5b6000198114612c325760010190565b60405190612c6660408361243f565b81612c6f612aac565b81526020612af6612aac565b91908201809211612c3257565b9091610120820190612c9c8251518261459a565b815151516000526013602052612cb560406000206157b0565b91612cc08285613c59565b9060408201511561304e575b8051519160a083519685612d0a612d008960c08501518760208201519a86898901519160208a01519460408b015196614d49565b9290965151614435565b60c082015160e06020860151918c60208201520152612dc98360c08401516080828b0151612dad6020880151612d87612d54620f4240612d4c8c51518c615ae0565b04809a6132f7565b612d82620f4240612d7981612d6d606088015186615ae0565b04988996015184615ae0565b049687926132f7565b6132f7565b97612d9760408701918251612c7b565b9052612da860608601938451612c7b565b612c7b565b9052612dbe60808301918251612c7b565b905201918251612c7b565b90520152825160005260136020526040600020926002600180603f1b0381612df68260208a015151615ac3565b1461303c5760208701515160016001603f1b03199190612e17908390615ac3565b1561303c5782612e2c8260408b015151615ac3565b1461303c57612e408260408a015151615ac3565b1561303c57612e55839160608a015151615ac3565b1461303c57612e6990606088015151615ac3565b1561303c576080860151518190612e88906001600160401b0390615b8c565b1461303c5760a0860151518190612ea7906001600160401b0390615b8c565b1461303c5760c086015151612ec4906001600160401b0390615b8c565b1461303c57846001610240957fd67bab6cdd205804bd5c55f9eebe24e2d16bcd12950b9fab152e727ae331f7329751151560001461303557815b6101008360481b0360208501515160081b1660ff8460481b8560881b0360408701515160481b16921617178260881b8360c81b0360608501515160881b161792828060401b03608082015151168360401b8460801b0360a08301515160401b16179060c08460801b85821b039101515160801b1617928155015551956040519283526020830152805160408301526020810151606083015260408101516080830152606081015160a0830152608081015160c083015260a081015160e083015260c0810151610100908184015260e0820151610120840152810151906101409182840152610120810151916101609283850152810151916101809283850152810151916101a09283850152810151916101c09283850152810151916101e092838501528101516102008401520151610220820152a3565b6000612efe565b60405163693bbf3960e11b8152600490fd5b61305a8382515161446f565b612ccc565b919061012083019360209461307886825101518361459a565b81519060009182526013875260406130918184206157b0565b958651156132e4575b88835101519060e08251990151958a8701948551998b885260138d528c6130c2878a206157b0565b6130ca612872565b966130e2838501518484015194830194855191615879565b89850151906130fb8b850151928c850193845191615879565b908d8282019283129112908015821691151617611a7a5761312b6060870151606080870151950194855191615879565b908d8282019283129112908015821691151617611a7a57895260808501519360808401519051945190620f4240958692839251613167916132f7565b9061317191615ae0565b049160a08701519060a086015190519151905161318d916132f7565b9061319791615ae0565b046131a191612c7b565b9360c001519160c001519051915190516131ba916132f7565b906131c491615ae0565b046131ce91612c7b565b958c8501968752608083015198868601988a8a5260a08501519a606088019b808d526131f991612c7b565b613202906159ab565b908883019081518951908282820192831291129080158216911516176132d0578184820394128185128116918513901516176132bc57508f90948787957f537fc20b2c68750bd35f0521f860cddf4fc12323e0b41e684a2dac8ed0fcc1839f9d9b999760c09f9d9b99959661328e97606092520161328381518d5190612c7b565b905252510151614435565b5183519a8b529b8a015251908801525160608701525160808601525160a08501526001600160a01b031692a4565b634e487b7160e01b81526011600452602490fd5b634e487b7160e01b82526011600452602482fd5b6132f2858a8551015161446f565b61309a565b91908203918211612c3257565b80518210156133185760209160051b010190565b634e487b7160e01b600052603260045260246000fd5b92939490919460e08401519060408201519061336d613355602061012089015101516146ec565b936020815191015181811060001461353b57906132f7565b9761337789613c0c565b986133856040519a8b61243f565b808a52613394601f1991613c0c565b0160005b818110613bf4575050839460005b8a516000198101908111612c32578110156134485760018060a01b0388166000526012602052604060002090602060e08b0151015191600183018311612c325761342d828e61343e936133ff8360016134439901612c7b565b6000526020526134126040600020614a42565b61341c8383613304565b526134278282613304565b50613304565b5160206101208d015101519061459a565b612c48565b6133a6565b5090929496979591939560206101008a015101518a5180600019810111612c32579798919761348a9161347f60001983018e613304565b52600019018b613304565b506000975b8a51891015613542576134af60806134a78b8e613304565b5101516159ab565b9660008882039812818912811691891390151617612c32576134d660a06134a78b8e613304565b9660008882039812818912811691891390151617612c325761351661351c926135086135028c8f613304565b516146ec565b8181101561353b57906132f7565b906132f7565b9561353361352d6135028a8d613304565b98612c48565b97909661348f565b50806132f7565b905084999598929693975093909381613a7a575b50613a68576060810151956135726080830197885151906132f7565b956040830196610220885101511115613a575760208301996101a08b510151151580613a33575b613a215760026135b9602061010087015151015160e08b51015190615b8c565b1480613a0c575b6139fa576135d760206101008601510151846141e6565b1580156139e0575b6139ce576139c2576001600160a01b0390811633811415918261392d575b5050806138f5575b6138e35760c08201516136246020825192015160a08c51015190612c7b565b1080156138c1575b6138af5761364888602061012085015101518951895191614832565b156136915760005b85516000198101908111612c32578110156136a35761367e896136738389613304565b518a518a5191614832565b156136915761368c90612c48565b613650565b60405163a8e7d40960e01b8152600490fd5b5093909491959792978151916000198301928311612c325761136b6136ce6136f8946136f293613304565b5192519285516000808d136000146138a957508b945b6101c0825192015192614867565b90615aa2565b1561389857608060e0850151015160206101208601510151511080613888575b613876576137278251846142c3565b908161385e575b81613838575b50613826576137449051826142c3565b91826137c2575b50816137a9575b5061379757600061376291615ac3565b159081613783575b5061377157565b60405163442145e560e01b8152600490fd5b6137909150600090615ac3565b153861376a565b6040516303fa425960e21b8152600490fd5b6137bb91506060815191015190615ac3565b1538613752565b61010091925001515160208101908151906137f260406137e86060840194855190612c7b565b9201518092615b8c565b15928315613805575b505050903861374b565b61381d9350906138159151612c7b565b905190615b8c565b153880806137fb565b60405163015f9ae760e41b8152600490fd5b613857915061010061384d8187015151614820565b9151015190615b8c565b1538613734565b905061386f600060e0850151615ac3565b159061372e565b60405163ba555da760e01b8152600490fd5b506138928361441b565b15613718565b604051621c56d560e31b8152600490fd5b946136e4565b60405163935bdc2160e01b8152600490fd5b5060e08201516138dd6020825192015160c08c51015190612c7b565b1061362c565b6040516302ded67360e51b8152600490fd5b506138ff8161441b565b80613925575b80613911575b15613605565b50600261391f600085615ac3565b1461390b565b508715613905565b6020919250600080516020615f9283398151915254169160446040518094819363131bac4760e11b835260048301523360248301525afa9081156139b65760009161397c575b501538806135fd565b906020823d6020116139ae575b816139966020938361243f565b8101031261012a57506139a890612617565b38613973565b3d9150613989565b6040513d6000823e3d90fd5b50505050945050505050565b60405163229a307760e21b8152600490fd5b506139f460206101208601510151846141e6565b156135df565b60405163376a1ec760e11b8152600490fd5b506002613a1b60008551615ac3565b146135c0565b604051630a6ad31160e21b8152600490fd5b506002613a4260008551615ac3565b14806135995750613a52836141b2565b613599565b60405162558f1d60e91b8152600490fd5b6040516329a7bff360e11b8152600490fd5b1580159150613bb8575b8015613afd575b8015613a98575b38613556565b50855160208701519060008282019283129112908015821691151617612c325760408701519060008282019283129112908015821691151617612c32576000613ae091615ac3565b60028114908115613af2575b50613a92565b600191501438613aec565b50613b12608082015160408301519088614365565b6000546040516370a0823160e01b815230600482015290602090829060249082906001600160a01b03165afa9081156139b657600091613b84575b50613b779164e8d4a51000613b719204808210600014613b7d57505b6000196159d4565b83615ac3565b15613a8b565b9050613b69565b906020823d602011613bb0575b81613b9e6020938361243f565b8101031261012a575051613b77613b4d565b3d9150613b91565b506020610120820151015160808201516040830151848a0391600086128b84128116908c851390151617612c3257613bef93614832565b613a84565b808b60208093613c02612aac565b9201015201613398565b6001600160401b0381116124625760051b60200190565b919082606091031261036857604051613c3d60608261243f565b6040612af6818395805185526020810151602086015201612617565b9190613c63612a8b565b5051613c6d612a8b565b50600254604051630e0886f960e41b81526004810192909252606090829060249082906001600160a01b03165afa9081156139b657600091613cd4575b50613cb481613d0d565b8092604082015115613cc4575050565b60e060c060209201510151910152565b60603d8111613d06575b613ce8818361243f565b81019160608284031261012a575090613d0091613c23565b38613caa565b503d613cde565b6003546001600160a01b03169081613d23575050565b6020016020815160246040518095819363d7c7a93560e01b835260048301525afa9182156139b657600092613d56575052565b90916020823d8211613d7e575b81613d706020938361243f565b8101031261012a5750519052565b3d9150613d63565b613d8e612afb565b5060018154910154604051613da460408261243f565b8160e01b60e01d81528160c81b60e81d602082015260405192613dc96101008561243f565b63ffffffff80821685528160201c16602085015265ffffffffffff808260401c166040860152808260701c1660608601528160a01c16608085015260d01c60a084015260c083015260881b60c01d60e082015290565b91909163ffffffff9081845111613fe9576020918285019281845111613fe9576040918287019260029365ffffffffffff9185613e5d848451615b8c565b14613fd95760608a019086613e73858451615b8c565b14613fd95760808b019287613e89868651615b8c565b14613fc85787613e9e60a08e01968751615b8c565b14613fc85760c08c019988613eb9637fffffff8d5151615ac3565b14613fb757613ecf637fffffff198c5151615ac3565b15613fb75788613ee6627fffff8a8e510151615ac3565b14613fb757613efd627fffff19898d510151615ac3565b15613fb75760e08d0198613f18600180603f1b038b51615ac3565b14613fb7578851613f329060016001603f1b031990615ac3565b15613fb7578660019b9c9d51169063ffffffff60201b9051891b16179165ffffffffffff60401b9151901b16179065ffffffffffff60701b905160701b16179065ffffffffffff60a01b905160a01b1617905160d01b17955190815116918062ffffff60201b920151901b1617908360381b8460781b03905160381b16179281550155565b8251632142bc2760e01b8152600490fd5b8151632142bc2760e01b8152600490fd5b51632142bc2760e01b8152600490fd5b604051632142bc2760e01b8152600490fd5b815191604060208201519101516040830152602082015252565b919215908115614035575b5061402e5760800152600190565b5050600090565b9050608082015190511038614020565b61404d612be2565b50546040519061405e60a08361243f565b63ffffffff908181168352818160201c1660208401528060801b60c01d604084015260018060401b038160801c16606084015260c01c16608082015290565b9063ffffffff808251116141a05760208201818151116141a0576040908184019060026140d1600180603f1b038451615ac3565b1461418f5781516140eb9060016001603f1b031990615ac3565b1561418f576060850193600261410860018060401b038751615b8c565b1461417e5760808601958187511161416d5751915192519451955160c01b63ffffffff60c01b1660809690961b600160801b600160c01b03169490931b600160401b600160801b031660209290921b63ffffffff60201b169216919091171717179055565b845163320f423b60e21b8152600490fd5b835163320f423b60e21b8152600490fd5b825163320f423b60e21b8152600490fd5b60405163320f423b60e21b8152600490fd5b60026141c360006020840151615ac3565b149081156141cf575090565b60029150600060406141e2920151615ac3565b1490565b805115918291826142b6575b836142a9575b8361429c575b8315614258575b8315614212575b50505090565b604001511592509082614250575b5081614243575b81614236575b5038808061420c565b602091500151153861422d565b6060810151159150614227565b915038614220565b925060208301511580614290575b80614284575b80614278575b92614205565b50606081015115614272565b5060408101511561426c565b50604083015115614266565b60408201511593506141fe565b60208201511593506141f8565b60208101511593506141f2565b906101a0810151159182614325575b826142dc57505090565b60208101511592509082614318575b821561430a575b5081156142fd575090565b61430791506141b2565b90565b6101600151159150386142f2565b60408201511592506142eb565b809250518015908115614357575b8115614341575b50916142d2565b60029150600061435091615ac3565b143861433a565b610180830151159150614333565b614388906116b460406116ac61437b8451615f40565b6116b46020860151615f40565b908115614413576143dd60206143be61168b936143b261014096620f424096879586940151615f40565b04602087015190615ae0565b046101e085015180821160001461440c57505b61012085015190615ae0565b046101608301518082106000146144045750915b0151808211156143ff575090565b905090565b9050916143f1565b90506143d1565b505050600090565b614431906116b460406116ac61437b8451615f40565b1590565b8151916020810151906060604082015191015160608401526040830152602082015252565b60c06000918260808201528260a08201520152565b61010081015191825192602083019161448883516159ab565b93602082019461449886516159ab565b968782039160008099128184128116918413901516176110395787828201928312911290801582169115161761104d578352602083019586519360408301976144e189516159ab565b9060408601966144f188516159ab565b9285848203941281851281169185139015161761458657848382019384129112908015821691151617610e7a5790604092915201946060865193019561453787516159ab565b90606086019461454786516159ab565b9285848203941281851281169185139015161761458657848382019384129112908015821691151617610e7a5752519651945160809390930152525252565b634e487b7160e01b85526011600452602485fd5b906101008091015190820151916145af612a8b565b9180518451908181039060008093128183128116918313901516176132d05784526020820151916020860151928284820394128185128116918513901516176132d05760408091602087019485520151950151948186820396128187128116918713901516176132bc5760408401948552602083019361462f85516159ab565b9051908282820192831291129080158216911516176132d05761465190615b0d565b94604084019261466184516159ab565b905190838282019283129112908015821691151617611cbc57614685606091615b0d565b94019161469283516159ab565b9151918183820193841291129080158216911516176132bc57506146b590615b0d565b90525252565b60a06146e891608081016146d6815161010087015190612c7b565b90520191610120835191015190612c7b565b9052565b6020604082015160608301518082116000146144045750910151808211156143ff575090565b61472c606061472460408401516159ab565b9201516159ab565b9060008282039212818312811691831390151617612c325761430790615f40565b90614757826147bb565b6000929061476757505050600090565b61477460408201516159ab565b9261478260608301516159ab565b938185820395128186128116918613901516176132bc5750620f42406147b561136b6143079594612da8611584956147bb565b92612c0f565b606060408201519101518082116000146143ff575090565b6147f8906147f26147e3826147bb565b916116b4602082015191614808565b90615b71565b620f4240808210156143ff575090565b606060408201519101518082106000146143ff575090565b6147f8906147f26020820151916147bb565b61136b906136f2929361430795600080821360001461485f5750945b6101e0602083015192015192614867565b90509461484e565b9091614872826146ec565b1561273f5760209261489a6148896148a0946146ec565b61168b620f42409687940151615f40565b04615ae0565b0490808211156143ff575090565b6148b6612aac565b506001815491015490604051906148ce60608361243f565b8260801b60c01d82528260401b60c01d60208301528260c01d6040830152604051926148fc6101208561243f565b63ffffffff8216845260018060401b0380911660208501528160801c1660408401528060c01c606084015265ffffffffffff90818160201c16608085015260501c1660a0830152600060c0830152600060e083015261010082015290565b9061496481614c32565b602081019060018060401b0391600261497e848351615b8c565b14614a305760408201926002614995828651615b8c565b14614a3057606083019060026149ac828451615b8c565b14614a305760019461010060409263ffffffff87511665ffffffffffff60201b608089015160201b161765ffffffffffff60501b60a089015160501b16178860801b8960c01b0380945160801b161794519551169501519486831b8760801b038651841b161790602086015160801b16179301519160c01b17845560c01b17910155565b6040516352a8a97f60e01b8152600490fd5b614a4a612aac565b50805460019091015460016001603e1b03600282901c1691600382169181600084614b1d5750845b600060018603614b17575080945b600090600203614b1057505b604090815195614a9d60608861243f565b60c0948060801b861d885280841b861d6020890152851d83880152825197614ac76101208a61243f565b63ffffffff85168952602089015282880152606087015265ffffffffffff808360201c1660808801528260501c1660a08701521b811d818501521d60e083015261010082015290565b9050614a8c565b94614a80565b94614a72565b614b2c82614c32565b600180603e1b03906002614b44836020860151615b8c565b14614a305760408301916002614b5b828551615b8c565b14614a30576002614b7160608601928351615b8c565b14614a30576001925115600014614c2a5751614c235760005b925b604063ffffffff82511665ffffffffffff60201b608084015160201b161765ffffffffffff60501b60a084015160501b16178460801b8560c01b03908160c085015160801b161760e084015160c01b1795610100600487851b03614bef866146ec565b60021b1694015193600387851b8860801b038651861b169216171790602084015160801b161791015160c01b179281550155565b6002614b8a565b508192614b8c565b63ffffffff815111614a3057600265ffffffffffff81614c56826080860151615b8c565b14614a3057614c6a829160a0850151615b8c565b14614a305760c0820190600180603f1b039281614c88858551615ac3565b14614a3057915160016001603f1b03199290614ca5908490615ac3565b15614a305760e0810182614cba868351615ac3565b14614a305783614cca9151615ac3565b15614a3057610100019281614ce182865151615ac3565b14614a3057614cf283855151615ac3565b15614a305781614d0782602087510151615ac3565b14614a3057614d1b83602086510151615ac3565b15614a3057614d2f90604085510151615ac3565b14614a30576040614d4292510151615ac3565b15614a3057565b9593949297969060405198614d606102008b61243f565b60008a52600060208b0152600060408b0152600060608b0152600060808b0152600060a08b0152600060c08b0152600060e08b015260006101008b015260006101208b015260006101408b015260006101608b015260006101808b015260006101a08b015260006101c08b015260006101e08b015289604086015115158952614deb8783878c6156e8565b919082602083015281526101a08801516156da57505060c0614e0b612872565b920151614e246101a0850151926102008601519061474d565b8851928751620f4240614e3f8c61168b60206116ac8d615783565b0484614e7a614e69620f42406115848a614e6483614e6460208951990151938b6132f7565b612c0f565b611584620f42406147b588516159ab565b8080830112801560008412169060008412151617612c3257614ebf614ea0828401615a82565b6020870151614eb0848601615f40565b808210156156d25750906159d4565b94614ed2614ecd8a876132f7565b615b30565b90828401848103818112600087129081169290911390151617612c32576002614f096020614eff87615f40565b9301518093615b8c565b0361569157506000925b828101810361561f575050505081620f4240810204620f42401482151715612c3257620f42408202955b855190848083011260008312908015821691151617612c325780620f4240810204620f42401481151715612c32578288614f949387620f4240614f8295029101615b9d565b611584620f42406147b5816002612c0f565b9582620f4240810204620f42401483151715612c3257620f4240614fba93029084615b9d565b92848085011260008512908015821691151617612c325761503d94614f8294620f4240946020846150319661502996520152818101916102408a01511515806155f8575b6155d3575b50506150198461158483614e6483600019612c0f565b8160408901526020880152615f40565b895190615ae0565b048060608501526159ab565b9060208101519061505160608201516159ab565b90600082128383810312811690848481031390151617612c325783808385030112600083850312908015821691151617612c3257604081015180858103126000861216818681031360008712151617612c325784808b948a968a98850360408701520301602084015260026150cf6040880151606089015190615b8c565b14615584575b50508b8a60026150ee6060880151604089015190615b8c565b1461552f575b651cae8c13e0009561168b614ecd620f4240976151ce6151d4986151da9c9860408c9961515e60608b615136602061489a9e01518d60208951910151916158f5565b61514d858201518d8760208a0151910151916158f5565b01518385015160608c0151916158f5565b82519260208101519060608482015191015160a08401526080830152606082015201526151c4610180896151ba61519e60408b015160608c015190612c7b565b60208b01518082101561552857505b61168b6020870151615f40565b049a0151966147d3565b9051925195615c22565b936132f7565b04615b52565b620f42406151ec602086015183615ae0565b046151f6836147bb565b61550057615203826159ab565b9061520d836159ab565b92600083128484810312811690858581031390151617612c3257620f424061158461523e61136b8561526c956132f7565b956152588361158461525282600019612c0f565b89612c0f565b9561526584600019612c0f565b9103612c0f565b9061528160208a0151856020880151916158f5565b61529560408a0151846040880151916158f5565b6152a960608a0151836060880151916158f5565b6101208b01526101008a015260e089015260c08801526020820151602085015190600082128183810312811690828481031390151617612c3257611584620f424091615318936152656153056020880151606089015190612c7b565b6040880151808210156154f957506159ab565b6020850151602084015190600082128183810312811690828481031390151617612c3257611584620f4240916153719361526561535e602089015160408a015190612c7b565b6060890151808210156154f957506159ab565b90818082011260008212908015821691151617612c32576153a6620f424061158461539e82600019612c0f565b858501612c0f565b916153bb6040890151836040870151916158f5565b6153cf6060890151826060870151916158f5565b6153e36020890151846020870151916158f5565b6101808a015261016089015261014088015260009461540d614ecd600096600095519051906132f7565b9360208301516154ca575b604083015161549a575b6060830151615465575b50505090506101e08501526101c08401526101a0830152614307615459602084015160a085015190612c7b565b61012084015190612c7b565b6154919350620f424061548260c096610120606094015190615ae0565b04948592015192015191615994565b8038808061542c565b9450620f42406154af61010087015186615ae0565b04946154c560a083015187604086015191615994565b615422565b9550620f42406154de60e088015186615ae0565b04956154f4608083015188602086015191615994565b615418565b90506159ab565b61520361136b604085015161552361551c606088015183612c7b565b9186615ae0565b615b48565b90506151ad565b505092505050615550620f42406115846020840151611ba861136b88615748565b8082526020820151600082128183810312811690828481031390151617612c32570360208201528290849087908b8a6150f4565b61559f9450620f4240935061526561136b6115849497615748565b8082526040820151600082128183810312811690828481031390151617612c325784928692899203604082015238806150d5565b6155f192508591611584916155ea84600019612c0f565b9101612c0f565b3880615003565b508a615618615613600061560d858701615a82565b9361474d565b615a82565b1415614ffe565b89620f4240810204620f4240148a151715612c325761565c9361564b8261565195615523940103615f40565b92615ae0565b620f42408802612c7b565b82620f4240810204620f42401483151715612c3257620f42408302811015615685575b95614f3d565b50620f4240820261567f565b6156a7906156a28585810103615a82565b6159d4565b80848103126000851216818581031360008612151617612c3257836156cc9103615f40565b92614f13565b9050906159d4565b9a5098975050505050505050565b939192906020019081511561573957906020615722620f424061571960806040615737970151980197885190615ae0565b048096516132f7565b9501519061572f866159ab565b9051916158f5565b565b50509150608001519060009190565b61575181615783565b61575b5750600090565b8061577d61577761576e61430794615783565b61351684614808565b91615783565b90615b52565b6157a461578f826147bb565b91602061579b82614808565b91015190612c7b565b808210156143ff575090565b6157b8612b52565b5060018154910154604080516020916157d1838361243f565b8460b81b60c01d825280516157e6848261243f565b8560781b60c01d81528151916157fc858461243f565b8660381b60c01d8352805193615812868661243f565b6001600160401b0387811686528251969061582d828961243f565b8089851c168852835198615841838b61243f565b60801c16885260ff83519961585760e08c61243f565b16151589528801528601526060850152608084015260a083015260c082015290565b519051808203929160009091128015828513169184121617612c32576000196158a183615a82565b036158e15761430791611ba86158b6926159ab565b611ba86158c282615a82565b6158dc6158d6620f424092611ba884615a82565b93615f40565b615a33565b61158461430792611ba8620f4240936159ab565b9091821561598f5781519261590981615a82565b916000198303615974576114b26114b261592561592f936159ab565b94611ba886615a82565b91620f424090818102918183041490151715612c32576159589261595291615a33565b906159d4565b915b60008382019384129112908015821691151617612c325752565b6159899250620f42406147b5611584926159ab565b9161595a565b505050565b9190801561598f576116b46146e892845192615b52565b6001600160ff1b0381116159bc5790565b6024906040519063eecaa25d60e01b82526004820152fd5b600081136159f8576000136159e95750600090565b6159f2906159ab565b60000390565b50614307906159ab565b8115615a1d57600160ff1b8114600019831416612c32570590565b634e487b7160e01b600052601260045260246000fd5b908015615a705760009180615a4a57505050600090565b6000198101908111611cbc5790615a6091615b48565b90600182018092116132bc575090565b6040516323d359a360e01b8152600490fd5b60008113615a9c57600013615a9657600090565b60001990565b50600190565b90615aac91615ac3565b60028114908115615abb575090565b600191501490565b818113615ad95712615ad457600190565b600090565b5050600290565b81810292918115918404141715612c3257565b64e8d4a5100090818102918183041490151715612c325790565b60008112615b185790565b6024906040519063b02ef08760e01b82526004820152fd5b620f424090818102918183041490151715612c325790565b8115615a1d570490565b90620f424091828102928184041490151715612c325761430791615b48565b9080615b835750615a9657620f424090565b61430791615b52565b818111615ad95710615ad457600190565b6115849161158461430795611ba8615bca61136b97611584615bd097611ba8620f42409b8c998a956132f7565b916159ab565b916147b5816301e13380612c0f565b60405163a9059cbb60e01b60208201526001600160a01b039283166024820152604480820194909452928352615737929190615c1c60648461243f565b16615d54565b90606082018051615c338184615b8c565b15615c6f5750620f424090615c488284615b8c565b15615c57575050506020015190565b90614307939151916020604082015191015192615c80565b839150604061430794519201519160005b90615c91615c9791959394956159ab565b946159ab565b92615ca28284615b8c565b158015615d26575b615d145781615cb8916132f7565b90848403926000948587128186128116918613901516176145865792611ba861136b620f424094615cef61158495615cf4986132f7565b615b52565b8183820193841291129080158216911516176132bc575061430790615b0d565b604051634a83a53f60e01b8152600490fd5b506002615d338285615b8c565b14615caa565b6001600160401b03811161246257601f01601f191660200190565b60209190615dde906001600160a01b0316615d6e84615d39565b90615d7c604051928361243f565b8482527f5361666545524332303a206c6f772d6c6576656c2063616c6c206661696c6564858301526000808587829751910182855af13d15615e68573d91615dc383615d39565b92615dd1604051948561243f565b83523d868885013e615e6c565b90815180615ded575b50505050565b8284918101031261012a575081615e049101612617565b15615e1157808080615de7565b6084906040519062461bcd60e51b82526004820152602a60248201527f5361666545524332303a204552433230206f7065726174696f6e20646964206e6044820152691bdd081cdd58d8d9595960b21b6064820152fd5b6060915b91929015615ece5750815115615e80575090565b3b15615e895790565b60405162461bcd60e51b815260206004820152601d60248201527f416464726573733a2063616c6c20746f206e6f6e2d636f6e74726163740000006044820152606490fd5b825190915015615ee15750805190602001fd5b6040519062461bcd60e51b82528160208060048301528251908160248401526000935b828510615f27575050604492506000838284010152601f80199101168101030190fd5b8481018201518686016044015293810193859350615f04565b6000808212615f4d575090565b039056fef12be1637c87b6840bce6a43024d842fdde312893b5711402d511dc296b61fc6a9c835c21e93a672e5a6ef8ca0374f90b7d4378f7eec5769dcf22fdefd60ffae0aec74a1754fb10877b53c31a29be82096082042eb1fb374ec96fac88c0e621ba264697066735822122059011fbcce69a991cb69911107c882e886e71704b43fc9cc08ae2faa9a2659b064736f6c63430008130033",
  "deployedBytecode": "0x6080604052600436101561001257600080fd5b6000803560e01c806309218e9114612418578063228cb733146123ef5780633934fe36146121215780634549a6291461209757806355f575101461204f5780635b4b969514611fd7578063632447c914611ebf5780637dc0d1d014611e9657806387aee00e14611e1657806391eece2814610b4c57806395fcd83614610b2357806399d32fc41461099c578063a05f99061461091b578063a1d0a113146108e7578063ad4d4e2914610842578063b329230e14610434578063b88a802f146103a3578063c45a01551461036d578063ce813aed14610294578063d26b3e261461012d5763fc0c546a1461010457600080fd5b3461012a578060031936011261012a57546040516001600160a01b039091168152602090f35b80fd5b503461012a57606036600319011261012a577f6fee9688c285c5c5c97d6a1a29adced674e6b2ad0888b8ad2116b58a8b3ea24860018154101561027b5760019055303b151580610274575b61025b5733600080516020615f9283398151915255303b15158061026d575b61025b576001600080516020615f72833981519152556001600160a01b03600435818116908190036102535782546001600160a01b031990811690911783556024358281169081900361025757816002541617600255604435918216809203610253576003541617600355807f2801b00eb06461cf9fcb9758b5fafd884ff06a86177386f73b6c49f0bf5a5af0557fbe9b076dc5b65990cca9dd9d7366682482e7817a6f6bc7f4faf4dc32af497f32602060405160018152a180f35b8280fd5b8380fd5b60405163b9a621e160e01b8152600490fd5b5080610197565b5080610178565b604051631edb9c6d60e11b815260016004820152602490fd5b503461012a57604036600319011261012a576004356001600160a01b03811691908290036103685760406102e791610364936102ce612aac565b5081526012602052818120602435825260205220614a42565b60405191829182919091610140604061016083019480518452602081015160208501528181015182850152606081015160608501526080810151608085015260a081015160a085015260c081015160c085015260e081015160e0850152610100809101519081519085015260208101516101208501520151910152565b0390f35b600080fd5b503461012a578060031936011261012a57600080516020615f92833981519152546040516001600160a01b039091168152602090f35b503461012a578060031936011261012a5733815260106020526104316103cb60408320614045565b8260018060a01b03600154166103f160608401916103e98351615af3565b903390615bdf565b80516040519081527f106f923f993c2149d49b4255ff723acafa1f2d94393f561d3eda32ae348f724160203392a25233835260106020526040832061409d565b80f35b503461012a576102e036600319011261012a576040516104566102608261243f565b6004358152602435602082015260443560408201526064356060820152608435608082015260a43560a082015260c43560c082015260e43560e082015261010435610100820152610124356101208201526101443561014082015261016435610160820152608061018319360112610764576040516104d660808261243f565b6101843581526101a43560208201526101c43560408201526101e43560608201526101808201526040610203193601126107645760405161051860408261243f565b6102043581526102243560208201526101a0820152610244356101c0820152610264356101e0820152610284356102008201526102a4356102208201526102c43515156102c43503610368576102c4356102408201526005546001600160a01b0316331415806107b4575b6107a257600080516020615f928339815191525460405163ad4d4e2960e01b8152839160e090829060049082906001600160a01b03165afa908115610768578291610773575b5073__$f0b9cef6bb3cbdd03cb6172b8c4e9f952f$__3b15610764576106f0604051916302903c7960e21b83526006600484015284516024840152602085015160448401526040850151606484015260608501516084840152608085015160a484015260a085015160c484015260c085015160e484015260e085015161010484015261010085015161012484015261012085015161014484015261014085015161016484015261016085015161018484015261068f6101808601516101a4850190612478565b60206101a0860151805161022486015201516102448401526101c08501516102648401526101e08501516102848401526102008501516102a48401526102208501516102c484015261024085015115156102e484015261030483019061269f565b81816103e48173__$f0b9cef6bb3cbdd03cb6172b8c4e9f952f$__5af480156107685761074f575b506040517f823c5e592916c45a8b43a655f22eb029f79dfd3c63f6d122df594aaf83e09b029080610749858261249b565b0390a180f35b816107599161243f565b610764578138610718565b5080fd5b6040513d84823e3d90fd5b610795915060e03d60e01161079b575b61078d818361243f565b810190612643565b386105c9565b503d610783565b604051639bca062560e01b8152600490fd5b50600080516020615f9283398151915254604051638da5cb5b60e01b815290602090829060049082906001600160a01b03165afa908115610837578391610808575b506001600160a01b0316331415610583565b61082a915060203d602011610830575b610822818361243f565b810190612624565b386107f6565b503d610818565b6040513d85823e3d90fd5b503461012a578060031936011261012a5761085b612748565b506040516338ecab9f60e21b8152600960048201526101c09190828160248173__$c5b758809b18b7c9fcabb156ae018568b0$__5af49182156108db57916108ae575b506108ac6040518092612584565bf35b6108ce9150823d84116108d4575b6108c6818361243f565b8101906127b3565b3861089e565b503d6108bc565b604051903d90823e3d90fd5b503461012a57602036600319011261012a576102e760406103649261090a612aac565b506004358152600f602052206148ae565b503461012a578060031936011261012a57610934612afb565b50610120610942600b613d86565b60e060405191805183526020810151602084015260408101516040840152606081015160608401526080810151608084015260a081015160a0840152602060c0820151805160c08601520151828401520151610100820152f35b503461012a578060031936011261012a576109b7600b613d86565b600080516020615f928339815191528054604051638da5cb5b60e01b81526001600160a01b0393928592602092908390829060049082908a165afa8015610b185760049285889286948291610afb575b50610a1860408a01918251906126e0565b610af3575b5050541660405192838092630c7f7fb960e41b82525afa918215610837578392610ab8575b5050928161043194610a5c606086019184835191166126e0565b610ab0575b508160055416610a7760808601918251906126e0565b610aa8575b505060045416610a9260a08401918251906126e0565b610aa0575b5050600b613e1f565b528238610a97565b528138610a7c565b528138610a61565b90809250813d8311610aec575b610acf818361243f565b810103126107645751928084168403610764579281610431610a42565b503d610ac5565b528538610a1d565b610b129150853d871161083057610822818361243f565b38610a07565b6040513d86823e3d90fd5b503461012a578060031936011261012a576003546040516001600160a01b039091168152602090f35b503461012a5760c036600319011261012a576004356001600160a01b03811690036103685760a435151560a43503610368576002600080516020615f728339815191525414611e04576002600080516020615f7283398151915255600080516020615f9283398151915254604051635c975abb60e01b81526001600160a01b0390911690602081600481855afa908115610837578391611dca575b50611db857600460e060405192610c006101408561243f565b604051610c0d838261243f565b8581528560208201528560408201528560608201528560808201528560a08201528560c08201528452610c3e612748565b6020850152610c4b612899565b6040850152846060850152610c5e612a8b565b6080850152610c6b612a8b565b60a0850152610c78612afb565b60c0850152610c85612be2565b82850152610c91612c57565b610100850152610c9f612c57565b6101208501526040519283809263ad4d4e29851b82525afa908115610837578391611d99575b5081526040516338ecab9f60e21b8152600960048201526101c08160248173__$c5b758809b18b7c9fcabb156ae018568b0$__5af4908115610837578391611d78575b506020820152604051635da3780d60e01b8152600660048201526102e08160248173__$f0b9cef6bb3cbdd03cb6172b8c4e9f952f$__5af4908115610837578391611d47575b506040820152610d5e600b613d86565b60c08201526004356001600160a01b03168252601060205260408220610d8390614045565b60e0820152610d90612a8b565b50600254604051631006976960e11b815290608090829060049082906001600160a01b03165afa80156108375783918491611d05575b50610dd082613d0d565b60608301526080820152610ded610de7600d6148ae565b82613c59565b60a0820152610dfc600d6148ae565b610120820151526004356001600160a01b03168252601160205260408220610e2390614a42565b60206101208301510152610e35612aac565b905b60c081015160208151910151809114159081611cd0575b5015610e8e57602060c08201510151600181018111610e7a57826001610e75920183612c88565b610e37565b634e487b7160e01b84526011600452602484fd5b91905b60e083015160208151910151141580611c6b575b15611075576004356001600160a01b0316825260126020908152604080842060e086810151840151865292528320610edc90614a42565b015192602060e08201510151600181018111610e7a57826001610f0392016004358461305f565b60018060a01b03600435168352601260205260408320602060e083015101518452602052610f3360408420614a42565b60018060a01b0360043516845260126020526040842060e0830151518552602052610f6060408520614a42565b9460e0604081850151015196015195858212878381031281169088848103139015161761106157818703868112801591830383811392909216918313161761106157610faf60808601516159ab565b908288038103878112801591840184139182169115161761104d57610fd760a08701516159ab565b928089038203830188811280159186018613918216911516176110395761103295969798039003010160c082015260018060a01b03600435168552601260205260408520602060e08501510151865260205260408520614b23565b9190610e91565b634e487b7160e01b88526011600452602488fd5b634e487b7160e01b87526011600452602487fd5b634e487b7160e01b86526011600452602486fd5b5090608081015151610120820151515110611c1b575b608081015151602061012083015101515110611bb4575b60e060c082015101516020608083015101526110c561012082015151600d61495a565b6004356001600160a01b031682526011602090815260408320610120830151909101516110f191614b23565b60443590606435608435602435611106612c57565b60c0850151518752600f60205261111f604088206148ae565b815260018060a01b0360043516875260126020526040872060e08601515188526020526111b261010061115460408a20614a42565b6020840190815261116d84516101208a0151519061459a565b611182815160206101208b015101519061459a565b61119a8285510151836101208b015151015190613ffb565b51015161010060206101208901510151015190613ffb565b61010085015260016111c8600160ff1b84615ac3565b14611b86575b60016111dc60001983615b8c565b14611b73575b60016111f060001987615b8c565b14611b5e575b600161120460001985615b8c565b14611b49575b6060840151602061010086015101515110611b21575b6060840151610100850151515110611afc575b60206101008501510151926060850151604051946112536101408761243f565b8886528860208701528860408701528860608701528860808701528860a08701528860c08701528860e08701528861010087015288610120870152611297846159ab565b6112a460208301516159ab565b908a82128183810312811690828481031390151617611ae8576112c68a6159ab565b6112d360408501516159ab565b908c82128183810312811690828481031390151617611a7a578c6112f6886159ab565b61130360608801516159ab565b9182128183810312811690828481031390151617611ac0570360408b0152036020890152038652826060820152876040820152836020820152526101008501515160608601519061020060408801510161135e81518361474d565b9261137061136b84614712565b6159ab565b61137c61136b85614820565b61138861136b866147d3565b60c08b015260e08a015260608901526113a460208401516159ab565b88519081808201128d8212908015821691151617611a7a576113c69101615b0d565b6113d360408501516159ab565b60208a0151908d8280830112908212908015821691151617611ad4576113f99101615b0d565b8c61140760608701516159ab565b60408c0151918280830112908212908015821691151617611ac05761142c9101615b0d565b606086015260408501526020840152825261144961136b83614712565b916060880151938b85128486810312811690858781031390151617611a975761147383518361474d565b8c82128183810312811690828481031390151617611a7a5761136b6114b261136b6114ad6114a5866114b89603615f40565b97518761474d565b615f40565b92615f40565b918c83128284810312811690838581031390151617611a7a57806114df61136b8f93614820565b9060e08c01519283128284810312811690838581031390151617611ac05761150b8f9161136b906147d3565b60c08d01519182128183810312811690828481031390151617611aab570360c08c01520360e08a01520360a088015260808701520360608501526080850151602086015190604087015161156260a08201516159ab565b611589620f424061158461157960c08601516159ab565b60c08c015190612c0f565b615a02565b9081808201128c8212908015821691151617611a97578b82820113600014611a8e5701905b6115bb60408201516159ab565b906115dc620f42406115d6606084015160808d015190615ae0565b046159ab565b9081808401128d8412908015821691151617611a7a57620f424061158461160960806116149401516159ab565b60a08d015190612c0f565b91828083830101128d83830112908015821691151617611a7a5761168b620f42406116918f9761168b6116ba8f99611698869a9161168b886116c89f8f9c61167e6116c19f97849860209385611691965080848484010113600014611a70575001019e5b51615f40565b99019861168b8a51615f40565b90615ae0565b0491615b0d565b04996116b460406116ac6020840151615f40565b920151615f40565b90612c7b565b9151615f40565b0490612c7b565b6101a082015115611a6b5750875b6101008601526116e58561441b565b15611a615750865b61012085015261170684602061010088015101516146bb565b61171684610100870151516146bb565b604060e08601510180518480820112898212908015821691151617611a4d578401905260e0602061010087015101510180518480820112898212908015821691151617611a4d578401905261178360e0860151602061012088015101519060a43591606089015191614015565b9561178d8561441b565b156119e1575b6117a56119509785876004358a61332e565b60c0860151518852600f6020526117c660408920610100880151519061495a565b6004356001600160a01b03168852601260209081526040808a2060e0890151518b5282528920610100880151909101516117ff91614b23565b61180884615a82565b6001811461198a575b60001914611965575b60608601519260405193845260208401526040830152606082015281608082015260a435151560a082015260018060a01b0360043516907f29083474b417ce11b6e16e049302e231f5d3d753484fe3e8155ea0b7ffe4f3c160c03392a361012060608401519260405193845280516020850152602081015160408501526040810151606085015260608101516080850152608081015160a085015260a081015160c085015260c081015160e085015260e08101516101008501526101008101518285015201516101408301526101608201527fade6625fedfa1b9ae2563a494cd5a4627fcae900709f46272c3c702e53ad1dc961018060018060a01b036004351692a261192c60c0820151600b613e1f565b6004356001600160a01b0316835260106020526040832060e091909101519061409d565b6001600080516020615f728339815191525580f35b8754611985906001600160a01b03166103e961198087615f40565b615af3565b61181a565b88546119dc906001600160a01b03166119a561198088615f40565b90604051916323b872dd60e01b60208401523360248401523060448401526064830152606482526119d760848361243f565b615d54565b611811565b60025488906001600160a01b0316803b15610764576040516313e3c62160e11b8152600480356001600160a01b0316908201529082908290602490829084905af1801561076857611a34575b5050611793565b81611a3e9161243f565b611a49578738611a2d565b8780fd5b634e487b7160e01b89526011600452602489fd5b61014001516116ed565b6116d6565b925050509e611678565b634e487b7160e01b8d52601160045260248dfd5b505089906115ae565b634e487b7160e01b8c52601160045260248cfd5b50634e487b7160e01b8f52601160045260248ffd5b634e487b7160e01b8f52601160045260248ffd5b634e487b7160e01b8e52601160045260248efd5b634e487b7160e01b8b52601160045260248bfd5b60c0840151611b0b8151612c48565b9052611b1c6101008501515161445a565b611233565b60e0840151611b308151612c48565b9052611b446020610100860151015161445a565b611220565b6101008401516020015160600151925061120a565b610100840151602001516040015194506111f6565b50602080610100850151015101516111e2565b9050611bae604060e08501510151611584620f424091611ba883600019612c0f565b90612c0f565b906111ce565b60018060a01b03600435168252601260205260408220602060e083015101518352602052611c16611be760408420614a42565b611c04608084015182905190600060a08201526000608082015252565b602060e084015101516004358461305f565b6110a2565b602060c082015101518252600f602052611c66611c3a604084206148ae565b611c57608084015182905190600060a08201526000608082015252565b602060c0840151015183612c88565b61108b565b50506004356001600160a01b03168152601260209081526040822060e084015190910151600181018111611cbc576001018252602052611cad60408220614a42565b60808301515181511115610ea5565b634e487b7160e01b83526011600452602483fd5b91925050600181018111611cbc576001018252600f602052611cf4604083206148ae565b906080810151518251111538610e4e565b91505060803d608011611d40575b611d1d818361243f565b608082828101031261025757611d37606091830183613c23565b91015138610dc6565b503d611d13565b611d6b91506102e03d6102e011611d71575b611d63818361243f565b810190612944565b38610d4e565b503d611d59565b611d9391506101c03d6101c0116108d4576108c6818361243f565b38610d08565b611db2915060e03d60e01161079b5761078d818361243f565b38610cc5565b604051634b94d2bb60e01b8152600490fd5b90506020813d602011611dfc575b81611de56020938361243f565b8101031261025357611df690612617565b38610be7565b3d9150611dd8565b6040516345f6780960e11b8152600490fd5b503461012a57602036600319011261012a57611e49604060e092611e38612b52565b5060043581526013602052206157b0565b60c060405191805115158352602081015151602084015260408101515160408401526060810151516060840152608081015151608084015260a08101515160a084015201515160c0820152f35b503461012a578060031936011261012a576002546040516001600160a01b039091168152602090f35b503461012a57602036600319011261012a576004356001600160a01b0381811691829003610368576004602082600080516020615f92833981519152541660405192838092638da5cb5b60e01b82525afa8015610b185782918591611fb9575b50163303611fa1576001549080841681831603611f8f578354168214611f7d576001600160a01b03191681176001556040519081527ff0f334a92951c3f240a6d627261c6a075ab711edba3ce91573923831cbe4d4d190602090a180f35b60405163037df82360e11b8152600490fd5b60405163473b50fd60e01b8152600490fd5b604051634d193d1f60e01b8152336004820152602490fd5b611fd1915060203d811161083057610822818361243f565b38611f1f565b503461012a57602036600319011261012a576004356001600160a01b038116919082900361036857604061201e9160a093612010612be2565b508152601060205220614045565b6080604051918051835260208101516020840152604081015160408401526060810151606084015201516080820152f35b503461012a57602036600319011261012a576004356001600160a01b03811691908290036103685760406102e79161036493612089612aac565b508152601160205220614a42565b503461012a578060031936011261012a576120b0612899565b50604051635da3780d60e01b8152600660048201526102e090818160248173__$f0b9cef6bb3cbdd03cb6172b8c4e9f952f$__5af4918215610837576103649392612104575b50506040519182918261249b565b61211a9250803d10611d7157611d63818361243f565b38806120f6565b503461012a5761020036600319011261012a576001600160a01b03906004358281169081900361076457602435838116809103610253576101c091826043193601126102575760405194612175848761243f565b604435865260209060643582880152608435604088015260a435606088015260c435608088015260e43560a08801526101043560c08801526101243560e08801526101443561010088015261016435610120880152610184356101408801526101a43580151581036123eb576101608801526101c43580151581036123eb576101808801526101e49283358015158103611a49576101a089015281600080516020615f92833981519152541692604051638da5cb5b60e01b81528181600481885afa9081156123e0579084918a916123c3575b50163303611fa157856004967fc258faa9a17ddfdf4130b4acff63a289202e7d5f9e42f366add65368575486bc937feee59a71c694e68368a1cb0d135c448051bbfb12289e6c2223b0ceb100c2321d8460018060a01b03199280848d5416178c55604051908152a16005541617600555604051908152a160e073__$c5b758809b18b7c9fcabb156ae018568b0$__926040519586809263ad4d4e29851b82525afa9384156123b8578694612397575b5060015416813b1561239357859261233d94926102e49260405196879586946310317ba160e11b8652600960048701526123358d6024880190612584565b85019061269f565b6102c48301525af4801561083757612373575b50600080516020615f52833981519152919261236f6040518092612584565ba180f35b9161238d81600080516020615f528339815191529461243f565b91612350565b8580fd5b6123b191945060e03d60e01161079b5761078d818361243f565b92386122f7565b6040513d88823e3d90fd5b6123da9150833d851161083057610822818361243f565b38612248565b6040513d8b823e3d90fd5b8680fd5b503461012a578060031936011261012a576001546040516001600160a01b039091168152602090f35b503461012a578060031936011261012a57612431612aac565b506103646102e7600d6148ae565b601f909101601f19168101906001600160401b0382119082101761246257604052565b634e487b7160e01b600052604160045260246000fd5b606080918051845260208101516020850152604081015160408501520151910152565b9190916102c06102e0820193805183526020810151602084015260408101516040840152606081015160608401526080810151608084015260a081015160a084015260c081015160c084015260e081015160e084015261010080820151908401526101208082015190840152610140808201519084015261016080820151908401526125306101808083015190850190612478565b6101a08101519060208251926102009384870152015161022090818601526101c08201519261024093848701526101e08301516102608701528201516102808601528101516102a085015201511515910152565b805182526020810151602083015260408101516040830152606081015160608301526080810151608083015260a081015160a083015260c081015160c083015260e081015160e083015261010080820151908301526101208082015190830152610140808201519083015261016080820151151590830152610180808201511515908301526101a0809101511515910152565b5190811515820361036857565b9081602091031261036857516001600160a01b03811681036103685790565b908160e09103126103685760c06040519161265f60e08461243f565b805183526020810151602084015260408101516040840152606081015160608401526080810151608084015260a081015160a0840152015160c082015290565b60c08091805184526020810151602085015260408101516040850152606081015160608501526080810151608085015260a081015160a08501520151910152565b6001600160a01b03818116929091903384900361273f576127336020927f20ca5094f3a20c321cbe4123d0f01b276b81df0fa24cd4d83d9253956035d86394600054169061272d84615af3565b91615bdf565b604051908152a2600190565b50505050600090565b604051906127586101c08361243f565b816101a06000918281528260208201528260408201528260608201528260808201528260a08201528260c08201528260e082015282610100820152826101208201528261014082015282610160820152826101808201520152565b80916101c09283910312610368576127ce604051928361243f565b805182526020810151602083015260408101516040830152606081015160608301526080810151608083015260a081015160a083015260c081015160c083015260e081015160e0830152610100808201519083015261012080820151908301526101408082015190830152610160612847818301612617565b90830152610180612859818301612617565b9083015261286b6101a0809201612617565b9082015290565b6040519061288160808361243f565b60006060838281528260208201528260408201520152565b604051906128a96102608361243f565b816102406000918281528260208201528260408201528260608201528260808201528260a08201528260c08201528260e082015282610100820152826101208201528261014082015282610160820152612901612872565b61018082015260405161291560408261243f565b8381528360208201526101a0820152826101c0820152826101e082015282610200820152826102208201520152565b8091036102e0811261036857604080519261026090612963828661243f565b80518552602081015160208601528281015183860152606081015160608601526080810151608086015260a081015160a086015260c081015160c086015260e081015160e08601526101008082015190860152610120808201519086015261014080820151908601526101608082015190860152608061017f19850112610368578251936129f260808661243f565b61018093848301518652806101a0928385015160208901526101c09788860151838201526101e0978887015160608301528a01526101ff1901126103685761286b946102c094612a448351938461243f565b61020092838601518152610220948587015160208301528a01526102409788860151908a015284015190880152610280830151908701526102a08201519086015201612617565b60405190612a9a60608361243f565b60006040838281528260208201520152565b60405190612abc6101208361243f565b8160008082528060208301528060408301528060608301528060808301528060a08301528060c083015260e0820152610100612af6612a8b565b910152565b60405190612b0b6101008361243f565b8160e06000918281528260208201528260408201528260608201528260808201528260a0820152604051612b4060408261243f565b83815283602082015260c08201520152565b604090815191612b6360e08461243f565b60c0836000808252612bdc845194602095612b7e878261243f565b838152868501528051612b91878261243f565b838152818501528051612ba4878261243f565b83815260608501528051612bb8878261243f565b83815260808501528051612bcc878261243f565b83815260a085015251948561243f565b83520152565b60405190612bf160a08361243f565b60006080838281528260208201528260408201528260608201520152565b818102929160008212600160ff1b821416612c32578184051490151715612c3257565b634e487b7160e01b600052601160045260246000fd5b6000198114612c325760010190565b60405190612c6660408361243f565b81612c6f612aac565b81526020612af6612aac565b91908201809211612c3257565b9091610120820190612c9c8251518261459a565b815151516000526013602052612cb560406000206157b0565b91612cc08285613c59565b9060408201511561304e575b8051519160a083519685612d0a612d008960c08501518760208201519a86898901519160208a01519460408b015196614d49565b9290965151614435565b60c082015160e06020860151918c60208201520152612dc98360c08401516080828b0151612dad6020880151612d87612d54620f4240612d4c8c51518c615ae0565b04809a6132f7565b612d82620f4240612d7981612d6d606088015186615ae0565b04988996015184615ae0565b049687926132f7565b6132f7565b97612d9760408701918251612c7b565b9052612da860608601938451612c7b565b612c7b565b9052612dbe60808301918251612c7b565b905201918251612c7b565b90520152825160005260136020526040600020926002600180603f1b0381612df68260208a015151615ac3565b1461303c5760208701515160016001603f1b03199190612e17908390615ac3565b1561303c5782612e2c8260408b015151615ac3565b1461303c57612e408260408a015151615ac3565b1561303c57612e55839160608a015151615ac3565b1461303c57612e6990606088015151615ac3565b1561303c576080860151518190612e88906001600160401b0390615b8c565b1461303c5760a0860151518190612ea7906001600160401b0390615b8c565b1461303c5760c086015151612ec4906001600160401b0390615b8c565b1461303c57846001610240957fd67bab6cdd205804bd5c55f9eebe24e2d16bcd12950b9fab152e727ae331f7329751151560001461303557815b6101008360481b0360208501515160081b1660ff8460481b8560881b0360408701515160481b16921617178260881b8360c81b0360608501515160881b161792828060401b03608082015151168360401b8460801b0360a08301515160401b16179060c08460801b85821b039101515160801b1617928155015551956040519283526020830152805160408301526020810151606083015260408101516080830152606081015160a0830152608081015160c083015260a081015160e083015260c0810151610100908184015260e0820151610120840152810151906101409182840152610120810151916101609283850152810151916101809283850152810151916101a09283850152810151916101c09283850152810151916101e092838501528101516102008401520151610220820152a3565b6000612efe565b60405163693bbf3960e11b8152600490fd5b61305a8382515161446f565b612ccc565b919061012083019360209461307886825101518361459a565b81519060009182526013875260406130918184206157b0565b958651156132e4575b88835101519060e08251990151958a8701948551998b885260138d528c6130c2878a206157b0565b6130ca612872565b966130e2838501518484015194830194855191615879565b89850151906130fb8b850151928c850193845191615879565b908d8282019283129112908015821691151617611a7a5761312b6060870151606080870151950194855191615879565b908d8282019283129112908015821691151617611a7a57895260808501519360808401519051945190620f4240958692839251613167916132f7565b9061317191615ae0565b049160a08701519060a086015190519151905161318d916132f7565b9061319791615ae0565b046131a191612c7b565b9360c001519160c001519051915190516131ba916132f7565b906131c491615ae0565b046131ce91612c7b565b958c8501968752608083015198868601988a8a5260a08501519a606088019b808d526131f991612c7b565b613202906159ab565b908883019081518951908282820192831291129080158216911516176132d0578184820394128185128116918513901516176132bc57508f90948787957f537fc20b2c68750bd35f0521f860cddf4fc12323e0b41e684a2dac8ed0fcc1839f9d9b999760c09f9d9b99959661328e97606092520161328381518d5190612c7b565b905252510151614435565b5183519a8b529b8a015251908801525160608701525160808601525160a08501526001600160a01b031692a4565b634e487b7160e01b81526011600452602490fd5b634e487b7160e01b82526011600452602482fd5b6132f2858a8551015161446f565b61309a565b91908203918211612c3257565b80518210156133185760209160051b010190565b634e487b7160e01b600052603260045260246000fd5b92939490919460e08401519060408201519061336d613355602061012089015101516146ec565b936020815191015181811060001461353b57906132f7565b9761337789613c0c565b986133856040519a8b61243f565b808a52613394601f1991613c0c565b0160005b818110613bf4575050839460005b8a516000198101908111612c32578110156134485760018060a01b0388166000526012602052604060002090602060e08b0151015191600183018311612c325761342d828e61343e936133ff8360016134439901612c7b565b6000526020526134126040600020614a42565b61341c8383613304565b526134278282613304565b50613304565b5160206101208d015101519061459a565b612c48565b6133a6565b5090929496979591939560206101008a015101518a5180600019810111612c32579798919761348a9161347f60001983018e613304565b52600019018b613304565b506000975b8a51891015613542576134af60806134a78b8e613304565b5101516159ab565b9660008882039812818912811691891390151617612c32576134d660a06134a78b8e613304565b9660008882039812818912811691891390151617612c325761351661351c926135086135028c8f613304565b516146ec565b8181101561353b57906132f7565b906132f7565b9561353361352d6135028a8d613304565b98612c48565b97909661348f565b50806132f7565b905084999598929693975093909381613a7a575b50613a68576060810151956135726080830197885151906132f7565b956040830196610220885101511115613a575760208301996101a08b510151151580613a33575b613a215760026135b9602061010087015151015160e08b51015190615b8c565b1480613a0c575b6139fa576135d760206101008601510151846141e6565b1580156139e0575b6139ce576139c2576001600160a01b0390811633811415918261392d575b5050806138f5575b6138e35760c08201516136246020825192015160a08c51015190612c7b565b1080156138c1575b6138af5761364888602061012085015101518951895191614832565b156136915760005b85516000198101908111612c32578110156136a35761367e896136738389613304565b518a518a5191614832565b156136915761368c90612c48565b613650565b60405163a8e7d40960e01b8152600490fd5b5093909491959792978151916000198301928311612c325761136b6136ce6136f8946136f293613304565b5192519285516000808d136000146138a957508b945b6101c0825192015192614867565b90615aa2565b1561389857608060e0850151015160206101208601510151511080613888575b613876576137278251846142c3565b908161385e575b81613838575b50613826576137449051826142c3565b91826137c2575b50816137a9575b5061379757600061376291615ac3565b159081613783575b5061377157565b60405163442145e560e01b8152600490fd5b6137909150600090615ac3565b153861376a565b6040516303fa425960e21b8152600490fd5b6137bb91506060815191015190615ac3565b1538613752565b61010091925001515160208101908151906137f260406137e86060840194855190612c7b565b9201518092615b8c565b15928315613805575b505050903861374b565b61381d9350906138159151612c7b565b905190615b8c565b153880806137fb565b60405163015f9ae760e41b8152600490fd5b613857915061010061384d8187015151614820565b9151015190615b8c565b1538613734565b905061386f600060e0850151615ac3565b159061372e565b60405163ba555da760e01b8152600490fd5b506138928361441b565b15613718565b604051621c56d560e31b8152600490fd5b946136e4565b60405163935bdc2160e01b8152600490fd5b5060e08201516138dd6020825192015160c08c51015190612c7b565b1061362c565b6040516302ded67360e51b8152600490fd5b506138ff8161441b565b80613925575b80613911575b15613605565b50600261391f600085615ac3565b1461390b565b508715613905565b6020919250600080516020615f9283398151915254169160446040518094819363131bac4760e11b835260048301523360248301525afa9081156139b65760009161397c575b501538806135fd565b906020823d6020116139ae575b816139966020938361243f565b8101031261012a57506139a890612617565b38613973565b3d9150613989565b6040513d6000823e3d90fd5b50505050945050505050565b60405163229a307760e21b8152600490fd5b506139f460206101208601510151846141e6565b156135df565b60405163376a1ec760e11b8152600490fd5b506002613a1b60008551615ac3565b146135c0565b604051630a6ad31160e21b8152600490fd5b506002613a4260008551615ac3565b14806135995750613a52836141b2565b613599565b60405162558f1d60e91b8152600490fd5b6040516329a7bff360e11b8152600490fd5b1580159150613bb8575b8015613afd575b8015613a98575b38613556565b50855160208701519060008282019283129112908015821691151617612c325760408701519060008282019283129112908015821691151617612c32576000613ae091615ac3565b60028114908115613af2575b50613a92565b600191501438613aec565b50613b12608082015160408301519088614365565b6000546040516370a0823160e01b815230600482015290602090829060249082906001600160a01b03165afa9081156139b657600091613b84575b50613b779164e8d4a51000613b719204808210600014613b7d57505b6000196159d4565b83615ac3565b15613a8b565b9050613b69565b906020823d602011613bb0575b81613b9e6020938361243f565b8101031261012a575051613b77613b4d565b3d9150613b91565b506020610120820151015160808201516040830151848a0391600086128b84128116908c851390151617612c3257613bef93614832565b613a84565b808b60208093613c02612aac565b9201015201613398565b6001600160401b0381116124625760051b60200190565b919082606091031261036857604051613c3d60608261243f565b6040612af6818395805185526020810151602086015201612617565b9190613c63612a8b565b5051613c6d612a8b565b50600254604051630e0886f960e41b81526004810192909252606090829060249082906001600160a01b03165afa9081156139b657600091613cd4575b50613cb481613d0d565b8092604082015115613cc4575050565b60e060c060209201510151910152565b60603d8111613d06575b613ce8818361243f565b81019160608284031261012a575090613d0091613c23565b38613caa565b503d613cde565b6003546001600160a01b03169081613d23575050565b6020016020815160246040518095819363d7c7a93560e01b835260048301525afa9182156139b657600092613d56575052565b90916020823d8211613d7e575b81613d706020938361243f565b8101031261012a5750519052565b3d9150613d63565b613d8e612afb565b5060018154910154604051613da460408261243f565b8160e01b60e01d81528160c81b60e81d602082015260405192613dc96101008561243f565b63ffffffff80821685528160201c16602085015265ffffffffffff808260401c166040860152808260701c1660608601528160a01c16608085015260d01c60a084015260c083015260881b60c01d60e082015290565b91909163ffffffff9081845111613fe9576020918285019281845111613fe9576040918287019260029365ffffffffffff9185613e5d848451615b8c565b14613fd95760608a019086613e73858451615b8c565b14613fd95760808b019287613e89868651615b8c565b14613fc85787613e9e60a08e01968751615b8c565b14613fc85760c08c019988613eb9637fffffff8d5151615ac3565b14613fb757613ecf637fffffff198c5151615ac3565b15613fb75788613ee6627fffff8a8e510151615ac3565b14613fb757613efd627fffff19898d510151615ac3565b15613fb75760e08d0198613f18600180603f1b038b51615ac3565b14613fb7578851613f329060016001603f1b031990615ac3565b15613fb7578660019b9c9d51169063ffffffff60201b9051891b16179165ffffffffffff60401b9151901b16179065ffffffffffff60701b905160701b16179065ffffffffffff60a01b905160a01b1617905160d01b17955190815116918062ffffff60201b920151901b1617908360381b8460781b03905160381b16179281550155565b8251632142bc2760e01b8152600490fd5b8151632142bc2760e01b8152600490fd5b51632142bc2760e01b8152600490fd5b604051632142bc2760e01b8152600490fd5b815191604060208201519101516040830152602082015252565b919215908115614035575b5061402e5760800152600190565b5050600090565b9050608082015190511038614020565b61404d612be2565b50546040519061405e60a08361243f565b63ffffffff908181168352818160201c1660208401528060801b60c01d604084015260018060401b038160801c16606084015260c01c16608082015290565b9063ffffffff808251116141a05760208201818151116141a0576040908184019060026140d1600180603f1b038451615ac3565b1461418f5781516140eb9060016001603f1b031990615ac3565b1561418f576060850193600261410860018060401b038751615b8c565b1461417e5760808601958187511161416d5751915192519451955160c01b63ffffffff60c01b1660809690961b600160801b600160c01b03169490931b600160401b600160801b031660209290921b63ffffffff60201b169216919091171717179055565b845163320f423b60e21b8152600490fd5b835163320f423b60e21b8152600490fd5b825163320f423b60e21b8152600490fd5b60405163320f423b60e21b8152600490fd5b60026141c360006020840151615ac3565b149081156141cf575090565b60029150600060406141e2920151615ac3565b1490565b805115918291826142b6575b836142a9575b8361429c575b8315614258575b8315614212575b50505090565b604001511592509082614250575b5081614243575b81614236575b5038808061420c565b602091500151153861422d565b6060810151159150614227565b915038614220565b925060208301511580614290575b80614284575b80614278575b92614205565b50606081015115614272565b5060408101511561426c565b50604083015115614266565b60408201511593506141fe565b60208201511593506141f8565b60208101511593506141f2565b906101a0810151159182614325575b826142dc57505090565b60208101511592509082614318575b821561430a575b5081156142fd575090565b61430791506141b2565b90565b6101600151159150386142f2565b60408201511592506142eb565b809250518015908115614357575b8115614341575b50916142d2565b60029150600061435091615ac3565b143861433a565b610180830151159150614333565b614388906116b460406116ac61437b8451615f40565b6116b46020860151615f40565b908115614413576143dd60206143be61168b936143b261014096620f424096879586940151615f40565b04602087015190615ae0565b046101e085015180821160001461440c57505b61012085015190615ae0565b046101608301518082106000146144045750915b0151808211156143ff575090565b905090565b9050916143f1565b90506143d1565b505050600090565b614431906116b460406116ac61437b8451615f40565b1590565b8151916020810151906060604082015191015160608401526040830152602082015252565b60c06000918260808201528260a08201520152565b61010081015191825192602083019161448883516159ab565b93602082019461449886516159ab565b968782039160008099128184128116918413901516176110395787828201928312911290801582169115161761104d578352602083019586519360408301976144e189516159ab565b9060408601966144f188516159ab565b9285848203941281851281169185139015161761458657848382019384129112908015821691151617610e7a5790604092915201946060865193019561453787516159ab565b90606086019461454786516159ab565b9285848203941281851281169185139015161761458657848382019384129112908015821691151617610e7a5752519651945160809390930152525252565b634e487b7160e01b85526011600452602485fd5b906101008091015190820151916145af612a8b565b9180518451908181039060008093128183128116918313901516176132d05784526020820151916020860151928284820394128185128116918513901516176132d05760408091602087019485520151950151948186820396128187128116918713901516176132bc5760408401948552602083019361462f85516159ab565b9051908282820192831291129080158216911516176132d05761465190615b0d565b94604084019261466184516159ab565b905190838282019283129112908015821691151617611cbc57614685606091615b0d565b94019161469283516159ab565b9151918183820193841291129080158216911516176132bc57506146b590615b0d565b90525252565b60a06146e891608081016146d6815161010087015190612c7b565b90520191610120835191015190612c7b565b9052565b6020604082015160608301518082116000146144045750910151808211156143ff575090565b61472c606061472460408401516159ab565b9201516159ab565b9060008282039212818312811691831390151617612c325761430790615f40565b90614757826147bb565b6000929061476757505050600090565b61477460408201516159ab565b9261478260608301516159ab565b938185820395128186128116918613901516176132bc5750620f42406147b561136b6143079594612da8611584956147bb565b92612c0f565b606060408201519101518082116000146143ff575090565b6147f8906147f26147e3826147bb565b916116b4602082015191614808565b90615b71565b620f4240808210156143ff575090565b606060408201519101518082106000146143ff575090565b6147f8906147f26020820151916147bb565b61136b906136f2929361430795600080821360001461485f5750945b6101e0602083015192015192614867565b90509461484e565b9091614872826146ec565b1561273f5760209261489a6148896148a0946146ec565b61168b620f42409687940151615f40565b04615ae0565b0490808211156143ff575090565b6148b6612aac565b506001815491015490604051906148ce60608361243f565b8260801b60c01d82528260401b60c01d60208301528260c01d6040830152604051926148fc6101208561243f565b63ffffffff8216845260018060401b0380911660208501528160801c1660408401528060c01c606084015265ffffffffffff90818160201c16608085015260501c1660a0830152600060c0830152600060e083015261010082015290565b9061496481614c32565b602081019060018060401b0391600261497e848351615b8c565b14614a305760408201926002614995828651615b8c565b14614a3057606083019060026149ac828451615b8c565b14614a305760019461010060409263ffffffff87511665ffffffffffff60201b608089015160201b161765ffffffffffff60501b60a089015160501b16178860801b8960c01b0380945160801b161794519551169501519486831b8760801b038651841b161790602086015160801b16179301519160c01b17845560c01b17910155565b6040516352a8a97f60e01b8152600490fd5b614a4a612aac565b50805460019091015460016001603e1b03600282901c1691600382169181600084614b1d5750845b600060018603614b17575080945b600090600203614b1057505b604090815195614a9d60608861243f565b60c0948060801b861d885280841b861d6020890152851d83880152825197614ac76101208a61243f565b63ffffffff85168952602089015282880152606087015265ffffffffffff808360201c1660808801528260501c1660a08701521b811d818501521d60e083015261010082015290565b9050614a8c565b94614a80565b94614a72565b614b2c82614c32565b600180603e1b03906002614b44836020860151615b8c565b14614a305760408301916002614b5b828551615b8c565b14614a30576002614b7160608601928351615b8c565b14614a30576001925115600014614c2a5751614c235760005b925b604063ffffffff82511665ffffffffffff60201b608084015160201b161765ffffffffffff60501b60a084015160501b16178460801b8560c01b03908160c085015160801b161760e084015160c01b1795610100600487851b03614bef866146ec565b60021b1694015193600387851b8860801b038651861b169216171790602084015160801b161791015160c01b179281550155565b6002614b8a565b508192614b8c565b63ffffffff815111614a3057600265ffffffffffff81614c56826080860151615b8c565b14614a3057614c6a829160a0850151615b8c565b14614a305760c0820190600180603f1b039281614c88858551615ac3565b14614a3057915160016001603f1b03199290614ca5908490615ac3565b15614a305760e0810182614cba868351615ac3565b14614a305783614cca9151615ac3565b15614a3057610100019281614ce182865151615ac3565b14614a3057614cf283855151615ac3565b15614a305781614d0782602087510151615ac3565b14614a3057614d1b83602086510151615ac3565b15614a3057614d2f90604085510151615ac3565b14614a30576040614d4292510151615ac3565b15614a3057565b9593949297969060405198614d606102008b61243f565b60008a52600060208b0152600060408b0152600060608b0152600060808b0152600060a08b0152600060c08b0152600060e08b015260006101008b015260006101208b015260006101408b015260006101608b015260006101808b015260006101a08b015260006101c08b015260006101e08b015289604086015115158952614deb8783878c6156e8565b919082602083015281526101a08801516156da57505060c0614e0b612872565b920151614e246101a0850151926102008601519061474d565b8851928751620f4240614e3f8c61168b60206116ac8d615783565b0484614e7a614e69620f42406115848a614e6483614e6460208951990151938b6132f7565b612c0f565b611584620f42406147b588516159ab565b8080830112801560008412169060008412151617612c3257614ebf614ea0828401615a82565b6020870151614eb0848601615f40565b808210156156d25750906159d4565b94614ed2614ecd8a876132f7565b615b30565b90828401848103818112600087129081169290911390151617612c32576002614f096020614eff87615f40565b9301518093615b8c565b0361569157506000925b828101810361561f575050505081620f4240810204620f42401482151715612c3257620f42408202955b855190848083011260008312908015821691151617612c325780620f4240810204620f42401481151715612c32578288614f949387620f4240614f8295029101615b9d565b611584620f42406147b5816002612c0f565b9582620f4240810204620f42401483151715612c3257620f4240614fba93029084615b9d565b92848085011260008512908015821691151617612c325761503d94614f8294620f4240946020846150319661502996520152818101916102408a01511515806155f8575b6155d3575b50506150198461158483614e6483600019612c0f565b8160408901526020880152615f40565b895190615ae0565b048060608501526159ab565b9060208101519061505160608201516159ab565b90600082128383810312811690848481031390151617612c325783808385030112600083850312908015821691151617612c3257604081015180858103126000861216818681031360008712151617612c325784808b948a968a98850360408701520301602084015260026150cf6040880151606089015190615b8c565b14615584575b50508b8a60026150ee6060880151604089015190615b8c565b1461552f575b651cae8c13e0009561168b614ecd620f4240976151ce6151d4986151da9c9860408c9961515e60608b615136602061489a9e01518d60208951910151916158f5565b61514d858201518d8760208a0151910151916158f5565b01518385015160608c0151916158f5565b82519260208101519060608482015191015160a08401526080830152606082015201526151c4610180896151ba61519e60408b015160608c015190612c7b565b60208b01518082101561552857505b61168b6020870151615f40565b049a0151966147d3565b9051925195615c22565b936132f7565b04615b52565b620f42406151ec602086015183615ae0565b046151f6836147bb565b61550057615203826159ab565b9061520d836159ab565b92600083128484810312811690858581031390151617612c3257620f424061158461523e61136b8561526c956132f7565b956152588361158461525282600019612c0f565b89612c0f565b9561526584600019612c0f565b9103612c0f565b9061528160208a0151856020880151916158f5565b61529560408a0151846040880151916158f5565b6152a960608a0151836060880151916158f5565b6101208b01526101008a015260e089015260c08801526020820151602085015190600082128183810312811690828481031390151617612c3257611584620f424091615318936152656153056020880151606089015190612c7b565b6040880151808210156154f957506159ab565b6020850151602084015190600082128183810312811690828481031390151617612c3257611584620f4240916153719361526561535e602089015160408a015190612c7b565b6060890151808210156154f957506159ab565b90818082011260008212908015821691151617612c32576153a6620f424061158461539e82600019612c0f565b858501612c0f565b916153bb6040890151836040870151916158f5565b6153cf6060890151826060870151916158f5565b6153e36020890151846020870151916158f5565b6101808a015261016089015261014088015260009461540d614ecd600096600095519051906132f7565b9360208301516154ca575b604083015161549a575b6060830151615465575b50505090506101e08501526101c08401526101a0830152614307615459602084015160a085015190612c7b565b61012084015190612c7b565b6154919350620f424061548260c096610120606094015190615ae0565b04948592015192015191615994565b8038808061542c565b9450620f42406154af61010087015186615ae0565b04946154c560a083015187604086015191615994565b615422565b9550620f42406154de60e088015186615ae0565b04956154f4608083015188602086015191615994565b615418565b90506159ab565b61520361136b604085015161552361551c606088015183612c7b565b9186615ae0565b615b48565b90506151ad565b505092505050615550620f42406115846020840151611ba861136b88615748565b8082526020820151600082128183810312811690828481031390151617612c32570360208201528290849087908b8a6150f4565b61559f9450620f4240935061526561136b6115849497615748565b8082526040820151600082128183810312811690828481031390151617612c325784928692899203604082015238806150d5565b6155f192508591611584916155ea84600019612c0f565b9101612c0f565b3880615003565b508a615618615613600061560d858701615a82565b9361474d565b615a82565b1415614ffe565b89620f4240810204620f4240148a151715612c325761565c9361564b8261565195615523940103615f40565b92615ae0565b620f42408802612c7b565b82620f4240810204620f42401483151715612c3257620f42408302811015615685575b95614f3d565b50620f4240820261567f565b6156a7906156a28585810103615a82565b6159d4565b80848103126000851216818581031360008612151617612c3257836156cc9103615f40565b92614f13565b9050906159d4565b9a5098975050505050505050565b939192906020019081511561573957906020615722620f424061571960806040615737970151980197885190615ae0565b048096516132f7565b9501519061572f866159ab565b9051916158f5565b565b50509150608001519060009190565b61575181615783565b61575b5750600090565b8061577d61577761576e61430794615783565b61351684614808565b91615783565b90615b52565b6157a461578f826147bb565b91602061579b82614808565b91015190612c7b565b808210156143ff575090565b6157b8612b52565b5060018154910154604080516020916157d1838361243f565b8460b81b60c01d825280516157e6848261243f565b8560781b60c01d81528151916157fc858461243f565b8660381b60c01d8352805193615812868661243f565b6001600160401b0387811686528251969061582d828961243f565b8089851c168852835198615841838b61243f565b60801c16885260ff83519961585760e08c61243f565b16151589528801528601526060850152608084015260a083015260c082015290565b519051808203929160009091128015828513169184121617612c32576000196158a183615a82565b036158e15761430791611ba86158b6926159ab565b611ba86158c282615a82565b6158dc6158d6620f424092611ba884615a82565b93615f40565b615a33565b61158461430792611ba8620f4240936159ab565b9091821561598f5781519261590981615a82565b916000198303615974576114b26114b261592561592f936159ab565b94611ba886615a82565b91620f424090818102918183041490151715612c32576159589261595291615a33565b906159d4565b915b60008382019384129112908015821691151617612c325752565b6159899250620f42406147b5611584926159ab565b9161595a565b505050565b9190801561598f576116b46146e892845192615b52565b6001600160ff1b0381116159bc5790565b6024906040519063eecaa25d60e01b82526004820152fd5b600081136159f8576000136159e95750600090565b6159f2906159ab565b60000390565b50614307906159ab565b8115615a1d57600160ff1b8114600019831416612c32570590565b634e487b7160e01b600052601260045260246000fd5b908015615a705760009180615a4a57505050600090565b6000198101908111611cbc5790615a6091615b48565b90600182018092116132bc575090565b6040516323d359a360e01b8152600490fd5b60008113615a9c57600013615a9657600090565b60001990565b50600190565b90615aac91615ac3565b60028114908115615abb575090565b600191501490565b818113615ad95712615ad457600190565b600090565b5050600290565b81810292918115918404141715612c3257565b64e8d4a5100090818102918183041490151715612c325790565b60008112615b185790565b6024906040519063b02ef08760e01b82526004820152fd5b620f424090818102918183041490151715612c325790565b8115615a1d570490565b90620f424091828102928184041490151715612c325761430791615b48565b9080615b835750615a9657620f424090565b61430791615b52565b818111615ad95710615ad457600190565b6115849161158461430795611ba8615bca61136b97611584615bd097611ba8620f42409b8c998a956132f7565b916159ab565b916147b5816301e13380612c0f565b60405163a9059cbb60e01b60208201526001600160a01b039283166024820152604480820194909452928352615737929190615c1c60648461243f565b16615d54565b90606082018051615c338184615b8c565b15615c6f5750620f424090615c488284615b8c565b15615c57575050506020015190565b90614307939151916020604082015191015192615c80565b839150604061430794519201519160005b90615c91615c9791959394956159ab565b946159ab565b92615ca28284615b8c565b158015615d26575b615d145781615cb8916132f7565b90848403926000948587128186128116918613901516176145865792611ba861136b620f424094615cef61158495615cf4986132f7565b615b52565b8183820193841291129080158216911516176132bc575061430790615b0d565b604051634a83a53f60e01b8152600490fd5b506002615d338285615b8c565b14615caa565b6001600160401b03811161246257601f01601f191660200190565b60209190615dde906001600160a01b0316615d6e84615d39565b90615d7c604051928361243f565b8482527f5361666545524332303a206c6f772d6c6576656c2063616c6c206661696c6564858301526000808587829751910182855af13d15615e68573d91615dc383615d39565b92615dd1604051948561243f565b83523d868885013e615e6c565b90815180615ded575b50505050565b8284918101031261012a575081615e049101612617565b15615e1157808080615de7565b6084906040519062461bcd60e51b82526004820152602a60248201527f5361666545524332303a204552433230206f7065726174696f6e20646964206e6044820152691bdd081cdd58d8d9595960b21b6064820152fd5b6060915b91929015615ece5750815115615e80575090565b3b15615e895790565b60405162461bcd60e51b815260206004820152601d60248201527f416464726573733a2063616c6c20746f206e6f6e2d636f6e74726163740000006044820152606490fd5b825190915015615ee15750805190602001fd5b6040519062461bcd60e51b82528160208060048301528251908160248401526000935b828510615f27575050604492506000838284010152601f80199101168101030190fd5b8481018201518686016044015293810193859350615f04565b6000808212615f4d575090565b039056fef12be1637c87b6840bce6a43024d842fdde312893b5711402d511dc296b61fc6a9c835c21e93a672e5a6ef8ca0374f90b7d4378f7eec5769dcf22fdefd60ffae0aec74a1754fb10877b53c31a29be82096082042eb1fb374ec96fac88c0e621ba264697066735822122059011fbcce69a991cb69911107c882e886e71704b43fc9cc08ae2faa9a2659b064736f6c63430008130033",
  "libraries": {
    "MarketParameterStorageLib": "0x8a159CDB5FA8AF4A71f987F3Fb2D5229eC63c758",
    "RiskParameterStorageLib": "0xc24FeF7BB2f7AB454A3f982eD3b4B8268fF850BD"
  }
}