{
  "address": "0xfb4a12e285bBf9efF066362aeA7bf4E4d20b0e3b",
  "abi": [
    {
      "inputs": [],
      "name": "Adiabatic6ZeroScaleError",
      "type": "error"
    },
    {
      "inputs": [
        {
          "internalType": "uint256",
          "name": "value",
          "type": "uint256"
        }
      ],
      "name": "Fixed6OverflowError",
      "type": "error"
    },
    {
      "inputs": [],
      "name": "GlobalStorageInvalidError",
      "type": "error"
    },
    {
      "inputs": [
        {
          "internalType": "uint256",
          "name": "version",
          "type": "uint256"
        }
      ],
      "name": "InitializableAlreadyInitializedError",
      "type": "error"
    },
    {
      "inputs": [],
      "name": "InitializableNotInitializingError",
      "type": "error"
    },
    {
      "inputs": [],
      "name": "InitializableZeroVersionError",
      "type": "error"
    },
    {
      "inputs": [
        {
          "internalType": "address",
          "name": "sender",
          "type": "address"
        }
      ],
      "name": "InstanceNotFactoryError",
      "type": "error"
    },
    {
      "inputs": [
        {
          "internalType": "address",
          "name": "sender",
          "type": "address"
        }
      ],
      "name": "InstanceNotOwnerError",
      "type": "error"
    },
    {
      "inputs": [],
      "name": "InstancePausedError",
      "type": "error"
    },
    {
      "inputs": [],
      "name": "LocalStorageInvalidError",
      "type": "error"
    },
    {
      "inputs": [],
      "name": "LocalStorageInvalidError",
      "type": "error"
    },
    {
      "inputs": [],
      "name": "MarketClosedError",
      "type": "error"
    },
    {
      "inputs": [],
      "name": "MarketCollateralBelowLimitError",
      "type": "error"
    },
    {
      "inputs": [],
      "name": "MarketEfficiencyUnderLimitError",
      "type": "error"
    },
    {
      "inputs": [],
      "name": "MarketExceedsPendingIdLimitError",
      "type": "error"
    },
    {
      "inputs": [],
      "name": "MarketInsufficientCollateralError",
      "type": "error"
    },
    {
      "inputs": [],
      "name": "MarketInsufficientLiquidityError",
      "type": "error"
    },
    {
      "inputs": [],
      "name": "MarketInsufficientMarginError",
      "type": "error"
    },
    {
      "inputs": [
        {
          "internalType": "uint256",
          "name": "code",
          "type": "uint256"
        }
      ],
      "name": "MarketInvalidMarketParameterError",
      "type": "error"
    },
    {
      "inputs": [],
      "name": "MarketInvalidProtectionError",
      "type": "error"
    },
    {
      "inputs": [],
      "name": "MarketInvalidReferrerError",
      "type": "error"
    },
    {
      "inputs": [
        {
          "internalType": "uint256",
          "name": "code",
          "type": "uint256"
        }
      ],
      "name": "MarketInvalidRiskParameterError",
      "type": "error"
    },
    {
      "inputs": [],
      "name": "MarketMakerOverLimitError",
      "type": "error"
    },
    {
      "inputs": [],
      "name": "MarketNotBeneficiaryError",
      "type": "error"
    },
    {
      "inputs": [],
      "name": "MarketNotCoordinatorError",
      "type": "error"
    },
    {
      "inputs": [],
      "name": "MarketNotSingleSidedError",
      "type": "error"
    },
    {
      "inputs": [],
      "name": "MarketOperatorNotAllowedError",
      "type": "error"
    },
    {
      "inputs": [],
      "name": "MarketOverCloseError",
      "type": "error"
    },
    {
      "inputs": [],
      "name": "MarketParameterStorageInvalidError",
      "type": "error"
    },
    {
      "inputs": [],
      "name": "MarketProtectedError",
      "type": "error"
    },
    {
      "inputs": [],
      "name": "MarketSettleOnlyError",
      "type": "error"
    },
    {
      "inputs": [],
      "name": "MarketStalePriceError",
      "type": "error"
    },
    {
      "inputs": [],
      "name": "OrderStorageInvalidError",
      "type": "error"
    },
    {
      "inputs": [],
      "name": "PositionStorageLocalInvalidError",
      "type": "error"
    },
    {
      "inputs": [],
      "name": "ReentrancyGuardReentrantCallError",
      "type": "error"
    },
    {
      "inputs": [],
      "name": "RiskParameterStorageInvalidError",
      "type": "error"
    },
    {
      "inputs": [
        {
          "internalType": "int256",
          "name": "value",
          "type": "int256"
        }
      ],
      "name": "UFixed6UnderflowError",
      "type": "error"
    },
    {
      "inputs": [],
      "name": "VersionStorageInvalidError",
      "type": "error"
    },
    {
      "anonymous": false,
      "inputs": [
        {
          "indexed": true,
          "internalType": "address",
          "name": "account",
          "type": "address"
        },
        {
          "indexed": false,
          "internalType": "uint256",
          "name": "orderId",
          "type": "uint256"
        },
        {
          "components": [
            {
              "internalType": "uint256",
              "name": "timestamp",
              "type": "uint256"
            },
            {
              "internalType": "uint256",
              "name": "orders",
              "type": "uint256"
            },
            {
              "internalType": "Fixed6",
              "name": "collateral",
              "type": "int256"
            },
            {
              "internalType": "UFixed6",
              "name": "makerPos",
              "type": "uint256"
            },
            {
              "internalType": "UFixed6",
              "name": "makerNeg",
              "type": "uint256"
            },
            {
              "internalType": "UFixed6",
              "name": "longPos",
              "type": "uint256"
            },
            {
              "internalType": "UFixed6",
              "name": "longNeg",
              "type": "uint256"
            },
            {
              "internalType": "UFixed6",
              "name": "shortPos",
              "type": "uint256"
            },
            {
              "internalType": "UFixed6",
              "name": "shortNeg",
              "type": "uint256"
            },
            {
              "internalType": "uint256",
              "name": "protection",
              "type": "uint256"
            },
            {
              "internalType": "UFixed6",
              "name": "makerReferral",
              "type": "uint256"
            },
            {
              "internalType": "UFixed6",
              "name": "takerReferral",
              "type": "uint256"
            }
          ],
          "indexed": false,
          "internalType": "struct Order",
          "name": "order",
          "type": "tuple"
        },
        {
          "components": [
            {
              "internalType": "Fixed6",
              "name": "collateral",
              "type": "int256"
            },
            {
              "internalType": "Fixed6",
              "name": "linearFee",
              "type": "int256"
            },
            {
              "internalType": "Fixed6",
              "name": "proportionalFee",
              "type": "int256"
            },
            {
              "internalType": "Fixed6",
              "name": "adiabaticFee",
              "type": "int256"
            },
            {
              "internalType": "UFixed6",
              "name": "settlementFee",
              "type": "uint256"
            },
            {
              "internalType": "UFixed6",
              "name": "liquidationFee",
              "type": "uint256"
            },
            {
              "internalType": "UFixed6",
              "name": "subtractiveFee",
              "type": "uint256"
            }
          ],
          "indexed": false,
          "internalType": "struct CheckpointAccumulationResult",
          "name": "accumulationResult",
          "type": "tuple"
        }
      ],
      "name": "AccountPositionProcessed",
      "type": "event"
    },
    {
      "anonymous": false,
      "inputs": [
        {
          "indexed": false,
          "internalType": "address",
          "name": "newBeneficiary",
          "type": "address"
        }
      ],
      "name": "BeneficiaryUpdated",
      "type": "event"
    },
    {
      "anonymous": false,
      "inputs": [
        {
          "indexed": false,
          "internalType": "address",
          "name": "newCoordinator",
          "type": "address"
        }
      ],
      "name": "CoordinatorUpdated",
      "type": "event"
    },
    {
      "anonymous": false,
      "inputs": [
        {
          "indexed": true,
          "internalType": "address",
          "name": "account",
          "type": "address"
        },
        {
          "indexed": false,
          "internalType": "Fixed6",
          "name": "amount",
          "type": "int256"
        }
      ],
      "name": "ExposureClaimed",
      "type": "event"
    },
    {
      "anonymous": false,
      "inputs": [
        {
          "indexed": true,
          "internalType": "address",
          "name": "account",
          "type": "address"
        },
        {
          "indexed": false,
          "internalType": "UFixed6",
          "name": "amount",
          "type": "uint256"
        }
      ],
      "name": "FeeClaimed",
      "type": "event"
    },
    {
      "anonymous": false,
      "inputs": [
        {
          "indexed": false,
          "internalType": "uint256",
          "name": "version",
          "type": "uint256"
        }
      ],
      "name": "Initialized",
      "type": "event"
    },
    {
      "anonymous": false,
      "inputs": [
        {
          "indexed": false,
          "internalType": "contract IOracleProvider",
          "name": "newOracle",
          "type": "address"
        }
      ],
      "name": "OracleUpdated",
      "type": "event"
    },
    {
      "anonymous": false,
      "inputs": [
        {
          "indexed": true,
          "internalType": "address",
          "name": "account",
          "type": "address"
        },
        {
          "components": [
            {
              "internalType": "uint256",
              "name": "timestamp",
              "type": "uint256"
            },
            {
              "internalType": "uint256",
              "name": "orders",
              "type": "uint256"
            },
            {
              "internalType": "Fixed6",
              "name": "collateral",
              "type": "int256"
            },
            {
              "internalType": "UFixed6",
              "name": "makerPos",
              "type": "uint256"
            },
            {
              "internalType": "UFixed6",
              "name": "makerNeg",
              "type": "uint256"
            },
            {
              "internalType": "UFixed6",
              "name": "longPos",
              "type": "uint256"
            },
            {
              "internalType": "UFixed6",
              "name": "longNeg",
              "type": "uint256"
            },
            {
              "internalType": "UFixed6",
              "name": "shortPos",
              "type": "uint256"
            },
            {
              "internalType": "UFixed6",
              "name": "shortNeg",
              "type": "uint256"
            },
            {
              "internalType": "uint256",
              "name": "protection",
              "type": "uint256"
            },
            {
              "internalType": "UFixed6",
              "name": "makerReferral",
              "type": "uint256"
            },
            {
              "internalType": "UFixed6",
              "name": "takerReferral",
              "type": "uint256"
            }
          ],
          "indexed": false,
          "internalType": "struct Order",
          "name": "order",
          "type": "tuple"
        }
      ],
      "name": "OrderCreated",
      "type": "event"
    },
    {
      "anonymous": false,
      "inputs": [
        {
          "components": [
            {
              "internalType": "UFixed6",
              "name": "fundingFee",
              "type": "uint256"
            },
            {
              "internalType": "UFixed6",
              "name": "interestFee",
              "type": "uint256"
            },
            {
              "internalType": "UFixed6",
              "name": "positionFee",
              "type": "uint256"
            },
            {
              "internalType": "UFixed6",
              "name": "oracleFee",
              "type": "uint256"
            },
            {
              "internalType": "UFixed6",
              "name": "riskFee",
              "type": "uint256"
            },
            {
              "internalType": "uint256",
              "name": "maxPendingGlobal",
              "type": "uint256"
            },
            {
              "internalType": "uint256",
              "name": "maxPendingLocal",
              "type": "uint256"
            },
            {
              "internalType": "UFixed6",
              "name": "settlementFee",
              "type": "uint256"
            },
            {
              "internalType": "bool",
              "name": "takerCloseAlways",
              "type": "bool"
            },
            {
              "internalType": "bool",
              "name": "makerCloseAlways",
              "type": "bool"
            },
            {
              "internalType": "bool",
              "name": "closed",
              "type": "bool"
            },
            {
              "internalType": "bool",
              "name": "settle",
              "type": "bool"
            }
          ],
          "indexed": false,
          "internalType": "struct MarketParameter",
          "name": "newParameter",
          "type": "tuple"
        }
      ],
      "name": "ParameterUpdated",
      "type": "event"
    },
    {
      "anonymous": false,
      "inputs": [
        {
          "indexed": false,
          "internalType": "uint256",
          "name": "orderId",
          "type": "uint256"
        },
        {
          "components": [
            {
              "internalType": "uint256",
              "name": "timestamp",
              "type": "uint256"
            },
            {
              "internalType": "uint256",
              "name": "orders",
              "type": "uint256"
            },
            {
              "internalType": "Fixed6",
              "name": "collateral",
              "type": "int256"
            },
            {
              "internalType": "UFixed6",
              "name": "makerPos",
              "type": "uint256"
            },
            {
              "internalType": "UFixed6",
              "name": "makerNeg",
              "type": "uint256"
            },
            {
              "internalType": "UFixed6",
              "name": "longPos",
              "type": "uint256"
            },
            {
              "internalType": "UFixed6",
              "name": "longNeg",
              "type": "uint256"
            },
            {
              "internalType": "UFixed6",
              "name": "shortPos",
              "type": "uint256"
            },
            {
              "internalType": "UFixed6",
              "name": "shortNeg",
              "type": "uint256"
            },
            {
              "internalType": "uint256",
              "name": "protection",
              "type": "uint256"
            },
            {
              "internalType": "UFixed6",
              "name": "makerReferral",
              "type": "uint256"
            },
            {
              "internalType": "UFixed6",
              "name": "takerReferral",
              "type": "uint256"
            }
          ],
          "indexed": false,
          "internalType": "struct Order",
          "name": "order",
          "type": "tuple"
        },
        {
          "components": [
            {
              "internalType": "UFixed6",
              "name": "positionFee",
              "type": "uint256"
            },
            {
              "internalType": "UFixed6",
              "name": "positionFeeMaker",
              "type": "uint256"
            },
            {
              "internalType": "UFixed6",
              "name": "positionFeeProtocol",
              "type": "uint256"
            },
            {
              "internalType": "UFixed6",
              "name": "positionFeeSubtractive",
              "type": "uint256"
            },
            {
              "internalType": "Fixed6",
              "name": "positionFeeExposure",
              "type": "int256"
            },
            {
              "internalType": "Fixed6",
              "name": "positionFeeExposureMaker",
              "type": "int256"
            },
            {
              "internalType": "Fixed6",
              "name": "positionFeeExposureProtocol",
              "type": "int256"
            },
            {
              "internalType": "Fixed6",
              "name": "positionFeeImpact",
              "type": "int256"
            },
            {
              "internalType": "Fixed6",
              "name": "fundingMaker",
              "type": "int256"
            },
            {
              "internalType": "Fixed6",
              "name": "fundingLong",
              "type": "int256"
            },
            {
              "internalType": "Fixed6",
              "name": "fundingShort",
              "type": "int256"
            },
            {
              "internalType": "UFixed6",
              "name": "fundingFee",
              "type": "uint256"
            },
            {
              "internalType": "Fixed6",
              "name": "interestMaker",
              "type": "int256"
            },
            {
              "internalType": "Fixed6",
              "name": "interestLong",
              "type": "int256"
            },
            {
              "internalType": "Fixed6",
              "name": "interestShort",
              "type": "int256"
            },
            {
              "internalType": "UFixed6",
              "name": "interestFee",
              "type": "uint256"
            },
            {
              "internalType": "Fixed6",
              "name": "pnlMaker",
              "type": "int256"
            },
            {
              "internalType": "Fixed6",
              "name": "pnlLong",
              "type": "int256"
            },
            {
              "internalType": "Fixed6",
              "name": "pnlShort",
              "type": "int256"
            },
            {
              "internalType": "UFixed6",
              "name": "settlementFee",
              "type": "uint256"
            },
            {
              "internalType": "UFixed6",
              "name": "liquidationFee",
              "type": "uint256"
            }
          ],
          "indexed": false,
          "internalType": "struct VersionAccumulationResult",
          "name": "accumulationResult",
          "type": "tuple"
        }
      ],
      "name": "PositionProcessed",
      "type": "event"
    },
    {
      "anonymous": false,
      "inputs": [
        {
          "components": [
            {
              "internalType": "UFixed6",
              "name": "margin",
              "type": "uint256"
            },
            {
              "internalType": "UFixed6",
              "name": "maintenance",
              "type": "uint256"
            },
            {
              "components": [
                {
                  "internalType": "UFixed6",
                  "name": "linearFee",
                  "type": "uint256"
                },
                {
                  "internalType": "UFixed6",
                  "name": "proportionalFee",
                  "type": "uint256"
                },
                {
                  "internalType": "UFixed6",
                  "name": "adiabaticFee",
                  "type": "uint256"
                },
                {
                  "internalType": "UFixed6",
                  "name": "scale",
                  "type": "uint256"
                }
              ],
              "internalType": "struct LinearAdiabatic6",
              "name": "takerFee",
              "type": "tuple"
            },
            {
              "components": [
                {
                  "internalType": "UFixed6",
                  "name": "linearFee",
                  "type": "uint256"
                },
                {
                  "internalType": "UFixed6",
                  "name": "proportionalFee",
                  "type": "uint256"
                },
                {
                  "internalType": "UFixed6",
                  "name": "adiabaticFee",
                  "type": "uint256"
                },
                {
                  "internalType": "UFixed6",
                  "name": "scale",
                  "type": "uint256"
                }
              ],
              "internalType": "struct InverseAdiabatic6",
              "name": "makerFee",
              "type": "tuple"
            },
            {
              "internalType": "UFixed6",
              "name": "makerLimit",
              "type": "uint256"
            },
            {
              "internalType": "UFixed6",
              "name": "efficiencyLimit",
              "type": "uint256"
            },
            {
              "internalType": "UFixed6",
              "name": "liquidationFee",
              "type": "uint256"
            },
            {
              "components": [
                {
                  "internalType": "UFixed6",
                  "name": "minRate",
                  "type": "uint256"
                },
                {
                  "internalType": "UFixed6",
                  "name": "maxRate",
                  "type": "uint256"
                },
                {
                  "internalType": "UFixed6",
                  "name": "targetRate",
                  "type": "uint256"
                },
                {
                  "internalType": "UFixed6",
                  "name": "targetUtilization",
                  "type": "uint256"
                }
              ],
              "internalType": "struct UJumpRateUtilizationCurve6",
              "name": "utilizationCurve",
              "type": "tuple"
            },
            {
              "components": [
                {
                  "internalType": "UFixed6",
                  "name": "k",
                  "type": "uint256"
                },
                {
                  "internalType": "Fixed6",
                  "name": "min",
                  "type": "int256"
                },
                {
                  "internalType": "Fixed6",
                  "name": "max",
                  "type": "int256"
                }
              ],
              "internalType": "struct PController6",
              "name": "pController",
              "type": "tuple"
            },
            {
              "internalType": "UFixed6",
              "name": "minMargin",
              "type": "uint256"
            },
            {
              "internalType": "UFixed6",
              "name": "minMaintenance",
              "type": "uint256"
            },
            {
              "internalType": "uint256",
              "name": "staleAfter",
              "type": "uint256"
            },
            {
              "internalType": "bool",
              "name": "makerReceiveOnly",
              "type": "bool"
            }
          ],
          "indexed": false,
          "internalType": "struct RiskParameter",
          "name": "newRiskParameter",
          "type": "tuple"
        }
      ],
      "name": "RiskParameterUpdated",
      "type": "event"
    },
    {
      "anonymous": false,
      "inputs": [
        {
          "indexed": true,
          "internalType": "address",
          "name": "sender",
          "type": "address"
        },
        {
          "indexed": true,
          "internalType": "address",
          "name": "account",
          "type": "address"
        },
        {
          "indexed": false,
          "internalType": "uint256",
          "name": "version",
          "type": "uint256"
        },
        {
          "indexed": false,
          "internalType": "UFixed6",
          "name": "newMaker",
          "type": "uint256"
        },
        {
          "indexed": false,
          "internalType": "UFixed6",
          "name": "newLong",
          "type": "uint256"
        },
        {
          "indexed": false,
          "internalType": "UFixed6",
          "name": "newShort",
          "type": "uint256"
        },
        {
          "indexed": false,
          "internalType": "Fixed6",
          "name": "collateral",
          "type": "int256"
        },
        {
          "indexed": false,
          "internalType": "bool",
          "name": "protect",
          "type": "bool"
        },
        {
          "indexed": false,
          "internalType": "address",
          "name": "referrer",
          "type": "address"
        }
      ],
      "name": "Updated",
      "type": "event"
    },
    {
      "inputs": [
        {
          "internalType": "address",
          "name": "account",
          "type": "address"
        },
        {
          "internalType": "uint256",
          "name": "version",
          "type": "uint256"
        }
      ],
      "name": "checkpoints",
      "outputs": [
        {
          "components": [
            {
              "internalType": "Fixed6",
              "name": "tradeFee",
              "type": "int256"
            },
            {
              "internalType": "UFixed6",
              "name": "settlementFee",
              "type": "uint256"
            },
            {
              "internalType": "Fixed6",
              "name": "transfer",
              "type": "int256"
            },
            {
              "internalType": "Fixed6",
              "name": "collateral",
              "type": "int256"
            }
          ],
          "internalType": "struct Checkpoint",
          "name": "",
          "type": "tuple"
        }
      ],
      "stateMutability": "view",
      "type": "function"
    },
    {
      "inputs": [],
      "name": "claimExposure",
      "outputs": [],
      "stateMutability": "nonpayable",
      "type": "function"
    },
    {
      "inputs": [],
      "name": "claimFee",
      "outputs": [],
      "stateMutability": "nonpayable",
      "type": "function"
    },
    {
      "inputs": [],
      "name": "factory",
      "outputs": [
        {
          "internalType": "contract IFactory",
          "name": "",
          "type": "address"
        }
      ],
      "stateMutability": "view",
      "type": "function"
    },
    {
      "inputs": [],
      "name": "global",
      "outputs": [
        {
          "components": [
            {
              "internalType": "uint256",
              "name": "currentId",
              "type": "uint256"
            },
            {
              "internalType": "uint256",
              "name": "latestId",
              "type": "uint256"
            },
            {
              "internalType": "UFixed6",
              "name": "protocolFee",
              "type": "uint256"
            },
            {
              "internalType": "UFixed6",
              "name": "oracleFee",
              "type": "uint256"
            },
            {
              "internalType": "UFixed6",
              "name": "riskFee",
              "type": "uint256"
            },
            {
              "internalType": "UFixed6",
              "name": "donation",
              "type": "uint256"
            },
            {
              "internalType": "Fixed6",
              "name": "latestPrice",
              "type": "int256"
            },
            {
              "internalType": "Fixed6",
              "name": "exposure",
              "type": "int256"
            },
            {
              "components": [
                {
                  "internalType": "Fixed6",
                  "name": "_value",
                  "type": "int256"
                },
                {
                  "internalType": "Fixed6",
                  "name": "_skew",
                  "type": "int256"
                }
              ],
              "internalType": "struct PAccumulator6",
              "name": "pAccumulator",
              "type": "tuple"
            }
          ],
          "internalType": "struct Global",
          "name": "",
          "type": "tuple"
        }
      ],
      "stateMutability": "view",
      "type": "function"
    },
    {
      "inputs": [
        {
          "components": [
            {
              "internalType": "Token18",
              "name": "token",
              "type": "address"
            },
            {
              "internalType": "contract IOracleProvider",
              "name": "oracle",
              "type": "address"
            }
          ],
          "internalType": "struct IMarket.MarketDefinition",
          "name": "definition_",
          "type": "tuple"
        }
      ],
      "name": "initialize",
      "outputs": [],
      "stateMutability": "nonpayable",
      "type": "function"
    },
    {
      "inputs": [
        {
          "internalType": "address",
          "name": "",
          "type": "address"
        },
        {
          "internalType": "uint256",
          "name": "",
          "type": "uint256"
        }
      ],
      "name": "liquidators",
      "outputs": [
        {
          "internalType": "address",
          "name": "",
          "type": "address"
        }
      ],
      "stateMutability": "view",
      "type": "function"
    },
    {
      "inputs": [
        {
          "internalType": "address",
          "name": "account",
          "type": "address"
        }
      ],
      "name": "locals",
      "outputs": [
        {
          "components": [
            {
              "internalType": "uint256",
              "name": "currentId",
              "type": "uint256"
            },
            {
              "internalType": "uint256",
              "name": "latestId",
              "type": "uint256"
            },
            {
              "internalType": "Fixed6",
              "name": "collateral",
              "type": "int256"
            },
            {
              "internalType": "UFixed6",
              "name": "claimable",
              "type": "uint256"
            }
          ],
          "internalType": "struct Local",
          "name": "",
          "type": "tuple"
        }
      ],
      "stateMutability": "view",
      "type": "function"
    },
    {
      "inputs": [],
      "name": "oracle",
      "outputs": [
        {
          "internalType": "contract IOracleProvider",
          "name": "",
          "type": "address"
        }
      ],
      "stateMutability": "view",
      "type": "function"
    },
    {
      "inputs": [],
      "name": "parameter",
      "outputs": [
        {
          "components": [
            {
              "internalType": "UFixed6",
              "name": "fundingFee",
              "type": "uint256"
            },
            {
              "internalType": "UFixed6",
              "name": "interestFee",
              "type": "uint256"
            },
            {
              "internalType": "UFixed6",
              "name": "positionFee",
              "type": "uint256"
            },
            {
              "internalType": "UFixed6",
              "name": "oracleFee",
              "type": "uint256"
            },
            {
              "internalType": "UFixed6",
              "name": "riskFee",
              "type": "uint256"
            },
            {
              "internalType": "uint256",
              "name": "maxPendingGlobal",
              "type": "uint256"
            },
            {
              "internalType": "uint256",
              "name": "maxPendingLocal",
              "type": "uint256"
            },
            {
              "internalType": "UFixed6",
              "name": "settlementFee",
              "type": "uint256"
            },
            {
              "internalType": "bool",
              "name": "takerCloseAlways",
              "type": "bool"
            },
            {
              "internalType": "bool",
              "name": "makerCloseAlways",
              "type": "bool"
            },
            {
              "internalType": "bool",
              "name": "closed",
              "type": "bool"
            },
            {
              "internalType": "bool",
              "name": "settle",
              "type": "bool"
            }
          ],
          "internalType": "struct MarketParameter",
          "name": "",
          "type": "tuple"
        }
      ],
      "stateMutability": "view",
      "type": "function"
    },
    {
      "inputs": [],
      "name": "payoff",
      "outputs": [
        {
          "internalType": "address",
          "name": "",
          "type": "address"
        }
      ],
      "stateMutability": "pure",
      "type": "function"
    },
    {
      "inputs": [],
      "name": "pending",
      "outputs": [
        {
          "components": [
            {
              "internalType": "uint256",
              "name": "timestamp",
              "type": "uint256"
            },
            {
              "internalType": "uint256",
              "name": "orders",
              "type": "uint256"
            },
            {
              "internalType": "Fixed6",
              "name": "collateral",
              "type": "int256"
            },
            {
              "internalType": "UFixed6",
              "name": "makerPos",
              "type": "uint256"
            },
            {
              "internalType": "UFixed6",
              "name": "makerNeg",
              "type": "uint256"
            },
            {
              "internalType": "UFixed6",
              "name": "longPos",
              "type": "uint256"
            },
            {
              "internalType": "UFixed6",
              "name": "longNeg",
              "type": "uint256"
            },
            {
              "internalType": "UFixed6",
              "name": "shortPos",
              "type": "uint256"
            },
            {
              "internalType": "UFixed6",
              "name": "shortNeg",
              "type": "uint256"
            },
            {
              "internalType": "uint256",
              "name": "protection",
              "type": "uint256"
            },
            {
              "internalType": "UFixed6",
              "name": "makerReferral",
              "type": "uint256"
            },
            {
              "internalType": "UFixed6",
              "name": "takerReferral",
              "type": "uint256"
            }
          ],
          "internalType": "struct Order",
          "name": "",
          "type": "tuple"
        }
      ],
      "stateMutability": "view",
      "type": "function"
    },
    {
      "inputs": [
        {
          "internalType": "uint256",
          "name": "id",
          "type": "uint256"
        }
      ],
      "name": "pendingOrder",
      "outputs": [
        {
          "components": [
            {
              "internalType": "uint256",
              "name": "timestamp",
              "type": "uint256"
            },
            {
              "internalType": "uint256",
              "name": "orders",
              "type": "uint256"
            },
            {
              "internalType": "Fixed6",
              "name": "collateral",
              "type": "int256"
            },
            {
              "internalType": "UFixed6",
              "name": "makerPos",
              "type": "uint256"
            },
            {
              "internalType": "UFixed6",
              "name": "makerNeg",
              "type": "uint256"
            },
            {
              "internalType": "UFixed6",
              "name": "longPos",
              "type": "uint256"
            },
            {
              "internalType": "UFixed6",
              "name": "longNeg",
              "type": "uint256"
            },
            {
              "internalType": "UFixed6",
              "name": "shortPos",
              "type": "uint256"
            },
            {
              "internalType": "UFixed6",
              "name": "shortNeg",
              "type": "uint256"
            },
            {
              "internalType": "uint256",
              "name": "protection",
              "type": "uint256"
            },
            {
              "internalType": "UFixed6",
              "name": "makerReferral",
              "type": "uint256"
            },
            {
              "internalType": "UFixed6",
              "name": "takerReferral",
              "type": "uint256"
            }
          ],
          "internalType": "struct Order",
          "name": "",
          "type": "tuple"
        }
      ],
      "stateMutability": "view",
      "type": "function"
    },
    {
      "inputs": [
        {
          "internalType": "address",
          "name": "account",
          "type": "address"
        },
        {
          "internalType": "uint256",
          "name": "id",
          "type": "uint256"
        }
      ],
      "name": "pendingOrders",
      "outputs": [
        {
          "components": [
            {
              "internalType": "uint256",
              "name": "timestamp",
              "type": "uint256"
            },
            {
              "internalType": "uint256",
              "name": "orders",
              "type": "uint256"
            },
            {
              "internalType": "Fixed6",
              "name": "collateral",
              "type": "int256"
            },
            {
              "internalType": "UFixed6",
              "name": "makerPos",
              "type": "uint256"
            },
            {
              "internalType": "UFixed6",
              "name": "makerNeg",
              "type": "uint256"
            },
            {
              "internalType": "UFixed6",
              "name": "longPos",
              "type": "uint256"
            },
            {
              "internalType": "UFixed6",
              "name": "longNeg",
              "type": "uint256"
            },
            {
              "internalType": "UFixed6",
              "name": "shortPos",
              "type": "uint256"
            },
            {
              "internalType": "UFixed6",
              "name": "shortNeg",
              "type": "uint256"
            },
            {
              "internalType": "uint256",
              "name": "protection",
              "type": "uint256"
            },
            {
              "internalType": "UFixed6",
              "name": "makerReferral",
              "type": "uint256"
            },
            {
              "internalType": "UFixed6",
              "name": "takerReferral",
              "type": "uint256"
            }
          ],
          "internalType": "struct Order",
          "name": "",
          "type": "tuple"
        }
      ],
      "stateMutability": "view",
      "type": "function"
    },
    {
      "inputs": [
        {
          "internalType": "address",
          "name": "account",
          "type": "address"
        }
      ],
      "name": "pendings",
      "outputs": [
        {
          "components": [
            {
              "internalType": "uint256",
              "name": "timestamp",
              "type": "uint256"
            },
            {
              "internalType": "uint256",
              "name": "orders",
              "type": "uint256"
            },
            {
              "internalType": "Fixed6",
              "name": "collateral",
              "type": "int256"
            },
            {
              "internalType": "UFixed6",
              "name": "makerPos",
              "type": "uint256"
            },
            {
              "internalType": "UFixed6",
              "name": "makerNeg",
              "type": "uint256"
            },
            {
              "internalType": "UFixed6",
              "name": "longPos",
              "type": "uint256"
            },
            {
              "internalType": "UFixed6",
              "name": "longNeg",
              "type": "uint256"
            },
            {
              "internalType": "UFixed6",
              "name": "shortPos",
              "type": "uint256"
            },
            {
              "internalType": "UFixed6",
              "name": "shortNeg",
              "type": "uint256"
            },
            {
              "internalType": "uint256",
              "name": "protection",
              "type": "uint256"
            },
            {
              "internalType": "UFixed6",
              "name": "makerReferral",
              "type": "uint256"
            },
            {
              "internalType": "UFixed6",
              "name": "takerReferral",
              "type": "uint256"
            }
          ],
          "internalType": "struct Order",
          "name": "",
          "type": "tuple"
        }
      ],
      "stateMutability": "view",
      "type": "function"
    },
    {
      "inputs": [],
      "name": "position",
      "outputs": [
        {
          "components": [
            {
              "internalType": "uint256",
              "name": "timestamp",
              "type": "uint256"
            },
            {
              "internalType": "UFixed6",
              "name": "maker",
              "type": "uint256"
            },
            {
              "internalType": "UFixed6",
              "name": "long",
              "type": "uint256"
            },
            {
              "internalType": "UFixed6",
              "name": "short",
              "type": "uint256"
            }
          ],
          "internalType": "struct Position",
          "name": "",
          "type": "tuple"
        }
      ],
      "stateMutability": "view",
      "type": "function"
    },
    {
      "inputs": [
        {
          "internalType": "address",
          "name": "account",
          "type": "address"
        }
      ],
      "name": "positions",
      "outputs": [
        {
          "components": [
            {
              "internalType": "uint256",
              "name": "timestamp",
              "type": "uint256"
            },
            {
              "internalType": "UFixed6",
              "name": "maker",
              "type": "uint256"
            },
            {
              "internalType": "UFixed6",
              "name": "long",
              "type": "uint256"
            },
            {
              "internalType": "UFixed6",
              "name": "short",
              "type": "uint256"
            }
          ],
          "internalType": "struct Position",
          "name": "",
          "type": "tuple"
        }
      ],
      "stateMutability": "view",
      "type": "function"
    },
    {
      "inputs": [
        {
          "internalType": "address",
          "name": "",
          "type": "address"
        },
        {
          "internalType": "uint256",
          "name": "",
          "type": "uint256"
        }
      ],
      "name": "referrers",
      "outputs": [
        {
          "internalType": "address",
          "name": "",
          "type": "address"
        }
      ],
      "stateMutability": "view",
      "type": "function"
    },
    {
      "inputs": [],
      "name": "riskParameter",
      "outputs": [
        {
          "components": [
            {
              "internalType": "UFixed6",
              "name": "margin",
              "type": "uint256"
            },
            {
              "internalType": "UFixed6",
              "name": "maintenance",
              "type": "uint256"
            },
            {
              "components": [
                {
                  "internalType": "UFixed6",
                  "name": "linearFee",
                  "type": "uint256"
                },
                {
                  "internalType": "UFixed6",
                  "name": "proportionalFee",
                  "type": "uint256"
                },
                {
                  "internalType": "UFixed6",
                  "name": "adiabaticFee",
                  "type": "uint256"
                },
                {
                  "internalType": "UFixed6",
                  "name": "scale",
                  "type": "uint256"
                }
              ],
              "internalType": "struct LinearAdiabatic6",
              "name": "takerFee",
              "type": "tuple"
            },
            {
              "components": [
                {
                  "internalType": "UFixed6",
                  "name": "linearFee",
                  "type": "uint256"
                },
                {
                  "internalType": "UFixed6",
                  "name": "proportionalFee",
                  "type": "uint256"
                },
                {
                  "internalType": "UFixed6",
                  "name": "adiabaticFee",
                  "type": "uint256"
                },
                {
                  "internalType": "UFixed6",
                  "name": "scale",
                  "type": "uint256"
                }
              ],
              "internalType": "struct InverseAdiabatic6",
              "name": "makerFee",
              "type": "tuple"
            },
            {
              "internalType": "UFixed6",
              "name": "makerLimit",
              "type": "uint256"
            },
            {
              "internalType": "UFixed6",
              "name": "efficiencyLimit",
              "type": "uint256"
            },
            {
              "internalType": "UFixed6",
              "name": "liquidationFee",
              "type": "uint256"
            },
            {
              "components": [
                {
                  "internalType": "UFixed6",
                  "name": "minRate",
                  "type": "uint256"
                },
                {
                  "internalType": "UFixed6",
                  "name": "maxRate",
                  "type": "uint256"
                },
                {
                  "internalType": "UFixed6",
                  "name": "targetRate",
                  "type": "uint256"
                },
                {
                  "internalType": "UFixed6",
                  "name": "targetUtilization",
                  "type": "uint256"
                }
              ],
              "internalType": "struct UJumpRateUtilizationCurve6",
              "name": "utilizationCurve",
              "type": "tuple"
            },
            {
              "components": [
                {
                  "internalType": "UFixed6",
                  "name": "k",
                  "type": "uint256"
                },
                {
                  "internalType": "Fixed6",
                  "name": "min",
                  "type": "int256"
                },
                {
                  "internalType": "Fixed6",
                  "name": "max",
                  "type": "int256"
                }
              ],
              "internalType": "struct PController6",
              "name": "pController",
              "type": "tuple"
            },
            {
              "internalType": "UFixed6",
              "name": "minMargin",
              "type": "uint256"
            },
            {
              "internalType": "UFixed6",
              "name": "minMaintenance",
              "type": "uint256"
            },
            {
              "internalType": "uint256",
              "name": "staleAfter",
              "type": "uint256"
            },
            {
              "internalType": "bool",
              "name": "makerReceiveOnly",
              "type": "bool"
            }
          ],
          "internalType": "struct RiskParameter",
          "name": "",
          "type": "tuple"
        }
      ],
      "stateMutability": "view",
      "type": "function"
    },
    {
      "inputs": [
        {
          "internalType": "address",
          "name": "account",
          "type": "address"
        }
      ],
      "name": "settle",
      "outputs": [],
      "stateMutability": "nonpayable",
      "type": "function"
    },
    {
      "inputs": [],
      "name": "token",
      "outputs": [
        {
          "internalType": "Token18",
          "name": "",
          "type": "address"
        }
      ],
      "stateMutability": "view",
      "type": "function"
    },
    {
      "inputs": [
        {
          "internalType": "address",
          "name": "account",
          "type": "address"
        },
        {
          "internalType": "UFixed6",
          "name": "newMaker",
          "type": "uint256"
        },
        {
          "internalType": "UFixed6",
          "name": "newLong",
          "type": "uint256"
        },
        {
          "internalType": "UFixed6",
          "name": "newShort",
          "type": "uint256"
        },
        {
          "internalType": "Fixed6",
          "name": "collateral",
          "type": "int256"
        },
        {
          "internalType": "bool",
          "name": "protect",
          "type": "bool"
        }
      ],
      "name": "update",
      "outputs": [],
      "stateMutability": "nonpayable",
      "type": "function"
    },
    {
      "inputs": [
        {
          "internalType": "address",
          "name": "account",
          "type": "address"
        },
        {
          "internalType": "UFixed6",
          "name": "newMaker",
          "type": "uint256"
        },
        {
          "internalType": "UFixed6",
          "name": "newLong",
          "type": "uint256"
        },
        {
          "internalType": "UFixed6",
          "name": "newShort",
          "type": "uint256"
        },
        {
          "internalType": "Fixed6",
          "name": "collateral",
          "type": "int256"
        },
        {
          "internalType": "bool",
          "name": "protect",
          "type": "bool"
        },
        {
          "internalType": "address",
          "name": "referrer",
          "type": "address"
        }
      ],
      "name": "update",
      "outputs": [],
      "stateMutability": "nonpayable",
      "type": "function"
    },
    {
      "inputs": [
        {
          "internalType": "contract IOracleProvider",
          "name": "newOracle",
          "type": "address"
        }
      ],
      "name": "updateOracle",
      "outputs": [],
      "stateMutability": "nonpayable",
      "type": "function"
    },
    {
      "inputs": [
        {
          "internalType": "address",
          "name": "newBeneficiary",
          "type": "address"
        },
        {
          "internalType": "address",
          "name": "newCoordinator",
          "type": "address"
        },
        {
          "components": [
            {
              "internalType": "UFixed6",
              "name": "fundingFee",
              "type": "uint256"
            },
            {
              "internalType": "UFixed6",
              "name": "interestFee",
              "type": "uint256"
            },
            {
              "internalType": "UFixed6",
              "name": "positionFee",
              "type": "uint256"
            },
            {
              "internalType": "UFixed6",
              "name": "oracleFee",
              "type": "uint256"
            },
            {
              "internalType": "UFixed6",
              "name": "riskFee",
              "type": "uint256"
            },
            {
              "internalType": "uint256",
              "name": "maxPendingGlobal",
              "type": "uint256"
            },
            {
              "internalType": "uint256",
              "name": "maxPendingLocal",
              "type": "uint256"
            },
            {
              "internalType": "UFixed6",
              "name": "settlementFee",
              "type": "uint256"
            },
            {
              "internalType": "bool",
              "name": "takerCloseAlways",
              "type": "bool"
            },
            {
              "internalType": "bool",
              "name": "makerCloseAlways",
              "type": "bool"
            },
            {
              "internalType": "bool",
              "name": "closed",
              "type": "bool"
            },
            {
              "internalType": "bool",
              "name": "settle",
              "type": "bool"
            }
          ],
          "internalType": "struct MarketParameter",
          "name": "newParameter",
          "type": "tuple"
        }
      ],
      "name": "updateParameter",
      "outputs": [],
      "stateMutability": "nonpayable",
      "type": "function"
    },
    {
      "inputs": [
        {
          "components": [
            {
              "internalType": "UFixed6",
              "name": "margin",
              "type": "uint256"
            },
            {
              "internalType": "UFixed6",
              "name": "maintenance",
              "type": "uint256"
            },
            {
              "components": [
                {
                  "internalType": "UFixed6",
                  "name": "linearFee",
                  "type": "uint256"
                },
                {
                  "internalType": "UFixed6",
                  "name": "proportionalFee",
                  "type": "uint256"
                },
                {
                  "internalType": "UFixed6",
                  "name": "adiabaticFee",
                  "type": "uint256"
                },
                {
                  "internalType": "UFixed6",
                  "name": "scale",
                  "type": "uint256"
                }
              ],
              "internalType": "struct LinearAdiabatic6",
              "name": "takerFee",
              "type": "tuple"
            },
            {
              "components": [
                {
                  "internalType": "UFixed6",
                  "name": "linearFee",
                  "type": "uint256"
                },
                {
                  "internalType": "UFixed6",
                  "name": "proportionalFee",
                  "type": "uint256"
                },
                {
                  "internalType": "UFixed6",
                  "name": "adiabaticFee",
                  "type": "uint256"
                },
                {
                  "internalType": "UFixed6",
                  "name": "scale",
                  "type": "uint256"
                }
              ],
              "internalType": "struct InverseAdiabatic6",
              "name": "makerFee",
              "type": "tuple"
            },
            {
              "internalType": "UFixed6",
              "name": "makerLimit",
              "type": "uint256"
            },
            {
              "internalType": "UFixed6",
              "name": "efficiencyLimit",
              "type": "uint256"
            },
            {
              "internalType": "UFixed6",
              "name": "liquidationFee",
              "type": "uint256"
            },
            {
              "components": [
                {
                  "internalType": "UFixed6",
                  "name": "minRate",
                  "type": "uint256"
                },
                {
                  "internalType": "UFixed6",
                  "name": "maxRate",
                  "type": "uint256"
                },
                {
                  "internalType": "UFixed6",
                  "name": "targetRate",
                  "type": "uint256"
                },
                {
                  "internalType": "UFixed6",
                  "name": "targetUtilization",
                  "type": "uint256"
                }
              ],
              "internalType": "struct UJumpRateUtilizationCurve6",
              "name": "utilizationCurve",
              "type": "tuple"
            },
            {
              "components": [
                {
                  "internalType": "UFixed6",
                  "name": "k",
                  "type": "uint256"
                },
                {
                  "internalType": "Fixed6",
                  "name": "min",
                  "type": "int256"
                },
                {
                  "internalType": "Fixed6",
                  "name": "max",
                  "type": "int256"
                }
              ],
              "internalType": "struct PController6",
              "name": "pController",
              "type": "tuple"
            },
            {
              "internalType": "UFixed6",
              "name": "minMargin",
              "type": "uint256"
            },
            {
              "internalType": "UFixed6",
              "name": "minMaintenance",
              "type": "uint256"
            },
            {
              "internalType": "uint256",
              "name": "staleAfter",
              "type": "uint256"
            },
            {
              "internalType": "bool",
              "name": "makerReceiveOnly",
              "type": "bool"
            }
          ],
          "internalType": "struct RiskParameter",
          "name": "newRiskParameter",
          "type": "tuple"
        },
        {
          "internalType": "bool",
          "name": "isMigration",
          "type": "bool"
        }
      ],
      "name": "updateRiskParameter",
      "outputs": [],
      "stateMutability": "nonpayable",
      "type": "function"
    },
    {
      "inputs": [
        {
          "internalType": "uint256",
          "name": "timestamp",
          "type": "uint256"
        }
      ],
      "name": "versions",
      "outputs": [
        {
          "components": [
            {
              "internalType": "bool",
              "name": "valid",
              "type": "bool"
            },
            {
              "components": [
                {
                  "internalType": "Fixed6",
                  "name": "_value",
                  "type": "int256"
                }
              ],
              "internalType": "struct Accumulator6",
              "name": "makerValue",
              "type": "tuple"
            },
            {
              "components": [
                {
                  "internalType": "Fixed6",
                  "name": "_value",
                  "type": "int256"
                }
              ],
              "internalType": "struct Accumulator6",
              "name": "longValue",
              "type": "tuple"
            },
            {
              "components": [
                {
                  "internalType": "Fixed6",
                  "name": "_value",
                  "type": "int256"
                }
              ],
              "internalType": "struct Accumulator6",
              "name": "shortValue",
              "type": "tuple"
            },
            {
              "components": [
                {
                  "internalType": "Fixed6",
                  "name": "_value",
                  "type": "int256"
                }
              ],
              "internalType": "struct Accumulator6",
              "name": "makerLinearFee",
              "type": "tuple"
            },
            {
              "components": [
                {
                  "internalType": "Fixed6",
                  "name": "_value",
                  "type": "int256"
                }
              ],
              "internalType": "struct Accumulator6",
              "name": "makerProportionalFee",
              "type": "tuple"
            },
            {
              "components": [
                {
                  "internalType": "Fixed6",
                  "name": "_value",
                  "type": "int256"
                }
              ],
              "internalType": "struct Accumulator6",
              "name": "takerLinearFee",
              "type": "tuple"
            },
            {
              "components": [
                {
                  "internalType": "Fixed6",
                  "name": "_value",
                  "type": "int256"
                }
              ],
              "internalType": "struct Accumulator6",
              "name": "takerProportionalFee",
              "type": "tuple"
            },
            {
              "components": [
                {
                  "internalType": "Fixed6",
                  "name": "_value",
                  "type": "int256"
                }
              ],
              "internalType": "struct Accumulator6",
              "name": "makerPosFee",
              "type": "tuple"
            },
            {
              "components": [
                {
                  "internalType": "Fixed6",
                  "name": "_value",
                  "type": "int256"
                }
              ],
              "internalType": "struct Accumulator6",
              "name": "makerNegFee",
              "type": "tuple"
            },
            {
              "components": [
                {
                  "internalType": "Fixed6",
                  "name": "_value",
                  "type": "int256"
                }
              ],
              "internalType": "struct Accumulator6",
              "name": "takerPosFee",
              "type": "tuple"
            },
            {
              "components": [
                {
                  "internalType": "Fixed6",
                  "name": "_value",
                  "type": "int256"
                }
              ],
              "internalType": "struct Accumulator6",
              "name": "takerNegFee",
              "type": "tuple"
            },
            {
              "components": [
                {
                  "internalType": "Fixed6",
                  "name": "_value",
                  "type": "int256"
                }
              ],
              "internalType": "struct Accumulator6",
              "name": "settlementFee",
              "type": "tuple"
            },
            {
              "components": [
                {
                  "internalType": "Fixed6",
                  "name": "_value",
                  "type": "int256"
                }
              ],
              "internalType": "struct Accumulator6",
              "name": "liquidationFee",
              "type": "tuple"
            }
          ],
          "internalType": "struct Version",
          "name": "",
          "type": "tuple"
        }
      ],
      "stateMutability": "view",
      "type": "function"
    }
  ],
  "transactionHash": "0xca5155e66e0d1a142960ac4d5fd608f0eed4415f41a0eac37c40d1810b401c62",
  "args": [],
  "numDeployments": 6,
  "solcInputHash": "366e93499a11b964d6194fab2ea50175",
  "bytecode": "0x6080806040523461001757615eac90816200001c8239f35b5f80fdfe60806040526004361015610011575f80fd5b5f803560e01c806309218e9114612bc45780630cdfebfa14612b745780631cb44dfc14612ab057806330d8c210146125d45780634549a6291461259d57806355f57510146125565780635b4b9695146125025780636a256b29146124295780636e193680146123e15780637cc4d3401461238e5780637dc0d1d01461236557806387aee00e1461229057806391eece28146117b357806395fcd83614611797578063977b1f5f14610b7e57806399d32fc414610950578063a05f9906146108c3578063a4d154871461071e578063ad4d4e29146106ea578063b68af80a146106a1578063b6a597dd1461055a578063c45a015514610525578063c496969b146104f1578063c73e293b146104a8578063cf6bf86a146101a2578063e20ccec31461016c5763fc0c546a14610143575f80fd5b34610169578060031936011261016957546040516001600160a01b039091168152602090f35b80fd5b5034610169578060031936011261016957610185613065565b506101806101936016614347565b6101a06040518092612d45565bf35b5034610169576101c0366003190112610169576004356001600160a01b03818116918290036104a0576024358181168091036104a05761018091826043193601126104a457604051936101f58486612c0c565b604435855260209060643582870152608435604087015260a435606087015260c435608087015260e43560a08701526101043560c08701526101243560e0870152610144359081151582036104a05761010091828801526101643580151581036104a0576101208801526101843580151581036104a0576101408801526101a492833580151581036104a057610160890152845f80516020615e57833981519152541694604051638da5cb5b60e01b815282816004818a5afa908115610495578b91610468575b50163303610450578589967fc258faa9a17ddfdf4130b4acff63a289202e7d5f9e42f366add65368575486bc937feee59a71c694e68368a1cb0d135c448051bbfb12289e6c2223b0ceb100c2321d8460018060a01b03199280846004541617600455604051908152a16005541617600555604051908152a1600481730d07e3A272F5666D10aeFC611D0F693b4a8F2E16946040519283809263ad4d4e2960e01b82525afa918215610445578592610418575b5050823b15610414576102a484926103ae9460405195869485936373a328f760e11b8552600960048601526103a6602486018d612dbc565b84019061300d565b5af48015610409576103f0575b50507ffe82819b288047b2416d26eabdd67d46cd2dc02c2332ad5d56d7fc01c46e3c5f916103ec6040518092612dbc565ba180f35b816103fa91612c0c565b61040557825f6103bb565b8280fd5b6040513d84823e3d90fd5b8380fd5b6104379250803d1061043e575b61042f8183612c0c565b810190612f81565b5f8061036e565b503d610425565b6040513d87823e3d90fd5b604051634d193d1f60e01b8152336004820152602490fd5b6104889150833d851161048e575b6104808183612c0c565b810190612e61565b5f6102bc565b503d610476565b6040513d8d823e3d90fd5b5f80fd5b8480fd5b5034610169576040366003190112610169576001600160a01b03600435818116908190036104a0578260409160209452601c845281812060243582528452205416604051908152f35b503461016957602036600319011261016957610193604061018092610514613065565b506004358152601460205220614347565b50346101695780600319360112610169575f80516020615e57833981519152546040516001600160a01b039091168152602090f35b5034610169576040366003190112610169577f6fee9688c285c5c5c97d6a1a29adced674e6b2ad0888b8ad2116b58a8b3ea2486001815410156106885760019055303b151580610681575b61066857335f80516020615e5783398151915255303b15158061067a575b6106685760015f80516020615e17833981519152556001600160a01b03600435818116908190036104055782546001600160a01b0319908116909117835560243591821691829003610405576002541617600255807f2801b00eb06461cf9fcb9758b5fafd884ff06a86177386f73b6c49f0bf5a5af0557fbe9b076dc5b65990cca9dd9d7366682482e7817a6f6bc7f4faf4dc32af497f32602060405160018152a180f35b60405163b9a621e160e01b8152600490fd5b50806105c3565b50806105a5565b604051631edb9c6d60e11b815260016004820152602490fd5b5034610169576040366003190112610169576001600160a01b03600435818116908190036104a0578260409160209452601b845281812060243582528452205416604051908152f35b5034610169578060031936011261016957610703613065565b50610180610711600961429a565b6101a06040518092612dbc565b50346101695780600319360112610169575f80516020615e5783398151915254604051638da5cb5b60e01b81526001600160a01b03916020908290600490829086165afa80156108b85782918491610899575b5016330361045057819081610786600b6132d7565b9160e083019081516001610799826141de565b14610877575b5081515f196107ad826141de565b14610850575b505080516040519081527f25e5e4c41e0fec8db036b4544824413a63ffe455e2b4decd71d72932f607ff5960203392a25273aD4A7b0d821B955492d9BEa6776CDcC33Ee8CaC690813b1561084c5761082c6101648492604051948593849263045a766b60e01b8452600b60048501526024840190612f1e565b5af480156104095761083b5750f35b8161084591612c0c565b6101695780f35b5050fd5b6108686108636108709386541692614405565b6141fa565b903390614257565b5f806107b3565b6108939061088b6108638487541692614405565b903390614214565b5f61079f565b6108b2915060203d60201161048e576104808183612c0c565b5f610771565b6040513d85823e3d90fd5b50346101695780600319360112610169576108dc6131e1565b506101406108ea600b6132d7565b60206040519180518352818101518284015260408101516040840152606081015160608401526080810151608084015260a081015160a084015260c081015160c084015260e081015160e084015261010080910151908151908401520151610120820152f35b503461016957806003193601126101695761096b600b6132d7565b338252602090601082528261098260408220613588565b5f80516020615e578339815191528054604051638da5cb5b60e01b81529294926001600160a01b039187908290600490829086165afa8015610445576004938684928a948291610b61575b506109de60408901918251906140a6565b610b59575b5050541660405193848092630c7f7fb960e41b82525afa8015610b4e5784928391610b12575b508290610a1e606086019184835191166140a6565b610b0a575b508160055416610a3960808601918251906140a6565b610b02575b505060045416610a5460a08401918251906140a6565b610afa575b5060608401610a698151336140a6565b610af2575b505073aD4A7b0d821B955492d9BEa6776CDcC33Ee8CaC690813b1561040557610ab86101648492604051948593849263045a766b60e01b8452600b60048501526024840190612f1e565b5af4801561040957610add575b50506010610ada92338552526040832061411b565b80f35b81610ae791612c0c565b61040557825f610ac5565b52815f610a6e565b52815f610a59565b52815f610a3e565b52815f610a23565b80929350878092503d8311610b47575b610b2c8183612c0c565b81010312610414575190808216820361041457839182610a09565b503d610b22565b6040513d86823e3d90fd5b52865f6109e3565b610b789150853d871161048e576104808183612c0c565b5f6109cd565b50346101695760e0366003190112610169576004356001600160a01b03811690036104a05760a435151560a435036104a05760c4356001600160a01b03811690036104a05760025f80516020615e1783398151915254146117855760025f80516020615e17833981519152555f80516020615e5783398151915254604051635c975abb60e01b815290602090829060049082906001600160a01b03165afa90811561040957829161174b575b5061173957610c3a600435613659565b610c46600435826138ac565b610160602082015101516117275760405190610c6360c083612c0c565b828252826020830152826040830152826060830152610c806135ff565b6080830152610c8d6135d6565b60a0830152610ca060e082015151615b6a565b60a083015152610cbc60a0830151516101008301515190615501565b610ccd602060e08301510151615b6a565b602060a08401510152610cf2602060a084015101516020610100840151015190615501565b60a08101515183526014602052610d0b60408420614347565b60808301515260018060a01b0360043516835260156020526040832060c0820151518452602052610d3e60408420613d8e565b60206080840151015260018060a01b035f80516020615e57833981519152541660405163131bac4760e11b815260018060a01b03600435166004820152336024820152602081604481855afa9081156104455785916116e6575b5015158352600480356001600160a01b03908116808752601b6020908152604080892060c088018051518b52908352818a2054851689840152928952601c8252808920925151895291815281882054831682880152905163085d260760e21b815260c4359092169282019290925291829060249082905afa908115610b4e5784916116b4575b5060608301526001610e36600160ff1b608435615bf1565b036116ac57610e65604060c08301510151610e60620f424091610e5a835f19615411565b90615411565b615baa565b610e7d60243560208060a08701510151015184615440565b610e966044356040602060a08801510151015185615440565b91610eb06064356060602060a08901510151015186615440565b610ebd60c43587876154d8565b936080860151602060808901510151908151811161167f575b50506080860151608088015151908151811161165e575b5050608086015194602060a08901510151610f06613065565b50610f1086614414565b90610f1e6020820151614414565b908b8212838381031281169084848103139015161761164a57610f4085614414565b93610f4e6040830151614414565b908d8212868381031281169087848103139015161761163657908d9291610f816060610f798b614414565b940151614414565b93841283858103128116908486810313901516176116225790610fd68f979695949392610fd1610fc6610fb5888a03614405565b610fc0868c03614405565b9061388b565b610fc0878703614405565b615bd8565b9587858703135f1461161957610fed858703614405565b88868803125f1461161057611003868803614405565b9189848203135f146116075761101a848203614405565b938a818303125f146115fc576110309103614405565b9389868203135f146115f357611047868203614405565b958a818303125f146115e85761105d9103614405565b9560a435156115e1576001975b149788156115da5789985b156115d357985b6040519e8f9061108e61018083612c0c565b8152602001528d8c60408201526060015260808d015260a08c015260c08b015260e08a015261010089015260ff166101208801526101408701526101608601526110d785615aec565b15806115c3575b156115b7575b6110f38560a089015151615501565b61110585602060a08a01510151615501565b61111785602060808a0151015161562c565b6111268560808901515161562c565b611136856101008801515161562c565b611149856020610100890151015161562c565b604060c087015101805184808201128a82129080158216911516176115a35784019052610120850151611598575b61118460c435868961573a565b61118d85615aec565b1580611588575b1561151a575b7363f314Ed6b017c9a42138A59577609F05A140c953b15611516578760405163d329553160e01b81526111d160048201895161300d565b6111e46020890151610104830190612dbc565b6111f76040890151610284830190612fe9565b61120a606089015161058483019061404e565b60808801516105e482015261122860a0890151610604830190612f1e565b61123b60c0890151610744830190612be9565b61124e60e08901516107c4830190614069565b6112626101008901516108c4830190614087565b88511515610bc482015260208901516001600160a01b03908116610be483015260408a015116610c048201526060890151610c2482015260808901516112ad90610c44830190614087565b6112c060a08a0151610f44830190614069565b336110448201526004356001600160a01b03166110648201526112e7611084820188612d45565b846112048201528181611224817363f314Ed6b017c9a42138A59577609F05A140c955af4801561040957611501575b50506114ad9660a0870151518952601460205261133c60408a20608083015151906151fb565b6004356001600160a01b03168952601560209081526040808b2060c08a0151518c5282528a2060808301519091015161137491615329565b60018060a01b036020820151169060018060a01b03600435168a52601b60205260408a2060c0890151518b5260205260408a2060018060a01b03199283825416179055604060018060a01b039101511660018060a01b03600435168a52601c60205260408a2060c0890151518b5260205260408a20918254161790556113f9836141de565b600181146114e1575b5f19146114c1575b608086015193604051948552602085015260408401526060830152608082015260a435151560a082015260018060a01b0360c4351660c082015260018060a01b0360043516905f80516020615e3783398151915260e03392a36114706040518092612d45565b6004356001600160a01b0316907f9a56cf35efaffce99179d6c2031a9dc354c09b4a2bb7f1b7fb9f8c4736979c059061018090a260043590613bba565b60015f80516020615e178339815191525580f35b87546114dc906001600160a01b031661088b61086386614405565b61140a565b88546114fc906001600160a01b031661086861086387614405565b611402565b8161150b91612c0c565b61151657875f611316565b8780fd5b60025488906001600160a01b0316803b1561158457818091604460405180948193631a9be9fd60e11b835230600484015260018060a01b036004351660248401525af180156104095761156f575b505061119a565b8161157991612c0c565b61151657875f611568565b5080fd5b5061159285615b05565b15611194565b336020880152611177565b634e487b7160e01b8a52601160045260248afd5b600160208601526110e4565b506115cd85615b05565b156110de565b508861107c565b8098611075565b899761106a565b505061105d89614405565b6110478a614405565b505061103089614405565b61101a8a614405565b61100389614405565b610fed88614405565b634e487b7160e01b8f52601160045260248ffd5b634e487b7160e01b8e52601160045260248efd5b634e487b7160e01b8c52601160045260248cfd5b611667916151dc565b60a08601516116768151614040565b90525f80610eed565b611688916151dc565b87604088015287602088015260c08601516116a38151614040565b90525f80610ed6565b608435610e65565b90506020813d6020116116de575b816116cf60209383612c0c565b8101031261041457515f610e1e565b3d91506116c2565b90506020813d60201161171f575b8161170160209383612c0c565b810103126104a457602491611717602092613058565b915091610d98565b3d91506116f4565b604051630b8b968760e31b8152600490fd5b604051634b94d2bb60e01b8152600490fd5b90506020813d60201161177d575b8161176660209383612c0c565b810103126115845761177790613058565b5f610c2a565b3d9150611759565b6040516345f6780960e11b8152600490fd5b5034610169578060031936011261016957602090604051908152f35b50346101695760c0366003190112610169576004356001600160a01b03811690036104a05760a435151560a435036104a05760025f80516020615e1783398151915254146117855760025f80516020615e17833981519152555f80516020615e5783398151915254604051635c975abb60e01b815290602090829060049082906001600160a01b03165afa908115610409578291612256575b506117395761185c600435613659565b611868600435826138ac565b61016060208201510151611727576040519061188560c083612c0c565b8282528260208301528260408301528260608301526118a26135ff565b60808301526118af6135d6565b60a08301526118c260e082015151615b6a565b60a0830151526118de60a0830151516101008301515190615501565b6118ef602060e08301510151615b6a565b602060a08401510152611914602060a084015101516020610100840151015190615501565b60a0810151518352601460205261192d60408420614347565b60808301515260018060a01b0360043516835260156020526040832060c082015151845260205261196060408420613d8e565b60206080840151015260018060a01b035f80516020615e57833981519152541660405163131bac4760e11b815260018060a01b03600435166004820152336024820152602081604481855afa908115610445578591612215575b50151583526001600160a01b03600480358216808752601b6020908152604080892060c088018051518b52908352818a20548616838a0152928952601c8252808920925151895291815281882054909316818701525163085d260760e21b815290810186905291829060249082905afa908115610b4e5784916121e3575b5060608301526001611a50600160ff1b608435615bf1565b036121db57611a74604060c08301510151610e60620f424091610e5a835f19615411565b611a8c60243560208060a08701510151015184615440565b611aa56044356040602060a08801510151015185615440565b91611abf6064356060602060a08901510151015186615440565b611aca8787876154d8565b93608086015160206080890151015190815181116121ae575b50506080860151608088015151908151811161218d575b5050608086015194602060a08901510151611b13613065565b50611b1d86614414565b90611b2b6020820151614414565b908b8212838381031281169084848103139015161761164a57611b4d85614414565b93611b5b6040830151614414565b908d8212868381031281169087848103139015161761163657908d9291611b866060610f798b614414565b93841283858103128116908486810313901516176116225790611bba8f979695949392610fd1610fc6610fb5888a03614405565b9587858703135f1461218457611bd1858703614405565b88868803125f1461217b57611be7868803614405565b9189848203135f1461217257611bfe848203614405565b938a818303125f1461216757611c149103614405565b9389868203135f1461215e57611c2b868203614405565b958a818303125f1461215357611c419103614405565b9560a4351561214c576001975b149788156121455789985b1561213e57985b6040519e8f90611c7261018083612c0c565b8152602001528d8c60408201526060015260808d015260a08c015260c08b015260e08a015261010089015260ff16610120880152610140870152610160860152611cbb85615aec565b158061212e575b15612122575b611cd78560a089015151615501565b611ce985602060a08a01510151615501565b611cfb85602060808a0151015161562c565b611d0a8560808901515161562c565b611d1a856101008801515161562c565b611d2d856020610100890151015161562c565b604060c087015101805184808201128a82129080158216911516176115a35784019052610120850151612117575b611d6688868961573a565b611d6f85615aec565b1580612107575b1561209d575b7363f314Ed6b017c9a42138A59577609F05A140c953b15611516578760405163d329553160e01b8152611db360048201895161300d565b611dc66020890151610104830190612dbc565b611dd96040890151610284830190612fe9565b611dec606089015161058483019061404e565b60808801516105e4820152611e0a60a0890151610604830190612f1e565b611e1d60c0890151610744830190612be9565b611e3060e08901516107c4830190614069565b611e446101008901516108c4830190614087565b88511515610bc482015260208901516001600160a01b03908116610be483015260408a015116610c048201526060890151610c248201526080890151611e8f90610c44830190614087565b611ea260a08a0151610f44830190614069565b336110448201526004356001600160a01b0316611064820152611ec9611084820188612d45565b846112048201528181611224817363f314Ed6b017c9a42138A59577609F05A140c955af4801561040957612088575b50506114ad9660a08701515189526014602052611f1e60408a20608083015151906151fb565b6004356001600160a01b03168952601560209081526040808b2060c08a0151518c5282528a20608083015190910151611f5691615329565b60018060a01b036020820151169060018060a01b03600435168a52601b60205260408a2060c0890151518b5260205260408a2060018060a01b03199283825416179055604060018060a01b039101511660018060a01b03600435168a52601c60205260408a2060c0890151518b5260205260408a2091825416179055611fdb836141de565b60018114612068575b5f1914612048575b608086015193604051948552602085015260408401526060830152608082015260a435151560a08201528460c082015260018060a01b0360043516905f80516020615e3783398151915260e03392a36114706040518092612d45565b8754612063906001600160a01b031661088b61086386614405565b611fec565b8854612083906001600160a01b031661086861086387614405565b611fe4565b8161209291612c0c565b61151657875f611ef8565b60025488906001600160a01b0316803b1561158457818091604460405180948193631a9be9fd60e11b835230600484015260018060a01b036004351660248401525af18015610409576120f2575b5050611d7c565b816120fc91612c0c565b61151657875f6120eb565b5061211185615b05565b15611d76565b336020880152611d5b565b60016020860152611cc8565b5061213885615b05565b15611cc2565b5088611c60565b8098611c59565b8997611c4e565b5050611c4189614405565b611c2b8a614405565b5050611c1489614405565b611bfe8a614405565b611be789614405565b611bd188614405565b612196916151dc565b60a08601516121a58151614040565b90525f80611afa565b6121b7916151dc565b87604088015287602088015260c08601516121d28151614040565b90525f80611ae3565b608435611a74565b90506020813d60201161220d575b816121fe60209383612c0c565b8101031261041457515f611a38565b3d91506121f1565b90506020813d60201161224e575b8161223060209383612c0c565b810103126104a457602491612246602092613058565b9150916119ba565b3d9150612223565b90506020813d602011612288575b8161227160209383612c0c565b810103126115845761228290613058565b5f61184c565b3d9150612264565b5034610169576020366003190112610169576122c460406101c0926122b36130c0565b506004358152601360205220613e9c565b60405190805115158252602081015151602083015260408101515160408301526060810151516060830152608081015151608083015260a08101515160a083015260c08101515160c083015260e08101515160e08301526101008082015151908301526101208082015151908301526101408082015151908301526101608082015151908301526101808082015151908301526101a0809101515190820152f35b50346101695780600319360112610169576002546040516001600160a01b039091168152602090f35b5034610169576040366003190112610169576004356001600160a01b03811691908290036104a057604061019391610180936123c8613065565b5081526015602052818120602435825260205220613d8e565b5034610169576020366003190112610169576004356001600160a01b03811691908290036104a0576040610193916101809361241b613065565b508152601960205220613d8e565b5034610169576020366003190112610169576004356001600160a01b0380821682036104a0575f80516020615e17833981519152906002825414611785576020600491600284555f80516020615e57833981519152541660405192838092635c975abb60e01b82525afa908115610b4e5784916124c8575b50611739576124c4826124b5600194613659565b6124bf82826138ac565b613bba565b5580f35b90506020813d6020116124fa575b816124e360209383612c0c565b81010312610414576124f490613058565b5f6124a1565b3d91506124d6565b5034610169576020366003190112610169576004356001600160a01b03811691908290036104a05760406125499160809361253b612e3b565b508152601060205220613588565b6101a06040518092612be9565b5034610169576020366003190112610169576004356001600160a01b03811691908290036104a05760406125499160809361258f612e3b565b508152601160205220613509565b50346101695780600319360112610169576125b6612ea0565b506125d06125c46006613381565b60405191829182612c81565b0390f35b50346104a057366003190161032081126104a057610300136104a0576040516125ff6101a082612c0c565b6004358152602460209080358284015261261a366044612c43565b906040840191825261262d3660c4612c43565b9260609081860194855261014435608087015261016490813560a08801526101843560c0880152612660366101a4612c43565b60e088015282610223193601126104a0576040519561267f8488612c0c565b61022435875261024435828801526102643560408801526101009687890152610284356101208901526102a4356101408901526102c4356101608901526102e43580151581036104a057610180890152610304359081151582036104a0576005546001600160a01b039790881633141580612a52575b612a4057612703600b6132d7565b9561270e600d61323e565b91612717612ea0565b9415612a2e57818086015101620f424090818460408901510152525b818501519351946127958785015160c08b01965f61278f6127548a51614405565b938c61276a8661276384614414565b868861443d565b9c80519180820151918c60408201519101518d89015260408801528601528452614414565b9161443d565b5f8782039712818812811691881390151617612a1b57604001519051936127cb836127c36040870151614414565b950151614414565b935f8582039512818612811691861390151617612a1b57915f916127f461282e96959451614405565b9482820191825161280e88888860408601948551906157e0565b9a83519381810151926040820151978892015180975252820152526157e0565b5f83820393128184128116918413901516176129f5575f8282019283129112908015821691151617612a085760e0830180515f83820393128184128116918413901516176129f5575273aD4A7b0d821B955492d9BEa6776CDcC33Ee8CaC691823b156104a0575f916128bc91604051948593849263045a766b60e01b8452600b600485015288840190612f1e565b5af480156129ea576129d1575b509082916004869473E02bADe78Ae492E78383B04D6F25d521FF961d20935f80516020615e5783398151915254166040519283809263ad4d4e2960e01b82525afa9384156104455785946129b2575b5050813b156104145761042461294e91859361295960405196879586946302903c7960e21b86526006600487015285018b612fe9565b61032484019061300d565b5af480156104095761299d575b506040517fc25ab284ab9f56bf288df3ff5fbe0a66a671e6616b6311ed26fe943ba789e0b990806129978582612c81565b0390a180f35b816129a791612c0c565b61158457815f612966565b6129c9929450803d1061043e5761042f8183612c0c565b915f80612918565b6129e091939295505f90612c0c565b5f9390915f6128c9565b6040513d5f823e3d90fd5b84634e487b7160e01b5f5260116004525ffd5b83634e487b7160e01b5f5260116004525ffd5b89634e487b7160e01b5f5260116004525ffd5b9350612a3a6006613381565b93612733565b604051639bca062560e01b8152600490fd5b50600484895f80516020615e57833981519152541660405192838092638da5cb5b60e01b82525afa80156129ea5789915f91612a93575b50163314156126f5565b612aaa9150863d881161048e576104808183612c0c565b5f612a89565b346104a05760203660031901126104a0576004356001600160a01b03818116918290036104a05760046020825f80516020615e57833981519152541660405192838092638da5cb5b60e01b82525afa9081156129ea575f91612b55575b5016330361045057600280546001600160a01b031916821790556040519081527f3df77beb5db05fcdd70a30fc8adf3f83f9501b68579455adbd100b818094039490602090a1005b612b6e915060203d60201161048e576104808183612c0c565b83612b0d565b346104a05760403660031901126104a0576004356001600160a01b038116908190036104a057612ba2612e3b565b505f52601a60205260405f206024355f52602052608061254960405f2061328a565b346104a0575f3660031901126104a057612bdc612e3b565b506080612549600d61323e565b606080918051845260208101516020850152604081015160408501520151910152565b601f909101601f19168101906001600160401b03821190821017612c2f57604052565b634e487b7160e01b5f52604160045260245ffd5b91908260809103126104a057604051612c5d608082612c0c565b60608082948035845260208101356020850152604081013560408501520135910152565b9190916102e06103008201938051835260208101516020840152612cad60408201516040850190612be9565b612cbf606082015160c0850190612be9565b608081015190610140918285015260a0810151610160908186015260c0820151926101809384870152612cfb60e08401516101a0880190612be9565b61010083015180516102208801526020810151610240880152604001516102608701526101208301516102808701528201516102a08601528101516102c085015201511515910152565b805182526020810151602083015260408101516040830152606081015160608301526080810151608083015260a081015160a083015260c081015160c083015260e081015160e083015261010080820151908301526101208082015190830152610140808201519083015261016080910151910152565b805182526020810151602083015260408101516040830152606081015160608301526080810151608083015260a081015160a083015260c081015160c083015260e081015160e0830152610100808201511515908301526101208082015115159083015261014080820151151590830152610160809101511515910152565b60405190612e4a608083612c0c565b5f6060838281528260208201528260408201520152565b908160209103126104a057516001600160a01b03811681036104a05790565b60405190612e8f606083612c0c565b5f6040838281528260208201520152565b60405190612eb06101a083612c0c565b5f61018083828152826020820152612ec6612e3b565b6040820152612ed3612e3b565b60608201528260808201528260a08201528260c0820152612ef2612e3b565b60e0820152612eff612e80565b6101008201528261012082015282610140820152826101608201520152565b60206101209180518452818101518285015260408101516040850152606081015160608501526080810151608085015260a081015160a085015260c081015160c085015260e081015160e085015261010080910151908151908501520151910152565b809161010092839103126104a05760e090612f9f6040519384612c0c565b805183526020810151602084015260408101516040840152606081015160608401526080810151608084015260a081015160a084015260c081015160c0840152015160e082015290565b6102e0908051835260208101516020840152612cad60408201516040850190612be9565b60e08091805184526020810151602085015260408101516040850152606081015160608501526080810151608085015260a081015160a085015260c081015160c08501520151910152565b519081151582036104a057565b6040519061307561018083612c0c565b5f610160838281528260208201528260408201528260608201528260808201528260a08201528260c08201528260e08201528261010082015282610120820152826101408201520152565b6040908151916130d26101c084612c0c565b6101a0835f81526131da60209380516130eb8682612c0c565b5f81528584015280516130fe8682612c0c565b5f81528184015280516131118682612c0c565b5f8152606084015280516131258682612c0c565b5f8152608084015280516131398682612c0c565b5f815260a0840152805161314d8682612c0c565b5f815260c084015280516131618682612c0c565b5f815260e084015280516131758682612c0c565b5f8152610100840152805161318a8682612c0c565b5f8152610120840152805161319f8682612c0c565b5f815261014084015280516131b48682612c0c565b5f815261016084015280516131c98682612c0c565b5f8152610180840152519384612c0c565b5f83520152565b604051906131f161012083612c0c565b815f81525f60208201525f60408201525f60608201525f60808201525f60a08201525f60c08201525f60e082015261010060405191613231604084612c0c565b5f83525f60208401520152565b613246612e3b565b50600181549101549060018060401b038060405193613266608086612c0c565b63ffffffff841685521660208401528160801c16604083015260c01c606082015290565b613292612e3b565b5054604051906132a3608083612c0c565b8060d01b60d01d825265ffffffffffff8160301c1660208301528060601b60c01d604083015260201b60c01d606082015290565b6132df6131e1565b50600181549101549063ffffffff9165ffffffffffff9160405192613305604085612c0c565b8260e01b60e01d84528260c81b60e81d60208501526040519461332a61012087612c0c565b80831686528260201c166020860152808260401c166040860152808260701c1660608601528160a01c16608085015260d01c60a08401528060881b60c01d60c084015260481b60c01d60e083015261010082015290565b6101a09061338d612ea0565b50805490600260018201549101549162ffffff9160608365ffffffffffff936133ba858560481c166143ed565b6040938451916133cb608084612c0c565b848460301c168352848460481c1660208401528484831c1686840152818301526133f9878760181c166143ed565b90855191613408608084612c0c565b858560781c168352858560901c1660208401528588168784015281830152613434888560a81c166143ed565b92865196613443608089612c0c565b868960781c168852868960901c166020890152868960a81c1681890152868960c01c1683890152805198613477848b612c0c565b8a8d168a5260081b60e01d60208a01528b60b01b60e01d818a015261349e81519d8e612c0c565b8686168d528c6020888860181c169101528c01528a0152608089015260d81c1660a0870152828560b01c1660c087015260e0860152610100850152808360501c166101208501528260801c166101408401528160e01c1661016083015260f81c151561018082015290565b613511612e3b565b50805460019091015460016001603e1b03600282901c16906003168061358157815b6001820361357857600281925b0361357057915b63ffffffff6040519461355b608087612c0c565b16845260208401526040830152606082015290565b505f91613547565b60025f92613540565b5f91613533565b613590612e3b565b50546040519063ffffffff6135a6608084612c0c565b8181168352602082811c90911690830152608081811b60c01d60408401521c6001600160401b0316606082015290565b604051906135e5604083612c0c565b816135ee612e3b565b815260206135fa612e3b565b910152565b6040519061360e604083612c0c565b81613617613065565b815260206135fa613065565b91908260609103126104a05760405161363d606082612c0c565b60406135fa818395805185526020810151602086015201613058565b9060409182519061366c61012083612c0c565b83516101009461367c8683612c0c565b5f82526020925f848401525f828401525f60608401526080925f848201525f60a08201525f60c08201525f60e08201528552838501966136ba613065565b8852828601956136c8612ea0565b875260608101926136d7612e80565b8452858201935f855260a08301906136ed6131e1565b825260c08401956136fc612e3b565b875260e085019561370b6135d6565b87528086019b6137196135ff565b8d52869e613727600961429a565b90526137336006613381565b90525f80516020615e5783398151915254895163ad4d4e2960e01b81526001600160a01b0397918390829060049082908c165afa9283156138815790600495949392915f93613862575b5050528986600254168a5194858092631006976960e11b82525afa908115613858575f935f92613816575b506138109a5052526137ba600b6132d7565b90521691825f52601086526137d0845f20613588565b90526137dc600d61323e565b815152815f5260118552846137f2845f20613509565b915101526138006016614347565b8551525f52601983525f20613d8e565b91510152565b93509050893d8b11613851575b61382d8185612c0c565b830199838b03126104a05760606138476138109b85613623565b930151905f6137a8565b503d613823565b89513d5f823e3d90fd5b613879929350803d1061043e5761042f8183612c0c565b905f8061377d565b8b513d5f823e3d90fd5b9190820180921161389857565b634e487b7160e01b5f52601160045260245ffd5b91906040908151916060916138c18385612c0c565b6138c96130c0565b8452602092838501956138da612e3b565b87528386016138e7612e80565b815260e0890197885151515f5260138752613903865f20613e9c565b885260018060a01b039182861692835f52601a8952875f20898c510151515f528952613930885f2061328a565b83526002541690858b51515160248a5180958193630e0886f960e41b835260048301525afa918215613bb0575f92613b78575b50525180511580613b6d575b80613b62575b80613b57575b80613b44575b613b32575b5061398f613065565b975b60a08a018051888151910151809114159081613b01575b50156139cf5787905101516001810180911161389857896139ca918a8d614571565b613991565b509091929395945b60c08a018051878151910151141580613ac6575b15613a12578690510151600181018091116138985789613a0d91898b8e614d86565b6139d7565b50919750959297949391978501958651518151515110613a8c575b82875151915101515110613a45575b50505050505050565b613a80965f5260158252613a77613a6e825f209260c088019385855101515f5285525f20613d8e565b965151876151dc565b51015192614d86565b5f808080808080613a3c565b613ac160a0870184815101515f526014855284613aaa855f20614347565b91613ab78b5151846151dc565b5101518689614571565b613a2d565b509850825f5260158652805f20868a51015160018101809111613898575f528652613af2815f20613d8e565b98858b0151518a5111156139eb565b80929b506001915001809111613898575f5260148752613b22865f20614347565b98848b0151518a5111155f6139a8565b838660c08c015101519101525f613986565b5085876101008c01510151015115613981565b50838101511561397b565b508581015115613975565b50868101511561396f565b909150853d8711613ba9575b613b8e8183612c0c565b810186828203126104a057613ba291613623565b905f613963565b503d613b84565b88513d5f823e3d90fd5b60a0810151929173aD4A7b0d821B955492d9BEa6776CDcC33Ee8CaC690813b156104a0576101645f60409384519283809263045a766b60e01b8252613c0b859b600b60048501526024840190612f1e565b5af48015613d8457613d6f575b506001600160a01b0316808552601060205281852060c0840151919391613c3e9161411b565b735f52A20d8126eF29d813F522aa254F92500e0b928560e0830191825151813b1561040557613c8c60a48492885194859384926366e4915160e01b8452600d60048501526024840190612be9565b5af48015613d6557613d4c575b5084905260116020528583812091602073b5CB0bbe900FEEe7f23F7BD785Cd07032928B3349151015190803b1561040557613cf19360a49187519586948593635c7731d160e11b855260048501526024840190612be9565b5af48015613d4257613d2d575b5090613d2b93946101006020930193613d1a85515160166151fb565b815260198352209151015190615329565b565b613d38868092612c0c565b6104a4575f613cfe565b83513d88823e3d90fd5b81613d5691612c0c565b613d6157855f613c99565b8580fd5b85513d84823e3d90fd5b613d7c9195505f90612c0c565b5f935f613c18565b83513d5f823e3d90fd5b613d96613065565b506001815491015460038260801c169060018080603e1b0393848160821c16948160c01c1663ffffffff95851595865f14613e955781965b15613e8e57825b818614908115613e875783915b15613e7e57600281935b14938415613e7657935b15613e6e57935b868060401b03986040519a613e146101808d612c0c565b8088168c528760201c1660208c01528660801b60c01d60408c015260608b015260808a015260a089015260c088015260e087015261010086015260fe1c1661012084015281811661014084015260401c1661016082015290565b505f93613dfd565b505f93613df6565b60025f93613dec565b5f91613de2565b5f92613dd5565b5f96613dce565b613ea46130c0565b508054816001829301549060020154604051916020928392613ec68483612c0c565b8560b81b60c01d825260405190613edd8583612c0c565b8660781b60c01d8252604051613ef38682612c0c565b8760381b60c01d8152604051613f098782612c0c565b8260d01b60d01d815260405190613f208883612c0c565b8360a01b60d01d825260405192613f378985612c0c565b8460701b60d01d845260405194613f4e8a87612c0c565b60401b60d01d855260405195613f648a88612c0c565b8860d01b60d01d875260405197613f7b8b8a612c0c565b8960a01b60d01d89528a6040519a613f93828d612c0c565b8060701b60d01d8c526040519c613faa908e612c0c565b8060401b60d01d8d526040519d613fc1908f612c0c565b60101b60d01d8d52604051809e613fd88383612c0c565b60081b60d01d90526040519e8f90613ff26101c083612c0c565b60ff1615158152015260408d015260608c015260808b015260a08a015260c089015260e08801526101008701526101208601526101408501526101608401526101808301526101a082015290565b5f1981146138985760010190565b60408091805184526020810151602085015201511515910152565b9060806020613d2b9361407d848251612be9565b0151910190612be9565b906101806020613d2b9361409c848251612d45565b0151910190612d45565b6001600160a01b0381811692909190338414801590614113575b61410b576140ff6020927f20ca5094f3a20c321cbe4123d0f01b276b81df0fa24cd4d83d9253956035d863945f5416906140f9846141fa565b91614214565b604051908152a2600190565b505050505f90565b5080156140c0565b9063ffffffff91828251116141cc5760208201838151116141cc576040830180516002906141519060016001603f1b0390615bf1565b146141cc57805161416b9060016001603f1b031990615bf1565b156141cc576060840191600261418860018060401b038551615c0d565b146141cc575f9560019551169063ffffffff60201b905160201b1617908460401b8560801b03905160401b1617908360801b8460c01b03905160801b161781550155565b60405163320f423b60e21b8152600490fd5b5f81136141f4575f136141ef575f90565b5f1990565b50600190565b64e8d4a51000908181029181830414901517156138985790565b60405163a9059cbb60e01b60208201526001600160a01b039283166024820152604480820194909452928352613d2b929190614251606484612c0c565b16615c39565b6040516323b872dd60e01b60208201526001600160a01b039283166024820152306044820152606480820194909452928352613d2b929190614251608484612c0c565b6142a2613065565b50546008808260f81c65ffffffffffff62ffffff9461ffff604051966142ca61018089612c0c565b8083168852808360181c166020890152808360301c166040890152808360481c1660608901528260601c166080880152808260781c1660a08801528160881c1660c087015260981c1660e0850152600180821614610100850152600280821614610120850152600480821614610140850152161461016082015290565b61434f613065565b5080546001820154600290920154604051926001600160401b039263ffffffff61437b61018087612c0c565b80821686528160201c1660208601528060801b60c01d6040860152838160801c16606086015260c01c608085015282811660a0850152828160401c1660c0850152828160801c1660e085015260c01c6101008401525f61012084015281811661014084015260401c1661016082015290565b620f4240908181029181830414901517156138985790565b5f811261440f5790565b5f0390565b6001600160ff1b0381116144255790565b6024906040519063eecaa25d60e01b82526004820152fd5b929161444882614414565b5f8282019283129112908015821691151617613898576144679061579d565b604061448e614481614486614481606089019687516157bf565b614414565b9385516157bf565b9251940151818303925f83128015828613169185121617613898576144b2946157e0565b90565b91908260209103126104a0576040516144cf602082612c0c565b91518252565b805115158252602081015151602083015260408101515160408301526060810151516060830152608081015151608083015260a08101515160a083015260c08101515160c083015260e08101515160e08301526101008082015151908301526101208082015151908301526101408082015151908301526101608082015151908301526101808082015151908301526101a08091015151910152565b92919060018060a01b036002541660608451602460405180948193630e0886f960e41b835260048301525afa9081156129ea575f91614d4d575b5060208101805115614d3c575b506145c984610100870151516158b8565b604081015115614d2e575b6040516145e36102a082612c0c565b5f8152602081015f9052604081015f9052606081015f9052608081015f905260a081015f905260c081015f905260e081015f905261010081015f905261012081015f905261014081015f905261016081015f905261018081015f90526101a081015f90526101c081015f90526101e081015f905261020081015f905261022081015f905261024081015f905261026081015f9052610280015f905281519460a081015160e08201515160408501516020840151916040850151936040519a63125c105b60e11b8c5260048c016146b8916144d5565b6101c48b016146c691612f1e565b6103048a016146d491612be9565b6146e26103848a0189612d45565b61050489016146f09161404e565b6146fe61056489018561404e565b6105c4880161470c91612dbc565b610744870161471a91612fe9565b8580736fd2B0a8a40A1Be8510cB5f39eFd72CFCA3b45bE5a92610a44916105a094f49586156129ea575f905f905f986149ff575b5060a0830152835260e060a082015187608061480360208601516147d26147a661479f6147978a51976101e061478e60408301516101608401519061388b565b9101519061388b565b965187615bd8565b8096615433565b6147cd6147c56147ba606086015184615bd8565b968795015183615bd8565b958692615433565b615433565b938a60208701526147e86040870191825161388b565b905260608501516102608d01516147fe9161388b565b61388b565b60608401526148176080840191825161388b565b905261482860a0830191825161388b565b90520180519060c0880151915f8382019384129112908015821691151617613898575260e001515161485b908590615501565b604082015282515f52601360205260405f207373Ff980B20696EE07827146c76F71E48727835949151823b156104a0576101e45f926148b5946040519586948593631cf7ef4560e11b8552600485015260248401906144d5565b5af49384156129ea5761490161044094610280937fa682436af40a175ff2ec8049fb223c3b762ca7ce50863806fc21706829e27662976149ef575b506040519485526020850190612d45565b80516101a084015260208101516101c084015260408101516101e08401526060810151610200840152608081015161022084015260a081015161024084015260c081015161026084015260e0810151828401526101008101516102a08401526101208101516102c08401526101408101516102e08401526101608101516103008401526101808101516103208401526101a08101516103408401526101c08101516103608401526101e08101516103808401526102008101516103a08401526102208101516103c08401526102408101516103e08401526102608101516104008401520151610420820152a1565b5f6149f991612c0c565b5f6148f0565b975050506105a03d6105a011614d27575b614a1a8188612c0c565b6105a08782810103126104a0576101c08782810103126104a057604051614a436101c082612c0c565b614a4c88613058565b8152614a5d82890160208a016144b5565b6020820152614a7182890160408a016144b5565b6040820152614a8582890160608a016144b5565b6060820152614a9982890160808a016144b5565b6080820152614aad82890160a08a016144b5565b60a0820152614ac182890160c08a016144b5565b60c0820152614ad582890160e08a016144b5565b60e0820152614aea8289016101008a016144b5565b610100820152614b008289016101208a016144b5565b610120820152614b168289016101408a016144b5565b610140820152614b2c8289016101608a016144b5565b610160820152614b428289016101808a016144b5565b610180820152614b588289016101a08a016144b5565b6101a08201526101406101bf19898481010301126104a05760405191614b8061012084612c0c565b6101c089015183526101e0890151602084015261020089015160408401526102208901516060840152610240890151608084015261026089015160a084015261028089015160c08401526102a089015160e084015260406102bf198a8381010301126104a0576102a090604051614bf8604082612c0c565b6102c08b015181526102e08b0151602082015261010085015289018990036102ff1901126104a05761058060405198614c336102a08b612c0c565b6103008101518a5261032081015160208b015261034081015160408b015261036081015160608b015261038081015160808b01526103a081015160a08b01526103c081015160c08b01526103e081015160e08b01526104008101516101008b01526104208101516101208b01526104408101516101408b01526104608101516101608b01526104808101516101808b01526104a08101516101a08b01526104c08101516101c08b01526104e08101516101e08b01526105008101516102008b01526105208101516102208b01526105408101516102408b01526105608101516102608b01520151610280890152905f61474e565b503d614a10565b614d37846159bd565b6145d4565b60c060a0870151015190525f6145b8565b905060603d606011614d7f575b614d648183612c0c565b81016060828203126104a057614d7991613623565b5f6145ab565b503d614d5a565b939293919091602060e082015101515f90515f526013602052614dab60405f20613e9c565b85515f526013602052614dc060405f20613e9c565b614dd387602061010087015101516158b8565b8051156151ce575b614e7360405191614ded60e084612c0c565b5f83525f60208401525f60408401525f60608401525f60c060809482868201528260a08201520152614e68602089015194614e5d602060e08a01510151614e456040519863448e84d160e11b8a5260048a0190612be9565b614e52608489018e612d45565b610204880190612be9565b6102848601906144d5565b6104448401906144d5565b61016080836106048173960E20A297fCe472B9e060428fC92Fce34d83Bee5af49283156129ea575f915f9461510a575b5050602087015260c084015160208301516040840151905f8282019283129112908015821691151617613898576060840151905f82820192831291129080158216911516176138985760408201518451905f8282019283129112908015821691151617613898575f828203921281831281169183139015161761389857614f2c83850151614414565b905f828203921281831281169183139015161761389857614f5060a0850151614414565b915f83128284810312811690838581031390151617613898578a926020920360408201520152614f8887602060e08701510151615501565b60018060a01b0385165f52601a60205260405f2087515f5260205260405f20602073074fb1073b24f85b52337b7DFeA2d2CB5B9406d9970151873b156104a05760a45f92614ff1996040519a8b94859363be49f2e760e01b855260048501526024840190612be9565b5af480156129ea577fca02bd6dde25571550ec822c36a8acc31db3834e00925e15ea50e10520b14bc9976102809760a0956150a8936150f6575b6150989150600180881b0389168152601b602052604081208c8252602052615064600180891b0360408320541688880151908b8b6159f2565b600180881b0389168152601c602052604081208c82526020526040600180891b03912054169660c0860197898951926159f2565b604051998a5260208a0190612d45565b81516101a089015260208201516101c089015260408201516101e089015260608201516102008901528101516102208801520151610240860152516102608501526001600160a01b031692a2565b505f61510191612c0c565b6150985f61502b565b8194508092503d83116151c7575b6151228183612c0c565b8101039081126104a0578181126104a05760e0604051916151438484612c0c565b84518352602085015160208401526040850151604084015260608501516060840152607f1901126104a0576101406040519361518060e086612c0c565b83810151855260a0810151602086015260c0810151604086015260e081015160608601526101008101518486015261012081015160a0860152015160c08401525f80614ea3565b503d615118565b6151d7876159bd565b614ddb565b6151e5816159bd565b5f6101208201525f60408201525f602082015252565b9061520581615a66565b606081019160029160018060401b039083615221838751615c0d565b14615317576080810184615236848351615c0d565b146153175760a08201958561524c858951615c0d565b146153175760c083019086615262868451615c0d565b146153175760e0840187615277878351615c0d565b14615317576101008501918861528e888551615c0d565b14615317576101609363ffffffff87511663ffffffff60201b602089015160201b161788600160401b600160801b039788928360408c015160401b1617600160801b600160c01b0380965160801b1617905160c01b179c5116915160401b1617915160801b1617905160c01b17936101408401511692015160401b161793825560018201550155565b6040516367e4596560e01b8152600490fd5b61533282615a66565b61533b82615aec565b9061534583615b05565b9260016001603e1b03600261535a8286615c0d565b146153175761536b60029186615c0d565b146153175761012081019360018551116153175760019363ffffffff83511663ffffffff60201b602085015160201b1617958560401b8660801b039687604086015160401b1617600360801b6153c086615b1f565b60801b1617908660fe1b905160fe1b16928660c01b8760fe1b039060c01b16918660821b8760c01b039060821b1617171793610160848060401b036101408401511692015160401b16179281550155565b81810292915f8212600160ff1b82141661389857818405149015171561389857565b9190820391821161389857565b600161544d5f1985615c0d565b146154d257600161546060011985615c0d565b1461546a57505090565b90809250156154ce57906154b8826154b860206101008160e06144b2980151015182604082015160608301518082115f146154c65750915b0151808211156154be5750935b01510151615b05565b90615433565b9050936154af565b9050916154a2565b5090565b50905090565b916001600160a01b0316156154fb576060015190816154ce5760e0915051015190565b50505f90565b8151815260208101906155148251614414565b6155216060850151614414565b9061552f6080860151614414565b915f8382039312818412811691841390151617613898575f8282019283129112908015821691151617613898576155659061579d565b9260408201906155758251614414565b61558260a0830151614414565b9061559060c0840151614414565b915f8382039312818412811691841390151617613898575f8282019283129112908015821691151617613898576155c860609161579d565b9301906155d58251614414565b6155f06101006155e860e0850151614414565b930151614414565b915f8382039312818412811691841390151617613898575f8282019283129112908015821691151617613898576156269061579d565b90525252565b60208101615640815160208501519061388b565b90604083018051906040860151915f83820193841291129080158216911516176138985761012061567a818701918251908901519061388b565b90610140615691818901918251908b01519061388b565b906101606156a8818b01918251908d01519061388b565b90525252525260608101906156c3825160608501519061388b565b9260808201906156d9825160808301519061388b565b9260a08101906156ef825160a08501519061388b565b9260c0820190615705825160c08301519061388b565b9260e081019061573161571e835160e08601519061388b565b936101008093019283519101519061388b565b90525252525252565b9061014081015115908161578f575b5061578b5760400180516001600160a01b03918291821615615781575b5116911614613d2b57604051639dbdc5fd60e01b8152600490fd5b8184168152615766565b5050565b61016091500151155f615749565b5f81126157a75790565b6024906040519063b02ef08760e01b82526004820152fd5b9060026157cc8383615c0d565b036157d75750505f90565b6144b291615433565b9391908115806158b0575b6158a757841561589557610e60610e6091610e5a61584461584a95610e606158128b614414565b99610e5a61583e61583461582e620f42409e8f9c8d8099615411565b9e614414565b610e608685615411565b9a614414565b91614414565b92818101918212905f811290811592801583169084161761389857830192831290811516911617613898576144b292610e5a610e6092610e608561588f816002615411565b92615411565b60405163c7d40ac960e01b8152600490fd5b50505050505f90565b5083156157eb565b602081016158cc8151602085015190615433565b90604083018051906040860151915f8382039312818412811691841390151617613898576101206159068187019182519089015190615433565b9061014061591d818901918251908b015190615433565b90610160615934818b01918251908d015190615433565b905252525252606081019061594f8251606085015190615433565b9260808201906159658251608083015190615433565b9260a081019061597b825160a085015190615433565b9260c0820190615991825160c083015190615433565b9260e08101906157316159aa835160e086015190615433565b9361010080930192835191015190615433565b60605f918261016082015282610140820152826101008201528260e08201528260c08201528260a08201528260808201520152565b918315615a60576001600160a01b0390811691168103615a245750606060c0615a209201510191825161388b565b9052565b613d2b929150805f526010602052615a3e60405f20613588565b91615a4e6060840191825161388b565b90525f52601060205260405f2061411b565b50505050565b63ffffffff808251116153175760208201511161531757604081018051600290615a989060016001603f1b0390615bf1565b146153175751615ab19060016001603f1b031990615bf1565b156153175760018060401b03906002615acf83610140840151615c0d565b1461531757600291610160615ae5920151615c0d565b1461531757565b6144b29060e061478e606083015160a08401519061388b565b6144b29061010061478e608083015160c08401519061388b565b60a081015115801590615b5d575b6141f45760e08101511590811591615b4e575b50615b49575f90565b600290565b6101009150015115155f615b40565b5060c08101511515615b2d565b615b72612e3b565b50805190602081015190606060408201519101519160405193615b96608086612c0c565b845260208401526040830152606082015290565b8115615bc457600160ff1b81145f19831416613898570590565b634e487b7160e01b5f52601260045260245ffd5b81810291818304149015171561389857620f4240900490565b818113615c065712615c0257600190565b5f90565b5050600290565b818111615c065710615c0257600190565b6001600160401b038111612c2f57601f01601f191660200190565b602091615cbf916001600160a01b03165f80615c5486615c1e565b93615c626040519586612c0c565b8685527f5361666545524332303a206c6f772d6c6576656c2063616c6c206661696c656487860152868151910182855af13d15615d40573d91615ca483615c1e565b92615cb26040519485612c0c565b83523d5f8785013e615d44565b805180615ccb57505050565b818391810103126104a05781615ce19101613058565b15615ce95750565b6084906040519062461bcd60e51b82526004820152602a60248201527f5361666545524332303a204552433230206f7065726174696f6e20646964206e6044820152691bdd081cdd58d8d9595960b21b6064820152fd5b6060915b91929015615da65750815115615d58575090565b3b15615d615790565b60405162461bcd60e51b815260206004820152601d60248201527f416464726573733a2063616c6c20746f206e6f6e2d636f6e74726163740000006044820152606490fd5b825190915015615db95750805190602001fd5b6040519062461bcd60e51b82528160208060048301528251908160248401525f935b828510615dfd575050604492505f838284010152601f80199101168101030190fd5b8481018201518686016044015293810193859350615ddb56fea9c835c21e93a672e5a6ef8ca0374f90b7d4378f7eec5769dcf22fdefd60ffaef8691f65402f2a458580d76db93812d43292515aaec0b64222f11d1a0642d8470aec74a1754fb10877b53c31a29be82096082042eb1fb374ec96fac88c0e621ba2646970667358221220a398c92bc6c9d4983352d905b958f3abbb033588d6db76ad092b741b0bcbf3ac64736f6c63430008180033",
  "deployedBytecode": "0x60806040526004361015610011575f80fd5b5f803560e01c806309218e9114612bc45780630cdfebfa14612b745780631cb44dfc14612ab057806330d8c210146125d45780634549a6291461259d57806355f57510146125565780635b4b9695146125025780636a256b29146124295780636e193680146123e15780637cc4d3401461238e5780637dc0d1d01461236557806387aee00e1461229057806391eece28146117b357806395fcd83614611797578063977b1f5f14610b7e57806399d32fc414610950578063a05f9906146108c3578063a4d154871461071e578063ad4d4e29146106ea578063b68af80a146106a1578063b6a597dd1461055a578063c45a015514610525578063c496969b146104f1578063c73e293b146104a8578063cf6bf86a146101a2578063e20ccec31461016c5763fc0c546a14610143575f80fd5b34610169578060031936011261016957546040516001600160a01b039091168152602090f35b80fd5b5034610169578060031936011261016957610185613065565b506101806101936016614347565b6101a06040518092612d45565bf35b5034610169576101c0366003190112610169576004356001600160a01b03818116918290036104a0576024358181168091036104a05761018091826043193601126104a457604051936101f58486612c0c565b604435855260209060643582870152608435604087015260a435606087015260c435608087015260e43560a08701526101043560c08701526101243560e0870152610144359081151582036104a05761010091828801526101643580151581036104a0576101208801526101843580151581036104a0576101408801526101a492833580151581036104a057610160890152845f80516020615e57833981519152541694604051638da5cb5b60e01b815282816004818a5afa908115610495578b91610468575b50163303610450578589967fc258faa9a17ddfdf4130b4acff63a289202e7d5f9e42f366add65368575486bc937feee59a71c694e68368a1cb0d135c448051bbfb12289e6c2223b0ceb100c2321d8460018060a01b03199280846004541617600455604051908152a16005541617600555604051908152a160048173__$c5b758809b18b7c9fcabb156ae018568b0$__946040519283809263ad4d4e2960e01b82525afa918215610445578592610418575b5050823b15610414576102a484926103ae9460405195869485936373a328f760e11b8552600960048601526103a6602486018d612dbc565b84019061300d565b5af48015610409576103f0575b50507ffe82819b288047b2416d26eabdd67d46cd2dc02c2332ad5d56d7fc01c46e3c5f916103ec6040518092612dbc565ba180f35b816103fa91612c0c565b61040557825f6103bb565b8280fd5b6040513d84823e3d90fd5b8380fd5b6104379250803d1061043e575b61042f8183612c0c565b810190612f81565b5f8061036e565b503d610425565b6040513d87823e3d90fd5b604051634d193d1f60e01b8152336004820152602490fd5b6104889150833d851161048e575b6104808183612c0c565b810190612e61565b5f6102bc565b503d610476565b6040513d8d823e3d90fd5b5f80fd5b8480fd5b5034610169576040366003190112610169576001600160a01b03600435818116908190036104a0578260409160209452601c845281812060243582528452205416604051908152f35b503461016957602036600319011261016957610193604061018092610514613065565b506004358152601460205220614347565b50346101695780600319360112610169575f80516020615e57833981519152546040516001600160a01b039091168152602090f35b5034610169576040366003190112610169577f6fee9688c285c5c5c97d6a1a29adced674e6b2ad0888b8ad2116b58a8b3ea2486001815410156106885760019055303b151580610681575b61066857335f80516020615e5783398151915255303b15158061067a575b6106685760015f80516020615e17833981519152556001600160a01b03600435818116908190036104055782546001600160a01b0319908116909117835560243591821691829003610405576002541617600255807f2801b00eb06461cf9fcb9758b5fafd884ff06a86177386f73b6c49f0bf5a5af0557fbe9b076dc5b65990cca9dd9d7366682482e7817a6f6bc7f4faf4dc32af497f32602060405160018152a180f35b60405163b9a621e160e01b8152600490fd5b50806105c3565b50806105a5565b604051631edb9c6d60e11b815260016004820152602490fd5b5034610169576040366003190112610169576001600160a01b03600435818116908190036104a0578260409160209452601b845281812060243582528452205416604051908152f35b5034610169578060031936011261016957610703613065565b50610180610711600961429a565b6101a06040518092612dbc565b50346101695780600319360112610169575f80516020615e5783398151915254604051638da5cb5b60e01b81526001600160a01b03916020908290600490829086165afa80156108b85782918491610899575b5016330361045057819081610786600b6132d7565b9160e083019081516001610799826141de565b14610877575b5081515f196107ad826141de565b14610850575b505080516040519081527f25e5e4c41e0fec8db036b4544824413a63ffe455e2b4decd71d72932f607ff5960203392a25273__$e64848e740b5620d47cef49412062df449$__90813b1561084c5761082c6101648492604051948593849263045a766b60e01b8452600b60048501526024840190612f1e565b5af480156104095761083b5750f35b8161084591612c0c565b6101695780f35b5050fd5b6108686108636108709386541692614405565b6141fa565b903390614257565b5f806107b3565b6108939061088b6108638487541692614405565b903390614214565b5f61079f565b6108b2915060203d60201161048e576104808183612c0c565b5f610771565b6040513d85823e3d90fd5b50346101695780600319360112610169576108dc6131e1565b506101406108ea600b6132d7565b60206040519180518352818101518284015260408101516040840152606081015160608401526080810151608084015260a081015160a084015260c081015160c084015260e081015160e084015261010080910151908151908401520151610120820152f35b503461016957806003193601126101695761096b600b6132d7565b338252602090601082528261098260408220613588565b5f80516020615e578339815191528054604051638da5cb5b60e01b81529294926001600160a01b039187908290600490829086165afa8015610445576004938684928a948291610b61575b506109de60408901918251906140a6565b610b59575b5050541660405193848092630c7f7fb960e41b82525afa8015610b4e5784928391610b12575b508290610a1e606086019184835191166140a6565b610b0a575b508160055416610a3960808601918251906140a6565b610b02575b505060045416610a5460a08401918251906140a6565b610afa575b5060608401610a698151336140a6565b610af2575b505073__$e64848e740b5620d47cef49412062df449$__90813b1561040557610ab86101648492604051948593849263045a766b60e01b8452600b60048501526024840190612f1e565b5af4801561040957610add575b50506010610ada92338552526040832061411b565b80f35b81610ae791612c0c565b61040557825f610ac5565b52815f610a6e565b52815f610a59565b52815f610a3e565b52815f610a23565b80929350878092503d8311610b47575b610b2c8183612c0c565b81010312610414575190808216820361041457839182610a09565b503d610b22565b6040513d86823e3d90fd5b52865f6109e3565b610b789150853d871161048e576104808183612c0c565b5f6109cd565b50346101695760e0366003190112610169576004356001600160a01b03811690036104a05760a435151560a435036104a05760c4356001600160a01b03811690036104a05760025f80516020615e1783398151915254146117855760025f80516020615e17833981519152555f80516020615e5783398151915254604051635c975abb60e01b815290602090829060049082906001600160a01b03165afa90811561040957829161174b575b5061173957610c3a600435613659565b610c46600435826138ac565b610160602082015101516117275760405190610c6360c083612c0c565b828252826020830152826040830152826060830152610c806135ff565b6080830152610c8d6135d6565b60a0830152610ca060e082015151615b6a565b60a083015152610cbc60a0830151516101008301515190615501565b610ccd602060e08301510151615b6a565b602060a08401510152610cf2602060a084015101516020610100840151015190615501565b60a08101515183526014602052610d0b60408420614347565b60808301515260018060a01b0360043516835260156020526040832060c0820151518452602052610d3e60408420613d8e565b60206080840151015260018060a01b035f80516020615e57833981519152541660405163131bac4760e11b815260018060a01b03600435166004820152336024820152602081604481855afa9081156104455785916116e6575b5015158352600480356001600160a01b03908116808752601b6020908152604080892060c088018051518b52908352818a2054851689840152928952601c8252808920925151895291815281882054831682880152905163085d260760e21b815260c4359092169282019290925291829060249082905afa908115610b4e5784916116b4575b5060608301526001610e36600160ff1b608435615bf1565b036116ac57610e65604060c08301510151610e60620f424091610e5a835f19615411565b90615411565b615baa565b610e7d60243560208060a08701510151015184615440565b610e966044356040602060a08801510151015185615440565b91610eb06064356060602060a08901510151015186615440565b610ebd60c43587876154d8565b936080860151602060808901510151908151811161167f575b50506080860151608088015151908151811161165e575b5050608086015194602060a08901510151610f06613065565b50610f1086614414565b90610f1e6020820151614414565b908b8212838381031281169084848103139015161761164a57610f4085614414565b93610f4e6040830151614414565b908d8212868381031281169087848103139015161761163657908d9291610f816060610f798b614414565b940151614414565b93841283858103128116908486810313901516176116225790610fd68f979695949392610fd1610fc6610fb5888a03614405565b610fc0868c03614405565b9061388b565b610fc0878703614405565b615bd8565b9587858703135f1461161957610fed858703614405565b88868803125f1461161057611003868803614405565b9189848203135f146116075761101a848203614405565b938a818303125f146115fc576110309103614405565b9389868203135f146115f357611047868203614405565b958a818303125f146115e85761105d9103614405565b9560a435156115e1576001975b149788156115da5789985b156115d357985b6040519e8f9061108e61018083612c0c565b8152602001528d8c60408201526060015260808d015260a08c015260c08b015260e08a015261010089015260ff166101208801526101408701526101608601526110d785615aec565b15806115c3575b156115b7575b6110f38560a089015151615501565b61110585602060a08a01510151615501565b61111785602060808a0151015161562c565b6111268560808901515161562c565b611136856101008801515161562c565b611149856020610100890151015161562c565b604060c087015101805184808201128a82129080158216911516176115a35784019052610120850151611598575b61118460c435868961573a565b61118d85615aec565b1580611588575b1561151a575b73__$868083e60620b1b18b00d84e3b9f0de884$__3b15611516578760405163d329553160e01b81526111d160048201895161300d565b6111e46020890151610104830190612dbc565b6111f76040890151610284830190612fe9565b61120a606089015161058483019061404e565b60808801516105e482015261122860a0890151610604830190612f1e565b61123b60c0890151610744830190612be9565b61124e60e08901516107c4830190614069565b6112626101008901516108c4830190614087565b88511515610bc482015260208901516001600160a01b03908116610be483015260408a015116610c048201526060890151610c2482015260808901516112ad90610c44830190614087565b6112c060a08a0151610f44830190614069565b336110448201526004356001600160a01b03166110648201526112e7611084820188612d45565b8461120482015281816112248173__$868083e60620b1b18b00d84e3b9f0de884$__5af4801561040957611501575b50506114ad9660a0870151518952601460205261133c60408a20608083015151906151fb565b6004356001600160a01b03168952601560209081526040808b2060c08a0151518c5282528a2060808301519091015161137491615329565b60018060a01b036020820151169060018060a01b03600435168a52601b60205260408a2060c0890151518b5260205260408a2060018060a01b03199283825416179055604060018060a01b039101511660018060a01b03600435168a52601c60205260408a2060c0890151518b5260205260408a20918254161790556113f9836141de565b600181146114e1575b5f19146114c1575b608086015193604051948552602085015260408401526060830152608082015260a435151560a082015260018060a01b0360c4351660c082015260018060a01b0360043516905f80516020615e3783398151915260e03392a36114706040518092612d45565b6004356001600160a01b0316907f9a56cf35efaffce99179d6c2031a9dc354c09b4a2bb7f1b7fb9f8c4736979c059061018090a260043590613bba565b60015f80516020615e178339815191525580f35b87546114dc906001600160a01b031661088b61086386614405565b61140a565b88546114fc906001600160a01b031661086861086387614405565b611402565b8161150b91612c0c565b61151657875f611316565b8780fd5b60025488906001600160a01b0316803b1561158457818091604460405180948193631a9be9fd60e11b835230600484015260018060a01b036004351660248401525af180156104095761156f575b505061119a565b8161157991612c0c565b61151657875f611568565b5080fd5b5061159285615b05565b15611194565b336020880152611177565b634e487b7160e01b8a52601160045260248afd5b600160208601526110e4565b506115cd85615b05565b156110de565b508861107c565b8098611075565b899761106a565b505061105d89614405565b6110478a614405565b505061103089614405565b61101a8a614405565b61100389614405565b610fed88614405565b634e487b7160e01b8f52601160045260248ffd5b634e487b7160e01b8e52601160045260248efd5b634e487b7160e01b8c52601160045260248cfd5b611667916151dc565b60a08601516116768151614040565b90525f80610eed565b611688916151dc565b87604088015287602088015260c08601516116a38151614040565b90525f80610ed6565b608435610e65565b90506020813d6020116116de575b816116cf60209383612c0c565b8101031261041457515f610e1e565b3d91506116c2565b90506020813d60201161171f575b8161170160209383612c0c565b810103126104a457602491611717602092613058565b915091610d98565b3d91506116f4565b604051630b8b968760e31b8152600490fd5b604051634b94d2bb60e01b8152600490fd5b90506020813d60201161177d575b8161176660209383612c0c565b810103126115845761177790613058565b5f610c2a565b3d9150611759565b6040516345f6780960e11b8152600490fd5b5034610169578060031936011261016957602090604051908152f35b50346101695760c0366003190112610169576004356001600160a01b03811690036104a05760a435151560a435036104a05760025f80516020615e1783398151915254146117855760025f80516020615e17833981519152555f80516020615e5783398151915254604051635c975abb60e01b815290602090829060049082906001600160a01b03165afa908115610409578291612256575b506117395761185c600435613659565b611868600435826138ac565b61016060208201510151611727576040519061188560c083612c0c565b8282528260208301528260408301528260608301526118a26135ff565b60808301526118af6135d6565b60a08301526118c260e082015151615b6a565b60a0830151526118de60a0830151516101008301515190615501565b6118ef602060e08301510151615b6a565b602060a08401510152611914602060a084015101516020610100840151015190615501565b60a0810151518352601460205261192d60408420614347565b60808301515260018060a01b0360043516835260156020526040832060c082015151845260205261196060408420613d8e565b60206080840151015260018060a01b035f80516020615e57833981519152541660405163131bac4760e11b815260018060a01b03600435166004820152336024820152602081604481855afa908115610445578591612215575b50151583526001600160a01b03600480358216808752601b6020908152604080892060c088018051518b52908352818a20548616838a0152928952601c8252808920925151895291815281882054909316818701525163085d260760e21b815290810186905291829060249082905afa908115610b4e5784916121e3575b5060608301526001611a50600160ff1b608435615bf1565b036121db57611a74604060c08301510151610e60620f424091610e5a835f19615411565b611a8c60243560208060a08701510151015184615440565b611aa56044356040602060a08801510151015185615440565b91611abf6064356060602060a08901510151015186615440565b611aca8787876154d8565b93608086015160206080890151015190815181116121ae575b50506080860151608088015151908151811161218d575b5050608086015194602060a08901510151611b13613065565b50611b1d86614414565b90611b2b6020820151614414565b908b8212838381031281169084848103139015161761164a57611b4d85614414565b93611b5b6040830151614414565b908d8212868381031281169087848103139015161761163657908d9291611b866060610f798b614414565b93841283858103128116908486810313901516176116225790611bba8f979695949392610fd1610fc6610fb5888a03614405565b9587858703135f1461218457611bd1858703614405565b88868803125f1461217b57611be7868803614405565b9189848203135f1461217257611bfe848203614405565b938a818303125f1461216757611c149103614405565b9389868203135f1461215e57611c2b868203614405565b958a818303125f1461215357611c419103614405565b9560a4351561214c576001975b149788156121455789985b1561213e57985b6040519e8f90611c7261018083612c0c565b8152602001528d8c60408201526060015260808d015260a08c015260c08b015260e08a015261010089015260ff16610120880152610140870152610160860152611cbb85615aec565b158061212e575b15612122575b611cd78560a089015151615501565b611ce985602060a08a01510151615501565b611cfb85602060808a0151015161562c565b611d0a8560808901515161562c565b611d1a856101008801515161562c565b611d2d856020610100890151015161562c565b604060c087015101805184808201128a82129080158216911516176115a35784019052610120850151612117575b611d6688868961573a565b611d6f85615aec565b1580612107575b1561209d575b73__$868083e60620b1b18b00d84e3b9f0de884$__3b15611516578760405163d329553160e01b8152611db360048201895161300d565b611dc66020890151610104830190612dbc565b611dd96040890151610284830190612fe9565b611dec606089015161058483019061404e565b60808801516105e4820152611e0a60a0890151610604830190612f1e565b611e1d60c0890151610744830190612be9565b611e3060e08901516107c4830190614069565b611e446101008901516108c4830190614087565b88511515610bc482015260208901516001600160a01b03908116610be483015260408a015116610c048201526060890151610c248201526080890151611e8f90610c44830190614087565b611ea260a08a0151610f44830190614069565b336110448201526004356001600160a01b0316611064820152611ec9611084820188612d45565b8461120482015281816112248173__$868083e60620b1b18b00d84e3b9f0de884$__5af4801561040957612088575b50506114ad9660a08701515189526014602052611f1e60408a20608083015151906151fb565b6004356001600160a01b03168952601560209081526040808b2060c08a0151518c5282528a20608083015190910151611f5691615329565b60018060a01b036020820151169060018060a01b03600435168a52601b60205260408a2060c0890151518b5260205260408a2060018060a01b03199283825416179055604060018060a01b039101511660018060a01b03600435168a52601c60205260408a2060c0890151518b5260205260408a2091825416179055611fdb836141de565b60018114612068575b5f1914612048575b608086015193604051948552602085015260408401526060830152608082015260a435151560a08201528460c082015260018060a01b0360043516905f80516020615e3783398151915260e03392a36114706040518092612d45565b8754612063906001600160a01b031661088b61086386614405565b611fec565b8854612083906001600160a01b031661086861086387614405565b611fe4565b8161209291612c0c565b61151657875f611ef8565b60025488906001600160a01b0316803b1561158457818091604460405180948193631a9be9fd60e11b835230600484015260018060a01b036004351660248401525af18015610409576120f2575b5050611d7c565b816120fc91612c0c565b61151657875f6120eb565b5061211185615b05565b15611d76565b336020880152611d5b565b60016020860152611cc8565b5061213885615b05565b15611cc2565b5088611c60565b8098611c59565b8997611c4e565b5050611c4189614405565b611c2b8a614405565b5050611c1489614405565b611bfe8a614405565b611be789614405565b611bd188614405565b612196916151dc565b60a08601516121a58151614040565b90525f80611afa565b6121b7916151dc565b87604088015287602088015260c08601516121d28151614040565b90525f80611ae3565b608435611a74565b90506020813d60201161220d575b816121fe60209383612c0c565b8101031261041457515f611a38565b3d91506121f1565b90506020813d60201161224e575b8161223060209383612c0c565b810103126104a457602491612246602092613058565b9150916119ba565b3d9150612223565b90506020813d602011612288575b8161227160209383612c0c565b810103126115845761228290613058565b5f61184c565b3d9150612264565b5034610169576020366003190112610169576122c460406101c0926122b36130c0565b506004358152601360205220613e9c565b60405190805115158252602081015151602083015260408101515160408301526060810151516060830152608081015151608083015260a08101515160a083015260c08101515160c083015260e08101515160e08301526101008082015151908301526101208082015151908301526101408082015151908301526101608082015151908301526101808082015151908301526101a0809101515190820152f35b50346101695780600319360112610169576002546040516001600160a01b039091168152602090f35b5034610169576040366003190112610169576004356001600160a01b03811691908290036104a057604061019391610180936123c8613065565b5081526015602052818120602435825260205220613d8e565b5034610169576020366003190112610169576004356001600160a01b03811691908290036104a0576040610193916101809361241b613065565b508152601960205220613d8e565b5034610169576020366003190112610169576004356001600160a01b0380821682036104a0575f80516020615e17833981519152906002825414611785576020600491600284555f80516020615e57833981519152541660405192838092635c975abb60e01b82525afa908115610b4e5784916124c8575b50611739576124c4826124b5600194613659565b6124bf82826138ac565b613bba565b5580f35b90506020813d6020116124fa575b816124e360209383612c0c565b81010312610414576124f490613058565b5f6124a1565b3d91506124d6565b5034610169576020366003190112610169576004356001600160a01b03811691908290036104a05760406125499160809361253b612e3b565b508152601060205220613588565b6101a06040518092612be9565b5034610169576020366003190112610169576004356001600160a01b03811691908290036104a05760406125499160809361258f612e3b565b508152601160205220613509565b50346101695780600319360112610169576125b6612ea0565b506125d06125c46006613381565b60405191829182612c81565b0390f35b50346104a057366003190161032081126104a057610300136104a0576040516125ff6101a082612c0c565b6004358152602460209080358284015261261a366044612c43565b906040840191825261262d3660c4612c43565b9260609081860194855261014435608087015261016490813560a08801526101843560c0880152612660366101a4612c43565b60e088015282610223193601126104a0576040519561267f8488612c0c565b61022435875261024435828801526102643560408801526101009687890152610284356101208901526102a4356101408901526102c4356101608901526102e43580151581036104a057610180890152610304359081151582036104a0576005546001600160a01b039790881633141580612a52575b612a4057612703600b6132d7565b9561270e600d61323e565b91612717612ea0565b9415612a2e57818086015101620f424090818460408901510152525b818501519351946127958785015160c08b01965f61278f6127548a51614405565b938c61276a8661276384614414565b868861443d565b9c80519180820151918c60408201519101518d89015260408801528601528452614414565b9161443d565b5f8782039712818812811691881390151617612a1b57604001519051936127cb836127c36040870151614414565b950151614414565b935f8582039512818612811691861390151617612a1b57915f916127f461282e96959451614405565b9482820191825161280e88888860408601948551906157e0565b9a83519381810151926040820151978892015180975252820152526157e0565b5f83820393128184128116918413901516176129f5575f8282019283129112908015821691151617612a085760e0830180515f83820393128184128116918413901516176129f5575273__$e64848e740b5620d47cef49412062df449$__91823b156104a0575f916128bc91604051948593849263045a766b60e01b8452600b600485015288840190612f1e565b5af480156129ea576129d1575b509082916004869473__$f0b9cef6bb3cbdd03cb6172b8c4e9f952f$__935f80516020615e5783398151915254166040519283809263ad4d4e2960e01b82525afa9384156104455785946129b2575b5050813b156104145761042461294e91859361295960405196879586946302903c7960e21b86526006600487015285018b612fe9565b61032484019061300d565b5af480156104095761299d575b506040517fc25ab284ab9f56bf288df3ff5fbe0a66a671e6616b6311ed26fe943ba789e0b990806129978582612c81565b0390a180f35b816129a791612c0c565b61158457815f612966565b6129c9929450803d1061043e5761042f8183612c0c565b915f80612918565b6129e091939295505f90612c0c565b5f9390915f6128c9565b6040513d5f823e3d90fd5b84634e487b7160e01b5f5260116004525ffd5b83634e487b7160e01b5f5260116004525ffd5b89634e487b7160e01b5f5260116004525ffd5b9350612a3a6006613381565b93612733565b604051639bca062560e01b8152600490fd5b50600484895f80516020615e57833981519152541660405192838092638da5cb5b60e01b82525afa80156129ea5789915f91612a93575b50163314156126f5565b612aaa9150863d881161048e576104808183612c0c565b5f612a89565b346104a05760203660031901126104a0576004356001600160a01b03818116918290036104a05760046020825f80516020615e57833981519152541660405192838092638da5cb5b60e01b82525afa9081156129ea575f91612b55575b5016330361045057600280546001600160a01b031916821790556040519081527f3df77beb5db05fcdd70a30fc8adf3f83f9501b68579455adbd100b818094039490602090a1005b612b6e915060203d60201161048e576104808183612c0c565b83612b0d565b346104a05760403660031901126104a0576004356001600160a01b038116908190036104a057612ba2612e3b565b505f52601a60205260405f206024355f52602052608061254960405f2061328a565b346104a0575f3660031901126104a057612bdc612e3b565b506080612549600d61323e565b606080918051845260208101516020850152604081015160408501520151910152565b601f909101601f19168101906001600160401b03821190821017612c2f57604052565b634e487b7160e01b5f52604160045260245ffd5b91908260809103126104a057604051612c5d608082612c0c565b60608082948035845260208101356020850152604081013560408501520135910152565b9190916102e06103008201938051835260208101516020840152612cad60408201516040850190612be9565b612cbf606082015160c0850190612be9565b608081015190610140918285015260a0810151610160908186015260c0820151926101809384870152612cfb60e08401516101a0880190612be9565b61010083015180516102208801526020810151610240880152604001516102608701526101208301516102808701528201516102a08601528101516102c085015201511515910152565b805182526020810151602083015260408101516040830152606081015160608301526080810151608083015260a081015160a083015260c081015160c083015260e081015160e083015261010080820151908301526101208082015190830152610140808201519083015261016080910151910152565b805182526020810151602083015260408101516040830152606081015160608301526080810151608083015260a081015160a083015260c081015160c083015260e081015160e0830152610100808201511515908301526101208082015115159083015261014080820151151590830152610160809101511515910152565b60405190612e4a608083612c0c565b5f6060838281528260208201528260408201520152565b908160209103126104a057516001600160a01b03811681036104a05790565b60405190612e8f606083612c0c565b5f6040838281528260208201520152565b60405190612eb06101a083612c0c565b5f61018083828152826020820152612ec6612e3b565b6040820152612ed3612e3b565b60608201528260808201528260a08201528260c0820152612ef2612e3b565b60e0820152612eff612e80565b6101008201528261012082015282610140820152826101608201520152565b60206101209180518452818101518285015260408101516040850152606081015160608501526080810151608085015260a081015160a085015260c081015160c085015260e081015160e085015261010080910151908151908501520151910152565b809161010092839103126104a05760e090612f9f6040519384612c0c565b805183526020810151602084015260408101516040840152606081015160608401526080810151608084015260a081015160a084015260c081015160c0840152015160e082015290565b6102e0908051835260208101516020840152612cad60408201516040850190612be9565b60e08091805184526020810151602085015260408101516040850152606081015160608501526080810151608085015260a081015160a085015260c081015160c08501520151910152565b519081151582036104a057565b6040519061307561018083612c0c565b5f610160838281528260208201528260408201528260608201528260808201528260a08201528260c08201528260e08201528261010082015282610120820152826101408201520152565b6040908151916130d26101c084612c0c565b6101a0835f81526131da60209380516130eb8682612c0c565b5f81528584015280516130fe8682612c0c565b5f81528184015280516131118682612c0c565b5f8152606084015280516131258682612c0c565b5f8152608084015280516131398682612c0c565b5f815260a0840152805161314d8682612c0c565b5f815260c084015280516131618682612c0c565b5f815260e084015280516131758682612c0c565b5f8152610100840152805161318a8682612c0c565b5f8152610120840152805161319f8682612c0c565b5f815261014084015280516131b48682612c0c565b5f815261016084015280516131c98682612c0c565b5f8152610180840152519384612c0c565b5f83520152565b604051906131f161012083612c0c565b815f81525f60208201525f60408201525f60608201525f60808201525f60a08201525f60c08201525f60e082015261010060405191613231604084612c0c565b5f83525f60208401520152565b613246612e3b565b50600181549101549060018060401b038060405193613266608086612c0c565b63ffffffff841685521660208401528160801c16604083015260c01c606082015290565b613292612e3b565b5054604051906132a3608083612c0c565b8060d01b60d01d825265ffffffffffff8160301c1660208301528060601b60c01d604083015260201b60c01d606082015290565b6132df6131e1565b50600181549101549063ffffffff9165ffffffffffff9160405192613305604085612c0c565b8260e01b60e01d84528260c81b60e81d60208501526040519461332a61012087612c0c565b80831686528260201c166020860152808260401c166040860152808260701c1660608601528160a01c16608085015260d01c60a08401528060881b60c01d60c084015260481b60c01d60e083015261010082015290565b6101a09061338d612ea0565b50805490600260018201549101549162ffffff9160608365ffffffffffff936133ba858560481c166143ed565b6040938451916133cb608084612c0c565b848460301c168352848460481c1660208401528484831c1686840152818301526133f9878760181c166143ed565b90855191613408608084612c0c565b858560781c168352858560901c1660208401528588168784015281830152613434888560a81c166143ed565b92865196613443608089612c0c565b868960781c168852868960901c166020890152868960a81c1681890152868960c01c1683890152805198613477848b612c0c565b8a8d168a5260081b60e01d60208a01528b60b01b60e01d818a015261349e81519d8e612c0c565b8686168d528c6020888860181c169101528c01528a0152608089015260d81c1660a0870152828560b01c1660c087015260e0860152610100850152808360501c166101208501528260801c166101408401528160e01c1661016083015260f81c151561018082015290565b613511612e3b565b50805460019091015460016001603e1b03600282901c16906003168061358157815b6001820361357857600281925b0361357057915b63ffffffff6040519461355b608087612c0c565b16845260208401526040830152606082015290565b505f91613547565b60025f92613540565b5f91613533565b613590612e3b565b50546040519063ffffffff6135a6608084612c0c565b8181168352602082811c90911690830152608081811b60c01d60408401521c6001600160401b0316606082015290565b604051906135e5604083612c0c565b816135ee612e3b565b815260206135fa612e3b565b910152565b6040519061360e604083612c0c565b81613617613065565b815260206135fa613065565b91908260609103126104a05760405161363d606082612c0c565b60406135fa818395805185526020810151602086015201613058565b9060409182519061366c61012083612c0c565b83516101009461367c8683612c0c565b5f82526020925f848401525f828401525f60608401526080925f848201525f60a08201525f60c08201525f60e08201528552838501966136ba613065565b8852828601956136c8612ea0565b875260608101926136d7612e80565b8452858201935f855260a08301906136ed6131e1565b825260c08401956136fc612e3b565b875260e085019561370b6135d6565b87528086019b6137196135ff565b8d52869e613727600961429a565b90526137336006613381565b90525f80516020615e5783398151915254895163ad4d4e2960e01b81526001600160a01b0397918390829060049082908c165afa9283156138815790600495949392915f93613862575b5050528986600254168a5194858092631006976960e11b82525afa908115613858575f935f92613816575b506138109a5052526137ba600b6132d7565b90521691825f52601086526137d0845f20613588565b90526137dc600d61323e565b815152815f5260118552846137f2845f20613509565b915101526138006016614347565b8551525f52601983525f20613d8e565b91510152565b93509050893d8b11613851575b61382d8185612c0c565b830199838b03126104a05760606138476138109b85613623565b930151905f6137a8565b503d613823565b89513d5f823e3d90fd5b613879929350803d1061043e5761042f8183612c0c565b905f8061377d565b8b513d5f823e3d90fd5b9190820180921161389857565b634e487b7160e01b5f52601160045260245ffd5b91906040908151916060916138c18385612c0c565b6138c96130c0565b8452602092838501956138da612e3b565b87528386016138e7612e80565b815260e0890197885151515f5260138752613903865f20613e9c565b885260018060a01b039182861692835f52601a8952875f20898c510151515f528952613930885f2061328a565b83526002541690858b51515160248a5180958193630e0886f960e41b835260048301525afa918215613bb0575f92613b78575b50525180511580613b6d575b80613b62575b80613b57575b80613b44575b613b32575b5061398f613065565b975b60a08a018051888151910151809114159081613b01575b50156139cf5787905101516001810180911161389857896139ca918a8d614571565b613991565b509091929395945b60c08a018051878151910151141580613ac6575b15613a12578690510151600181018091116138985789613a0d91898b8e614d86565b6139d7565b50919750959297949391978501958651518151515110613a8c575b82875151915101515110613a45575b50505050505050565b613a80965f5260158252613a77613a6e825f209260c088019385855101515f5285525f20613d8e565b965151876151dc565b51015192614d86565b5f808080808080613a3c565b613ac160a0870184815101515f526014855284613aaa855f20614347565b91613ab78b5151846151dc565b5101518689614571565b613a2d565b509850825f5260158652805f20868a51015160018101809111613898575f528652613af2815f20613d8e565b98858b0151518a5111156139eb565b80929b506001915001809111613898575f5260148752613b22865f20614347565b98848b0151518a5111155f6139a8565b838660c08c015101519101525f613986565b5085876101008c01510151015115613981565b50838101511561397b565b508581015115613975565b50868101511561396f565b909150853d8711613ba9575b613b8e8183612c0c565b810186828203126104a057613ba291613623565b905f613963565b503d613b84565b88513d5f823e3d90fd5b60a0810151929173__$e64848e740b5620d47cef49412062df449$__90813b156104a0576101645f60409384519283809263045a766b60e01b8252613c0b859b600b60048501526024840190612f1e565b5af48015613d8457613d6f575b506001600160a01b0316808552601060205281852060c0840151919391613c3e9161411b565b73__$b60b8283597a7b63fdf5784bc29e04c8c8$__8560e0830191825151813b1561040557613c8c60a48492885194859384926366e4915160e01b8452600d60048501526024840190612be9565b5af48015613d6557613d4c575b5084905260116020528583812091602073__$4b3d80cf6fe04b4ade5ebdb98bc9ab473c$__9151015190803b1561040557613cf19360a49187519586948593635c7731d160e11b855260048501526024840190612be9565b5af48015613d4257613d2d575b5090613d2b93946101006020930193613d1a85515160166151fb565b815260198352209151015190615329565b565b613d38868092612c0c565b6104a4575f613cfe565b83513d88823e3d90fd5b81613d5691612c0c565b613d6157855f613c99565b8580fd5b85513d84823e3d90fd5b613d7c9195505f90612c0c565b5f935f613c18565b83513d5f823e3d90fd5b613d96613065565b506001815491015460038260801c169060018080603e1b0393848160821c16948160c01c1663ffffffff95851595865f14613e955781965b15613e8e57825b818614908115613e875783915b15613e7e57600281935b14938415613e7657935b15613e6e57935b868060401b03986040519a613e146101808d612c0c565b8088168c528760201c1660208c01528660801b60c01d60408c015260608b015260808a015260a089015260c088015260e087015261010086015260fe1c1661012084015281811661014084015260401c1661016082015290565b505f93613dfd565b505f93613df6565b60025f93613dec565b5f91613de2565b5f92613dd5565b5f96613dce565b613ea46130c0565b508054816001829301549060020154604051916020928392613ec68483612c0c565b8560b81b60c01d825260405190613edd8583612c0c565b8660781b60c01d8252604051613ef38682612c0c565b8760381b60c01d8152604051613f098782612c0c565b8260d01b60d01d815260405190613f208883612c0c565b8360a01b60d01d825260405192613f378985612c0c565b8460701b60d01d845260405194613f4e8a87612c0c565b60401b60d01d855260405195613f648a88612c0c565b8860d01b60d01d875260405197613f7b8b8a612c0c565b8960a01b60d01d89528a6040519a613f93828d612c0c565b8060701b60d01d8c526040519c613faa908e612c0c565b8060401b60d01d8d526040519d613fc1908f612c0c565b60101b60d01d8d52604051809e613fd88383612c0c565b60081b60d01d90526040519e8f90613ff26101c083612c0c565b60ff1615158152015260408d015260608c015260808b015260a08a015260c089015260e08801526101008701526101208601526101408501526101608401526101808301526101a082015290565b5f1981146138985760010190565b60408091805184526020810151602085015201511515910152565b9060806020613d2b9361407d848251612be9565b0151910190612be9565b906101806020613d2b9361409c848251612d45565b0151910190612d45565b6001600160a01b0381811692909190338414801590614113575b61410b576140ff6020927f20ca5094f3a20c321cbe4123d0f01b276b81df0fa24cd4d83d9253956035d863945f5416906140f9846141fa565b91614214565b604051908152a2600190565b505050505f90565b5080156140c0565b9063ffffffff91828251116141cc5760208201838151116141cc576040830180516002906141519060016001603f1b0390615bf1565b146141cc57805161416b9060016001603f1b031990615bf1565b156141cc576060840191600261418860018060401b038551615c0d565b146141cc575f9560019551169063ffffffff60201b905160201b1617908460401b8560801b03905160401b1617908360801b8460c01b03905160801b161781550155565b60405163320f423b60e21b8152600490fd5b5f81136141f4575f136141ef575f90565b5f1990565b50600190565b64e8d4a51000908181029181830414901517156138985790565b60405163a9059cbb60e01b60208201526001600160a01b039283166024820152604480820194909452928352613d2b929190614251606484612c0c565b16615c39565b6040516323b872dd60e01b60208201526001600160a01b039283166024820152306044820152606480820194909452928352613d2b929190614251608484612c0c565b6142a2613065565b50546008808260f81c65ffffffffffff62ffffff9461ffff604051966142ca61018089612c0c565b8083168852808360181c166020890152808360301c166040890152808360481c1660608901528260601c166080880152808260781c1660a08801528160881c1660c087015260981c1660e0850152600180821614610100850152600280821614610120850152600480821614610140850152161461016082015290565b61434f613065565b5080546001820154600290920154604051926001600160401b039263ffffffff61437b61018087612c0c565b80821686528160201c1660208601528060801b60c01d6040860152838160801c16606086015260c01c608085015282811660a0850152828160401c1660c0850152828160801c1660e085015260c01c6101008401525f61012084015281811661014084015260401c1661016082015290565b620f4240908181029181830414901517156138985790565b5f811261440f5790565b5f0390565b6001600160ff1b0381116144255790565b6024906040519063eecaa25d60e01b82526004820152fd5b929161444882614414565b5f8282019283129112908015821691151617613898576144679061579d565b604061448e614481614486614481606089019687516157bf565b614414565b9385516157bf565b9251940151818303925f83128015828613169185121617613898576144b2946157e0565b90565b91908260209103126104a0576040516144cf602082612c0c565b91518252565b805115158252602081015151602083015260408101515160408301526060810151516060830152608081015151608083015260a08101515160a083015260c08101515160c083015260e08101515160e08301526101008082015151908301526101208082015151908301526101408082015151908301526101608082015151908301526101808082015151908301526101a08091015151910152565b92919060018060a01b036002541660608451602460405180948193630e0886f960e41b835260048301525afa9081156129ea575f91614d4d575b5060208101805115614d3c575b506145c984610100870151516158b8565b604081015115614d2e575b6040516145e36102a082612c0c565b5f8152602081015f9052604081015f9052606081015f9052608081015f905260a081015f905260c081015f905260e081015f905261010081015f905261012081015f905261014081015f905261016081015f905261018081015f90526101a081015f90526101c081015f90526101e081015f905261020081015f905261022081015f905261024081015f905261026081015f9052610280015f905281519460a081015160e08201515160408501516020840151916040850151936040519a63125c105b60e11b8c5260048c016146b8916144d5565b6101c48b016146c691612f1e565b6103048a016146d491612be9565b6146e26103848a0189612d45565b61050489016146f09161404e565b6146fe61056489018561404e565b6105c4880161470c91612dbc565b610744870161471a91612fe9565b858073__$498c3fc06e3b66de52f0e54e97932d9f48$__5a92610a44916105a094f49586156129ea575f905f905f986149ff575b5060a0830152835260e060a082015187608061480360208601516147d26147a661479f6147978a51976101e061478e60408301516101608401519061388b565b9101519061388b565b965187615bd8565b8096615433565b6147cd6147c56147ba606086015184615bd8565b968795015183615bd8565b958692615433565b615433565b938a60208701526147e86040870191825161388b565b905260608501516102608d01516147fe9161388b565b61388b565b60608401526148176080840191825161388b565b905261482860a0830191825161388b565b90520180519060c0880151915f8382019384129112908015821691151617613898575260e001515161485b908590615501565b604082015282515f52601360205260405f2073__$7193fcc5e5263a57d93f46b00a41978ef4$__9151823b156104a0576101e45f926148b5946040519586948593631cf7ef4560e11b8552600485015260248401906144d5565b5af49384156129ea5761490161044094610280937fa682436af40a175ff2ec8049fb223c3b762ca7ce50863806fc21706829e27662976149ef575b506040519485526020850190612d45565b80516101a084015260208101516101c084015260408101516101e08401526060810151610200840152608081015161022084015260a081015161024084015260c081015161026084015260e0810151828401526101008101516102a08401526101208101516102c08401526101408101516102e08401526101608101516103008401526101808101516103208401526101a08101516103408401526101c08101516103608401526101e08101516103808401526102008101516103a08401526102208101516103c08401526102408101516103e08401526102608101516104008401520151610420820152a1565b5f6149f991612c0c565b5f6148f0565b975050506105a03d6105a011614d27575b614a1a8188612c0c565b6105a08782810103126104a0576101c08782810103126104a057604051614a436101c082612c0c565b614a4c88613058565b8152614a5d82890160208a016144b5565b6020820152614a7182890160408a016144b5565b6040820152614a8582890160608a016144b5565b6060820152614a9982890160808a016144b5565b6080820152614aad82890160a08a016144b5565b60a0820152614ac182890160c08a016144b5565b60c0820152614ad582890160e08a016144b5565b60e0820152614aea8289016101008a016144b5565b610100820152614b008289016101208a016144b5565b610120820152614b168289016101408a016144b5565b610140820152614b2c8289016101608a016144b5565b610160820152614b428289016101808a016144b5565b610180820152614b588289016101a08a016144b5565b6101a08201526101406101bf19898481010301126104a05760405191614b8061012084612c0c565b6101c089015183526101e0890151602084015261020089015160408401526102208901516060840152610240890151608084015261026089015160a084015261028089015160c08401526102a089015160e084015260406102bf198a8381010301126104a0576102a090604051614bf8604082612c0c565b6102c08b015181526102e08b0151602082015261010085015289018990036102ff1901126104a05761058060405198614c336102a08b612c0c565b6103008101518a5261032081015160208b015261034081015160408b015261036081015160608b015261038081015160808b01526103a081015160a08b01526103c081015160c08b01526103e081015160e08b01526104008101516101008b01526104208101516101208b01526104408101516101408b01526104608101516101608b01526104808101516101808b01526104a08101516101a08b01526104c08101516101c08b01526104e08101516101e08b01526105008101516102008b01526105208101516102208b01526105408101516102408b01526105608101516102608b01520151610280890152905f61474e565b503d614a10565b614d37846159bd565b6145d4565b60c060a0870151015190525f6145b8565b905060603d606011614d7f575b614d648183612c0c565b81016060828203126104a057614d7991613623565b5f6145ab565b503d614d5a565b939293919091602060e082015101515f90515f526013602052614dab60405f20613e9c565b85515f526013602052614dc060405f20613e9c565b614dd387602061010087015101516158b8565b8051156151ce575b614e7360405191614ded60e084612c0c565b5f83525f60208401525f60408401525f60608401525f60c060809482868201528260a08201520152614e68602089015194614e5d602060e08a01510151614e456040519863448e84d160e11b8a5260048a0190612be9565b614e52608489018e612d45565b610204880190612be9565b6102848601906144d5565b6104448401906144d5565b61016080836106048173__$6ba7d7c32865f94d0a12ad88289d5cd7ab$__5af49283156129ea575f915f9461510a575b5050602087015260c084015160208301516040840151905f8282019283129112908015821691151617613898576060840151905f82820192831291129080158216911516176138985760408201518451905f8282019283129112908015821691151617613898575f828203921281831281169183139015161761389857614f2c83850151614414565b905f828203921281831281169183139015161761389857614f5060a0850151614414565b915f83128284810312811690838581031390151617613898578a926020920360408201520152614f8887602060e08701510151615501565b60018060a01b0385165f52601a60205260405f2087515f5260205260405f20602073__$7159fd8596758e3029e91421ba272bb871$__970151873b156104a05760a45f92614ff1996040519a8b94859363be49f2e760e01b855260048501526024840190612be9565b5af480156129ea577fca02bd6dde25571550ec822c36a8acc31db3834e00925e15ea50e10520b14bc9976102809760a0956150a8936150f6575b6150989150600180881b0389168152601b602052604081208c8252602052615064600180891b0360408320541688880151908b8b6159f2565b600180881b0389168152601c602052604081208c82526020526040600180891b03912054169660c0860197898951926159f2565b604051998a5260208a0190612d45565b81516101a089015260208201516101c089015260408201516101e089015260608201516102008901528101516102208801520151610240860152516102608501526001600160a01b031692a2565b505f61510191612c0c565b6150985f61502b565b8194508092503d83116151c7575b6151228183612c0c565b8101039081126104a0578181126104a05760e0604051916151438484612c0c565b84518352602085015160208401526040850151604084015260608501516060840152607f1901126104a0576101406040519361518060e086612c0c565b83810151855260a0810151602086015260c0810151604086015260e081015160608601526101008101518486015261012081015160a0860152015160c08401525f80614ea3565b503d615118565b6151d7876159bd565b614ddb565b6151e5816159bd565b5f6101208201525f60408201525f602082015252565b9061520581615a66565b606081019160029160018060401b039083615221838751615c0d565b14615317576080810184615236848351615c0d565b146153175760a08201958561524c858951615c0d565b146153175760c083019086615262868451615c0d565b146153175760e0840187615277878351615c0d565b14615317576101008501918861528e888551615c0d565b14615317576101609363ffffffff87511663ffffffff60201b602089015160201b161788600160401b600160801b039788928360408c015160401b1617600160801b600160c01b0380965160801b1617905160c01b179c5116915160401b1617915160801b1617905160c01b17936101408401511692015160401b161793825560018201550155565b6040516367e4596560e01b8152600490fd5b61533282615a66565b61533b82615aec565b9061534583615b05565b9260016001603e1b03600261535a8286615c0d565b146153175761536b60029186615c0d565b146153175761012081019360018551116153175760019363ffffffff83511663ffffffff60201b602085015160201b1617958560401b8660801b039687604086015160401b1617600360801b6153c086615b1f565b60801b1617908660fe1b905160fe1b16928660c01b8760fe1b039060c01b16918660821b8760c01b039060821b1617171793610160848060401b036101408401511692015160401b16179281550155565b81810292915f8212600160ff1b82141661389857818405149015171561389857565b9190820391821161389857565b600161544d5f1985615c0d565b146154d257600161546060011985615c0d565b1461546a57505090565b90809250156154ce57906154b8826154b860206101008160e06144b2980151015182604082015160608301518082115f146154c65750915b0151808211156154be5750935b01510151615b05565b90615433565b9050936154af565b9050916154a2565b5090565b50905090565b916001600160a01b0316156154fb576060015190816154ce5760e0915051015190565b50505f90565b8151815260208101906155148251614414565b6155216060850151614414565b9061552f6080860151614414565b915f8382039312818412811691841390151617613898575f8282019283129112908015821691151617613898576155659061579d565b9260408201906155758251614414565b61558260a0830151614414565b9061559060c0840151614414565b915f8382039312818412811691841390151617613898575f8282019283129112908015821691151617613898576155c860609161579d565b9301906155d58251614414565b6155f06101006155e860e0850151614414565b930151614414565b915f8382039312818412811691841390151617613898575f8282019283129112908015821691151617613898576156269061579d565b90525252565b60208101615640815160208501519061388b565b90604083018051906040860151915f83820193841291129080158216911516176138985761012061567a818701918251908901519061388b565b90610140615691818901918251908b01519061388b565b906101606156a8818b01918251908d01519061388b565b90525252525260608101906156c3825160608501519061388b565b9260808201906156d9825160808301519061388b565b9260a08101906156ef825160a08501519061388b565b9260c0820190615705825160c08301519061388b565b9260e081019061573161571e835160e08601519061388b565b936101008093019283519101519061388b565b90525252525252565b9061014081015115908161578f575b5061578b5760400180516001600160a01b03918291821615615781575b5116911614613d2b57604051639dbdc5fd60e01b8152600490fd5b8184168152615766565b5050565b61016091500151155f615749565b5f81126157a75790565b6024906040519063b02ef08760e01b82526004820152fd5b9060026157cc8383615c0d565b036157d75750505f90565b6144b291615433565b9391908115806158b0575b6158a757841561589557610e60610e6091610e5a61584461584a95610e606158128b614414565b99610e5a61583e61583461582e620f42409e8f9c8d8099615411565b9e614414565b610e608685615411565b9a614414565b91614414565b92818101918212905f811290811592801583169084161761389857830192831290811516911617613898576144b292610e5a610e6092610e608561588f816002615411565b92615411565b60405163c7d40ac960e01b8152600490fd5b50505050505f90565b5083156157eb565b602081016158cc8151602085015190615433565b90604083018051906040860151915f8382039312818412811691841390151617613898576101206159068187019182519089015190615433565b9061014061591d818901918251908b015190615433565b90610160615934818b01918251908d015190615433565b905252525252606081019061594f8251606085015190615433565b9260808201906159658251608083015190615433565b9260a081019061597b825160a085015190615433565b9260c0820190615991825160c083015190615433565b9260e08101906157316159aa835160e086015190615433565b9361010080930192835191015190615433565b60605f918261016082015282610140820152826101008201528260e08201528260c08201528260a08201528260808201520152565b918315615a60576001600160a01b0390811691168103615a245750606060c0615a209201510191825161388b565b9052565b613d2b929150805f526010602052615a3e60405f20613588565b91615a4e6060840191825161388b565b90525f52601060205260405f2061411b565b50505050565b63ffffffff808251116153175760208201511161531757604081018051600290615a989060016001603f1b0390615bf1565b146153175751615ab19060016001603f1b031990615bf1565b156153175760018060401b03906002615acf83610140840151615c0d565b1461531757600291610160615ae5920151615c0d565b1461531757565b6144b29060e061478e606083015160a08401519061388b565b6144b29061010061478e608083015160c08401519061388b565b60a081015115801590615b5d575b6141f45760e08101511590811591615b4e575b50615b49575f90565b600290565b6101009150015115155f615b40565b5060c08101511515615b2d565b615b72612e3b565b50805190602081015190606060408201519101519160405193615b96608086612c0c565b845260208401526040830152606082015290565b8115615bc457600160ff1b81145f19831416613898570590565b634e487b7160e01b5f52601260045260245ffd5b81810291818304149015171561389857620f4240900490565b818113615c065712615c0257600190565b5f90565b5050600290565b818111615c065710615c0257600190565b6001600160401b038111612c2f57601f01601f191660200190565b602091615cbf916001600160a01b03165f80615c5486615c1e565b93615c626040519586612c0c565b8685527f5361666545524332303a206c6f772d6c6576656c2063616c6c206661696c656487860152868151910182855af13d15615d40573d91615ca483615c1e565b92615cb26040519485612c0c565b83523d5f8785013e615d44565b805180615ccb57505050565b818391810103126104a05781615ce19101613058565b15615ce95750565b6084906040519062461bcd60e51b82526004820152602a60248201527f5361666545524332303a204552433230206f7065726174696f6e20646964206e6044820152691bdd081cdd58d8d9595960b21b6064820152fd5b6060915b91929015615da65750815115615d58575090565b3b15615d615790565b60405162461bcd60e51b815260206004820152601d60248201527f416464726573733a2063616c6c20746f206e6f6e2d636f6e74726163740000006044820152606490fd5b825190915015615db95750805190602001fd5b6040519062461bcd60e51b82528160208060048301528251908160248401525f935b828510615dfd575050604492505f838284010152601f80199101168101030190fd5b8481018201518686016044015293810193859350615ddb56fea9c835c21e93a672e5a6ef8ca0374f90b7d4378f7eec5769dcf22fdefd60ffaef8691f65402f2a458580d76db93812d43292515aaec0b64222f11d1a0642d8470aec74a1754fb10877b53c31a29be82096082042eb1fb374ec96fac88c0e621ba2646970667358221220a398c92bc6c9d4983352d905b958f3abbb033588d6db76ad092b741b0bcbf3ac64736f6c63430008180033",
  "libraries": {
    "CheckpointLib": "0x960E20A297fCe472B9e060428fC92Fce34d83Bee",
    "InvariantLib": "0x63f314Ed6b017c9a42138A59577609F05A140c95",
    "VersionLib": "0x6fd2B0a8a40A1Be8510cB5f39eFd72CFCA3b45bE",
    "CheckpointStorageLib": "0x074fb1073b24f85b52337b7DFeA2d2CB5B9406d9",
    "GlobalStorageLib": "0xaD4A7b0d821B955492d9BEa6776CDcC33Ee8CaC6",
    "MarketParameterStorageLib": "0x0d07e3A272F5666D10aeFC611D0F693b4a8F2E16",
    "PositionStorageGlobalLib": "0x5f52A20d8126eF29d813F522aa254F92500e0b92",
    "PositionStorageLocalLib": "0xb5CB0bbe900FEEe7f23F7BD785Cd07032928B334",
    "RiskParameterStorageLib": "0xE02bADe78Ae492E78383B04D6F25d521FF961d20",
    "VersionStorageLib": "0x73Ff980B20696EE07827146c76F71E4872783594"
  }
}