{
  "address": "0xb5AA1d6f7B6ba69176a38accF4012Fd865fcfc06",
  "abi": [
    {
      "inputs": [],
      "name": "CurveMath6OutOfBoundsError",
      "type": "error"
    },
    {
      "inputs": [],
      "name": "DivisionByZero",
      "type": "error"
    },
    {
      "inputs": [
        {
          "internalType": "uint256",
          "name": "value",
          "type": "uint256"
        }
      ],
      "name": "Fixed6OverflowError",
      "type": "error"
    },
    {
      "inputs": [],
      "name": "GlobalStorageInvalidError",
      "type": "error"
    },
    {
      "inputs": [],
      "name": "GlobalStorageInvalidError",
      "type": "error"
    },
    {
      "inputs": [
        {
          "internalType": "uint256",
          "name": "version",
          "type": "uint256"
        }
      ],
      "name": "InitializableAlreadyInitializedError",
      "type": "error"
    },
    {
      "inputs": [],
      "name": "InitializableNotInitializingError",
      "type": "error"
    },
    {
      "inputs": [],
      "name": "InitializableZeroVersionError",
      "type": "error"
    },
    {
      "inputs": [
        {
          "internalType": "address",
          "name": "sender",
          "type": "address"
        }
      ],
      "name": "InstanceNotFactoryError",
      "type": "error"
    },
    {
      "inputs": [
        {
          "internalType": "address",
          "name": "sender",
          "type": "address"
        }
      ],
      "name": "InstanceNotOwnerError",
      "type": "error"
    },
    {
      "inputs": [],
      "name": "InstancePausedError",
      "type": "error"
    },
    {
      "inputs": [],
      "name": "LocalStorageInvalidError",
      "type": "error"
    },
    {
      "inputs": [],
      "name": "LocalStorageInvalidError",
      "type": "error"
    },
    {
      "inputs": [],
      "name": "MarketClosedError",
      "type": "error"
    },
    {
      "inputs": [],
      "name": "MarketCollateralBelowLimitError",
      "type": "error"
    },
    {
      "inputs": [],
      "name": "MarketEfficiencyUnderLimitError",
      "type": "error"
    },
    {
      "inputs": [],
      "name": "MarketExceedsPendingIdLimitError",
      "type": "error"
    },
    {
      "inputs": [],
      "name": "MarketInsufficientCollateralError",
      "type": "error"
    },
    {
      "inputs": [],
      "name": "MarketInsufficientLiquidityError",
      "type": "error"
    },
    {
      "inputs": [],
      "name": "MarketInsufficientMarginError",
      "type": "error"
    },
    {
      "inputs": [
        {
          "internalType": "uint256",
          "name": "code",
          "type": "uint256"
        }
      ],
      "name": "MarketInvalidMarketParameterError",
      "type": "error"
    },
    {
      "inputs": [],
      "name": "MarketInvalidProtectionError",
      "type": "error"
    },
    {
      "inputs": [
        {
          "internalType": "uint256",
          "name": "code",
          "type": "uint256"
        }
      ],
      "name": "MarketInvalidRiskParameterError",
      "type": "error"
    },
    {
      "inputs": [],
      "name": "MarketMakerOverLimitError",
      "type": "error"
    },
    {
      "inputs": [],
      "name": "MarketNotBeneficiaryError",
      "type": "error"
    },
    {
      "inputs": [],
      "name": "MarketNotCoordinatorError",
      "type": "error"
    },
    {
      "inputs": [],
      "name": "MarketNotSingleSidedError",
      "type": "error"
    },
    {
      "inputs": [],
      "name": "MarketOperatorNotAllowedError",
      "type": "error"
    },
    {
      "inputs": [],
      "name": "MarketOverCloseError",
      "type": "error"
    },
    {
      "inputs": [],
      "name": "MarketParameterStorageInvalidError",
      "type": "error"
    },
    {
      "inputs": [],
      "name": "MarketProtectedError",
      "type": "error"
    },
    {
      "inputs": [],
      "name": "MarketSettleOnlyError",
      "type": "error"
    },
    {
      "inputs": [],
      "name": "MarketStalePriceError",
      "type": "error"
    },
    {
      "inputs": [],
      "name": "PositionStorageInvalidError",
      "type": "error"
    },
    {
      "inputs": [],
      "name": "PositionStorageLocalInvalidError",
      "type": "error"
    },
    {
      "inputs": [],
      "name": "ReentrancyGuardReentrantCallError",
      "type": "error"
    },
    {
      "inputs": [],
      "name": "RiskParameterStorageInvalidError",
      "type": "error"
    },
    {
      "inputs": [
        {
          "internalType": "int256",
          "name": "value",
          "type": "int256"
        }
      ],
      "name": "UFixed6UnderflowError",
      "type": "error"
    },
    {
      "inputs": [],
      "name": "VersionStorageInvalidError",
      "type": "error"
    },
    {
      "inputs": [],
      "name": "VersionStorageInvalidError",
      "type": "error"
    },
    {
      "anonymous": false,
      "inputs": [
        {
          "indexed": true,
          "internalType": "address",
          "name": "account",
          "type": "address"
        },
        {
          "indexed": true,
          "internalType": "uint256",
          "name": "fromOracleVersion",
          "type": "uint256"
        },
        {
          "indexed": true,
          "internalType": "uint256",
          "name": "toOracleVersion",
          "type": "uint256"
        },
        {
          "indexed": false,
          "internalType": "uint256",
          "name": "fromPosition",
          "type": "uint256"
        },
        {
          "indexed": false,
          "internalType": "uint256",
          "name": "toPosition",
          "type": "uint256"
        },
        {
          "components": [
            {
              "internalType": "Fixed6",
              "name": "collateralAmount",
              "type": "int256"
            },
            {
              "internalType": "UFixed6",
              "name": "rewardAmount",
              "type": "uint256"
            },
            {
              "internalType": "Fixed6",
              "name": "positionFee",
              "type": "int256"
            },
            {
              "internalType": "UFixed6",
              "name": "keeper",
              "type": "uint256"
            }
          ],
          "indexed": false,
          "internalType": "struct LocalAccumulationResult",
          "name": "accumulationResult",
          "type": "tuple"
        }
      ],
      "name": "AccountPositionProcessed",
      "type": "event"
    },
    {
      "anonymous": false,
      "inputs": [
        {
          "indexed": false,
          "internalType": "address",
          "name": "newBeneficiary",
          "type": "address"
        }
      ],
      "name": "BeneficiaryUpdated",
      "type": "event"
    },
    {
      "anonymous": false,
      "inputs": [
        {
          "indexed": false,
          "internalType": "address",
          "name": "newCoordinator",
          "type": "address"
        }
      ],
      "name": "CoordinatorUpdated",
      "type": "event"
    },
    {
      "anonymous": false,
      "inputs": [
        {
          "indexed": true,
          "internalType": "address",
          "name": "account",
          "type": "address"
        },
        {
          "indexed": false,
          "internalType": "UFixed6",
          "name": "amount",
          "type": "uint256"
        }
      ],
      "name": "FeeClaimed",
      "type": "event"
    },
    {
      "anonymous": false,
      "inputs": [
        {
          "indexed": false,
          "internalType": "uint256",
          "name": "version",
          "type": "uint256"
        }
      ],
      "name": "Initialized",
      "type": "event"
    },
    {
      "anonymous": false,
      "inputs": [
        {
          "indexed": true,
          "internalType": "address",
          "name": "account",
          "type": "address"
        },
        {
          "indexed": false,
          "internalType": "uint256",
          "name": "version",
          "type": "uint256"
        },
        {
          "components": [
            {
              "internalType": "Fixed6",
              "name": "maker",
              "type": "int256"
            },
            {
              "internalType": "Fixed6",
              "name": "long",
              "type": "int256"
            },
            {
              "internalType": "Fixed6",
              "name": "short",
              "type": "int256"
            },
            {
              "internalType": "Fixed6",
              "name": "net",
              "type": "int256"
            },
            {
              "internalType": "UFixed6",
              "name": "skew",
              "type": "uint256"
            },
            {
              "internalType": "Fixed6",
              "name": "impact",
              "type": "int256"
            },
            {
              "internalType": "Fixed6",
              "name": "utilization",
              "type": "int256"
            },
            {
              "internalType": "Fixed6",
              "name": "efficiency",
              "type": "int256"
            },
            {
              "internalType": "Fixed6",
              "name": "fee",
              "type": "int256"
            },
            {
              "internalType": "UFixed6",
              "name": "keeper",
              "type": "uint256"
            }
          ],
          "indexed": false,
          "internalType": "struct Order",
          "name": "order",
          "type": "tuple"
        },
        {
          "indexed": false,
          "internalType": "Fixed6",
          "name": "collateral",
          "type": "int256"
        }
      ],
      "name": "OrderCreated",
      "type": "event"
    },
    {
      "anonymous": false,
      "inputs": [
        {
          "components": [
            {
              "internalType": "UFixed6",
              "name": "fundingFee",
              "type": "uint256"
            },
            {
              "internalType": "UFixed6",
              "name": "interestFee",
              "type": "uint256"
            },
            {
              "internalType": "UFixed6",
              "name": "positionFee",
              "type": "uint256"
            },
            {
              "internalType": "UFixed6",
              "name": "oracleFee",
              "type": "uint256"
            },
            {
              "internalType": "UFixed6",
              "name": "riskFee",
              "type": "uint256"
            },
            {
              "internalType": "uint256",
              "name": "maxPendingGlobal",
              "type": "uint256"
            },
            {
              "internalType": "uint256",
              "name": "maxPendingLocal",
              "type": "uint256"
            },
            {
              "internalType": "UFixed6",
              "name": "makerRewardRate",
              "type": "uint256"
            },
            {
              "internalType": "UFixed6",
              "name": "longRewardRate",
              "type": "uint256"
            },
            {
              "internalType": "UFixed6",
              "name": "shortRewardRate",
              "type": "uint256"
            },
            {
              "internalType": "UFixed6",
              "name": "settlementFee",
              "type": "uint256"
            },
            {
              "internalType": "bool",
              "name": "takerCloseAlways",
              "type": "bool"
            },
            {
              "internalType": "bool",
              "name": "makerCloseAlways",
              "type": "bool"
            },
            {
              "internalType": "bool",
              "name": "closed",
              "type": "bool"
            },
            {
              "internalType": "bool",
              "name": "settle",
              "type": "bool"
            }
          ],
          "indexed": false,
          "internalType": "struct MarketParameter",
          "name": "newParameter",
          "type": "tuple"
        }
      ],
      "name": "ParameterUpdated",
      "type": "event"
    },
    {
      "anonymous": false,
      "inputs": [
        {
          "indexed": true,
          "internalType": "uint256",
          "name": "fromOracleVersion",
          "type": "uint256"
        },
        {
          "indexed": true,
          "internalType": "uint256",
          "name": "toOracleVersion",
          "type": "uint256"
        },
        {
          "indexed": false,
          "internalType": "uint256",
          "name": "fromPosition",
          "type": "uint256"
        },
        {
          "indexed": false,
          "internalType": "uint256",
          "name": "toPosition",
          "type": "uint256"
        },
        {
          "components": [
            {
              "internalType": "Fixed6",
              "name": "positionFeeMaker",
              "type": "int256"
            },
            {
              "internalType": "UFixed6",
              "name": "positionFeeFee",
              "type": "uint256"
            },
            {
              "internalType": "Fixed6",
              "name": "fundingMaker",
              "type": "int256"
            },
            {
              "internalType": "Fixed6",
              "name": "fundingLong",
              "type": "int256"
            },
            {
              "internalType": "Fixed6",
              "name": "fundingShort",
              "type": "int256"
            },
            {
              "internalType": "UFixed6",
              "name": "fundingFee",
              "type": "uint256"
            },
            {
              "internalType": "Fixed6",
              "name": "interestMaker",
              "type": "int256"
            },
            {
              "internalType": "Fixed6",
              "name": "interestLong",
              "type": "int256"
            },
            {
              "internalType": "Fixed6",
              "name": "interestShort",
              "type": "int256"
            },
            {
              "internalType": "UFixed6",
              "name": "interestFee",
              "type": "uint256"
            },
            {
              "internalType": "Fixed6",
              "name": "pnlMaker",
              "type": "int256"
            },
            {
              "internalType": "Fixed6",
              "name": "pnlLong",
              "type": "int256"
            },
            {
              "internalType": "Fixed6",
              "name": "pnlShort",
              "type": "int256"
            },
            {
              "internalType": "UFixed6",
              "name": "rewardMaker",
              "type": "uint256"
            },
            {
              "internalType": "UFixed6",
              "name": "rewardLong",
              "type": "uint256"
            },
            {
              "internalType": "UFixed6",
              "name": "rewardShort",
              "type": "uint256"
            }
          ],
          "indexed": false,
          "internalType": "struct VersionAccumulationResult",
          "name": "accumulationResult",
          "type": "tuple"
        }
      ],
      "name": "PositionProcessed",
      "type": "event"
    },
    {
      "anonymous": false,
      "inputs": [
        {
          "indexed": true,
          "internalType": "address",
          "name": "account",
          "type": "address"
        },
        {
          "indexed": false,
          "internalType": "UFixed6",
          "name": "amount",
          "type": "uint256"
        }
      ],
      "name": "RewardClaimed",
      "type": "event"
    },
    {
      "anonymous": false,
      "inputs": [
        {
          "components": [
            {
              "internalType": "UFixed6",
              "name": "margin",
              "type": "uint256"
            },
            {
              "internalType": "UFixed6",
              "name": "maintenance",
              "type": "uint256"
            },
            {
              "internalType": "UFixed6",
              "name": "takerFee",
              "type": "uint256"
            },
            {
              "internalType": "UFixed6",
              "name": "takerSkewFee",
              "type": "uint256"
            },
            {
              "internalType": "UFixed6",
              "name": "takerImpactFee",
              "type": "uint256"
            },
            {
              "internalType": "UFixed6",
              "name": "makerFee",
              "type": "uint256"
            },
            {
              "internalType": "UFixed6",
              "name": "makerImpactFee",
              "type": "uint256"
            },
            {
              "internalType": "UFixed6",
              "name": "makerLimit",
              "type": "uint256"
            },
            {
              "internalType": "UFixed6",
              "name": "efficiencyLimit",
              "type": "uint256"
            },
            {
              "internalType": "UFixed6",
              "name": "liquidationFee",
              "type": "uint256"
            },
            {
              "internalType": "UFixed6",
              "name": "minLiquidationFee",
              "type": "uint256"
            },
            {
              "internalType": "UFixed6",
              "name": "maxLiquidationFee",
              "type": "uint256"
            },
            {
              "components": [
                {
                  "internalType": "UFixed6",
                  "name": "minRate",
                  "type": "uint256"
                },
                {
                  "internalType": "UFixed6",
                  "name": "maxRate",
                  "type": "uint256"
                },
                {
                  "internalType": "UFixed6",
                  "name": "targetRate",
                  "type": "uint256"
                },
                {
                  "internalType": "UFixed6",
                  "name": "targetUtilization",
                  "type": "uint256"
                }
              ],
              "internalType": "struct UJumpRateUtilizationCurve6",
              "name": "utilizationCurve",
              "type": "tuple"
            },
            {
              "components": [
                {
                  "internalType": "UFixed6",
                  "name": "k",
                  "type": "uint256"
                },
                {
                  "internalType": "UFixed6",
                  "name": "max",
                  "type": "uint256"
                }
              ],
              "internalType": "struct PController6",
              "name": "pController",
              "type": "tuple"
            },
            {
              "internalType": "UFixed6",
              "name": "minMargin",
              "type": "uint256"
            },
            {
              "internalType": "UFixed6",
              "name": "minMaintenance",
              "type": "uint256"
            },
            {
              "internalType": "UFixed6",
              "name": "skewScale",
              "type": "uint256"
            },
            {
              "internalType": "uint256",
              "name": "staleAfter",
              "type": "uint256"
            },
            {
              "internalType": "bool",
              "name": "makerReceiveOnly",
              "type": "bool"
            }
          ],
          "indexed": false,
          "internalType": "struct RiskParameter",
          "name": "newRiskParameter",
          "type": "tuple"
        }
      ],
      "name": "RiskParameterUpdated",
      "type": "event"
    },
    {
      "anonymous": false,
      "inputs": [
        {
          "indexed": true,
          "internalType": "address",
          "name": "sender",
          "type": "address"
        },
        {
          "indexed": true,
          "internalType": "address",
          "name": "account",
          "type": "address"
        },
        {
          "indexed": false,
          "internalType": "uint256",
          "name": "version",
          "type": "uint256"
        },
        {
          "indexed": false,
          "internalType": "UFixed6",
          "name": "newMaker",
          "type": "uint256"
        },
        {
          "indexed": false,
          "internalType": "UFixed6",
          "name": "newLong",
          "type": "uint256"
        },
        {
          "indexed": false,
          "internalType": "UFixed6",
          "name": "newShort",
          "type": "uint256"
        },
        {
          "indexed": false,
          "internalType": "Fixed6",
          "name": "collateral",
          "type": "int256"
        },
        {
          "indexed": false,
          "internalType": "bool",
          "name": "protect",
          "type": "bool"
        }
      ],
      "name": "Updated",
      "type": "event"
    },
    {
      "inputs": [],
      "name": "claimFee",
      "outputs": [],
      "stateMutability": "nonpayable",
      "type": "function"
    },
    {
      "inputs": [],
      "name": "factory",
      "outputs": [
        {
          "internalType": "contract IFactory",
          "name": "",
          "type": "address"
        }
      ],
      "stateMutability": "view",
      "type": "function"
    },
    {
      "inputs": [],
      "name": "global",
      "outputs": [
        {
          "components": [
            {
              "internalType": "uint256",
              "name": "currentId",
              "type": "uint256"
            },
            {
              "internalType": "uint256",
              "name": "latestId",
              "type": "uint256"
            },
            {
              "internalType": "UFixed6",
              "name": "protocolFee",
              "type": "uint256"
            },
            {
              "internalType": "UFixed6",
              "name": "oracleFee",
              "type": "uint256"
            },
            {
              "internalType": "UFixed6",
              "name": "riskFee",
              "type": "uint256"
            },
            {
              "internalType": "UFixed6",
              "name": "donation",
              "type": "uint256"
            },
            {
              "components": [
                {
                  "internalType": "Fixed6",
                  "name": "_value",
                  "type": "int256"
                },
                {
                  "internalType": "Fixed6",
                  "name": "_skew",
                  "type": "int256"
                }
              ],
              "internalType": "struct PAccumulator6",
              "name": "pAccumulator",
              "type": "tuple"
            },
            {
              "internalType": "Fixed6",
              "name": "latestPrice",
              "type": "int256"
            }
          ],
          "internalType": "struct Global",
          "name": "",
          "type": "tuple"
        }
      ],
      "stateMutability": "view",
      "type": "function"
    },
    {
      "inputs": [
        {
          "components": [
            {
              "internalType": "Token18",
              "name": "token",
              "type": "address"
            },
            {
              "internalType": "contract IOracleProvider",
              "name": "oracle",
              "type": "address"
            },
            {
              "internalType": "contract IPayoffProvider",
              "name": "payoff",
              "type": "address"
            }
          ],
          "internalType": "struct IMarket.MarketDefinition",
          "name": "definition_",
          "type": "tuple"
        }
      ],
      "name": "initialize",
      "outputs": [],
      "stateMutability": "nonpayable",
      "type": "function"
    },
    {
      "inputs": [
        {
          "internalType": "address",
          "name": "account",
          "type": "address"
        }
      ],
      "name": "locals",
      "outputs": [
        {
          "components": [
            {
              "internalType": "uint256",
              "name": "currentId",
              "type": "uint256"
            },
            {
              "internalType": "uint256",
              "name": "latestId",
              "type": "uint256"
            },
            {
              "internalType": "Fixed6",
              "name": "collateral",
              "type": "int256"
            },
            {
              "internalType": "UFixed6",
              "name": "reward",
              "type": "uint256"
            },
            {
              "internalType": "uint256",
              "name": "protection",
              "type": "uint256"
            },
            {
              "internalType": "address",
              "name": "protectionInitiator",
              "type": "address"
            },
            {
              "internalType": "UFixed6",
              "name": "protectionAmount",
              "type": "uint256"
            }
          ],
          "internalType": "struct Local",
          "name": "",
          "type": "tuple"
        }
      ],
      "stateMutability": "view",
      "type": "function"
    },
    {
      "inputs": [],
      "name": "oracle",
      "outputs": [
        {
          "internalType": "contract IOracleProvider",
          "name": "",
          "type": "address"
        }
      ],
      "stateMutability": "view",
      "type": "function"
    },
    {
      "inputs": [],
      "name": "parameter",
      "outputs": [
        {
          "components": [
            {
              "internalType": "UFixed6",
              "name": "fundingFee",
              "type": "uint256"
            },
            {
              "internalType": "UFixed6",
              "name": "interestFee",
              "type": "uint256"
            },
            {
              "internalType": "UFixed6",
              "name": "positionFee",
              "type": "uint256"
            },
            {
              "internalType": "UFixed6",
              "name": "oracleFee",
              "type": "uint256"
            },
            {
              "internalType": "UFixed6",
              "name": "riskFee",
              "type": "uint256"
            },
            {
              "internalType": "uint256",
              "name": "maxPendingGlobal",
              "type": "uint256"
            },
            {
              "internalType": "uint256",
              "name": "maxPendingLocal",
              "type": "uint256"
            },
            {
              "internalType": "UFixed6",
              "name": "makerRewardRate",
              "type": "uint256"
            },
            {
              "internalType": "UFixed6",
              "name": "longRewardRate",
              "type": "uint256"
            },
            {
              "internalType": "UFixed6",
              "name": "shortRewardRate",
              "type": "uint256"
            },
            {
              "internalType": "UFixed6",
              "name": "settlementFee",
              "type": "uint256"
            },
            {
              "internalType": "bool",
              "name": "takerCloseAlways",
              "type": "bool"
            },
            {
              "internalType": "bool",
              "name": "makerCloseAlways",
              "type": "bool"
            },
            {
              "internalType": "bool",
              "name": "closed",
              "type": "bool"
            },
            {
              "internalType": "bool",
              "name": "settle",
              "type": "bool"
            }
          ],
          "internalType": "struct MarketParameter",
          "name": "",
          "type": "tuple"
        }
      ],
      "stateMutability": "view",
      "type": "function"
    },
    {
      "inputs": [],
      "name": "payoff",
      "outputs": [
        {
          "internalType": "contract IPayoffProvider",
          "name": "",
          "type": "address"
        }
      ],
      "stateMutability": "view",
      "type": "function"
    },
    {
      "inputs": [
        {
          "internalType": "uint256",
          "name": "id",
          "type": "uint256"
        }
      ],
      "name": "pendingPosition",
      "outputs": [
        {
          "components": [
            {
              "internalType": "uint256",
              "name": "timestamp",
              "type": "uint256"
            },
            {
              "internalType": "UFixed6",
              "name": "maker",
              "type": "uint256"
            },
            {
              "internalType": "UFixed6",
              "name": "long",
              "type": "uint256"
            },
            {
              "internalType": "UFixed6",
              "name": "short",
              "type": "uint256"
            },
            {
              "internalType": "Fixed6",
              "name": "fee",
              "type": "int256"
            },
            {
              "internalType": "UFixed6",
              "name": "keeper",
              "type": "uint256"
            },
            {
              "internalType": "Fixed6",
              "name": "collateral",
              "type": "int256"
            },
            {
              "internalType": "Fixed6",
              "name": "delta",
              "type": "int256"
            },
            {
              "components": [
                {
                  "internalType": "Fixed6",
                  "name": "maker",
                  "type": "int256"
                },
                {
                  "internalType": "Fixed6",
                  "name": "long",
                  "type": "int256"
                },
                {
                  "internalType": "Fixed6",
                  "name": "short",
                  "type": "int256"
                }
              ],
              "internalType": "struct Invalidation",
              "name": "invalidation",
              "type": "tuple"
            }
          ],
          "internalType": "struct Position",
          "name": "",
          "type": "tuple"
        }
      ],
      "stateMutability": "view",
      "type": "function"
    },
    {
      "inputs": [
        {
          "internalType": "address",
          "name": "account",
          "type": "address"
        },
        {
          "internalType": "uint256",
          "name": "id",
          "type": "uint256"
        }
      ],
      "name": "pendingPositions",
      "outputs": [
        {
          "components": [
            {
              "internalType": "uint256",
              "name": "timestamp",
              "type": "uint256"
            },
            {
              "internalType": "UFixed6",
              "name": "maker",
              "type": "uint256"
            },
            {
              "internalType": "UFixed6",
              "name": "long",
              "type": "uint256"
            },
            {
              "internalType": "UFixed6",
              "name": "short",
              "type": "uint256"
            },
            {
              "internalType": "Fixed6",
              "name": "fee",
              "type": "int256"
            },
            {
              "internalType": "UFixed6",
              "name": "keeper",
              "type": "uint256"
            },
            {
              "internalType": "Fixed6",
              "name": "collateral",
              "type": "int256"
            },
            {
              "internalType": "Fixed6",
              "name": "delta",
              "type": "int256"
            },
            {
              "components": [
                {
                  "internalType": "Fixed6",
                  "name": "maker",
                  "type": "int256"
                },
                {
                  "internalType": "Fixed6",
                  "name": "long",
                  "type": "int256"
                },
                {
                  "internalType": "Fixed6",
                  "name": "short",
                  "type": "int256"
                }
              ],
              "internalType": "struct Invalidation",
              "name": "invalidation",
              "type": "tuple"
            }
          ],
          "internalType": "struct Position",
          "name": "",
          "type": "tuple"
        }
      ],
      "stateMutability": "view",
      "type": "function"
    },
    {
      "inputs": [],
      "name": "position",
      "outputs": [
        {
          "components": [
            {
              "internalType": "uint256",
              "name": "timestamp",
              "type": "uint256"
            },
            {
              "internalType": "UFixed6",
              "name": "maker",
              "type": "uint256"
            },
            {
              "internalType": "UFixed6",
              "name": "long",
              "type": "uint256"
            },
            {
              "internalType": "UFixed6",
              "name": "short",
              "type": "uint256"
            },
            {
              "internalType": "Fixed6",
              "name": "fee",
              "type": "int256"
            },
            {
              "internalType": "UFixed6",
              "name": "keeper",
              "type": "uint256"
            },
            {
              "internalType": "Fixed6",
              "name": "collateral",
              "type": "int256"
            },
            {
              "internalType": "Fixed6",
              "name": "delta",
              "type": "int256"
            },
            {
              "components": [
                {
                  "internalType": "Fixed6",
                  "name": "maker",
                  "type": "int256"
                },
                {
                  "internalType": "Fixed6",
                  "name": "long",
                  "type": "int256"
                },
                {
                  "internalType": "Fixed6",
                  "name": "short",
                  "type": "int256"
                }
              ],
              "internalType": "struct Invalidation",
              "name": "invalidation",
              "type": "tuple"
            }
          ],
          "internalType": "struct Position",
          "name": "",
          "type": "tuple"
        }
      ],
      "stateMutability": "view",
      "type": "function"
    },
    {
      "inputs": [
        {
          "internalType": "address",
          "name": "account",
          "type": "address"
        }
      ],
      "name": "positions",
      "outputs": [
        {
          "components": [
            {
              "internalType": "uint256",
              "name": "timestamp",
              "type": "uint256"
            },
            {
              "internalType": "UFixed6",
              "name": "maker",
              "type": "uint256"
            },
            {
              "internalType": "UFixed6",
              "name": "long",
              "type": "uint256"
            },
            {
              "internalType": "UFixed6",
              "name": "short",
              "type": "uint256"
            },
            {
              "internalType": "Fixed6",
              "name": "fee",
              "type": "int256"
            },
            {
              "internalType": "UFixed6",
              "name": "keeper",
              "type": "uint256"
            },
            {
              "internalType": "Fixed6",
              "name": "collateral",
              "type": "int256"
            },
            {
              "internalType": "Fixed6",
              "name": "delta",
              "type": "int256"
            },
            {
              "components": [
                {
                  "internalType": "Fixed6",
                  "name": "maker",
                  "type": "int256"
                },
                {
                  "internalType": "Fixed6",
                  "name": "long",
                  "type": "int256"
                },
                {
                  "internalType": "Fixed6",
                  "name": "short",
                  "type": "int256"
                }
              ],
              "internalType": "struct Invalidation",
              "name": "invalidation",
              "type": "tuple"
            }
          ],
          "internalType": "struct Position",
          "name": "",
          "type": "tuple"
        }
      ],
      "stateMutability": "view",
      "type": "function"
    },
    {
      "inputs": [],
      "name": "riskParameter",
      "outputs": [
        {
          "components": [
            {
              "internalType": "UFixed6",
              "name": "margin",
              "type": "uint256"
            },
            {
              "internalType": "UFixed6",
              "name": "maintenance",
              "type": "uint256"
            },
            {
              "internalType": "UFixed6",
              "name": "takerFee",
              "type": "uint256"
            },
            {
              "internalType": "UFixed6",
              "name": "takerSkewFee",
              "type": "uint256"
            },
            {
              "internalType": "UFixed6",
              "name": "takerImpactFee",
              "type": "uint256"
            },
            {
              "internalType": "UFixed6",
              "name": "makerFee",
              "type": "uint256"
            },
            {
              "internalType": "UFixed6",
              "name": "makerImpactFee",
              "type": "uint256"
            },
            {
              "internalType": "UFixed6",
              "name": "makerLimit",
              "type": "uint256"
            },
            {
              "internalType": "UFixed6",
              "name": "efficiencyLimit",
              "type": "uint256"
            },
            {
              "internalType": "UFixed6",
              "name": "liquidationFee",
              "type": "uint256"
            },
            {
              "internalType": "UFixed6",
              "name": "minLiquidationFee",
              "type": "uint256"
            },
            {
              "internalType": "UFixed6",
              "name": "maxLiquidationFee",
              "type": "uint256"
            },
            {
              "components": [
                {
                  "internalType": "UFixed6",
                  "name": "minRate",
                  "type": "uint256"
                },
                {
                  "internalType": "UFixed6",
                  "name": "maxRate",
                  "type": "uint256"
                },
                {
                  "internalType": "UFixed6",
                  "name": "targetRate",
                  "type": "uint256"
                },
                {
                  "internalType": "UFixed6",
                  "name": "targetUtilization",
                  "type": "uint256"
                }
              ],
              "internalType": "struct UJumpRateUtilizationCurve6",
              "name": "utilizationCurve",
              "type": "tuple"
            },
            {
              "components": [
                {
                  "internalType": "UFixed6",
                  "name": "k",
                  "type": "uint256"
                },
                {
                  "internalType": "UFixed6",
                  "name": "max",
                  "type": "uint256"
                }
              ],
              "internalType": "struct PController6",
              "name": "pController",
              "type": "tuple"
            },
            {
              "internalType": "UFixed6",
              "name": "minMargin",
              "type": "uint256"
            },
            {
              "internalType": "UFixed6",
              "name": "minMaintenance",
              "type": "uint256"
            },
            {
              "internalType": "UFixed6",
              "name": "skewScale",
              "type": "uint256"
            },
            {
              "internalType": "uint256",
              "name": "staleAfter",
              "type": "uint256"
            },
            {
              "internalType": "bool",
              "name": "makerReceiveOnly",
              "type": "bool"
            }
          ],
          "internalType": "struct RiskParameter",
          "name": "",
          "type": "tuple"
        }
      ],
      "stateMutability": "view",
      "type": "function"
    },
    {
      "inputs": [
        {
          "internalType": "address",
          "name": "account",
          "type": "address"
        }
      ],
      "name": "settle",
      "outputs": [],
      "stateMutability": "nonpayable",
      "type": "function"
    },
    {
      "inputs": [],
      "name": "token",
      "outputs": [
        {
          "internalType": "Token18",
          "name": "",
          "type": "address"
        }
      ],
      "stateMutability": "view",
      "type": "function"
    },
    {
      "inputs": [
        {
          "internalType": "address",
          "name": "account",
          "type": "address"
        },
        {
          "internalType": "UFixed6",
          "name": "newMaker",
          "type": "uint256"
        },
        {
          "internalType": "UFixed6",
          "name": "newLong",
          "type": "uint256"
        },
        {
          "internalType": "UFixed6",
          "name": "newShort",
          "type": "uint256"
        },
        {
          "internalType": "Fixed6",
          "name": "collateral",
          "type": "int256"
        },
        {
          "internalType": "bool",
          "name": "protect",
          "type": "bool"
        }
      ],
      "name": "update",
      "outputs": [],
      "stateMutability": "nonpayable",
      "type": "function"
    },
    {
      "inputs": [
        {
          "internalType": "address",
          "name": "newBeneficiary",
          "type": "address"
        },
        {
          "internalType": "address",
          "name": "newCoordinator",
          "type": "address"
        },
        {
          "components": [
            {
              "internalType": "UFixed6",
              "name": "fundingFee",
              "type": "uint256"
            },
            {
              "internalType": "UFixed6",
              "name": "interestFee",
              "type": "uint256"
            },
            {
              "internalType": "UFixed6",
              "name": "positionFee",
              "type": "uint256"
            },
            {
              "internalType": "UFixed6",
              "name": "oracleFee",
              "type": "uint256"
            },
            {
              "internalType": "UFixed6",
              "name": "riskFee",
              "type": "uint256"
            },
            {
              "internalType": "uint256",
              "name": "maxPendingGlobal",
              "type": "uint256"
            },
            {
              "internalType": "uint256",
              "name": "maxPendingLocal",
              "type": "uint256"
            },
            {
              "internalType": "UFixed6",
              "name": "makerRewardRate",
              "type": "uint256"
            },
            {
              "internalType": "UFixed6",
              "name": "longRewardRate",
              "type": "uint256"
            },
            {
              "internalType": "UFixed6",
              "name": "shortRewardRate",
              "type": "uint256"
            },
            {
              "internalType": "UFixed6",
              "name": "settlementFee",
              "type": "uint256"
            },
            {
              "internalType": "bool",
              "name": "takerCloseAlways",
              "type": "bool"
            },
            {
              "internalType": "bool",
              "name": "makerCloseAlways",
              "type": "bool"
            },
            {
              "internalType": "bool",
              "name": "closed",
              "type": "bool"
            },
            {
              "internalType": "bool",
              "name": "settle",
              "type": "bool"
            }
          ],
          "internalType": "struct MarketParameter",
          "name": "newParameter",
          "type": "tuple"
        }
      ],
      "name": "updateParameter",
      "outputs": [],
      "stateMutability": "nonpayable",
      "type": "function"
    },
    {
      "inputs": [
        {
          "components": [
            {
              "internalType": "UFixed6",
              "name": "margin",
              "type": "uint256"
            },
            {
              "internalType": "UFixed6",
              "name": "maintenance",
              "type": "uint256"
            },
            {
              "internalType": "UFixed6",
              "name": "takerFee",
              "type": "uint256"
            },
            {
              "internalType": "UFixed6",
              "name": "takerSkewFee",
              "type": "uint256"
            },
            {
              "internalType": "UFixed6",
              "name": "takerImpactFee",
              "type": "uint256"
            },
            {
              "internalType": "UFixed6",
              "name": "makerFee",
              "type": "uint256"
            },
            {
              "internalType": "UFixed6",
              "name": "makerImpactFee",
              "type": "uint256"
            },
            {
              "internalType": "UFixed6",
              "name": "makerLimit",
              "type": "uint256"
            },
            {
              "internalType": "UFixed6",
              "name": "efficiencyLimit",
              "type": "uint256"
            },
            {
              "internalType": "UFixed6",
              "name": "liquidationFee",
              "type": "uint256"
            },
            {
              "internalType": "UFixed6",
              "name": "minLiquidationFee",
              "type": "uint256"
            },
            {
              "internalType": "UFixed6",
              "name": "maxLiquidationFee",
              "type": "uint256"
            },
            {
              "components": [
                {
                  "internalType": "UFixed6",
                  "name": "minRate",
                  "type": "uint256"
                },
                {
                  "internalType": "UFixed6",
                  "name": "maxRate",
                  "type": "uint256"
                },
                {
                  "internalType": "UFixed6",
                  "name": "targetRate",
                  "type": "uint256"
                },
                {
                  "internalType": "UFixed6",
                  "name": "targetUtilization",
                  "type": "uint256"
                }
              ],
              "internalType": "struct UJumpRateUtilizationCurve6",
              "name": "utilizationCurve",
              "type": "tuple"
            },
            {
              "components": [
                {
                  "internalType": "UFixed6",
                  "name": "k",
                  "type": "uint256"
                },
                {
                  "internalType": "UFixed6",
                  "name": "max",
                  "type": "uint256"
                }
              ],
              "internalType": "struct PController6",
              "name": "pController",
              "type": "tuple"
            },
            {
              "internalType": "UFixed6",
              "name": "minMargin",
              "type": "uint256"
            },
            {
              "internalType": "UFixed6",
              "name": "minMaintenance",
              "type": "uint256"
            },
            {
              "internalType": "UFixed6",
              "name": "skewScale",
              "type": "uint256"
            },
            {
              "internalType": "uint256",
              "name": "staleAfter",
              "type": "uint256"
            },
            {
              "internalType": "bool",
              "name": "makerReceiveOnly",
              "type": "bool"
            }
          ],
          "internalType": "struct RiskParameter",
          "name": "newRiskParameter",
          "type": "tuple"
        }
      ],
      "name": "updateRiskParameter",
      "outputs": [],
      "stateMutability": "nonpayable",
      "type": "function"
    },
    {
      "inputs": [
        {
          "internalType": "uint256",
          "name": "timestamp",
          "type": "uint256"
        }
      ],
      "name": "versions",
      "outputs": [
        {
          "components": [
            {
              "internalType": "bool",
              "name": "valid",
              "type": "bool"
            },
            {
              "components": [
                {
                  "internalType": "Fixed6",
                  "name": "_value",
                  "type": "int256"
                }
              ],
              "internalType": "struct Accumulator6",
              "name": "makerValue",
              "type": "tuple"
            },
            {
              "components": [
                {
                  "internalType": "Fixed6",
                  "name": "_value",
                  "type": "int256"
                }
              ],
              "internalType": "struct Accumulator6",
              "name": "longValue",
              "type": "tuple"
            },
            {
              "components": [
                {
                  "internalType": "Fixed6",
                  "name": "_value",
                  "type": "int256"
                }
              ],
              "internalType": "struct Accumulator6",
              "name": "shortValue",
              "type": "tuple"
            },
            {
              "components": [
                {
                  "internalType": "UFixed6",
                  "name": "_value",
                  "type": "uint256"
                }
              ],
              "internalType": "struct UAccumulator6",
              "name": "makerReward",
              "type": "tuple"
            },
            {
              "components": [
                {
                  "internalType": "UFixed6",
                  "name": "_value",
                  "type": "uint256"
                }
              ],
              "internalType": "struct UAccumulator6",
              "name": "longReward",
              "type": "tuple"
            },
            {
              "components": [
                {
                  "internalType": "UFixed6",
                  "name": "_value",
                  "type": "uint256"
                }
              ],
              "internalType": "struct UAccumulator6",
              "name": "shortReward",
              "type": "tuple"
            }
          ],
          "internalType": "struct Version",
          "name": "",
          "type": "tuple"
        }
      ],
      "stateMutability": "view",
      "type": "function"
    }
  ],
  "transactionHash": "0xdce791094f9f767bc15f262cce0be597420bf43917300d6e9daf893d6bf25199",
  "args": [],
  "numDeployments": 5,
  "solcInputHash": "20482be0c9a1a1ca48188eae4f0f6dce",
  "bytecode": "0x6080806040523461001757615e6590816200001c8239f35b5f80fdfe60806040526004361015610011575f80fd5b5f803560e01c806309218e9114611cff5780634549a62914611c655780634c33f2531461198157806355f57510146119395780635b4b9695146118ac5780636a256b29146117d35780637dc0d1d0146117aa57806387aee00e1461172a57806391eece2814610a9e57806395fcd83614610a7557806399d32fc4146108ec578063a05f99061461086b578063a1d0a11314610837578063ad4d4e2914610792578063b329230e14610386578063c45a015514610351578063ce813aed14610279578063d26b3e26146101145763fc0c546a146100eb575f80fd5b34610111578060031936011261011157546040516001600160a01b039091168152602090f35b80fd5b5034610111576060366003190112610111577f6fee9688c285c5c5c97d6a1a29adced674e6b2ad0888b8ad2116b58a8b3ea2486001815410156102605760019055303b151580610259575b61024057335f80516020615dd083398151915255303b151580610252575b6102405760015f80516020615db0833981519152556001600160a01b03600435818116908190036102385782546001600160a01b031990811690911783556024358281169081900361023c57816002541617600255604435918216809203610238576003541617600355807f2801b00eb06461cf9fcb9758b5fafd884ff06a86177386f73b6c49f0bf5a5af0557fbe9b076dc5b65990cca9dd9d7366682482e7817a6f6bc7f4faf4dc32af497f32602060405160018152a180f35b8280fd5b8380fd5b60405163b9a621e160e01b8152600490fd5b508061017d565b508061015f565b604051631edb9c6d60e11b815260016004820152602490fd5b5034610111576040366003190112610111576004356001600160a01b038116919082900361034d5760406102cc91610349936102b3611f27565b508152601260205281812060243582526020522061255c565b60405191829182919091610140604061016083019480518452602081015160208501528181015182850152606081015160608501526080810151608085015260a081015160a085015260c081015160c085015260e081015160e0850152610100809101519081519085015260208101516101208501520151910152565b0390f35b5f80fd5b50346101115780600319360112610111575f80516020615dd0833981519152546040516001600160a01b039091168152602090f35b5034610111576102e0366003190112610111576040516103a861026082611e30565b6004358152602435602082015260443560408201526064356060820152608435608082015260a43560a082015260c43560c082015260e43560e0820152610104356101008201526101243561012082015261014435610140820152610164356101608201526080610183193601126106b557604051610428608082611e30565b6101843581526101a43560208201526101c43560408201526101e43560608201526101808201526040610203193601126106b55760405161046a604082611e30565b6102043581526102243560208201526101a0820152610244356101c0820152610264356101e0820152610284356102008201526102a4356102208201526102c43515156102c4350361034d576102c4356102408201526005546001600160a01b031633141580610705575b6106f3575f80516020615dd08339815191525460405163ad4d4e2960e01b8152839160e090829060049082906001600160a01b03165afa9081156106b95782916106c4575b507309928519F6cF2F784168c36dCb3e8B8961d09aED3b156106b557610641604051916302903c7960e21b83526006600484015284516024840152602085015160448401526040850151606484015260608501516084840152608085015160a484015260a085015160c484015260c085015160e484015260e08501516101048401526101008501516101248401526101208501516101448401526101408501516101648401526101608501516101848401526105e06101808601516101a4850190611d25565b60206101a0860151805161022486015201516102448401526101c08501516102648401526101e08501516102848401526102008501516102a48401526102208501516102c484015261024085015115156102e484015261030483019061221a565b81816103e4817309928519F6cF2F784168c36dCb3e8B8961d09aED5af480156106b9576106a0575b506040517f823c5e592916c45a8b43a655f22eb029f79dfd3c63f6d122df594aaf83e09b02908061069a8582611d48565b0390a180f35b816106aa91611e30565b6106b557815f610669565b5080fd5b6040513d84823e3d90fd5b6106e6915060e03d60e0116106ec575b6106de8183611e30565b8101906121be565b5f61051a565b503d6106d4565b604051639bca062560e01b8152600490fd5b505f80516020615dd083398151915254604051638da5cb5b60e01b815290602090829060049082906001600160a01b03165afa908115610787578391610758575b506001600160a01b03163314156104d5565b61077a915060203d602011610780575b6107728183611e30565b81019061219f565b5f610746565b503d610768565b6040513d85823e3d90fd5b50346101115780600319360112610111576107ab612376565b506040516338ecab9f60e21b8152600960048201526101e091908281602481739d9bE6c52647Ed63D72Da876f1112Be8B3602Cf85af491821561082b57916107fe575b506107fc6040518092611e67565bf35b61081e9150823d8411610824575b6108168183611e30565b8101906123e6565b5f6107ee565b503d61080c565b604051903d90823e3d90fd5b5034610111576020366003190112610111576102cc60406103499261085a611f27565b506004358152600f602052206124b0565b5034610111578060031936011261011157610884612321565b50610120610892600b612e0b565b60e060405191805183526020810151602084015260408101516040840152606081015160608401526080810151608084015260a081015160a0840152602060c0820151805160c08601520151828401520151610100820152f35b5034610111578060031936011261011157610907600b612e0b565b5f80516020615dd08339815191528054604051638da5cb5b60e01b81526001600160a01b0393928592602092908390829060049082908a165afa8015610a6a5760049285889286948291610a4d575b5061096760408a0191825190612ea7565b610a45575b5050541660405192838092630c7f7fb960e41b82525afa918215610787578392610a0a575b505092816109ef946109ab60608601918483519116612ea7565b610a02575b5081600554166109c66080860191825190612ea7565b6109fa575b5050600454166109e160a0840191825190612ea7565b6109f2575b5050600b612f0d565b80f35b52825f6109e6565b52815f6109cb565b52815f6109b0565b90809250813d8311610a3e575b610a218183611e30565b810103126106b557519280841684036106b55792816109ef610991565b503d610a17565b52855f61096c565b610a649150853d8711610780576107728183611e30565b5f610956565b6040513d86823e3d90fd5b50346101115780600319360112610111576003546040516001600160a01b039091168152602090f35b50346101115760c0366003190112610111576004356001600160a01b038116900361034d5760a435151560a4350361034d5760025f80516020615db083398151915254146117185760025f80516020615db0833981519152555f80516020615dd083398151915254604051635c975abb60e01b815290602090829060049082906001600160a01b03165afa9081156106b95782916116de575b506116cc57610b476004356126d6565b610b53600435826129bb565b6101c0602082015101516116ba57604060e08201510151610160820152610b82602061012083015101516152bf565b610140820152610b9760c082015151826131d2565b61010082015152610bbd61010080830151510151610100610120840151510151906152f2565b610bcf60e082015151600435836135c6565b60206101008301510152610bfe61010060208184015101510151610100602061012085015101510151906152f2565b6060810151602061010083015101515110611692575b606081015161010082015151511061166d575b602060e08201510151600181018111611659576001015b60e082015151811015610c6a5780610c64610c5e600193600435866135c6565b84613d9a565b01610c3e565b50610160810151610c91610c8c60e08401516020610120860151015190615173565b61514a565b9083821281838103128116908284810313901516176116455703610160820152610cbd60843582613c8f565b90610cd76024356020806101008501510151015183613cdf565b610cf1604435604060206101008601510151015184613cdf565b92610d0c606435606060206101008701510151015185613cdf565b916020610100850151015192606085015160405194610d2d61014087611e30565b8886528860208701528860408701528860608701528860808701528860a08701528860c08701528860e08701528861010087015288610120870152610d718461514a565b610d7e602083015161514a565b908a8212818381031281169082848103139015161761163157610da08a61514a565b610dad604085015161514a565b908c82128183810312811690828481031390151617611559578c610dd08861514a565b610ddd606088015161514a565b918212818381031281169082848103139015161761158a570360408b01520360208901520386528260608201528760408201528360208201525261010085015151606086015161020060408801510191610e388351826157dd565b91610e45610c8c8361534e565b610e51610c8c84615388565b610e5d610c8c856153b0565b60c08b015260e08a01526060890152610e79602083015161514a565b88519081808201128d821290801582169115161761155957610e9b91016153cf565b610ea8604084015161514a565b60208a0151908d828083011290821290801582169115161761159e57610ece91016153cf565b8c610edc606086015161514a565b60408c015191828083011290821290801582169115161761158a57610f0191016153cf565b6060850152604084015260208301528152610f1d8351826157dd565b90610f2a610c8c8261534e565b926060890151948c8612858781031281169086888103139015161761155957805161160e57508b925b6001610f5f83836156e1565b036115b25750508a905b610f75610c8c82615388565b60e08a0151918d8312828481031281169083858103139015161761159e57610fa0610c8c8f926153b0565b60c08c0151918212818381031281169082848103139015161761158a570360c08b01520360e089015260a0880152608087015203606085015260808501516020860151906040870151610ff660a082015161514a565b61101d620f424061101861100d60c086015161514a565b60c08c015190613c6d565b615320565b9081808201128c8212908015821691151617611576578b828201135f1461156d5701905b61104e604082015161514a565b9061106f620f4240611069606084015160808d01519061453d565b0461514a565b9081808401128d841290801582169115161761155957620f424061101861109c60806110a794015161514a565b60a08d015190613c6d565b91828083830101128d8383011290801582169115161761155957611125620f42406110698f9761111f61114b8f9a856110186111529c6111258f9b611069859f6110189f6020916111129189958b61112a9c50808484840101135f1461154f575001019f5b516156b6565b9a019961111f8b516156b6565b9061453d565b613c6d565b9a611145604061113d60208401516156b6565b9201516156b6565b9061299a565b91516156b6565b9081808201128a821290801582169115161761153b576101a083015115611535575050875b610100860152611186856153f1565b61152b5750865b6101208501526111a68460206101008801510151613d5e565b6111b68461010087015151613d5e565b604060e08601510180518480820112898212908015821691151617611517578401905260e0602061010087015101510180518480820112898212908015821691151617611517578401905261016085015183808201128882129080158216911516176115035783016101608601526112376020610100870151015186613d9a565b61125c60e086015160408701519086608089015160608a01519060a435943394613e48565b95611266856153f1565b611495575b61127d6113fd9785876004358a613e99565b60c0860151518852600f60205261129e604089206101008801515190613905565b6004356001600160a01b03168852601260209081526040808a2060e0890151518b5282528920610100880151909101516112d7916139eb565b6112e084614521565b6001811461143e575b5f1914611411575b60608601519260405193845260208401526040830152606082015281608082015260a435151560a082015260018060a01b0360043516907f29083474b417ce11b6e16e049302e231f5d3d753484fe3e8155ea0b7ffe4f3c160c03392a361012060608401519260405193845280516020850152602081015160408501526040810151606085015260608101516080850152608081015160a085015260a081015160c085015260c081015160e085015260e08101516101008501526101008101518285015201516101408301526101608201527fbbbad390211bc8fbc03c550e5c69ef38db7ddb94900123f4e565339f81fb8fc661018060018060a01b036004351692a260043590612d0e565b60015f80516020615db08339815191525580f35b8754611439906001600160a01b031661143161142c876156b6565b614550565b90339061456a565b6112f1565b8854611490906001600160a01b031661145961142c886156b6565b90604051916323b872dd60e01b602084015233602484015230604484015260648301526064825261148b608483611e30565b6158ba565b6112e9565b60025488906001600160a01b0316803b156106b557818091604460405180948193631a9be9fd60e11b835230600484015260018060a01b036004351660248401525af180156106b9576114ea575b505061126b565b816114f491611e30565b6114ff57875f6114e3565b8780fd5b634e487b7160e01b88526011600452602488fd5b634e487b7160e01b89526011600452602489fd5b610140015161118d565b01611177565b634e487b7160e01b8a52601160045260248afd5b925050509f61110c565b634e487b7160e01b8d52601160045260248dfd5b50508990611041565b634e487b7160e01b8c52601160045260248cfd5b634e487b7160e01b8f52601160045260248ffd5b634e487b7160e01b8e52601160045260248efd5b80808301128d8312801591801582169083161761158a578284810312169082848103131617611559579061101861160892620f424090611601826111256115fa878503614521565b6002613c6d565b9301613c6d565b90610f69565b61162b9061162361161e8c6153f1565b6156b6565b905190615438565b92610f53565b634e487b7160e01b8b52601160045260248bfd5b634e487b7160e01b84526011600452602484fd5b634e487b7160e01b83526011600452602483fd5b60c081015161167c8151613c5f565b905261168d6101008201515161530c565b610c27565b60e08101516116a18151613c5f565b90526116b56020610100830151015161530c565b610c14565b604051630b8b968760e31b8152600490fd5b604051634b94d2bb60e01b8152600490fd5b90506020813d602011611710575b816116f960209383611e30565b810103126106b55761170a90612044565b5f610b37565b3d91506116ec565b6040516345f6780960e11b8152600490fd5b50346101115760203660031901126101115761175d604060e09261174c612293565b506004358152601360205220612d3f565b60c060405191805115158352602081015151602084015260408101515160408401526060810151516060840152608081015151608084015260a08101515160a084015201515160c0820152f35b50346101115780600319360112610111576002546040516001600160a01b039091168152602090f35b5034610111576020366003190112610111576004356001600160a01b03808216820361034d575f80516020615db0833981519152906002825414611718576020600491600284555f80516020615dd0833981519152541660405192838092635c975abb60e01b82525afa908115610a6a578491611872575b506116cc5761186e8261185f6001946126d6565b61186982826129bb565b612d0e565b5580f35b90506020813d6020116118a4575b8161188d60209383611e30565b8101031261023c5761189e90612044565b5f61184b565b3d9150611880565b5034610111576020366003190112610111576001600160a01b036004358181169081900361034d576118f5604060e09460c0936118e761225b565b508152601060205220612638565b60405192815184526020820151602085015260408201516040850152606082015160608501526080820151608085015260a08201511660a0840152015160c0820152f35b5034610111576020366003190112610111576004356001600160a01b038116919082900361034d5760406102cc9161034993611973611f27565b50815260116020522061255c565b503461034d5761022036600319011261034d576004356001600160a01b03818116929183900361034d576024359281841680940361034d576101e0918260431936011261034d57604051946119d68487611e30565b604435865260209160643583880152608435604088015260a435606088015260c435608088015260e43560a08801526101043560c08801526101243560e08801526101443561010088015261016435610120880152610184356101408801526101a435801515810361034d576101608801526101c435801515810361034d576101808801526101e435801515810361034d576101a0880152610204938435801515810361034d576101c0890152815f80516020615dd0833981519152541693604051638da5cb5b60e01b81528181600481895afa8015611c045784915f91611c48575b50163303611c3057836004947fc258faa9a17ddfdf4130b4acff63a289202e7d5f9e42f366add65368575486bc937feee59a71c694e68368a1cb0d135c448051bbfb12289e6c2223b0ceb100c2321d8460018060a01b03199280848b5416178a55604051908152a16005541617600555604051908152a160e0739d9bE6c52647Ed63D72Da876f1112Be8B3602Cf8936040519384809263ad4d4e29851b82525afa918215611c04575f92611c0f575b5060015416823b1561034d576040516310317ba160e11b815260096004820152935f9385936103049385939091611bae91611ba6602487018e611e67565b85019061221a565b6102e48301525af48015611c0457611be3575b505f80516020615df08339815191529192611bdf6040518092611e67565ba180f35b5f80516020615df083398151915292505f611bfd91611e30565b5f91611bc1565b6040513d5f823e3d90fd5b611c2991925060e03d60e0116106ec576106de8183611e30565b905f611b68565b604051634d193d1f60e01b8152336004820152602490fd5b611c5f9150833d8511610780576107728183611e30565b5f611ab9565b3461034d575f36600319011261034d57611c7d611f9b565b50604051635da3780d60e01b8152600660048201526102e09081816024817309928519F6cF2F784168c36dCb3e8B8961d09aED5af4908115611c0457610349925f92611cd2575b505060405191829182611d48565b611cf19250803d10611cf8575b611ce98183611e30565b810190612051565b8280611cc4565b503d611cdf565b3461034d575f36600319011261034d57611d17611f27565b506103496102cc600d6124b0565b606080918051845260208101516020850152604081015160408501520151910152565b9190916102c06102e0820193805183526020810151602084015260408101516040840152606081015160608401526080810151608084015260a081015160a084015260c081015160c084015260e081015160e08401526101008082015190840152610120808201519084015261014080820151908401526101608082015190840152611ddd6101808083015190850190611d25565b6101a081015190602061020092805184870152015161022090818601526101c08201519261024093848701526101e08301516102608701528201516102808601528101516102a085015201511515910152565b601f909101601f19168101906001600160401b03821190821017611e5357604052565b634e487b7160e01b5f52604160045260245ffd5b805182526020810151602083015260408101516040830152606081015160608301526080810151608083015260a081015160a083015260c081015160c083015260e081015160e083015261010080820151908301526101208082015190830152610140808201519083015261016080820151151590830152610180808201511515908301526101a0808201511515908301526101c0809101511515910152565b60405190611f16606083611e30565b5f6040838281528260208201520152565b60405190611f3761012083611e30565b815f81525f60208201525f60408201525f60608201525f60808201525f60a08201525f60c08201525f60e0820152610100611f70611f07565b910152565b60405190611f84608083611e30565b5f6060838281528260208201528260408201520152565b60405190611fab61026083611e30565b5f610240838281528260208201528260408201528260608201528260808201528260a08201528260c08201528260e082015282610100820152826101208201528261014082015282610160820152612001611f75565b610180820152604051612015604082611e30565b8381528360208201526101a0820152826101c0820152826101e082015282610200820152826102208201520152565b5190811515820361034d57565b8091036102e0811261034d57604091825192610260916120718386611e30565b80518552602081015160208601528181015182860152606081015160608601526080810151608086015260a081015160a086015260c081015160c086015260e081015160e08601526101008082015190860152610120808201519086015261014080820151908601526101608082015190860152610180608061017f1986011261034d57825194612103608087611e30565b8183015186526101a0918284015160208801526101c09687850151868201526101e09182860151606083015289015284610200926101ff19011261034d5761219895856121556102c097519182611e30565b838601518152610220948587015160208301528a01526102409788860151908a015284015190880152610280830151908701526102a08201519086015201612044565b9082015290565b9081602091031261034d57516001600160a01b038116810361034d5790565b908160e091031261034d5760c0604051916121da60e084611e30565b805183526020810151602084015260408101516040840152606081015160608401526080810151608084015260a081015160a0840152015160c082015290565b60c08091805184526020810151602085015260408101516040850152606081015160608501526080810151608085015260a081015160a08501520151910152565b6040519061226a60e083611e30565b5f60c0838281528260208201528260408201528260608201528260808201528260a08201520152565b6040908151916122a460e084611e30565b60c0835f815261231a60209380516122bc8682611e30565b5f81528584015280516122cf8682611e30565b5f81528184015280516122e28682611e30565b5f8152606084015280516122f68682611e30565b5f81526080840152805161230a8682611e30565b5f815260a0840152519384611e30565b5f83520152565b6040519061233161010083611e30565b5f60e0838281528260208201528260408201528260608201528260808201528260a0820152604051612364604082611e30565b83815283602082015260c08201520152565b604051906123866101e083611e30565b5f6101c0838281528260208201528260408201528260608201528260808201528260a08201528260c08201528260e08201528261010082015282610120820152826101408201528261016082015282610180820152826101a08201520152565b80916101e0928391031261034d576124016040519283611e30565b805182526020810151602083015260408101516040830152606081015160608301526080810151608083015260a081015160a083015260c081015160c083015260e081015160e083015261010080820151908301526101208082015190830152610140808201519083015261016061247a818301612044565b9083015261018061248c818301612044565b908301526101a061249e818301612044565b908301526121986101c0809201612044565b6124b8611f27565b508054600190910154604051909165ffffffffffff906001600160401b036124e1606085611e30565b8460801b60c01d84528460401b60c01d60208501528460c01d6040850152806040519561251061012088611e30565b63ffffffff841687521660208601528160801c1660408501528060c01c60608501528060b01b60d01d608085015260501c1660a08301525f60c08301525f60e083015261010082015290565b612564611f27565b50805460019091015460016001603e1b03600282901c169160038216806126305781845b6001830361262757600281935b03612620575b60409060c0938251966125af606089611e30565b8060801b861d885280841b861d6020890152851d838801528251976125d66101208a611e30565b63ffffffff8516895260208901528288015260608701528160b01b60d01d608087015265ffffffffffff8260501c1660a08701521b811d818501521d60e083015261010082015290565b505f61259b565b60025f93612595565b815f94612588565b61264061225b565b508054600190910154604051916001600160401b03919063ffffffff9061266860e086611e30565b8181168552818160201c1660208601528060801b60c01d6040860152838160801c16606086015260c01c16608084015260018060a01b03811660a084015260a01c1660c082015290565b604051906126c1604083611e30565b816126ca611f27565b81526020611f70611f27565b906040918251926126e96101c085611e30565b6126f161225b565b84526020840193612700612376565b85528181019461270e611f9b565b865260608201925f84526080830191612725611f07565b835260a0840195612734611f07565b875260c0850190612743612321565b825260e086019161275261225b565b835261275c6126b2565b61010088015261276a6126b2565b6101208801525f6101408801525f6101608801525f6101808801525f6101a0880152869a60018060a01b0394600460e0875f80516020615dd0833981519152541689519283809263ad4d4e29851b82525afa908115612948575f9161297b575b50895286516338ecab9f60e21b8152600960048201526101e091908281602481739d9bE6c52647Ed63D72Da876f1112Be8B3602Cf85af4928315612971575f93612952575b5050528551635da3780d60e01b8152600660048201526102e0919082816024817309928519F6cF2F784168c36dCb3e8B8961d09aED5af49283156129485792879592608097959260049b9a99955f93612929575b505052612870600b612e0b565b9052165f526010602052612885845f20612638565b905261288f611f07565b5060025416825194858092631006976960e11b82525afa90811561292057505f925f916128db575b506128d7946128c5846145ad565b52526128d1600d6124b0565b9061311f565b9052565b92505060803d608011612919575b6128f38184611e30565b82019360808386031261034d57606061290f6128d796856130e9565b93015190946128b7565b503d6128e9565b513d5f823e3d90fd5b612940929350803d10611cf857611ce98183611e30565b905f80612863565b88513d5f823e3d90fd5b612969929350803d10610824576108168183611e30565b905f8061280f565b89513d5f823e3d90fd5b612994915060e03d60e0116106ec576106de8183611e30565b5f6127ca565b919082018092116129a757565b634e487b7160e01b5f52601160045260245ffd5b6129c5600d6124b0565b61012082019081515260018060a01b038316805f526011946020928684526040906129f1825f2061255c565b85825101526129fe611f27565b965b60c087018051878151910151809114159081612ce3575b5015612a5057869051015160018101809111612a3d5788612a389189613200565b612a00565b89634e487b7160e01b5f5260045260245ffd5b5092969590949391955b60e0808301908151878151910151809114159081612ca4575b5015612bd757845f52601291828852895f2088825101515f52885281612a9a8b5f2061255c565b015192888251015160018101809111612bc45785612ab9918a8961360a565b865f528089528a5f2089835101515f528952612ad68b5f2061255c565b92875f52818a528b5f208351515f528a52612af28c5f2061255c565b83518d0151910151858103955f138015828813169187121617612bc4575f8582039512818612811691861390151617612bb1576080850151935f8582019586129112908015821691151617612bb157612b4e60a086015161514a565b935f8582019586129112908015821691151617612bb157612b73610c8c868451615173565b935f8582019586129112908015821691151617612bb157612bac9360c0840152865f528852878a5f20915101515f528752885f206139eb565b612a5a565b8c634e487b7160e01b5f5260045260245ffd5b8d634e487b7160e01b5f5260045260245ffd5b505050918360e060c0612c31999a959896979860808101948551518b51515110612c6e575b855151858c5101515110612c33575b500151015191510152612c21855151600d613905565b5f5282525f2091510151906139eb565b565b612c68908483019086612c4b818451015183876135c6565b8951515f60a083018190526080830152815292510151908461360a565b5f612c0b565b612c9f83830186612c838183510151866131d2565b8951515f60a08301819052608083015281529151015184613200565b612bfc565b809294506001915001809111612cd057612cbf9086856135c6565b91608084015151835111155f612a73565b8a634e487b7160e01b5f5260045260245ffd5b80929a506001915001809111612a3d57612cfd90886131d2565b97608088015151895111155f612a17565b612c3191612d2160c0830151600b612f0d565b60018060a01b03165f52601060205260e060405f2091015190613af8565b612d47612293565b50600181549101546040805190602090612d618284611e30565b8460b81b60c01d83528051612d768382611e30565b8560781b60c01d8152815191612d8c8484611e30565b603887901b60c01d835280516001600160401b03959094612dad8187611e30565b8688168652825196612dbf8289611e30565b8089851c168852835198612dd3838b611e30565b60801c16885260ff835199612de960e08c611e30565b16151589528801528601526060850152608084015260a083015260c082015290565b612e13612321565b506001815491015463ffffffff9165ffffffffffff9060405191612e38604084611e30565b8360e01b60e01d83528360c81b60e81d602084015260405194612e5d61010087611e30565b80831686528260201c166020860152808260401c166040860152808260701c1660608601528160a01c16608085015260d01c60a084015260c083015260881b60c01d60e082015290565b6001600160a01b038181169290919033849003612f0557612ef96020927f20ca5094f3a20c321cbe4123d0f01b276b81df0fa24cd4d83d9253956035d863945f541690612ef384614550565b9161456a565b604051908152a2600190565b505050505f90565b91909163ffffffff90818451116130d75760209182850192818451116130d7576040918287019260029365ffffffffffff9185612f4b8484516156c5565b146130c75760608a019086612f618584516156c5565b146130c75760808b019287612f778686516156c5565b146130b65787612f8c60a08e019687516156c5565b146130b65760c08c019988612fa7637fffffff8d51516156e1565b146130a557612fbd637fffffff198c51516156e1565b156130a55788612fd4627fffff8a8e5101516156e1565b146130a557612feb627fffff19898d5101516156e1565b156130a55760e08d0198613006600180603f1b038b516156e1565b146130a55788516130209060016001603f1b0319906156e1565b156130a5578660019b9c9d51169063ffffffff60201b9051891b16179165ffffffffffff60401b9151901b16179065ffffffffffff60701b905160701b16179065ffffffffffff60a01b905160a01b1617905160d01b17955190815116918062ffffff60201b920151901b1617908360381b8460781b03905160381b16179281550155565b8251632142bc2760e01b8152600490fd5b8151632142bc2760e01b8152600490fd5b51632142bc2760e01b8152600490fd5b604051632142bc2760e01b8152600490fd5b919082606091031261034d57604051613103606082611e30565b6040611f70818395805185526020810151602086015201612044565b9190613129611f07565b5051613133611f07565b50600254604051630e0886f960e41b81526004810192909252606090829060249082906001600160a01b03165afa908115611c04575f91613199575b50613179816145ad565b8092604082015115613189575050565b60e060c060209201510151910152565b905060603d6060116131cb575b6131b08183611e30565b810160608282031261034d576131c5916130e9565b5f61316f565b503d6131a6565b91906131dc611f27565b505f52600f602052612c316101206131f660405f206124b0565b9301515183614626565b9091610120820190815151515f52601360205261321f60405f20612d3f565b9161322a828561311f565b906040820151156135b5575b8051519160a08351968561327461326a8960c08501518760208201519a86898901519160208a01519460408b015196614854565b92909651516150d0565b60c082015160e06020860151918c602082015201526133348360c08401516080828b015161331860208801516132f2886132ed6132c58c6132bd620f424094859251519061453d565b04809c613cd2565b916132e4816132d860608801518661453d565b0498899601518461453d565b04968792613cd2565b613cd2565b976133026040870191825161299a565b90526133136060860193845161299a565b61299a565b90526133296080830191825161299a565b90520191825161299a565b9052015282515f52601360205260405f20926002600180603f1b038161335f8260208a0151516156e1565b146135a35760208701515160016001603f1b031991906133809083906156e1565b156135a357826133958260408b0151516156e1565b146135a3576133a98260408a0151516156e1565b156135a3576133be839160608a0151516156e1565b146135a3576133d2906060880151516156e1565b156135a35760808601515181906133f1906001600160401b03906156c5565b146135a35760a0860151518190613410906001600160401b03906156c5565b146135a35760c08601515161342d906001600160401b03906156c5565b146135a357846001610240957fb7e62f90ed3551a4e4ea3d0520667e7d084c5fb661b47292451bf9bb8cc9eafc975115155f1461359d57815b60ff6101008460481b0360208601515160081b169116178260481b8360881b0360408501515160481b16178260881b8360c81b0360608501515160881b161792828060401b03608082015151168360401b8460801b0360a08301515160401b16179060c08460801b85821b039101515160801b1617928155015551956040519283526020830152805160408301526020810151606083015260408101516080830152606081015160a0830152608081015160c083015260a081015160e083015260c0810151610100908184015260e0820151610120840152810151906101409182840152610120810151916101609283850152810151916101809283850152810151916101a09283850152810151916101c09283850152810151916101e092838501528101516102008401520151610220820152a3565b5f613466565b60405163693bbf3960e11b8152600490fd5b6135c183825151614743565b613236565b9291906135d1611f27565b5060018060a01b03165f52601260205260405f20905f52602052612c3160206101206135ff60405f2061255c565b940151015183614626565b919280515f52601360205261362160405f20612d3f565b918251156138ed575b602061012085015101519182519460e0810151602081015195875f52601360205261365760405f20612d3f565b61365f611f75565b96602083015161367b6020840151916020840192835191615763565b61369360408601516040860151604086015191615763565b905f82820192831291129080158216911516176129a7576136c260608601516060860151606086015191615763565b905f82820192831291129080158216911516176129a7576137539361370d61373a620f424061371281968f96613733975261370d60808c015191608088015190519251905190613cd2565b61453d565b048561373360a08b015161370d60a088015160408c01519251905190613cd2565b049061299a565b94606060c0808a01519401519101519251905190613cd2565b6020870152608084015180604088015261377660a08601518060608a015261514a565b905f82820192831291129080158216911516176129a7576040830180518851905f82820192831291129080158216911516176129a7575f83820393128184128116918413901516176129a757613801938b9260209252606081016137df8151848c01519061299a565b905201526137f684602061012086015101516150d0565b8360e08401516150f5565b613856575b509060605f80516020615e108339815191529360c093519760405196875260208701528051604087015260208101518287015260408101516080870152015160a085015260018060a01b031692a4565b919060018060a01b03938460a060e08601510151165f52601060205261387e60405f20612638565b9160e085015194604084019361389960c0865198015161514a565b965f88820198891291129080158216911516176129a7575f80516020615e108339815191529760a060e06138e39460c09a6060995201510151165f52601060205260405f20613af8565b9293509350613806565b6139008260206101208701510151614743565b61362a565b9061390f81615189565b602081019160018060401b0360026139288286516156c5565b146139d9576040830192600261393f8386516156c5565b146139d957606081019160026139568285516156c5565b146139d95760019461010060409263ffffffff85511665ffffffffffff60201b608087015160201b161765ffffffffffff60501b60a087015160501b16178860801b8960c01b0380945160801b161795519851169301519286831b8760801b038451841b161790602084015160801b161791015160c01b179360c01b1781550155565b6040516352a8a97f60e01b8152600490fd5b6139f482615189565b600180603e1b03906002613a0c8360208601516156c5565b146139d95760408301916002613a238285516156c5565b146139d9576002613a39606086019283516156c5565b146139d95760019251155f14613af05751613ae9575f5b925b604063ffffffff82511665ffffffffffff60201b608084015160201b161765ffffffffffff60501b60a084015160501b16176101008560801b8660c01b03918260c086015160801b161760e085015160c01b17966003600488861b03613ab7876152bf565b60021b169116179301519285831b8660801b038451841b161790602084015160801b161791015160c01b179281550155565b6002613a50565b508192613a52565b919063ffffffff9283825111613c4d576020820184815111613c4d57604090818401916002613b2e600180603f1b0385516156e1565b14613c3d578251613b489060016001603f1b0319906156e1565b15613c3d57606085019060018060401b03936002613b678685516156c5565b14613c2c57608087019389855111613c1b576002613b8a60c08a019788516156c5565b14613c1b578751905191519351945160a098890151965160c09190911b63ffffffff60c01b1660809690961b600160801b600160c01b03169490931b600160401b600160801b031660209290921b63ffffffff60201b1699169890981797909717171782559390911b600160a01b600160e01b03166001600160a01b03939093169290921760019290920191909155565b825163320f423b60e21b8152600490fd5b815163320f423b60e21b8152600490fd5b5163320f423b60e21b8152600490fd5b60405163320f423b60e21b8152600490fd5b5f1981146129a75760010190565b81810292915f8212600160ff1b8214166129a75781840514901517156129a757565b6001613c9f600160ff1b846156e1565b14613ca8575090565b60e0015160400151613ccf9150620f42409061101890613cc9835f19613c6d565b90613c6d565b90565b919082039182116129a757565b6001613cec5f19856156c5565b14613d58576001613cff600119856156c5565b14613d0957505090565b9080925015613d5457613ccf9150610140613d3b613d2f602061012085015101516152bf565b6101a084015190613cd2565b9101519081811015613d4d5790613cd2565b5080613cd2565b5090565b50905090565b60808101805191610100840151925f84820194851291129080158216911516176129a7576128d79260a09252019161012083519101519061299a565b9061016082019081516080820151905f82820392128183128116918313901516176129a757613dcc60a083015161514a565b905f82820392128183128116918313901516176129a7576128d792526101408301928351906002613e05613dff856152bf565b846156c5565b03613e30576101a0915001613e2981516111458651613e23866152bf565b90613cd2565b90526152bf565b610180613e299101916111458351916132ed866152bf565b9391949295158015613e8b575b613e8157608094613e6592615457565b6001600160a01b0390911660a083015260c08201520152600190565b5050505050505f90565b506080840151855110613e55565b949392916101a0938487019485519161012089019060029788613ecb602096613ec588875101516152bf565b906156c5565b1461450f578190816143fb575b506143e95761010091828b0196613ef286895101516152bf565b15806143d5575b1580614397575b80614370575b61435f57858c01948551015115158061433d575b61432b578b998689515101519381613f3d6040809e019660e088510151906156c5565b1480614318575b61430757613f56888b5101518a61550d565b1580156142f2575b6142e1576142d2576001600160a01b039182163381141592889084614245575b50505081614201575b506141f05760c08b0151613fa686825192015160a0875101519061299a565b1080156141cf575b6141be57613fd898999a8588510151613fdd6080830191825186519061016086019e8f51936152bf565b6155ea565b156141ae5761400f90614002613ff689865101516152bf565b6101808501519061299a565b90518551908d51926155ea565b1561419e5760e0015160800151905185015151108061418d575b61417c57614038835186615618565b9182614165575b82614143575b505061413257614056905183615618565b92836140d2575b5050816140b9575b506140a8575f614074916156e1565b159081614094575b506140845750565b5163442145e560e01b8152600490fd5b6140a191505f90516156e1565b155f61407c565b82516303fa425960e21b8152600490fd5b6140cb915060608151910151906156e1565b155f614065565b909192505151908101908151906140fd876140f3606084019485519061299a565b92015180926156c5565b15928315614111575b505050905f8061405d565b614129935090614121915161299a565b9051906156c5565b155f8080614106565b865163015f9ae760e41b8152600490fd5b61415d9250614153875151615388565b91510151906156c5565b155f80614045565b91506141755f60e08701516156e1565b159161403f565b885163ba555da760e01b8152600490fd5b50614197856153f1565b1515614029565b8a51621c56d560e31b8152600490fd5b8b51621c56d560e31b8152600490fd5b885163935bdc2160e01b8152600490fd5b5060e08b01516141ea86825192015160c0875101519061299a565b10613fae565b88516302ded67360e51b8152600490fd5b905061420c876153f1565b15908161421c575b50155f613f87565b90506142285f8a6156e1565b90811490811561423a575b505f614214565b60019150145f614233565b90919293505f80516020615dd083398151915254169160448d518094819363131bac4760e11b835260048301523360248301525afa9081156142c8575f91614293575b5015905f8781613f7e565b90508681813d83116142c1575b6142aa8183611e30565b8101031261034d576142bb90612044565b5f614288565b503d6142a0565b8b513d5f823e3d90fd5b50505050505050505050509050565b8b5163229a307760e21b8152600490fd5b5061430188855101518a61550d565b15613f5e565b8b5163376a1ec760e11b8152600490fd5b50816143255f8b516156e1565b14613f44565b604051630a6ad31160e21b8152600490fd5b508961434a5f89516156e1565b1480613f1a575061435a8761586d565b613f1a565b60405162558f1d60e91b8152600490fd5b508b610220604061438b606084015160808501515190613cd2565b92015101511115613f06565b506143a1876153f1565b15806143ae575b15613f00565b506143b95f8a6156e1565b8a81149081156143ca575b506143a8565b60019150145f6143c4565b506143e386835101516152bf565b15613ef9565b6040516329a7bff360e11b8152600490fd5b9050516001614412868551015192613ec5846152bf565b14908115916144a2575b508015614491575b8015614431575b5f613ed8565b50845184860151905f82820192831291129080158216911516176129a7576040860151905f82820192831291129080158216911516176129a7575f614475916156e1565b888114908115614486575b5061442b565b60019150145f614480565b5061449c5f886156e1565b15614424565b905060808b015160408c01516101608d0151928a8403935f8c128186128116918613901516176129a757614501936144fb926144e0610c8c936152bf565b915f81131561450757945b6101e08b83015192015192615ad3565b906154ec565b5f61441c565b505f946144eb565b6040516339b7cfed60e11b8152600490fd5b5f8113614537575f13614532575f90565b5f1990565b50600190565b818102929181159184041417156129a757565b64e8d4a51000908181029181830414901517156129a75790565b60405163a9059cbb60e01b60208201526001600160a01b039283166024820152604480820194909452928352612c319291906145a7606484611e30565b166158ba565b6003546001600160a01b031690816145c3575050565b6020016020815160246040518095819363d7c7a93560e01b835260048301525afa918215611c04575f926145f5575052565b9091506020813d60201161461e575b8161461160209383611e30565b8101031261034d57519052565b3d9150614604565b9061010080910151908201519161463b611f07565b9180518451905f82820392128183128116918313901516176129a75783526020810151906020850151915f83820393128184128116918413901516176129a75760408091602086019384520151940151935f85820395128186128116918613901516176129a7576040830193845260208201926146b8845161514a565b9051905f82820192831291129080158216911516176129a7576146da906153cf565b9360408301916146ea835161514a565b9051905f82820192831291129080158216911516176129a75761470e6060916153cf565b93019061471b825161514a565b9051905f82820192831291129080158216911516176129a75761473d906153cf565b90525252565b61010081015191825191602081019161475c835161514a565b602082019461476b865161514a565b915f83820393128184128116918413901516176129a7575f82820192831291129080158216911516176129a7578552602085019182519260408201966147b1885161514a565b60408501956147c0875161514a565b915f83820393128184128116918413901516176129a7575f82820192831291129080158216911516176129a75760409252019360608551920194614804865161514a565b916060850193614814855161514a565b935f85820395128186128116918613901516176129a7575f84820194851291129080158216911516176129a7575f92608092525197519551930152525252565b95929796949193946040519861486c6102008b611e30565b5f8a525f60208b01525f60408b01525f60608b01525f60808b01525f60a08b01525f60c08b01525f60e08b01525f6101008b01525f6101208b01525f6101408b01525f6101608b01525f6101808b01525f6101a08b01525f6101c08b01525f6101e08b0152896040850151151589526148e78683898c6156f2565b919082602083015281526101a08701516150c2575050859060c0614909611f75565b9401519081866149256101a087015193610200880151906157dd565b620f42408112156150b8575b61493f620f42405f19613c6d565b808213156150b05750925b620f42406149648d61111f602061113d835197519b615a6c565b04906149a0614989620f42406110188a611125836111258a60208d519d015194613cd2565b611018620f424061499a855161514a565b92613c6d565b808501908112905f86129586159280158816908416176129a7576149e560206149c884614521565b95019485516149d6856156b6565b808210156150a8575090615bbf565b966149f86149f3888d613cd2565b615b04565b938284039584871283168588138316176129a7576002614a23614a1a866156b6565b925180936156c5565b03615075575050505f915b0361501857505050620f42408602868104620f424014871517156129a757915b8551848101905f86831291129080158216911516176129a757620f4240820291808304620f424014901517156129a7578284614a9f93614a8d93615b1c565b611018620f424061499a816002613c6d565b95620f4240810290808204620f424014901517156129a757614ac19284615b1c565b9284808501125f85129080158216911516176129a757614b4294614a8d94620f424094602084614b3696614b2e9652015281810191610240890151151580614fe9575b614fc5575b5050614b1e8461101883611125835f19613c6d565b8160408a015260208901526156b6565b88519061453d565b0480606086015261514a565b6020830151614b54606085015161514a565b905f82820392128183128116918313901516176129a75781808201125f82129080158216911516176129a7576040840151905f831282848103128116908385810313901516176129a757829081830360408701520160208501526002614bc3604089015160608a0151906156c5565b14614f80575b50508483878b8a6002614be560608701516040880151906156c5565b14614f33575b614ceb95620f4240614cd660209761111f6149f3614ce299614cd0651cae8c13e0009a879f60408f9c614c5f60608c9f9e614cdc9f614c369082015160208e908951910151916159c9565b614c4e858201516020878f918a0151910151916159c9565b01518385015160608c0151916159c9565b82519260208101519060608482015191015160a0840152608083015260608201520152614cc661018089614cbc614c9f60408b015160608c01519061299a565b60208b015180821015614f2c57505b602061111f908701516156b6565b049a0151966153b0565b9051925195615b5e565b93613cd2565b0461453d565b04615438565b9401518461453d565b04614cf584615824565b614f0457614d028361514a565b614d0b8461514a565b915f821283838103128116908484810313901516176129a757614d69620f4240611018614d3d610c8c8560209a613cd2565b95614d5683611018614d50825f19613c6d565b89613c6d565b95614d62845f19613c6d565b9103613c6d565b90614d7c868a015185888a0151916159c9565b614d9060408a01518460408a0151916159c9565b614da460608a01518360608a0151916159c9565b6101208b01526101008a015260e089015260c08801520180516020840151905f82820392128183128116918313901516176129a757614e0e620f4240611018602093613cc9614dfb8689015160608a01519061299a565b604089015180821015614efd575061514a565b9301519051905f82820392128183128116918313901516176129a757620f4240611018614e5e92613cc9614e4b602087015160408801519061299a565b606087015180821015614efd575061514a565b90818301908282125f85129080158216911516176129a75760209485614e93620f4240611018614ec996613cc9835f19613c6d565b9682614eaa60408a950151896040880151916159c9565b614ebe6060820151886060880151916159c9565b0151920151916159c9565b610180850152610160840152610140830152613ccf614ef1602084015160a08501519061299a565b6101208401519061299a565b905061514a565b614d02610c8c6040860151614f27614f2060608901518361299a565b918761453d565b61542e565b9050614cae565b5050505050614f53620f42406110186020850151613cc9610c8c8a615a99565b80835260208301515f82820392128183128116918313901516176129a75760208301528483878b8a614beb565b611018620f424091614f9893614d62610c8c8b615a99565b80835260408301515f821281838103128116908284810313901516176129a7570360408301525f80614bc9565b614fe29250859161101891614fdb845f19613c6d565b9101613c6d565b5f80614b09565b508c61501161500c614ffc848601614521565b9261500681615824565b906157dd565b614521565b1415614b04565b620f4240850291858304620f424014861517156129a757614f2761114592615042615048966156b6565b9261453d565b620f42408702878104620f424014881517156129a7578082101561506e57505b91614a4e565b9050615068565b6150879061508288614521565b615bbf565b90838203928284121691831316176129a7576150a2906156b6565b91614a2e565b905090615bbf565b90509261494a565b50620f4240614931565b9a5098975050505050505050565b8151916020810151906060604082015191015160608401526040830152602082015252565b91511590811561513a575b50615135576040810161511860c0825193015161514a565b915f83820393128184128116918413901516176129a75752600190565b505f90565b905051608082015114155f615100565b6001600160ff1b03811161515b5790565b6024906040519063eecaa25d60e01b82526004820152fd5b9060808201519051105f146151355760c0015190565b63ffffffff8151116139d95760808101600290816151ae657fffffffffff83516156e1565b146139d957516151c690657fffffffffff19906156e1565b156139d957806151e065ffffffffffff60a08501516156c5565b146139d95760c0820190600180603f1b0392816151fe8585516156e1565b146139d957915160016001603f1b0319929061521b9084906156e1565b156139d95760e08101826152308683516156e1565b146139d9578361524091516156e1565b156139d957610100019281615257828651516156e1565b146139d957615268838551516156e1565b156139d9578161527d826020875101516156e1565b146139d957615291836020865101516156e1565b156139d9576152a5906040855101516156e1565b146139d95760406152b8925101516156e1565b156139d957565b6020604082015160608301518082115f146152ea5750915b0151808211156152e5575090565b905090565b9050916152d7565b815191604060208201519101516040830152602082015252565b60c05f918260808201528260a08201520152565b811561533a57600160ff1b81145f198314166129a7570590565b634e487b7160e01b5f52601260045260245ffd5b6153686060615360604084015161514a565b92015161514a565b905f82820392128183128116918313901516176129a757613ccf906156b6565b6153a09061539a602082015191615824565b9061583b565b620f4240808210156152e5575090565b6153a09061539a6153c082615824565b91611145602082015191615856565b5f81126153d95790565b6024906040519063b02ef08760e01b82526004820152fd5b8051906020810151915f83820193841291129080158216911516176129a75760400151905f82820192831291129080158216911516176129a75790565b811561533a570490565b90620f4240918281029281840414901517156129a757613ccf9161542e565b90615461826153f1565b156154e5576154be60206154a061111f9361549461548461161e610140986153f1565b620f4240968795869401516156b6565b0460208701519061453d565b046101e08501518082115f146154de57505b6101208501519061453d565b046101608301518082105f146152ea5750910151808211156152e5575090565b90506154b2565b5050505f90565b906154f6916156e1565b60028114908115615505575090565b600191501490565b805115918291826155dd575b836155d0575b836155c3575b831561557f575b8315615539575b50505090565b604001511592509082615577575b508161556a575b8161555d575b505f8080615533565b602091500151155f615554565b606081015115915061554e565b91505f615547565b9250602083015115806155b7575b806155ab575b8061559f575b9261552c565b50606081015115615599565b50604081015115615593565b5060408301511561558d565b6040820151159350615525565b602082015115935061551f565b6020810151159350615519565b610c8c906144fb9293613ccf955f81135f1461561057945b6101c0825192015192615ad3565b505f94615602565b906101a0810151159182615677575b8261563157505090565b6020810151159250908261566a575b821561565c575b508115615652575090565b613ccf915061586d565b61016001511591505f615647565b6040820151159250615640565b8092505180159081156156a8575b8115615693575b5091615627565b600291505f6156a1916156e1565b145f61568c565b610180830151159150615685565b5f81126156c05790565b5f0390565b8181116156da57106156d657600190565b5f90565b5050600290565b8181136156da57126156d657600190565b93916080909391930192602061570885516156b6565b91019182511561575a57620f424091604061572492015161453d565b049251906157318461514a565b915f83820393128184128116918413901516176129a757816020612c31939601519151916159c9565b505f9450925050565b51905180820392915f90911280158285131691841216176129a7575f1961578983614521565b036157c957613ccf91613cc961579e9261514a565b613cc96157aa82614521565b6157c46157be620f424092613cc984614521565b936156b6565b615d69565b611018613ccf92613cc9620f42409361514a565b816157e85750505f90565b6157fa6060615360604084015161514a565b905f82820392128183128116918313901516176129a757611018620f424061499a613ccf9461514a565b606060408201519101518082115f146152e5575090565b908061584d575061453257620f424090565b613ccf91615438565b606060408201519101518082105f146152e5575090565b600261587d5f60208401516156e1565b14908115615889575090565b600291505f604061589b9201516156e1565b1490565b6001600160401b038111611e5357601f01601f191660200190565b602091615940916001600160a01b03165f806158d58661589f565b936158e36040519586611e30565b8685527f5361666545524332303a206c6f772d6c6576656c2063616c6c206661696c656487860152868151910182855af13d156159c1573d916159258361589f565b926159336040519485611e30565b83523d5f8785013e615c97565b80518061594c57505050565b8183918101031261034d57816159629101612044565b1561596a5750565b6084906040519062461bcd60e51b82526004820152602a60248201527f5361666545524332303a204552433230206f7065726174696f6e20646964206e6044820152691bdd081cdd58d8d9595960b21b6064820152fd5b606091615c97565b90918215615a67578151926159dd81614521565b915f198303615a4c57615a02615a026159f8615a089361514a565b94613cc986614521565b926156b6565b91620f4240908181029181830414901517156129a757615a3192615a2b91615d69565b90615bbf565b915b5f83820193841291129080158216911516176129a75752565b615a619250620f424061499a6110189261514a565b91615a33565b505050565b615a8d615a7882615824565b916020615a8482615856565b9101519061299a565b808210156152e5575090565b615aa281615a6c565b615aab57505f90565b80615acd615ac7615abe613ccf94615a6c565b613e2384615856565b91615a6c565b90615438565b90918115612f0557602092614cd6615af69361111f620f424096879401516156b6565b0490808211156152e5575090565b620f4240908181029181830414901517156129a75790565b61101891611018613ccf95613cc9615b49610c8c97611018615b4f97613cc9620f42409b8c998a95613cd2565b9161514a565b9161499a816301e13380613c6d565b90606082018051615b6f81846156c5565b15615bab5750620f424090615b8482846156c5565b15615b93575050506020015190565b90613ccf939151916020604082015191015192615be4565b8391506040613ccf9451920151915f615be4565b5f8113615bda575f13615bd157505f90565b6156c09061514a565b50613ccf9061514a565b9190615bf5615bfb9195949561514a565b9461514a565b90615c0683856156c5565b158015615c84575b615c725782615c1c91613cd2565b90848103905f861280158284131691831216176129a757613cc9610c8c61101893615c4e620f424096615c5398613cd2565b615438565b5f82820192831291129080158216911516176129a757613ccf906153cf565b604051634a83a53f60e01b8152600490fd5b506002615c9182866156c5565b14615c0e565b91929015615cf95750815115615cab575090565b3b15615cb45790565b60405162461bcd60e51b815260206004820152601d60248201527f416464726573733a2063616c6c20746f206e6f6e2d636f6e74726163740000006044820152606490fd5b825190915015615d0c5750805190602001fd5b6040519062461bcd60e51b82528160208060048301528251908160248401525f935b828510615d50575050604492505f838284010152601f80199101168101030190fd5b8481018201518686016044015293810193859350615d2e565b908015615d9d5781615d7b5750505f90565b5f1982019182116129a757615d8f9161542e565b600181018091116129a75790565b6040516323d359a360e01b8152600490fdfea9c835c21e93a672e5a6ef8ca0374f90b7d4378f7eec5769dcf22fdefd60ffae0aec74a1754fb10877b53c31a29be82096082042eb1fb374ec96fac88c0e621b4ab61a9a58a077f81502df60fb19591393851ad16ae34ccb67626a591082f963e70b99d7f26b781c8b9ce19e28f0fd5af173ec01acfae12f9f3a3914ec74dc71a2646970667358221220c296170aa662aa3d5325b8e99858c77450138a268e05f894f6950d425e521a1c64736f6c63430008180033",
  "deployedBytecode": "0x60806040526004361015610011575f80fd5b5f803560e01c806309218e9114611cff5780634549a62914611c655780634c33f2531461198157806355f57510146119395780635b4b9695146118ac5780636a256b29146117d35780637dc0d1d0146117aa57806387aee00e1461172a57806391eece2814610a9e57806395fcd83614610a7557806399d32fc4146108ec578063a05f99061461086b578063a1d0a11314610837578063ad4d4e2914610792578063b329230e14610386578063c45a015514610351578063ce813aed14610279578063d26b3e26146101145763fc0c546a146100eb575f80fd5b34610111578060031936011261011157546040516001600160a01b039091168152602090f35b80fd5b5034610111576060366003190112610111577f6fee9688c285c5c5c97d6a1a29adced674e6b2ad0888b8ad2116b58a8b3ea2486001815410156102605760019055303b151580610259575b61024057335f80516020615dd083398151915255303b151580610252575b6102405760015f80516020615db0833981519152556001600160a01b03600435818116908190036102385782546001600160a01b031990811690911783556024358281169081900361023c57816002541617600255604435918216809203610238576003541617600355807f2801b00eb06461cf9fcb9758b5fafd884ff06a86177386f73b6c49f0bf5a5af0557fbe9b076dc5b65990cca9dd9d7366682482e7817a6f6bc7f4faf4dc32af497f32602060405160018152a180f35b8280fd5b8380fd5b60405163b9a621e160e01b8152600490fd5b508061017d565b508061015f565b604051631edb9c6d60e11b815260016004820152602490fd5b5034610111576040366003190112610111576004356001600160a01b038116919082900361034d5760406102cc91610349936102b3611f27565b508152601260205281812060243582526020522061255c565b60405191829182919091610140604061016083019480518452602081015160208501528181015182850152606081015160608501526080810151608085015260a081015160a085015260c081015160c085015260e081015160e0850152610100809101519081519085015260208101516101208501520151910152565b0390f35b5f80fd5b50346101115780600319360112610111575f80516020615dd0833981519152546040516001600160a01b039091168152602090f35b5034610111576102e0366003190112610111576040516103a861026082611e30565b6004358152602435602082015260443560408201526064356060820152608435608082015260a43560a082015260c43560c082015260e43560e0820152610104356101008201526101243561012082015261014435610140820152610164356101608201526080610183193601126106b557604051610428608082611e30565b6101843581526101a43560208201526101c43560408201526101e43560608201526101808201526040610203193601126106b55760405161046a604082611e30565b6102043581526102243560208201526101a0820152610244356101c0820152610264356101e0820152610284356102008201526102a4356102208201526102c43515156102c4350361034d576102c4356102408201526005546001600160a01b031633141580610705575b6106f3575f80516020615dd08339815191525460405163ad4d4e2960e01b8152839160e090829060049082906001600160a01b03165afa9081156106b95782916106c4575b5073__$f0b9cef6bb3cbdd03cb6172b8c4e9f952f$__3b156106b557610641604051916302903c7960e21b83526006600484015284516024840152602085015160448401526040850151606484015260608501516084840152608085015160a484015260a085015160c484015260c085015160e484015260e08501516101048401526101008501516101248401526101208501516101448401526101408501516101648401526101608501516101848401526105e06101808601516101a4850190611d25565b60206101a0860151805161022486015201516102448401526101c08501516102648401526101e08501516102848401526102008501516102a48401526102208501516102c484015261024085015115156102e484015261030483019061221a565b81816103e48173__$f0b9cef6bb3cbdd03cb6172b8c4e9f952f$__5af480156106b9576106a0575b506040517f823c5e592916c45a8b43a655f22eb029f79dfd3c63f6d122df594aaf83e09b02908061069a8582611d48565b0390a180f35b816106aa91611e30565b6106b557815f610669565b5080fd5b6040513d84823e3d90fd5b6106e6915060e03d60e0116106ec575b6106de8183611e30565b8101906121be565b5f61051a565b503d6106d4565b604051639bca062560e01b8152600490fd5b505f80516020615dd083398151915254604051638da5cb5b60e01b815290602090829060049082906001600160a01b03165afa908115610787578391610758575b506001600160a01b03163314156104d5565b61077a915060203d602011610780575b6107728183611e30565b81019061219f565b5f610746565b503d610768565b6040513d85823e3d90fd5b50346101115780600319360112610111576107ab612376565b506040516338ecab9f60e21b8152600960048201526101e09190828160248173__$c5b758809b18b7c9fcabb156ae018568b0$__5af491821561082b57916107fe575b506107fc6040518092611e67565bf35b61081e9150823d8411610824575b6108168183611e30565b8101906123e6565b5f6107ee565b503d61080c565b604051903d90823e3d90fd5b5034610111576020366003190112610111576102cc60406103499261085a611f27565b506004358152600f602052206124b0565b5034610111578060031936011261011157610884612321565b50610120610892600b612e0b565b60e060405191805183526020810151602084015260408101516040840152606081015160608401526080810151608084015260a081015160a0840152602060c0820151805160c08601520151828401520151610100820152f35b5034610111578060031936011261011157610907600b612e0b565b5f80516020615dd08339815191528054604051638da5cb5b60e01b81526001600160a01b0393928592602092908390829060049082908a165afa8015610a6a5760049285889286948291610a4d575b5061096760408a0191825190612ea7565b610a45575b5050541660405192838092630c7f7fb960e41b82525afa918215610787578392610a0a575b505092816109ef946109ab60608601918483519116612ea7565b610a02575b5081600554166109c66080860191825190612ea7565b6109fa575b5050600454166109e160a0840191825190612ea7565b6109f2575b5050600b612f0d565b80f35b52825f6109e6565b52815f6109cb565b52815f6109b0565b90809250813d8311610a3e575b610a218183611e30565b810103126106b557519280841684036106b55792816109ef610991565b503d610a17565b52855f61096c565b610a649150853d8711610780576107728183611e30565b5f610956565b6040513d86823e3d90fd5b50346101115780600319360112610111576003546040516001600160a01b039091168152602090f35b50346101115760c0366003190112610111576004356001600160a01b038116900361034d5760a435151560a4350361034d5760025f80516020615db083398151915254146117185760025f80516020615db0833981519152555f80516020615dd083398151915254604051635c975abb60e01b815290602090829060049082906001600160a01b03165afa9081156106b95782916116de575b506116cc57610b476004356126d6565b610b53600435826129bb565b6101c0602082015101516116ba57604060e08201510151610160820152610b82602061012083015101516152bf565b610140820152610b9760c082015151826131d2565b61010082015152610bbd61010080830151510151610100610120840151510151906152f2565b610bcf60e082015151600435836135c6565b60206101008301510152610bfe61010060208184015101510151610100602061012085015101510151906152f2565b6060810151602061010083015101515110611692575b606081015161010082015151511061166d575b602060e08201510151600181018111611659576001015b60e082015151811015610c6a5780610c64610c5e600193600435866135c6565b84613d9a565b01610c3e565b50610160810151610c91610c8c60e08401516020610120860151015190615173565b61514a565b9083821281838103128116908284810313901516176116455703610160820152610cbd60843582613c8f565b90610cd76024356020806101008501510151015183613cdf565b610cf1604435604060206101008601510151015184613cdf565b92610d0c606435606060206101008701510151015185613cdf565b916020610100850151015192606085015160405194610d2d61014087611e30565b8886528860208701528860408701528860608701528860808701528860a08701528860c08701528860e08701528861010087015288610120870152610d718461514a565b610d7e602083015161514a565b908a8212818381031281169082848103139015161761163157610da08a61514a565b610dad604085015161514a565b908c82128183810312811690828481031390151617611559578c610dd08861514a565b610ddd606088015161514a565b918212818381031281169082848103139015161761158a570360408b01520360208901520386528260608201528760408201528360208201525261010085015151606086015161020060408801510191610e388351826157dd565b91610e45610c8c8361534e565b610e51610c8c84615388565b610e5d610c8c856153b0565b60c08b015260e08a01526060890152610e79602083015161514a565b88519081808201128d821290801582169115161761155957610e9b91016153cf565b610ea8604084015161514a565b60208a0151908d828083011290821290801582169115161761159e57610ece91016153cf565b8c610edc606086015161514a565b60408c015191828083011290821290801582169115161761158a57610f0191016153cf565b6060850152604084015260208301528152610f1d8351826157dd565b90610f2a610c8c8261534e565b926060890151948c8612858781031281169086888103139015161761155957805161160e57508b925b6001610f5f83836156e1565b036115b25750508a905b610f75610c8c82615388565b60e08a0151918d8312828481031281169083858103139015161761159e57610fa0610c8c8f926153b0565b60c08c0151918212818381031281169082848103139015161761158a570360c08b01520360e089015260a0880152608087015203606085015260808501516020860151906040870151610ff660a082015161514a565b61101d620f424061101861100d60c086015161514a565b60c08c015190613c6d565b615320565b9081808201128c8212908015821691151617611576578b828201135f1461156d5701905b61104e604082015161514a565b9061106f620f4240611069606084015160808d01519061453d565b0461514a565b9081808401128d841290801582169115161761155957620f424061101861109c60806110a794015161514a565b60a08d015190613c6d565b91828083830101128d8383011290801582169115161761155957611125620f42406110698f9761111f61114b8f9a856110186111529c6111258f9b611069859f6110189f6020916111129189958b61112a9c50808484840101135f1461154f575001019f5b516156b6565b9a019961111f8b516156b6565b9061453d565b613c6d565b9a611145604061113d60208401516156b6565b9201516156b6565b9061299a565b91516156b6565b9081808201128a821290801582169115161761153b576101a083015115611535575050875b610100860152611186856153f1565b61152b5750865b6101208501526111a68460206101008801510151613d5e565b6111b68461010087015151613d5e565b604060e08601510180518480820112898212908015821691151617611517578401905260e0602061010087015101510180518480820112898212908015821691151617611517578401905261016085015183808201128882129080158216911516176115035783016101608601526112376020610100870151015186613d9a565b61125c60e086015160408701519086608089015160608a01519060a435943394613e48565b95611266856153f1565b611495575b61127d6113fd9785876004358a613e99565b60c0860151518852600f60205261129e604089206101008801515190613905565b6004356001600160a01b03168852601260209081526040808a2060e0890151518b5282528920610100880151909101516112d7916139eb565b6112e084614521565b6001811461143e575b5f1914611411575b60608601519260405193845260208401526040830152606082015281608082015260a435151560a082015260018060a01b0360043516907f29083474b417ce11b6e16e049302e231f5d3d753484fe3e8155ea0b7ffe4f3c160c03392a361012060608401519260405193845280516020850152602081015160408501526040810151606085015260608101516080850152608081015160a085015260a081015160c085015260c081015160e085015260e08101516101008501526101008101518285015201516101408301526101608201527fbbbad390211bc8fbc03c550e5c69ef38db7ddb94900123f4e565339f81fb8fc661018060018060a01b036004351692a260043590612d0e565b60015f80516020615db08339815191525580f35b8754611439906001600160a01b031661143161142c876156b6565b614550565b90339061456a565b6112f1565b8854611490906001600160a01b031661145961142c886156b6565b90604051916323b872dd60e01b602084015233602484015230604484015260648301526064825261148b608483611e30565b6158ba565b6112e9565b60025488906001600160a01b0316803b156106b557818091604460405180948193631a9be9fd60e11b835230600484015260018060a01b036004351660248401525af180156106b9576114ea575b505061126b565b816114f491611e30565b6114ff57875f6114e3565b8780fd5b634e487b7160e01b88526011600452602488fd5b634e487b7160e01b89526011600452602489fd5b610140015161118d565b01611177565b634e487b7160e01b8a52601160045260248afd5b925050509f61110c565b634e487b7160e01b8d52601160045260248dfd5b50508990611041565b634e487b7160e01b8c52601160045260248cfd5b634e487b7160e01b8f52601160045260248ffd5b634e487b7160e01b8e52601160045260248efd5b80808301128d8312801591801582169083161761158a578284810312169082848103131617611559579061101861160892620f424090611601826111256115fa878503614521565b6002613c6d565b9301613c6d565b90610f69565b61162b9061162361161e8c6153f1565b6156b6565b905190615438565b92610f53565b634e487b7160e01b8b52601160045260248bfd5b634e487b7160e01b84526011600452602484fd5b634e487b7160e01b83526011600452602483fd5b60c081015161167c8151613c5f565b905261168d6101008201515161530c565b610c27565b60e08101516116a18151613c5f565b90526116b56020610100830151015161530c565b610c14565b604051630b8b968760e31b8152600490fd5b604051634b94d2bb60e01b8152600490fd5b90506020813d602011611710575b816116f960209383611e30565b810103126106b55761170a90612044565b5f610b37565b3d91506116ec565b6040516345f6780960e11b8152600490fd5b50346101115760203660031901126101115761175d604060e09261174c612293565b506004358152601360205220612d3f565b60c060405191805115158352602081015151602084015260408101515160408401526060810151516060840152608081015151608084015260a08101515160a084015201515160c0820152f35b50346101115780600319360112610111576002546040516001600160a01b039091168152602090f35b5034610111576020366003190112610111576004356001600160a01b03808216820361034d575f80516020615db0833981519152906002825414611718576020600491600284555f80516020615dd0833981519152541660405192838092635c975abb60e01b82525afa908115610a6a578491611872575b506116cc5761186e8261185f6001946126d6565b61186982826129bb565b612d0e565b5580f35b90506020813d6020116118a4575b8161188d60209383611e30565b8101031261023c5761189e90612044565b5f61184b565b3d9150611880565b5034610111576020366003190112610111576001600160a01b036004358181169081900361034d576118f5604060e09460c0936118e761225b565b508152601060205220612638565b60405192815184526020820151602085015260408201516040850152606082015160608501526080820151608085015260a08201511660a0840152015160c0820152f35b5034610111576020366003190112610111576004356001600160a01b038116919082900361034d5760406102cc9161034993611973611f27565b50815260116020522061255c565b503461034d5761022036600319011261034d576004356001600160a01b03818116929183900361034d576024359281841680940361034d576101e0918260431936011261034d57604051946119d68487611e30565b604435865260209160643583880152608435604088015260a435606088015260c435608088015260e43560a08801526101043560c08801526101243560e08801526101443561010088015261016435610120880152610184356101408801526101a435801515810361034d576101608801526101c435801515810361034d576101808801526101e435801515810361034d576101a0880152610204938435801515810361034d576101c0890152815f80516020615dd0833981519152541693604051638da5cb5b60e01b81528181600481895afa8015611c045784915f91611c48575b50163303611c3057836004947fc258faa9a17ddfdf4130b4acff63a289202e7d5f9e42f366add65368575486bc937feee59a71c694e68368a1cb0d135c448051bbfb12289e6c2223b0ceb100c2321d8460018060a01b03199280848b5416178a55604051908152a16005541617600555604051908152a160e073__$c5b758809b18b7c9fcabb156ae018568b0$__936040519384809263ad4d4e29851b82525afa918215611c04575f92611c0f575b5060015416823b1561034d576040516310317ba160e11b815260096004820152935f9385936103049385939091611bae91611ba6602487018e611e67565b85019061221a565b6102e48301525af48015611c0457611be3575b505f80516020615df08339815191529192611bdf6040518092611e67565ba180f35b5f80516020615df083398151915292505f611bfd91611e30565b5f91611bc1565b6040513d5f823e3d90fd5b611c2991925060e03d60e0116106ec576106de8183611e30565b905f611b68565b604051634d193d1f60e01b8152336004820152602490fd5b611c5f9150833d8511610780576107728183611e30565b5f611ab9565b3461034d575f36600319011261034d57611c7d611f9b565b50604051635da3780d60e01b8152600660048201526102e090818160248173__$f0b9cef6bb3cbdd03cb6172b8c4e9f952f$__5af4908115611c0457610349925f92611cd2575b505060405191829182611d48565b611cf19250803d10611cf8575b611ce98183611e30565b810190612051565b8280611cc4565b503d611cdf565b3461034d575f36600319011261034d57611d17611f27565b506103496102cc600d6124b0565b606080918051845260208101516020850152604081015160408501520151910152565b9190916102c06102e0820193805183526020810151602084015260408101516040840152606081015160608401526080810151608084015260a081015160a084015260c081015160c084015260e081015160e08401526101008082015190840152610120808201519084015261014080820151908401526101608082015190840152611ddd6101808083015190850190611d25565b6101a081015190602061020092805184870152015161022090818601526101c08201519261024093848701526101e08301516102608701528201516102808601528101516102a085015201511515910152565b601f909101601f19168101906001600160401b03821190821017611e5357604052565b634e487b7160e01b5f52604160045260245ffd5b805182526020810151602083015260408101516040830152606081015160608301526080810151608083015260a081015160a083015260c081015160c083015260e081015160e083015261010080820151908301526101208082015190830152610140808201519083015261016080820151151590830152610180808201511515908301526101a0808201511515908301526101c0809101511515910152565b60405190611f16606083611e30565b5f6040838281528260208201520152565b60405190611f3761012083611e30565b815f81525f60208201525f60408201525f60608201525f60808201525f60a08201525f60c08201525f60e0820152610100611f70611f07565b910152565b60405190611f84608083611e30565b5f6060838281528260208201528260408201520152565b60405190611fab61026083611e30565b5f610240838281528260208201528260408201528260608201528260808201528260a08201528260c08201528260e082015282610100820152826101208201528261014082015282610160820152612001611f75565b610180820152604051612015604082611e30565b8381528360208201526101a0820152826101c0820152826101e082015282610200820152826102208201520152565b5190811515820361034d57565b8091036102e0811261034d57604091825192610260916120718386611e30565b80518552602081015160208601528181015182860152606081015160608601526080810151608086015260a081015160a086015260c081015160c086015260e081015160e08601526101008082015190860152610120808201519086015261014080820151908601526101608082015190860152610180608061017f1986011261034d57825194612103608087611e30565b8183015186526101a0918284015160208801526101c09687850151868201526101e09182860151606083015289015284610200926101ff19011261034d5761219895856121556102c097519182611e30565b838601518152610220948587015160208301528a01526102409788860151908a015284015190880152610280830151908701526102a08201519086015201612044565b9082015290565b9081602091031261034d57516001600160a01b038116810361034d5790565b908160e091031261034d5760c0604051916121da60e084611e30565b805183526020810151602084015260408101516040840152606081015160608401526080810151608084015260a081015160a0840152015160c082015290565b60c08091805184526020810151602085015260408101516040850152606081015160608501526080810151608085015260a081015160a08501520151910152565b6040519061226a60e083611e30565b5f60c0838281528260208201528260408201528260608201528260808201528260a08201520152565b6040908151916122a460e084611e30565b60c0835f815261231a60209380516122bc8682611e30565b5f81528584015280516122cf8682611e30565b5f81528184015280516122e28682611e30565b5f8152606084015280516122f68682611e30565b5f81526080840152805161230a8682611e30565b5f815260a0840152519384611e30565b5f83520152565b6040519061233161010083611e30565b5f60e0838281528260208201528260408201528260608201528260808201528260a0820152604051612364604082611e30565b83815283602082015260c08201520152565b604051906123866101e083611e30565b5f6101c0838281528260208201528260408201528260608201528260808201528260a08201528260c08201528260e08201528261010082015282610120820152826101408201528261016082015282610180820152826101a08201520152565b80916101e0928391031261034d576124016040519283611e30565b805182526020810151602083015260408101516040830152606081015160608301526080810151608083015260a081015160a083015260c081015160c083015260e081015160e083015261010080820151908301526101208082015190830152610140808201519083015261016061247a818301612044565b9083015261018061248c818301612044565b908301526101a061249e818301612044565b908301526121986101c0809201612044565b6124b8611f27565b508054600190910154604051909165ffffffffffff906001600160401b036124e1606085611e30565b8460801b60c01d84528460401b60c01d60208501528460c01d6040850152806040519561251061012088611e30565b63ffffffff841687521660208601528160801c1660408501528060c01c60608501528060b01b60d01d608085015260501c1660a08301525f60c08301525f60e083015261010082015290565b612564611f27565b50805460019091015460016001603e1b03600282901c169160038216806126305781845b6001830361262757600281935b03612620575b60409060c0938251966125af606089611e30565b8060801b861d885280841b861d6020890152851d838801528251976125d66101208a611e30565b63ffffffff8516895260208901528288015260608701528160b01b60d01d608087015265ffffffffffff8260501c1660a08701521b811d818501521d60e083015261010082015290565b505f61259b565b60025f93612595565b815f94612588565b61264061225b565b508054600190910154604051916001600160401b03919063ffffffff9061266860e086611e30565b8181168552818160201c1660208601528060801b60c01d6040860152838160801c16606086015260c01c16608084015260018060a01b03811660a084015260a01c1660c082015290565b604051906126c1604083611e30565b816126ca611f27565b81526020611f70611f27565b906040918251926126e96101c085611e30565b6126f161225b565b84526020840193612700612376565b85528181019461270e611f9b565b865260608201925f84526080830191612725611f07565b835260a0840195612734611f07565b875260c0850190612743612321565b825260e086019161275261225b565b835261275c6126b2565b61010088015261276a6126b2565b6101208801525f6101408801525f6101608801525f6101808801525f6101a0880152869a60018060a01b0394600460e0875f80516020615dd0833981519152541689519283809263ad4d4e29851b82525afa908115612948575f9161297b575b50895286516338ecab9f60e21b8152600960048201526101e09190828160248173__$c5b758809b18b7c9fcabb156ae018568b0$__5af4928315612971575f93612952575b5050528551635da3780d60e01b8152600660048201526102e09190828160248173__$f0b9cef6bb3cbdd03cb6172b8c4e9f952f$__5af49283156129485792879592608097959260049b9a99955f93612929575b505052612870600b612e0b565b9052165f526010602052612885845f20612638565b905261288f611f07565b5060025416825194858092631006976960e11b82525afa90811561292057505f925f916128db575b506128d7946128c5846145ad565b52526128d1600d6124b0565b9061311f565b9052565b92505060803d608011612919575b6128f38184611e30565b82019360808386031261034d57606061290f6128d796856130e9565b93015190946128b7565b503d6128e9565b513d5f823e3d90fd5b612940929350803d10611cf857611ce98183611e30565b905f80612863565b88513d5f823e3d90fd5b612969929350803d10610824576108168183611e30565b905f8061280f565b89513d5f823e3d90fd5b612994915060e03d60e0116106ec576106de8183611e30565b5f6127ca565b919082018092116129a757565b634e487b7160e01b5f52601160045260245ffd5b6129c5600d6124b0565b61012082019081515260018060a01b038316805f526011946020928684526040906129f1825f2061255c565b85825101526129fe611f27565b965b60c087018051878151910151809114159081612ce3575b5015612a5057869051015160018101809111612a3d5788612a389189613200565b612a00565b89634e487b7160e01b5f5260045260245ffd5b5092969590949391955b60e0808301908151878151910151809114159081612ca4575b5015612bd757845f52601291828852895f2088825101515f52885281612a9a8b5f2061255c565b015192888251015160018101809111612bc45785612ab9918a8961360a565b865f528089528a5f2089835101515f528952612ad68b5f2061255c565b92875f52818a528b5f208351515f528a52612af28c5f2061255c565b83518d0151910151858103955f138015828813169187121617612bc4575f8582039512818612811691861390151617612bb1576080850151935f8582019586129112908015821691151617612bb157612b4e60a086015161514a565b935f8582019586129112908015821691151617612bb157612b73610c8c868451615173565b935f8582019586129112908015821691151617612bb157612bac9360c0840152865f528852878a5f20915101515f528752885f206139eb565b612a5a565b8c634e487b7160e01b5f5260045260245ffd5b8d634e487b7160e01b5f5260045260245ffd5b505050918360e060c0612c31999a959896979860808101948551518b51515110612c6e575b855151858c5101515110612c33575b500151015191510152612c21855151600d613905565b5f5282525f2091510151906139eb565b565b612c68908483019086612c4b818451015183876135c6565b8951515f60a083018190526080830152815292510151908461360a565b5f612c0b565b612c9f83830186612c838183510151866131d2565b8951515f60a08301819052608083015281529151015184613200565b612bfc565b809294506001915001809111612cd057612cbf9086856135c6565b91608084015151835111155f612a73565b8a634e487b7160e01b5f5260045260245ffd5b80929a506001915001809111612a3d57612cfd90886131d2565b97608088015151895111155f612a17565b612c3191612d2160c0830151600b612f0d565b60018060a01b03165f52601060205260e060405f2091015190613af8565b612d47612293565b50600181549101546040805190602090612d618284611e30565b8460b81b60c01d83528051612d768382611e30565b8560781b60c01d8152815191612d8c8484611e30565b603887901b60c01d835280516001600160401b03959094612dad8187611e30565b8688168652825196612dbf8289611e30565b8089851c168852835198612dd3838b611e30565b60801c16885260ff835199612de960e08c611e30565b16151589528801528601526060850152608084015260a083015260c082015290565b612e13612321565b506001815491015463ffffffff9165ffffffffffff9060405191612e38604084611e30565b8360e01b60e01d83528360c81b60e81d602084015260405194612e5d61010087611e30565b80831686528260201c166020860152808260401c166040860152808260701c1660608601528160a01c16608085015260d01c60a084015260c083015260881b60c01d60e082015290565b6001600160a01b038181169290919033849003612f0557612ef96020927f20ca5094f3a20c321cbe4123d0f01b276b81df0fa24cd4d83d9253956035d863945f541690612ef384614550565b9161456a565b604051908152a2600190565b505050505f90565b91909163ffffffff90818451116130d75760209182850192818451116130d7576040918287019260029365ffffffffffff9185612f4b8484516156c5565b146130c75760608a019086612f618584516156c5565b146130c75760808b019287612f778686516156c5565b146130b65787612f8c60a08e019687516156c5565b146130b65760c08c019988612fa7637fffffff8d51516156e1565b146130a557612fbd637fffffff198c51516156e1565b156130a55788612fd4627fffff8a8e5101516156e1565b146130a557612feb627fffff19898d5101516156e1565b156130a55760e08d0198613006600180603f1b038b516156e1565b146130a55788516130209060016001603f1b0319906156e1565b156130a5578660019b9c9d51169063ffffffff60201b9051891b16179165ffffffffffff60401b9151901b16179065ffffffffffff60701b905160701b16179065ffffffffffff60a01b905160a01b1617905160d01b17955190815116918062ffffff60201b920151901b1617908360381b8460781b03905160381b16179281550155565b8251632142bc2760e01b8152600490fd5b8151632142bc2760e01b8152600490fd5b51632142bc2760e01b8152600490fd5b604051632142bc2760e01b8152600490fd5b919082606091031261034d57604051613103606082611e30565b6040611f70818395805185526020810151602086015201612044565b9190613129611f07565b5051613133611f07565b50600254604051630e0886f960e41b81526004810192909252606090829060249082906001600160a01b03165afa908115611c04575f91613199575b50613179816145ad565b8092604082015115613189575050565b60e060c060209201510151910152565b905060603d6060116131cb575b6131b08183611e30565b810160608282031261034d576131c5916130e9565b5f61316f565b503d6131a6565b91906131dc611f27565b505f52600f602052612c316101206131f660405f206124b0565b9301515183614626565b9091610120820190815151515f52601360205261321f60405f20612d3f565b9161322a828561311f565b906040820151156135b5575b8051519160a08351968561327461326a8960c08501518760208201519a86898901519160208a01519460408b015196614854565b92909651516150d0565b60c082015160e06020860151918c602082015201526133348360c08401516080828b015161331860208801516132f2886132ed6132c58c6132bd620f424094859251519061453d565b04809c613cd2565b916132e4816132d860608801518661453d565b0498899601518461453d565b04968792613cd2565b613cd2565b976133026040870191825161299a565b90526133136060860193845161299a565b61299a565b90526133296080830191825161299a565b90520191825161299a565b9052015282515f52601360205260405f20926002600180603f1b038161335f8260208a0151516156e1565b146135a35760208701515160016001603f1b031991906133809083906156e1565b156135a357826133958260408b0151516156e1565b146135a3576133a98260408a0151516156e1565b156135a3576133be839160608a0151516156e1565b146135a3576133d2906060880151516156e1565b156135a35760808601515181906133f1906001600160401b03906156c5565b146135a35760a0860151518190613410906001600160401b03906156c5565b146135a35760c08601515161342d906001600160401b03906156c5565b146135a357846001610240957fb7e62f90ed3551a4e4ea3d0520667e7d084c5fb661b47292451bf9bb8cc9eafc975115155f1461359d57815b60ff6101008460481b0360208601515160081b169116178260481b8360881b0360408501515160481b16178260881b8360c81b0360608501515160881b161792828060401b03608082015151168360401b8460801b0360a08301515160401b16179060c08460801b85821b039101515160801b1617928155015551956040519283526020830152805160408301526020810151606083015260408101516080830152606081015160a0830152608081015160c083015260a081015160e083015260c0810151610100908184015260e0820151610120840152810151906101409182840152610120810151916101609283850152810151916101809283850152810151916101a09283850152810151916101c09283850152810151916101e092838501528101516102008401520151610220820152a3565b5f613466565b60405163693bbf3960e11b8152600490fd5b6135c183825151614743565b613236565b9291906135d1611f27565b5060018060a01b03165f52601260205260405f20905f52602052612c3160206101206135ff60405f2061255c565b940151015183614626565b919280515f52601360205261362160405f20612d3f565b918251156138ed575b602061012085015101519182519460e0810151602081015195875f52601360205261365760405f20612d3f565b61365f611f75565b96602083015161367b6020840151916020840192835191615763565b61369360408601516040860151604086015191615763565b905f82820192831291129080158216911516176129a7576136c260608601516060860151606086015191615763565b905f82820192831291129080158216911516176129a7576137539361370d61373a620f424061371281968f96613733975261370d60808c015191608088015190519251905190613cd2565b61453d565b048561373360a08b015161370d60a088015160408c01519251905190613cd2565b049061299a565b94606060c0808a01519401519101519251905190613cd2565b6020870152608084015180604088015261377660a08601518060608a015261514a565b905f82820192831291129080158216911516176129a7576040830180518851905f82820192831291129080158216911516176129a7575f83820393128184128116918413901516176129a757613801938b9260209252606081016137df8151848c01519061299a565b905201526137f684602061012086015101516150d0565b8360e08401516150f5565b613856575b509060605f80516020615e108339815191529360c093519760405196875260208701528051604087015260208101518287015260408101516080870152015160a085015260018060a01b031692a4565b919060018060a01b03938460a060e08601510151165f52601060205261387e60405f20612638565b9160e085015194604084019361389960c0865198015161514a565b965f88820198891291129080158216911516176129a7575f80516020615e108339815191529760a060e06138e39460c09a6060995201510151165f52601060205260405f20613af8565b9293509350613806565b6139008260206101208701510151614743565b61362a565b9061390f81615189565b602081019160018060401b0360026139288286516156c5565b146139d9576040830192600261393f8386516156c5565b146139d957606081019160026139568285516156c5565b146139d95760019461010060409263ffffffff85511665ffffffffffff60201b608087015160201b161765ffffffffffff60501b60a087015160501b16178860801b8960c01b0380945160801b161795519851169301519286831b8760801b038451841b161790602084015160801b161791015160c01b179360c01b1781550155565b6040516352a8a97f60e01b8152600490fd5b6139f482615189565b600180603e1b03906002613a0c8360208601516156c5565b146139d95760408301916002613a238285516156c5565b146139d9576002613a39606086019283516156c5565b146139d95760019251155f14613af05751613ae9575f5b925b604063ffffffff82511665ffffffffffff60201b608084015160201b161765ffffffffffff60501b60a084015160501b16176101008560801b8660c01b03918260c086015160801b161760e085015160c01b17966003600488861b03613ab7876152bf565b60021b169116179301519285831b8660801b038451841b161790602084015160801b161791015160c01b179281550155565b6002613a50565b508192613a52565b919063ffffffff9283825111613c4d576020820184815111613c4d57604090818401916002613b2e600180603f1b0385516156e1565b14613c3d578251613b489060016001603f1b0319906156e1565b15613c3d57606085019060018060401b03936002613b678685516156c5565b14613c2c57608087019389855111613c1b576002613b8a60c08a019788516156c5565b14613c1b578751905191519351945160a098890151965160c09190911b63ffffffff60c01b1660809690961b600160801b600160c01b03169490931b600160401b600160801b031660209290921b63ffffffff60201b1699169890981797909717171782559390911b600160a01b600160e01b03166001600160a01b03939093169290921760019290920191909155565b825163320f423b60e21b8152600490fd5b815163320f423b60e21b8152600490fd5b5163320f423b60e21b8152600490fd5b60405163320f423b60e21b8152600490fd5b5f1981146129a75760010190565b81810292915f8212600160ff1b8214166129a75781840514901517156129a757565b6001613c9f600160ff1b846156e1565b14613ca8575090565b60e0015160400151613ccf9150620f42409061101890613cc9835f19613c6d565b90613c6d565b90565b919082039182116129a757565b6001613cec5f19856156c5565b14613d58576001613cff600119856156c5565b14613d0957505090565b9080925015613d5457613ccf9150610140613d3b613d2f602061012085015101516152bf565b6101a084015190613cd2565b9101519081811015613d4d5790613cd2565b5080613cd2565b5090565b50905090565b60808101805191610100840151925f84820194851291129080158216911516176129a7576128d79260a09252019161012083519101519061299a565b9061016082019081516080820151905f82820392128183128116918313901516176129a757613dcc60a083015161514a565b905f82820392128183128116918313901516176129a7576128d792526101408301928351906002613e05613dff856152bf565b846156c5565b03613e30576101a0915001613e2981516111458651613e23866152bf565b90613cd2565b90526152bf565b610180613e299101916111458351916132ed866152bf565b9391949295158015613e8b575b613e8157608094613e6592615457565b6001600160a01b0390911660a083015260c08201520152600190565b5050505050505f90565b506080840151855110613e55565b949392916101a0938487019485519161012089019060029788613ecb602096613ec588875101516152bf565b906156c5565b1461450f578190816143fb575b506143e95761010091828b0196613ef286895101516152bf565b15806143d5575b1580614397575b80614370575b61435f57858c01948551015115158061433d575b61432b578b998689515101519381613f3d6040809e019660e088510151906156c5565b1480614318575b61430757613f56888b5101518a61550d565b1580156142f2575b6142e1576142d2576001600160a01b039182163381141592889084614245575b50505081614201575b506141f05760c08b0151613fa686825192015160a0875101519061299a565b1080156141cf575b6141be57613fd898999a8588510151613fdd6080830191825186519061016086019e8f51936152bf565b6155ea565b156141ae5761400f90614002613ff689865101516152bf565b6101808501519061299a565b90518551908d51926155ea565b1561419e5760e0015160800151905185015151108061418d575b61417c57614038835186615618565b9182614165575b82614143575b505061413257614056905183615618565b92836140d2575b5050816140b9575b506140a8575f614074916156e1565b159081614094575b506140845750565b5163442145e560e01b8152600490fd5b6140a191505f90516156e1565b155f61407c565b82516303fa425960e21b8152600490fd5b6140cb915060608151910151906156e1565b155f614065565b909192505151908101908151906140fd876140f3606084019485519061299a565b92015180926156c5565b15928315614111575b505050905f8061405d565b614129935090614121915161299a565b9051906156c5565b155f8080614106565b865163015f9ae760e41b8152600490fd5b61415d9250614153875151615388565b91510151906156c5565b155f80614045565b91506141755f60e08701516156e1565b159161403f565b885163ba555da760e01b8152600490fd5b50614197856153f1565b1515614029565b8a51621c56d560e31b8152600490fd5b8b51621c56d560e31b8152600490fd5b885163935bdc2160e01b8152600490fd5b5060e08b01516141ea86825192015160c0875101519061299a565b10613fae565b88516302ded67360e51b8152600490fd5b905061420c876153f1565b15908161421c575b50155f613f87565b90506142285f8a6156e1565b90811490811561423a575b505f614214565b60019150145f614233565b90919293505f80516020615dd083398151915254169160448d518094819363131bac4760e11b835260048301523360248301525afa9081156142c8575f91614293575b5015905f8781613f7e565b90508681813d83116142c1575b6142aa8183611e30565b8101031261034d576142bb90612044565b5f614288565b503d6142a0565b8b513d5f823e3d90fd5b50505050505050505050509050565b8b5163229a307760e21b8152600490fd5b5061430188855101518a61550d565b15613f5e565b8b5163376a1ec760e11b8152600490fd5b50816143255f8b516156e1565b14613f44565b604051630a6ad31160e21b8152600490fd5b508961434a5f89516156e1565b1480613f1a575061435a8761586d565b613f1a565b60405162558f1d60e91b8152600490fd5b508b610220604061438b606084015160808501515190613cd2565b92015101511115613f06565b506143a1876153f1565b15806143ae575b15613f00565b506143b95f8a6156e1565b8a81149081156143ca575b506143a8565b60019150145f6143c4565b506143e386835101516152bf565b15613ef9565b6040516329a7bff360e11b8152600490fd5b9050516001614412868551015192613ec5846152bf565b14908115916144a2575b508015614491575b8015614431575b5f613ed8565b50845184860151905f82820192831291129080158216911516176129a7576040860151905f82820192831291129080158216911516176129a7575f614475916156e1565b888114908115614486575b5061442b565b60019150145f614480565b5061449c5f886156e1565b15614424565b905060808b015160408c01516101608d0151928a8403935f8c128186128116918613901516176129a757614501936144fb926144e0610c8c936152bf565b915f81131561450757945b6101e08b83015192015192615ad3565b906154ec565b5f61441c565b505f946144eb565b6040516339b7cfed60e11b8152600490fd5b5f8113614537575f13614532575f90565b5f1990565b50600190565b818102929181159184041417156129a757565b64e8d4a51000908181029181830414901517156129a75790565b60405163a9059cbb60e01b60208201526001600160a01b039283166024820152604480820194909452928352612c319291906145a7606484611e30565b166158ba565b6003546001600160a01b031690816145c3575050565b6020016020815160246040518095819363d7c7a93560e01b835260048301525afa918215611c04575f926145f5575052565b9091506020813d60201161461e575b8161461160209383611e30565b8101031261034d57519052565b3d9150614604565b9061010080910151908201519161463b611f07565b9180518451905f82820392128183128116918313901516176129a75783526020810151906020850151915f83820393128184128116918413901516176129a75760408091602086019384520151940151935f85820395128186128116918613901516176129a7576040830193845260208201926146b8845161514a565b9051905f82820192831291129080158216911516176129a7576146da906153cf565b9360408301916146ea835161514a565b9051905f82820192831291129080158216911516176129a75761470e6060916153cf565b93019061471b825161514a565b9051905f82820192831291129080158216911516176129a75761473d906153cf565b90525252565b61010081015191825191602081019161475c835161514a565b602082019461476b865161514a565b915f83820393128184128116918413901516176129a7575f82820192831291129080158216911516176129a7578552602085019182519260408201966147b1885161514a565b60408501956147c0875161514a565b915f83820393128184128116918413901516176129a7575f82820192831291129080158216911516176129a75760409252019360608551920194614804865161514a565b916060850193614814855161514a565b935f85820395128186128116918613901516176129a7575f84820194851291129080158216911516176129a7575f92608092525197519551930152525252565b95929796949193946040519861486c6102008b611e30565b5f8a525f60208b01525f60408b01525f60608b01525f60808b01525f60a08b01525f60c08b01525f60e08b01525f6101008b01525f6101208b01525f6101408b01525f6101608b01525f6101808b01525f6101a08b01525f6101c08b01525f6101e08b0152896040850151151589526148e78683898c6156f2565b919082602083015281526101a08701516150c2575050859060c0614909611f75565b9401519081866149256101a087015193610200880151906157dd565b620f42408112156150b8575b61493f620f42405f19613c6d565b808213156150b05750925b620f42406149648d61111f602061113d835197519b615a6c565b04906149a0614989620f42406110188a611125836111258a60208d519d015194613cd2565b611018620f424061499a855161514a565b92613c6d565b808501908112905f86129586159280158816908416176129a7576149e560206149c884614521565b95019485516149d6856156b6565b808210156150a8575090615bbf565b966149f86149f3888d613cd2565b615b04565b938284039584871283168588138316176129a7576002614a23614a1a866156b6565b925180936156c5565b03615075575050505f915b0361501857505050620f42408602868104620f424014871517156129a757915b8551848101905f86831291129080158216911516176129a757620f4240820291808304620f424014901517156129a7578284614a9f93614a8d93615b1c565b611018620f424061499a816002613c6d565b95620f4240810290808204620f424014901517156129a757614ac19284615b1c565b9284808501125f85129080158216911516176129a757614b4294614a8d94620f424094602084614b3696614b2e9652015281810191610240890151151580614fe9575b614fc5575b5050614b1e8461101883611125835f19613c6d565b8160408a015260208901526156b6565b88519061453d565b0480606086015261514a565b6020830151614b54606085015161514a565b905f82820392128183128116918313901516176129a75781808201125f82129080158216911516176129a7576040840151905f831282848103128116908385810313901516176129a757829081830360408701520160208501526002614bc3604089015160608a0151906156c5565b14614f80575b50508483878b8a6002614be560608701516040880151906156c5565b14614f33575b614ceb95620f4240614cd660209761111f6149f3614ce299614cd0651cae8c13e0009a879f60408f9c614c5f60608c9f9e614cdc9f614c369082015160208e908951910151916159c9565b614c4e858201516020878f918a0151910151916159c9565b01518385015160608c0151916159c9565b82519260208101519060608482015191015160a0840152608083015260608201520152614cc661018089614cbc614c9f60408b015160608c01519061299a565b60208b015180821015614f2c57505b602061111f908701516156b6565b049a0151966153b0565b9051925195615b5e565b93613cd2565b0461453d565b04615438565b9401518461453d565b04614cf584615824565b614f0457614d028361514a565b614d0b8461514a565b915f821283838103128116908484810313901516176129a757614d69620f4240611018614d3d610c8c8560209a613cd2565b95614d5683611018614d50825f19613c6d565b89613c6d565b95614d62845f19613c6d565b9103613c6d565b90614d7c868a015185888a0151916159c9565b614d9060408a01518460408a0151916159c9565b614da460608a01518360608a0151916159c9565b6101208b01526101008a015260e089015260c08801520180516020840151905f82820392128183128116918313901516176129a757614e0e620f4240611018602093613cc9614dfb8689015160608a01519061299a565b604089015180821015614efd575061514a565b9301519051905f82820392128183128116918313901516176129a757620f4240611018614e5e92613cc9614e4b602087015160408801519061299a565b606087015180821015614efd575061514a565b90818301908282125f85129080158216911516176129a75760209485614e93620f4240611018614ec996613cc9835f19613c6d565b9682614eaa60408a950151896040880151916159c9565b614ebe6060820151886060880151916159c9565b0151920151916159c9565b610180850152610160840152610140830152613ccf614ef1602084015160a08501519061299a565b6101208401519061299a565b905061514a565b614d02610c8c6040860151614f27614f2060608901518361299a565b918761453d565b61542e565b9050614cae565b5050505050614f53620f42406110186020850151613cc9610c8c8a615a99565b80835260208301515f82820392128183128116918313901516176129a75760208301528483878b8a614beb565b611018620f424091614f9893614d62610c8c8b615a99565b80835260408301515f821281838103128116908284810313901516176129a7570360408301525f80614bc9565b614fe29250859161101891614fdb845f19613c6d565b9101613c6d565b5f80614b09565b508c61501161500c614ffc848601614521565b9261500681615824565b906157dd565b614521565b1415614b04565b620f4240850291858304620f424014861517156129a757614f2761114592615042615048966156b6565b9261453d565b620f42408702878104620f424014881517156129a7578082101561506e57505b91614a4e565b9050615068565b6150879061508288614521565b615bbf565b90838203928284121691831316176129a7576150a2906156b6565b91614a2e565b905090615bbf565b90509261494a565b50620f4240614931565b9a5098975050505050505050565b8151916020810151906060604082015191015160608401526040830152602082015252565b91511590811561513a575b50615135576040810161511860c0825193015161514a565b915f83820393128184128116918413901516176129a75752600190565b505f90565b905051608082015114155f615100565b6001600160ff1b03811161515b5790565b6024906040519063eecaa25d60e01b82526004820152fd5b9060808201519051105f146151355760c0015190565b63ffffffff8151116139d95760808101600290816151ae657fffffffffff83516156e1565b146139d957516151c690657fffffffffff19906156e1565b156139d957806151e065ffffffffffff60a08501516156c5565b146139d95760c0820190600180603f1b0392816151fe8585516156e1565b146139d957915160016001603f1b0319929061521b9084906156e1565b156139d95760e08101826152308683516156e1565b146139d9578361524091516156e1565b156139d957610100019281615257828651516156e1565b146139d957615268838551516156e1565b156139d9578161527d826020875101516156e1565b146139d957615291836020865101516156e1565b156139d9576152a5906040855101516156e1565b146139d95760406152b8925101516156e1565b156139d957565b6020604082015160608301518082115f146152ea5750915b0151808211156152e5575090565b905090565b9050916152d7565b815191604060208201519101516040830152602082015252565b60c05f918260808201528260a08201520152565b811561533a57600160ff1b81145f198314166129a7570590565b634e487b7160e01b5f52601260045260245ffd5b6153686060615360604084015161514a565b92015161514a565b905f82820392128183128116918313901516176129a757613ccf906156b6565b6153a09061539a602082015191615824565b9061583b565b620f4240808210156152e5575090565b6153a09061539a6153c082615824565b91611145602082015191615856565b5f81126153d95790565b6024906040519063b02ef08760e01b82526004820152fd5b8051906020810151915f83820193841291129080158216911516176129a75760400151905f82820192831291129080158216911516176129a75790565b811561533a570490565b90620f4240918281029281840414901517156129a757613ccf9161542e565b90615461826153f1565b156154e5576154be60206154a061111f9361549461548461161e610140986153f1565b620f4240968795869401516156b6565b0460208701519061453d565b046101e08501518082115f146154de57505b6101208501519061453d565b046101608301518082105f146152ea5750910151808211156152e5575090565b90506154b2565b5050505f90565b906154f6916156e1565b60028114908115615505575090565b600191501490565b805115918291826155dd575b836155d0575b836155c3575b831561557f575b8315615539575b50505090565b604001511592509082615577575b508161556a575b8161555d575b505f8080615533565b602091500151155f615554565b606081015115915061554e565b91505f615547565b9250602083015115806155b7575b806155ab575b8061559f575b9261552c565b50606081015115615599565b50604081015115615593565b5060408301511561558d565b6040820151159350615525565b602082015115935061551f565b6020810151159350615519565b610c8c906144fb9293613ccf955f81135f1461561057945b6101c0825192015192615ad3565b505f94615602565b906101a0810151159182615677575b8261563157505090565b6020810151159250908261566a575b821561565c575b508115615652575090565b613ccf915061586d565b61016001511591505f615647565b6040820151159250615640565b8092505180159081156156a8575b8115615693575b5091615627565b600291505f6156a1916156e1565b145f61568c565b610180830151159150615685565b5f81126156c05790565b5f0390565b8181116156da57106156d657600190565b5f90565b5050600290565b8181136156da57126156d657600190565b93916080909391930192602061570885516156b6565b91019182511561575a57620f424091604061572492015161453d565b049251906157318461514a565b915f83820393128184128116918413901516176129a757816020612c31939601519151916159c9565b505f9450925050565b51905180820392915f90911280158285131691841216176129a7575f1961578983614521565b036157c957613ccf91613cc961579e9261514a565b613cc96157aa82614521565b6157c46157be620f424092613cc984614521565b936156b6565b615d69565b611018613ccf92613cc9620f42409361514a565b816157e85750505f90565b6157fa6060615360604084015161514a565b905f82820392128183128116918313901516176129a757611018620f424061499a613ccf9461514a565b606060408201519101518082115f146152e5575090565b908061584d575061453257620f424090565b613ccf91615438565b606060408201519101518082105f146152e5575090565b600261587d5f60208401516156e1565b14908115615889575090565b600291505f604061589b9201516156e1565b1490565b6001600160401b038111611e5357601f01601f191660200190565b602091615940916001600160a01b03165f806158d58661589f565b936158e36040519586611e30565b8685527f5361666545524332303a206c6f772d6c6576656c2063616c6c206661696c656487860152868151910182855af13d156159c1573d916159258361589f565b926159336040519485611e30565b83523d5f8785013e615c97565b80518061594c57505050565b8183918101031261034d57816159629101612044565b1561596a5750565b6084906040519062461bcd60e51b82526004820152602a60248201527f5361666545524332303a204552433230206f7065726174696f6e20646964206e6044820152691bdd081cdd58d8d9595960b21b6064820152fd5b606091615c97565b90918215615a67578151926159dd81614521565b915f198303615a4c57615a02615a026159f8615a089361514a565b94613cc986614521565b926156b6565b91620f4240908181029181830414901517156129a757615a3192615a2b91615d69565b90615bbf565b915b5f83820193841291129080158216911516176129a75752565b615a619250620f424061499a6110189261514a565b91615a33565b505050565b615a8d615a7882615824565b916020615a8482615856565b9101519061299a565b808210156152e5575090565b615aa281615a6c565b615aab57505f90565b80615acd615ac7615abe613ccf94615a6c565b613e2384615856565b91615a6c565b90615438565b90918115612f0557602092614cd6615af69361111f620f424096879401516156b6565b0490808211156152e5575090565b620f4240908181029181830414901517156129a75790565b61101891611018613ccf95613cc9615b49610c8c97611018615b4f97613cc9620f42409b8c998a95613cd2565b9161514a565b9161499a816301e13380613c6d565b90606082018051615b6f81846156c5565b15615bab5750620f424090615b8482846156c5565b15615b93575050506020015190565b90613ccf939151916020604082015191015192615be4565b8391506040613ccf9451920151915f615be4565b5f8113615bda575f13615bd157505f90565b6156c09061514a565b50613ccf9061514a565b9190615bf5615bfb9195949561514a565b9461514a565b90615c0683856156c5565b158015615c84575b615c725782615c1c91613cd2565b90848103905f861280158284131691831216176129a757613cc9610c8c61101893615c4e620f424096615c5398613cd2565b615438565b5f82820192831291129080158216911516176129a757613ccf906153cf565b604051634a83a53f60e01b8152600490fd5b506002615c9182866156c5565b14615c0e565b91929015615cf95750815115615cab575090565b3b15615cb45790565b60405162461bcd60e51b815260206004820152601d60248201527f416464726573733a2063616c6c20746f206e6f6e2d636f6e74726163740000006044820152606490fd5b825190915015615d0c5750805190602001fd5b6040519062461bcd60e51b82528160208060048301528251908160248401525f935b828510615d50575050604492505f838284010152601f80199101168101030190fd5b8481018201518686016044015293810193859350615d2e565b908015615d9d5781615d7b5750505f90565b5f1982019182116129a757615d8f9161542e565b600181018091116129a75790565b6040516323d359a360e01b8152600490fdfea9c835c21e93a672e5a6ef8ca0374f90b7d4378f7eec5769dcf22fdefd60ffae0aec74a1754fb10877b53c31a29be82096082042eb1fb374ec96fac88c0e621b4ab61a9a58a077f81502df60fb19591393851ad16ae34ccb67626a591082f963e70b99d7f26b781c8b9ce19e28f0fd5af173ec01acfae12f9f3a3914ec74dc71a2646970667358221220c296170aa662aa3d5325b8e99858c77450138a268e05f894f6950d425e521a1c64736f6c63430008180033",
  "libraries": {
    "MarketParameterStorageLib": "0x9d9bE6c52647Ed63D72Da876f1112Be8B3602Cf8",
    "RiskParameterStorageLib": "0x09928519F6cF2F784168c36dCb3e8B8961d09aED"
  }
}