{
  "address": "0x046d6038811C6C14E81D5dE5B107d4B7Ee9B4cDe",
  "abi": [
    {
      "inputs": [
        {
          "internalType": "contract IFactory",
          "name": "oracleFactory_",
          "type": "address"
        },
        {
          "internalType": "address",
          "name": "implementation_",
          "type": "address"
        }
      ],
      "stateMutability": "nonpayable",
      "type": "constructor"
    },
    {
      "inputs": [],
      "name": "FactoryAlreadyRegisteredError",
      "type": "error"
    },
    {
      "inputs": [],
      "name": "FactoryInvalidOracleError",
      "type": "error"
    },
    {
      "inputs": [],
      "name": "FactoryInvalidPayoffError",
      "type": "error"
    },
    {
      "inputs": [],
      "name": "FactoryNotInstanceError",
      "type": "error"
    },
    {
      "inputs": [
        {
          "internalType": "uint256",
          "name": "version",
          "type": "uint256"
        }
      ],
      "name": "InitializableAlreadyInitializedError",
      "type": "error"
    },
    {
      "inputs": [],
      "name": "InitializableNotInitializingError",
      "type": "error"
    },
    {
      "inputs": [],
      "name": "InitializableZeroVersionError",
      "type": "error"
    },
    {
      "inputs": [
        {
          "internalType": "address",
          "name": "sender",
          "type": "address"
        }
      ],
      "name": "OwnableNotOwnerError",
      "type": "error"
    },
    {
      "inputs": [
        {
          "internalType": "address",
          "name": "sender",
          "type": "address"
        }
      ],
      "name": "OwnableNotPendingOwnerError",
      "type": "error"
    },
    {
      "inputs": [
        {
          "internalType": "address",
          "name": "sender",
          "type": "address"
        }
      ],
      "name": "PausableNotPauserError",
      "type": "error"
    },
    {
      "inputs": [],
      "name": "PausablePausedError",
      "type": "error"
    },
    {
      "inputs": [],
      "name": "ProtocolParameterStorageInvalidError",
      "type": "error"
    },
    {
      "inputs": [],
      "name": "ProtocolParameterStorageInvalidError",
      "type": "error"
    },
    {
      "anonymous": false,
      "inputs": [
        {
          "indexed": false,
          "internalType": "uint256",
          "name": "version",
          "type": "uint256"
        }
      ],
      "name": "Initialized",
      "type": "event"
    },
    {
      "anonymous": false,
      "inputs": [
        {
          "indexed": true,
          "internalType": "contract IInstance",
          "name": "instance",
          "type": "address"
        }
      ],
      "name": "InstanceRegistered",
      "type": "event"
    },
    {
      "anonymous": false,
      "inputs": [
        {
          "indexed": true,
          "internalType": "contract IMarket",
          "name": "market",
          "type": "address"
        },
        {
          "components": [
            {
              "internalType": "Token18",
              "name": "token",
              "type": "address"
            },
            {
              "internalType": "contract IOracleProvider",
              "name": "oracle",
              "type": "address"
            }
          ],
          "indexed": false,
          "internalType": "struct IMarket.MarketDefinition",
          "name": "definition",
          "type": "tuple"
        }
      ],
      "name": "MarketCreated",
      "type": "event"
    },
    {
      "anonymous": false,
      "inputs": [
        {
          "indexed": true,
          "internalType": "address",
          "name": "account",
          "type": "address"
        },
        {
          "indexed": true,
          "internalType": "address",
          "name": "operator",
          "type": "address"
        },
        {
          "indexed": false,
          "internalType": "bool",
          "name": "newEnabled",
          "type": "bool"
        }
      ],
      "name": "OperatorUpdated",
      "type": "event"
    },
    {
      "anonymous": false,
      "inputs": [
        {
          "indexed": true,
          "internalType": "address",
          "name": "newOwner",
          "type": "address"
        }
      ],
      "name": "OwnerUpdated",
      "type": "event"
    },
    {
      "anonymous": false,
      "inputs": [
        {
          "components": [
            {
              "internalType": "UFixed6",
              "name": "protocolFee",
              "type": "uint256"
            },
            {
              "internalType": "UFixed6",
              "name": "maxFee",
              "type": "uint256"
            },
            {
              "internalType": "UFixed6",
              "name": "maxFeeAbsolute",
              "type": "uint256"
            },
            {
              "internalType": "UFixed6",
              "name": "maxCut",
              "type": "uint256"
            },
            {
              "internalType": "UFixed6",
              "name": "maxRate",
              "type": "uint256"
            },
            {
              "internalType": "UFixed6",
              "name": "minMaintenance",
              "type": "uint256"
            },
            {
              "internalType": "UFixed6",
              "name": "minEfficiency",
              "type": "uint256"
            },
            {
              "internalType": "UFixed6",
              "name": "referralFee",
              "type": "uint256"
            }
          ],
          "indexed": false,
          "internalType": "struct ProtocolParameter",
          "name": "newParameter",
          "type": "tuple"
        }
      ],
      "name": "ParameterUpdated",
      "type": "event"
    },
    {
      "anonymous": false,
      "inputs": [],
      "name": "Paused",
      "type": "event"
    },
    {
      "anonymous": false,
      "inputs": [
        {
          "indexed": true,
          "internalType": "address",
          "name": "newPauser",
          "type": "address"
        }
      ],
      "name": "PauserUpdated",
      "type": "event"
    },
    {
      "anonymous": false,
      "inputs": [
        {
          "indexed": true,
          "internalType": "address",
          "name": "newPendingOwner",
          "type": "address"
        }
      ],
      "name": "PendingOwnerUpdated",
      "type": "event"
    },
    {
      "anonymous": false,
      "inputs": [
        {
          "indexed": true,
          "internalType": "address",
          "name": "referrer",
          "type": "address"
        },
        {
          "indexed": false,
          "internalType": "UFixed6",
          "name": "newFee",
          "type": "uint256"
        }
      ],
      "name": "ReferralFeeUpdated",
      "type": "event"
    },
    {
      "anonymous": false,
      "inputs": [],
      "name": "Unpaused",
      "type": "event"
    },
    {
      "inputs": [],
      "name": "acceptOwner",
      "outputs": [],
      "stateMutability": "nonpayable",
      "type": "function"
    },
    {
      "inputs": [
        {
          "components": [
            {
              "internalType": "Token18",
              "name": "token",
              "type": "address"
            },
            {
              "internalType": "contract IOracleProvider",
              "name": "oracle",
              "type": "address"
            }
          ],
          "internalType": "struct IMarket.MarketDefinition",
          "name": "definition",
          "type": "tuple"
        }
      ],
      "name": "create",
      "outputs": [
        {
          "internalType": "contract IMarket",
          "name": "newMarket",
          "type": "address"
        }
      ],
      "stateMutability": "nonpayable",
      "type": "function"
    },
    {
      "inputs": [],
      "name": "implementation",
      "outputs": [
        {
          "internalType": "address",
          "name": "",
          "type": "address"
        }
      ],
      "stateMutability": "view",
      "type": "function"
    },
    {
      "inputs": [],
      "name": "initialize",
      "outputs": [],
      "stateMutability": "nonpayable",
      "type": "function"
    },
    {
      "inputs": [
        {
          "internalType": "contract IInstance",
          "name": "instance",
          "type": "address"
        }
      ],
      "name": "instances",
      "outputs": [
        {
          "internalType": "bool",
          "name": "",
          "type": "bool"
        }
      ],
      "stateMutability": "view",
      "type": "function"
    },
    {
      "inputs": [
        {
          "internalType": "contract IOracleProvider",
          "name": "oracle",
          "type": "address"
        }
      ],
      "name": "markets",
      "outputs": [
        {
          "internalType": "contract IMarket",
          "name": "",
          "type": "address"
        }
      ],
      "stateMutability": "view",
      "type": "function"
    },
    {
      "inputs": [
        {
          "internalType": "address",
          "name": "",
          "type": "address"
        },
        {
          "internalType": "address",
          "name": "",
          "type": "address"
        }
      ],
      "name": "operators",
      "outputs": [
        {
          "internalType": "bool",
          "name": "",
          "type": "bool"
        }
      ],
      "stateMutability": "view",
      "type": "function"
    },
    {
      "inputs": [],
      "name": "oracleFactory",
      "outputs": [
        {
          "internalType": "contract IFactory",
          "name": "",
          "type": "address"
        }
      ],
      "stateMutability": "view",
      "type": "function"
    },
    {
      "inputs": [],
      "name": "owner",
      "outputs": [
        {
          "internalType": "address",
          "name": "",
          "type": "address"
        }
      ],
      "stateMutability": "view",
      "type": "function"
    },
    {
      "inputs": [],
      "name": "parameter",
      "outputs": [
        {
          "components": [
            {
              "internalType": "UFixed6",
              "name": "protocolFee",
              "type": "uint256"
            },
            {
              "internalType": "UFixed6",
              "name": "maxFee",
              "type": "uint256"
            },
            {
              "internalType": "UFixed6",
              "name": "maxFeeAbsolute",
              "type": "uint256"
            },
            {
              "internalType": "UFixed6",
              "name": "maxCut",
              "type": "uint256"
            },
            {
              "internalType": "UFixed6",
              "name": "maxRate",
              "type": "uint256"
            },
            {
              "internalType": "UFixed6",
              "name": "minMaintenance",
              "type": "uint256"
            },
            {
              "internalType": "UFixed6",
              "name": "minEfficiency",
              "type": "uint256"
            },
            {
              "internalType": "UFixed6",
              "name": "referralFee",
              "type": "uint256"
            }
          ],
          "internalType": "struct ProtocolParameter",
          "name": "",
          "type": "tuple"
        }
      ],
      "stateMutability": "view",
      "type": "function"
    },
    {
      "inputs": [],
      "name": "pause",
      "outputs": [],
      "stateMutability": "nonpayable",
      "type": "function"
    },
    {
      "inputs": [],
      "name": "paused",
      "outputs": [
        {
          "internalType": "bool",
          "name": "",
          "type": "bool"
        }
      ],
      "stateMutability": "view",
      "type": "function"
    },
    {
      "inputs": [],
      "name": "pauser",
      "outputs": [
        {
          "internalType": "address",
          "name": "",
          "type": "address"
        }
      ],
      "stateMutability": "view",
      "type": "function"
    },
    {
      "inputs": [],
      "name": "pendingOwner",
      "outputs": [
        {
          "internalType": "address",
          "name": "",
          "type": "address"
        }
      ],
      "stateMutability": "view",
      "type": "function"
    },
    {
      "inputs": [
        {
          "internalType": "address",
          "name": "",
          "type": "address"
        }
      ],
      "name": "referralFee",
      "outputs": [
        {
          "internalType": "UFixed6",
          "name": "",
          "type": "uint256"
        }
      ],
      "stateMutability": "view",
      "type": "function"
    },
    {
      "inputs": [],
      "name": "unpause",
      "outputs": [],
      "stateMutability": "nonpayable",
      "type": "function"
    },
    {
      "inputs": [
        {
          "internalType": "address",
          "name": "operator",
          "type": "address"
        },
        {
          "internalType": "bool",
          "name": "newEnabled",
          "type": "bool"
        }
      ],
      "name": "updateOperator",
      "outputs": [],
      "stateMutability": "nonpayable",
      "type": "function"
    },
    {
      "inputs": [
        {
          "components": [
            {
              "internalType": "UFixed6",
              "name": "protocolFee",
              "type": "uint256"
            },
            {
              "internalType": "UFixed6",
              "name": "maxFee",
              "type": "uint256"
            },
            {
              "internalType": "UFixed6",
              "name": "maxFeeAbsolute",
              "type": "uint256"
            },
            {
              "internalType": "UFixed6",
              "name": "maxCut",
              "type": "uint256"
            },
            {
              "internalType": "UFixed6",
              "name": "maxRate",
              "type": "uint256"
            },
            {
              "internalType": "UFixed6",
              "name": "minMaintenance",
              "type": "uint256"
            },
            {
              "internalType": "UFixed6",
              "name": "minEfficiency",
              "type": "uint256"
            },
            {
              "internalType": "UFixed6",
              "name": "referralFee",
              "type": "uint256"
            }
          ],
          "internalType": "struct ProtocolParameter",
          "name": "newParameter",
          "type": "tuple"
        }
      ],
      "name": "updateParameter",
      "outputs": [],
      "stateMutability": "nonpayable",
      "type": "function"
    },
    {
      "inputs": [
        {
          "internalType": "address",
          "name": "newPauser",
          "type": "address"
        }
      ],
      "name": "updatePauser",
      "outputs": [],
      "stateMutability": "nonpayable",
      "type": "function"
    },
    {
      "inputs": [
        {
          "internalType": "address",
          "name": "newPendingOwner",
          "type": "address"
        }
      ],
      "name": "updatePendingOwner",
      "outputs": [],
      "stateMutability": "nonpayable",
      "type": "function"
    },
    {
      "inputs": [
        {
          "internalType": "address",
          "name": "referrer",
          "type": "address"
        },
        {
          "internalType": "UFixed6",
          "name": "newReferralFee",
          "type": "uint256"
        }
      ],
      "name": "updateReferralFee",
      "outputs": [],
      "stateMutability": "nonpayable",
      "type": "function"
    }
  ],
  "transactionHash": "0xe31ac8844373cba1b2358ef1ccbe810db0bb7dac3cc630fd202427b4a3d03c75",
  "args": [
    "0x8CDa59615C993f925915D3eb4394BAdB3feEF413",
    "0x937c6A0e76d424680685E5bd660b6dc0a9b8d8bc"
  ],
  "numDeployments": 8,
  "solcInputHash": "0b4607cf7c1857560efda30f8d3fb3e9",
  "bytecode": "0x60c03461008d57601f61209638819003918201601f19168301916001600160401b0383118484101761009157808492604094855283398101031261008d578051906001600160a01b0390818316830361008d5760200151908116810361008d5760805260a052604051611ff090816100a6823960805181610fba015260a05181818161032b01526104060152f35b5f80fd5b634e487b7160e01b5f52604160045260245ffdfe60806040908082526004908136101562000017575f80fd5b5f3560e01c908163032bb443146200162c575080632174981c14620015c65780632637588e14620015455780633f4ba83a14620014525780634c7ab02214620010aa578063554bab3c1462000fde5780635c60da1b1462000f6e5780635c975abb1462000f0f57806360c599351462000e215780636d44a3b21462000d535780638129fc1c1462000bd45780638456cb591462000ab15780638da5cb5b1462000a3e5780638e8f294b14620009ce5780639fd0506d146200095b578063ad4d4e291462000806578063b5ee6955146200073a578063ba2f5f2d146200034f578063c7f7fb9014620002df578063e30c3978146200026c5763ebbc4965146200011d575f80fd5b3462000268575f7ffffffffffffffffffffffffffffffffffffffffffffffffffffffffffffffffc36011262000268577f675c83682abbc3e7dd47e40515a778fbbde4393395c3dd3588244203c3e4788391825473ffffffffffffffffffffffffffffffffffffffff81169081330362000239577fe7742ddf0fecd2926e7ef4d6d6e91a7b2f0b1f8805b78953dac8454e86273ed255807f4ffd725fc4a22075e9ec71c59edf9c38cdeb588a91b24fc5b61388c5be41282b5f80a2330362000209575f83555f7f69f201bc2089b9be6195d876d97a0136b4cf56bbf8986a52dcb50697f7d1cac58180a2005b6024925051907f99bf63590000000000000000000000000000000000000000000000000000000082523390820152fd5b82517fd0d5e1b00000000000000000000000000000000000000000000000000000000081523381860152602490fd5b5f80fd5b823462000268575f7ffffffffffffffffffffffffffffffffffffffffffffffffffffffffffffffffc360112620002685760209073ffffffffffffffffffffffffffffffffffffffff7f675c83682abbc3e7dd47e40515a778fbbde4393395c3dd3588244203c3e4788354915191168152f35b823462000268575f7ffffffffffffffffffffffffffffffffffffffffffffffffffffffffffffffffc36011262000268576020905173ffffffffffffffffffffffffffffffffffffffff7f0000000000000000000000000000000000000000000000000000000000000000168152f35b5090346200026857807ffffffffffffffffffffffffffffffffffffffffffffffffffffffffffffffffc36011262000268577fe7742ddf0fecd2926e7ef4d6d6e91a7b2f0b1f8805b78953dac8454e86273ed2549073ffffffffffffffffffffffffffffffffffffffff9182339116036200070c5781620003cf620017a4565b16928151937f032bb443000000000000000000000000000000000000000000000000000000008552818501526020938481602481877f0000000000000000000000000000000000000000000000000000000000000000165afa90811562000702575f91620006c5575b50156200069e57826200044a620017a4565b165f5260028452815f205f8052845282825f20541662000677578151907fb6a597dd0000000000000000000000000000000000000000000000000000000085830152816200049b60248201620017c8565b03620004ce7fffffffffffffffffffffffffffffffffffffffffffffffffffffffffffffffe09182810185528462001724565b83519261072f8085019385851067ffffffffffffffff8611176200064b5750908492916200188c843930845285888501528051908187860152885f5b838110620006335750505090601f825f6060879581980101520116010301905ff080156200062957821691825f527f81796b4965de195665289d95668a8a9e7020858e15f5341c42bcf9951c1768ad8452815f2060017fffffffffffffffffffffffffffffffffffffffffffffffffffffffffffffff00825416179055827f4fe45192317a7d3ad19c3eaa395c0c3a1b7a0f53c3536fb96764c3561a8e9dad5f80a2620005b6620017a4565b165f5260028352805f205f80528352805f20827fffffffffffffffffffffffff0000000000000000000000000000000000000000825416179055817ff5090e340ccc5b9c692d172ce09471d5c14bbf23d179b6a67c36a0846a17b42d8251806200062081620017c8565b0390a251908152f35b50513d5f823e3d90fd5b8083018201518782016060015287955081016200050a565b6041907f4e487b71000000000000000000000000000000000000000000000000000000005f525260245ffd5b90517f213e2260000000000000000000000000000000000000000000000000000000008152fd5b90517f5116bce5000000000000000000000000000000000000000000000000000000008152fd5b90508481813d8311620006fa575b620006df818362001724565b81010312620002685751801515810362000268575f62000438565b503d620006d3565b83513d5f823e3d90fd5b517f99bf63590000000000000000000000000000000000000000000000000000000081523381840152602490fd5b5034620002685760207ffffffffffffffffffffffffffffffffffffffffffffffffffffffffffffffffc360112620002685762000776620016b5565b907fe7742ddf0fecd2926e7ef4d6d6e91a7b2f0b1f8805b78953dac8454e86273ed2549273ffffffffffffffffffffffffffffffffffffffff93843391160362000209575050807f675c83682abbc3e7dd47e40515a778fbbde4393395c3dd3588244203c3e4788355167f69f201bc2089b9be6195d876d97a0136b4cf56bbf8986a52dcb50697f7d1cac55f80a2005b823462000268575f7ffffffffffffffffffffffffffffffffffffffffffffffffffffffffffffffffc360112620002685762000957906200084662001766565b506200085162001766565b508051906200086082620016d9565b60e05f5462ffffff80821694858152818360181c1680602083015265ffffffffffff8460301c168087840152838560601c169182606085015263ffffffff8660781c1693846080820152858760981c16958660a0830152808860b01c16978860c084015260c81c169788910152875198620008db8a620016d9565b89526020890152868801526060870152608086015260a085015260c084015260e0830152519182918291909160e080610100830194805184526020810151602085015260408101516040850152606081015160608501526080810151608085015260a081015160a085015260c081015160c08501520151910152565b0390f35b823462000268575f7ffffffffffffffffffffffffffffffffffffffffffffffffffffffffffffffffc360112620002685760209073ffffffffffffffffffffffffffffffffffffffff7f18e50ee9696440d335192aeeeffc26f47782eaa914f1700d8ad36d6d7f7261b354915191168152f35b8234620002685760207ffffffffffffffffffffffffffffffffffffffffffffffffffffffffffffffffc360112620002685760209073ffffffffffffffffffffffffffffffffffffffff8062000a23620016b5565b165f5260028352815f205f80528352815f2054169051908152f35b823462000268575f7ffffffffffffffffffffffffffffffffffffffffffffffffffffffffffffffffc360112620002685760209073ffffffffffffffffffffffffffffffffffffffff7fe7742ddf0fecd2926e7ef4d6d6e91a7b2f0b1f8805b78953dac8454e86273ed254915191168152f35b503462000268575f7ffffffffffffffffffffffffffffffffffffffffffffffffffffffffffffffffc360112620002685773ffffffffffffffffffffffffffffffffffffffff807f18e50ee9696440d335192aeeeffc26f47782eaa914f1700d8ad36d6d7f7261b35416331415908162000ba5575b5062000b765760017f3d13b7e57307bea7f94c474c597247d2da93d7de9136f8e123ed6525f50bbcec557f9e87fac88ff661f02d44f95383c817fece4bce600a3dab7a54406878b965e7525f80a1005b60249151907ff7987a920000000000000000000000000000000000000000000000000000000082523390820152fd5b90507fe7742ddf0fecd2926e7ef4d6d6e91a7b2f0b1f8805b78953dac8454e86273ed254163314155f62000b26565b503462000268575f7ffffffffffffffffffffffffffffffffffffffffffffffffffffffffffffffffc36011262000268577f6fee9688c285c5c5c97d6a1a29adced674e6b2ad0888b8ad2116b58a8b3ea24860018154101562000d235760019055303b15158062000d1b575b62000cec57303b15158062000d13575b62000cec577fbe9b076dc5b65990cca9dd9d7366682482e7817a6f6bc7f4faf4dc32af497f32602083337fe7742ddf0fecd2926e7ef4d6d6e91a7b2f0b1f8805b78953dac8454e86273ed255337f4ffd725fc4a22075e9ec71c59edf9c38cdeb588a91b24fc5b61388c5be41282b5f80a25f7f2801b00eb06461cf9fcb9758b5fafd884ff06a86177386f73b6c49f0bf5a5af0555160018152a1005b90517fb9a621e1000000000000000000000000000000000000000000000000000000008152fd5b505f62000c50565b505f62000c40565b50600160249251917f3db738da000000000000000000000000000000000000000000000000000000008352820152fd5b82346200026857807ffffffffffffffffffffffffffffffffffffffffffffffffffffffffffffffffc360112620002685762000d8e620016b5565b90602435908115158092036200026857335f52600160205273ffffffffffffffffffffffffffffffffffffffff815f20931692835f52602052805f207fffffffffffffffffffffffffffffffffffffffffffffffffffffffffffffff0081541660ff8416179055519081527f2738289d9deecdc30eb8ffc42876633caecca1ffa166e4efa89f408e17373a1a60203392a3005b50346200026857817ffffffffffffffffffffffffffffffffffffffffffffffffffffffffffffffffc360112620002685762000e5c620016b5565b7fe7742ddf0fecd2926e7ef4d6d6e91a7b2f0b1f8805b78953dac8454e86273ed2546024359273ffffffffffffffffffffffffffffffffffffffff9291339084160362000edf5750916020917f057944530cecde3aa5328a6254fb4ae8e7e09c4681c771b0cf4725275c57bd81931693845f526003835281815f205551908152a2005b6024908551907f99bf63590000000000000000000000000000000000000000000000000000000082523390820152fd5b823462000268575f7ffffffffffffffffffffffffffffffffffffffffffffffffffffffffffffffffc36011262000268576020907f3d13b7e57307bea7f94c474c597247d2da93d7de9136f8e123ed6525f50bbcec5490519015158152f35b823462000268575f7ffffffffffffffffffffffffffffffffffffffffffffffffffffffffffffffffc36011262000268576020905173ffffffffffffffffffffffffffffffffffffffff7f0000000000000000000000000000000000000000000000000000000000000000168152f35b5034620002685760207ffffffffffffffffffffffffffffffffffffffffffffffffffffffffffffffffc36011262000268576200101a620016b5565b907fe7742ddf0fecd2926e7ef4d6d6e91a7b2f0b1f8805b78953dac8454e86273ed2549273ffffffffffffffffffffffffffffffffffffffff93843391160362000209575050807f18e50ee9696440d335192aeeeffc26f47782eaa914f1700d8ad36d6d7f7261b355167fa4336c0cb1e245b95ad204faed7e940d6dc999684fd8b5e1ff597a0c4efca8ab5f80a2005b50903462000268576101007ffffffffffffffffffffffffffffffffffffffffffffffffffffffffffffffffc3601126200026857805191620010ec83620016d9565b8035835260208301906024358252828401604435815260608501606435815260808601608435815260a087019160a435835260c088019360c435855260e089019560e43587527fe7742ddf0fecd2926e7ef4d6d6e91a7b2f0b1f8805b78953dac8454e86273ed25473ffffffffffffffffffffffffffffffffffffffff339116036200142257620011868a51600291829186519062001878565b14620013fa578062001199855162001809565b14620013fa5780620011ac8a516200182c565b14620013fa5780620011bf845162001844565b14620013fa5780620011d286516200185f565b14620013fa5780620011e587516200182c565b14620013fa5780620011f888516200182c565b14620013fa576200120a88516200182c565b14620013d3575062ffffff96878a51169051915192519351945195519651978951906200123782620016d9565b828252808416602083015265ffffffffffff85168b830152808616606083015263ffffffff8716608083015280881660a083015280891660c083015289169060e001525f549760c81b7bffffff0000000000000000000000000000000000000000000000000016977fffffffff0000000000000000000000000000000000000000000000000000000016179060181b65ffffff00000016179060301b6bffffffffffff00000000000016179060601b6effffff00000000000000000000000016179060781b72ffffffff00000000000000000000000000000016179060981b75ffffff0000000000000000000000000000000000000016179060b01b78ffffff000000000000000000000000000000000000000000001617175f5551620013ad81928291909160e080610100830194805184526020810151602085015260408101516040850152606081015160608501526080810151608085015260a081015160a085015260c081015160c08501520151910152565b037fd35ab1edfa3ad70819771dec5cbaa5413fe7850bb1d37ff7bdffc298384e610491a1005b88517f4dc1bc59000000000000000000000000000000000000000000000000000000008152fd5b5088517f4dc1bc59000000000000000000000000000000000000000000000000000000008152fd5b6024908951907f99bf63590000000000000000000000000000000000000000000000000000000082523390820152fd5b503462000268575f7ffffffffffffffffffffffffffffffffffffffffffffffffffffffffffffffffc360112620002685773ffffffffffffffffffffffffffffffffffffffff807f18e50ee9696440d335192aeeeffc26f47782eaa914f1700d8ad36d6d7f7261b35416331415908162001516575b5062000b76575f7f3d13b7e57307bea7f94c474c597247d2da93d7de9136f8e123ed6525f50bbcec557fa45f47fdea8a1efdd9029a5691c7f759c32b7c698632b563573e155625d169335f80a1005b90507fe7742ddf0fecd2926e7ef4d6d6e91a7b2f0b1f8805b78953dac8454e86273ed254163314155f620014c7565b82346200026857807ffffffffffffffffffffffffffffffffffffffffffffffffffffffffffffffffc360112620002685762001580620016b5565b9060243573ffffffffffffffffffffffffffffffffffffffff8082168092036200026857602093165f5260018352815f20905f52825260ff815f20541690519015158152f35b8234620002685760207ffffffffffffffffffffffffffffffffffffffffffffffffffffffffffffffffc360112620002685760209073ffffffffffffffffffffffffffffffffffffffff6200161a620016b5565b165f5260038252805f20549051908152f35b91905034620002685760207ffffffffffffffffffffffffffffffffffffffffffffffffffffffffffffffffc36011262000268573573ffffffffffffffffffffffffffffffffffffffff8116809103620002685760209260ff915f527f81796b4965de195665289d95668a8a9e7020858e15f5341c42bcf9951c1768ad84525f20541615158152f35b6004359073ffffffffffffffffffffffffffffffffffffffff821682036200026857565b610100810190811067ffffffffffffffff821117620016f757604052565b7f4e487b71000000000000000000000000000000000000000000000000000000005f52604160045260245ffd5b90601f7fffffffffffffffffffffffffffffffffffffffffffffffffffffffffffffffe0910116810190811067ffffffffffffffff821117620016f757604052565b604051906200177582620016d9565b5f60e0838281528260208201528260408201528260608201528260808201528260a08201528260c08201520152565b60243573ffffffffffffffffffffffffffffffffffffffff81168103620002685790565b9060408201916004359073ffffffffffffffffffffffffffffffffffffffff9182811680910362000268578152602435918216809203620002685760200152565b620f4240908181116200182557106200182157600190565b5f90565b5050600290565b62ffffff908181116200182557106200182157600190565b65ffffffffffff908181116200182557106200182157600190565b637fffffff908181116200182557106200182157600190565b818111620018255710620018215760019056fe608060409080825261072f80380380916100198285610342565b833981019082818303126102385761003081610365565b6020828101516001600160401b039391929184821161023857019084601f830112156102385781519161006283610379565b9261006f88519485610342565b8084528484019685828401011161023857868561008c9301610394565b803b156102f0578551635c60da1b60e01b80825292916001600160a01b0316908481600481855afa9081156102e6575f916102b1575b503b15610254577fa3f0ad74e5423aebfd80d3ef4346578335a9a72aeaee59ff6cb3582b35133d5080546001600160a01b03191682179055865192817f1cf3b03a6cf19fa2baba4df148e9dcabedea7f8a5c07840e207e5c089be95d3e5f80a282511580159061024d575b610140575b87516102c690816104698239f35b6004848693819382525afa918215610243575f92610208575b5085519360608501908111858210176101f4578652602784527f416464726573733a206c6f772d6c6576656c2064656c65676174652063616c6c83850152660819985a5b195960ca1b84870152516101de945f918291845af4903d156101eb573d6101c381610379565b906101d088519283610342565b81525f81943d92013e6103b5565b505f808080808080610132565b606092506103b5565b634e487b7160e01b5f52604160045260245ffd5b9091508281813d831161023c575b6102208183610342565b810103126102385761023190610365565b905f610159565b5f80fd5b503d610216565b86513d5f823e3d90fd5b505f61012d565b865162461bcd60e51b815260048101859052603060248201527f455243313936373a20626561636f6e20696d706c656d656e746174696f6e206960448201526f1cc81b9bdd08184818dbdb9d1c9858dd60821b6064820152608490fd5b90508481813d83116102df575b6102c88183610342565b81010312610238576102d990610365565b5f6100c2565b503d6102be565b88513d5f823e3d90fd5b855162461bcd60e51b815260048101849052602560248201527f455243313936373a206e657720626561636f6e206973206e6f74206120636f6e6044820152641d1c9858dd60da1b6064820152608490fd5b601f909101601f19168101906001600160401b038211908210176101f457604052565b51906001600160a01b038216820361023857565b6001600160401b0381116101f457601f01601f191660200190565b5f5b8381106103a55750505f910152565b8181015183820152602001610396565b9192901561041757508151156103c9575090565b3b156103d25790565b60405162461bcd60e51b815260206004820152601d60248201527f416464726573733a2063616c6c20746f206e6f6e2d636f6e74726163740000006044820152606490fd5b82519091501561042a5750805190602001fd5b6044604051809262461bcd60e51b82526020600483015261045a8151809281602486015260208686019101610394565b601f01601f19168101030190fdfe6080806040523661011c5760208160048173ffffffffffffffffffffffffffffffffffffffff7fa3f0ad74e5423aebfd80d3ef4346578335a9a72aeaee59ff6cb3582b35133d5054167f5c60da1b0000000000000000000000000000000000000000000000000000000082525afa908115610111575f91610081575b50610273565b905060203d60201161010a575b7fffffffffffffffffffffffffffffffffffffffffffffffffffffffffffffffe0601f82011682019180831067ffffffffffffffff8411176100dd576100d792604052016101f6565b5f61007b565b7f4e487b71000000000000000000000000000000000000000000000000000000005f52604160045260245ffd5b503d61008e565b6040513d5f823e3d90fd5b6004602073ffffffffffffffffffffffffffffffffffffffff7fa3f0ad74e5423aebfd80d3ef4346578335a9a72aeaee59ff6cb3582b35133d505416604051928380927f5c60da1b0000000000000000000000000000000000000000000000000000000082525afa908115610111575f916101975750610273565b602091503d82116101ee575b7fffffffffffffffffffffffffffffffffffffffffffffffffffffffffffffffe0601f83011681019181831067ffffffffffffffff8411176100dd576100d792604052810190610247565b3d91506101a3565b7fffffffffffffffffffffffffffffffffffffffffffffffffffffffffffffff8060209101126102435760805173ffffffffffffffffffffffffffffffffffffffff811681036102435790565b5f80fd5b90816020910312610243575173ffffffffffffffffffffffffffffffffffffffff811681036102435790565b5f8091368280378136915af43d5f803e1561028c573d5ff35b3d5ffdfea2646970667358221220ec432b4747e143afd3ca9be003efbb7d4ac773fd8dbbac59b6729d6be9a1e1a164736f6c63430008180033a264697066735822122036b951150f88f2be60afe0cf545ed6ee129fd4c0c892fe5abfa9c13ed8985bff64736f6c63430008180033",
  "devdoc": {
    "kind": "dev",
    "methods": {
      "acceptOwner()": {
        "details": "Can only be called by the pending owner to ensure correctness. Calls to the `_beforeAcceptOwner` hook      to perform logic before updating ownership."
      },
      "constructor": {
        "params": {
          "implementation_": "The initial market implementation contract",
          "oracleFactory_": "The oracle factory"
        }
      },
      "create((address,address))": {
        "params": {
          "definition": "The market definition"
        },
        "returns": {
          "newMarket": "New market contract address"
        }
      },
      "instances(address)": {
        "params": {
          "instance": "The instance to check"
        },
        "returns": {
          "_0": "Whether the instance is valid"
        }
      },
      "pause()": {
        "details": "Can only be called by the pauser"
      },
      "unpause()": {
        "details": "Can only be called by the pauser"
      },
      "updateOperator(address,bool)": {
        "params": {
          "newEnabled": "The new status of the operator",
          "operator": "The operator to update"
        }
      },
      "updateParameter((uint256,uint256,uint256,uint256,uint256,uint256,uint256,uint256))": {
        "params": {
          "newParameter": "The new protocol parameters"
        }
      },
      "updatePauser(address)": {
        "details": "Can only be called by the current owner",
        "params": {
          "newPauser": "New pauser address"
        }
      },
      "updatePendingOwner(address)": {
        "details": "Can only be called by the current owner      New owner does not take affect until that address calls `acceptOwner()`",
        "params": {
          "newPendingOwner": "New pending owner address"
        }
      },
      "updateReferralFee(address,uint256)": {
        "params": {
          "newReferralFee": "The new referral fee",
          "referrer": "The referrer to update"
        }
      }
    },
    "stateVariables": {
      "_markets": {
        "details": "Registry of created markets by oracle and payoff      Note: address(0) is used in place of the deprecated payoff provider field"
      },
      "_parameter": {
        "details": "The global protocol parameters"
      },
      "operators": {
        "details": "Mapping of allowed operators for each account"
      },
      "oracleFactory": {
        "details": "The oracle factory"
      },
      "referralFee": {
        "details": "The referreral fee level for each referrer"
      }
    },
    "title": "MarketFactory",
    "version": 1
  },
  "userdoc": {
    "kind": "user",
    "methods": {
      "acceptOwner()": {
        "notice": "Accepts and transfers the ownership of the contract to the pending owner"
      },
      "constructor": {
        "notice": "Constructs the contract"
      },
      "create((address,address))": {
        "notice": "Creates a new market market with the given definition"
      },
      "implementation()": {
        "notice": "The instance implementation address"
      },
      "initialize()": {
        "notice": "Initializes the contract state"
      },
      "instances(address)": {
        "notice": "Returns whether the instance is valid"
      },
      "parameter()": {
        "notice": "Returns the global protocol parameters"
      },
      "pause()": {
        "notice": "Pauses the contract"
      },
      "unpause()": {
        "notice": "Unpauses the contract"
      },
      "updateOperator(address,bool)": {
        "notice": "Updates the status of an operator for the caller"
      },
      "updateParameter((uint256,uint256,uint256,uint256,uint256,uint256,uint256,uint256))": {
        "notice": "Updates the global protocol parameters"
      },
      "updatePauser(address)": {
        "notice": "Updates the new pauser"
      },
      "updatePendingOwner(address)": {
        "notice": "Updates the new pending owner"
      },
      "updateReferralFee(address,uint256)": {
        "notice": "Updates the referral fee for a referrer"
      }
    },
    "notice": "Manages creating new markets and global protocol parameters.",
    "version": 1
  },
  "storageLayout": {
    "storage": [
      {
        "astId": 13845,
        "contract": "@equilibria/perennial-v2/contracts/MarketFactory.sol:MarketFactory",
        "label": "_parameter",
        "offset": 0,
        "slot": "0",
        "type": "t_struct(ProtocolParameterStorage)23342_storage"
      },
      {
        "astId": 13852,
        "contract": "@equilibria/perennial-v2/contracts/MarketFactory.sol:MarketFactory",
        "label": "operators",
        "offset": 0,
        "slot": "1",
        "type": "t_mapping(t_address,t_mapping(t_address,t_bool))"
      },
      {
        "astId": 13861,
        "contract": "@equilibria/perennial-v2/contracts/MarketFactory.sol:MarketFactory",
        "label": "_markets",
        "offset": 0,
        "slot": "2",
        "type": "t_mapping(t_contract(IOracleProvider)14685,t_mapping(t_address,t_contract(IMarket)14518))"
      },
      {
        "astId": 13867,
        "contract": "@equilibria/perennial-v2/contracts/MarketFactory.sol:MarketFactory",
        "label": "referralFee",
        "offset": 0,
        "slot": "3",
        "type": "t_mapping(t_address,t_userDefinedValueType(UFixed6)31731)"
      }
    ],
    "types": {
      "t_address": {
        "encoding": "inplace",
        "label": "address",
        "numberOfBytes": "20"
      },
      "t_bool": {
        "encoding": "inplace",
        "label": "bool",
        "numberOfBytes": "1"
      },
      "t_contract(IMarket)14518": {
        "encoding": "inplace",
        "label": "contract IMarket",
        "numberOfBytes": "20"
      },
      "t_contract(IOracleProvider)14685": {
        "encoding": "inplace",
        "label": "contract IOracleProvider",
        "numberOfBytes": "20"
      },
      "t_mapping(t_address,t_bool)": {
        "encoding": "mapping",
        "key": "t_address",
        "label": "mapping(address => bool)",
        "numberOfBytes": "32",
        "value": "t_bool"
      },
      "t_mapping(t_address,t_contract(IMarket)14518)": {
        "encoding": "mapping",
        "key": "t_address",
        "label": "mapping(address => contract IMarket)",
        "numberOfBytes": "32",
        "value": "t_contract(IMarket)14518"
      },
      "t_mapping(t_address,t_mapping(t_address,t_bool))": {
        "encoding": "mapping",
        "key": "t_address",
        "label": "mapping(address => mapping(address => bool))",
        "numberOfBytes": "32",
        "value": "t_mapping(t_address,t_bool)"
      },
      "t_mapping(t_address,t_userDefinedValueType(UFixed6)31731)": {
        "encoding": "mapping",
        "key": "t_address",
        "label": "mapping(address => UFixed6)",
        "numberOfBytes": "32",
        "value": "t_userDefinedValueType(UFixed6)31731"
      },
      "t_mapping(t_contract(IOracleProvider)14685,t_mapping(t_address,t_contract(IMarket)14518))": {
        "encoding": "mapping",
        "key": "t_contract(IOracleProvider)14685",
        "label": "mapping(contract IOracleProvider => mapping(address => contract IMarket))",
        "numberOfBytes": "32",
        "value": "t_mapping(t_address,t_contract(IMarket)14518)"
      },
      "t_struct(ProtocolParameterStorage)23342_storage": {
        "encoding": "inplace",
        "label": "struct ProtocolParameterStorage",
        "members": [
          {
            "astId": 23341,
            "contract": "@equilibria/perennial-v2/contracts/MarketFactory.sol:MarketFactory",
            "label": "value",
            "offset": 0,
            "slot": "0",
            "type": "t_struct(StoredProtocolParameter)23338_storage"
          }
        ],
        "numberOfBytes": "32"
      },
      "t_struct(StoredProtocolParameter)23338_storage": {
        "encoding": "inplace",
        "label": "struct StoredProtocolParameter",
        "members": [
          {
            "astId": 23323,
            "contract": "@equilibria/perennial-v2/contracts/MarketFactory.sol:MarketFactory",
            "label": "protocolFee",
            "offset": 0,
            "slot": "0",
            "type": "t_uint24"
          },
          {
            "astId": 23325,
            "contract": "@equilibria/perennial-v2/contracts/MarketFactory.sol:MarketFactory",
            "label": "maxFee",
            "offset": 3,
            "slot": "0",
            "type": "t_uint24"
          },
          {
            "astId": 23327,
            "contract": "@equilibria/perennial-v2/contracts/MarketFactory.sol:MarketFactory",
            "label": "maxFeeAbsolute",
            "offset": 6,
            "slot": "0",
            "type": "t_uint48"
          },
          {
            "astId": 23329,
            "contract": "@equilibria/perennial-v2/contracts/MarketFactory.sol:MarketFactory",
            "label": "maxCut",
            "offset": 12,
            "slot": "0",
            "type": "t_uint24"
          },
          {
            "astId": 23331,
            "contract": "@equilibria/perennial-v2/contracts/MarketFactory.sol:MarketFactory",
            "label": "maxRate",
            "offset": 15,
            "slot": "0",
            "type": "t_uint32"
          },
          {
            "astId": 23333,
            "contract": "@equilibria/perennial-v2/contracts/MarketFactory.sol:MarketFactory",
            "label": "minMaintenance",
            "offset": 19,
            "slot": "0",
            "type": "t_uint24"
          },
          {
            "astId": 23335,
            "contract": "@equilibria/perennial-v2/contracts/MarketFactory.sol:MarketFactory",
            "label": "minEfficiency",
            "offset": 22,
            "slot": "0",
            "type": "t_uint24"
          },
          {
            "astId": 23337,
            "contract": "@equilibria/perennial-v2/contracts/MarketFactory.sol:MarketFactory",
            "label": "referralFee",
            "offset": 25,
            "slot": "0",
            "type": "t_uint24"
          }
        ],
        "numberOfBytes": "32"
      },
      "t_uint24": {
        "encoding": "inplace",
        "label": "uint24",
        "numberOfBytes": "3"
      },
      "t_uint32": {
        "encoding": "inplace",
        "label": "uint32",
        "numberOfBytes": "4"
      },
      "t_uint48": {
        "encoding": "inplace",
        "label": "uint48",
        "numberOfBytes": "6"
      },
      "t_userDefinedValueType(UFixed6)31731": {
        "encoding": "inplace",
        "label": "UFixed6",
        "numberOfBytes": "32"
      }
    }
  }
}