{
  "address": "0xA092F444ed2908B75f09dA636E9e70c440642b43",
  "abi": [
    {
      "inputs": [],
      "name": "CurveMath6OutOfBoundsError",
      "type": "error"
    },
    {
      "inputs": [],
      "name": "DivisionByZero",
      "type": "error"
    },
    {
      "inputs": [
        {
          "internalType": "uint256",
          "name": "value",
          "type": "uint256"
        }
      ],
      "name": "Fixed6OverflowError",
      "type": "error"
    },
    {
      "inputs": [],
      "name": "GlobalStorageInvalidError",
      "type": "error"
    },
    {
      "inputs": [],
      "name": "GlobalStorageInvalidError",
      "type": "error"
    },
    {
      "inputs": [
        {
          "internalType": "uint256",
          "name": "version",
          "type": "uint256"
        }
      ],
      "name": "InitializableAlreadyInitializedError",
      "type": "error"
    },
    {
      "inputs": [],
      "name": "InitializableNotInitializingError",
      "type": "error"
    },
    {
      "inputs": [],
      "name": "InitializableZeroVersionError",
      "type": "error"
    },
    {
      "inputs": [
        {
          "internalType": "address",
          "name": "sender",
          "type": "address"
        }
      ],
      "name": "InstanceNotOwnerError",
      "type": "error"
    },
    {
      "inputs": [],
      "name": "InstancePausedError",
      "type": "error"
    },
    {
      "inputs": [],
      "name": "LocalStorageInvalidError",
      "type": "error"
    },
    {
      "inputs": [],
      "name": "LocalStorageInvalidError",
      "type": "error"
    },
    {
      "inputs": [],
      "name": "MarketClosedError",
      "type": "error"
    },
    {
      "inputs": [],
      "name": "MarketCollateralBelowLimitError",
      "type": "error"
    },
    {
      "inputs": [],
      "name": "MarketEfficiencyUnderLimitError",
      "type": "error"
    },
    {
      "inputs": [],
      "name": "MarketExceedsPendingIdLimitError",
      "type": "error"
    },
    {
      "inputs": [],
      "name": "MarketInsufficientCollateralError",
      "type": "error"
    },
    {
      "inputs": [],
      "name": "MarketInsufficientLiquidityError",
      "type": "error"
    },
    {
      "inputs": [],
      "name": "MarketInsufficientMaintenanceError",
      "type": "error"
    },
    {
      "inputs": [],
      "name": "MarketInsufficientMarginError",
      "type": "error"
    },
    {
      "inputs": [
        {
          "internalType": "uint256",
          "name": "code",
          "type": "uint256"
        }
      ],
      "name": "MarketInvalidMarketParameterError",
      "type": "error"
    },
    {
      "inputs": [],
      "name": "MarketInvalidProtectionError",
      "type": "error"
    },
    {
      "inputs": [],
      "name": "MarketInvalidRewardError",
      "type": "error"
    },
    {
      "inputs": [
        {
          "internalType": "uint256",
          "name": "code",
          "type": "uint256"
        }
      ],
      "name": "MarketInvalidRiskParameterError",
      "type": "error"
    },
    {
      "inputs": [],
      "name": "MarketMakerOverLimitError",
      "type": "error"
    },
    {
      "inputs": [],
      "name": "MarketNotBeneficiaryError",
      "type": "error"
    },
    {
      "inputs": [],
      "name": "MarketNotCoordinatorError",
      "type": "error"
    },
    {
      "inputs": [],
      "name": "MarketNotSingleSidedError",
      "type": "error"
    },
    {
      "inputs": [],
      "name": "MarketOperatorNotAllowedError",
      "type": "error"
    },
    {
      "inputs": [],
      "name": "MarketOverCloseError",
      "type": "error"
    },
    {
      "inputs": [],
      "name": "MarketParameterStorageInvalidError",
      "type": "error"
    },
    {
      "inputs": [],
      "name": "MarketProtectedError",
      "type": "error"
    },
    {
      "inputs": [],
      "name": "MarketRewardAlreadySetError",
      "type": "error"
    },
    {
      "inputs": [],
      "name": "MarketStalePriceError",
      "type": "error"
    },
    {
      "inputs": [],
      "name": "PositionStorageInvalidError",
      "type": "error"
    },
    {
      "inputs": [],
      "name": "PositionStorageLocalInvalidError",
      "type": "error"
    },
    {
      "inputs": [],
      "name": "ReentrancyGuardReentrantCallError",
      "type": "error"
    },
    {
      "inputs": [],
      "name": "RiskParameterStorageInvalidError",
      "type": "error"
    },
    {
      "inputs": [
        {
          "internalType": "int256",
          "name": "value",
          "type": "int256"
        }
      ],
      "name": "UFixed6UnderflowError",
      "type": "error"
    },
    {
      "inputs": [],
      "name": "VersionStorageInvalidError",
      "type": "error"
    },
    {
      "inputs": [],
      "name": "VersionStorageInvalidError",
      "type": "error"
    },
    {
      "anonymous": false,
      "inputs": [
        {
          "indexed": true,
          "internalType": "address",
          "name": "account",
          "type": "address"
        },
        {
          "indexed": true,
          "internalType": "uint256",
          "name": "fromOracleVersion",
          "type": "uint256"
        },
        {
          "indexed": true,
          "internalType": "uint256",
          "name": "toOracleVersion",
          "type": "uint256"
        },
        {
          "indexed": false,
          "internalType": "uint256",
          "name": "fromPosition",
          "type": "uint256"
        },
        {
          "indexed": false,
          "internalType": "uint256",
          "name": "toPosition",
          "type": "uint256"
        },
        {
          "components": [
            {
              "internalType": "Fixed6",
              "name": "collateralAmount",
              "type": "int256"
            },
            {
              "internalType": "UFixed6",
              "name": "rewardAmount",
              "type": "uint256"
            },
            {
              "internalType": "UFixed6",
              "name": "positionFee",
              "type": "uint256"
            },
            {
              "internalType": "UFixed6",
              "name": "keeper",
              "type": "uint256"
            }
          ],
          "indexed": false,
          "internalType": "struct LocalAccumulationResult",
          "name": "accumulationResult",
          "type": "tuple"
        }
      ],
      "name": "AccountPositionProcessed",
      "type": "event"
    },
    {
      "anonymous": false,
      "inputs": [
        {
          "indexed": false,
          "internalType": "address",
          "name": "newBeneficiary",
          "type": "address"
        }
      ],
      "name": "BeneficiaryUpdated",
      "type": "event"
    },
    {
      "anonymous": false,
      "inputs": [
        {
          "indexed": false,
          "internalType": "address",
          "name": "newCoordinator",
          "type": "address"
        }
      ],
      "name": "CoordinatorUpdated",
      "type": "event"
    },
    {
      "anonymous": false,
      "inputs": [
        {
          "indexed": true,
          "internalType": "address",
          "name": "account",
          "type": "address"
        },
        {
          "indexed": false,
          "internalType": "UFixed6",
          "name": "amount",
          "type": "uint256"
        }
      ],
      "name": "FeeClaimed",
      "type": "event"
    },
    {
      "anonymous": false,
      "inputs": [
        {
          "indexed": false,
          "internalType": "uint256",
          "name": "version",
          "type": "uint256"
        }
      ],
      "name": "Initialized",
      "type": "event"
    },
    {
      "anonymous": false,
      "inputs": [
        {
          "components": [
            {
              "internalType": "UFixed6",
              "name": "fundingFee",
              "type": "uint256"
            },
            {
              "internalType": "UFixed6",
              "name": "interestFee",
              "type": "uint256"
            },
            {
              "internalType": "UFixed6",
              "name": "positionFee",
              "type": "uint256"
            },
            {
              "internalType": "UFixed6",
              "name": "oracleFee",
              "type": "uint256"
            },
            {
              "internalType": "UFixed6",
              "name": "riskFee",
              "type": "uint256"
            },
            {
              "internalType": "uint256",
              "name": "maxPendingGlobal",
              "type": "uint256"
            },
            {
              "internalType": "uint256",
              "name": "maxPendingLocal",
              "type": "uint256"
            },
            {
              "internalType": "UFixed6",
              "name": "makerRewardRate",
              "type": "uint256"
            },
            {
              "internalType": "UFixed6",
              "name": "longRewardRate",
              "type": "uint256"
            },
            {
              "internalType": "UFixed6",
              "name": "shortRewardRate",
              "type": "uint256"
            },
            {
              "internalType": "UFixed6",
              "name": "settlementFee",
              "type": "uint256"
            },
            {
              "internalType": "bool",
              "name": "takerCloseAlways",
              "type": "bool"
            },
            {
              "internalType": "bool",
              "name": "makerCloseAlways",
              "type": "bool"
            },
            {
              "internalType": "bool",
              "name": "closed",
              "type": "bool"
            }
          ],
          "indexed": false,
          "internalType": "struct MarketParameter",
          "name": "newParameter",
          "type": "tuple"
        }
      ],
      "name": "ParameterUpdated",
      "type": "event"
    },
    {
      "anonymous": false,
      "inputs": [
        {
          "indexed": true,
          "internalType": "uint256",
          "name": "fromOracleVersion",
          "type": "uint256"
        },
        {
          "indexed": true,
          "internalType": "uint256",
          "name": "toOracleVersion",
          "type": "uint256"
        },
        {
          "indexed": false,
          "internalType": "uint256",
          "name": "fromPosition",
          "type": "uint256"
        },
        {
          "indexed": false,
          "internalType": "uint256",
          "name": "toPosition",
          "type": "uint256"
        },
        {
          "components": [
            {
              "internalType": "UFixed6",
              "name": "positionFeeMaker",
              "type": "uint256"
            },
            {
              "internalType": "UFixed6",
              "name": "positionFeeFee",
              "type": "uint256"
            },
            {
              "internalType": "Fixed6",
              "name": "fundingMaker",
              "type": "int256"
            },
            {
              "internalType": "Fixed6",
              "name": "fundingLong",
              "type": "int256"
            },
            {
              "internalType": "Fixed6",
              "name": "fundingShort",
              "type": "int256"
            },
            {
              "internalType": "UFixed6",
              "name": "fundingFee",
              "type": "uint256"
            },
            {
              "internalType": "Fixed6",
              "name": "interestMaker",
              "type": "int256"
            },
            {
              "internalType": "Fixed6",
              "name": "interestLong",
              "type": "int256"
            },
            {
              "internalType": "Fixed6",
              "name": "interestShort",
              "type": "int256"
            },
            {
              "internalType": "UFixed6",
              "name": "interestFee",
              "type": "uint256"
            },
            {
              "internalType": "Fixed6",
              "name": "pnlMaker",
              "type": "int256"
            },
            {
              "internalType": "Fixed6",
              "name": "pnlLong",
              "type": "int256"
            },
            {
              "internalType": "Fixed6",
              "name": "pnlShort",
              "type": "int256"
            },
            {
              "internalType": "UFixed6",
              "name": "rewardMaker",
              "type": "uint256"
            },
            {
              "internalType": "UFixed6",
              "name": "rewardLong",
              "type": "uint256"
            },
            {
              "internalType": "UFixed6",
              "name": "rewardShort",
              "type": "uint256"
            }
          ],
          "indexed": false,
          "internalType": "struct VersionAccumulationResult",
          "name": "accumulationResult",
          "type": "tuple"
        }
      ],
      "name": "PositionProcessed",
      "type": "event"
    },
    {
      "anonymous": false,
      "inputs": [
        {
          "indexed": true,
          "internalType": "address",
          "name": "account",
          "type": "address"
        },
        {
          "indexed": false,
          "internalType": "UFixed6",
          "name": "amount",
          "type": "uint256"
        }
      ],
      "name": "RewardClaimed",
      "type": "event"
    },
    {
      "anonymous": false,
      "inputs": [
        {
          "indexed": false,
          "internalType": "Token18",
          "name": "newReward",
          "type": "address"
        }
      ],
      "name": "RewardUpdated",
      "type": "event"
    },
    {
      "anonymous": false,
      "inputs": [
        {
          "components": [
            {
              "internalType": "UFixed6",
              "name": "margin",
              "type": "uint256"
            },
            {
              "internalType": "UFixed6",
              "name": "maintenance",
              "type": "uint256"
            },
            {
              "internalType": "UFixed6",
              "name": "takerFee",
              "type": "uint256"
            },
            {
              "internalType": "UFixed6",
              "name": "takerSkewFee",
              "type": "uint256"
            },
            {
              "internalType": "UFixed6",
              "name": "takerImpactFee",
              "type": "uint256"
            },
            {
              "internalType": "UFixed6",
              "name": "makerFee",
              "type": "uint256"
            },
            {
              "internalType": "UFixed6",
              "name": "makerImpactFee",
              "type": "uint256"
            },
            {
              "internalType": "UFixed6",
              "name": "makerLimit",
              "type": "uint256"
            },
            {
              "internalType": "UFixed6",
              "name": "efficiencyLimit",
              "type": "uint256"
            },
            {
              "internalType": "UFixed6",
              "name": "liquidationFee",
              "type": "uint256"
            },
            {
              "internalType": "UFixed6",
              "name": "minLiquidationFee",
              "type": "uint256"
            },
            {
              "internalType": "UFixed6",
              "name": "maxLiquidationFee",
              "type": "uint256"
            },
            {
              "components": [
                {
                  "internalType": "UFixed6",
                  "name": "minRate",
                  "type": "uint256"
                },
                {
                  "internalType": "UFixed6",
                  "name": "maxRate",
                  "type": "uint256"
                },
                {
                  "internalType": "UFixed6",
                  "name": "targetRate",
                  "type": "uint256"
                },
                {
                  "internalType": "UFixed6",
                  "name": "targetUtilization",
                  "type": "uint256"
                }
              ],
              "internalType": "struct UJumpRateUtilizationCurve6",
              "name": "utilizationCurve",
              "type": "tuple"
            },
            {
              "components": [
                {
                  "internalType": "UFixed6",
                  "name": "k",
                  "type": "uint256"
                },
                {
                  "internalType": "UFixed6",
                  "name": "max",
                  "type": "uint256"
                }
              ],
              "internalType": "struct PController6",
              "name": "pController",
              "type": "tuple"
            },
            {
              "internalType": "UFixed6",
              "name": "minMargin",
              "type": "uint256"
            },
            {
              "internalType": "UFixed6",
              "name": "minMaintenance",
              "type": "uint256"
            },
            {
              "internalType": "UFixed6",
              "name": "virtualTaker",
              "type": "uint256"
            },
            {
              "internalType": "uint256",
              "name": "staleAfter",
              "type": "uint256"
            },
            {
              "internalType": "bool",
              "name": "makerReceiveOnly",
              "type": "bool"
            }
          ],
          "indexed": false,
          "internalType": "struct RiskParameter",
          "name": "newRiskParameter",
          "type": "tuple"
        }
      ],
      "name": "RiskParameterUpdated",
      "type": "event"
    },
    {
      "anonymous": false,
      "inputs": [
        {
          "indexed": true,
          "internalType": "address",
          "name": "sender",
          "type": "address"
        },
        {
          "indexed": true,
          "internalType": "address",
          "name": "account",
          "type": "address"
        },
        {
          "indexed": false,
          "internalType": "uint256",
          "name": "version",
          "type": "uint256"
        },
        {
          "indexed": false,
          "internalType": "UFixed6",
          "name": "newMaker",
          "type": "uint256"
        },
        {
          "indexed": false,
          "internalType": "UFixed6",
          "name": "newLong",
          "type": "uint256"
        },
        {
          "indexed": false,
          "internalType": "UFixed6",
          "name": "newShort",
          "type": "uint256"
        },
        {
          "indexed": false,
          "internalType": "Fixed6",
          "name": "collateral",
          "type": "int256"
        },
        {
          "indexed": false,
          "internalType": "bool",
          "name": "protect",
          "type": "bool"
        }
      ],
      "name": "Updated",
      "type": "event"
    },
    {
      "inputs": [],
      "name": "claimFee",
      "outputs": [],
      "stateMutability": "nonpayable",
      "type": "function"
    },
    {
      "inputs": [],
      "name": "claimReward",
      "outputs": [],
      "stateMutability": "nonpayable",
      "type": "function"
    },
    {
      "inputs": [],
      "name": "factory",
      "outputs": [
        {
          "internalType": "contract IFactory",
          "name": "",
          "type": "address"
        }
      ],
      "stateMutability": "view",
      "type": "function"
    },
    {
      "inputs": [],
      "name": "global",
      "outputs": [
        {
          "components": [
            {
              "internalType": "uint256",
              "name": "currentId",
              "type": "uint256"
            },
            {
              "internalType": "uint256",
              "name": "latestId",
              "type": "uint256"
            },
            {
              "internalType": "UFixed6",
              "name": "protocolFee",
              "type": "uint256"
            },
            {
              "internalType": "UFixed6",
              "name": "oracleFee",
              "type": "uint256"
            },
            {
              "internalType": "UFixed6",
              "name": "riskFee",
              "type": "uint256"
            },
            {
              "internalType": "UFixed6",
              "name": "donation",
              "type": "uint256"
            },
            {
              "components": [
                {
                  "internalType": "Fixed6",
                  "name": "_value",
                  "type": "int256"
                },
                {
                  "internalType": "Fixed6",
                  "name": "_skew",
                  "type": "int256"
                }
              ],
              "internalType": "struct PAccumulator6",
              "name": "pAccumulator",
              "type": "tuple"
            },
            {
              "internalType": "Fixed6",
              "name": "latestPrice",
              "type": "int256"
            }
          ],
          "internalType": "struct Global",
          "name": "",
          "type": "tuple"
        }
      ],
      "stateMutability": "view",
      "type": "function"
    },
    {
      "inputs": [
        {
          "components": [
            {
              "internalType": "Token18",
              "name": "token",
              "type": "address"
            },
            {
              "internalType": "contract IOracleProvider",
              "name": "oracle",
              "type": "address"
            },
            {
              "internalType": "contract IPayoffProvider",
              "name": "payoff",
              "type": "address"
            }
          ],
          "internalType": "struct IMarket.MarketDefinition",
          "name": "definition_",
          "type": "tuple"
        }
      ],
      "name": "initialize",
      "outputs": [],
      "stateMutability": "nonpayable",
      "type": "function"
    },
    {
      "inputs": [
        {
          "internalType": "address",
          "name": "account",
          "type": "address"
        }
      ],
      "name": "locals",
      "outputs": [
        {
          "components": [
            {
              "internalType": "uint256",
              "name": "currentId",
              "type": "uint256"
            },
            {
              "internalType": "uint256",
              "name": "latestId",
              "type": "uint256"
            },
            {
              "internalType": "Fixed6",
              "name": "collateral",
              "type": "int256"
            },
            {
              "internalType": "UFixed6",
              "name": "reward",
              "type": "uint256"
            },
            {
              "internalType": "uint256",
              "name": "protection",
              "type": "uint256"
            }
          ],
          "internalType": "struct Local",
          "name": "",
          "type": "tuple"
        }
      ],
      "stateMutability": "view",
      "type": "function"
    },
    {
      "inputs": [],
      "name": "oracle",
      "outputs": [
        {
          "internalType": "contract IOracleProvider",
          "name": "",
          "type": "address"
        }
      ],
      "stateMutability": "view",
      "type": "function"
    },
    {
      "inputs": [],
      "name": "parameter",
      "outputs": [
        {
          "components": [
            {
              "internalType": "UFixed6",
              "name": "fundingFee",
              "type": "uint256"
            },
            {
              "internalType": "UFixed6",
              "name": "interestFee",
              "type": "uint256"
            },
            {
              "internalType": "UFixed6",
              "name": "positionFee",
              "type": "uint256"
            },
            {
              "internalType": "UFixed6",
              "name": "oracleFee",
              "type": "uint256"
            },
            {
              "internalType": "UFixed6",
              "name": "riskFee",
              "type": "uint256"
            },
            {
              "internalType": "uint256",
              "name": "maxPendingGlobal",
              "type": "uint256"
            },
            {
              "internalType": "uint256",
              "name": "maxPendingLocal",
              "type": "uint256"
            },
            {
              "internalType": "UFixed6",
              "name": "makerRewardRate",
              "type": "uint256"
            },
            {
              "internalType": "UFixed6",
              "name": "longRewardRate",
              "type": "uint256"
            },
            {
              "internalType": "UFixed6",
              "name": "shortRewardRate",
              "type": "uint256"
            },
            {
              "internalType": "UFixed6",
              "name": "settlementFee",
              "type": "uint256"
            },
            {
              "internalType": "bool",
              "name": "takerCloseAlways",
              "type": "bool"
            },
            {
              "internalType": "bool",
              "name": "makerCloseAlways",
              "type": "bool"
            },
            {
              "internalType": "bool",
              "name": "closed",
              "type": "bool"
            }
          ],
          "internalType": "struct MarketParameter",
          "name": "",
          "type": "tuple"
        }
      ],
      "stateMutability": "view",
      "type": "function"
    },
    {
      "inputs": [],
      "name": "payoff",
      "outputs": [
        {
          "internalType": "contract IPayoffProvider",
          "name": "",
          "type": "address"
        }
      ],
      "stateMutability": "view",
      "type": "function"
    },
    {
      "inputs": [
        {
          "internalType": "uint256",
          "name": "id",
          "type": "uint256"
        }
      ],
      "name": "pendingPosition",
      "outputs": [
        {
          "components": [
            {
              "internalType": "uint256",
              "name": "timestamp",
              "type": "uint256"
            },
            {
              "internalType": "UFixed6",
              "name": "maker",
              "type": "uint256"
            },
            {
              "internalType": "UFixed6",
              "name": "long",
              "type": "uint256"
            },
            {
              "internalType": "UFixed6",
              "name": "short",
              "type": "uint256"
            },
            {
              "internalType": "UFixed6",
              "name": "fee",
              "type": "uint256"
            },
            {
              "internalType": "UFixed6",
              "name": "keeper",
              "type": "uint256"
            },
            {
              "internalType": "Fixed6",
              "name": "collateral",
              "type": "int256"
            },
            {
              "internalType": "Fixed6",
              "name": "delta",
              "type": "int256"
            },
            {
              "components": [
                {
                  "internalType": "Fixed6",
                  "name": "maker",
                  "type": "int256"
                },
                {
                  "internalType": "Fixed6",
                  "name": "long",
                  "type": "int256"
                },
                {
                  "internalType": "Fixed6",
                  "name": "short",
                  "type": "int256"
                }
              ],
              "internalType": "struct Invalidation",
              "name": "invalidation",
              "type": "tuple"
            }
          ],
          "internalType": "struct Position",
          "name": "",
          "type": "tuple"
        }
      ],
      "stateMutability": "view",
      "type": "function"
    },
    {
      "inputs": [
        {
          "internalType": "address",
          "name": "account",
          "type": "address"
        },
        {
          "internalType": "uint256",
          "name": "id",
          "type": "uint256"
        }
      ],
      "name": "pendingPositions",
      "outputs": [
        {
          "components": [
            {
              "internalType": "uint256",
              "name": "timestamp",
              "type": "uint256"
            },
            {
              "internalType": "UFixed6",
              "name": "maker",
              "type": "uint256"
            },
            {
              "internalType": "UFixed6",
              "name": "long",
              "type": "uint256"
            },
            {
              "internalType": "UFixed6",
              "name": "short",
              "type": "uint256"
            },
            {
              "internalType": "UFixed6",
              "name": "fee",
              "type": "uint256"
            },
            {
              "internalType": "UFixed6",
              "name": "keeper",
              "type": "uint256"
            },
            {
              "internalType": "Fixed6",
              "name": "collateral",
              "type": "int256"
            },
            {
              "internalType": "Fixed6",
              "name": "delta",
              "type": "int256"
            },
            {
              "components": [
                {
                  "internalType": "Fixed6",
                  "name": "maker",
                  "type": "int256"
                },
                {
                  "internalType": "Fixed6",
                  "name": "long",
                  "type": "int256"
                },
                {
                  "internalType": "Fixed6",
                  "name": "short",
                  "type": "int256"
                }
              ],
              "internalType": "struct Invalidation",
              "name": "invalidation",
              "type": "tuple"
            }
          ],
          "internalType": "struct Position",
          "name": "",
          "type": "tuple"
        }
      ],
      "stateMutability": "view",
      "type": "function"
    },
    {
      "inputs": [],
      "name": "position",
      "outputs": [
        {
          "components": [
            {
              "internalType": "uint256",
              "name": "timestamp",
              "type": "uint256"
            },
            {
              "internalType": "UFixed6",
              "name": "maker",
              "type": "uint256"
            },
            {
              "internalType": "UFixed6",
              "name": "long",
              "type": "uint256"
            },
            {
              "internalType": "UFixed6",
              "name": "short",
              "type": "uint256"
            },
            {
              "internalType": "UFixed6",
              "name": "fee",
              "type": "uint256"
            },
            {
              "internalType": "UFixed6",
              "name": "keeper",
              "type": "uint256"
            },
            {
              "internalType": "Fixed6",
              "name": "collateral",
              "type": "int256"
            },
            {
              "internalType": "Fixed6",
              "name": "delta",
              "type": "int256"
            },
            {
              "components": [
                {
                  "internalType": "Fixed6",
                  "name": "maker",
                  "type": "int256"
                },
                {
                  "internalType": "Fixed6",
                  "name": "long",
                  "type": "int256"
                },
                {
                  "internalType": "Fixed6",
                  "name": "short",
                  "type": "int256"
                }
              ],
              "internalType": "struct Invalidation",
              "name": "invalidation",
              "type": "tuple"
            }
          ],
          "internalType": "struct Position",
          "name": "",
          "type": "tuple"
        }
      ],
      "stateMutability": "view",
      "type": "function"
    },
    {
      "inputs": [
        {
          "internalType": "address",
          "name": "account",
          "type": "address"
        }
      ],
      "name": "positions",
      "outputs": [
        {
          "components": [
            {
              "internalType": "uint256",
              "name": "timestamp",
              "type": "uint256"
            },
            {
              "internalType": "UFixed6",
              "name": "maker",
              "type": "uint256"
            },
            {
              "internalType": "UFixed6",
              "name": "long",
              "type": "uint256"
            },
            {
              "internalType": "UFixed6",
              "name": "short",
              "type": "uint256"
            },
            {
              "internalType": "UFixed6",
              "name": "fee",
              "type": "uint256"
            },
            {
              "internalType": "UFixed6",
              "name": "keeper",
              "type": "uint256"
            },
            {
              "internalType": "Fixed6",
              "name": "collateral",
              "type": "int256"
            },
            {
              "internalType": "Fixed6",
              "name": "delta",
              "type": "int256"
            },
            {
              "components": [
                {
                  "internalType": "Fixed6",
                  "name": "maker",
                  "type": "int256"
                },
                {
                  "internalType": "Fixed6",
                  "name": "long",
                  "type": "int256"
                },
                {
                  "internalType": "Fixed6",
                  "name": "short",
                  "type": "int256"
                }
              ],
              "internalType": "struct Invalidation",
              "name": "invalidation",
              "type": "tuple"
            }
          ],
          "internalType": "struct Position",
          "name": "",
          "type": "tuple"
        }
      ],
      "stateMutability": "view",
      "type": "function"
    },
    {
      "inputs": [],
      "name": "reward",
      "outputs": [
        {
          "internalType": "Token18",
          "name": "",
          "type": "address"
        }
      ],
      "stateMutability": "view",
      "type": "function"
    },
    {
      "inputs": [],
      "name": "riskParameter",
      "outputs": [
        {
          "components": [
            {
              "internalType": "UFixed6",
              "name": "margin",
              "type": "uint256"
            },
            {
              "internalType": "UFixed6",
              "name": "maintenance",
              "type": "uint256"
            },
            {
              "internalType": "UFixed6",
              "name": "takerFee",
              "type": "uint256"
            },
            {
              "internalType": "UFixed6",
              "name": "takerSkewFee",
              "type": "uint256"
            },
            {
              "internalType": "UFixed6",
              "name": "takerImpactFee",
              "type": "uint256"
            },
            {
              "internalType": "UFixed6",
              "name": "makerFee",
              "type": "uint256"
            },
            {
              "internalType": "UFixed6",
              "name": "makerImpactFee",
              "type": "uint256"
            },
            {
              "internalType": "UFixed6",
              "name": "makerLimit",
              "type": "uint256"
            },
            {
              "internalType": "UFixed6",
              "name": "efficiencyLimit",
              "type": "uint256"
            },
            {
              "internalType": "UFixed6",
              "name": "liquidationFee",
              "type": "uint256"
            },
            {
              "internalType": "UFixed6",
              "name": "minLiquidationFee",
              "type": "uint256"
            },
            {
              "internalType": "UFixed6",
              "name": "maxLiquidationFee",
              "type": "uint256"
            },
            {
              "components": [
                {
                  "internalType": "UFixed6",
                  "name": "minRate",
                  "type": "uint256"
                },
                {
                  "internalType": "UFixed6",
                  "name": "maxRate",
                  "type": "uint256"
                },
                {
                  "internalType": "UFixed6",
                  "name": "targetRate",
                  "type": "uint256"
                },
                {
                  "internalType": "UFixed6",
                  "name": "targetUtilization",
                  "type": "uint256"
                }
              ],
              "internalType": "struct UJumpRateUtilizationCurve6",
              "name": "utilizationCurve",
              "type": "tuple"
            },
            {
              "components": [
                {
                  "internalType": "UFixed6",
                  "name": "k",
                  "type": "uint256"
                },
                {
                  "internalType": "UFixed6",
                  "name": "max",
                  "type": "uint256"
                }
              ],
              "internalType": "struct PController6",
              "name": "pController",
              "type": "tuple"
            },
            {
              "internalType": "UFixed6",
              "name": "minMargin",
              "type": "uint256"
            },
            {
              "internalType": "UFixed6",
              "name": "minMaintenance",
              "type": "uint256"
            },
            {
              "internalType": "UFixed6",
              "name": "virtualTaker",
              "type": "uint256"
            },
            {
              "internalType": "uint256",
              "name": "staleAfter",
              "type": "uint256"
            },
            {
              "internalType": "bool",
              "name": "makerReceiveOnly",
              "type": "bool"
            }
          ],
          "internalType": "struct RiskParameter",
          "name": "",
          "type": "tuple"
        }
      ],
      "stateMutability": "view",
      "type": "function"
    },
    {
      "inputs": [],
      "name": "token",
      "outputs": [
        {
          "internalType": "Token18",
          "name": "",
          "type": "address"
        }
      ],
      "stateMutability": "view",
      "type": "function"
    },
    {
      "inputs": [
        {
          "internalType": "address",
          "name": "account",
          "type": "address"
        },
        {
          "internalType": "UFixed6",
          "name": "newMaker",
          "type": "uint256"
        },
        {
          "internalType": "UFixed6",
          "name": "newLong",
          "type": "uint256"
        },
        {
          "internalType": "UFixed6",
          "name": "newShort",
          "type": "uint256"
        },
        {
          "internalType": "Fixed6",
          "name": "collateral",
          "type": "int256"
        },
        {
          "internalType": "bool",
          "name": "protect",
          "type": "bool"
        }
      ],
      "name": "update",
      "outputs": [],
      "stateMutability": "nonpayable",
      "type": "function"
    },
    {
      "inputs": [
        {
          "internalType": "address",
          "name": "newBeneficiary",
          "type": "address"
        }
      ],
      "name": "updateBeneficiary",
      "outputs": [],
      "stateMutability": "nonpayable",
      "type": "function"
    },
    {
      "inputs": [
        {
          "internalType": "address",
          "name": "newCoordinator",
          "type": "address"
        }
      ],
      "name": "updateCoordinator",
      "outputs": [],
      "stateMutability": "nonpayable",
      "type": "function"
    },
    {
      "inputs": [
        {
          "components": [
            {
              "internalType": "UFixed6",
              "name": "fundingFee",
              "type": "uint256"
            },
            {
              "internalType": "UFixed6",
              "name": "interestFee",
              "type": "uint256"
            },
            {
              "internalType": "UFixed6",
              "name": "positionFee",
              "type": "uint256"
            },
            {
              "internalType": "UFixed6",
              "name": "oracleFee",
              "type": "uint256"
            },
            {
              "internalType": "UFixed6",
              "name": "riskFee",
              "type": "uint256"
            },
            {
              "internalType": "uint256",
              "name": "maxPendingGlobal",
              "type": "uint256"
            },
            {
              "internalType": "uint256",
              "name": "maxPendingLocal",
              "type": "uint256"
            },
            {
              "internalType": "UFixed6",
              "name": "makerRewardRate",
              "type": "uint256"
            },
            {
              "internalType": "UFixed6",
              "name": "longRewardRate",
              "type": "uint256"
            },
            {
              "internalType": "UFixed6",
              "name": "shortRewardRate",
              "type": "uint256"
            },
            {
              "internalType": "UFixed6",
              "name": "settlementFee",
              "type": "uint256"
            },
            {
              "internalType": "bool",
              "name": "takerCloseAlways",
              "type": "bool"
            },
            {
              "internalType": "bool",
              "name": "makerCloseAlways",
              "type": "bool"
            },
            {
              "internalType": "bool",
              "name": "closed",
              "type": "bool"
            }
          ],
          "internalType": "struct MarketParameter",
          "name": "newParameter",
          "type": "tuple"
        }
      ],
      "name": "updateParameter",
      "outputs": [],
      "stateMutability": "nonpayable",
      "type": "function"
    },
    {
      "inputs": [
        {
          "internalType": "Token18",
          "name": "newReward",
          "type": "address"
        }
      ],
      "name": "updateReward",
      "outputs": [],
      "stateMutability": "nonpayable",
      "type": "function"
    },
    {
      "inputs": [
        {
          "components": [
            {
              "internalType": "UFixed6",
              "name": "margin",
              "type": "uint256"
            },
            {
              "internalType": "UFixed6",
              "name": "maintenance",
              "type": "uint256"
            },
            {
              "internalType": "UFixed6",
              "name": "takerFee",
              "type": "uint256"
            },
            {
              "internalType": "UFixed6",
              "name": "takerSkewFee",
              "type": "uint256"
            },
            {
              "internalType": "UFixed6",
              "name": "takerImpactFee",
              "type": "uint256"
            },
            {
              "internalType": "UFixed6",
              "name": "makerFee",
              "type": "uint256"
            },
            {
              "internalType": "UFixed6",
              "name": "makerImpactFee",
              "type": "uint256"
            },
            {
              "internalType": "UFixed6",
              "name": "makerLimit",
              "type": "uint256"
            },
            {
              "internalType": "UFixed6",
              "name": "efficiencyLimit",
              "type": "uint256"
            },
            {
              "internalType": "UFixed6",
              "name": "liquidationFee",
              "type": "uint256"
            },
            {
              "internalType": "UFixed6",
              "name": "minLiquidationFee",
              "type": "uint256"
            },
            {
              "internalType": "UFixed6",
              "name": "maxLiquidationFee",
              "type": "uint256"
            },
            {
              "components": [
                {
                  "internalType": "UFixed6",
                  "name": "minRate",
                  "type": "uint256"
                },
                {
                  "internalType": "UFixed6",
                  "name": "maxRate",
                  "type": "uint256"
                },
                {
                  "internalType": "UFixed6",
                  "name": "targetRate",
                  "type": "uint256"
                },
                {
                  "internalType": "UFixed6",
                  "name": "targetUtilization",
                  "type": "uint256"
                }
              ],
              "internalType": "struct UJumpRateUtilizationCurve6",
              "name": "utilizationCurve",
              "type": "tuple"
            },
            {
              "components": [
                {
                  "internalType": "UFixed6",
                  "name": "k",
                  "type": "uint256"
                },
                {
                  "internalType": "UFixed6",
                  "name": "max",
                  "type": "uint256"
                }
              ],
              "internalType": "struct PController6",
              "name": "pController",
              "type": "tuple"
            },
            {
              "internalType": "UFixed6",
              "name": "minMargin",
              "type": "uint256"
            },
            {
              "internalType": "UFixed6",
              "name": "minMaintenance",
              "type": "uint256"
            },
            {
              "internalType": "UFixed6",
              "name": "virtualTaker",
              "type": "uint256"
            },
            {
              "internalType": "uint256",
              "name": "staleAfter",
              "type": "uint256"
            },
            {
              "internalType": "bool",
              "name": "makerReceiveOnly",
              "type": "bool"
            }
          ],
          "internalType": "struct RiskParameter",
          "name": "newRiskParameter",
          "type": "tuple"
        }
      ],
      "name": "updateRiskParameter",
      "outputs": [],
      "stateMutability": "nonpayable",
      "type": "function"
    },
    {
      "inputs": [
        {
          "internalType": "uint256",
          "name": "timestamp",
          "type": "uint256"
        }
      ],
      "name": "versions",
      "outputs": [
        {
          "components": [
            {
              "internalType": "bool",
              "name": "valid",
              "type": "bool"
            },
            {
              "components": [
                {
                  "internalType": "Fixed6",
                  "name": "_value",
                  "type": "int256"
                }
              ],
              "internalType": "struct Accumulator6",
              "name": "makerValue",
              "type": "tuple"
            },
            {
              "components": [
                {
                  "internalType": "Fixed6",
                  "name": "_value",
                  "type": "int256"
                }
              ],
              "internalType": "struct Accumulator6",
              "name": "longValue",
              "type": "tuple"
            },
            {
              "components": [
                {
                  "internalType": "Fixed6",
                  "name": "_value",
                  "type": "int256"
                }
              ],
              "internalType": "struct Accumulator6",
              "name": "shortValue",
              "type": "tuple"
            },
            {
              "components": [
                {
                  "internalType": "UFixed6",
                  "name": "_value",
                  "type": "uint256"
                }
              ],
              "internalType": "struct UAccumulator6",
              "name": "makerReward",
              "type": "tuple"
            },
            {
              "components": [
                {
                  "internalType": "UFixed6",
                  "name": "_value",
                  "type": "uint256"
                }
              ],
              "internalType": "struct UAccumulator6",
              "name": "longReward",
              "type": "tuple"
            },
            {
              "components": [
                {
                  "internalType": "UFixed6",
                  "name": "_value",
                  "type": "uint256"
                }
              ],
              "internalType": "struct UAccumulator6",
              "name": "shortReward",
              "type": "tuple"
            }
          ],
          "internalType": "struct Version",
          "name": "",
          "type": "tuple"
        }
      ],
      "stateMutability": "view",
      "type": "function"
    }
  ],
  "transactionHash": "0xb20a0b4b05bfe6c49e4ec3fd43568fcf3ffea40507e86dbd9caa7a22b9277393",
  "args": [],
  "numDeployments": 2,
  "solcInputHash": "8daeebd0785019f60caa1f5b8f66f6af",
  "bytecode": "0x6080806040523461001757615ff990816200001d8239f35b600080fdfe6080604052600436101561001257600080fd5b6000803560e01c806309218e91146124655780630aaffd2a1461239f578063228cb733146123765780634549a629146122ec57806355f57510146122a55780635b4b96951461222e578063632447c9146121325780637dc0d1d01461210957806387aee00e1461208957806391eece2814610e6b57806395fcd83614610e4257806399d32fc414610cc6578063a05f990614610c45578063a1d0a11314610c11578063ad4d4e2914610b6c578063b329230e1461078d578063b88a802f146106fc578063b9bcc3bd146104b2578063c45a01551461047c578063ce813aed146103a8578063d26b3e2614610241578063f9f94e34146101435763fc0c546a1461011a57600080fd5b34610140578060031936011261014057546040516001600160a01b039091168152602090f35b80fd5b5034610140576020366003190112610140576004356001600160a01b038181169182900361023c576004602082600080516020615fa4833981519152541660405192838092638da5cb5b60e01b82525afa908115610231578491610203575b501633036101eb57600580546001600160a01b031916821790556040519081527fc258faa9a17ddfdf4130b4acff63a289202e7d5f9e42f366add65368575486bc90602090a180f35b604051634d193d1f60e01b8152336004820152602490fd5b610224915060203d811161022a575b61021c818361262b565b810190612671565b386101a2565b503d610212565b6040513d86823e3d90fd5b600080fd5b5034610140576060366003190112610140577f6fee9688c285c5c5c97d6a1a29adced674e6b2ad0888b8ad2116b58a8b3ea24860018154101561038f5760019055303b151580610388575b61036f5733600080516020615fa483398151915255303b151580610381575b61036f576001600080516020615f84833981519152556001600160a01b03600435818116908190036103675782546001600160a01b031990811690911783556024358281169081900361036b57816002541617600255604435918216809203610367576003541617600355807f2801b00eb06461cf9fcb9758b5fafd884ff06a86177386f73b6c49f0bf5a5af0557fbe9b076dc5b65990cca9dd9d7366682482e7817a6f6bc7f4faf4dc32af497f32602060405160018152a180f35b8280fd5b8380fd5b60405163b9a621e160e01b8152600490fd5b50806102ab565b508061028c565b604051631edb9c6d60e11b815260016004820152602490fd5b5034610140576040366003190112610140576004356001600160a01b038116919082900361023c5760406103fb91610478936103e2612af9565b5081526012602052818120602435825260205220614a74565b60405191829182919091610140604061016083019480518452602081015160208501528181015182850152606081015160608501526080810151608085015260a081015160a085015260c081015160c085015260e081015160e0850152610100809101519081519085015260208101516101208501520151910152565b0390f35b5034610140578060031936011261014057600080516020615fa4833981519152546040516001600160a01b039091168152602090f35b5034610140576101c0806003193601126106f857604051906104d4818361262b565b6004358252602435602083015260443560408301526064356060830152608435608083015260a43560a083015260c43560c083015260e43560e083015261010435610100830152610124356101208301526101443561014083015261016435801515810361023c5761016083015261018435801515810361023c576101808301526101a435801515810361023c576101a0830152600080516020615fa483398151915254604051638da5cb5b60e01b81526001600160a01b039182169190602081600481865afa80156106ed57829187916106cf575b501633036101eb57849160049160e0738a159CDB5FA8AF4A71f987F3Fb2D5229eC63c758926040519485809263ad4d4e29851b82525afa92831561023157849361069e575b506001541691813b1561036b576102e461063691859360405195869485936310317ba160e11b85526009600486015261062b602486018d612598565b6101e48501906126ec565b6102c48301525af480156106935761067e575b50507ff12be1637c87b6840bce6a43024d842fdde312893b5711402d511dc296b61fc69161067a6040518092612598565ba180f35b816106889161262b565b610367578238610649565b6040513d84823e3d90fd5b6106c191935060e03d60e0116106c8575b6106b9818361262b565b810190612690565b91386105ef565b503d6106af565b6106e7915060203d811161022a5761021c818361262b565b386105aa565b6040513d88823e3d90fd5b5080fd5b5034610140578060031936011261014057338152601060205261078a61072460408320614077565b8260018060a01b036001541661074a60608401916107428351615b25565b903390615c11565b80516040519081527f106f923f993c2149d49b4255ff723acafa1f2d94393f561d3eda32ae348f724160203392a2523383526010602052604083206140cf565b80f35b5034610140576102e0366003190112610140576040516107af6102608261262b565b6004358152602435602082015260443560408201526064356060820152608435608082015260a43560a082015260c43560c082015260e43560e0820152610104356101008201526101243561012082015261014435610140820152610164356101608201526080610183193601126106f85760405161082f60808261262b565b6101843581526101a43560208201526101c43560408201526101e43560608201526101808201526040610203193601126106f85760405161087160408261262b565b6102043581526102243560208201526101a0820152610244356101c0820152610264356101e0820152610284356102008201526102a4356102208201526102c43515156102c4350361023c576102c4356102408201526005546001600160a01b031633141580610aee575b610adc57600080516020615fa48339815191525460405163ad4d4e2960e01b8152839160e090829060049082906001600160a01b03165afa908115610693578291610abd575b5073c24FeF7BB2f7AB454A3f982eD3b4B8268fF850BD3b156106f857610a49604051916302903c7960e21b83526006600484015284516024840152602085015160448401526040850151606484015260608501516084840152608085015160a484015260a085015160c484015260c085015160e484015260e08501516101048401526101008501516101248401526101208501516101448401526101408501516101648401526101608501516101848401526109e86101808601516101a485019061248c565b60206101a0860151805161022486015201516102448401526101c08501516102648401526101e08501516102848401526102008501516102a48401526102208501516102c484015261024085015115156102e48401526103048301906126ec565b81816103e48173c24FeF7BB2f7AB454A3f982eD3b4B8268fF850BD5af4801561069357610aa8575b506040517f823c5e592916c45a8b43a655f22eb029f79dfd3c63f6d122df594aaf83e09b029080610aa285826124af565b0390a180f35b81610ab29161262b565b6106f8578138610a71565b610ad6915060e03d60e0116106c8576106b9818361262b565b38610922565b604051639bca062560e01b8152600490fd5b50600080516020615fa483398151915254604051638da5cb5b60e01b815290602090829060049082906001600160a01b03165afa908115610b61578391610b42575b506001600160a01b03163314156108dc565b610b5b915060203d60201161022a5761021c818361262b565b38610b30565b6040513d85823e3d90fd5b5034610140578060031936011261014057610b85612795565b506040516338ecab9f60e21b8152600960048201526101c091908281602481738a159CDB5FA8AF4A71f987F3Fb2D5229eC63c7585af4918215610c055791610bd8575b50610bd66040518092612598565bf35b610bf89150823d8411610bfe575b610bf0818361262b565b810190612800565b38610bc8565b503d610be6565b604051903d90823e3d90fd5b5034610140576020366003190112610140576103fb604061047892610c34612af9565b506004358152600f602052206148e0565b5034610140578060031936011261014057610c5e612b48565b50610120610c6c600b613db8565b60e060405191805183526020810151602084015260408101516040840152606081015160608401526080810151608084015260a081015160a0840152602060c0820151805160c08601520151828401520151610100820152f35b5034610140578060031936011261014057610ce1600b613db8565b600080516020615fa48339815191528054604051638da5cb5b60e01b81526001600160a01b0393928592602092908390829060049082908a165afa80156102315760049285889286948291610e25575b50610d4260408a019182519061272d565b610e1d575b5050541660405192838092630c7f7fb960e41b82525afa918215610b61578392610de2575b5050928161078a94610d866060860191848351911661272d565b610dda575b508160055416610da1608086019182519061272d565b610dd2575b505060045416610dbc60a084019182519061272d565b610dca575b5050600b613e51565b528238610dc1565b528138610da6565b528138610d8b565b90809250813d8311610e16575b610df9818361262b565b810103126106f857519280841684036106f857928161078a610d6c565b503d610def565b528538610d47565b610e3c9150853d871161022a5761021c818361262b565b38610d31565b50346101405780600319360112610140576003546040516001600160a01b039091168152602090f35b50346101405760c0366003190112610140576004356001600160a01b03811690036101405760a435151560a43503610140576002600080516020615f848339815191525414612077576002600080516020615f8483398151915255600080516020615fa483398151915254604051635c975abb60e01b81526001600160a01b0390911690602081600481855afa908115610b6157839161203d575b5061202b57600460e060405192610f1f6101408561262b565b604051610f2c838261262b565b8581528560208201528560408201528560608201528560808201528560a08201528560c08201528452610f5d612795565b6020850152610f6a6128e6565b6040850152846060850152610f7d612ad8565b6080850152610f8a612ad8565b60a0850152610f97612b48565b60c0850152610fa4612c2f565b82850152610fb0612ca4565b610100850152610fbe612ca4565b6101208501526040519283809263ad4d4e29851b82525afa908115610b6157839161200c575b5081526040516338ecab9f60e21b8152600960048201526101c081602481738a159CDB5FA8AF4A71f987F3Fb2D5229eC63c7585af4908115610b61578391611feb575b506020820152604051635da3780d60e01b8152600660048201526102e08160248173c24FeF7BB2f7AB454A3f982eD3b4B8268fF850BD5af4908115610b61578391611fba575b50604082015261107d600b613db8565b60c08201526004356001600160a01b031682526010602052604082206110a290614077565b60e08201526110af612ad8565b50600254604051631006976960e11b815290608090829060049082906001600160a01b03165afa8015610b615783918491611f78575b506110ef82613d3f565b6060830152608082015261110c611106600d6148e0565b82613c8b565b60a082015261111b600d6148e0565b610120820151526004356001600160a01b0316825260116020526040822061114290614a74565b60206101208301510152611154612af9565b905b60c081015160208151910151809114159081611f43575b50156111ad57602060c0820151015160018101811161119957826001611194920183612cd5565b611156565b634e487b7160e01b84526011600452602484fd5b91905b60e083015160208151910151141580611ede575b15611394576004356001600160a01b0316825260126020908152604080842060e0868101518401518652925283206111fb90614a74565b015192602060e08201510151600181018111611199578260016112229201600435846130ac565b60018060a01b03600435168352601260205260408320602060e08301510151845260205261125260408420614a74565b60018060a01b0360043516845260126020526040842060e083015151855260205261127f60408520614a74565b9460e06040818501510151960151958582128783810312811690888481031390151617611380578187038681128015918303838113929092169183131617611380576112ce60808601516159dd565b908288038103878112801591840184139182169115161761136c576112f660a08701516159dd565b928089038203830188811280159186018613918216911516176113585761135195969798039003010160c082015260018060a01b03600435168552601260205260408520602060e08501510151865260205260408520614b55565b91906111b0565b634e487b7160e01b88526011600452602488fd5b634e487b7160e01b87526011600452602487fd5b634e487b7160e01b86526011600452602486fd5b50608082015151610120830151515110611e8e575b608082015151602061012084015101515110611e27575b60e060c083015101516020608084015101526113e361012083015151600d61498c565b6004356001600160a01b0316815260116020908152604082206101208401519091015161140f91614b55565b60443591602435608435606435611424612ca4565b60c0850151518652600f60205261143d604087206148e0565b815260018060a01b0360043516865260126020526040862060e08601515187526020526114d061010061147260408920614a74565b6020840190815261148b84516101208a015151906145cc565b6114a0815160206101208b01510151906145cc565b6114b88285510151836101208b01515101519061402d565b5101516101006020610120890151015101519061402d565b61010085015260016114e6600160ff1b84615af5565b14611df9575b60016114fa60001985615bbe565b14611de4575b600161150e60001988615bbe565b14611dcf575b600161152260001983615bbe565b14611dbb575b6060840151602061010086015101515110611d93575b6060840151610100850151515110611d6e575b60206101008501510151956060850151604051976115716101408a61262b565b8789528760208a01528760408a01528760608a01528760808a01528760a08a01528760c08a01528760e08a0152876101008a0152876101208a01526115b5866159dd565b6115c260208301516159dd565b908982128183810312811690828481031390151617611d5a576115e4856159dd565b6115f160408501516159dd565b908b82128183810312811690828481031390151617611ced57611613886159dd565b61162060608701516159dd565b908d82128183810312811690828481031390151617611d32578e91604091039101520360208c0152038952836060820152826040820152856020820152526101008501515160608601519061020060408801510161167f81518361477f565b9261169161168c84614744565b6159dd565b61169d61168c85614852565b8c60c06116ac61168c88614805565b91015260e08d015260608c01526116c660208401516159dd565b8b519081808201128c8212908015821691151617611ced576116e89101615b3f565b6116f560408501516159dd565b60208d01519081808201128d8212908015821691151617611d465761171a9101615b3f565b8c604061172a60608801516159dd565b910151908d8280830112908212908015821691151617611d325761174e9101615b3f565b606086015260408501526020840152825261176b61168c83614744565b9160608b0151938a85128486810312811690858781031390151617611d0a5761179583518361477f565b8b82128183810312811690828481031390151617611ced5761168c6117d461168c6117cf6117c7866117da9603615f72565b97518761477f565b615f72565b92615f72565b918b83128284810312811690838581031390151617611ced578c60e061180261168c84614852565b910151918d83128284810312811690838581031390151617611d32578e60c08f9261168c61182f91614805565b9101519182128183810312811690828481031390151617611d1e578f9160c091039101520360e08d01520360a08b015260808a01520360608801526080850151602086015190604087015161188760a08201516159dd565b6118ae620f42406118a98d60c06118a0818801516159dd565b91015190612c5c565b615a34565b9081808201128b8212908015821691151617611d0a57908b918b82820113600014611d015701915b611904620f42406118fe6118ed60408501516159dd565b946080606086015191015190615b12565b046159dd565b9081808401128c8412908015821691151617611ced57620f42406118a98e60a06118a060806119349601516159dd565b91828083830101128c83830112908015821691151617611ced576119aa620f42406119b08f96978f6119d9846119b76119e79c6119aa836119b08f9c829f6119e09f9061199d916020938c6119aa9d5080848484010113600014611ce3575001019e5b51615f72565b9901986119aa8a51615f72565b90615b12565b0491615b3f565b04996119d360406119cb6020840151615f72565b920151615f72565b90612cc8565b9151615f72565b0490612cc8565b6101a082015115611cde5750865b610100890152611a048861444d565b15611cd45750855b610120880152611a2587602061010088015101516146ed565b611a3587610100870151516146ed565b604060e08601510180518480820112888212908015821691151617611358578401905260e06020610100870151015101805184808201128882129080158216911516176113585784019052611aa260e0860151602061012088015101519060a43591606089015191614047565b611aab8861444d565b15611c59575b611ac49084611bc898996004358961337b565b60c0850151518752600f602052611ae560408820610100870151519061498c565b6004356001600160a01b0316875260126020908152604080892060e0880151518a528252882061010087015190910151611b1e91614b55565b611b2783615ab4565b60018114611c02575b60001914611bdd575b606085015193604051948552602085015260408401526060830152608082015260a435151560a082015260018060a01b0360043516907f29083474b417ce11b6e16e049302e231f5d3d753484fe3e8155ea0b7ffe4f3c160c03392a3611ba460c0820151600b613e51565b6004356001600160a01b0316835260106020526040832060e09190910151906140cf565b6001600080516020615f848339815191525580f35b8654611bfd906001600160a01b0316610742611bf886615f72565b615b25565b611b39565b8754611c54906001600160a01b0316611c1d611bf887615f72565b90604051916323b872dd60e01b6020840152336024840152306044840152606483015260648252611c4f60848361262b565b615d86565b611b30565b6002546001600160a01b0316803b15611cd0576040516313e3c62160e11b8152600480356001600160a01b0316908201529088908290602490829084905af18015611cc557611ca9575b50611ab1565b908488611cbc611bc89a611ac49561262b565b98505090611ca3565b6040513d8a823e3d90fd5b8780fd5b6101400151611a0c565b6119f5565b925050509e611997565b634e487b7160e01b8c52601160045260248cfd5b505089916118d6565b634e487b7160e01b8b52601160045260248bfd5b634e487b7160e01b8f52601160045260248ffd5b634e487b7160e01b8e52601160045260248efd5b634e487b7160e01b8d52601160045260248dfd5b634e487b7160e01b8a52601160045260248afd5b60c0840151611d7d8151612c95565b9052611d8e6101008501515161448c565b611551565b60e0840151611da28151612c95565b9052611db66020610100860151015161448c565b61153e565b506060602061010085015101510151611528565b61010084015160200151604001519550611514565b91506020806101008501510151015191611500565b9050611e21604060e085015101516118a9620f424091611e1b83600019612c5c565b90612c5c565b906114ec565b60018060a01b03600435168152601260205260408120602060e084015101518252602052611e89611e5a60408320614a74565b611e77608085015182905190600060a08201526000608082015252565b602060e08501510151600435856130ac565b6113c0565b602060c083015101518152600f602052611ed9611ead604083206148e0565b611eca608085015182905190600060a08201526000608082015252565b602060c0850151015184612cd5565b6113a9565b50506004356001600160a01b03168152601260209081526040822060e084015190910151600181018111611f2f576001018252602052611f2060408220614a74565b608083015151815111156111c4565b634e487b7160e01b83526011600452602483fd5b91925050600181018111611f2f576001018252600f602052611f67604083206148e0565b90608081015151825111153861116d565b91505060803d608011611fb3575b611f90818361262b565b608082828101031261036b57611faa606091830183613c55565b910151386110e5565b503d611f86565b611fde91506102e03d6102e011611fe4575b611fd6818361262b565b810190612991565b3861106d565b503d611fcc565b61200691506101c03d6101c011610bfe57610bf0818361262b565b38611027565b612025915060e03d60e0116106c8576106b9818361262b565b38610fe4565b604051634b94d2bb60e01b8152600490fd5b90506020813d60201161206f575b816120586020938361262b565b810103126103675761206990612664565b38610f06565b3d915061204b565b6040516345f6780960e11b8152600490fd5b5034610140576020366003190112610140576120bc604060e0926120ab612b9f565b5060043581526013602052206157e2565b60c060405191805115158352602081015151602084015260408101515160408401526060810151516060840152608081015151608084015260a08101515160a084015201515160c0820152f35b50346101405780600319360112610140576002546040516001600160a01b039091168152602090f35b5034610140576020366003190112610140576004356001600160a01b0381811691829003610367576004602082600080516020615fa4833981519152541660405192838092638da5cb5b60e01b82525afa80156102315782918591612210575b501633036101eb57600154908082166121fe5783541682146121ec576001600160a01b03191681176001556040519081527ff0f334a92951c3f240a6d627261c6a075ab711edba3ce91573923831cbe4d4d190602090a180f35b60405163037df82360e11b8152600490fd5b60405163473b50fd60e01b8152600490fd5b612228915060203d811161022a5761021c818361262b565b38612192565b5034610140576020366003190112610140576004356001600160a01b038116908190036106f857604060a09261227492612266612c2f565b508152601060205220614077565b6080604051918051835260208101516020840152604081015160408401526060810151606084015201516080820152f35b5034610140576020366003190112610140576004356001600160a01b038116908190036106f8576040610478926103fb926122de612af9565b508152601160205220614a74565b50346101405780600319360112610140576123056128e6565b50604051635da3780d60e01b8152600660048201526102e090818160248173c24FeF7BB2f7AB454A3f982eD3b4B8268fF850BD5af4918215610b61576104789392612359575b5050604051918291826124af565b61236f9250803d10611fe457611fd6818361262b565b388061234b565b50346101405780600319360112610140576001546040516001600160a01b039091168152602090f35b5034610140576020366003190112610140576004356001600160a01b0381811691829003610367576004602082600080516020615fa4833981519152541660405192838092638da5cb5b60e01b82525afa908115610231578491612447575b501633036101eb57600480546001600160a01b031916821790556040519081527feee59a71c694e68368a1cb0d135c448051bbfb12289e6c2223b0ceb100c2321d90602090a180f35b61245f915060203d811161022a5761021c818361262b565b386123fe565b503461014057806003193601126101405761247e612af9565b506104786103fb600d6148e0565b606080918051845260208101516020850152604081015160408501520151910152565b9190916102c06102e0820193805183526020810151602084015260408101516040840152606081015160608401526080810151608084015260a081015160a084015260c081015160c084015260e081015160e08401526101008082015190840152610120808201519084015261014080820151908401526101608082015190840152612544610180808301519085019061248c565b6101a08101519060208251926102009384870152015161022090818601526101c08201519261024093848701526101e08301516102608701528201516102808601528101516102a085015201511515910152565b805182526020810151602083015260408101516040830152606081015160608301526080810151608083015260a081015160a083015260c081015160c083015260e081015160e083015261010080820151908301526101208082015190830152610140808201519083015261016080820151151590830152610180808201511515908301526101a0809101511515910152565b601f909101601f19168101906001600160401b0382119082101761264e57604052565b634e487b7160e01b600052604160045260246000fd5b5190811515820361023c57565b9081602091031261023c57516001600160a01b038116810361023c5790565b908160e091031261023c5760c0604051916126ac60e08461262b565b805183526020810151602084015260408101516040840152606081015160608401526080810151608084015260a081015160a0840152015160c082015290565b60c08091805184526020810151602085015260408101516040850152606081015160608501526080810151608085015260a081015160a08501520151910152565b6001600160a01b03818116929091903384900361278c576127806020927f20ca5094f3a20c321cbe4123d0f01b276b81df0fa24cd4d83d9253956035d86394600054169061277a84615b25565b91615c11565b604051908152a2600190565b50505050600090565b604051906127a56101c08361262b565b816101a06000918281528260208201528260408201528260608201528260808201528260a08201528260c08201528260e082015282610100820152826101208201528261014082015282610160820152826101808201520152565b80916101c0928391031261023c5761281b604051928361262b565b805182526020810151602083015260408101516040830152606081015160608301526080810151608083015260a081015160a083015260c081015160c083015260e081015160e0830152610100808201519083015261012080820151908301526101408082015190830152610160612894818301612664565b908301526101806128a6818301612664565b908301526128b86101a0809201612664565b9082015290565b604051906128ce60808361262b565b60006060838281528260208201528260408201520152565b604051906128f66102608361262b565b816102406000918281528260208201528260408201528260608201528260808201528260a08201528260c08201528260e08201528261010082015282610120820152826101408201528261016082015261294e6128bf565b61018082015260405161296260408261262b565b8381528360208201526101a0820152826101c0820152826101e082015282610200820152826102208201520152565b8091036102e0811261023c576040805192610260906129b0828661262b565b80518552602081015160208601528281015183860152606081015160608601526080810151608086015260a081015160a086015260c081015160c086015260e081015160e08601526101008082015190860152610120808201519086015261014080820151908601526101608082015190860152608061017f1985011261023c57825193612a3f60808661262b565b61018093848301518652806101a0928385015160208901526101c09788860151838201526101e0978887015160608301528a01526101ff19011261023c576128b8946102c094612a918351938461262b565b61020092838601518152610220948587015160208301528a01526102409788860151908a015284015190880152610280830151908701526102a08201519086015201612664565b60405190612ae760608361262b565b60006040838281528260208201520152565b60405190612b096101208361262b565b8160008082528060208301528060408301528060608301528060808301528060a08301528060c083015260e0820152610100612b43612ad8565b910152565b60405190612b586101008361262b565b8160e06000918281528260208201528260408201528260608201528260808201528260a0820152604051612b8d60408261262b565b83815283602082015260c08201520152565b604090815191612bb060e08461262b565b60c0836000808252612c29845194602095612bcb878261262b565b838152868501528051612bde878261262b565b838152818501528051612bf1878261262b565b83815260608501528051612c05878261262b565b83815260808501528051612c19878261262b565b83815260a085015251948561262b565b83520152565b60405190612c3e60a08361262b565b60006080838281528260208201528260408201528260608201520152565b818102929160008212600160ff1b821416612c7f578184051490151715612c7f57565b634e487b7160e01b600052601160045260246000fd5b6000198114612c7f5760010190565b60405190612cb360408361262b565b81612cbc612af9565b81526020612b43612af9565b91908201809211612c7f57565b9091610120820190612ce9825151826145cc565b815151516000526013602052612d0260406000206157e2565b91612d0d8285613c8b565b9060408201511561309b575b8051519160a083519685612d57612d4d8960c08501518760208201519a86898901519160208a01519460408b015196614d7b565b9290965151614467565b60c082015160e06020860151918c60208201520152612e168360c08401516080828b0151612dfa6020880151612dd4612da1620f4240612d998c51518c615b12565b04809a613344565b612dcf620f4240612dc681612dba606088015186615b12565b04988996015184615b12565b04968792613344565b613344565b97612de460408701918251612cc8565b9052612df560608601938451612cc8565b612cc8565b9052612e0b60808301918251612cc8565b905201918251612cc8565b90520152825160005260136020526040600020926002600180603f1b0381612e438260208a015151615af5565b146130895760208701515160016001603f1b03199190612e64908390615af5565b156130895782612e798260408b015151615af5565b1461308957612e8d8260408a015151615af5565b1561308957612ea2839160608a015151615af5565b1461308957612eb690606088015151615af5565b15613089576080860151518190612ed5906001600160401b0390615bbe565b146130895760a0860151518190612ef4906001600160401b0390615bbe565b146130895760c086015151612f11906001600160401b0390615bbe565b1461308957846001610240957fd67bab6cdd205804bd5c55f9eebe24e2d16bcd12950b9fab152e727ae331f7329751151560001461308257815b6101008360481b0360208501515160081b1660ff8460481b8560881b0360408701515160481b16921617178260881b8360c81b0360608501515160881b161792828060401b03608082015151168360401b8460801b0360a08301515160401b16179060c08460801b85821b039101515160801b1617928155015551956040519283526020830152805160408301526020810151606083015260408101516080830152606081015160a0830152608081015160c083015260a081015160e083015260c0810151610100908184015260e0820151610120840152810151906101409182840152610120810151916101609283850152810151916101809283850152810151916101a09283850152810151916101c09283850152810151916101e092838501528101516102008401520151610220820152a3565b6000612f4b565b60405163693bbf3960e11b8152600490fd5b6130a7838251516144a1565b612d19565b91906101208301936020946130c58682510151836145cc565b81519060009182526013875260406130de8184206157e2565b95865115613331575b88835101519060e08251990151958a8701948551998b885260138d528c61310f878a206157e2565b6131176128bf565b9661312f8385015184840151948301948551916158ab565b89850151906131488b850151928c8501938451916158ab565b908d8282019283129112908015821691151617611d465761317860608701516060808701519501948551916158ab565b908d8282019283129112908015821691151617611d4657895260808501519360808401519051945190620f42409586928392516131b491613344565b906131be91615b12565b049160a08701519060a08601519051915190516131da91613344565b906131e491615b12565b046131ee91612cc8565b9360c001519160c0015190519151905161320791613344565b9061321191615b12565b0461321b91612cc8565b958c8501968752608083015198868601988a8a5260a08501519a606088019b808d5261324691612cc8565b61324f906159dd565b9088830190815189519082828201928312911290801582169115161761331d5781848203941281851281169185139015161761330957508f90948787957f537fc20b2c68750bd35f0521f860cddf4fc12323e0b41e684a2dac8ed0fcc1839f9d9b999760c09f9d9b9995966132db9760609252016132d081518d5190612cc8565b905252510151614467565b5183519a8b529b8a015251908801525160608701525160808601525160a08501526001600160a01b031692a4565b634e487b7160e01b81526011600452602490fd5b634e487b7160e01b82526011600452602482fd5b61333f858a855101516144a1565b6130e7565b91908203918211612c7f57565b80518210156133655760209160051b010190565b634e487b7160e01b600052603260045260246000fd5b92939490919460e0840151906040820151906133ba6133a26020610120890151015161471e565b93602081519101518181106000146135885790613344565b976133c489613c3e565b986133d26040519a8b61262b565b808a526133e1601f1991613c3e565b0160005b818110613c26575050839460005b8a516000198101908111612c7f578110156134955760018060a01b0388166000526012602052604060002090602060e08b0151015191600183018311612c7f5761347a828e61348b9361344c8360016134909901612cc8565b60005260205261345f6040600020614a74565b6134698383613351565b526134748282613351565b50613351565b5160206101208d01510151906145cc565b612c95565b6133f3565b5090929496979591939560206101008a015101518a5180600019810111612c7f57979891976134d7916134cc60001983018e613351565b52600019018b613351565b506000975b8a5189101561358f576134fc60806134f48b8e613351565b5101516159dd565b9660008882039812818912811691891390151617612c7f5761352360a06134f48b8e613351565b9660008882039812818912811691891390151617612c7f576135636135699261355561354f8c8f613351565b5161471e565b818110156135885790613344565b90613344565b9561358061357a61354f8a8d613351565b98612c95565b9790966134dc565b5080613344565b905084999598929693975093909381613aac575b50613a9a576060810151956135bf608083019788515190613344565b956040830196610220885101511115613a895760208301996101a08b510151151580613a65575b613a53576002613606602061010087015151015160e08b51015190615bbe565b14613a415761361e6020610100860151015184614218565b158015613a27575b613a1557613a09576001600160a01b03908116338114159182613974575b50508061393c575b61392a5760c082015161366b6020825192015160a08c51015190612cc8565b108015613908575b6138f65761368f88602061012085015101518951895191614864565b156136d85760005b85516000198101908111612c7f578110156136ea576136c5896136ba8389613351565b518a518a5191614864565b156136d8576136d390612c95565b613697565b60405163a8e7d40960e01b8152600490fd5b5093909491959792978151916000198301928311612c7f5761168c61371561373f9461373993613351565b5192519285516000808d136000146138f057508b945b6101c0825192015192614899565b90615ad4565b156138df57608060e08501510151602061012086015101515110806138cf575b6138bd5761376e8251846142f5565b90816138a5575b8161387f575b5061386d5761378b9051826142f5565b9182613809575b50816137f0575b506137de5760006137a991615af5565b1590816137ca575b506137b857565b60405163442145e560e01b8152600490fd5b6137d79150600090615af5565b15386137b1565b6040516303fa425960e21b8152600490fd5b61380291506060815191015190615af5565b1538613799565b6101009192500151516020810190815190613839604061382f6060840194855190612cc8565b9201518092615bbe565b1592831561384c575b5050509038613792565b61386493509061385c9151612cc8565b905190615bbe565b15388080613842565b60405163015f9ae760e41b8152600490fd5b61389e91506101006138948187015151614852565b9151015190615bbe565b153861377b565b90506138b6600060e0850151615af5565b1590613775565b60405163ba555da760e01b8152600490fd5b506138d98361444d565b1561375f565b604051621c56d560e31b8152600490fd5b9461372b565b60405163935bdc2160e01b8152600490fd5b5060e08201516139246020825192015160c08c51015190612cc8565b10613673565b6040516302ded67360e51b8152600490fd5b506139468161444d565b8061396c575b80613958575b1561364c565b506002613966600085615af5565b14613952565b50871561394c565b6020919250600080516020615fa483398151915254169160446040518094819363131bac4760e11b835260048301523360248301525afa9081156139fd576000916139c3575b50153880613644565b906020823d6020116139f5575b816139dd6020938361262b565b8101031261014057506139ef90612664565b386139ba565b3d91506139d0565b6040513d6000823e3d90fd5b50505050945050505050565b60405163229a307760e21b8152600490fd5b50613a3b6020610120860151015184614218565b15613626565b60405163376a1ec760e11b8152600490fd5b604051630a6ad31160e21b8152600490fd5b506002613a7460008551615af5565b14806135e65750613a84836141e4565b6135e6565b60405162558f1d60e91b8152600490fd5b6040516329a7bff360e11b8152600490fd5b1580159150613bea575b8015613b2f575b8015613aca575b386135a3565b50855160208701519060008282019283129112908015821691151617612c7f5760408701519060008282019283129112908015821691151617612c7f576000613b1291615af5565b60028114908115613b24575b50613ac4565b600191501438613b1e565b50613b44608082015160408301519088614397565b6000546040516370a0823160e01b815230600482015290602090829060249082906001600160a01b03165afa9081156139fd57600091613bb6575b50613ba99164e8d4a51000613ba39204808210600014613baf57505b600019615a06565b83615af5565b15613abd565b9050613b9b565b906020823d602011613be2575b81613bd06020938361262b565b81010312610140575051613ba9613b7f565b3d9150613bc3565b506020610120820151015160808201516040830151848a0391600086128b84128116908c851390151617612c7f57613c2193614864565b613ab6565b808b60208093613c34612af9565b92010152016133e5565b6001600160401b03811161264e5760051b60200190565b919082606091031261023c57604051613c6f60608261262b565b6040612b43818395805185526020810151602086015201612664565b9190613c95612ad8565b5051613c9f612ad8565b50600254604051630e0886f960e41b81526004810192909252606090829060249082906001600160a01b03165afa9081156139fd57600091613d06575b50613ce681613d3f565b8092604082015115613cf6575050565b60e060c060209201510151910152565b60603d8111613d38575b613d1a818361262b565b810191606082840312610140575090613d3291613c55565b38613cdc565b503d613d10565b6003546001600160a01b03169081613d55575050565b6020016020815160246040518095819363d7c7a93560e01b835260048301525afa9182156139fd57600092613d88575052565b90916020823d8211613db0575b81613da26020938361262b565b810103126101405750519052565b3d9150613d95565b613dc0612b48565b5060018154910154604051613dd660408261262b565b8160e01b60e01d81528160c81b60e81d602082015260405192613dfb6101008561262b565b63ffffffff80821685528160201c16602085015265ffffffffffff808260401c166040860152808260701c1660608601528160a01c16608085015260d01c60a084015260c083015260881b60c01d60e082015290565b91909163ffffffff908184511161401b57602091828501928184511161401b576040918287019260029365ffffffffffff9185613e8f848451615bbe565b1461400b5760608a019086613ea5858451615bbe565b1461400b5760808b019287613ebb868651615bbe565b14613ffa5787613ed060a08e01968751615bbe565b14613ffa5760c08c019988613eeb637fffffff8d5151615af5565b14613fe957613f01637fffffff198c5151615af5565b15613fe95788613f18627fffff8a8e510151615af5565b14613fe957613f2f627fffff19898d510151615af5565b15613fe95760e08d0198613f4a600180603f1b038b51615af5565b14613fe9578851613f649060016001603f1b031990615af5565b15613fe9578660019b9c9d51169063ffffffff60201b9051891b16179165ffffffffffff60401b9151901b16179065ffffffffffff60701b905160701b16179065ffffffffffff60a01b905160a01b1617905160d01b17955190815116918062ffffff60201b920151901b1617908360381b8460781b03905160381b16179281550155565b8251632142bc2760e01b8152600490fd5b8151632142bc2760e01b8152600490fd5b51632142bc2760e01b8152600490fd5b604051632142bc2760e01b8152600490fd5b815191604060208201519101516040830152602082015252565b919215908115614067575b506140605760800152600190565b5050600090565b9050608082015190511038614052565b61407f612c2f565b50546040519061409060a08361262b565b63ffffffff908181168352818160201c1660208401528060801b60c01d604084015260018060401b038160801c16606084015260c01c16608082015290565b9063ffffffff808251116141d25760208201818151116141d257604090818401906002614103600180603f1b038451615af5565b146141c157815161411d9060016001603f1b031990615af5565b156141c1576060850193600261413a60018060401b038751615bbe565b146141b05760808601958187511161419f5751915192519451955160c01b63ffffffff60c01b1660809690961b600160801b600160c01b03169490931b600160401b600160801b031660209290921b63ffffffff60201b169216919091171717179055565b845163320f423b60e21b8152600490fd5b835163320f423b60e21b8152600490fd5b825163320f423b60e21b8152600490fd5b60405163320f423b60e21b8152600490fd5b60026141f560006020840151615af5565b14908115614201575090565b6002915060006040614214920151615af5565b1490565b805115918291826142e8575b836142db575b836142ce575b831561428a575b8315614244575b50505090565b604001511592509082614282575b5081614275575b81614268575b5038808061423e565b602091500151153861425f565b6060810151159150614259565b915038614252565b9250602083015115806142c2575b806142b6575b806142aa575b92614237565b506060810151156142a4565b5060408101511561429e565b50604083015115614298565b6040820151159350614230565b602082015115935061422a565b6020810151159350614224565b906101a0810151159182614357575b8261430e57505090565b6020810151159250908261434a575b821561433c575b50811561432f575090565b61433991506141e4565b90565b610160015115915038614324565b604082015115925061431d565b809250518015908115614389575b8115614373575b5091614304565b60029150600061438291615af5565b143861436c565b610180830151159150614365565b6143ba906119d360406119cb6143ad8451615f72565b6119d36020860151615f72565b9081156144455761440f60206143f06119aa936143e461014096620f424096879586940151615f72565b04602087015190615b12565b046101e085015180821160001461443e57505b61012085015190615b12565b046101608301518082106000146144365750915b015180821115614431575090565b905090565b905091614423565b9050614403565b505050600090565b614463906119d360406119cb6143ad8451615f72565b1590565b8151916020810151906060604082015191015160608401526040830152602082015252565b60c06000918260808201528260a08201520152565b6101008101519182519260208301916144ba83516159dd565b9360208201946144ca86516159dd565b968782039160008099128184128116918413901516176113585787828201928312911290801582169115161761136c5783526020830195865193604083019761451389516159dd565b90604086019661452388516159dd565b928584820394128185128116918513901516176145b8578483820193841291129080158216911516176111995790604092915201946060865193019561456987516159dd565b90606086019461457986516159dd565b928584820394128185128116918513901516176145b8578483820193841291129080158216911516176111995752519651945160809390930152525252565b634e487b7160e01b85526011600452602485fd5b906101008091015190820151916145e1612ad8565b91805184519081810390600080931281831281169183139015161761331d57845260208201519160208601519282848203941281851281169185139015161761331d5760408091602087019485520151950151948186820396128187128116918713901516176133095760408401948552602083019361466185516159dd565b90519082828201928312911290801582169115161761331d5761468390615b3f565b94604084019261469384516159dd565b905190838282019283129112908015821691151617611f2f576146b7606091615b3f565b9401916146c483516159dd565b91519181838201938412911290801582169115161761330957506146e790615b3f565b90525252565b60a061471a9160808101614708815161010087015190612cc8565b90520191610120835191015190612cc8565b9052565b602060408201516060830151808211600014614436575091015180821115614431575090565b61475e606061475660408401516159dd565b9201516159dd565b9060008282039212818312811691831390151617612c7f5761433990615f72565b90614789826147ed565b6000929061479957505050600090565b6147a660408201516159dd565b926147b460608301516159dd565b938185820395128186128116918613901516176133095750620f42406147e761168c6143399594612df56118a9956147ed565b92612c5c565b60606040820151910151808211600014614431575090565b61482a90614824614815826147ed565b916119d360208201519161483a565b90615ba3565b620f424080821015614431575090565b60606040820151910151808210600014614431575090565b61482a906148246020820151916147ed565b61168c9061373992936143399560008082136000146148915750945b6101e0602083015192015192614899565b905094614880565b90916148a48261471e565b1561278c576020926148cc6148bb6148d29461471e565b6119aa620f42409687940151615f72565b04615b12565b049080821115614431575090565b6148e8612af9565b5060018154910154906040519061490060608361262b565b8260801b60c01d82528260401b60c01d60208301528260c01d60408301526040519261492e6101208561262b565b63ffffffff8216845260018060401b0380911660208501528160801c1660408401528060c01c606084015265ffffffffffff90818160201c16608085015260501c1660a0830152600060c0830152600060e083015261010082015290565b9061499681614c64565b602081019060018060401b039160026149b0848351615bbe565b14614a6257604082019260026149c7828651615bbe565b14614a6257606083019060026149de828451615bbe565b14614a625760019461010060409263ffffffff87511665ffffffffffff60201b608089015160201b161765ffffffffffff60501b60a089015160501b16178860801b8960c01b0380945160801b161794519551169501519486831b8760801b038651841b161790602086015160801b16179301519160c01b17845560c01b17910155565b6040516352a8a97f60e01b8152600490fd5b614a7c612af9565b50805460019091015460016001603e1b03600282901c1691600382169181600084614b4f5750845b600060018603614b49575080945b600090600203614b4257505b604090815195614acf60608861262b565b60c0948060801b861d885280841b861d6020890152851d83880152825197614af96101208a61262b565b63ffffffff85168952602089015282880152606087015265ffffffffffff808360201c1660808801528260501c1660a08701521b811d818501521d60e083015261010082015290565b9050614abe565b94614ab2565b94614aa4565b614b5e82614c64565b600180603e1b03906002614b76836020860151615bbe565b14614a625760408301916002614b8d828551615bbe565b14614a62576002614ba360608601928351615bbe565b14614a62576001925115600014614c5c5751614c555760005b925b604063ffffffff82511665ffffffffffff60201b608084015160201b161765ffffffffffff60501b60a084015160501b16178460801b8560c01b03908160c085015160801b161760e084015160c01b1795610100600487851b03614c218661471e565b60021b1694015193600387851b8860801b038651861b169216171790602084015160801b161791015160c01b179281550155565b6002614bbc565b508192614bbe565b63ffffffff815111614a6257600265ffffffffffff81614c88826080860151615bbe565b14614a6257614c9c829160a0850151615bbe565b14614a625760c0820190600180603f1b039281614cba858551615af5565b14614a6257915160016001603f1b03199290614cd7908490615af5565b15614a625760e0810182614cec868351615af5565b14614a625783614cfc9151615af5565b15614a6257610100019281614d1382865151615af5565b14614a6257614d2483855151615af5565b15614a625781614d3982602087510151615af5565b14614a6257614d4d83602086510151615af5565b15614a6257614d6190604085510151615af5565b14614a62576040614d7492510151615af5565b15614a6257565b9593949297969060405198614d926102008b61262b565b60008a52600060208b0152600060408b0152600060608b0152600060808b0152600060a08b0152600060c08b0152600060e08b015260006101008b015260006101208b015260006101408b015260006101608b015260006101808b015260006101a08b015260006101c08b015260006101e08b015289604086015115158952614e1d8783878c61571a565b919082602083015281526101a088015161570c57505060c0614e3d6128bf565b920151614e566101a0850151926102008601519061477f565b8851928751620f4240614e718c6119aa60206119cb8d6157b5565b0484614eac614e9b620f42406118a98a614e9683614e9660208951990151938b613344565b612c5c565b6118a9620f42406147e788516159dd565b8080830112801560008412169060008412151617612c7f57614ef1614ed2828401615ab4565b6020870151614ee2848601615f72565b80821015615704575090615a06565b94614f04614eff8a87613344565b615b62565b90828401848103818112600087129081169290911390151617612c7f576002614f3b6020614f3187615f72565b9301518093615bbe565b036156c357506000925b8281018103615651575050505081620f4240810204620f42401482151715612c7f57620f42408202955b855190848083011260008312908015821691151617612c7f5780620f4240810204620f42401481151715612c7f578288614fc69387620f4240614fb495029101615bcf565b6118a9620f42406147e7816002612c5c565b9582620f4240810204620f42401483151715612c7f57620f4240614fec93029084615bcf565b92848085011260008512908015821691151617612c7f5761506f94614fb494620f4240946020846150639661505b96520152818101916102408a015115158061562a575b615605575b505061504b846118a983614e9683600019612c5c565b8160408901526020880152615f72565b895190615b12565b048060608501526159dd565b9060208101519061508360608201516159dd565b90600082128383810312811690848481031390151617612c7f5783808385030112600083850312908015821691151617612c7f57604081015180858103126000861216818681031360008712151617612c7f5784808b948a968a98850360408701520301602084015260026151016040880151606089015190615bbe565b146155b6575b50508b8a60026151206060880151604089015190615bbe565b14615561575b651cae8c13e000956119aa614eff620f4240976152006152069861520c9c9860408c9961519060608b61516860206148cc9e01518d6020895191015191615927565b61517f858201518d8760208a015191015191615927565b01518385015160608c015191615927565b82519260208101519060608482015191015160a08401526080830152606082015201526151f6610180896151ec6151d060408b015160608c015190612cc8565b60208b01518082101561555a57505b6119aa6020870151615f72565b049a015196614805565b9051925195615c54565b93613344565b04615b84565b620f424061521e602086015183615b12565b04615228836147ed565b61553257615235826159dd565b9061523f836159dd565b92600083128484810312811690858581031390151617612c7f57620f42406118a961527061168c8561529e95613344565b9561528a836118a961528482600019612c5c565b89612c5c565b9561529784600019612c5c565b9103612c5c565b906152b360208a015185602088015191615927565b6152c760408a015184604088015191615927565b6152db60608a015183606088015191615927565b6101208b01526101008a015260e089015260c08801526020820151602085015190600082128183810312811690828481031390151617612c7f576118a9620f42409161534a936152976153376020880151606089015190612cc8565b60408801518082101561552b57506159dd565b6020850151602084015190600082128183810312811690828481031390151617612c7f576118a9620f4240916153a393615297615390602089015160408a015190612cc8565b60608901518082101561552b57506159dd565b90818082011260008212908015821691151617612c7f576153d8620f42406118a96153d082600019612c5c565b858501612c5c565b916153ed604089015183604087015191615927565b615401606089015182606087015191615927565b615415602089015184602087015191615927565b6101808a015261016089015261014088015260009461543f614eff60009660009551905190613344565b9360208301516154fc575b60408301516154cc575b6060830151615497575b50505090506101e08501526101c08401526101a083015261433961548b602084015160a085015190612cc8565b61012084015190612cc8565b6154c39350620f42406154b460c096610120606094015190615b12565b049485920151920151916159c6565b8038808061545e565b9450620f42406154e161010087015186615b12565b04946154f760a0830151876040860151916159c6565b615454565b9550620f424061551060e088015186615b12565b04956155266080830151886020860151916159c6565b61544a565b90506159dd565b61523561168c604085015161555561554e606088015183612cc8565b9186615b12565b615b7a565b90506151df565b505092505050615582620f42406118a96020840151611e1b61168c8861577a565b8082526020820151600082128183810312811690828481031390151617612c7f570360208201528290849087908b8a615126565b6155d19450620f4240935061529761168c6118a9949761577a565b8082526040820151600082128183810312811690828481031390151617612c7f578492869289920360408201523880615107565b615623925085916118a99161561c84600019612c5c565b9101612c5c565b3880615035565b508a61564a615645600061563f858701615ab4565b9361477f565b615ab4565b1415615030565b89620f4240810204620f4240148a151715612c7f5761568e9361567d8261568395615555940103615f72565b92615b12565b620f42408802612cc8565b82620f4240810204620f42401483151715612c7f57620f424083028110156156b7575b95614f6f565b50620f424082026156b1565b6156d9906156d48585810103615ab4565b615a06565b80848103126000851216818581031360008612151617612c7f57836156fe9103615f72565b92614f45565b905090615a06565b9a5098975050505050505050565b939192906020019081511561576b57906020615754620f424061574b60806040615769970151980197885190615b12565b04809651613344565b95015190615761866159dd565b905191615927565b565b50509150608001519060009190565b615783816157b5565b61578d5750600090565b806157af6157a96157a0614339946157b5565b6135638461483a565b916157b5565b90615b84565b6157d66157c1826147ed565b9160206157cd8261483a565b91015190612cc8565b80821015614431575090565b6157ea612b9f565b506001815491015460408051602091615803838361262b565b8460b81b60c01d82528051615818848261262b565b8560781b60c01d815281519161582e858461262b565b8660381b60c01d8352805193615844868661262b565b6001600160401b0387811686528251969061585f828961262b565b8089851c168852835198615873838b61262b565b60801c16885260ff83519961588960e08c61262b565b16151589528801528601526060850152608084015260a083015260c082015290565b519051808203929160009091128015828513169184121617612c7f576000196158d383615ab4565b036159135761433991611e1b6158e8926159dd565b611e1b6158f482615ab4565b61590e615908620f424092611e1b84615ab4565b93615f72565b615a65565b6118a961433992611e1b620f4240936159dd565b909182156159c15781519261593b81615ab4565b9160001983036159a6576117d46117d4615957615961936159dd565b94611e1b86615ab4565b91620f424090818102918183041490151715612c7f5761598a9261598491615a65565b90615a06565b915b60008382019384129112908015821691151617612c7f5752565b6159bb9250620f42406147e76118a9926159dd565b9161598c565b505050565b919080156159c1576119d361471a92845192615b84565b6001600160ff1b0381116159ee5790565b6024906040519063eecaa25d60e01b82526004820152fd5b60008113615a2a57600013615a1b5750600090565b615a24906159dd565b60000390565b50614339906159dd565b8115615a4f57600160ff1b8114600019831416612c7f570590565b634e487b7160e01b600052601260045260246000fd5b908015615aa25760009180615a7c57505050600090565b6000198101908111611f2f5790615a9291615b7a565b9060018201809211613309575090565b6040516323d359a360e01b8152600490fd5b60008113615ace57600013615ac857600090565b60001990565b50600190565b90615ade91615af5565b60028114908115615aed575090565b600191501490565b818113615b0b5712615b0657600190565b600090565b5050600290565b81810292918115918404141715612c7f57565b64e8d4a5100090818102918183041490151715612c7f5790565b60008112615b4a5790565b6024906040519063b02ef08760e01b82526004820152fd5b620f424090818102918183041490151715612c7f5790565b8115615a4f570490565b90620f424091828102928184041490151715612c7f5761433991615b7a565b9080615bb55750615ac857620f424090565b61433991615b84565b818111615b0b5710615b0657600190565b6118a9916118a961433995611e1b615bfc61168c976118a9615c0297611e1b620f42409b8c998a95613344565b916159dd565b916147e7816301e13380612c5c565b60405163a9059cbb60e01b60208201526001600160a01b039283166024820152604480820194909452928352615769929190615c4e60648461262b565b16615d86565b90606082018051615c658184615bbe565b15615ca15750620f424090615c7a8284615bbe565b15615c89575050506020015190565b90614339939151916020604082015191015192615cb2565b839150604061433994519201519160005b90615cc3615cc991959394956159dd565b946159dd565b92615cd48284615bbe565b158015615d58575b615d465781615cea91613344565b90848403926000948587128186128116918613901516176145b85792611e1b61168c620f424094615d216118a995615d2698613344565b615b84565b818382019384129112908015821691151617613309575061433990615b3f565b604051634a83a53f60e01b8152600490fd5b506002615d658285615bbe565b14615cdc565b6001600160401b03811161264e57601f01601f191660200190565b60209190615e10906001600160a01b0316615da084615d6b565b90615dae604051928361262b565b8482527f5361666545524332303a206c6f772d6c6576656c2063616c6c206661696c6564858301526000808587829751910182855af13d15615e9a573d91615df583615d6b565b92615e03604051948561262b565b83523d868885013e615e9e565b90815180615e1f575b50505050565b82849181010312610140575081615e369101612664565b15615e4357808080615e19565b6084906040519062461bcd60e51b82526004820152602a60248201527f5361666545524332303a204552433230206f7065726174696f6e20646964206e6044820152691bdd081cdd58d8d9595960b21b6064820152fd5b6060915b91929015615f005750815115615eb2575090565b3b15615ebb5790565b60405162461bcd60e51b815260206004820152601d60248201527f416464726573733a2063616c6c20746f206e6f6e2d636f6e74726163740000006044820152606490fd5b825190915015615f135750805190602001fd5b6040519062461bcd60e51b82528160208060048301528251908160248401526000935b828510615f59575050604492506000838284010152601f80199101168101030190fd5b8481018201518686016044015293810193859350615f36565b6000808212615f7f575090565b039056fea9c835c21e93a672e5a6ef8ca0374f90b7d4378f7eec5769dcf22fdefd60ffae0aec74a1754fb10877b53c31a29be82096082042eb1fb374ec96fac88c0e621ba26469706673582212206ff859d0f33ab372f734586a40f06145f9c930efae09977dae12a9af2b3e5e7264736f6c63430008130033",
  "deployedBytecode": "0x6080604052600436101561001257600080fd5b6000803560e01c806309218e91146124655780630aaffd2a1461239f578063228cb733146123765780634549a629146122ec57806355f57510146122a55780635b4b96951461222e578063632447c9146121325780637dc0d1d01461210957806387aee00e1461208957806391eece2814610e6b57806395fcd83614610e4257806399d32fc414610cc6578063a05f990614610c45578063a1d0a11314610c11578063ad4d4e2914610b6c578063b329230e1461078d578063b88a802f146106fc578063b9bcc3bd146104b2578063c45a01551461047c578063ce813aed146103a8578063d26b3e2614610241578063f9f94e34146101435763fc0c546a1461011a57600080fd5b34610140578060031936011261014057546040516001600160a01b039091168152602090f35b80fd5b5034610140576020366003190112610140576004356001600160a01b038181169182900361023c576004602082600080516020615fa4833981519152541660405192838092638da5cb5b60e01b82525afa908115610231578491610203575b501633036101eb57600580546001600160a01b031916821790556040519081527fc258faa9a17ddfdf4130b4acff63a289202e7d5f9e42f366add65368575486bc90602090a180f35b604051634d193d1f60e01b8152336004820152602490fd5b610224915060203d811161022a575b61021c818361262b565b810190612671565b386101a2565b503d610212565b6040513d86823e3d90fd5b600080fd5b5034610140576060366003190112610140577f6fee9688c285c5c5c97d6a1a29adced674e6b2ad0888b8ad2116b58a8b3ea24860018154101561038f5760019055303b151580610388575b61036f5733600080516020615fa483398151915255303b151580610381575b61036f576001600080516020615f84833981519152556001600160a01b03600435818116908190036103675782546001600160a01b031990811690911783556024358281169081900361036b57816002541617600255604435918216809203610367576003541617600355807f2801b00eb06461cf9fcb9758b5fafd884ff06a86177386f73b6c49f0bf5a5af0557fbe9b076dc5b65990cca9dd9d7366682482e7817a6f6bc7f4faf4dc32af497f32602060405160018152a180f35b8280fd5b8380fd5b60405163b9a621e160e01b8152600490fd5b50806102ab565b508061028c565b604051631edb9c6d60e11b815260016004820152602490fd5b5034610140576040366003190112610140576004356001600160a01b038116919082900361023c5760406103fb91610478936103e2612af9565b5081526012602052818120602435825260205220614a74565b60405191829182919091610140604061016083019480518452602081015160208501528181015182850152606081015160608501526080810151608085015260a081015160a085015260c081015160c085015260e081015160e0850152610100809101519081519085015260208101516101208501520151910152565b0390f35b5034610140578060031936011261014057600080516020615fa4833981519152546040516001600160a01b039091168152602090f35b5034610140576101c0806003193601126106f857604051906104d4818361262b565b6004358252602435602083015260443560408301526064356060830152608435608083015260a43560a083015260c43560c083015260e43560e083015261010435610100830152610124356101208301526101443561014083015261016435801515810361023c5761016083015261018435801515810361023c576101808301526101a435801515810361023c576101a0830152600080516020615fa483398151915254604051638da5cb5b60e01b81526001600160a01b039182169190602081600481865afa80156106ed57829187916106cf575b501633036101eb57849160049160e073__$c5b758809b18b7c9fcabb156ae018568b0$__926040519485809263ad4d4e29851b82525afa92831561023157849361069e575b506001541691813b1561036b576102e461063691859360405195869485936310317ba160e11b85526009600486015261062b602486018d612598565b6101e48501906126ec565b6102c48301525af480156106935761067e575b50507ff12be1637c87b6840bce6a43024d842fdde312893b5711402d511dc296b61fc69161067a6040518092612598565ba180f35b816106889161262b565b610367578238610649565b6040513d84823e3d90fd5b6106c191935060e03d60e0116106c8575b6106b9818361262b565b810190612690565b91386105ef565b503d6106af565b6106e7915060203d811161022a5761021c818361262b565b386105aa565b6040513d88823e3d90fd5b5080fd5b5034610140578060031936011261014057338152601060205261078a61072460408320614077565b8260018060a01b036001541661074a60608401916107428351615b25565b903390615c11565b80516040519081527f106f923f993c2149d49b4255ff723acafa1f2d94393f561d3eda32ae348f724160203392a2523383526010602052604083206140cf565b80f35b5034610140576102e0366003190112610140576040516107af6102608261262b565b6004358152602435602082015260443560408201526064356060820152608435608082015260a43560a082015260c43560c082015260e43560e0820152610104356101008201526101243561012082015261014435610140820152610164356101608201526080610183193601126106f85760405161082f60808261262b565b6101843581526101a43560208201526101c43560408201526101e43560608201526101808201526040610203193601126106f85760405161087160408261262b565b6102043581526102243560208201526101a0820152610244356101c0820152610264356101e0820152610284356102008201526102a4356102208201526102c43515156102c4350361023c576102c4356102408201526005546001600160a01b031633141580610aee575b610adc57600080516020615fa48339815191525460405163ad4d4e2960e01b8152839160e090829060049082906001600160a01b03165afa908115610693578291610abd575b5073__$f0b9cef6bb3cbdd03cb6172b8c4e9f952f$__3b156106f857610a49604051916302903c7960e21b83526006600484015284516024840152602085015160448401526040850151606484015260608501516084840152608085015160a484015260a085015160c484015260c085015160e484015260e08501516101048401526101008501516101248401526101208501516101448401526101408501516101648401526101608501516101848401526109e86101808601516101a485019061248c565b60206101a0860151805161022486015201516102448401526101c08501516102648401526101e08501516102848401526102008501516102a48401526102208501516102c484015261024085015115156102e48401526103048301906126ec565b81816103e48173__$f0b9cef6bb3cbdd03cb6172b8c4e9f952f$__5af4801561069357610aa8575b506040517f823c5e592916c45a8b43a655f22eb029f79dfd3c63f6d122df594aaf83e09b029080610aa285826124af565b0390a180f35b81610ab29161262b565b6106f8578138610a71565b610ad6915060e03d60e0116106c8576106b9818361262b565b38610922565b604051639bca062560e01b8152600490fd5b50600080516020615fa483398151915254604051638da5cb5b60e01b815290602090829060049082906001600160a01b03165afa908115610b61578391610b42575b506001600160a01b03163314156108dc565b610b5b915060203d60201161022a5761021c818361262b565b38610b30565b6040513d85823e3d90fd5b5034610140578060031936011261014057610b85612795565b506040516338ecab9f60e21b8152600960048201526101c09190828160248173__$c5b758809b18b7c9fcabb156ae018568b0$__5af4918215610c055791610bd8575b50610bd66040518092612598565bf35b610bf89150823d8411610bfe575b610bf0818361262b565b810190612800565b38610bc8565b503d610be6565b604051903d90823e3d90fd5b5034610140576020366003190112610140576103fb604061047892610c34612af9565b506004358152600f602052206148e0565b5034610140578060031936011261014057610c5e612b48565b50610120610c6c600b613db8565b60e060405191805183526020810151602084015260408101516040840152606081015160608401526080810151608084015260a081015160a0840152602060c0820151805160c08601520151828401520151610100820152f35b5034610140578060031936011261014057610ce1600b613db8565b600080516020615fa48339815191528054604051638da5cb5b60e01b81526001600160a01b0393928592602092908390829060049082908a165afa80156102315760049285889286948291610e25575b50610d4260408a019182519061272d565b610e1d575b5050541660405192838092630c7f7fb960e41b82525afa918215610b61578392610de2575b5050928161078a94610d866060860191848351911661272d565b610dda575b508160055416610da1608086019182519061272d565b610dd2575b505060045416610dbc60a084019182519061272d565b610dca575b5050600b613e51565b528238610dc1565b528138610da6565b528138610d8b565b90809250813d8311610e16575b610df9818361262b565b810103126106f857519280841684036106f857928161078a610d6c565b503d610def565b528538610d47565b610e3c9150853d871161022a5761021c818361262b565b38610d31565b50346101405780600319360112610140576003546040516001600160a01b039091168152602090f35b50346101405760c0366003190112610140576004356001600160a01b03811690036101405760a435151560a43503610140576002600080516020615f848339815191525414612077576002600080516020615f8483398151915255600080516020615fa483398151915254604051635c975abb60e01b81526001600160a01b0390911690602081600481855afa908115610b6157839161203d575b5061202b57600460e060405192610f1f6101408561262b565b604051610f2c838261262b565b8581528560208201528560408201528560608201528560808201528560a08201528560c08201528452610f5d612795565b6020850152610f6a6128e6565b6040850152846060850152610f7d612ad8565b6080850152610f8a612ad8565b60a0850152610f97612b48565b60c0850152610fa4612c2f565b82850152610fb0612ca4565b610100850152610fbe612ca4565b6101208501526040519283809263ad4d4e29851b82525afa908115610b6157839161200c575b5081526040516338ecab9f60e21b8152600960048201526101c08160248173__$c5b758809b18b7c9fcabb156ae018568b0$__5af4908115610b61578391611feb575b506020820152604051635da3780d60e01b8152600660048201526102e08160248173__$f0b9cef6bb3cbdd03cb6172b8c4e9f952f$__5af4908115610b61578391611fba575b50604082015261107d600b613db8565b60c08201526004356001600160a01b031682526010602052604082206110a290614077565b60e08201526110af612ad8565b50600254604051631006976960e11b815290608090829060049082906001600160a01b03165afa8015610b615783918491611f78575b506110ef82613d3f565b6060830152608082015261110c611106600d6148e0565b82613c8b565b60a082015261111b600d6148e0565b610120820151526004356001600160a01b0316825260116020526040822061114290614a74565b60206101208301510152611154612af9565b905b60c081015160208151910151809114159081611f43575b50156111ad57602060c0820151015160018101811161119957826001611194920183612cd5565b611156565b634e487b7160e01b84526011600452602484fd5b91905b60e083015160208151910151141580611ede575b15611394576004356001600160a01b0316825260126020908152604080842060e0868101518401518652925283206111fb90614a74565b015192602060e08201510151600181018111611199578260016112229201600435846130ac565b60018060a01b03600435168352601260205260408320602060e08301510151845260205261125260408420614a74565b60018060a01b0360043516845260126020526040842060e083015151855260205261127f60408520614a74565b9460e06040818501510151960151958582128783810312811690888481031390151617611380578187038681128015918303838113929092169183131617611380576112ce60808601516159dd565b908288038103878112801591840184139182169115161761136c576112f660a08701516159dd565b928089038203830188811280159186018613918216911516176113585761135195969798039003010160c082015260018060a01b03600435168552601260205260408520602060e08501510151865260205260408520614b55565b91906111b0565b634e487b7160e01b88526011600452602488fd5b634e487b7160e01b87526011600452602487fd5b634e487b7160e01b86526011600452602486fd5b50608082015151610120830151515110611e8e575b608082015151602061012084015101515110611e27575b60e060c083015101516020608084015101526113e361012083015151600d61498c565b6004356001600160a01b0316815260116020908152604082206101208401519091015161140f91614b55565b60443591602435608435606435611424612ca4565b60c0850151518652600f60205261143d604087206148e0565b815260018060a01b0360043516865260126020526040862060e08601515187526020526114d061010061147260408920614a74565b6020840190815261148b84516101208a015151906145cc565b6114a0815160206101208b01510151906145cc565b6114b88285510151836101208b01515101519061402d565b5101516101006020610120890151015101519061402d565b61010085015260016114e6600160ff1b84615af5565b14611df9575b60016114fa60001985615bbe565b14611de4575b600161150e60001988615bbe565b14611dcf575b600161152260001983615bbe565b14611dbb575b6060840151602061010086015101515110611d93575b6060840151610100850151515110611d6e575b60206101008501510151956060850151604051976115716101408a61262b565b8789528760208a01528760408a01528760608a01528760808a01528760a08a01528760c08a01528760e08a0152876101008a0152876101208a01526115b5866159dd565b6115c260208301516159dd565b908982128183810312811690828481031390151617611d5a576115e4856159dd565b6115f160408501516159dd565b908b82128183810312811690828481031390151617611ced57611613886159dd565b61162060608701516159dd565b908d82128183810312811690828481031390151617611d32578e91604091039101520360208c0152038952836060820152826040820152856020820152526101008501515160608601519061020060408801510161167f81518361477f565b9261169161168c84614744565b6159dd565b61169d61168c85614852565b8c60c06116ac61168c88614805565b91015260e08d015260608c01526116c660208401516159dd565b8b519081808201128c8212908015821691151617611ced576116e89101615b3f565b6116f560408501516159dd565b60208d01519081808201128d8212908015821691151617611d465761171a9101615b3f565b8c604061172a60608801516159dd565b910151908d8280830112908212908015821691151617611d325761174e9101615b3f565b606086015260408501526020840152825261176b61168c83614744565b9160608b0151938a85128486810312811690858781031390151617611d0a5761179583518361477f565b8b82128183810312811690828481031390151617611ced5761168c6117d461168c6117cf6117c7866117da9603615f72565b97518761477f565b615f72565b92615f72565b918b83128284810312811690838581031390151617611ced578c60e061180261168c84614852565b910151918d83128284810312811690838581031390151617611d32578e60c08f9261168c61182f91614805565b9101519182128183810312811690828481031390151617611d1e578f9160c091039101520360e08d01520360a08b015260808a01520360608801526080850151602086015190604087015161188760a08201516159dd565b6118ae620f42406118a98d60c06118a0818801516159dd565b91015190612c5c565b615a34565b9081808201128b8212908015821691151617611d0a57908b918b82820113600014611d015701915b611904620f42406118fe6118ed60408501516159dd565b946080606086015191015190615b12565b046159dd565b9081808401128c8412908015821691151617611ced57620f42406118a98e60a06118a060806119349601516159dd565b91828083830101128c83830112908015821691151617611ced576119aa620f42406119b08f96978f6119d9846119b76119e79c6119aa836119b08f9c829f6119e09f9061199d916020938c6119aa9d5080848484010113600014611ce3575001019e5b51615f72565b9901986119aa8a51615f72565b90615b12565b0491615b3f565b04996119d360406119cb6020840151615f72565b920151615f72565b90612cc8565b9151615f72565b0490612cc8565b6101a082015115611cde5750865b610100890152611a048861444d565b15611cd45750855b610120880152611a2587602061010088015101516146ed565b611a3587610100870151516146ed565b604060e08601510180518480820112888212908015821691151617611358578401905260e06020610100870151015101805184808201128882129080158216911516176113585784019052611aa260e0860151602061012088015101519060a43591606089015191614047565b611aab8861444d565b15611c59575b611ac49084611bc898996004358961337b565b60c0850151518752600f602052611ae560408820610100870151519061498c565b6004356001600160a01b0316875260126020908152604080892060e0880151518a528252882061010087015190910151611b1e91614b55565b611b2783615ab4565b60018114611c02575b60001914611bdd575b606085015193604051948552602085015260408401526060830152608082015260a435151560a082015260018060a01b0360043516907f29083474b417ce11b6e16e049302e231f5d3d753484fe3e8155ea0b7ffe4f3c160c03392a3611ba460c0820151600b613e51565b6004356001600160a01b0316835260106020526040832060e09190910151906140cf565b6001600080516020615f848339815191525580f35b8654611bfd906001600160a01b0316610742611bf886615f72565b615b25565b611b39565b8754611c54906001600160a01b0316611c1d611bf887615f72565b90604051916323b872dd60e01b6020840152336024840152306044840152606483015260648252611c4f60848361262b565b615d86565b611b30565b6002546001600160a01b0316803b15611cd0576040516313e3c62160e11b8152600480356001600160a01b0316908201529088908290602490829084905af18015611cc557611ca9575b50611ab1565b908488611cbc611bc89a611ac49561262b565b98505090611ca3565b6040513d8a823e3d90fd5b8780fd5b6101400151611a0c565b6119f5565b925050509e611997565b634e487b7160e01b8c52601160045260248cfd5b505089916118d6565b634e487b7160e01b8b52601160045260248bfd5b634e487b7160e01b8f52601160045260248ffd5b634e487b7160e01b8e52601160045260248efd5b634e487b7160e01b8d52601160045260248dfd5b634e487b7160e01b8a52601160045260248afd5b60c0840151611d7d8151612c95565b9052611d8e6101008501515161448c565b611551565b60e0840151611da28151612c95565b9052611db66020610100860151015161448c565b61153e565b506060602061010085015101510151611528565b61010084015160200151604001519550611514565b91506020806101008501510151015191611500565b9050611e21604060e085015101516118a9620f424091611e1b83600019612c5c565b90612c5c565b906114ec565b60018060a01b03600435168152601260205260408120602060e084015101518252602052611e89611e5a60408320614a74565b611e77608085015182905190600060a08201526000608082015252565b602060e08501510151600435856130ac565b6113c0565b602060c083015101518152600f602052611ed9611ead604083206148e0565b611eca608085015182905190600060a08201526000608082015252565b602060c0850151015184612cd5565b6113a9565b50506004356001600160a01b03168152601260209081526040822060e084015190910151600181018111611f2f576001018252602052611f2060408220614a74565b608083015151815111156111c4565b634e487b7160e01b83526011600452602483fd5b91925050600181018111611f2f576001018252600f602052611f67604083206148e0565b90608081015151825111153861116d565b91505060803d608011611fb3575b611f90818361262b565b608082828101031261036b57611faa606091830183613c55565b910151386110e5565b503d611f86565b611fde91506102e03d6102e011611fe4575b611fd6818361262b565b810190612991565b3861106d565b503d611fcc565b61200691506101c03d6101c011610bfe57610bf0818361262b565b38611027565b612025915060e03d60e0116106c8576106b9818361262b565b38610fe4565b604051634b94d2bb60e01b8152600490fd5b90506020813d60201161206f575b816120586020938361262b565b810103126103675761206990612664565b38610f06565b3d915061204b565b6040516345f6780960e11b8152600490fd5b5034610140576020366003190112610140576120bc604060e0926120ab612b9f565b5060043581526013602052206157e2565b60c060405191805115158352602081015151602084015260408101515160408401526060810151516060840152608081015151608084015260a08101515160a084015201515160c0820152f35b50346101405780600319360112610140576002546040516001600160a01b039091168152602090f35b5034610140576020366003190112610140576004356001600160a01b0381811691829003610367576004602082600080516020615fa4833981519152541660405192838092638da5cb5b60e01b82525afa80156102315782918591612210575b501633036101eb57600154908082166121fe5783541682146121ec576001600160a01b03191681176001556040519081527ff0f334a92951c3f240a6d627261c6a075ab711edba3ce91573923831cbe4d4d190602090a180f35b60405163037df82360e11b8152600490fd5b60405163473b50fd60e01b8152600490fd5b612228915060203d811161022a5761021c818361262b565b38612192565b5034610140576020366003190112610140576004356001600160a01b038116908190036106f857604060a09261227492612266612c2f565b508152601060205220614077565b6080604051918051835260208101516020840152604081015160408401526060810151606084015201516080820152f35b5034610140576020366003190112610140576004356001600160a01b038116908190036106f8576040610478926103fb926122de612af9565b508152601160205220614a74565b50346101405780600319360112610140576123056128e6565b50604051635da3780d60e01b8152600660048201526102e090818160248173__$f0b9cef6bb3cbdd03cb6172b8c4e9f952f$__5af4918215610b61576104789392612359575b5050604051918291826124af565b61236f9250803d10611fe457611fd6818361262b565b388061234b565b50346101405780600319360112610140576001546040516001600160a01b039091168152602090f35b5034610140576020366003190112610140576004356001600160a01b0381811691829003610367576004602082600080516020615fa4833981519152541660405192838092638da5cb5b60e01b82525afa908115610231578491612447575b501633036101eb57600480546001600160a01b031916821790556040519081527feee59a71c694e68368a1cb0d135c448051bbfb12289e6c2223b0ceb100c2321d90602090a180f35b61245f915060203d811161022a5761021c818361262b565b386123fe565b503461014057806003193601126101405761247e612af9565b506104786103fb600d6148e0565b606080918051845260208101516020850152604081015160408501520151910152565b9190916102c06102e0820193805183526020810151602084015260408101516040840152606081015160608401526080810151608084015260a081015160a084015260c081015160c084015260e081015160e08401526101008082015190840152610120808201519084015261014080820151908401526101608082015190840152612544610180808301519085019061248c565b6101a08101519060208251926102009384870152015161022090818601526101c08201519261024093848701526101e08301516102608701528201516102808601528101516102a085015201511515910152565b805182526020810151602083015260408101516040830152606081015160608301526080810151608083015260a081015160a083015260c081015160c083015260e081015160e083015261010080820151908301526101208082015190830152610140808201519083015261016080820151151590830152610180808201511515908301526101a0809101511515910152565b601f909101601f19168101906001600160401b0382119082101761264e57604052565b634e487b7160e01b600052604160045260246000fd5b5190811515820361023c57565b9081602091031261023c57516001600160a01b038116810361023c5790565b908160e091031261023c5760c0604051916126ac60e08461262b565b805183526020810151602084015260408101516040840152606081015160608401526080810151608084015260a081015160a0840152015160c082015290565b60c08091805184526020810151602085015260408101516040850152606081015160608501526080810151608085015260a081015160a08501520151910152565b6001600160a01b03818116929091903384900361278c576127806020927f20ca5094f3a20c321cbe4123d0f01b276b81df0fa24cd4d83d9253956035d86394600054169061277a84615b25565b91615c11565b604051908152a2600190565b50505050600090565b604051906127a56101c08361262b565b816101a06000918281528260208201528260408201528260608201528260808201528260a08201528260c08201528260e082015282610100820152826101208201528261014082015282610160820152826101808201520152565b80916101c0928391031261023c5761281b604051928361262b565b805182526020810151602083015260408101516040830152606081015160608301526080810151608083015260a081015160a083015260c081015160c083015260e081015160e0830152610100808201519083015261012080820151908301526101408082015190830152610160612894818301612664565b908301526101806128a6818301612664565b908301526128b86101a0809201612664565b9082015290565b604051906128ce60808361262b565b60006060838281528260208201528260408201520152565b604051906128f66102608361262b565b816102406000918281528260208201528260408201528260608201528260808201528260a08201528260c08201528260e08201528261010082015282610120820152826101408201528261016082015261294e6128bf565b61018082015260405161296260408261262b565b8381528360208201526101a0820152826101c0820152826101e082015282610200820152826102208201520152565b8091036102e0811261023c576040805192610260906129b0828661262b565b80518552602081015160208601528281015183860152606081015160608601526080810151608086015260a081015160a086015260c081015160c086015260e081015160e08601526101008082015190860152610120808201519086015261014080820151908601526101608082015190860152608061017f1985011261023c57825193612a3f60808661262b565b61018093848301518652806101a0928385015160208901526101c09788860151838201526101e0978887015160608301528a01526101ff19011261023c576128b8946102c094612a918351938461262b565b61020092838601518152610220948587015160208301528a01526102409788860151908a015284015190880152610280830151908701526102a08201519086015201612664565b60405190612ae760608361262b565b60006040838281528260208201520152565b60405190612b096101208361262b565b8160008082528060208301528060408301528060608301528060808301528060a08301528060c083015260e0820152610100612b43612ad8565b910152565b60405190612b586101008361262b565b8160e06000918281528260208201528260408201528260608201528260808201528260a0820152604051612b8d60408261262b565b83815283602082015260c08201520152565b604090815191612bb060e08461262b565b60c0836000808252612c29845194602095612bcb878261262b565b838152868501528051612bde878261262b565b838152818501528051612bf1878261262b565b83815260608501528051612c05878261262b565b83815260808501528051612c19878261262b565b83815260a085015251948561262b565b83520152565b60405190612c3e60a08361262b565b60006080838281528260208201528260408201528260608201520152565b818102929160008212600160ff1b821416612c7f578184051490151715612c7f57565b634e487b7160e01b600052601160045260246000fd5b6000198114612c7f5760010190565b60405190612cb360408361262b565b81612cbc612af9565b81526020612b43612af9565b91908201809211612c7f57565b9091610120820190612ce9825151826145cc565b815151516000526013602052612d0260406000206157e2565b91612d0d8285613c8b565b9060408201511561309b575b8051519160a083519685612d57612d4d8960c08501518760208201519a86898901519160208a01519460408b015196614d7b565b9290965151614467565b60c082015160e06020860151918c60208201520152612e168360c08401516080828b0151612dfa6020880151612dd4612da1620f4240612d998c51518c615b12565b04809a613344565b612dcf620f4240612dc681612dba606088015186615b12565b04988996015184615b12565b04968792613344565b613344565b97612de460408701918251612cc8565b9052612df560608601938451612cc8565b612cc8565b9052612e0b60808301918251612cc8565b905201918251612cc8565b90520152825160005260136020526040600020926002600180603f1b0381612e438260208a015151615af5565b146130895760208701515160016001603f1b03199190612e64908390615af5565b156130895782612e798260408b015151615af5565b1461308957612e8d8260408a015151615af5565b1561308957612ea2839160608a015151615af5565b1461308957612eb690606088015151615af5565b15613089576080860151518190612ed5906001600160401b0390615bbe565b146130895760a0860151518190612ef4906001600160401b0390615bbe565b146130895760c086015151612f11906001600160401b0390615bbe565b1461308957846001610240957fd67bab6cdd205804bd5c55f9eebe24e2d16bcd12950b9fab152e727ae331f7329751151560001461308257815b6101008360481b0360208501515160081b1660ff8460481b8560881b0360408701515160481b16921617178260881b8360c81b0360608501515160881b161792828060401b03608082015151168360401b8460801b0360a08301515160401b16179060c08460801b85821b039101515160801b1617928155015551956040519283526020830152805160408301526020810151606083015260408101516080830152606081015160a0830152608081015160c083015260a081015160e083015260c0810151610100908184015260e0820151610120840152810151906101409182840152610120810151916101609283850152810151916101809283850152810151916101a09283850152810151916101c09283850152810151916101e092838501528101516102008401520151610220820152a3565b6000612f4b565b60405163693bbf3960e11b8152600490fd5b6130a7838251516144a1565b612d19565b91906101208301936020946130c58682510151836145cc565b81519060009182526013875260406130de8184206157e2565b95865115613331575b88835101519060e08251990151958a8701948551998b885260138d528c61310f878a206157e2565b6131176128bf565b9661312f8385015184840151948301948551916158ab565b89850151906131488b850151928c8501938451916158ab565b908d8282019283129112908015821691151617611d465761317860608701516060808701519501948551916158ab565b908d8282019283129112908015821691151617611d4657895260808501519360808401519051945190620f42409586928392516131b491613344565b906131be91615b12565b049160a08701519060a08601519051915190516131da91613344565b906131e491615b12565b046131ee91612cc8565b9360c001519160c0015190519151905161320791613344565b9061321191615b12565b0461321b91612cc8565b958c8501968752608083015198868601988a8a5260a08501519a606088019b808d5261324691612cc8565b61324f906159dd565b9088830190815189519082828201928312911290801582169115161761331d5781848203941281851281169185139015161761330957508f90948787957f537fc20b2c68750bd35f0521f860cddf4fc12323e0b41e684a2dac8ed0fcc1839f9d9b999760c09f9d9b9995966132db9760609252016132d081518d5190612cc8565b905252510151614467565b5183519a8b529b8a015251908801525160608701525160808601525160a08501526001600160a01b031692a4565b634e487b7160e01b81526011600452602490fd5b634e487b7160e01b82526011600452602482fd5b61333f858a855101516144a1565b6130e7565b91908203918211612c7f57565b80518210156133655760209160051b010190565b634e487b7160e01b600052603260045260246000fd5b92939490919460e0840151906040820151906133ba6133a26020610120890151015161471e565b93602081519101518181106000146135885790613344565b976133c489613c3e565b986133d26040519a8b61262b565b808a526133e1601f1991613c3e565b0160005b818110613c26575050839460005b8a516000198101908111612c7f578110156134955760018060a01b0388166000526012602052604060002090602060e08b0151015191600183018311612c7f5761347a828e61348b9361344c8360016134909901612cc8565b60005260205261345f6040600020614a74565b6134698383613351565b526134748282613351565b50613351565b5160206101208d01510151906145cc565b612c95565b6133f3565b5090929496979591939560206101008a015101518a5180600019810111612c7f57979891976134d7916134cc60001983018e613351565b52600019018b613351565b506000975b8a5189101561358f576134fc60806134f48b8e613351565b5101516159dd565b9660008882039812818912811691891390151617612c7f5761352360a06134f48b8e613351565b9660008882039812818912811691891390151617612c7f576135636135699261355561354f8c8f613351565b5161471e565b818110156135885790613344565b90613344565b9561358061357a61354f8a8d613351565b98612c95565b9790966134dc565b5080613344565b905084999598929693975093909381613aac575b50613a9a576060810151956135bf608083019788515190613344565b956040830196610220885101511115613a895760208301996101a08b510151151580613a65575b613a53576002613606602061010087015151015160e08b51015190615bbe565b14613a415761361e6020610100860151015184614218565b158015613a27575b613a1557613a09576001600160a01b03908116338114159182613974575b50508061393c575b61392a5760c082015161366b6020825192015160a08c51015190612cc8565b108015613908575b6138f65761368f88602061012085015101518951895191614864565b156136d85760005b85516000198101908111612c7f578110156136ea576136c5896136ba8389613351565b518a518a5191614864565b156136d8576136d390612c95565b613697565b60405163a8e7d40960e01b8152600490fd5b5093909491959792978151916000198301928311612c7f5761168c61371561373f9461373993613351565b5192519285516000808d136000146138f057508b945b6101c0825192015192614899565b90615ad4565b156138df57608060e08501510151602061012086015101515110806138cf575b6138bd5761376e8251846142f5565b90816138a5575b8161387f575b5061386d5761378b9051826142f5565b9182613809575b50816137f0575b506137de5760006137a991615af5565b1590816137ca575b506137b857565b60405163442145e560e01b8152600490fd5b6137d79150600090615af5565b15386137b1565b6040516303fa425960e21b8152600490fd5b61380291506060815191015190615af5565b1538613799565b6101009192500151516020810190815190613839604061382f6060840194855190612cc8565b9201518092615bbe565b1592831561384c575b5050509038613792565b61386493509061385c9151612cc8565b905190615bbe565b15388080613842565b60405163015f9ae760e41b8152600490fd5b61389e91506101006138948187015151614852565b9151015190615bbe565b153861377b565b90506138b6600060e0850151615af5565b1590613775565b60405163ba555da760e01b8152600490fd5b506138d98361444d565b1561375f565b604051621c56d560e31b8152600490fd5b9461372b565b60405163935bdc2160e01b8152600490fd5b5060e08201516139246020825192015160c08c51015190612cc8565b10613673565b6040516302ded67360e51b8152600490fd5b506139468161444d565b8061396c575b80613958575b1561364c565b506002613966600085615af5565b14613952565b50871561394c565b6020919250600080516020615fa483398151915254169160446040518094819363131bac4760e11b835260048301523360248301525afa9081156139fd576000916139c3575b50153880613644565b906020823d6020116139f5575b816139dd6020938361262b565b8101031261014057506139ef90612664565b386139ba565b3d91506139d0565b6040513d6000823e3d90fd5b50505050945050505050565b60405163229a307760e21b8152600490fd5b50613a3b6020610120860151015184614218565b15613626565b60405163376a1ec760e11b8152600490fd5b604051630a6ad31160e21b8152600490fd5b506002613a7460008551615af5565b14806135e65750613a84836141e4565b6135e6565b60405162558f1d60e91b8152600490fd5b6040516329a7bff360e11b8152600490fd5b1580159150613bea575b8015613b2f575b8015613aca575b386135a3565b50855160208701519060008282019283129112908015821691151617612c7f5760408701519060008282019283129112908015821691151617612c7f576000613b1291615af5565b60028114908115613b24575b50613ac4565b600191501438613b1e565b50613b44608082015160408301519088614397565b6000546040516370a0823160e01b815230600482015290602090829060249082906001600160a01b03165afa9081156139fd57600091613bb6575b50613ba99164e8d4a51000613ba39204808210600014613baf57505b600019615a06565b83615af5565b15613abd565b9050613b9b565b906020823d602011613be2575b81613bd06020938361262b565b81010312610140575051613ba9613b7f565b3d9150613bc3565b506020610120820151015160808201516040830151848a0391600086128b84128116908c851390151617612c7f57613c2193614864565b613ab6565b808b60208093613c34612af9565b92010152016133e5565b6001600160401b03811161264e5760051b60200190565b919082606091031261023c57604051613c6f60608261262b565b6040612b43818395805185526020810151602086015201612664565b9190613c95612ad8565b5051613c9f612ad8565b50600254604051630e0886f960e41b81526004810192909252606090829060249082906001600160a01b03165afa9081156139fd57600091613d06575b50613ce681613d3f565b8092604082015115613cf6575050565b60e060c060209201510151910152565b60603d8111613d38575b613d1a818361262b565b810191606082840312610140575090613d3291613c55565b38613cdc565b503d613d10565b6003546001600160a01b03169081613d55575050565b6020016020815160246040518095819363d7c7a93560e01b835260048301525afa9182156139fd57600092613d88575052565b90916020823d8211613db0575b81613da26020938361262b565b810103126101405750519052565b3d9150613d95565b613dc0612b48565b5060018154910154604051613dd660408261262b565b8160e01b60e01d81528160c81b60e81d602082015260405192613dfb6101008561262b565b63ffffffff80821685528160201c16602085015265ffffffffffff808260401c166040860152808260701c1660608601528160a01c16608085015260d01c60a084015260c083015260881b60c01d60e082015290565b91909163ffffffff908184511161401b57602091828501928184511161401b576040918287019260029365ffffffffffff9185613e8f848451615bbe565b1461400b5760608a019086613ea5858451615bbe565b1461400b5760808b019287613ebb868651615bbe565b14613ffa5787613ed060a08e01968751615bbe565b14613ffa5760c08c019988613eeb637fffffff8d5151615af5565b14613fe957613f01637fffffff198c5151615af5565b15613fe95788613f18627fffff8a8e510151615af5565b14613fe957613f2f627fffff19898d510151615af5565b15613fe95760e08d0198613f4a600180603f1b038b51615af5565b14613fe9578851613f649060016001603f1b031990615af5565b15613fe9578660019b9c9d51169063ffffffff60201b9051891b16179165ffffffffffff60401b9151901b16179065ffffffffffff60701b905160701b16179065ffffffffffff60a01b905160a01b1617905160d01b17955190815116918062ffffff60201b920151901b1617908360381b8460781b03905160381b16179281550155565b8251632142bc2760e01b8152600490fd5b8151632142bc2760e01b8152600490fd5b51632142bc2760e01b8152600490fd5b604051632142bc2760e01b8152600490fd5b815191604060208201519101516040830152602082015252565b919215908115614067575b506140605760800152600190565b5050600090565b9050608082015190511038614052565b61407f612c2f565b50546040519061409060a08361262b565b63ffffffff908181168352818160201c1660208401528060801b60c01d604084015260018060401b038160801c16606084015260c01c16608082015290565b9063ffffffff808251116141d25760208201818151116141d257604090818401906002614103600180603f1b038451615af5565b146141c157815161411d9060016001603f1b031990615af5565b156141c1576060850193600261413a60018060401b038751615bbe565b146141b05760808601958187511161419f5751915192519451955160c01b63ffffffff60c01b1660809690961b600160801b600160c01b03169490931b600160401b600160801b031660209290921b63ffffffff60201b169216919091171717179055565b845163320f423b60e21b8152600490fd5b835163320f423b60e21b8152600490fd5b825163320f423b60e21b8152600490fd5b60405163320f423b60e21b8152600490fd5b60026141f560006020840151615af5565b14908115614201575090565b6002915060006040614214920151615af5565b1490565b805115918291826142e8575b836142db575b836142ce575b831561428a575b8315614244575b50505090565b604001511592509082614282575b5081614275575b81614268575b5038808061423e565b602091500151153861425f565b6060810151159150614259565b915038614252565b9250602083015115806142c2575b806142b6575b806142aa575b92614237565b506060810151156142a4565b5060408101511561429e565b50604083015115614298565b6040820151159350614230565b602082015115935061422a565b6020810151159350614224565b906101a0810151159182614357575b8261430e57505090565b6020810151159250908261434a575b821561433c575b50811561432f575090565b61433991506141e4565b90565b610160015115915038614324565b604082015115925061431d565b809250518015908115614389575b8115614373575b5091614304565b60029150600061438291615af5565b143861436c565b610180830151159150614365565b6143ba906119d360406119cb6143ad8451615f72565b6119d36020860151615f72565b9081156144455761440f60206143f06119aa936143e461014096620f424096879586940151615f72565b04602087015190615b12565b046101e085015180821160001461443e57505b61012085015190615b12565b046101608301518082106000146144365750915b015180821115614431575090565b905090565b905091614423565b9050614403565b505050600090565b614463906119d360406119cb6143ad8451615f72565b1590565b8151916020810151906060604082015191015160608401526040830152602082015252565b60c06000918260808201528260a08201520152565b6101008101519182519260208301916144ba83516159dd565b9360208201946144ca86516159dd565b968782039160008099128184128116918413901516176113585787828201928312911290801582169115161761136c5783526020830195865193604083019761451389516159dd565b90604086019661452388516159dd565b928584820394128185128116918513901516176145b8578483820193841291129080158216911516176111995790604092915201946060865193019561456987516159dd565b90606086019461457986516159dd565b928584820394128185128116918513901516176145b8578483820193841291129080158216911516176111995752519651945160809390930152525252565b634e487b7160e01b85526011600452602485fd5b906101008091015190820151916145e1612ad8565b91805184519081810390600080931281831281169183139015161761331d57845260208201519160208601519282848203941281851281169185139015161761331d5760408091602087019485520151950151948186820396128187128116918713901516176133095760408401948552602083019361466185516159dd565b90519082828201928312911290801582169115161761331d5761468390615b3f565b94604084019261469384516159dd565b905190838282019283129112908015821691151617611f2f576146b7606091615b3f565b9401916146c483516159dd565b91519181838201938412911290801582169115161761330957506146e790615b3f565b90525252565b60a061471a9160808101614708815161010087015190612cc8565b90520191610120835191015190612cc8565b9052565b602060408201516060830151808211600014614436575091015180821115614431575090565b61475e606061475660408401516159dd565b9201516159dd565b9060008282039212818312811691831390151617612c7f5761433990615f72565b90614789826147ed565b6000929061479957505050600090565b6147a660408201516159dd565b926147b460608301516159dd565b938185820395128186128116918613901516176133095750620f42406147e761168c6143399594612df56118a9956147ed565b92612c5c565b60606040820151910151808211600014614431575090565b61482a90614824614815826147ed565b916119d360208201519161483a565b90615ba3565b620f424080821015614431575090565b60606040820151910151808210600014614431575090565b61482a906148246020820151916147ed565b61168c9061373992936143399560008082136000146148915750945b6101e0602083015192015192614899565b905094614880565b90916148a48261471e565b1561278c576020926148cc6148bb6148d29461471e565b6119aa620f42409687940151615f72565b04615b12565b049080821115614431575090565b6148e8612af9565b5060018154910154906040519061490060608361262b565b8260801b60c01d82528260401b60c01d60208301528260c01d60408301526040519261492e6101208561262b565b63ffffffff8216845260018060401b0380911660208501528160801c1660408401528060c01c606084015265ffffffffffff90818160201c16608085015260501c1660a0830152600060c0830152600060e083015261010082015290565b9061499681614c64565b602081019060018060401b039160026149b0848351615bbe565b14614a6257604082019260026149c7828651615bbe565b14614a6257606083019060026149de828451615bbe565b14614a625760019461010060409263ffffffff87511665ffffffffffff60201b608089015160201b161765ffffffffffff60501b60a089015160501b16178860801b8960c01b0380945160801b161794519551169501519486831b8760801b038651841b161790602086015160801b16179301519160c01b17845560c01b17910155565b6040516352a8a97f60e01b8152600490fd5b614a7c612af9565b50805460019091015460016001603e1b03600282901c1691600382169181600084614b4f5750845b600060018603614b49575080945b600090600203614b4257505b604090815195614acf60608861262b565b60c0948060801b861d885280841b861d6020890152851d83880152825197614af96101208a61262b565b63ffffffff85168952602089015282880152606087015265ffffffffffff808360201c1660808801528260501c1660a08701521b811d818501521d60e083015261010082015290565b9050614abe565b94614ab2565b94614aa4565b614b5e82614c64565b600180603e1b03906002614b76836020860151615bbe565b14614a625760408301916002614b8d828551615bbe565b14614a62576002614ba360608601928351615bbe565b14614a62576001925115600014614c5c5751614c555760005b925b604063ffffffff82511665ffffffffffff60201b608084015160201b161765ffffffffffff60501b60a084015160501b16178460801b8560c01b03908160c085015160801b161760e084015160c01b1795610100600487851b03614c218661471e565b60021b1694015193600387851b8860801b038651861b169216171790602084015160801b161791015160c01b179281550155565b6002614bbc565b508192614bbe565b63ffffffff815111614a6257600265ffffffffffff81614c88826080860151615bbe565b14614a6257614c9c829160a0850151615bbe565b14614a625760c0820190600180603f1b039281614cba858551615af5565b14614a6257915160016001603f1b03199290614cd7908490615af5565b15614a625760e0810182614cec868351615af5565b14614a625783614cfc9151615af5565b15614a6257610100019281614d1382865151615af5565b14614a6257614d2483855151615af5565b15614a625781614d3982602087510151615af5565b14614a6257614d4d83602086510151615af5565b15614a6257614d6190604085510151615af5565b14614a62576040614d7492510151615af5565b15614a6257565b9593949297969060405198614d926102008b61262b565b60008a52600060208b0152600060408b0152600060608b0152600060808b0152600060a08b0152600060c08b0152600060e08b015260006101008b015260006101208b015260006101408b015260006101608b015260006101808b015260006101a08b015260006101c08b015260006101e08b015289604086015115158952614e1d8783878c61571a565b919082602083015281526101a088015161570c57505060c0614e3d6128bf565b920151614e566101a0850151926102008601519061477f565b8851928751620f4240614e718c6119aa60206119cb8d6157b5565b0484614eac614e9b620f42406118a98a614e9683614e9660208951990151938b613344565b612c5c565b6118a9620f42406147e788516159dd565b8080830112801560008412169060008412151617612c7f57614ef1614ed2828401615ab4565b6020870151614ee2848601615f72565b80821015615704575090615a06565b94614f04614eff8a87613344565b615b62565b90828401848103818112600087129081169290911390151617612c7f576002614f3b6020614f3187615f72565b9301518093615bbe565b036156c357506000925b8281018103615651575050505081620f4240810204620f42401482151715612c7f57620f42408202955b855190848083011260008312908015821691151617612c7f5780620f4240810204620f42401481151715612c7f578288614fc69387620f4240614fb495029101615bcf565b6118a9620f42406147e7816002612c5c565b9582620f4240810204620f42401483151715612c7f57620f4240614fec93029084615bcf565b92848085011260008512908015821691151617612c7f5761506f94614fb494620f4240946020846150639661505b96520152818101916102408a015115158061562a575b615605575b505061504b846118a983614e9683600019612c5c565b8160408901526020880152615f72565b895190615b12565b048060608501526159dd565b9060208101519061508360608201516159dd565b90600082128383810312811690848481031390151617612c7f5783808385030112600083850312908015821691151617612c7f57604081015180858103126000861216818681031360008712151617612c7f5784808b948a968a98850360408701520301602084015260026151016040880151606089015190615bbe565b146155b6575b50508b8a60026151206060880151604089015190615bbe565b14615561575b651cae8c13e000956119aa614eff620f4240976152006152069861520c9c9860408c9961519060608b61516860206148cc9e01518d6020895191015191615927565b61517f858201518d8760208a015191015191615927565b01518385015160608c015191615927565b82519260208101519060608482015191015160a08401526080830152606082015201526151f6610180896151ec6151d060408b015160608c015190612cc8565b60208b01518082101561555a57505b6119aa6020870151615f72565b049a015196614805565b9051925195615c54565b93613344565b04615b84565b620f424061521e602086015183615b12565b04615228836147ed565b61553257615235826159dd565b9061523f836159dd565b92600083128484810312811690858581031390151617612c7f57620f42406118a961527061168c8561529e95613344565b9561528a836118a961528482600019612c5c565b89612c5c565b9561529784600019612c5c565b9103612c5c565b906152b360208a015185602088015191615927565b6152c760408a015184604088015191615927565b6152db60608a015183606088015191615927565b6101208b01526101008a015260e089015260c08801526020820151602085015190600082128183810312811690828481031390151617612c7f576118a9620f42409161534a936152976153376020880151606089015190612cc8565b60408801518082101561552b57506159dd565b6020850151602084015190600082128183810312811690828481031390151617612c7f576118a9620f4240916153a393615297615390602089015160408a015190612cc8565b60608901518082101561552b57506159dd565b90818082011260008212908015821691151617612c7f576153d8620f42406118a96153d082600019612c5c565b858501612c5c565b916153ed604089015183604087015191615927565b615401606089015182606087015191615927565b615415602089015184602087015191615927565b6101808a015261016089015261014088015260009461543f614eff60009660009551905190613344565b9360208301516154fc575b60408301516154cc575b6060830151615497575b50505090506101e08501526101c08401526101a083015261433961548b602084015160a085015190612cc8565b61012084015190612cc8565b6154c39350620f42406154b460c096610120606094015190615b12565b049485920151920151916159c6565b8038808061545e565b9450620f42406154e161010087015186615b12565b04946154f760a0830151876040860151916159c6565b615454565b9550620f424061551060e088015186615b12565b04956155266080830151886020860151916159c6565b61544a565b90506159dd565b61523561168c604085015161555561554e606088015183612cc8565b9186615b12565b615b7a565b90506151df565b505092505050615582620f42406118a96020840151611e1b61168c8861577a565b8082526020820151600082128183810312811690828481031390151617612c7f570360208201528290849087908b8a615126565b6155d19450620f4240935061529761168c6118a9949761577a565b8082526040820151600082128183810312811690828481031390151617612c7f578492869289920360408201523880615107565b615623925085916118a99161561c84600019612c5c565b9101612c5c565b3880615035565b508a61564a615645600061563f858701615ab4565b9361477f565b615ab4565b1415615030565b89620f4240810204620f4240148a151715612c7f5761568e9361567d8261568395615555940103615f72565b92615b12565b620f42408802612cc8565b82620f4240810204620f42401483151715612c7f57620f424083028110156156b7575b95614f6f565b50620f424082026156b1565b6156d9906156d48585810103615ab4565b615a06565b80848103126000851216818581031360008612151617612c7f57836156fe9103615f72565b92614f45565b905090615a06565b9a5098975050505050505050565b939192906020019081511561576b57906020615754620f424061574b60806040615769970151980197885190615b12565b04809651613344565b95015190615761866159dd565b905191615927565b565b50509150608001519060009190565b615783816157b5565b61578d5750600090565b806157af6157a96157a0614339946157b5565b6135638461483a565b916157b5565b90615b84565b6157d66157c1826147ed565b9160206157cd8261483a565b91015190612cc8565b80821015614431575090565b6157ea612b9f565b506001815491015460408051602091615803838361262b565b8460b81b60c01d82528051615818848261262b565b8560781b60c01d815281519161582e858461262b565b8660381b60c01d8352805193615844868661262b565b6001600160401b0387811686528251969061585f828961262b565b8089851c168852835198615873838b61262b565b60801c16885260ff83519961588960e08c61262b565b16151589528801528601526060850152608084015260a083015260c082015290565b519051808203929160009091128015828513169184121617612c7f576000196158d383615ab4565b036159135761433991611e1b6158e8926159dd565b611e1b6158f482615ab4565b61590e615908620f424092611e1b84615ab4565b93615f72565b615a65565b6118a961433992611e1b620f4240936159dd565b909182156159c15781519261593b81615ab4565b9160001983036159a6576117d46117d4615957615961936159dd565b94611e1b86615ab4565b91620f424090818102918183041490151715612c7f5761598a9261598491615a65565b90615a06565b915b60008382019384129112908015821691151617612c7f5752565b6159bb9250620f42406147e76118a9926159dd565b9161598c565b505050565b919080156159c1576119d361471a92845192615b84565b6001600160ff1b0381116159ee5790565b6024906040519063eecaa25d60e01b82526004820152fd5b60008113615a2a57600013615a1b5750600090565b615a24906159dd565b60000390565b50614339906159dd565b8115615a4f57600160ff1b8114600019831416612c7f570590565b634e487b7160e01b600052601260045260246000fd5b908015615aa25760009180615a7c57505050600090565b6000198101908111611f2f5790615a9291615b7a565b9060018201809211613309575090565b6040516323d359a360e01b8152600490fd5b60008113615ace57600013615ac857600090565b60001990565b50600190565b90615ade91615af5565b60028114908115615aed575090565b600191501490565b818113615b0b5712615b0657600190565b600090565b5050600290565b81810292918115918404141715612c7f57565b64e8d4a5100090818102918183041490151715612c7f5790565b60008112615b4a5790565b6024906040519063b02ef08760e01b82526004820152fd5b620f424090818102918183041490151715612c7f5790565b8115615a4f570490565b90620f424091828102928184041490151715612c7f5761433991615b7a565b9080615bb55750615ac857620f424090565b61433991615b84565b818111615b0b5710615b0657600190565b6118a9916118a961433995611e1b615bfc61168c976118a9615c0297611e1b620f42409b8c998a95613344565b916159dd565b916147e7816301e13380612c5c565b60405163a9059cbb60e01b60208201526001600160a01b039283166024820152604480820194909452928352615769929190615c4e60648461262b565b16615d86565b90606082018051615c658184615bbe565b15615ca15750620f424090615c7a8284615bbe565b15615c89575050506020015190565b90614339939151916020604082015191015192615cb2565b839150604061433994519201519160005b90615cc3615cc991959394956159dd565b946159dd565b92615cd48284615bbe565b158015615d58575b615d465781615cea91613344565b90848403926000948587128186128116918613901516176145b85792611e1b61168c620f424094615d216118a995615d2698613344565b615b84565b818382019384129112908015821691151617613309575061433990615b3f565b604051634a83a53f60e01b8152600490fd5b506002615d658285615bbe565b14615cdc565b6001600160401b03811161264e57601f01601f191660200190565b60209190615e10906001600160a01b0316615da084615d6b565b90615dae604051928361262b565b8482527f5361666545524332303a206c6f772d6c6576656c2063616c6c206661696c6564858301526000808587829751910182855af13d15615e9a573d91615df583615d6b565b92615e03604051948561262b565b83523d868885013e615e9e565b90815180615e1f575b50505050565b82849181010312610140575081615e369101612664565b15615e4357808080615e19565b6084906040519062461bcd60e51b82526004820152602a60248201527f5361666545524332303a204552433230206f7065726174696f6e20646964206e6044820152691bdd081cdd58d8d9595960b21b6064820152fd5b6060915b91929015615f005750815115615eb2575090565b3b15615ebb5790565b60405162461bcd60e51b815260206004820152601d60248201527f416464726573733a2063616c6c20746f206e6f6e2d636f6e74726163740000006044820152606490fd5b825190915015615f135750805190602001fd5b6040519062461bcd60e51b82528160208060048301528251908160248401526000935b828510615f59575050604492506000838284010152601f80199101168101030190fd5b8481018201518686016044015293810193859350615f36565b6000808212615f7f575090565b039056fea9c835c21e93a672e5a6ef8ca0374f90b7d4378f7eec5769dcf22fdefd60ffae0aec74a1754fb10877b53c31a29be82096082042eb1fb374ec96fac88c0e621ba26469706673582212206ff859d0f33ab372f734586a40f06145f9c930efae09977dae12a9af2b3e5e7264736f6c63430008130033",
  "libraries": {
    "MarketParameterStorageLib": "0x8a159CDB5FA8AF4A71f987F3Fb2D5229eC63c758",
    "RiskParameterStorageLib": "0xc24FeF7BB2f7AB454A3f982eD3b4B8268fF850BD"
  }
}