{
  "address": "0xF56F08BBDDd53A2151BE08E32f43f91f657c9B4e",
  "abi": [
    {
      "inputs": [
        {
          "internalType": "Token6",
          "name": "usdc_",
          "type": "address"
        },
        {
          "internalType": "Token18",
          "name": "dsu_",
          "type": "address"
        },
        {
          "internalType": "contract IFactory",
          "name": "marketFactory_",
          "type": "address"
        },
        {
          "internalType": "contract IFactory",
          "name": "vaultFactory_",
          "type": "address"
        },
        {
          "internalType": "contract IBatcher",
          "name": "batcher_",
          "type": "address"
        },
        {
          "internalType": "contract IEmptySetReserve",
          "name": "reserve_",
          "type": "address"
        },
        {
          "internalType": "UFixed6",
          "name": "keeperMultiplier_",
          "type": "uint256"
        }
      ],
      "stateMutability": "nonpayable",
      "type": "constructor"
    },
    {
      "inputs": [],
      "name": "DivisionByZero",
      "type": "error"
    },
    {
      "inputs": [
        {
          "internalType": "uint256",
          "name": "value",
          "type": "uint256"
        }
      ],
      "name": "Fixed18OverflowError",
      "type": "error"
    },
    {
      "inputs": [
        {
          "internalType": "uint256",
          "name": "value",
          "type": "uint256"
        }
      ],
      "name": "Fixed6OverflowError",
      "type": "error"
    },
    {
      "inputs": [
        {
          "internalType": "uint256",
          "name": "version",
          "type": "uint256"
        }
      ],
      "name": "InitializableAlreadyInitializedError",
      "type": "error"
    },
    {
      "inputs": [],
      "name": "InitializableNotInitializingError",
      "type": "error"
    },
    {
      "inputs": [],
      "name": "InitializableZeroVersionError",
      "type": "error"
    },
    {
      "inputs": [],
      "name": "MultiInvokerBadSenderError",
      "type": "error"
    },
    {
      "inputs": [],
      "name": "MultiInvokerCantExecuteError",
      "type": "error"
    },
    {
      "inputs": [],
      "name": "MultiInvokerInvalidInstanceError",
      "type": "error"
    },
    {
      "inputs": [],
      "name": "MultiInvokerInvalidOrderError",
      "type": "error"
    },
    {
      "inputs": [],
      "name": "MultiInvokerMaxFeeExceededError",
      "type": "error"
    },
    {
      "inputs": [],
      "name": "MultiInvokerOrderMustBeSingleSidedError",
      "type": "error"
    },
    {
      "inputs": [],
      "name": "TriggerOrderStorageInvalidError",
      "type": "error"
    },
    {
      "inputs": [
        {
          "internalType": "int256",
          "name": "value",
          "type": "int256"
        }
      ],
      "name": "UFixed18UnderflowError",
      "type": "error"
    },
    {
      "inputs": [
        {
          "internalType": "int256",
          "name": "value",
          "type": "int256"
        }
      ],
      "name": "UFixed6UnderflowError",
      "type": "error"
    },
    {
      "anonymous": false,
      "inputs": [
        {
          "indexed": true,
          "internalType": "address",
          "name": "account",
          "type": "address"
        },
        {
          "indexed": true,
          "internalType": "address",
          "name": "to",
          "type": "address"
        },
        {
          "indexed": false,
          "internalType": "UFixed6",
          "name": "amount",
          "type": "uint256"
        }
      ],
      "name": "FeeCharged",
      "type": "event"
    },
    {
      "anonymous": false,
      "inputs": [
        {
          "indexed": false,
          "internalType": "uint256",
          "name": "version",
          "type": "uint256"
        }
      ],
      "name": "Initialized",
      "type": "event"
    },
    {
      "anonymous": false,
      "inputs": [
        {
          "indexed": true,
          "internalType": "address",
          "name": "sender",
          "type": "address"
        },
        {
          "indexed": false,
          "internalType": "uint256",
          "name": "gasUsed",
          "type": "uint256"
        },
        {
          "indexed": false,
          "internalType": "UFixed18",
          "name": "multiplier",
          "type": "uint256"
        },
        {
          "indexed": false,
          "internalType": "uint256",
          "name": "buffer",
          "type": "uint256"
        },
        {
          "indexed": false,
          "internalType": "UFixed18",
          "name": "keeperFee",
          "type": "uint256"
        }
      ],
      "name": "KeeperCall",
      "type": "event"
    },
    {
      "anonymous": false,
      "inputs": [
        {
          "indexed": true,
          "internalType": "address",
          "name": "account",
          "type": "address"
        },
        {
          "indexed": true,
          "internalType": "address",
          "name": "market",
          "type": "address"
        },
        {
          "indexed": true,
          "internalType": "address",
          "name": "to",
          "type": "address"
        },
        {
          "indexed": false,
          "internalType": "UFixed6",
          "name": "fee",
          "type": "uint256"
        }
      ],
      "name": "KeeperFeeCharged",
      "type": "event"
    },
    {
      "anonymous": false,
      "inputs": [
        {
          "indexed": true,
          "internalType": "address",
          "name": "account",
          "type": "address"
        },
        {
          "indexed": true,
          "internalType": "contract IMarket",
          "name": "market",
          "type": "address"
        },
        {
          "indexed": false,
          "internalType": "uint256",
          "name": "nonce",
          "type": "uint256"
        }
      ],
      "name": "OrderCancelled",
      "type": "event"
    },
    {
      "anonymous": false,
      "inputs": [
        {
          "indexed": true,
          "internalType": "address",
          "name": "account",
          "type": "address"
        },
        {
          "indexed": true,
          "internalType": "contract IMarket",
          "name": "market",
          "type": "address"
        },
        {
          "indexed": false,
          "internalType": "uint256",
          "name": "nonce",
          "type": "uint256"
        },
        {
          "indexed": false,
          "internalType": "uint256",
          "name": "positionId",
          "type": "uint256"
        }
      ],
      "name": "OrderExecuted",
      "type": "event"
    },
    {
      "anonymous": false,
      "inputs": [
        {
          "indexed": true,
          "internalType": "address",
          "name": "account",
          "type": "address"
        },
        {
          "indexed": true,
          "internalType": "contract IMarket",
          "name": "market",
          "type": "address"
        },
        {
          "indexed": true,
          "internalType": "uint256",
          "name": "nonce",
          "type": "uint256"
        },
        {
          "components": [
            {
              "internalType": "uint8",
              "name": "side",
              "type": "uint8"
            },
            {
              "internalType": "int8",
              "name": "comparison",
              "type": "int8"
            },
            {
              "internalType": "UFixed6",
              "name": "fee",
              "type": "uint256"
            },
            {
              "internalType": "Fixed6",
              "name": "price",
              "type": "int256"
            },
            {
              "internalType": "Fixed6",
              "name": "delta",
              "type": "int256"
            }
          ],
          "indexed": false,
          "internalType": "struct TriggerOrder",
          "name": "order",
          "type": "tuple"
        }
      ],
      "name": "OrderPlaced",
      "type": "event"
    },
    {
      "inputs": [],
      "name": "DSU",
      "outputs": [
        {
          "internalType": "Token18",
          "name": "",
          "type": "address"
        }
      ],
      "stateMutability": "view",
      "type": "function"
    },
    {
      "inputs": [],
      "name": "GAS_BUFFER",
      "outputs": [
        {
          "internalType": "uint256",
          "name": "",
          "type": "uint256"
        }
      ],
      "stateMutability": "view",
      "type": "function"
    },
    {
      "inputs": [],
      "name": "USDC",
      "outputs": [
        {
          "internalType": "Token6",
          "name": "",
          "type": "address"
        }
      ],
      "stateMutability": "view",
      "type": "function"
    },
    {
      "inputs": [],
      "name": "batcher",
      "outputs": [
        {
          "internalType": "contract IBatcher",
          "name": "",
          "type": "address"
        }
      ],
      "stateMutability": "view",
      "type": "function"
    },
    {
      "inputs": [
        {
          "internalType": "address",
          "name": "account",
          "type": "address"
        },
        {
          "internalType": "contract IMarket",
          "name": "market",
          "type": "address"
        },
        {
          "internalType": "uint256",
          "name": "nonce",
          "type": "uint256"
        }
      ],
      "name": "canExecuteOrder",
      "outputs": [
        {
          "internalType": "bool",
          "name": "",
          "type": "bool"
        }
      ],
      "stateMutability": "view",
      "type": "function"
    },
    {
      "inputs": [],
      "name": "ethTokenOracleFeed",
      "outputs": [
        {
          "internalType": "contract AggregatorV3Interface",
          "name": "",
          "type": "address"
        }
      ],
      "stateMutability": "view",
      "type": "function"
    },
    {
      "inputs": [
        {
          "internalType": "contract AggregatorV3Interface",
          "name": "ethOracle_",
          "type": "address"
        }
      ],
      "name": "initialize",
      "outputs": [],
      "stateMutability": "nonpayable",
      "type": "function"
    },
    {
      "inputs": [
        {
          "components": [
            {
              "internalType": "enum IMultiInvoker.PerennialAction",
              "name": "action",
              "type": "uint8"
            },
            {
              "internalType": "bytes",
              "name": "args",
              "type": "bytes"
            }
          ],
          "internalType": "struct IMultiInvoker.Invocation[]",
          "name": "invocations",
          "type": "tuple[]"
        }
      ],
      "name": "invoke",
      "outputs": [],
      "stateMutability": "payable",
      "type": "function"
    },
    {
      "inputs": [],
      "name": "keeperMultiplier",
      "outputs": [
        {
          "internalType": "UFixed6",
          "name": "",
          "type": "uint256"
        }
      ],
      "stateMutability": "view",
      "type": "function"
    },
    {
      "inputs": [],
      "name": "keeperToken",
      "outputs": [
        {
          "internalType": "Token18",
          "name": "",
          "type": "address"
        }
      ],
      "stateMutability": "view",
      "type": "function"
    },
    {
      "inputs": [],
      "name": "latestNonce",
      "outputs": [
        {
          "internalType": "uint256",
          "name": "",
          "type": "uint256"
        }
      ],
      "stateMutability": "view",
      "type": "function"
    },
    {
      "inputs": [],
      "name": "marketFactory",
      "outputs": [
        {
          "internalType": "contract IFactory",
          "name": "",
          "type": "address"
        }
      ],
      "stateMutability": "view",
      "type": "function"
    },
    {
      "inputs": [
        {
          "internalType": "address",
          "name": "account",
          "type": "address"
        },
        {
          "internalType": "contract IMarket",
          "name": "market",
          "type": "address"
        },
        {
          "internalType": "uint256",
          "name": "nonce",
          "type": "uint256"
        }
      ],
      "name": "orders",
      "outputs": [
        {
          "components": [
            {
              "internalType": "uint8",
              "name": "side",
              "type": "uint8"
            },
            {
              "internalType": "int8",
              "name": "comparison",
              "type": "int8"
            },
            {
              "internalType": "UFixed6",
              "name": "fee",
              "type": "uint256"
            },
            {
              "internalType": "Fixed6",
              "name": "price",
              "type": "int256"
            },
            {
              "internalType": "Fixed6",
              "name": "delta",
              "type": "int256"
            }
          ],
          "internalType": "struct TriggerOrder",
          "name": "",
          "type": "tuple"
        }
      ],
      "stateMutability": "view",
      "type": "function"
    },
    {
      "inputs": [],
      "name": "reserve",
      "outputs": [
        {
          "internalType": "contract IEmptySetReserve",
          "name": "",
          "type": "address"
        }
      ],
      "stateMutability": "view",
      "type": "function"
    },
    {
      "inputs": [],
      "name": "vaultFactory",
      "outputs": [
        {
          "internalType": "contract IFactory",
          "name": "",
          "type": "address"
        }
      ],
      "stateMutability": "view",
      "type": "function"
    }
  ],
  "transactionHash": "0x8734f3230a64ca8bfdce0a29c4622255a91e82d27a9ce7d92e65d44b5e0a8957",
  "args": [
    "0xff970a61a04b1ca14834a43f5de4533ebddb5cc8",
    "0x52C64b8998eB7C80b6F526E99E29ABdcC86B841b",
    "0xDaD8A103473dfd47F90168A0E46766ed48e26EC7",
    "0xad3565680aEcEe27A39249D8c2D55dAc79BE5Ad0",
    "0x0000000000000000000000000000000000000000",
    "0x0d49c416103Cbd276d9c3cd96710dB264e3A0c27",
    "1750000"
  ],
  "numDeployments": 1,
  "solcInputHash": "2c6e25839257e7c837f044fa2f8c67c2",
  "bytecode": "0x61016034620001eb57601f620046c138819003918201601f19168301916001600160401b03831184841017620001f05780849260e094604052833981010312620001eb576200004e8162000206565b906200005d6020820162000206565b916200006c6040830162000206565b6200007a6060840162000206565b6080840151946001600160a01b03949192918587168703620001eb5760a08101519586168603620001eb5760c001519360805260a05260c05260e052610100928352610120918252610140908152604051916144a593846200021c853960805184818161041a0152818161217b0152818161222a015281816127710152818161297b01528181612f5f015281816131f3015261329b015260a05184818161034901528181610733015281816107f1015281816109bb01528181611af1015281816126210152818161290c0152818161309f015281816130ee01526132db015260c0518481816106f301528181610bf001528181611cf6015281816125d80152612a5b015260e0518481816101960152818161097c015261265d0152518381816103c8015281816120a801528181612ac801528181612f88015261313b015251828181610241015281816103f1015281816120ee01528181612fb9015261316d015251818181611046015261282d0152f35b600080fd5b634e487b7160e01b600052604160045260246000fd5b51906001600160a01b0382168203620001eb5756fe608080604052600436101561001357600080fd5b60003560e01c908163025a3a2914612a7f5750806306ae709514612a1057806332878cc91461299f57806389a3027114612930578063a2060bcf146128c1578063b20caf4514612850578063b278e8ac146127f7578063bdec4a27146104e3578063c4d66de8146102a1578063c7e6736014610265578063cd3293de146101f6578063cf542a4d146101ba578063d8a06f731461014b578063dd02df16146100ec5763df80522a146100c457600080fd5b346100e75760206100dd6100d736612aec565b91612d44565b6040519015158152f35b600080fd5b346100e75761014761010661010036612aec565b91612c59565b6040519182918291909160808060a083019460ff8151168452602081015160000b602085015260408101516040850152606081015160608501520151910152565b0390f35b346100e75760007ffffffffffffffffffffffffffffffffffffffffffffffffffffffffffffffffc3601126100e757602060405173ffffffffffffffffffffffffffffffffffffffff7f0000000000000000000000000000000000000000000000000000000000000000168152f35b346100e75760007ffffffffffffffffffffffffffffffffffffffffffffffffffffffffffffffffc3601126100e7576020600054604051908152f35b346100e75760007ffffffffffffffffffffffffffffffffffffffffffffffffffffffffffffffffc3601126100e757602060405173ffffffffffffffffffffffffffffffffffffffff7f0000000000000000000000000000000000000000000000000000000000000000168152f35b346100e75760007ffffffffffffffffffffffffffffffffffffffffffffffffffffffffffffffffc3601126100e7576020604051620186a08152f35b346100e75760207ffffffffffffffffffffffffffffffffffffffffffffffffffffffffffffffffc3601126100e75760043573ffffffffffffffffffffffffffffffffffffffff8082168092036100e7577f6fee9688c285c5c5c97d6a1a29adced674e6b2ad0888b8ad2116b58a8b3ea2486001815410156104b257600190557f2801b00eb06461cf9fcb9758b5fafd884ff06a86177386f73b6c49f0bf5a5af090600182557f0000000000000000000000000000000000000000000000000000000000000000303b1515806104aa575b6104805761041861043e926000957f2b50211693ec91bcfe327771928b74a8f475c508d53e86fca4153bcf0f0e877655827f5b5cbfa852c5bd03e540eba853f8faf28a604a4d82bee1091096bfaea14d08c355807f0000000000000000000000000000000000000000000000000000000000000000168061046c575b507f0000000000000000000000000000000000000000000000000000000000000000168092614034565b7f0000000000000000000000000000000000000000000000000000000000000000614034565b557fbe9b076dc5b65990cca9dd9d7366682482e7817a6f6bc7f4faf4dc32af497f32602060405160018152a1005b8061041861047a9286614034565b866103ee565b60046040517fb9a621e1000000000000000000000000000000000000000000000000000000008152fd5b506000610372565b60246040517f3db738da00000000000000000000000000000000000000000000000000000000815260016004820152fd5b60207ffffffffffffffffffffffffffffffffffffffffffffffffffffffffffffffffc3601126100e75767ffffffffffffffff600435116100e7573660236004350112156100e75767ffffffffffffffff60043560040135116100e7573660246004356004013560051b6004350101116100e75760005b60043560040135811061056957005b60248160051b6004350101357fffffffffffffffffffffffffffffffffffffffffffffffffffffffffffffff9d6004353603018112156100e7576004350160407fffffffffffffffffffffffffffffffffffffffffffffffffffffffffffffffdc82360301126100e757604051906105e082612b4c565b6024810135600a8110156100e757825260448101359067ffffffffffffffff82116100e75701366043820112156100e757602481013561061f81612da9565b9161062d6040519384612bed565b81835236604483830101116100e75781600092604460209301838601378301015260208201528051600a8110156127c8576001036108de57602001519060c080838051810103126100e75761068460208401612de3565b90604084015160608501516106a460808701519360a08801519701612e27565b93604051927f032bb44300000000000000000000000000000000000000000000000000000000845273ffffffffffffffffffffffffffffffffffffffff938483166004820152602081602481887f0000000000000000000000000000000000000000000000000000000000000000165afa908115610857576000916108a4575b501561087a5761075c610757307f0000000000000000000000000000000000000000000000000000000000000000614154565b613e28565b97600161076882613ef6565b14610863575b8483163b156100e75760009460c493869260405198899788967f91eece2800000000000000000000000000000000000000000000000000000000885233600489015260248801526044870152606486015260848501528260a4850152165af180156108575761082a9464e8d4a510009261081a92610848575b50610815610757307f0000000000000000000000000000000000000000000000000000000000000000614154565b613e82565b05908161082f575b50505b612d7c565b61055a565b61083b6108419261445e565b33613113565b8280610822565b61085190612b84565b866107e7565b6040513d6000823e3d90fd5b610875876108708361445e565b612f37565b61076e565b60046040517f47b7c1b0000000000000000000000000000000000000000000000000000000008152fd5b90506020813d6020116108d6575b816108bf60209383612bed565b810103126100e7576108d090612e27565b89610724565b3d91506108b2565b8051600a8110156127c857600203610ae457602001519060a09182818051810103126100e75760208101519273ffffffffffffffffffffffffffffffffffffffff9081851685036100e75760408301519261094460608201519260808301519201612e27565b936040517f032bb4430000000000000000000000000000000000000000000000000000000081528488166004820152602081602481887f0000000000000000000000000000000000000000000000000000000000000000165afa90811561085757600091610aaa575b501561087a5780610a9b575b7f0000000000000000000000000000000000000000000000000000000000000000926109e53085614154565b948089163b156100e757600092836084926040519b8c9586947fd2c3aaf200000000000000000000000000000000000000000000000000000000865233600487015260248601526044850152876064850152165af19586156108575761082a96610a8c575b50610a6b5750506000905b81610a61575050612d7c565b6108419133613113565b64e8d4a5100091610a80610a85923090614154565b613b22565b0490610a55565b610a9590612b84565b86610a4a565b610aa58582612f37565b6109b9565b90506020813d602011610adc575b81610ac560209383612bed565b810103126100e757610ad690612e27565b886109ad565b3d9150610ab8565b8051600a8110156127c857600303610f545760200151908180518101039160c083126100e75760a07fffffffffffffffffffffffffffffffffffffffffffffffffffffffffffffffe0610b3960208401612de3565b9401126100e75760405190610b4d82612b98565b604081015160ff811681036100e75782526060810151908160000b82036100e75760c09160208401526080810151604084015260a08101516060840152015160808201526040517f032bb44300000000000000000000000000000000000000000000000000000000815273ffffffffffffffffffffffffffffffffffffffff8416600482015260208160248173ffffffffffffffffffffffffffffffffffffffff7f0000000000000000000000000000000000000000000000000000000000000000165afa90811561085757600091610f1a575b501561087a57604081015115610ed857602081015160000b7fffffffffffffffffffffffffffffffffffffffffffffffffffffffffffffffff8114159081610f0e575b50610ed85760ff81511660018114159081610f02575b50610ed857336000526001602052604060002073ffffffffffffffffffffffffffffffffffffffff84166000526020526040600020610cba600054612d7c565b8060005560005260205260406000209260ff8083511611610eae57607f602083015160000b13610eae577fffffffffffffffffffffffffffffffffffffffffffffffffffffffffffffff80602083015160000b12610eae576002610d216040840151613fcc565b14610eae576002610d356060840151613f34565b14610eae57610d476060830151613f5b565b15610eae576002610d5b6080840151613f34565b14610eae57610d6d6080830151613f5b565b15610eae5761082a9360ff83511660208401519071ffffffffffffffff00000000000000000000604086015169ffffffffffffffff000060608801519361ff0060808a015196600060a0604051610dc381612bb4565b85815283830b602082015267ffffffffffffffff881660408201528a60078b810b60608401520b6080820152015260081b16179160101b16179160501b16179060901b79ffffffffffffffff00000000000000000000000000000000000016179055600054917f54f0f9b4211f9974e6fc125f90f26e73f88944ab2d90eb35ba3a1737ad1be18d73ffffffffffffffffffffffffffffffffffffffff60405193169280610ea633948291909160808060a083019460ff8151168452602081015160000b602085015260408101516040850152606081015160608501520151910152565b0390a4612d7c565b60046040517ff3469aa7000000000000000000000000000000000000000000000000000000008152fd5b60046040517fb6befb58000000000000000000000000000000000000000000000000000000008152fd5b60029150141584610c7a565b60019150141584610c64565b90506020813d602011610f4c575b81610f3560209383612bed565b810103126100e757610f4690612e27565b84610c21565b3d9150610f28565b8051600a8110156127c857600403610ffe5760200151906040828051810103126100e757816040610f8a602061082a9501612de3565b91015133600052600160205273ffffffffffffffffffffffffffffffffffffffff604060002092169182600052602052604060002081600052602052600060408120556040519081527fd23ac4476ccf3eeb78c76d4b7bb113597bcd16c15d47656627ea6221d685ad7360203392a3612d7c565b8051600a8110156127c857600503611a375760200151906060828051810103126100e75761102e60208301612de3565b91606061103d60408301612de3565b9101519061106a7f0000000000000000000000000000000000000000000000000000000000000000613fb2565b9160405180602081011067ffffffffffffffff602083011117611a0857806020600092016040525260406110b5828473ffffffffffffffffffffffffffffffffffffffff8916612c59565b0151946040519573ffffffffffffffffffffffffffffffffffffffff8216602088015273ffffffffffffffffffffffffffffffffffffffff8416604088015260608701526060865285608081011067ffffffffffffffff608088011117611a0857608086016040525a91611140818573ffffffffffffffffffffffffffffffffffffffff8516612d44565b156119de5761116573ffffffffffffffffffffffffffffffffffffffff83168561343a565b5050604051907f5b4b969500000000000000000000000000000000000000000000000000000000825273ffffffffffffffffffffffffffffffffffffffff8416600483015260a08260248173ffffffffffffffffffffffffffffffffffffffff8a165afa9182156108575761123892610160916000916119bf575b50516040517fce813aed00000000000000000000000000000000000000000000000000000000815273ffffffffffffffffffffffffffffffffffffffff87166004820152602481019190915292839081906044820190565b038173ffffffffffffffffffffffffffffffffffffffff8a165afa91821561085757600092611988575b5061126d9082613c70565b61128e828673ffffffffffffffffffffffffffffffffffffffff8616612c59565b600160ff8251161461194c575b600260ff8251161461190f575b50602081015190606060408201519101519073ffffffffffffffffffffffffffffffffffffffff87163b156100e757604051927f91eece2800000000000000000000000000000000000000000000000000000000845273ffffffffffffffffffffffffffffffffffffffff8616600485015260248401526044830152606482015260006084820152600060a482015260008160c4818373ffffffffffffffffffffffffffffffffffffffff8a165af1801561085757611900575b5073ffffffffffffffffffffffffffffffffffffffff82166000526001602052604060002073ffffffffffffffffffffffffffffffffffffffff8516600052602052604060002081600052602052600060408120556040517f5b4b969500000000000000000000000000000000000000000000000000000000815273ffffffffffffffffffffffffffffffffffffffff8316600482015260a08160248173ffffffffffffffffffffffffffffffffffffffff89165afa9485156108575773ffffffffffffffffffffffffffffffffffffffff8060409261147e987f4abab1706938f629d27094d4542379d9193363aaaf98e628578c9ca4d4a6a238956000916118d1575b50518451968752602087015216941692a35a90613b22565b90670de0b6b3a76400008202828104670de0b6b3a764000014831517156117a5576114b282670de0b6b3a764000092613f9f565b0469152d02c7e14af6800000810181116117a5576114e6670de0b6b3a76400009169152d02c7e14af6800000489101613f9f565b04600460a073ffffffffffffffffffffffffffffffffffffffff7f2b50211693ec91bcfe327771928b74a8f475c508d53e86fca4153bcf0f0e87765416604051928380927ffeaf968c0000000000000000000000000000000000000000000000000000000082525afa90811561085757600091611884575b5080670de0b6b3a7640000810205670de0b6b3a764000014811517156117a55760006305f5e100670de0b6b3a76400008302051261184357670de0b6b3a7640000916305f5e100836115b293020590613f9f565b04906060858051810103126100e7576115cd60208601612de3565b60026115f16115eb60606115e360408b01612de3565b990151613fb2565b85613fe7565b14611819576115ff83613e28565b6000039561160c87613ef6565b96878005600114881517156117a5576116249061445e565b806117d457506000905b7f8000000000000000000000000000000000000000000000000000000000000000821460008912166117a55787828102058214881517156117a55773ffffffffffffffffffffffffffffffffffffffff16803b156100e7576000928360c49273ffffffffffffffffffffffffffffffffffffffff946040519b8c9687957f91eece280000000000000000000000000000000000000000000000000000000087521660048601527fffffffffffffffffffffffffffffffffffffffffffffffffffffffffffffffff80602487015280604487015260648601520260848401528160a48401525af19485156108575761082a95611796575b50611752827f5b5cbfa852c5bd03e540eba853f8faf28a604a4d82bee1091096bfaea14d08c35433906140eb565b6040519283526020830152620186a0604083015260608201527fd7848cca80f0c7619e9c50ea855dd15779e356a791d0630001913eab6f7eaef760803392a2612d7c565b61179f90612b84565b85611724565b7f4e487b7100000000000000000000000000000000000000000000000000000000600052601160045260246000fd5b7fffffffffffffffffffffffffffffffffffffffffffffffffffffffffffffffff81019081116117a55764e8d4a5100090046001810181116117a5576001019061162e565b60046040517fbccd78e7000000000000000000000000000000000000000000000000000000008152fd5b6024906305f5e100670de0b6b3a7640000604051927f501f289e00000000000000000000000000000000000000000000000000000000845202056004820152fd5b905060a0813d60a0116118c9575b8161189f60a09383612bed565b810103126100e7576118b081613e11565b506118c2608060208301519201613e11565b508661155e565b3d9150611892565b6118f3915060a03d60a0116118f9575b6118eb8183612bed565b810190612e34565b8d611466565b503d6118e1565b61190990612b84565b87611362565b608061191e6060840151613e9b565b9101518080830112600083129080158216911516176117a5576119419101613ff8565b6060820152886112a8565b6119596040830151613e9b565b60808201518080830112600083129080158216911516176117a55761197e9101613ff8565b604083015261129b565b61126d9192506119b1906101603d610160116119b8575b6119a98183612bed565b810190612e7a565b9190611262565b503d61199f565b6119d8915060a03d60a0116118f9576118eb8183612bed565b8b6111e0565b60046040517f6f462962000000000000000000000000000000000000000000000000000000008152fd5b7f4e487b7100000000000000000000000000000000000000000000000000000000600052604160045260246000fd5b8051600a8110156127c857600603611c455760200151908151820160c083602083019203126100e757611a6c60208401612de3565b60408401519160608501519060808601519560a08101519067ffffffffffffffff82116100e75782603f8383010112156100e7576020828201015190611ab182612da9565b93611abf6040519586612bed565b8285526040838584010101116100e757611ae860c092611aee9460406020880191850101612e04565b01612e27565b957f000000000000000000000000000000000000000000000000000000000000000093611b1b3086614154565b9715611bba5773ffffffffffffffffffffffffffffffffffffffff1690813b156100e757611b7c95600094604051978895869485937fb1d50a4800000000000000000000000000000000000000000000000000000000855260048501613342565b03925af180156108575761082a9461082593611ba392611bab575b505b610a803084614154565b9033906140eb565b611bb490612b84565b86611b97565b919673ffffffffffffffffffffffffffffffffffffffff909216949092853b156100e75761082a9761082596611ba395611c2794600094604051968795869485937fb1d50a4800000000000000000000000000000000000000000000000000000000855260048501613342565b03925af1611c36575b50611b99565b611c3f90612b84565b86611c30565b8051600a8110156127c85760070361255657602001516040818051810103126100e75773ffffffffffffffffffffffffffffffffffffffff611c956040611c8e60208501612de3565b9301612de3565b16906040517f032bb44300000000000000000000000000000000000000000000000000000000815273ffffffffffffffffffffffffffffffffffffffff8216600482015260208160248173ffffffffffffffffffffffffffffffffffffffff7f0000000000000000000000000000000000000000000000000000000000000000165afa9081156108575760009161251c575b501561087a57611d3561337d565b50604051917f4549a6290000000000000000000000000000000000000000000000000000000083526102e08360048173ffffffffffffffffffffffffffffffffffffffff86165afa92831561085757600093612337575b50611d97818361343a565b9194604051918261014081011067ffffffffffffffff61014085011117611a085782610140611e3794016040526000815260006020820152600060408201526000606082015260006080820152600060a0820152600060c0820152600060e082015260006101008201526000610120820152611e1285613e9b565b815287519160405192611e2484612b68565b8352602083015260016040830152613bae565b6040517ffc0c546a00000000000000000000000000000000000000000000000000000000815260208160048173ffffffffffffffffffffffffffffffffffffffff89165afa908115610857576000916122e6575b50611eb364e8d4a510009173ffffffffffffffffffffffffffffffffffffffff871690614154565b04808210156122de5750925b604051947f5b4b969500000000000000000000000000000000000000000000000000000000865283600487015260a08660248173ffffffffffffffffffffffffffffffffffffffff86165afa95861561085757611f7a96610160916000916122bf575b50516040517fce813aed00000000000000000000000000000000000000000000000000000000815273ffffffffffffffffffffffffffffffffffffffff87166004820152602481019190915296879081906044820190565b038173ffffffffffffffffffffffffffffffffffffffff86165afa95861561085757600096612298575b50611faf9086613c70565b602085015182816122895750506000915b806040870151801560001461227757505060606000965b015190816122685750506000925b611fee85613e9b565b60000373ffffffffffffffffffffffffffffffffffffffff83163b156100e75773ffffffffffffffffffffffffffffffffffffffff60c4936000969287936040519a8b9889977f91eece2800000000000000000000000000000000000000000000000000000000895260048901526024880152604487015260648601526084850152600160a4850152165af19182156108575761209092612259575b50613fb2565b9073ffffffffffffffffffffffffffffffffffffffff7f0000000000000000000000000000000000000000000000000000000000000000168015801561221b575b156121b4575073ffffffffffffffffffffffffffffffffffffffff7f00000000000000000000000000000000000000000000000000000000000000001691823b156100e757600080936024604051809681937fdb006a750000000000000000000000000000000000000000000000000000000083528660048401525af19283156108575761082a936121a5575b5030330361216d575b50612d7c565b64e8d4a5100061219f9104337f00000000000000000000000000000000000000000000000000000000000000006140eb565b82612167565b6121ae90612b84565b8361215e565b803b156100e7576040517f7647691d00000000000000000000000000000000000000000000000000000000815260048101939093523360248401526000908390604490829084905af19182156108575761082a926122125750612d7c565b61219f90612b84565b5060026122536115eb61224e847f0000000000000000000000000000000000000000000000000000000000000000614154565b613fb2565b146120d1565b61226290612b84565b8361208a565b61227191613b22565b92611fe5565b60609161228391613b22565b96611fd7565b61229291613b22565b91611fc0565b611faf9196506122b8906101603d610160116119b8576119a98183612bed565b9590611fa4565b6122d8915060a03d60a0116118f9576118eb8183612bed565b89611f22565b905092611ebf565b90506020813d60201161232f575b8161230160209383612bed565b810103126100e7575173ffffffffffffffffffffffffffffffffffffffff811681036100e757611eb3611e8b565b3d91506122f4565b9092506102e0903d6102e011612514575b6123528282612bed565b6102e08183810103126100e757604051918261026081011067ffffffffffffffff61026085011117611a0857610260830160405281518352602082015160208401526040820151604084015260608201516060840152608091828101518385015260a0808201519085015260c0808201519085015260e081015160e08501526101008082015190850152610120808201519085015261014080820151908501526101608082015190850152827ffffffffffffffffffffffffffffffffffffffffffffffffffffffffffffffe80828481010301126100e75760405192838181011067ffffffffffffffff8286011117611a085783016040526101809081810151845260407ffffffffffffffffffffffffffffffffffffffffffffffffffffffffffffffe00826101a0958682015160208901526101c09788830151858201526101e0968784015160608301528a015281010301126100e757612509926102c092604051906124bf82612b4c565b610200918285015181526102209384860151602083015289015261024096878501519089015261026084015190880152610280830151908701526102a08201519086015201612e27565b908201529184611d8c565b3d9150612348565b90506020813d60201161254e575b8161253760209383612bed565b810103126100e75761254890612e27565b84611d27565b3d915061252a565b8051600a8110156127c85760080361270b5760200151906020828051810103126100e75760209161259e73ffffffffffffffffffffffffffffffffffffffff93849201612de3565b1691604051907f032bb4430000000000000000000000000000000000000000000000000000000091828152846004820152602081602481857f0000000000000000000000000000000000000000000000000000000000000000165afa908115610857576000916126d1575b50159182612645575b505061087a5761082561082a927f0000000000000000000000000000000000000000000000000000000000000000614034565b602091925060246040518094819382528760048301527f0000000000000000000000000000000000000000000000000000000000000000165afa90811561085757600091612697575b50158380612612565b90506020813d6020116126c9575b816126b260209383612bed565b810103126100e7576126c390612e27565b8361268e565b3d91506126a5565b90506020813d602011612703575b816126ec60209383612bed565b810103126100e7576126fd90612e27565b85612609565b3d91506126df565b8051600a8110156127c857600914612728575b5061082a90612d7c565b60200151906040828051810103126100e75781604061274c602061082a9501612de3565b9101516127968173ffffffffffffffffffffffffffffffffffffffff809416809433907f0000000000000000000000000000000000000000000000000000000000000000166141e3565b6040519081527f945458c62aa39df7a4d87d6c4dbaaab7de5d870c9a1fe40e2b7571d84f158a8d60203392a39061271e565b7f4e487b7100000000000000000000000000000000000000000000000000000000600052602160045260246000fd5b346100e75760007ffffffffffffffffffffffffffffffffffffffffffffffffffffffffffffffffc3601126100e75760206040517f00000000000000000000000000000000000000000000000000000000000000008152f35b346100e75760007ffffffffffffffffffffffffffffffffffffffffffffffffffffffffffffffffc3601126100e757602073ffffffffffffffffffffffffffffffffffffffff7f2b50211693ec91bcfe327771928b74a8f475c508d53e86fca4153bcf0f0e87765416604051908152f35b346100e75760007ffffffffffffffffffffffffffffffffffffffffffffffffffffffffffffffffc3601126100e757602060405173ffffffffffffffffffffffffffffffffffffffff7f0000000000000000000000000000000000000000000000000000000000000000168152f35b346100e75760007ffffffffffffffffffffffffffffffffffffffffffffffffffffffffffffffffc3601126100e757602060405173ffffffffffffffffffffffffffffffffffffffff7f0000000000000000000000000000000000000000000000000000000000000000168152f35b346100e75760007ffffffffffffffffffffffffffffffffffffffffffffffffffffffffffffffffc3601126100e75760207f5b5cbfa852c5bd03e540eba853f8faf28a604a4d82bee1091096bfaea14d08c35473ffffffffffffffffffffffffffffffffffffffff60405191168152f35b346100e75760007ffffffffffffffffffffffffffffffffffffffffffffffffffffffffffffffffc3601126100e757602060405173ffffffffffffffffffffffffffffffffffffffff7f0000000000000000000000000000000000000000000000000000000000000000168152f35b346100e75760007ffffffffffffffffffffffffffffffffffffffffffffffffffffffffffffffffc3601126100e75760209073ffffffffffffffffffffffffffffffffffffffff7f0000000000000000000000000000000000000000000000000000000000000000168152f35b7ffffffffffffffffffffffffffffffffffffffffffffffffffffffffffffffffc60609101126100e75773ffffffffffffffffffffffffffffffffffffffff9060043582811681036100e7579160243590811681036100e7579060443590565b6040810190811067ffffffffffffffff821117611a0857604052565b6060810190811067ffffffffffffffff821117611a0857604052565b67ffffffffffffffff8111611a0857604052565b60a0810190811067ffffffffffffffff821117611a0857604052565b60c0810190811067ffffffffffffffff821117611a0857604052565b610120810190811067ffffffffffffffff821117611a0857604052565b90601f7fffffffffffffffffffffffffffffffffffffffffffffffffffffffffffffffe0910116810190811067ffffffffffffffff821117611a0857604052565b60405190612c3b82612b98565b60006080838281528260208201528260408201528260608201520152565b91612c62612c2e565b5073ffffffffffffffffffffffffffffffffffffffff9182600094168452600160205260409283852091168452602052818320908352602052808220612ca6612c2e565b50815190612cb382612bb4565b549160ff8316938483528360081c900b9081602084015267ffffffffffffffff8460101c169182828501528460501c60070b9384606082015260a07fffffffffffff00000000000000000000000000000000000000000000000000008760901c60070b9788608085015216910152815195612d2d87612b98565b865260208601528401526060830152608082015290565b91612d50908284612c59565b90604082015115612d7457612d7192612d689161343a565b50919050613b2f565b90565b505050600090565b7fffffffffffffffffffffffffffffffffffffffffffffffffffffffffffffffff81146117a55760010190565b67ffffffffffffffff8111611a0857601f017fffffffffffffffffffffffffffffffffffffffffffffffffffffffffffffffe01660200190565b519073ffffffffffffffffffffffffffffffffffffffff821682036100e757565b60005b838110612e175750506000910152565b8181015183820152602001612e07565b519081151582036100e757565b908160a09103126100e757608060405191612e4e83612b98565b805183526020810151602084015260408101516040840152606081015160608401520151608082015290565b8091039061016082126100e75760607fffffffffffffffffffffffffffffffffffffffffffffffffffffffffffffff0060405193612eb785612bd0565b83518552602084015160208601526040840151604086015282840151838601526080840151608086015260a084015160a086015260c084015160c086015260e084015160e086015201126100e75760405190612f1282612b68565b6101406101009182810151845261012081015160208501520151604083015282015290565b90156130c957612f8473ffffffffffffffffffffffffffffffffffffffff9161224e813033867f0000000000000000000000000000000000000000000000000000000000000000166141e3565b90807f00000000000000000000000000000000000000000000000000000000000000001680158015613093575b1561303857507f00000000000000000000000000000000000000000000000000000000000000001690813b156100e7576000916024839260405194859384927fa0712d6800000000000000000000000000000000000000000000000000000000845260048401525af1801561085757613029575b505b565b61303290612b84565b38613025565b8091503b156100e7576040517f13bac82000000000000000000000000000000000000000000000000000000000815260048101929092523060248301526000908290818381604481015b03925af18015610857576130295750565b5060026130c36115eb837f0000000000000000000000000000000000000000000000000000000000000000614154565b14612fb1565b6130d561302791613fb2565b303373ffffffffffffffffffffffffffffffffffffffff7f0000000000000000000000000000000000000000000000000000000000000000166141e3565b91156132cb5761312290613fb2565b9073ffffffffffffffffffffffffffffffffffffffff807f0000000000000000000000000000000000000000000000000000000000000000168015801561328c575b156132265750807f000000000000000000000000000000000000000000000000000000000000000016803b156100e757600080916024604051809481937fdb006a750000000000000000000000000000000000000000000000000000000083528960048401525af1801561085757613217575b5030908216036131e5575050565b64e8d4a510006130279204907f00000000000000000000000000000000000000000000000000000000000000006140eb565b61322090612b84565b386131d7565b80939291503b156100e7576040517f7647691d000000000000000000000000000000000000000000000000000000008152600481019290925273ffffffffffffffffffffffffffffffffffffffff16602482015290600090829081838160448101613082565b5060026132c56132bf61224e847f0000000000000000000000000000000000000000000000000000000000000000614154565b86613fe7565b14613164565b906132d861302792613fb2565b907f00000000000000000000000000000000000000000000000000000000000000006140eb565b907fffffffffffffffffffffffffffffffffffffffffffffffffffffffffffffffe0601f60209361333b81518092818752878088019101612e04565b0116010190565b612d7193926060928252602082015281604082015201906132ff565b6040519061336b82612b68565b60006040838281528260208201520152565b6040519061338a82612bd0565b8160008082528060208301528060408301528060608301528060808301528060a08301528060c083015260e08201526101006133c461335e565b910152565b908160209103126100e7575173ffffffffffffffffffffffffffffffffffffffff811681036100e75790565b908160609103126100e757613425604080519261341184612b68565b805184526020810151602085015201612e27565b604082015290565b919082018092116117a557565b909161344461337d565b50604051917f7dc0d1d000000000000000000000000000000000000000000000000000000000835260208360048173ffffffffffffffffffffffffffffffffffffffff85165afa9283156108575773ffffffffffffffffffffffffffffffffffffffff93606091600091613b03575b506004604051809681937f52bfe789000000000000000000000000000000000000000000000000000000008352165afa92831561085757600093613ae2575b506020830151926040517f95fcd83600000000000000000000000000000000000000000000000000000000815260208160048173ffffffffffffffffffffffffffffffffffffffff87165afa90811561085757600091613a7b575b5073ffffffffffffffffffffffffffffffffffffffff16806139f7575b505192604051927f55f5751000000000000000000000000000000000000000000000000000000000845273ffffffffffffffffffffffffffffffffffffffff8616948560048601526101608560248173ffffffffffffffffffffffffffffffffffffffff88165afa948515610857576000956139d4575b50846135ec86613deb565b938493604051987f5b4b9695000000000000000000000000000000000000000000000000000000008a5260048a015260a08960248173ffffffffffffffffffffffffffffffffffffffff8b165afa988915610857576000996139b4575b506020890151600181018091116117a5579590945b895187116139a7576040517fce813aed00000000000000000000000000000000000000000000000000000000815273ffffffffffffffffffffffffffffffffffffffff8c166004820152602481018890529190610160838060448101038173ffffffffffffffffffffffffffffffffffffffff8d165afa92831561085757600093613984575b506136ef8a84613c70565b825186106139435750506040517f7dc0d1d000000000000000000000000000000000000000000000000000000000815260208160048173ffffffffffffffffffffffffffffffffffffffff8c165afa9081156108575773ffffffffffffffffffffffffffffffffffffffff91606091600091613914575b506024845160405194859384927fe0886f900000000000000000000000000000000000000000000000000000000084526004840152165afa8015610857576040916000916138e5575b500151156137f8575b8051906020810151906060604082015191015160608b015260408a0152602089015287526137e587613deb565b936137f08596612d7c565b95909461365e565b610100880151805161382361381060208c0151613e9b565b61381d6020860151613e9b565b90613e82565b908180820112600082129080158216911516176117a557018152602081015161385f61385260408c0151613e9b565b61381d6040860151613e9b565b908180820112600082129080158216911516176117a557016020820152604081015161389e61389160608c0151613e9b565b61381d6060860151613e9b565b8080830112600083129080158216911516176117a557604091019101526020880151604089015160608a0151600060808501526060840152604083015260208201526137b8565b613907915060603d60601161390d575b6138ff8183612bed565b8101906133f5565b386137af565b503d6138f5565b613936915060203d60201161393c575b61392e8183612bed565b8101906133c9565b38613766565b503d613924565b6139649061395661396a94999899613deb565b8181101561397d5790613b22565b90613b22565b946137f061397789613deb565b95612d7c565b5080613b22565b6139a09193506101603d610160116119b8576119a98183612bed565b91386136e4565b5096509650965050915050565b6139cd91995060a03d81116118f9576118eb8183612bed565b9738613649565b6139f09195506101603d610160116119b8576119a98183612bed565b93386135e1565b90936020906024604051809481937fd7c7a93500000000000000000000000000000000000000000000000000000000835260048301525afa90811561085757600091613a46575b50923861356a565b906020823d602011613a73575b81613a6060209383612bed565b81010312613a7057505138613a3e565b80fd5b3d9150613a53565b6020813d602011613ada575b81613a9460209383612bed565b81010312613ad657519073ffffffffffffffffffffffffffffffffffffffff82168203613a70575073ffffffffffffffffffffffffffffffffffffffff61354d565b5080fd5b3d9150613a87565b613afc91935060603d60601161390d576138ff8183612bed565b91386134f2565b613b1c915060203d60201161393c5761392e8183612bed565b386134b3565b919082039182116117a557565b90602082015160000b60018114613b90577fffffffffffffffffffffffffffffffffffffffffffffffffffffffffffffffff14613b6d575050600090565b6060613b7b92015190613f8e565b8015908115613b88575090565b600191501490565b506060613b9f92015190613f8e565b60028114908115613b88575090565b613bdf90613bd16040613bd7613bc4845161445e565b613bd1602086015161445e565b9061342d565b92015161445e565b908115612d7457613c3a6020613c1b613c0993613c0f61014096620f42409687958694015161445e565b90613f9f565b04602087015190613f9f565b046101e0850151808211600014613c6957505b61012085015190613f9f565b04610160830151808210600014613c615750915b015180821115613c5c575090565b905090565b905091613c4e565b9050613c2e565b610100809201519181015190613cc0613c8761335e565b92613c958551825190613e82565b8452604080613cad6020880151602085015190613e82565b9660208701978852015191015190613e82565b92604083019384526020820192613cd78451613e9b565b90518082019081126000809312908015821691151617613dbe57613cfa90613ff8565b946040840192613d0a8451613e9b565b905190838282019283129112908015821691151617613d9157613d2e606091613ff8565b940191613d3b8351613e9b565b915191818382019384129112908015821691151617613d645750613d5e90613ff8565b90525252565b807f4e487b7100000000000000000000000000000000000000000000000000000000602492526011600452fd5b6024837f4e487b710000000000000000000000000000000000000000000000000000000081526011600452fd5b6024827f4e487b710000000000000000000000000000000000000000000000000000000081526011600452fd5b602060408201516060830151808211600014613c61575091015180821115613c5c575090565b519069ffffffffffffffffffff821682036100e757565b7f7fffffffffffffffffffffffffffffffffffffffffffffffffffffffffffffff8111613e525790565b602490604051907ea07eb50000000000000000000000000000000000000000000000000000000082526004820152fd5b818103929160001380158285131691841216176117a557565b7f7fffffffffffffffffffffffffffffffffffffffffffffffffffffffffffffff8111613ec55790565b602490604051907feecaa25d0000000000000000000000000000000000000000000000000000000082526004820152fd5b60008113613f2e57600013613f0a57600090565b7fffffffffffffffffffffffffffffffffffffffffffffffffffffffffffffffff90565b50600190565b677fffffffffffffff90818113613f545712613f4f57600190565b600090565b5050600290565b7fffffffffffffffffffffffffffffffffffffffffffffffff800000000000000090818113613f545712613f4f57600190565b818113613f545712613f4f57600190565b818102929181159184041417156117a557565b64e8d4a51000908181029181830414901517156117a55790565b67ffffffffffffffff90818111613f545710613f4f57600190565b818111613f545710613f4f57600190565b600081126140035790565b602490604051907fb02ef0870000000000000000000000000000000000000000000000000000000082526004820152fd5b600091604460209260405194859384927f095ea7b300000000000000000000000000000000000000000000000000000000845273ffffffffffffffffffffffffffffffffffffffff80921660048501527fffffffffffffffffffffffffffffffffffffffffffffffffffffffffffffffff6024850152165af18015610857576140ba5750565b6020813d82116140e3575b816140d260209383612bed565b810103126100e75761302590612e27565b3d91506140c5565b6040517fa9059cbb00000000000000000000000000000000000000000000000000000000602082015273ffffffffffffffffffffffffffffffffffffffff928316602482015260448082019490945292835261302792919061414e606484612bed565b16614248565b6020906024604051809481937f70a0823100000000000000000000000000000000000000000000000000000000835273ffffffffffffffffffffffffffffffffffffffff8092166004840152165afa908115610857576000916141b5575090565b906020823d82116141db575b816141ce60209383612bed565b81010312613a7057505190565b3d91506141c1565b909261302793604051937f23b872dd00000000000000000000000000000000000000000000000000000000602086015273ffffffffffffffffffffffffffffffffffffffff809216602486015216604484015260648301526064825261424882612b98565b73ffffffffffffffffffffffffffffffffffffffff16906142d360405161426e81612b4c565b6020938482527f5361666545524332303a206c6f772d6c6576656c2063616c6c206661696c6564858301526000808587829751910182855af13d1561438a573d916142b883612da9565b926142c66040519485612bed565b83523d868885013e61438e565b908151806142e2575b50505050565b82849181010312613a705750816142f99101612e27565b15614306578080806142dc565b608490604051907f08c379a00000000000000000000000000000000000000000000000000000000082526004820152602a60248201527f5361666545524332303a204552433230206f7065726174696f6e20646964206e60448201527f6f742073756363656564000000000000000000000000000000000000000000006064820152fd5b6060915b9192901561440957508151156143a2575090565b3b156143ab5790565b60646040517f08c379a000000000000000000000000000000000000000000000000000000000815260206004820152601d60248201527f416464726573733a2063616c6c20746f206e6f6e2d636f6e74726163740000006044820152fd5b82519091501561441c5750805190602001fd5b61445a906040519182917f08c379a00000000000000000000000000000000000000000000000000000000083526020600484015260248301906132ff565b0390fd5b600080821261446b575090565b039056fea2646970667358221220a7202395bf13e2ab42b486ddc3396bd81a9d5ee9f950d247eab0d274b95872c164736f6c63430008130033",
  "devdoc": {
    "kind": "dev",
    "methods": {
      "canExecuteOrder(address,address,uint256)": {
        "params": {
          "account": "Account to get open oder of",
          "market": "Market to get open order in",
          "nonce": "UID of order"
        },
        "returns": {
          "_0": "canFill Whether the order can be executed"
        }
      },
      "constructor": {
        "params": {
          "batcher_": "Batcher address",
          "dsu_": "DSU address",
          "keeperMultiplier_": "multiplier to charge accounts on top of gas cost for keeper executions",
          "marketFactory_": "Protocol factory to validate market approvals",
          "reserve_": "Reserve address",
          "usdc_": "USDC stablecoin address",
          "vaultFactory_": "Protocol factory to validate vault approvals"
        }
      },
      "initialize(address)": {
        "params": {
          "ethOracle_": "Chainlink ETH/USD oracle address"
        }
      },
      "invoke((uint8,bytes)[])": {
        "params": {
          "invocations": "List of actions to execute in order"
        }
      },
      "orders(address,address,uint256)": {
        "params": {
          "account": "Account to get open oder of",
          "market": "Market to get open order in",
          "nonce": "UID of order"
        }
      }
    },
    "stateVariables": {
      "DSU": {
        "details": "DSU address"
      },
      "GAS_BUFFER": {
        "details": "Gas buffer estimating remaining execution gas to include in fee to cover further instructions"
      },
      "USDC": {
        "details": "USDC stablecoin address"
      },
      "_orders": {
        "details": "State for the order data"
      },
      "batcher": {
        "details": "Batcher address"
      },
      "keeperMultiplier": {
        "details": "multiplier to charge accounts on top of gas cost for keeper executions"
      },
      "latestNonce": {
        "details": "UID for an order"
      },
      "marketFactory": {
        "details": "Protocol factory to validate market approvals"
      },
      "reserve": {
        "details": "Reserve address"
      },
      "vaultFactory": {
        "details": "Vault factory to validate vault approvals"
      }
    },
    "title": "MultiInvoker",
    "version": 1
  },
  "userdoc": {
    "kind": "user",
    "methods": {
      "canExecuteOrder(address,address,uint256)": {
        "notice": "Returns whether an order can be executed"
      },
      "constructor": {
        "notice": "Constructs the MultiInvoker contract"
      },
      "initialize(address)": {
        "notice": "Initialize the contract"
      },
      "invoke((uint8,bytes)[])": {
        "notice": "entry to perform invocations"
      },
      "orders(address,address,uint256)": {
        "notice": "View function to get order state"
      }
    },
    "notice": "Extension to handle batched calls to the Perennial protocol",
    "version": 1
  },
  "storageLayout": {
    "storage": [
      {
        "astId": 245,
        "contract": "@equilibria/perennial-v2-extensions/contracts/MultiInvoker.sol:MultiInvoker",
        "label": "latestNonce",
        "offset": 0,
        "slot": "0",
        "type": "t_uint256"
      },
      {
        "astId": 256,
        "contract": "@equilibria/perennial-v2-extensions/contracts/MultiInvoker.sol:MultiInvoker",
        "label": "_orders",
        "offset": 0,
        "slot": "1",
        "type": "t_mapping(t_address,t_mapping(t_contract(IMarket)13810,t_mapping(t_uint256,t_struct(TriggerOrderStorage)2146_storage)))"
      }
    ],
    "types": {
      "t_address": {
        "encoding": "inplace",
        "label": "address",
        "numberOfBytes": "20"
      },
      "t_bytes6": {
        "encoding": "inplace",
        "label": "bytes6",
        "numberOfBytes": "6"
      },
      "t_contract(IMarket)13810": {
        "encoding": "inplace",
        "label": "contract IMarket",
        "numberOfBytes": "20"
      },
      "t_int64": {
        "encoding": "inplace",
        "label": "int64",
        "numberOfBytes": "8"
      },
      "t_int8": {
        "encoding": "inplace",
        "label": "int8",
        "numberOfBytes": "1"
      },
      "t_mapping(t_address,t_mapping(t_contract(IMarket)13810,t_mapping(t_uint256,t_struct(TriggerOrderStorage)2146_storage)))": {
        "encoding": "mapping",
        "key": "t_address",
        "label": "mapping(address => mapping(contract IMarket => mapping(uint256 => struct TriggerOrderStorage)))",
        "numberOfBytes": "32",
        "value": "t_mapping(t_contract(IMarket)13810,t_mapping(t_uint256,t_struct(TriggerOrderStorage)2146_storage))"
      },
      "t_mapping(t_contract(IMarket)13810,t_mapping(t_uint256,t_struct(TriggerOrderStorage)2146_storage))": {
        "encoding": "mapping",
        "key": "t_contract(IMarket)13810",
        "label": "mapping(contract IMarket => mapping(uint256 => struct TriggerOrderStorage))",
        "numberOfBytes": "32",
        "value": "t_mapping(t_uint256,t_struct(TriggerOrderStorage)2146_storage)"
      },
      "t_mapping(t_uint256,t_struct(TriggerOrderStorage)2146_storage)": {
        "encoding": "mapping",
        "key": "t_uint256",
        "label": "mapping(uint256 => struct TriggerOrderStorage)",
        "numberOfBytes": "32",
        "value": "t_struct(TriggerOrderStorage)2146_storage"
      },
      "t_struct(StoredTriggerOrder)2142_storage": {
        "encoding": "inplace",
        "label": "struct StoredTriggerOrder",
        "members": [
          {
            "astId": 2131,
            "contract": "@equilibria/perennial-v2-extensions/contracts/MultiInvoker.sol:MultiInvoker",
            "label": "side",
            "offset": 0,
            "slot": "0",
            "type": "t_uint8"
          },
          {
            "astId": 2133,
            "contract": "@equilibria/perennial-v2-extensions/contracts/MultiInvoker.sol:MultiInvoker",
            "label": "comparison",
            "offset": 1,
            "slot": "0",
            "type": "t_int8"
          },
          {
            "astId": 2135,
            "contract": "@equilibria/perennial-v2-extensions/contracts/MultiInvoker.sol:MultiInvoker",
            "label": "fee",
            "offset": 2,
            "slot": "0",
            "type": "t_uint64"
          },
          {
            "astId": 2137,
            "contract": "@equilibria/perennial-v2-extensions/contracts/MultiInvoker.sol:MultiInvoker",
            "label": "price",
            "offset": 10,
            "slot": "0",
            "type": "t_int64"
          },
          {
            "astId": 2139,
            "contract": "@equilibria/perennial-v2-extensions/contracts/MultiInvoker.sol:MultiInvoker",
            "label": "delta",
            "offset": 18,
            "slot": "0",
            "type": "t_int64"
          },
          {
            "astId": 2141,
            "contract": "@equilibria/perennial-v2-extensions/contracts/MultiInvoker.sol:MultiInvoker",
            "label": "__unallocated0__",
            "offset": 26,
            "slot": "0",
            "type": "t_bytes6"
          }
        ],
        "numberOfBytes": "32"
      },
      "t_struct(TriggerOrderStorage)2146_storage": {
        "encoding": "inplace",
        "label": "struct TriggerOrderStorage",
        "members": [
          {
            "astId": 2145,
            "contract": "@equilibria/perennial-v2-extensions/contracts/MultiInvoker.sol:MultiInvoker",
            "label": "value",
            "offset": 0,
            "slot": "0",
            "type": "t_struct(StoredTriggerOrder)2142_storage"
          }
        ],
        "numberOfBytes": "32"
      },
      "t_uint256": {
        "encoding": "inplace",
        "label": "uint256",
        "numberOfBytes": "32"
      },
      "t_uint64": {
        "encoding": "inplace",
        "label": "uint64",
        "numberOfBytes": "8"
      },
      "t_uint8": {
        "encoding": "inplace",
        "label": "uint8",
        "numberOfBytes": "1"
      }
    }
  }
}