{
  "address": "0xA0f11B2735Fd8f5eC8D3F3eF6D7853F59398E94B",
  "abi": [
    {
      "inputs": [
        {
          "internalType": "contract AbstractPyth",
          "name": "_pyth",
          "type": "address"
        }
      ],
      "stateMutability": "nonpayable",
      "type": "constructor"
    },
    {
      "inputs": [],
      "name": "DivisionByZero",
      "type": "error"
    },
    {
      "inputs": [
        {
          "internalType": "uint256",
          "name": "value",
          "type": "uint256"
        }
      ],
      "name": "Fixed6OverflowError",
      "type": "error"
    },
    {
      "inputs": [
        {
          "internalType": "uint256",
          "name": "version",
          "type": "uint256"
        }
      ],
      "name": "InitializableAlreadyInitializedError",
      "type": "error"
    },
    {
      "inputs": [],
      "name": "InitializableNotInitializingError",
      "type": "error"
    },
    {
      "inputs": [],
      "name": "InitializableZeroVersionError",
      "type": "error"
    },
    {
      "inputs": [
        {
          "internalType": "address",
          "name": "sender",
          "type": "address"
        }
      ],
      "name": "InstanceNotOwnerError",
      "type": "error"
    },
    {
      "inputs": [],
      "name": "InstancePausedError",
      "type": "error"
    },
    {
      "inputs": [],
      "name": "OracleProviderUnauthorizedError",
      "type": "error"
    },
    {
      "inputs": [],
      "name": "PythOracleFailedToCalculateRewardError",
      "type": "error"
    },
    {
      "inputs": [],
      "name": "PythOracleFailedToSendRewardError",
      "type": "error"
    },
    {
      "inputs": [],
      "name": "PythOracleGracePeriodHasNotExpiredError",
      "type": "error"
    },
    {
      "inputs": [
        {
          "internalType": "bytes32",
          "name": "id",
          "type": "bytes32"
        }
      ],
      "name": "PythOracleInvalidPriceIdError",
      "type": "error"
    },
    {
      "inputs": [],
      "name": "PythOracleNoNewVersionToCommitError",
      "type": "error"
    },
    {
      "inputs": [],
      "name": "PythOracleNonIncreasingPublishTimes",
      "type": "error"
    },
    {
      "inputs": [],
      "name": "PythOracleNonRequestedTooRecentError",
      "type": "error"
    },
    {
      "inputs": [],
      "name": "PythOracleUpdateValidForPreviousVersionError",
      "type": "error"
    },
    {
      "inputs": [],
      "name": "PythOracleVersionIndexTooLowError",
      "type": "error"
    },
    {
      "inputs": [],
      "name": "PythOracleVersionOutsideRangeError",
      "type": "error"
    },
    {
      "inputs": [
        {
          "internalType": "int256",
          "name": "value",
          "type": "int256"
        }
      ],
      "name": "UFixed18UnderflowError",
      "type": "error"
    },
    {
      "anonymous": false,
      "inputs": [
        {
          "indexed": false,
          "internalType": "uint256",
          "name": "version",
          "type": "uint256"
        }
      ],
      "name": "Initialized",
      "type": "event"
    },
    {
      "anonymous": false,
      "inputs": [
        {
          "indexed": true,
          "internalType": "address",
          "name": "sender",
          "type": "address"
        },
        {
          "indexed": false,
          "internalType": "uint256",
          "name": "gasUsed",
          "type": "uint256"
        },
        {
          "indexed": false,
          "internalType": "UFixed18",
          "name": "multiplier",
          "type": "uint256"
        },
        {
          "indexed": false,
          "internalType": "uint256",
          "name": "buffer",
          "type": "uint256"
        },
        {
          "indexed": false,
          "internalType": "UFixed18",
          "name": "keeperFee",
          "type": "uint256"
        }
      ],
      "name": "KeeperCall",
      "type": "event"
    },
    {
      "anonymous": false,
      "inputs": [
        {
          "indexed": true,
          "internalType": "uint256",
          "name": "version",
          "type": "uint256"
        }
      ],
      "name": "OracleProviderVersionFulfilled",
      "type": "event"
    },
    {
      "anonymous": false,
      "inputs": [
        {
          "indexed": true,
          "internalType": "uint256",
          "name": "version",
          "type": "uint256"
        }
      ],
      "name": "OracleProviderVersionRequested",
      "type": "event"
    },
    {
      "inputs": [],
      "name": "ARB_FIXED_OVERHEAD",
      "outputs": [
        {
          "internalType": "uint256",
          "name": "",
          "type": "uint256"
        }
      ],
      "stateMutability": "view",
      "type": "function"
    },
    {
      "inputs": [],
      "name": "ARB_GAS_MULTIPLIER",
      "outputs": [
        {
          "internalType": "uint256",
          "name": "",
          "type": "uint256"
        }
      ],
      "stateMutability": "view",
      "type": "function"
    },
    {
      "inputs": [],
      "name": "GRACE_PERIOD",
      "outputs": [
        {
          "internalType": "uint256",
          "name": "",
          "type": "uint256"
        }
      ],
      "stateMutability": "view",
      "type": "function"
    },
    {
      "inputs": [],
      "name": "KEEPER_BUFFER",
      "outputs": [
        {
          "internalType": "uint256",
          "name": "",
          "type": "uint256"
        }
      ],
      "stateMutability": "view",
      "type": "function"
    },
    {
      "inputs": [],
      "name": "KEEPER_REWARD_PREMIUM",
      "outputs": [
        {
          "internalType": "UFixed18",
          "name": "",
          "type": "uint256"
        }
      ],
      "stateMutability": "view",
      "type": "function"
    },
    {
      "inputs": [],
      "name": "MAX_VALID_TIME_AFTER_VERSION",
      "outputs": [
        {
          "internalType": "uint256",
          "name": "",
          "type": "uint256"
        }
      ],
      "stateMutability": "view",
      "type": "function"
    },
    {
      "inputs": [],
      "name": "MIN_VALID_TIME_AFTER_VERSION",
      "outputs": [
        {
          "internalType": "uint256",
          "name": "",
          "type": "uint256"
        }
      ],
      "stateMutability": "view",
      "type": "function"
    },
    {
      "inputs": [
        {
          "internalType": "uint256",
          "name": "timestamp",
          "type": "uint256"
        }
      ],
      "name": "at",
      "outputs": [
        {
          "components": [
            {
              "internalType": "uint256",
              "name": "timestamp",
              "type": "uint256"
            },
            {
              "internalType": "Fixed6",
              "name": "price",
              "type": "int256"
            },
            {
              "internalType": "bool",
              "name": "valid",
              "type": "bool"
            }
          ],
          "internalType": "struct OracleVersion",
          "name": "oracleVersion",
          "type": "tuple"
        }
      ],
      "stateMutability": "view",
      "type": "function"
    },
    {
      "inputs": [
        {
          "internalType": "uint256",
          "name": "versionIndex",
          "type": "uint256"
        },
        {
          "internalType": "uint256",
          "name": "oracleVersion",
          "type": "uint256"
        },
        {
          "internalType": "bytes",
          "name": "updateData",
          "type": "bytes"
        }
      ],
      "name": "commit",
      "outputs": [],
      "stateMutability": "payable",
      "type": "function"
    },
    {
      "inputs": [
        {
          "internalType": "uint256",
          "name": "versionIndex",
          "type": "uint256"
        },
        {
          "internalType": "bytes",
          "name": "updateData",
          "type": "bytes"
        }
      ],
      "name": "commitRequested",
      "outputs": [],
      "stateMutability": "payable",
      "type": "function"
    },
    {
      "inputs": [],
      "name": "current",
      "outputs": [
        {
          "internalType": "uint256",
          "name": "",
          "type": "uint256"
        }
      ],
      "stateMutability": "view",
      "type": "function"
    },
    {
      "inputs": [],
      "name": "ethTokenOracleFeed",
      "outputs": [
        {
          "internalType": "contract AggregatorV3Interface",
          "name": "",
          "type": "address"
        }
      ],
      "stateMutability": "view",
      "type": "function"
    },
    {
      "inputs": [],
      "name": "factory",
      "outputs": [
        {
          "internalType": "contract IFactory",
          "name": "",
          "type": "address"
        }
      ],
      "stateMutability": "view",
      "type": "function"
    },
    {
      "inputs": [],
      "name": "id",
      "outputs": [
        {
          "internalType": "bytes32",
          "name": "",
          "type": "bytes32"
        }
      ],
      "stateMutability": "view",
      "type": "function"
    },
    {
      "inputs": [
        {
          "internalType": "bytes32",
          "name": "id_",
          "type": "bytes32"
        },
        {
          "internalType": "contract AggregatorV3Interface",
          "name": "chainlinkFeed_",
          "type": "address"
        },
        {
          "internalType": "Token18",
          "name": "dsu_",
          "type": "address"
        }
      ],
      "name": "initialize",
      "outputs": [],
      "stateMutability": "nonpayable",
      "type": "function"
    },
    {
      "inputs": [],
      "name": "keeperToken",
      "outputs": [
        {
          "internalType": "Token18",
          "name": "",
          "type": "address"
        }
      ],
      "stateMutability": "view",
      "type": "function"
    },
    {
      "inputs": [],
      "name": "lastCommittedPublishTime",
      "outputs": [
        {
          "internalType": "uint256",
          "name": "",
          "type": "uint256"
        }
      ],
      "stateMutability": "view",
      "type": "function"
    },
    {
      "inputs": [],
      "name": "latest",
      "outputs": [
        {
          "components": [
            {
              "internalType": "uint256",
              "name": "timestamp",
              "type": "uint256"
            },
            {
              "internalType": "Fixed6",
              "name": "price",
              "type": "int256"
            },
            {
              "internalType": "bool",
              "name": "valid",
              "type": "bool"
            }
          ],
          "internalType": "struct OracleVersion",
          "name": "latestVersion",
          "type": "tuple"
        }
      ],
      "stateMutability": "view",
      "type": "function"
    },
    {
      "inputs": [],
      "name": "nextVersionIndexToCommit",
      "outputs": [
        {
          "internalType": "uint256",
          "name": "",
          "type": "uint256"
        }
      ],
      "stateMutability": "view",
      "type": "function"
    },
    {
      "inputs": [],
      "name": "nextVersionToCommit",
      "outputs": [
        {
          "internalType": "uint256",
          "name": "version",
          "type": "uint256"
        }
      ],
      "stateMutability": "view",
      "type": "function"
    },
    {
      "inputs": [
        {
          "internalType": "uint256",
          "name": "",
          "type": "uint256"
        }
      ],
      "name": "publishTimes",
      "outputs": [
        {
          "internalType": "uint256",
          "name": "",
          "type": "uint256"
        }
      ],
      "stateMutability": "view",
      "type": "function"
    },
    {
      "inputs": [],
      "name": "pyth",
      "outputs": [
        {
          "internalType": "contract AbstractPyth",
          "name": "",
          "type": "address"
        }
      ],
      "stateMutability": "view",
      "type": "function"
    },
    {
      "inputs": [
        {
          "internalType": "address",
          "name": "",
          "type": "address"
        }
      ],
      "name": "request",
      "outputs": [],
      "stateMutability": "nonpayable",
      "type": "function"
    },
    {
      "inputs": [],
      "name": "status",
      "outputs": [
        {
          "components": [
            {
              "internalType": "uint256",
              "name": "timestamp",
              "type": "uint256"
            },
            {
              "internalType": "Fixed6",
              "name": "price",
              "type": "int256"
            },
            {
              "internalType": "bool",
              "name": "valid",
              "type": "bool"
            }
          ],
          "internalType": "struct OracleVersion",
          "name": "",
          "type": "tuple"
        },
        {
          "internalType": "uint256",
          "name": "",
          "type": "uint256"
        }
      ],
      "stateMutability": "view",
      "type": "function"
    },
    {
      "inputs": [
        {
          "internalType": "uint256",
          "name": "",
          "type": "uint256"
        }
      ],
      "name": "versionList",
      "outputs": [
        {
          "internalType": "uint256",
          "name": "",
          "type": "uint256"
        }
      ],
      "stateMutability": "view",
      "type": "function"
    },
    {
      "inputs": [],
      "name": "versionListLength",
      "outputs": [
        {
          "internalType": "uint256",
          "name": "",
          "type": "uint256"
        }
      ],
      "stateMutability": "view",
      "type": "function"
    }
  ],
  "transactionHash": "0x585dcc2a4ec912b00ff4745602f8283d91c91d41c1d6c50bffe2aae800ee5cba",
  "args": [
    "0xff1a0f4744e8582DF1aE09D5611b887B6a12925C"
  ],
  "numDeployments": 2,
  "solcInputHash": "c23af93ce31f396a031646b949060f23",
  "bytecode": "0x60a03461007a57601f62002c5738819003918201601f19168301916001600160401b0383118484101761007f5780849260209460405283398101031261007a57516001600160a01b038116810361007a57608052604051612bc1908162000096823960805181818161018c0152818161069601526124140152f35b600080fd5b634e487b7160e01b600052604160045260246000fdfe608060408181526004918236101561001657600080fd5b600092833560e01c9182630f986d2c146114fd575081631d8f5f18146114a3578163200d2ed21461142d57816327c78c42146111e55781632a8b5a30146111a85781632e1abb861461116c57816332878cc9146110fa578163386e173c1461092d5781634d056742146108e857816352bfe7891461088b57816354dd8dae1461084a57816378fab5c7146108105781637c24f45c146107d557816388b117b3146105255781638e7f8952146104eb5781639fa6a6e3146104b0578163a1027ced1461046e578163a4145f0c14610431578163aba30dfa146103f7578163af640d0f146103bc578163b1d50a481461035f578163b20caf45146102ed578163c1a287e2146102b3578163c45a015514610241578163e0886f90146101b4575063f98d06f01461014357600080fd5b346101b057817ffffffffffffffffffffffffffffffffffffffffffffffffffffffffffffffffc3601126101b0576020905173ffffffffffffffffffffffffffffffffffffffff7f0000000000000000000000000000000000000000000000000000000000000000168152f35b5080fd5b90503461023d5760207ffffffffffffffffffffffffffffffffffffffffffffffffffffffffffffffffc36011261023d57816060939261023b9235936101f8611713565b508481526003602052205481519361020f8561160e565b845280602085015215158184015251809260408091805184526020810151602085015201511515910152565bf35b8280fd5b5050346101b057817ffffffffffffffffffffffffffffffffffffffffffffffffffffffffffffffffc3601126101b05760209073ffffffffffffffffffffffffffffffffffffffff7f0aec74a1754fb10877b53c31a29be82096082042eb1fb374ec96fac88c0e621b54169051908152f35b5050346101b057817ffffffffffffffffffffffffffffffffffffffffffffffffffffffffffffffffc3601126101b05760209051603c8152f35b5050346101b057817ffffffffffffffffffffffffffffffffffffffffffffffffffffffffffffffffc3601126101b05760209073ffffffffffffffffffffffffffffffffffffffff7f2b50211693ec91bcfe327771928b74a8f475c508d53e86fca4153bcf0f0e877654169051908152f35b839060607ffffffffffffffffffffffffffffffffffffffffffffffffffffffffffffffffc3601126101b0576044359067ffffffffffffffff821161023d576103ae6103b9923690830161159d565b9160243590356118f9565b80f35b5050346101b057817ffffffffffffffffffffffffffffffffffffffffffffffffffffffffffffffffc3601126101b057602091549051908152f35b5050346101b057817ffffffffffffffffffffffffffffffffffffffffffffffffffffffffffffffffc3601126101b05760209051608c8152f35b5050346101b057817ffffffffffffffffffffffffffffffffffffffffffffffffffffffffffffffffc3601126101b0576020906001549051908152f35b5050346101b057817ffffffffffffffffffffffffffffffffffffffffffffffffffffffffffffffffc3601126101b0576020906104a961182b565b9051908152f35b5050346101b057817ffffffffffffffffffffffffffffffffffffffffffffffffffffffffffffffffc3601126101b0576020906104a9611777565b5050346101b057817ffffffffffffffffffffffffffffffffffffffffffffffffffffffffffffffffc3601126101b05760209051600a8152f35b90503461023d5760607ffffffffffffffffffffffffffffffffffffffffffffffffffffffffffffffffc36011261023d5780356024359173ffffffffffffffffffffffffffffffffffffffff8084168094036107d15760443581811681036107cc577f6fee9688c285c5c5c97d6a1a29adced674e6b2ad0888b8ad2116b58a8b3ea24860018154101561079c57600190557f2801b00eb06461cf9fcb9758b5fafd884ff06a86177386f73b6c49f0bf5a5af09460018655303b151580610795575b61076657337f0aec74a1754fb10877b53c31a29be82096082042eb1fb374ec96fac88c0e621b55303b15158061078e575b61076657916020916024937f2b50211693ec91bcfe327771928b74a8f475c508d53e86fca4153bcf0f0e8776557f5b5cbfa852c5bd03e540eba853f8faf28a604a4d82bee1091096bfaea14d08c3558651928380927fb5ec026100000000000000000000000000000000000000000000000000000000825287878301527f0000000000000000000000000000000000000000000000000000000000000000165afa90811561075c57869161072e575b5015610700575091836020927fbe9b076dc5b65990cca9dd9d7366682482e7817a6f6bc7f4faf4dc32af497f32948255555160018152a180f35b6024918451917ffd13d773000000000000000000000000000000000000000000000000000000008352820152fd5b61074f915060203d8111610755575b610747818361167e565b8101906116bf565b386106c6565b503d61073d565b85513d88823e3d90fd5b8387517fb9a621e1000000000000000000000000000000000000000000000000000000008152fd5b5087610617565b50876105e6565b60248460018951917f3db738da000000000000000000000000000000000000000000000000000000008352820152fd5b600080fd5b8580fd5b9190503461023d57827ffffffffffffffffffffffffffffffffffffffffffffffffffffffffffffffffc36011261023d576020925051908152f35b5050346101b057817ffffffffffffffffffffffffffffffffffffffffffffffffffffffffffffffffc3601126101b0576020905160108152f35b5050346101b057817ffffffffffffffffffffffffffffffffffffffffffffffffffffffffffffffffc3601126101b057602090516729a2241af62c00008152f35b5050346101b057817ffffffffffffffffffffffffffffffffffffffffffffffffffffffffffffffffc3601126101b05760609061023b6108c9611732565b9151809260408091805184526020810151602085015201511515910152565b90503461023d5760207ffffffffffffffffffffffffffffffffffffffffffffffffffffffffffffffffc36011261023d57602092818392358252845220549051908152f35b918091507ffffffffffffffffffffffffffffffffffffffffffffffffffffffffffffffffc36011261023d576024908235823567ffffffffffffffff81116107d15761097c903690860161159d565b9061098836838361189e565b9287855161099581611646565b525a926002546001548110156110d25782106110aa576109c6906109b883611537565b90549060031b1c9384612372565b60608101805160055410156110825780516005556002548311610f2b575b506109ef9083612791565b60018101809111610f005790610a329291600255806006557f88ef66140229581434815ea9e5dbcd594e23e2c27dfa458414c5ead84b2e2dc48880a25a906116d7565b93670de0b6b3a76400009384610a63610a5c82610a56610a518b612265565b612282565b046118d5565b489061229f565b0484517ff5d6ded700000000000000000000000000000000000000000000000000000000815260209485828681606c5afa918215610ec7578a92610ed1575b5081851b9180830460101490151715610e15575190608c8201809211610e1557610ad69291610ad09161229f565b906118ec565b9473ffffffffffffffffffffffffffffffffffffffff958360a0887f2b50211693ec91bcfe327771928b74a8f475c508d53e86fca4153bcf0f0e877654168851928380927ffeaf968c0000000000000000000000000000000000000000000000000000000082525afa908115610ec7578a91610e6e575b50610b5c6305f5e10091612992565b0590898212610e405790610b6f9161229f565b049487817f0aec74a1754fb10877b53c31a29be82096082042eb1fb374ec96fac88c0e621b54168715600014610dcf5781905b803b1561023d57848392895194859384927f379607f50000000000000000000000000000000000000000000000000000000084528a8401525af18015610dc557610db0575b50610cb7907f5b5cbfa852c5bd03e540eba853f8faf28a604a4d82bee1091096bfaea14d08c3541685519089808784017fa9059cbb00000000000000000000000000000000000000000000000000000000815233878601528a604486015260448552610c528561162a565b895194610c5e86611662565b8986527f5361666545524332303a206c6f772d6c6576656c2063616c6c206661696c65648a870152519082855af13d15610da8573d91610c9d83611864565b92610caa8a51948561167e565b83523d8c8985013e612a22565b805180610d0b575b50505050906729a2241af62c0000620f424092825195865285015283015260608201527fd7848cca80f0c7619e9c50ea855dd15779e356a791d0630001913eab6f7eaef760803392a280f35b908480610d1c9383010191016116bf565b15610d28578080610cbf565b602a919260849451937f08c379a00000000000000000000000000000000000000000000000000000000085528401528201527f5361666545524332303a204552433230206f7065726174696f6e20646964206e60448201527f6f742073756363656564000000000000000000000000000000000000000000006064820152fd5b606091612a22565b97610dbe610cb792996115cb565b9790610be7565b86513d8b823e3d90fd5b90507fffffffffffffffffffffffffffffffffffffffffffffffffffffffffffffffff8701878111610e155764e8d4a51000900460018101809111610e15578991610ba2565b838a6011877f4e487b7100000000000000000000000000000000000000000000000000000000835252fd5b8385838951917f501f289e000000000000000000000000000000000000000000000000000000008352820152fd5b905060a0813d8211610ebf575b81610e8860a0938361167e565b81010312610ebb57610b5c81610ea26305f5e1009361297b565b50610eb3608089830151920161297b565b509150610b4d565b8980fd5b3d9150610e7b565b87513d8c823e3d90fd5b9091508581813d8311610ef9575b610ee9818361167e565b81010312610ebb57519038610aa2565b503d610edf565b85886011897f4e487b7100000000000000000000000000000000000000000000000000000000835252fd5b7fffffffffffffffffffffffffffffffffffffffffffffffffffffffffffffffff8301838111610fd957610f5e90611537565b90549060031b1c603c81018082116110575742111561102f5781518a8201908183116110045710159182610fc1575b5050610f9957386109e4565b8786517f8260a7e8000000000000000000000000000000000000000000000000000000008152fd5b90915051600a8201809211610fd95711153880610f8d565b888b60118c7f4e487b7100000000000000000000000000000000000000000000000000000000835252fd5b8a8d60118e7f4e487b7100000000000000000000000000000000000000000000000000000000835252fd5b8988517f7c423d41000000000000000000000000000000000000000000000000000000008152fd5b898c60118d7f4e487b7100000000000000000000000000000000000000000000000000000000835252fd5b8887517ff0db44e4000000000000000000000000000000000000000000000000000000008152fd5b8786517fe28e1ef4000000000000000000000000000000000000000000000000000000008152fd5b8887517f2dd6680d000000000000000000000000000000000000000000000000000000008152fd5b5050346101b057817ffffffffffffffffffffffffffffffffffffffffffffffffffffffffffffffffc3601126101b05760209073ffffffffffffffffffffffffffffffffffffffff7f5b5cbfa852c5bd03e540eba853f8faf28a604a4d82bee1091096bfaea14d08c354915191168152f35b5050346101b057817ffffffffffffffffffffffffffffffffffffffffffffffffffffffffffffffffc3601126101b05760209051620f42408152f35b5050346101b057817ffffffffffffffffffffffffffffffffffffffffffffffffffffffffffffffffc3601126101b0576020906005549051908152f35b9190503461023d5760207ffffffffffffffffffffffffffffffffffffffffffffffffffffffffffffffffc36011261023d5773ffffffffffffffffffffffffffffffffffffffff8235818116036114295760206024917f0aec74a1754fb10877b53c31a29be82096082042eb1fb374ec96fac88c0e621b54168351928380927fb918161100000000000000000000000000000000000000000000000000000000825233888301525afa90811561141f578491611401575b50156113db57506112ab611777565b90600154908115801561136c575b6112c1578380f35b6801000000000000000082101561134057508060016112e39201600155611537565b81549060031b907fffffffffffffffffffffffffffffffffffffffffffffffffffffffffffffffff84831b921b19161790557f0bde08c9a082227535f7f1dd9bbb37ae1735f37377422d16744f0ffce41cf0128280a23880808380f35b8360416024927f4e487b7100000000000000000000000000000000000000000000000000000000835252fd5b507fffffffffffffffffffffffffffffffffffffffffffffffffffffffffffffffff82018281116113af576113a18491611537565b90549060031b1c14156112b9565b6024856011847f4e487b7100000000000000000000000000000000000000000000000000000000835252fd5b517f652fafab000000000000000000000000000000000000000000000000000000008152fd5b611419915060203d811161075557610747818361167e565b3861129c565b82513d86823e3d90fd5b8380fd5b5050346101b057817ffffffffffffffffffffffffffffffffffffffffffffffffffffffffffffffffc3601126101b057608090611468611713565b50611471611732565b9061149c61147d611777565b9151809360408091805184526020810151602085015201511515910152565b6060820152f35b90503461023d5760207ffffffffffffffffffffffffffffffffffffffffffffffffffffffffffffffffc36011261023d5735916001548310156114fa57506114ec602092611537565b91905490519160031b1c8152f35b80fd5b8490346101b057817ffffffffffffffffffffffffffffffffffffffffffffffffffffffffffffffffc3601126101b0576020906002548152f35b60015481101561156e5760016000527fb10e2d527612073b26eecdfd717e6a320cf44b4afac2b0732d9fcbe2b7fa0cf60190600090565b7f4e487b7100000000000000000000000000000000000000000000000000000000600052603260045260246000fd5b9181601f840112156107cc5782359167ffffffffffffffff83116107cc57602083818601950101116107cc57565b67ffffffffffffffff81116115df57604052565b7f4e487b7100000000000000000000000000000000000000000000000000000000600052604160045260246000fd5b6060810190811067ffffffffffffffff8211176115df57604052565b6080810190811067ffffffffffffffff8211176115df57604052565b6020810190811067ffffffffffffffff8211176115df57604052565b6040810190811067ffffffffffffffff8211176115df57604052565b90601f7fffffffffffffffffffffffffffffffffffffffffffffffffffffffffffffffe0910116810190811067ffffffffffffffff8211176115df57604052565b908160209103126107cc575180151581036107cc5790565b919082039182116116e457565b7f4e487b7100000000000000000000000000000000000000000000000000000000600052601160045260246000fd5b604051906117208261160e565b60006040838281528260208201520152565b61173a611713565b6006549081156117725750806000526003602052604060002054604051916117618361160e565b825260208201526001604082015290565b905090565b6004602073ffffffffffffffffffffffffffffffffffffffff7f0aec74a1754fb10877b53c31a29be82096082042eb1fb374ec96fac88c0e621b5416604051928380927f9fa6a6e30000000000000000000000000000000000000000000000000000000082525afa90811561181f576000916117f1575090565b906020823d8211611817575b8161180a6020938361167e565b810103126114fa57505190565b3d91506117fd565b6040513d6000823e3d90fd5b6001548015908115611857575b5061185257611848600254611537565b90549060031b1c90565b600090565b9050600254101538611838565b67ffffffffffffffff81116115df57601f017fffffffffffffffffffffffffffffffffffffffffffffffffffffffffffffffe01660200190565b9291926118aa82611864565b916118b8604051938461167e565b8294818452818301116107cc578281602093846000960137010152565b9069d3c21bcecceda100000082018092116116e457565b919082018092116116e457565b919290926001548381118061224c575b80612234575b611a9a57509061191f9184612372565b6060810180516005541015611a7057516005556006548260015411600014611a625761194a83611537565b90549060031b1c905b600254808510611a38578411806119ea575b6119c0578411908115916119b5575b5061198b576119839083612791565b600255600655565b60046040517f9b4e67d3000000000000000000000000000000000000000000000000000000008152fd5b905083101538611974565b60046040517f7c423d41000000000000000000000000000000000000000000000000000000008152fd5b507fffffffffffffffffffffffffffffffffffffffffffffffffffffffffffffffff84018481116116e457611a1e90611537565b90549060031b1c603c81018091116116e457421115611965565b60046040517fe28e1ef4000000000000000000000000000000000000000000000000000000008152fd5b611a6a611777565b90611953565b60046040517ff0db44e4000000000000000000000000000000000000000000000000000000008152fd5b909350611aa836838661189e565b93600093604093858551611abb81611646565b525a936002549081101561220b5782106121e257611adc906109b883611537565b60608101805160055410156121b95780516005556002548311612059575b50611b059083612791565b6001810180911161202c5790611b489291600255806006557f88ef66140229581434815ea9e5dbcd594e23e2c27dfa458414c5ead84b2e2dc48580a25a906116d7565b92670de0b6b3a76400009081611b67610a5c82610a56610a518a612265565b04918351927ff5d6ded700000000000000000000000000000000000000000000000000000000845260209360049385828681606c5afa918215611fc7578892611ffd575b5081851b9180830460101490151715611fd1575190608c8201809211611fd157611bd99291610ad09161229f565b9073ffffffffffffffffffffffffffffffffffffffff918360a0847f2b50211693ec91bcfe327771928b74a8f475c508d53e86fca4153bcf0f0e877654168851928380927ffeaf968c0000000000000000000000000000000000000000000000000000000082525afa908115611fc7578891611f6e575b50611c5f6305f5e10091612992565b0590878212611f3f5790611c729161229f565b0494817f0aec74a1754fb10877b53c31a29be82096082042eb1fb374ec96fac88c0e621b54168615600014611ed457815b813b1561023d57829160248392895194859384927f379607f50000000000000000000000000000000000000000000000000000000084528a8401525af18015611eca5790611dc2939291611ebb575b50907f5b5cbfa852c5bd03e540eba853f8faf28a604a4d82bee1091096bfaea14d08c354169085519181808785017fa9059cbb0000000000000000000000000000000000000000000000000000000081523360248701528a604487015260448652611d5c8661162a565b895195611d6887611662565b8987527f5361666545524332303a206c6f772d6c6576656c2063616c6c206661696c65648a880152519082855af1903d15611eb2573d611da781611864565b90611db48a51928361167e565b81528093883d92013e612a22565b805180611e14575b505050906729a2241af62c0000620f424092825195865285015283015260608201527fd7848cca80f0c7619e9c50ea855dd15779e356a791d0630001913eab6f7eaef760803392a2565b908380611e259383010191016116bf565b15611e31578080611dca565b9060849251917f08c379a0000000000000000000000000000000000000000000000000000000008352820152602a60248201527f5361666545524332303a204552433230206f7065726174696f6e20646964206e60448201527f6f742073756363656564000000000000000000000000000000000000000000006064820152fd5b60609250612a22565b611ec4906115cb565b38611cf2565b86513d84823e3d90fd5b7fffffffffffffffffffffffffffffffffffffffffffffffffffffffffffffffff8701878111611f135764e8d4a5100090046001810180911115611ca3575b6024836011877f4e487b7100000000000000000000000000000000000000000000000000000000835252fd5b602485838951917f501f289e000000000000000000000000000000000000000000000000000000008352820152fd5b905060a0813d8211611fbf575b81611f8860a0938361167e565b81010312611fbb57611c5f81611fa26305f5e1009361297b565b50611fb3608089830151920161297b565b509150611c50565b8780fd5b3d9150611f7b565b87513d8a823e3d90fd5b6024886011877f4e487b7100000000000000000000000000000000000000000000000000000000835252fd5b9091508581813d8311612025575b612015818361167e565b81010312611fbb57519038611bab565b503d61200b565b6024857f4e487b710000000000000000000000000000000000000000000000000000000081526011600452fd5b7fffffffffffffffffffffffffffffffffffffffffffffffffffffffffffffffff83018381116121095761208c90611537565b90549060031b1c603c810180821161218c57421115612163578151600482019081831161213657101591826120f1575b50506120c85738611afa565b600485517f8260a7e8000000000000000000000000000000000000000000000000000000008152fd5b90915051600a820180921161210957111538806120bc565b6024887f4e487b710000000000000000000000000000000000000000000000000000000081526011600452fd5b60248a7f4e487b710000000000000000000000000000000000000000000000000000000081526011600452fd5b600487517f7c423d41000000000000000000000000000000000000000000000000000000008152fd5b6024897f4e487b710000000000000000000000000000000000000000000000000000000081526011600452fd5b600486517ff0db44e4000000000000000000000000000000000000000000000000000000008152fd5b600485517fe28e1ef4000000000000000000000000000000000000000000000000000000008152fd5b600486517f2dd6680d000000000000000000000000000000000000000000000000000000008152fd5b5061223e84611537565b90549060031b1c851461190f565b50600254841015611909565b80511561156e5760200190565b90670de0b6b3a7640000918281029281840414901517156116e457565b906729a2241af62c0000918281029281840414901517156116e457565b818102929181159184041417156116e457565b91908260809103126107cc576040516122ca8161162a565b809280518060070b81036107cc578252602081015167ffffffffffffffff811681036107cc57602083015260408101518060030b81036107cc576040830152606090810151910152565b919082519283825260005b84811061235e5750507fffffffffffffffffffffffffffffffffffffffffffffffffffffffffffffffe0601f8460006020809697860101520116010190565b60208183018101518483018201520161231f565b906040918251906123828261162a565b60009283835260209584878501528486850152846060809501528551936123a885611662565b6001855287865b81811061277457505050906123c591369161189e565b6123ce83612258565b526123d882612258565b508351926123e584611662565b60018452858401918636843781546123fc86612258565b5273ffffffffffffffffffffffffffffffffffffffff7f000000000000000000000000000000000000000000000000000000000000000016908651937f48b6404d00000000000000000000000000000000000000000000000000000000855260049489818781875afa801561276a578590612737575b61247f915088519061229f565b9185810180821161270b5761249390612af2565b90600a810180911161270b57918a9893916124af879694612af2565b988b519a8b967f4716e9c50000000000000000000000000000000000000000000000000000000088526084880160808c8a0152835180915260a48901908360a48260051b8c01019501918b905b8282106126b057505050508783037ffffffffffffffffffffffffffffffffffffffffffffffffffffffffffffffffc0160248901525180835291019290878e5b8282106126955750505050849291839167ffffffffffffffff9a8b809216604485015216606483015203925af193841561268957819461258b575b505050506125859150612258565b51015190565b90919293503d8083833e61259f818361167e565b810190868183031261023d5780519085821161142957019281601f8501121561023d57835194851161265d57508451946125de878660051b018761167e565b8486528686019287610120809702860101948386116101b0578801935b85851061261657505050505050506125859038808080612577565b86858503126101b057888791845161262d8161160e565b8751815261263d87848a016122b2565b8382015261264e8760a08a016122b2565b868201528152019401936125fb565b8260416024927f4e487b7100000000000000000000000000000000000000000000000000000000835252fd5b508451903d90823e3d90fd5b835186528a99508d985094850194909201916001018e61253c565b9396989a600193989a9c50867fffffffffffffffffffffffffffffffffffffffffffffffffffffffffffffff5c6126f292889599989498030186528951612314565b970192019201908f92938e999795928c9b9997956124fc565b6024866011897f4e487b7100000000000000000000000000000000000000000000000000000000835252fd5b508981813d8311612763575b61274d818361167e565b8101031261275f5761247f9051612472565b8480fd5b503d612743565b89513d87823e3d90fd5b828282890101520188906123af565b604d81116116e457600a0a90565b90604081015160030b6006017fffffffffffffffffffffffffffffffffffffffffffffffffffffffff800000008112637fffffff8213176116e45760030b916000808412156128be5750815160070b927f8000000000000000000000000000000000000000000000000000000000000000908181146116e45761282161281c61282692600003612783565b612a0a565b6129af565b90620f4240948581029581870514901517156116e457811561288f5784147fffffffffffffffffffffffffffffffffffffffffffffffffffffffffffffffff8214166116e45760609305905b600052600360205260406000205501516004602052604060002055565b7f4e487b7100000000000000000000000000000000000000000000000000000000600052601260045260246000fd5b6128d561282161281c859796975160070b97612783565b94858102957f800000000000000000000000000000000000000000000000000000000000000081148383121661294e5781870514901517156129215750620f4240606093940590612872565b807f4e487b7100000000000000000000000000000000000000000000000000000000602492526011600452fd5b6024837f4e487b710000000000000000000000000000000000000000000000000000000081526011600452fd5b519069ffffffffffffffffffff821682036107cc57565b90670de0b6b3a7640000918281029281840514901517156116e457565b7f7fffffffffffffffffffffffffffffffffffffffffffffffffffffffffffffff81116129d95790565b602490604051907feecaa25d0000000000000000000000000000000000000000000000000000000082526004820152fd5b620f4240908181029181830414901517156116e45790565b91929015612a9d5750815115612a36575090565b3b15612a3f5790565b60646040517f08c379a000000000000000000000000000000000000000000000000000000000815260206004820152601d60248201527f416464726573733a2063616c6c20746f206e6f6e2d636f6e74726163740000006044820152fd5b825190915015612ab05750805190602001fd5b612aee906040519182917f08c379a0000000000000000000000000000000000000000000000000000000008352602060048401526024830190612314565b0390fd5b67ffffffffffffffff90818111612b07571690565b60846040517f08c379a000000000000000000000000000000000000000000000000000000000815260206004820152602660248201527f53616665436173743a2076616c756520646f65736e27742066697420696e203660448201527f34206269747300000000000000000000000000000000000000000000000000006064820152fdfea2646970667358221220c6b659c1c5311d40b66bc156fd48fdbfdce5f1a57df164b4af0ae5b4a0e06e9564736f6c63430008130033",
  "devdoc": {
    "details": "Additionally incentivizes keepers with L1 rollup fees according to the Arbitrum spec",
    "kind": "dev",
    "methods": {
      "at(uint256)": {
        "params": {
          "timestamp": "The timestamp of which to lookup"
        },
        "returns": {
          "oracleVersion": "Oracle version at version `version`"
        }
      },
      "commit(uint256,uint256,bytes)": {
        "details": "This commit function may pay out a keeper reward if the committed version is valid      for the next requested version to commit. A proper `versionIndex` must be supplied in case we are      ahead of an invalidated requested version and need to verify that the provided version is valid.",
        "params": {
          "oracleVersion": "The oracle version to commit",
          "updateData": "The update data to commit",
          "versionIndex": "The next committable index, taking into account any passed invalid requested versions"
        }
      },
      "commitRequested(uint256,bytes)": {
        "details": "Will revert if there is an earlier versionIndex that could be committed with `updateData`",
        "params": {
          "updateData": "The update data to commit",
          "versionIndex": "The index of the version to commit"
        }
      },
      "current()": {
        "returns": {
          "_0": "Current oracle version"
        }
      },
      "factory()": {
        "returns": {
          "_0": "The factory that created this instance"
        }
      },
      "initialize(bytes32,address,address)": {
        "params": {
          "chainlinkFeed_": "Chainlink price feed for rewarding keeper in DSU",
          "dsu_": "Token to pay the keeper reward in",
          "id_": "price ID for Pyth price feed"
        }
      },
      "latest()": {
        "returns": {
          "latestVersion": "Latest oracle version"
        }
      },
      "nextVersionToCommit()": {
        "returns": {
          "version": "The next oracle version to commit"
        }
      },
      "request(address)": {
        "details": "Original sender to optionally use for callbacks"
      },
      "status()": {
        "returns": {
          "_0": "The latest synced oracle version",
          "_1": "The current oracle version collecting new orders"
        }
      }
    },
    "title": "PythOracle_Arbitrum",
    "version": 1
  },
  "userdoc": {
    "kind": "user",
    "methods": {
      "at(uint256)": {
        "notice": "Returns the oracle version at version `version`"
      },
      "commit(uint256,uint256,bytes)": {
        "notice": "Commits the price to a non-requested version"
      },
      "commitRequested(uint256,bytes)": {
        "notice": "Commits the price represented by `updateData` to the next version that needs to be committed"
      },
      "current()": {
        "notice": "Returns the current oracle version accepting new orders"
      },
      "factory()": {
        "notice": "Returns the factory that created this instance"
      },
      "initialize(bytes32,address,address)": {
        "notice": "Initializes the contract state"
      },
      "latest()": {
        "notice": "Returns the latest synced oracle version"
      },
      "nextVersionToCommit()": {
        "notice": "Returns the next oracle version to commit"
      },
      "request(address)": {
        "notice": "Records a request for a new oracle version"
      },
      "status()": {
        "notice": "Returns the latest synced oracle version and the current oracle version"
      }
    },
    "notice": "Arbitrum Kept Oracle implementation for Pyth price feeds.",
    "version": 1
  },
  "storageLayout": {
    "storage": [
      {
        "astId": 4082,
        "contract": "@equilibria/perennial-v2-oracle/contracts/pyth/PythOracle_Arbitrum.sol:PythOracle_Arbitrum",
        "label": "id",
        "offset": 0,
        "slot": "0",
        "type": "t_bytes32"
      },
      {
        "astId": 4086,
        "contract": "@equilibria/perennial-v2-oracle/contracts/pyth/PythOracle_Arbitrum.sol:PythOracle_Arbitrum",
        "label": "versionList",
        "offset": 0,
        "slot": "1",
        "type": "t_array(t_uint256)dyn_storage"
      },
      {
        "astId": 4089,
        "contract": "@equilibria/perennial-v2-oracle/contracts/pyth/PythOracle_Arbitrum.sol:PythOracle_Arbitrum",
        "label": "nextVersionIndexToCommit",
        "offset": 0,
        "slot": "2",
        "type": "t_uint256"
      },
      {
        "astId": 4095,
        "contract": "@equilibria/perennial-v2-oracle/contracts/pyth/PythOracle_Arbitrum.sol:PythOracle_Arbitrum",
        "label": "_prices",
        "offset": 0,
        "slot": "3",
        "type": "t_mapping(t_uint256,t_userDefinedValueType(Fixed6)25336)"
      },
      {
        "astId": 4100,
        "contract": "@equilibria/perennial-v2-oracle/contracts/pyth/PythOracle_Arbitrum.sol:PythOracle_Arbitrum",
        "label": "publishTimes",
        "offset": 0,
        "slot": "4",
        "type": "t_mapping(t_uint256,t_uint256)"
      },
      {
        "astId": 4103,
        "contract": "@equilibria/perennial-v2-oracle/contracts/pyth/PythOracle_Arbitrum.sol:PythOracle_Arbitrum",
        "label": "lastCommittedPublishTime",
        "offset": 0,
        "slot": "5",
        "type": "t_uint256"
      },
      {
        "astId": 4106,
        "contract": "@equilibria/perennial-v2-oracle/contracts/pyth/PythOracle_Arbitrum.sol:PythOracle_Arbitrum",
        "label": "_latestVersion",
        "offset": 0,
        "slot": "6",
        "type": "t_uint256"
      }
    ],
    "types": {
      "t_array(t_uint256)dyn_storage": {
        "base": "t_uint256",
        "encoding": "dynamic_array",
        "label": "uint256[]",
        "numberOfBytes": "32"
      },
      "t_bytes32": {
        "encoding": "inplace",
        "label": "bytes32",
        "numberOfBytes": "32"
      },
      "t_mapping(t_uint256,t_uint256)": {
        "encoding": "mapping",
        "key": "t_uint256",
        "label": "mapping(uint256 => uint256)",
        "numberOfBytes": "32",
        "value": "t_uint256"
      },
      "t_mapping(t_uint256,t_userDefinedValueType(Fixed6)25336)": {
        "encoding": "mapping",
        "key": "t_uint256",
        "label": "mapping(uint256 => Fixed6)",
        "numberOfBytes": "32",
        "value": "t_userDefinedValueType(Fixed6)25336"
      },
      "t_uint256": {
        "encoding": "inplace",
        "label": "uint256",
        "numberOfBytes": "32"
      },
      "t_userDefinedValueType(Fixed6)25336": {
        "encoding": "inplace",
        "label": "Fixed6",
        "numberOfBytes": "32"
      }
    }
  }
}