{
  "address": "0x58F04fb12FfA179be19C4bccdF7fb2a47aC9F3eb",
  "abi": [
    {
      "inputs": [],
      "name": "AccountStorageInvalidError",
      "type": "error"
    },
    {
      "inputs": [],
      "name": "AccountStorageInvalidError",
      "type": "error"
    },
    {
      "inputs": [],
      "name": "CheckpointSingleSidedError",
      "type": "error"
    },
    {
      "inputs": [],
      "name": "CheckpointStorageInvalidError",
      "type": "error"
    },
    {
      "inputs": [],
      "name": "CheckpointStorageInvalidError",
      "type": "error"
    },
    {
      "inputs": [
        {
          "internalType": "uint256",
          "name": "value",
          "type": "uint256"
        }
      ],
      "name": "Fixed6OverflowError",
      "type": "error"
    },
    {
      "inputs": [
        {
          "internalType": "uint256",
          "name": "version",
          "type": "uint256"
        }
      ],
      "name": "InitializableAlreadyInitializedError",
      "type": "error"
    },
    {
      "inputs": [],
      "name": "InitializableNotInitializingError",
      "type": "error"
    },
    {
      "inputs": [],
      "name": "InitializableZeroVersionError",
      "type": "error"
    },
    {
      "inputs": [
        {
          "internalType": "address",
          "name": "sender",
          "type": "address"
        }
      ],
      "name": "InstanceNotFactoryError",
      "type": "error"
    },
    {
      "inputs": [
        {
          "internalType": "address",
          "name": "sender",
          "type": "address"
        }
      ],
      "name": "InstanceNotOwnerError",
      "type": "error"
    },
    {
      "inputs": [],
      "name": "InstancePausedError",
      "type": "error"
    },
    {
      "inputs": [],
      "name": "MappingStorageInvalidError",
      "type": "error"
    },
    {
      "inputs": [],
      "name": "MappingStorageInvalidError",
      "type": "error"
    },
    {
      "inputs": [],
      "name": "RegistrationStorageInvalidError",
      "type": "error"
    },
    {
      "inputs": [],
      "name": "RegistrationStorageInvalidError",
      "type": "error"
    },
    {
      "inputs": [],
      "name": "StrategyLibInsufficientMarginError",
      "type": "error"
    },
    {
      "inputs": [],
      "name": "StrategyLibInsufficientMarginError",
      "type": "error"
    },
    {
      "inputs": [
        {
          "internalType": "int256",
          "name": "value",
          "type": "int256"
        }
      ],
      "name": "UFixed6UnderflowError",
      "type": "error"
    },
    {
      "inputs": [],
      "name": "VaultDepositLimitExceededError",
      "type": "error"
    },
    {
      "inputs": [],
      "name": "VaultExistingOrderError",
      "type": "error"
    },
    {
      "inputs": [],
      "name": "VaultIncorrectAssetError",
      "type": "error"
    },
    {
      "inputs": [],
      "name": "VaultInsufficientMinimumError",
      "type": "error"
    },
    {
      "inputs": [],
      "name": "VaultMarketDoesNotExistError",
      "type": "error"
    },
    {
      "inputs": [],
      "name": "VaultMarketExistsError",
      "type": "error"
    },
    {
      "inputs": [],
      "name": "VaultNotMarketError",
      "type": "error"
    },
    {
      "inputs": [],
      "name": "VaultNotOperatorError",
      "type": "error"
    },
    {
      "inputs": [],
      "name": "VaultNotSingleSidedError",
      "type": "error"
    },
    {
      "inputs": [],
      "name": "VaultParameterStorageInvalidError",
      "type": "error"
    },
    {
      "inputs": [],
      "name": "VaultParameterStorageInvalidError",
      "type": "error"
    },
    {
      "inputs": [],
      "name": "VaultRedemptionLimitExceededError",
      "type": "error"
    },
    {
      "anonymous": false,
      "inputs": [
        {
          "indexed": false,
          "internalType": "uint256",
          "name": "version",
          "type": "uint256"
        }
      ],
      "name": "Initialized",
      "type": "event"
    },
    {
      "anonymous": false,
      "inputs": [
        {
          "indexed": true,
          "internalType": "uint256",
          "name": "marketId",
          "type": "uint256"
        },
        {
          "indexed": false,
          "internalType": "contract IMarket",
          "name": "market",
          "type": "address"
        }
      ],
      "name": "MarketRegistered",
      "type": "event"
    },
    {
      "anonymous": false,
      "inputs": [
        {
          "indexed": true,
          "internalType": "uint256",
          "name": "marketId",
          "type": "uint256"
        },
        {
          "indexed": false,
          "internalType": "uint256",
          "name": "newWeight",
          "type": "uint256"
        },
        {
          "indexed": false,
          "internalType": "UFixed6",
          "name": "newLeverage",
          "type": "uint256"
        }
      ],
      "name": "MarketUpdated",
      "type": "event"
    },
    {
      "anonymous": false,
      "inputs": [
        {
          "components": [
            {
              "internalType": "UFixed6",
              "name": "cap",
              "type": "uint256"
            }
          ],
          "indexed": false,
          "internalType": "struct VaultParameter",
          "name": "newParameter",
          "type": "tuple"
        }
      ],
      "name": "ParameterUpdated",
      "type": "event"
    },
    {
      "anonymous": false,
      "inputs": [
        {
          "indexed": true,
          "internalType": "address",
          "name": "sender",
          "type": "address"
        },
        {
          "indexed": true,
          "internalType": "address",
          "name": "account",
          "type": "address"
        },
        {
          "indexed": false,
          "internalType": "uint256",
          "name": "version",
          "type": "uint256"
        },
        {
          "indexed": false,
          "internalType": "UFixed6",
          "name": "depositAssets",
          "type": "uint256"
        },
        {
          "indexed": false,
          "internalType": "UFixed6",
          "name": "redeemShares",
          "type": "uint256"
        },
        {
          "indexed": false,
          "internalType": "UFixed6",
          "name": "claimAssets",
          "type": "uint256"
        }
      ],
      "name": "Updated",
      "type": "event"
    },
    {
      "inputs": [
        {
          "components": [
            {
              "components": [
                {
                  "components": [
                    {
                      "components": [
                        {
                          "internalType": "UFixed6",
                          "name": "fundingFee",
                          "type": "uint256"
                        },
                        {
                          "internalType": "UFixed6",
                          "name": "interestFee",
                          "type": "uint256"
                        },
                        {
                          "internalType": "UFixed6",
                          "name": "positionFee",
                          "type": "uint256"
                        },
                        {
                          "internalType": "UFixed6",
                          "name": "oracleFee",
                          "type": "uint256"
                        },
                        {
                          "internalType": "UFixed6",
                          "name": "riskFee",
                          "type": "uint256"
                        },
                        {
                          "internalType": "uint256",
                          "name": "maxPendingGlobal",
                          "type": "uint256"
                        },
                        {
                          "internalType": "uint256",
                          "name": "maxPendingLocal",
                          "type": "uint256"
                        },
                        {
                          "internalType": "UFixed6",
                          "name": "makerRewardRate",
                          "type": "uint256"
                        },
                        {
                          "internalType": "UFixed6",
                          "name": "longRewardRate",
                          "type": "uint256"
                        },
                        {
                          "internalType": "UFixed6",
                          "name": "shortRewardRate",
                          "type": "uint256"
                        },
                        {
                          "internalType": "UFixed6",
                          "name": "settlementFee",
                          "type": "uint256"
                        },
                        {
                          "internalType": "bool",
                          "name": "takerCloseAlways",
                          "type": "bool"
                        },
                        {
                          "internalType": "bool",
                          "name": "makerCloseAlways",
                          "type": "bool"
                        },
                        {
                          "internalType": "bool",
                          "name": "closed",
                          "type": "bool"
                        }
                      ],
                      "internalType": "struct MarketParameter",
                      "name": "marketParameter",
                      "type": "tuple"
                    },
                    {
                      "components": [
                        {
                          "internalType": "UFixed6",
                          "name": "margin",
                          "type": "uint256"
                        },
                        {
                          "internalType": "UFixed6",
                          "name": "maintenance",
                          "type": "uint256"
                        },
                        {
                          "internalType": "UFixed6",
                          "name": "takerFee",
                          "type": "uint256"
                        },
                        {
                          "internalType": "UFixed6",
                          "name": "takerSkewFee",
                          "type": "uint256"
                        },
                        {
                          "internalType": "UFixed6",
                          "name": "takerImpactFee",
                          "type": "uint256"
                        },
                        {
                          "internalType": "UFixed6",
                          "name": "makerFee",
                          "type": "uint256"
                        },
                        {
                          "internalType": "UFixed6",
                          "name": "makerImpactFee",
                          "type": "uint256"
                        },
                        {
                          "internalType": "UFixed6",
                          "name": "makerLimit",
                          "type": "uint256"
                        },
                        {
                          "internalType": "UFixed6",
                          "name": "efficiencyLimit",
                          "type": "uint256"
                        },
                        {
                          "internalType": "UFixed6",
                          "name": "liquidationFee",
                          "type": "uint256"
                        },
                        {
                          "internalType": "UFixed6",
                          "name": "minLiquidationFee",
                          "type": "uint256"
                        },
                        {
                          "internalType": "UFixed6",
                          "name": "maxLiquidationFee",
                          "type": "uint256"
                        },
                        {
                          "components": [
                            {
                              "internalType": "UFixed6",
                              "name": "minRate",
                              "type": "uint256"
                            },
                            {
                              "internalType": "UFixed6",
                              "name": "maxRate",
                              "type": "uint256"
                            },
                            {
                              "internalType": "UFixed6",
                              "name": "targetRate",
                              "type": "uint256"
                            },
                            {
                              "internalType": "UFixed6",
                              "name": "targetUtilization",
                              "type": "uint256"
                            }
                          ],
                          "internalType": "struct UJumpRateUtilizationCurve6",
                          "name": "utilizationCurve",
                          "type": "tuple"
                        },
                        {
                          "components": [
                            {
                              "internalType": "UFixed6",
                              "name": "k",
                              "type": "uint256"
                            },
                            {
                              "internalType": "UFixed6",
                              "name": "max",
                              "type": "uint256"
                            }
                          ],
                          "internalType": "struct PController6",
                          "name": "pController",
                          "type": "tuple"
                        },
                        {
                          "internalType": "UFixed6",
                          "name": "minMargin",
                          "type": "uint256"
                        },
                        {
                          "internalType": "UFixed6",
                          "name": "minMaintenance",
                          "type": "uint256"
                        },
                        {
                          "internalType": "UFixed6",
                          "name": "skewScale",
                          "type": "uint256"
                        },
                        {
                          "internalType": "uint256",
                          "name": "staleAfter",
                          "type": "uint256"
                        },
                        {
                          "internalType": "bool",
                          "name": "makerReceiveOnly",
                          "type": "bool"
                        }
                      ],
                      "internalType": "struct RiskParameter",
                      "name": "riskParameter",
                      "type": "tuple"
                    },
                    {
                      "components": [
                        {
                          "internalType": "uint256",
                          "name": "currentId",
                          "type": "uint256"
                        },
                        {
                          "internalType": "uint256",
                          "name": "latestId",
                          "type": "uint256"
                        },
                        {
                          "internalType": "Fixed6",
                          "name": "collateral",
                          "type": "int256"
                        },
                        {
                          "internalType": "UFixed6",
                          "name": "reward",
                          "type": "uint256"
                        },
                        {
                          "internalType": "uint256",
                          "name": "protection",
                          "type": "uint256"
                        },
                        {
                          "internalType": "address",
                          "name": "protectionInitiator",
                          "type": "address"
                        },
                        {
                          "internalType": "UFixed6",
                          "name": "protectionAmount",
                          "type": "uint256"
                        }
                      ],
                      "internalType": "struct Local",
                      "name": "local",
                      "type": "tuple"
                    },
                    {
                      "components": [
                        {
                          "internalType": "uint256",
                          "name": "timestamp",
                          "type": "uint256"
                        },
                        {
                          "internalType": "UFixed6",
                          "name": "maker",
                          "type": "uint256"
                        },
                        {
                          "internalType": "UFixed6",
                          "name": "long",
                          "type": "uint256"
                        },
                        {
                          "internalType": "UFixed6",
                          "name": "short",
                          "type": "uint256"
                        },
                        {
                          "internalType": "Fixed6",
                          "name": "fee",
                          "type": "int256"
                        },
                        {
                          "internalType": "UFixed6",
                          "name": "keeper",
                          "type": "uint256"
                        },
                        {
                          "internalType": "Fixed6",
                          "name": "collateral",
                          "type": "int256"
                        },
                        {
                          "internalType": "Fixed6",
                          "name": "delta",
                          "type": "int256"
                        },
                        {
                          "components": [
                            {
                              "internalType": "Fixed6",
                              "name": "maker",
                              "type": "int256"
                            },
                            {
                              "internalType": "Fixed6",
                              "name": "long",
                              "type": "int256"
                            },
                            {
                              "internalType": "Fixed6",
                              "name": "short",
                              "type": "int256"
                            }
                          ],
                          "internalType": "struct Invalidation",
                          "name": "invalidation",
                          "type": "tuple"
                        }
                      ],
                      "internalType": "struct Position",
                      "name": "currentAccountPosition",
                      "type": "tuple"
                    },
                    {
                      "components": [
                        {
                          "internalType": "uint256",
                          "name": "timestamp",
                          "type": "uint256"
                        },
                        {
                          "internalType": "UFixed6",
                          "name": "maker",
                          "type": "uint256"
                        },
                        {
                          "internalType": "UFixed6",
                          "name": "long",
                          "type": "uint256"
                        },
                        {
                          "internalType": "UFixed6",
                          "name": "short",
                          "type": "uint256"
                        },
                        {
                          "internalType": "Fixed6",
                          "name": "fee",
                          "type": "int256"
                        },
                        {
                          "internalType": "UFixed6",
                          "name": "keeper",
                          "type": "uint256"
                        },
                        {
                          "internalType": "Fixed6",
                          "name": "collateral",
                          "type": "int256"
                        },
                        {
                          "internalType": "Fixed6",
                          "name": "delta",
                          "type": "int256"
                        },
                        {
                          "components": [
                            {
                              "internalType": "Fixed6",
                              "name": "maker",
                              "type": "int256"
                            },
                            {
                              "internalType": "Fixed6",
                              "name": "long",
                              "type": "int256"
                            },
                            {
                              "internalType": "Fixed6",
                              "name": "short",
                              "type": "int256"
                            }
                          ],
                          "internalType": "struct Invalidation",
                          "name": "invalidation",
                          "type": "tuple"
                        }
                      ],
                      "internalType": "struct Position",
                      "name": "latestAccountPosition",
                      "type": "tuple"
                    },
                    {
                      "components": [
                        {
                          "internalType": "uint256",
                          "name": "timestamp",
                          "type": "uint256"
                        },
                        {
                          "internalType": "UFixed6",
                          "name": "maker",
                          "type": "uint256"
                        },
                        {
                          "internalType": "UFixed6",
                          "name": "long",
                          "type": "uint256"
                        },
                        {
                          "internalType": "UFixed6",
                          "name": "short",
                          "type": "uint256"
                        },
                        {
                          "internalType": "Fixed6",
                          "name": "fee",
                          "type": "int256"
                        },
                        {
                          "internalType": "UFixed6",
                          "name": "keeper",
                          "type": "uint256"
                        },
                        {
                          "internalType": "Fixed6",
                          "name": "collateral",
                          "type": "int256"
                        },
                        {
                          "internalType": "Fixed6",
                          "name": "delta",
                          "type": "int256"
                        },
                        {
                          "components": [
                            {
                              "internalType": "Fixed6",
                              "name": "maker",
                              "type": "int256"
                            },
                            {
                              "internalType": "Fixed6",
                              "name": "long",
                              "type": "int256"
                            },
                            {
                              "internalType": "Fixed6",
                              "name": "short",
                              "type": "int256"
                            }
                          ],
                          "internalType": "struct Invalidation",
                          "name": "invalidation",
                          "type": "tuple"
                        }
                      ],
                      "internalType": "struct Position",
                      "name": "currentPosition",
                      "type": "tuple"
                    },
                    {
                      "internalType": "Fixed6",
                      "name": "latestPrice",
                      "type": "int256"
                    },
                    {
                      "internalType": "UFixed6",
                      "name": "margin",
                      "type": "uint256"
                    },
                    {
                      "internalType": "UFixed6",
                      "name": "closable",
                      "type": "uint256"
                    },
                    {
                      "internalType": "UFixed6",
                      "name": "pendingFee",
                      "type": "uint256"
                    }
                  ],
                  "internalType": "struct MarketStrategyContext[]",
                  "name": "marketContexts",
                  "type": "tuple[]"
                }
              ],
              "internalType": "struct Strategy",
              "name": "strategy",
              "type": "tuple"
            },
            {
              "internalType": "UFixed6",
              "name": "settlementFee",
              "type": "uint256"
            },
            {
              "internalType": "uint256",
              "name": "totalWeight",
              "type": "uint256"
            },
            {
              "internalType": "uint256",
              "name": "currentId",
              "type": "uint256"
            },
            {
              "components": [
                {
                  "internalType": "contract IMarket",
                  "name": "market",
                  "type": "address"
                },
                {
                  "internalType": "uint256",
                  "name": "weight",
                  "type": "uint256"
                },
                {
                  "internalType": "UFixed6",
                  "name": "leverage",
                  "type": "uint256"
                }
              ],
              "internalType": "struct Registration[]",
              "name": "registrations",
              "type": "tuple[]"
            },
            {
              "internalType": "Fixed6[]",
              "name": "collaterals",
              "type": "int256[]"
            },
            {
              "components": [
                {
                  "internalType": "uint256[]",
                  "name": "_ids",
                  "type": "uint256[]"
                }
              ],
              "internalType": "struct Mapping",
              "name": "currentIds",
              "type": "tuple"
            },
            {
              "components": [
                {
                  "internalType": "uint256[]",
                  "name": "_ids",
                  "type": "uint256[]"
                }
              ],
              "internalType": "struct Mapping",
              "name": "latestIds",
              "type": "tuple"
            },
            {
              "components": [
                {
                  "internalType": "UFixed6",
                  "name": "cap",
                  "type": "uint256"
                }
              ],
              "internalType": "struct VaultParameter",
              "name": "parameter",
              "type": "tuple"
            },
            {
              "components": [
                {
                  "internalType": "UFixed6",
                  "name": "deposit",
                  "type": "uint256"
                },
                {
                  "internalType": "UFixed6",
                  "name": "redemption",
                  "type": "uint256"
                },
                {
                  "internalType": "UFixed6",
                  "name": "shares",
                  "type": "uint256"
                },
                {
                  "internalType": "Fixed6",
                  "name": "assets",
                  "type": "int256"
                },
                {
                  "internalType": "UFixed6",
                  "name": "fee",
                  "type": "uint256"
                },
                {
                  "internalType": "UFixed6",
                  "name": "keeper",
                  "type": "uint256"
                },
                {
                  "internalType": "uint256",
                  "name": "count",
                  "type": "uint256"
                }
              ],
              "internalType": "struct Checkpoint",
              "name": "currentCheckpoint",
              "type": "tuple"
            },
            {
              "components": [
                {
                  "internalType": "UFixed6",
                  "name": "deposit",
                  "type": "uint256"
                },
                {
                  "internalType": "UFixed6",
                  "name": "redemption",
                  "type": "uint256"
                },
                {
                  "internalType": "UFixed6",
                  "name": "shares",
                  "type": "uint256"
                },
                {
                  "internalType": "Fixed6",
                  "name": "assets",
                  "type": "int256"
                },
                {
                  "internalType": "UFixed6",
                  "name": "fee",
                  "type": "uint256"
                },
                {
                  "internalType": "UFixed6",
                  "name": "keeper",
                  "type": "uint256"
                },
                {
                  "internalType": "uint256",
                  "name": "count",
                  "type": "uint256"
                }
              ],
              "internalType": "struct Checkpoint",
              "name": "latestCheckpoint",
              "type": "tuple"
            },
            {
              "components": [
                {
                  "internalType": "uint256",
                  "name": "current",
                  "type": "uint256"
                },
                {
                  "internalType": "uint256",
                  "name": "latest",
                  "type": "uint256"
                },
                {
                  "internalType": "UFixed6",
                  "name": "shares",
                  "type": "uint256"
                },
                {
                  "internalType": "UFixed6",
                  "name": "assets",
                  "type": "uint256"
                },
                {
                  "internalType": "UFixed6",
                  "name": "deposit",
                  "type": "uint256"
                },
                {
                  "internalType": "UFixed6",
                  "name": "redemption",
                  "type": "uint256"
                }
              ],
              "internalType": "struct Account",
              "name": "global",
              "type": "tuple"
            },
            {
              "components": [
                {
                  "internalType": "uint256",
                  "name": "current",
                  "type": "uint256"
                },
                {
                  "internalType": "uint256",
                  "name": "latest",
                  "type": "uint256"
                },
                {
                  "internalType": "UFixed6",
                  "name": "shares",
                  "type": "uint256"
                },
                {
                  "internalType": "UFixed6",
                  "name": "assets",
                  "type": "uint256"
                },
                {
                  "internalType": "UFixed6",
                  "name": "deposit",
                  "type": "uint256"
                },
                {
                  "internalType": "UFixed6",
                  "name": "redemption",
                  "type": "uint256"
                }
              ],
              "internalType": "struct Account",
              "name": "local",
              "type": "tuple"
            }
          ],
          "internalType": "struct IVault.Context",
          "name": "context",
          "type": "tuple"
        }
      ],
      "name": "_collateral",
      "outputs": [
        {
          "internalType": "Fixed6",
          "name": "value",
          "type": "int256"
        }
      ],
      "stateMutability": "view",
      "type": "function"
    },
    {
      "inputs": [
        {
          "components": [
            {
              "components": [
                {
                  "components": [
                    {
                      "components": [
                        {
                          "internalType": "UFixed6",
                          "name": "fundingFee",
                          "type": "uint256"
                        },
                        {
                          "internalType": "UFixed6",
                          "name": "interestFee",
                          "type": "uint256"
                        },
                        {
                          "internalType": "UFixed6",
                          "name": "positionFee",
                          "type": "uint256"
                        },
                        {
                          "internalType": "UFixed6",
                          "name": "oracleFee",
                          "type": "uint256"
                        },
                        {
                          "internalType": "UFixed6",
                          "name": "riskFee",
                          "type": "uint256"
                        },
                        {
                          "internalType": "uint256",
                          "name": "maxPendingGlobal",
                          "type": "uint256"
                        },
                        {
                          "internalType": "uint256",
                          "name": "maxPendingLocal",
                          "type": "uint256"
                        },
                        {
                          "internalType": "UFixed6",
                          "name": "makerRewardRate",
                          "type": "uint256"
                        },
                        {
                          "internalType": "UFixed6",
                          "name": "longRewardRate",
                          "type": "uint256"
                        },
                        {
                          "internalType": "UFixed6",
                          "name": "shortRewardRate",
                          "type": "uint256"
                        },
                        {
                          "internalType": "UFixed6",
                          "name": "settlementFee",
                          "type": "uint256"
                        },
                        {
                          "internalType": "bool",
                          "name": "takerCloseAlways",
                          "type": "bool"
                        },
                        {
                          "internalType": "bool",
                          "name": "makerCloseAlways",
                          "type": "bool"
                        },
                        {
                          "internalType": "bool",
                          "name": "closed",
                          "type": "bool"
                        }
                      ],
                      "internalType": "struct MarketParameter",
                      "name": "marketParameter",
                      "type": "tuple"
                    },
                    {
                      "components": [
                        {
                          "internalType": "UFixed6",
                          "name": "margin",
                          "type": "uint256"
                        },
                        {
                          "internalType": "UFixed6",
                          "name": "maintenance",
                          "type": "uint256"
                        },
                        {
                          "internalType": "UFixed6",
                          "name": "takerFee",
                          "type": "uint256"
                        },
                        {
                          "internalType": "UFixed6",
                          "name": "takerSkewFee",
                          "type": "uint256"
                        },
                        {
                          "internalType": "UFixed6",
                          "name": "takerImpactFee",
                          "type": "uint256"
                        },
                        {
                          "internalType": "UFixed6",
                          "name": "makerFee",
                          "type": "uint256"
                        },
                        {
                          "internalType": "UFixed6",
                          "name": "makerImpactFee",
                          "type": "uint256"
                        },
                        {
                          "internalType": "UFixed6",
                          "name": "makerLimit",
                          "type": "uint256"
                        },
                        {
                          "internalType": "UFixed6",
                          "name": "efficiencyLimit",
                          "type": "uint256"
                        },
                        {
                          "internalType": "UFixed6",
                          "name": "liquidationFee",
                          "type": "uint256"
                        },
                        {
                          "internalType": "UFixed6",
                          "name": "minLiquidationFee",
                          "type": "uint256"
                        },
                        {
                          "internalType": "UFixed6",
                          "name": "maxLiquidationFee",
                          "type": "uint256"
                        },
                        {
                          "components": [
                            {
                              "internalType": "UFixed6",
                              "name": "minRate",
                              "type": "uint256"
                            },
                            {
                              "internalType": "UFixed6",
                              "name": "maxRate",
                              "type": "uint256"
                            },
                            {
                              "internalType": "UFixed6",
                              "name": "targetRate",
                              "type": "uint256"
                            },
                            {
                              "internalType": "UFixed6",
                              "name": "targetUtilization",
                              "type": "uint256"
                            }
                          ],
                          "internalType": "struct UJumpRateUtilizationCurve6",
                          "name": "utilizationCurve",
                          "type": "tuple"
                        },
                        {
                          "components": [
                            {
                              "internalType": "UFixed6",
                              "name": "k",
                              "type": "uint256"
                            },
                            {
                              "internalType": "UFixed6",
                              "name": "max",
                              "type": "uint256"
                            }
                          ],
                          "internalType": "struct PController6",
                          "name": "pController",
                          "type": "tuple"
                        },
                        {
                          "internalType": "UFixed6",
                          "name": "minMargin",
                          "type": "uint256"
                        },
                        {
                          "internalType": "UFixed6",
                          "name": "minMaintenance",
                          "type": "uint256"
                        },
                        {
                          "internalType": "UFixed6",
                          "name": "skewScale",
                          "type": "uint256"
                        },
                        {
                          "internalType": "uint256",
                          "name": "staleAfter",
                          "type": "uint256"
                        },
                        {
                          "internalType": "bool",
                          "name": "makerReceiveOnly",
                          "type": "bool"
                        }
                      ],
                      "internalType": "struct RiskParameter",
                      "name": "riskParameter",
                      "type": "tuple"
                    },
                    {
                      "components": [
                        {
                          "internalType": "uint256",
                          "name": "currentId",
                          "type": "uint256"
                        },
                        {
                          "internalType": "uint256",
                          "name": "latestId",
                          "type": "uint256"
                        },
                        {
                          "internalType": "Fixed6",
                          "name": "collateral",
                          "type": "int256"
                        },
                        {
                          "internalType": "UFixed6",
                          "name": "reward",
                          "type": "uint256"
                        },
                        {
                          "internalType": "uint256",
                          "name": "protection",
                          "type": "uint256"
                        },
                        {
                          "internalType": "address",
                          "name": "protectionInitiator",
                          "type": "address"
                        },
                        {
                          "internalType": "UFixed6",
                          "name": "protectionAmount",
                          "type": "uint256"
                        }
                      ],
                      "internalType": "struct Local",
                      "name": "local",
                      "type": "tuple"
                    },
                    {
                      "components": [
                        {
                          "internalType": "uint256",
                          "name": "timestamp",
                          "type": "uint256"
                        },
                        {
                          "internalType": "UFixed6",
                          "name": "maker",
                          "type": "uint256"
                        },
                        {
                          "internalType": "UFixed6",
                          "name": "long",
                          "type": "uint256"
                        },
                        {
                          "internalType": "UFixed6",
                          "name": "short",
                          "type": "uint256"
                        },
                        {
                          "internalType": "Fixed6",
                          "name": "fee",
                          "type": "int256"
                        },
                        {
                          "internalType": "UFixed6",
                          "name": "keeper",
                          "type": "uint256"
                        },
                        {
                          "internalType": "Fixed6",
                          "name": "collateral",
                          "type": "int256"
                        },
                        {
                          "internalType": "Fixed6",
                          "name": "delta",
                          "type": "int256"
                        },
                        {
                          "components": [
                            {
                              "internalType": "Fixed6",
                              "name": "maker",
                              "type": "int256"
                            },
                            {
                              "internalType": "Fixed6",
                              "name": "long",
                              "type": "int256"
                            },
                            {
                              "internalType": "Fixed6",
                              "name": "short",
                              "type": "int256"
                            }
                          ],
                          "internalType": "struct Invalidation",
                          "name": "invalidation",
                          "type": "tuple"
                        }
                      ],
                      "internalType": "struct Position",
                      "name": "currentAccountPosition",
                      "type": "tuple"
                    },
                    {
                      "components": [
                        {
                          "internalType": "uint256",
                          "name": "timestamp",
                          "type": "uint256"
                        },
                        {
                          "internalType": "UFixed6",
                          "name": "maker",
                          "type": "uint256"
                        },
                        {
                          "internalType": "UFixed6",
                          "name": "long",
                          "type": "uint256"
                        },
                        {
                          "internalType": "UFixed6",
                          "name": "short",
                          "type": "uint256"
                        },
                        {
                          "internalType": "Fixed6",
                          "name": "fee",
                          "type": "int256"
                        },
                        {
                          "internalType": "UFixed6",
                          "name": "keeper",
                          "type": "uint256"
                        },
                        {
                          "internalType": "Fixed6",
                          "name": "collateral",
                          "type": "int256"
                        },
                        {
                          "internalType": "Fixed6",
                          "name": "delta",
                          "type": "int256"
                        },
                        {
                          "components": [
                            {
                              "internalType": "Fixed6",
                              "name": "maker",
                              "type": "int256"
                            },
                            {
                              "internalType": "Fixed6",
                              "name": "long",
                              "type": "int256"
                            },
                            {
                              "internalType": "Fixed6",
                              "name": "short",
                              "type": "int256"
                            }
                          ],
                          "internalType": "struct Invalidation",
                          "name": "invalidation",
                          "type": "tuple"
                        }
                      ],
                      "internalType": "struct Position",
                      "name": "latestAccountPosition",
                      "type": "tuple"
                    },
                    {
                      "components": [
                        {
                          "internalType": "uint256",
                          "name": "timestamp",
                          "type": "uint256"
                        },
                        {
                          "internalType": "UFixed6",
                          "name": "maker",
                          "type": "uint256"
                        },
                        {
                          "internalType": "UFixed6",
                          "name": "long",
                          "type": "uint256"
                        },
                        {
                          "internalType": "UFixed6",
                          "name": "short",
                          "type": "uint256"
                        },
                        {
                          "internalType": "Fixed6",
                          "name": "fee",
                          "type": "int256"
                        },
                        {
                          "internalType": "UFixed6",
                          "name": "keeper",
                          "type": "uint256"
                        },
                        {
                          "internalType": "Fixed6",
                          "name": "collateral",
                          "type": "int256"
                        },
                        {
                          "internalType": "Fixed6",
                          "name": "delta",
                          "type": "int256"
                        },
                        {
                          "components": [
                            {
                              "internalType": "Fixed6",
                              "name": "maker",
                              "type": "int256"
                            },
                            {
                              "internalType": "Fixed6",
                              "name": "long",
                              "type": "int256"
                            },
                            {
                              "internalType": "Fixed6",
                              "name": "short",
                              "type": "int256"
                            }
                          ],
                          "internalType": "struct Invalidation",
                          "name": "invalidation",
                          "type": "tuple"
                        }
                      ],
                      "internalType": "struct Position",
                      "name": "currentPosition",
                      "type": "tuple"
                    },
                    {
                      "internalType": "Fixed6",
                      "name": "latestPrice",
                      "type": "int256"
                    },
                    {
                      "internalType": "UFixed6",
                      "name": "margin",
                      "type": "uint256"
                    },
                    {
                      "internalType": "UFixed6",
                      "name": "closable",
                      "type": "uint256"
                    },
                    {
                      "internalType": "UFixed6",
                      "name": "pendingFee",
                      "type": "uint256"
                    }
                  ],
                  "internalType": "struct MarketStrategyContext[]",
                  "name": "marketContexts",
                  "type": "tuple[]"
                }
              ],
              "internalType": "struct Strategy",
              "name": "strategy",
              "type": "tuple"
            },
            {
              "internalType": "UFixed6",
              "name": "settlementFee",
              "type": "uint256"
            },
            {
              "internalType": "uint256",
              "name": "totalWeight",
              "type": "uint256"
            },
            {
              "internalType": "uint256",
              "name": "currentId",
              "type": "uint256"
            },
            {
              "components": [
                {
                  "internalType": "contract IMarket",
                  "name": "market",
                  "type": "address"
                },
                {
                  "internalType": "uint256",
                  "name": "weight",
                  "type": "uint256"
                },
                {
                  "internalType": "UFixed6",
                  "name": "leverage",
                  "type": "uint256"
                }
              ],
              "internalType": "struct Registration[]",
              "name": "registrations",
              "type": "tuple[]"
            },
            {
              "internalType": "Fixed6[]",
              "name": "collaterals",
              "type": "int256[]"
            },
            {
              "components": [
                {
                  "internalType": "uint256[]",
                  "name": "_ids",
                  "type": "uint256[]"
                }
              ],
              "internalType": "struct Mapping",
              "name": "currentIds",
              "type": "tuple"
            },
            {
              "components": [
                {
                  "internalType": "uint256[]",
                  "name": "_ids",
                  "type": "uint256[]"
                }
              ],
              "internalType": "struct Mapping",
              "name": "latestIds",
              "type": "tuple"
            },
            {
              "components": [
                {
                  "internalType": "UFixed6",
                  "name": "cap",
                  "type": "uint256"
                }
              ],
              "internalType": "struct VaultParameter",
              "name": "parameter",
              "type": "tuple"
            },
            {
              "components": [
                {
                  "internalType": "UFixed6",
                  "name": "deposit",
                  "type": "uint256"
                },
                {
                  "internalType": "UFixed6",
                  "name": "redemption",
                  "type": "uint256"
                },
                {
                  "internalType": "UFixed6",
                  "name": "shares",
                  "type": "uint256"
                },
                {
                  "internalType": "Fixed6",
                  "name": "assets",
                  "type": "int256"
                },
                {
                  "internalType": "UFixed6",
                  "name": "fee",
                  "type": "uint256"
                },
                {
                  "internalType": "UFixed6",
                  "name": "keeper",
                  "type": "uint256"
                },
                {
                  "internalType": "uint256",
                  "name": "count",
                  "type": "uint256"
                }
              ],
              "internalType": "struct Checkpoint",
              "name": "currentCheckpoint",
              "type": "tuple"
            },
            {
              "components": [
                {
                  "internalType": "UFixed6",
                  "name": "deposit",
                  "type": "uint256"
                },
                {
                  "internalType": "UFixed6",
                  "name": "redemption",
                  "type": "uint256"
                },
                {
                  "internalType": "UFixed6",
                  "name": "shares",
                  "type": "uint256"
                },
                {
                  "internalType": "Fixed6",
                  "name": "assets",
                  "type": "int256"
                },
                {
                  "internalType": "UFixed6",
                  "name": "fee",
                  "type": "uint256"
                },
                {
                  "internalType": "UFixed6",
                  "name": "keeper",
                  "type": "uint256"
                },
                {
                  "internalType": "uint256",
                  "name": "count",
                  "type": "uint256"
                }
              ],
              "internalType": "struct Checkpoint",
              "name": "latestCheckpoint",
              "type": "tuple"
            },
            {
              "components": [
                {
                  "internalType": "uint256",
                  "name": "current",
                  "type": "uint256"
                },
                {
                  "internalType": "uint256",
                  "name": "latest",
                  "type": "uint256"
                },
                {
                  "internalType": "UFixed6",
                  "name": "shares",
                  "type": "uint256"
                },
                {
                  "internalType": "UFixed6",
                  "name": "assets",
                  "type": "uint256"
                },
                {
                  "internalType": "UFixed6",
                  "name": "deposit",
                  "type": "uint256"
                },
                {
                  "internalType": "UFixed6",
                  "name": "redemption",
                  "type": "uint256"
                }
              ],
              "internalType": "struct Account",
              "name": "global",
              "type": "tuple"
            },
            {
              "components": [
                {
                  "internalType": "uint256",
                  "name": "current",
                  "type": "uint256"
                },
                {
                  "internalType": "uint256",
                  "name": "latest",
                  "type": "uint256"
                },
                {
                  "internalType": "UFixed6",
                  "name": "shares",
                  "type": "uint256"
                },
                {
                  "internalType": "UFixed6",
                  "name": "assets",
                  "type": "uint256"
                },
                {
                  "internalType": "UFixed6",
                  "name": "deposit",
                  "type": "uint256"
                },
                {
                  "internalType": "UFixed6",
                  "name": "redemption",
                  "type": "uint256"
                }
              ],
              "internalType": "struct Account",
              "name": "local",
              "type": "tuple"
            }
          ],
          "internalType": "struct IVault.Context",
          "name": "context",
          "type": "tuple"
        },
        {
          "internalType": "uint256",
          "name": "id",
          "type": "uint256"
        }
      ],
      "name": "_collateralAtId",
      "outputs": [
        {
          "internalType": "Fixed6",
          "name": "value",
          "type": "int256"
        },
        {
          "internalType": "UFixed6",
          "name": "fee",
          "type": "uint256"
        },
        {
          "internalType": "UFixed6",
          "name": "keeper",
          "type": "uint256"
        }
      ],
      "stateMutability": "view",
      "type": "function"
    },
    {
      "inputs": [
        {
          "internalType": "address",
          "name": "account",
          "type": "address"
        }
      ],
      "name": "accounts",
      "outputs": [
        {
          "components": [
            {
              "internalType": "uint256",
              "name": "current",
              "type": "uint256"
            },
            {
              "internalType": "uint256",
              "name": "latest",
              "type": "uint256"
            },
            {
              "internalType": "UFixed6",
              "name": "shares",
              "type": "uint256"
            },
            {
              "internalType": "UFixed6",
              "name": "assets",
              "type": "uint256"
            },
            {
              "internalType": "UFixed6",
              "name": "deposit",
              "type": "uint256"
            },
            {
              "internalType": "UFixed6",
              "name": "redemption",
              "type": "uint256"
            }
          ],
          "internalType": "struct Account",
          "name": "",
          "type": "tuple"
        }
      ],
      "stateMutability": "view",
      "type": "function"
    },
    {
      "inputs": [],
      "name": "asset",
      "outputs": [
        {
          "internalType": "Token18",
          "name": "",
          "type": "address"
        }
      ],
      "stateMutability": "view",
      "type": "function"
    },
    {
      "inputs": [
        {
          "internalType": "uint256",
          "name": "id",
          "type": "uint256"
        }
      ],
      "name": "checkpoints",
      "outputs": [
        {
          "components": [
            {
              "internalType": "UFixed6",
              "name": "deposit",
              "type": "uint256"
            },
            {
              "internalType": "UFixed6",
              "name": "redemption",
              "type": "uint256"
            },
            {
              "internalType": "UFixed6",
              "name": "shares",
              "type": "uint256"
            },
            {
              "internalType": "Fixed6",
              "name": "assets",
              "type": "int256"
            },
            {
              "internalType": "UFixed6",
              "name": "fee",
              "type": "uint256"
            },
            {
              "internalType": "UFixed6",
              "name": "keeper",
              "type": "uint256"
            },
            {
              "internalType": "uint256",
              "name": "count",
              "type": "uint256"
            }
          ],
          "internalType": "struct Checkpoint",
          "name": "",
          "type": "tuple"
        }
      ],
      "stateMutability": "view",
      "type": "function"
    },
    {
      "inputs": [
        {
          "internalType": "UFixed6",
          "name": "shares",
          "type": "uint256"
        }
      ],
      "name": "convertToAssets",
      "outputs": [
        {
          "internalType": "UFixed6",
          "name": "",
          "type": "uint256"
        }
      ],
      "stateMutability": "view",
      "type": "function"
    },
    {
      "inputs": [
        {
          "internalType": "UFixed6",
          "name": "assets",
          "type": "uint256"
        }
      ],
      "name": "convertToShares",
      "outputs": [
        {
          "internalType": "UFixed6",
          "name": "",
          "type": "uint256"
        }
      ],
      "stateMutability": "view",
      "type": "function"
    },
    {
      "inputs": [],
      "name": "factory",
      "outputs": [
        {
          "internalType": "contract IFactory",
          "name": "",
          "type": "address"
        }
      ],
      "stateMutability": "view",
      "type": "function"
    },
    {
      "inputs": [
        {
          "internalType": "Token18",
          "name": "asset_",
          "type": "address"
        },
        {
          "internalType": "contract IMarket",
          "name": "initialMarket",
          "type": "address"
        },
        {
          "internalType": "UFixed6",
          "name": "cap",
          "type": "uint256"
        },
        {
          "internalType": "string",
          "name": "name_",
          "type": "string"
        }
      ],
      "name": "initialize",
      "outputs": [],
      "stateMutability": "nonpayable",
      "type": "function"
    },
    {
      "inputs": [
        {
          "internalType": "uint256",
          "name": "id",
          "type": "uint256"
        }
      ],
      "name": "mappings",
      "outputs": [
        {
          "components": [
            {
              "internalType": "uint256[]",
              "name": "_ids",
              "type": "uint256[]"
            }
          ],
          "internalType": "struct Mapping",
          "name": "",
          "type": "tuple"
        }
      ],
      "stateMutability": "view",
      "type": "function"
    },
    {
      "inputs": [],
      "name": "name",
      "outputs": [
        {
          "internalType": "string",
          "name": "",
          "type": "string"
        }
      ],
      "stateMutability": "view",
      "type": "function"
    },
    {
      "inputs": [],
      "name": "parameter",
      "outputs": [
        {
          "components": [
            {
              "internalType": "UFixed6",
              "name": "cap",
              "type": "uint256"
            }
          ],
          "internalType": "struct VaultParameter",
          "name": "",
          "type": "tuple"
        }
      ],
      "stateMutability": "view",
      "type": "function"
    },
    {
      "inputs": [
        {
          "internalType": "contract IMarket",
          "name": "market",
          "type": "address"
        }
      ],
      "name": "register",
      "outputs": [],
      "stateMutability": "nonpayable",
      "type": "function"
    },
    {
      "inputs": [
        {
          "internalType": "uint256",
          "name": "marketId",
          "type": "uint256"
        }
      ],
      "name": "registrations",
      "outputs": [
        {
          "components": [
            {
              "internalType": "contract IMarket",
              "name": "market",
              "type": "address"
            },
            {
              "internalType": "uint256",
              "name": "weight",
              "type": "uint256"
            },
            {
              "internalType": "UFixed6",
              "name": "leverage",
              "type": "uint256"
            }
          ],
          "internalType": "struct Registration",
          "name": "",
          "type": "tuple"
        }
      ],
      "stateMutability": "view",
      "type": "function"
    },
    {
      "inputs": [
        {
          "internalType": "address",
          "name": "account",
          "type": "address"
        }
      ],
      "name": "settle",
      "outputs": [],
      "stateMutability": "nonpayable",
      "type": "function"
    },
    {
      "inputs": [],
      "name": "totalAssets",
      "outputs": [
        {
          "internalType": "Fixed6",
          "name": "",
          "type": "int256"
        }
      ],
      "stateMutability": "view",
      "type": "function"
    },
    {
      "inputs": [],
      "name": "totalMarkets",
      "outputs": [
        {
          "internalType": "uint256",
          "name": "",
          "type": "uint256"
        }
      ],
      "stateMutability": "view",
      "type": "function"
    },
    {
      "inputs": [],
      "name": "totalShares",
      "outputs": [
        {
          "internalType": "UFixed6",
          "name": "",
          "type": "uint256"
        }
      ],
      "stateMutability": "view",
      "type": "function"
    },
    {
      "inputs": [
        {
          "internalType": "address",
          "name": "account",
          "type": "address"
        },
        {
          "internalType": "UFixed6",
          "name": "depositAssets",
          "type": "uint256"
        },
        {
          "internalType": "UFixed6",
          "name": "redeemShares",
          "type": "uint256"
        },
        {
          "internalType": "UFixed6",
          "name": "claimAssets",
          "type": "uint256"
        }
      ],
      "name": "update",
      "outputs": [],
      "stateMutability": "nonpayable",
      "type": "function"
    },
    {
      "inputs": [
        {
          "internalType": "uint256",
          "name": "marketId",
          "type": "uint256"
        },
        {
          "internalType": "uint256",
          "name": "newWeight",
          "type": "uint256"
        },
        {
          "internalType": "UFixed6",
          "name": "newLeverage",
          "type": "uint256"
        }
      ],
      "name": "updateMarket",
      "outputs": [],
      "stateMutability": "nonpayable",
      "type": "function"
    },
    {
      "inputs": [
        {
          "components": [
            {
              "internalType": "UFixed6",
              "name": "cap",
              "type": "uint256"
            }
          ],
          "internalType": "struct VaultParameter",
          "name": "newParameter",
          "type": "tuple"
        }
      ],
      "name": "updateParameter",
      "outputs": [],
      "stateMutability": "nonpayable",
      "type": "function"
    }
  ],
  "transactionHash": "0x42b5fb466e2a622da51d0c6b6c609f5d79bad2c9ea7e24a89abb0605acb33ae8",
  "args": [],
  "numDeployments": 4,
  "solcInputHash": "6b03110371bfd4f0496e008340480c71",
  "bytecode": "0x6080806040523461001757615e0b90816200001d8239f35b600080fdfe60c0604052600436101561001257600080fd5b60003560e01c806301e1d114146121f157806306fdde03146120e157806307a2d13a1461208e57806338d52e0f146120675780633a98ef391461204c5780634420e48614611eba5780635e5c06e214611e3d5780636a256b2914611d685780638162486b14611d4a5780639fec600b146119da578063a145198c146118aa578063a5245749146116ad578063ad4d4e291461167a578063b8a2425214611601578063c2884e44146115af578063c45a015514611569578063c6e6f59214611505578063d2c3aaf214610228578063daefe14e146101e5578063ecf053d9146101615763f4ddb5be1461010357600080fd5b3461015c57602036600319011261015c5761011c612be4565b50600435600052600460205260606101376040600020615676565b60408051916001600160a01b0381511683526020810151602084015201516040820152f35b600080fd5b3461015c5760208060031936011261015c5760606040516101818161227f565b526004356000526007815261019960406000206155bf565b906040519181839283526040830191519181808501528251809152816060850193019160005b8281106101ce57505050500390f35b8351855286955093810193928101926001016101bf565b3461015c57602036600319011261015c5760043567ffffffffffffffff811161015c5761022061021b6020923690600401612604565b614319565b604051908152f35b3461015c57608036600319011261015c57610241612255565b600460206001600160a01b037f0aec74a1754fb10877b53c31a29be82096082042eb1fb374ec96fac88c0e621b541660405192838092635c975abb60e01b82525afa9081156109ab576000916114cb575b506114a15761029f61318d565b6102a881613d2b565b6102b282826133b2565b6101608101515180606083015260005260076020526102e26102d760406000206155bf565b60c08301519061552f565b1561147b576102f46060820151612db7565b60608201526101208101516101608201516103196001600160a01b0360015416615b76565b9161034b61034661033564e8d4a51000604086015196046159b4565b93606060808201519101519061323f565b6159b4565b600081128382810312811690848381031390151617610b245760409203606082015201526060810151600052600760205260406000209160c082015190600080528360205263ffffffff60406000205416610477578151518061145857506000935b6103b68561240b565b946103c460405196876123e9565b8086526103d3601f199161240b565b0160005b81811061142457505060005b835180518210156104a1576103fd8263ffffffff926135b2565b51116104775763ffffffff8451511690600781049161041c83896135b2565b5152602061043c63ffffffff6104338489516135b2565b511693896135b2565b51015191600782069260078410156104615761045c9360051b0152612db7565b6103e3565b634e487b7160e01b600052603260045260246000fd5b60046040517ff003e2c3000000000000000000000000000000000000000000000000000000008152fd5b505093915060005b8251811015610530576104bc81846135b2565b518160005285602052602060406000209163ffffffff81511663ffffffff1984541617835501519060009160005b600781106105065750506001015561050190612db7565b6104a9565b9092602060019163ffffffff8651169063ffffffff8560051b92831b921b191617940191016104ea565b50925050905b6044359160643592608082015190604051936105518561227f565b6060855282516105608161240b565b9061056e60405192836123e9565b80825261057d601f199161240b565b0160005b81811061140157505085526000915b8351831015610e05579082916105a8600494866135b2565b51946105b26145e4565b986101c06001600160a01b038851166040519788809263ad4d4e2960e01b82525afa80156109ab57600496600091610dd4575b508a526102e06001600160a01b03885116604051978880927f4549a6290000000000000000000000000000000000000000000000000000000082525afa80156109ab57600090610c5a575b6024965060208b015260e06001600160a01b0388511660405197888092635b4b969560e01b82523060048301525afa80156109ab57600496600091610c2b575b5060408b01526101206001600160a01b03885116604051978880927fa05f99060000000000000000000000000000000000000000000000000000000082525afa9586156109ab57600096610b77575b5060e086015160c08b015260246101606001600160a01b03895116604051928380927f55f575100000000000000000000000000000000000000000000000000000000082523060048301525afa80156109ab578b602092600092610b48575b506107c7610120828460806107d29501526107398580615841565b61079460c08201516040519061074e8261232a565b6000825288820152600160408201528783015160408801516060890151808211600014610b4157505b888a01518082111561096a5750915b6101c0825192015192615962565b60e082015180821115610b3a57505b60e0820152015160808401516000811315610951576107c190615a9d565b9061323f565b60a08301519061323f565b6101208d0152015193602060808c015101516101008c0152602060408c01510151600181018111610b2457600101945b60408c01515186116109b757885160405163ce813aed60e01b815230600482015260248101889052919061016090839060449082906001600160a01b03165afa9182156109ab576101206109418f929461094b9560009161097a575b50806060850152610873608085015182615841565b61091060c085015195604051966108898861232a565b600088526020880152600160408801526108da602087015197604085015160608601518082116000146109725750985b60208601998a5180821160001461096a5750916101c0825192015192615962565b60e08701518082111561096357505b60e087015261090a61010087015191885181811060001461095c5790615ad9565b90615ad9565b61010085015260a061093884860151608084015160008113600014610951576107c190615a9d565b9101519061323f565b9101525195612db7565b94610802565b506107c16000615a9d565b5080615ad9565b90506108e9565b905091610786565b9050986108b9565b61099e91506101603d610160116109a4575b61099681836123e9565b8101906143a1565b3861085e565b503d61098c565b6040513d6000823e3d90fd5b509593509598600491979492996101606001600160a01b03825116604051948580927f09218e910000000000000000000000000000000000000000000000000000000082525afa9283156109ab57600093610af8575b506001600160a01b0361016091511694516024604051809781937fa1d0a11300000000000000000000000000000000000000000000000000000000835260048301525afa9081156109ab57610a79610abe938593610ac497600091610ad7575b508060a0850152615841565b610aa5610120820151604083015160808401516080820151905110600014610ace5760c001519061323f565b610120820152895190610ab883836135b2565b526135b2565b50612db7565b9190939295610590565b5060009061323f565b610af291506101603d610160116109a45761099681836123e9565b8e610a6d565b610160919350610b1c6001600160a01b0391833d85116109a45761099681836123e9565b939150610a0d565b634e487b7160e01b600052601160045260246000fd5b90506107a3565b9050610777565b6107d2919250610120610b6e6107c7926101603d610160116109a45761099681836123e9565b9392505061071e565b909550610120903d61012011610c23575b610b9282826123e9565b61012081838101031261015c576040805192610bad846122f0565b82518452602083015160208501528183015182850152606083015160608501526080830151608085015260a080840151908501528260bf1991810103011261015c5761010090604051610bff8161229b565b60c0820151815260e0820151602082015260c0840152015160e0820152948a6106bf565b3d9150610b88565b610c4d915060e03d60e011610c53575b610c4581836123e9565b8101906139c6565b8b610670565b503d610c3b565b506102e03d6102e011610dcd575b610c7281886123e9565b6102e087828101031261015c5760405190610c8c826122b7565b875182526020880151602083015260408801516040830152606088015160608301526080880151608083015260a0808901519083015260c088015160c083015260e088015160e0830152610100808901519083015261012080890151908301526101408089015190830152610160880151610160830152608061017f198983810103011261015c576040908151610d22816122d4565b6101808a81015182526101a08b015160208301526101c08b0151848301526101e08b0151606083015284015288018890036101ff19011261015c57602496610dc46102c060405192610d738461229b565b61020093848201518152610220908183015160208201526101a087015261024094858301516101c08801526102608301516101e0880152610280830151908701526102a08201519086015201612dc6565b90820152610630565b503d610c68565b610df891506101c03d6101c011610dfe575b610df081836123e9565b810190613909565b8b6105e5565b503d610de6565b925093905082526001610e1785615b26565b146113f0575b6001610e2882615b26565b146113e0575b6001600160a01b0383163314158061131f575b6112f5576001610e7d610e5f86610e5a8560243561323f565b61323f565b83602435116000146112ef576024355b878111156112e75790615b65565b036112bd576002610e98610e9084614106565b602435615b65565b14611293576002610eb1610eab84614166565b83615b65565b14611269576024351515938480611252575b6111e357811515808061120d575b6111e35761018084015160208151910151036111b957610ef084614319565b60008113156111ae57610f0290615a9d565b61016085015160600151806111825750506000955b86602435158061117a575b611162575b50610f438461016087015181866024359260608b015190614b8d565b610f5e8461018087015181866024359260608b015190614b8d565b6101208501519181611154575b811561113c575b506111125760c090610f87602435825161323f565b60208201610f9686825161323f565b9052815201610fa58151612db7565b90526001600160a01b0360015416610fbe602435615a83565b604051907f23b872dd0000000000000000000000000000000000000000000000000000000060208301523360248301523060448301526064820152606481528060a081011067ffffffffffffffff60a0830111176110fc576110fa96611031826110a79460a06110949501604052615bf6565b61103b8187613673565b6110a26110536001600160a01b036001541692615a83565b6040517fa9059cbb00000000000000000000000000000000000000000000000000000000602082015233602482015260448101919091529283906064820190565b03601f1981018452836123e9565b615bf6565b6060830151916040519283526024356020840152604083015260608201526001600160a01b038316907ecdda35b21914cc89ca2689f6ada564ebad3ad81f233699e25e44e13ab73f4960803392a3614097565b005b634e487b7160e01b600052604160045260246000fd5b60046040517f4596b8b1000000000000000000000000000000000000000000000000000000008152fd5b90508061114a575b87610f72565b5080511515611144565b602083015115159150610f6b565b611173919750602086015190615ad9565b9587610f27565b508415610f22565b61119e91818110156111a457611199905b85615663565b61559f565b95610f17565b5061119981611193565b50610f026000615a9d565b60046040517fe4b29524000000000000000000000000000000000000000000000000000000008152fd5b60046040517ff2fbeec4000000000000000000000000000000000000000000000000000000008152fd5b5061123d61014085015160208601519085604082015115600014611243579050905b8181101561095c5790615ad9565b15610ed1565b61124c91614fff565b9061122f565b506112636020840151602435615b65565b15610ec3565b60046040517fc85650f7000000000000000000000000000000000000000000000000000000008152fd5b60046040517fa9785d3d000000000000000000000000000000000000000000000000000000008152fd5b60046040517fa65ac9fb000000000000000000000000000000000000000000000000000000008152fd5b508690615b65565b83610e6f565b60046040517f7eb267c7000000000000000000000000000000000000000000000000000000008152fd5b50604460206001600160a01b037f0aec74a1754fb10877b53c31a29be82096082042eb1fb374ec96fac88c0e621b5416604051928380927f2637588e0000000000000000000000000000000000000000000000000000000082526001600160a01b03891660048301523360248301525afa9081156109ab576000916113a6575b5015610e41565b90506020813d6020116113d8575b816113c1602093836123e9565b8101031261015c576113d290612dc6565b8561139f565b3d91506113b4565b5060406101808201510151610e2e565b610180820151606001519350610e1d565b6020906114129996979495996145e4565b82828601015201979392959497610581565b6020906040516114338161229b565b6000815260405161144381612346565b60e03682378382015282828a010152016103d7565b6000198101908111610b245760079004600181018111610b2457600101936103ad565b606081015160005260066020526114956040600020615120565b61012082015290610536565b60046040517f4b94d2bb000000000000000000000000000000000000000000000000000000008152fd5b90506020813d6020116114fd575b816114e6602093836123e9565b8101031261015c576114f790612dc6565b82610292565b3d91506114d9565b3461015c57602036600319011261015c576020600435611523612c6d565b600081131561155e5761153590615a9d565b61153d612d34565b8061154c575050604051908152f35b6111999061155993615663565b610220565b506115356000615a9d565b3461015c57600036600319011261015c5760206001600160a01b037f0aec74a1754fb10877b53c31a29be82096082042eb1fb374ec96fac88c0e621b5416604051908152f35b3461015c57604036600319011261015c5760043567ffffffffffffffff811161015c576115ee6115e56060923690600401612604565b60243590614440565b9060405192835260208301526040820152f35b3461015c57602036600319011261015c5761161a612c35565b50600435600052600660205260e06116356040600020615120565b60c060405191805183526020810151602084015260408101516040840152606081015160608401526080810151608084015260a081015160a0840152015160c0820152f35b3461015c57600036600319011261015c5760006040516116998161227f565b5260206116a46157f6565b60405190518152f35b3461015c57606036600319011261015c57600435602435604435906001600160a01b0390817f0aec74a1754fb10877b53c31a29be82096082042eb1fb374ec96fac88c0e621b541660405192638da5cb5b60e01b84526020938481600481865afa9081156109ab57600091611875575b50163303611845578260049160405192838092635c975abb60e01b82525afa9081156109ab57600091611810575b506114a15761175861318d565b61177a611763613a27565b61176c8161324c565b611775816135c6565b61403b565b6003548410156117e6577f19de27a5967d3c5ffdfa85f8f33ed63fcae289e86abc970d013e0ae2bc8bb27f9260409285600052600481526117db6117c085600020615676565b848382015283868201528760005260048352856000206156fd565b8351928352820152a2005b60046040517f04467fe8000000000000000000000000000000000000000000000000000000008152fd5b90508281813d831161183e575b61182781836123e9565b8101031261015c5761183890612dc6565b8561174b565b503d61181d565b60246040517f4d193d1f000000000000000000000000000000000000000000000000000000008152336004820152fd5b90508481813d83116118a3575b61188c81836123e9565b8101031261015c5761189d90612da3565b8761171d565b503d611882565b3461015c5760208060031936011261015c57604051906118c98261227f565b60043582526001600160a01b03807f0aec74a1754fb10877b53c31a29be82096082042eb1fb374ec96fac88c0e621b541690604051638da5cb5b60e01b81528381600481865afa9081156109ab576000916119a5575b50163303611845578160049160405192838092635c975abb60e01b82525afa9182156109ab5760009261196f575b50506114a1576110fa9061195f61318d565b61196a611763613a27565b613101565b90809250813d831161199e575b61198681836123e9565b8101031261015c5761199790612dc6565b828061194d565b503d61197c565b90508381813d83116119d3575b6119bc81836123e9565b8101031261015c576119cd90612da3565b8561191f565b503d6119b2565b3461015c57608036600319011261015c576119f3612255565b6001600160a01b039060248035838116810361015c5767ffffffffffffffff60643581811161015c573660238201121561015c57806004013591821161015c573684838301011161015c576001957f6fee9688c285c5c5c97d6a1a29adced674e6b2ad0888b8ad2116b58a8b3ea2488781541015611d1a578790557f2801b00eb06461cf9fcb9758b5fafd884ff06a86177386f73b6c49f0bf5a5af095878755303b151580611d12575b611ce857337f0aec74a1754fb10877b53c31a29be82096082042eb1fb374ec96fac88c0e621b55167fffffffffffffffffffffffff0000000000000000000000000000000000000000875416178655611af7600054612baa565b601f8111611c81575b50600090601f8311600114611bf757938291611b3895600093611bea575b505050600019600383901b1c191690851b17600055612dd3565b600354156117e6577fbe9b076dc5b65990cca9dd9d7366682482e7817a6f6bc7f4faf4dc32af497f3291600060209281805260048452611b98611b7d60408420615676565b848682015283604082015283805260048652604084206156fd565b817f19de27a5967d3c5ffdfa85f8f33ed63fcae289e86abc970d013e0ae2bc8bb27f604080518681528388820152a2611be0604051611bd68161227f565b6044358152613101565b55604051908152a1005b0101359050868080611b1e565b6000808052601f198416958894937f290decd9548b62a8d60345a988386fc84ba6bc95484008f6362f93160ef3e56393925b888110611c67575084611b389810611c4b575b50505050811b01600055612dd3565b60001960f88660031b161c199201013516905586808080611c3c565b81840183013585558a969094019360209182019101611c29565b600080527f290decd9548b62a8d60345a988386fc84ba6bc95484008f6362f93160ef3e563601f840160051c81019160208510611cde575b601f0160051c019087905b828110611cd2575050611b00565b60008155018790611cc4565b9091508190611cb9565b60046040517fb9a621e1000000000000000000000000000000000000000000000000000000008152fd5b506000611a9d565b8588604051907f3db738da0000000000000000000000000000000000000000000000000000000082526004820152fd5b3461015c57600036600319011261015c576020600354604051908152f35b3461015c57602036600319011261015c57611d81612255565b600460206001600160a01b037f0aec74a1754fb10877b53c31a29be82096082042eb1fb374ec96fac88c0e621b541660405192838092635c975abb60e01b82525afa9081156109ab57600091611e04575b506114a1576110fa90611de361318d565b611dec81613d2b565b611df682826133b2565b611dff816135c6565b614097565b90506020813d8211611e35575b81611e1e602093836123e9565b8101031261015c57611e2f90612dc6565b82611dd2565b3d9150611e11565b3461015c57602036600319011261015c576001600160a01b03611e5e612255565b611e66612c03565b5016600052600560205260c0611e7f6040600020614bd3565b60a0604051918051835260208101516020840152604081015160408401526060810151606084015260808101516080840152015160a0820152f35b3461015c5760208060031936011261015c57611ed4612255565b6001600160a01b0391827f0aec74a1754fb10877b53c31a29be82096082042eb1fb374ec96fac88c0e621b5416604051638da5cb5b60e01b81528281600481855afa80156109ab578591600091612014575b50163303611845578160049160405192838092635c975abb60e01b82525afa9081156109ab57600091611fdf575b506114a15791611f6261318d565b611f6d611763613a27565b60009060035493818416925b858110611f89576110fa85612dd3565b80600052600482528383611fa06040600020615676565b511614611fb557611fb090612db7565b611f79565b60046040517f499943cd000000000000000000000000000000000000000000000000000000008152fd5b90508181813d831161200d575b611ff681836123e9565b8101031261015c5761200790612dc6565b84611f54565b503d611fec565b809250848092503d8311612045575b61202d81836123e9565b8101031261015c5761203f8591612da3565b86611f26565b503d612023565b3461015c57600036600319011261015c576020610220612d34565b3461015c57600036600319011261015c5760206001600160a01b0360015416604051908152f35b3461015c57602036600319011261015c5760206004356120ac612c6d565b60008113156120d6576120be90615a9d565b6120c6612d34565b908161154c575050604051908152f35b506120be6000615a9d565b3461015c57600036600319011261015c5760405160207f506572656e6e69616c205632205661756c743a20000000000000000000000000818301526000906000549061212c82612baa565b916001908181169081156121c8575060011461216a575b6121668561215a818703601f1981018352826123e9565b6040519182918261220c565b0390f35b90919250600080527f290decd9548b62a8d60345a988386fc84ba6bc95484008f6362f93160ef3e563906000915b8483106121b45750505050810160340161215a82612166612143565b805486840160340152918301918101612198565b8695506121669693506034925061215a94915060ff191682840152801515028201019293612143565b3461015c57600036600319011261015c576020610220612c6d565b6020808252825181830181905290939260005b82811061224157505060409293506000838284010152601f8019910116010190565b81810186015184820160400152850161221f565b600435906001600160a01b038216820361015c57565b35906001600160a01b038216820361015c57565b6020810190811067ffffffffffffffff8211176110fc57604052565b6040810190811067ffffffffffffffff8211176110fc57604052565b610260810190811067ffffffffffffffff8211176110fc57604052565b6080810190811067ffffffffffffffff8211176110fc57604052565b610100810190811067ffffffffffffffff8211176110fc57604052565b610120810190811067ffffffffffffffff8211176110fc57604052565b6060810190811067ffffffffffffffff8211176110fc57604052565b60e0810190811067ffffffffffffffff8211176110fc57604052565b60c0810190811067ffffffffffffffff8211176110fc57604052565b6101a0810190811067ffffffffffffffff8211176110fc57604052565b610140810190811067ffffffffffffffff8211176110fc57604052565b6101c0810190811067ffffffffffffffff8211176110fc57604052565b67ffffffffffffffff81116110fc57604052565b90601f8019910116810190811067ffffffffffffffff8211176110fc57604052565b67ffffffffffffffff81116110fc5760051b60200190565b3590811515820361015c57565b8092910391610160831261015c576040519061244b8261230d565b6060829482358452602083013560208501526040830135604085015281830135828501526080830135608085015260a083013560a085015260c083013560c085015260e083013560e085015260ff19011261015c57604051916124ad8361232a565b610140610100928381013585526101208101356020860152013560408401520152565b91906020808483031261015c57604051906124ea8261227f565b819480359067ffffffffffffffff821161015c57019280601f8501121561015c5783356125168161240b565b9461252460405196876123e9565b818652838087019260051b82010192831161015c578301905b82821061254b575050505052565b8135815290830190830161253d565b91908260e091031261015c5760405161257281612346565b60c0808294803584526020810135602085015260408101356040850152606081013560608501526080810135608085015260a081013560a08501520135910152565b91908260c091031261015c576040516125cc81612362565b60a080829480358452602081013560208501526040810135604085015260608101356060850152608081013560808501520135910152565b8082039291610460841261015c576040519161261f8361237e565b829481359067ffffffffffffffff9182811161015c57830160208186031261015c576040519061264e8261227f565b80359084821161015c570185601f8201121561015c57803561266f8161240b565b9161267d60405193846123e9565b818352602083016020610a208094028301019189831161015c57602001905b828210612885575050505081528552602083013560208601526040830135604086015260608084013581870152608084013583811161015c5784019085601f8301121561015c578135916126ef8361240b565b926126fd60405194856123e9565b80845260208381860192028301019188831161015c57602001905b8282106128445750505050608086015260a083013582811161015c57830184601f8201121561015c5780359061274d8261240b565b9161275b60405193846123e9565b80835260208084019160051b8301019187831161015c57602001905b8282106128345750505060a086015260c083013582811161015c578461279e9185016124d0565b60c086015260e083013591821161015c576127bd8460209385016124d0565b60e086015260ff19011261015c57610180916103a061282f926040516127e28161227f565b6101008083013582528701526101206127fd8482840161255a565b9087015261280f83610200830161255a565b610140870152612823836102e083016125b4565b610160870152016125b4565b910152565b8135815260209182019101612777565b83828a031261015c576020849160405161285d8161232a565b6128668561226b565b8152828501358382015260408501356040820152815201910190612718565b83828b031261015c5760405161289a8161239b565b6101c0838c031261015c576040516128b1816123b8565b833581526020840135602082015260408401356040820152606084013560608201526080840135608082015260a084013560a082015260c084013560c082015260e084013560e082015261010084013561010082015261012084013561012082015261014084013561014082015261292c6101608501612423565b61016082015261293f6101808501612423565b6101808201526129526101a08501612423565b6101a082015281526102e0838c036101bf19011261015c57604051612976816122b7565b6101c084013581526101e0840135602082015261020084013560408201526102208401356060820152610240840135608082015261026084013560a082015261028084013560c08201526102a084013560e08201526102c08401356101008201526102e084013561012082015261030084013561014082015261032084013561016082015260808c8561033f199103011261015c57604051612a17816122d4565b6103408501358152610360850135602082015261038085013560408201526103a0850135606082015261018082015260408c856103bf199103011261015c57604051612a628161229b565b6103c085013581526103e085013560208201526101a08201526104008401356101c08201526104208401356101e0820152610440840135610200820152610460840135610220820152612ab86104808501612423565b610240820152602082015260e0838c0361049f19011261015c578491602091604051612ae381612346565b6104a086013581526104c0860135848201526104e0860135604082015261050086013560608201526105208601356080820152612b23610540870161226b565b60a082015261056086013560c08201526040820152612b468d6105808701612430565b6060820152612b598d6106e08701612430565b6080820152612b6c8d6108408701612430565b60a08201526109a085013560c08201526109c085013560e08201526109e0850135610100820152610a0085013561012082015281520191019061269c565b90600182811c92168015612bda575b6020831014612bc457565b634e487b7160e01b600052602260045260246000fd5b91607f1691612bb9565b60405190612bf18261232a565b60006040838281528260208201520152565b60405190612c1082612362565b8160a06000918281528260208201528260408201528260608201528260808201520152565b60405190612c4282612346565b8160c06000918281528260208201528260408201528260608201528260808201528260a08201520152565b600080805260056020908152612ca27f05b8ccbb9d4d8fb16ea74ce3c29a41f1b461fbdaff4714a0d9a8eb05499746bc614bd3565b015181526006602052612cb760408220615120565b90606082015191612cc881516159b4565b92828482019485129112908015821691151617612d2057610346816020612cf193015190614f03565b91818382039312818412811691841390151617612d0c575090565b80634e487b7160e01b602492526011600452fd5b602482634e487b7160e01b81526011600452fd5b6000805260056020908152612d687f05b8ccbb9d4d8fb16ea74ce3c29a41f1b461fbdaff4714a0d9a8eb05499746bc614bd3565b01516000526006602052612da0612d826040600020615120565b6020612d9760408301516107c1845185614ea3565b91015190615ad9565b90565b51906001600160a01b038216820361015c57565b6000198114610b245760010190565b5190811515820361015c57565b7f0aec74a1754fb10877b53c31a29be82096082042eb1fb374ec96fac88c0e621b54604080517f06ae70950000000000000000000000000000000000000000000000000000000081526001600160a01b039493600493602093919084908490879082908b165afa92831561305557879185916000956130bd575b5060248391855194859384927f032bb4430000000000000000000000000000000000000000000000000000000084521697888b840152165afa90811561305557600091613088575b50156130605780517ffc0c546a00000000000000000000000000000000000000000000000000000000815283818681865afa9081156130555760009161301d575b5086600154169687911603612ff55782600094959660448351809781937f095ea7b3000000000000000000000000000000000000000000000000000000008352878b840152811960248401525af18015612fea57612f96575b7f07796b317344e6f18fa32ed89b6074ad66549cee7fb7b8c3e9f1c42c496f1c5c935060035494612f5f86612db7565b600355856000528352612f8f81600020825190612f7b8261232a565b8482526000868301526000848301526156fd565b51908152a2565b8284813d8311612fe3575b612fab81836123e9565b8101031261015c57612fdd7f07796b317344e6f18fa32ed89b6074ad66549cee7fb7b8c3e9f1c42c496f1c5c94612dc6565b50612f2f565b503d612fa1565b50513d6000823e3d90fd5b8390517faddc4c0d000000000000000000000000000000000000000000000000000000008152fd5b908482813d831161304e575b61303381836123e9565b8101031261304b575061304590612da3565b38612ed6565b80fd5b503d613029565b82513d6000823e3d90fd5b8390517f7c04a019000000000000000000000000000000000000000000000000000000008152fd5b908482813d83116130b6575b61309e81836123e9565b8101031261304b57506130b090612dc6565b38612e95565b503d613094565b828193929694503d83116130fa575b6130d681836123e9565b810103126130f6575190878216820361304b575091869084906024612e4d565b5080fd5b503d6130cc565b600261310d8251615b33565b146131635760208167ffffffffffffffff7f6aa12494b90f1eeec92df49ec47058878b0803a79ba307dead4905555159adc79351166000836040516131518161229b565b838152015260025560405190518152a1565b60046040517f0f9f8b19000000000000000000000000000000000000000000000000000000008152fd5b6000905b60035482101561323b5781600052600491826020526040926001600160a01b036131bd85600020615676565b511690813b1561015c5760009160c483928751948593849263123dd9c560e31b84523090840152811960248401528160448401528160648401528160848401528160a48401525af180156132305761321b9394506132215750612db7565b90613191565b61322a906123d5565b38610abe565b84513d6000823e3d90fd5b9050565b91908201809211610b2457565b905b61016082019182518051602080920151809111908161337c575b501561337657808451015190600182018092116133615760008281526006808352604092613297848420615120565b9461014087019586526132aa8188614440565b9188519260609182850180518a838201938412911290801582169115161761334d57916133479c9d9e9161333893526080948587015260a080960152519361332e8b51948b8651968a810151968a8c8b015289019061332161331183516107c18b85614f03565b938b01916107c18b845192614ea3565b9052528601948551615ad9565b9401918251615ad9565b905252835252209051906151ee565b9061324e565b60248a634e487b7160e01b81526011600452fd5b60246000634e487b7160e01b81526011600452fd5b50509050565b905060018101809111613361576133a160406133ac92600090815260078552206155bf565b60e0840151906154b7565b38613268565b9190915b61016081019283518051602080920151809111908161357c575b5015613481578085510151906001820180921161336157600082815260068083526040926133ff848420615120565b9461014088019586526134128189614440565b9188519260609182850180518a838201938412911290801582169115161761334d579161347a9c9d9e9f9161333893526080948587015260a080960152519361332e8b51948b8651968a810151968a8c8b015289019061332161331183516107c18b85614f03565b91906133b6565b506001600160a01b0391929350161561357957610180810190815190602082519201518211918261354d575b50506134b65750565b805151908160005260066020526134d06040600020615120565b90519061353661352e608084019384519060a081019485519760208301526060820190613524604061351584518c838601511560001461353b576107c1905b8661509f565b9401916107c186845192614f38565b9052528451615ad9565b938251615ad9565b905252565b6135486107c19187614fff565b61350f565b6135729250600052600760205260e061356960406000206155bf565b910151906154b7565b38806134ad565b50565b905060018101809111613361576135a160406135ac92600090815260078552206155bf565b60e0850151906154b7565b386133d0565b80518210156104615760209160051b010190565b906101606135d383614319565b92016135ed6103468251608060608201519101519061323f565b600093818103918513801582841316918312161761365f57620f424061364d613629608093876135799798508082136000146136585750615a9d565b613647855161364160a060408301519201518261323f565b90615b05565b90615663565b04915101519061323f565b9050615a9d565b602484634e487b7160e01b81526011600452fd5b9161368661368084614319565b926159b4565b808303926000809212818512811691851390151617612d0c5761016084016136bc6103468251608060608201519101519061323f565b8281860391128582128116908683139015161761387a576136f291908381131561386757620f424061364d613629608093615a9d565b6136fb84615a0f565b1561386057613727608086519601918251958481136000146138565761372090615a9d565b8688614759565b92825b855181101561379a578061374b613745613785938a516135b2565b51614a9d565b60209182613759858b6135b2565b51015190808211156137925750905b8082101561378a5750905b61377d83896135b2565b510152612db7565b61372a565b905090613773565b905090613768565b50919350919350825b8251518110156137f957806137c56137be6137cf93886135b2565b5151615a0f565b156137d457612db7565b6137a3565b6137f46137e28286516135b2565b516137ed83896135b2565b519061388e565b612db7565b50915b81515181101561337657806138176137be61382d93876135b2565b6002811490811561384b575b5061383257612db7565b6137fc565b6137f46138408285516135b2565b516137ed83886135b2565b600191501438613823565b5061372084615a9d565b5050915050565b506080620f424061364d61362986615a9d565b602483634e487b7160e01b81526011600452fd5b6001600160a01b0390511660208201519151813b1561015c576040519263123dd9c560e31b845230600485015260248401528260c48160008095819582604485015282606485015260848401528160a48401525af19081156138fd57506138f25750565b6138fb906123d5565b565b604051903d90823e3d90fd5b90816101c091031261015c5760405190613922826123b8565b805182526020810151602083015260408101516040830152606081015160608301526080810151608083015260a081015160a083015260c081015160c083015260e081015160e083015261010080820151908301526101208082015190830152610140808201519083015261016061399b818301612dc6565b908301526101806139ad818301612dc6565b908301526139bf6101a0809201612dc6565b9082015290565b908160e091031261015c5760c0604051916139e083612346565b8051835260208101516020840152604081015160408401526060810151606084015260808101516080840152613a1860a08201612da3565b60a0840152015160c082015290565b60405190613a348261237e565b604051613a408161227f565b606090818152835260006020840152600060408401526000818401528060808401528060a0840152604051613a748161227f565b81815260c084015260405190613a898261227f565b815260e0830152610100820191604051613aa28161227f565b600081528352613ab0612c35565b610120820152610140810190613ac4612c35565b8252613ace612c03565b610160820152613adc612c03565b6101808201528093613aec6157f6565b905260c081015160035490613b0082615485565b905260e0820151613b1082615485565b9052613b1b8161240b565b613b2860405191826123e9565b818152601f19613b378361240b565b0160005b818110613d145750506080830152613b528161240b565b613b5f60405191826123e9565b818152601f19613b6e8361240b565b0136602083013760a083015260005b818110613bc15750506101606020916000805260058352613ba16040600020614bd3565b918291015201516000526006602052613bbd6040600020615120565b9052565b806000526004602052613bd76040600020615676565b9060046101c06001600160a01b038451166040519283809263ad4d4e2960e01b82525afa80156109ab57602493613c596001600160a01b039260e094600091613cf3575b50613c308660808b015185610ab883836135b2565b50613c43602084015160408b015161323f565b60408a015261014060208a01519101519061323f565b6020880152511660405193848092635b4b969560e01b82523060048301525afa9182156109ab57613ccf92604091600091613cd4575b5060e0860151613ca584602084015192516135b2565b5260c0860151613cb884835192516135b2565b520151613cc98260a08701516135b2565b52612db7565b613b7d565b613ced915060e03d60e011610c5357610c4581836123e9565b38613c8f565b613d0e91506101c03d6101c011610dfe57610df081836123e9565b38613c1b565b602090613d1f612be4565b82828601015201613b3b565b9060405191613d398361237e565b604051613d458161227f565b606090818152845260006020850152600060408501526000818501528060808501528060a0850152604051613d798161227f565b81815260c085015260405190613d8e8261227f565b815260e0840152610100830192604051613da78161227f565b600081528452613db5612c35565b610120820152610140810191613dc9612c35565b8352613dd3612c03565b610160830152613de1612c03565b6101808301528194613df16157f6565b905260c082015160035490613e0582615485565b905260e0830151613e1582615485565b9052613e208161240b565b613e2d60405191826123e9565b818152601f19613e3c8361240b565b0160005b8181106140245750506080840152613e578161240b565b613e6460405191826123e9565b818152601f19613e738361240b565b0136602083013760a084015260005b818110613ed75750506020916001600160a01b03610160921680613eb7575b506000805260058352613ba16040600020614bd3565b60005260058352613ecb6040600020614bd3565b61018082015238613ea1565b806000526004602052613eed6040600020615676565b9060046101c06001600160a01b038451166040519283809263ad4d4e2960e01b82525afa80156109ab57602493613f6f6001600160a01b039260e094600091614003575b50613f468660808c015185610ab883836135b2565b50613f59602084015160408c015161323f565b60408b015261014060208b01519101519061323f565b6020890152511660405193848092635b4b969560e01b82523060048301525afa9182156109ab57613fdf92604091600091613fe4575b5060e0870151613fbb84602084015192516135b2565b5260c0870151613fce84835192516135b2565b520151613cc98260a08801516135b2565b613e82565b613ffd915060e03d60e011610c5357610c4581836123e9565b38613fa5565b61401e91506101c03d6101c011610dfe57610df081836123e9565b38613f31565b60209061402f612be4565b82828601015201613e40565b6000805260056020526101608101516138fb9190614079907f05b8ccbb9d4d8fb16ea74ce3c29a41f1b461fbdaff4714a0d9a8eb05499746bc614c79565b606081015160005260066020526101206040600020910151906151ee565b6001600160a01b036138fb9216806140e4575b50600080526005602052610160810151614079907f05b8ccbb9d4d8fb16ea74ce3c29a41f1b461fbdaff4714a0d9a8eb05499746bc614c79565b6000526005602052614100604060002061018083015190614c79565b386140aa565b6141146101408201516150ec565b61416057612da09061010061414d61413d61412d612c6d565b6000808213156136585750615a9d565b608061016085015101519061323f565b91015151908181101561095c5790615ad9565b50600090565b61014081019161417683516150ec565b61431157815191608080820151916040808201519061419761412d84614319565b956141a76000199780888b614759565b936000975b895180518a10156142c257896141c1916135b2565b516141cc8a8a6135b2565b516020918282019283511580156142b7575b8015614299575b61428b57906142268a8e94936142136141fd85614a9d565b50968261420a82866135b2565b510151936135b2565b5101518086101561090a57508490615ad9565b921561428b578861425e614266946111996142779897958c60c06111999701516000808212156000146142845750915b015192615663565b925192615663565b908082101561427d57505b98612db7565b976141ac565b9050614271565b0391614256565b505050509761427790612db7565b50808b83015101511580156141e557508060608301510151156141e5565b5087830151156141de565b50965097509793509450505060016142d983615b26565b036142fd575050610180600019925b01510151808210156142f8575090565b905090565b6101809161430b9151614f7b565b926142e8565b915050600090565b90600161433e64e8d4a510006143386001600160a01b03845416615b76565b046159b4565b928160009182935b614351575b50505050565b9091929460808201515186101561439b576143708660a08401516135b2565b519084828201928312911290801582169115161761365f576143929095612db7565b92919081614346565b9461434b565b80910390610160821261015c576060604051926143bd8461230d565b82518452602083015160208501526040830151604085015281830151828501526080830151608085015260a083015160a085015260c083015160c085015260e083015160e085015260ff19011261015c576040519061441b8261232a565b6101406101009182810151845261012081015160208501520151604083015282015290565b9190600092600093848093815260076020526040926144608483206155bf565b9682955b885151871015614592576080916001600160a01b0361448689858701516135b2565b5151169585898c5180518210614580575b5050885163ce813aed60e01b8152306004808301919091526024820192909252610160988990829060449082905afa988915614576578899614557575b505060c08801519187838201938412911290801582169115161761454457509160a061451d6145269361452c95968a015189811360001461453d575b898112614535579061323f565b9701519061323f565b96612db7565b95939093614464565b89039061323f565b5088614510565b866011602492634e487b7160e01b835252fd5b61456e929950803d106109a45761099681836123e9565b9638806144d4565b8a513d8a823e3d90fd5b61458a92506135b2565b518938614497565b955095935050509350565b604051906145aa8261230d565b8160008082528060208301528060408301528060608301528060808301528060a08301528060c083015260e082015261010061282f612be4565b6040908151916145f38361239b565b8051836145ff826123b8565b6000809381845281602085015281818501528160608501528160808501528160a08501528160c08501528160e08501526101009082828601526101209483868201526101409084828201526101608581830152856101809181838501526101a0938285820152895281865195614674876122b7565b81875281602088015281888801528160608801528160808801528160a08801528160c08801528160e08801528189880152818c8801528601528401528351906146bc826122d4565b86825286602083015286858301528660608301528301528251906146df8261229b565b858252856020830152820152836101c0820152836101e0820152836102008201528361022082015283610240820152602085015261471b612c35565b9084015261472761459d565b606084015261473461459d565b608084015261474161459d565b60a08401528160c08401528160e08401528201520152565b93929193608060a05260a0515261476e612c35565b9060a05151519260009560009384975b84518910156147ba576142716147a66147b392602061479d8d8a6135b2565b5101519061323f565b9660e061479d8c8b6135b2565b979461477e565b96919395509196506147da60a083019460c0840197818952865284615b65565b15614a7357948451916147ec8361240b565b946040936147fc855197886123e9565b80875261480b601f199161240b565b0160005b818110614a4957505085986000936020968785019b60a0518601965b8b51811015614a3a576148738a6107c18e61119960e061484f8760a05151516135b2565b51015193614868876148628c518c615ad9565b946135b2565b5101518b5192615663565b87526101206148868260a05151516135b2565b5101518c828c88841015614a25576148a9611199926148626148b4965b8c615ad9565b510151895192615663565b87519062124f8091828102928184041490151715610b24578f91614934928f92620f4240809304808210600014614a1d5750905b5261492d8d8d61490f876101c0846149048360a05151516135b2565b5101510151966135b2565b51015190806149228860a05151516135b2565b510151015190615663565b0490615b05565b88528d6101a06149488360a05151516135b2565b5151015115801590614a09575b6149ff575b5061496587516159b4565b9089806149768360a05151516135b2565b51015101519160008382039312818412811691841390151617610b24576149f3918f6149d48f8f928e6149ae876111999351946135b2565b51015160c06149c18860a05151516135b2565b51015160008082126149f8575092615663565b8d6149ea856149e381866135b2565b51946135b2565b51015252612db7565b61482b565b0392615663565b600090528d61495a565b50614a1781518a5190615b65565b15614955565b9050906148e8565b6148b493506148a9611199926148628b6148a3565b509b5050505050505050505050565b602090869a959a51614a5a8161229b565b6000815282600081830152828b0101520198939861480f565b60046040517f9c8507ac000000000000000000000000000000000000000000000000000000008152fd5b9060608201916020808451015160a083019182519181830151614ad06060614ac860408701516159b4565b9501516159b4565b6000948181039186138015828413169183121617614b79578380614b4687958c83614b23612da09d9c9a9860e0986107c19d508b811215600014614b72575b8c5184015180821015614b63575090615ad9565b9151015180821015614b6b57505b6101008b015180821015614b63575090615ad9565b9a51015196015101519251015190508181101561095c5790615ad9565b905090615ad9565b9050614b31565b8b03614b0f565b602485634e487b7160e01b81526011600452fd5b949291908552614ba260608601918251615ad9565b91614bb260408701918251615ad9565b90525261353660a0614bc96080860194855161323f565b940191825161323f565b614bdb612c03565b5060c0604051614bea81612346565b8254600163ffffffff9467ffffffffffffffff19868416968786528460201c169384602087015216604085015201549167ffffffffffffffff9182841691826060820152838560401c16938460808301528560801c16948560a0830152861c958691015260405195614c5b87612362565b8652602086015260408501526060840152608083015260a082015290565b919063ffffffff9081815111614e9257602081019382855111614e9257604094858301916002614ca98451615b33565b14614e825760608401916002614cbf8451615b33565b14614e725760808501936002614cd58651615b33565b14614e625760a08601956002614ceb8851615b33565b14614e525792614dc194926000999a60c06001948b614e0a9b9a98511693519c8d9367ffffffffffffffff8080809551169a51169a51169b519d815195614d3187612346565b8787521660208601528401528660608401528760808401528960a08401528b1691015267ffffffff0000000082549a8263ffffffff198d1617845560201b16808267ffffffffffffffff19809d1617178355178155019687541617865585906fffffffffffffffff0000000000000000196fffffffffffffffff000000000000000083549260401b169116179055565b83547fffffffffffffffff0000000000000000ffffffffffffffffffffffffffffffff1660809190911b77ffffffffffffffff0000000000000000000000000000000016178355565b77ffffffffffffffffffffffffffffffffffffffffffffffff7fffffffffffffffff00000000000000000000000000000000000000000000000083549260c01b169116179055565b60048a5163b8a0949960e01b8152fd5b6004895163b8a0949960e01b8152fd5b6004885163b8a0949960e01b8152fd5b6004875163b8a0949960e01b8152fd5b600460405163b8a0949960e01b8152fd5b604081015115614eff57614eba6060820151615a0f565b8015908115614ef4575b5060009015614ed257505090565b5060a0810151612da092614eee918181101561095c5790615ad9565b90614fc9565b600191501438614ec4565b5090565b60a0612da092604083015115600014614f2857915b01518181101561095c5790615ad9565b614f329083614fff565b91614f18565b604081015115614eff57614f4f6060820151615a0f565b8015908115614f70575b5015614f63575090565b614eee612da0928261509f565b600191501438614f59565b604081015115614eff57614f926060820151615a0f565b8015908115614fbe575b5060009015614faa57505090565b612da092614eee91811561095c5790615ad9565b600191501438614f9c565b614ff9612da092611199614fed606085015160008082136000146136585750615a9d565b91604085015190615663565b9061502e565b614ff9612da092611199615023606085015160008082136000146136585750615a9d565b604085015192615663565b61506561504b606083015160008082136000146136585750615a9d565b6107c1835191611199602086015191604087015192615663565b90600090826150745750505090565b60800151612da0936111999250908381101561509557613647905b84615ad9565b506136478361508f565b60c081015190600090826150c457505050612da09060008181101561095c5790615ad9565b60a0015190620f424080840293840403612d0c5750612da092916150e791615ae6565b61122f565b6040810151151590816150fd575090565b61510b915060600151615a0f565b8015908115615118575090565b600191501490565b615128612c35565b5060408051615136816122f0565b82549267ffffffffffffffff90818516948584528281861c16948560208601526001848360801c1692838388015260c01d60070b938460608801520154958487169485608088015287831c16958660a082015260e07fffffffffffffffffffffffff000000000000000000000000000000000000000063ffffffff8a60801c16998a60c0850152169101528151976151cd89612346565b885260208801528601526060850152608084015260a083015260c082015290565b90600291826151fd8351615b33565b14615474576020820192806152128551615b33565b1461547457604091828401826152288251615b33565b1461546457606085018361523c8251615a2e565b146154545761524b8151615a50565b15615454576080860191846152608451615b33565b146154445760c087019563ffffffff97888851116154345760a08101966152878851615b33565b146154345767ffffffffffffffff808080809451169c51169451169451955116965116965197838251926152ba846122f0565b8b84528460208501528301528460070b60608301528660808301528760a0830152881660c082015260e0016000905267ffffffffffffffff1997888554161784556153329084906fffffffffffffffff0000000000000000196fffffffffffffffff000000000000000083549260401b169116179055565b82547fffffffffffffffff0000000000000000ffffffffffffffffffffffffffffffff1660809190911b77ffffffffffffffff000000000000000000000000000000001617825581549060c01b7fffffffffffffffff000000000000000000000000000000000000000000000000169077ffffffffffffffffffffffffffffffffffffffffffffffff16178155600101938454161783556154009083906fffffffffffffffff0000000000000000196fffffffffffffffff000000000000000083549260401b169116179055565b81549060801b73ffffffff0000000000000000000000000000000016906fffffffffffffffffffffffffffffffff16179055565b60048251635d4288b560e11b8152fd5b60048651635d4288b560e11b8152fd5b60048551635d4288b560e11b8152fd5b60048451635d4288b560e11b8152fd5b6004604051635d4288b560e11b8152fd5b9061548f8261240b565b61549c60405191826123e9565b82815280926154ad601f199161240b565b0190602036910137565b9060005b81515181101561552757600081845180518210615515575b505060009082845180518210615501575b5050116154f9576154f490612db7565b6154bb565b505050600090565b61550c9293506135b2565b519082386154e4565b61551f92506135b2565b5181386154d3565b505050600190565b60005b825180518210908115615595578290600092615583575b50506000908284518051821061556f575b5050116155275761556a90612db7565b615532565b61557a9293506135b2565b5190823861555a565b61558d92506135b2565b518138615549565b5050505050600090565b81156155a9570490565b634e487b7160e01b600052601260045260246000fd5b6040606081516155ce8161227f565b52600080805260209083825263ffffffff91828483205416916155f083615485565b95815b84811061561057505050505050519061560b8261227f565b815290565b600780820484528285528784208183069182101561564f57600382901c016001015461564a929160051b60e0161c8716613cc9828b6135b2565b6155f3565b602485634e487b7160e01b81526032600452fd5b81810292918115918404141715610b2457565b61567e612be4565b506040519061568c826122d4565b546001600160a01b0381169182815263ffffffff9060607fffffffff00000000000000000000000000000000000000000000000000000000838560a01c16938460208501528560c01c169485604085015216910152604051926156ee8461232a565b83526020830152604082015290565b90602081019063ffffffff91828151116157cc576040820160026157218251615b4e565b146157cc577fffffffff0000000000000000000000000000000000000000000000000000000093600060606001600160a01b037bffffffff000000000000000000000000000000000000000000000000965116945193519260405190615786826122d4565b868252808616602083015284166040820152015260c01b9290921677ffffffff000000000000000000000000000000000000000060a09390931b92909216171790915550565b60046040517f92f03c86000000000000000000000000000000000000000000000000000000008152fd5b60006040516158048161227f565b526040516158118161229b565b60025490602067ffffffffffffffff1967ffffffffffffffff841693848452169101526040519061560b8261227f565b90610100809101519082015191615856612be4565b918051845190818103906000809312818312811691831390151617612d20578452602082015191602086015192828482039412818512811691851390151617612d20576040809160208701948552015195015194818682039612818712811691871390151617612d0c576040840194855260208301936158d685516159b4565b905190828282019283129112908015821691151617612d20576158f890615a9d565b94604084019261590884516159b4565b90519083828201928312911290801582169115161761387a5761592c606091615a9d565b94019161593983516159b4565b915191818382019384129112908015821691151617612d0c575061595c90615a9d565b90525252565b9182156159ab5760206159969201516000808212156000146159a45750925b615990620f4240948592615663565b04615663565b0490808211156142f8575090565b0392615981565b50505050600090565b7f7fffffffffffffffffffffffffffffffffffffffffffffffffffffffffffffff81116159de5790565b602490604051907feecaa25d0000000000000000000000000000000000000000000000000000000082526004820152fd5b60008113615a2857600013615a2357600190565b600090565b50600290565b677fffffffffffffff90818113615a495712615a2357600190565b5050600290565b7fffffffffffffffffffffffffffffffffffffffffffffffff800000000000000090818113615a495712615a2357600190565b64e8d4a5100090818102918183041490151715610b245790565b60008112615aa85790565b602490604051907fb02ef0870000000000000000000000000000000000000000000000000000000082526004820152fd5b91908203918211610b2457565b90620f424091828102928184041490151715610b2457612da09161559f565b9080615b1d5750615b1757620f424090565b60001990565b612da091615ae6565b60001911615a2357600190565b67ffffffffffffffff90818111615a495710615a2357600190565b63ffffffff90818111615a495710615a2357600190565b818111615a495710615a2357600190565b60206001600160a01b03916024604051809481937f70a08231000000000000000000000000000000000000000000000000000000008352306004840152165afa9081156109ab57600091615bc8575090565b906020823d8211615bee575b81615be1602093836123e9565b8101031261304b57505190565b3d9150615bd4565b6001600160a01b031690604051615c0c8161229b565b6020928382527f5361666545524332303a206c6f772d6c6576656c2063616c6c206661696c6564848301526000808486829651910182855af13d15615d37573d9167ffffffffffffffff8311615d235790615c8793929160405192615c7a88601f19601f84011601856123e9565b83523d868885013e615d41565b90815180615c955750505050565b8284918101031261304b575081615cac9101612dc6565b15615cb95780808061434b565b6084906040519062461bcd60e51b82526004820152602a60248201527f5361666545524332303a204552433230206f7065726174696f6e20646964206e60448201527f6f742073756363656564000000000000000000000000000000000000000000006064820152fd5b602485634e487b7160e01b81526041600452fd5b90615c8792916060915b91929015615da25750815115615d55575090565b3b15615d5e5790565b606460405162461bcd60e51b815260206004820152601d60248201527f416464726573733a2063616c6c20746f206e6f6e2d636f6e74726163740000006044820152fd5b825190915015615db55750805190602001fd5b615dd19060405191829162461bcd60e51b83526004830161220c565b0390fdfea26469706673582212202d3928892155afb6b4117c802850a6112b34c7c5bdab918680fcef844cf0710864736f6c63430008130033"
}