{
  "address": "0x4A8282815C6f632458399186D10dd9cC959B7B16",
  "abi": [
    {
      "inputs": [],
      "name": "AccountStorageInvalidError",
      "type": "error"
    },
    {
      "inputs": [],
      "name": "AccountStorageInvalidError",
      "type": "error"
    },
    {
      "inputs": [],
      "name": "CheckpointStorageInvalidError",
      "type": "error"
    },
    {
      "inputs": [],
      "name": "CheckpointStorageInvalidError",
      "type": "error"
    },
    {
      "inputs": [],
      "name": "DivisionByZero",
      "type": "error"
    },
    {
      "inputs": [
        {
          "internalType": "uint256",
          "name": "value",
          "type": "uint256"
        }
      ],
      "name": "Fixed6OverflowError",
      "type": "error"
    },
    {
      "inputs": [
        {
          "internalType": "uint256",
          "name": "version",
          "type": "uint256"
        }
      ],
      "name": "InitializableAlreadyInitializedError",
      "type": "error"
    },
    {
      "inputs": [],
      "name": "InitializableNotInitializingError",
      "type": "error"
    },
    {
      "inputs": [],
      "name": "InitializableZeroVersionError",
      "type": "error"
    },
    {
      "inputs": [
        {
          "internalType": "address",
          "name": "sender",
          "type": "address"
        }
      ],
      "name": "InstanceNotFactoryError",
      "type": "error"
    },
    {
      "inputs": [
        {
          "internalType": "address",
          "name": "sender",
          "type": "address"
        }
      ],
      "name": "InstanceNotOwnerError",
      "type": "error"
    },
    {
      "inputs": [],
      "name": "InstancePausedError",
      "type": "error"
    },
    {
      "inputs": [],
      "name": "MappingStorageInvalidError",
      "type": "error"
    },
    {
      "inputs": [],
      "name": "RegistrationStorageInvalidError",
      "type": "error"
    },
    {
      "inputs": [],
      "name": "RegistrationStorageInvalidError",
      "type": "error"
    },
    {
      "inputs": [],
      "name": "StrategyLibInsufficientAssetsError",
      "type": "error"
    },
    {
      "inputs": [],
      "name": "StrategyLibInsufficientAssetsError",
      "type": "error"
    },
    {
      "inputs": [],
      "name": "StrategyLibInsufficientCollateralError",
      "type": "error"
    },
    {
      "inputs": [],
      "name": "StrategyLibInsufficientCollateralError",
      "type": "error"
    },
    {
      "inputs": [
        {
          "internalType": "int256",
          "name": "value",
          "type": "int256"
        }
      ],
      "name": "UFixed6UnderflowError",
      "type": "error"
    },
    {
      "inputs": [],
      "name": "VaultAggregateWeightError",
      "type": "error"
    },
    {
      "inputs": [],
      "name": "VaultCurrentOutOfSyncError",
      "type": "error"
    },
    {
      "inputs": [],
      "name": "VaultDepositLimitExceededError",
      "type": "error"
    },
    {
      "inputs": [],
      "name": "VaultExistingOrderError",
      "type": "error"
    },
    {
      "inputs": [],
      "name": "VaultIncorrectAssetError",
      "type": "error"
    },
    {
      "inputs": [],
      "name": "VaultInsufficientMinimumError",
      "type": "error"
    },
    {
      "inputs": [],
      "name": "VaultMarketDoesNotExistError",
      "type": "error"
    },
    {
      "inputs": [],
      "name": "VaultMarketExistsError",
      "type": "error"
    },
    {
      "inputs": [],
      "name": "VaultNotMarketError",
      "type": "error"
    },
    {
      "inputs": [],
      "name": "VaultNotOperatorError",
      "type": "error"
    },
    {
      "inputs": [],
      "name": "VaultNotSingleSidedError",
      "type": "error"
    },
    {
      "inputs": [],
      "name": "VaultParameterStorageInvalidError",
      "type": "error"
    },
    {
      "inputs": [],
      "name": "VaultParameterStorageInvalidError",
      "type": "error"
    },
    {
      "inputs": [],
      "name": "VaultRedemptionLimitExceededError",
      "type": "error"
    },
    {
      "anonymous": false,
      "inputs": [
        {
          "indexed": false,
          "internalType": "uint256",
          "name": "version",
          "type": "uint256"
        }
      ],
      "name": "Initialized",
      "type": "event"
    },
    {
      "anonymous": false,
      "inputs": [
        {
          "indexed": true,
          "internalType": "uint256",
          "name": "marketId",
          "type": "uint256"
        },
        {
          "indexed": false,
          "internalType": "contract IMarket",
          "name": "market",
          "type": "address"
        }
      ],
      "name": "MarketRegistered",
      "type": "event"
    },
    {
      "anonymous": false,
      "inputs": [
        {
          "indexed": true,
          "internalType": "uint256",
          "name": "marketId",
          "type": "uint256"
        },
        {
          "indexed": false,
          "internalType": "UFixed6",
          "name": "newWeight",
          "type": "uint256"
        },
        {
          "indexed": false,
          "internalType": "UFixed6",
          "name": "newLeverage",
          "type": "uint256"
        }
      ],
      "name": "MarketUpdated",
      "type": "event"
    },
    {
      "anonymous": false,
      "inputs": [
        {
          "components": [
            {
              "internalType": "UFixed6",
              "name": "cap",
              "type": "uint256"
            }
          ],
          "indexed": false,
          "internalType": "struct VaultParameter",
          "name": "newParameter",
          "type": "tuple"
        }
      ],
      "name": "ParameterUpdated",
      "type": "event"
    },
    {
      "anonymous": false,
      "inputs": [
        {
          "indexed": true,
          "internalType": "address",
          "name": "sender",
          "type": "address"
        },
        {
          "indexed": true,
          "internalType": "address",
          "name": "account",
          "type": "address"
        },
        {
          "indexed": false,
          "internalType": "uint256",
          "name": "version",
          "type": "uint256"
        },
        {
          "indexed": false,
          "internalType": "UFixed6",
          "name": "depositAssets",
          "type": "uint256"
        },
        {
          "indexed": false,
          "internalType": "UFixed6",
          "name": "redeemShares",
          "type": "uint256"
        },
        {
          "indexed": false,
          "internalType": "UFixed6",
          "name": "claimAssets",
          "type": "uint256"
        }
      ],
      "name": "Updated",
      "type": "event"
    },
    {
      "inputs": [
        {
          "components": [
            {
              "internalType": "UFixed6",
              "name": "settlementFee",
              "type": "uint256"
            },
            {
              "internalType": "uint256",
              "name": "currentId",
              "type": "uint256"
            },
            {
              "internalType": "uint256",
              "name": "currentTimestamp",
              "type": "uint256"
            },
            {
              "internalType": "uint256",
              "name": "latestTimestamp",
              "type": "uint256"
            },
            {
              "components": [
                {
                  "internalType": "contract IMarket",
                  "name": "market",
                  "type": "address"
                },
                {
                  "internalType": "UFixed6",
                  "name": "weight",
                  "type": "uint256"
                },
                {
                  "internalType": "UFixed6",
                  "name": "leverage",
                  "type": "uint256"
                }
              ],
              "internalType": "struct Registration[]",
              "name": "registrations",
              "type": "tuple[]"
            },
            {
              "internalType": "Fixed6[]",
              "name": "collaterals",
              "type": "int256[]"
            },
            {
              "internalType": "Fixed6",
              "name": "totalCollateral",
              "type": "int256"
            },
            {
              "components": [
                {
                  "internalType": "UFixed6",
                  "name": "cap",
                  "type": "uint256"
                }
              ],
              "internalType": "struct VaultParameter",
              "name": "parameter",
              "type": "tuple"
            },
            {
              "components": [
                {
                  "internalType": "UFixed6",
                  "name": "deposit",
                  "type": "uint256"
                },
                {
                  "internalType": "UFixed6",
                  "name": "redemption",
                  "type": "uint256"
                },
                {
                  "internalType": "UFixed6",
                  "name": "shares",
                  "type": "uint256"
                },
                {
                  "internalType": "Fixed6",
                  "name": "assets",
                  "type": "int256"
                },
                {
                  "internalType": "Fixed6",
                  "name": "tradeFee",
                  "type": "int256"
                },
                {
                  "internalType": "UFixed6",
                  "name": "settlementFee",
                  "type": "uint256"
                },
                {
                  "internalType": "uint256",
                  "name": "deposits",
                  "type": "uint256"
                },
                {
                  "internalType": "uint256",
                  "name": "redemptions",
                  "type": "uint256"
                },
                {
                  "internalType": "uint256",
                  "name": "timestamp",
                  "type": "uint256"
                }
              ],
              "internalType": "struct Checkpoint",
              "name": "currentCheckpoint",
              "type": "tuple"
            },
            {
              "components": [
                {
                  "internalType": "UFixed6",
                  "name": "deposit",
                  "type": "uint256"
                },
                {
                  "internalType": "UFixed6",
                  "name": "redemption",
                  "type": "uint256"
                },
                {
                  "internalType": "UFixed6",
                  "name": "shares",
                  "type": "uint256"
                },
                {
                  "internalType": "Fixed6",
                  "name": "assets",
                  "type": "int256"
                },
                {
                  "internalType": "Fixed6",
                  "name": "tradeFee",
                  "type": "int256"
                },
                {
                  "internalType": "UFixed6",
                  "name": "settlementFee",
                  "type": "uint256"
                },
                {
                  "internalType": "uint256",
                  "name": "deposits",
                  "type": "uint256"
                },
                {
                  "internalType": "uint256",
                  "name": "redemptions",
                  "type": "uint256"
                },
                {
                  "internalType": "uint256",
                  "name": "timestamp",
                  "type": "uint256"
                }
              ],
              "internalType": "struct Checkpoint",
              "name": "latestCheckpoint",
              "type": "tuple"
            },
            {
              "components": [
                {
                  "internalType": "uint256",
                  "name": "current",
                  "type": "uint256"
                },
                {
                  "internalType": "uint256",
                  "name": "latest",
                  "type": "uint256"
                },
                {
                  "internalType": "UFixed6",
                  "name": "shares",
                  "type": "uint256"
                },
                {
                  "internalType": "UFixed6",
                  "name": "assets",
                  "type": "uint256"
                },
                {
                  "internalType": "UFixed6",
                  "name": "deposit",
                  "type": "uint256"
                },
                {
                  "internalType": "UFixed6",
                  "name": "redemption",
                  "type": "uint256"
                }
              ],
              "internalType": "struct Account",
              "name": "global",
              "type": "tuple"
            },
            {
              "components": [
                {
                  "internalType": "uint256",
                  "name": "current",
                  "type": "uint256"
                },
                {
                  "internalType": "uint256",
                  "name": "latest",
                  "type": "uint256"
                },
                {
                  "internalType": "UFixed6",
                  "name": "shares",
                  "type": "uint256"
                },
                {
                  "internalType": "UFixed6",
                  "name": "assets",
                  "type": "uint256"
                },
                {
                  "internalType": "UFixed6",
                  "name": "deposit",
                  "type": "uint256"
                },
                {
                  "internalType": "UFixed6",
                  "name": "redemption",
                  "type": "uint256"
                }
              ],
              "internalType": "struct Account",
              "name": "local",
              "type": "tuple"
            }
          ],
          "internalType": "struct IVault.Context",
          "name": "context",
          "type": "tuple"
        },
        {
          "internalType": "uint256",
          "name": "timestamp",
          "type": "uint256"
        }
      ],
      "name": "_checkpointAtId",
      "outputs": [
        {
          "components": [
            {
              "internalType": "Fixed6",
              "name": "tradeFee",
              "type": "int256"
            },
            {
              "internalType": "UFixed6",
              "name": "settlementFee",
              "type": "uint256"
            },
            {
              "internalType": "Fixed6",
              "name": "transfer",
              "type": "int256"
            },
            {
              "internalType": "Fixed6",
              "name": "collateral",
              "type": "int256"
            }
          ],
          "internalType": "struct Checkpoint",
          "name": "checkpoint",
          "type": "tuple"
        }
      ],
      "stateMutability": "view",
      "type": "function"
    },
    {
      "inputs": [
        {
          "internalType": "address",
          "name": "account",
          "type": "address"
        }
      ],
      "name": "accounts",
      "outputs": [
        {
          "components": [
            {
              "internalType": "uint256",
              "name": "current",
              "type": "uint256"
            },
            {
              "internalType": "uint256",
              "name": "latest",
              "type": "uint256"
            },
            {
              "internalType": "UFixed6",
              "name": "shares",
              "type": "uint256"
            },
            {
              "internalType": "UFixed6",
              "name": "assets",
              "type": "uint256"
            },
            {
              "internalType": "UFixed6",
              "name": "deposit",
              "type": "uint256"
            },
            {
              "internalType": "UFixed6",
              "name": "redemption",
              "type": "uint256"
            }
          ],
          "internalType": "struct Account",
          "name": "",
          "type": "tuple"
        }
      ],
      "stateMutability": "view",
      "type": "function"
    },
    {
      "inputs": [],
      "name": "asset",
      "outputs": [
        {
          "internalType": "Token18",
          "name": "",
          "type": "address"
        }
      ],
      "stateMutability": "view",
      "type": "function"
    },
    {
      "inputs": [
        {
          "internalType": "uint256",
          "name": "id",
          "type": "uint256"
        }
      ],
      "name": "checkpoints",
      "outputs": [
        {
          "components": [
            {
              "internalType": "UFixed6",
              "name": "deposit",
              "type": "uint256"
            },
            {
              "internalType": "UFixed6",
              "name": "redemption",
              "type": "uint256"
            },
            {
              "internalType": "UFixed6",
              "name": "shares",
              "type": "uint256"
            },
            {
              "internalType": "Fixed6",
              "name": "assets",
              "type": "int256"
            },
            {
              "internalType": "Fixed6",
              "name": "tradeFee",
              "type": "int256"
            },
            {
              "internalType": "UFixed6",
              "name": "settlementFee",
              "type": "uint256"
            },
            {
              "internalType": "uint256",
              "name": "deposits",
              "type": "uint256"
            },
            {
              "internalType": "uint256",
              "name": "redemptions",
              "type": "uint256"
            },
            {
              "internalType": "uint256",
              "name": "timestamp",
              "type": "uint256"
            }
          ],
          "internalType": "struct Checkpoint",
          "name": "",
          "type": "tuple"
        }
      ],
      "stateMutability": "view",
      "type": "function"
    },
    {
      "inputs": [
        {
          "internalType": "UFixed6",
          "name": "shares",
          "type": "uint256"
        }
      ],
      "name": "convertToAssets",
      "outputs": [
        {
          "internalType": "UFixed6",
          "name": "",
          "type": "uint256"
        }
      ],
      "stateMutability": "view",
      "type": "function"
    },
    {
      "inputs": [
        {
          "internalType": "UFixed6",
          "name": "assets",
          "type": "uint256"
        }
      ],
      "name": "convertToShares",
      "outputs": [
        {
          "internalType": "UFixed6",
          "name": "",
          "type": "uint256"
        }
      ],
      "stateMutability": "view",
      "type": "function"
    },
    {
      "inputs": [],
      "name": "factory",
      "outputs": [
        {
          "internalType": "contract IFactory",
          "name": "",
          "type": "address"
        }
      ],
      "stateMutability": "view",
      "type": "function"
    },
    {
      "inputs": [
        {
          "internalType": "Token18",
          "name": "asset_",
          "type": "address"
        },
        {
          "internalType": "contract IMarket",
          "name": "initialMarket",
          "type": "address"
        },
        {
          "internalType": "UFixed6",
          "name": "cap",
          "type": "uint256"
        },
        {
          "internalType": "string",
          "name": "name_",
          "type": "string"
        }
      ],
      "name": "initialize",
      "outputs": [],
      "stateMutability": "nonpayable",
      "type": "function"
    },
    {
      "inputs": [],
      "name": "name",
      "outputs": [
        {
          "internalType": "string",
          "name": "",
          "type": "string"
        }
      ],
      "stateMutability": "view",
      "type": "function"
    },
    {
      "inputs": [],
      "name": "parameter",
      "outputs": [
        {
          "components": [
            {
              "internalType": "UFixed6",
              "name": "cap",
              "type": "uint256"
            }
          ],
          "internalType": "struct VaultParameter",
          "name": "",
          "type": "tuple"
        }
      ],
      "stateMutability": "view",
      "type": "function"
    },
    {
      "inputs": [
        {
          "internalType": "address",
          "name": "account",
          "type": "address"
        }
      ],
      "name": "rebalance",
      "outputs": [],
      "stateMutability": "nonpayable",
      "type": "function"
    },
    {
      "inputs": [
        {
          "internalType": "contract IMarket",
          "name": "market",
          "type": "address"
        }
      ],
      "name": "register",
      "outputs": [],
      "stateMutability": "nonpayable",
      "type": "function"
    },
    {
      "inputs": [
        {
          "internalType": "uint256",
          "name": "marketId",
          "type": "uint256"
        }
      ],
      "name": "registrations",
      "outputs": [
        {
          "components": [
            {
              "internalType": "contract IMarket",
              "name": "market",
              "type": "address"
            },
            {
              "internalType": "UFixed6",
              "name": "weight",
              "type": "uint256"
            },
            {
              "internalType": "UFixed6",
              "name": "leverage",
              "type": "uint256"
            }
          ],
          "internalType": "struct Registration",
          "name": "",
          "type": "tuple"
        }
      ],
      "stateMutability": "view",
      "type": "function"
    },
    {
      "inputs": [
        {
          "internalType": "address",
          "name": "account",
          "type": "address"
        }
      ],
      "name": "settle",
      "outputs": [],
      "stateMutability": "nonpayable",
      "type": "function"
    },
    {
      "inputs": [],
      "name": "totalAssets",
      "outputs": [
        {
          "internalType": "Fixed6",
          "name": "",
          "type": "int256"
        }
      ],
      "stateMutability": "view",
      "type": "function"
    },
    {
      "inputs": [],
      "name": "totalMarkets",
      "outputs": [
        {
          "internalType": "uint256",
          "name": "",
          "type": "uint256"
        }
      ],
      "stateMutability": "view",
      "type": "function"
    },
    {
      "inputs": [],
      "name": "totalShares",
      "outputs": [
        {
          "internalType": "UFixed6",
          "name": "",
          "type": "uint256"
        }
      ],
      "stateMutability": "view",
      "type": "function"
    },
    {
      "inputs": [
        {
          "internalType": "address",
          "name": "account",
          "type": "address"
        },
        {
          "internalType": "UFixed6",
          "name": "depositAssets",
          "type": "uint256"
        },
        {
          "internalType": "UFixed6",
          "name": "redeemShares",
          "type": "uint256"
        },
        {
          "internalType": "UFixed6",
          "name": "claimAssets",
          "type": "uint256"
        }
      ],
      "name": "update",
      "outputs": [],
      "stateMutability": "nonpayable",
      "type": "function"
    },
    {
      "inputs": [
        {
          "internalType": "uint256",
          "name": "marketId",
          "type": "uint256"
        },
        {
          "internalType": "UFixed6",
          "name": "newLeverage",
          "type": "uint256"
        }
      ],
      "name": "updateLeverage",
      "outputs": [],
      "stateMutability": "nonpayable",
      "type": "function"
    },
    {
      "inputs": [
        {
          "components": [
            {
              "internalType": "UFixed6",
              "name": "cap",
              "type": "uint256"
            }
          ],
          "internalType": "struct VaultParameter",
          "name": "newParameter",
          "type": "tuple"
        }
      ],
      "name": "updateParameter",
      "outputs": [],
      "stateMutability": "nonpayable",
      "type": "function"
    },
    {
      "inputs": [
        {
          "internalType": "UFixed6[]",
          "name": "newWeights",
          "type": "uint256[]"
        }
      ],
      "name": "updateWeights",
      "outputs": [],
      "stateMutability": "nonpayable",
      "type": "function"
    }
  ],
  "transactionHash": "0x0a8207bef9843ec53142cd0c832d12078a216fac0337382f59337abca0bef32f",
  "args": [],
  "numDeployments": 6,
  "solcInputHash": "900b7a067516c2725a6834cfba1478e0",
  "bytecode": "0x6080806040523461001757615f0590816200001c8239f35b5f80fdfe60806040526004361015610011575f80fd5b5f3560e01c806301e1d1141461178457806306fdde031461169757806307a2d13a1461165e57806321c281911461159e57806330f916191461138d57806338d52e0f146113655780633a98ef391461134b5780634420e486146111db5780635e5c06e2146111615780636a256b29146110a55780637b42529114610e6e5780638162486b14610e515780639fec600b14610bc9578063a145198c14610aac578063a24159d3146108f1578063ad4d4e29146108c0578063b8a2425214610832578063c45a0155146107fe578063c6e6f592146107b3578063d2c3aaf21461015b5763f4ddb5be14610100575f80fd5b3461015757602036600319011261015757610119611dd0565b506004355f526004602052606061013260405f20614bc6565b6040805182516001600160a01b03168152602080840151908201529181015190820152f35b5f80fd5b34610157576080366003190112610157576101746117e5565b5f80516020615e308339815191528054604051635c975abb60e01b8152919291604435916064359190602090829060049082906001600160a01b03165afa9081156106c4575f91610779575b50610767576101cd612029565b6101d6836125d1565b916101e18484612ae5565b610140830151518060208501525f52600660205261020160405f20611e8f565b946101009580878601526040850190878251910151106106f1575b508291600161022b829561581b565b146106e0575b61023c60019161581b565b146106cf575b336001600160a01b03861614159081610640575b5061062e576001610292610275836102708660243561299c565b61299c565b84602435115f14610628576024355b848111156106205790615861565b0361060e576101208301516040810151151590816105e4575b50156105a85760026102c05f5b602435615861565b146105965760243515158080610582575b61053157821515958680610543575b61053157610160850151602081519101510361051f57610140850151606001516104dc575f905b6103228561014088015181876024359260208c015190615892565b61033d8561016088015181876024359260208c015190615892565b850151878361034f602435845161299c565b6020840161035e89825161299c565b905283526104c7575b6104b2575b506001546001600160a01b0316906103856024356158d8565b6040516323b872dd60e01b60208201523360248201523060448201526064808201929092529081526001600160401b0360a082019081119082111761049e5761049498610442946103e38361042f9660a06103f89601604052615c36565b9060243515610496575b508260243589614143565b6001546001600160a01b03169061043d90610412906158d8565b60405163a9059cbb60e01b60208201529384913360248401611c08565b03601f198101845283611920565b615c36565b60208301519160405192835260243560208401526040830152606082015260018060a01b038316907ecdda35b21914cc89ca2689f6ada564ebad3ad81f233699e25e44e13ab73f4960803392a3614af0565b005b90508a6103ed565b634e487b7160e01b5f52604160045260245ffd5b60e0016104bf8151614fc9565b90528761036c565b60c082016104d58151614fc9565b9052610367565b61050f6104ec60c0870151611fc5565b6101408701516060015190818110156105155761050a905b86611ff8565b61200b565b90610307565b5061050a81610504565b60405163392ca54960e21b8152600490fd5b604051633cbefbb160e21b8152600490fd5b506105636101208601518651906040810151155f146105695750856150c1565b156102e0565b806105778861057d936158f2565b90615912565b6150c1565b506105908451602435615861565b156102d1565b60405163a9785d3d60e01b8152600490fd5b60026102c06105df60e0860151516105d96105c96105c4611a1b565b611fc5565b60806101408a015101519061299c565b906150c1565b6102b8565b6105f291506060015161596b565b8015908115610603575b50866102ab565b6001915014866105fc565b60405163a65ac9fb60e01b8152600490fd5b508390615861565b84610284565b604051637eb267c760e01b8152600490fd5b5460405163131bac4760e11b81526001600160a01b03878116600483015233602483015290925060209183916044918391165afa9081156106c4575f9161068a575b501586610256565b90506020813d6020116106bc575b816106a560209383611920565b81010312610157576106b690611aef565b86610682565b3d9150610698565b6040513d5f823e3d90fd5b610160840151604001519250610242565b610160850151606001519250610231565b5f906107006020870151614fc9565b602087015287860151905161014087015161073261072d604083015192606060808201519101519061299c565b611f6a565b840360608401526040830152888201528160e08201528160c08201528160a0820152816080820152816020820152528661021c565b604051634b94d2bb60e01b8152600490fd5b90506020813d6020116107ab575b8161079460209383611920565b81010312610157576107a590611aef565b856101c0565b3d9150610787565b346101575760203660031901126101575760206004356107d46105c4611a1b565b6107dc611b34565b806107ec5750505b604051908152f35b61050a906107f993611ff8565b6107e4565b34610157575f366003190112610157575f80516020615e30833981519152546040516001600160a01b039091168152602090f35b346101575760203660031901126101575761084b611d8d565b506004355f52600660205261012061086560405f20611e8f565b60405190805182526020810151602083015260408101516040830152606081015160608301526080810151608083015260a081015160a083015260c081015160c083015260e081015160e08301526101008091015190820152f35b34610157575f366003190112610157575f6040516108dd81611832565b5260206108e8614f78565b60405190518152f35b346101575760403660031901126101575760043560243560018060a01b03805f80516020615e30833981519152541660405191638da5cb5b60e01b83526020928381600481865afa9081156106c4575f91610a77575b50163303610a5f578160049160405192838092635c975abb60e01b82525afa9081156106c4575f91610a2a575b5061076757610981612029565b6109a361098c6121f4565b610995816129a9565b61099e816138a7565b614aa8565b600354831015610a19575f80516020615e9083398151915291604091845f5260048152806109d2845f20614bc6565b9260016109de8261581b565b03610a13575083830151925b848101938452865f5260048252610a0381865f2061575f565b01519151908351928352820152a2005b926109ea565b6040516288cffd60e31b8152600490fd5b90508181813d8311610a58575b610a418183611920565b8101031261015757610a5290611aef565b84610974565b503d610a37565b604051634d193d1f60e01b8152336004820152602490fd5b90508381813d8311610aa5575b610a8e8183611920565b8101031261015757610a9f90611afc565b86610947565b503d610a84565b34610157576020806003193601126101575760405190610acb82611832565b6004803583525f80516020615e3083398151915254604051638da5cb5b60e01b81526001600160a01b03918216928490829081865afa9081156106c4575f91610b94575b50163303610a5f578160049160405192838092635c975abb60e01b82525afa9182156106c4575f92610b5e575b50506107675761049490610b4e612029565b610b5961098c6121f4565b614f07565b90809250813d8311610b8d575b610b758183611920565b8101031261015757610b8690611aef565b8280610b3c565b503d610b6b565b90508381813d8311610bc2575b610bab8183611920565b8101031261015757610bbc90611afc565b85610b0f565b503d610ba1565b3461015757608036600319011261015757610be26117e5565b6001600160a01b039060248035908382168203610157576001600160401b039060643582811161015757366023820112156101575780600401359283116101575736828483010111610157576001957f6fee9688c285c5c5c97d6a1a29adced674e6b2ad0888b8ad2116b58a8b3ea2488781541015610e39578790557f2801b00eb06461cf9fcb9758b5fafd884ff06a86177386f73b6c49f0bf5a5af095878755303b151580610e32575b610e2057335f80516020615e308339815191525587546001600160a01b03191691161786555f54610cbd90611ab7565b601f8111610dce575b505f90601f8411600114610d3f5793835f9460209794610d0f945f80516020615e708339815191529a988893610d32575b50505081871b9186199060031b1c1916178455614c33565b610d28604051610d1e81611832565b6044358152614f07565b55604051908152a1005b0101359050898080610cf7565b5f8080525f80516020615e5083398151915293919290601f1986169060205b828210610db55750509460209794610d0f948a98945f80516020615e708339815191529b94845f9a10610d9a575b50505050811b018455614c33565b891960f88660031b161c199201013516905589808080610d8c565b808b8598878395978a0101358155019701930190610d5e565b5f80525f80516020615e50833981519152601f850160051c81019160208610610e16575b601f0160051c019087905b828110610e0b575050610cc6565b5f8155018790610dfd565b9091508190610df2565b60405163b9a621e160e01b8152600490fd5b505f610c8d565b604051631edb9c6d60e11b8152600481018990528490fd5b34610157575f366003190112610157576020600354604051908152f35b346101575760031960403682011261015757600435906001600160401b03808311610157576104c0833603928301126101575760405192610eae846117fb565b8060040135845260249060209382820135858701526044820135604087015260609360648301358588015260848301358181116101575783013660238201121561015757600481013590610f0182611943565b91610f0f6040519384611920565b80835286888a8501920283010191368311610157578701905b82821061105957505050608088015260a48301359081116101575782013660238201121561015757600481013590610f5f82611943565b91610f6d6040519384611920565b808352858884019160051b83010191368311610157579086899594939201905b8282106110495750505060a088015260c483013560c088015260e319011261015757608094839261101a61102793604051610fc781611832565b60e4820135815260e0850152610fe136610104830161195a565b610100850152610ff536610224830161195a565b6101208501526110093661034483016119cb565b6101408501526104043691016119cb565b6101608301523590611c23565b6040519381518552808201519085015260408101516040850152015190820152f35b8135815289959182019101610f8d565b8882360312610157576040519061106f82611817565b8235906001600160a01b038216820361015757828c928c9452828501358382015260408501356040820152815201910190610f28565b34610157576020366003190112610157576110be6117e5565b5f80516020615e3083398151915254604051635c975abb60e01b815290602090829060049082906001600160a01b03165afa9081156106c4575f91611127575b50610767576104949061110f612029565b611118816125d1565b6111228282612ae5565b614af0565b90506020813d602011611159575b8161114260209383611920565b810103126101575761115390611aef565b826110fe565b3d9150611135565b346101575760203660031901126101575761117a6117e5565b611182611b93565b5060018060a01b03165f52600560205260c06111a060405f20611dee565b60a0604051918051835260208101516020840152604081015160408401526060810151606084015260808101516080840152015160a0820152f35b3461015757602080600319360112610157576111f56117e5565b5f80516020615e3083398151915254604051638da5cb5b60e01b81526001600160a01b0393918416908281600481855afa80156106c45785915f91611313575b50163303610a5f578160049160405192838092635c975abb60e01b82525afa9081156106c4575f916112de575b506107675791611270612029565b61128d61127b6121f4565b611284816129a9565b61099e81612cca565b5f9060035493818416925b8581106112a85761049485614c33565b805f526004825283836112bd60405f20614bc6565b5116146112cc57600101611298565b60405163499943cd60e01b8152600490fd5b90508181813d831161130c575b6112f58183611920565b810103126101575761130690611aef565b84611262565b503d6112eb565b809250848092503d8311611344575b61132c8183611920565b810103126101575761133e8591611afc565b86611235565b503d611322565b34610157575f3660031901126101575760206107e4611b34565b34610157575f366003190112610157576001546040516001600160a01b039091168152602090f35b346101575760208060031936011261015757600435906001600160401b03908183116101575736602384011215610157578260040135918211610157576024830192602436918460051b010111610157575f80516020615e3083398151915254604051638da5cb5b60e01b81526001600160a01b0391821691908381600481865afa9081156106c4575f91611569575b50163303610a5f578160049160405192838092635c975abb60e01b82525afa9081156106c4575f91611534575b5061076757611457612029565b61146261127b6121f4565b6003916003548103610a19576001935f92835b8554851015611511576115028791865f80516020615e90833981519152604061149f838a8a611b10565b35835f52600488526114b2825f20614bc6565b90876114bd8261581b565b0361150a575081888201515b898301908152855f5260048a526114e283835f2061575f565b51910151825191825288820152a26114fb878787611b10565b359061299c565b940193611475565b82906114c9565b61151b87916157fa565b0361152257005b6040516306dedbb160e51b8152600490fd5b90508181813d8311611562575b61154b8183611920565b810103126101575761155c90611aef565b8461144a565b503d611541565b90508381813d8311611597575b6115808183611920565b810103126101575761159190611afc565b8661141d565b503d611576565b34610157576020366003190112610157576115b76117e5565b5f80516020615e3083398151915254604051635c975abb60e01b815290602090829060049082906001600160a01b03165afa9081156106c4575f91611624575b506107675761049490611608612029565b611611816125d1565b61161b8282612ae5565b61112281612cca565b90506020813d602011611656575b8161163f60209383611920565b810103126101575761165090611aef565b826115f7565b3d9150611632565b3461015757602036600319011261015757602060043561167f6105c4611a1b565b611687611b34565b90816107ec575050604051908152f35b34610157575f366003190112610157576040516020907302832b932b73734b0b6102b19102b30bab63a1d160651b602082015260345f925f54916116da83611ab7565b9260019081811690811561175a5750600114611718575b61171485611708818903601f198101835282611920565b6040519182918261179e565b0390f35b90919294505f805260205f205f905b8682106117475750505050506117088160346117149482010193856116f1565b8054868301850152908401908201611727565b905061171496508593506034925061170894915060ff1916828401528015150282010193856116f1565b34610157575f3660031901126101575760206107e4611a1b565b602080825282518183018190529093925f5b8281106117d157505060409293505f838284010152601f8019910116010190565b8181018601518482016040015285016117b0565b600435906001600160a01b038216820361015757565b61018081019081106001600160401b0382111761049e57604052565b606081019081106001600160401b0382111761049e57604052565b602081019081106001600160401b0382111761049e57604052565b61012081019081106001600160401b0382111761049e57604052565b60c081019081106001600160401b0382111761049e57604052565b608081019081106001600160401b0382111761049e57604052565b60e081019081106001600160401b0382111761049e57604052565b61014081019081106001600160401b0382111761049e57604052565b6001600160401b03811161049e57604052565b6101a081019081106001600160401b0382111761049e57604052565b604081019081106001600160401b0382111761049e57604052565b601f909101601f19168101906001600160401b0382119082101761049e57604052565b6001600160401b03811161049e5760051b60200190565b919082610120910312610157576040516119738161184d565b8092803582526020810135602083015260408101356040830152606081013560608301526080810135608083015260a081013560a083015260c081013560c083015260e081013560e083015261010080910135910152565b91908260c0910312610157576040516119e381611869565b60a080829480358452602081013560208501526040810135604085015260608101356060850152608081013560808501520135910152565b5f805260056020908152611a3b5f80516020615eb0833981519152611dee565b01515f526006602052611a5060405f20611e8f565b606081015190611a608151611f6a565b915f8382019384129112908015821691151617611aa35761072d816020611a8993015190611f93565b905f8282039212818312811691831390151617611aa35790565b634e487b7160e01b5f52601160045260245ffd5b90600182811c92168015611ae5575b6020831014611ad157565b634e487b7160e01b5f52602260045260245ffd5b91607f1691611ac6565b5190811515820361015757565b51906001600160a01b038216820361015757565b9190811015611b205760051b0190565b634e487b7160e01b5f52603260045260245ffd5b5f805260056020908152611b545f80516020615eb0833981519152611dee565b01515f526006602052611b90611b6c60405f20611e8f565b6020611b876040830151611b81845185614b49565b9061299c565b91015190614bb9565b90565b60405190611ba082611869565b5f60a0838281528260208201528260408201528260608201528260808201520152565b60405190611bd082611884565b5f6060838281528260208201528260408201520152565b805115611b205760200190565b8051821015611b205760209160051b010190565b6001600160a01b039091168152602081019190915260400190565b9190611c2d611bc3565b606091828201916020808201905f5b6080808a01518051831015611d815786906001600160a01b0390611c61908590611bf4565b515116604090838251809263066ff5fd60e11b82528180611c87600498308a8401611c08565b03915afa938415611d77575f94611d1e575b50505087519189810151925f8482019485129112908015821691151617611d0b578651918151925f8482019485129112908015821691151617611cf8575090611cec60019493928688519101519061299c565b86528652875201611c3c565b601190634e487b7160e01b5f525260245ffd5b601182634e487b7160e01b5f525260245ffd5b908092939450813d8311611d70575b611d378183611920565b81010312610157578990825192611d4d84611884565b8151845286820151878501528082015190840152015189820152905f8080611c99565b503d611d2d565b82513d5f823e3d90fd5b50505050509450505050565b60405190611d9a8261184d565b5f610100838281528260208201528260408201528260608201528260808201528260a08201528260c08201528260e08201520152565b60405190611ddd82611817565b5f6040838281528260208201520152565b611df6611b93565b5060c0604051611e058161189f565b8254600163ffffffff94858316958685528360201c1692836020860152828060401b031916604085015201549160018060401b039182841691826060820152838560401c16938460808301528560801c16948560a0830152861c958691015260405195611e7187611869565b8652602086015260408501526060840152608083015260a082015290565b611e97611d8d565b506040805191611ea6836118ba565b80549260018060401b03808516948583528181861c16918260208501526001818360801c1692838887015260c01d60070b958660608701520154948560070b9182608087015286881c16928360a087015263ffffffff97888860801c16958660c0890152898960a01c16998a60e08a01528960c01c16976101206101009a8a8c84015263ffffffff60e01b1691015281519a611f418c61184d565b8b5260208b01528901526060880152608087015260a086015260c085015260e084015282015290565b6001600160ff1b038111611f7b5790565b6024906040519063eecaa25d60e01b82526004820152fd5b611b9091611fa560e08301518361505f565b916040810151155f14611fb857506150c1565b61057761057d92826158f2565b611fce8161596b565b611fd757505f90565b611b90906150e2565b9062124f8091828102928184041490151715611aa357565b81810292918115918404141715611aa357565b8115612015570490565b634e487b7160e01b5f52601260045260245ffd5b5f905b6003548210156120ae57815f526004918260205260409260018060a01b03612055855f20614bc6565b511690813b15610157575f916024839287519485938492636a256b2960e01b845230908401525af180156120a4576001939450612095575b50019061202c565b61209e906118d6565b5f61208d565b84513d5f823e3d90fd5b9050565b908161018091031261015757604051906120cb826117fb565b805182526020810151602083015260408101516040830152606081015160608301526080810151608083015260a081015160a083015260c081015160c083015260e081015160e0830152610100612123818301611aef565b90830152610120612135818301611aef565b90830152610140612147818301611aef565b90830152612159610160809201611aef565b9082015290565b9081602091031261015757516001600160a01b03811681036101575790565b91908260609103126101575760405161219781611817565b60406121b3818395805185526020810151602086015201611aef565b910152565b90816080910312610157576060604051916121d283611884565b8051835260208101516020840152604081015160408401520151606082015290565b60405190612201826117fb565b5f82525f60208301525f60408301525f606083015260606080830152606060a08301525f60c083015260e082019160405161223b81611832565b5f81528352612248611d8d565b61010082015261012081019061225c611d8d565b8252612266611b93565b610140820152612274611b93565b6101608201528093612284614f78565b90525f196060820181905260408201526003546122a081611943565b6122ad6040519182611920565b818152601f1990816122be84611943565b015f5b8181106125ba57505060808401526122d882611943565b906122e66040519283611920565b8282526122f283611943565b0136602083013760a08301525f5b8181106123405750506101406020915f80526005835261232260405f20611dee565b918291015201515f52600660205261233c60405f20611e8f565b9052565b805f52600460205261235460405f20614bc6565b805160405163ad4d4e2960e01b81529061018090829060049082906001600160a01b03165afa80156106c4576123b4915f91612589575b506123a6846080880151856123a08383611bf4565b52611bf4565b5060e086519101519061299c565b845280516040516307dc0d1d60e41b815290602090829060049082906001600160a01b03165afa9081156106c4576004916080915f9161255a575b50604051631006976960e11b815292839182906001600160a01b03165afa9081156106c4575f905f92612519575b50606086015190518082101561251257505b606086015260408501515f1981036124f1575060249160809160408701525b51604051635b4b969560e01b815230600482015292839182906001600160a01b03165afa80156106c4576040915f916124c2575b50019081516124958260a0870151611bf4565b5260c08401519151915f8382019384129112908015821691151617611aa35760019160c085015201612300565b6124e4915060803d6080116124ea575b6124dc8183611920565b8101906121b8565b5f612482565b503d6124d2565b0361250057608060249161244e565b604051632856c2eb60e11b8152600490fd5b905061242f565b91505060803d608011612553575b6125318183611920565b8101608082820312610157576125496060918361217f565b910151905f61241d565b503d612527565b61257c915060203d602011612582575b6125748183611920565b810190612160565b5f6123ef565b503d61256a565b6125ad91506101803d610180116125b3575b6125a58183611920565b8101906120b2565b5f61238b565b503d61259b565b6020906125c5611dd0565b828286010152016122c1565b906040516125de816117fb565b5f81525f60208201525f60408201525f606082015260606080820152606060a08201525f60c082015260405161261381611832565b5f815260e0820152612623611d8d565b610100820152612631611d8d565b61012082015261263f611b93565b61014082015261264d611b93565b610160820152809261265d614f78565b60e08301525f1960608301819052604083015260035461267c81611943565b6126896040519182611920565b818152601f1961269883611943565b015f5b81811061298557505060808401526126b281611943565b6126bf6040519182611920565b818152601f196126ce83611943565b0136602083013760a08401525f5b8181106127535750506001600160a01b031680612734575b505f8052600560209081526127155f80516020615eb0833981519152611dee565b8061014084015201515f5260066020526101206121b360405f20611e8f565b5f52600560205261274760405f20611dee565b6101608201525f6126f4565b805f52600460205261276760405f20614bc6565b805160405163ad4d4e2960e01b81529061018090829060049082906001600160a01b03165afa80156106c4576127c1915f91612964575b506127b3846080890151856123a08383611bf4565b5060e087519101519061299c565b855280516040516307dc0d1d60e41b815290602090829060049082906001600160a01b03165afa9081156106c4576004916080915f91612945575b50604051631006976960e11b815292839182906001600160a01b03165afa9081156106c4575f905f92612904575b5060608701519051808210156128fd57505b606087015260408601515f1981036128ee575060249160809160408801525b51604051635b4b969560e01b815230600482015292839182906001600160a01b03165afa80156106c4576040915f916128cf575b50019081516128a28260a0880151611bf4565b5260c08501519151915f8382019384129112908015821691151617611aa35760019160c0860152016126dc565b6128e8915060803d6080116124ea576124dc8183611920565b5f61288f565b0361250057608060249161285b565b905061283c565b91505060803d60801161293e575b61291c8183611920565b8101608082820312610157576129346060918361217f565b910151905f61282a565b503d612912565b61295e915060203d602011612582576125748183611920565b5f6127fc565b61297f91506101803d610180116125b3576125a58183611920565b5f61279e565b602090612990611dd0565b8282860101520161269b565b91908201809211611aa357565b906129b2611d8d565b915b610140810180519081516020809301518091119081612ab0575b5015612aa9576129e361010086015184611c23565b60609283870180519085840151915f8382019384129112908015821691151617611aa3575280825192608093848a015201519060a091828901528351948186019485519660018801809811611aa357612a9d978b97612a8d600697612a83612a769a8c8a998151978b83015197528801612a628151611b818985611f93565b9160409e8f8b0191611b818b845192614b49565b9052528601948551614bb9565b9401918251614bb9565b9052525101515f52525f2061519c565b826101208201526129b4565b5050509050565b95505060608301519460018101809111611aa3575f5260068252612ad660405f20611e8f565b9461010086015111155f6129ce565b612aed611d8d565b925b610140820180519081516020809301518091119081612c95575b5015612ba957612b1e61010087015185611c23565b60609283880180519085840151915f8382019384129112908015821691151617611aa3575280825192608093848b015201519060a091828a01528351948186019485519660018801809811611aa357612b9d978c97612a8d600697612a83612a769a8c8a998151978b83015197528801612a628151611b818985611f93565b83610120830152612aef565b509093926001600160a01b0316159050612c915761016081019081516020815191015181119182612c64575b5050612bdf575050565b51805191612c4c612c44608084019384519060a081019485519760208301526060820190612c3a6040612c2b8451611b818d612c1a87614fd7565b9085880151155f14612c51576150c1565b940191611b81868451926159b8565b9052528451614bb9565b938251614bb9565b905252565b612c5e61057d91896158f2565b88615912565b909350606091500151915f526006602052612c8160405f20611e8f565b9161010083015111155f80612bd5565b5050565b96505060608401519560018101809111611aa3575f5260068252612cbb60405f20611e8f565b9561010087015111155f612b09565b90612cd860c083015161596b565b156120ae5760808201519160405190612cf082611884565b5f82525f60208301525f60408301526060808301528351612d1081611943565b90612d1e6040519283611920565b808252612d2d601f1991611943565b015f5b81811061389057505060608301525f5b845181101561348957612d538186611bf4565b516004612d5e6153bf565b828152825160405163ad4d4e2960e01b8152919391926101809184919082906001600160a01b03165afa80156106c4576004925f91613468575b5060208401528051604051634549a62960e01b8152926103009184919082906001600160a01b03165afa80156106c4575f9061334c575b602492506040840152608060018060a01b0382511660405193848092635b4b969560e01b82523060048301525afa80156106c4576004925f9161332d575b50606084015280516040516307dc0d1d60e41b81529260209184919082906001600160a01b03165afa9182156106c4576004926060915f9161330e575b506040516352bfe78960e01b815293849182906001600160a01b03165afa9182156106c4575f926132d3575b50805160405163055f575160e41b815230600482015290608090829060249082906001600160a01b03165afa9081156106c4575f916132b4575b508060a0850152612ebf611bc3565b50805190602081015190606060408201519101519160405193612ee185611884565b84526020840152604083015260608201526080840152602461018060018060a01b038351166040519283809262dc326d60e71b82523060048301525afa80156106c457600493612fcf925f9261328e575b50602090612f44836080890151615ad8565b612f8c612f78612f5760a08a0151615c03565b611b81612f6d606088015160a08901519061299c565b60e08801519061299c565b604089015183610120825192015192615d4c565b610100880152015160e0860152612fc9612fa960a0870151615c03565b91610100612fc0608083015160c08401519061299c565b9101519061299c565b90614bb9565b610120840152805160405163e20ccec360e01b8152926101809184919082906001600160a01b03165afa9081156106c4576004925f92613258575b50516040516309218e9160e01b81529260809184919082906001600160a01b03165afa80156106c45761304a925f91613239575b508060c0850152615ad8565b60206080820151015160c08201519160208301519161307960606130716040870151611f6a565b950151611f6a565b905f82128583810312811690868481031390151617611aa3576131089486946130c5936130b0925f828203126132305703906150c1565b610120840151808210156132285750906150c1565b6101408201526130f2602060808301510151611b81608060408501510151602060c08601510151906150c1565b6101608201526060860151906123a08383611bf4565b50613128835161010061311f846060880151611bf4565b5101519061299c565b8352602083015190604060606131418382880151611bf4565b510151015180808401125f8412908015821691151617611aa357600192016020850152604084015160406131758389611bf4565b510151158015613212575b156131a3575f5b8082111561319c57505b604085015201612d40565b9050613191565b6132056131f08661050a8a60406131e78860e06131d78260606101406131cc83838d0151611bf4565b510151990151611bf4565b5101515f811261320a5793611bf4565b51015192611ff8565b60206131fc858b611bf4565b51015190615a99565b613187565b5f0393611bf4565b50602061321f8389611bf4565b51015115613180565b9050906150c1565b035f03906150c1565b613252915060803d6080116124ea576124dc8183611920565b5f61303e565b6080919250613280906101803d61018011613287575b6132788183611920565b810190615a07565b919061300a565b503d61326e565b60209192506132ad906101803d61018011613287576132788183611920565b9190612f32565b6132cd915060803d6080116124ea576124dc8183611920565b5f612eb0565b90915060603d606011613307575b6132eb8183611920565b8101606082820312610157576133009161217f565b905f612e76565b503d6132e1565b613327915060203d602011612582576125748183611920565b5f612e4a565b613346915060803d6080116124ea576124dc8183611920565b5f612e0d565b506103003d61030011613461575b6133648184611920565b82018281039061030082126101575760405191613380836118e9565b845183526020850151602084015261339b82604087016159cb565b60408401526133ad8260c087016159cb565b60608401526060610140918287015160808601526133e6610160948589015160a088015261018089015160c08801526101a089016159cb565b60e086015261021f19011261015757602494613456926102e09260405161340c81611817565b6102208401518152610240840151602082015261026084015160408201526101008701526102808301516101208701526102a0830151908601526102c08201519085015201611aef565b610180820152612dcf565b503d61335a565b61348391506101803d610180116125b3576125a58183611920565b5f612d98565b5091909250613505620f42406134f46134cb6134bb6134ab60c0880151611fc5565b60606101408901510151906150c1565b60806101408801510151906150c1565b6134ee60406134e861014089015160a0810151928391015161299c565b90615ab8565b90611ff8565b04606061014085015101519061299c565b6135126020850151611fc5565b600290600261352082615858565b0361388657506135325f925b836150c1565b9161353e865182615861565b1561387457613551604087015184615861565b15613862576060860151519361356685611943565b946135746040519687611920565b808652613583601f1991611943565b015f5b81811061383f5750505f925f935b6060890151805186101561373657856135ac91611bf4565b51895191604051906135bd82611905565b5f82526135f560208301945f8652620f42406135ee6135e2610100880151938c614bb9565b60208851015190611ff8565b049061299c565b91620f42406136096020865101518c611ff8565b04620f424061361785611fe0565b048082101561372e5750945b859461362e85611f6a565b95604060608301510151965f8882039812818912811691891390151617611aa3576001976136f59785526136866040840151620f424061367f61012083015192602060408951015191015190611ff8565b0490615ab8565b61014060208501510151159182159261371c575b5050613715575b6136c66101609161050a60408551015160e08601515f8112155f1461370d5792611ff8565b610140830151808211156137055750915b0151808210156136fd5750905b526136ef898c611bf4565b5261299c565b940193613594565b9050906136e4565b9050916136d7565b5f0392611ff8565b505f6136a1565b6137269250615861565b155f8061369a565b905094613623565b5092935095949660609194500151516137fe575b50505f5b6080830151518110156137a6578061377261376b60019388611bf4565b515161596b565b1561377e575b0161374e565b6137a161378f826080870151611bf4565b5161379a8389611bf4565b51906154f6565b613778565b50915f5b608083015151811015612aa957806137c761376b60019388611bf4565b8381149081156137f4575b506137de575b016137aa565b6137ef61378f826080870151611bf4565b6137d8565b839150145f6137d2565b61072d6138169161380e88611be7565b515193614bb9565b905f8282019283129112908015821691151617611aa35761383685611be7565b51525f8061374a565b60209060405161384e81611905565b5f81525f8382015282828a01015201613586565b60405163fd9cbca560e01b8152600490fd5b604051634bb1a89160e11b8152600490fd5b613532909261352c565b60209061389b6153bf565b82828601015201612d30565b906138b560c083015161596b565b156120ae57608082015191604051906138cd82611884565b5f82525f60208301525f604083015260608083015283516138ed81611943565b906138fb6040519283611920565b80825261390a601f1991611943565b015f5b81811061412c57505060608301525f5b8451811015613e7f576139308186611bf4565b51600461393b6153bf565b828152825160405163ad4d4e2960e01b8152919391926101809184919082906001600160a01b03165afa80156106c4576004925f91613e5e575b5060208401528051604051634549a62960e01b8152926103009184919082906001600160a01b03165afa80156106c4575f90613d8c575b602492506040840152608060018060a01b0382511660405193848092635b4b969560e01b82523060048301525afa80156106c4576004925f91613d6d575b50606084015280516040516307dc0d1d60e41b81529260209184919082906001600160a01b03165afa9182156106c4576004926060915f91613d4e575b506040516352bfe78960e01b815293849182906001600160a01b03165afa9182156106c4575f92613d13575b50805160405163055f575160e41b815230600482015290608090829060249082906001600160a01b03165afa9081156106c4575f91613cf4575b508060a0850152613a9c611bc3565b50805190602081015190606060408201519101519160405193613abe85611884565b84526020840152604083015260608201526080840152602461018060018060a01b038351166040519283809262dc326d60e71b82523060048301525afa80156106c457600493613b20925f9261328e5750602090612f44836080890151615ad8565b610120840152805160405163e20ccec360e01b8152926101809184919082906001600160a01b03165afa9081156106c4576004925f92613cce575b50516040516309218e9160e01b81529260809184919082906001600160a01b03165afa80156106c457613b9a925f9161323957508060c0850152615ad8565b60206080820151015160c082015191602083015191613bc160606130716040870151611f6a565b905f82128583810312811690868481031390151617611aa357613bf89486946130c5936130b0925f828203126132305703906150c1565b50613c0f835161010061311f846060880151611bf4565b835260208301519060406060613c288382880151611bf4565b510151015180808401125f8412908015821691151617611aa35760019201602085015260408401516040613c5c8389611bf4565b510151158015613cb8575b15613c8a575f5b80821115613c8357505b60408501520161391d565b9050613c78565b613cb36131f08661050a8a60406131e78860e06131d78260606101406131cc83838d0151611bf4565b613c6e565b506020613cc58389611bf4565b51015115613c67565b6080919250613ced906101803d61018011613287576132788183611920565b9190613b5b565b613d0d915060803d6080116124ea576124dc8183611920565b5f613a8d565b90915060603d606011613d47575b613d2b8183611920565b810160608282031261015757613d409161217f565b905f613a53565b503d613d21565b613d67915060203d602011612582576125748183611920565b5f613a27565b613d86915060803d6080116124ea576124dc8183611920565b5f6139ea565b506103003d61030011613e57575b613da48184611920565b82018281039061030082126101575760405191613dc0836118e9565b8451835260208501516020840152613ddb82604087016159cb565b6040840152613ded8260c087016159cb565b6060840152606061014091828701516080860152613e26610160948589015160a088015261018089015160c08801526101a089016159cb565b60e086015261021f19011261015757602494613e4c926102e09260405161340c81611817565b6101808201526139ac565b503d613d9a565b613e7991506101803d610180116125b3576125a58183611920565b5f613975565b5091909250613ea1620f42406134f46134cb6134bb6134ab60c0880151611fc5565b613eae6020850151611fc5565b6002906002613ebc82615858565b036141225750613ecd5f92836150c1565b91613ed9865182615861565b1561387457613eec604087015184615861565b156138625760608601515193613f0185611943565b94613f0f6040519687611920565b808652613f1e601f1991611943565b015f5b8181106140ff5750505f925f935b606089015180518610156140175785613f4791611bf4565b5189519160405190613f5882611905565b5f8252613f7d60208301945f8652620f42406135ee6135e2610100880151938c614bb9565b91620f4240613f916020865101518c611ff8565b04620f4240613f9f85611fe0565b048082101561400f5750945b8594613fb685611f6a565b95604060608301510151965f8882039812818912811691891390151617611aa3576001976140079785526136866040840151620f424061367f61012083015192602060408951015191015190611ff8565b940193613f2f565b905094613fab565b5092935095949660609194500151516140c6575b50505f5b60808301515181101561406e578061404c61376b60019388611bf4565b15614058575b0161402f565b61406961378f826080870151611bf4565b614052565b50915f5b608083015151811015612aa9578061408f61376b60019388611bf4565b8381149081156140bc575b506140a6575b01614072565b6140b761378f826080870151611bf4565b6140a0565b839150145f61409a565b61072d6140d69161380e88611be7565b905f8282019283129112908015821691151617611aa3576140f685611be7565b51525f8061402b565b60209060405161410e81611905565b5f81525f8382015282828a01015201613f21565b613ecd909261352c565b6020906141376153bf565b8282860101520161390d565b93909392919261415660c082015161596b565b15614aa1576080810151946040519361416e85611884565b5f85525f60208601525f6040860152606080860152865161418e81611943565b9061419c6040519283611920565b8082526141ab601f1991611943565b015f5b818110614a8a57505060608601525f5b8751811015614792576141d18189611bf4565b5160046141dc6153bf565b828152825160405163ad4d4e2960e01b8152919391926101809184919082906001600160a01b03165afa80156106c4576004925f91614771575b5060208401528051604051634549a62960e01b8152926103009184919082906001600160a01b03165afa80156106c4575f9061469f575b602492506040840152608060018060a01b0382511660405193848092635b4b969560e01b82523060048301525afa80156106c4576004925f91614680575b50606084015280516040516307dc0d1d60e41b81529260209184919082906001600160a01b03165afa9182156106c4576004926060915f91614661575b506040516352bfe78960e01b815293849182906001600160a01b03165afa9182156106c4575f92614626575b50805160405163055f575160e41b815230600482015290608090829060249082906001600160a01b03165afa9081156106c4575f91614607575b508060a085015261433d611bc3565b5080519060208101519060606040820151910151916040519361435f85611884565b84526020840152604083015260608201526080840152602461018060018060a01b038351166040519283809262dc326d60e71b82523060048301525afa80156106c4576004936143c1925f9261328e5750602090612f44836080890151615ad8565b610120840152805160405163e20ccec360e01b8152926101809184919082906001600160a01b03165afa9081156106c4576004925f926145e1575b50516040516309218e9160e01b81529260809184919082906001600160a01b03165afa80156106c45761443b925f9161323957508060c0850152615ad8565b60206080820151015160c08201519160208301519161446260606130716040870151611f6a565b905f82128583810312811690868481031390151617611aa3576144dc948694614499936130b0925f828203126132305703906150c1565b6101408201526144c6602060808301510151611b81608060408501510151602060c08601510151906150c1565b6101608201526060890151906123a08383611bf4565b506144f3865161010061311f8460608b0151611bf4565b86526020860151906040606061450c83828b0151611bf4565b510151015180808401125f8412908015821691151617611aa35760019201602088015260408701516040614540838c611bf4565b5101511580156145cb575b1561456e575f5b8082111561456757505b6040880152016141be565b905061455c565b6145bf8a60206131fc856145b98d61050a60e06145a28560606101406145978383890151611bf4565b510151950151611bf4565b5101515f81126145c4575b60406131e7868a611bf4565b93611bf4565b614552565b5f036145ad565b5060206145d8838c611bf4565b5101511561454b565b6080919250614600906101803d61018011613287576132788183611920565b91906143fc565b614620915060803d6080116124ea576124dc8183611920565b5f61432e565b90915060603d60601161465a575b61463e8183611920565b8101606082820312610157576146539161217f565b905f6142f4565b503d614634565b61467a915060203d602011612582576125748183611920565b5f6142c8565b614699915060803d6080116124ea576124dc8183611920565b5f61428b565b506103003d6103001161476a575b6146b78184611920565b820182810390610300821261015757604051916146d3836118e9565b84518352602085015160208401526146ee82604087016159cb565b60408401526147008260c087016159cb565b6060840152606061014091828701516080860152614739610160948589015160a088015261018089015160c08801526101a089016159cb565b60e086015261021f1901126101575760249461475f926102e09260405161340c81611817565b61018082015261424d565b503d6146ad565b61478c91506101803d610180116125b3576125a58183611920565b5f614216565b5091939550919361481c6148239161057d61480e620f42406147fd896134ee60406134e86101406147eb6147dd6147cc60c0880151611fc5565b6105d98d6060868b0151015161299c565b6080838801510151906150c1565b94015160a0810151928391015161299c565b0460606101408a015101519061299c565b9561027060208b0151611fc5565b92836150c1565b9161482f865182615861565b1561387457614842604087015184615861565b15613862576060860151519361485785611943565b946148656040519687611920565b808652614874601f1991611943565b015f5b818110614a675750505f925f935b6060890151805186101561496d578561489d91611bf4565b51895191604051906148ae82611905565b5f82526148d360208301945f8652620f42406135ee6135e2610100880151938c614bb9565b91620f42406148e76020865101518c611ff8565b04620f42406148f585611fe0565b04808210156149655750945b859461490c85611f6a565b95604060608301510151965f8882039812818912811691891390151617611aa35760019761495d9785526136866040840151620f424061367f61012083015192602060408951015191015190611ff8565b940193614885565b905094614901565b50929350966060919450015151614a2e575b50505f5b6080820151518110156149d557806149a061376b60019386611bf4565b156149ac575b01614983565b6149d0866149be836080870151611bf4565b516149c98488611bf4565b5190615560565b6149a6565b505f5b608082015151811015612aa957806149f561376b60019386611bf4565b60028114908115614a24575b50614a0d575b016149d8565b614a1f866149be836080870151611bf4565b614a07565b839150145f614a01565b61072d614a3e9161380e86611be7565b905f8282019283129112908015821691151617611aa357614a5e83611be7565b51525f8061497f565b602090604051614a7681611905565b5f81525f8382015282828a01015201614877565b602090614a956153bf565b828286010152016141ae565b5092505050565b5f80526005602052610140810151614aee9190614ad2905f80516020615eb08339815191526155cf565b60208101515f52600660205261010060405f209101519061519c565b565b614aee916001600160a01b031680614b29575b505f80526005602052610140810151614ad2905f80516020615eb08339815191526155cf565b5f526005602052614b4360405f20610160830151906155cf565b5f614b03565b604081015115614bb557614b6160c08201518261505f565b90614b6f606082015161596b565b8015908115614baa575b5015614b895750611b90916150c1565b906105d990614ba4614b9e611b909585615872565b84615912565b92615872565b60019150145f614b79565b5090565b91908203918211611aa357565b614bce611dd0565b5060405190614bdc82611884565b5460018060a01b0381169182815263ffffffff906060828460a01c16928360208401528460c01c169384604084015263ffffffff60e01b1691015260405192614c2484611817565b83526020830152604082015290565b5f80516020615e3083398151915254604080516306ae709560e01b815260209390926004916001600160a01b0391869086908590829086165afa9485156120a4579086915f96614ecd575b509082602481938751948593849263032bb44360e01b845216998a89840152165afa9081156120a4575f91614e98575b5015614e89578251637e062a3560e11b815285818481885afa9081156120a4575f91614e54575b5081600154169182911603614e4557845f91604485518094819363095ea7b360e01b83528988840152811960248401525af18015614e3b57908591614df7575b505f80516020615e90833981519152937f07796b317344e6f18fa32ed89b6074ad66549cee7fb7b8c3e9f1c42c496f1c5c600354968792614d5584614fc9565b600355835f52858252614d82875f20885190614d7082611817565b8382525f858301525f8a83015261575f565b8651908152a284614df157620f42405b855f52828252614da3845f20614bc6565b906001614daf8261581b565b03614de75750614dd882820151915b838101928352858101945f8652885f528452855f2061575f565b519151908351928352820152a2565b614dd89091614dbe565b5f614d92565b9081813d8311614e34575b614e0c8183611920565b81010312610157575f80516020615e9083398151915293614e2d8692611aef565b5093614d15565b503d614e02565b83513d5f823e3d90fd5b50905163addc4c0d60e01b8152fd5b90508581813d8311614e82575b614e6b8183611920565b8101031261015757614e7c90611afc565b5f614cd5565b503d614e61565b509051637c04a01960e01b8152fd5b90508581813d8311614ec6575b614eaf8183611920565b8101031261015757614ec090611aef565b5f614cae565b503d614ea5565b8281939297503d8311614f00575b614ee58183611920565b81010312610157575181811681036101575793859082614c7e565b503d614edb565b6002614f138251615827565b14614f665760207f6aa12494b90f1eeec92df49ec47058878b0803a79ba307dead4905555159adc79160018060401b038151165f83604051614f5481611905565b838152015260025560405190518152a1565b604051630f9f8b1960e01b8152600490fd5b5f604051614f8581611832565b52604051614f9281611905565b6002546001600160401b0381168083526001600160401b031990911660209092019190915260405190614fc482611832565b815290565b5f198114611aa35760010190565b614fea60c082015160e08301519061299c565b620f42409182820291808304841490151715611aa3578161500c575050505f90565b60a00151828102928184041490151715611aa3578161502b5750505f90565b5f198201918211611aa35761503f9161200b565b6001810180911115611b9057634e487b7160e01b5f52601160045260245ffd5b9061507360c083015160e08401519061299c565b91620f42409081840293808504831490151715611aa3578361509757505050505f90565b60a0015191818102918183041490151715611aa3576150b591611ff8565b908161502b5750505f90565b9060026150ce8383615861565b036150d95750505f90565b611b9091614bb9565b5f81126150ec5790565b6024906040519063b02ef08760e01b82526004820152fd5b8054600160401b600160801b03191660409290921b600160401b600160801b0316919091179055565b8054600160801b600160c01b03191660809290921b600160801b600160c01b0316919091179055565b805463ffffffff60a01b191660a09290921b63ffffffff60a01b16919091179055565b805463ffffffff60c01b191660c09290921b63ffffffff60c01b16919091179055565b6002806151a98451615827565b146153ad57806151bc6020850151615827565b146153ad57806151cf6040850151615827565b146153ad57806151e26060850151615983565b146153ad576151f4606084015161599d565b156153ad57806152076080850151615983565b146153ad57615219608084015161599d565b156153ad5761522b60a0840151615827565b146153ad5763ffffffff60c0830151116153ad5763ffffffff60e0830151116153ad5763ffffffff610100830151116153ad57815160208301516040848101516060860151608087015160a088015160c08901516101008a015160e0909a015195516001600160401b039889169a63ffffffff9788169a9716989197928216969395939493821692909116906152c0816118ba565b8a81528160208201528260408201528360070b60608201528560070b60808201528660a082015263ffffffff881660c08201528860e082015289610100820152610120015f9052600160401b6001900319998a8554161784556153239084615104565b61532d908361512d565b81546001600160c01b031660c09190911b6001600160c01b03191617815560010180546001600160401b039092169190961617855561536c9085615104565b835463ffffffff60801b191660809190911b63ffffffff60801b161783556153949083615156565b61539e9082615179565b80546001600160e01b03169055565b604051635d4288b560e11b8152600490fd5b6040905f8251926153cf846117fb565b836153d8611dd0565b8152828251926153e7846117fb565b81845281602085015281818501528160608501528160808501528160a08501528160c08501528160e0850152816101008181870152816101209181838901526101409482868a015261016098838a8201526020890152805190615449826118e9565b83825283602083015261545a611bc3565b81830152615466611bc3565b60608301528360808301528360a08301528360c0830152615485611bc3565b60e0830152615492611dd0565b8383015283858301528387830152838a830152836101808301528801526154b7611bc3565b60608801526154c4611bc3565b60808801526154d1611bc3565b60a08801526154de611bc3565b60c08801528160e08801528601528401528201520152565b5190516001600160a01b0390911690813b15610157575f9160c48392604051948593849263123dd9c560e31b84523060048501528219602485015282604485015282606485015260848401528160a48401525af180156106c4576155575750565b614aee906118d6565b516001600160a01b031691156155c7576020810151905b51823b156101575760c45f9283604051958694859363123dd9c560e31b8552306004860152602485015282604485015282606485015260848401528160a48401525af180156106c4576155575750565b5f1990615577565b919063ffffffff908181511161574d5760208101938285511161574d576040948583019160026155ff8451615827565b1461573c57606084019160026156158451615827565b1461572b576080850193600261562b8651615827565b1461571a5760a086019560026156418851615827565b1461570957926156e394925f999a60c06001948b6156e99b9a98511693519c8d93878060401b038080809551169a51169a51169b519d8151956156838761189f565b8787521660208601528401528660608401528760808401528960a08401528b169101528154998163ffffffff198c1617835563ffffffff60201b9060201b168082858060401b0319809d1617178355178155019687541617865585615104565b8361512d565b81546001600160c01b031660c09190911b6001600160c01b031916179055565b895163b8a0949960e01b8152600490fd5b885163b8a0949960e01b8152600490fd5b875163b8a0949960e01b8152600490fd5b865163b8a0949960e01b8152600490fd5b60405163b8a0949960e01b8152600490fd5b906020810160026157708251615841565b146157e857604082019160026157868451615841565b146157e85761539e926157e29160018060a01b039051169263ffffffff80915116915116925f60606040516157ba81611884565b8381526020810185905260408101879052015285546001600160a01b03191617855584615156565b82615179565b6040516349781e4360e11b8152600490fd5b620f424090818111615814571061581057600190565b5f90565b5050600290565b5f191161581057600190565b6001600160401b0390818111615814571061581057600190565b63ffffffff90818111615814571061581057600190565b61581057600190565b818111615814571061581057600190565b9061050a611b909261588c60606040830151920151611fc5565b92611ff8565b9492919085526158a760608601918251614bb9565b916158b760408701918251614bb9565b905252612c4c60a06158ce6080860194855161299c565b940191825161299c565b64e8d4a5100090818102918183041490151715611aa35790565b9061050a611b909260406159096060830151611fc5565b91015192611ff8565b6159258151611b816020840151846158f2565b90608061593183611f6a565b910151905f8282039212818312811691831390151617611aa35761595490611fc5565b8161595e57505090565b61050a90611b9093611ff8565b5f811361597d575f1361581057600190565b50600290565b60016001603f1b0390818113615814571261581057600190565b60016001603f1b031990818113615814571261581057600190565b604081015115614bb557614b6181614fd7565b9190826080910312610157576040516159e381611884565b60608082948051845260208101516020850152604081015160408501520151910152565b90816101809103126101575760405190615a20826117fb565b805182526020810151602083015260408101516040830152606081015160608301526080810151608083015260a081015160a083015260c081015160c083015260e081015160e0830152610100808201519083015261012080820151908301526101408082015190830152610160809101519082015290565b90620f424091828102928184041490151715611aa357611b909161200b565b9080615acf5750615aca57620f424090565b5f1990565b611b9091615a99565b815181526020810190615aeb8251611f6a565b615af86060850151611f6a565b90615b066080860151611f6a565b915f8382039312818412811691841390151617611aa3575f8282019283129112908015821691151617611aa357615b3c906150e2565b926040820190615b4c8251611f6a565b615b5960a0830151611f6a565b90615b6760c0840151611f6a565b915f8382039312818412811691841390151617611aa3575f8282019283129112908015821691151617611aa357615b9f6060916150e2565b930190615bac8251611f6a565b615bc7610100615bbf60e0850151611f6a565b930151611f6a565b915f8382039312818412811691841390151617611aa3575f8282019283129112908015821691151617611aa357615bfd906150e2565b90525252565b6020604082015160608301518082115f14615c2e5750915b015180821115615c29575090565b905090565b905091615c1b565b60018060a01b0316604051615c4a81611905565b5f806020948584527f5361666545524332303a206c6f772d6c6576656c2063616c6c206661696c656486850152858151910182865af13d15615d3f573d906001600160401b03821161049e57615cbe9360405192615cb187601f19601f8401160185611920565b83523d5f8785013e615d9a565b805180615cca57505050565b818391810103126101575781615ce09101611aef565b15615ce85750565b6084906040519062461bcd60e51b82526004820152602a60248201527f5361666545524332303a204552433230206f7065726174696f6e20646964206e6044820152691bdd081cdd58d8d9595960b21b6064820152fd5b91615cbe92606091615d9a565b918215615d92576020615d7c9201515f8112155f14615d8a57925b615d76620f4240948592611ff8565b04611ff8565b049080821115615c29575090565b5f0392615d67565b505050505f90565b91929015615dfc5750815115615dae575090565b3b15615db75790565b60405162461bcd60e51b815260206004820152601d60248201527f416464726573733a2063616c6c20746f206e6f6e2d636f6e74726163740000006044820152606490fd5b825190915015615e0f5750805190602001fd5b60405162461bcd60e51b8152908190615e2b906004830161179e565b0390fdfe0aec74a1754fb10877b53c31a29be82096082042eb1fb374ec96fac88c0e621b290decd9548b62a8d60345a988386fc84ba6bc95484008f6362f93160ef3e563be9b076dc5b65990cca9dd9d7366682482e7817a6f6bc7f4faf4dc32af497f3219de27a5967d3c5ffdfa85f8f33ed63fcae289e86abc970d013e0ae2bc8bb27f05b8ccbb9d4d8fb16ea74ce3c29a41f1b461fbdaff4714a0d9a8eb05499746bca26469706673582212207a0e790ad07fedfa2f62227ba96812acb706f37b03cd7bd17752d9e7aad1456a64736f6c63430008180033"
}