{
  "_format": "hh-sol-artifact-1",
  "contractName": "MarketV2_1_1",
  "sourceName": "contracts/MarketV2_1_1.sol",
  "abi": [
    {
      "inputs": [],
      "name": "CurveMath6OutOfBoundsError",
      "type": "error"
    },
    {
      "inputs": [],
      "name": "DivisionByZero",
      "type": "error"
    },
    {
      "inputs": [
        {
          "internalType": "uint256",
          "name": "value",
          "type": "uint256"
        }
      ],
      "name": "Fixed6OverflowError",
      "type": "error"
    },
    {
      "inputs": [],
      "name": "GlobalStorageInvalidError",
      "type": "error"
    },
    {
      "inputs": [],
      "name": "GlobalStorageInvalidError",
      "type": "error"
    },
    {
      "inputs": [
        {
          "internalType": "uint256",
          "name": "version",
          "type": "uint256"
        }
      ],
      "name": "InitializableAlreadyInitializedError",
      "type": "error"
    },
    {
      "inputs": [],
      "name": "InitializableNotInitializingError",
      "type": "error"
    },
    {
      "inputs": [],
      "name": "InitializableZeroVersionError",
      "type": "error"
    },
    {
      "inputs": [
        {
          "internalType": "address",
          "name": "sender",
          "type": "address"
        }
      ],
      "name": "InstanceNotFactoryError",
      "type": "error"
    },
    {
      "inputs": [
        {
          "internalType": "address",
          "name": "sender",
          "type": "address"
        }
      ],
      "name": "InstanceNotOwnerError",
      "type": "error"
    },
    {
      "inputs": [],
      "name": "InstancePausedError",
      "type": "error"
    },
    {
      "inputs": [],
      "name": "LocalStorageInvalidError",
      "type": "error"
    },
    {
      "inputs": [],
      "name": "LocalStorageInvalidError",
      "type": "error"
    },
    {
      "inputs": [],
      "name": "MarketClosedError",
      "type": "error"
    },
    {
      "inputs": [],
      "name": "MarketCollateralBelowLimitError",
      "type": "error"
    },
    {
      "inputs": [],
      "name": "MarketEfficiencyUnderLimitError",
      "type": "error"
    },
    {
      "inputs": [],
      "name": "MarketExceedsPendingIdLimitError",
      "type": "error"
    },
    {
      "inputs": [],
      "name": "MarketInsufficientCollateralError",
      "type": "error"
    },
    {
      "inputs": [],
      "name": "MarketInsufficientLiquidityError",
      "type": "error"
    },
    {
      "inputs": [],
      "name": "MarketInsufficientMarginError",
      "type": "error"
    },
    {
      "inputs": [
        {
          "internalType": "uint256",
          "name": "code",
          "type": "uint256"
        }
      ],
      "name": "MarketInvalidMarketParameterError",
      "type": "error"
    },
    {
      "inputs": [],
      "name": "MarketInvalidProtectionError",
      "type": "error"
    },
    {
      "inputs": [
        {
          "internalType": "uint256",
          "name": "code",
          "type": "uint256"
        }
      ],
      "name": "MarketInvalidRiskParameterError",
      "type": "error"
    },
    {
      "inputs": [],
      "name": "MarketMakerOverLimitError",
      "type": "error"
    },
    {
      "inputs": [],
      "name": "MarketNotBeneficiaryError",
      "type": "error"
    },
    {
      "inputs": [],
      "name": "MarketNotCoordinatorError",
      "type": "error"
    },
    {
      "inputs": [],
      "name": "MarketNotSingleSidedError",
      "type": "error"
    },
    {
      "inputs": [],
      "name": "MarketOperatorNotAllowedError",
      "type": "error"
    },
    {
      "inputs": [],
      "name": "MarketOverCloseError",
      "type": "error"
    },
    {
      "inputs": [],
      "name": "MarketParameterStorageInvalidError",
      "type": "error"
    },
    {
      "inputs": [],
      "name": "MarketProtectedError",
      "type": "error"
    },
    {
      "inputs": [],
      "name": "MarketSettleOnlyError",
      "type": "error"
    },
    {
      "inputs": [],
      "name": "MarketStalePriceError",
      "type": "error"
    },
    {
      "inputs": [],
      "name": "PositionStorageInvalidError",
      "type": "error"
    },
    {
      "inputs": [],
      "name": "PositionStorageLocalInvalidError",
      "type": "error"
    },
    {
      "inputs": [],
      "name": "ReentrancyGuardReentrantCallError",
      "type": "error"
    },
    {
      "inputs": [],
      "name": "RiskParameterStorageInvalidError",
      "type": "error"
    },
    {
      "inputs": [
        {
          "internalType": "int256",
          "name": "value",
          "type": "int256"
        }
      ],
      "name": "UFixed6UnderflowError",
      "type": "error"
    },
    {
      "inputs": [],
      "name": "VersionStorageInvalidError",
      "type": "error"
    },
    {
      "inputs": [],
      "name": "VersionStorageInvalidError",
      "type": "error"
    },
    {
      "anonymous": false,
      "inputs": [
        {
          "indexed": true,
          "internalType": "address",
          "name": "account",
          "type": "address"
        },
        {
          "indexed": true,
          "internalType": "uint256",
          "name": "fromOracleVersion",
          "type": "uint256"
        },
        {
          "indexed": true,
          "internalType": "uint256",
          "name": "toOracleVersion",
          "type": "uint256"
        },
        {
          "indexed": false,
          "internalType": "uint256",
          "name": "fromPosition",
          "type": "uint256"
        },
        {
          "indexed": false,
          "internalType": "uint256",
          "name": "toPosition",
          "type": "uint256"
        },
        {
          "components": [
            {
              "internalType": "Fixed6",
              "name": "collateralAmount",
              "type": "int256"
            },
            {
              "internalType": "UFixed6",
              "name": "rewardAmount",
              "type": "uint256"
            },
            {
              "internalType": "Fixed6",
              "name": "positionFee",
              "type": "int256"
            },
            {
              "internalType": "UFixed6",
              "name": "keeper",
              "type": "uint256"
            }
          ],
          "indexed": false,
          "internalType": "struct LocalAccumulationResult",
          "name": "accumulationResult",
          "type": "tuple"
        }
      ],
      "name": "AccountPositionProcessed",
      "type": "event"
    },
    {
      "anonymous": false,
      "inputs": [
        {
          "indexed": false,
          "internalType": "address",
          "name": "newBeneficiary",
          "type": "address"
        }
      ],
      "name": "BeneficiaryUpdated",
      "type": "event"
    },
    {
      "anonymous": false,
      "inputs": [
        {
          "indexed": false,
          "internalType": "address",
          "name": "newCoordinator",
          "type": "address"
        }
      ],
      "name": "CoordinatorUpdated",
      "type": "event"
    },
    {
      "anonymous": false,
      "inputs": [
        {
          "indexed": true,
          "internalType": "address",
          "name": "account",
          "type": "address"
        },
        {
          "indexed": false,
          "internalType": "UFixed6",
          "name": "amount",
          "type": "uint256"
        }
      ],
      "name": "FeeClaimed",
      "type": "event"
    },
    {
      "anonymous": false,
      "inputs": [
        {
          "indexed": false,
          "internalType": "uint256",
          "name": "version",
          "type": "uint256"
        }
      ],
      "name": "Initialized",
      "type": "event"
    },
    {
      "anonymous": false,
      "inputs": [
        {
          "indexed": true,
          "internalType": "address",
          "name": "account",
          "type": "address"
        },
        {
          "indexed": false,
          "internalType": "uint256",
          "name": "version",
          "type": "uint256"
        },
        {
          "components": [
            {
              "internalType": "Fixed6",
              "name": "maker",
              "type": "int256"
            },
            {
              "internalType": "Fixed6",
              "name": "long",
              "type": "int256"
            },
            {
              "internalType": "Fixed6",
              "name": "short",
              "type": "int256"
            },
            {
              "internalType": "Fixed6",
              "name": "net",
              "type": "int256"
            },
            {
              "internalType": "UFixed6",
              "name": "skew",
              "type": "uint256"
            },
            {
              "internalType": "Fixed6",
              "name": "impact",
              "type": "int256"
            },
            {
              "internalType": "Fixed6",
              "name": "utilization",
              "type": "int256"
            },
            {
              "internalType": "Fixed6",
              "name": "efficiency",
              "type": "int256"
            },
            {
              "internalType": "Fixed6",
              "name": "fee",
              "type": "int256"
            },
            {
              "internalType": "UFixed6",
              "name": "keeper",
              "type": "uint256"
            }
          ],
          "indexed": false,
          "internalType": "struct Order",
          "name": "order",
          "type": "tuple"
        },
        {
          "indexed": false,
          "internalType": "Fixed6",
          "name": "collateral",
          "type": "int256"
        }
      ],
      "name": "OrderCreated",
      "type": "event"
    },
    {
      "anonymous": false,
      "inputs": [
        {
          "components": [
            {
              "internalType": "UFixed6",
              "name": "fundingFee",
              "type": "uint256"
            },
            {
              "internalType": "UFixed6",
              "name": "interestFee",
              "type": "uint256"
            },
            {
              "internalType": "UFixed6",
              "name": "positionFee",
              "type": "uint256"
            },
            {
              "internalType": "UFixed6",
              "name": "oracleFee",
              "type": "uint256"
            },
            {
              "internalType": "UFixed6",
              "name": "riskFee",
              "type": "uint256"
            },
            {
              "internalType": "uint256",
              "name": "maxPendingGlobal",
              "type": "uint256"
            },
            {
              "internalType": "uint256",
              "name": "maxPendingLocal",
              "type": "uint256"
            },
            {
              "internalType": "UFixed6",
              "name": "makerRewardRate",
              "type": "uint256"
            },
            {
              "internalType": "UFixed6",
              "name": "longRewardRate",
              "type": "uint256"
            },
            {
              "internalType": "UFixed6",
              "name": "shortRewardRate",
              "type": "uint256"
            },
            {
              "internalType": "UFixed6",
              "name": "settlementFee",
              "type": "uint256"
            },
            {
              "internalType": "bool",
              "name": "takerCloseAlways",
              "type": "bool"
            },
            {
              "internalType": "bool",
              "name": "makerCloseAlways",
              "type": "bool"
            },
            {
              "internalType": "bool",
              "name": "closed",
              "type": "bool"
            },
            {
              "internalType": "bool",
              "name": "settle",
              "type": "bool"
            }
          ],
          "indexed": false,
          "internalType": "struct MarketParameter",
          "name": "newParameter",
          "type": "tuple"
        }
      ],
      "name": "ParameterUpdated",
      "type": "event"
    },
    {
      "anonymous": false,
      "inputs": [
        {
          "indexed": true,
          "internalType": "uint256",
          "name": "fromOracleVersion",
          "type": "uint256"
        },
        {
          "indexed": true,
          "internalType": "uint256",
          "name": "toOracleVersion",
          "type": "uint256"
        },
        {
          "indexed": false,
          "internalType": "uint256",
          "name": "fromPosition",
          "type": "uint256"
        },
        {
          "indexed": false,
          "internalType": "uint256",
          "name": "toPosition",
          "type": "uint256"
        },
        {
          "components": [
            {
              "internalType": "Fixed6",
              "name": "positionFeeMaker",
              "type": "int256"
            },
            {
              "internalType": "UFixed6",
              "name": "positionFeeFee",
              "type": "uint256"
            },
            {
              "internalType": "Fixed6",
              "name": "fundingMaker",
              "type": "int256"
            },
            {
              "internalType": "Fixed6",
              "name": "fundingLong",
              "type": "int256"
            },
            {
              "internalType": "Fixed6",
              "name": "fundingShort",
              "type": "int256"
            },
            {
              "internalType": "UFixed6",
              "name": "fundingFee",
              "type": "uint256"
            },
            {
              "internalType": "Fixed6",
              "name": "interestMaker",
              "type": "int256"
            },
            {
              "internalType": "Fixed6",
              "name": "interestLong",
              "type": "int256"
            },
            {
              "internalType": "Fixed6",
              "name": "interestShort",
              "type": "int256"
            },
            {
              "internalType": "UFixed6",
              "name": "interestFee",
              "type": "uint256"
            },
            {
              "internalType": "Fixed6",
              "name": "pnlMaker",
              "type": "int256"
            },
            {
              "internalType": "Fixed6",
              "name": "pnlLong",
              "type": "int256"
            },
            {
              "internalType": "Fixed6",
              "name": "pnlShort",
              "type": "int256"
            },
            {
              "internalType": "UFixed6",
              "name": "rewardMaker",
              "type": "uint256"
            },
            {
              "internalType": "UFixed6",
              "name": "rewardLong",
              "type": "uint256"
            },
            {
              "internalType": "UFixed6",
              "name": "rewardShort",
              "type": "uint256"
            }
          ],
          "indexed": false,
          "internalType": "struct VersionAccumulationResult",
          "name": "accumulationResult",
          "type": "tuple"
        }
      ],
      "name": "PositionProcessed",
      "type": "event"
    },
    {
      "anonymous": false,
      "inputs": [
        {
          "indexed": true,
          "internalType": "address",
          "name": "account",
          "type": "address"
        },
        {
          "indexed": false,
          "internalType": "UFixed6",
          "name": "amount",
          "type": "uint256"
        }
      ],
      "name": "RewardClaimed",
      "type": "event"
    },
    {
      "anonymous": false,
      "inputs": [
        {
          "components": [
            {
              "internalType": "UFixed6",
              "name": "margin",
              "type": "uint256"
            },
            {
              "internalType": "UFixed6",
              "name": "maintenance",
              "type": "uint256"
            },
            {
              "internalType": "UFixed6",
              "name": "takerFee",
              "type": "uint256"
            },
            {
              "internalType": "UFixed6",
              "name": "takerSkewFee",
              "type": "uint256"
            },
            {
              "internalType": "UFixed6",
              "name": "takerImpactFee",
              "type": "uint256"
            },
            {
              "internalType": "UFixed6",
              "name": "makerFee",
              "type": "uint256"
            },
            {
              "internalType": "UFixed6",
              "name": "makerImpactFee",
              "type": "uint256"
            },
            {
              "internalType": "UFixed6",
              "name": "makerLimit",
              "type": "uint256"
            },
            {
              "internalType": "UFixed6",
              "name": "efficiencyLimit",
              "type": "uint256"
            },
            {
              "internalType": "UFixed6",
              "name": "liquidationFee",
              "type": "uint256"
            },
            {
              "internalType": "UFixed6",
              "name": "minLiquidationFee",
              "type": "uint256"
            },
            {
              "internalType": "UFixed6",
              "name": "maxLiquidationFee",
              "type": "uint256"
            },
            {
              "components": [
                {
                  "internalType": "UFixed6",
                  "name": "minRate",
                  "type": "uint256"
                },
                {
                  "internalType": "UFixed6",
                  "name": "maxRate",
                  "type": "uint256"
                },
                {
                  "internalType": "UFixed6",
                  "name": "targetRate",
                  "type": "uint256"
                },
                {
                  "internalType": "UFixed6",
                  "name": "targetUtilization",
                  "type": "uint256"
                }
              ],
              "internalType": "struct UJumpRateUtilizationCurve6",
              "name": "utilizationCurve",
              "type": "tuple"
            },
            {
              "components": [
                {
                  "internalType": "UFixed6",
                  "name": "k",
                  "type": "uint256"
                },
                {
                  "internalType": "UFixed6",
                  "name": "max",
                  "type": "uint256"
                }
              ],
              "internalType": "struct PController6",
              "name": "pController",
              "type": "tuple"
            },
            {
              "internalType": "UFixed6",
              "name": "minMargin",
              "type": "uint256"
            },
            {
              "internalType": "UFixed6",
              "name": "minMaintenance",
              "type": "uint256"
            },
            {
              "internalType": "UFixed6",
              "name": "skewScale",
              "type": "uint256"
            },
            {
              "internalType": "uint256",
              "name": "staleAfter",
              "type": "uint256"
            },
            {
              "internalType": "bool",
              "name": "makerReceiveOnly",
              "type": "bool"
            }
          ],
          "indexed": false,
          "internalType": "struct RiskParameter",
          "name": "newRiskParameter",
          "type": "tuple"
        }
      ],
      "name": "RiskParameterUpdated",
      "type": "event"
    },
    {
      "anonymous": false,
      "inputs": [
        {
          "indexed": true,
          "internalType": "address",
          "name": "sender",
          "type": "address"
        },
        {
          "indexed": true,
          "internalType": "address",
          "name": "account",
          "type": "address"
        },
        {
          "indexed": false,
          "internalType": "uint256",
          "name": "version",
          "type": "uint256"
        },
        {
          "indexed": false,
          "internalType": "UFixed6",
          "name": "newMaker",
          "type": "uint256"
        },
        {
          "indexed": false,
          "internalType": "UFixed6",
          "name": "newLong",
          "type": "uint256"
        },
        {
          "indexed": false,
          "internalType": "UFixed6",
          "name": "newShort",
          "type": "uint256"
        },
        {
          "indexed": false,
          "internalType": "Fixed6",
          "name": "collateral",
          "type": "int256"
        },
        {
          "indexed": false,
          "internalType": "bool",
          "name": "protect",
          "type": "bool"
        }
      ],
      "name": "Updated",
      "type": "event"
    },
    {
      "inputs": [],
      "name": "claimFee",
      "outputs": [],
      "stateMutability": "nonpayable",
      "type": "function"
    },
    {
      "inputs": [],
      "name": "factory",
      "outputs": [
        {
          "internalType": "contract IFactory",
          "name": "",
          "type": "address"
        }
      ],
      "stateMutability": "view",
      "type": "function"
    },
    {
      "inputs": [],
      "name": "global",
      "outputs": [
        {
          "components": [
            {
              "internalType": "uint256",
              "name": "currentId",
              "type": "uint256"
            },
            {
              "internalType": "uint256",
              "name": "latestId",
              "type": "uint256"
            },
            {
              "internalType": "UFixed6",
              "name": "protocolFee",
              "type": "uint256"
            },
            {
              "internalType": "UFixed6",
              "name": "oracleFee",
              "type": "uint256"
            },
            {
              "internalType": "UFixed6",
              "name": "riskFee",
              "type": "uint256"
            },
            {
              "internalType": "UFixed6",
              "name": "donation",
              "type": "uint256"
            },
            {
              "components": [
                {
                  "internalType": "Fixed6",
                  "name": "_value",
                  "type": "int256"
                },
                {
                  "internalType": "Fixed6",
                  "name": "_skew",
                  "type": "int256"
                }
              ],
              "internalType": "struct PAccumulator6",
              "name": "pAccumulator",
              "type": "tuple"
            },
            {
              "internalType": "Fixed6",
              "name": "latestPrice",
              "type": "int256"
            }
          ],
          "internalType": "struct Global",
          "name": "",
          "type": "tuple"
        }
      ],
      "stateMutability": "view",
      "type": "function"
    },
    {
      "inputs": [
        {
          "components": [
            {
              "internalType": "Token18",
              "name": "token",
              "type": "address"
            },
            {
              "internalType": "contract IOracleProvider",
              "name": "oracle",
              "type": "address"
            },
            {
              "internalType": "contract IPayoffProvider",
              "name": "payoff",
              "type": "address"
            }
          ],
          "internalType": "struct IMarket.MarketDefinition",
          "name": "definition_",
          "type": "tuple"
        }
      ],
      "name": "initialize",
      "outputs": [],
      "stateMutability": "nonpayable",
      "type": "function"
    },
    {
      "inputs": [
        {
          "internalType": "address",
          "name": "account",
          "type": "address"
        }
      ],
      "name": "locals",
      "outputs": [
        {
          "components": [
            {
              "internalType": "uint256",
              "name": "currentId",
              "type": "uint256"
            },
            {
              "internalType": "uint256",
              "name": "latestId",
              "type": "uint256"
            },
            {
              "internalType": "Fixed6",
              "name": "collateral",
              "type": "int256"
            },
            {
              "internalType": "UFixed6",
              "name": "reward",
              "type": "uint256"
            },
            {
              "internalType": "uint256",
              "name": "protection",
              "type": "uint256"
            },
            {
              "internalType": "address",
              "name": "protectionInitiator",
              "type": "address"
            },
            {
              "internalType": "UFixed6",
              "name": "protectionAmount",
              "type": "uint256"
            }
          ],
          "internalType": "struct Local",
          "name": "",
          "type": "tuple"
        }
      ],
      "stateMutability": "view",
      "type": "function"
    },
    {
      "inputs": [],
      "name": "oracle",
      "outputs": [
        {
          "internalType": "contract IOracleProvider",
          "name": "",
          "type": "address"
        }
      ],
      "stateMutability": "view",
      "type": "function"
    },
    {
      "inputs": [],
      "name": "parameter",
      "outputs": [
        {
          "components": [
            {
              "internalType": "UFixed6",
              "name": "fundingFee",
              "type": "uint256"
            },
            {
              "internalType": "UFixed6",
              "name": "interestFee",
              "type": "uint256"
            },
            {
              "internalType": "UFixed6",
              "name": "positionFee",
              "type": "uint256"
            },
            {
              "internalType": "UFixed6",
              "name": "oracleFee",
              "type": "uint256"
            },
            {
              "internalType": "UFixed6",
              "name": "riskFee",
              "type": "uint256"
            },
            {
              "internalType": "uint256",
              "name": "maxPendingGlobal",
              "type": "uint256"
            },
            {
              "internalType": "uint256",
              "name": "maxPendingLocal",
              "type": "uint256"
            },
            {
              "internalType": "UFixed6",
              "name": "makerRewardRate",
              "type": "uint256"
            },
            {
              "internalType": "UFixed6",
              "name": "longRewardRate",
              "type": "uint256"
            },
            {
              "internalType": "UFixed6",
              "name": "shortRewardRate",
              "type": "uint256"
            },
            {
              "internalType": "UFixed6",
              "name": "settlementFee",
              "type": "uint256"
            },
            {
              "internalType": "bool",
              "name": "takerCloseAlways",
              "type": "bool"
            },
            {
              "internalType": "bool",
              "name": "makerCloseAlways",
              "type": "bool"
            },
            {
              "internalType": "bool",
              "name": "closed",
              "type": "bool"
            },
            {
              "internalType": "bool",
              "name": "settle",
              "type": "bool"
            }
          ],
          "internalType": "struct MarketParameter",
          "name": "",
          "type": "tuple"
        }
      ],
      "stateMutability": "view",
      "type": "function"
    },
    {
      "inputs": [],
      "name": "payoff",
      "outputs": [
        {
          "internalType": "contract IPayoffProvider",
          "name": "",
          "type": "address"
        }
      ],
      "stateMutability": "view",
      "type": "function"
    },
    {
      "inputs": [
        {
          "internalType": "uint256",
          "name": "id",
          "type": "uint256"
        }
      ],
      "name": "pendingPosition",
      "outputs": [
        {
          "components": [
            {
              "internalType": "uint256",
              "name": "timestamp",
              "type": "uint256"
            },
            {
              "internalType": "UFixed6",
              "name": "maker",
              "type": "uint256"
            },
            {
              "internalType": "UFixed6",
              "name": "long",
              "type": "uint256"
            },
            {
              "internalType": "UFixed6",
              "name": "short",
              "type": "uint256"
            },
            {
              "internalType": "Fixed6",
              "name": "fee",
              "type": "int256"
            },
            {
              "internalType": "UFixed6",
              "name": "keeper",
              "type": "uint256"
            },
            {
              "internalType": "Fixed6",
              "name": "collateral",
              "type": "int256"
            },
            {
              "internalType": "Fixed6",
              "name": "delta",
              "type": "int256"
            },
            {
              "components": [
                {
                  "internalType": "Fixed6",
                  "name": "maker",
                  "type": "int256"
                },
                {
                  "internalType": "Fixed6",
                  "name": "long",
                  "type": "int256"
                },
                {
                  "internalType": "Fixed6",
                  "name": "short",
                  "type": "int256"
                }
              ],
              "internalType": "struct Invalidation",
              "name": "invalidation",
              "type": "tuple"
            }
          ],
          "internalType": "struct Position",
          "name": "",
          "type": "tuple"
        }
      ],
      "stateMutability": "view",
      "type": "function"
    },
    {
      "inputs": [
        {
          "internalType": "address",
          "name": "account",
          "type": "address"
        },
        {
          "internalType": "uint256",
          "name": "id",
          "type": "uint256"
        }
      ],
      "name": "pendingPositions",
      "outputs": [
        {
          "components": [
            {
              "internalType": "uint256",
              "name": "timestamp",
              "type": "uint256"
            },
            {
              "internalType": "UFixed6",
              "name": "maker",
              "type": "uint256"
            },
            {
              "internalType": "UFixed6",
              "name": "long",
              "type": "uint256"
            },
            {
              "internalType": "UFixed6",
              "name": "short",
              "type": "uint256"
            },
            {
              "internalType": "Fixed6",
              "name": "fee",
              "type": "int256"
            },
            {
              "internalType": "UFixed6",
              "name": "keeper",
              "type": "uint256"
            },
            {
              "internalType": "Fixed6",
              "name": "collateral",
              "type": "int256"
            },
            {
              "internalType": "Fixed6",
              "name": "delta",
              "type": "int256"
            },
            {
              "components": [
                {
                  "internalType": "Fixed6",
                  "name": "maker",
                  "type": "int256"
                },
                {
                  "internalType": "Fixed6",
                  "name": "long",
                  "type": "int256"
                },
                {
                  "internalType": "Fixed6",
                  "name": "short",
                  "type": "int256"
                }
              ],
              "internalType": "struct Invalidation",
              "name": "invalidation",
              "type": "tuple"
            }
          ],
          "internalType": "struct Position",
          "name": "",
          "type": "tuple"
        }
      ],
      "stateMutability": "view",
      "type": "function"
    },
    {
      "inputs": [],
      "name": "position",
      "outputs": [
        {
          "components": [
            {
              "internalType": "uint256",
              "name": "timestamp",
              "type": "uint256"
            },
            {
              "internalType": "UFixed6",
              "name": "maker",
              "type": "uint256"
            },
            {
              "internalType": "UFixed6",
              "name": "long",
              "type": "uint256"
            },
            {
              "internalType": "UFixed6",
              "name": "short",
              "type": "uint256"
            },
            {
              "internalType": "Fixed6",
              "name": "fee",
              "type": "int256"
            },
            {
              "internalType": "UFixed6",
              "name": "keeper",
              "type": "uint256"
            },
            {
              "internalType": "Fixed6",
              "name": "collateral",
              "type": "int256"
            },
            {
              "internalType": "Fixed6",
              "name": "delta",
              "type": "int256"
            },
            {
              "components": [
                {
                  "internalType": "Fixed6",
                  "name": "maker",
                  "type": "int256"
                },
                {
                  "internalType": "Fixed6",
                  "name": "long",
                  "type": "int256"
                },
                {
                  "internalType": "Fixed6",
                  "name": "short",
                  "type": "int256"
                }
              ],
              "internalType": "struct Invalidation",
              "name": "invalidation",
              "type": "tuple"
            }
          ],
          "internalType": "struct Position",
          "name": "",
          "type": "tuple"
        }
      ],
      "stateMutability": "view",
      "type": "function"
    },
    {
      "inputs": [
        {
          "internalType": "address",
          "name": "account",
          "type": "address"
        }
      ],
      "name": "positions",
      "outputs": [
        {
          "components": [
            {
              "internalType": "uint256",
              "name": "timestamp",
              "type": "uint256"
            },
            {
              "internalType": "UFixed6",
              "name": "maker",
              "type": "uint256"
            },
            {
              "internalType": "UFixed6",
              "name": "long",
              "type": "uint256"
            },
            {
              "internalType": "UFixed6",
              "name": "short",
              "type": "uint256"
            },
            {
              "internalType": "Fixed6",
              "name": "fee",
              "type": "int256"
            },
            {
              "internalType": "UFixed6",
              "name": "keeper",
              "type": "uint256"
            },
            {
              "internalType": "Fixed6",
              "name": "collateral",
              "type": "int256"
            },
            {
              "internalType": "Fixed6",
              "name": "delta",
              "type": "int256"
            },
            {
              "components": [
                {
                  "internalType": "Fixed6",
                  "name": "maker",
                  "type": "int256"
                },
                {
                  "internalType": "Fixed6",
                  "name": "long",
                  "type": "int256"
                },
                {
                  "internalType": "Fixed6",
                  "name": "short",
                  "type": "int256"
                }
              ],
              "internalType": "struct Invalidation",
              "name": "invalidation",
              "type": "tuple"
            }
          ],
          "internalType": "struct Position",
          "name": "",
          "type": "tuple"
        }
      ],
      "stateMutability": "view",
      "type": "function"
    },
    {
      "inputs": [],
      "name": "riskParameter",
      "outputs": [
        {
          "components": [
            {
              "internalType": "UFixed6",
              "name": "margin",
              "type": "uint256"
            },
            {
              "internalType": "UFixed6",
              "name": "maintenance",
              "type": "uint256"
            },
            {
              "internalType": "UFixed6",
              "name": "takerFee",
              "type": "uint256"
            },
            {
              "internalType": "UFixed6",
              "name": "takerSkewFee",
              "type": "uint256"
            },
            {
              "internalType": "UFixed6",
              "name": "takerImpactFee",
              "type": "uint256"
            },
            {
              "internalType": "UFixed6",
              "name": "makerFee",
              "type": "uint256"
            },
            {
              "internalType": "UFixed6",
              "name": "makerImpactFee",
              "type": "uint256"
            },
            {
              "internalType": "UFixed6",
              "name": "makerLimit",
              "type": "uint256"
            },
            {
              "internalType": "UFixed6",
              "name": "efficiencyLimit",
              "type": "uint256"
            },
            {
              "internalType": "UFixed6",
              "name": "liquidationFee",
              "type": "uint256"
            },
            {
              "internalType": "UFixed6",
              "name": "minLiquidationFee",
              "type": "uint256"
            },
            {
              "internalType": "UFixed6",
              "name": "maxLiquidationFee",
              "type": "uint256"
            },
            {
              "components": [
                {
                  "internalType": "UFixed6",
                  "name": "minRate",
                  "type": "uint256"
                },
                {
                  "internalType": "UFixed6",
                  "name": "maxRate",
                  "type": "uint256"
                },
                {
                  "internalType": "UFixed6",
                  "name": "targetRate",
                  "type": "uint256"
                },
                {
                  "internalType": "UFixed6",
                  "name": "targetUtilization",
                  "type": "uint256"
                }
              ],
              "internalType": "struct UJumpRateUtilizationCurve6",
              "name": "utilizationCurve",
              "type": "tuple"
            },
            {
              "components": [
                {
                  "internalType": "UFixed6",
                  "name": "k",
                  "type": "uint256"
                },
                {
                  "internalType": "UFixed6",
                  "name": "max",
                  "type": "uint256"
                }
              ],
              "internalType": "struct PController6",
              "name": "pController",
              "type": "tuple"
            },
            {
              "internalType": "UFixed6",
              "name": "minMargin",
              "type": "uint256"
            },
            {
              "internalType": "UFixed6",
              "name": "minMaintenance",
              "type": "uint256"
            },
            {
              "internalType": "UFixed6",
              "name": "skewScale",
              "type": "uint256"
            },
            {
              "internalType": "uint256",
              "name": "staleAfter",
              "type": "uint256"
            },
            {
              "internalType": "bool",
              "name": "makerReceiveOnly",
              "type": "bool"
            }
          ],
          "internalType": "struct RiskParameter",
          "name": "",
          "type": "tuple"
        }
      ],
      "stateMutability": "view",
      "type": "function"
    },
    {
      "inputs": [
        {
          "internalType": "address",
          "name": "account",
          "type": "address"
        }
      ],
      "name": "settle",
      "outputs": [],
      "stateMutability": "nonpayable",
      "type": "function"
    },
    {
      "inputs": [],
      "name": "token",
      "outputs": [
        {
          "internalType": "Token18",
          "name": "",
          "type": "address"
        }
      ],
      "stateMutability": "view",
      "type": "function"
    },
    {
      "inputs": [
        {
          "internalType": "address",
          "name": "account",
          "type": "address"
        },
        {
          "internalType": "UFixed6",
          "name": "newMaker",
          "type": "uint256"
        },
        {
          "internalType": "UFixed6",
          "name": "newLong",
          "type": "uint256"
        },
        {
          "internalType": "UFixed6",
          "name": "newShort",
          "type": "uint256"
        },
        {
          "internalType": "Fixed6",
          "name": "collateral",
          "type": "int256"
        },
        {
          "internalType": "bool",
          "name": "protect",
          "type": "bool"
        }
      ],
      "name": "update",
      "outputs": [],
      "stateMutability": "nonpayable",
      "type": "function"
    },
    {
      "inputs": [
        {
          "internalType": "address",
          "name": "newBeneficiary",
          "type": "address"
        },
        {
          "internalType": "address",
          "name": "newCoordinator",
          "type": "address"
        },
        {
          "components": [
            {
              "internalType": "UFixed6",
              "name": "fundingFee",
              "type": "uint256"
            },
            {
              "internalType": "UFixed6",
              "name": "interestFee",
              "type": "uint256"
            },
            {
              "internalType": "UFixed6",
              "name": "positionFee",
              "type": "uint256"
            },
            {
              "internalType": "UFixed6",
              "name": "oracleFee",
              "type": "uint256"
            },
            {
              "internalType": "UFixed6",
              "name": "riskFee",
              "type": "uint256"
            },
            {
              "internalType": "uint256",
              "name": "maxPendingGlobal",
              "type": "uint256"
            },
            {
              "internalType": "uint256",
              "name": "maxPendingLocal",
              "type": "uint256"
            },
            {
              "internalType": "UFixed6",
              "name": "makerRewardRate",
              "type": "uint256"
            },
            {
              "internalType": "UFixed6",
              "name": "longRewardRate",
              "type": "uint256"
            },
            {
              "internalType": "UFixed6",
              "name": "shortRewardRate",
              "type": "uint256"
            },
            {
              "internalType": "UFixed6",
              "name": "settlementFee",
              "type": "uint256"
            },
            {
              "internalType": "bool",
              "name": "takerCloseAlways",
              "type": "bool"
            },
            {
              "internalType": "bool",
              "name": "makerCloseAlways",
              "type": "bool"
            },
            {
              "internalType": "bool",
              "name": "closed",
              "type": "bool"
            },
            {
              "internalType": "bool",
              "name": "settle",
              "type": "bool"
            }
          ],
          "internalType": "struct MarketParameter",
          "name": "newParameter",
          "type": "tuple"
        }
      ],
      "name": "updateParameter",
      "outputs": [],
      "stateMutability": "nonpayable",
      "type": "function"
    },
    {
      "inputs": [
        {
          "components": [
            {
              "internalType": "UFixed6",
              "name": "margin",
              "type": "uint256"
            },
            {
              "internalType": "UFixed6",
              "name": "maintenance",
              "type": "uint256"
            },
            {
              "internalType": "UFixed6",
              "name": "takerFee",
              "type": "uint256"
            },
            {
              "internalType": "UFixed6",
              "name": "takerSkewFee",
              "type": "uint256"
            },
            {
              "internalType": "UFixed6",
              "name": "takerImpactFee",
              "type": "uint256"
            },
            {
              "internalType": "UFixed6",
              "name": "makerFee",
              "type": "uint256"
            },
            {
              "internalType": "UFixed6",
              "name": "makerImpactFee",
              "type": "uint256"
            },
            {
              "internalType": "UFixed6",
              "name": "makerLimit",
              "type": "uint256"
            },
            {
              "internalType": "UFixed6",
              "name": "efficiencyLimit",
              "type": "uint256"
            },
            {
              "internalType": "UFixed6",
              "name": "liquidationFee",
              "type": "uint256"
            },
            {
              "internalType": "UFixed6",
              "name": "minLiquidationFee",
              "type": "uint256"
            },
            {
              "internalType": "UFixed6",
              "name": "maxLiquidationFee",
              "type": "uint256"
            },
            {
              "components": [
                {
                  "internalType": "UFixed6",
                  "name": "minRate",
                  "type": "uint256"
                },
                {
                  "internalType": "UFixed6",
                  "name": "maxRate",
                  "type": "uint256"
                },
                {
                  "internalType": "UFixed6",
                  "name": "targetRate",
                  "type": "uint256"
                },
                {
                  "internalType": "UFixed6",
                  "name": "targetUtilization",
                  "type": "uint256"
                }
              ],
              "internalType": "struct UJumpRateUtilizationCurve6",
              "name": "utilizationCurve",
              "type": "tuple"
            },
            {
              "components": [
                {
                  "internalType": "UFixed6",
                  "name": "k",
                  "type": "uint256"
                },
                {
                  "internalType": "UFixed6",
                  "name": "max",
                  "type": "uint256"
                }
              ],
              "internalType": "struct PController6",
              "name": "pController",
              "type": "tuple"
            },
            {
              "internalType": "UFixed6",
              "name": "minMargin",
              "type": "uint256"
            },
            {
              "internalType": "UFixed6",
              "name": "minMaintenance",
              "type": "uint256"
            },
            {
              "internalType": "UFixed6",
              "name": "skewScale",
              "type": "uint256"
            },
            {
              "internalType": "uint256",
              "name": "staleAfter",
              "type": "uint256"
            },
            {
              "internalType": "bool",
              "name": "makerReceiveOnly",
              "type": "bool"
            }
          ],
          "internalType": "struct RiskParameter",
          "name": "newRiskParameter",
          "type": "tuple"
        }
      ],
      "name": "updateRiskParameter",
      "outputs": [],
      "stateMutability": "nonpayable",
      "type": "function"
    },
    {
      "inputs": [
        {
          "internalType": "uint256",
          "name": "timestamp",
          "type": "uint256"
        }
      ],
      "name": "versions",
      "outputs": [
        {
          "components": [
            {
              "internalType": "bool",
              "name": "valid",
              "type": "bool"
            },
            {
              "components": [
                {
                  "internalType": "Fixed6",
                  "name": "_value",
                  "type": "int256"
                }
              ],
              "internalType": "struct Accumulator6",
              "name": "makerValue",
              "type": "tuple"
            },
            {
              "components": [
                {
                  "internalType": "Fixed6",
                  "name": "_value",
                  "type": "int256"
                }
              ],
              "internalType": "struct Accumulator6",
              "name": "longValue",
              "type": "tuple"
            },
            {
              "components": [
                {
                  "internalType": "Fixed6",
                  "name": "_value",
                  "type": "int256"
                }
              ],
              "internalType": "struct Accumulator6",
              "name": "shortValue",
              "type": "tuple"
            },
            {
              "components": [
                {
                  "internalType": "UFixed6",
                  "name": "_value",
                  "type": "uint256"
                }
              ],
              "internalType": "struct UAccumulator6",
              "name": "makerReward",
              "type": "tuple"
            },
            {
              "components": [
                {
                  "internalType": "UFixed6",
                  "name": "_value",
                  "type": "uint256"
                }
              ],
              "internalType": "struct UAccumulator6",
              "name": "longReward",
              "type": "tuple"
            },
            {
              "components": [
                {
                  "internalType": "UFixed6",
                  "name": "_value",
                  "type": "uint256"
                }
              ],
              "internalType": "struct UAccumulator6",
              "name": "shortReward",
              "type": "tuple"
            }
          ],
          "internalType": "struct Version",
          "name": "",
          "type": "tuple"
        }
      ],
      "stateMutability": "view",
      "type": "function"
    }
  ],
  "bytecode": "0x608060405234801562000010575f80fd5b5061a9f1806200001f5f395ff3fe608060405234801561000f575f80fd5b50600436106100ef575f3560e01c806309218e91146100f35780634549a629146101115780634c33f2531461012f57806355f575101461014b5780635b4b96951461017b5780636a256b29146101ab5780637dc0d1d0146101c757806387aee00e146101e557806391eece281461021557806395fcd8361461023157806399d32fc41461024f578063a05f990614610259578063a1d0a11314610277578063ad4d4e29146102a7578063b329230e146102c5578063c45a0155146102e1578063ce813aed146102ff578063d26b3e261461032f578063fc0c546a1461034b575b5f80fd5b6100fb610369565b60405161010891906183d5565b60405180910390f35b610119610380565b6040516101269190618610565b60405180910390f35b610149600480360381019061014491906188fc565b610407565b005b6101656004803603810190610160919061894d565b610714565b60405161017291906183d5565b60405180910390f35b6101956004803603810190610190919061894d565b610768565b6040516101a29190618a13565b60405180910390f35b6101c560048036038101906101c0919061894d565b6107bc565b005b6101cf610955565b6040516101dc9190618a7e565b60405180910390f35b6101ff60048036038101906101fa9190618a97565b61097a565b60405161020c9190618b82565b60405180910390f35b61022f600480360381019061022a9190618bc5565b6109a2565b005b610239610b4f565b6040516102469190618c6e565b60405180910390f35b610257610b74565b005b610261610d38565b60405161026e9190618d55565b60405180910390f35b610291600480360381019061028c9190618a97565b610d4f565b60405161029e91906183d5565b60405180910390f35b6102af610d77565b6040516102bc9190618ea2565b60405180910390f35b6102df60048036038101906102da9190619137565b610dfe565b005b6102e9611048565b6040516102f69190619183565b60405180910390f35b6103196004803603810190610314919061919c565b611077565b60405161032691906183d5565b60405180910390f35b610349600480360381019061034491906191fc565b6110db565b005b61035361135b565b6040516103609190619247565b60405180910390f35b610371617d6c565b61037b600d61137e565b905090565b610388617db6565b600673__$4e768420a54f60460ce1a22e54c0ac8c91$__635da3780d90916040518263ffffffff1660e01b81526004016103c29190619267565b6102e060405180830381865af41580156103de573d5f803e3d5ffd5b505050506040513d601f19601f820116820180604052508101906104029190619537565b905090565b61040f611048565b73ffffffffffffffffffffffffffffffffffffffff16638da5cb5b6040518163ffffffff1660e01b8152600401602060405180830381865afa158015610457573d5f803e3d5ffd5b505050506040513d601f19601f8201168201806040525081019061047b9190619577565b73ffffffffffffffffffffffffffffffffffffffff163373ffffffffffffffffffffffffffffffffffffffff16146104ea57336040517f4d193d1f0000000000000000000000000000000000000000000000000000000081526004016104e191906195b1565b60405180910390fd5b8260045f6101000a81548173ffffffffffffffffffffffffffffffffffffffff021916908373ffffffffffffffffffffffffffffffffffffffff1602179055507feee59a71c694e68368a1cb0d135c448051bbfb12289e6c2223b0ceb100c2321d8360405161055991906195b1565b60405180910390a18160055f6101000a81548173ffffffffffffffffffffffffffffffffffffffff021916908373ffffffffffffffffffffffffffffffffffffffff1602179055507fc258faa9a17ddfdf4130b4acff63a289202e7d5f9e42f366add65368575486bc826040516105d091906195b1565b60405180910390a1600973__$5de59539e80231cbe6d02acdaf5027969e$__632062f7429091836105ff611048565b73ffffffffffffffffffffffffffffffffffffffff1663ad4d4e296040518163ffffffff1660e01b815260040160e060405180830381865afa158015610647573d5f803e3d5ffd5b505050506040513d601f19601f8201168201806040525081019061066b919061967b565b60015f9054906101000a900473ffffffffffffffffffffffffffffffffffffffff166040518563ffffffff1660e01b81526004016106ac94939291906198a8565b5f6040518083038186803b1580156106c2575f80fd5b505af41580156106d4573d5f803e3d5ffd5b505050507f4ab61a9a58a077f81502df60fb19591393851ad16ae34ccb67626a591082f963816040516107079190618ea2565b60405180910390a1505050565b61071c617d6c565b61076160115f8473ffffffffffffffffffffffffffffffffffffffff1673ffffffffffffffffffffffffffffffffffffffff1681526020019081526020015f2061143c565b9050919050565b610770617e45565b6107b560105f8473ffffffffffffffffffffffffffffffffffffffff1673ffffffffffffffffffffffffffffffffffffffff1681526020019081526020015f20611538565b9050919050565b60026107e77fa9c835c21e93a672e5a6ef8ca0374f90b7d4378f7eec5769dcf22fdefd60ffae6115d7565b0361081e576040517f8becf01200000000000000000000000000000000000000000000000000000000815260040160405180910390fd5b61085260027fa9c835c21e93a672e5a6ef8ca0374f90b7d4378f7eec5769dcf22fdefd60ffae6115e190919063ffffffff16565b61085a611048565b73ffffffffffffffffffffffffffffffffffffffff16635c975abb6040518163ffffffff1660e01b8152600401602060405180830381865afa1580156108a2573d5f803e3d5ffd5b505050506040513d601f19601f820116820180604052508101906108c691906198ee565b156108fd576040517f4b94d2bb00000000000000000000000000000000000000000000000000000000815260040160405180910390fd5b5f610907826115e8565b90506109138183611807565b61091d8183611b25565b5061095260017fa9c835c21e93a672e5a6ef8ca0374f90b7d4378f7eec5769dcf22fdefd60ffae6115e190919063ffffffff16565b50565b60025f9054906101000a900473ffffffffffffffffffffffffffffffffffffffff1681565b610982617e91565b61099b60135f8481526020019081526020015f20611b94565b9050919050565b60026109cd7fa9c835c21e93a672e5a6ef8ca0374f90b7d4378f7eec5769dcf22fdefd60ffae6115d7565b03610a04576040517f8becf01200000000000000000000000000000000000000000000000000000000815260040160405180910390fd5b610a3860027fa9c835c21e93a672e5a6ef8ca0374f90b7d4378f7eec5769dcf22fdefd60ffae6115e190919063ffffffff16565b610a40611048565b73ffffffffffffffffffffffffffffffffffffffff16635c975abb6040518163ffffffff1660e01b8152600401602060405180830381865afa158015610a88573d5f803e3d5ffd5b505050506040513d601f19601f82011682018060405250810190610aac91906198ee565b15610ae3576040517f4b94d2bb00000000000000000000000000000000000000000000000000000000815260040160405180910390fd5b5f610aed876115e8565b9050610af98188611807565b610b0881888888888888611c76565b610b128188611b25565b50610b4760017fa9c835c21e93a672e5a6ef8ca0374f90b7d4378f7eec5769dcf22fdefd60ffae6115e190919063ffffffff16565b505050505050565b60035f9054906101000a900473ffffffffffffffffffffffffffffffffffffffff1681565b5f610b7f600b61216a565b9050610c02610b8c611048565b73ffffffffffffffffffffffffffffffffffffffff16638da5cb5b6040518163ffffffff1660e01b8152600401602060405180830381865afa158015610bd4573d5f803e3d5ffd5b505050506040513d601f19601f82011682018060405250810190610bf89190619577565b826040015161221d565b15610c12575f8160400181815250505b610c93610c1d611048565b73ffffffffffffffffffffffffffffffffffffffff1663c7f7fb906040518163ffffffff1660e01b8152600401602060405180830381865afa158015610c65573d5f803e3d5ffd5b505050506040513d601f19601f82011682018060405250810190610c899190619954565b826060015161221d565b15610ca3575f8160600181815250505b610cd260055f9054906101000a900473ffffffffffffffffffffffffffffffffffffffff16826080015161221d565b15610ce2575f8160800181815250505b610d1160045f9054906101000a900473ffffffffffffffffffffffffffffffffffffffff168260a0015161221d565b15610d21575f8160a00181815250505b610d3581600b61230490919063ffffffff16565b50565b610d40617ef3565b610d4a600b61216a565b905090565b610d57617d6c565b610d70600f5f8481526020019081526020015f2061137e565b9050919050565b610d7f617f37565b600973__$5de59539e80231cbe6d02acdaf5027969e$__63e3b2ae7c90916040518263ffffffff1660e01b8152600401610db9919061997f565b6101e060405180830381865af4158015610dd5573d5f803e3d5ffd5b505050506040513d601f19601f82011682018060405250810190610df99190619af9565b905090565b60055f9054906101000a900473ffffffffffffffffffffffffffffffffffffffff1673ffffffffffffffffffffffffffffffffffffffff163373ffffffffffffffffffffffffffffffffffffffff1614158015610efa5750610e5e611048565b73ffffffffffffffffffffffffffffffffffffffff16638da5cb5b6040518163ffffffff1660e01b8152600401602060405180830381865afa158015610ea6573d5f803e3d5ffd5b505050506040513d601f19601f82011682018060405250810190610eca9190619577565b73ffffffffffffffffffffffffffffffffffffffff163373ffffffffffffffffffffffffffffffffffffffff1614155b15610f31576040517f9bca062500000000000000000000000000000000000000000000000000000000815260040160405180910390fd5b600673__$4e768420a54f60460ce1a22e54c0ac8c91$__630a40f1e4909183610f58611048565b73ffffffffffffffffffffffffffffffffffffffff1663ad4d4e296040518163ffffffff1660e01b815260040160e060405180830381865afa158015610fa0573d5f803e3d5ffd5b505050506040513d601f19601f82011682018060405250810190610fc4919061967b565b6040518463ffffffff1660e01b8152600401610fe293929190619d2c565b5f6040518083038186803b158015610ff8575f80fd5b505af415801561100a573d5f803e3d5ffd5b505050507f823c5e592916c45a8b43a655f22eb029f79dfd3c63f6d122df594aaf83e09b028160405161103d9190618610565b60405180910390a150565b5f6110727f0aec74a1754fb10877b53c31a29be82096082042eb1fb374ec96fac88c0e621b6127da565b905090565b61107f617d6c565b6110d360125f8573ffffffffffffffffffffffffffffffffffffffff1673ffffffffffffffffffffffffffffffffffffffff1681526020019081526020015f205f8481526020019081526020015f2061143c565b905092915050565b60015f8103611116576040517fbd40ddcd00000000000000000000000000000000000000000000000000000000815260040160405180910390fd5b806111407f6fee9688c285c5c5c97d6a1a29adced674e6b2ad0888b8ad2116b58a8b3ea2486115d7565b1061118257806040517f3db738da0000000000000000000000000000000000000000000000000000000081526004016111799190619d72565b60405180910390fd5b6111b5817f6fee9688c285c5c5c97d6a1a29adced674e6b2ad0888b8ad2116b58a8b3ea2486115e190919063ffffffff16565b6111e960017f2801b00eb06461cf9fcb9758b5fafd884ff06a86177386f73b6c49f0bf5a5af06127e490919063ffffffff16565b6111f16127eb565b6111f9612892565b815f01602081019061120b9190619db5565b5f806101000a81548173ffffffffffffffffffffffffffffffffffffffff021916908373ffffffffffffffffffffffffffffffffffffffff16021790555081602001602081019061125c9190619e1b565b60025f6101000a81548173ffffffffffffffffffffffffffffffffffffffff021916908373ffffffffffffffffffffffffffffffffffffffff1602179055508160400160208101906112ae9190619e81565b60035f6101000a81548173ffffffffffffffffffffffffffffffffffffffff021916908373ffffffffffffffffffffffffffffffffffffffff1602179055506113205f7f2801b00eb06461cf9fcb9758b5fafd884ff06a86177386f73b6c49f0bf5a5af06127e490919063ffffffff16565b7fbe9b076dc5b65990cca9dd9d7366682482e7817a6f6bc7f4faf4dc32af497f328160405161134f9190619d72565b60405180910390a15050565b5f8054906101000a900473ffffffffffffffffffffffffffffffffffffffff1681565b611386617d6c565b5f80835f015484600101549150915060405180610120016040528060e08085901b901c815260200160c08084901b901c815260200160c0604085901b901c815260200160c05f85901b901c815260200160d060b085901b901d815260200160d0608085901b901c81526020015f81526020015f8152602001604051806060016040528060c0608086901b901d815260200160c0604086901b901d815260200160c05f86901b901d81525081525092505050919050565b611444617d6c565b5f80835f01548460010154915091505f60fe8083901b901c90505f60c260c084901b901c905060405180610120016040528060e08087901b901c81526020015f8414611490575f611492565b825b8152602001600184146114a5575f6114a7565b825b8152602001600284146114ba575f6114bc565b825b815260200160d060b087901b901d815260200160d0608087901b901c815260200160c0604087901b901d815260200160c05f87901b901d8152602001604051806060016040528060c0608088901b901d815260200160c0604088901b901d815260200160c05f88901b901d815250815250945050505050919050565b611540617e45565b5f80835f01548460010154915091506040518060e0016040528060e08085901b901c815260200160e060c085901b901c815260200160c0608085901b901d815260200160c0604085901b901c815260200160e0602085901b901c815260200160608084901b901c73ffffffffffffffffffffffffffffffffffffffff16815260200160c0602084901b901c81525092505050919050565b5f81549050919050565b8082555050565b6115f0617fa6565b6115f8611048565b73ffffffffffffffffffffffffffffffffffffffff1663ad4d4e296040518163ffffffff1660e01b815260040160e060405180830381865afa158015611640573d5f803e3d5ffd5b505050506040513d601f19601f82011682018060405250810190611664919061967b565b815f0181905250600973__$5de59539e80231cbe6d02acdaf5027969e$__63e3b2ae7c90916040518263ffffffff1660e01b81526004016116a5919061997f565b6101e060405180830381865af41580156116c1573d5f803e3d5ffd5b505050506040513d601f19601f820116820180604052508101906116e59190619af9565b8160200181905250600673__$4e768420a54f60460ce1a22e54c0ac8c91$__635da3780d90916040518263ffffffff1660e01b81526004016117279190619267565b6102e060405180830381865af4158015611743573d5f803e3d5ffd5b505050506040513d601f19601f820116820180604052508101906117679190619537565b8160400181905250611779600b61216a565b8160c001819052506117c660105f8473ffffffffffffffffffffffffffffffffffffffff1673ffffffffffffffffffffffffffffffffffffffff1681526020019081526020015f20611538565b8160e001819052506117d661293a565b82608001836060018281525082905250506117fa816117f5600d61137e565b6129e6565b8160a00181905250919050565b611811600d61137e565b8261012001515f018190525061186260115f8373ffffffffffffffffffffffffffffffffffffffff1673ffffffffffffffffffffffffffffffffffffffff1681526020019081526020015f2061143c565b82610120015160200181905250611877617d6c565b5b8260c00151602001518360c001515f0151141580156118ca57506118c983608001516118b88560018760c00151602001516118b39190619ed9565b612a1e565b925082612a6290919063ffffffff16565b5b156118f3576118ee8360018560c00151602001516118e89190619ed9565b83612a75565b611878565b5b8260e00151602001518360e001515f01511415801561194757506119468360800151611935858560018860e00151602001516119309190619ed9565b612c00565b925082612a6290919063ffffffff16565b5b156119e1575f6119a960125f8573ffffffffffffffffffffffffffffffffffffffff1673ffffffffffffffffffffffffffffffffffffffff1681526020019081526020015f205f8660e001516020015181526020019081526020015f2061143c565b60e0015190506119cf848460018760e00151602001516119c99190619ed9565b85612c81565b6119db84848385612e8b565b506118f4565b8261012001515f01515f015183608001515f01511115611a3a57611a0d838460c0015160200151612a1e565b9050611a2683608001518261305490919063ffffffff16565b611a39838460c001516020015183612a75565b5b826101200151602001515f015183608001515f01511115611a9657611a6883838560e0015160200151612c00565b9050611a8183608001518261305490919063ffffffff16565b611a9583838560e001516020015184612c81565b5b8260c0015160e0015183608001516020018181525050611ac88361012001515f0151600d61307890919063ffffffff16565b611b208361012001516020015160115f8573ffffffffffffffffffffffffffffffffffffffff1673ffffffffffffffffffffffffffffffffffffffff1681526020019081526020015f2061322390919063ffffffff16565b505050565b611b3d8260c00151600b61230490919063ffffffff16565b611b908260e0015160105f8473ffffffffffffffffffffffffffffffffffffffff1673ffffffffffffffffffffffffffffffffffffffff1681526020019081526020015f2061341090919063ffffffff16565b5050565b611b9c617e91565b5f80835f01548460010154915091506040518060e001604052805f60f88086901b901c141515158152602001604051806020016040528060c060b887901b901d8152508152602001604051806020016040528060c0607887901b901d8152508152602001604051806020016040528060c0603887901b901d8152508152602001604051806020016040528060c08086901b901c8152508152602001604051806020016040528060c0608086901b901c8152508152602001604051806020016040528060c0604086901b901c81525081525092505050919050565b86602001516101c0015115611cb7576040517f5c5cb43800000000000000000000000000000000000000000000000000000000815260040160405180910390fd5b611cc187876136dd565b611ccb87836138c1565b9150611ce587886101000151602001516020015187613954565b9450611cff87886101000151602001516040015186613954565b9350611d1987886101000151602001516060015185613954565b92505f611d4288606001518787878c610100015160200151613a5d90949392919063ffffffff16565b9050611d6b8860600151828a604001518b61010001515f0151613b24909392919063ffffffff16565b611d8e886080015189602001518a6040015184613d8c909392919063ffffffff16565b611daa8189610100015160200151613f7090919063ffffffff16565b611dc5818961010001515f0151613f7090919063ffffffff16565b611ddc838960e00151613fbe90919063ffffffff16565b611df88389610100015160200151613fe290919063ffffffff16565b611e108389610160015161400690919063ffffffff16565b88610160018181525050611e2d888961010001516020015161401b565b5f611e5b89604001518a608001518b606001518533888f60e00151614123909695949392919063ffffffff16565b9050611e66826141b2565b611ef45760025f9054906101000a900473ffffffffffffffffffffffffffffffffffffffff1673ffffffffffffffffffffffffffffffffffffffff16633537d3fa308a6040518363ffffffff1660e01b8152600401611ec6929190619f2c565b5f604051808303815f87803b158015611edd575f80fd5b505af1158015611eef573d5f803e3d5ffd5b505050505b611f0189898487856141cb565b611f338961010001515f0151600f5f8c60c001515f015181526020019081526020015f2061307890919063ffffffff16565b611fa18961010001516020015160125f8b73ffffffffffffffffffffffffffffffffffffffff1673ffffffffffffffffffffffffffffffffffffffff1681526020019081526020015f205f8c60e001515f015181526020019081526020015f2061322390919063ffffffff16565b6001611fac856149be565b0361200c5761200b33611fc6611fc187614a09565b614a1a565b5f8054906101000a900473ffffffffffffffffffffffffffffffffffffffff1673ffffffffffffffffffffffffffffffffffffffff16614a339092919063ffffffff16565b5b7fffffffffffffffffffffffffffffffffffffffffffffffffffffffffffffffff612036856149be565b03612096576120953361205061204b87614a09565b614a1a565b5f8054906101000a900473ffffffffffffffffffffffffffffffffffffffff1673ffffffffffffffffffffffffffffffffffffffff16614a659092919063ffffffff16565b5b8773ffffffffffffffffffffffffffffffffffffffff163373ffffffffffffffffffffffffffffffffffffffff167f29083474b417ce11b6e16e049302e231f5d3d753484fe3e8155ea0b7ffe4f3c18b606001518a8a8a8a8a60405161210196959493929190619f80565b60405180910390a38773ffffffffffffffffffffffffffffffffffffffff167fbbbad390211bc8fbc03c550e5c69ef38db7ddb94900123f4e565339f81fb8fc68a6060015184876040516121579392919061a0a9565b60405180910390a2505050505050505050565b612172617ef3565b5f80835f015484600101549150915060405180610100016040528060e08085901b901c815260200160e060c085901b901c815260200160d0609085901b901c815260200160d0606085901b901c815260200160d0603085901b901c815260200160d05f85901b901c8152602001604051806040016040528060e08086901b901d815260200160e860c886901b901d815250815260200160c0608884901b901d81525092505050919050565b5f8273ffffffffffffffffffffffffffffffffffffffff163373ffffffffffffffffffffffffffffffffffffffff1614612259575f90506122fe565b6122ab8361226684614a1a565b5f8054906101000a900473ffffffffffffffffffffffffffffffffffffffff1673ffffffffffffffffffffffffffffffffffffffff16614a659092919063ffffffff16565b8273ffffffffffffffffffffffffffffffffffffffff167f20ca5094f3a20c321cbe4123d0f01b276b81df0fa24cd4d83d9253956035d863836040516122f1919061a0e0565b60405180910390a2600190505b92915050565b63ffffffff8016815f01511115612347576040517f2142bc2700000000000000000000000000000000000000000000000000000000815260040160405180910390fd5b63ffffffff80168160200151111561238b576040517f2142bc2700000000000000000000000000000000000000000000000000000000815260040160405180910390fd5b6123aa65ffffffffffff80168260400151614a9590919063ffffffff16565b156123e1576040517f2142bc2700000000000000000000000000000000000000000000000000000000815260040160405180910390fd5b61240065ffffffffffff80168260600151614a9590919063ffffffff16565b15612437576040517f2142bc2700000000000000000000000000000000000000000000000000000000815260040160405180910390fd5b61245665ffffffffffff80168260800151614a9590919063ffffffff16565b1561248d576040517f2142bc2700000000000000000000000000000000000000000000000000000000815260040160405180910390fd5b6124ac65ffffffffffff80168260a00151614a9590919063ffffffff16565b156124e3576040517f2142bc2700000000000000000000000000000000000000000000000000000000815260040160405180910390fd5b612504637fffffff60030b8260c001515f0151614aab90919063ffffffff16565b1561253b576040517f2142bc2700000000000000000000000000000000000000000000000000000000815260040160405180910390fd5b6125787fffffffffffffffffffffffffffffffffffffffffffffffffffffffff8000000060030b8260c001515f0151614ac190919063ffffffff16565b156125af576040517f2142bc2700000000000000000000000000000000000000000000000000000000815260040160405180910390fd5b6125d0627fffff60020b8260c0015160200151614aab90919063ffffffff16565b15612607576040517f2142bc2700000000000000000000000000000000000000000000000000000000815260040160405180910390fd5b6126457fffffffffffffffffffffffffffffffffffffffffffffffffffffffffff80000060020b8260c0015160200151614ac190919063ffffffff16565b1561267c576040517f2142bc2700000000000000000000000000000000000000000000000000000000815260040160405180910390fd5b61269e677fffffffffffffff60070b8260e00151614aab90919063ffffffff16565b156126d5576040517f2142bc2700000000000000000000000000000000000000000000000000000000815260040160405180910390fd5b61270f7fffffffffffffffffffffffffffffffffffffffffffffffff800000000000000060070b8260e00151614ac190919063ffffffff16565b15612746576040517f2142bc2700000000000000000000000000000000000000000000000000000000815260040160405180910390fd5b5f8060d08360a00151901b901c603060d08460800151901b901c606060d08560600151901b901c609060d08660400151901b901c60c060e08760200151901b901c60e080885f0151901b901c171717171790505f608860c08460e00151901b901c60c860e88560c0015160200151901b901c60e0808660c001515f0151901b901c1717905081845580600185015550505050565b5f81549050919050565b8082555050565b6127f3614ad6565b15801561282657506128247f2801b00eb06461cf9fcb9758b5fafd884ff06a86177386f73b6c49f0bf5a5af0614ae6565b155b1561285d576040517fb9a621e100000000000000000000000000000000000000000000000000000000815260040160405180910390fd5b612890337f0aec74a1754fb10877b53c31a29be82096082042eb1fb374ec96fac88c0e621b614af090919063ffffffff16565b565b61289a614ad6565b1580156128cd57506128cb7f2801b00eb06461cf9fcb9758b5fafd884ff06a86177386f73b6c49f0bf5a5af0614ae6565b155b15612904576040517fb9a621e100000000000000000000000000000000000000000000000000000000815260040160405180910390fd5b61293860017fa9c835c21e93a672e5a6ef8ca0374f90b7d4378f7eec5769dcf22fdefd60ffae6115e190919063ffffffff16565b565b612942618046565b5f60025f9054906101000a900473ffffffffffffffffffffffffffffffffffffffff1673ffffffffffffffffffffffffffffffffffffffff1663200d2ed26040518163ffffffff1660e01b8152600401608060405180830381865afa1580156129ad573d5f803e3d5ffd5b505050506040513d601f19601f820116820180604052508101906129d1919061a16e565b80925081935050506129e282614af7565b9091565b6129ee618046565b6129fa825f0151614bf5565b90508060400151612a18578260c0015160e001518160200181815250505b92915050565b612a26617d6c565b612a3f600f5f8481526020019081526020015f2061137e565b9050612a5c8361012001515f015182614ca690919063ffffffff16565b92915050565b5f825f0151825f01511015905092915050565b5f612a9a60135f8661012001515f01515f015181526020019081526020015f20611b94565b90505f612aa785846129e6565b90508060400151612ace57612acd838661012001515f0151614d6690919063ffffffff16565b5b5f808661012001515f01515f01518760c0015160200151915091505f80612b228960c001518a61012001515f0151898c60a00151898e602001518f604001518d614db890979695949392919063ffffffff16565b91509150612b41878a61012001515f0151614ef990919063ffffffff16565b612b5e8886602001518b60c00151614f339092919063ffffffff16565b612b86818860a001518b602001518c5f01518d60c00151614f4c90949392919063ffffffff16565b848960a00181905250612bb58660135f8a5f015181526020019081526020015f2061507590919063ffffffff16565b865f0151847fb7e62f90ed3551a4e4ea3d0520667e7d084c5fb661b47292451bf9bb8cc9eafc858b86604051612bed9392919061a2f4565b60405180910390a3505050505050505050565b612c08617d6c565b612c5c60125f8573ffffffffffffffffffffffffffffffffffffffff1673ffffffffffffffffffffffffffffffffffffffff1681526020019081526020015f205f8481526020019081526020015f2061143c565b9050612c7a8461012001516020015182614ca690919063ffffffff16565b9392505050565b5f612c9e60135f845f015181526020019081526020015f20611b94565b9050805f0151612cc557612cc48286610120015160200151614d6690919063ffffffff16565b5b5f80866101200151602001515f01518760e0015160200151915091505f612d2e868961012001516020015187612d1660135f8e6101200151602001515f015181526020019081526020015f20611b94565b888d60e001516154879095949392919063ffffffff16565b9050612d4c8589610120015160200151614ef990919063ffffffff16565b612d6585858a60e0015161565a9092919063ffffffff16565b15612e2a575f612db860105f8b60e0015160a0015173ffffffffffffffffffffffffffffffffffffffff1673ffffffffffffffffffffffffffffffffffffffff1681526020019081526020015f20611538565b9050612dd18960e00151826156b790919063ffffffff16565b612e288160105f8c60e0015160a0015173ffffffffffffffffffffffffffffffffffffffff1673ffffffffffffffffffffffffffffffffffffffff1681526020019081526020015f2061341090919063ffffffff16565b505b845f0151838873ffffffffffffffffffffffffffffffffffffffff167fe70b99d7f26b781c8b9ce19e28f0fd5af173ec01acfae12f9f3a3914ec74dc71858a86604051612e799392919061a37d565b60405180910390a45050505050505050565b5f612ee860125f8673ffffffffffffffffffffffffffffffffffffffff1673ffffffffffffffffffffffffffffffffffffffff1681526020019081526020015f205f8760e001516020015181526020019081526020015f2061143c565b90505f612f4660125f8773ffffffffffffffffffffffffffffffffffffffff1673ffffffffffffffffffffffffffffffffffffffff1681526020019081526020015f205f8860e001515f015181526020019081526020015f2061143c565b9050612fdd612f6a612f65858960e001516156e790919063ffffffff16565b61570a565b612fcf612f7a8660a0015161570a565b612fc18760800151612fb3612f9c8b8960e0015161577d90919063ffffffff16565b8d60e001516040015161577d90919063ffffffff16565b61400690919063ffffffff16565b61400690919063ffffffff16565b61400690919063ffffffff16565b8260c001818152505061304c8260125f8873ffffffffffffffffffffffffffffffffffffffff1673ffffffffffffffffffffffffffffffffffffffff1681526020019081526020015f205f8960e001516020015181526020019081526020015f2061322390919063ffffffff16565b505050505050565b805f01515f80845f01856080018660a0018381525083815250838152505050505050565b61308181615792565b6130a267ffffffffffffffff80168260200151614a9590919063ffffffff16565b156130d9576040517f52a8a97f00000000000000000000000000000000000000000000000000000000815260040160405180910390fd5b6130fa67ffffffffffffffff80168260400151614a9590919063ffffffff16565b15613131576040517f52a8a97f00000000000000000000000000000000000000000000000000000000815260040160405180910390fd5b61315267ffffffffffffffff80168260600151614a9590919063ffffffff16565b15613189576040517f52a8a97f00000000000000000000000000000000000000000000000000000000815260040160405180910390fd5b5f8060c08360600151901b901c604060c08460400151901b901c608060d08560a00151901b901c60b060d08660800151901b901c60e080875f0151901b901c1717171790505f8060c084610100015160400151901b901c604060c085610100015160200151901b901c608060c08661010001515f0151901b901c60c0808760200151901b901c171717905081845580600185015550505050565b61322c81615792565b61324b673fffffffffffffff8260200151614a9590919063ffffffff16565b15613282576040517f52a8a97f00000000000000000000000000000000000000000000000000000000815260040160405180910390fd5b6132a1673fffffffffffffff8260400151614a9590919063ffffffff16565b156132d8576040517f52a8a97f00000000000000000000000000000000000000000000000000000000815260040160405180910390fd5b6132f7673fffffffffffffff8260600151614a9590919063ffffffff16565b1561332e576040517f52a8a97f00000000000000000000000000000000000000000000000000000000815260040160405180910390fd5b5f61333c8260400151615d04565b613347576001613362565b6133548260600151615d04565b61335f576002613361565b5f5b5b60ff1690505f8060c08460e00151901b901c604060c08560c00151901b901c608060d08660a00151901b901c60b060d08760800151901b901c60e080885f0151901b901c1717171790505f8060c085610100015160400151901b901c604060c086610100015160200151901b901c608060c08761010001515f0151901b901c60c060c26133ee89615d0f565b901b901c60fe8088901b901c1717171790508185558060018601555050505050565b63ffffffff8016815f01511115613453576040517fc83d08ec00000000000000000000000000000000000000000000000000000000815260040160405180910390fd5b63ffffffff801681602001511115613497576040517fc83d08ec00000000000000000000000000000000000000000000000000000000815260040160405180910390fd5b6134b9677fffffffffffffff60070b8260400151614aab90919063ffffffff16565b156134f0576040517fc83d08ec00000000000000000000000000000000000000000000000000000000815260040160405180910390fd5b61352a7fffffffffffffffffffffffffffffffffffffffffffffffff800000000000000060070b8260400151614ac190919063ffffffff16565b15613561576040517fc83d08ec00000000000000000000000000000000000000000000000000000000815260040160405180910390fd5b61358267ffffffffffffffff80168260600151614a9590919063ffffffff16565b156135b9576040517fc83d08ec00000000000000000000000000000000000000000000000000000000815260040160405180910390fd5b63ffffffff8016816080015111156135fd576040517fc83d08ec00000000000000000000000000000000000000000000000000000000815260040160405180910390fd5b61361e67ffffffffffffffff80168260c00151614a9590919063ffffffff16565b15613655576040517fc83d08ec00000000000000000000000000000000000000000000000000000000815260040160405180910390fd5b5f602060e08360800151901b901c604060c08460600151901b901c608060c08560400151901b901c60c060e08660200151901b901c60e080875f0151901b901c1717171790505f602060c08460c00151901b901c6060808560a0015173ffffffffffffffffffffffffffffffffffffffff16901b901c17905081845580600185015550505050565b8160e00151604001518261016001818152505061370282610120015160200151615d0f565b8261014001818152505061371d828360c001515f0151612a1e565b8261010001515f01819052506137568261012001515f015161010001518361010001515f01516101000151615d4890919063ffffffff16565b61376882828460e001515f0151612c00565b826101000151602001819052506137a4826101200151602001516101000151836101000151602001516101000151615d4890919063ffffffff16565b816101000151602001515f0151826060015111156137e8578160e001515f0180518091906137d19061a3b2565b815250506137e782610100015160200151615d74565b5b8161010001515f01515f01518260600151111561382a578160c001515f0180518091906138149061a3b2565b815250506138298261010001515f0151615d74565b5b5f60018360e00151602001516138409190619ed9565b90505b8260e001515f01518110156138735761386683613861858585612c00565b61401b565b8080600101915050613843565b506138b361389f61389a846101200151602001518560e001516156e790919063ffffffff16565b61570a565b83610160015161577d90919063ffffffff16565b826101600181815250505050565b5f6138f57f800000000000000000000000000000000000000000000000000000000000000083615d9590919063ffffffff16565b1561394a57613943620f42407fffffffffffffffffffffffffffffffffffffffffffffffffffffffffffffffff61392c919061a3f9565b8460e0015160400151615dab90919063ffffffff16565b905061394e565b8190505b92915050565b5f6139887fffffffffffffffffffffffffffffffffffffffffffffffffffffffffffffffff83615dce90919063ffffffff16565b1561399557829050613a56565b6139d460017fffffffffffffffffffffffffffffffffffffffffffffffffffffffffffffffff6139c5919061a46f565b83615dce90919063ffffffff16565b15613a52576139e283615d04565b156139ef57829050613a56565b5f613a19856101a00151613a0b87610120015160200151615d0f565b615de490919063ffffffff16565b9050613a4a613a3686610140015183615df990919063ffffffff16565b866101400151615de490919063ffffffff16565b915050613a56565b8190505b9392505050565b613a65618066565b613a8c613a75876020015161570a565b613a7e8661570a565b61577d90919063ffffffff16565b613ab3613a9c886040015161570a565b613aa58661570a565b61577d90919063ffffffff16565b613ada613ac3896060015161570a565b613acc8661570a565b61577d90919063ffffffff16565b835f01846020018560400183815250838152508381525050505084848484895f018a6020018b6040018c606001848152508481525084815250848152505050505095945050505050565b5f613b2f8583615e0c565b9050613b42613b3d86615e24565b61570a565b613b53613b4e87615e5f565b61570a565b613b64613b5f88615e9b565b61570a565b856060018660e0018760c00183815250838152508381525050505083613baa613ba5855f0151613b97896020015161570a565b61400690919063ffffffff16565b615ef1565b613bd5613bd08660200151613bc28a6040015161570a565b61400690919063ffffffff16565b615ef1565b613c00613bfb8760400151613bed8b6060015161570a565b61400690919063ffffffff16565b615ef1565b885f01896020018a6040018b60600184815250848152508481525084815250505050505f613c2e8684615e0c565b9050613c578460600151613c49613c4489615e24565b61570a565b61577d90919063ffffffff16565b613c65846102000151615d04565b613c9657613c91846102000151613c83613c7e88615f44565b614a09565b615f7c90919063ffffffff16565b613c98565b5f5b613cab8484615d9590919063ffffffff16565b613d0757613d02613ce1613cd0613ccb878761577d90919063ffffffff16565b6149be565b6002613cdc919061a3f9565b615f9f565b613cf4858761400690919063ffffffff16565b615fb690919063ffffffff16565b613d09565b5f5b613d308760e00151613d22613d1d8c615e5f565b61570a565b61577d90919063ffffffff16565b613d578860c00151613d49613d448d615e9b565b61570a565b61577d90919063ffffffff16565b88606001896080018a60a0018b60e0018c60c00185815250858152508581525085815250858152505050505050505050505050565b5f613de05f613dd2613db78860c00151613da98760c0015161570a565b615dab90919063ffffffff16565b613dc48660a0015161570a565b61400690919063ffffffff16565b615fd990919063ffffffff16565b90505f613e6a5f613e5c613e0d8960a00151613dff886080015161570a565b615dab90919063ffffffff16565b613e4e613e33613e2e8c608001518a60600151615fec90919063ffffffff16565b61570a565b613e40896040015161570a565b61400690919063ffffffff16565b61400690919063ffffffff16565b615fd990919063ffffffff16565b90505f613f25613ed383613ec5613ec0613e878b60200151614a09565b613eb2613e978e60400151614a09565b613ea48f60200151614a09565b61600f90919063ffffffff16565b615fec90919063ffffffff16565b61570a565b615dab90919063ffffffff16565b613f1785613f09613f04613eea8c60200151614a09565b613ef68e5f0151614a09565b615fec90919063ffffffff16565b61570a565b615dab90919063ffffffff16565b61400690919063ffffffff16565b9050846101a00151613f375780613f39565b5f5b87610100018181525050613f4c876141b2565b613f5b57846101400151613f5d565b5f5b8761012001818152505050505050505050565b613f8c816101000151836080015161400690919063ffffffff16565b826080018181525050613fb18161012001518360a0015161600f90919063ffffffff16565b8260a00181815250505050565b613fd581836040015161400690919063ffffffff16565b8260400181815250505050565b613ff9818360e0015161400690919063ffffffff16565b8260e00181815250505050565b5f8183614013919061a4a2565b905092915050565b61405561402b8260a0015161570a565b614047836080015185610160015161577d90919063ffffffff16565b61577d90919063ffffffff16565b8261016001818152505061407f61406b82615d0f565b836101400151614a9590919063ffffffff16565b156140ca576140bb6140a761409383615d0f565b846101400151615de490919063ffffffff16565b836101a0015161600f90919063ffffffff16565b826101a001818152505061410c565b6141016140ed8361014001516140df84615d0f565b615de490919063ffffffff16565b83610180015161600f90919063ffffffff16565b826101800181815250505b61411581615d0f565b826101400181815250505050565b5f8115806141375750855f01518860800151115b15614144575f90506141a7565b8461415a8789876160249092919063ffffffff16565b848a6080018b60c0018c60a0018373ffffffffffffffffffffffffffffffffffffffff1673ffffffffffffffffffffffffffffffffffffffff168152508381525083815250505050600190505b979650505050505050565b5f6141c46141bf83615f44565b6160eb565b9050919050565b6141f46141e086610120015160200151615d0f565b866101a00151614a9590919063ffffffff16565b1561422b576040517f736f9fda00000000000000000000000000000000000000000000000000000000815260040160405180910390fd5b808015614307575061425c61424886610120015160200151615d0f565b866101a00151615dce90919063ffffffff16565b15806142a357506142a2856080015186604001516142888589610160015161577d90919063ffffffff16565b886101200151602001516160f6909392919063ffffffff16565b5b806142bd57506142bc5f83614ac190919063ffffffff16565b5b8061430657506143055f6142f785604001516142e98760200151885f015161400690919063ffffffff16565b61400690919063ffffffff16565b61611590919063ffffffff16565b5b5b1561433e576040517f534f7fe600000000000000000000000000000000000000000000000000000000815260040160405180910390fd5b61435861435386610100015160200151615d0f565b615d04565b801561437a575061437961437486610120015160200151615d0f565b615d04565b5b1580156143a8575061438b836141b2565b80156143a657506143a55f8361611590919063ffffffff16565b5b155b80156143d357508460400151610220015185608001515f015186606001516143d0919061a46f565b10155b1561440a576040517fab1e3a0000000000000000000000000000000000000000000000000000000000815260040160405180910390fd5b84602001516101a001518015614425575061442483616139565b5b1561445c576040517f29ab4c4400000000000000000000000000000000000000000000000000000000815260040160405180910390fd5b614483856040015160e001518661010001515f015160200151614a9590919063ffffffff16565b80156144a157506144a05f845f0151614aab90919063ffffffff16565b5b156144d8576040517f6ed43d8e00000000000000000000000000000000000000000000000000000000815260040160405180910390fd5b6144f4856101000151602001518461615a90919063ffffffff16565b15806145195750614517856101200151602001518461615a90919063ffffffff16565b155b15614550576040517f8a68c1dc00000000000000000000000000000000000000000000000000000000815260040160405180910390fd5b806149b7578373ffffffffffffffffffffffffffffffffffffffff163373ffffffffffffffffffffffffffffffffffffffff161415801561460f5750614594611048565b73ffffffffffffffffffffffffffffffffffffffff16632637588e85336040518363ffffffff1660e01b81526004016145ce92919061a4e3565b602060405180830381865afa1580156145e9573d5f803e3d5ffd5b505050506040513d601f19601f8201168201806040525081019061460d91906198ee565b155b801561463c575061461f836141b2565b801561463a57506146395f8361611590919063ffffffff16565b5b155b15614673576040517f5bdace6000000000000000000000000000000000000000000000000000000000815260040160405180910390fd5b846020015160a001518560c001516020015161468f9190619ed9565b8560c001515f015111806146c45750846020015160c001518560e00151602001516146ba9190619ed9565b8560e001515f0151115b156146fb576040517f935bdc2100000000000000000000000000000000000000000000000000000000815260040160405180910390fd5b6147288560800151866040015187610160015188610100015160200151616253909392919063ffffffff16565b61475d576040517ee2b6a800000000000000000000000000000000000000000000000000000000815260040160405180910390fd5b61479e61478986610180015161477b88610120015160200151615d0f565b61600f90919063ffffffff16565b86608001518760400151886101600151616272565b6147d3576040517ee2b6a800000000000000000000000000000000000000000000000000000000815260040160405180910390fd5b846101200151602001515f01518560e00151608001511180156147fc57506147fa836141b2565b155b15614833576040517fba555da700000000000000000000000000000000000000000000000000000000815260040160405180910390fd5b61484a8560200151846162b490919063ffffffff16565b801561486957506148685f8460e00151614ac190919063ffffffff16565b5b801561489d575061489c8560400151610100015161488e8761010001515f0151615e5f565b61633e90919063ffffffff16565b5b156148d4576040517f15f9ae7000000000000000000000000000000000000000000000000000000000815260040160405180910390fd5b6148eb8560200151846162b490919063ffffffff16565b801561490457506149038561010001515f0151616353565b5b80156149155750614914836163c4565b5b1561494c576040517f0fe9096400000000000000000000000000000000000000000000000000000000815260040160405180910390fd5b61495f5f83614ac190919063ffffffff16565b801561497f575061497e5f866101600151614ac190919063ffffffff16565b5b156149b6576040517f442145e500000000000000000000000000000000000000000000000000000000815260040160405180910390fd5b5b5050505050565b5f808213156149d05760019050614a04565b5f821215614a00577fffffffffffffffffffffffffffffffffffffffffffffffffffffffffffffffff9050614a04565b5f90505b919050565b5f614a13826163e6565b9050919050565b5f64e8d4a5100082614a2c919061a50a565b9050919050565b614a608230838673ffffffffffffffffffffffffffffffffffffffff16616400909392919063ffffffff16565b505050565b614a9082828573ffffffffffffffffffffffffffffffffffffffff166164899092919063ffffffff16565b505050565b5f6002614aa2848461650f565b14905092915050565b5f6002614ab8848461654a565b14905092915050565b5f80614acd848461654a565b14905092915050565b5f614ae030616585565b15905090565b5f81549050919050565b8082555050565b5f73ffffffffffffffffffffffffffffffffffffffff1660035f9054906101000a900473ffffffffffffffffffffffffffffffffffffffff1673ffffffffffffffffffffffffffffffffffffffff1614614bf25760035f9054906101000a900473ffffffffffffffffffffffffffffffffffffffff1673ffffffffffffffffffffffffffffffffffffffff1663d7c7a93582602001516040518263ffffffff1660e01b8152600401614ba9919061a54b565b602060405180830381865afa158015614bc4573d5f803e3d5ffd5b505050506040513d601f19601f82011682018060405250810190614be8919061a564565b8160200181815250505b50565b614bfd618046565b60025f9054906101000a900473ffffffffffffffffffffffffffffffffffffffff1673ffffffffffffffffffffffffffffffffffffffff1663e0886f90836040518263ffffffff1660e01b8152600401614c579190619d72565b606060405180830381865afa158015614c72573d5f803e3d5ffd5b505050506040513d601f19601f82011682018060405250810190614c96919061a58f565b9050614ca181614af7565b919050565b5f614cc48361010001518361010001516165a790919063ffffffff16565b9050614cf0614ceb825f0151614cdd866020015161570a565b61400690919063ffffffff16565b615ef1565b614d1b614d168360200151614d08876040015161570a565b61400690919063ffffffff16565b615ef1565b614d46614d418460400151614d33886060015161570a565b61400690919063ffffffff16565b615ef1565b856020018660400187606001838152508381525083815250505050505050565b614d80828284610100015161661e9092919063ffffffff16565b8160200151826040015183606001515f8460200185604001866060018760800184815250848152508481525084815250505050505050565b614dc06180af565b5f84604001518a5f019015159081151581525050614de08a8989876166ff565b835f018460200182815250828152505050836101a0015115614e0b5781826020015191509150614eec565b5f614e1c8b8b8b8b8b8b8b8b616791565b9050805f01518160200151826040015183606001518660400187606001886080018960a0018481525084815250848152508481525050505050614e638b8a89898989616b20565b8660c0018760e001886101000189610120018481525084815250848152508481525050505050614e958b8a8989616d3d565b85610140018661016001876101800183815250838152508381525050505082614ee6846101200151614ed88660a00151876020015161600f90919063ffffffff16565b61600f90919063ffffffff16565b92509250505b9850989650505050505050565b805f0151816020015182604001518360600151855f0186602001876040018860600184815250848152508481525084815250505050505050565b81836020018181525050808360e0018181525050505050565b5f614f63825f015186615fec90919063ffffffff16565b90505f614f798287615de490919063ffffffff16565b90505f614f93856060015183615fec90919063ffffffff16565b90505f614fad866080015184615fec90919063ffffffff16565b90505f614fd582614fc78587615de490919063ffffffff16565b615de490919063ffffffff16565b9050614fee858b6040015161600f90919063ffffffff16565b8a6040018181525050615020836150128a8d6060015161600f90919063ffffffff16565b61600f90919063ffffffff16565b8a6060018181525050615040828b6080015161600f90919063ffffffff16565b8a6080018181525050615060818b60a0015161600f90919063ffffffff16565b8a60a001818152505050505050505050505050565b61509a677fffffffffffffff60070b82602001515f0151614aab90919063ffffffff16565b156150d1576040517fd2777e7200000000000000000000000000000000000000000000000000000000815260040160405180910390fd5b61510e7fffffffffffffffffffffffffffffffffffffffffffffffff800000000000000060070b82602001515f0151614ac190919063ffffffff16565b15615145576040517fd2777e7200000000000000000000000000000000000000000000000000000000815260040160405180910390fd5b61516a677fffffffffffffff60070b82604001515f0151614aab90919063ffffffff16565b156151a1576040517fd2777e7200000000000000000000000000000000000000000000000000000000815260040160405180910390fd5b6151de7fffffffffffffffffffffffffffffffffffffffffffffffff800000000000000060070b82604001515f0151614ac190919063ffffffff16565b15615215576040517fd2777e7200000000000000000000000000000000000000000000000000000000815260040160405180910390fd5b61523a677fffffffffffffff60070b82606001515f0151614aab90919063ffffffff16565b15615271576040517fd2777e7200000000000000000000000000000000000000000000000000000000815260040160405180910390fd5b6152ae7fffffffffffffffffffffffffffffffffffffffffffffffff800000000000000060070b82606001515f0151614ac190919063ffffffff16565b156152e5576040517fd2777e7200000000000000000000000000000000000000000000000000000000815260040160405180910390fd5b61530967ffffffffffffffff801682608001515f0151614a9590919063ffffffff16565b15615340576040517fd2777e7200000000000000000000000000000000000000000000000000000000815260040160405180910390fd5b61536467ffffffffffffffff80168260a001515f0151614a9590919063ffffffff16565b1561539b576040517fd2777e7200000000000000000000000000000000000000000000000000000000815260040160405180910390fd5b6153bf67ffffffffffffffff80168260c001515f0151614a9590919063ffffffff16565b156153f6576040517fd2777e7200000000000000000000000000000000000000000000000000000000815260040160405180910390fd5b5f603860c083606001515f0151901b901c607860c084604001515f0151901b901c60b860c085602001515f0151901b901c60f880865f0151615438575f61543b565b60015b901b901c17171790505f604060c08460c001515f0151901b901c608060c08560a001515f0151901b901c60c08086608001515f0151901b901c1717905081845580600185015550505050565b61548f61811c565b6155146154b3846060015187606001518560600151616e749092919063ffffffff16565b6155066154d7866040015189604001518760400151616e749092919063ffffffff16565b6154f887602001518a602001518860200151616e749092919063ffffffff16565b61400690919063ffffffff16565b61400690919063ffffffff16565b815f0181815250506155a16155408460c0015187606001518560c00151616ea09092919063ffffffff16565b6155936155648660a0015189604001518760a00151616ea09092919063ffffffff16565b61558587608001518a602001518860800151616ea09092919063ffffffff16565b61600f90919063ffffffff16565b61600f90919063ffffffff16565b81602001818152505083608001518160400181815250508360a001518160600181815250505f6155ea6155d7836060015161570a565b836040015161400690919063ffffffff16565b90506156188161560a845f01518b6040015161400690919063ffffffff16565b61577d90919063ffffffff16565b88604001818152505061563c8260200151896060015161600f90919063ffffffff16565b88606001818152505086886020018181525050509695505050505050565b5f815f0151158061567257508360800151835f015114155b1561567f575f90506156b0565b6156a261568f8560c0015161570a565b856040015161577d90919063ffffffff16565b846040018181525050600190505b9392505050565b6156da6156c78260c0015161570a565b836040015161400690919063ffffffff16565b8260400181815250505050565b5f815f01518360800151116156fc575f615702565b8260c001515b905092915050565b5f808290507f7fffffffffffffffffffffffffffffffffffffffffffffffffffffffffffffff81111561577457806040517feecaa25d00000000000000000000000000000000000000000000000000000000815260040161576b9190619d72565b60405180910390fd5b80915050919050565b5f818361578a919061a5ba565b905092915050565b63ffffffff8016815f015111156157d5576040517f52a8a97f00000000000000000000000000000000000000000000000000000000815260040160405180910390fd5b6157f5657fffffffffff60050b8260800151614aab90919063ffffffff16565b1561582c576040517f52a8a97f00000000000000000000000000000000000000000000000000000000815260040160405180910390fd5b6158667fffffffffffffffffffffffffffffffffffffffffffffffffffff80000000000060050b8260800151614ac190919063ffffffff16565b1561589d576040517f52a8a97f00000000000000000000000000000000000000000000000000000000815260040160405180910390fd5b6158bc65ffffffffffff80168260a00151614a9590919063ffffffff16565b156158f3576040517f52a8a97f00000000000000000000000000000000000000000000000000000000815260040160405180910390fd5b615915677fffffffffffffff60070b8260c00151614aab90919063ffffffff16565b1561594c576040517f52a8a97f00000000000000000000000000000000000000000000000000000000815260040160405180910390fd5b6159867fffffffffffffffffffffffffffffffffffffffffffffffff800000000000000060070b8260c00151614ac190919063ffffffff16565b156159bd576040517f52a8a97f00000000000000000000000000000000000000000000000000000000815260040160405180910390fd5b6159df677fffffffffffffff60070b8260e00151614aab90919063ffffffff16565b15615a16576040517f52a8a97f00000000000000000000000000000000000000000000000000000000815260040160405180910390fd5b615a507fffffffffffffffffffffffffffffffffffffffffffffffff800000000000000060070b8260e00151614ac190919063ffffffff16565b15615a87576040517f52a8a97f00000000000000000000000000000000000000000000000000000000815260040160405180910390fd5b615aad677fffffffffffffff60070b8261010001515f0151614aab90919063ffffffff16565b15615ae4576040517f52a8a97f00000000000000000000000000000000000000000000000000000000815260040160405180910390fd5b615b227fffffffffffffffffffffffffffffffffffffffffffffffff800000000000000060070b8261010001515f0151614ac190919063ffffffff16565b15615b59576040517f52a8a97f00000000000000000000000000000000000000000000000000000000815260040160405180910390fd5b615b80677fffffffffffffff60070b82610100015160200151614aab90919063ffffffff16565b15615bb7576040517f52a8a97f00000000000000000000000000000000000000000000000000000000815260040160405180910390fd5b615bf67fffffffffffffffffffffffffffffffffffffffffffffffff800000000000000060070b82610100015160200151614ac190919063ffffffff16565b15615c2d576040517f52a8a97f00000000000000000000000000000000000000000000000000000000815260040160405180910390fd5b615c54677fffffffffffffff60070b82610100015160400151614aab90919063ffffffff16565b15615c8b576040517f52a8a97f00000000000000000000000000000000000000000000000000000000815260040160405180910390fd5b615cca7fffffffffffffffffffffffffffffffffffffffffffffffff800000000000000060070b82610100015160400151614ac190919063ffffffff16565b15615d01576040517f52a8a97f00000000000000000000000000000000000000000000000000000000815260040160405180910390fd5b50565b5f8082149050919050565b5f615d418260200151615d3384606001518560400151616ed590919063ffffffff16565b616ed590919063ffffffff16565b9050919050565b805f015181602001518260400151845f0185602001866040018381525083815250838152505050505050565b5f8160800181815250505f8160a00181815250505f8160c001818152505050565b5f6001615da2848461654a565b14905092915050565b5f620f42408284615dbc919061a3f9565b615dc6919061a627565b905092915050565b5f6001615ddb848461650f565b14905092915050565b5f8183615df1919061a46f565b905092915050565b5f615e048383616ee8565b905092915050565b5f615e1c83836102000151616f00565b905092915050565b5f615e58615e53615e38846060015161570a565b615e45856040015161570a565b61577d90919063ffffffff16565b614a09565b9050919050565b5f615e94620f4240615e86615e7385616f62565b8560200151616f8590919063ffffffff16565b615df990919063ffffffff16565b9050919050565b5f615eea620f4240615edc615ec5615eb286616fe6565b866020015161600f90919063ffffffff16565b615ece86616f62565b616f8590919063ffffffff16565b615df990919063ffffffff16565b9050919050565b5f808290505f811215615f3b57806040517fb02ef087000000000000000000000000000000000000000000000000000000008152600401615f32919061a69e565b60405180910390fd5b80915050919050565b5f615f758260400151615f678460200151855f015161400690919063ffffffff16565b61400690919063ffffffff16565b9050919050565b5f81620f424084615f8d919061a50a565b615f97919061a6b7565b905092915050565b5f620f424082615faf919061a3f9565b9050919050565b5f81620f424084615fc7919061a3f9565b615fd1919061a627565b905092915050565b5f615fe48383617009565b905092915050565b5f620f42408284615ffd919061a50a565b616007919061a6b7565b905092915050565b5f818361601c9190619ed9565b905092915050565b5f61602e846141b2565b1561603b575f90506160e4565b5f616098836101e0015161608a856020015161607c61605d8960200151614a09565b61606e6160698c615f44565b614a09565b615fec90919063ffffffff16565b615fec90919063ffffffff16565b616ed590919063ffffffff16565b90506160e08361014001516160d28561016001516160c487610120015186615fec90919063ffffffff16565b615df990919063ffffffff16565b616ed590919063ffffffff16565b9150505b9392505050565b5f8082149050919050565b5f61610b61610386615d0f565b858585617021565b9050949350505050565b5f6161208383614aab565b8061613157506161308383615d95565b5b905092915050565b5f61614382617063565b80616153575061615282617081565b5b9050919050565b5f616167835f01516160eb565b801561617c575061617b83602001516160eb565b5b801561619157506161908260200151615d04565b5b80156161a657506161a58260400151615d04565b5b806161f957506161b983602001516160eb565b80156161ce57506161cd83604001516160eb565b5b80156161e357506161e28260400151615d04565b5b80156161f857506161f78260600151615d04565b5b5b8061624b575061620c83604001516160eb565b8015616220575061621f835f01516160eb565b5b801561623557506162348260600151615d04565b5b801561624a57506162498260200151615d04565b5b5b905092915050565b5f61626861626086615d0f565b858585616272565b9050949350505050565b5f6162aa6162896162848787876170be565b61570a565b61629c5f85615fd990919063ffffffff16565b61611590919063ffffffff16565b9050949350505050565b5f816101a001511580156162ee57506162cf835f01516160eb565b806162dd5750816101800151155b806162ed57506162ec83617063565b5b5b8015616336575061630283602001516160eb565b8015616317575061631683604001516160eb565b5b806163255750816101600151155b80616335575061633483617081565b5b5b905092915050565b5f8061634a848461650f565b14905092915050565b5f61638582604001516163778460600151856020015161600f90919063ffffffff16565b61633e90919063ffffffff16565b806163bd57506163bc82606001516163ae8460400151856020015161600f90919063ffffffff16565b61633e90919063ffffffff16565b5b9050919050565b5f6163df8260600151835f0151614ac190919063ffffffff16565b9050919050565b5f808212156163f757815f036163f9565b815b9050919050565b616483846323b872dd60e01b8585856040516024016164219392919061a6e7565b604051602081830303815290604052907bffffffffffffffffffffffffffffffffffffffffffffffffffffffff19166020820180517bffffffffffffffffffffffffffffffffffffffffffffffffffffffff83818316178352505050506170dc565b50505050565b61650a8363a9059cbb60e01b84846040516024016164a892919061a71c565b604051602081830303815290604052907bffffffffffffffffffffffffffffffffffffffffffffffffffffffff19166020820180517bffffffffffffffffffffffffffffffffffffffffffffffffffffffff83818316178352505050506170dc565b505050565b5f805f8484915091508082111561652b57600292505050616544565b8082101561653d575f92505050616544565b6001925050505b92915050565b5f805f848491509150808213156165665760029250505061657f565b80821215616578575f9250505061657f565b6001925050505b92915050565b5f808273ffffffffffffffffffffffffffffffffffffffff163b119050919050565b6165af618140565b6165c8825f0151845f015161577d90919063ffffffff16565b815f0181815250506165eb8260200151846020015161577d90919063ffffffff16565b81602001818152505061660f8260400151846040015161577d90919063ffffffff16565b81604001818152505092915050565b61665e61664c616631836020015161570a565b61663e856020015161570a565b61577d90919063ffffffff16565b845f015161400690919063ffffffff16565b835f0181815250506166a7616694616679836040015161570a565b616686856040015161570a565b61577d90919063ffffffff16565b846020015161400690919063ffffffff16565b8360200181815250506166f16166de6166c3836060015161570a565b6166d0856060015161570a565b61577d90919063ffffffff16565b846040015161400690919063ffffffff16565b836040018181525050505050565b5f805f61670f8560800151614a09565b905061671e8660200151615d04565b1561672f575f819250925050616788565b616746818560400151615fec90919063ffffffff16565b91506167676167548361570a565b866080015161577d90919063ffffffff16565b925061678683876020015189602001516171a19092919063ffffffff16565b505b94509492505050565b61679961815e565b5f616851836101a0015161680b620f42407fffffffffffffffffffffffffffffffffffffffffffffffffffffffffffffffff6167d5919061a3f9565b6167fd620f42406167ef898e615e0c90919063ffffffff16565b6171db90919063ffffffff16565b615fd990919063ffffffff16565b885f0151885f015161683a6168238c60200151614a09565b61682c8f6171ee565b615fec90919063ffffffff16565b8e60c0015161722f9095949392919063ffffffff16565b9050826102400151801561687d575061687161686c896172e3565b6149be565b61687a826149be565b14155b156168c6576168c3620f42407fffffffffffffffffffffffffffffffffffffffffffffffffffffffffffffffff6168b4919061a3f9565b82615dab90919063ffffffff16565b90505b61690781620f42407fffffffffffffffffffffffffffffffffffffffffffffffffffffffffffffffff6168f9919061a3f9565b615dab90919063ffffffff16565b81836020018460400182815250828152505050616938845f015161692a83614a09565b615fec90919063ffffffff16565b8260600181815250505f61696a61694f6002615f9f565b61695c856060015161570a565b615fb690919063ffffffff16565b90506169a181616993616980866060015161570a565b866020015161577d90919063ffffffff16565b61400690919063ffffffff16565b6169b882856040015161577d90919063ffffffff16565b8460200185604001828152508281525050506169e589606001518a60400151614a9590919063ffffffff16565b15616a3d57616a116169fe6169f98b6172fd565b61570a565b8460400151615dab90919063ffffffff16565b835f018181525050616a33835f0151846040015161577d90919063ffffffff16565b8360400181815250505b616a5889604001518a60600151614a9590919063ffffffff16565b15616ab057616a84616a71616a6c8b6172fd565b61570a565b8460200151615dab90919063ffffffff16565b835f018181525050616aa6835f0151846020015161577d90919063ffffffff16565b8360200181815250505b616ad0835f01518a602001518d602001516171a19092919063ffffffff16565b616af183602001518a604001518d604001516171a19092919063ffffffff16565b616b1283604001518a606001518d606001516171a19092919063ffffffff16565b505098975050505050505050565b5f805f805f616b74616b358a60200151614a09565b616b668c60200151616b588e606001518f6040015161600f90919063ffffffff16565b615df990919063ffffffff16565b615fec90919063ffffffff16565b90505f616ba3616b838c615e9b565b8b5f01518b5f0151858b610180015161735e90949392919063ffffffff16565b9050616bbc886020015182615fec90919063ffffffff16565b9250616c15616bd2616bcd8d616f62565b615d04565b616c0e57616c098c60400151616bf98e606001518f6040015161600f90919063ffffffff16565b846173c99092919063ffffffff16565b616c10565b815b61570a565b9450616c3285616c248361570a565b61577d90919063ffffffff16565b9350616c4f616c4a8483615de490919063ffffffff16565b61570a565b9550616c92620f42407fffffffffffffffffffffffffffffffffffffffffffffffffffffffffffffffff616c83919061a3f9565b86615dab90919063ffffffff16565b9450616cd5620f42407fffffffffffffffffffffffffffffffffffffffffffffffffffffffffffffffff616cc6919061a3f9565b85615dab90919063ffffffff16565b9350616cf4868c602001518e602001516171a19092919063ffffffff16565b616d11858c604001518e604001516171a19092919063ffffffff16565b616d2e848c606001518e606001516171a19092919063ffffffff16565b50509650965096509692505050565b5f805f616d7d616d54616d4f886173ea565b61570a565b616d6f8760200151876020015161577d90919063ffffffff16565b615dab90919063ffffffff16565b9150616dbc616d93616d8e88617423565b61570a565b616dae8660200151886020015161577d90919063ffffffff16565b615dab90919063ffffffff16565b9050616e11620f42407fffffffffffffffffffffffffffffffffffffffffffffffffffffffffffffffff616df0919061a3f9565b616e03838561400690919063ffffffff16565b615dab90919063ffffffff16565b9250616e3082876040015189604001516171a19092919063ffffffff16565b616e4d81876060015189606001516171a19092919063ffffffff16565b616e6a83876020015189602001516171a19092919063ffffffff16565b9450945094915050565b5f616e97616e91845f0151865f015161577d90919063ffffffff16565b8361745c565b90509392505050565b5f616ecc82616ebe855f0151875f0151615de490919063ffffffff16565b615fec90919063ffffffff16565b90509392505050565b5f616ee083836174d0565b905092915050565b5f818310616ef65781616ef8565b825b905092915050565b5f616f0a82615d04565b616f5857616f53616f1a8361570a565b616f45616f2a866060015161570a565b616f37876040015161570a565b61577d90919063ffffffff16565b615fb690919063ffffffff16565b616f5a565b5f5b905092915050565b5f616f7e82606001518360400151616ed590919063ffffffff16565b9050919050565b5f616f8f82615d04565b15616fd357616f9d83615d04565b616fc7577fffffffffffffffffffffffffffffffffffffffffffffffffffffffffffffffff616fcc565b620f42405b9050616fe0565b616fdd8383615f7c565b90505b92915050565b5f61700282606001518360400151615df990919063ffffffff16565b9050919050565b5f8183136170175781617019565b825b905092915050565b5f6170596170386170338787876174e8565b61570a565b61704b5f85615fd990919063ffffffff16565b61611590919063ffffffff16565b9050949350505050565b5f61707a5f835f0151614aab90919063ffffffff16565b9050919050565b5f6170995f8360200151614aab90919063ffffffff16565b806170b757506170b65f8360400151614aab90919063ffffffff16565b5b9050919050565b5f6170d38484845f0151856101c00151617507565b90509392505050565b5f61713d826040518060400160405280602081526020017f5361666545524332303a206c6f772d6c6576656c2063616c6c206661696c65648152508573ffffffffffffffffffffffffffffffffffffffff1661756c9092919063ffffffff16565b90505f8151111561719c578080602001905181019061715c91906198ee565b61719b576040517f08c379a00000000000000000000000000000000000000000000000000000000081526004016171929061a7c3565b60405180910390fd5b5b505050565b6171aa826160eb565b6171d6576171cd6171bb8383617583565b845f015161400690919063ffffffff16565b835f0181815250505b505050565b5f6171e683836175f7565b905092915050565b5f617228617211836020015161720385616fe6565b61600f90919063ffffffff16565b61721a84616f62565b615df990919063ffffffff16565b9050919050565b5f805f617252895f01518a6020015188888c61760f90949392919063ffffffff16565b9150915061729a6172636002615f9f565b61728c61727c858d5f015161400690919063ffffffff16565b6172858a6177a2565b85896177b9565b615fb690919063ffffffff16565b92506172c2836172b484846172ae8a6177a2565b896177b9565b61400690919063ffffffff16565b925081895f0181815250508689602001818152505050509695505050505050565b5f6172f6826172f184616f62565b616f00565b9050919050565b5f61730f61730a836171ee565b615d04565b6173555761735061731f836171ee565b61734261732b85616fe6565b617334866171ee565b615de490919063ffffffff16565b615f7c90919063ffffffff16565b617357565b5f5b9050919050565b5f6173be61736f6301e133806177a2565b6173b0846173a261738a8989617385919061a46f565b6177a2565b6173948c8c617829565b615fec90919063ffffffff16565b615fec90919063ffffffff16565b615f7c90919063ffffffff16565b905095945050505050565b5f8183856173d7919061a50a565b6173e1919061a6b7565b90509392505050565b5f61741c826040015161740e8460600151856020015161600f90919063ffffffff16565b615df990919063ffffffff16565b9050919050565b5f61745582606001516174478460400151856020015161600f90919063ffffffff16565b615df990919063ffffffff16565b9050919050565b5f7fffffffffffffffffffffffffffffffffffffffffffffffffffffffffffffffff617487846149be565b146174ac576174a76174988361570a565b84615dab90919063ffffffff16565b6174c8565b6174c76174b88361570a565b846178b190919063ffffffff16565b5b905092915050565b5f8183116174de57816174e0565b825b905092915050565b5f6174fe84848460200151856101e00151617507565b90509392505050565b5f61751185615d04565b1561751e575f9050617564565b61756182617553856175456175368960200151614a09565b8a615fec90919063ffffffff16565b615fec90919063ffffffff16565b616ed590919063ffffffff16565b90505b949350505050565b606061757a84845f856178d2565b90509392505050565b5f7fffffffffffffffffffffffffffffffffffffffffffffffffffffffffffffffff6175ae846149be565b146175d3576175ce6175bf8361570a565b84615fb690919063ffffffff16565b6175ef565b6175ee6175df8361570a565b8461799b90919063ffffffff16565b5b905092915050565b5f8183126176055781617607565b825b905092915050565b5f805f6176676176586176248a5f015161570a565b61764a8961763c8a8a617637919061a46f565b615f9f565b615dab90919063ffffffff16565b615fb690919063ffffffff16565b8861400690919063ffffffff16565b9050617699617675826149be565b61769461768184614a09565b8b60200151615df990919063ffffffff16565b6179eb565b92505f806176b187876176ac919061a46f565b6177a2565b6176c48a8561577d90919063ffffffff16565b915091505f6176e88b602001516176da8c614a09565b614a9590919063ffffffff16565b6177215761771c6177178b6177096176ff866149be565b8f602001516179eb565b61577d90919063ffffffff16565b614a09565b617723565b5f5b905061772e826160eb565b6177885761778361773e886177a2565b61777561775e8461774e87614a09565b886173c99092919063ffffffff16565b6177678c6177a2565b61600f90919063ffffffff16565b615df990919063ffffffff16565b617792565b617791876177a2565b5b9450505050509550959350505050565b5f620f4240826177b2919061a50a565b9050919050565b5f61781f6177ca6301e13380615f9f565b6178116177d68561570a565b6178036177f46177ef8a8a615de490919063ffffffff16565b61570a565b8a615dab90919063ffffffff16565b615dab90919063ffffffff16565b615fb690919063ffffffff16565b9050949350505050565b5f61784183606001518361633e90919063ffffffff16565b156178655761785e5f845f01518560600151866040015186617a48565b90506178ab565b61787b620f42408361633e90919063ffffffff16565b156178a35761789c83606001518460400151620f4240866020015186617a48565b90506178ab565b826020015190505b92915050565b5f6178ca82846178c1919061a3f9565b620f4240617a79565b905092915050565b606082471015617917576040517f08c379a000000000000000000000000000000000000000000000000000000000815260040161790e9061a851565b60405180910390fd5b5f808673ffffffffffffffffffffffffffffffffffffffff16858760405161793f919061a8db565b5f6040518083038185875af1925050503d805f8114617979576040519150601f19603f3d011682016040523d82523d5f602084013e61797e565b606091505b509150915061798f87838387617ac2565b92505050949350505050565b5f6179e36179a8836149be565b6179b1856149be565b6179bb919061a3f9565b6179de6179c785614a09565b6179d087614a09565b617b3690919063ffffffff16565b6179eb565b905092915050565b5f80831315617a04576179fd8261570a565b9050617a42565b5f831215617a3e57617a158261570a565b7fffffffffffffffffffffffffffffffffffffffffffffffffffffffffffffffff029050617a42565b5f90505b92915050565b5f617a6e617a6987617a598861570a565b87617a638861570a565b87617b57565b615ef1565b905095945050505050565b5f617a94617a86846163e6565b617a8f846163e6565b617c4b565b617a9d83617c97565b617aa685617c97565b617ab0919061a3f9565b617aba919061a3f9565b905092915050565b60608315617b23575f835103617b1b57617adb85616585565b617b1a576040517f08c379a0000000000000000000000000000000000000000000000000000000008152600401617b119061a93b565b60405180910390fd5b5b829050617b2e565b617b2d8383617ce2565b5b949350505050565b5f617b4f620f424084617b49919061a50a565b83617c4b565b905092915050565b5f617b6b868361633e90919063ffffffff16565b80617b855750617b848483614a9590919063ffffffff16565b5b15617bbc576040517f4a83a53f00000000000000000000000000000000000000000000000000000000815260040160405180910390fd5b5f617bd08786615de490919063ffffffff16565b90505f617be6878661577d90919063ffffffff16565b90505f617c0e83617c008b88615de490919063ffffffff16565b615f7c90919063ffffffff16565b9050617c3d88617c2f617c208461570a565b85615dab90919063ffffffff16565b61400690919063ffffffff16565b935050505095945050505050565b5f808203617c85576040517f23d359a300000000000000000000000000000000000000000000000000000000815260040160405180910390fd5b617c8f8383617d31565b905092915050565b5f80821315617ca95760019050617cdd565b5f821215617cd9577fffffffffffffffffffffffffffffffffffffffffffffffffffffffffffffffff9050617cdd565b5f90505b919050565b5f82511115617cf45781518083602001fd5b806040517f08c379a0000000000000000000000000000000000000000000000000000000008152600401617d28919061a99b565b60405180910390fd5b5f808314617d6257600182600185617d49919061a46f565b617d53919061a6b7565b617d5d9190619ed9565b617d64565b5f5b905092915050565b6040518061012001604052805f81526020015f81526020015f81526020015f81526020015f81526020015f81526020015f81526020015f8152602001617db0618140565b81525090565b6040518061026001604052805f81526020015f81526020015f81526020015f81526020015f81526020015f81526020015f81526020015f81526020015f81526020015f81526020015f81526020015f8152602001617e12618182565b8152602001617e1f6181a6565b81526020015f81526020015f81526020015f81526020015f81526020015f151581525090565b6040518060e001604052805f81526020015f81526020015f81526020015f81526020015f81526020015f73ffffffffffffffffffffffffffffffffffffffff1681526020015f81525090565b6040518060e001604052805f15158152602001617eac6181be565b8152602001617eb96181be565b8152602001617ec66181be565b8152602001617ed36181d0565b8152602001617ee06181d0565b8152602001617eed6181d0565b81525090565b6040518061010001604052805f81526020015f81526020015f81526020015f81526020015f81526020015f8152602001617f2b6181e2565b81526020015f81525090565b604051806101e001604052805f81526020015f81526020015f81526020015f81526020015f81526020015f81526020015f81526020015f81526020015f81526020015f81526020015f81526020015f151581526020015f151581526020015f151581526020015f151581525090565b604051806101c00160405280617fba6181fa565b8152602001617fc7617f37565b8152602001617fd4617db6565b81526020015f8152602001617fe7618046565b8152602001617ff4618046565b8152602001618001617ef3565b815260200161800e617e45565b815260200161801b618230565b8152602001618028618230565b81526020015f81526020015f81526020015f81526020015f81525090565b60405180606001604052805f81526020015f81526020015f151581525090565b6040518061014001604052805f81526020015f81526020015f81526020015f81526020015f81526020015f81526020015f81526020015f81526020015f81526020015f81525090565b6040518061020001604052805f81526020015f81526020015f81526020015f81526020015f81526020015f81526020015f81526020015f81526020015f81526020015f81526020015f81526020015f81526020015f81526020015f81526020015f81526020015f81525090565b60405180608001604052805f81526020015f81526020015f81526020015f81525090565b60405180606001604052805f81526020015f81526020015f81525090565b60405180608001604052805f81526020015f81526020015f81526020015f81525090565b60405180608001604052805f81526020015f81526020015f81526020015f81525090565b60405180604001604052805f81526020015f81525090565b60405180602001604052805f81525090565b60405180602001604052805f81525090565b60405180604001604052805f81526020015f81525090565b6040518060e001604052805f81526020015f81526020015f81526020015f81526020015f81526020015f81526020015f81525090565b6040518060400160405280618243617d6c565b8152602001618250617d6c565b81525090565b5f819050919050565b61826881618256565b82525050565b5f819050919050565b5f61829161828c61828784618256565b61826e565b618256565b9050919050565b6182a181618277565b82525050565b5f819050919050565b5f6182ca6182c56182c0846182a7565b61826e565b6182a7565b9050919050565b6182da816182b0565b82525050565b606082015f8201516182f45f8501826182d1565b50602082015161830760208501826182d1565b50604082015161831a60408501826182d1565b50505050565b61016082015f8201516183355f85018261825f565b5060208201516183486020850182618298565b50604082015161835b6040850182618298565b50606082015161836e6060850182618298565b50608082015161838160808501826182d1565b5060a082015161839460a0850182618298565b5060c08201516183a760c08501826182d1565b5060e08201516183ba60e08501826182d1565b506101008201516183cf6101008501826182e0565b50505050565b5f610160820190506183e95f830184618320565b92915050565b608082015f8201516184035f850182618298565b5060208201516184166020850182618298565b5060408201516184296040850182618298565b50606082015161843c6060850182618298565b50505050565b604082015f8201516184565f850182618298565b5060208201516184696020850182618298565b50505050565b5f8115159050919050565b6184838161846f565b82525050565b6102e082015f82015161849e5f850182618298565b5060208201516184b16020850182618298565b5060408201516184c46040850182618298565b5060608201516184d76060850182618298565b5060808201516184ea6080850182618298565b5060a08201516184fd60a0850182618298565b5060c082015161851060c0850182618298565b5060e082015161852360e0850182618298565b50610100820151618538610100850182618298565b5061012082015161854d610120850182618298565b50610140820151618562610140850182618298565b50610160820151618577610160850182618298565b5061018082015161858c6101808501826183ef565b506101a08201516185a1610200850182618442565b506101c08201516185b6610240850182618298565b506101e08201516185cb610260850182618298565b506102008201516185e0610280850182618298565b506102208201516185f56102a085018261825f565b5061024082015161860a6102c085018261847a565b50505050565b5f6102e0820190506186245f830184618489565b92915050565b5f604051905090565b5f80fd5b5f73ffffffffffffffffffffffffffffffffffffffff82169050919050565b5f61866082618637565b9050919050565b61867081618656565b811461867a575f80fd5b50565b5f8135905061868b81618667565b92915050565b5f80fd5b5f601f19601f8301169050919050565b7f4e487b71000000000000000000000000000000000000000000000000000000005f52604160045260245ffd5b6186db82618695565b810181811067ffffffffffffffff821117156186fa576186f96186a5565b5b80604052505050565b5f61870c61862a565b905061871882826186d2565b919050565b61872681618256565b8114618730575f80fd5b50565b5f813590506187418161871d565b92915050565b61875081618256565b811461875a575f80fd5b50565b5f8135905061876b81618747565b92915050565b61877a8161846f565b8114618784575f80fd5b50565b5f8135905061879581618771565b92915050565b5f6101e082840312156187b1576187b0618691565b5b6187bc6101e0618703565b90505f6187cb84828501618733565b5f8301525060206187de84828501618733565b60208301525060406187f284828501618733565b604083015250606061880684828501618733565b606083015250608061881a84828501618733565b60808301525060a061882e8482850161875d565b60a08301525060c06188428482850161875d565b60c08301525060e061885684828501618733565b60e08301525061010061886b84828501618733565b6101008301525061012061888184828501618733565b6101208301525061014061889784828501618733565b610140830152506101606188ad84828501618787565b610160830152506101806188c384828501618787565b610180830152506101a06188d984828501618787565b6101a0830152506101c06188ef84828501618787565b6101c08301525092915050565b5f805f610220848603121561891457618913618633565b5b5f6189218682870161867d565b93505060206189328682870161867d565b92505060406189438682870161879b565b9150509250925092565b5f6020828403121561896257618961618633565b5b5f61896f8482850161867d565b91505092915050565b61898181618656565b82525050565b60e082015f82015161899b5f85018261825f565b5060208201516189ae602085018261825f565b5060408201516189c160408501826182d1565b5060608201516189d46060850182618298565b5060808201516189e7608085018261825f565b5060a08201516189fa60a0850182618978565b5060c0820151618a0d60c0850182618298565b50505050565b5f60e082019050618a265f830184618987565b92915050565b5f618a46618a41618a3c84618637565b61826e565b618637565b9050919050565b5f618a5782618a2c565b9050919050565b5f618a6882618a4d565b9050919050565b618a7881618a5e565b82525050565b5f602082019050618a915f830184618a6f565b92915050565b5f60208284031215618aac57618aab618633565b5b5f618ab98482850161875d565b91505092915050565b602082015f820151618ad65f8501826182d1565b50505050565b602082015f820151618af05f850182618298565b50505050565b60e082015f820151618b0a5f85018261847a565b506020820151618b1d6020850182618ac2565b506040820151618b306040850182618ac2565b506060820151618b436060850182618ac2565b506080820151618b566080850182618adc565b5060a0820151618b6960a0850182618adc565b5060c0820151618b7c60c0850182618adc565b50505050565b5f60e082019050618b955f830184618af6565b92915050565b618ba4816182a7565b8114618bae575f80fd5b50565b5f81359050618bbf81618b9b565b92915050565b5f805f805f8060c08789031215618bdf57618bde618633565b5b5f618bec89828a0161867d565b9650506020618bfd89828a01618733565b9550506040618c0e89828a01618733565b9450506060618c1f89828a01618733565b9350506080618c3089828a01618bb1565b92505060a0618c4189828a01618787565b9150509295509295509295565b5f618c5882618a4d565b9050919050565b618c6881618c4e565b82525050565b5f602082019050618c815f830184618c5f565b92915050565b604082015f820151618c9b5f8501826182d1565b506020820151618cae60208501826182d1565b50505050565b61012082015f820151618cc95f85018261825f565b506020820151618cdc602085018261825f565b506040820151618cef6040850182618298565b506060820151618d026060850182618298565b506080820151618d156080850182618298565b5060a0820151618d2860a0850182618298565b5060c0820151618d3b60c0850182618c87565b5060e0820151618d4f6101008501826182d1565b50505050565b5f61012082019050618d695f830184618cb4565b92915050565b6101e082015f820151618d845f850182618298565b506020820151618d976020850182618298565b506040820151618daa6040850182618298565b506060820151618dbd6060850182618298565b506080820151618dd06080850182618298565b5060a0820151618de360a085018261825f565b5060c0820151618df660c085018261825f565b5060e0820151618e0960e0850182618298565b50610100820151618e1e610100850182618298565b50610120820151618e33610120850182618298565b50610140820151618e48610140850182618298565b50610160820151618e5d61016085018261847a565b50610180820151618e7261018085018261847a565b506101a0820151618e876101a085018261847a565b506101c0820151618e9c6101c085018261847a565b50505050565b5f6101e082019050618eb65f830184618d6f565b92915050565b5f60808284031215618ed157618ed0618691565b5b618edb6080618703565b90505f618eea84828501618733565b5f830152506020618efd84828501618733565b6020830152506040618f1184828501618733565b6040830152506060618f2584828501618733565b60608301525092915050565b5f60408284031215618f4657618f45618691565b5b618f506040618703565b90505f618f5f84828501618733565b5f830152506020618f7284828501618733565b60208301525092915050565b5f6102e08284031215618f9457618f93618691565b5b618f9f610260618703565b90505f618fae84828501618733565b5f830152506020618fc184828501618733565b6020830152506040618fd584828501618733565b6040830152506060618fe984828501618733565b6060830152506080618ffd84828501618733565b60808301525060a061901184828501618733565b60a08301525060c061902584828501618733565b60c08301525060e061903984828501618733565b60e08301525061010061904e84828501618733565b6101008301525061012061906484828501618733565b6101208301525061014061907a84828501618733565b6101408301525061016061909084828501618733565b610160830152506101806190a684828501618ebc565b610180830152506102006190bc84828501618f31565b6101a0830152506102406190d284828501618733565b6101c0830152506102606190e884828501618733565b6101e0830152506102806190fe84828501618733565b610200830152506102a06191148482850161875d565b610220830152506102c061912a84828501618787565b6102408301525092915050565b5f6102e0828403121561914d5761914c618633565b5b5f61915a84828501618f7e565b91505092915050565b5f61916d82618a4d565b9050919050565b61917d81619163565b82525050565b5f6020820190506191965f830184619174565b92915050565b5f80604083850312156191b2576191b1618633565b5b5f6191bf8582860161867d565b92505060206191d08582860161875d565b9150509250929050565b5f80fd5b5f606082840312156191f3576191f26191da565b5b81905092915050565b5f6060828403121561921157619210618633565b5b5f61921e848285016191de565b91505092915050565b5f61923182618a4d565b9050919050565b61924181619227565b82525050565b5f60208201905061925a5f830184619238565b92915050565b8082525050565b5f60208201905061927a5f830184619260565b92915050565b5f8151905061928e8161871d565b92915050565b5f608082840312156192a9576192a8618691565b5b6192b36080618703565b90505f6192c284828501619280565b5f8301525060206192d584828501619280565b60208301525060406192e984828501619280565b60408301525060606192fd84828501619280565b60608301525092915050565b5f6040828403121561931e5761931d618691565b5b6193286040618703565b90505f61933784828501619280565b5f83015250602061934a84828501619280565b60208301525092915050565b5f8151905061936481618747565b92915050565b5f8151905061937881618771565b92915050565b5f6102e0828403121561939457619393618691565b5b61939f610260618703565b90505f6193ae84828501619280565b5f8301525060206193c184828501619280565b60208301525060406193d584828501619280565b60408301525060606193e984828501619280565b60608301525060806193fd84828501619280565b60808301525060a061941184828501619280565b60a08301525060c061942584828501619280565b60c08301525060e061943984828501619280565b60e08301525061010061944e84828501619280565b6101008301525061012061946484828501619280565b6101208301525061014061947a84828501619280565b6101408301525061016061949084828501619280565b610160830152506101806194a684828501619294565b610180830152506102006194bc84828501619309565b6101a0830152506102406194d284828501619280565b6101c0830152506102606194e884828501619280565b6101e0830152506102806194fe84828501619280565b610200830152506102a061951484828501619356565b610220830152506102c061952a8482850161936a565b6102408301525092915050565b5f6102e0828403121561954d5761954c618633565b5b5f61955a8482850161937e565b91505092915050565b5f8151905061957181618667565b92915050565b5f6020828403121561958c5761958b618633565b5b5f61959984828501619563565b91505092915050565b6195ab81618656565b82525050565b5f6020820190506195c45f8301846195a2565b92915050565b5f60e082840312156195df576195de618691565b5b6195e960e0618703565b90505f6195f884828501619280565b5f83015250602061960b84828501619280565b602083015250604061961f84828501619280565b604083015250606061963384828501619280565b606083015250608061964784828501619280565b60808301525060a061965b84828501619280565b60a08301525060c061966f84828501619280565b60c08301525092915050565b5f60e082840312156196905761968f618633565b5b5f61969d848285016195ca565b91505092915050565b8082525050565b6196b681618277565b82525050565b6196c581618256565b82525050565b6196d48161846f565b82525050565b6101e082015f8201516196ef5f8501826196ad565b50602082015161970260208501826196ad565b50604082015161971560408501826196ad565b50606082015161972860608501826196ad565b50608082015161973b60808501826196ad565b5060a082015161974e60a08501826196bc565b5060c082015161976160c08501826196bc565b5060e082015161977460e08501826196ad565b506101008201516197896101008501826196ad565b5061012082015161979e6101208501826196ad565b506101408201516197b36101408501826196ad565b506101608201516197c86101608501826196cb565b506101808201516197dd6101808501826196cb565b506101a08201516197f26101a08501826196cb565b506101c08201516198076101c08501826196cb565b50505050565b60e082015f8201516198215f8501826196ad565b50602082015161983460208501826196ad565b50604082015161984760408501826196ad565b50606082015161985a60608501826196ad565b50608082015161986d60808501826196ad565b5060a082015161988060a08501826196ad565b5060c082015161989360c08501826196ad565b50505050565b6198a281619227565b82525050565b5f610300820190506198bc5f8301876196a6565b6198c960208301866196da565b6198d761020083018561980d565b6198e56102e0830184619899565b95945050505050565b5f6020828403121561990357619902618633565b5b5f6199108482850161936a565b91505092915050565b5f61992382618656565b9050919050565b61993381619919565b811461993d575f80fd5b50565b5f8151905061994e8161992a565b92915050565b5f6020828403121561996957619968618633565b5b5f61997684828501619940565b91505092915050565b5f6020820190506199925f8301846196a6565b92915050565b5f6101e082840312156199ae576199ad618691565b5b6199b96101e0618703565b90505f6199c884828501619280565b5f8301525060206199db84828501619280565b60208301525060406199ef84828501619280565b6040830152506060619a0384828501619280565b6060830152506080619a1784828501619280565b60808301525060a0619a2b84828501619356565b60a08301525060c0619a3f84828501619356565b60c08301525060e0619a5384828501619280565b60e083015250610100619a6884828501619280565b61010083015250610120619a7e84828501619280565b61012083015250610140619a9484828501619280565b61014083015250610160619aaa8482850161936a565b61016083015250610180619ac08482850161936a565b610180830152506101a0619ad68482850161936a565b6101a0830152506101c0619aec8482850161936a565b6101c08301525092915050565b5f6101e08284031215619b0f57619b0e618633565b5b5f619b1c84828501619998565b91505092915050565b608082015f820151619b395f8501826196ad565b506020820151619b4c60208501826196ad565b506040820151619b5f60408501826196ad565b506060820151619b7260608501826196ad565b50505050565b604082015f820151619b8c5f8501826196ad565b506020820151619b9f60208501826196ad565b50505050565b6102e082015f820151619bba5f8501826196ad565b506020820151619bcd60208501826196ad565b506040820151619be060408501826196ad565b506060820151619bf360608501826196ad565b506080820151619c0660808501826196ad565b5060a0820151619c1960a08501826196ad565b5060c0820151619c2c60c08501826196ad565b5060e0820151619c3f60e08501826196ad565b50610100820151619c546101008501826196ad565b50610120820151619c696101208501826196ad565b50610140820151619c7e6101408501826196ad565b50610160820151619c936101608501826196ad565b50610180820151619ca8610180850182619b25565b506101a0820151619cbd610200850182619b78565b506101c0820151619cd26102408501826196ad565b506101e0820151619ce76102608501826196ad565b50610200820151619cfc6102808501826196ad565b50610220820151619d116102a08501826196bc565b50610240820151619d266102c08501826196cb565b50505050565b5f6103e082019050619d405f830186619260565b619d4d6020830185619ba5565b619d5b61030083018461980d565b949350505050565b619d6c81618256565b82525050565b5f602082019050619d855f830184619d63565b92915050565b619d9481618656565b8114619d9e575f80fd5b50565b5f81359050619daf81619d8b565b92915050565b5f60208284031215619dca57619dc9618633565b5b5f619dd784828501619da1565b91505092915050565b5f619dea82618656565b9050919050565b619dfa81619de0565b8114619e04575f80fd5b50565b5f81359050619e1581619df1565b92915050565b5f60208284031215619e3057619e2f618633565b5b5f619e3d84828501619e07565b91505092915050565b5f619e5082618656565b9050919050565b619e6081619e46565b8114619e6a575f80fd5b50565b5f81359050619e7b81619e57565b92915050565b5f60208284031215619e9657619e95618633565b5b5f619ea384828501619e6d565b91505092915050565b7f4e487b71000000000000000000000000000000000000000000000000000000005f52601160045260245ffd5b5f619ee382618256565b9150619eee83618256565b9250828201905080821115619f0657619f05619eac565b5b92915050565b5f619f1682618a4d565b9050919050565b619f2681619f0c565b82525050565b5f604082019050619f3f5f830185619f1d565b619f4c60208301846195a2565b9392505050565b619f5c81618277565b82525050565b619f6b816182b0565b82525050565b619f7a8161846f565b82525050565b5f60c082019050619f935f830189619d63565b619fa06020830188619f53565b619fad6040830187619f53565b619fba6060830186619f53565b619fc76080830185619f62565b619fd460a0830184619f71565b979650505050505050565b61014082015f820151619ff45f8501826182d1565b50602082015161a00760208501826182d1565b50604082015161a01a60408501826182d1565b50606082015161a02d60608501826182d1565b50608082015161a0406080850182618298565b5060a082015161a05360a08501826182d1565b5060c082015161a06660c08501826182d1565b5060e082015161a07960e08501826182d1565b5061010082015161a08e6101008501826182d1565b5061012082015161a0a3610120850182618298565b50505050565b5f6101808201905061a0bd5f830186619d63565b61a0ca6020830185619fdf565b61a0d8610160830184619f62565b949350505050565b5f60208201905061a0f35f830184619f53565b92915050565b5f8151905061a10781618b9b565b92915050565b5f6060828403121561a1225761a121618691565b5b61a12c6060618703565b90505f61a13b84828501619356565b5f83015250602061a14e8482850161a0f9565b602083015250604061a1628482850161936a565b60408301525092915050565b5f806080838503121561a1845761a183618633565b5b5f61a1918582860161a10d565b925050606061a1a285828601619356565b9150509250929050565b61020082015f82015161a1c15f8501826182d1565b50602082015161a1d46020850182618298565b50604082015161a1e760408501826182d1565b50606082015161a1fa60608501826182d1565b50608082015161a20d60808501826182d1565b5060a082015161a22060a0850182618298565b5060c082015161a23360c08501826182d1565b5060e082015161a24660e08501826182d1565b5061010082015161a25b6101008501826182d1565b5061012082015161a270610120850182618298565b5061014082015161a2856101408501826182d1565b5061016082015161a29a6101608501826182d1565b5061018082015161a2af6101808501826182d1565b506101a082015161a2c46101a0850182618298565b506101c082015161a2d96101c0850182618298565b506101e082015161a2ee6101e0850182618298565b50505050565b5f6102408201905061a3085f830186619d63565b61a3156020830185619d63565b61a322604083018461a1ac565b949350505050565b608082015f82015161a33e5f8501826182d1565b50602082015161a3516020850182618298565b50604082015161a36460408501826182d1565b50606082015161a3776060850182618298565b50505050565b5f60c08201905061a3905f830186619d63565b61a39d6020830185619d63565b61a3aa604083018461a32a565b949350505050565b5f61a3bc82618256565b91507fffffffffffffffffffffffffffffffffffffffffffffffffffffffffffffffff820361a3ee5761a3ed619eac565b5b600182019050919050565b5f61a403826182a7565b915061a40e836182a7565b925082820261a41c816182a7565b91507f800000000000000000000000000000000000000000000000000000000000000084145f8412161561a4535761a452619eac565b5b828205841483151761a4685761a467619eac565b5b5092915050565b5f61a47982618256565b915061a48483618256565b925082820390508181111561a49c5761a49b619eac565b5b92915050565b5f61a4ac826182a7565b915061a4b7836182a7565b92508282019050828112155f8312168382125f84121516171561a4dd5761a4dc619eac565b5b92915050565b5f60408201905061a4f65f8301856195a2565b61a50360208301846195a2565b9392505050565b5f61a51482618256565b915061a51f83618256565b925082820261a52d81618256565b9150828204841483151761a5445761a543619eac565b5b5092915050565b5f60208201905061a55e5f830184619f62565b92915050565b5f6020828403121561a5795761a578618633565b5b5f61a5868482850161a0f9565b91505092915050565b5f6060828403121561a5a45761a5a3618633565b5b5f61a5b18482850161a10d565b91505092915050565b5f61a5c4826182a7565b915061a5cf836182a7565b925082820390508181125f8412168282135f85121516171561a5f45761a5f3619eac565b5b92915050565b7f4e487b71000000000000000000000000000000000000000000000000000000005f52601260045260245ffd5b5f61a631826182a7565b915061a63c836182a7565b92508261a64c5761a64b61a5fa565b5b60015f0383147f80000000000000000000000000000000000000000000000000000000000000008314161561a6845761a683619eac565b5b828205905092915050565b61a698816182a7565b82525050565b5f60208201905061a6b15f83018461a68f565b92915050565b5f61a6c182618256565b915061a6cc83618256565b92508261a6dc5761a6db61a5fa565b5b828204905092915050565b5f60608201905061a6fa5f8301866195a2565b61a70760208301856195a2565b61a7146040830184619d63565b949350505050565b5f60408201905061a72f5f8301856195a2565b61a73c6020830184619d63565b9392505050565b5f82825260208201905092915050565b7f5361666545524332303a204552433230206f7065726174696f6e20646964206e5f8201527f6f74207375636365656400000000000000000000000000000000000000000000602082015250565b5f61a7ad602a8361a743565b915061a7b88261a753565b604082019050919050565b5f6020820190508181035f83015261a7da8161a7a1565b9050919050565b7f416464726573733a20696e73756666696369656e742062616c616e636520666f5f8201527f722063616c6c0000000000000000000000000000000000000000000000000000602082015250565b5f61a83b60268361a743565b915061a8468261a7e1565b604082019050919050565b5f6020820190508181035f83015261a8688161a82f565b9050919050565b5f81519050919050565b5f81905092915050565b5f5b8381101561a8a057808201518184015260208101905061a885565b5f8484015250505050565b5f61a8b58261a86f565b61a8bf818561a879565b935061a8cf81856020860161a883565b80840191505092915050565b5f61a8e6828461a8ab565b915081905092915050565b7f416464726573733a2063616c6c20746f206e6f6e2d636f6e74726163740000005f82015250565b5f61a925601d8361a743565b915061a9308261a8f1565b602082019050919050565b5f6020820190508181035f83015261a9528161a919565b9050919050565b5f81519050919050565b5f61a96d8261a959565b61a977818561a743565b935061a98781856020860161a883565b61a99081618695565b840191505092915050565b5f6020820190508181035f83015261a9b3818461a963565b90509291505056fea264697066735822122065e493d99a606e3dfcca32cd6c299dd65294d2bd2bbd1879b100998120d3bf0c64736f6c63430008180033",
  "linkReferences": {
    "contracts/types/MarketParameter.sol": {
      "MarketParameterStorageLib": [
        {
          "length": 20,
          "start": 1531
        },
        {
          "length": 20,
          "start": 3490
        },
        {
          "length": 20,
          "start": 5774
        }
      ]
    },
    "contracts/types/RiskParameter.sol": {
      "RiskParameterStorageLib": [
        {
          "length": 20,
          "start": 939
        },
        {
          "length": 20,
          "start": 3924
        },
        {
          "length": 20,
          "start": 5904
        }
      ]
    }
  },
  "deployedLinkReferences": {
    "contracts/types/MarketParameter.sol": {
      "MarketParameterStorageLib": [
        {
          "length": 20,
          "start": 1500
        },
        {
          "length": 20,
          "start": 3459
        },
        {
          "length": 20,
          "start": 5743
        }
      ]
    },
    "contracts/types/RiskParameter.sol": {
      "RiskParameterStorageLib": [
        {
          "length": 20,
          "start": 908
        },
        {
          "length": 20,
          "start": 3893
        },
        {
          "length": 20,
          "start": 5873
        }
      ]
    }
  }
}