{
  "address": "0x937c6A0e76d424680685E5bd660b6dc0a9b8d8bc",
  "abi": [
    {
      "inputs": [],
      "name": "Adiabatic6ZeroScaleError",
      "type": "error"
    },
    {
      "inputs": [
        {
          "internalType": "uint256",
          "name": "value",
          "type": "uint256"
        }
      ],
      "name": "Fixed6OverflowError",
      "type": "error"
    },
    {
      "inputs": [],
      "name": "GlobalStorageInvalidError",
      "type": "error"
    },
    {
      "inputs": [
        {
          "internalType": "uint256",
          "name": "version",
          "type": "uint256"
        }
      ],
      "name": "InitializableAlreadyInitializedError",
      "type": "error"
    },
    {
      "inputs": [],
      "name": "InitializableNotInitializingError",
      "type": "error"
    },
    {
      "inputs": [],
      "name": "InitializableZeroVersionError",
      "type": "error"
    },
    {
      "inputs": [
        {
          "internalType": "address",
          "name": "sender",
          "type": "address"
        }
      ],
      "name": "InstanceNotFactoryError",
      "type": "error"
    },
    {
      "inputs": [
        {
          "internalType": "address",
          "name": "sender",
          "type": "address"
        }
      ],
      "name": "InstanceNotOwnerError",
      "type": "error"
    },
    {
      "inputs": [],
      "name": "InstancePausedError",
      "type": "error"
    },
    {
      "inputs": [],
      "name": "LocalStorageInvalidError",
      "type": "error"
    },
    {
      "inputs": [],
      "name": "LocalStorageInvalidError",
      "type": "error"
    },
    {
      "inputs": [],
      "name": "MarketClosedError",
      "type": "error"
    },
    {
      "inputs": [],
      "name": "MarketCollateralBelowLimitError",
      "type": "error"
    },
    {
      "inputs": [],
      "name": "MarketEfficiencyUnderLimitError",
      "type": "error"
    },
    {
      "inputs": [],
      "name": "MarketExceedsPendingIdLimitError",
      "type": "error"
    },
    {
      "inputs": [],
      "name": "MarketInsufficientCollateralError",
      "type": "error"
    },
    {
      "inputs": [],
      "name": "MarketInsufficientLiquidityError",
      "type": "error"
    },
    {
      "inputs": [],
      "name": "MarketInsufficientMarginError",
      "type": "error"
    },
    {
      "inputs": [
        {
          "internalType": "uint256",
          "name": "code",
          "type": "uint256"
        }
      ],
      "name": "MarketInvalidMarketParameterError",
      "type": "error"
    },
    {
      "inputs": [],
      "name": "MarketInvalidProtectionError",
      "type": "error"
    },
    {
      "inputs": [],
      "name": "MarketInvalidReferrerError",
      "type": "error"
    },
    {
      "inputs": [
        {
          "internalType": "uint256",
          "name": "code",
          "type": "uint256"
        }
      ],
      "name": "MarketInvalidRiskParameterError",
      "type": "error"
    },
    {
      "inputs": [],
      "name": "MarketMakerOverLimitError",
      "type": "error"
    },
    {
      "inputs": [],
      "name": "MarketNotBeneficiaryError",
      "type": "error"
    },
    {
      "inputs": [],
      "name": "MarketNotCoordinatorError",
      "type": "error"
    },
    {
      "inputs": [],
      "name": "MarketNotSingleSidedError",
      "type": "error"
    },
    {
      "inputs": [],
      "name": "MarketOperatorNotAllowedError",
      "type": "error"
    },
    {
      "inputs": [],
      "name": "MarketOverCloseError",
      "type": "error"
    },
    {
      "inputs": [],
      "name": "MarketParameterStorageInvalidError",
      "type": "error"
    },
    {
      "inputs": [],
      "name": "MarketProtectedError",
      "type": "error"
    },
    {
      "inputs": [],
      "name": "MarketSettleOnlyError",
      "type": "error"
    },
    {
      "inputs": [],
      "name": "MarketStalePriceError",
      "type": "error"
    },
    {
      "inputs": [],
      "name": "OrderStorageInvalidError",
      "type": "error"
    },
    {
      "inputs": [],
      "name": "PositionStorageLocalInvalidError",
      "type": "error"
    },
    {
      "inputs": [],
      "name": "ReentrancyGuardReentrantCallError",
      "type": "error"
    },
    {
      "inputs": [],
      "name": "RiskParameterStorageInvalidError",
      "type": "error"
    },
    {
      "inputs": [
        {
          "internalType": "int256",
          "name": "value",
          "type": "int256"
        }
      ],
      "name": "UFixed6UnderflowError",
      "type": "error"
    },
    {
      "inputs": [],
      "name": "VersionStorageInvalidError",
      "type": "error"
    },
    {
      "anonymous": false,
      "inputs": [
        {
          "indexed": true,
          "internalType": "address",
          "name": "account",
          "type": "address"
        },
        {
          "indexed": false,
          "internalType": "uint256",
          "name": "orderId",
          "type": "uint256"
        },
        {
          "components": [
            {
              "internalType": "uint256",
              "name": "timestamp",
              "type": "uint256"
            },
            {
              "internalType": "uint256",
              "name": "orders",
              "type": "uint256"
            },
            {
              "internalType": "Fixed6",
              "name": "collateral",
              "type": "int256"
            },
            {
              "internalType": "UFixed6",
              "name": "makerPos",
              "type": "uint256"
            },
            {
              "internalType": "UFixed6",
              "name": "makerNeg",
              "type": "uint256"
            },
            {
              "internalType": "UFixed6",
              "name": "longPos",
              "type": "uint256"
            },
            {
              "internalType": "UFixed6",
              "name": "longNeg",
              "type": "uint256"
            },
            {
              "internalType": "UFixed6",
              "name": "shortPos",
              "type": "uint256"
            },
            {
              "internalType": "UFixed6",
              "name": "shortNeg",
              "type": "uint256"
            },
            {
              "internalType": "uint256",
              "name": "protection",
              "type": "uint256"
            },
            {
              "internalType": "UFixed6",
              "name": "makerReferral",
              "type": "uint256"
            },
            {
              "internalType": "UFixed6",
              "name": "takerReferral",
              "type": "uint256"
            }
          ],
          "indexed": false,
          "internalType": "struct Order",
          "name": "order",
          "type": "tuple"
        },
        {
          "components": [
            {
              "internalType": "Fixed6",
              "name": "collateral",
              "type": "int256"
            },
            {
              "internalType": "Fixed6",
              "name": "linearFee",
              "type": "int256"
            },
            {
              "internalType": "Fixed6",
              "name": "proportionalFee",
              "type": "int256"
            },
            {
              "internalType": "Fixed6",
              "name": "adiabaticFee",
              "type": "int256"
            },
            {
              "internalType": "UFixed6",
              "name": "settlementFee",
              "type": "uint256"
            },
            {
              "internalType": "UFixed6",
              "name": "liquidationFee",
              "type": "uint256"
            },
            {
              "internalType": "UFixed6",
              "name": "subtractiveFee",
              "type": "uint256"
            }
          ],
          "indexed": false,
          "internalType": "struct CheckpointAccumulationResult",
          "name": "accumulationResult",
          "type": "tuple"
        }
      ],
      "name": "AccountPositionProcessed",
      "type": "event"
    },
    {
      "anonymous": false,
      "inputs": [
        {
          "indexed": false,
          "internalType": "address",
          "name": "newBeneficiary",
          "type": "address"
        }
      ],
      "name": "BeneficiaryUpdated",
      "type": "event"
    },
    {
      "anonymous": false,
      "inputs": [
        {
          "indexed": false,
          "internalType": "address",
          "name": "newCoordinator",
          "type": "address"
        }
      ],
      "name": "CoordinatorUpdated",
      "type": "event"
    },
    {
      "anonymous": false,
      "inputs": [
        {
          "indexed": true,
          "internalType": "address",
          "name": "account",
          "type": "address"
        },
        {
          "indexed": false,
          "internalType": "Fixed6",
          "name": "amount",
          "type": "int256"
        }
      ],
      "name": "ExposureClaimed",
      "type": "event"
    },
    {
      "anonymous": false,
      "inputs": [
        {
          "indexed": true,
          "internalType": "address",
          "name": "account",
          "type": "address"
        },
        {
          "indexed": false,
          "internalType": "UFixed6",
          "name": "amount",
          "type": "uint256"
        }
      ],
      "name": "FeeClaimed",
      "type": "event"
    },
    {
      "anonymous": false,
      "inputs": [
        {
          "indexed": false,
          "internalType": "uint256",
          "name": "version",
          "type": "uint256"
        }
      ],
      "name": "Initialized",
      "type": "event"
    },
    {
      "anonymous": false,
      "inputs": [
        {
          "indexed": false,
          "internalType": "contract IOracleProvider",
          "name": "newOracle",
          "type": "address"
        }
      ],
      "name": "OracleUpdated",
      "type": "event"
    },
    {
      "anonymous": false,
      "inputs": [
        {
          "indexed": true,
          "internalType": "address",
          "name": "account",
          "type": "address"
        },
        {
          "components": [
            {
              "internalType": "uint256",
              "name": "timestamp",
              "type": "uint256"
            },
            {
              "internalType": "uint256",
              "name": "orders",
              "type": "uint256"
            },
            {
              "internalType": "Fixed6",
              "name": "collateral",
              "type": "int256"
            },
            {
              "internalType": "UFixed6",
              "name": "makerPos",
              "type": "uint256"
            },
            {
              "internalType": "UFixed6",
              "name": "makerNeg",
              "type": "uint256"
            },
            {
              "internalType": "UFixed6",
              "name": "longPos",
              "type": "uint256"
            },
            {
              "internalType": "UFixed6",
              "name": "longNeg",
              "type": "uint256"
            },
            {
              "internalType": "UFixed6",
              "name": "shortPos",
              "type": "uint256"
            },
            {
              "internalType": "UFixed6",
              "name": "shortNeg",
              "type": "uint256"
            },
            {
              "internalType": "uint256",
              "name": "protection",
              "type": "uint256"
            },
            {
              "internalType": "UFixed6",
              "name": "makerReferral",
              "type": "uint256"
            },
            {
              "internalType": "UFixed6",
              "name": "takerReferral",
              "type": "uint256"
            }
          ],
          "indexed": false,
          "internalType": "struct Order",
          "name": "order",
          "type": "tuple"
        }
      ],
      "name": "OrderCreated",
      "type": "event"
    },
    {
      "anonymous": false,
      "inputs": [
        {
          "components": [
            {
              "internalType": "UFixed6",
              "name": "fundingFee",
              "type": "uint256"
            },
            {
              "internalType": "UFixed6",
              "name": "interestFee",
              "type": "uint256"
            },
            {
              "internalType": "UFixed6",
              "name": "positionFee",
              "type": "uint256"
            },
            {
              "internalType": "UFixed6",
              "name": "oracleFee",
              "type": "uint256"
            },
            {
              "internalType": "UFixed6",
              "name": "riskFee",
              "type": "uint256"
            },
            {
              "internalType": "uint256",
              "name": "maxPendingGlobal",
              "type": "uint256"
            },
            {
              "internalType": "uint256",
              "name": "maxPendingLocal",
              "type": "uint256"
            },
            {
              "internalType": "UFixed6",
              "name": "settlementFee",
              "type": "uint256"
            },
            {
              "internalType": "bool",
              "name": "takerCloseAlways",
              "type": "bool"
            },
            {
              "internalType": "bool",
              "name": "makerCloseAlways",
              "type": "bool"
            },
            {
              "internalType": "bool",
              "name": "closed",
              "type": "bool"
            },
            {
              "internalType": "bool",
              "name": "settle",
              "type": "bool"
            }
          ],
          "indexed": false,
          "internalType": "struct MarketParameter",
          "name": "newParameter",
          "type": "tuple"
        }
      ],
      "name": "ParameterUpdated",
      "type": "event"
    },
    {
      "anonymous": false,
      "inputs": [
        {
          "indexed": false,
          "internalType": "uint256",
          "name": "orderId",
          "type": "uint256"
        },
        {
          "components": [
            {
              "internalType": "uint256",
              "name": "timestamp",
              "type": "uint256"
            },
            {
              "internalType": "uint256",
              "name": "orders",
              "type": "uint256"
            },
            {
              "internalType": "Fixed6",
              "name": "collateral",
              "type": "int256"
            },
            {
              "internalType": "UFixed6",
              "name": "makerPos",
              "type": "uint256"
            },
            {
              "internalType": "UFixed6",
              "name": "makerNeg",
              "type": "uint256"
            },
            {
              "internalType": "UFixed6",
              "name": "longPos",
              "type": "uint256"
            },
            {
              "internalType": "UFixed6",
              "name": "longNeg",
              "type": "uint256"
            },
            {
              "internalType": "UFixed6",
              "name": "shortPos",
              "type": "uint256"
            },
            {
              "internalType": "UFixed6",
              "name": "shortNeg",
              "type": "uint256"
            },
            {
              "internalType": "uint256",
              "name": "protection",
              "type": "uint256"
            },
            {
              "internalType": "UFixed6",
              "name": "makerReferral",
              "type": "uint256"
            },
            {
              "internalType": "UFixed6",
              "name": "takerReferral",
              "type": "uint256"
            }
          ],
          "indexed": false,
          "internalType": "struct Order",
          "name": "order",
          "type": "tuple"
        },
        {
          "components": [
            {
              "internalType": "UFixed6",
              "name": "positionFee",
              "type": "uint256"
            },
            {
              "internalType": "UFixed6",
              "name": "positionFeeMaker",
              "type": "uint256"
            },
            {
              "internalType": "UFixed6",
              "name": "positionFeeProtocol",
              "type": "uint256"
            },
            {
              "internalType": "UFixed6",
              "name": "positionFeeSubtractive",
              "type": "uint256"
            },
            {
              "internalType": "Fixed6",
              "name": "positionFeeExposure",
              "type": "int256"
            },
            {
              "internalType": "Fixed6",
              "name": "positionFeeExposureMaker",
              "type": "int256"
            },
            {
              "internalType": "Fixed6",
              "name": "positionFeeExposureProtocol",
              "type": "int256"
            },
            {
              "internalType": "Fixed6",
              "name": "positionFeeImpact",
              "type": "int256"
            },
            {
              "internalType": "Fixed6",
              "name": "fundingMaker",
              "type": "int256"
            },
            {
              "internalType": "Fixed6",
              "name": "fundingLong",
              "type": "int256"
            },
            {
              "internalType": "Fixed6",
              "name": "fundingShort",
              "type": "int256"
            },
            {
              "internalType": "UFixed6",
              "name": "fundingFee",
              "type": "uint256"
            },
            {
              "internalType": "Fixed6",
              "name": "interestMaker",
              "type": "int256"
            },
            {
              "internalType": "Fixed6",
              "name": "interestLong",
              "type": "int256"
            },
            {
              "internalType": "Fixed6",
              "name": "interestShort",
              "type": "int256"
            },
            {
              "internalType": "UFixed6",
              "name": "interestFee",
              "type": "uint256"
            },
            {
              "internalType": "Fixed6",
              "name": "pnlMaker",
              "type": "int256"
            },
            {
              "internalType": "Fixed6",
              "name": "pnlLong",
              "type": "int256"
            },
            {
              "internalType": "Fixed6",
              "name": "pnlShort",
              "type": "int256"
            },
            {
              "internalType": "UFixed6",
              "name": "settlementFee",
              "type": "uint256"
            },
            {
              "internalType": "UFixed6",
              "name": "liquidationFee",
              "type": "uint256"
            }
          ],
          "indexed": false,
          "internalType": "struct VersionAccumulationResult",
          "name": "accumulationResult",
          "type": "tuple"
        }
      ],
      "name": "PositionProcessed",
      "type": "event"
    },
    {
      "anonymous": false,
      "inputs": [
        {
          "components": [
            {
              "internalType": "UFixed6",
              "name": "margin",
              "type": "uint256"
            },
            {
              "internalType": "UFixed6",
              "name": "maintenance",
              "type": "uint256"
            },
            {
              "components": [
                {
                  "internalType": "UFixed6",
                  "name": "linearFee",
                  "type": "uint256"
                },
                {
                  "internalType": "UFixed6",
                  "name": "proportionalFee",
                  "type": "uint256"
                },
                {
                  "internalType": "UFixed6",
                  "name": "adiabaticFee",
                  "type": "uint256"
                },
                {
                  "internalType": "UFixed6",
                  "name": "scale",
                  "type": "uint256"
                }
              ],
              "internalType": "struct LinearAdiabatic6",
              "name": "takerFee",
              "type": "tuple"
            },
            {
              "components": [
                {
                  "internalType": "UFixed6",
                  "name": "linearFee",
                  "type": "uint256"
                },
                {
                  "internalType": "UFixed6",
                  "name": "proportionalFee",
                  "type": "uint256"
                },
                {
                  "internalType": "UFixed6",
                  "name": "adiabaticFee",
                  "type": "uint256"
                },
                {
                  "internalType": "UFixed6",
                  "name": "scale",
                  "type": "uint256"
                }
              ],
              "internalType": "struct InverseAdiabatic6",
              "name": "makerFee",
              "type": "tuple"
            },
            {
              "internalType": "UFixed6",
              "name": "makerLimit",
              "type": "uint256"
            },
            {
              "internalType": "UFixed6",
              "name": "efficiencyLimit",
              "type": "uint256"
            },
            {
              "internalType": "UFixed6",
              "name": "liquidationFee",
              "type": "uint256"
            },
            {
              "components": [
                {
                  "internalType": "UFixed6",
                  "name": "minRate",
                  "type": "uint256"
                },
                {
                  "internalType": "UFixed6",
                  "name": "maxRate",
                  "type": "uint256"
                },
                {
                  "internalType": "UFixed6",
                  "name": "targetRate",
                  "type": "uint256"
                },
                {
                  "internalType": "UFixed6",
                  "name": "targetUtilization",
                  "type": "uint256"
                }
              ],
              "internalType": "struct UJumpRateUtilizationCurve6",
              "name": "utilizationCurve",
              "type": "tuple"
            },
            {
              "components": [
                {
                  "internalType": "UFixed6",
                  "name": "k",
                  "type": "uint256"
                },
                {
                  "internalType": "Fixed6",
                  "name": "min",
                  "type": "int256"
                },
                {
                  "internalType": "Fixed6",
                  "name": "max",
                  "type": "int256"
                }
              ],
              "internalType": "struct PController6",
              "name": "pController",
              "type": "tuple"
            },
            {
              "internalType": "UFixed6",
              "name": "minMargin",
              "type": "uint256"
            },
            {
              "internalType": "UFixed6",
              "name": "minMaintenance",
              "type": "uint256"
            },
            {
              "internalType": "uint256",
              "name": "staleAfter",
              "type": "uint256"
            },
            {
              "internalType": "bool",
              "name": "makerReceiveOnly",
              "type": "bool"
            }
          ],
          "indexed": false,
          "internalType": "struct RiskParameter",
          "name": "newRiskParameter",
          "type": "tuple"
        }
      ],
      "name": "RiskParameterUpdated",
      "type": "event"
    },
    {
      "anonymous": false,
      "inputs": [
        {
          "indexed": true,
          "internalType": "address",
          "name": "sender",
          "type": "address"
        },
        {
          "indexed": true,
          "internalType": "address",
          "name": "account",
          "type": "address"
        },
        {
          "indexed": false,
          "internalType": "uint256",
          "name": "version",
          "type": "uint256"
        },
        {
          "indexed": false,
          "internalType": "UFixed6",
          "name": "newMaker",
          "type": "uint256"
        },
        {
          "indexed": false,
          "internalType": "UFixed6",
          "name": "newLong",
          "type": "uint256"
        },
        {
          "indexed": false,
          "internalType": "UFixed6",
          "name": "newShort",
          "type": "uint256"
        },
        {
          "indexed": false,
          "internalType": "Fixed6",
          "name": "collateral",
          "type": "int256"
        },
        {
          "indexed": false,
          "internalType": "bool",
          "name": "protect",
          "type": "bool"
        },
        {
          "indexed": false,
          "internalType": "address",
          "name": "referrer",
          "type": "address"
        }
      ],
      "name": "Updated",
      "type": "event"
    },
    {
      "inputs": [
        {
          "internalType": "address",
          "name": "account",
          "type": "address"
        },
        {
          "internalType": "uint256",
          "name": "version",
          "type": "uint256"
        }
      ],
      "name": "checkpoints",
      "outputs": [
        {
          "components": [
            {
              "internalType": "Fixed6",
              "name": "tradeFee",
              "type": "int256"
            },
            {
              "internalType": "UFixed6",
              "name": "settlementFee",
              "type": "uint256"
            },
            {
              "internalType": "Fixed6",
              "name": "transfer",
              "type": "int256"
            },
            {
              "internalType": "Fixed6",
              "name": "collateral",
              "type": "int256"
            }
          ],
          "internalType": "struct Checkpoint",
          "name": "",
          "type": "tuple"
        }
      ],
      "stateMutability": "view",
      "type": "function"
    },
    {
      "inputs": [],
      "name": "claimExposure",
      "outputs": [],
      "stateMutability": "nonpayable",
      "type": "function"
    },
    {
      "inputs": [],
      "name": "claimFee",
      "outputs": [],
      "stateMutability": "nonpayable",
      "type": "function"
    },
    {
      "inputs": [],
      "name": "factory",
      "outputs": [
        {
          "internalType": "contract IFactory",
          "name": "",
          "type": "address"
        }
      ],
      "stateMutability": "view",
      "type": "function"
    },
    {
      "inputs": [],
      "name": "global",
      "outputs": [
        {
          "components": [
            {
              "internalType": "uint256",
              "name": "currentId",
              "type": "uint256"
            },
            {
              "internalType": "uint256",
              "name": "latestId",
              "type": "uint256"
            },
            {
              "internalType": "UFixed6",
              "name": "protocolFee",
              "type": "uint256"
            },
            {
              "internalType": "UFixed6",
              "name": "oracleFee",
              "type": "uint256"
            },
            {
              "internalType": "UFixed6",
              "name": "riskFee",
              "type": "uint256"
            },
            {
              "internalType": "UFixed6",
              "name": "donation",
              "type": "uint256"
            },
            {
              "internalType": "Fixed6",
              "name": "latestPrice",
              "type": "int256"
            },
            {
              "internalType": "Fixed6",
              "name": "exposure",
              "type": "int256"
            },
            {
              "components": [
                {
                  "internalType": "Fixed6",
                  "name": "_value",
                  "type": "int256"
                },
                {
                  "internalType": "Fixed6",
                  "name": "_skew",
                  "type": "int256"
                }
              ],
              "internalType": "struct PAccumulator6",
              "name": "pAccumulator",
              "type": "tuple"
            }
          ],
          "internalType": "struct Global",
          "name": "",
          "type": "tuple"
        }
      ],
      "stateMutability": "view",
      "type": "function"
    },
    {
      "inputs": [
        {
          "components": [
            {
              "internalType": "Token18",
              "name": "token",
              "type": "address"
            },
            {
              "internalType": "contract IOracleProvider",
              "name": "oracle",
              "type": "address"
            }
          ],
          "internalType": "struct IMarket.MarketDefinition",
          "name": "definition_",
          "type": "tuple"
        }
      ],
      "name": "initialize",
      "outputs": [],
      "stateMutability": "nonpayable",
      "type": "function"
    },
    {
      "inputs": [
        {
          "internalType": "address",
          "name": "",
          "type": "address"
        },
        {
          "internalType": "uint256",
          "name": "",
          "type": "uint256"
        }
      ],
      "name": "liquidators",
      "outputs": [
        {
          "internalType": "address",
          "name": "",
          "type": "address"
        }
      ],
      "stateMutability": "view",
      "type": "function"
    },
    {
      "inputs": [
        {
          "internalType": "address",
          "name": "account",
          "type": "address"
        }
      ],
      "name": "locals",
      "outputs": [
        {
          "components": [
            {
              "internalType": "uint256",
              "name": "currentId",
              "type": "uint256"
            },
            {
              "internalType": "uint256",
              "name": "latestId",
              "type": "uint256"
            },
            {
              "internalType": "Fixed6",
              "name": "collateral",
              "type": "int256"
            },
            {
              "internalType": "UFixed6",
              "name": "claimable",
              "type": "uint256"
            }
          ],
          "internalType": "struct Local",
          "name": "",
          "type": "tuple"
        }
      ],
      "stateMutability": "view",
      "type": "function"
    },
    {
      "inputs": [],
      "name": "oracle",
      "outputs": [
        {
          "internalType": "contract IOracleProvider",
          "name": "",
          "type": "address"
        }
      ],
      "stateMutability": "view",
      "type": "function"
    },
    {
      "inputs": [],
      "name": "parameter",
      "outputs": [
        {
          "components": [
            {
              "internalType": "UFixed6",
              "name": "fundingFee",
              "type": "uint256"
            },
            {
              "internalType": "UFixed6",
              "name": "interestFee",
              "type": "uint256"
            },
            {
              "internalType": "UFixed6",
              "name": "positionFee",
              "type": "uint256"
            },
            {
              "internalType": "UFixed6",
              "name": "oracleFee",
              "type": "uint256"
            },
            {
              "internalType": "UFixed6",
              "name": "riskFee",
              "type": "uint256"
            },
            {
              "internalType": "uint256",
              "name": "maxPendingGlobal",
              "type": "uint256"
            },
            {
              "internalType": "uint256",
              "name": "maxPendingLocal",
              "type": "uint256"
            },
            {
              "internalType": "UFixed6",
              "name": "settlementFee",
              "type": "uint256"
            },
            {
              "internalType": "bool",
              "name": "takerCloseAlways",
              "type": "bool"
            },
            {
              "internalType": "bool",
              "name": "makerCloseAlways",
              "type": "bool"
            },
            {
              "internalType": "bool",
              "name": "closed",
              "type": "bool"
            },
            {
              "internalType": "bool",
              "name": "settle",
              "type": "bool"
            }
          ],
          "internalType": "struct MarketParameter",
          "name": "",
          "type": "tuple"
        }
      ],
      "stateMutability": "view",
      "type": "function"
    },
    {
      "inputs": [],
      "name": "payoff",
      "outputs": [
        {
          "internalType": "address",
          "name": "",
          "type": "address"
        }
      ],
      "stateMutability": "pure",
      "type": "function"
    },
    {
      "inputs": [],
      "name": "pending",
      "outputs": [
        {
          "components": [
            {
              "internalType": "uint256",
              "name": "timestamp",
              "type": "uint256"
            },
            {
              "internalType": "uint256",
              "name": "orders",
              "type": "uint256"
            },
            {
              "internalType": "Fixed6",
              "name": "collateral",
              "type": "int256"
            },
            {
              "internalType": "UFixed6",
              "name": "makerPos",
              "type": "uint256"
            },
            {
              "internalType": "UFixed6",
              "name": "makerNeg",
              "type": "uint256"
            },
            {
              "internalType": "UFixed6",
              "name": "longPos",
              "type": "uint256"
            },
            {
              "internalType": "UFixed6",
              "name": "longNeg",
              "type": "uint256"
            },
            {
              "internalType": "UFixed6",
              "name": "shortPos",
              "type": "uint256"
            },
            {
              "internalType": "UFixed6",
              "name": "shortNeg",
              "type": "uint256"
            },
            {
              "internalType": "uint256",
              "name": "protection",
              "type": "uint256"
            },
            {
              "internalType": "UFixed6",
              "name": "makerReferral",
              "type": "uint256"
            },
            {
              "internalType": "UFixed6",
              "name": "takerReferral",
              "type": "uint256"
            }
          ],
          "internalType": "struct Order",
          "name": "",
          "type": "tuple"
        }
      ],
      "stateMutability": "view",
      "type": "function"
    },
    {
      "inputs": [
        {
          "internalType": "uint256",
          "name": "id",
          "type": "uint256"
        }
      ],
      "name": "pendingOrder",
      "outputs": [
        {
          "components": [
            {
              "internalType": "uint256",
              "name": "timestamp",
              "type": "uint256"
            },
            {
              "internalType": "uint256",
              "name": "orders",
              "type": "uint256"
            },
            {
              "internalType": "Fixed6",
              "name": "collateral",
              "type": "int256"
            },
            {
              "internalType": "UFixed6",
              "name": "makerPos",
              "type": "uint256"
            },
            {
              "internalType": "UFixed6",
              "name": "makerNeg",
              "type": "uint256"
            },
            {
              "internalType": "UFixed6",
              "name": "longPos",
              "type": "uint256"
            },
            {
              "internalType": "UFixed6",
              "name": "longNeg",
              "type": "uint256"
            },
            {
              "internalType": "UFixed6",
              "name": "shortPos",
              "type": "uint256"
            },
            {
              "internalType": "UFixed6",
              "name": "shortNeg",
              "type": "uint256"
            },
            {
              "internalType": "uint256",
              "name": "protection",
              "type": "uint256"
            },
            {
              "internalType": "UFixed6",
              "name": "makerReferral",
              "type": "uint256"
            },
            {
              "internalType": "UFixed6",
              "name": "takerReferral",
              "type": "uint256"
            }
          ],
          "internalType": "struct Order",
          "name": "",
          "type": "tuple"
        }
      ],
      "stateMutability": "view",
      "type": "function"
    },
    {
      "inputs": [
        {
          "internalType": "address",
          "name": "account",
          "type": "address"
        },
        {
          "internalType": "uint256",
          "name": "id",
          "type": "uint256"
        }
      ],
      "name": "pendingOrders",
      "outputs": [
        {
          "components": [
            {
              "internalType": "uint256",
              "name": "timestamp",
              "type": "uint256"
            },
            {
              "internalType": "uint256",
              "name": "orders",
              "type": "uint256"
            },
            {
              "internalType": "Fixed6",
              "name": "collateral",
              "type": "int256"
            },
            {
              "internalType": "UFixed6",
              "name": "makerPos",
              "type": "uint256"
            },
            {
              "internalType": "UFixed6",
              "name": "makerNeg",
              "type": "uint256"
            },
            {
              "internalType": "UFixed6",
              "name": "longPos",
              "type": "uint256"
            },
            {
              "internalType": "UFixed6",
              "name": "longNeg",
              "type": "uint256"
            },
            {
              "internalType": "UFixed6",
              "name": "shortPos",
              "type": "uint256"
            },
            {
              "internalType": "UFixed6",
              "name": "shortNeg",
              "type": "uint256"
            },
            {
              "internalType": "uint256",
              "name": "protection",
              "type": "uint256"
            },
            {
              "internalType": "UFixed6",
              "name": "makerReferral",
              "type": "uint256"
            },
            {
              "internalType": "UFixed6",
              "name": "takerReferral",
              "type": "uint256"
            }
          ],
          "internalType": "struct Order",
          "name": "",
          "type": "tuple"
        }
      ],
      "stateMutability": "view",
      "type": "function"
    },
    {
      "inputs": [
        {
          "internalType": "address",
          "name": "account",
          "type": "address"
        }
      ],
      "name": "pendings",
      "outputs": [
        {
          "components": [
            {
              "internalType": "uint256",
              "name": "timestamp",
              "type": "uint256"
            },
            {
              "internalType": "uint256",
              "name": "orders",
              "type": "uint256"
            },
            {
              "internalType": "Fixed6",
              "name": "collateral",
              "type": "int256"
            },
            {
              "internalType": "UFixed6",
              "name": "makerPos",
              "type": "uint256"
            },
            {
              "internalType": "UFixed6",
              "name": "makerNeg",
              "type": "uint256"
            },
            {
              "internalType": "UFixed6",
              "name": "longPos",
              "type": "uint256"
            },
            {
              "internalType": "UFixed6",
              "name": "longNeg",
              "type": "uint256"
            },
            {
              "internalType": "UFixed6",
              "name": "shortPos",
              "type": "uint256"
            },
            {
              "internalType": "UFixed6",
              "name": "shortNeg",
              "type": "uint256"
            },
            {
              "internalType": "uint256",
              "name": "protection",
              "type": "uint256"
            },
            {
              "internalType": "UFixed6",
              "name": "makerReferral",
              "type": "uint256"
            },
            {
              "internalType": "UFixed6",
              "name": "takerReferral",
              "type": "uint256"
            }
          ],
          "internalType": "struct Order",
          "name": "",
          "type": "tuple"
        }
      ],
      "stateMutability": "view",
      "type": "function"
    },
    {
      "inputs": [],
      "name": "position",
      "outputs": [
        {
          "components": [
            {
              "internalType": "uint256",
              "name": "timestamp",
              "type": "uint256"
            },
            {
              "internalType": "UFixed6",
              "name": "maker",
              "type": "uint256"
            },
            {
              "internalType": "UFixed6",
              "name": "long",
              "type": "uint256"
            },
            {
              "internalType": "UFixed6",
              "name": "short",
              "type": "uint256"
            }
          ],
          "internalType": "struct Position",
          "name": "",
          "type": "tuple"
        }
      ],
      "stateMutability": "view",
      "type": "function"
    },
    {
      "inputs": [
        {
          "internalType": "address",
          "name": "account",
          "type": "address"
        }
      ],
      "name": "positions",
      "outputs": [
        {
          "components": [
            {
              "internalType": "uint256",
              "name": "timestamp",
              "type": "uint256"
            },
            {
              "internalType": "UFixed6",
              "name": "maker",
              "type": "uint256"
            },
            {
              "internalType": "UFixed6",
              "name": "long",
              "type": "uint256"
            },
            {
              "internalType": "UFixed6",
              "name": "short",
              "type": "uint256"
            }
          ],
          "internalType": "struct Position",
          "name": "",
          "type": "tuple"
        }
      ],
      "stateMutability": "view",
      "type": "function"
    },
    {
      "inputs": [
        {
          "internalType": "address",
          "name": "",
          "type": "address"
        },
        {
          "internalType": "uint256",
          "name": "",
          "type": "uint256"
        }
      ],
      "name": "referrers",
      "outputs": [
        {
          "internalType": "address",
          "name": "",
          "type": "address"
        }
      ],
      "stateMutability": "view",
      "type": "function"
    },
    {
      "inputs": [],
      "name": "riskParameter",
      "outputs": [
        {
          "components": [
            {
              "internalType": "UFixed6",
              "name": "margin",
              "type": "uint256"
            },
            {
              "internalType": "UFixed6",
              "name": "maintenance",
              "type": "uint256"
            },
            {
              "components": [
                {
                  "internalType": "UFixed6",
                  "name": "linearFee",
                  "type": "uint256"
                },
                {
                  "internalType": "UFixed6",
                  "name": "proportionalFee",
                  "type": "uint256"
                },
                {
                  "internalType": "UFixed6",
                  "name": "adiabaticFee",
                  "type": "uint256"
                },
                {
                  "internalType": "UFixed6",
                  "name": "scale",
                  "type": "uint256"
                }
              ],
              "internalType": "struct LinearAdiabatic6",
              "name": "takerFee",
              "type": "tuple"
            },
            {
              "components": [
                {
                  "internalType": "UFixed6",
                  "name": "linearFee",
                  "type": "uint256"
                },
                {
                  "internalType": "UFixed6",
                  "name": "proportionalFee",
                  "type": "uint256"
                },
                {
                  "internalType": "UFixed6",
                  "name": "adiabaticFee",
                  "type": "uint256"
                },
                {
                  "internalType": "UFixed6",
                  "name": "scale",
                  "type": "uint256"
                }
              ],
              "internalType": "struct InverseAdiabatic6",
              "name": "makerFee",
              "type": "tuple"
            },
            {
              "internalType": "UFixed6",
              "name": "makerLimit",
              "type": "uint256"
            },
            {
              "internalType": "UFixed6",
              "name": "efficiencyLimit",
              "type": "uint256"
            },
            {
              "internalType": "UFixed6",
              "name": "liquidationFee",
              "type": "uint256"
            },
            {
              "components": [
                {
                  "internalType": "UFixed6",
                  "name": "minRate",
                  "type": "uint256"
                },
                {
                  "internalType": "UFixed6",
                  "name": "maxRate",
                  "type": "uint256"
                },
                {
                  "internalType": "UFixed6",
                  "name": "targetRate",
                  "type": "uint256"
                },
                {
                  "internalType": "UFixed6",
                  "name": "targetUtilization",
                  "type": "uint256"
                }
              ],
              "internalType": "struct UJumpRateUtilizationCurve6",
              "name": "utilizationCurve",
              "type": "tuple"
            },
            {
              "components": [
                {
                  "internalType": "UFixed6",
                  "name": "k",
                  "type": "uint256"
                },
                {
                  "internalType": "Fixed6",
                  "name": "min",
                  "type": "int256"
                },
                {
                  "internalType": "Fixed6",
                  "name": "max",
                  "type": "int256"
                }
              ],
              "internalType": "struct PController6",
              "name": "pController",
              "type": "tuple"
            },
            {
              "internalType": "UFixed6",
              "name": "minMargin",
              "type": "uint256"
            },
            {
              "internalType": "UFixed6",
              "name": "minMaintenance",
              "type": "uint256"
            },
            {
              "internalType": "uint256",
              "name": "staleAfter",
              "type": "uint256"
            },
            {
              "internalType": "bool",
              "name": "makerReceiveOnly",
              "type": "bool"
            }
          ],
          "internalType": "struct RiskParameter",
          "name": "",
          "type": "tuple"
        }
      ],
      "stateMutability": "view",
      "type": "function"
    },
    {
      "inputs": [
        {
          "internalType": "address",
          "name": "account",
          "type": "address"
        }
      ],
      "name": "settle",
      "outputs": [],
      "stateMutability": "nonpayable",
      "type": "function"
    },
    {
      "inputs": [],
      "name": "token",
      "outputs": [
        {
          "internalType": "Token18",
          "name": "",
          "type": "address"
        }
      ],
      "stateMutability": "view",
      "type": "function"
    },
    {
      "inputs": [
        {
          "internalType": "address",
          "name": "account",
          "type": "address"
        },
        {
          "internalType": "UFixed6",
          "name": "newMaker",
          "type": "uint256"
        },
        {
          "internalType": "UFixed6",
          "name": "newLong",
          "type": "uint256"
        },
        {
          "internalType": "UFixed6",
          "name": "newShort",
          "type": "uint256"
        },
        {
          "internalType": "Fixed6",
          "name": "collateral",
          "type": "int256"
        },
        {
          "internalType": "bool",
          "name": "protect",
          "type": "bool"
        }
      ],
      "name": "update",
      "outputs": [],
      "stateMutability": "nonpayable",
      "type": "function"
    },
    {
      "inputs": [
        {
          "internalType": "address",
          "name": "account",
          "type": "address"
        },
        {
          "internalType": "UFixed6",
          "name": "newMaker",
          "type": "uint256"
        },
        {
          "internalType": "UFixed6",
          "name": "newLong",
          "type": "uint256"
        },
        {
          "internalType": "UFixed6",
          "name": "newShort",
          "type": "uint256"
        },
        {
          "internalType": "Fixed6",
          "name": "collateral",
          "type": "int256"
        },
        {
          "internalType": "bool",
          "name": "protect",
          "type": "bool"
        },
        {
          "internalType": "address",
          "name": "referrer",
          "type": "address"
        }
      ],
      "name": "update",
      "outputs": [],
      "stateMutability": "nonpayable",
      "type": "function"
    },
    {
      "inputs": [
        {
          "internalType": "contract IOracleProvider",
          "name": "newOracle",
          "type": "address"
        }
      ],
      "name": "updateOracle",
      "outputs": [],
      "stateMutability": "nonpayable",
      "type": "function"
    },
    {
      "inputs": [
        {
          "internalType": "address",
          "name": "newBeneficiary",
          "type": "address"
        },
        {
          "internalType": "address",
          "name": "newCoordinator",
          "type": "address"
        },
        {
          "components": [
            {
              "internalType": "UFixed6",
              "name": "fundingFee",
              "type": "uint256"
            },
            {
              "internalType": "UFixed6",
              "name": "interestFee",
              "type": "uint256"
            },
            {
              "internalType": "UFixed6",
              "name": "positionFee",
              "type": "uint256"
            },
            {
              "internalType": "UFixed6",
              "name": "oracleFee",
              "type": "uint256"
            },
            {
              "internalType": "UFixed6",
              "name": "riskFee",
              "type": "uint256"
            },
            {
              "internalType": "uint256",
              "name": "maxPendingGlobal",
              "type": "uint256"
            },
            {
              "internalType": "uint256",
              "name": "maxPendingLocal",
              "type": "uint256"
            },
            {
              "internalType": "UFixed6",
              "name": "settlementFee",
              "type": "uint256"
            },
            {
              "internalType": "bool",
              "name": "takerCloseAlways",
              "type": "bool"
            },
            {
              "internalType": "bool",
              "name": "makerCloseAlways",
              "type": "bool"
            },
            {
              "internalType": "bool",
              "name": "closed",
              "type": "bool"
            },
            {
              "internalType": "bool",
              "name": "settle",
              "type": "bool"
            }
          ],
          "internalType": "struct MarketParameter",
          "name": "newParameter",
          "type": "tuple"
        }
      ],
      "name": "updateParameter",
      "outputs": [],
      "stateMutability": "nonpayable",
      "type": "function"
    },
    {
      "inputs": [
        {
          "components": [
            {
              "internalType": "UFixed6",
              "name": "margin",
              "type": "uint256"
            },
            {
              "internalType": "UFixed6",
              "name": "maintenance",
              "type": "uint256"
            },
            {
              "components": [
                {
                  "internalType": "UFixed6",
                  "name": "linearFee",
                  "type": "uint256"
                },
                {
                  "internalType": "UFixed6",
                  "name": "proportionalFee",
                  "type": "uint256"
                },
                {
                  "internalType": "UFixed6",
                  "name": "adiabaticFee",
                  "type": "uint256"
                },
                {
                  "internalType": "UFixed6",
                  "name": "scale",
                  "type": "uint256"
                }
              ],
              "internalType": "struct LinearAdiabatic6",
              "name": "takerFee",
              "type": "tuple"
            },
            {
              "components": [
                {
                  "internalType": "UFixed6",
                  "name": "linearFee",
                  "type": "uint256"
                },
                {
                  "internalType": "UFixed6",
                  "name": "proportionalFee",
                  "type": "uint256"
                },
                {
                  "internalType": "UFixed6",
                  "name": "adiabaticFee",
                  "type": "uint256"
                },
                {
                  "internalType": "UFixed6",
                  "name": "scale",
                  "type": "uint256"
                }
              ],
              "internalType": "struct InverseAdiabatic6",
              "name": "makerFee",
              "type": "tuple"
            },
            {
              "internalType": "UFixed6",
              "name": "makerLimit",
              "type": "uint256"
            },
            {
              "internalType": "UFixed6",
              "name": "efficiencyLimit",
              "type": "uint256"
            },
            {
              "internalType": "UFixed6",
              "name": "liquidationFee",
              "type": "uint256"
            },
            {
              "components": [
                {
                  "internalType": "UFixed6",
                  "name": "minRate",
                  "type": "uint256"
                },
                {
                  "internalType": "UFixed6",
                  "name": "maxRate",
                  "type": "uint256"
                },
                {
                  "internalType": "UFixed6",
                  "name": "targetRate",
                  "type": "uint256"
                },
                {
                  "internalType": "UFixed6",
                  "name": "targetUtilization",
                  "type": "uint256"
                }
              ],
              "internalType": "struct UJumpRateUtilizationCurve6",
              "name": "utilizationCurve",
              "type": "tuple"
            },
            {
              "components": [
                {
                  "internalType": "UFixed6",
                  "name": "k",
                  "type": "uint256"
                },
                {
                  "internalType": "Fixed6",
                  "name": "min",
                  "type": "int256"
                },
                {
                  "internalType": "Fixed6",
                  "name": "max",
                  "type": "int256"
                }
              ],
              "internalType": "struct PController6",
              "name": "pController",
              "type": "tuple"
            },
            {
              "internalType": "UFixed6",
              "name": "minMargin",
              "type": "uint256"
            },
            {
              "internalType": "UFixed6",
              "name": "minMaintenance",
              "type": "uint256"
            },
            {
              "internalType": "uint256",
              "name": "staleAfter",
              "type": "uint256"
            },
            {
              "internalType": "bool",
              "name": "makerReceiveOnly",
              "type": "bool"
            }
          ],
          "internalType": "struct RiskParameter",
          "name": "newRiskParameter",
          "type": "tuple"
        },
        {
          "internalType": "bool",
          "name": "isMigration",
          "type": "bool"
        }
      ],
      "name": "updateRiskParameter",
      "outputs": [],
      "stateMutability": "nonpayable",
      "type": "function"
    },
    {
      "inputs": [
        {
          "internalType": "uint256",
          "name": "timestamp",
          "type": "uint256"
        }
      ],
      "name": "versions",
      "outputs": [
        {
          "components": [
            {
              "internalType": "bool",
              "name": "valid",
              "type": "bool"
            },
            {
              "components": [
                {
                  "internalType": "Fixed6",
                  "name": "_value",
                  "type": "int256"
                }
              ],
              "internalType": "struct Accumulator6",
              "name": "makerValue",
              "type": "tuple"
            },
            {
              "components": [
                {
                  "internalType": "Fixed6",
                  "name": "_value",
                  "type": "int256"
                }
              ],
              "internalType": "struct Accumulator6",
              "name": "longValue",
              "type": "tuple"
            },
            {
              "components": [
                {
                  "internalType": "Fixed6",
                  "name": "_value",
                  "type": "int256"
                }
              ],
              "internalType": "struct Accumulator6",
              "name": "shortValue",
              "type": "tuple"
            },
            {
              "components": [
                {
                  "internalType": "Fixed6",
                  "name": "_value",
                  "type": "int256"
                }
              ],
              "internalType": "struct Accumulator6",
              "name": "makerLinearFee",
              "type": "tuple"
            },
            {
              "components": [
                {
                  "internalType": "Fixed6",
                  "name": "_value",
                  "type": "int256"
                }
              ],
              "internalType": "struct Accumulator6",
              "name": "makerProportionalFee",
              "type": "tuple"
            },
            {
              "components": [
                {
                  "internalType": "Fixed6",
                  "name": "_value",
                  "type": "int256"
                }
              ],
              "internalType": "struct Accumulator6",
              "name": "takerLinearFee",
              "type": "tuple"
            },
            {
              "components": [
                {
                  "internalType": "Fixed6",
                  "name": "_value",
                  "type": "int256"
                }
              ],
              "internalType": "struct Accumulator6",
              "name": "takerProportionalFee",
              "type": "tuple"
            },
            {
              "components": [
                {
                  "internalType": "Fixed6",
                  "name": "_value",
                  "type": "int256"
                }
              ],
              "internalType": "struct Accumulator6",
              "name": "makerPosFee",
              "type": "tuple"
            },
            {
              "components": [
                {
                  "internalType": "Fixed6",
                  "name": "_value",
                  "type": "int256"
                }
              ],
              "internalType": "struct Accumulator6",
              "name": "makerNegFee",
              "type": "tuple"
            },
            {
              "components": [
                {
                  "internalType": "Fixed6",
                  "name": "_value",
                  "type": "int256"
                }
              ],
              "internalType": "struct Accumulator6",
              "name": "takerPosFee",
              "type": "tuple"
            },
            {
              "components": [
                {
                  "internalType": "Fixed6",
                  "name": "_value",
                  "type": "int256"
                }
              ],
              "internalType": "struct Accumulator6",
              "name": "takerNegFee",
              "type": "tuple"
            },
            {
              "components": [
                {
                  "internalType": "Fixed6",
                  "name": "_value",
                  "type": "int256"
                }
              ],
              "internalType": "struct Accumulator6",
              "name": "settlementFee",
              "type": "tuple"
            },
            {
              "components": [
                {
                  "internalType": "Fixed6",
                  "name": "_value",
                  "type": "int256"
                }
              ],
              "internalType": "struct Accumulator6",
              "name": "liquidationFee",
              "type": "tuple"
            }
          ],
          "internalType": "struct Version",
          "name": "",
          "type": "tuple"
        }
      ],
      "stateMutability": "view",
      "type": "function"
    }
  ],
  "transactionHash": "0xccc7469fc0fa8b4b280642793fd4d755e7f07444f6ac9286348803d321b99a89",
  "args": [],
  "numDeployments": 8,
  "solcInputHash": "222d4585aac69705a1b1182c4c81e59b",
  "bytecode": "0x6080806040523461001757615ed190816200001c8239f35b5f80fdfe60806040526004361015610011575f80fd5b5f803560e01c806309218e9114612bc45780630cdfebfa14612b745780631cb44dfc14612ab057806330d8c210146125d45780634549a6291461259d57806355f57510146125565780635b4b9695146125025780636a256b29146124295780636e193680146123e15780637cc4d3401461238e5780637dc0d1d01461236557806387aee00e1461229057806391eece28146117b357806395fcd83614611797578063977b1f5f14610b7e57806399d32fc414610950578063a05f9906146108c3578063a4d154871461071e578063ad4d4e29146106ea578063b68af80a146106a1578063b6a597dd1461055a578063c45a015514610525578063c496969b146104f1578063c73e293b146104a8578063cf6bf86a146101a2578063e20ccec31461016c5763fc0c546a14610143575f80fd5b34610169578060031936011261016957546040516001600160a01b039091168152602090f35b80fd5b5034610169578060031936011261016957610185613065565b50610180610193601661436c565b6101a06040518092612d45565bf35b5034610169576101c0366003190112610169576004356001600160a01b03818116918290036104a0576024358181168091036104a05761018091826043193601126104a457604051936101f58486612c0c565b604435855260209060643582870152608435604087015260a435606087015260c435608087015260e43560a08701526101043560c08701526101243560e0870152610144359081151582036104a05761010091828801526101643580151581036104a0576101208801526101843580151581036104a0576101408801526101a492833580151581036104a057610160890152845f80516020615e7c833981519152541694604051638da5cb5b60e01b815282816004818a5afa908115610495578b91610468575b50163303610450578589967fc258faa9a17ddfdf4130b4acff63a289202e7d5f9e42f366add65368575486bc937feee59a71c694e68368a1cb0d135c448051bbfb12289e6c2223b0ceb100c2321d8460018060a01b03199280846004541617600455604051908152a16005541617600555604051908152a1600481730d07e3A272F5666D10aeFC611D0F693b4a8F2E16946040519283809263ad4d4e2960e01b82525afa918215610445578592610418575b5050823b15610414576102a484926103ae9460405195869485936373a328f760e11b8552600960048601526103a6602486018d612dbc565b84019061300d565b5af48015610409576103f0575b50507ffe82819b288047b2416d26eabdd67d46cd2dc02c2332ad5d56d7fc01c46e3c5f916103ec6040518092612dbc565ba180f35b816103fa91612c0c565b61040557825f6103bb565b8280fd5b6040513d84823e3d90fd5b8380fd5b6104379250803d1061043e575b61042f8183612c0c565b810190612f81565b5f8061036e565b503d610425565b6040513d87823e3d90fd5b604051634d193d1f60e01b8152336004820152602490fd5b6104889150833d851161048e575b6104808183612c0c565b810190612e61565b5f6102bc565b503d610476565b6040513d8d823e3d90fd5b5f80fd5b8480fd5b5034610169576040366003190112610169576001600160a01b03600435818116908190036104a0578260409160209452601c845281812060243582528452205416604051908152f35b503461016957602036600319011261016957610193604061018092610514613065565b50600435815260146020522061436c565b50346101695780600319360112610169575f80516020615e7c833981519152546040516001600160a01b039091168152602090f35b5034610169576040366003190112610169577f6fee9688c285c5c5c97d6a1a29adced674e6b2ad0888b8ad2116b58a8b3ea2486001815410156106885760019055303b151580610681575b61066857335f80516020615e7c83398151915255303b15158061067a575b6106685760015f80516020615e3c833981519152556001600160a01b03600435818116908190036104055782546001600160a01b0319908116909117835560243591821691829003610405576002541617600255807f2801b00eb06461cf9fcb9758b5fafd884ff06a86177386f73b6c49f0bf5a5af0557fbe9b076dc5b65990cca9dd9d7366682482e7817a6f6bc7f4faf4dc32af497f32602060405160018152a180f35b60405163b9a621e160e01b8152600490fd5b50806105c3565b50806105a5565b604051631edb9c6d60e11b815260016004820152602490fd5b5034610169576040366003190112610169576001600160a01b03600435818116908190036104a0578260409160209452601b845281812060243582528452205416604051908152f35b5034610169578060031936011261016957610703613065565b5061018061071160096142bf565b6101a06040518092612dbc565b50346101695780600319360112610169575f80516020615e7c83398151915254604051638da5cb5b60e01b81526001600160a01b03916020908290600490829086165afa80156108b85782918491610899575b5016330361045057819081610786600b6132d7565b9160e08301908151600161079982614203565b14610877575b5081515f196107ad82614203565b14610850575b505080516040519081527f25e5e4c41e0fec8db036b4544824413a63ffe455e2b4decd71d72932f607ff5960203392a25273aD4A7b0d821B955492d9BEa6776CDcC33Ee8CaC690813b1561084c5761082c6101648492604051948593849263045a766b60e01b8452600b60048501526024840190612f1e565b5af480156104095761083b5750f35b8161084591612c0c565b6101695780f35b5050fd5b610868610863610870938654169261442a565b61421f565b90339061427c565b5f806107b3565b6108939061088b610863848754169261442a565b903390614239565b5f61079f565b6108b2915060203d60201161048e576104808183612c0c565b5f610771565b6040513d85823e3d90fd5b50346101695780600319360112610169576108dc6131e1565b506101406108ea600b6132d7565b60206040519180518352818101518284015260408101516040840152606081015160608401526080810151608084015260a081015160a084015260c081015160c084015260e081015160e084015261010080910151908151908401520151610120820152f35b503461016957806003193601126101695761096b600b6132d7565b338252602090601082528261098260408220613588565b5f80516020615e7c8339815191528054604051638da5cb5b60e01b81529294926001600160a01b039187908290600490829086165afa8015610445576004938684928a948291610b61575b506109de60408901918251906140cb565b610b59575b5050541660405193848092630c7f7fb960e41b82525afa8015610b4e5784928391610b12575b508290610a1e606086019184835191166140cb565b610b0a575b508160055416610a3960808601918251906140cb565b610b02575b505060045416610a5460a08401918251906140cb565b610afa575b5060608401610a698151336140cb565b610af2575b505073aD4A7b0d821B955492d9BEa6776CDcC33Ee8CaC690813b1561040557610ab86101648492604051948593849263045a766b60e01b8452600b60048501526024840190612f1e565b5af4801561040957610add575b50506010610ada923385525260408320614140565b80f35b81610ae791612c0c565b61040557825f610ac5565b52815f610a6e565b52815f610a59565b52815f610a3e565b52815f610a23565b80929350878092503d8311610b47575b610b2c8183612c0c565b81010312610414575190808216820361041457839182610a09565b503d610b22565b6040513d86823e3d90fd5b52865f6109e3565b610b789150853d871161048e576104808183612c0c565b5f6109cd565b50346101695760e0366003190112610169576004356001600160a01b03811690036104a05760a435151560a435036104a05760c4356001600160a01b03811690036104a05760025f80516020615e3c83398151915254146117855760025f80516020615e3c833981519152555f80516020615e7c83398151915254604051635c975abb60e01b815290602090829060049082906001600160a01b03165afa90811561040957829161174b575b5061173957610c3a600435613659565b610c46600435826138ac565b610160602082015101516117275760405190610c6360c083612c0c565b828252826020830152826040830152826060830152610c806135ff565b6080830152610c8d6135d6565b60a0830152610ca060e082015151615b8f565b60a083015152610cbc60a0830151516101008301515190615526565b610ccd602060e08301510151615b8f565b602060a08401510152610cf2602060a084015101516020610100840151015190615526565b60a08101515183526014602052610d0b6040842061436c565b60808301515260018060a01b0360043516835260156020526040832060c0820151518452602052610d3e60408420613db3565b60206080840151015260018060a01b035f80516020615e7c833981519152541660405163131bac4760e11b815260018060a01b03600435166004820152336024820152602081604481855afa9081156104455785916116e6575b5015158352600480356001600160a01b03908116808752601b6020908152604080892060c088018051518b52908352818a2054851689840152928952601c8252808920925151895291815281882054831682880152905163085d260760e21b815260c4359092169282019290925291829060249082905afa908115610b4e5784916116b4575b5060608301526001610e36600160ff1b608435615c16565b036116ac57610e65604060c08301510151610e60620f424091610e5a835f19615436565b90615436565b615bcf565b610e7d60243560208060a08701510151015184615465565b610e966044356040602060a08801510151015185615465565b91610eb06064356060602060a08901510151015186615465565b610ebd60c43587876154fd565b936080860151602060808901510151908151811161167f575b50506080860151608088015151908151811161165e575b5050608086015194602060a08901510151610f06613065565b50610f1086614439565b90610f1e6020820151614439565b908b8212838381031281169084848103139015161761164a57610f4085614439565b93610f4e6040830151614439565b908d8212868381031281169087848103139015161761163657908d9291610f816060610f798b614439565b940151614439565b93841283858103128116908486810313901516176116225790610fd68f979695949392610fd1610fc6610fb5888a0361442a565b610fc0868c0361442a565b9061388b565b610fc087870361442a565b615bfd565b9587858703135f1461161957610fed85870361442a565b88868803125f146116105761100386880361442a565b9189848203135f146116075761101a84820361442a565b938a818303125f146115fc57611030910361442a565b9389868203135f146115f35761104786820361442a565b958a818303125f146115e85761105d910361442a565b9560a435156115e1576001975b149788156115da5789985b156115d357985b6040519e8f9061108e61018083612c0c565b8152602001528d8c60408201526060015260808d015260a08c015260c08b015260e08a015261010089015260ff166101208801526101408701526101608601526110d785615b11565b15806115c3575b156115b7575b6110f38560a089015151615526565b61110585602060a08a01510151615526565b61111785602060808a01510151615651565b61112685608089015151615651565b6111368561010088015151615651565b6111498560206101008901510151615651565b604060c087015101805184808201128a82129080158216911516176115a35784019052610120850151611598575b61118460c435868961575f565b61118d85615b11565b1580611588575b1561151a575b73F733681De4c6ec0Ae28354c4Cd1A0698C534e35a3b15611516578760405163d329553160e01b81526111d160048201895161300d565b6111e46020890151610104830190612dbc565b6111f76040890151610284830190612fe9565b61120a6060890151610584830190614073565b60808801516105e482015261122860a0890151610604830190612f1e565b61123b60c0890151610744830190612be9565b61124e60e08901516107c483019061408e565b6112626101008901516108c48301906140ac565b88511515610bc482015260208901516001600160a01b03908116610be483015260408a015116610c048201526060890151610c2482015260808901516112ad90610c448301906140ac565b6112c060a08a0151610f4483019061408e565b336110448201526004356001600160a01b03166110648201526112e7611084820188612d45565b8461120482015281816112248173F733681De4c6ec0Ae28354c4Cd1A0698C534e35a5af4801561040957611501575b50506114ad9660a0870151518952601460205261133c60408a2060808301515190615220565b6004356001600160a01b03168952601560209081526040808b2060c08a0151518c5282528a206080830151909101516113749161534e565b60018060a01b036020820151169060018060a01b03600435168a52601b60205260408a2060c0890151518b5260205260408a2060018060a01b03199283825416179055604060018060a01b039101511660018060a01b03600435168a52601c60205260408a2060c0890151518b5260205260408a20918254161790556113f983614203565b600181146114e1575b5f19146114c1575b608086015193604051948552602085015260408401526060830152608082015260a435151560a082015260018060a01b0360c4351660c082015260018060a01b0360043516905f80516020615e5c83398151915260e03392a36114706040518092612d45565b6004356001600160a01b0316907f9a56cf35efaffce99179d6c2031a9dc354c09b4a2bb7f1b7fb9f8c4736979c059061018090a260043590613bdf565b60015f80516020615e3c8339815191525580f35b87546114dc906001600160a01b031661088b6108638661442a565b61140a565b88546114fc906001600160a01b03166108686108638761442a565b611402565b8161150b91612c0c565b61151657875f611316565b8780fd5b60025488906001600160a01b0316803b1561158457818091604460405180948193631a9be9fd60e11b835230600484015260018060a01b036004351660248401525af180156104095761156f575b505061119a565b8161157991612c0c565b61151657875f611568565b5080fd5b5061159285615b2a565b15611194565b336020880152611177565b634e487b7160e01b8a52601160045260248afd5b600160208601526110e4565b506115cd85615b2a565b156110de565b508861107c565b8098611075565b899761106a565b505061105d8961442a565b6110478a61442a565b50506110308961442a565b61101a8a61442a565b6110038961442a565b610fed8861442a565b634e487b7160e01b8f52601160045260248ffd5b634e487b7160e01b8e52601160045260248efd5b634e487b7160e01b8c52601160045260248cfd5b61166791615201565b60a08601516116768151614065565b90525f80610eed565b61168891615201565b87604088015287602088015260c08601516116a38151614065565b90525f80610ed6565b608435610e65565b90506020813d6020116116de575b816116cf60209383612c0c565b8101031261041457515f610e1e565b3d91506116c2565b90506020813d60201161171f575b8161170160209383612c0c565b810103126104a457602491611717602092613058565b915091610d98565b3d91506116f4565b604051630b8b968760e31b8152600490fd5b604051634b94d2bb60e01b8152600490fd5b90506020813d60201161177d575b8161176660209383612c0c565b810103126115845761177790613058565b5f610c2a565b3d9150611759565b6040516345f6780960e11b8152600490fd5b5034610169578060031936011261016957602090604051908152f35b50346101695760c0366003190112610169576004356001600160a01b03811690036104a05760a435151560a435036104a05760025f80516020615e3c83398151915254146117855760025f80516020615e3c833981519152555f80516020615e7c83398151915254604051635c975abb60e01b815290602090829060049082906001600160a01b03165afa908115610409578291612256575b506117395761185c600435613659565b611868600435826138ac565b61016060208201510151611727576040519061188560c083612c0c565b8282528260208301528260408301528260608301526118a26135ff565b60808301526118af6135d6565b60a08301526118c260e082015151615b8f565b60a0830151526118de60a0830151516101008301515190615526565b6118ef602060e08301510151615b8f565b602060a08401510152611914602060a084015101516020610100840151015190615526565b60a0810151518352601460205261192d6040842061436c565b60808301515260018060a01b0360043516835260156020526040832060c082015151845260205261196060408420613db3565b60206080840151015260018060a01b035f80516020615e7c833981519152541660405163131bac4760e11b815260018060a01b03600435166004820152336024820152602081604481855afa908115610445578591612215575b50151583526001600160a01b03600480358216808752601b6020908152604080892060c088018051518b52908352818a20548616838a0152928952601c8252808920925151895291815281882054909316818701525163085d260760e21b815290810186905291829060249082905afa908115610b4e5784916121e3575b5060608301526001611a50600160ff1b608435615c16565b036121db57611a74604060c08301510151610e60620f424091610e5a835f19615436565b611a8c60243560208060a08701510151015184615465565b611aa56044356040602060a08801510151015185615465565b91611abf6064356060602060a08901510151015186615465565b611aca8787876154fd565b93608086015160206080890151015190815181116121ae575b50506080860151608088015151908151811161218d575b5050608086015194602060a08901510151611b13613065565b50611b1d86614439565b90611b2b6020820151614439565b908b8212838381031281169084848103139015161761164a57611b4d85614439565b93611b5b6040830151614439565b908d8212868381031281169087848103139015161761163657908d9291611b866060610f798b614439565b93841283858103128116908486810313901516176116225790611bba8f979695949392610fd1610fc6610fb5888a0361442a565b9587858703135f1461218457611bd185870361442a565b88868803125f1461217b57611be786880361442a565b9189848203135f1461217257611bfe84820361442a565b938a818303125f1461216757611c14910361442a565b9389868203135f1461215e57611c2b86820361442a565b958a818303125f1461215357611c41910361442a565b9560a4351561214c576001975b149788156121455789985b1561213e57985b6040519e8f90611c7261018083612c0c565b8152602001528d8c60408201526060015260808d015260a08c015260c08b015260e08a015261010089015260ff16610120880152610140870152610160860152611cbb85615b11565b158061212e575b15612122575b611cd78560a089015151615526565b611ce985602060a08a01510151615526565b611cfb85602060808a01510151615651565b611d0a85608089015151615651565b611d1a8561010088015151615651565b611d2d8560206101008901510151615651565b604060c087015101805184808201128a82129080158216911516176115a35784019052610120850151612117575b611d6688868961575f565b611d6f85615b11565b1580612107575b1561209d575b73F733681De4c6ec0Ae28354c4Cd1A0698C534e35a3b15611516578760405163d329553160e01b8152611db360048201895161300d565b611dc66020890151610104830190612dbc565b611dd96040890151610284830190612fe9565b611dec6060890151610584830190614073565b60808801516105e4820152611e0a60a0890151610604830190612f1e565b611e1d60c0890151610744830190612be9565b611e3060e08901516107c483019061408e565b611e446101008901516108c48301906140ac565b88511515610bc482015260208901516001600160a01b03908116610be483015260408a015116610c048201526060890151610c248201526080890151611e8f90610c448301906140ac565b611ea260a08a0151610f4483019061408e565b336110448201526004356001600160a01b0316611064820152611ec9611084820188612d45565b8461120482015281816112248173F733681De4c6ec0Ae28354c4Cd1A0698C534e35a5af4801561040957612088575b50506114ad9660a08701515189526014602052611f1e60408a2060808301515190615220565b6004356001600160a01b03168952601560209081526040808b2060c08a0151518c5282528a20608083015190910151611f569161534e565b60018060a01b036020820151169060018060a01b03600435168a52601b60205260408a2060c0890151518b5260205260408a2060018060a01b03199283825416179055604060018060a01b039101511660018060a01b03600435168a52601c60205260408a2060c0890151518b5260205260408a2091825416179055611fdb83614203565b60018114612068575b5f1914612048575b608086015193604051948552602085015260408401526060830152608082015260a435151560a08201528460c082015260018060a01b0360043516905f80516020615e5c83398151915260e03392a36114706040518092612d45565b8754612063906001600160a01b031661088b6108638661442a565b611fec565b8854612083906001600160a01b03166108686108638761442a565b611fe4565b8161209291612c0c565b61151657875f611ef8565b60025488906001600160a01b0316803b1561158457818091604460405180948193631a9be9fd60e11b835230600484015260018060a01b036004351660248401525af18015610409576120f2575b5050611d7c565b816120fc91612c0c565b61151657875f6120eb565b5061211185615b2a565b15611d76565b336020880152611d5b565b60016020860152611cc8565b5061213885615b2a565b15611cc2565b5088611c60565b8098611c59565b8997611c4e565b5050611c418961442a565b611c2b8a61442a565b5050611c148961442a565b611bfe8a61442a565b611be78961442a565b611bd18861442a565b61219691615201565b60a08601516121a58151614065565b90525f80611afa565b6121b791615201565b87604088015287602088015260c08601516121d28151614065565b90525f80611ae3565b608435611a74565b90506020813d60201161220d575b816121fe60209383612c0c565b8101031261041457515f611a38565b3d91506121f1565b90506020813d60201161224e575b8161223060209383612c0c565b810103126104a457602491612246602092613058565b9150916119ba565b3d9150612223565b90506020813d602011612288575b8161227160209383612c0c565b810103126115845761228290613058565b5f61184c565b3d9150612264565b5034610169576020366003190112610169576122c460406101c0926122b36130c0565b506004358152601360205220613ec1565b60405190805115158252602081015151602083015260408101515160408301526060810151516060830152608081015151608083015260a08101515160a083015260c08101515160c083015260e08101515160e08301526101008082015151908301526101208082015151908301526101408082015151908301526101608082015151908301526101808082015151908301526101a0809101515190820152f35b50346101695780600319360112610169576002546040516001600160a01b039091168152602090f35b5034610169576040366003190112610169576004356001600160a01b03811691908290036104a057604061019391610180936123c8613065565b5081526015602052818120602435825260205220613db3565b5034610169576020366003190112610169576004356001600160a01b03811691908290036104a0576040610193916101809361241b613065565b508152601960205220613db3565b5034610169576020366003190112610169576004356001600160a01b0380821682036104a0575f80516020615e3c833981519152906002825414611785576020600491600284555f80516020615e7c833981519152541660405192838092635c975abb60e01b82525afa908115610b4e5784916124c8575b50611739576124c4826124b5600194613659565b6124bf82826138ac565b613bdf565b5580f35b90506020813d6020116124fa575b816124e360209383612c0c565b81010312610414576124f490613058565b5f6124a1565b3d91506124d6565b5034610169576020366003190112610169576004356001600160a01b03811691908290036104a05760406125499160809361253b612e3b565b508152601060205220613588565b6101a06040518092612be9565b5034610169576020366003190112610169576004356001600160a01b03811691908290036104a05760406125499160809361258f612e3b565b508152601160205220613509565b50346101695780600319360112610169576125b6612ea0565b506125d06125c46006613381565b60405191829182612c81565b0390f35b50346104a057366003190161032081126104a057610300136104a0576040516125ff6101a082612c0c565b6004358152602460209080358284015261261a366044612c43565b906040840191825261262d3660c4612c43565b9260609081860194855261014435608087015261016490813560a08801526101843560c0880152612660366101a4612c43565b60e088015282610223193601126104a0576040519561267f8488612c0c565b61022435875261024435828801526102643560408801526101009687890152610284356101208901526102a4356101408901526102c4356101608901526102e43580151581036104a057610180890152610304359081151582036104a0576005546001600160a01b039790881633141580612a52575b612a4057612703600b6132d7565b9561270e600d61323e565b91612717612ea0565b9415612a2e57818086015101620f424090818460408901510152525b818501519351946127958785015160c08b01965f61278f6127548a5161442a565b938c61276a8661276384614439565b8688614462565b9c80519180820151918c60408201519101518d89015260408801528601528452614439565b91614462565b5f8782039712818812811691881390151617612a1b57604001519051936127cb836127c36040870151614439565b950151614439565b935f8582039512818612811691861390151617612a1b57915f916127f461282e9695945161442a565b9482820191825161280e8888886040860194855190615805565b9a8351938181015192604082015197889201518097525282015252615805565b5f83820393128184128116918413901516176129f5575f8282019283129112908015821691151617612a085760e0830180515f83820393128184128116918413901516176129f5575273aD4A7b0d821B955492d9BEa6776CDcC33Ee8CaC691823b156104a0575f916128bc91604051948593849263045a766b60e01b8452600b600485015288840190612f1e565b5af480156129ea576129d1575b509082916004869473E02bADe78Ae492E78383B04D6F25d521FF961d20935f80516020615e7c83398151915254166040519283809263ad4d4e2960e01b82525afa9384156104455785946129b2575b5050813b156104145761042461294e91859361295960405196879586946302903c7960e21b86526006600487015285018b612fe9565b61032484019061300d565b5af480156104095761299d575b506040517fc25ab284ab9f56bf288df3ff5fbe0a66a671e6616b6311ed26fe943ba789e0b990806129978582612c81565b0390a180f35b816129a791612c0c565b61158457815f612966565b6129c9929450803d1061043e5761042f8183612c0c565b915f80612918565b6129e091939295505f90612c0c565b5f9390915f6128c9565b6040513d5f823e3d90fd5b84634e487b7160e01b5f5260116004525ffd5b83634e487b7160e01b5f5260116004525ffd5b89634e487b7160e01b5f5260116004525ffd5b9350612a3a6006613381565b93612733565b604051639bca062560e01b8152600490fd5b50600484895f80516020615e7c833981519152541660405192838092638da5cb5b60e01b82525afa80156129ea5789915f91612a93575b50163314156126f5565b612aaa9150863d881161048e576104808183612c0c565b5f612a89565b346104a05760203660031901126104a0576004356001600160a01b03818116918290036104a05760046020825f80516020615e7c833981519152541660405192838092638da5cb5b60e01b82525afa9081156129ea575f91612b55575b5016330361045057600280546001600160a01b031916821790556040519081527f3df77beb5db05fcdd70a30fc8adf3f83f9501b68579455adbd100b818094039490602090a1005b612b6e915060203d60201161048e576104808183612c0c565b83612b0d565b346104a05760403660031901126104a0576004356001600160a01b038116908190036104a057612ba2612e3b565b505f52601a60205260405f206024355f52602052608061254960405f2061328a565b346104a0575f3660031901126104a057612bdc612e3b565b506080612549600d61323e565b606080918051845260208101516020850152604081015160408501520151910152565b601f909101601f19168101906001600160401b03821190821017612c2f57604052565b634e487b7160e01b5f52604160045260245ffd5b91908260809103126104a057604051612c5d608082612c0c565b60608082948035845260208101356020850152604081013560408501520135910152565b9190916102e06103008201938051835260208101516020840152612cad60408201516040850190612be9565b612cbf606082015160c0850190612be9565b608081015190610140918285015260a0810151610160908186015260c0820151926101809384870152612cfb60e08401516101a0880190612be9565b61010083015180516102208801526020810151610240880152604001516102608701526101208301516102808701528201516102a08601528101516102c085015201511515910152565b805182526020810151602083015260408101516040830152606081015160608301526080810151608083015260a081015160a083015260c081015160c083015260e081015160e083015261010080820151908301526101208082015190830152610140808201519083015261016080910151910152565b805182526020810151602083015260408101516040830152606081015160608301526080810151608083015260a081015160a083015260c081015160c083015260e081015160e0830152610100808201511515908301526101208082015115159083015261014080820151151590830152610160809101511515910152565b60405190612e4a608083612c0c565b5f6060838281528260208201528260408201520152565b908160209103126104a057516001600160a01b03811681036104a05790565b60405190612e8f606083612c0c565b5f6040838281528260208201520152565b60405190612eb06101a083612c0c565b5f61018083828152826020820152612ec6612e3b565b6040820152612ed3612e3b565b60608201528260808201528260a08201528260c0820152612ef2612e3b565b60e0820152612eff612e80565b6101008201528261012082015282610140820152826101608201520152565b60206101209180518452818101518285015260408101516040850152606081015160608501526080810151608085015260a081015160a085015260c081015160c085015260e081015160e085015261010080910151908151908501520151910152565b809161010092839103126104a05760e090612f9f6040519384612c0c565b805183526020810151602084015260408101516040840152606081015160608401526080810151608084015260a081015160a084015260c081015160c0840152015160e082015290565b6102e0908051835260208101516020840152612cad60408201516040850190612be9565b60e08091805184526020810151602085015260408101516040850152606081015160608501526080810151608085015260a081015160a085015260c081015160c08501520151910152565b519081151582036104a057565b6040519061307561018083612c0c565b5f610160838281528260208201528260408201528260608201528260808201528260a08201528260c08201528260e08201528261010082015282610120820152826101408201520152565b6040908151916130d26101c084612c0c565b6101a0835f81526131da60209380516130eb8682612c0c565b5f81528584015280516130fe8682612c0c565b5f81528184015280516131118682612c0c565b5f8152606084015280516131258682612c0c565b5f8152608084015280516131398682612c0c565b5f815260a0840152805161314d8682612c0c565b5f815260c084015280516131618682612c0c565b5f815260e084015280516131758682612c0c565b5f8152610100840152805161318a8682612c0c565b5f8152610120840152805161319f8682612c0c565b5f815261014084015280516131b48682612c0c565b5f815261016084015280516131c98682612c0c565b5f8152610180840152519384612c0c565b5f83520152565b604051906131f161012083612c0c565b815f81525f60208201525f60408201525f60608201525f60808201525f60a08201525f60c08201525f60e082015261010060405191613231604084612c0c565b5f83525f60208401520152565b613246612e3b565b50600181549101549060018060401b038060405193613266608086612c0c565b63ffffffff841685521660208401528160801c16604083015260c01c606082015290565b613292612e3b565b5054604051906132a3608083612c0c565b8060d01b60d01d825265ffffffffffff8160301c1660208301528060601b60c01d604083015260201b60c01d606082015290565b6132df6131e1565b50600181549101549063ffffffff9165ffffffffffff9160405192613305604085612c0c565b8260e01b60e01d84528260c81b60e81d60208501526040519461332a61012087612c0c565b80831686528260201c166020860152808260401c166040860152808260701c1660608601528160a01c16608085015260d01c60a08401528060881b60c01d60c084015260481b60c01d60e083015261010082015290565b6101a09061338d612ea0565b50805490600260018201549101549162ffffff9160608365ffffffffffff936133ba858560481c16614412565b6040938451916133cb608084612c0c565b848460301c168352848460481c1660208401528484831c1686840152818301526133f9878760181c16614412565b90855191613408608084612c0c565b858560781c168352858560901c1660208401528588168784015281830152613434888560a81c16614412565b92865196613443608089612c0c565b868960781c168852868960901c166020890152868960a81c1681890152868960c01c1683890152805198613477848b612c0c565b8a8d168a5260081b60e01d60208a01528b60b01b60e01d818a015261349e81519d8e612c0c565b8686168d528c6020888860181c169101528c01528a0152608089015260d81c1660a0870152828560b01c1660c087015260e0860152610100850152808360501c166101208501528260801c166101408401528160e01c1661016083015260f81c151561018082015290565b613511612e3b565b50805460019091015460016001603e1b03600282901c16906003168061358157815b6001820361357857600281925b0361357057915b63ffffffff6040519461355b608087612c0c565b16845260208401526040830152606082015290565b505f91613547565b60025f92613540565b5f91613533565b613590612e3b565b50546040519063ffffffff6135a6608084612c0c565b8181168352602082811c90911690830152608081811b60c01d60408401521c6001600160401b0316606082015290565b604051906135e5604083612c0c565b816135ee612e3b565b815260206135fa612e3b565b910152565b6040519061360e604083612c0c565b81613617613065565b815260206135fa613065565b91908260609103126104a05760405161363d606082612c0c565b60406135fa818395805185526020810151602086015201613058565b9060409182519061366c61012083612c0c565b83516101009461367c8683612c0c565b5f82526020925f848401525f828401525f60608401526080925f848201525f60a08201525f60c08201525f60e08201528552838501966136ba613065565b8852828601956136c8612ea0565b875260608101926136d7612e80565b8452858201935f855260a08301906136ed6131e1565b825260c08401956136fc612e3b565b875260e085019561370b6135d6565b87528086019b6137196135ff565b8d52869e61372760096142bf565b90526137336006613381565b90525f80516020615e7c83398151915254895163ad4d4e2960e01b81526001600160a01b0397918390829060049082908c165afa9283156138815790600495949392915f93613862575b5050528986600254168a5194858092631006976960e11b82525afa908115613858575f935f92613816575b506138109a5052526137ba600b6132d7565b90521691825f52601086526137d0845f20613588565b90526137dc600d61323e565b815152815f5260118552846137f2845f20613509565b91510152613800601661436c565b8551525f52601983525f20613db3565b91510152565b93509050893d8b11613851575b61382d8185612c0c565b830199838b03126104a05760606138476138109b85613623565b930151905f6137a8565b503d613823565b89513d5f823e3d90fd5b613879929350803d1061043e5761042f8183612c0c565b905f8061377d565b8b513d5f823e3d90fd5b9190820180921161389857565b634e487b7160e01b5f52601160045260245ffd5b91906040908151916060916138c18385612c0c565b6138c96130c0565b8452602092838501956138da612e3b565b87528386016138e7612e80565b815260e0890197885151515f5260138752613903865f20613ec1565b885260018060a01b039182861692835f52601a8952875f20898c510151515f528952613930885f2061328a565b83526002541690858b51515160248a5180958193630e0886f960e41b835260048301525afa918215613bd557908992915f92613b99575b5081905201805115613b88575b505180511580613b7d575b80613b72575b80613b67575b80613b54575b613b42575b5061399f613065565b975b60a08a018051888151910151809114159081613b11575b50156139df5787905101516001810180911161389857896139da918a8d614596565b6139a1565b509091929395945b60c08a018051878151910151141580613ad6575b15613a22578690510151600181018091116138985789613a1d91898b8e614dab565b6139e7565b50919750959297949391978501958651518151515110613a9c575b82875151915101515110613a55575b50505050505050565b613a90965f5260158252613a87613a7e825f209260c088019385855101515f5285525f20613db3565b96515187615201565b51015192614dab565b5f808080808080613a4c565b613ad160a0870184815101515f526014855284613aba855f2061436c565b91613ac78b515184615201565b5101518689614596565b613a3d565b509850825f5260158652805f20868a51015160018101809111613898575f528652613b02815f20613db3565b98858b0151518a5111156139fb565b80929b506001915001809111613898575f5260148752613b32865f2061436c565b98848b0151518a5111155f6139b8565b838660c08c015101519101525f613996565b5085876101008c01510151015115613991565b50838101511561398b565b508581015115613985565b50868101511561397f565b60c060a08c0151015190525f613974565b92509050853d8711613bce575b613bb08184612c0c565b82019186818403126104a0578992613bc791613623565b905f613967565b503d613ba6565b88513d5f823e3d90fd5b60a0810151929173aD4A7b0d821B955492d9BEa6776CDcC33Ee8CaC690813b156104a0576101645f60409384519283809263045a766b60e01b8252613c30859b600b60048501526024840190612f1e565b5af48015613da957613d94575b506001600160a01b0316808552601060205281852060c0840151919391613c6391614140565b735f52A20d8126eF29d813F522aa254F92500e0b928560e0830191825151813b1561040557613cb160a48492885194859384926366e4915160e01b8452600d60048501526024840190612be9565b5af48015613d8a57613d71575b5084905260116020528583812091602073b5CB0bbe900FEEe7f23F7BD785Cd07032928B3349151015190803b1561040557613d169360a49187519586948593635c7731d160e11b855260048501526024840190612be9565b5af48015613d6757613d52575b5090613d5093946101006020930193613d3f8551516016615220565b81526019835220915101519061534e565b565b613d5d868092612c0c565b6104a4575f613d23565b83513d88823e3d90fd5b81613d7b91612c0c565b613d8657855f613cbe565b8580fd5b85513d84823e3d90fd5b613da19195505f90612c0c565b5f935f613c3d565b83513d5f823e3d90fd5b613dbb613065565b506001815491015460038260801c169060018080603e1b0393848160821c16948160c01c1663ffffffff95851595865f14613eba5781965b15613eb357825b818614908115613eac5783915b15613ea357600281935b14938415613e9b57935b15613e9357935b868060401b03986040519a613e396101808d612c0c565b8088168c528760201c1660208c01528660801b60c01d60408c015260608b015260808a015260a089015260c088015260e087015261010086015260fe1c1661012084015281811661014084015260401c1661016082015290565b505f93613e22565b505f93613e1b565b60025f93613e11565b5f91613e07565b5f92613dfa565b5f96613df3565b613ec96130c0565b508054816001829301549060020154604051916020928392613eeb8483612c0c565b8560b81b60c01d825260405190613f028583612c0c565b8660781b60c01d8252604051613f188682612c0c565b8760381b60c01d8152604051613f2e8782612c0c565b8260d01b60d01d815260405190613f458883612c0c565b8360a01b60d01d825260405192613f5c8985612c0c565b8460701b60d01d845260405194613f738a87612c0c565b60401b60d01d855260405195613f898a88612c0c565b8860d01b60d01d875260405197613fa08b8a612c0c565b8960a01b60d01d89528a6040519a613fb8828d612c0c565b8060701b60d01d8c526040519c613fcf908e612c0c565b8060401b60d01d8d526040519d613fe6908f612c0c565b60101b60d01d8d52604051809e613ffd8383612c0c565b60081b60d01d90526040519e8f906140176101c083612c0c565b60ff1615158152015260408d015260608c015260808b015260a08a015260c089015260e08801526101008701526101208601526101408501526101608401526101808301526101a082015290565b5f1981146138985760010190565b60408091805184526020810151602085015201511515910152565b9060806020613d50936140a2848251612be9565b0151910190612be9565b906101806020613d50936140c1848251612d45565b0151910190612d45565b6001600160a01b0381811692909190338414801590614138575b614130576141246020927f20ca5094f3a20c321cbe4123d0f01b276b81df0fa24cd4d83d9253956035d863945f54169061411e8461421f565b91614239565b604051908152a2600190565b505050505f90565b5080156140e5565b9063ffffffff91828251116141f15760208201838151116141f1576040830180516002906141769060016001603f1b0390615c16565b146141f15780516141909060016001603f1b031990615c16565b156141f157606084019160026141ad60018060401b038551615c32565b146141f1575f9560019551169063ffffffff60201b905160201b1617908460401b8560801b03905160401b1617908360801b8460c01b03905160801b161781550155565b60405163320f423b60e21b8152600490fd5b5f8113614219575f13614214575f90565b5f1990565b50600190565b64e8d4a51000908181029181830414901517156138985790565b60405163a9059cbb60e01b60208201526001600160a01b039283166024820152604480820194909452928352613d50929190614276606484612c0c565b16615c5e565b6040516323b872dd60e01b60208201526001600160a01b039283166024820152306044820152606480820194909452928352613d50929190614276608484612c0c565b6142c7613065565b50546008808260f81c65ffffffffffff62ffffff9461ffff604051966142ef61018089612c0c565b8083168852808360181c166020890152808360301c166040890152808360481c1660608901528260601c166080880152808260781c1660a08801528160881c1660c087015260981c1660e0850152600180821614610100850152600280821614610120850152600480821614610140850152161461016082015290565b614374613065565b5080546001820154600290920154604051926001600160401b039263ffffffff6143a061018087612c0c565b80821686528160201c1660208601528060801b60c01d6040860152838160801c16606086015260c01c608085015282811660a0850152828160401c1660c0850152828160801c1660e085015260c01c6101008401525f61012084015281811661014084015260401c1661016082015290565b620f4240908181029181830414901517156138985790565b5f81126144345790565b5f0390565b6001600160ff1b03811161444a5790565b6024906040519063eecaa25d60e01b82526004820152fd5b929161446d82614439565b5f82820192831291129080158216911516176138985761448c906157c2565b60406144b36144a66144ab6144a6606089019687516157e4565b614439565b9385516157e4565b9251940151818303925f83128015828613169185121617613898576144d794615805565b90565b91908260209103126104a0576040516144f4602082612c0c565b91518252565b805115158252602081015151602083015260408101515160408301526060810151516060830152608081015151608083015260a08101515160a083015260c08101515160c083015260e08101515160e08301526101008082015151908301526101208082015151908301526101408082015151908301526101608082015151908301526101808082015151908301526101a08091015151910152565b92919060018060a01b036002541660608451602460405180948193630e0886f960e41b835260048301525afa9081156129ea575f91614d72575b5060208101805115614d61575b506145ee84610100870151516158dd565b604081015115614d53575b6040516146086102a082612c0c565b5f8152602081015f9052604081015f9052606081015f9052608081015f905260a081015f905260c081015f905260e081015f905261010081015f905261012081015f905261014081015f905261016081015f905261018081015f90526101a081015f90526101c081015f90526101e081015f905261020081015f905261022081015f905261024081015f905261026081015f9052610280015f905281519460a081015160e08201515160408501516020840151916040850151936040519a63125c105b60e11b8c5260048c016146dd916144fa565b6101c48b016146eb91612f1e565b6103048a016146f991612be9565b6147076103848a0189612d45565b610504890161471591614073565b614723610564890185614073565b6105c4880161473191612dbc565b610744870161473f91612fe9565b8580736fd2B0a8a40A1Be8510cB5f39eFd72CFCA3b45bE5a92610a44916105a094f49586156129ea575f905f905f98614a24575b5060a0830152835260e060a082015187608061482860208601516147f76147cb6147c46147bc8a51976101e06147b360408301516101608401519061388b565b9101519061388b565b965187615bfd565b8096615458565b6147f26147ea6147df606086015184615bfd565b968795015183615bfd565b958692615458565b615458565b938a602087015261480d6040870191825161388b565b905260608501516102608d01516148239161388b565b61388b565b606084015261483c6080840191825161388b565b905261484d60a0830191825161388b565b90520180519060c0880151915f8382019384129112908015821691151617613898575260e0015151614880908590615526565b604082015282515f52601360205260405f207373Ff980B20696EE07827146c76F71E48727835949151823b156104a0576101e45f926148da946040519586948593631cf7ef4560e11b8552600485015260248401906144fa565b5af49384156129ea5761492661044094610280937fa682436af40a175ff2ec8049fb223c3b762ca7ce50863806fc21706829e2766297614a14575b506040519485526020850190612d45565b80516101a084015260208101516101c084015260408101516101e08401526060810151610200840152608081015161022084015260a081015161024084015260c081015161026084015260e0810151828401526101008101516102a08401526101208101516102c08401526101408101516102e08401526101608101516103008401526101808101516103208401526101a08101516103408401526101c08101516103608401526101e08101516103808401526102008101516103a08401526102208101516103c08401526102408101516103e08401526102608101516104008401520151610420820152a1565b5f614a1e91612c0c565b5f614915565b975050506105a03d6105a011614d4c575b614a3f8188612c0c565b6105a08782810103126104a0576101c08782810103126104a057604051614a686101c082612c0c565b614a7188613058565b8152614a8282890160208a016144da565b6020820152614a9682890160408a016144da565b6040820152614aaa82890160608a016144da565b6060820152614abe82890160808a016144da565b6080820152614ad282890160a08a016144da565b60a0820152614ae682890160c08a016144da565b60c0820152614afa82890160e08a016144da565b60e0820152614b0f8289016101008a016144da565b610100820152614b258289016101208a016144da565b610120820152614b3b8289016101408a016144da565b610140820152614b518289016101608a016144da565b610160820152614b678289016101808a016144da565b610180820152614b7d8289016101a08a016144da565b6101a08201526101406101bf19898481010301126104a05760405191614ba561012084612c0c565b6101c089015183526101e0890151602084015261020089015160408401526102208901516060840152610240890151608084015261026089015160a084015261028089015160c08401526102a089015160e084015260406102bf198a8381010301126104a0576102a090604051614c1d604082612c0c565b6102c08b015181526102e08b0151602082015261010085015289018990036102ff1901126104a05761058060405198614c586102a08b612c0c565b6103008101518a5261032081015160208b015261034081015160408b015261036081015160608b015261038081015160808b01526103a081015160a08b01526103c081015160c08b01526103e081015160e08b01526104008101516101008b01526104208101516101208b01526104408101516101408b01526104608101516101608b01526104808101516101808b01526104a08101516101a08b01526104c08101516101c08b01526104e08101516101e08b01526105008101516102008b01526105208101516102208b01526105408101516102408b01526105608101516102608b01520151610280890152905f614773565b503d614a35565b614d5c846159e2565b6145f9565b60c060a0870151015190525f6145dd565b905060603d606011614da4575b614d898183612c0c565b81016060828203126104a057614d9e91613623565b5f6145d0565b503d614d7f565b939293919091602060e082015101515f90515f526013602052614dd060405f20613ec1565b85515f526013602052614de560405f20613ec1565b614df887602061010087015101516158dd565b8051156151f3575b614e9860405191614e1260e084612c0c565b5f83525f60208401525f60408401525f60608401525f60c060809482868201528260a08201520152614e8d602089015194614e82602060e08a01510151614e6a6040519863448e84d160e11b8a5260048a0190612be9565b614e77608489018e612d45565b610204880190612be9565b6102848601906144fa565b6104448401906144fa565b61016080836106048173960E20A297fCe472B9e060428fC92Fce34d83Bee5af49283156129ea575f915f9461512f575b5050602087015260c084015160208301516040840151905f8282019283129112908015821691151617613898576060840151905f82820192831291129080158216911516176138985760408201518451905f8282019283129112908015821691151617613898575f828203921281831281169183139015161761389857614f5183850151614439565b905f828203921281831281169183139015161761389857614f7560a0850151614439565b915f83128284810312811690838581031390151617613898578a926020920360408201520152614fad87602060e08701510151615526565b60018060a01b0385165f52601a60205260405f2087515f5260205260405f20602073074fb1073b24f85b52337b7DFeA2d2CB5B9406d9970151873b156104a05760a45f92615016996040519a8b94859363be49f2e760e01b855260048501526024840190612be9565b5af480156129ea577fca02bd6dde25571550ec822c36a8acc31db3834e00925e15ea50e10520b14bc9976102809760a0956150cd9361511b575b6150bd9150600180881b0389168152601b602052604081208c8252602052615089600180891b0360408320541688880151908b8b615a17565b600180881b0389168152601c602052604081208c82526020526040600180891b03912054169660c086019789895192615a17565b604051998a5260208a0190612d45565b81516101a089015260208201516101c089015260408201516101e089015260608201516102008901528101516102208801520151610240860152516102608501526001600160a01b031692a2565b505f61512691612c0c565b6150bd5f615050565b8194508092503d83116151ec575b6151478183612c0c565b8101039081126104a0578181126104a05760e0604051916151688484612c0c565b84518352602085015160208401526040850151604084015260608501516060840152607f1901126104a057610140604051936151a560e086612c0c565b83810151855260a0810151602086015260c0810151604086015260e081015160608601526101008101518486015261012081015160a0860152015160c08401525f80614ec8565b503d61513d565b6151fc876159e2565b614e00565b61520a816159e2565b5f6101208201525f60408201525f602082015252565b9061522a81615a8b565b606081019160029160018060401b039083615246838751615c32565b1461533c57608081018461525b848351615c32565b1461533c5760a082019585615271858951615c32565b1461533c5760c083019086615287868451615c32565b1461533c5760e084018761529c878351615c32565b1461533c57610100850191886152b3888551615c32565b1461533c576101609363ffffffff87511663ffffffff60201b602089015160201b161788600160401b600160801b039788928360408c015160401b1617600160801b600160c01b0380965160801b1617905160c01b179c5116915160401b1617915160801b1617905160c01b17936101408401511692015160401b161793825560018201550155565b6040516367e4596560e01b8152600490fd5b61535782615a8b565b61536082615b11565b9061536a83615b2a565b9260016001603e1b03600261537f8286615c32565b1461533c5761539060029186615c32565b1461533c57610120810193600185511161533c5760019363ffffffff83511663ffffffff60201b602085015160201b1617958560401b8660801b039687604086015160401b1617600360801b6153e586615b44565b60801b1617908660fe1b905160fe1b16928660c01b8760fe1b039060c01b16918660821b8760c01b039060821b1617171793610160848060401b036101408401511692015160401b16179281550155565b81810292915f8212600160ff1b82141661389857818405149015171561389857565b9190820391821161389857565b60016154725f1985615c32565b146154f757600161548560011985615c32565b1461548f57505090565b90809250156154f357906154dd826154dd60206101008160e06144d7980151015182604082015160608301518082115f146154eb5750915b0151808211156154e35750935b01510151615b2a565b90615458565b9050936154d4565b9050916154c7565b5090565b50905090565b916001600160a01b031615615520576060015190816154f35760e0915051015190565b50505f90565b8151815260208101906155398251614439565b6155466060850151614439565b906155546080860151614439565b915f8382039312818412811691841390151617613898575f82820192831291129080158216911516176138985761558a906157c2565b92604082019061559a8251614439565b6155a760a0830151614439565b906155b560c0840151614439565b915f8382039312818412811691841390151617613898575f8282019283129112908015821691151617613898576155ed6060916157c2565b9301906155fa8251614439565b61561561010061560d60e0850151614439565b930151614439565b915f8382039312818412811691841390151617613898575f82820192831291129080158216911516176138985761564b906157c2565b90525252565b60208101615665815160208501519061388b565b90604083018051906040860151915f83820193841291129080158216911516176138985761012061569f818701918251908901519061388b565b906101406156b6818901918251908b01519061388b565b906101606156cd818b01918251908d01519061388b565b90525252525260608101906156e8825160608501519061388b565b9260808201906156fe825160808301519061388b565b9260a0810190615714825160a08501519061388b565b9260c082019061572a825160c08301519061388b565b9260e0810190615756615743835160e08601519061388b565b936101008093019283519101519061388b565b90525252525252565b906101408101511590816157b4575b506157b05760400180516001600160a01b039182918216156157a6575b5116911614613d5057604051639dbdc5fd60e01b8152600490fd5b818416815261578b565b5050565b61016091500151155f61576e565b5f81126157cc5790565b6024906040519063b02ef08760e01b82526004820152fd5b9060026157f18383615c32565b036157fc5750505f90565b6144d791615458565b9391908115806158d5575b6158cc5784156158ba57610e60610e6091610e5a61586961586f95610e606158378b614439565b99610e5a615863615859615853620f42409e8f9c8d8099615436565b9e614439565b610e608685615436565b9a614439565b91614439565b92818101918212905f811290811592801583169084161761389857830192831290811516911617613898576144d792610e5a610e6092610e60856158b4816002615436565b92615436565b60405163c7d40ac960e01b8152600490fd5b50505050505f90565b508315615810565b602081016158f18151602085015190615458565b90604083018051906040860151915f83820393128184128116918413901516176138985761012061592b8187019182519089015190615458565b90610140615942818901918251908b015190615458565b90610160615959818b01918251908d015190615458565b90525252525260608101906159748251606085015190615458565b92608082019061598a8251608083015190615458565b9260a08101906159a0825160a085015190615458565b9260c08201906159b6825160c083015190615458565b9260e08101906157566159cf835160e086015190615458565b9361010080930192835191015190615458565b60605f918261016082015282610140820152826101008201528260e08201528260c08201528260a08201528260808201520152565b918315615a85576001600160a01b0390811691168103615a495750606060c0615a459201510191825161388b565b9052565b613d50929150805f526010602052615a6360405f20613588565b91615a736060840191825161388b565b90525f52601060205260405f20614140565b50505050565b63ffffffff8082511161533c5760208201511161533c57604081018051600290615abd9060016001603f1b0390615c16565b1461533c5751615ad69060016001603f1b031990615c16565b1561533c5760018060401b03906002615af483610140840151615c32565b1461533c57600291610160615b0a920151615c32565b1461533c57565b6144d79060e06147b3606083015160a08401519061388b565b6144d7906101006147b3608083015160c08401519061388b565b60a081015115801590615b82575b6142195760e08101511590811591615b73575b50615b6e575f90565b600290565b6101009150015115155f615b65565b5060c08101511515615b52565b615b97612e3b565b50805190602081015190606060408201519101519160405193615bbb608086612c0c565b845260208401526040830152606082015290565b8115615be957600160ff1b81145f19831416613898570590565b634e487b7160e01b5f52601260045260245ffd5b81810291818304149015171561389857620f4240900490565b818113615c2b5712615c2757600190565b5f90565b5050600290565b818111615c2b5710615c2757600190565b6001600160401b038111612c2f57601f01601f191660200190565b602091615ce4916001600160a01b03165f80615c7986615c43565b93615c876040519586612c0c565b8685527f5361666545524332303a206c6f772d6c6576656c2063616c6c206661696c656487860152868151910182855af13d15615d65573d91615cc983615c43565b92615cd76040519485612c0c565b83523d5f8785013e615d69565b805180615cf057505050565b818391810103126104a05781615d069101613058565b15615d0e5750565b6084906040519062461bcd60e51b82526004820152602a60248201527f5361666545524332303a204552433230206f7065726174696f6e20646964206e6044820152691bdd081cdd58d8d9595960b21b6064820152fd5b6060915b91929015615dcb5750815115615d7d575090565b3b15615d865790565b60405162461bcd60e51b815260206004820152601d60248201527f416464726573733a2063616c6c20746f206e6f6e2d636f6e74726163740000006044820152606490fd5b825190915015615dde5750805190602001fd5b6040519062461bcd60e51b82528160208060048301528251908160248401525f935b828510615e22575050604492505f838284010152601f80199101168101030190fd5b8481018201518686016044015293810193859350615e0056fea9c835c21e93a672e5a6ef8ca0374f90b7d4378f7eec5769dcf22fdefd60ffaef8691f65402f2a458580d76db93812d43292515aaec0b64222f11d1a0642d8470aec74a1754fb10877b53c31a29be82096082042eb1fb374ec96fac88c0e621ba264697066735822122048b8cde0289cdac01727867c458cae9cc9a7adcba73f1445fe05c50ca22a228964736f6c63430008180033",
  "deployedBytecode": "0x60806040526004361015610011575f80fd5b5f803560e01c806309218e9114612bc45780630cdfebfa14612b745780631cb44dfc14612ab057806330d8c210146125d45780634549a6291461259d57806355f57510146125565780635b4b9695146125025780636a256b29146124295780636e193680146123e15780637cc4d3401461238e5780637dc0d1d01461236557806387aee00e1461229057806391eece28146117b357806395fcd83614611797578063977b1f5f14610b7e57806399d32fc414610950578063a05f9906146108c3578063a4d154871461071e578063ad4d4e29146106ea578063b68af80a146106a1578063b6a597dd1461055a578063c45a015514610525578063c496969b146104f1578063c73e293b146104a8578063cf6bf86a146101a2578063e20ccec31461016c5763fc0c546a14610143575f80fd5b34610169578060031936011261016957546040516001600160a01b039091168152602090f35b80fd5b5034610169578060031936011261016957610185613065565b50610180610193601661436c565b6101a06040518092612d45565bf35b5034610169576101c0366003190112610169576004356001600160a01b03818116918290036104a0576024358181168091036104a05761018091826043193601126104a457604051936101f58486612c0c565b604435855260209060643582870152608435604087015260a435606087015260c435608087015260e43560a08701526101043560c08701526101243560e0870152610144359081151582036104a05761010091828801526101643580151581036104a0576101208801526101843580151581036104a0576101408801526101a492833580151581036104a057610160890152845f80516020615e7c833981519152541694604051638da5cb5b60e01b815282816004818a5afa908115610495578b91610468575b50163303610450578589967fc258faa9a17ddfdf4130b4acff63a289202e7d5f9e42f366add65368575486bc937feee59a71c694e68368a1cb0d135c448051bbfb12289e6c2223b0ceb100c2321d8460018060a01b03199280846004541617600455604051908152a16005541617600555604051908152a160048173__$c5b758809b18b7c9fcabb156ae018568b0$__946040519283809263ad4d4e2960e01b82525afa918215610445578592610418575b5050823b15610414576102a484926103ae9460405195869485936373a328f760e11b8552600960048601526103a6602486018d612dbc565b84019061300d565b5af48015610409576103f0575b50507ffe82819b288047b2416d26eabdd67d46cd2dc02c2332ad5d56d7fc01c46e3c5f916103ec6040518092612dbc565ba180f35b816103fa91612c0c565b61040557825f6103bb565b8280fd5b6040513d84823e3d90fd5b8380fd5b6104379250803d1061043e575b61042f8183612c0c565b810190612f81565b5f8061036e565b503d610425565b6040513d87823e3d90fd5b604051634d193d1f60e01b8152336004820152602490fd5b6104889150833d851161048e575b6104808183612c0c565b810190612e61565b5f6102bc565b503d610476565b6040513d8d823e3d90fd5b5f80fd5b8480fd5b5034610169576040366003190112610169576001600160a01b03600435818116908190036104a0578260409160209452601c845281812060243582528452205416604051908152f35b503461016957602036600319011261016957610193604061018092610514613065565b50600435815260146020522061436c565b50346101695780600319360112610169575f80516020615e7c833981519152546040516001600160a01b039091168152602090f35b5034610169576040366003190112610169577f6fee9688c285c5c5c97d6a1a29adced674e6b2ad0888b8ad2116b58a8b3ea2486001815410156106885760019055303b151580610681575b61066857335f80516020615e7c83398151915255303b15158061067a575b6106685760015f80516020615e3c833981519152556001600160a01b03600435818116908190036104055782546001600160a01b0319908116909117835560243591821691829003610405576002541617600255807f2801b00eb06461cf9fcb9758b5fafd884ff06a86177386f73b6c49f0bf5a5af0557fbe9b076dc5b65990cca9dd9d7366682482e7817a6f6bc7f4faf4dc32af497f32602060405160018152a180f35b60405163b9a621e160e01b8152600490fd5b50806105c3565b50806105a5565b604051631edb9c6d60e11b815260016004820152602490fd5b5034610169576040366003190112610169576001600160a01b03600435818116908190036104a0578260409160209452601b845281812060243582528452205416604051908152f35b5034610169578060031936011261016957610703613065565b5061018061071160096142bf565b6101a06040518092612dbc565b50346101695780600319360112610169575f80516020615e7c83398151915254604051638da5cb5b60e01b81526001600160a01b03916020908290600490829086165afa80156108b85782918491610899575b5016330361045057819081610786600b6132d7565b9160e08301908151600161079982614203565b14610877575b5081515f196107ad82614203565b14610850575b505080516040519081527f25e5e4c41e0fec8db036b4544824413a63ffe455e2b4decd71d72932f607ff5960203392a25273__$e64848e740b5620d47cef49412062df449$__90813b1561084c5761082c6101648492604051948593849263045a766b60e01b8452600b60048501526024840190612f1e565b5af480156104095761083b5750f35b8161084591612c0c565b6101695780f35b5050fd5b610868610863610870938654169261442a565b61421f565b90339061427c565b5f806107b3565b6108939061088b610863848754169261442a565b903390614239565b5f61079f565b6108b2915060203d60201161048e576104808183612c0c565b5f610771565b6040513d85823e3d90fd5b50346101695780600319360112610169576108dc6131e1565b506101406108ea600b6132d7565b60206040519180518352818101518284015260408101516040840152606081015160608401526080810151608084015260a081015160a084015260c081015160c084015260e081015160e084015261010080910151908151908401520151610120820152f35b503461016957806003193601126101695761096b600b6132d7565b338252602090601082528261098260408220613588565b5f80516020615e7c8339815191528054604051638da5cb5b60e01b81529294926001600160a01b039187908290600490829086165afa8015610445576004938684928a948291610b61575b506109de60408901918251906140cb565b610b59575b5050541660405193848092630c7f7fb960e41b82525afa8015610b4e5784928391610b12575b508290610a1e606086019184835191166140cb565b610b0a575b508160055416610a3960808601918251906140cb565b610b02575b505060045416610a5460a08401918251906140cb565b610afa575b5060608401610a698151336140cb565b610af2575b505073__$e64848e740b5620d47cef49412062df449$__90813b1561040557610ab86101648492604051948593849263045a766b60e01b8452600b60048501526024840190612f1e565b5af4801561040957610add575b50506010610ada923385525260408320614140565b80f35b81610ae791612c0c565b61040557825f610ac5565b52815f610a6e565b52815f610a59565b52815f610a3e565b52815f610a23565b80929350878092503d8311610b47575b610b2c8183612c0c565b81010312610414575190808216820361041457839182610a09565b503d610b22565b6040513d86823e3d90fd5b52865f6109e3565b610b789150853d871161048e576104808183612c0c565b5f6109cd565b50346101695760e0366003190112610169576004356001600160a01b03811690036104a05760a435151560a435036104a05760c4356001600160a01b03811690036104a05760025f80516020615e3c83398151915254146117855760025f80516020615e3c833981519152555f80516020615e7c83398151915254604051635c975abb60e01b815290602090829060049082906001600160a01b03165afa90811561040957829161174b575b5061173957610c3a600435613659565b610c46600435826138ac565b610160602082015101516117275760405190610c6360c083612c0c565b828252826020830152826040830152826060830152610c806135ff565b6080830152610c8d6135d6565b60a0830152610ca060e082015151615b8f565b60a083015152610cbc60a0830151516101008301515190615526565b610ccd602060e08301510151615b8f565b602060a08401510152610cf2602060a084015101516020610100840151015190615526565b60a08101515183526014602052610d0b6040842061436c565b60808301515260018060a01b0360043516835260156020526040832060c0820151518452602052610d3e60408420613db3565b60206080840151015260018060a01b035f80516020615e7c833981519152541660405163131bac4760e11b815260018060a01b03600435166004820152336024820152602081604481855afa9081156104455785916116e6575b5015158352600480356001600160a01b03908116808752601b6020908152604080892060c088018051518b52908352818a2054851689840152928952601c8252808920925151895291815281882054831682880152905163085d260760e21b815260c4359092169282019290925291829060249082905afa908115610b4e5784916116b4575b5060608301526001610e36600160ff1b608435615c16565b036116ac57610e65604060c08301510151610e60620f424091610e5a835f19615436565b90615436565b615bcf565b610e7d60243560208060a08701510151015184615465565b610e966044356040602060a08801510151015185615465565b91610eb06064356060602060a08901510151015186615465565b610ebd60c43587876154fd565b936080860151602060808901510151908151811161167f575b50506080860151608088015151908151811161165e575b5050608086015194602060a08901510151610f06613065565b50610f1086614439565b90610f1e6020820151614439565b908b8212838381031281169084848103139015161761164a57610f4085614439565b93610f4e6040830151614439565b908d8212868381031281169087848103139015161761163657908d9291610f816060610f798b614439565b940151614439565b93841283858103128116908486810313901516176116225790610fd68f979695949392610fd1610fc6610fb5888a0361442a565b610fc0868c0361442a565b9061388b565b610fc087870361442a565b615bfd565b9587858703135f1461161957610fed85870361442a565b88868803125f146116105761100386880361442a565b9189848203135f146116075761101a84820361442a565b938a818303125f146115fc57611030910361442a565b9389868203135f146115f35761104786820361442a565b958a818303125f146115e85761105d910361442a565b9560a435156115e1576001975b149788156115da5789985b156115d357985b6040519e8f9061108e61018083612c0c565b8152602001528d8c60408201526060015260808d015260a08c015260c08b015260e08a015261010089015260ff166101208801526101408701526101608601526110d785615b11565b15806115c3575b156115b7575b6110f38560a089015151615526565b61110585602060a08a01510151615526565b61111785602060808a01510151615651565b61112685608089015151615651565b6111368561010088015151615651565b6111498560206101008901510151615651565b604060c087015101805184808201128a82129080158216911516176115a35784019052610120850151611598575b61118460c435868961575f565b61118d85615b11565b1580611588575b1561151a575b73__$868083e60620b1b18b00d84e3b9f0de884$__3b15611516578760405163d329553160e01b81526111d160048201895161300d565b6111e46020890151610104830190612dbc565b6111f76040890151610284830190612fe9565b61120a6060890151610584830190614073565b60808801516105e482015261122860a0890151610604830190612f1e565b61123b60c0890151610744830190612be9565b61124e60e08901516107c483019061408e565b6112626101008901516108c48301906140ac565b88511515610bc482015260208901516001600160a01b03908116610be483015260408a015116610c048201526060890151610c2482015260808901516112ad90610c448301906140ac565b6112c060a08a0151610f4483019061408e565b336110448201526004356001600160a01b03166110648201526112e7611084820188612d45565b8461120482015281816112248173__$868083e60620b1b18b00d84e3b9f0de884$__5af4801561040957611501575b50506114ad9660a0870151518952601460205261133c60408a2060808301515190615220565b6004356001600160a01b03168952601560209081526040808b2060c08a0151518c5282528a206080830151909101516113749161534e565b60018060a01b036020820151169060018060a01b03600435168a52601b60205260408a2060c0890151518b5260205260408a2060018060a01b03199283825416179055604060018060a01b039101511660018060a01b03600435168a52601c60205260408a2060c0890151518b5260205260408a20918254161790556113f983614203565b600181146114e1575b5f19146114c1575b608086015193604051948552602085015260408401526060830152608082015260a435151560a082015260018060a01b0360c4351660c082015260018060a01b0360043516905f80516020615e5c83398151915260e03392a36114706040518092612d45565b6004356001600160a01b0316907f9a56cf35efaffce99179d6c2031a9dc354c09b4a2bb7f1b7fb9f8c4736979c059061018090a260043590613bdf565b60015f80516020615e3c8339815191525580f35b87546114dc906001600160a01b031661088b6108638661442a565b61140a565b88546114fc906001600160a01b03166108686108638761442a565b611402565b8161150b91612c0c565b61151657875f611316565b8780fd5b60025488906001600160a01b0316803b1561158457818091604460405180948193631a9be9fd60e11b835230600484015260018060a01b036004351660248401525af180156104095761156f575b505061119a565b8161157991612c0c565b61151657875f611568565b5080fd5b5061159285615b2a565b15611194565b336020880152611177565b634e487b7160e01b8a52601160045260248afd5b600160208601526110e4565b506115cd85615b2a565b156110de565b508861107c565b8098611075565b899761106a565b505061105d8961442a565b6110478a61442a565b50506110308961442a565b61101a8a61442a565b6110038961442a565b610fed8861442a565b634e487b7160e01b8f52601160045260248ffd5b634e487b7160e01b8e52601160045260248efd5b634e487b7160e01b8c52601160045260248cfd5b61166791615201565b60a08601516116768151614065565b90525f80610eed565b61168891615201565b87604088015287602088015260c08601516116a38151614065565b90525f80610ed6565b608435610e65565b90506020813d6020116116de575b816116cf60209383612c0c565b8101031261041457515f610e1e565b3d91506116c2565b90506020813d60201161171f575b8161170160209383612c0c565b810103126104a457602491611717602092613058565b915091610d98565b3d91506116f4565b604051630b8b968760e31b8152600490fd5b604051634b94d2bb60e01b8152600490fd5b90506020813d60201161177d575b8161176660209383612c0c565b810103126115845761177790613058565b5f610c2a565b3d9150611759565b6040516345f6780960e11b8152600490fd5b5034610169578060031936011261016957602090604051908152f35b50346101695760c0366003190112610169576004356001600160a01b03811690036104a05760a435151560a435036104a05760025f80516020615e3c83398151915254146117855760025f80516020615e3c833981519152555f80516020615e7c83398151915254604051635c975abb60e01b815290602090829060049082906001600160a01b03165afa908115610409578291612256575b506117395761185c600435613659565b611868600435826138ac565b61016060208201510151611727576040519061188560c083612c0c565b8282528260208301528260408301528260608301526118a26135ff565b60808301526118af6135d6565b60a08301526118c260e082015151615b8f565b60a0830151526118de60a0830151516101008301515190615526565b6118ef602060e08301510151615b8f565b602060a08401510152611914602060a084015101516020610100840151015190615526565b60a0810151518352601460205261192d6040842061436c565b60808301515260018060a01b0360043516835260156020526040832060c082015151845260205261196060408420613db3565b60206080840151015260018060a01b035f80516020615e7c833981519152541660405163131bac4760e11b815260018060a01b03600435166004820152336024820152602081604481855afa908115610445578591612215575b50151583526001600160a01b03600480358216808752601b6020908152604080892060c088018051518b52908352818a20548616838a0152928952601c8252808920925151895291815281882054909316818701525163085d260760e21b815290810186905291829060249082905afa908115610b4e5784916121e3575b5060608301526001611a50600160ff1b608435615c16565b036121db57611a74604060c08301510151610e60620f424091610e5a835f19615436565b611a8c60243560208060a08701510151015184615465565b611aa56044356040602060a08801510151015185615465565b91611abf6064356060602060a08901510151015186615465565b611aca8787876154fd565b93608086015160206080890151015190815181116121ae575b50506080860151608088015151908151811161218d575b5050608086015194602060a08901510151611b13613065565b50611b1d86614439565b90611b2b6020820151614439565b908b8212838381031281169084848103139015161761164a57611b4d85614439565b93611b5b6040830151614439565b908d8212868381031281169087848103139015161761163657908d9291611b866060610f798b614439565b93841283858103128116908486810313901516176116225790611bba8f979695949392610fd1610fc6610fb5888a0361442a565b9587858703135f1461218457611bd185870361442a565b88868803125f1461217b57611be786880361442a565b9189848203135f1461217257611bfe84820361442a565b938a818303125f1461216757611c14910361442a565b9389868203135f1461215e57611c2b86820361442a565b958a818303125f1461215357611c41910361442a565b9560a4351561214c576001975b149788156121455789985b1561213e57985b6040519e8f90611c7261018083612c0c565b8152602001528d8c60408201526060015260808d015260a08c015260c08b015260e08a015261010089015260ff16610120880152610140870152610160860152611cbb85615b11565b158061212e575b15612122575b611cd78560a089015151615526565b611ce985602060a08a01510151615526565b611cfb85602060808a01510151615651565b611d0a85608089015151615651565b611d1a8561010088015151615651565b611d2d8560206101008901510151615651565b604060c087015101805184808201128a82129080158216911516176115a35784019052610120850151612117575b611d6688868961575f565b611d6f85615b11565b1580612107575b1561209d575b73__$868083e60620b1b18b00d84e3b9f0de884$__3b15611516578760405163d329553160e01b8152611db360048201895161300d565b611dc66020890151610104830190612dbc565b611dd96040890151610284830190612fe9565b611dec6060890151610584830190614073565b60808801516105e4820152611e0a60a0890151610604830190612f1e565b611e1d60c0890151610744830190612be9565b611e3060e08901516107c483019061408e565b611e446101008901516108c48301906140ac565b88511515610bc482015260208901516001600160a01b03908116610be483015260408a015116610c048201526060890151610c248201526080890151611e8f90610c448301906140ac565b611ea260a08a0151610f4483019061408e565b336110448201526004356001600160a01b0316611064820152611ec9611084820188612d45565b8461120482015281816112248173__$868083e60620b1b18b00d84e3b9f0de884$__5af4801561040957612088575b50506114ad9660a08701515189526014602052611f1e60408a2060808301515190615220565b6004356001600160a01b03168952601560209081526040808b2060c08a0151518c5282528a20608083015190910151611f569161534e565b60018060a01b036020820151169060018060a01b03600435168a52601b60205260408a2060c0890151518b5260205260408a2060018060a01b03199283825416179055604060018060a01b039101511660018060a01b03600435168a52601c60205260408a2060c0890151518b5260205260408a2091825416179055611fdb83614203565b60018114612068575b5f1914612048575b608086015193604051948552602085015260408401526060830152608082015260a435151560a08201528460c082015260018060a01b0360043516905f80516020615e5c83398151915260e03392a36114706040518092612d45565b8754612063906001600160a01b031661088b6108638661442a565b611fec565b8854612083906001600160a01b03166108686108638761442a565b611fe4565b8161209291612c0c565b61151657875f611ef8565b60025488906001600160a01b0316803b1561158457818091604460405180948193631a9be9fd60e11b835230600484015260018060a01b036004351660248401525af18015610409576120f2575b5050611d7c565b816120fc91612c0c565b61151657875f6120eb565b5061211185615b2a565b15611d76565b336020880152611d5b565b60016020860152611cc8565b5061213885615b2a565b15611cc2565b5088611c60565b8098611c59565b8997611c4e565b5050611c418961442a565b611c2b8a61442a565b5050611c148961442a565b611bfe8a61442a565b611be78961442a565b611bd18861442a565b61219691615201565b60a08601516121a58151614065565b90525f80611afa565b6121b791615201565b87604088015287602088015260c08601516121d28151614065565b90525f80611ae3565b608435611a74565b90506020813d60201161220d575b816121fe60209383612c0c565b8101031261041457515f611a38565b3d91506121f1565b90506020813d60201161224e575b8161223060209383612c0c565b810103126104a457602491612246602092613058565b9150916119ba565b3d9150612223565b90506020813d602011612288575b8161227160209383612c0c565b810103126115845761228290613058565b5f61184c565b3d9150612264565b5034610169576020366003190112610169576122c460406101c0926122b36130c0565b506004358152601360205220613ec1565b60405190805115158252602081015151602083015260408101515160408301526060810151516060830152608081015151608083015260a08101515160a083015260c08101515160c083015260e08101515160e08301526101008082015151908301526101208082015151908301526101408082015151908301526101608082015151908301526101808082015151908301526101a0809101515190820152f35b50346101695780600319360112610169576002546040516001600160a01b039091168152602090f35b5034610169576040366003190112610169576004356001600160a01b03811691908290036104a057604061019391610180936123c8613065565b5081526015602052818120602435825260205220613db3565b5034610169576020366003190112610169576004356001600160a01b03811691908290036104a0576040610193916101809361241b613065565b508152601960205220613db3565b5034610169576020366003190112610169576004356001600160a01b0380821682036104a0575f80516020615e3c833981519152906002825414611785576020600491600284555f80516020615e7c833981519152541660405192838092635c975abb60e01b82525afa908115610b4e5784916124c8575b50611739576124c4826124b5600194613659565b6124bf82826138ac565b613bdf565b5580f35b90506020813d6020116124fa575b816124e360209383612c0c565b81010312610414576124f490613058565b5f6124a1565b3d91506124d6565b5034610169576020366003190112610169576004356001600160a01b03811691908290036104a05760406125499160809361253b612e3b565b508152601060205220613588565b6101a06040518092612be9565b5034610169576020366003190112610169576004356001600160a01b03811691908290036104a05760406125499160809361258f612e3b565b508152601160205220613509565b50346101695780600319360112610169576125b6612ea0565b506125d06125c46006613381565b60405191829182612c81565b0390f35b50346104a057366003190161032081126104a057610300136104a0576040516125ff6101a082612c0c565b6004358152602460209080358284015261261a366044612c43565b906040840191825261262d3660c4612c43565b9260609081860194855261014435608087015261016490813560a08801526101843560c0880152612660366101a4612c43565b60e088015282610223193601126104a0576040519561267f8488612c0c565b61022435875261024435828801526102643560408801526101009687890152610284356101208901526102a4356101408901526102c4356101608901526102e43580151581036104a057610180890152610304359081151582036104a0576005546001600160a01b039790881633141580612a52575b612a4057612703600b6132d7565b9561270e600d61323e565b91612717612ea0565b9415612a2e57818086015101620f424090818460408901510152525b818501519351946127958785015160c08b01965f61278f6127548a5161442a565b938c61276a8661276384614439565b8688614462565b9c80519180820151918c60408201519101518d89015260408801528601528452614439565b91614462565b5f8782039712818812811691881390151617612a1b57604001519051936127cb836127c36040870151614439565b950151614439565b935f8582039512818612811691861390151617612a1b57915f916127f461282e9695945161442a565b9482820191825161280e8888886040860194855190615805565b9a8351938181015192604082015197889201518097525282015252615805565b5f83820393128184128116918413901516176129f5575f8282019283129112908015821691151617612a085760e0830180515f83820393128184128116918413901516176129f5575273__$e64848e740b5620d47cef49412062df449$__91823b156104a0575f916128bc91604051948593849263045a766b60e01b8452600b600485015288840190612f1e565b5af480156129ea576129d1575b509082916004869473__$f0b9cef6bb3cbdd03cb6172b8c4e9f952f$__935f80516020615e7c83398151915254166040519283809263ad4d4e2960e01b82525afa9384156104455785946129b2575b5050813b156104145761042461294e91859361295960405196879586946302903c7960e21b86526006600487015285018b612fe9565b61032484019061300d565b5af480156104095761299d575b506040517fc25ab284ab9f56bf288df3ff5fbe0a66a671e6616b6311ed26fe943ba789e0b990806129978582612c81565b0390a180f35b816129a791612c0c565b61158457815f612966565b6129c9929450803d1061043e5761042f8183612c0c565b915f80612918565b6129e091939295505f90612c0c565b5f9390915f6128c9565b6040513d5f823e3d90fd5b84634e487b7160e01b5f5260116004525ffd5b83634e487b7160e01b5f5260116004525ffd5b89634e487b7160e01b5f5260116004525ffd5b9350612a3a6006613381565b93612733565b604051639bca062560e01b8152600490fd5b50600484895f80516020615e7c833981519152541660405192838092638da5cb5b60e01b82525afa80156129ea5789915f91612a93575b50163314156126f5565b612aaa9150863d881161048e576104808183612c0c565b5f612a89565b346104a05760203660031901126104a0576004356001600160a01b03818116918290036104a05760046020825f80516020615e7c833981519152541660405192838092638da5cb5b60e01b82525afa9081156129ea575f91612b55575b5016330361045057600280546001600160a01b031916821790556040519081527f3df77beb5db05fcdd70a30fc8adf3f83f9501b68579455adbd100b818094039490602090a1005b612b6e915060203d60201161048e576104808183612c0c565b83612b0d565b346104a05760403660031901126104a0576004356001600160a01b038116908190036104a057612ba2612e3b565b505f52601a60205260405f206024355f52602052608061254960405f2061328a565b346104a0575f3660031901126104a057612bdc612e3b565b506080612549600d61323e565b606080918051845260208101516020850152604081015160408501520151910152565b601f909101601f19168101906001600160401b03821190821017612c2f57604052565b634e487b7160e01b5f52604160045260245ffd5b91908260809103126104a057604051612c5d608082612c0c565b60608082948035845260208101356020850152604081013560408501520135910152565b9190916102e06103008201938051835260208101516020840152612cad60408201516040850190612be9565b612cbf606082015160c0850190612be9565b608081015190610140918285015260a0810151610160908186015260c0820151926101809384870152612cfb60e08401516101a0880190612be9565b61010083015180516102208801526020810151610240880152604001516102608701526101208301516102808701528201516102a08601528101516102c085015201511515910152565b805182526020810151602083015260408101516040830152606081015160608301526080810151608083015260a081015160a083015260c081015160c083015260e081015160e083015261010080820151908301526101208082015190830152610140808201519083015261016080910151910152565b805182526020810151602083015260408101516040830152606081015160608301526080810151608083015260a081015160a083015260c081015160c083015260e081015160e0830152610100808201511515908301526101208082015115159083015261014080820151151590830152610160809101511515910152565b60405190612e4a608083612c0c565b5f6060838281528260208201528260408201520152565b908160209103126104a057516001600160a01b03811681036104a05790565b60405190612e8f606083612c0c565b5f6040838281528260208201520152565b60405190612eb06101a083612c0c565b5f61018083828152826020820152612ec6612e3b565b6040820152612ed3612e3b565b60608201528260808201528260a08201528260c0820152612ef2612e3b565b60e0820152612eff612e80565b6101008201528261012082015282610140820152826101608201520152565b60206101209180518452818101518285015260408101516040850152606081015160608501526080810151608085015260a081015160a085015260c081015160c085015260e081015160e085015261010080910151908151908501520151910152565b809161010092839103126104a05760e090612f9f6040519384612c0c565b805183526020810151602084015260408101516040840152606081015160608401526080810151608084015260a081015160a084015260c081015160c0840152015160e082015290565b6102e0908051835260208101516020840152612cad60408201516040850190612be9565b60e08091805184526020810151602085015260408101516040850152606081015160608501526080810151608085015260a081015160a085015260c081015160c08501520151910152565b519081151582036104a057565b6040519061307561018083612c0c565b5f610160838281528260208201528260408201528260608201528260808201528260a08201528260c08201528260e08201528261010082015282610120820152826101408201520152565b6040908151916130d26101c084612c0c565b6101a0835f81526131da60209380516130eb8682612c0c565b5f81528584015280516130fe8682612c0c565b5f81528184015280516131118682612c0c565b5f8152606084015280516131258682612c0c565b5f8152608084015280516131398682612c0c565b5f815260a0840152805161314d8682612c0c565b5f815260c084015280516131618682612c0c565b5f815260e084015280516131758682612c0c565b5f8152610100840152805161318a8682612c0c565b5f8152610120840152805161319f8682612c0c565b5f815261014084015280516131b48682612c0c565b5f815261016084015280516131c98682612c0c565b5f8152610180840152519384612c0c565b5f83520152565b604051906131f161012083612c0c565b815f81525f60208201525f60408201525f60608201525f60808201525f60a08201525f60c08201525f60e082015261010060405191613231604084612c0c565b5f83525f60208401520152565b613246612e3b565b50600181549101549060018060401b038060405193613266608086612c0c565b63ffffffff841685521660208401528160801c16604083015260c01c606082015290565b613292612e3b565b5054604051906132a3608083612c0c565b8060d01b60d01d825265ffffffffffff8160301c1660208301528060601b60c01d604083015260201b60c01d606082015290565b6132df6131e1565b50600181549101549063ffffffff9165ffffffffffff9160405192613305604085612c0c565b8260e01b60e01d84528260c81b60e81d60208501526040519461332a61012087612c0c565b80831686528260201c166020860152808260401c166040860152808260701c1660608601528160a01c16608085015260d01c60a08401528060881b60c01d60c084015260481b60c01d60e083015261010082015290565b6101a09061338d612ea0565b50805490600260018201549101549162ffffff9160608365ffffffffffff936133ba858560481c16614412565b6040938451916133cb608084612c0c565b848460301c168352848460481c1660208401528484831c1686840152818301526133f9878760181c16614412565b90855191613408608084612c0c565b858560781c168352858560901c1660208401528588168784015281830152613434888560a81c16614412565b92865196613443608089612c0c565b868960781c168852868960901c166020890152868960a81c1681890152868960c01c1683890152805198613477848b612c0c565b8a8d168a5260081b60e01d60208a01528b60b01b60e01d818a015261349e81519d8e612c0c565b8686168d528c6020888860181c169101528c01528a0152608089015260d81c1660a0870152828560b01c1660c087015260e0860152610100850152808360501c166101208501528260801c166101408401528160e01c1661016083015260f81c151561018082015290565b613511612e3b565b50805460019091015460016001603e1b03600282901c16906003168061358157815b6001820361357857600281925b0361357057915b63ffffffff6040519461355b608087612c0c565b16845260208401526040830152606082015290565b505f91613547565b60025f92613540565b5f91613533565b613590612e3b565b50546040519063ffffffff6135a6608084612c0c565b8181168352602082811c90911690830152608081811b60c01d60408401521c6001600160401b0316606082015290565b604051906135e5604083612c0c565b816135ee612e3b565b815260206135fa612e3b565b910152565b6040519061360e604083612c0c565b81613617613065565b815260206135fa613065565b91908260609103126104a05760405161363d606082612c0c565b60406135fa818395805185526020810151602086015201613058565b9060409182519061366c61012083612c0c565b83516101009461367c8683612c0c565b5f82526020925f848401525f828401525f60608401526080925f848201525f60a08201525f60c08201525f60e08201528552838501966136ba613065565b8852828601956136c8612ea0565b875260608101926136d7612e80565b8452858201935f855260a08301906136ed6131e1565b825260c08401956136fc612e3b565b875260e085019561370b6135d6565b87528086019b6137196135ff565b8d52869e61372760096142bf565b90526137336006613381565b90525f80516020615e7c83398151915254895163ad4d4e2960e01b81526001600160a01b0397918390829060049082908c165afa9283156138815790600495949392915f93613862575b5050528986600254168a5194858092631006976960e11b82525afa908115613858575f935f92613816575b506138109a5052526137ba600b6132d7565b90521691825f52601086526137d0845f20613588565b90526137dc600d61323e565b815152815f5260118552846137f2845f20613509565b91510152613800601661436c565b8551525f52601983525f20613db3565b91510152565b93509050893d8b11613851575b61382d8185612c0c565b830199838b03126104a05760606138476138109b85613623565b930151905f6137a8565b503d613823565b89513d5f823e3d90fd5b613879929350803d1061043e5761042f8183612c0c565b905f8061377d565b8b513d5f823e3d90fd5b9190820180921161389857565b634e487b7160e01b5f52601160045260245ffd5b91906040908151916060916138c18385612c0c565b6138c96130c0565b8452602092838501956138da612e3b565b87528386016138e7612e80565b815260e0890197885151515f5260138752613903865f20613ec1565b885260018060a01b039182861692835f52601a8952875f20898c510151515f528952613930885f2061328a565b83526002541690858b51515160248a5180958193630e0886f960e41b835260048301525afa918215613bd557908992915f92613b99575b5081905201805115613b88575b505180511580613b7d575b80613b72575b80613b67575b80613b54575b613b42575b5061399f613065565b975b60a08a018051888151910151809114159081613b11575b50156139df5787905101516001810180911161389857896139da918a8d614596565b6139a1565b509091929395945b60c08a018051878151910151141580613ad6575b15613a22578690510151600181018091116138985789613a1d91898b8e614dab565b6139e7565b50919750959297949391978501958651518151515110613a9c575b82875151915101515110613a55575b50505050505050565b613a90965f5260158252613a87613a7e825f209260c088019385855101515f5285525f20613db3565b96515187615201565b51015192614dab565b5f808080808080613a4c565b613ad160a0870184815101515f526014855284613aba855f2061436c565b91613ac78b515184615201565b5101518689614596565b613a3d565b509850825f5260158652805f20868a51015160018101809111613898575f528652613b02815f20613db3565b98858b0151518a5111156139fb565b80929b506001915001809111613898575f5260148752613b32865f2061436c565b98848b0151518a5111155f6139b8565b838660c08c015101519101525f613996565b5085876101008c01510151015115613991565b50838101511561398b565b508581015115613985565b50868101511561397f565b60c060a08c0151015190525f613974565b92509050853d8711613bce575b613bb08184612c0c565b82019186818403126104a0578992613bc791613623565b905f613967565b503d613ba6565b88513d5f823e3d90fd5b60a0810151929173__$e64848e740b5620d47cef49412062df449$__90813b156104a0576101645f60409384519283809263045a766b60e01b8252613c30859b600b60048501526024840190612f1e565b5af48015613da957613d94575b506001600160a01b0316808552601060205281852060c0840151919391613c6391614140565b73__$b60b8283597a7b63fdf5784bc29e04c8c8$__8560e0830191825151813b1561040557613cb160a48492885194859384926366e4915160e01b8452600d60048501526024840190612be9565b5af48015613d8a57613d71575b5084905260116020528583812091602073__$4b3d80cf6fe04b4ade5ebdb98bc9ab473c$__9151015190803b1561040557613d169360a49187519586948593635c7731d160e11b855260048501526024840190612be9565b5af48015613d6757613d52575b5090613d5093946101006020930193613d3f8551516016615220565b81526019835220915101519061534e565b565b613d5d868092612c0c565b6104a4575f613d23565b83513d88823e3d90fd5b81613d7b91612c0c565b613d8657855f613cbe565b8580fd5b85513d84823e3d90fd5b613da19195505f90612c0c565b5f935f613c3d565b83513d5f823e3d90fd5b613dbb613065565b506001815491015460038260801c169060018080603e1b0393848160821c16948160c01c1663ffffffff95851595865f14613eba5781965b15613eb357825b818614908115613eac5783915b15613ea357600281935b14938415613e9b57935b15613e9357935b868060401b03986040519a613e396101808d612c0c565b8088168c528760201c1660208c01528660801b60c01d60408c015260608b015260808a015260a089015260c088015260e087015261010086015260fe1c1661012084015281811661014084015260401c1661016082015290565b505f93613e22565b505f93613e1b565b60025f93613e11565b5f91613e07565b5f92613dfa565b5f96613df3565b613ec96130c0565b508054816001829301549060020154604051916020928392613eeb8483612c0c565b8560b81b60c01d825260405190613f028583612c0c565b8660781b60c01d8252604051613f188682612c0c565b8760381b60c01d8152604051613f2e8782612c0c565b8260d01b60d01d815260405190613f458883612c0c565b8360a01b60d01d825260405192613f5c8985612c0c565b8460701b60d01d845260405194613f738a87612c0c565b60401b60d01d855260405195613f898a88612c0c565b8860d01b60d01d875260405197613fa08b8a612c0c565b8960a01b60d01d89528a6040519a613fb8828d612c0c565b8060701b60d01d8c526040519c613fcf908e612c0c565b8060401b60d01d8d526040519d613fe6908f612c0c565b60101b60d01d8d52604051809e613ffd8383612c0c565b60081b60d01d90526040519e8f906140176101c083612c0c565b60ff1615158152015260408d015260608c015260808b015260a08a015260c089015260e08801526101008701526101208601526101408501526101608401526101808301526101a082015290565b5f1981146138985760010190565b60408091805184526020810151602085015201511515910152565b9060806020613d50936140a2848251612be9565b0151910190612be9565b906101806020613d50936140c1848251612d45565b0151910190612d45565b6001600160a01b0381811692909190338414801590614138575b614130576141246020927f20ca5094f3a20c321cbe4123d0f01b276b81df0fa24cd4d83d9253956035d863945f54169061411e8461421f565b91614239565b604051908152a2600190565b505050505f90565b5080156140e5565b9063ffffffff91828251116141f15760208201838151116141f1576040830180516002906141769060016001603f1b0390615c16565b146141f15780516141909060016001603f1b031990615c16565b156141f157606084019160026141ad60018060401b038551615c32565b146141f1575f9560019551169063ffffffff60201b905160201b1617908460401b8560801b03905160401b1617908360801b8460c01b03905160801b161781550155565b60405163320f423b60e21b8152600490fd5b5f8113614219575f13614214575f90565b5f1990565b50600190565b64e8d4a51000908181029181830414901517156138985790565b60405163a9059cbb60e01b60208201526001600160a01b039283166024820152604480820194909452928352613d50929190614276606484612c0c565b16615c5e565b6040516323b872dd60e01b60208201526001600160a01b039283166024820152306044820152606480820194909452928352613d50929190614276608484612c0c565b6142c7613065565b50546008808260f81c65ffffffffffff62ffffff9461ffff604051966142ef61018089612c0c565b8083168852808360181c166020890152808360301c166040890152808360481c1660608901528260601c166080880152808260781c1660a08801528160881c1660c087015260981c1660e0850152600180821614610100850152600280821614610120850152600480821614610140850152161461016082015290565b614374613065565b5080546001820154600290920154604051926001600160401b039263ffffffff6143a061018087612c0c565b80821686528160201c1660208601528060801b60c01d6040860152838160801c16606086015260c01c608085015282811660a0850152828160401c1660c0850152828160801c1660e085015260c01c6101008401525f61012084015281811661014084015260401c1661016082015290565b620f4240908181029181830414901517156138985790565b5f81126144345790565b5f0390565b6001600160ff1b03811161444a5790565b6024906040519063eecaa25d60e01b82526004820152fd5b929161446d82614439565b5f82820192831291129080158216911516176138985761448c906157c2565b60406144b36144a66144ab6144a6606089019687516157e4565b614439565b9385516157e4565b9251940151818303925f83128015828613169185121617613898576144d794615805565b90565b91908260209103126104a0576040516144f4602082612c0c565b91518252565b805115158252602081015151602083015260408101515160408301526060810151516060830152608081015151608083015260a08101515160a083015260c08101515160c083015260e08101515160e08301526101008082015151908301526101208082015151908301526101408082015151908301526101608082015151908301526101808082015151908301526101a08091015151910152565b92919060018060a01b036002541660608451602460405180948193630e0886f960e41b835260048301525afa9081156129ea575f91614d72575b5060208101805115614d61575b506145ee84610100870151516158dd565b604081015115614d53575b6040516146086102a082612c0c565b5f8152602081015f9052604081015f9052606081015f9052608081015f905260a081015f905260c081015f905260e081015f905261010081015f905261012081015f905261014081015f905261016081015f905261018081015f90526101a081015f90526101c081015f90526101e081015f905261020081015f905261022081015f905261024081015f905261026081015f9052610280015f905281519460a081015160e08201515160408501516020840151916040850151936040519a63125c105b60e11b8c5260048c016146dd916144fa565b6101c48b016146eb91612f1e565b6103048a016146f991612be9565b6147076103848a0189612d45565b610504890161471591614073565b614723610564890185614073565b6105c4880161473191612dbc565b610744870161473f91612fe9565b858073__$498c3fc06e3b66de52f0e54e97932d9f48$__5a92610a44916105a094f49586156129ea575f905f905f98614a24575b5060a0830152835260e060a082015187608061482860208601516147f76147cb6147c46147bc8a51976101e06147b360408301516101608401519061388b565b9101519061388b565b965187615bfd565b8096615458565b6147f26147ea6147df606086015184615bfd565b968795015183615bfd565b958692615458565b615458565b938a602087015261480d6040870191825161388b565b905260608501516102608d01516148239161388b565b61388b565b606084015261483c6080840191825161388b565b905261484d60a0830191825161388b565b90520180519060c0880151915f8382019384129112908015821691151617613898575260e0015151614880908590615526565b604082015282515f52601360205260405f2073__$7193fcc5e5263a57d93f46b00a41978ef4$__9151823b156104a0576101e45f926148da946040519586948593631cf7ef4560e11b8552600485015260248401906144fa565b5af49384156129ea5761492661044094610280937fa682436af40a175ff2ec8049fb223c3b762ca7ce50863806fc21706829e2766297614a14575b506040519485526020850190612d45565b80516101a084015260208101516101c084015260408101516101e08401526060810151610200840152608081015161022084015260a081015161024084015260c081015161026084015260e0810151828401526101008101516102a08401526101208101516102c08401526101408101516102e08401526101608101516103008401526101808101516103208401526101a08101516103408401526101c08101516103608401526101e08101516103808401526102008101516103a08401526102208101516103c08401526102408101516103e08401526102608101516104008401520151610420820152a1565b5f614a1e91612c0c565b5f614915565b975050506105a03d6105a011614d4c575b614a3f8188612c0c565b6105a08782810103126104a0576101c08782810103126104a057604051614a686101c082612c0c565b614a7188613058565b8152614a8282890160208a016144da565b6020820152614a9682890160408a016144da565b6040820152614aaa82890160608a016144da565b6060820152614abe82890160808a016144da565b6080820152614ad282890160a08a016144da565b60a0820152614ae682890160c08a016144da565b60c0820152614afa82890160e08a016144da565b60e0820152614b0f8289016101008a016144da565b610100820152614b258289016101208a016144da565b610120820152614b3b8289016101408a016144da565b610140820152614b518289016101608a016144da565b610160820152614b678289016101808a016144da565b610180820152614b7d8289016101a08a016144da565b6101a08201526101406101bf19898481010301126104a05760405191614ba561012084612c0c565b6101c089015183526101e0890151602084015261020089015160408401526102208901516060840152610240890151608084015261026089015160a084015261028089015160c08401526102a089015160e084015260406102bf198a8381010301126104a0576102a090604051614c1d604082612c0c565b6102c08b015181526102e08b0151602082015261010085015289018990036102ff1901126104a05761058060405198614c586102a08b612c0c565b6103008101518a5261032081015160208b015261034081015160408b015261036081015160608b015261038081015160808b01526103a081015160a08b01526103c081015160c08b01526103e081015160e08b01526104008101516101008b01526104208101516101208b01526104408101516101408b01526104608101516101608b01526104808101516101808b01526104a08101516101a08b01526104c08101516101c08b01526104e08101516101e08b01526105008101516102008b01526105208101516102208b01526105408101516102408b01526105608101516102608b01520151610280890152905f614773565b503d614a35565b614d5c846159e2565b6145f9565b60c060a0870151015190525f6145dd565b905060603d606011614da4575b614d898183612c0c565b81016060828203126104a057614d9e91613623565b5f6145d0565b503d614d7f565b939293919091602060e082015101515f90515f526013602052614dd060405f20613ec1565b85515f526013602052614de560405f20613ec1565b614df887602061010087015101516158dd565b8051156151f3575b614e9860405191614e1260e084612c0c565b5f83525f60208401525f60408401525f60608401525f60c060809482868201528260a08201520152614e8d602089015194614e82602060e08a01510151614e6a6040519863448e84d160e11b8a5260048a0190612be9565b614e77608489018e612d45565b610204880190612be9565b6102848601906144fa565b6104448401906144fa565b61016080836106048173__$6ba7d7c32865f94d0a12ad88289d5cd7ab$__5af49283156129ea575f915f9461512f575b5050602087015260c084015160208301516040840151905f8282019283129112908015821691151617613898576060840151905f82820192831291129080158216911516176138985760408201518451905f8282019283129112908015821691151617613898575f828203921281831281169183139015161761389857614f5183850151614439565b905f828203921281831281169183139015161761389857614f7560a0850151614439565b915f83128284810312811690838581031390151617613898578a926020920360408201520152614fad87602060e08701510151615526565b60018060a01b0385165f52601a60205260405f2087515f5260205260405f20602073__$7159fd8596758e3029e91421ba272bb871$__970151873b156104a05760a45f92615016996040519a8b94859363be49f2e760e01b855260048501526024840190612be9565b5af480156129ea577fca02bd6dde25571550ec822c36a8acc31db3834e00925e15ea50e10520b14bc9976102809760a0956150cd9361511b575b6150bd9150600180881b0389168152601b602052604081208c8252602052615089600180891b0360408320541688880151908b8b615a17565b600180881b0389168152601c602052604081208c82526020526040600180891b03912054169660c086019789895192615a17565b604051998a5260208a0190612d45565b81516101a089015260208201516101c089015260408201516101e089015260608201516102008901528101516102208801520151610240860152516102608501526001600160a01b031692a2565b505f61512691612c0c565b6150bd5f615050565b8194508092503d83116151ec575b6151478183612c0c565b8101039081126104a0578181126104a05760e0604051916151688484612c0c565b84518352602085015160208401526040850151604084015260608501516060840152607f1901126104a057610140604051936151a560e086612c0c565b83810151855260a0810151602086015260c0810151604086015260e081015160608601526101008101518486015261012081015160a0860152015160c08401525f80614ec8565b503d61513d565b6151fc876159e2565b614e00565b61520a816159e2565b5f6101208201525f60408201525f602082015252565b9061522a81615a8b565b606081019160029160018060401b039083615246838751615c32565b1461533c57608081018461525b848351615c32565b1461533c5760a082019585615271858951615c32565b1461533c5760c083019086615287868451615c32565b1461533c5760e084018761529c878351615c32565b1461533c57610100850191886152b3888551615c32565b1461533c576101609363ffffffff87511663ffffffff60201b602089015160201b161788600160401b600160801b039788928360408c015160401b1617600160801b600160c01b0380965160801b1617905160c01b179c5116915160401b1617915160801b1617905160c01b17936101408401511692015160401b161793825560018201550155565b6040516367e4596560e01b8152600490fd5b61535782615a8b565b61536082615b11565b9061536a83615b2a565b9260016001603e1b03600261537f8286615c32565b1461533c5761539060029186615c32565b1461533c57610120810193600185511161533c5760019363ffffffff83511663ffffffff60201b602085015160201b1617958560401b8660801b039687604086015160401b1617600360801b6153e586615b44565b60801b1617908660fe1b905160fe1b16928660c01b8760fe1b039060c01b16918660821b8760c01b039060821b1617171793610160848060401b036101408401511692015160401b16179281550155565b81810292915f8212600160ff1b82141661389857818405149015171561389857565b9190820391821161389857565b60016154725f1985615c32565b146154f757600161548560011985615c32565b1461548f57505090565b90809250156154f357906154dd826154dd60206101008160e06144d7980151015182604082015160608301518082115f146154eb5750915b0151808211156154e35750935b01510151615b2a565b90615458565b9050936154d4565b9050916154c7565b5090565b50905090565b916001600160a01b031615615520576060015190816154f35760e0915051015190565b50505f90565b8151815260208101906155398251614439565b6155466060850151614439565b906155546080860151614439565b915f8382039312818412811691841390151617613898575f82820192831291129080158216911516176138985761558a906157c2565b92604082019061559a8251614439565b6155a760a0830151614439565b906155b560c0840151614439565b915f8382039312818412811691841390151617613898575f8282019283129112908015821691151617613898576155ed6060916157c2565b9301906155fa8251614439565b61561561010061560d60e0850151614439565b930151614439565b915f8382039312818412811691841390151617613898575f82820192831291129080158216911516176138985761564b906157c2565b90525252565b60208101615665815160208501519061388b565b90604083018051906040860151915f83820193841291129080158216911516176138985761012061569f818701918251908901519061388b565b906101406156b6818901918251908b01519061388b565b906101606156cd818b01918251908d01519061388b565b90525252525260608101906156e8825160608501519061388b565b9260808201906156fe825160808301519061388b565b9260a0810190615714825160a08501519061388b565b9260c082019061572a825160c08301519061388b565b9260e0810190615756615743835160e08601519061388b565b936101008093019283519101519061388b565b90525252525252565b906101408101511590816157b4575b506157b05760400180516001600160a01b039182918216156157a6575b5116911614613d5057604051639dbdc5fd60e01b8152600490fd5b818416815261578b565b5050565b61016091500151155f61576e565b5f81126157cc5790565b6024906040519063b02ef08760e01b82526004820152fd5b9060026157f18383615c32565b036157fc5750505f90565b6144d791615458565b9391908115806158d5575b6158cc5784156158ba57610e60610e6091610e5a61586961586f95610e606158378b614439565b99610e5a615863615859615853620f42409e8f9c8d8099615436565b9e614439565b610e608685615436565b9a614439565b91614439565b92818101918212905f811290811592801583169084161761389857830192831290811516911617613898576144d792610e5a610e6092610e60856158b4816002615436565b92615436565b60405163c7d40ac960e01b8152600490fd5b50505050505f90565b508315615810565b602081016158f18151602085015190615458565b90604083018051906040860151915f83820393128184128116918413901516176138985761012061592b8187019182519089015190615458565b90610140615942818901918251908b015190615458565b90610160615959818b01918251908d015190615458565b90525252525260608101906159748251606085015190615458565b92608082019061598a8251608083015190615458565b9260a08101906159a0825160a085015190615458565b9260c08201906159b6825160c083015190615458565b9260e08101906157566159cf835160e086015190615458565b9361010080930192835191015190615458565b60605f918261016082015282610140820152826101008201528260e08201528260c08201528260a08201528260808201520152565b918315615a85576001600160a01b0390811691168103615a495750606060c0615a459201510191825161388b565b9052565b613d50929150805f526010602052615a6360405f20613588565b91615a736060840191825161388b565b90525f52601060205260405f20614140565b50505050565b63ffffffff8082511161533c5760208201511161533c57604081018051600290615abd9060016001603f1b0390615c16565b1461533c5751615ad69060016001603f1b031990615c16565b1561533c5760018060401b03906002615af483610140840151615c32565b1461533c57600291610160615b0a920151615c32565b1461533c57565b6144d79060e06147b3606083015160a08401519061388b565b6144d7906101006147b3608083015160c08401519061388b565b60a081015115801590615b82575b6142195760e08101511590811591615b73575b50615b6e575f90565b600290565b6101009150015115155f615b65565b5060c08101511515615b52565b615b97612e3b565b50805190602081015190606060408201519101519160405193615bbb608086612c0c565b845260208401526040830152606082015290565b8115615be957600160ff1b81145f19831416613898570590565b634e487b7160e01b5f52601260045260245ffd5b81810291818304149015171561389857620f4240900490565b818113615c2b5712615c2757600190565b5f90565b5050600290565b818111615c2b5710615c2757600190565b6001600160401b038111612c2f57601f01601f191660200190565b602091615ce4916001600160a01b03165f80615c7986615c43565b93615c876040519586612c0c565b8685527f5361666545524332303a206c6f772d6c6576656c2063616c6c206661696c656487860152868151910182855af13d15615d65573d91615cc983615c43565b92615cd76040519485612c0c565b83523d5f8785013e615d69565b805180615cf057505050565b818391810103126104a05781615d069101613058565b15615d0e5750565b6084906040519062461bcd60e51b82526004820152602a60248201527f5361666545524332303a204552433230206f7065726174696f6e20646964206e6044820152691bdd081cdd58d8d9595960b21b6064820152fd5b6060915b91929015615dcb5750815115615d7d575090565b3b15615d865790565b60405162461bcd60e51b815260206004820152601d60248201527f416464726573733a2063616c6c20746f206e6f6e2d636f6e74726163740000006044820152606490fd5b825190915015615dde5750805190602001fd5b6040519062461bcd60e51b82528160208060048301528251908160248401525f935b828510615e22575050604492505f838284010152601f80199101168101030190fd5b8481018201518686016044015293810193859350615e0056fea9c835c21e93a672e5a6ef8ca0374f90b7d4378f7eec5769dcf22fdefd60ffaef8691f65402f2a458580d76db93812d43292515aaec0b64222f11d1a0642d8470aec74a1754fb10877b53c31a29be82096082042eb1fb374ec96fac88c0e621ba264697066735822122048b8cde0289cdac01727867c458cae9cc9a7adcba73f1445fe05c50ca22a228964736f6c63430008180033",
  "libraries": {
    "CheckpointLib": "0x960E20A297fCe472B9e060428fC92Fce34d83Bee",
    "InvariantLib": "0xF733681De4c6ec0Ae28354c4Cd1A0698C534e35a",
    "VersionLib": "0x6fd2B0a8a40A1Be8510cB5f39eFd72CFCA3b45bE",
    "CheckpointStorageLib": "0x074fb1073b24f85b52337b7DFeA2d2CB5B9406d9",
    "GlobalStorageLib": "0xaD4A7b0d821B955492d9BEa6776CDcC33Ee8CaC6",
    "MarketParameterStorageLib": "0x0d07e3A272F5666D10aeFC611D0F693b4a8F2E16",
    "PositionStorageGlobalLib": "0x5f52A20d8126eF29d813F522aa254F92500e0b92",
    "PositionStorageLocalLib": "0xb5CB0bbe900FEEe7f23F7BD785Cd07032928B334",
    "RiskParameterStorageLib": "0xE02bADe78Ae492E78383B04D6F25d521FF961d20",
    "VersionStorageLib": "0x73Ff980B20696EE07827146c76F71E4872783594"
  }
}