{
  "_format": "hh-sol-artifact-1",
  "contractName": "VaultV2_1_1",
  "sourceName": "contracts/VaultV2_1_1.sol",
  "abi": [
    {
      "inputs": [],
      "name": "AccountStorageInvalidError",
      "type": "error"
    },
    {
      "inputs": [],
      "name": "AccountStorageInvalidError",
      "type": "error"
    },
    {
      "inputs": [],
      "name": "CheckpointSingleSidedError",
      "type": "error"
    },
    {
      "inputs": [],
      "name": "CheckpointStorageInvalidError",
      "type": "error"
    },
    {
      "inputs": [],
      "name": "CheckpointStorageInvalidError",
      "type": "error"
    },
    {
      "inputs": [
        {
          "internalType": "uint256",
          "name": "value",
          "type": "uint256"
        }
      ],
      "name": "Fixed6OverflowError",
      "type": "error"
    },
    {
      "inputs": [
        {
          "internalType": "uint256",
          "name": "version",
          "type": "uint256"
        }
      ],
      "name": "InitializableAlreadyInitializedError",
      "type": "error"
    },
    {
      "inputs": [],
      "name": "InitializableNotInitializingError",
      "type": "error"
    },
    {
      "inputs": [],
      "name": "InitializableZeroVersionError",
      "type": "error"
    },
    {
      "inputs": [
        {
          "internalType": "address",
          "name": "sender",
          "type": "address"
        }
      ],
      "name": "InstanceNotFactoryError",
      "type": "error"
    },
    {
      "inputs": [
        {
          "internalType": "address",
          "name": "sender",
          "type": "address"
        }
      ],
      "name": "InstanceNotOwnerError",
      "type": "error"
    },
    {
      "inputs": [],
      "name": "InstancePausedError",
      "type": "error"
    },
    {
      "inputs": [],
      "name": "MappingStorageInvalidError",
      "type": "error"
    },
    {
      "inputs": [],
      "name": "MappingStorageInvalidError",
      "type": "error"
    },
    {
      "inputs": [],
      "name": "RegistrationStorageInvalidError",
      "type": "error"
    },
    {
      "inputs": [],
      "name": "RegistrationStorageInvalidError",
      "type": "error"
    },
    {
      "inputs": [],
      "name": "StrategyLibInsufficientMarginError",
      "type": "error"
    },
    {
      "inputs": [],
      "name": "StrategyLibInsufficientMarginError",
      "type": "error"
    },
    {
      "inputs": [
        {
          "internalType": "int256",
          "name": "value",
          "type": "int256"
        }
      ],
      "name": "UFixed6UnderflowError",
      "type": "error"
    },
    {
      "inputs": [],
      "name": "VaultDepositLimitExceededError",
      "type": "error"
    },
    {
      "inputs": [],
      "name": "VaultExistingOrderError",
      "type": "error"
    },
    {
      "inputs": [],
      "name": "VaultIncorrectAssetError",
      "type": "error"
    },
    {
      "inputs": [],
      "name": "VaultInsufficientMinimumError",
      "type": "error"
    },
    {
      "inputs": [],
      "name": "VaultMarketDoesNotExistError",
      "type": "error"
    },
    {
      "inputs": [],
      "name": "VaultMarketExistsError",
      "type": "error"
    },
    {
      "inputs": [],
      "name": "VaultNotMarketError",
      "type": "error"
    },
    {
      "inputs": [],
      "name": "VaultNotOperatorError",
      "type": "error"
    },
    {
      "inputs": [],
      "name": "VaultNotSingleSidedError",
      "type": "error"
    },
    {
      "inputs": [],
      "name": "VaultParameterStorageInvalidError",
      "type": "error"
    },
    {
      "inputs": [],
      "name": "VaultParameterStorageInvalidError",
      "type": "error"
    },
    {
      "inputs": [],
      "name": "VaultRedemptionLimitExceededError",
      "type": "error"
    },
    {
      "anonymous": false,
      "inputs": [
        {
          "indexed": false,
          "internalType": "uint256",
          "name": "version",
          "type": "uint256"
        }
      ],
      "name": "Initialized",
      "type": "event"
    },
    {
      "anonymous": false,
      "inputs": [
        {
          "indexed": true,
          "internalType": "uint256",
          "name": "marketId",
          "type": "uint256"
        },
        {
          "indexed": false,
          "internalType": "contract IMarket",
          "name": "market",
          "type": "address"
        }
      ],
      "name": "MarketRegistered",
      "type": "event"
    },
    {
      "anonymous": false,
      "inputs": [
        {
          "indexed": true,
          "internalType": "uint256",
          "name": "marketId",
          "type": "uint256"
        },
        {
          "indexed": false,
          "internalType": "uint256",
          "name": "newWeight",
          "type": "uint256"
        },
        {
          "indexed": false,
          "internalType": "UFixed6",
          "name": "newLeverage",
          "type": "uint256"
        }
      ],
      "name": "MarketUpdated",
      "type": "event"
    },
    {
      "anonymous": false,
      "inputs": [
        {
          "components": [
            {
              "internalType": "UFixed6",
              "name": "cap",
              "type": "uint256"
            }
          ],
          "indexed": false,
          "internalType": "struct VaultParameter",
          "name": "newParameter",
          "type": "tuple"
        }
      ],
      "name": "ParameterUpdated",
      "type": "event"
    },
    {
      "anonymous": false,
      "inputs": [
        {
          "indexed": true,
          "internalType": "address",
          "name": "sender",
          "type": "address"
        },
        {
          "indexed": true,
          "internalType": "address",
          "name": "account",
          "type": "address"
        },
        {
          "indexed": false,
          "internalType": "uint256",
          "name": "version",
          "type": "uint256"
        },
        {
          "indexed": false,
          "internalType": "UFixed6",
          "name": "depositAssets",
          "type": "uint256"
        },
        {
          "indexed": false,
          "internalType": "UFixed6",
          "name": "redeemShares",
          "type": "uint256"
        },
        {
          "indexed": false,
          "internalType": "UFixed6",
          "name": "claimAssets",
          "type": "uint256"
        }
      ],
      "name": "Updated",
      "type": "event"
    },
    {
      "inputs": [
        {
          "components": [
            {
              "components": [
                {
                  "components": [
                    {
                      "components": [
                        {
                          "internalType": "UFixed6",
                          "name": "fundingFee",
                          "type": "uint256"
                        },
                        {
                          "internalType": "UFixed6",
                          "name": "interestFee",
                          "type": "uint256"
                        },
                        {
                          "internalType": "UFixed6",
                          "name": "positionFee",
                          "type": "uint256"
                        },
                        {
                          "internalType": "UFixed6",
                          "name": "oracleFee",
                          "type": "uint256"
                        },
                        {
                          "internalType": "UFixed6",
                          "name": "riskFee",
                          "type": "uint256"
                        },
                        {
                          "internalType": "uint256",
                          "name": "maxPendingGlobal",
                          "type": "uint256"
                        },
                        {
                          "internalType": "uint256",
                          "name": "maxPendingLocal",
                          "type": "uint256"
                        },
                        {
                          "internalType": "UFixed6",
                          "name": "makerRewardRate",
                          "type": "uint256"
                        },
                        {
                          "internalType": "UFixed6",
                          "name": "longRewardRate",
                          "type": "uint256"
                        },
                        {
                          "internalType": "UFixed6",
                          "name": "shortRewardRate",
                          "type": "uint256"
                        },
                        {
                          "internalType": "UFixed6",
                          "name": "settlementFee",
                          "type": "uint256"
                        },
                        {
                          "internalType": "bool",
                          "name": "takerCloseAlways",
                          "type": "bool"
                        },
                        {
                          "internalType": "bool",
                          "name": "makerCloseAlways",
                          "type": "bool"
                        },
                        {
                          "internalType": "bool",
                          "name": "closed",
                          "type": "bool"
                        },
                        {
                          "internalType": "bool",
                          "name": "settle",
                          "type": "bool"
                        }
                      ],
                      "internalType": "struct MarketParameter",
                      "name": "marketParameter",
                      "type": "tuple"
                    },
                    {
                      "components": [
                        {
                          "internalType": "UFixed6",
                          "name": "margin",
                          "type": "uint256"
                        },
                        {
                          "internalType": "UFixed6",
                          "name": "maintenance",
                          "type": "uint256"
                        },
                        {
                          "internalType": "UFixed6",
                          "name": "takerFee",
                          "type": "uint256"
                        },
                        {
                          "internalType": "UFixed6",
                          "name": "takerSkewFee",
                          "type": "uint256"
                        },
                        {
                          "internalType": "UFixed6",
                          "name": "takerImpactFee",
                          "type": "uint256"
                        },
                        {
                          "internalType": "UFixed6",
                          "name": "makerFee",
                          "type": "uint256"
                        },
                        {
                          "internalType": "UFixed6",
                          "name": "makerImpactFee",
                          "type": "uint256"
                        },
                        {
                          "internalType": "UFixed6",
                          "name": "makerLimit",
                          "type": "uint256"
                        },
                        {
                          "internalType": "UFixed6",
                          "name": "efficiencyLimit",
                          "type": "uint256"
                        },
                        {
                          "internalType": "UFixed6",
                          "name": "liquidationFee",
                          "type": "uint256"
                        },
                        {
                          "internalType": "UFixed6",
                          "name": "minLiquidationFee",
                          "type": "uint256"
                        },
                        {
                          "internalType": "UFixed6",
                          "name": "maxLiquidationFee",
                          "type": "uint256"
                        },
                        {
                          "components": [
                            {
                              "internalType": "UFixed6",
                              "name": "minRate",
                              "type": "uint256"
                            },
                            {
                              "internalType": "UFixed6",
                              "name": "maxRate",
                              "type": "uint256"
                            },
                            {
                              "internalType": "UFixed6",
                              "name": "targetRate",
                              "type": "uint256"
                            },
                            {
                              "internalType": "UFixed6",
                              "name": "targetUtilization",
                              "type": "uint256"
                            }
                          ],
                          "internalType": "struct UJumpRateUtilizationCurve6",
                          "name": "utilizationCurve",
                          "type": "tuple"
                        },
                        {
                          "components": [
                            {
                              "internalType": "UFixed6",
                              "name": "k",
                              "type": "uint256"
                            },
                            {
                              "internalType": "UFixed6",
                              "name": "max",
                              "type": "uint256"
                            }
                          ],
                          "internalType": "struct PController6",
                          "name": "pController",
                          "type": "tuple"
                        },
                        {
                          "internalType": "UFixed6",
                          "name": "minMargin",
                          "type": "uint256"
                        },
                        {
                          "internalType": "UFixed6",
                          "name": "minMaintenance",
                          "type": "uint256"
                        },
                        {
                          "internalType": "UFixed6",
                          "name": "skewScale",
                          "type": "uint256"
                        },
                        {
                          "internalType": "uint256",
                          "name": "staleAfter",
                          "type": "uint256"
                        },
                        {
                          "internalType": "bool",
                          "name": "makerReceiveOnly",
                          "type": "bool"
                        }
                      ],
                      "internalType": "struct RiskParameter",
                      "name": "riskParameter",
                      "type": "tuple"
                    },
                    {
                      "components": [
                        {
                          "internalType": "uint256",
                          "name": "currentId",
                          "type": "uint256"
                        },
                        {
                          "internalType": "uint256",
                          "name": "latestId",
                          "type": "uint256"
                        },
                        {
                          "internalType": "Fixed6",
                          "name": "collateral",
                          "type": "int256"
                        },
                        {
                          "internalType": "UFixed6",
                          "name": "reward",
                          "type": "uint256"
                        },
                        {
                          "internalType": "uint256",
                          "name": "protection",
                          "type": "uint256"
                        },
                        {
                          "internalType": "address",
                          "name": "protectionInitiator",
                          "type": "address"
                        },
                        {
                          "internalType": "UFixed6",
                          "name": "protectionAmount",
                          "type": "uint256"
                        }
                      ],
                      "internalType": "struct Local",
                      "name": "local",
                      "type": "tuple"
                    },
                    {
                      "components": [
                        {
                          "internalType": "uint256",
                          "name": "timestamp",
                          "type": "uint256"
                        },
                        {
                          "internalType": "UFixed6",
                          "name": "maker",
                          "type": "uint256"
                        },
                        {
                          "internalType": "UFixed6",
                          "name": "long",
                          "type": "uint256"
                        },
                        {
                          "internalType": "UFixed6",
                          "name": "short",
                          "type": "uint256"
                        },
                        {
                          "internalType": "Fixed6",
                          "name": "fee",
                          "type": "int256"
                        },
                        {
                          "internalType": "UFixed6",
                          "name": "keeper",
                          "type": "uint256"
                        },
                        {
                          "internalType": "Fixed6",
                          "name": "collateral",
                          "type": "int256"
                        },
                        {
                          "internalType": "Fixed6",
                          "name": "delta",
                          "type": "int256"
                        },
                        {
                          "components": [
                            {
                              "internalType": "Fixed6",
                              "name": "maker",
                              "type": "int256"
                            },
                            {
                              "internalType": "Fixed6",
                              "name": "long",
                              "type": "int256"
                            },
                            {
                              "internalType": "Fixed6",
                              "name": "short",
                              "type": "int256"
                            }
                          ],
                          "internalType": "struct Invalidation",
                          "name": "invalidation",
                          "type": "tuple"
                        }
                      ],
                      "internalType": "struct Position",
                      "name": "currentAccountPosition",
                      "type": "tuple"
                    },
                    {
                      "components": [
                        {
                          "internalType": "uint256",
                          "name": "timestamp",
                          "type": "uint256"
                        },
                        {
                          "internalType": "UFixed6",
                          "name": "maker",
                          "type": "uint256"
                        },
                        {
                          "internalType": "UFixed6",
                          "name": "long",
                          "type": "uint256"
                        },
                        {
                          "internalType": "UFixed6",
                          "name": "short",
                          "type": "uint256"
                        },
                        {
                          "internalType": "Fixed6",
                          "name": "fee",
                          "type": "int256"
                        },
                        {
                          "internalType": "UFixed6",
                          "name": "keeper",
                          "type": "uint256"
                        },
                        {
                          "internalType": "Fixed6",
                          "name": "collateral",
                          "type": "int256"
                        },
                        {
                          "internalType": "Fixed6",
                          "name": "delta",
                          "type": "int256"
                        },
                        {
                          "components": [
                            {
                              "internalType": "Fixed6",
                              "name": "maker",
                              "type": "int256"
                            },
                            {
                              "internalType": "Fixed6",
                              "name": "long",
                              "type": "int256"
                            },
                            {
                              "internalType": "Fixed6",
                              "name": "short",
                              "type": "int256"
                            }
                          ],
                          "internalType": "struct Invalidation",
                          "name": "invalidation",
                          "type": "tuple"
                        }
                      ],
                      "internalType": "struct Position",
                      "name": "latestAccountPosition",
                      "type": "tuple"
                    },
                    {
                      "components": [
                        {
                          "internalType": "uint256",
                          "name": "timestamp",
                          "type": "uint256"
                        },
                        {
                          "internalType": "UFixed6",
                          "name": "maker",
                          "type": "uint256"
                        },
                        {
                          "internalType": "UFixed6",
                          "name": "long",
                          "type": "uint256"
                        },
                        {
                          "internalType": "UFixed6",
                          "name": "short",
                          "type": "uint256"
                        },
                        {
                          "internalType": "Fixed6",
                          "name": "fee",
                          "type": "int256"
                        },
                        {
                          "internalType": "UFixed6",
                          "name": "keeper",
                          "type": "uint256"
                        },
                        {
                          "internalType": "Fixed6",
                          "name": "collateral",
                          "type": "int256"
                        },
                        {
                          "internalType": "Fixed6",
                          "name": "delta",
                          "type": "int256"
                        },
                        {
                          "components": [
                            {
                              "internalType": "Fixed6",
                              "name": "maker",
                              "type": "int256"
                            },
                            {
                              "internalType": "Fixed6",
                              "name": "long",
                              "type": "int256"
                            },
                            {
                              "internalType": "Fixed6",
                              "name": "short",
                              "type": "int256"
                            }
                          ],
                          "internalType": "struct Invalidation",
                          "name": "invalidation",
                          "type": "tuple"
                        }
                      ],
                      "internalType": "struct Position",
                      "name": "currentPosition",
                      "type": "tuple"
                    },
                    {
                      "internalType": "Fixed6",
                      "name": "latestPrice",
                      "type": "int256"
                    },
                    {
                      "internalType": "UFixed6",
                      "name": "margin",
                      "type": "uint256"
                    },
                    {
                      "internalType": "UFixed6",
                      "name": "closable",
                      "type": "uint256"
                    },
                    {
                      "internalType": "UFixed6",
                      "name": "pendingFee",
                      "type": "uint256"
                    }
                  ],
                  "internalType": "struct MarketStrategyContext[]",
                  "name": "marketContexts",
                  "type": "tuple[]"
                }
              ],
              "internalType": "struct Strategy",
              "name": "strategy",
              "type": "tuple"
            },
            {
              "internalType": "UFixed6",
              "name": "settlementFee",
              "type": "uint256"
            },
            {
              "internalType": "uint256",
              "name": "totalWeight",
              "type": "uint256"
            },
            {
              "internalType": "uint256",
              "name": "currentId",
              "type": "uint256"
            },
            {
              "components": [
                {
                  "internalType": "contract IMarket",
                  "name": "market",
                  "type": "address"
                },
                {
                  "internalType": "uint256",
                  "name": "weight",
                  "type": "uint256"
                },
                {
                  "internalType": "UFixed6",
                  "name": "leverage",
                  "type": "uint256"
                }
              ],
              "internalType": "struct Registration[]",
              "name": "registrations",
              "type": "tuple[]"
            },
            {
              "internalType": "Fixed6[]",
              "name": "collaterals",
              "type": "int256[]"
            },
            {
              "components": [
                {
                  "internalType": "uint256[]",
                  "name": "_ids",
                  "type": "uint256[]"
                }
              ],
              "internalType": "struct Mapping",
              "name": "currentIds",
              "type": "tuple"
            },
            {
              "components": [
                {
                  "internalType": "uint256[]",
                  "name": "_ids",
                  "type": "uint256[]"
                }
              ],
              "internalType": "struct Mapping",
              "name": "latestIds",
              "type": "tuple"
            },
            {
              "components": [
                {
                  "internalType": "UFixed6",
                  "name": "cap",
                  "type": "uint256"
                }
              ],
              "internalType": "struct VaultParameter",
              "name": "parameter",
              "type": "tuple"
            },
            {
              "components": [
                {
                  "internalType": "UFixed6",
                  "name": "deposit",
                  "type": "uint256"
                },
                {
                  "internalType": "UFixed6",
                  "name": "redemption",
                  "type": "uint256"
                },
                {
                  "internalType": "UFixed6",
                  "name": "shares",
                  "type": "uint256"
                },
                {
                  "internalType": "Fixed6",
                  "name": "assets",
                  "type": "int256"
                },
                {
                  "internalType": "UFixed6",
                  "name": "fee",
                  "type": "uint256"
                },
                {
                  "internalType": "UFixed6",
                  "name": "keeper",
                  "type": "uint256"
                },
                {
                  "internalType": "uint256",
                  "name": "count",
                  "type": "uint256"
                }
              ],
              "internalType": "struct Checkpoint",
              "name": "currentCheckpoint",
              "type": "tuple"
            },
            {
              "components": [
                {
                  "internalType": "UFixed6",
                  "name": "deposit",
                  "type": "uint256"
                },
                {
                  "internalType": "UFixed6",
                  "name": "redemption",
                  "type": "uint256"
                },
                {
                  "internalType": "UFixed6",
                  "name": "shares",
                  "type": "uint256"
                },
                {
                  "internalType": "Fixed6",
                  "name": "assets",
                  "type": "int256"
                },
                {
                  "internalType": "UFixed6",
                  "name": "fee",
                  "type": "uint256"
                },
                {
                  "internalType": "UFixed6",
                  "name": "keeper",
                  "type": "uint256"
                },
                {
                  "internalType": "uint256",
                  "name": "count",
                  "type": "uint256"
                }
              ],
              "internalType": "struct Checkpoint",
              "name": "latestCheckpoint",
              "type": "tuple"
            },
            {
              "components": [
                {
                  "internalType": "uint256",
                  "name": "current",
                  "type": "uint256"
                },
                {
                  "internalType": "uint256",
                  "name": "latest",
                  "type": "uint256"
                },
                {
                  "internalType": "UFixed6",
                  "name": "shares",
                  "type": "uint256"
                },
                {
                  "internalType": "UFixed6",
                  "name": "assets",
                  "type": "uint256"
                },
                {
                  "internalType": "UFixed6",
                  "name": "deposit",
                  "type": "uint256"
                },
                {
                  "internalType": "UFixed6",
                  "name": "redemption",
                  "type": "uint256"
                }
              ],
              "internalType": "struct Account",
              "name": "global",
              "type": "tuple"
            },
            {
              "components": [
                {
                  "internalType": "uint256",
                  "name": "current",
                  "type": "uint256"
                },
                {
                  "internalType": "uint256",
                  "name": "latest",
                  "type": "uint256"
                },
                {
                  "internalType": "UFixed6",
                  "name": "shares",
                  "type": "uint256"
                },
                {
                  "internalType": "UFixed6",
                  "name": "assets",
                  "type": "uint256"
                },
                {
                  "internalType": "UFixed6",
                  "name": "deposit",
                  "type": "uint256"
                },
                {
                  "internalType": "UFixed6",
                  "name": "redemption",
                  "type": "uint256"
                }
              ],
              "internalType": "struct Account",
              "name": "local",
              "type": "tuple"
            }
          ],
          "internalType": "struct IVault.Context",
          "name": "context",
          "type": "tuple"
        }
      ],
      "name": "_collateral",
      "outputs": [
        {
          "internalType": "Fixed6",
          "name": "value",
          "type": "int256"
        }
      ],
      "stateMutability": "view",
      "type": "function"
    },
    {
      "inputs": [
        {
          "components": [
            {
              "components": [
                {
                  "components": [
                    {
                      "components": [
                        {
                          "internalType": "UFixed6",
                          "name": "fundingFee",
                          "type": "uint256"
                        },
                        {
                          "internalType": "UFixed6",
                          "name": "interestFee",
                          "type": "uint256"
                        },
                        {
                          "internalType": "UFixed6",
                          "name": "positionFee",
                          "type": "uint256"
                        },
                        {
                          "internalType": "UFixed6",
                          "name": "oracleFee",
                          "type": "uint256"
                        },
                        {
                          "internalType": "UFixed6",
                          "name": "riskFee",
                          "type": "uint256"
                        },
                        {
                          "internalType": "uint256",
                          "name": "maxPendingGlobal",
                          "type": "uint256"
                        },
                        {
                          "internalType": "uint256",
                          "name": "maxPendingLocal",
                          "type": "uint256"
                        },
                        {
                          "internalType": "UFixed6",
                          "name": "makerRewardRate",
                          "type": "uint256"
                        },
                        {
                          "internalType": "UFixed6",
                          "name": "longRewardRate",
                          "type": "uint256"
                        },
                        {
                          "internalType": "UFixed6",
                          "name": "shortRewardRate",
                          "type": "uint256"
                        },
                        {
                          "internalType": "UFixed6",
                          "name": "settlementFee",
                          "type": "uint256"
                        },
                        {
                          "internalType": "bool",
                          "name": "takerCloseAlways",
                          "type": "bool"
                        },
                        {
                          "internalType": "bool",
                          "name": "makerCloseAlways",
                          "type": "bool"
                        },
                        {
                          "internalType": "bool",
                          "name": "closed",
                          "type": "bool"
                        },
                        {
                          "internalType": "bool",
                          "name": "settle",
                          "type": "bool"
                        }
                      ],
                      "internalType": "struct MarketParameter",
                      "name": "marketParameter",
                      "type": "tuple"
                    },
                    {
                      "components": [
                        {
                          "internalType": "UFixed6",
                          "name": "margin",
                          "type": "uint256"
                        },
                        {
                          "internalType": "UFixed6",
                          "name": "maintenance",
                          "type": "uint256"
                        },
                        {
                          "internalType": "UFixed6",
                          "name": "takerFee",
                          "type": "uint256"
                        },
                        {
                          "internalType": "UFixed6",
                          "name": "takerSkewFee",
                          "type": "uint256"
                        },
                        {
                          "internalType": "UFixed6",
                          "name": "takerImpactFee",
                          "type": "uint256"
                        },
                        {
                          "internalType": "UFixed6",
                          "name": "makerFee",
                          "type": "uint256"
                        },
                        {
                          "internalType": "UFixed6",
                          "name": "makerImpactFee",
                          "type": "uint256"
                        },
                        {
                          "internalType": "UFixed6",
                          "name": "makerLimit",
                          "type": "uint256"
                        },
                        {
                          "internalType": "UFixed6",
                          "name": "efficiencyLimit",
                          "type": "uint256"
                        },
                        {
                          "internalType": "UFixed6",
                          "name": "liquidationFee",
                          "type": "uint256"
                        },
                        {
                          "internalType": "UFixed6",
                          "name": "minLiquidationFee",
                          "type": "uint256"
                        },
                        {
                          "internalType": "UFixed6",
                          "name": "maxLiquidationFee",
                          "type": "uint256"
                        },
                        {
                          "components": [
                            {
                              "internalType": "UFixed6",
                              "name": "minRate",
                              "type": "uint256"
                            },
                            {
                              "internalType": "UFixed6",
                              "name": "maxRate",
                              "type": "uint256"
                            },
                            {
                              "internalType": "UFixed6",
                              "name": "targetRate",
                              "type": "uint256"
                            },
                            {
                              "internalType": "UFixed6",
                              "name": "targetUtilization",
                              "type": "uint256"
                            }
                          ],
                          "internalType": "struct UJumpRateUtilizationCurve6",
                          "name": "utilizationCurve",
                          "type": "tuple"
                        },
                        {
                          "components": [
                            {
                              "internalType": "UFixed6",
                              "name": "k",
                              "type": "uint256"
                            },
                            {
                              "internalType": "UFixed6",
                              "name": "max",
                              "type": "uint256"
                            }
                          ],
                          "internalType": "struct PController6",
                          "name": "pController",
                          "type": "tuple"
                        },
                        {
                          "internalType": "UFixed6",
                          "name": "minMargin",
                          "type": "uint256"
                        },
                        {
                          "internalType": "UFixed6",
                          "name": "minMaintenance",
                          "type": "uint256"
                        },
                        {
                          "internalType": "UFixed6",
                          "name": "skewScale",
                          "type": "uint256"
                        },
                        {
                          "internalType": "uint256",
                          "name": "staleAfter",
                          "type": "uint256"
                        },
                        {
                          "internalType": "bool",
                          "name": "makerReceiveOnly",
                          "type": "bool"
                        }
                      ],
                      "internalType": "struct RiskParameter",
                      "name": "riskParameter",
                      "type": "tuple"
                    },
                    {
                      "components": [
                        {
                          "internalType": "uint256",
                          "name": "currentId",
                          "type": "uint256"
                        },
                        {
                          "internalType": "uint256",
                          "name": "latestId",
                          "type": "uint256"
                        },
                        {
                          "internalType": "Fixed6",
                          "name": "collateral",
                          "type": "int256"
                        },
                        {
                          "internalType": "UFixed6",
                          "name": "reward",
                          "type": "uint256"
                        },
                        {
                          "internalType": "uint256",
                          "name": "protection",
                          "type": "uint256"
                        },
                        {
                          "internalType": "address",
                          "name": "protectionInitiator",
                          "type": "address"
                        },
                        {
                          "internalType": "UFixed6",
                          "name": "protectionAmount",
                          "type": "uint256"
                        }
                      ],
                      "internalType": "struct Local",
                      "name": "local",
                      "type": "tuple"
                    },
                    {
                      "components": [
                        {
                          "internalType": "uint256",
                          "name": "timestamp",
                          "type": "uint256"
                        },
                        {
                          "internalType": "UFixed6",
                          "name": "maker",
                          "type": "uint256"
                        },
                        {
                          "internalType": "UFixed6",
                          "name": "long",
                          "type": "uint256"
                        },
                        {
                          "internalType": "UFixed6",
                          "name": "short",
                          "type": "uint256"
                        },
                        {
                          "internalType": "Fixed6",
                          "name": "fee",
                          "type": "int256"
                        },
                        {
                          "internalType": "UFixed6",
                          "name": "keeper",
                          "type": "uint256"
                        },
                        {
                          "internalType": "Fixed6",
                          "name": "collateral",
                          "type": "int256"
                        },
                        {
                          "internalType": "Fixed6",
                          "name": "delta",
                          "type": "int256"
                        },
                        {
                          "components": [
                            {
                              "internalType": "Fixed6",
                              "name": "maker",
                              "type": "int256"
                            },
                            {
                              "internalType": "Fixed6",
                              "name": "long",
                              "type": "int256"
                            },
                            {
                              "internalType": "Fixed6",
                              "name": "short",
                              "type": "int256"
                            }
                          ],
                          "internalType": "struct Invalidation",
                          "name": "invalidation",
                          "type": "tuple"
                        }
                      ],
                      "internalType": "struct Position",
                      "name": "currentAccountPosition",
                      "type": "tuple"
                    },
                    {
                      "components": [
                        {
                          "internalType": "uint256",
                          "name": "timestamp",
                          "type": "uint256"
                        },
                        {
                          "internalType": "UFixed6",
                          "name": "maker",
                          "type": "uint256"
                        },
                        {
                          "internalType": "UFixed6",
                          "name": "long",
                          "type": "uint256"
                        },
                        {
                          "internalType": "UFixed6",
                          "name": "short",
                          "type": "uint256"
                        },
                        {
                          "internalType": "Fixed6",
                          "name": "fee",
                          "type": "int256"
                        },
                        {
                          "internalType": "UFixed6",
                          "name": "keeper",
                          "type": "uint256"
                        },
                        {
                          "internalType": "Fixed6",
                          "name": "collateral",
                          "type": "int256"
                        },
                        {
                          "internalType": "Fixed6",
                          "name": "delta",
                          "type": "int256"
                        },
                        {
                          "components": [
                            {
                              "internalType": "Fixed6",
                              "name": "maker",
                              "type": "int256"
                            },
                            {
                              "internalType": "Fixed6",
                              "name": "long",
                              "type": "int256"
                            },
                            {
                              "internalType": "Fixed6",
                              "name": "short",
                              "type": "int256"
                            }
                          ],
                          "internalType": "struct Invalidation",
                          "name": "invalidation",
                          "type": "tuple"
                        }
                      ],
                      "internalType": "struct Position",
                      "name": "latestAccountPosition",
                      "type": "tuple"
                    },
                    {
                      "components": [
                        {
                          "internalType": "uint256",
                          "name": "timestamp",
                          "type": "uint256"
                        },
                        {
                          "internalType": "UFixed6",
                          "name": "maker",
                          "type": "uint256"
                        },
                        {
                          "internalType": "UFixed6",
                          "name": "long",
                          "type": "uint256"
                        },
                        {
                          "internalType": "UFixed6",
                          "name": "short",
                          "type": "uint256"
                        },
                        {
                          "internalType": "Fixed6",
                          "name": "fee",
                          "type": "int256"
                        },
                        {
                          "internalType": "UFixed6",
                          "name": "keeper",
                          "type": "uint256"
                        },
                        {
                          "internalType": "Fixed6",
                          "name": "collateral",
                          "type": "int256"
                        },
                        {
                          "internalType": "Fixed6",
                          "name": "delta",
                          "type": "int256"
                        },
                        {
                          "components": [
                            {
                              "internalType": "Fixed6",
                              "name": "maker",
                              "type": "int256"
                            },
                            {
                              "internalType": "Fixed6",
                              "name": "long",
                              "type": "int256"
                            },
                            {
                              "internalType": "Fixed6",
                              "name": "short",
                              "type": "int256"
                            }
                          ],
                          "internalType": "struct Invalidation",
                          "name": "invalidation",
                          "type": "tuple"
                        }
                      ],
                      "internalType": "struct Position",
                      "name": "currentPosition",
                      "type": "tuple"
                    },
                    {
                      "internalType": "Fixed6",
                      "name": "latestPrice",
                      "type": "int256"
                    },
                    {
                      "internalType": "UFixed6",
                      "name": "margin",
                      "type": "uint256"
                    },
                    {
                      "internalType": "UFixed6",
                      "name": "closable",
                      "type": "uint256"
                    },
                    {
                      "internalType": "UFixed6",
                      "name": "pendingFee",
                      "type": "uint256"
                    }
                  ],
                  "internalType": "struct MarketStrategyContext[]",
                  "name": "marketContexts",
                  "type": "tuple[]"
                }
              ],
              "internalType": "struct Strategy",
              "name": "strategy",
              "type": "tuple"
            },
            {
              "internalType": "UFixed6",
              "name": "settlementFee",
              "type": "uint256"
            },
            {
              "internalType": "uint256",
              "name": "totalWeight",
              "type": "uint256"
            },
            {
              "internalType": "uint256",
              "name": "currentId",
              "type": "uint256"
            },
            {
              "components": [
                {
                  "internalType": "contract IMarket",
                  "name": "market",
                  "type": "address"
                },
                {
                  "internalType": "uint256",
                  "name": "weight",
                  "type": "uint256"
                },
                {
                  "internalType": "UFixed6",
                  "name": "leverage",
                  "type": "uint256"
                }
              ],
              "internalType": "struct Registration[]",
              "name": "registrations",
              "type": "tuple[]"
            },
            {
              "internalType": "Fixed6[]",
              "name": "collaterals",
              "type": "int256[]"
            },
            {
              "components": [
                {
                  "internalType": "uint256[]",
                  "name": "_ids",
                  "type": "uint256[]"
                }
              ],
              "internalType": "struct Mapping",
              "name": "currentIds",
              "type": "tuple"
            },
            {
              "components": [
                {
                  "internalType": "uint256[]",
                  "name": "_ids",
                  "type": "uint256[]"
                }
              ],
              "internalType": "struct Mapping",
              "name": "latestIds",
              "type": "tuple"
            },
            {
              "components": [
                {
                  "internalType": "UFixed6",
                  "name": "cap",
                  "type": "uint256"
                }
              ],
              "internalType": "struct VaultParameter",
              "name": "parameter",
              "type": "tuple"
            },
            {
              "components": [
                {
                  "internalType": "UFixed6",
                  "name": "deposit",
                  "type": "uint256"
                },
                {
                  "internalType": "UFixed6",
                  "name": "redemption",
                  "type": "uint256"
                },
                {
                  "internalType": "UFixed6",
                  "name": "shares",
                  "type": "uint256"
                },
                {
                  "internalType": "Fixed6",
                  "name": "assets",
                  "type": "int256"
                },
                {
                  "internalType": "UFixed6",
                  "name": "fee",
                  "type": "uint256"
                },
                {
                  "internalType": "UFixed6",
                  "name": "keeper",
                  "type": "uint256"
                },
                {
                  "internalType": "uint256",
                  "name": "count",
                  "type": "uint256"
                }
              ],
              "internalType": "struct Checkpoint",
              "name": "currentCheckpoint",
              "type": "tuple"
            },
            {
              "components": [
                {
                  "internalType": "UFixed6",
                  "name": "deposit",
                  "type": "uint256"
                },
                {
                  "internalType": "UFixed6",
                  "name": "redemption",
                  "type": "uint256"
                },
                {
                  "internalType": "UFixed6",
                  "name": "shares",
                  "type": "uint256"
                },
                {
                  "internalType": "Fixed6",
                  "name": "assets",
                  "type": "int256"
                },
                {
                  "internalType": "UFixed6",
                  "name": "fee",
                  "type": "uint256"
                },
                {
                  "internalType": "UFixed6",
                  "name": "keeper",
                  "type": "uint256"
                },
                {
                  "internalType": "uint256",
                  "name": "count",
                  "type": "uint256"
                }
              ],
              "internalType": "struct Checkpoint",
              "name": "latestCheckpoint",
              "type": "tuple"
            },
            {
              "components": [
                {
                  "internalType": "uint256",
                  "name": "current",
                  "type": "uint256"
                },
                {
                  "internalType": "uint256",
                  "name": "latest",
                  "type": "uint256"
                },
                {
                  "internalType": "UFixed6",
                  "name": "shares",
                  "type": "uint256"
                },
                {
                  "internalType": "UFixed6",
                  "name": "assets",
                  "type": "uint256"
                },
                {
                  "internalType": "UFixed6",
                  "name": "deposit",
                  "type": "uint256"
                },
                {
                  "internalType": "UFixed6",
                  "name": "redemption",
                  "type": "uint256"
                }
              ],
              "internalType": "struct Account",
              "name": "global",
              "type": "tuple"
            },
            {
              "components": [
                {
                  "internalType": "uint256",
                  "name": "current",
                  "type": "uint256"
                },
                {
                  "internalType": "uint256",
                  "name": "latest",
                  "type": "uint256"
                },
                {
                  "internalType": "UFixed6",
                  "name": "shares",
                  "type": "uint256"
                },
                {
                  "internalType": "UFixed6",
                  "name": "assets",
                  "type": "uint256"
                },
                {
                  "internalType": "UFixed6",
                  "name": "deposit",
                  "type": "uint256"
                },
                {
                  "internalType": "UFixed6",
                  "name": "redemption",
                  "type": "uint256"
                }
              ],
              "internalType": "struct Account",
              "name": "local",
              "type": "tuple"
            }
          ],
          "internalType": "struct IVault.Context",
          "name": "context",
          "type": "tuple"
        },
        {
          "internalType": "uint256",
          "name": "id",
          "type": "uint256"
        }
      ],
      "name": "_collateralAtId",
      "outputs": [
        {
          "internalType": "Fixed6",
          "name": "value",
          "type": "int256"
        },
        {
          "internalType": "UFixed6",
          "name": "fee",
          "type": "uint256"
        },
        {
          "internalType": "UFixed6",
          "name": "keeper",
          "type": "uint256"
        }
      ],
      "stateMutability": "view",
      "type": "function"
    },
    {
      "inputs": [
        {
          "internalType": "address",
          "name": "account",
          "type": "address"
        }
      ],
      "name": "accounts",
      "outputs": [
        {
          "components": [
            {
              "internalType": "uint256",
              "name": "current",
              "type": "uint256"
            },
            {
              "internalType": "uint256",
              "name": "latest",
              "type": "uint256"
            },
            {
              "internalType": "UFixed6",
              "name": "shares",
              "type": "uint256"
            },
            {
              "internalType": "UFixed6",
              "name": "assets",
              "type": "uint256"
            },
            {
              "internalType": "UFixed6",
              "name": "deposit",
              "type": "uint256"
            },
            {
              "internalType": "UFixed6",
              "name": "redemption",
              "type": "uint256"
            }
          ],
          "internalType": "struct Account",
          "name": "",
          "type": "tuple"
        }
      ],
      "stateMutability": "view",
      "type": "function"
    },
    {
      "inputs": [],
      "name": "asset",
      "outputs": [
        {
          "internalType": "Token18",
          "name": "",
          "type": "address"
        }
      ],
      "stateMutability": "view",
      "type": "function"
    },
    {
      "inputs": [
        {
          "internalType": "uint256",
          "name": "id",
          "type": "uint256"
        }
      ],
      "name": "checkpoints",
      "outputs": [
        {
          "components": [
            {
              "internalType": "UFixed6",
              "name": "deposit",
              "type": "uint256"
            },
            {
              "internalType": "UFixed6",
              "name": "redemption",
              "type": "uint256"
            },
            {
              "internalType": "UFixed6",
              "name": "shares",
              "type": "uint256"
            },
            {
              "internalType": "Fixed6",
              "name": "assets",
              "type": "int256"
            },
            {
              "internalType": "UFixed6",
              "name": "fee",
              "type": "uint256"
            },
            {
              "internalType": "UFixed6",
              "name": "keeper",
              "type": "uint256"
            },
            {
              "internalType": "uint256",
              "name": "count",
              "type": "uint256"
            }
          ],
          "internalType": "struct Checkpoint",
          "name": "",
          "type": "tuple"
        }
      ],
      "stateMutability": "view",
      "type": "function"
    },
    {
      "inputs": [
        {
          "internalType": "UFixed6",
          "name": "shares",
          "type": "uint256"
        }
      ],
      "name": "convertToAssets",
      "outputs": [
        {
          "internalType": "UFixed6",
          "name": "",
          "type": "uint256"
        }
      ],
      "stateMutability": "view",
      "type": "function"
    },
    {
      "inputs": [
        {
          "internalType": "UFixed6",
          "name": "assets",
          "type": "uint256"
        }
      ],
      "name": "convertToShares",
      "outputs": [
        {
          "internalType": "UFixed6",
          "name": "",
          "type": "uint256"
        }
      ],
      "stateMutability": "view",
      "type": "function"
    },
    {
      "inputs": [],
      "name": "factory",
      "outputs": [
        {
          "internalType": "contract IFactory",
          "name": "",
          "type": "address"
        }
      ],
      "stateMutability": "view",
      "type": "function"
    },
    {
      "inputs": [
        {
          "internalType": "Token18",
          "name": "asset_",
          "type": "address"
        },
        {
          "internalType": "contract IMarket",
          "name": "initialMarket",
          "type": "address"
        },
        {
          "internalType": "UFixed6",
          "name": "cap",
          "type": "uint256"
        },
        {
          "internalType": "string",
          "name": "name_",
          "type": "string"
        }
      ],
      "name": "initialize",
      "outputs": [],
      "stateMutability": "nonpayable",
      "type": "function"
    },
    {
      "inputs": [
        {
          "internalType": "uint256",
          "name": "id",
          "type": "uint256"
        }
      ],
      "name": "mappings",
      "outputs": [
        {
          "components": [
            {
              "internalType": "uint256[]",
              "name": "_ids",
              "type": "uint256[]"
            }
          ],
          "internalType": "struct Mapping",
          "name": "",
          "type": "tuple"
        }
      ],
      "stateMutability": "view",
      "type": "function"
    },
    {
      "inputs": [],
      "name": "name",
      "outputs": [
        {
          "internalType": "string",
          "name": "",
          "type": "string"
        }
      ],
      "stateMutability": "view",
      "type": "function"
    },
    {
      "inputs": [],
      "name": "parameter",
      "outputs": [
        {
          "components": [
            {
              "internalType": "UFixed6",
              "name": "cap",
              "type": "uint256"
            }
          ],
          "internalType": "struct VaultParameter",
          "name": "",
          "type": "tuple"
        }
      ],
      "stateMutability": "view",
      "type": "function"
    },
    {
      "inputs": [
        {
          "internalType": "address",
          "name": "account",
          "type": "address"
        }
      ],
      "name": "rebalance",
      "outputs": [],
      "stateMutability": "nonpayable",
      "type": "function"
    },
    {
      "inputs": [
        {
          "internalType": "contract IMarket",
          "name": "market",
          "type": "address"
        }
      ],
      "name": "register",
      "outputs": [],
      "stateMutability": "nonpayable",
      "type": "function"
    },
    {
      "inputs": [
        {
          "internalType": "uint256",
          "name": "marketId",
          "type": "uint256"
        }
      ],
      "name": "registrations",
      "outputs": [
        {
          "components": [
            {
              "internalType": "contract IMarket",
              "name": "market",
              "type": "address"
            },
            {
              "internalType": "uint256",
              "name": "weight",
              "type": "uint256"
            },
            {
              "internalType": "UFixed6",
              "name": "leverage",
              "type": "uint256"
            }
          ],
          "internalType": "struct Registration",
          "name": "",
          "type": "tuple"
        }
      ],
      "stateMutability": "view",
      "type": "function"
    },
    {
      "inputs": [
        {
          "internalType": "address",
          "name": "account",
          "type": "address"
        }
      ],
      "name": "settle",
      "outputs": [],
      "stateMutability": "nonpayable",
      "type": "function"
    },
    {
      "inputs": [],
      "name": "totalAssets",
      "outputs": [
        {
          "internalType": "Fixed6",
          "name": "",
          "type": "int256"
        }
      ],
      "stateMutability": "view",
      "type": "function"
    },
    {
      "inputs": [],
      "name": "totalMarkets",
      "outputs": [
        {
          "internalType": "uint256",
          "name": "",
          "type": "uint256"
        }
      ],
      "stateMutability": "view",
      "type": "function"
    },
    {
      "inputs": [],
      "name": "totalShares",
      "outputs": [
        {
          "internalType": "UFixed6",
          "name": "",
          "type": "uint256"
        }
      ],
      "stateMutability": "view",
      "type": "function"
    },
    {
      "inputs": [
        {
          "internalType": "address",
          "name": "account",
          "type": "address"
        },
        {
          "internalType": "UFixed6",
          "name": "depositAssets",
          "type": "uint256"
        },
        {
          "internalType": "UFixed6",
          "name": "redeemShares",
          "type": "uint256"
        },
        {
          "internalType": "UFixed6",
          "name": "claimAssets",
          "type": "uint256"
        }
      ],
      "name": "update",
      "outputs": [],
      "stateMutability": "nonpayable",
      "type": "function"
    },
    {
      "inputs": [
        {
          "internalType": "uint256",
          "name": "marketId",
          "type": "uint256"
        },
        {
          "internalType": "uint256",
          "name": "newWeight",
          "type": "uint256"
        },
        {
          "internalType": "UFixed6",
          "name": "newLeverage",
          "type": "uint256"
        }
      ],
      "name": "updateMarket",
      "outputs": [],
      "stateMutability": "nonpayable",
      "type": "function"
    },
    {
      "inputs": [
        {
          "components": [
            {
              "internalType": "UFixed6",
              "name": "cap",
              "type": "uint256"
            }
          ],
          "internalType": "struct VaultParameter",
          "name": "newParameter",
          "type": "tuple"
        }
      ],
      "name": "updateParameter",
      "outputs": [],
      "stateMutability": "nonpayable",
      "type": "function"
    }
  ],
  "bytecode": "0x60806040523480156200001157600080fd5b5061991e80620000226000396000f3fe608060405234801561001057600080fd5b50600436106101825760003560e01c80639fec600b116100d8578063c45a01551161008c578063e2cb882111610066578063e2cb88211461040d578063ecf053d91461043f578063f4ddb5be1461046f57610182565b8063c45a0155146103a3578063c6e6f592146103c1578063d2c3aaf2146103f157610182565b8063a5245749116100bd578063a524574914610339578063ad4d4e2914610355578063b8a242521461037357610182565b80639fec600b14610301578063a145198c1461031d57610182565b80633a98ef391161013a5780636a256b29116101145780636a256b29146102975780637cebdbbb146102b35780638162486b146102e357610182565b80633a98ef391461022d5780634420e4861461024b5780635e5c06e21461026757610182565b806307a2d13a1161016b57806307a2d13a146101c357806321c28191146101f357806338d52e0f1461020f57610182565b806301e1d1141461018757806306fdde03146101a5575b600080fd5b61018f61049f565b60405161019c9190616c90565b60405180910390f35b6101ad610562565b6040516101ba9190616d3b565b60405180910390f35b6101dd60048036038101906101d89190616da7565b61058a565b6040516101ea9190616e05565b60405180910390f35b61020d60048036038101906102089190616e7e565b6105f0565b005b6102176106d6565b6040516102249190616f00565b60405180910390f35b6102356106fc565b6040516102429190616e05565b60405180910390f35b61026560048036038101906102609190616f59565b6107af565b005b610281600480360381019061027c9190616e7e565b61094e565b60405161028e919061701f565b60405180910390f35b6102b160048036038101906102ac9190616e7e565b6109a4565b005b6102cd60048036038101906102c89190617fac565b610a7e565b6040516102da9190616c90565b60405180910390f35b6102eb610b2f565b6040516102f89190618004565b60405180910390f35b61031b600480360381019061031691906180a6565b610b35565b005b6103376004803603810190610332919061812e565b610d40565b005b610353600480360381019061034e919061815b565b610e3b565b005b61035d610f3a565b60405161036a91906181ca565b60405180910390f35b61038d600480360381019061038891906181e5565b610f51565b60405161039a91906182af565b60405180910390f35b6103ab610f7b565b6040516103b891906182eb565b60405180910390f35b6103db60048036038101906103d69190616da7565b610fab565b6040516103e89190616e05565b60405180910390f35b61040b60048036038101906104069190618306565b611011565b005b6104276004803603810190610422919061836d565b611104565b604051610436939291906183c9565b60405180910390f35b610459600480360381019061045491906181e5565b611272565b60405161046691906184d9565b60405180910390f35b610489600480360381019061048491906181e5565b61129c565b604051610496919061855e565b60405180910390f35b600080610507600660006104f0600560008073ffffffffffffffffffffffffffffffffffffffff1673ffffffffffffffffffffffffffffffffffffffff1681526020019081526020016000206112c6565b6020015181526020019081526020016000206114a3565b905061055c61052b6105268360200151846116d390919063ffffffff16565b611708565b61054e61053b8460000151611708565b846060015161177c90919063ffffffff16565b61179290919063ffffffff16565b91505090565b6060600060405160200161057691906186c8565b604051602081830303815290604052905090565b60008060006105b26105ad600061059f61049f565b6117a890919063ffffffff16565b6117bc565b6105ba6106fc565b915091506105c781611811565b6105e5576105e082828661181d9092919063ffffffff16565b6105e7565b835b92505050919050565b6105f8610f7b565b73ffffffffffffffffffffffffffffffffffffffff16635c975abb6040518163ffffffff1660e01b8152600401602060405180830381865afa158015610642573d6000803e3d6000fd5b505050506040513d601f19601f8201168201806040525081019061066691906186ff565b1561069d576040517f4b94d2bb00000000000000000000000000000000000000000000000000000000815260040160405180910390fd5b6106a561183f565b60006106b082611917565b90506106bc8183611d20565b6106c881600080611f56565b6106d28183612113565b5050565b600160009054906101000a900473ffffffffffffffffffffffffffffffffffffffff1681565b6000806107646006600061074d600560008073ffffffffffffffffffffffffffffffffffffffff1673ffffffffffffffffffffffffffffffffffffffff1681526020019081526020016000206112c6565b6020015181526020019081526020016000206114a3565b90506107a9816020015161079b61078884600001518561222690919063ffffffff16565b846040015161228190919063ffffffff16565b61229790919063ffffffff16565b91505090565b6107b7610f7b565b73ffffffffffffffffffffffffffffffffffffffff16638da5cb5b6040518163ffffffff1660e01b8152600401602060405180830381865afa158015610801573d6000803e3d6000fd5b505050506040513d601f19601f820116820180604052508101906108259190618741565b73ffffffffffffffffffffffffffffffffffffffff163373ffffffffffffffffffffffffffffffffffffffff161461089457336040517f4d193d1f00000000000000000000000000000000000000000000000000000000815260040161088b919061877d565b60405180910390fd5b61089e60006105f0565b60005b600354811015610941578173ffffffffffffffffffffffffffffffffffffffff166108dd600460008481526020019081526020016000206122ad565b6000015173ffffffffffffffffffffffffffffffffffffffff160361092e576040517f499943cd00000000000000000000000000000000000000000000000000000000815260040160405180910390fd5b8080610939906187c7565b9150506108a1565b5061094b81612410565b50565b6109566166d5565b61099d600560008473ffffffffffffffffffffffffffffffffffffffff1673ffffffffffffffffffffffffffffffffffffffff1681526020019081526020016000206112c6565b9050919050565b6109ac610f7b565b73ffffffffffffffffffffffffffffffffffffffff16635c975abb6040518163ffffffff1660e01b8152600401602060405180830381865afa1580156109f6573d6000803e3d6000fd5b505050506040513d601f19601f82011682018060405250810190610a1a91906186ff565b15610a51576040517f4b94d2bb00000000000000000000000000000000000000000000000000000000815260040160405180910390fd5b610a5961271d565b6000610a6482611917565b9050610a708183611d20565b610a7a8183612113565b5050565b6000610ad1610acc610ac7600160009054906101000a900473ffffffffffffffffffffffffffffffffffffffff1673ffffffffffffffffffffffffffffffffffffffff166127c9565b6127dc565b611708565b905060005b826080015151811015610b2957610b148360a001518281518110610afd57610afc61880f565b5b60200260200101518361177c90919063ffffffff16565b91508080610b21906187c7565b915050610ad6565b50919050565b60035481565b600160008103610b71576040517fbd40ddcd00000000000000000000000000000000000000000000000000000000815260040160405180910390fd5b80610b9b7f6fee9688c285c5c5c97d6a1a29adced674e6b2ad0888b8ad2116b58a8b3ea2486127f6565b10610bdd57806040517f3db738da000000000000000000000000000000000000000000000000000000008152600401610bd49190618004565b60405180910390fd5b610c10817f6fee9688c285c5c5c97d6a1a29adced674e6b2ad0888b8ad2116b58a8b3ea24861280190919063ffffffff16565b610c4460017f2801b00eb06461cf9fcb9758b5fafd884ff06a86177386f73b6c49f0bf5a5af061280890919063ffffffff16565b610c4c61280f565b85600160006101000a81548173ffffffffffffffffffffffffffffffffffffffff021916908373ffffffffffffffffffffffffffffffffffffffff160217905550828260009182610c9e9291906189b4565b50610ca885612410565b610cb66000600160006128b6565b610ccd604051806020016040528086815250612989565b610d0160007f2801b00eb06461cf9fcb9758b5fafd884ff06a86177386f73b6c49f0bf5a5af061280890919063ffffffff16565b7fbe9b076dc5b65990cca9dd9d7366682482e7817a6f6bc7f4faf4dc32af497f3281604051610d309190618004565b60405180910390a1505050505050565b610d48610f7b565b73ffffffffffffffffffffffffffffffffffffffff16638da5cb5b6040518163ffffffff1660e01b8152600401602060405180830381865afa158015610d92573d6000803e3d6000fd5b505050506040513d601f19601f82011682018060405250810190610db69190618741565b73ffffffffffffffffffffffffffffffffffffffff163373ffffffffffffffffffffffffffffffffffffffff1614610e2557336040517f4d193d1f000000000000000000000000000000000000000000000000000000008152600401610e1c919061877d565b60405180910390fd5b610e2f60006105f0565b610e3881612989565b50565b610e43610f7b565b73ffffffffffffffffffffffffffffffffffffffff16638da5cb5b6040518163ffffffff1660e01b8152600401602060405180830381865afa158015610e8d573d6000803e3d6000fd5b505050506040513d601f19601f82011682018060405250810190610eb19190618741565b73ffffffffffffffffffffffffffffffffffffffff163373ffffffffffffffffffffffffffffffffffffffff1614610f2057336040517f4d193d1f000000000000000000000000000000000000000000000000000000008152600401610f17919061877d565b60405180910390fd5b610f2a60006105f0565b610f358383836128b6565b505050565b610f4261670b565b610f4c60026129d7565b905090565b610f5961671e565b610f74600660008481526020019081526020016000206114a3565b9050919050565b6000610fa67f0aec74a1754fb10877b53c31a29be82096082042eb1fb374ec96fac88c0e621b612a76565b905090565b6000806000610fd3610fce6000610fc061049f565b6117a890919063ffffffff16565b6117bc565b610fdb6106fc565b91509150610fe881611811565b6110065761100181838661181d9092919063ffffffff16565b611008565b835b92505050919050565b611019610f7b565b73ffffffffffffffffffffffffffffffffffffffff16635c975abb6040518163ffffffff1660e01b8152600401602060405180830381865afa158015611063573d6000803e3d6000fd5b505050506040513d601f19601f8201168201806040525081019061108791906186ff565b156110be576040517f4b94d2bb00000000000000000000000000000000000000000000000000000000815260040160405180910390fd5b6110c661183f565b60006110d185611917565b90506110dd8186611d20565b6110e681612a81565b6110f38186868686612ba1565b6110fd8186612113565b5050505050565b60008060008061112560076000878152602001908152602001600020613120565b905060005b61113382613268565b811015611269576000876080015182815181106111535761115261880f565b5b60200260200101516000015173ffffffffffffffffffffffffffffffffffffffff1663ce813aed3061118e858761327790919063ffffffff16565b6040518363ffffffff1660e01b81526004016111ab929190618a84565b61016060405180830381865afa1580156111c9573d6000803e3d6000fd5b505050506040513d601f19601f820116820180604052508101906111ed9190618c30565b90506112068160c001518761177c90919063ffffffff16565b955061123a61122b611226600084608001516117a890919063ffffffff16565b6132ae565b8661228190919063ffffffff16565b94506112538160a001518561228190919063ffffffff16565b9350508080611261906187c7565b91505061112a565b50509250925092565b61127a61675b565b61129560076000848152602001908152602001600020613120565b9050919050565b6112a461676e565b6112bf600460008481526020019081526020016000206122ad565b9050919050565b6112ce6166d5565b6000826000016040518060e00160405290816000820160009054906101000a900463ffffffff1663ffffffff1663ffffffff1681526020016000820160049054906101000a900463ffffffff1663ffffffff1663ffffffff1681526020016000820160089054906101000a900460401b67ffffffffffffffff191667ffffffffffffffff191681526020016001820160009054906101000a900467ffffffffffffffff1667ffffffffffffffff1667ffffffffffffffff1681526020016001820160089054906101000a900467ffffffffffffffff1667ffffffffffffffff1667ffffffffffffffff1681526020016001820160109054906101000a900467ffffffffffffffff1667ffffffffffffffff1667ffffffffffffffff1681526020016001820160189054906101000a900467ffffffffffffffff1667ffffffffffffffff1667ffffffffffffffff168152505090506040518060c00160405280826000015163ffffffff168152602001826020015163ffffffff168152602001826060015167ffffffffffffffff168152602001826080015167ffffffffffffffff1681526020018260a0015167ffffffffffffffff1681526020018260c0015167ffffffffffffffff16815250915050919050565b6114ab61671e565b600082600001604051806101000160405290816000820160009054906101000a900467ffffffffffffffff1667ffffffffffffffff1667ffffffffffffffff1681526020016000820160089054906101000a900467ffffffffffffffff1667ffffffffffffffff1667ffffffffffffffff1681526020016000820160109054906101000a900467ffffffffffffffff1667ffffffffffffffff1667ffffffffffffffff1681526020016000820160189054906101000a900460070b60070b60070b81526020016001820160009054906101000a900467ffffffffffffffff1667ffffffffffffffff1667ffffffffffffffff1681526020016001820160089054906101000a900467ffffffffffffffff1667ffffffffffffffff1667ffffffffffffffff1681526020016001820160109054906101000a900463ffffffff1663ffffffff1663ffffffff1681526020016001820160149054906101000a900460a01b73ffffffffffffffffffffffffffffffffffffffff191673ffffffffffffffffffffffffffffffffffffffff19168152505090506040518060e00160405280826000015167ffffffffffffffff168152602001826020015167ffffffffffffffff168152602001826040015167ffffffffffffffff168152602001826060015160070b8152602001826080015167ffffffffffffffff1681526020018260a0015167ffffffffffffffff1681526020018260c0015163ffffffff16815250915050919050565b6000611700836116e68560400151611811565b6116f9576116f485856132c0565b6116fb565b835b613310565b905092915050565b6000808290507f7fffffffffffffffffffffffffffffffffffffffffffffffffffffffffffffff81111561177357806040517feecaa25d00000000000000000000000000000000000000000000000000000000815260040161176a9190618004565b60405180910390fd5b80915050919050565b6000818361178a9190618c5e565b905092915050565b600081836117a09190618ca2565b905092915050565b60006117b48383613328565b905092915050565b600080829050600081121561180857806040517fb02ef0870000000000000000000000000000000000000000000000000000000081526004016117ff9190618cf4565b60405180910390fd5b80915050919050565b60008082149050919050565b600081838561182c9190618d0f565b6118369190618d80565b90509392505050565b60005b60035481101561191457611867600460008381526020019081526020016000206122ad565b6000015173ffffffffffffffffffffffffffffffffffffffff166391eece28307fffffffffffffffffffffffffffffffffffffffffffffffffffffffffffffffff6000806000806040518763ffffffff1660e01b81526004016118cf96959493929190618dc0565b600060405180830381600087803b1580156118e957600080fd5b505af11580156118fd573d6000803e3d6000fd5b50505050808061190c906187c7565b915050611842565b50565b61191f6167a5565b61192960026129d7565b81610100018190525061194b6003548260c0015161334190919063ffffffff16565b6119646003548260e0015161334190919063ffffffff16565b60035467ffffffffffffffff8111156119805761197f61703f565b5b6040519080825280602002602001820160405280156119b957816020015b6119a661676e565b81526020019060019003908161199e5790505b50816080018190525060035467ffffffffffffffff8111156119de576119dd61703f565b5b604051908082528060200260200182016040528015611a0c5781602001602082028036833780820191505090505b508160a0018190525060005b600354811015611c18576000611a3f600460008481526020019081526020016000206122ad565b90506000816000015173ffffffffffffffffffffffffffffffffffffffff1663ad4d4e296040518163ffffffff1660e01b81526004016101e060405180830381865afa158015611a93573d6000803e3d6000fd5b505050506040513d601f19601f82011682018060405250810190611ab79190618f85565b90508184608001518481518110611ad157611ad061880f565b5b6020026020010181905250816020015184604001818151611af29190618fb3565b91508181525050611b15816101400151856020015161228190919063ffffffff16565b8460200181815250506000826000015173ffffffffffffffffffffffffffffffffffffffff16635b4b9695306040518263ffffffff1660e01b8152600401611b5d919061877d565b60e060405180830381865afa158015611b7a573d6000803e3d6000fd5b505050506040513d601f19601f82011682018060405250810190611b9e919061909b565b9050611bbd8482602001518760e001516133969092919063ffffffff16565b611bda8482600001518760c001516133969092919063ffffffff16565b80604001518560a001518581518110611bf657611bf561880f565b5b6020026020010181815250505050508080611c10906187c7565b915050611a18565b50600073ffffffffffffffffffffffffffffffffffffffff168273ffffffffffffffffffffffffffffffffffffffff1614611c9e57611c94600560008473ffffffffffffffffffffffffffffffffffffffff1673ffffffffffffffffffffffffffffffffffffffff1681526020019081526020016000206112c6565b8161018001819052505b611ce5600560008073ffffffffffffffffffffffffffffffffffffffff1673ffffffffffffffffffffffffffffffffffffffff1681526020019081526020016000206112c6565b816101600181905250611d12600660008361016001516020015181526020019081526020016000206114a3565b816101400181905250919050565b5b8161016001516020015182610160015160000151118015611d845750611d838260e00151611d7560076000600187610160015160200151611d629190618fb3565b8152602001908152602001600020613120565b6133bf90919063ffffffff16565b5b15611e60576000600183610160015160200151611da19190618fb3565b9050611dbe600660008381526020019081526020016000206114a3565b8361014001819052506000806000611dd68685611104565b925092509250611df8838383896101400151613413909392919063ffffffff16565b611e2d8487610140015188610140015160000151896101400151602001518a610160015161344d90949392919063ffffffff16565b611e578661014001516006600087815260200190815260200160002061350290919063ffffffff16565b50505050611d21565b600073ffffffffffffffffffffffffffffffffffffffff168173ffffffffffffffffffffffffffffffffffffffff160315611f52578161018001516020015182610180015160000151118015611eec5750611eeb8260e00151611edd60076000866101800151600001518152602001908152602001600020613120565b6133bf90919063ffffffff16565b5b15611f515760008261018001516000015190506000611f1c600660008481526020019081526020016000206114a3565b9050611f4e82828661018001516080015187610180015160a001518861018001516139ef90949392919063ffffffff16565b50505b5b5050565b600080611f638585613aa4565b91509150821580611f845750611f83600083613ba190919063ffffffff16565b5b15611f9057505061210e565b6000611fcc8660800151611fb6611fb16000876117a890919063ffffffff16565b6117bc565b848960000151613bb7909392919063ffffffff16565b905060005b86608001515181101561206b576120106000838381518110611ff657611ff561880f565b5b602002602001015160000151613ba190919063ffffffff16565b15612058576120578760800151828151811061202f5761202e61880f565b5b602002602001015183838151811061204a5761204961880f565b5b6020026020010151613c85565b5b8080612063906187c7565b915050611fd1565b5060005b866080015151811015612109576120ae60008383815181106120945761209361880f565b5b602002602001015160000151613d0c90919063ffffffff16565b156120f6576120f5876080015182815181106120cd576120cc61880f565b5b60200260200101518383815181106120e8576120e761880f565b5b6020026020010151613c85565b5b8080612101906187c7565b91505061206f565b505050505b505050565b600073ffffffffffffffffffffffffffffffffffffffff168173ffffffffffffffffffffffffffffffffffffffff161461219e5761219d826101800151600560008473ffffffffffffffffffffffffffffffffffffffff1673ffffffffffffffffffffffffffffffffffffffff168152602001908152602001600020613d3190919063ffffffff16565b5b6121f4826101600151600560008073ffffffffffffffffffffffffffffffffffffffff1673ffffffffffffffffffffffffffffffffffffffff168152602001908152602001600020613d3190919063ffffffff16565b612222826101200151600660008560600151815260200190815260200160002061350290919063ffffffff16565b5050565b60006122358360400151611811565b156122425781905061227b565b61225a600084606001516140f490919063ffffffff16565b612276576122718361226c8585613310565b614119565b612278565b815b90505b92915050565b6000818361228f9190618fb3565b905092915050565b600081836122a591906190c8565b905092915050565b6122b561676e565b6000826000016040518060800160405290816000820160009054906101000a900473ffffffffffffffffffffffffffffffffffffffff1673ffffffffffffffffffffffffffffffffffffffff1673ffffffffffffffffffffffffffffffffffffffff1681526020016000820160149054906101000a900463ffffffff1663ffffffff1663ffffffff1681526020016000820160189054906101000a900463ffffffff1663ffffffff1663ffffffff16815260200160008201601c9054906101000a900460e01b7bffffffffffffffffffffffffffffffffffffffffffffffffffffffff19167bffffffffffffffffffffffffffffffffffffffffffffffffffffffff19168152505090506040518060600160405280826000015173ffffffffffffffffffffffffffffffffffffffff168152602001826020015163ffffffff168152602001826040015163ffffffff16815250915050919050565b612418610f7b565b73ffffffffffffffffffffffffffffffffffffffff166306ae70956040518163ffffffff1660e01b8152600401602060405180830381865afa158015612462573d6000803e3d6000fd5b505050506040513d601f19601f82011682018060405250810190612486919061913a565b73ffffffffffffffffffffffffffffffffffffffff1663032bb443826040518263ffffffff1660e01b81526004016124be9190619176565b602060405180830381865afa1580156124db573d6000803e3d6000fd5b505050506040513d601f19601f820116820180604052508101906124ff91906186ff565b612535576040517f7c04a01900000000000000000000000000000000000000000000000000000000815260040160405180910390fd5b6125ee600160009054906101000a900473ffffffffffffffffffffffffffffffffffffffff168273ffffffffffffffffffffffffffffffffffffffff1663fc0c546a6040518163ffffffff1660e01b8152600401602060405180830381865afa1580156125a6573d6000803e3d6000fd5b505050506040513d601f19601f820116820180604052508101906125ca91906191a6565b73ffffffffffffffffffffffffffffffffffffffff1661416990919063ffffffff16565b612624576040517faddc4c0d00000000000000000000000000000000000000000000000000000000815260040160405180910390fd5b61266f81600160009054906101000a900473ffffffffffffffffffffffffffffffffffffffff1673ffffffffffffffffffffffffffffffffffffffff166141a290919063ffffffff16565b600060036000815480929190612684906187c7565b9190505590506126e160405180606001604052808473ffffffffffffffffffffffffffffffffffffffff1681526020016000815260200160008152506004600084815260200190815260200160002061424590919063ffffffff16565b807f07796b317344e6f18fa32ed89b6074ad66549cee7fb7b8c3e9f1c42c496f1c5c836040516127119190619176565b60405180910390a25050565b60005b6003548110156127c657612745600460008381526020019081526020016000206122ad565b6000015173ffffffffffffffffffffffffffffffffffffffff16636a256b29306040518263ffffffff1660e01b8152600401612781919061877d565b600060405180830381600087803b15801561279b57600080fd5b505af11580156127af573d6000803e3d6000fd5b5050505080806127be906187c7565b915050612720565b50565b60006127d58230614413565b9050919050565b600064e8d4a51000826127ef9190618d80565b9050919050565b600081549050919050565b8082555050565b8082555050565b612817614497565b15801561284a57506128487f2801b00eb06461cf9fcb9758b5fafd884ff06a86177386f73b6c49f0bf5a5af06144a8565b155b15612881576040517fb9a621e100000000000000000000000000000000000000000000000000000000815260040160405180910390fd5b6128b4337f0aec74a1754fb10877b53c31a29be82096082042eb1fb374ec96fac88c0e621b6144b390919063ffffffff16565b565b60035483106128f1576040517f04467fe800000000000000000000000000000000000000000000000000000000815260040160405180910390fd5b600061290e600460008681526020019081526020016000206122ad565b90508281602001818152505081816040018181525050612949816004600087815260200190815260200160002061424590919063ffffffff16565b837f19de27a5967d3c5ffdfa85f8f33ed63fcae289e86abc970d013e0ae2bc8bb27f848460405161297b9291906191d3565b60405180910390a250505050565b61299d8160026144ba90919063ffffffff16565b7f6aa12494b90f1eeec92df49ec47058878b0803a79ba307dead4905555159adc7816040516129cc91906181ca565b60405180910390a150565b6129df61670b565b6000826000016040518060400160405290816000820160009054906101000a900467ffffffffffffffff1667ffffffffffffffff1667ffffffffffffffff1681526020016000820160089054906101000a900460401b67ffffffffffffffff191667ffffffffffffffff19168152505090506040518060200160405280826000015167ffffffffffffffff16815250915050919050565b600081549050919050565b80610160015160000151816060018181525050612ac98160c00151612abb6007600085606001518152602001908152602001600020613120565b6145b690919063ffffffff16565b15612b7557806060018051809190612ae0906187c7565b81525050612b43816101600151612b2e600160009054906101000a900473ffffffffffffffffffffffffffffffffffffffff1673ffffffffffffffffffffffffffffffffffffffff166127c9565b83610120015161460a9092919063ffffffff16565b612b708160c00151600760008460600151815260200190815260200160002061466b90919063ffffffff16565b612b9e565b612b9460066000836060015181526020019081526020016000206114a3565b8161012001819052505b50565b612bae856080015161491c565b8560000181905250612be97fffffffffffffffffffffffffffffffffffffffffffffffffffffffffffffffff826149eb90919063ffffffff16565b15612bfb578461018001516060015190505b612c2e7fffffffffffffffffffffffffffffffffffffffffffffffffffffffffffffffff836149eb90919063ffffffff16565b15612c40578461018001516040015191505b8373ffffffffffffffffffffffffffffffffffffffff163373ffffffffffffffffffffffffffffffffffffffff1614158015612cfc5750612c7f610f7b565b73ffffffffffffffffffffffffffffffffffffffff16632637588e85336040518363ffffffff1660e01b8152600401612cb99291906191fc565b602060405180830381865afa158015612cd6573d6000803e3d6000fd5b505050506040513d601f19601f82011682018060405250810190612cfa91906186ff565b155b15612d33576040517f7eb267c700000000000000000000000000000000000000000000000000000000815260040160405180910390fd5b612d8e612d5b82612d4d8587614a0290919063ffffffff16565b614a0290919063ffffffff16565b612d8083612d72868861228190919063ffffffff16565b61228190919063ffffffff16565b6149eb90919063ffffffff16565b612dc4576040517fa65ac9fb00000000000000000000000000000000000000000000000000000000815260040160405180910390fd5b612ddf612dd086614a16565b84614ab690919063ffffffff16565b15612e16576040517fa9785d3d00000000000000000000000000000000000000000000000000000000815260040160405180910390fd5b612e31612e2286614acd565b83614ab690919063ffffffff16565b15612e68576040517fc85650f700000000000000000000000000000000000000000000000000000000815260040160405180910390fd5b612e7183611811565b158015612e915750612e90856020015184614bd890919063ffffffff16565b5b15612ec8576040517ff2fbeec400000000000000000000000000000000000000000000000000000000815260040160405180910390fd5b612ed182611811565b158015612f005750612eff612efa838760200151886101400151614bee9092919063ffffffff16565b611811565b5b15612f37576040517ff2fbeec400000000000000000000000000000000000000000000000000000000815260040160405180910390fd5b846101800151602001518561018001516000015114612f82576040517fe4b2952400000000000000000000000000000000000000000000000000000000815260040160405180910390fd5b6000612f9086858585614c24565b9050612fb68660600151838587878b6101600151614ce89095949392919063ffffffff16565b612fda8660600151838587878b6101800151614ce89095949392919063ffffffff16565b612ff48484886101200151614d7a9092919063ffffffff16565b6130493361300186614e53565b600160009054906101000a900473ffffffffffffffffffffffffffffffffffffffff1673ffffffffffffffffffffffffffffffffffffffff16614e6d9092919063ffffffff16565b61305586826001611f56565b6130aa3361306283614e53565b600160009054906101000a900473ffffffffffffffffffffffffffffffffffffffff1673ffffffffffffffffffffffffffffffffffffffff16614e9f9092919063ffffffff16565b8473ffffffffffffffffffffffffffffffffffffffff163373ffffffffffffffffffffffffffffffffffffffff167ecdda35b21914cc89ca2689f6ada564ebad3ad81f233699e25e44e13ab73f4988606001518787876040516131109493929190619225565b60405180910390a3505050505050565b61312861675b565b600082600001600001600080815260200190815260200160002060000160009054906101000a900463ffffffff1663ffffffff16905060008167ffffffffffffffff81111561317a5761317961703f565b5b6040519080825280602002602001820160405280156131a85781602001602082028036833780820191505090505b50905060005b8281101561324f578460000160000160006007836131cc9190618d80565b81526020019081526020016000206001016007826131ea919061926a565b600781106131fb576131fa61880f565b5b600891828204019190066004029054906101000a900463ffffffff1663ffffffff168282815181106132305761322f61880f565b5b6020026020010181815250508080613247906187c7565b9150506131ae565b5060405180602001604052808281525092505050919050565b60008160000151519050919050565b60008260000151518210156132a8578260000151828151811061329d5761329c61880f565b5b602002602001015190505b92915050565b60006132b982614ecf565b9050919050565b6000806132e36132de600086606001516117a890919063ffffffff16565b6117bc565b9050613307846133028387604001518761181d9092919063ffffffff16565b614eeb565b91505092915050565b6000613320828460a00151614fa2565b905092915050565b60008183136133375781613339565b825b905092915050565b8067ffffffffffffffff81111561335b5761335a61703f565b5b6040519080825280602002602001820160405280156133895781602001602082028036833780820191505090505b5082600001819052505050565b80836000015183815181106133ae576133ad61880f565b5b602002602001018181525050505050565b6000805b826000015151811015613407576133da8382613277565b6133e48583613277565b11156133f457600091505061340d565b80806133ff906187c7565b9150506133c3565b50600190505b92915050565b61342a83856060015161177c90919063ffffffff16565b84606001818152505081846080018181525050808460a001818152505050505050565b8385602001818152505061348061346d82856116d390919063ffffffff16565b866060015161228190919063ffffffff16565b6134a9613496848661222690919063ffffffff16565b876040015161228190919063ffffffff16565b8660600187604001828152508281525050506134d282866080015161229790919063ffffffff16565b6134e9828760a0015161229790919063ffffffff16565b866080018760a001828152508281525050505050505050565b61352367ffffffffffffffff80168260000151614ab690919063ffffffff16565b1561355a576040517fba85116a00000000000000000000000000000000000000000000000000000000815260040160405180910390fd5b61357b67ffffffffffffffff80168260200151614ab690919063ffffffff16565b156135b2576040517fba85116a00000000000000000000000000000000000000000000000000000000815260040160405180910390fd5b6135d367ffffffffffffffff80168260400151614ab690919063ffffffff16565b1561360a576040517fba85116a00000000000000000000000000000000000000000000000000000000815260040160405180910390fd5b61362c677fffffffffffffff60070b8260600151614fd190919063ffffffff16565b15613663576040517fba85116a00000000000000000000000000000000000000000000000000000000815260040160405180910390fd5b61369d7fffffffffffffffffffffffffffffffffffffffffffffffff800000000000000060070b8260600151613ba190919063ffffffff16565b156136d4576040517fba85116a00000000000000000000000000000000000000000000000000000000815260040160405180910390fd5b6136f567ffffffffffffffff80168260800151614ab690919063ffffffff16565b1561372c576040517fba85116a00000000000000000000000000000000000000000000000000000000815260040160405180910390fd5b63ffffffff80168160c001511115613770576040517fba85116a00000000000000000000000000000000000000000000000000000000815260040160405180910390fd5b61379167ffffffffffffffff80168260a00151614ab690919063ffffffff16565b156137c8576040517fba85116a00000000000000000000000000000000000000000000000000000000815260040160405180910390fd5b604051806101000160405280826000015167ffffffffffffffff168152602001826020015167ffffffffffffffff168152602001826040015167ffffffffffffffff168152602001826060015160070b8152602001826080015167ffffffffffffffff1681526020018260a0015167ffffffffffffffff1681526020018260c0015163ffffffff168152602001600060a01b73ffffffffffffffffffffffffffffffffffffffff19168152508260000160008201518160000160006101000a81548167ffffffffffffffff021916908367ffffffffffffffff16021790555060208201518160000160086101000a81548167ffffffffffffffff021916908367ffffffffffffffff16021790555060408201518160000160106101000a81548167ffffffffffffffff021916908367ffffffffffffffff16021790555060608201518160000160186101000a81548167ffffffffffffffff021916908360070b67ffffffffffffffff16021790555060808201518160010160006101000a81548167ffffffffffffffff021916908367ffffffffffffffff16021790555060a08201518160010160086101000a81548167ffffffffffffffff021916908367ffffffffffffffff16021790555060c08201518160010160106101000a81548163ffffffff021916908363ffffffff16021790555060e08201518160010160146101000a8154816bffffffffffffffffffffffff021916908360a01c02179055509050505050565b83856020018181525050613a22613a0f8285614fe890919063ffffffff16565b866060015161228190919063ffffffff16565b613a4b613a38848661501d90919063ffffffff16565b876040015161228190919063ffffffff16565b866060018760400182815250828152505050613a7482866080015161229790919063ffffffff16565b613a8b828760a0015161229790919063ffffffff16565b866080018760a001828152508281525050505050505050565b600080613aca613ab384611708565b613abc86610a7e565b61179290919063ffffffff16565b91506000613afb613af6866101600151608001518761016001516060015161228190919063ffffffff16565b611708565b9050613b9785610160015160800151613b89613b4d613b3589610160015160a001518a61016001516040015161228190919063ffffffff16565b8961016001516040015161507890919063ffffffff16565b613b7b613b766000613b68888b61179290919063ffffffff16565b6117a890919063ffffffff16565b6117bc565b6150da90919063ffffffff16565b61228190919063ffffffff16565b9150509250929050565b600080613bae84846150fe565b14905092915050565b6060613bc58585858561513c565b905060005b8451811015613c7c57600080613bfd88600001518481518110613bf057613bef61880f565b5b6020026020010151615550565b91509150613c4481613c3684878781518110613c1c57613c1b61880f565b5b602002602001015160200151614a0290919063ffffffff16565b61563f90919063ffffffff16565b848481518110613c5757613c5661880f565b5b6020026020010151602001818152505050508080613c74906187c7565b915050613bca565b50949350505050565b816000015173ffffffffffffffffffffffffffffffffffffffff166391eece28308360200151600080866000015160006040518763ffffffff1660e01b8152600401613cd696959493929190618dc0565b600060405180830381600087803b158015613cf057600080fd5b505af1158015613d04573d6000803e3d6000fd5b505050505050565b6000613d188383614fd1565b80613d295750613d288383615653565b5b905092915050565b63ffffffff801681600001511115613d75576040517fb8a0949900000000000000000000000000000000000000000000000000000000815260040160405180910390fd5b63ffffffff801681602001511115613db9576040517fb8a0949900000000000000000000000000000000000000000000000000000000815260040160405180910390fd5b613dda67ffffffffffffffff80168260400151614ab690919063ffffffff16565b15613e11576040517fb8a0949900000000000000000000000000000000000000000000000000000000815260040160405180910390fd5b613e3267ffffffffffffffff80168260600151614ab690919063ffffffff16565b15613e69576040517fb8a0949900000000000000000000000000000000000000000000000000000000815260040160405180910390fd5b613e8a67ffffffffffffffff80168260800151614ab690919063ffffffff16565b15613ec1576040517fb8a0949900000000000000000000000000000000000000000000000000000000815260040160405180910390fd5b613ee267ffffffffffffffff80168260a00151614ab690919063ffffffff16565b15613f19576040517fb8a0949900000000000000000000000000000000000000000000000000000000815260040160405180910390fd5b6040518060e00160405280826000015163ffffffff168152602001826020015163ffffffff168152602001600060401b67ffffffffffffffff19168152602001826040015167ffffffffffffffff168152602001826060015167ffffffffffffffff168152602001826080015167ffffffffffffffff1681526020018260a0015167ffffffffffffffff168152508260000160008201518160000160006101000a81548163ffffffff021916908363ffffffff16021790555060208201518160000160046101000a81548163ffffffff021916908363ffffffff16021790555060408201518160000160086101000a81548177ffffffffffffffffffffffffffffffffffffffffffffffff021916908360401c021790555060608201518160010160006101000a81548167ffffffffffffffff021916908367ffffffffffffffff16021790555060808201518160010160086101000a81548167ffffffffffffffff021916908367ffffffffffffffff16021790555060a08201518160010160106101000a81548167ffffffffffffffff021916908367ffffffffffffffff16021790555060c08201518160010160186101000a81548167ffffffffffffffff021916908367ffffffffffffffff1602179055509050505050565b60006141008383613ba1565b8061411157506141108383615653565b5b905092915050565b60008061413c614137600086606001516117a890919063ffffffff16565b6117bc565b90506141608461415b8660400151848761181d9092919063ffffffff16565b614eeb565b91505092915050565b60008173ffffffffffffffffffffffffffffffffffffffff168373ffffffffffffffffffffffffffffffffffffffff1614905092915050565b8173ffffffffffffffffffffffffffffffffffffffff1663095ea7b3827fffffffffffffffffffffffffffffffffffffffffffffffffffffffffffffffff6040518363ffffffff1660e01b81526004016141fd929190618a84565b6020604051808303816000875af115801561421c573d6000803e3d6000fd5b505050506040513d601f19601f8201168201806040525081019061424091906186ff565b505050565b63ffffffff801681602001511115614289576040517f92f03c8600000000000000000000000000000000000000000000000000000000815260040160405180910390fd5b6142a663ffffffff80168260400151614ab690919063ffffffff16565b156142dd576040517f92f03c8600000000000000000000000000000000000000000000000000000000815260040160405180910390fd5b6040518060800160405280826000015173ffffffffffffffffffffffffffffffffffffffff168152602001826020015163ffffffff168152602001826040015163ffffffff168152602001600060e01b7bffffffffffffffffffffffffffffffffffffffffffffffffffffffff19168152508260000160008201518160000160006101000a81548173ffffffffffffffffffffffffffffffffffffffff021916908373ffffffffffffffffffffffffffffffffffffffff16021790555060208201518160000160146101000a81548163ffffffff021916908363ffffffff16021790555060408201518160000160186101000a81548163ffffffff021916908363ffffffff160217905550606082015181600001601c6101000a81548163ffffffff021916908360e01c02179055509050505050565b60008273ffffffffffffffffffffffffffffffffffffffff166370a08231836040518263ffffffff1660e01b815260040161444e919061877d565b602060405180830381865afa15801561446b573d6000803e3d6000fd5b505050506040513d601f19601f8201168201806040525081019061448f919061929b565b905092915050565b60006144a23061566a565b15905090565b600081549050919050565b8082555050565b6144db67ffffffffffffffff80168260000151614ab690919063ffffffff16565b15614512576040517f0f9f8b1900000000000000000000000000000000000000000000000000000000815260040160405180910390fd5b6040518060400160405280826000015167ffffffffffffffff168152602001600060401b67ffffffffffffffff19168152508260000160008201518160000160006101000a81548167ffffffffffffffff021916908367ffffffffffffffff16021790555060208201518160000160086101000a81548177ffffffffffffffffffffffffffffffffffffffffffffffff021916908360401c02179055509050505050565b6000805b8260000151518110156145fe576145d18482613277565b6145db8483613277565b11156145eb576001915050614604565b80806145f6906187c7565b9150506145ba565b50600090505b92915050565b81604001516146546146356146308560600151866080015161228190919063ffffffff16565b611708565b614646614641856127dc565b611708565b61179290919063ffffffff16565b846040018560600182815250828152505050505050565b600082600001600001600080815260200190815260200160002060000160009054906101000a900463ffffffff1663ffffffff1611156146d7576040517ff003e2c300000000000000000000000000000000000000000000000000000000815260040160405180910390fd5b60006146e9826000015151600761568d565b67ffffffffffffffff8111156147025761470161703f565b5b60405190808252806020026020018201604052801561473b57816020015b61472861683d565b8152602001906001900390816147205790505b50905060005b8260000151518110156148815763ffffffff80168360000151828151811061476c5761476b61880f565b5b602002602001015111156147ac576040517ff003e2c300000000000000000000000000000000000000000000000000000000815260040160405180910390fd5b826000015151826007836147c09190618d80565b815181106147d1576147d061880f565b5b60200260200101516000019063ffffffff16908163ffffffff1681525050826000015181815181106148065761480561880f565b5b60200260200101518260078361481c9190618d80565b8151811061482d5761482c61880f565b5b602002602001015160200151600783614846919061926a565b600781106148575761485661880f565b5b602002019063ffffffff16908163ffffffff16815250508080614879906187c7565b915050614741565b5060005b8151811015614916578181815181106148a1576148a061880f565b5b602002602001015184600001600001600083815260200190815260200160002060008201518160000160006101000a81548163ffffffff021916908363ffffffff1602179055506020820151816001019060076148ff929190616863565b50905050808061490e906187c7565b915050614885565b50505050565b614924616905565b815167ffffffffffffffff81111561493f5761493e61703f565b5b60405190808252806020026020018201604052801561497857816020015b614965616918565b81526020019060019003908161495d5790505b50816000018190525060005b82518110156149e5576149b08382815181106149a3576149a261880f565b5b60200260200101516156ca565b826000015182815181106149c7576149c661880f565b5b602002602001018190525080806149dd906187c7565b915050614984565b50919050565b600060016149f98484615bac565b14905092915050565b6000614a0e8383615bea565b905092915050565b6000614a26826101400151615c03565b15614a345760009050614ab1565b6000614a7483610160015160800151614a66614a616000614a5361049f565b6117a890919063ffffffff16565b6117bc565b61228190919063ffffffff16565b9050614aad614a95846101000151600001518361563f90919063ffffffff16565b8461010001516000015161229790919063ffffffff16565b9150505b919050565b60006002614ac48484615bac565b14905092915050565b6000614add826101400151615c03565b15614aeb5760009050614bd3565b6000614b3383608001518460400151614b1e614b196000614b0b89610a7e565b6117a890919063ffffffff16565b6117bc565b8660000151615c3a909392919063ffffffff16565b90506000614b6a7fffffffffffffffffffffffffffffffffffffffffffffffffffffffffffffffff836149eb90919063ffffffff16565b614b8e57614b89826000866101400151615e179092919063ffffffff16565b614bb0565b7fffffffffffffffffffffffffffffffffffffffffffffffffffffffffffffffff5b9050614bce846101800151604001518261563f90919063ffffffff16565b925050505b919050565b600080614be58484615bac565b14905092915050565b6000614c1b614c008560400151611811565b614c1357614c0e85856132c0565b614c15565b835b83614fa2565b90509392505050565b600080614c4b614c466000614c3889610a7e565b6117a890919063ffffffff16565b6117bc565b9050614c5f86610160015160600151611811565b614ca157614c9c614c82876101600151606001518361563f90919063ffffffff16565b876101600151606001518561181d9092919063ffffffff16565b614ca4565b60005b9150614caf85611811565b8015614cc05750614cbf84611811565b5b15614cdf57614cdc86602001518361229790919063ffffffff16565b91505b50949350505050565b84866000018181525050614d0984876060015161229790919063ffffffff16565b614d2084886040015161229790919063ffffffff16565b876060018860400182815250828152505050614d4982876080015161228190919063ffffffff16565b614d60828860a0015161228190919063ffffffff16565b876080018860a00182815250828152505050505050505050565b614d8382611811565b158015614d9a5750614d988360200151611811565b155b80614dc15750614da981611811565b158015614dc05750614dbe8360000151611811565b155b5b15614df8576040517f4596b8b100000000000000000000000000000000000000000000000000000000815260040160405180910390fd5b614e0f82846000015161228190919063ffffffff16565b614e2682856020015161228190919063ffffffff16565b8460000185602001828152508281525050508260c0018051809190614e4a906187c7565b81525050505050565b600064e8d4a5100082614e669190618d0f565b9050919050565b614e9a8230838673ffffffffffffffffffffffffffffffffffffffff16615e73909392919063ffffffff16565b505050565b614eca82828573ffffffffffffffffffffffffffffffffffffffff16615efc9092919063ffffffff16565b505050565b600080821215614ee25781600003614ee4565b815b9050919050565b600080614f0e614f09600086606001516117a890919063ffffffff16565b6117bc565b90506000614f45614f32838760400151886020015161181d9092919063ffffffff16565b866000015161228190919063ffffffff16565b9050614f5081611811565b614f9657614f91614f80614f7183886080015161563f90919063ffffffff16565b8361229790919063ffffffff16565b828661181d9092919063ffffffff16565b614f98565b835b9250505092915050565b6000614fc9614fba848461563f90919063ffffffff16565b8461229790919063ffffffff16565b905092915050565b60006002614fdf84846150fe565b14905092915050565b600061501583614ffb8560400151611811565b61500e5761500985856132c0565b615010565b835b615f82565b905092915050565b600061502c8360400151611811565b1561503957819050615072565b615051600084606001516140f490919063ffffffff16565b61506d57615068836150638585615f82565b614119565b61506f565b815b90505b92915050565b600061508382611811565b156150c75761509183611811565b6150bb577fffffffffffffffffffffffffffffffffffffffffffffffffffffffffffffffff6150c0565b620f42405b90506150d4565b6150d18383615fd1565b90505b92915050565b6000620f424082846150ec9190618d0f565b6150f69190618d80565b905092915050565b60008060008484915091508082131561511c57600292505050615136565b8082121561512f57600092505050615136565b6001925050505b92915050565b606061514661698f565b615154858760000151615ff5565b8260a0018360c0018281525082815250505061517d8160c0015185614bd890919063ffffffff16565b156151b4576040517f9c8507ac00000000000000000000000000000000000000000000000000000000815260040160405180910390fd5b845167ffffffffffffffff8111156151cf576151ce61703f565b5b60405190808252806020026020018201604052801561520857816020015b6151f56169cc565b8152602001906001900390816151ed5790505b50915060005b8551811015615546576152986152678783815181106152305761522f61880f565b5b6020026020010151602001518460a001516152588660c001518a61229790919063ffffffff16565b61607e9092919063ffffffff16565b8860000151838151811061527e5761527d61880f565b5b602002602001015160e0015161228190919063ffffffff16565b82600001818152505061534a6152be62124f8084600001516150da90919063ffffffff16565b61533c8884815181106152d4576152d361880f565b5b6020026020010151602001518560a0015161532d61531e8a8e6000015189815181106153035761530261880f565b5b6020026020010151610120015161563f90919063ffffffff16565b8a61229790919063ffffffff16565b61607e9092919063ffffffff16565b61563f90919063ffffffff16565b8260200181815250506153e36153ad886000015183815181106153705761536f61880f565b5b602002602001015160200151602001518884815181106153935761539261880f565b5b6020026020010151604001516150da90919063ffffffff16565b886000015183815181106153c4576153c361880f565b5b6020026020010151602001516101c0015161507890919063ffffffff16565b826080018181525050866000015181815181106154035761540261880f565b5b6020026020010151600001516101a0015180615436575061543582608001518360200151614bd890919063ffffffff16565b5b156154475760008260200181815250505b61548c876000015182815181106154615761546061880f565b5b6020026020010151604001516040015161547e8460000151611708565b61179290919063ffffffff16565b6154ed8783815181106154a2576154a161880f565b5b6020026020010151604001516154d98a6000015185815181106154c8576154c761880f565b5b602002602001015160c001516132ae565b856020015161181d9092919063ffffffff16565b848381518110615500576154ff61880f565b5b602002602001015160000185848151811061551e5761551d61880f565b5b602002602001015160200182815250828152505050808061553e906187c7565b91505061520e565b5050949350505050565b6000806155df6155c88461010001516155ba8660600151602001516155ac6155958960a00151602001516155878b60a00151616094565b61563f90919063ffffffff16565b8960a001516020015161229790919063ffffffff16565b61563f90919063ffffffff16565b61563f90919063ffffffff16565b84606001516020015161229790919063ffffffff16565b61563661561f615608866020015160e001518760a001516020015161563f90919063ffffffff16565b866020015160e0015161229790919063ffffffff16565b85606001516020015161228190919063ffffffff16565b91509150915091565b600061564b83836160d0565b905092915050565b6000600161566184846150fe565b14905092915050565b6000808273ffffffffffffffffffffffffffffffffffffffff163b119050919050565b60008083146156bf576001826001856156a691906190c8565b6156b09190618d80565b6156ba9190618fb3565b6156c2565b60005b905092915050565b6156d2616918565b816000015173ffffffffffffffffffffffffffffffffffffffff1663ad4d4e296040518163ffffffff1660e01b81526004016101e060405180830381865afa158015615722573d6000803e3d6000fd5b505050506040513d601f19601f820116820180604052508101906157469190618f85565b8160000181905250816000015173ffffffffffffffffffffffffffffffffffffffff16634549a6296040518163ffffffff1660e01b81526004016102e060405180830381865afa15801561579e573d6000803e3d6000fd5b505050506040513d601f19601f820116820180604052508101906157c2919061954c565b8160200181905250816000015173ffffffffffffffffffffffffffffffffffffffff16635b4b9695306040518263ffffffff1660e01b8152600401615807919061877d565b60e060405180830381865afa158015615824573d6000803e3d6000fd5b505050506040513d601f19601f82011682018060405250810190615848919061909b565b81604001819052506000826000015173ffffffffffffffffffffffffffffffffffffffff1663a05f99066040518163ffffffff1660e01b815260040161012060405180830381865afa1580156158a2573d6000803e3d6000fd5b505050506040513d601f19601f820116820180604052508101906158c69190619695565b90508060e001518260c0018181525050600061596883856000015173ffffffffffffffffffffffffffffffffffffffff166355f57510306040518263ffffffff1660e01b8152600401615919919061877d565b61016060405180830381865afa158015615937573d6000803e3d6000fd5b505050506040513d601f19601f8201168201806040525081019061595b9190618c30565b85608001819052836160e9565b905082608001516020015183610100018181525050600060018460400151602001516159949190618fb3565b90505b8360400151600001518111615a4d57615a3884866000015173ffffffffffffffffffffffffffffffffffffffff1663ce813aed30856040518363ffffffff1660e01b81526004016159e9929190618a84565b61016060405180830381865afa158015615a07573d6000803e3d6000fd5b505050506040513d601f19601f82011682018060405250810190615a2b9190618c30565b86606001819052846160e9565b91508080615a45906187c7565b915050615997565b506000846000015173ffffffffffffffffffffffffffffffffffffffff166309218e916040518163ffffffff1660e01b815260040161016060405180830381865afa158015615aa0573d6000803e3d6000fd5b505050506040513d601f19601f82011682018060405250810190615ac49190618c30565b9050846000015173ffffffffffffffffffffffffffffffffffffffff1663a1d0a11384600001516040518263ffffffff1660e01b8152600401615b079190618004565b61016060405180830381865afa158015615b25573d6000803e3d6000fd5b505050506040513d601f19601f82011682018060405250810190615b499190618c30565b8460a00181905250615b68818560a0015161620b90919063ffffffff16565b615b9a615b86856080015186604001516162cd90919063ffffffff16565b85610120015161228190919063ffffffff16565b84610120018181525050505050919050565b600080600084849150915080821115615bca57600292505050615be4565b80821015615bdd57600092505050615be4565b6001925050505b92915050565b6000818311615bf95781615bfb565b825b905092915050565b6000615c128260400151611811565b158015615c335750615c32600083606001516140f490919063ffffffff16565b5b9050919050565b60007fffffffffffffffffffffffffffffffffffffffffffffffffffffffffffffffff90506000615c6d8686858661513c565b905060005b866000015151811015615e0d57600087600001518281518110615c9857615c9761880f565b5b602002602001015190506000878381518110615cb757615cb661880f565b5b60200260200101519050600081602001511480615cdd5750615cdc8160400151611811565b5b80615d0e5750615cf4826080015160200151611811565b8015615d0d5750615d0c826060015160200151611811565b5b5b15615d1a575050615dfa565b6000615d2583615550565b5090506000615d8b615d5e878781518110615d4357615d4261880f565b5b6020026020010151602001518461563f90919063ffffffff16565b878781518110615d7157615d7061880f565b5b60200260200101516020015161229790919063ffffffff16565b9050615d9682611811565b15615da45750505050615dfa565b615df387615de58b8660200151615dd6615dc18a60c001516132ae565b89604001518861181d9092919063ffffffff16565b61607e9092919063ffffffff16565b61563f90919063ffffffff16565b9650505050505b8080615e05906187c7565b915050615c72565b5050949350505050565b6000615e268460400151611811565b15615e3357829050615e6c565b615e4b600085606001516140f490919063ffffffff16565b615e6757615e6284615e5d8585614fa2565b614119565b615e69565b825b90505b9392505050565b615ef6846323b872dd60e01b858585604051602401615e94939291906196c3565b604051602081830303815290604052907bffffffffffffffffffffffffffffffffffffffffffffffffffffffff19166020820180517bffffffffffffffffffffffffffffffffffffffffffffffffffffffff83818316178352505050506162f3565b50505050565b615f7d8363a9059cbb60e01b8484604051602401615f1b929190618a84565b604051602081830303815290604052907bffffffffffffffffffffffffffffffffffffffffffffffffffffffff19166020820180517bffffffffffffffffffffffffffffffffffffffffffffffffffffffff83818316178352505050506162f3565b505050565b60008060008460c0015114615fb957615fb4615fa18560c001516163ba565b8560a00151615fd190919063ffffffff16565b615fbc565b60005b9050615fc88382614fa2565b91505092915050565b600081620f424084615fe39190618d0f565b615fed9190618d80565b905092915050565b60008060005b8451811015616076578481815181106160175761601661880f565b5b6020026020010151602001518361602e9190618fb3565b92506160618482815181106160465761604561880f565b5b602002602001015160e001518361228190919063ffffffff16565b9150808061606e906187c7565b915050615ffb565b509250929050565b600061608b84848461181d565b90509392505050565b60006160c96160c46160a98460600151611708565b6160b68560400151611708565b61179290919063ffffffff16565b6132ae565b9050919050565b60008183106160df57816160e1565b825b905092915050565b600061610284608001518461620b90919063ffffffff16565b6161538460e001516161456040518060600160405280600081526020018860c001518152602001600115158152508760200151876163d29092919063ffffffff16565b614a0290919063ffffffff16565b8460e001818152505061619c61618861617984866020015161563f90919063ffffffff16565b8461229790919063ffffffff16565b85610100015161229790919063ffffffff16565b846101000181815250506161f38360a001516161e56161d16161cc600088608001516117a890919063ffffffff16565b6117bc565b87610120015161228190919063ffffffff16565b61228190919063ffffffff16565b84610120018181525050826020015190509392505050565b600061622a8361010001518361010001516163f090919063ffffffff16565b905061625761625282600001516162448660200151611708565b61177c90919063ffffffff16565b6117bc565b61628261627d836020015161626f8760400151611708565b61177c90919063ffffffff16565b6117bc565b6162ad6162a8846040015161629a8860600151611708565b61177c90919063ffffffff16565b6117bc565b856020018660400187606001838152508381525083815250505050505050565b600081600001518360800151116162e55760006162eb565b8260c001515b905092915050565b6000616355826040518060400160405280602081526020017f5361666545524332303a206c6f772d6c6576656c2063616c6c206661696c65648152508573ffffffffffffffffffffffffffffffffffffffff1661646a9092919063ffffffff16565b90506000815111156163b5578080602001905181019061637591906186ff565b6163b4576040517f08c379a00000000000000000000000000000000000000000000000000000000081526004016163ab9061976c565b60405180910390fd5b5b505050565b6000620f4240826163cb9190618d0f565b9050919050565b60006163e76163e085616482565b84846164bc565b90509392505050565b6163f86169e6565b6164138260000151846000015161179290919063ffffffff16565b8160000181815250506164378260200151846020015161179290919063ffffffff16565b81602001818152505061645b8260400151846040015161179290919063ffffffff16565b81604001818152505092915050565b606061647984846000856164dc565b90509392505050565b60006164b582602001516164a784606001518560400151614a0290919063ffffffff16565b614a0290919063ffffffff16565b9050919050565b60006164d384848460000151856101c001516165a9565b90509392505050565b606082471015616521576040517f08c379a0000000000000000000000000000000000000000000000000000000008152600401616518906197fe565b60405180910390fd5b6000808673ffffffffffffffffffffffffffffffffffffffff16858760405161654a9190619865565b60006040518083038185875af1925050503d8060008114616587576040519150601f19603f3d011682016040523d82523d6000602084013e61658c565b606091505b509150915061659d87838387616610565b92505050949350505050565b60006165b485611811565b156165c25760009050616608565b616605826165f7856165e96165da89602001516132ae565b8a6150da90919063ffffffff16565b6150da90919063ffffffff16565b614a0290919063ffffffff16565b90505b949350505050565b6060831561667257600083510361666a5761662a8561566a565b616669576040517f08c379a0000000000000000000000000000000000000000000000000000000008152600401616660906198c8565b60405180910390fd5b5b82905061667d565b61667c8383616685565b5b949350505050565b6000825111156166985781518083602001fd5b806040517f08c379a00000000000000000000000000000000000000000000000000000000081526004016166cc9190616d3b565b60405180910390fd5b6040518060c001604052806000815260200160008152602001600081526020016000815260200160008152602001600081525090565b6040518060200160405280600081525090565b6040518060e00160405280600081526020016000815260200160008152602001600081526020016000815260200160008152602001600081525090565b6040518060200160405280606081525090565b6040518060600160405280600073ffffffffffffffffffffffffffffffffffffffff16815260200160008152602001600081525090565b604051806101a001604052806167b9616905565b815260200160008152602001600081526020016000815260200160608152602001606081526020016167e961675b565b81526020016167f661675b565b815260200161680361670b565b815260200161681061671e565b815260200161681d61671e565b815260200161682a6166d5565b81526020016168376166d5565b81525090565b6040518060400160405280600063ffffffff16815260200161685d616a07565b81525090565b82600780016008900481019282156168f45791602002820160005b838211156168c257835183826101000a81548163ffffffff021916908363ffffffff160217905550926020019260040160208160030104928301926001030261687e565b80156168f25782816101000a81549063ffffffff02191690556004016020816003010492830192600103026168c2565b505b5090506169019190616a29565b5090565b6040518060200160405280606081525090565b60405180610140016040528061692c616a46565b8152602001616939616ac4565b8152602001616946616b64565b8152602001616953616bb7565b8152602001616960616bb7565b815260200161696d616bb7565b8152602001600081526020016000815260200160008152602001600081525090565b6040518060e00160405280600081526020016000815260200160008152602001600081526020016000815260200160008152602001600081525090565b604051806040016040528060008152602001600081525090565b60405180606001604052806000815260200160008152602001600081525090565b6040518060e00160405280600790602082028036833780820191505090505090565b5b80821115616a42576000816000905550600101616a2a565b5090565b604051806101e0016040528060008152602001600081526020016000815260200160008152602001600081526020016000815260200160008152602001600081526020016000815260200160008152602001600081526020016000151581526020016000151581526020016000151581526020016000151581525090565b604051806102600160405280600081526020016000815260200160008152602001600081526020016000815260200160008152602001600081526020016000815260200160008152602001600081526020016000815260200160008152602001616b2c616c09565b8152602001616b39616c31565b8152602001600081526020016000815260200160008152602001600081526020016000151581525090565b6040518060e001604052806000815260200160008152602001600081526020016000815260200160008152602001600073ffffffffffffffffffffffffffffffffffffffff168152602001600081525090565b6040518061012001604052806000815260200160008152602001600081526020016000815260200160008152602001600081526020016000815260200160008152602001616c036169e6565b81525090565b6040518060800160405280600081526020016000815260200160008152602001600081525090565b604051806040016040528060008152602001600081525090565b6000819050919050565b6000819050919050565b6000616c7a616c75616c7084616c4b565b616c55565b616c4b565b9050919050565b616c8a81616c5f565b82525050565b6000602082019050616ca56000830184616c81565b92915050565b600081519050919050565b600082825260208201905092915050565b60005b83811015616ce5578082015181840152602081019050616cca565b60008484015250505050565b6000601f19601f8301169050919050565b6000616d0d82616cab565b616d178185616cb6565b9350616d27818560208601616cc7565b616d3081616cf1565b840191505092915050565b60006020820190508181036000830152616d558184616d02565b905092915050565b6000604051905090565b600080fd5b600080fd5b6000819050919050565b616d8481616d71565b8114616d8f57600080fd5b50565b600081359050616da181616d7b565b92915050565b600060208284031215616dbd57616dbc616d67565b5b6000616dcb84828501616d92565b91505092915050565b6000616def616dea616de584616d71565b616c55565b616d71565b9050919050565b616dff81616dd4565b82525050565b6000602082019050616e1a6000830184616df6565b92915050565b600073ffffffffffffffffffffffffffffffffffffffff82169050919050565b6000616e4b82616e20565b9050919050565b616e5b81616e40565b8114616e6657600080fd5b50565b600081359050616e7881616e52565b92915050565b600060208284031215616e9457616e93616d67565b5b6000616ea284828501616e69565b91505092915050565b6000616ec6616ec1616ebc84616e20565b616c55565b616e20565b9050919050565b6000616ed882616eab565b9050919050565b6000616eea82616ecd565b9050919050565b616efa81616edf565b82525050565b6000602082019050616f156000830184616ef1565b92915050565b6000616f2682616e40565b9050919050565b616f3681616f1b565b8114616f4157600080fd5b50565b600081359050616f5381616f2d565b92915050565b600060208284031215616f6f57616f6e616d67565b5b6000616f7d84828501616f44565b91505092915050565b616f8f81616d71565b82525050565b616f9e81616dd4565b82525050565b60c082016000820151616fba6000850182616f86565b506020820151616fcd6020850182616f86565b506040820151616fe06040850182616f95565b506060820151616ff36060850182616f95565b5060808201516170066080850182616f95565b5060a082015161701960a0850182616f95565b50505050565b600060c0820190506170346000830184616fa4565b92915050565b600080fd5b7f4e487b7100000000000000000000000000000000000000000000000000000000600052604160045260246000fd5b61707782616cf1565b810181811067ffffffffffffffff821117156170965761709561703f565b5b80604052505050565b60006170a9616d5d565b90506170b5828261706e565b919050565b600080fd5b600080fd5b600067ffffffffffffffff8211156170df576170de61703f565b5b602082029050602081019050919050565b600080fd5b6170fe81616d71565b811461710957600080fd5b50565b60008135905061711b816170f5565b92915050565b60008115159050919050565b61713681617121565b811461714157600080fd5b50565b6000813590506171538161712d565b92915050565b60006101e082840312156171705761716f61703a565b5b61717b6101e061709f565b9050600061718b84828501616d92565b600083015250602061719f84828501616d92565b60208301525060406171b384828501616d92565b60408301525060606171c784828501616d92565b60608301525060806171db84828501616d92565b60808301525060a06171ef8482850161710c565b60a08301525060c06172038482850161710c565b60c08301525060e061721784828501616d92565b60e08301525061010061722c84828501616d92565b6101008301525061012061724284828501616d92565b6101208301525061014061725884828501616d92565b6101408301525061016061726e84828501617144565b6101608301525061018061728484828501617144565b610180830152506101a061729a84828501617144565b6101a0830152506101c06172b084828501617144565b6101c08301525092915050565b6000608082840312156172d3576172d261703a565b5b6172dd608061709f565b905060006172ed84828501616d92565b600083015250602061730184828501616d92565b602083015250604061731584828501616d92565b604083015250606061732984828501616d92565b60608301525092915050565b60006040828403121561734b5761734a61703a565b5b617355604061709f565b9050600061736584828501616d92565b600083015250602061737984828501616d92565b60208301525092915050565b60006102e0828403121561739c5761739b61703a565b5b6173a761026061709f565b905060006173b784828501616d92565b60008301525060206173cb84828501616d92565b60208301525060406173df84828501616d92565b60408301525060606173f384828501616d92565b606083015250608061740784828501616d92565b60808301525060a061741b84828501616d92565b60a08301525060c061742f84828501616d92565b60c08301525060e061744384828501616d92565b60e08301525061010061745884828501616d92565b6101008301525061012061746e84828501616d92565b6101208301525061014061748484828501616d92565b6101408301525061016061749a84828501616d92565b610160830152506101806174b0848285016172bd565b610180830152506102006174c684828501617335565b6101a0830152506102406174dc84828501616d92565b6101c0830152506102606174f284828501616d92565b6101e08301525061028061750884828501616d92565b610200830152506102a061751e8482850161710c565b610220830152506102c061753484828501617144565b6102408301525092915050565b61754a81616c4b565b811461755557600080fd5b50565b60008135905061756781617541565b92915050565b600060e082840312156175835761758261703a565b5b61758d60e061709f565b9050600061759d8482850161710c565b60008301525060206175b18482850161710c565b60208301525060406175c584828501617558565b60408301525060606175d984828501616d92565b60608301525060806175ed8482850161710c565b60808301525060a061760184828501616e69565b60a08301525060c061761584828501616d92565b60c08301525092915050565b6000606082840312156176375761763661703a565b5b617641606061709f565b9050600061765184828501617558565b600083015250602061766584828501617558565b602083015250604061767984828501617558565b60408301525092915050565b6000610160828403121561769c5761769b61703a565b5b6176a761012061709f565b905060006176b78482850161710c565b60008301525060206176cb84828501616d92565b60208301525060406176df84828501616d92565b60408301525060606176f384828501616d92565b606083015250608061770784828501617558565b60808301525060a061771b84828501616d92565b60a08301525060c061772f84828501617558565b60c08301525060e061774384828501617558565b60e08301525061010061775884828501617621565b6101008301525092915050565b6000610a40828403121561777c5761777b61703a565b5b61778761014061709f565b9050600061779784828501617159565b6000830152506101e06177ac84828501617385565b6020830152506104c06177c18482850161756d565b6040830152506105a06177d684828501617685565b6060830152506107006177eb84828501617685565b60808301525061086061780084828501617685565b60a0830152506109c061781584828501617558565b60c0830152506109e061782a84828501616d92565b60e083015250610a0061783f84828501616d92565b61010083015250610a2061785584828501616d92565b6101208301525092915050565b6000617875617870846170c4565b61709f565b905080838252602082019050610a408402830185811115617899576178986170f0565b5b835b818110156178c357806178ae8882617765565b845260208401935050610a408101905061789b565b5050509392505050565b600082601f8301126178e2576178e16170bf565b5b81356178f2848260208601617862565b91505092915050565b6000602082840312156179115761791061703a565b5b61791b602061709f565b9050600082013567ffffffffffffffff81111561793b5761793a6170ba565b5b617947848285016178cd565b60008301525092915050565b600067ffffffffffffffff82111561796e5761796d61703f565b5b602082029050602081019050919050565b6000606082840312156179955761799461703a565b5b61799f606061709f565b905060006179af84828501616f44565b60008301525060206179c38482850161710c565b60208301525060406179d784828501616d92565b60408301525092915050565b60006179f66179f184617953565b61709f565b90508083825260208201905060608402830185811115617a1957617a186170f0565b5b835b81811015617a425780617a2e888261797f565b845260208401935050606081019050617a1b565b5050509392505050565b600082601f830112617a6157617a606170bf565b5b8135617a718482602086016179e3565b91505092915050565b600067ffffffffffffffff821115617a9557617a9461703f565b5b602082029050602081019050919050565b6000617ab9617ab484617a7a565b61709f565b90508083825260208201905060208402830185811115617adc57617adb6170f0565b5b835b81811015617b055780617af18882617558565b845260208401935050602081019050617ade565b5050509392505050565b600082601f830112617b2457617b236170bf565b5b8135617b34848260208601617aa6565b91505092915050565b600067ffffffffffffffff821115617b5857617b5761703f565b5b602082029050602081019050919050565b6000617b7c617b7784617b3d565b61709f565b90508083825260208201905060208402830185811115617b9f57617b9e6170f0565b5b835b81811015617bc85780617bb4888261710c565b845260208401935050602081019050617ba1565b5050509392505050565b600082601f830112617be757617be66170bf565b5b8135617bf7848260208601617b69565b91505092915050565b600060208284031215617c1657617c1561703a565b5b617c20602061709f565b9050600082013567ffffffffffffffff811115617c4057617c3f6170ba565b5b617c4c84828501617bd2565b60008301525092915050565b600060208284031215617c6e57617c6d61703a565b5b617c78602061709f565b90506000617c8884828501616d92565b60008301525092915050565b600060e08284031215617caa57617ca961703a565b5b617cb460e061709f565b90506000617cc484828501616d92565b6000830152506020617cd884828501616d92565b6020830152506040617cec84828501616d92565b6040830152506060617d0084828501617558565b6060830152506080617d1484828501616d92565b60808301525060a0617d2884828501616d92565b60a08301525060c0617d3c8482850161710c565b60c08301525092915050565b600060c08284031215617d5e57617d5d61703a565b5b617d6860c061709f565b90506000617d788482850161710c565b6000830152506020617d8c8482850161710c565b6020830152506040617da084828501616d92565b6040830152506060617db484828501616d92565b6060830152506080617dc884828501616d92565b60808301525060a0617ddc84828501616d92565b60a08301525092915050565b60006104608284031215617dff57617dfe61703a565b5b617e0a6101a061709f565b9050600082013567ffffffffffffffff811115617e2a57617e296170ba565b5b617e36848285016178fb565b6000830152506020617e4a84828501616d92565b6020830152506040617e5e8482850161710c565b6040830152506060617e728482850161710c565b606083015250608082013567ffffffffffffffff811115617e9657617e956170ba565b5b617ea284828501617a4c565b60808301525060a082013567ffffffffffffffff811115617ec657617ec56170ba565b5b617ed284828501617b0f565b60a08301525060c082013567ffffffffffffffff811115617ef657617ef56170ba565b5b617f0284828501617c00565b60c08301525060e082013567ffffffffffffffff811115617f2657617f256170ba565b5b617f3284828501617c00565b60e083015250610100617f4784828501617c58565b61010083015250610120617f5d84828501617c94565b61012083015250610200617f7384828501617c94565b610140830152506102e0617f8984828501617d48565b610160830152506103a0617f9f84828501617d48565b6101808301525092915050565b600060208284031215617fc257617fc1616d67565b5b600082013567ffffffffffffffff811115617fe057617fdf616d6c565b5b617fec84828501617de8565b91505092915050565b617ffe81616d71565b82525050565b60006020820190506180196000830184617ff5565b92915050565b61802881616e40565b811461803357600080fd5b50565b6000813590506180458161801f565b92915050565b600080fd5b60008083601f840112618066576180656170bf565b5b8235905067ffffffffffffffff8111156180835761808261804b565b5b60208301915083600182028301111561809f5761809e6170f0565b5b9250929050565b6000806000806000608086880312156180c2576180c1616d67565b5b60006180d088828901618036565b95505060206180e188828901616f44565b94505060406180f288828901616d92565b935050606086013567ffffffffffffffff81111561811357618112616d6c565b5b61811f88828901618050565b92509250509295509295909350565b60006020828403121561814457618143616d67565b5b600061815284828501617c58565b91505092915050565b60008060006060848603121561817457618173616d67565b5b60006181828682870161710c565b93505060206181938682870161710c565b92505060406181a486828701616d92565b9150509250925092565b6020820160008201516181c46000850182616f95565b50505050565b60006020820190506181df60008301846181ae565b92915050565b6000602082840312156181fb576181fa616d67565b5b60006182098482850161710c565b91505092915050565b61821b81616c5f565b82525050565b60e0820160008201516182376000850182616f95565b50602082015161824a6020850182616f95565b50604082015161825d6040850182616f95565b5060608201516182706060850182618212565b5060808201516182836080850182616f95565b5060a082015161829660a0850182616f95565b5060c08201516182a960c0850182616f86565b50505050565b600060e0820190506182c46000830184618221565b92915050565b60006182d582616ecd565b9050919050565b6182e5816182ca565b82525050565b600060208201905061830060008301846182dc565b92915050565b600080600080608085870312156183205761831f616d67565b5b600061832e87828801616e69565b945050602061833f87828801616d92565b935050604061835087828801616d92565b925050606061836187828801616d92565b91505092959194509250565b6000806040838503121561838457618383616d67565b5b600083013567ffffffffffffffff8111156183a2576183a1616d6c565b5b6183ae85828601617de8565b92505060206183bf8582860161710c565b9150509250929050565b60006060820190506183de6000830186616c81565b6183eb6020830185616df6565b6183f86040830184616df6565b949350505050565b600081519050919050565b600082825260208201905092915050565b6000819050602082019050919050565b60006184388383616f86565b60208301905092915050565b6000602082019050919050565b600061845c82618400565b618466818561840b565b93506184718361841c565b8060005b838110156184a2578151618489888261842c565b975061849483618444565b925050600181019050618475565b5085935050505092915050565b600060208301600083015184820360008601526184cc8282618451565b9150508091505092915050565b600060208201905081810360008301526184f381846184af565b905092915050565b600061850682616ecd565b9050919050565b618516816184fb565b82525050565b606082016000820151618532600085018261850d565b5060208201516185456020850182616f86565b5060408201516185586040850182616f95565b50505050565b6000606082019050618573600083018461851c565b92915050565b600081905092915050565b7f506572656e6e69616c205632205661756c743a20000000000000000000000000600082015250565b60006185ba601483618579565b91506185c582618584565b601482019050919050565b7f4e487b7100000000000000000000000000000000000000000000000000000000600052602260045260246000fd5b6000600282049050600182168061861757607f821691505b60208210810361862a576186296185d0565b5b50919050565b60008190508160005260206000209050919050565b60008154618652816185ff565b61865c8186618579565b94506001821660008114618677576001811461868c576186bf565b60ff19831686528115158202860193506186bf565b61869585618630565b60005b838110156186b757815481890152600182019150602081019050618698565b838801955050505b50505092915050565b60006186d3826185ad565b91506186df8284618645565b915081905092915050565b6000815190506186f98161712d565b92915050565b60006020828403121561871557618714616d67565b5b6000618723848285016186ea565b91505092915050565b60008151905061873b81616e52565b92915050565b60006020828403121561875757618756616d67565b5b60006187658482850161872c565b91505092915050565b61877781616e40565b82525050565b6000602082019050618792600083018461876e565b92915050565b7f4e487b7100000000000000000000000000000000000000000000000000000000600052601160045260246000fd5b60006187d282616d71565b91507fffffffffffffffffffffffffffffffffffffffffffffffffffffffffffffffff820361880457618803618798565b5b600182019050919050565b7f4e487b7100000000000000000000000000000000000000000000000000000000600052603260045260246000fd5b600082905092915050565b60006020601f8301049050919050565b600082821b905092915050565b6000600883026188967fffffffffffffffffffffffffffffffffffffffffffffffffffffffffffffffff82618859565b6188a08683618859565b95508019841693508086168417925050509392505050565b6000819050919050565b6188cb83616dd4565b6188df6188d7826188b8565b848454618866565b825550505050565b600090565b6188f46188e7565b6188ff8184846188c2565b505050565b5b81811015618923576189186000826188ec565b600181019050618905565b5050565b601f8211156189685761893981618630565b61894284618849565b81016020851015618951578190505b61896561895d85618849565b830182618904565b50505b505050565b600082821c905092915050565b600061898b6000198460080261896d565b1980831691505092915050565b60006189a4838361897a565b9150826002028217905092915050565b6189be838361883e565b67ffffffffffffffff8111156189d7576189d661703f565b5b6189e182546185ff565b6189ec828285618927565b6000601f831160018114618a1b5760008415618a09578287013590505b618a138582618998565b865550618a7b565b601f198416618a2986618630565b60005b82811015618a5157848901358255600182019150602085019450602081019050618a2c565b86831015618a6e5784890135618a6a601f89168261897a565b8355505b6001600288020188555050505b50505050505050565b6000604082019050618a99600083018561876e565b618aa66020830184617ff5565b9392505050565b600081519050618abc816170f5565b92915050565b600081519050618ad181616d7b565b92915050565b600081519050618ae681617541565b92915050565b600060608284031215618b0257618b0161703a565b5b618b0c606061709f565b90506000618b1c84828501618ad7565b6000830152506020618b3084828501618ad7565b6020830152506040618b4484828501618ad7565b60408301525092915050565b60006101608284031215618b6757618b6661703a565b5b618b7261012061709f565b90506000618b8284828501618aad565b6000830152506020618b9684828501618ac2565b6020830152506040618baa84828501618ac2565b6040830152506060618bbe84828501618ac2565b6060830152506080618bd284828501618ad7565b60808301525060a0618be684828501618ac2565b60a08301525060c0618bfa84828501618ad7565b60c08301525060e0618c0e84828501618ad7565b60e083015250610100618c2384828501618aec565b6101008301525092915050565b60006101608284031215618c4757618c46616d67565b5b6000618c5584828501618b50565b91505092915050565b6000618c6982616c4b565b9150618c7483616c4b565b925082820190508281121560008312168382126000841215161715618c9c57618c9b618798565b5b92915050565b6000618cad82616c4b565b9150618cb883616c4b565b9250828203905081811260008412168282136000851215161715618cdf57618cde618798565b5b92915050565b618cee81616c4b565b82525050565b6000602082019050618d096000830184618ce5565b92915050565b6000618d1a82616d71565b9150618d2583616d71565b9250828202618d3381616d71565b91508282048414831517618d4a57618d49618798565b5b5092915050565b7f4e487b7100000000000000000000000000000000000000000000000000000000600052601260045260246000fd5b6000618d8b82616d71565b9150618d9683616d71565b925082618da657618da5618d51565b5b828204905092915050565b618dba81617121565b82525050565b600060c082019050618dd5600083018961876e565b618de26020830188616df6565b618def6040830187616df6565b618dfc6060830186616df6565b618e096080830185616c81565b618e1660a0830184618db1565b979650505050505050565b60006101e08284031215618e3857618e3761703a565b5b618e436101e061709f565b90506000618e5384828501618ac2565b6000830152506020618e6784828501618ac2565b6020830152506040618e7b84828501618ac2565b6040830152506060618e8f84828501618ac2565b6060830152506080618ea384828501618ac2565b60808301525060a0618eb784828501618aad565b60a08301525060c0618ecb84828501618aad565b60c08301525060e0618edf84828501618ac2565b60e083015250610100618ef484828501618ac2565b61010083015250610120618f0a84828501618ac2565b61012083015250610140618f2084828501618ac2565b61014083015250610160618f36848285016186ea565b61016083015250610180618f4c848285016186ea565b610180830152506101a0618f62848285016186ea565b6101a0830152506101c0618f78848285016186ea565b6101c08301525092915050565b60006101e08284031215618f9c57618f9b616d67565b5b6000618faa84828501618e21565b91505092915050565b6000618fbe82616d71565b9150618fc983616d71565b9250828201905080821115618fe157618fe0618798565b5b92915050565b600060e08284031215618ffd57618ffc61703a565b5b61900760e061709f565b9050600061901784828501618aad565b600083015250602061902b84828501618aad565b602083015250604061903f84828501618ad7565b604083015250606061905384828501618ac2565b606083015250608061906784828501618aad565b60808301525060a061907b8482850161872c565b60a08301525060c061908f84828501618ac2565b60c08301525092915050565b600060e082840312156190b1576190b0616d67565b5b60006190bf84828501618fe7565b91505092915050565b60006190d382616d71565b91506190de83616d71565b92508282039050818111156190f6576190f5618798565b5b92915050565b600061910782616e40565b9050919050565b619117816190fc565b811461912257600080fd5b50565b6000815190506191348161910e565b92915050565b6000602082840312156191505761914f616d67565b5b600061915e84828501619125565b91505092915050565b619170816184fb565b82525050565b600060208201905061918b6000830184619167565b92915050565b6000815190506191a08161801f565b92915050565b6000602082840312156191bc576191bb616d67565b5b60006191ca84828501619191565b91505092915050565b60006040820190506191e86000830185617ff5565b6191f56020830184616df6565b9392505050565b6000604082019050619211600083018561876e565b61921e602083018461876e565b9392505050565b600060808201905061923a6000830187617ff5565b6192476020830186616df6565b6192546040830185616df6565b6192616060830184616df6565b95945050505050565b600061927582616d71565b915061928083616d71565b9250826192905761928f618d51565b5b828206905092915050565b6000602082840312156192b1576192b0616d67565b5b60006192bf84828501618aad565b91505092915050565b6000608082840312156192de576192dd61703a565b5b6192e8608061709f565b905060006192f884828501618ac2565b600083015250602061930c84828501618ac2565b602083015250604061932084828501618ac2565b604083015250606061933484828501618ac2565b60608301525092915050565b6000604082840312156193565761935561703a565b5b619360604061709f565b9050600061937084828501618ac2565b600083015250602061938484828501618ac2565b60208301525092915050565b60006102e082840312156193a7576193a661703a565b5b6193b261026061709f565b905060006193c284828501618ac2565b60008301525060206193d684828501618ac2565b60208301525060406193ea84828501618ac2565b60408301525060606193fe84828501618ac2565b606083015250608061941284828501618ac2565b60808301525060a061942684828501618ac2565b60a08301525060c061943a84828501618ac2565b60c08301525060e061944e84828501618ac2565b60e08301525061010061946384828501618ac2565b6101008301525061012061947984828501618ac2565b6101208301525061014061948f84828501618ac2565b610140830152506101606194a584828501618ac2565b610160830152506101806194bb848285016192c8565b610180830152506102006194d184828501619340565b6101a0830152506102406194e784828501618ac2565b6101c0830152506102606194fd84828501618ac2565b6101e08301525061028061951384828501618ac2565b610200830152506102a061952984828501618aad565b610220830152506102c061953f848285016186ea565b6102408301525092915050565b60006102e0828403121561956357619562616d67565b5b600061957184828501619390565b91505092915050565b6000604082840312156195905761958f61703a565b5b61959a604061709f565b905060006195aa84828501618ad7565b60008301525060206195be84828501618ad7565b60208301525092915050565b600061012082840312156195e1576195e061703a565b5b6195ec61010061709f565b905060006195fc84828501618aad565b600083015250602061961084828501618aad565b602083015250604061962484828501618ac2565b604083015250606061963884828501618ac2565b606083015250608061964c84828501618ac2565b60808301525060a061966084828501618ac2565b60a08301525060c06196748482850161957a565b60c08301525061010061968984828501618ad7565b60e08301525092915050565b600061012082840312156196ac576196ab616d67565b5b60006196ba848285016195ca565b91505092915050565b60006060820190506196d8600083018661876e565b6196e5602083018561876e565b6196f26040830184617ff5565b949350505050565b7f5361666545524332303a204552433230206f7065726174696f6e20646964206e60008201527f6f74207375636365656400000000000000000000000000000000000000000000602082015250565b6000619756602a83616cb6565b9150619761826196fa565b604082019050919050565b6000602082019050818103600083015261978581619749565b9050919050565b7f416464726573733a20696e73756666696369656e742062616c616e636520666f60008201527f722063616c6c0000000000000000000000000000000000000000000000000000602082015250565b60006197e8602683616cb6565b91506197f38261978c565b604082019050919050565b60006020820190508181036000830152619817816197db565b9050919050565b600081519050919050565b600081905092915050565b600061983f8261981e565b6198498185619829565b9350619859818560208601616cc7565b80840191505092915050565b60006198718284619834565b915081905092915050565b7f416464726573733a2063616c6c20746f206e6f6e2d636f6e7472616374000000600082015250565b60006198b2601d83616cb6565b91506198bd8261987c565b602082019050919050565b600060208201905081810360008301526198e1816198a5565b905091905056fea2646970667358221220273d874194cfe0f7a759138ae14fda02cb696d7cb670d9a0eb13e7a076034d0664736f6c63430008130033",
  "linkReferences": {},
  "deployedLinkReferences": {}
}