{
  "address": "0x589d40bd3e3D8c93f094c94a8A07e76881172E9d",
  "abi": [
    {
      "inputs": [
        {
          "internalType": "contract IVerifierProxy",
          "name": "chainlink_",
          "type": "address"
        },
        {
          "internalType": "contract IFeeManager",
          "name": "feeManager_",
          "type": "address"
        },
        {
          "internalType": "address",
          "name": "feeTokenAddress_",
          "type": "address"
        },
        {
          "internalType": "address",
          "name": "implementation_",
          "type": "address"
        },
        {
          "internalType": "uint256",
          "name": "validFrom_",
          "type": "uint256"
        },
        {
          "internalType": "uint256",
          "name": "validTo_",
          "type": "uint256"
        },
        {
          "components": [
            {
              "internalType": "UFixed18",
              "name": "multiplierBase",
              "type": "uint256"
            },
            {
              "internalType": "uint256",
              "name": "bufferBase",
              "type": "uint256"
            },
            {
              "internalType": "UFixed18",
              "name": "multiplierCalldata",
              "type": "uint256"
            },
            {
              "internalType": "uint256",
              "name": "bufferCalldata",
              "type": "uint256"
            }
          ],
          "internalType": "struct IKept.KeepConfig",
          "name": "commitKeepConfig_",
          "type": "tuple"
        },
        {
          "components": [
            {
              "internalType": "UFixed18",
              "name": "multiplierBase",
              "type": "uint256"
            },
            {
              "internalType": "uint256",
              "name": "bufferBase",
              "type": "uint256"
            },
            {
              "internalType": "UFixed18",
              "name": "multiplierCalldata",
              "type": "uint256"
            },
            {
              "internalType": "uint256",
              "name": "bufferCalldata",
              "type": "uint256"
            }
          ],
          "internalType": "struct IKept.KeepConfig",
          "name": "settleKeepConfig_",
          "type": "tuple"
        },
        {
          "internalType": "uint256",
          "name": "keepCommitIncrementalBufferData_",
          "type": "uint256"
        }
      ],
      "stateMutability": "nonpayable",
      "type": "constructor"
    },
    {
      "inputs": [],
      "name": "ChainlinkFactoryInputLengthMismatchError",
      "type": "error"
    },
    {
      "inputs": [
        {
          "internalType": "bytes32",
          "name": "feedId",
          "type": "bytes32"
        }
      ],
      "name": "ChainlinkFactoryInvalidFeedIdError",
      "type": "error"
    },
    {
      "inputs": [],
      "name": "DivisionByZero",
      "type": "error"
    },
    {
      "inputs": [],
      "name": "FactoryNotInstanceError",
      "type": "error"
    },
    {
      "inputs": [
        {
          "internalType": "uint256",
          "name": "value",
          "type": "uint256"
        }
      ],
      "name": "Fixed18OverflowError",
      "type": "error"
    },
    {
      "inputs": [
        {
          "internalType": "uint256",
          "name": "version",
          "type": "uint256"
        }
      ],
      "name": "InitializableAlreadyInitializedError",
      "type": "error"
    },
    {
      "inputs": [],
      "name": "InitializableNotInitializingError",
      "type": "error"
    },
    {
      "inputs": [],
      "name": "InitializableZeroVersionError",
      "type": "error"
    },
    {
      "inputs": [],
      "name": "KeeperFactoryAlreadyCreatedError",
      "type": "error"
    },
    {
      "inputs": [],
      "name": "KeeperFactoryInvalidGranularityError",
      "type": "error"
    },
    {
      "inputs": [],
      "name": "KeeperFactoryInvalidIdError",
      "type": "error"
    },
    {
      "inputs": [],
      "name": "KeeperFactoryInvalidPayoffError",
      "type": "error"
    },
    {
      "inputs": [],
      "name": "KeeperFactoryInvalidSettleError",
      "type": "error"
    },
    {
      "inputs": [],
      "name": "KeeperFactoryNotCreatedError",
      "type": "error"
    },
    {
      "inputs": [],
      "name": "KeeperFactoryNotInstanceError",
      "type": "error"
    },
    {
      "inputs": [],
      "name": "KeeperFactoryVersionOutsideRangeError",
      "type": "error"
    },
    {
      "inputs": [
        {
          "internalType": "address",
          "name": "sender",
          "type": "address"
        }
      ],
      "name": "OwnableNotOwnerError",
      "type": "error"
    },
    {
      "inputs": [
        {
          "internalType": "address",
          "name": "sender",
          "type": "address"
        }
      ],
      "name": "OwnableNotPendingOwnerError",
      "type": "error"
    },
    {
      "inputs": [
        {
          "internalType": "address",
          "name": "sender",
          "type": "address"
        }
      ],
      "name": "PausableNotPauserError",
      "type": "error"
    },
    {
      "inputs": [],
      "name": "PausablePausedError",
      "type": "error"
    },
    {
      "inputs": [
        {
          "internalType": "int256",
          "name": "value",
          "type": "int256"
        }
      ],
      "name": "UFixed18UnderflowError",
      "type": "error"
    },
    {
      "anonymous": false,
      "inputs": [
        {
          "indexed": true,
          "internalType": "contract IFactory",
          "name": "caller",
          "type": "address"
        }
      ],
      "name": "CallerAuthorized",
      "type": "event"
    },
    {
      "anonymous": false,
      "inputs": [
        {
          "indexed": false,
          "internalType": "uint256",
          "name": "newGranularity",
          "type": "uint256"
        },
        {
          "indexed": false,
          "internalType": "uint256",
          "name": "effectiveAfter",
          "type": "uint256"
        }
      ],
      "name": "GranularityUpdated",
      "type": "event"
    },
    {
      "anonymous": false,
      "inputs": [
        {
          "indexed": false,
          "internalType": "uint256",
          "name": "version",
          "type": "uint256"
        }
      ],
      "name": "Initialized",
      "type": "event"
    },
    {
      "anonymous": false,
      "inputs": [
        {
          "indexed": true,
          "internalType": "contract IInstance",
          "name": "instance",
          "type": "address"
        }
      ],
      "name": "InstanceRegistered",
      "type": "event"
    },
    {
      "anonymous": false,
      "inputs": [
        {
          "indexed": true,
          "internalType": "address",
          "name": "sender",
          "type": "address"
        },
        {
          "indexed": false,
          "internalType": "uint256",
          "name": "applicableGas",
          "type": "uint256"
        },
        {
          "indexed": false,
          "internalType": "uint256",
          "name": "applicableValue",
          "type": "uint256"
        },
        {
          "indexed": false,
          "internalType": "UFixed18",
          "name": "baseFee",
          "type": "uint256"
        },
        {
          "indexed": false,
          "internalType": "UFixed18",
          "name": "calldataFee",
          "type": "uint256"
        },
        {
          "indexed": false,
          "internalType": "UFixed18",
          "name": "keeperFee",
          "type": "uint256"
        }
      ],
      "name": "KeeperCall",
      "type": "event"
    },
    {
      "anonymous": false,
      "inputs": [
        {
          "indexed": true,
          "internalType": "bytes32",
          "name": "id",
          "type": "bytes32"
        },
        {
          "indexed": true,
          "internalType": "bytes32",
          "name": "underlyingId",
          "type": "bytes32"
        }
      ],
      "name": "OracleAssociated",
      "type": "event"
    },
    {
      "anonymous": false,
      "inputs": [
        {
          "indexed": true,
          "internalType": "contract IOracleProvider",
          "name": "oracle",
          "type": "address"
        },
        {
          "indexed": true,
          "internalType": "bytes32",
          "name": "id",
          "type": "bytes32"
        }
      ],
      "name": "OracleCreated",
      "type": "event"
    },
    {
      "anonymous": false,
      "inputs": [
        {
          "indexed": true,
          "internalType": "address",
          "name": "newOwner",
          "type": "address"
        }
      ],
      "name": "OwnerUpdated",
      "type": "event"
    },
    {
      "anonymous": false,
      "inputs": [],
      "name": "Paused",
      "type": "event"
    },
    {
      "anonymous": false,
      "inputs": [
        {
          "indexed": true,
          "internalType": "address",
          "name": "newPauser",
          "type": "address"
        }
      ],
      "name": "PauserUpdated",
      "type": "event"
    },
    {
      "anonymous": false,
      "inputs": [
        {
          "indexed": true,
          "internalType": "contract IPayoffProvider",
          "name": "payoff",
          "type": "address"
        }
      ],
      "name": "PayoffRegistered",
      "type": "event"
    },
    {
      "anonymous": false,
      "inputs": [
        {
          "indexed": true,
          "internalType": "address",
          "name": "newPendingOwner",
          "type": "address"
        }
      ],
      "name": "PendingOwnerUpdated",
      "type": "event"
    },
    {
      "anonymous": false,
      "inputs": [],
      "name": "Unpaused",
      "type": "event"
    },
    {
      "inputs": [],
      "name": "MAX_GRANULARITY",
      "outputs": [
        {
          "internalType": "uint256",
          "name": "",
          "type": "uint256"
        }
      ],
      "stateMutability": "view",
      "type": "function"
    },
    {
      "inputs": [
        {
          "internalType": "bytes32",
          "name": "",
          "type": "bytes32"
        }
      ],
      "name": "_toUnderlyingPayoff",
      "outputs": [
        {
          "internalType": "contract IPayoffProvider",
          "name": "provider",
          "type": "address"
        },
        {
          "internalType": "int16",
          "name": "decimals",
          "type": "int16"
        }
      ],
      "stateMutability": "view",
      "type": "function"
    },
    {
      "inputs": [],
      "name": "acceptOwner",
      "outputs": [],
      "stateMutability": "nonpayable",
      "type": "function"
    },
    {
      "inputs": [
        {
          "internalType": "contract IFactory",
          "name": "factory",
          "type": "address"
        }
      ],
      "name": "authorize",
      "outputs": [],
      "stateMutability": "nonpayable",
      "type": "function"
    },
    {
      "inputs": [
        {
          "internalType": "address",
          "name": "caller",
          "type": "address"
        }
      ],
      "name": "authorized",
      "outputs": [
        {
          "internalType": "bool",
          "name": "",
          "type": "bool"
        }
      ],
      "stateMutability": "view",
      "type": "function"
    },
    {
      "inputs": [
        {
          "internalType": "contract IFactory",
          "name": "",
          "type": "address"
        }
      ],
      "name": "callers",
      "outputs": [
        {
          "internalType": "bool",
          "name": "",
          "type": "bool"
        }
      ],
      "stateMutability": "view",
      "type": "function"
    },
    {
      "inputs": [],
      "name": "chainlink",
      "outputs": [
        {
          "internalType": "contract IVerifierProxy",
          "name": "",
          "type": "address"
        }
      ],
      "stateMutability": "view",
      "type": "function"
    },
    {
      "inputs": [
        {
          "internalType": "bytes32[]",
          "name": "ids",
          "type": "bytes32[]"
        },
        {
          "internalType": "uint256",
          "name": "version",
          "type": "uint256"
        },
        {
          "internalType": "bytes",
          "name": "data",
          "type": "bytes"
        }
      ],
      "name": "commit",
      "outputs": [],
      "stateMutability": "payable",
      "type": "function"
    },
    {
      "inputs": [
        {
          "internalType": "uint256",
          "name": "numRequested",
          "type": "uint256"
        }
      ],
      "name": "commitKeepConfig",
      "outputs": [
        {
          "components": [
            {
              "internalType": "UFixed18",
              "name": "multiplierBase",
              "type": "uint256"
            },
            {
              "internalType": "uint256",
              "name": "bufferBase",
              "type": "uint256"
            },
            {
              "internalType": "UFixed18",
              "name": "multiplierCalldata",
              "type": "uint256"
            },
            {
              "internalType": "uint256",
              "name": "bufferCalldata",
              "type": "uint256"
            }
          ],
          "internalType": "struct IKept.KeepConfig",
          "name": "",
          "type": "tuple"
        }
      ],
      "stateMutability": "view",
      "type": "function"
    },
    {
      "inputs": [
        {
          "internalType": "bytes32",
          "name": "id",
          "type": "bytes32"
        },
        {
          "internalType": "bytes32",
          "name": "underlyingId",
          "type": "bytes32"
        },
        {
          "components": [
            {
              "internalType": "contract IPayoffProvider",
              "name": "provider",
              "type": "address"
            },
            {
              "internalType": "int16",
              "name": "decimals",
              "type": "int16"
            }
          ],
          "internalType": "struct IKeeperFactory.PayoffDefinition",
          "name": "payoff",
          "type": "tuple"
        }
      ],
      "name": "create",
      "outputs": [
        {
          "internalType": "contract IKeeperOracle",
          "name": "newOracle",
          "type": "address"
        }
      ],
      "stateMutability": "nonpayable",
      "type": "function"
    },
    {
      "inputs": [],
      "name": "current",
      "outputs": [
        {
          "internalType": "uint256",
          "name": "",
          "type": "uint256"
        }
      ],
      "stateMutability": "view",
      "type": "function"
    },
    {
      "inputs": [],
      "name": "ethTokenOracleFeed",
      "outputs": [
        {
          "internalType": "contract AggregatorV3Interface",
          "name": "",
          "type": "address"
        }
      ],
      "stateMutability": "view",
      "type": "function"
    },
    {
      "inputs": [],
      "name": "feeManager",
      "outputs": [
        {
          "internalType": "contract IFeeManager",
          "name": "",
          "type": "address"
        }
      ],
      "stateMutability": "view",
      "type": "function"
    },
    {
      "inputs": [],
      "name": "feeTokenAddress",
      "outputs": [
        {
          "internalType": "address",
          "name": "",
          "type": "address"
        }
      ],
      "stateMutability": "view",
      "type": "function"
    },
    {
      "inputs": [
        {
          "internalType": "bytes32",
          "name": "",
          "type": "bytes32"
        },
        {
          "internalType": "contract IPayoffProvider",
          "name": "",
          "type": "address"
        }
      ],
      "name": "fromUnderlying",
      "outputs": [
        {
          "internalType": "bytes32",
          "name": "",
          "type": "bytes32"
        }
      ],
      "stateMutability": "view",
      "type": "function"
    },
    {
      "inputs": [],
      "name": "granularity",
      "outputs": [
        {
          "components": [
            {
              "internalType": "uint64",
              "name": "latestGranularity",
              "type": "uint64"
            },
            {
              "internalType": "uint64",
              "name": "currentGranularity",
              "type": "uint64"
            },
            {
              "internalType": "uint128",
              "name": "effectiveAfter",
              "type": "uint128"
            }
          ],
          "internalType": "struct IKeeperFactory.Granularity",
          "name": "",
          "type": "tuple"
        }
      ],
      "stateMutability": "view",
      "type": "function"
    },
    {
      "inputs": [],
      "name": "implementation",
      "outputs": [
        {
          "internalType": "address",
          "name": "",
          "type": "address"
        }
      ],
      "stateMutability": "view",
      "type": "function"
    },
    {
      "inputs": [
        {
          "internalType": "contract IOracleFactory",
          "name": "oracleFactory_",
          "type": "address"
        },
        {
          "internalType": "contract AggregatorV3Interface",
          "name": "chainlinkFeed_",
          "type": "address"
        },
        {
          "internalType": "Token18",
          "name": "dsu_",
          "type": "address"
        }
      ],
      "name": "initialize",
      "outputs": [],
      "stateMutability": "nonpayable",
      "type": "function"
    },
    {
      "inputs": [
        {
          "internalType": "contract IInstance",
          "name": "instance",
          "type": "address"
        }
      ],
      "name": "instances",
      "outputs": [
        {
          "internalType": "bool",
          "name": "",
          "type": "bool"
        }
      ],
      "stateMutability": "view",
      "type": "function"
    },
    {
      "inputs": [],
      "name": "keeperToken",
      "outputs": [
        {
          "internalType": "Token18",
          "name": "",
          "type": "address"
        }
      ],
      "stateMutability": "view",
      "type": "function"
    },
    {
      "inputs": [],
      "name": "oracleFactory",
      "outputs": [
        {
          "internalType": "contract IOracleFactory",
          "name": "",
          "type": "address"
        }
      ],
      "stateMutability": "view",
      "type": "function"
    },
    {
      "inputs": [
        {
          "internalType": "bytes32",
          "name": "",
          "type": "bytes32"
        }
      ],
      "name": "oracles",
      "outputs": [
        {
          "internalType": "contract IOracleProvider",
          "name": "",
          "type": "address"
        }
      ],
      "stateMutability": "view",
      "type": "function"
    },
    {
      "inputs": [],
      "name": "owner",
      "outputs": [
        {
          "internalType": "address",
          "name": "",
          "type": "address"
        }
      ],
      "stateMutability": "view",
      "type": "function"
    },
    {
      "inputs": [],
      "name": "pause",
      "outputs": [],
      "stateMutability": "nonpayable",
      "type": "function"
    },
    {
      "inputs": [],
      "name": "paused",
      "outputs": [
        {
          "internalType": "bool",
          "name": "",
          "type": "bool"
        }
      ],
      "stateMutability": "view",
      "type": "function"
    },
    {
      "inputs": [],
      "name": "pauser",
      "outputs": [
        {
          "internalType": "address",
          "name": "",
          "type": "address"
        }
      ],
      "stateMutability": "view",
      "type": "function"
    },
    {
      "inputs": [
        {
          "internalType": "contract IPayoffProvider",
          "name": "",
          "type": "address"
        }
      ],
      "name": "payoffs",
      "outputs": [
        {
          "internalType": "bool",
          "name": "",
          "type": "bool"
        }
      ],
      "stateMutability": "view",
      "type": "function"
    },
    {
      "inputs": [],
      "name": "pendingOwner",
      "outputs": [
        {
          "internalType": "address",
          "name": "",
          "type": "address"
        }
      ],
      "stateMutability": "view",
      "type": "function"
    },
    {
      "inputs": [
        {
          "internalType": "contract IPayoffProvider",
          "name": "payoff",
          "type": "address"
        }
      ],
      "name": "register",
      "outputs": [],
      "stateMutability": "nonpayable",
      "type": "function"
    },
    {
      "inputs": [
        {
          "internalType": "bytes32[]",
          "name": "ids",
          "type": "bytes32[]"
        },
        {
          "internalType": "contract IMarket[]",
          "name": "markets",
          "type": "address[]"
        },
        {
          "internalType": "uint256[]",
          "name": "versions",
          "type": "uint256[]"
        },
        {
          "internalType": "uint256[]",
          "name": "maxCounts",
          "type": "uint256[]"
        }
      ],
      "name": "settle",
      "outputs": [],
      "stateMutability": "nonpayable",
      "type": "function"
    },
    {
      "inputs": [],
      "name": "settleKeepConfig",
      "outputs": [
        {
          "components": [
            {
              "internalType": "UFixed18",
              "name": "multiplierBase",
              "type": "uint256"
            },
            {
              "internalType": "uint256",
              "name": "bufferBase",
              "type": "uint256"
            },
            {
              "internalType": "UFixed18",
              "name": "multiplierCalldata",
              "type": "uint256"
            },
            {
              "internalType": "uint256",
              "name": "bufferCalldata",
              "type": "uint256"
            }
          ],
          "internalType": "struct IKept.KeepConfig",
          "name": "",
          "type": "tuple"
        }
      ],
      "stateMutability": "view",
      "type": "function"
    },
    {
      "inputs": [
        {
          "internalType": "bytes32",
          "name": "",
          "type": "bytes32"
        }
      ],
      "name": "toUnderlyingId",
      "outputs": [
        {
          "internalType": "bytes32",
          "name": "",
          "type": "bytes32"
        }
      ],
      "stateMutability": "view",
      "type": "function"
    },
    {
      "inputs": [
        {
          "internalType": "bytes32",
          "name": "id",
          "type": "bytes32"
        }
      ],
      "name": "toUnderlyingPayoff",
      "outputs": [
        {
          "components": [
            {
              "internalType": "contract IPayoffProvider",
              "name": "provider",
              "type": "address"
            },
            {
              "internalType": "int16",
              "name": "decimals",
              "type": "int16"
            }
          ],
          "internalType": "struct IKeeperFactory.PayoffDefinition",
          "name": "",
          "type": "tuple"
        }
      ],
      "stateMutability": "view",
      "type": "function"
    },
    {
      "inputs": [],
      "name": "unpause",
      "outputs": [],
      "stateMutability": "nonpayable",
      "type": "function"
    },
    {
      "inputs": [
        {
          "internalType": "uint256",
          "name": "newGranularity",
          "type": "uint256"
        }
      ],
      "name": "updateGranularity",
      "outputs": [],
      "stateMutability": "nonpayable",
      "type": "function"
    },
    {
      "inputs": [
        {
          "internalType": "address",
          "name": "newPauser",
          "type": "address"
        }
      ],
      "name": "updatePauser",
      "outputs": [],
      "stateMutability": "nonpayable",
      "type": "function"
    },
    {
      "inputs": [
        {
          "internalType": "address",
          "name": "newPendingOwner",
          "type": "address"
        }
      ],
      "name": "updatePendingOwner",
      "outputs": [],
      "stateMutability": "nonpayable",
      "type": "function"
    },
    {
      "inputs": [],
      "name": "validFrom",
      "outputs": [
        {
          "internalType": "uint256",
          "name": "",
          "type": "uint256"
        }
      ],
      "stateMutability": "view",
      "type": "function"
    },
    {
      "inputs": [],
      "name": "validTo",
      "outputs": [
        {
          "internalType": "uint256",
          "name": "",
          "type": "uint256"
        }
      ],
      "stateMutability": "view",
      "type": "function"
    }
  ],
  "transactionHash": "0xb8e6b56bd86f040989b42830ef09e283bcb89bb706a452a44ae913684512c17c",
  "args": [
    "0x2ff010debc1297f19579b4246cad07bd24f2488a",
    "0x226d04b3a60bee1c2d522f63a87340220b8f9d6b",
    "0x980B62Da83eFf3D4576C647993b0c1D7faf17c73",
    "0x6a9DC4F74aE37755f3b1DCc5682A4e384Ac04C6D",
    4,
    12,
    {
      "multiplierBase": "1000000000000000000",
      "bufferBase": 100000,
      "multiplierCalldata": 0,
      "bufferCalldata": 0
    },
    {
      "multiplierBase": "1000000000000000000",
      "bufferBase": 100000,
      "multiplierCalldata": 0,
      "bufferCalldata": 0
    },
    100000
  ],
  "numDeployments": 1,
  "solcInputHash": "6843dbc3e4efa0deda5341f975c68253",
  "bytecode": "0x61026034620001ce576200490a3881900390601f8201601f19168301906001600160401b03821184831017620001d3578291604052833981016101e08083830312620001ce5782516001600160a01b03908181168103620001ce5760208501519182168203620001ce576200007760408601620001e9565b926200008660608701620001e9565b95608081015160a082015196620000a18160c08501620001fe565b97620000b361014092838601620001fe565b926101c0809501519a60805260a05260c052875160e052602088015198610100998a52606060408a0151996101209a8b520151825261016090815282519161018092835260606020850151946101a09586526040810151875201518652610200968752610220978852610240988952604051996146bd9b8c6200024d8d396080518c611531015260a0518c81816117020152612aa3015260c0518c8181610f450152612b47015260e0518c613b540152518b613acf0152518a613b7c01525189613b1e01525188613af701525187613bc301525186613be601525185613c0c01525184613c3201525183818161110c0152611d6f01525182818161040501526124e00152518181816108a501528181611c8f015261249c0152f35b600080fd5b634e487b7160e01b600052604160045260246000fd5b51906001600160a01b0382168203620001ce57565b9190826080910312620001ce57604051608081016001600160401b03811182821017620001d3576040526060808294805184526020810151602085015260408101516040850152015191015256fe608060405260043610156200001357600080fd5b60003560e01c8063032bb44314620033c25780631b7d63571462002c8e5780631e298b901462001b3157806332878cc91462001abe578063344e0f8a1462001a725780633f4ba83a146200197d57806341c6a70f14620018025780634420e486146200172557806345f84c1614620016ca578063554bab3c1462001601578063556f0dc714620015555780635c60da1b14620014e45780635c975abb14620014855780636311c46414620014435780637211af6814620013a45780637bbf4a3f14620013345780638456cb59146200120f5780638da5cb5b146200119c5780639571b1ec14620011305780639c3feeb714620010bf5780639d57c43114620010825780639fa6a6e3146200103d5780639fd0506d1462000fca578063a81a26771462000f68578063a88780ef1462000f0d578063acf558b71462000e93578063b20caf451462000e20578063b32a1e5d1462000a6f578063b5ee695514620009a6578063b6a5d7de14620008c9578063b8df0dea1462000858578063b91816111462000807578063c0c53b8b146200055f578063c36e389d14620004f1578063c7f7fb90146200049d578063cd3bb38c1462000429578063d0fb020314620003b8578063e30c397814620003455763ebbc496514620001f157600080fd5b34620003405760007ffffffffffffffffffffffffffffffffffffffffffffffffffffffffffffffffc36011262000340577f675c83682abbc3e7dd47e40515a778fbbde4393395c3dd3588244203c3e47883805473ffffffffffffffffffffffffffffffffffffffff81169081330362000310577fe7742ddf0fecd2926e7ef4d6d6e91a7b2f0b1f8805b78953dac8454e86273ed255807f4ffd725fc4a22075e9ec71c59edf9c38cdeb588a91b24fc5b61388c5be41282b600080a23303620002e0576000905560007f69f201bc2089b9be6195d876d97a0136b4cf56bbf8986a52dcb50697f7d1cac58180a2005b60246040517f99bf6359000000000000000000000000000000000000000000000000000000008152336004820152fd5b60246040517fd0d5e1b0000000000000000000000000000000000000000000000000000000008152336004820152fd5b600080fd5b34620003405760007ffffffffffffffffffffffffffffffffffffffffffffffffffffffffffffffffc360112620003405760207f675c83682abbc3e7dd47e40515a778fbbde4393395c3dd3588244203c3e478835473ffffffffffffffffffffffffffffffffffffffff60405191168152f35b34620003405760007ffffffffffffffffffffffffffffffffffffffffffffffffffffffffffffffffc3601126200034057602060405173ffffffffffffffffffffffffffffffffffffffff7f0000000000000000000000000000000000000000000000000000000000000000168152f35b34620003405760007ffffffffffffffffffffffffffffffffffffffffffffffffffffffffffffffffc3601126200034057620004996200046862003ba8565b6040519182918291909160608060808301948051845260208101516020850152604081015160408501520151910152565b0390f35b34620003405760007ffffffffffffffffffffffffffffffffffffffffffffffffffffffffffffffffc3601126200034057602073ffffffffffffffffffffffffffffffffffffffff60005416604051908152f35b34620003405760207ffffffffffffffffffffffffffffffffffffffffffffffffffffffffffffffffc360112620003405773ffffffffffffffffffffffffffffffffffffffff62000541620035b8565b166000526002602052602060ff604060002054166040519015158152f35b34620003405760607ffffffffffffffffffffffffffffffffffffffffffffffffffffffffffffffffc360112620003405760043573ffffffffffffffffffffffffffffffffffffffff80821680920362000340576024359081168091036200034057620005cb620035dc565b906001907f6fee9688c285c5c5c97d6a1a29adced674e6b2ad0888b8ad2116b58a8b3ea2488281541015620007d6578290557f2801b00eb06461cf9fcb9758b5fafd884ff06a86177386f73b6c49f0bf5a5af0828155303b151580620007cd575b6200079157303b151580620007c4575b6200079157337fe7742ddf0fecd2926e7ef4d6d6e91a7b2f0b1f8805b78953dac8454e86273ed255337f4ffd725fc4a22075e9ec71c59edf9c38cdeb588a91b24fc5b61388c5be41282b600080a2303b151580620007bb575b62000791577fbe9b076dc5b65990cca9dd9d7366682482e7817a6f6bc7f4faf4dc32af497f32946020946000937f2b50211693ec91bcfe327771928b74a8f475c508d53e86fca4153bcf0f0e8776557f5b5cbfa852c5bd03e540eba853f8faf28a604a4d82bee1091096bfaea14d08c3557fffffffffffffffffffffffff000000000000000000000000000000000000000083541617825581604080516200073d81620034a0565b82815285878201520152680100000000000000006007558180526002845260408220837fffffffffffffffffffffffffffffffffffffffffffffffffffffffffffffff0082541617905555604051908152a1005b60046040517fb9a621e1000000000000000000000000000000000000000000000000000000008152fd5b50600062000695565b5060006200063c565b5060006200062c565b602483604051907f3db738da0000000000000000000000000000000000000000000000000000000082526004820152fd5b34620003405760207ffffffffffffffffffffffffffffffffffffffffffffffffffffffffffffffffc360112620003405760206200084e62000848620035b8565b62003c8f565b6040519015158152f35b34620003405760007ffffffffffffffffffffffffffffffffffffffffffffffffffffffffffffffffc3601126200034057602060405173ffffffffffffffffffffffffffffffffffffffff7f0000000000000000000000000000000000000000000000000000000000000000168152f35b34620003405760207ffffffffffffffffffffffffffffffffffffffffffffffffffffffffffffffffc360112620003405760043573ffffffffffffffffffffffffffffffffffffffff80821680920362000340577fe7742ddf0fecd2926e7ef4d6d6e91a7b2f0b1f8805b78953dac8454e86273ed25433911603620002e057806000526001602052604060002060017fffffffffffffffffffffffffffffffffffffffffffffffffffffffffffffff008254161790557f6acfd92212f0ec670af78f8ba2273e4a85ac17023475650c25be0440602bff2d600080a2005b34620003405760207ffffffffffffffffffffffffffffffffffffffffffffffffffffffffffffffffc3601126200034057620009e1620035b8565b7fe7742ddf0fecd2926e7ef4d6d6e91a7b2f0b1f8805b78953dac8454e86273ed2549073ffffffffffffffffffffffffffffffffffffffff918233911603620002e057807f675c83682abbc3e7dd47e40515a778fbbde4393395c3dd3588244203c3e4788355167f69f201bc2089b9be6195d876d97a0136b4cf56bbf8986a52dcb50697f7d1cac5600080a2005b34620003405760807ffffffffffffffffffffffffffffffffffffffffffffffffffffffffffffffffc36011262000340576024356004356040367fffffffffffffffffffffffffffffffffffffffffffffffffffffffffffffffbc0112620003405760405162000adf8162003483565b62000ae9620035dc565b8152606435908160010b820362000340576020938482019283527fe7742ddf0fecd2926e7ef4d6d6e91a7b2f0b1f8805b78953dac8454e86273ed2549073ffffffffffffffffffffffffffffffffffffffff918233911603620002e0578460005260038652816040600020541662000dcc57818351166000526002865260ff604060002054161562000df6578060005260068652604060002082845116600052865260406000205462000dcc576040517f8129fc1c00000000000000000000000000000000000000000000000000000000878201526004815262000bcd8162003483565b60405190610741908183019083821067ffffffffffffffff83111762000d9d57604062000c0c92859462003f478639308152818c8201520190620039b9565b03906000f0801562000d915782169362000c658573ffffffffffffffffffffffffffffffffffffffff166000527f81796b4965de195665289d95668a8a9e7020858e15f5341c42bcf9951c1768ad602052604060002090565b60017fffffffffffffffffffffffffffffffffffffffffffffffffffffffffffffff00825416179055847f4fe45192317a7d3ad19c3eaa395c0c3a1b7a0f53c3536fb96764c3561a8e9dad600080a285600052600387526040600020857fffffffffffffffffffffffff0000000000000000000000000000000000000000825416179055600487528160406000205560058752604060002090838551167fffffffffffffffffffff000000000000000000000000000000000000000000008354925160a01b75ffff00000000000000000000000000000000000000001692161717905560005260068552604060002091511660005283528160406000205560405191817fb37c10e9bd31f2f04a1985d7ae7c9fd566192aa02f769929da69b972f73ff995600080a38152f35b6040513d6000823e3d90fd5b7f4e487b7100000000000000000000000000000000000000000000000000000000600052604160045260246000fd5b60046040517f953ec95c000000000000000000000000000000000000000000000000000000008152fd5b60046040517fb2e11555000000000000000000000000000000000000000000000000000000008152fd5b34620003405760007ffffffffffffffffffffffffffffffffffffffffffffffffffffffffffffffffc3601126200034057602073ffffffffffffffffffffffffffffffffffffffff7f2b50211693ec91bcfe327771928b74a8f475c508d53e86fca4153bcf0f0e87765416604051908152f35b34620003405760407ffffffffffffffffffffffffffffffffffffffffffffffffffffffffffffffffc360112620003405760243573ffffffffffffffffffffffffffffffffffffffff8116809103620003405760043560005260066020526040600020906000526020526020604060002054604051908152f35b34620003405760007ffffffffffffffffffffffffffffffffffffffffffffffffffffffffffffffffc360112620003405760206040517f00000000000000000000000000000000000000000000000000000000000000008152f35b34620003405760207ffffffffffffffffffffffffffffffffffffffffffffffffffffffffffffffffc36011262000340576004356000526003602052602073ffffffffffffffffffffffffffffffffffffffff60406000205416604051908152f35b34620003405760007ffffffffffffffffffffffffffffffffffffffffffffffffffffffffffffffffc360112620003405760207f18e50ee9696440d335192aeeeffc26f47782eaa914f1700d8ad36d6d7f7261b35473ffffffffffffffffffffffffffffffffffffffff60405191168152f35b34620003405760007ffffffffffffffffffffffffffffffffffffffffffffffffffffffffffffffffc360112620003405760206200107a62003632565b604051908152f35b34620003405760007ffffffffffffffffffffffffffffffffffffffffffffffffffffffffffffffffc36011262000340576020604051610e108152f35b34620003405760007ffffffffffffffffffffffffffffffffffffffffffffffffffffffffffffffffc3601126200034057602060405173ffffffffffffffffffffffffffffffffffffffff7f0000000000000000000000000000000000000000000000000000000000000000168152f35b34620003405760207ffffffffffffffffffffffffffffffffffffffffffffffffffffffffffffffffc360112620003405760043560005260056020526040806000205481519073ffffffffffffffffffffffffffffffffffffffff8116825260a01c60010b6020820152f35b34620003405760007ffffffffffffffffffffffffffffffffffffffffffffffffffffffffffffffffc360112620003405760207fe7742ddf0fecd2926e7ef4d6d6e91a7b2f0b1f8805b78953dac8454e86273ed25473ffffffffffffffffffffffffffffffffffffffff60405191168152f35b34620003405760007ffffffffffffffffffffffffffffffffffffffffffffffffffffffffffffffffc360112620003405773ffffffffffffffffffffffffffffffffffffffff807f18e50ee9696440d335192aeeeffc26f47782eaa914f1700d8ad36d6d7f7261b35416331415908162001305575b50620012d55760017f3d13b7e57307bea7f94c474c597247d2da93d7de9136f8e123ed6525f50bbcec557f9e87fac88ff661f02d44f95383c817fece4bce600a3dab7a54406878b965e752600080a1005b60246040517ff7987a92000000000000000000000000000000000000000000000000000000008152336004820152fd5b90507fe7742ddf0fecd2926e7ef4d6d6e91a7b2f0b1f8805b78953dac8454e86273ed254163314158162001284565b34620003405760207ffffffffffffffffffffffffffffffffffffffffffffffffffffffffffffffffc360112620003405760043573ffffffffffffffffffffffffffffffffffffffff811680910362000340576000526001602052602060ff604060002054166040519015158152f35b34620003405760207ffffffffffffffffffffffffffffffffffffffffffffffffffffffffffffffffc360112620003405760006020604051620013e78162003483565b828152015260043560005260056020526040806000208151906200140b8262003483565b54602073ffffffffffffffffffffffffffffffffffffffff821692838152019060a01c60010b815282519182525160010b6020820152f35b34620003405760207ffffffffffffffffffffffffffffffffffffffffffffffffffffffffffffffffc3601126200034057620004996200046860043562003ab5565b34620003405760007ffffffffffffffffffffffffffffffffffffffffffffffffffffffffffffffffc360112620003405760207f3d13b7e57307bea7f94c474c597247d2da93d7de9136f8e123ed6525f50bbcec546040519015158152f35b34620003405760007ffffffffffffffffffffffffffffffffffffffffffffffffffffffffffffffffc3601126200034057602060405173ffffffffffffffffffffffffffffffffffffffff7f0000000000000000000000000000000000000000000000000000000000000000168152f35b34620003405760007ffffffffffffffffffffffffffffffffffffffffffffffffffffffffffffffffc36011262000340576000604080516200159781620034a0565b82815282602082015201526060604051620015b281620034a0565b6fffffffffffffffffffffffffffffffff60075467ffffffffffffffff80821693848152604060208201918385831c168352019260801c83526040519485525116602084015251166040820152f35b34620003405760207ffffffffffffffffffffffffffffffffffffffffffffffffffffffffffffffffc36011262000340576200163c620035b8565b7fe7742ddf0fecd2926e7ef4d6d6e91a7b2f0b1f8805b78953dac8454e86273ed2549073ffffffffffffffffffffffffffffffffffffffff918233911603620002e057807f18e50ee9696440d335192aeeeffc26f47782eaa914f1700d8ad36d6d7f7261b355167fa4336c0cb1e245b95ad204faed7e940d6dc999684fd8b5e1ff597a0c4efca8ab600080a2005b34620003405760007ffffffffffffffffffffffffffffffffffffffffffffffffffffffffffffffffc360112620003405760206040517f00000000000000000000000000000000000000000000000000000000000000008152f35b34620003405760207ffffffffffffffffffffffffffffffffffffffffffffffffffffffffffffffffc360112620003405762001760620035b8565b7fe7742ddf0fecd2926e7ef4d6d6e91a7b2f0b1f8805b78953dac8454e86273ed2549073ffffffffffffffffffffffffffffffffffffffff918233911603620002e05716806000526002602052604060002060017fffffffffffffffffffffffffffffffffffffffffffffffffffffffffffffff008254161790557fb74a9480da82c8aeaa0a8d11c6b669cf4523927638ab05e29c80cef6abd7d7bd600080a2005b34620003405760207ffffffffffffffffffffffffffffffffffffffffffffffffffffffffffffffffc36011262000340576004357fe7742ddf0fecd2926e7ef4d6d6e91a7b2f0b1f8805b78953dac8454e86273ed25473ffffffffffffffffffffffffffffffffffffffff33911603620002e0576200188062003632565b9080156200195357600754908160801c8311156200195357610e10811162001953577f1a5059878e785140a1fb5c714f4e1431d5ef2b6dcdd5edbdc61ffe4a76dd10459260409267ffffffffffffffff8091851c1690845190620018e482620034a0565b82825284166020820152846fffffffffffffffffffffffffffffffff84169101527fffffffffffffffffffffffffffffffff000000000000000000000000000000008260801b16906fffffffffffffffff000000000000000084861b16171760075582519182526020820152a1005b60046040517f19136990000000000000000000000000000000000000000000000000000000008152fd5b34620003405760007ffffffffffffffffffffffffffffffffffffffffffffffffffffffffffffffffc360112620003405773ffffffffffffffffffffffffffffffffffffffff807f18e50ee9696440d335192aeeeffc26f47782eaa914f1700d8ad36d6d7f7261b35416331415908162001a43575b50620012d55760007f3d13b7e57307bea7f94c474c597247d2da93d7de9136f8e123ed6525f50bbcec557fa45f47fdea8a1efdd9029a5691c7f759c32b7c698632b563573e155625d16933600080a1005b90507fe7742ddf0fecd2926e7ef4d6d6e91a7b2f0b1f8805b78953dac8454e86273ed2541633141581620019f2565b34620003405760207ffffffffffffffffffffffffffffffffffffffffffffffffffffffffffffffffc360112620003405760043560005260046020526020604060002054604051908152f35b34620003405760007ffffffffffffffffffffffffffffffffffffffffffffffffffffffffffffffffc360112620003405760207f5b5cbfa852c5bd03e540eba853f8faf28a604a4d82bee1091096bfaea14d08c35473ffffffffffffffffffffffffffffffffffffffff60405191168152f35b60607ffffffffffffffffffffffffffffffffffffffffffffffffffffffffffffffffc360112620003405760043567ffffffffffffffff8111620003405762001b7f90369060040162003552565b67ffffffffffffffff604435116200034057366023604435011215620003405767ffffffffffffffff6044356004013511620003405760443560040135604435013660248201116200034057600460443501351562002c7a57602060443582031262000340576024604435013567ffffffffffffffff81116200034057602482016043826044350101121562000340576024816044350101359162001c248362003539565b9262001c346040519485620034f7565b8084526020840192836024840160448460051b84823501010111620003405760448281350101905b60448460051b848235010101821062002c1f5750505050506040519173ffffffffffffffffffffffffffffffffffffffff7f00000000000000000000000000000000000000000000000000000000000000001660208401526020835262001cc38362003483565b6040519283917ff873a61c00000000000000000000000000000000000000000000000000000000835260448301906040600485015251809152606483019060648160051b85010194916000905b82821062002bd0575050505062001d558383927ffffffffffffffffffffffffffffffffffffffffffffffffffffffffffffffffc8460009703016024850152620039b9565b03813473ffffffffffffffffffffffffffffffffffffffff7f0000000000000000000000000000000000000000000000000000000000000000165af190811562000d915760009162002ba8575b50805182510362002b7e5762001db982516200371c565b60005b825181101562001f825762001dd28184620037d2565b5160e0818051810103126200034057602081015162001df460408301620039fe565b5062001e3e60e062001e0960608501620039fe565b9362001e186080820162003a10565b5062001e2760a0820162003a10565b5062001e3660c08201620039fe565b500162003a10565b9062001e4b8488620037d2565b516000526004602052604060002054810362001f5157507f7fffffffffffffffffffffffffffffffffffffffffffffffffffffffffffffff77ffffffffffffffffffffffffffffffffffffffffffffffff82161162001f07579077ffffffffffffffffffffffffffffffffffffffffffffffff62001f01939263ffffffff6040519362001ed88562003483565b16835216602082015262001eed8285620037d2565b5262001efa8184620037d2565b50620037a4565b62001dbc565b60249077ffffffffffffffffffffffffffffffffffffffffffffffff604051917ea07eb5000000000000000000000000000000000000000000000000000000008352166004820152fd5b602490604051907f468a1b5f0000000000000000000000000000000000000000000000000000000082526004820152fd5b509050905b6044356004013562002a9d575b60005b82518110156200222e5762001fad8183620037d2565b51600052602090600582526040600020916040519262001fcd8462003483565b549273ffffffffffffffffffffffffffffffffffffffff841680825282600192019460a01c820b8552806200218e575b508351810b600081126200218457905b604d8211620020c25762002026600092600a0a62003dd1565b9451900b121562002120576200204b81620020428488620037d2565b51015162003dd1565b928015620020f1577fffffffffffffffffffffffffffffffffffffffffffffffffffffffffffffffff81147f8000000000000000000000000000000000000000000000000000000000000000851416620020c257620020bc9305905b620020b38387620037d2565b510152620037a4565b62001f97565b7f4e487b7100000000000000000000000000000000000000000000000000000000600052601160045260246000fd5b7f4e487b7100000000000000000000000000000000000000000000000000000000600052601260045260246000fd5b806200212d8387620037d2565b510151838102937f800000000000000000000000000000000000000000000000000000000000000081146000831216620020c2578185051490151715620020c257670de0b6b3a7640000620020bc930590620020a7565b600003906200200d565b82806200219c868a620037d2565b5101516024604051809481937fd7c7a93500000000000000000000000000000000000000000000000000000000835260048301525afa90811562000d9157600091620021fb575b5082620021f18589620037d2565b5101528662001ffd565b90508281813d831162002226575b620022158183620034f7565b8101031262000340575187620021e3565b503d62002209565b5060008092602435935b83518110156200236f576200224e8185620037d2565b5160005260206003815273ffffffffffffffffffffffffffffffffffffffff604060002054168164e8d4a5100081620022888688620037d2565b5101510560646040516200229c81620034a0565b8a815283810192835260006040820195604435600401351515875260405196879586947f8fdd594700000000000000000000000000000000000000000000000000000000865251600486015251602485015251151560448401525af191821562000d91576000926200233b575b505062002322575b6200231c90620037a4565b62002238565b91620023326200231c91620037a4565b92905062002311565b6200235f9250803d1062002367575b620023568183620034f7565b81019062003816565b868062002309565b503d6200234a565b82806200237857005b620023839062003ab5565b620023af6200239f36604435600401356024604435016200386b565b6020808251830101910162003916565b60009190825b8151841015620025a857620023cb8483620037d2565b51805181019060808082840312620003405760208301603f830112156200034057604051620023fa81620034a0565b6020840182840111620003405760208301905b8284018210620025975750508101519067ffffffffffffffff821162000340576020620024449281620024859501920101620038cc565b6040519182917fe03dab1a000000000000000000000000000000000000000000000000000000008352306004840152606060248401526064830190620039b9565b73ffffffffffffffffffffffffffffffffffffffff7f00000000000000000000000000000000000000000000000000000000000000001660448301528160a0928392038173ffffffffffffffffffffffffffffffffffffffff7f0000000000000000000000000000000000000000000000000000000000000000165afa91821562000d915760009262002538575b5050620025319160206200252a9201519062003a80565b93620037a4565b92620023b5565b915091823d84116200258f575b620025518184620034f7565b820192828403126200034057602082620025838560406200257b62002531986200252a9862003a36565b930162003a36565b50925081935062002513565b503d62002545565b81518152602091820191016200240d565b92505060006020604051620025bd81620034da565b82815201526000604051620025d281620034da565b52600060208251920151911560011715620020c2576200260a91670de0b6b3a764000092839162002604489162003600565b6200361e565b049162002618838562003a80565b600460a073ffffffffffffffffffffffffffffffffffffffff7f2b50211693ec91bcfe327771928b74a8f475c508d53e86fca4153bcf0f0e87765416604051928380927ffeaf968c0000000000000000000000000000000000000000000000000000000082525afa90811562000d915760009162002a3c575b50620026a26305f5e1009162003dd1565b05906000821262002a0b57620026c59291620026be916200361e565b0462003ec5565b9173ffffffffffffffffffffffffffffffffffffffff60005416926040517fd4938db3000000000000000000000000000000000000000000000000000000008152602081600481885afa90811562000d9157600091620029d3575b5080821015620029ca5750925b803b156200034057600080916024604051809481937f379607f50000000000000000000000000000000000000000000000000000000083528960048401525af1801562000d9157620029b3575b5064e8d4a510009283810293818504149015171562002986576200288973ffffffffffffffffffffffffffffffffffffffff7f5b5cbfa852c5bd03e540eba853f8faf28a604a4d82bee1091096bfaea14d08c35416604051908480602084017fa9059cbb000000000000000000000000000000000000000000000000000000008152336024860152886044860152604485526200281785620034bd565b60405194620028268662003483565b602086527f5361666545524332303a206c6f772d6c6576656c2063616c6c206661696c65646020870152519082855af13d156200297d573d916200286a8362003830565b926200287a6040519485620034f7565b83523d87602085013e62003def565b80519081620028d8575b50506040519382855260208501526040840152606083015260808201527ffa0333956d06e335c550bd5fc4ac9c003c6545e371331b1071fa4d5d8519d6c160a03392a2005b602080620028eb93830101910162003816565b15620028f957848062002893565b60846040517f08c379a000000000000000000000000000000000000000000000000000000000815260206004820152602a60248201527f5361666545524332303a204552433230206f7065726174696f6e20646964206e60448201527f6f742073756363656564000000000000000000000000000000000000000000006064820152fd5b60609162003def565b6024827f4e487b710000000000000000000000000000000000000000000000000000000081526011600452fd5b620029c09192506200346e565b600090846200277a565b9050926200272d565b90506020813d60201162002a02575b81620029f160209383620034f7565b810103126200034057518662002720565b3d9150620029e2565b602482604051907f501f289e0000000000000000000000000000000000000000000000000000000082526004820152fd5b905060a0813d821162002a94575b8162002a5960a09383620034f7565b810103126200034057620026a28162002a776305f5e1009362003db9565b5062002a8b60806020830151920162003db9565b50915062002691565b3d915062002a4a565b906024357f000000000000000000000000000000000000000000000000000000000000000060005b835181101562002b745762002adb8185620037d2565b515162002ae9838562003a80565b11801562002b32575b62002b085762002b0290620037a4565b62002ac5565b60046040517f0afa0593000000000000000000000000000000000000000000000000000000008152fd5b5062002b3f8185620037d2565b515162002b6d7f00000000000000000000000000000000000000000000000000000000000000008562003a80565b1062002af2565b5050509062001f94565b60046040517f818bf54b000000000000000000000000000000000000000000000000000000008152fd5b62002bc991503d806000833e62002bc08183620034f7565b81019062003916565b8262001da2565b919394602062002c0e887fffffffffffffffffffffffffffffffffffffffffffffffffffffffffffffff9c8394600196989b030186528951620039b9565b970192019201869493919262001d10565b81359067ffffffffffffffff82116200034057602486016063838660443501010112156200034057604491602091829162002c6c9060248a0190863589010180870135906064016200386b565b815201920191905062001c5c565b5062002c8781516200371c565b9062001f87565b34620003405760807ffffffffffffffffffffffffffffffffffffffffffffffffffffffffffffffffc360112620003405767ffffffffffffffff600435818111620003405762002ce390369060040162003552565b60243591808311620003405736602384011215620003405782600401359162002d0c8362003539565b9362002d1c6040519586620034f7565b83855260208501906024829560051b820101903682116200034057602401915b8183106200339357505050604435828111620003405762002d6290369060040162003552565b91606435908111620003405762002d7e90369060040162003552565b9062002d8962003ba8565b9360405160a081019160806020830152835180935260c0820192602085019060005b8181106200337c575050507fffffffffffffffffffffffffffffffffffffffffffffffffffffffffffffffe09283838203016040840152602089519182815201919060005b8181106200334f57505050908062002e2d62002e1c84868462002e399897030160608501528962003c59565b848382030160808401528762003c59565b039182018152620034f7565b600060405162002e4981620034da565b525a8151801590811562003342575b811562003335575b811562003328575b50620032fe5760005b825181101562002f545762002e878184620037d2565b51600052600360205273ffffffffffffffffffffffffffffffffffffffff9081604060002054169162002ebb828a620037d2565b511662002ec98288620037d2565b5162002ed68388620037d2565b5193803b1562000340576000928360649260405197889586947f3c4c6a280000000000000000000000000000000000000000000000000000000086526004860152602485015260448401525af191821562000d915762002f3c9262002f425750620037a4565b62002e71565b62002f4d906200346e565b8862001efa565b50845a8203918211620020c25762002f909060009062002fa46020825192015162002604670de0b6b3a764000080968195620026048a62003600565b0462002f9d489362003600565b9062003a80565b0473ffffffffffffffffffffffffffffffffffffffff92600460a0857f2b50211693ec91bcfe327771928b74a8f475c508d53e86fca4153bcf0f0e87765416604051928380927ffeaf968c0000000000000000000000000000000000000000000000000000000082525afa90811562000d91576000916200329c575b50620030316305f5e1009162003dd1565b05600081126200326b5790620026be6200304c92846200361e565b928060005416936040517fd4938db3000000000000000000000000000000000000000000000000000000008152602081600481895afa90811562000d915760009162003233575b50808210156200322a5750935b803b156200034057600080916024604051809481937f379607f50000000000000000000000000000000000000000000000000000000083528a60048401525af1801562000d915762003213575b5064e8d4a5100093848102948186041490151715620031e65762003176907f5b5cbfa852c5bd03e540eba853f8faf28a604a4d82bee1091096bfaea14d08c35416604051908480602084017fa9059cbb000000000000000000000000000000000000000000000000000000008152336024860152886044860152604485526200281785620034bd565b80519081620031c5575b50506040519384528160208501526040840152606083015260808201527ffa0333956d06e335c550bd5fc4ac9c003c6545e371331b1071fa4d5d8519d6c160a03392a2005b602080620031d893830101910162003816565b15620028f957848062003180565b6024837f4e487b710000000000000000000000000000000000000000000000000000000081526011600452fd5b620032209193506200346e565b60009185620030ed565b905093620030a0565b90506020813d60201162003262575b816200325160209383620034f7565b810103126200034057518762003093565b3d915062003242565b602490604051907f501f289e0000000000000000000000000000000000000000000000000000000082526004820152fd5b905060a0813d60a011620032f5575b81620032ba60a09383620034f7565b8101031262000340576200303181620032d86305f5e1009362003db9565b50620032ec60806020830151920162003db9565b50915062003020565b3d9150620032ab565b60046040517fb043fd7b000000000000000000000000000000000000000000000000000000008152fd5b9050835114158762002e68565b8551811415915062002e60565b8751811415915062002e58565b825173ffffffffffffffffffffffffffffffffffffffff1684526020938401939092019160010162002df0565b825186526020958601959092019160010162002dab565b823573ffffffffffffffffffffffffffffffffffffffff81168103620003405781526020928301920162002d3c565b34620003405760207ffffffffffffffffffffffffffffffffffffffffffffffffffffffffffffffffc360112620003405760043573ffffffffffffffffffffffffffffffffffffffff81168103620003405760ff6200346260209273ffffffffffffffffffffffffffffffffffffffff166000527f81796b4965de195665289d95668a8a9e7020858e15f5341c42bcf9951c1768ad602052604060002090565b54166040519015158152f35b67ffffffffffffffff811162000d9d57604052565b6040810190811067ffffffffffffffff82111762000d9d57604052565b6060810190811067ffffffffffffffff82111762000d9d57604052565b6080810190811067ffffffffffffffff82111762000d9d57604052565b6020810190811067ffffffffffffffff82111762000d9d57604052565b90601f7fffffffffffffffffffffffffffffffffffffffffffffffffffffffffffffffe0910116810190811067ffffffffffffffff82111762000d9d57604052565b67ffffffffffffffff811162000d9d5760051b60200190565b81601f8201121562000340578035916200356c8362003539565b926200357c6040519485620034f7565b808452602092838086019260051b82010192831162000340578301905b828210620035a8575050505090565b8135815290830190830162003599565b6004359073ffffffffffffffffffffffffffffffffffffffff821682036200034057565b6044359073ffffffffffffffffffffffffffffffffffffffff821682036200034057565b90670de0b6b3a764000091828102928184041490151715620020c257565b81810292918115918404141715620020c257565b60075467ffffffffffffffff90608081901c4211620037115716905b6000914262003669576200366691925060006200361e565b90565b7fffffffffffffffffffffffffffffffffffffffffffffffffffffffffffffffff4201428111620036b7578115620036e45781900460018101809111620036b757620036669293506200361e565b6024847f4e487b710000000000000000000000000000000000000000000000000000000081526011600452fd5b6024847f4e487b710000000000000000000000000000000000000000000000000000000081526012600452fd5b60401c16906200364e565b90620037288262003539565b6040906200373982519182620034f7565b8381527fffffffffffffffffffffffffffffffffffffffffffffffffffffffffffffffe062003769829562003539565b0191600090815b8481106200377f575050505050565b60209082516200378f8162003483565b84815282858183015282870101520162003770565b7fffffffffffffffffffffffffffffffffffffffffffffffffffffffffffffffff8114620020c25760010190565b8051821015620037e75760209160051b010190565b7f4e487b7100000000000000000000000000000000000000000000000000000000600052603260045260246000fd5b908160209103126200034057518015158103620003405790565b67ffffffffffffffff811162000d9d57601f017fffffffffffffffffffffffffffffffffffffffffffffffffffffffffffffffe01660200190565b929192620038798262003830565b91620038896040519384620034f7565b82948184528183011162000340578281602093846000960137010152565b60005b838110620038bb5750506000910152565b8181015183820152602001620038aa565b81601f8201121562000340578051620038e58162003830565b92620038f56040519485620034f7565b818452602082840101116200034057620036669160208085019101620038a7565b9060209081838203126200034057825167ffffffffffffffff9384821162000340570181601f8201121562000340578051620039528162003539565b94620039626040519687620034f7565b818652848087019260051b840101938085116200034057858401925b85841062003990575050505050505090565b835183811162000340578791620039ad848480948a0101620038cc565b8152019301926200397e565b907fffffffffffffffffffffffffffffffffffffffffffffffffffffffffffffffe0601f602093620039f781518092818752878088019101620038a7565b0116010190565b519063ffffffff821682036200034057565b519077ffffffffffffffffffffffffffffffffffffffffffffffff821682036200034057565b9190826040910312620003405760405162003a518162003483565b8092805173ffffffffffffffffffffffffffffffffffffffff8116810362000340578252602090810151910152565b91908201809211620020c257565b6040519062003a9d82620034bd565b60006060838281528260208201528260408201520152565b62003abf62003a8e565b5062003b4362003b1c62003af4837f00000000000000000000000000000000000000000000000000000000000000006200361e565b927f00000000000000000000000000000000000000000000000000000000000000006200361e565b7f000000000000000000000000000000000000000000000000000000000000000062003a80565b6040519162003b5283620034bd565b7f0000000000000000000000000000000000000000000000000000000000000000835260208301527f00000000000000000000000000000000000000000000000000000000000000006040830152606082015290565b62003bb262003a8e565b5060405162003bc181620034bd565b7f000000000000000000000000000000000000000000000000000000000000000081527f000000000000000000000000000000000000000000000000000000000000000060208201527f000000000000000000000000000000000000000000000000000000000000000060408201527f0000000000000000000000000000000000000000000000000000000000000000606082015290565b90815180825260208080930193019160005b82811062003c7a575050505090565b83518552938101939281019260010162003c6b565b6040517fc45a015500000000000000000000000000000000000000000000000000000000815273ffffffffffffffffffffffffffffffffffffffff918216916020918281600481875afa90811562000d915760009162003d75575b501691604051907f032bb44300000000000000000000000000000000000000000000000000000000825260048201528181602481865afa90811562000d915760009162003d53575b501562003d4c576001916000525260ff6040600020541690565b5050600090565b62003d6e9150823d84116200236757620023568183620034f7565b3862003d32565b8381813d831162003db1575b62003d8d8183620034f7565b8101031262003dad575190828216820362003daa57503862003cea565b80fd5b5080fd5b503d62003d81565b519069ffffffffffffffffffff821682036200034057565b90670de0b6b3a764000091828102928184051490151715620020c257565b9192901562003e6d575081511562003e05575090565b3b1562003e0f5790565b60646040517f08c379a000000000000000000000000000000000000000000000000000000000815260206004820152601d60248201527f416464726573733a2063616c6c20746f206e6f6e2d636f6e74726163740000006044820152fd5b82519091501562003e815750805190602001fd5b62003ec1906040519182917f08c379a0000000000000000000000000000000000000000000000000000000008352602060048401526024830190620039b9565b0390fd5b6000908062003ed5575050600090565b7fffffffffffffffffffffffffffffffffffffffffffffffffffffffffffffffff8101908111620029865764e8d4a510009004906001820180921162003f19575090565b807f4e487b7100000000000000000000000000000000000000000000000000000000602492526011600452fdfe608060409080825261074180380380916100198285610350565b8339810190828183031261034b5761003081610373565b6020828101516001600160401b039391929184821161034b57019084601f8301121561034b5781519161006283610387565b9261006f88519485610350565b8084528484019685828401011161034b57868561008c93016103a2565b803b156102f9578551635c60da1b60e01b80825292916001600160a01b0316908481600481855afa9081156102ee576000916102b9575b503b1561025c577fa3f0ad74e5423aebfd80d3ef4346578335a9a72aeaee59ff6cb3582b35133d5080546001600160a01b03191682179055865192817f1cf3b03a6cf19fa2baba4df148e9dcabedea7f8a5c07840e207e5c089be95d3e600080a2825115801590610254575b610142575b87516102c890816104798239f35b6004848693819382525afa9182156102495760009261020f575b5085519360608501908111858210176101f9578652602784527f416464726573733a206c6f772d6c6576656c2064656c65676174652063616c6c83850152660819985a5b195960ca1b84870152516101e3946000918291845af4903d156101f0573d6101c781610387565b906101d488519283610350565b8152600081943d92013e6103c5565b5038808080808080610134565b606092506103c5565b634e487b7160e01b600052604160045260246000fd5b90918382813d8311610242575b6102268183610350565b8101031261023f575061023890610373565b903861015c565b80fd5b503d61021c565b86513d6000823e3d90fd5b50600061012f565b865162461bcd60e51b815260048101859052603060248201527f455243313936373a20626561636f6e20696d706c656d656e746174696f6e206960448201526f1cc81b9bdd08184818dbdb9d1c9858dd60821b6064820152608490fd5b908582813d83116102e7575b6102cf8183610350565b8101031261023f57506102e190610373565b386100c3565b503d6102c5565b88513d6000823e3d90fd5b855162461bcd60e51b815260048101849052602560248201527f455243313936373a206e657720626561636f6e206973206e6f74206120636f6e6044820152641d1c9858dd60da1b6064820152608490fd5b600080fd5b601f909101601f19168101906001600160401b038211908210176101f957604052565b51906001600160a01b038216820361034b57565b6001600160401b0381116101f957601f01601f191660200190565b60005b8381106103b55750506000910152565b81810151838201526020016103a5565b9192901561042757508151156103d9575090565b3b156103e25790565b60405162461bcd60e51b815260206004820152601d60248201527f416464726573733a2063616c6c20746f206e6f6e2d636f6e74726163740000006044820152606490fd5b82519091501561043a5750805190602001fd5b6044604051809262461bcd60e51b82526020600483015261046a81518092816024860152602086860191016103a2565b601f01601f19168101030190fdfe6080806040523661011d5760208160048173ffffffffffffffffffffffffffffffffffffffff7fa3f0ad74e5423aebfd80d3ef4346578335a9a72aeaee59ff6cb3582b35133d5054167f5c60da1b0000000000000000000000000000000000000000000000000000000082525afa90811561011157600091610082575b506101f5565b6020903d8211610109575b7fffffffffffffffffffffffffffffffffffffffffffffffffffffffffffffffe0601f830116810181811067ffffffffffffffff8211176100dc576100d6935060405201610214565b3861007c565b6024847f4e487b710000000000000000000000000000000000000000000000000000000081526041600452fd5b3d915061008d565b6040513d6000823e3d90fd5b6004602073ffffffffffffffffffffffffffffffffffffffff7fa3f0ad74e5423aebfd80d3ef4346578335a9a72aeaee59ff6cb3582b35133d505416604051928380927f5c60da1b0000000000000000000000000000000000000000000000000000000082525afa9081156101115760009161019957506101f5565b60203d81116101ee575b7fffffffffffffffffffffffffffffffffffffffffffffffffffffffffffffffe0601f820116820182811067ffffffffffffffff8211176100dc576100d69350604052810190610266565b503d6101a3565b6000808092368280378136915af43d82803e15610210573d90f35b3d90fd5b7fffffffffffffffffffffffffffffffffffffffffffffffffffffffffffffff8060209101126102615760805173ffffffffffffffffffffffffffffffffffffffff811681036102615790565b600080fd5b90816020910312610261575173ffffffffffffffffffffffffffffffffffffffff81168103610261579056fea2646970667358221220daf86900acfb28e586ea058dac4858519c232f66a9b314650fd6d1ad7f6a688964736f6c63430008130033a264697066735822122071303bbaaef9a1ee65c646b602d50096fd1877174cf936af6f7ba5391ee9bfbf64736f6c63430008130033",
  "devdoc": {
    "kind": "dev",
    "methods": {
      "acceptOwner()": {
        "details": "Can only be called by the pending owner to ensure correctness. Calls to the `_beforeAcceptOwner` hook      to perform logic before updating ownership."
      },
      "authorize(address)": {
        "params": {
          "factory": "The factory to authorize"
        }
      },
      "authorized(address)": {
        "params": {
          "caller": "The caller to check"
        },
        "returns": {
          "_0": "Whether the caller is authorized"
        }
      },
      "commit(bytes32[],uint256,bytes)": {
        "details": "Accepts both requested and non-requested versions.      Requested versions will pay out a keeper fee, non-requested versions will not.      Accepts any publish time in the underlying price message, as long as it is within the validity window,      which means its possible for publish times to be slightly out of order with respect to versions.      Batched updates are supported by passing in a list of price feed ids along with a valid batch update data.",
        "params": {
          "data": "The update data to commit",
          "ids": "The list of price feed ids to commit",
          "version": "The oracle version to commit"
        }
      },
      "constructor": {
        "params": {
          "chainlink_": "Chainlink verifier contract",
          "commitKeepConfig_": "Parameter configuration for commit keeper incentivization",
          "feeTokenAddress_": "Fee token address",
          "implementation_": "IKeeperOracle implementation contract",
          "settleKeepConfig_": "Parameter configuration for settle keeper incentivization",
          "validFrom_": "The minimum time after a version that a keeper update can be valid",
          "validTo_": "The maximum time after a version that a keeper update can be valid"
        }
      },
      "create(bytes32,bytes32,(address,int16))": {
        "params": {
          "id": "The id of the oracle to create",
          "payoff": "The payoff provider for the oracle",
          "underlyingId": "The underlying id of the oracle to create"
        },
        "returns": {
          "newOracle": "The newly created oracle instance"
        }
      },
      "current()": {
        "details": "Rounded up to the nearest granularity",
        "returns": {
          "_0": "The current timestamp"
        }
      },
      "granularity()": {
        "returns": {
          "_0": "The granularity"
        }
      },
      "initialize(address,address,address)": {
        "params": {
          "oracleFactory_": "The root oracle factory"
        }
      },
      "instances(address)": {
        "params": {
          "instance": "The instance to check"
        },
        "returns": {
          "_0": "Whether the instance is valid"
        }
      },
      "pause()": {
        "details": "Can only be called by the pauser"
      },
      "register(address)": {
        "params": {
          "payoff": "The payoff provider to register"
        }
      },
      "settle(bytes32[],address[],uint256[],uint256[])": {
        "details": "Pays out a keeper incentive if all supplied local settlement callbacks succeed      Each array must be the same length, each index is a separate corresponding callback entry",
        "params": {
          "ids": "The list of price feed ids to settle",
          "markets": "The list of markets to settle",
          "maxCounts": "The list of maximum number of settlement callbacks to perform before exiting",
          "versions": "The list of versions to settle"
        }
      },
      "toUnderlyingPayoff(bytes32)": {
        "params": {
          "id": "The id to lookup"
        },
        "returns": {
          "_0": "The payoff definition"
        }
      },
      "unpause()": {
        "details": "Can only be called by the pauser"
      },
      "updateGranularity(uint256)": {
        "params": {
          "newGranularity": "The new granularity"
        }
      },
      "updatePauser(address)": {
        "details": "Can only be called by the current owner",
        "params": {
          "newPauser": "New pauser address"
        }
      },
      "updatePendingOwner(address)": {
        "details": "Can only be called by the current owner      New owner does not take affect until that address calls `acceptOwner()`",
        "params": {
          "newPendingOwner": "New pending owner address"
        }
      }
    },
    "stateVariables": {
      "chainlink": {
        "details": "Chainlink verifier contract"
      },
      "feeManager": {
        "details": "Chainlink fee manager contract"
      },
      "feeTokenAddress": {
        "details": "Fee token address"
      }
    },
    "title": "ChainlinkFactory",
    "version": 1
  },
  "userdoc": {
    "kind": "user",
    "methods": {
      "acceptOwner()": {
        "notice": "Accepts and transfers the ownership of the contract to the pending owner"
      },
      "authorize(address)": {
        "notice": "Authorizes a factory's instances to request from this factory's instances"
      },
      "authorized(address)": {
        "notice": "Returns whether a caller is authorized to request from this factory's instances"
      },
      "commit(bytes32[],uint256,bytes)": {
        "notice": "Commits the price to specified version"
      },
      "commitKeepConfig(uint256)": {
        "notice": "Returns the keep config for commit"
      },
      "constructor": {
        "notice": "Initializes the immutable contract state"
      },
      "create(bytes32,bytes32,(address,int16))": {
        "notice": "Creates a new oracle instance"
      },
      "current()": {
        "notice": "Returns the current timestamp"
      },
      "granularity()": {
        "notice": "Returns the granularity"
      },
      "implementation()": {
        "notice": "The instance implementation address"
      },
      "initialize(address,address,address)": {
        "notice": "Initializes the contract state"
      },
      "instances(address)": {
        "notice": "Returns whether the instance is valid"
      },
      "pause()": {
        "notice": "Pauses the contract"
      },
      "register(address)": {
        "notice": "Authorizes a factory's instances to request from this factory's instances"
      },
      "settle(bytes32[],address[],uint256[],uint256[])": {
        "notice": "Performs a list of local settlement callbacks"
      },
      "settleKeepConfig()": {
        "notice": "Returns the keep config for settle"
      },
      "toUnderlyingPayoff(bytes32)": {
        "notice": "Returns the payoff definition for the specified id"
      },
      "unpause()": {
        "notice": "Unpauses the contract"
      },
      "updateGranularity(uint256)": {
        "notice": "Updates the granularity"
      },
      "updatePauser(address)": {
        "notice": "Updates the new pauser"
      },
      "updatePendingOwner(address)": {
        "notice": "Updates the new pending owner"
      }
    },
    "notice": "Factory contract for creating and managing Chainlink oracles",
    "version": 1
  },
  "storageLayout": {
    "storage": [
      {
        "astId": 4221,
        "contract": "@equilibria/perennial-v2-oracle/contracts/chainlink/ChainlinkFactory.sol:ChainlinkFactory",
        "label": "oracleFactory",
        "offset": 0,
        "slot": "0",
        "type": "t_contract(IOracleFactory)4134"
      },
      {
        "astId": 4227,
        "contract": "@equilibria/perennial-v2-oracle/contracts/chainlink/ChainlinkFactory.sol:ChainlinkFactory",
        "label": "callers",
        "offset": 0,
        "slot": "1",
        "type": "t_mapping(t_contract(IFactory)26735,t_bool)"
      },
      {
        "astId": 4233,
        "contract": "@equilibria/perennial-v2-oracle/contracts/chainlink/ChainlinkFactory.sol:ChainlinkFactory",
        "label": "payoffs",
        "offset": 0,
        "slot": "2",
        "type": "t_mapping(t_contract(IPayoffProvider)4147,t_bool)"
      },
      {
        "astId": 4239,
        "contract": "@equilibria/perennial-v2-oracle/contracts/chainlink/ChainlinkFactory.sol:ChainlinkFactory",
        "label": "oracles",
        "offset": 0,
        "slot": "3",
        "type": "t_mapping(t_bytes32,t_contract(IOracleProvider)14479)"
      },
      {
        "astId": 4244,
        "contract": "@equilibria/perennial-v2-oracle/contracts/chainlink/ChainlinkFactory.sol:ChainlinkFactory",
        "label": "toUnderlyingId",
        "offset": 0,
        "slot": "4",
        "type": "t_mapping(t_bytes32,t_bytes32)"
      },
      {
        "astId": 4250,
        "contract": "@equilibria/perennial-v2-oracle/contracts/chainlink/ChainlinkFactory.sol:ChainlinkFactory",
        "label": "_toUnderlyingPayoff",
        "offset": 0,
        "slot": "5",
        "type": "t_mapping(t_bytes32,t_struct(PayoffDefinition)3673_storage)"
      },
      {
        "astId": 4258,
        "contract": "@equilibria/perennial-v2-oracle/contracts/chainlink/ChainlinkFactory.sol:ChainlinkFactory",
        "label": "fromUnderlying",
        "offset": 0,
        "slot": "6",
        "type": "t_mapping(t_bytes32,t_mapping(t_contract(IPayoffProvider)4147,t_bytes32))"
      },
      {
        "astId": 4262,
        "contract": "@equilibria/perennial-v2-oracle/contracts/chainlink/ChainlinkFactory.sol:ChainlinkFactory",
        "label": "_granularity",
        "offset": 0,
        "slot": "7",
        "type": "t_struct(Granularity)3667_storage"
      }
    ],
    "types": {
      "t_bool": {
        "encoding": "inplace",
        "label": "bool",
        "numberOfBytes": "1"
      },
      "t_bytes32": {
        "encoding": "inplace",
        "label": "bytes32",
        "numberOfBytes": "32"
      },
      "t_contract(IFactory)26735": {
        "encoding": "inplace",
        "label": "contract IFactory",
        "numberOfBytes": "20"
      },
      "t_contract(IOracleFactory)4134": {
        "encoding": "inplace",
        "label": "contract IOracleFactory",
        "numberOfBytes": "20"
      },
      "t_contract(IOracleProvider)14479": {
        "encoding": "inplace",
        "label": "contract IOracleProvider",
        "numberOfBytes": "20"
      },
      "t_contract(IPayoffProvider)4147": {
        "encoding": "inplace",
        "label": "contract IPayoffProvider",
        "numberOfBytes": "20"
      },
      "t_int16": {
        "encoding": "inplace",
        "label": "int16",
        "numberOfBytes": "2"
      },
      "t_mapping(t_bytes32,t_bytes32)": {
        "encoding": "mapping",
        "key": "t_bytes32",
        "label": "mapping(bytes32 => bytes32)",
        "numberOfBytes": "32",
        "value": "t_bytes32"
      },
      "t_mapping(t_bytes32,t_contract(IOracleProvider)14479)": {
        "encoding": "mapping",
        "key": "t_bytes32",
        "label": "mapping(bytes32 => contract IOracleProvider)",
        "numberOfBytes": "32",
        "value": "t_contract(IOracleProvider)14479"
      },
      "t_mapping(t_bytes32,t_mapping(t_contract(IPayoffProvider)4147,t_bytes32))": {
        "encoding": "mapping",
        "key": "t_bytes32",
        "label": "mapping(bytes32 => mapping(contract IPayoffProvider => bytes32))",
        "numberOfBytes": "32",
        "value": "t_mapping(t_contract(IPayoffProvider)4147,t_bytes32)"
      },
      "t_mapping(t_bytes32,t_struct(PayoffDefinition)3673_storage)": {
        "encoding": "mapping",
        "key": "t_bytes32",
        "label": "mapping(bytes32 => struct IKeeperFactory.PayoffDefinition)",
        "numberOfBytes": "32",
        "value": "t_struct(PayoffDefinition)3673_storage"
      },
      "t_mapping(t_contract(IFactory)26735,t_bool)": {
        "encoding": "mapping",
        "key": "t_contract(IFactory)26735",
        "label": "mapping(contract IFactory => bool)",
        "numberOfBytes": "32",
        "value": "t_bool"
      },
      "t_mapping(t_contract(IPayoffProvider)4147,t_bool)": {
        "encoding": "mapping",
        "key": "t_contract(IPayoffProvider)4147",
        "label": "mapping(contract IPayoffProvider => bool)",
        "numberOfBytes": "32",
        "value": "t_bool"
      },
      "t_mapping(t_contract(IPayoffProvider)4147,t_bytes32)": {
        "encoding": "mapping",
        "key": "t_contract(IPayoffProvider)4147",
        "label": "mapping(contract IPayoffProvider => bytes32)",
        "numberOfBytes": "32",
        "value": "t_bytes32"
      },
      "t_struct(Granularity)3667_storage": {
        "encoding": "inplace",
        "label": "struct IKeeperFactory.Granularity",
        "members": [
          {
            "astId": 3662,
            "contract": "@equilibria/perennial-v2-oracle/contracts/chainlink/ChainlinkFactory.sol:ChainlinkFactory",
            "label": "latestGranularity",
            "offset": 0,
            "slot": "0",
            "type": "t_uint64"
          },
          {
            "astId": 3664,
            "contract": "@equilibria/perennial-v2-oracle/contracts/chainlink/ChainlinkFactory.sol:ChainlinkFactory",
            "label": "currentGranularity",
            "offset": 8,
            "slot": "0",
            "type": "t_uint64"
          },
          {
            "astId": 3666,
            "contract": "@equilibria/perennial-v2-oracle/contracts/chainlink/ChainlinkFactory.sol:ChainlinkFactory",
            "label": "effectiveAfter",
            "offset": 16,
            "slot": "0",
            "type": "t_uint128"
          }
        ],
        "numberOfBytes": "32"
      },
      "t_struct(PayoffDefinition)3673_storage": {
        "encoding": "inplace",
        "label": "struct IKeeperFactory.PayoffDefinition",
        "members": [
          {
            "astId": 3670,
            "contract": "@equilibria/perennial-v2-oracle/contracts/chainlink/ChainlinkFactory.sol:ChainlinkFactory",
            "label": "provider",
            "offset": 0,
            "slot": "0",
            "type": "t_contract(IPayoffProvider)4147"
          },
          {
            "astId": 3672,
            "contract": "@equilibria/perennial-v2-oracle/contracts/chainlink/ChainlinkFactory.sol:ChainlinkFactory",
            "label": "decimals",
            "offset": 20,
            "slot": "0",
            "type": "t_int16"
          }
        ],
        "numberOfBytes": "32"
      },
      "t_uint128": {
        "encoding": "inplace",
        "label": "uint128",
        "numberOfBytes": "16"
      },
      "t_uint64": {
        "encoding": "inplace",
        "label": "uint64",
        "numberOfBytes": "8"
      }
    }
  }
}