{
  "address": "0x0416c99eB346F461ee2a22A256F3B8e398117a67",
  "abi": [
    {
      "inputs": [
        {
          "internalType": "contract AggregatorV3Interface",
          "name": "feed",
          "type": "address"
        },
        {
          "internalType": "uint256",
          "name": "decimals",
          "type": "uint256"
        },
        {
          "internalType": "uint256",
          "name": "computeGas",
          "type": "uint256"
        },
        {
          "internalType": "UFixed18",
          "name": "computeMultiplier",
          "type": "uint256"
        },
        {
          "internalType": "uint256",
          "name": "computeBase",
          "type": "uint256"
        },
        {
          "internalType": "uint256",
          "name": "calldataGas",
          "type": "uint256"
        },
        {
          "internalType": "UFixed18",
          "name": "calldataMultiplier",
          "type": "uint256"
        },
        {
          "internalType": "uint256",
          "name": "calldataBase",
          "type": "uint256"
        }
      ],
      "stateMutability": "nonpayable",
      "type": "constructor"
    },
    {
      "inputs": [
        {
          "internalType": "int256",
          "name": "value",
          "type": "int256"
        }
      ],
      "name": "UFixed18UnderflowError",
      "type": "error"
    },
    {
      "inputs": [],
      "name": "CALLDATA_GAS",
      "outputs": [
        {
          "internalType": "UFixed18",
          "name": "",
          "type": "uint256"
        }
      ],
      "stateMutability": "view",
      "type": "function"
    },
    {
      "inputs": [],
      "name": "COMPUTE_GAS",
      "outputs": [
        {
          "internalType": "UFixed18",
          "name": "",
          "type": "uint256"
        }
      ],
      "stateMutability": "view",
      "type": "function"
    },
    {
      "inputs": [],
      "name": "FEED",
      "outputs": [
        {
          "internalType": "contract AggregatorV3Interface",
          "name": "",
          "type": "address"
        }
      ],
      "stateMutability": "view",
      "type": "function"
    },
    {
      "inputs": [],
      "name": "FEED_OFFSET",
      "outputs": [
        {
          "internalType": "int256",
          "name": "",
          "type": "int256"
        }
      ],
      "stateMutability": "view",
      "type": "function"
    },
    {
      "inputs": [
        {
          "internalType": "uint256",
          "name": "value",
          "type": "uint256"
        }
      ],
      "name": "cost",
      "outputs": [
        {
          "internalType": "UFixed18",
          "name": "",
          "type": "uint256"
        }
      ],
      "stateMutability": "view",
      "type": "function"
    }
  ],
  "transactionHash": "0xe9b82f80ff3f548c8805deb7eeb03452f0e7613d7d623c555e4b771cab2e7e83",
  "args": [
    "0xd30e2101a97dcbAeBCBC04F14C3f624E67A35165",
    8,
    "788000",
    "1050000000000000000",
    "50000",
    "35200",
    "1050000000000000000",
    "0"
  ],
  "numDeployments": 4,
  "solcInputHash": "dc16fd0d81ad66f04852c4973b71ffeb",
  "bytecode": "0x6101003461010457601f6107a638819003918201601f19168301916001600160401b0383118484101761010857808492610100946040528339810103126101045780516001600160a01b038116810361010457602082015191604081015192606082015190608083015160a08401519260e060c08601519501519560c052604d83116100f0576100a09661009893600a0a60e05261011c565b60805261011c565b60a0526040516106339081610173823960805181818160eb0152610446015260a051818181610151015261049e015260c0518181816101ca0152610509015260e051818181608b01526101fd0152f35b634e487b7160e01b5f52601160045260245ffd5b5f80fd5b634e487b7160e01b5f52604160045260245ffd5b61012590610155565b8181029181830414901517156100f057670de0b6b3a7640000610149910491610155565b81018091116100f05790565b90670de0b6b3a7640000918281029281840414901517156100f05756fe6080604090808252600480361015610015575f80fd5b5f3560e01c9182630beaf38c146104c1575081632e3b37711461046957816338c05edf146104115781639097548d146100b2575063fa91477214610057575f80fd5b346100ae575f7ffffffffffffffffffffffffffffffffffffffffffffffffffffffffffffffffc3601126100ae57602090517f00000000000000000000000000000000000000000000000000000000000000008152f35b5f80fd5b82346100ae57602091827ffffffffffffffffffffffffffffffffffffffffffffffffffffffffffffffffc3601126100ae5780356101107f00000000000000000000000000000000000000000000000000000000000000004861052d565b83517ff5d6ded700000000000000000000000000000000000000000000000000000000815285818581606c5afa8015610407575f906103d8575b61017691507f00000000000000000000000000000000000000000000000000000000000000009061052d565b9082018092116103ac5781018091116103805782517ffeaf968c00000000000000000000000000000000000000000000000000000000815260a081848173ffffffffffffffffffffffffffffffffffffffff7f0000000000000000000000000000000000000000000000000000000000000000165afa908115610376575f9161032a575b507f000000000000000000000000000000000000000000000000000000000000000090670de0b6b3a7640000908181029181830514901517156102d25781156102fe577fffffffffffffffffffffffffffffffffffffffffffffffffffffffffffffffff82147f80000000000000000000000000000000000000000000000000000000000000008214166102d25705915f83126102a357509061029c9161052d565b9051908152f35b602490838551917f501f289e000000000000000000000000000000000000000000000000000000008352820152fd5b6011847f4e487b71000000000000000000000000000000000000000000000000000000005f525260245ffd5b6012847f4e487b71000000000000000000000000000000000000000000000000000000005f525260245ffd5b905060a0813d60a01161036e575b8161034560a09383610578565b810103126100ae57610356816105e6565b5061036760808683015192016105e6565b50856101fa565b3d9150610338565b84513d5f823e3d90fd5b6011827f4e487b71000000000000000000000000000000000000000000000000000000005f525260245ffd5b6011837f4e487b71000000000000000000000000000000000000000000000000000000005f525260245ffd5b508581813d8311610400575b6103ee8183610578565b810103126100ae57610176905161014a565b503d6103e4565b85513d5f823e3d90fd5b82346100ae575f7ffffffffffffffffffffffffffffffffffffffffffffffffffffffffffffffffc3601126100ae57602090517f00000000000000000000000000000000000000000000000000000000000000008152f35b82346100ae575f7ffffffffffffffffffffffffffffffffffffffffffffffffffffffffffffffffc3601126100ae57602090517f00000000000000000000000000000000000000000000000000000000000000008152f35b346100ae575f7ffffffffffffffffffffffffffffffffffffffffffffffffffffffffffffffffc3601126100ae5760209073ffffffffffffffffffffffffffffffffffffffff7f0000000000000000000000000000000000000000000000000000000000000000168152f35b81810291818304149015171561054b57670de0b6b3a7640000900490565b7f4e487b71000000000000000000000000000000000000000000000000000000005f52601160045260245ffd5b90601f7fffffffffffffffffffffffffffffffffffffffffffffffffffffffffffffffe0910116810190811067ffffffffffffffff8211176105b957604052565b7f4e487b71000000000000000000000000000000000000000000000000000000005f52604160045260245ffd5b519069ffffffffffffffffffff821682036100ae5756fea264697066735822122068518e1add8cc9ccc8399dff9cbe842b6c1c39db45cd6de5ac1994a3e9fb304564736f6c63430008180033",
  "devdoc": {
    "kind": "dev",
    "methods": {
      "cost(uint256)": {
        "params": {
          "value": "The ether value of the transaction in addition to the gas cost rewarded"
        },
        "returns": {
          "_0": "The reward of the transaction"
        }
      }
    },
    "version": 1
  },
  "userdoc": {
    "kind": "user",
    "methods": {
      "CALLDATA_GAS()": {
        "notice": "The total calldata gas rewarded"
      },
      "COMPUTE_GAS()": {
        "notice": "The total compute gas rewarded"
      },
      "FEED()": {
        "notice": "Chainlink ETH-Token feed, where cost is expressed in terms of Token"
      },
      "FEED_OFFSET()": {
        "notice": "The precomputed offset of the Chainlink feed (10 ^ decimals)"
      },
      "cost(uint256)": {
        "notice": "Computes the reward of a transaction"
      }
    },
    "version": 1
  },
  "storageLayout": {
    "storage": [],
    "types": null
  }
}