{
  "address": "0x8238fC11566d092aB15103E54E6e30fA2544af7d",
  "abi": [
    {
      "inputs": [
        {
          "internalType": "address",
          "name": "implementation",
          "type": "address"
        },
        {
          "components": [
            {
              "internalType": "UFixed18",
              "name": "multiplierBase",
              "type": "uint256"
            },
            {
              "internalType": "uint256",
              "name": "bufferBase",
              "type": "uint256"
            },
            {
              "internalType": "UFixed18",
              "name": "multiplierCalldata",
              "type": "uint256"
            },
            {
              "internalType": "uint256",
              "name": "bufferCalldata",
              "type": "uint256"
            }
          ],
          "internalType": "struct IKept.KeepConfig",
          "name": "keepConfig",
          "type": "tuple"
        },
        {
          "internalType": "contract IVerifierBase",
          "name": "nonceManager",
          "type": "address"
        }
      ],
      "stateMutability": "nonpayable",
      "type": "constructor"
    },
    {
      "inputs": [],
      "name": "ControllerGroupBalancedError",
      "type": "error"
    },
    {
      "inputs": [],
      "name": "ControllerInvalidRebalanceConfigError",
      "type": "error"
    },
    {
      "inputs": [],
      "name": "ControllerInvalidRebalanceGroupError",
      "type": "error"
    },
    {
      "inputs": [],
      "name": "ControllerInvalidRebalanceMarketsError",
      "type": "error"
    },
    {
      "inputs": [],
      "name": "ControllerInvalidRebalanceTargetsError",
      "type": "error"
    },
    {
      "inputs": [],
      "name": "ControllerInvalidSignerError",
      "type": "error"
    },
    {
      "inputs": [
        {
          "internalType": "contract IMarket",
          "name": "market",
          "type": "address"
        },
        {
          "internalType": "uint256",
          "name": "group",
          "type": "uint256"
        }
      ],
      "name": "ControllerMarketAlreadyInGroupError",
      "type": "error"
    },
    {
      "inputs": [
        {
          "internalType": "contract IMarket",
          "name": "market",
          "type": "address"
        }
      ],
      "name": "ControllerUnsupportedMarketError",
      "type": "error"
    },
    {
      "inputs": [],
      "name": "FactoryNotInstanceError",
      "type": "error"
    },
    {
      "inputs": [
        {
          "internalType": "uint256",
          "name": "version",
          "type": "uint256"
        }
      ],
      "name": "InitializableAlreadyInitializedError",
      "type": "error"
    },
    {
      "inputs": [],
      "name": "InitializableNotInitializingError",
      "type": "error"
    },
    {
      "inputs": [],
      "name": "InitializableZeroVersionError",
      "type": "error"
    },
    {
      "inputs": [],
      "name": "OwnableAlreadyInitializedError",
      "type": "error"
    },
    {
      "inputs": [
        {
          "internalType": "address",
          "name": "sender",
          "type": "address"
        }
      ],
      "name": "OwnableNotOwnerError",
      "type": "error"
    },
    {
      "inputs": [
        {
          "internalType": "address",
          "name": "sender",
          "type": "address"
        }
      ],
      "name": "OwnableNotPendingOwnerError",
      "type": "error"
    },
    {
      "inputs": [
        {
          "internalType": "address",
          "name": "sender",
          "type": "address"
        }
      ],
      "name": "PausableNotPauserError",
      "type": "error"
    },
    {
      "inputs": [],
      "name": "PausablePausedError",
      "type": "error"
    },
    {
      "inputs": [
        {
          "internalType": "int256",
          "name": "value",
          "type": "int256"
        }
      ],
      "name": "UFixed18UnderflowError",
      "type": "error"
    },
    {
      "anonymous": false,
      "inputs": [
        {
          "indexed": true,
          "internalType": "address",
          "name": "owner",
          "type": "address"
        },
        {
          "indexed": true,
          "internalType": "contract IAccount",
          "name": "account",
          "type": "address"
        }
      ],
      "name": "AccountDeployed",
      "type": "event"
    },
    {
      "anonymous": false,
      "inputs": [
        {
          "indexed": true,
          "internalType": "address",
          "name": "owner",
          "type": "address"
        },
        {
          "indexed": true,
          "internalType": "uint256",
          "name": "group",
          "type": "uint256"
        }
      ],
      "name": "GroupRebalanced",
      "type": "event"
    },
    {
      "anonymous": false,
      "inputs": [
        {
          "indexed": false,
          "internalType": "uint256",
          "name": "version",
          "type": "uint256"
        }
      ],
      "name": "Initialized",
      "type": "event"
    },
    {
      "anonymous": false,
      "inputs": [
        {
          "indexed": true,
          "internalType": "contract IInstance",
          "name": "instance",
          "type": "address"
        }
      ],
      "name": "InstanceRegistered",
      "type": "event"
    },
    {
      "anonymous": false,
      "inputs": [
        {
          "indexed": true,
          "internalType": "address",
          "name": "sender",
          "type": "address"
        },
        {
          "indexed": false,
          "internalType": "uint256",
          "name": "applicableGas",
          "type": "uint256"
        },
        {
          "indexed": false,
          "internalType": "uint256",
          "name": "applicableValue",
          "type": "uint256"
        },
        {
          "indexed": false,
          "internalType": "UFixed18",
          "name": "baseFee",
          "type": "uint256"
        },
        {
          "indexed": false,
          "internalType": "UFixed18",
          "name": "calldataFee",
          "type": "uint256"
        },
        {
          "indexed": false,
          "internalType": "UFixed18",
          "name": "keeperFee",
          "type": "uint256"
        }
      ],
      "name": "KeeperCall",
      "type": "event"
    },
    {
      "anonymous": false,
      "inputs": [
        {
          "indexed": true,
          "internalType": "address",
          "name": "newOwner",
          "type": "address"
        }
      ],
      "name": "OwnerUpdated",
      "type": "event"
    },
    {
      "anonymous": false,
      "inputs": [],
      "name": "Paused",
      "type": "event"
    },
    {
      "anonymous": false,
      "inputs": [
        {
          "indexed": true,
          "internalType": "address",
          "name": "newPauser",
          "type": "address"
        }
      ],
      "name": "PauserUpdated",
      "type": "event"
    },
    {
      "anonymous": false,
      "inputs": [
        {
          "indexed": true,
          "internalType": "address",
          "name": "newPendingOwner",
          "type": "address"
        }
      ],
      "name": "PendingOwnerUpdated",
      "type": "event"
    },
    {
      "anonymous": false,
      "inputs": [
        {
          "indexed": true,
          "internalType": "address",
          "name": "owner",
          "type": "address"
        },
        {
          "indexed": true,
          "internalType": "uint256",
          "name": "group",
          "type": "uint256"
        },
        {
          "indexed": false,
          "internalType": "uint256",
          "name": "markets",
          "type": "uint256"
        }
      ],
      "name": "RebalanceGroupConfigured",
      "type": "event"
    },
    {
      "anonymous": false,
      "inputs": [
        {
          "indexed": true,
          "internalType": "address",
          "name": "owner",
          "type": "address"
        },
        {
          "indexed": true,
          "internalType": "uint256",
          "name": "group",
          "type": "uint256"
        },
        {
          "indexed": true,
          "internalType": "address",
          "name": "market",
          "type": "address"
        },
        {
          "components": [
            {
              "internalType": "UFixed6",
              "name": "target",
              "type": "uint256"
            },
            {
              "internalType": "UFixed6",
              "name": "threshold",
              "type": "uint256"
            }
          ],
          "indexed": false,
          "internalType": "struct RebalanceConfig",
          "name": "newConfig",
          "type": "tuple"
        }
      ],
      "name": "RebalanceMarketConfigured",
      "type": "event"
    },
    {
      "anonymous": false,
      "inputs": [],
      "name": "Unpaused",
      "type": "event"
    },
    {
      "inputs": [],
      "name": "ARB_FIXED_OVERHEAD",
      "outputs": [
        {
          "internalType": "uint256",
          "name": "",
          "type": "uint256"
        }
      ],
      "stateMutability": "view",
      "type": "function"
    },
    {
      "inputs": [],
      "name": "ARB_GAS_MULTIPLIER",
      "outputs": [
        {
          "internalType": "uint256",
          "name": "",
          "type": "uint256"
        }
      ],
      "stateMutability": "view",
      "type": "function"
    },
    {
      "inputs": [],
      "name": "DSU",
      "outputs": [
        {
          "internalType": "Token18",
          "name": "",
          "type": "address"
        }
      ],
      "stateMutability": "view",
      "type": "function"
    },
    {
      "inputs": [],
      "name": "USDC",
      "outputs": [
        {
          "internalType": "Token6",
          "name": "",
          "type": "address"
        }
      ],
      "stateMutability": "view",
      "type": "function"
    },
    {
      "inputs": [],
      "name": "acceptOwner",
      "outputs": [],
      "stateMutability": "nonpayable",
      "type": "function"
    },
    {
      "inputs": [
        {
          "components": [
            {
              "internalType": "uint256",
              "name": "group",
              "type": "uint256"
            },
            {
              "internalType": "address[]",
              "name": "markets",
              "type": "address[]"
            },
            {
              "components": [
                {
                  "internalType": "UFixed6",
                  "name": "target",
                  "type": "uint256"
                },
                {
                  "internalType": "UFixed6",
                  "name": "threshold",
                  "type": "uint256"
                }
              ],
              "internalType": "struct RebalanceConfig[]",
              "name": "configs",
              "type": "tuple[]"
            },
            {
              "internalType": "UFixed6",
              "name": "maxFee",
              "type": "uint256"
            },
            {
              "components": [
                {
                  "internalType": "UFixed6",
                  "name": "maxFee",
                  "type": "uint256"
                },
                {
                  "components": [
                    {
                      "internalType": "address",
                      "name": "account",
                      "type": "address"
                    },
                    {
                      "internalType": "address",
                      "name": "signer",
                      "type": "address"
                    },
                    {
                      "internalType": "address",
                      "name": "domain",
                      "type": "address"
                    },
                    {
                      "internalType": "uint256",
                      "name": "nonce",
                      "type": "uint256"
                    },
                    {
                      "internalType": "uint256",
                      "name": "group",
                      "type": "uint256"
                    },
                    {
                      "internalType": "uint256",
                      "name": "expiry",
                      "type": "uint256"
                    }
                  ],
                  "internalType": "struct Common",
                  "name": "common",
                  "type": "tuple"
                }
              ],
              "internalType": "struct Action",
              "name": "action",
              "type": "tuple"
            }
          ],
          "internalType": "struct RebalanceConfigChange",
          "name": "configChange",
          "type": "tuple"
        },
        {
          "internalType": "bytes",
          "name": "signature",
          "type": "bytes"
        }
      ],
      "name": "changeRebalanceConfigWithSignature",
      "outputs": [],
      "stateMutability": "nonpayable",
      "type": "function"
    },
    {
      "inputs": [
        {
          "internalType": "address",
          "name": "owner",
          "type": "address"
        },
        {
          "internalType": "uint256",
          "name": "group",
          "type": "uint256"
        }
      ],
      "name": "checkGroup",
      "outputs": [
        {
          "internalType": "Fixed6",
          "name": "groupCollateral",
          "type": "int256"
        },
        {
          "internalType": "bool",
          "name": "canRebalance",
          "type": "bool"
        },
        {
          "internalType": "Fixed6[]",
          "name": "imbalances",
          "type": "int256[]"
        }
      ],
      "stateMutability": "view",
      "type": "function"
    },
    {
      "inputs": [],
      "name": "deployAccount",
      "outputs": [
        {
          "internalType": "contract IAccount",
          "name": "",
          "type": "address"
        }
      ],
      "stateMutability": "nonpayable",
      "type": "function"
    },
    {
      "inputs": [
        {
          "components": [
            {
              "components": [
                {
                  "internalType": "UFixed6",
                  "name": "maxFee",
                  "type": "uint256"
                },
                {
                  "components": [
                    {
                      "internalType": "address",
                      "name": "account",
                      "type": "address"
                    },
                    {
                      "internalType": "address",
                      "name": "signer",
                      "type": "address"
                    },
                    {
                      "internalType": "address",
                      "name": "domain",
                      "type": "address"
                    },
                    {
                      "internalType": "uint256",
                      "name": "nonce",
                      "type": "uint256"
                    },
                    {
                      "internalType": "uint256",
                      "name": "group",
                      "type": "uint256"
                    },
                    {
                      "internalType": "uint256",
                      "name": "expiry",
                      "type": "uint256"
                    }
                  ],
                  "internalType": "struct Common",
                  "name": "common",
                  "type": "tuple"
                }
              ],
              "internalType": "struct Action",
              "name": "action",
              "type": "tuple"
            }
          ],
          "internalType": "struct DeployAccount",
          "name": "deployAccount_",
          "type": "tuple"
        },
        {
          "internalType": "bytes",
          "name": "signature",
          "type": "bytes"
        }
      ],
      "name": "deployAccountWithSignature",
      "outputs": [],
      "stateMutability": "nonpayable",
      "type": "function"
    },
    {
      "inputs": [],
      "name": "ethTokenOracleFeed",
      "outputs": [
        {
          "internalType": "contract AggregatorV3Interface",
          "name": "",
          "type": "address"
        }
      ],
      "stateMutability": "view",
      "type": "function"
    },
    {
      "inputs": [
        {
          "internalType": "address",
          "name": "owner",
          "type": "address"
        }
      ],
      "name": "getAccountAddress",
      "outputs": [
        {
          "internalType": "address",
          "name": "",
          "type": "address"
        }
      ],
      "stateMutability": "view",
      "type": "function"
    },
    {
      "inputs": [
        {
          "internalType": "address",
          "name": "",
          "type": "address"
        },
        {
          "internalType": "uint256",
          "name": "",
          "type": "uint256"
        },
        {
          "internalType": "uint256",
          "name": "",
          "type": "uint256"
        }
      ],
      "name": "groupToMarkets",
      "outputs": [
        {
          "internalType": "contract IMarket",
          "name": "",
          "type": "address"
        }
      ],
      "stateMutability": "view",
      "type": "function"
    },
    {
      "inputs": [
        {
          "internalType": "address",
          "name": "",
          "type": "address"
        },
        {
          "internalType": "uint256",
          "name": "",
          "type": "uint256"
        }
      ],
      "name": "groupToMaxRebalanceFee",
      "outputs": [
        {
          "internalType": "UFixed6",
          "name": "",
          "type": "uint256"
        }
      ],
      "stateMutability": "view",
      "type": "function"
    },
    {
      "inputs": [],
      "name": "implementation",
      "outputs": [
        {
          "internalType": "address",
          "name": "",
          "type": "address"
        }
      ],
      "stateMutability": "view",
      "type": "function"
    },
    {
      "inputs": [
        {
          "internalType": "contract IMarketFactory",
          "name": "marketFactory_",
          "type": "address"
        },
        {
          "internalType": "contract IAccountVerifier",
          "name": "verifier_",
          "type": "address"
        }
      ],
      "name": "initialize",
      "outputs": [],
      "stateMutability": "nonpayable",
      "type": "function"
    },
    {
      "inputs": [
        {
          "internalType": "contract IMarketFactory",
          "name": "marketFactory_",
          "type": "address"
        },
        {
          "internalType": "contract IAccountVerifier",
          "name": "verifier_",
          "type": "address"
        },
        {
          "internalType": "contract AggregatorV3Interface",
          "name": "chainlinkFeed_",
          "type": "address"
        }
      ],
      "name": "initialize",
      "outputs": [],
      "stateMutability": "nonpayable",
      "type": "function"
    },
    {
      "inputs": [
        {
          "internalType": "contract IInstance",
          "name": "instance",
          "type": "address"
        }
      ],
      "name": "instances",
      "outputs": [
        {
          "internalType": "bool",
          "name": "",
          "type": "bool"
        }
      ],
      "stateMutability": "view",
      "type": "function"
    },
    {
      "inputs": [],
      "name": "keepConfig",
      "outputs": [
        {
          "internalType": "UFixed18",
          "name": "multiplierBase",
          "type": "uint256"
        },
        {
          "internalType": "uint256",
          "name": "bufferBase",
          "type": "uint256"
        },
        {
          "internalType": "UFixed18",
          "name": "multiplierCalldata",
          "type": "uint256"
        },
        {
          "internalType": "uint256",
          "name": "bufferCalldata",
          "type": "uint256"
        }
      ],
      "stateMutability": "view",
      "type": "function"
    },
    {
      "inputs": [],
      "name": "keeperToken",
      "outputs": [
        {
          "internalType": "Token18",
          "name": "",
          "type": "address"
        }
      ],
      "stateMutability": "view",
      "type": "function"
    },
    {
      "inputs": [],
      "name": "marketFactory",
      "outputs": [
        {
          "internalType": "contract IMarketFactory",
          "name": "",
          "type": "address"
        }
      ],
      "stateMutability": "view",
      "type": "function"
    },
    {
      "inputs": [
        {
          "internalType": "address",
          "name": "",
          "type": "address"
        },
        {
          "internalType": "address",
          "name": "",
          "type": "address"
        }
      ],
      "name": "marketToGroup",
      "outputs": [
        {
          "internalType": "uint256",
          "name": "",
          "type": "uint256"
        }
      ],
      "stateMutability": "view",
      "type": "function"
    },
    {
      "inputs": [
        {
          "components": [
            {
              "internalType": "address",
              "name": "market",
              "type": "address"
            },
            {
              "internalType": "Fixed6",
              "name": "amount",
              "type": "int256"
            },
            {
              "components": [
                {
                  "internalType": "UFixed6",
                  "name": "maxFee",
                  "type": "uint256"
                },
                {
                  "components": [
                    {
                      "internalType": "address",
                      "name": "account",
                      "type": "address"
                    },
                    {
                      "internalType": "address",
                      "name": "signer",
                      "type": "address"
                    },
                    {
                      "internalType": "address",
                      "name": "domain",
                      "type": "address"
                    },
                    {
                      "internalType": "uint256",
                      "name": "nonce",
                      "type": "uint256"
                    },
                    {
                      "internalType": "uint256",
                      "name": "group",
                      "type": "uint256"
                    },
                    {
                      "internalType": "uint256",
                      "name": "expiry",
                      "type": "uint256"
                    }
                  ],
                  "internalType": "struct Common",
                  "name": "common",
                  "type": "tuple"
                }
              ],
              "internalType": "struct Action",
              "name": "action",
              "type": "tuple"
            }
          ],
          "internalType": "struct MarketTransfer",
          "name": "marketTransfer",
          "type": "tuple"
        },
        {
          "internalType": "bytes",
          "name": "signature",
          "type": "bytes"
        }
      ],
      "name": "marketTransferWithSignature",
      "outputs": [],
      "stateMutability": "nonpayable",
      "type": "function"
    },
    {
      "inputs": [],
      "name": "nonceManager",
      "outputs": [
        {
          "internalType": "contract IVerifierBase",
          "name": "",
          "type": "address"
        }
      ],
      "stateMutability": "view",
      "type": "function"
    },
    {
      "inputs": [],
      "name": "owner",
      "outputs": [
        {
          "internalType": "address",
          "name": "",
          "type": "address"
        }
      ],
      "stateMutability": "view",
      "type": "function"
    },
    {
      "inputs": [],
      "name": "pause",
      "outputs": [],
      "stateMutability": "nonpayable",
      "type": "function"
    },
    {
      "inputs": [],
      "name": "paused",
      "outputs": [
        {
          "internalType": "bool",
          "name": "",
          "type": "bool"
        }
      ],
      "stateMutability": "view",
      "type": "function"
    },
    {
      "inputs": [],
      "name": "pauser",
      "outputs": [
        {
          "internalType": "address",
          "name": "",
          "type": "address"
        }
      ],
      "stateMutability": "view",
      "type": "function"
    },
    {
      "inputs": [],
      "name": "pendingOwner",
      "outputs": [
        {
          "internalType": "address",
          "name": "",
          "type": "address"
        }
      ],
      "stateMutability": "view",
      "type": "function"
    },
    {
      "inputs": [
        {
          "internalType": "address",
          "name": "owner",
          "type": "address"
        },
        {
          "internalType": "uint256",
          "name": "group",
          "type": "uint256"
        },
        {
          "internalType": "address",
          "name": "market",
          "type": "address"
        }
      ],
      "name": "rebalanceConfigs",
      "outputs": [
        {
          "components": [
            {
              "internalType": "UFixed6",
              "name": "target",
              "type": "uint256"
            },
            {
              "internalType": "UFixed6",
              "name": "threshold",
              "type": "uint256"
            }
          ],
          "internalType": "struct RebalanceConfig",
          "name": "",
          "type": "tuple"
        }
      ],
      "stateMutability": "view",
      "type": "function"
    },
    {
      "inputs": [
        {
          "internalType": "address",
          "name": "owner",
          "type": "address"
        },
        {
          "internalType": "uint256",
          "name": "group",
          "type": "uint256"
        }
      ],
      "name": "rebalanceGroup",
      "outputs": [],
      "stateMutability": "nonpayable",
      "type": "function"
    },
    {
      "inputs": [
        {
          "internalType": "address",
          "name": "owner",
          "type": "address"
        },
        {
          "internalType": "uint256",
          "name": "group",
          "type": "uint256"
        }
      ],
      "name": "rebalanceGroupMarkets",
      "outputs": [
        {
          "internalType": "contract IMarket[]",
          "name": "markets",
          "type": "address[]"
        }
      ],
      "stateMutability": "view",
      "type": "function"
    },
    {
      "inputs": [
        {
          "components": [
            {
              "components": [
                {
                  "components": [
                    {
                      "internalType": "address",
                      "name": "accessor",
                      "type": "address"
                    },
                    {
                      "internalType": "bool",
                      "name": "approved",
                      "type": "bool"
                    }
                  ],
                  "internalType": "struct AccessUpdate[]",
                  "name": "operators",
                  "type": "tuple[]"
                },
                {
                  "components": [
                    {
                      "internalType": "address",
                      "name": "accessor",
                      "type": "address"
                    },
                    {
                      "internalType": "bool",
                      "name": "approved",
                      "type": "bool"
                    }
                  ],
                  "internalType": "struct AccessUpdate[]",
                  "name": "signers",
                  "type": "tuple[]"
                },
                {
                  "components": [
                    {
                      "internalType": "address",
                      "name": "account",
                      "type": "address"
                    },
                    {
                      "internalType": "address",
                      "name": "signer",
                      "type": "address"
                    },
                    {
                      "internalType": "address",
                      "name": "domain",
                      "type": "address"
                    },
                    {
                      "internalType": "uint256",
                      "name": "nonce",
                      "type": "uint256"
                    },
                    {
                      "internalType": "uint256",
                      "name": "group",
                      "type": "uint256"
                    },
                    {
                      "internalType": "uint256",
                      "name": "expiry",
                      "type": "uint256"
                    }
                  ],
                  "internalType": "struct Common",
                  "name": "common",
                  "type": "tuple"
                }
              ],
              "internalType": "struct AccessUpdateBatch",
              "name": "accessUpdateBatch",
              "type": "tuple"
            },
            {
              "components": [
                {
                  "internalType": "UFixed6",
                  "name": "maxFee",
                  "type": "uint256"
                },
                {
                  "components": [
                    {
                      "internalType": "address",
                      "name": "account",
                      "type": "address"
                    },
                    {
                      "internalType": "address",
                      "name": "signer",
                      "type": "address"
                    },
                    {
                      "internalType": "address",
                      "name": "domain",
                      "type": "address"
                    },
                    {
                      "internalType": "uint256",
                      "name": "nonce",
                      "type": "uint256"
                    },
                    {
                      "internalType": "uint256",
                      "name": "group",
                      "type": "uint256"
                    },
                    {
                      "internalType": "uint256",
                      "name": "expiry",
                      "type": "uint256"
                    }
                  ],
                  "internalType": "struct Common",
                  "name": "common",
                  "type": "tuple"
                }
              ],
              "internalType": "struct Action",
              "name": "action",
              "type": "tuple"
            }
          ],
          "internalType": "struct RelayedAccessUpdateBatch",
          "name": "message",
          "type": "tuple"
        },
        {
          "internalType": "bytes",
          "name": "outerSignature",
          "type": "bytes"
        },
        {
          "internalType": "bytes",
          "name": "innerSignature",
          "type": "bytes"
        }
      ],
      "name": "relayAccessUpdateBatch",
      "outputs": [],
      "stateMutability": "nonpayable",
      "type": "function"
    },
    {
      "inputs": [
        {
          "components": [
            {
              "components": [
                {
                  "internalType": "uint256",
                  "name": "group",
                  "type": "uint256"
                },
                {
                  "components": [
                    {
                      "internalType": "address",
                      "name": "account",
                      "type": "address"
                    },
                    {
                      "internalType": "address",
                      "name": "signer",
                      "type": "address"
                    },
                    {
                      "internalType": "address",
                      "name": "domain",
                      "type": "address"
                    },
                    {
                      "internalType": "uint256",
                      "name": "nonce",
                      "type": "uint256"
                    },
                    {
                      "internalType": "uint256",
                      "name": "group",
                      "type": "uint256"
                    },
                    {
                      "internalType": "uint256",
                      "name": "expiry",
                      "type": "uint256"
                    }
                  ],
                  "internalType": "struct Common",
                  "name": "common",
                  "type": "tuple"
                }
              ],
              "internalType": "struct GroupCancellation",
              "name": "groupCancellation",
              "type": "tuple"
            },
            {
              "components": [
                {
                  "internalType": "UFixed6",
                  "name": "maxFee",
                  "type": "uint256"
                },
                {
                  "components": [
                    {
                      "internalType": "address",
                      "name": "account",
                      "type": "address"
                    },
                    {
                      "internalType": "address",
                      "name": "signer",
                      "type": "address"
                    },
                    {
                      "internalType": "address",
                      "name": "domain",
                      "type": "address"
                    },
                    {
                      "internalType": "uint256",
                      "name": "nonce",
                      "type": "uint256"
                    },
                    {
                      "internalType": "uint256",
                      "name": "group",
                      "type": "uint256"
                    },
                    {
                      "internalType": "uint256",
                      "name": "expiry",
                      "type": "uint256"
                    }
                  ],
                  "internalType": "struct Common",
                  "name": "common",
                  "type": "tuple"
                }
              ],
              "internalType": "struct Action",
              "name": "action",
              "type": "tuple"
            }
          ],
          "internalType": "struct RelayedGroupCancellation",
          "name": "message",
          "type": "tuple"
        },
        {
          "internalType": "bytes",
          "name": "outerSignature",
          "type": "bytes"
        },
        {
          "internalType": "bytes",
          "name": "innerSignature",
          "type": "bytes"
        }
      ],
      "name": "relayGroupCancellation",
      "outputs": [],
      "stateMutability": "nonpayable",
      "type": "function"
    },
    {
      "inputs": [
        {
          "components": [
            {
              "components": [
                {
                  "internalType": "address",
                  "name": "account",
                  "type": "address"
                },
                {
                  "internalType": "address",
                  "name": "signer",
                  "type": "address"
                },
                {
                  "internalType": "address",
                  "name": "domain",
                  "type": "address"
                },
                {
                  "internalType": "uint256",
                  "name": "nonce",
                  "type": "uint256"
                },
                {
                  "internalType": "uint256",
                  "name": "group",
                  "type": "uint256"
                },
                {
                  "internalType": "uint256",
                  "name": "expiry",
                  "type": "uint256"
                }
              ],
              "internalType": "struct Common",
              "name": "nonceCancellation",
              "type": "tuple"
            },
            {
              "components": [
                {
                  "internalType": "UFixed6",
                  "name": "maxFee",
                  "type": "uint256"
                },
                {
                  "components": [
                    {
                      "internalType": "address",
                      "name": "account",
                      "type": "address"
                    },
                    {
                      "internalType": "address",
                      "name": "signer",
                      "type": "address"
                    },
                    {
                      "internalType": "address",
                      "name": "domain",
                      "type": "address"
                    },
                    {
                      "internalType": "uint256",
                      "name": "nonce",
                      "type": "uint256"
                    },
                    {
                      "internalType": "uint256",
                      "name": "group",
                      "type": "uint256"
                    },
                    {
                      "internalType": "uint256",
                      "name": "expiry",
                      "type": "uint256"
                    }
                  ],
                  "internalType": "struct Common",
                  "name": "common",
                  "type": "tuple"
                }
              ],
              "internalType": "struct Action",
              "name": "action",
              "type": "tuple"
            }
          ],
          "internalType": "struct RelayedNonceCancellation",
          "name": "message",
          "type": "tuple"
        },
        {
          "internalType": "bytes",
          "name": "outerSignature",
          "type": "bytes"
        },
        {
          "internalType": "bytes",
          "name": "innerSignature",
          "type": "bytes"
        }
      ],
      "name": "relayNonceCancellation",
      "outputs": [],
      "stateMutability": "nonpayable",
      "type": "function"
    },
    {
      "inputs": [
        {
          "components": [
            {
              "components": [
                {
                  "components": [
                    {
                      "internalType": "address",
                      "name": "accessor",
                      "type": "address"
                    },
                    {
                      "internalType": "bool",
                      "name": "approved",
                      "type": "bool"
                    }
                  ],
                  "internalType": "struct AccessUpdate",
                  "name": "access",
                  "type": "tuple"
                },
                {
                  "components": [
                    {
                      "internalType": "address",
                      "name": "account",
                      "type": "address"
                    },
                    {
                      "internalType": "address",
                      "name": "signer",
                      "type": "address"
                    },
                    {
                      "internalType": "address",
                      "name": "domain",
                      "type": "address"
                    },
                    {
                      "internalType": "uint256",
                      "name": "nonce",
                      "type": "uint256"
                    },
                    {
                      "internalType": "uint256",
                      "name": "group",
                      "type": "uint256"
                    },
                    {
                      "internalType": "uint256",
                      "name": "expiry",
                      "type": "uint256"
                    }
                  ],
                  "internalType": "struct Common",
                  "name": "common",
                  "type": "tuple"
                }
              ],
              "internalType": "struct OperatorUpdate",
              "name": "operatorUpdate",
              "type": "tuple"
            },
            {
              "components": [
                {
                  "internalType": "UFixed6",
                  "name": "maxFee",
                  "type": "uint256"
                },
                {
                  "components": [
                    {
                      "internalType": "address",
                      "name": "account",
                      "type": "address"
                    },
                    {
                      "internalType": "address",
                      "name": "signer",
                      "type": "address"
                    },
                    {
                      "internalType": "address",
                      "name": "domain",
                      "type": "address"
                    },
                    {
                      "internalType": "uint256",
                      "name": "nonce",
                      "type": "uint256"
                    },
                    {
                      "internalType": "uint256",
                      "name": "group",
                      "type": "uint256"
                    },
                    {
                      "internalType": "uint256",
                      "name": "expiry",
                      "type": "uint256"
                    }
                  ],
                  "internalType": "struct Common",
                  "name": "common",
                  "type": "tuple"
                }
              ],
              "internalType": "struct Action",
              "name": "action",
              "type": "tuple"
            }
          ],
          "internalType": "struct RelayedOperatorUpdate",
          "name": "message",
          "type": "tuple"
        },
        {
          "internalType": "bytes",
          "name": "outerSignature",
          "type": "bytes"
        },
        {
          "internalType": "bytes",
          "name": "innerSignature",
          "type": "bytes"
        }
      ],
      "name": "relayOperatorUpdate",
      "outputs": [],
      "stateMutability": "nonpayable",
      "type": "function"
    },
    {
      "inputs": [
        {
          "components": [
            {
              "components": [
                {
                  "components": [
                    {
                      "internalType": "address",
                      "name": "accessor",
                      "type": "address"
                    },
                    {
                      "internalType": "bool",
                      "name": "approved",
                      "type": "bool"
                    }
                  ],
                  "internalType": "struct AccessUpdate",
                  "name": "access",
                  "type": "tuple"
                },
                {
                  "components": [
                    {
                      "internalType": "address",
                      "name": "account",
                      "type": "address"
                    },
                    {
                      "internalType": "address",
                      "name": "signer",
                      "type": "address"
                    },
                    {
                      "internalType": "address",
                      "name": "domain",
                      "type": "address"
                    },
                    {
                      "internalType": "uint256",
                      "name": "nonce",
                      "type": "uint256"
                    },
                    {
                      "internalType": "uint256",
                      "name": "group",
                      "type": "uint256"
                    },
                    {
                      "internalType": "uint256",
                      "name": "expiry",
                      "type": "uint256"
                    }
                  ],
                  "internalType": "struct Common",
                  "name": "common",
                  "type": "tuple"
                }
              ],
              "internalType": "struct SignerUpdate",
              "name": "signerUpdate",
              "type": "tuple"
            },
            {
              "components": [
                {
                  "internalType": "UFixed6",
                  "name": "maxFee",
                  "type": "uint256"
                },
                {
                  "components": [
                    {
                      "internalType": "address",
                      "name": "account",
                      "type": "address"
                    },
                    {
                      "internalType": "address",
                      "name": "signer",
                      "type": "address"
                    },
                    {
                      "internalType": "address",
                      "name": "domain",
                      "type": "address"
                    },
                    {
                      "internalType": "uint256",
                      "name": "nonce",
                      "type": "uint256"
                    },
                    {
                      "internalType": "uint256",
                      "name": "group",
                      "type": "uint256"
                    },
                    {
                      "internalType": "uint256",
                      "name": "expiry",
                      "type": "uint256"
                    }
                  ],
                  "internalType": "struct Common",
                  "name": "common",
                  "type": "tuple"
                }
              ],
              "internalType": "struct Action",
              "name": "action",
              "type": "tuple"
            }
          ],
          "internalType": "struct RelayedSignerUpdate",
          "name": "message",
          "type": "tuple"
        },
        {
          "internalType": "bytes",
          "name": "outerSignature",
          "type": "bytes"
        },
        {
          "internalType": "bytes",
          "name": "innerSignature",
          "type": "bytes"
        }
      ],
      "name": "relaySignerUpdate",
      "outputs": [],
      "stateMutability": "nonpayable",
      "type": "function"
    },
    {
      "inputs": [],
      "name": "unpause",
      "outputs": [],
      "stateMutability": "nonpayable",
      "type": "function"
    },
    {
      "inputs": [
        {
          "internalType": "address",
          "name": "newPauser",
          "type": "address"
        }
      ],
      "name": "updatePauser",
      "outputs": [],
      "stateMutability": "nonpayable",
      "type": "function"
    },
    {
      "inputs": [
        {
          "internalType": "address",
          "name": "newPendingOwner",
          "type": "address"
        }
      ],
      "name": "updatePendingOwner",
      "outputs": [],
      "stateMutability": "nonpayable",
      "type": "function"
    },
    {
      "inputs": [],
      "name": "verifier",
      "outputs": [
        {
          "internalType": "contract IAccountVerifier",
          "name": "",
          "type": "address"
        }
      ],
      "stateMutability": "view",
      "type": "function"
    },
    {
      "inputs": [
        {
          "components": [
            {
              "internalType": "UFixed6",
              "name": "amount",
              "type": "uint256"
            },
            {
              "internalType": "bool",
              "name": "unwrap",
              "type": "bool"
            },
            {
              "components": [
                {
                  "internalType": "UFixed6",
                  "name": "maxFee",
                  "type": "uint256"
                },
                {
                  "components": [
                    {
                      "internalType": "address",
                      "name": "account",
                      "type": "address"
                    },
                    {
                      "internalType": "address",
                      "name": "signer",
                      "type": "address"
                    },
                    {
                      "internalType": "address",
                      "name": "domain",
                      "type": "address"
                    },
                    {
                      "internalType": "uint256",
                      "name": "nonce",
                      "type": "uint256"
                    },
                    {
                      "internalType": "uint256",
                      "name": "group",
                      "type": "uint256"
                    },
                    {
                      "internalType": "uint256",
                      "name": "expiry",
                      "type": "uint256"
                    }
                  ],
                  "internalType": "struct Common",
                  "name": "common",
                  "type": "tuple"
                }
              ],
              "internalType": "struct Action",
              "name": "action",
              "type": "tuple"
            }
          ],
          "internalType": "struct Withdrawal",
          "name": "withdrawal",
          "type": "tuple"
        },
        {
          "internalType": "bytes",
          "name": "signature",
          "type": "bytes"
        }
      ],
      "name": "withdrawWithSignature",
      "outputs": [],
      "stateMutability": "nonpayable",
      "type": "function"
    }
  ],
  "transactionHash": "0x52832a5c9bfca1f35cfcdea3628fd668e1fad54e7c13226989d168268e72756e",
  "args": [
    "0x53B6D8d2D8c4802085AD7FbFa300Adf034c5E3b1",
    {
      "multiplierBase": 0,
      "bufferBase": 0,
      "multiplierCalldata": 0,
      "bufferCalldata": 0
    },
    "0x6FaabfA2fDb093A027Ed16F291ADc7F07780014A"
  ],
  "numDeployments": 4,
  "solcInputHash": "e123277fe3084afc1fa5abf5480a19e0",
  "bytecode": "0x60e0604090808252346200019b57806200556b803803809162000023828562000211565b83398101039060c082126200019b576200003d8162000235565b916080602091601f1901126200019b578351608081016001600160401b03811182821017620001fd578552818301518152848301519082810191825260608401519286820193845260a06080860151956060840196875201519560018060a01b03908188168098036200019b57806080521687516389a3027160e01b81528281600481855afa8015620001f35783915f91620001b1575b5060a052885163a2060bcf60e01b815291829060049082905afa918215620001a7575f9262000165575b505060c05251600655516007555160085551600955600a80546001600160a01b0319169190911790555161532090816200024b8239608051816124e6015260a05181612112015260c051818181611a4801528181611f2201528181613fd301526143600152f35b90809250813d83116200019f575b6200017f818362000211565b810103126200019b57620001939062000235565b5f80620000fe565b5f80fd5b503d62000173565b88513d5f823e3d90fd5b82819392503d8311620001eb575b620001cb818362000211565b810103126200019b57600491620001e3849262000235565b9092620000d4565b503d620001bf565b89513d5f823e3d90fd5b634e487b7160e01b5f52604160045260245ffd5b601f909101601f19168101906001600160401b03821190821017620001fd57604052565b51906001600160a01b03821682036200019b5756fe608080604052600436101562000013575f80fd5b5f905f3560e01c908163032bb44314620031695750806303b1faf31462002fe257806306ae70951462002f8f578063132d4eb11462002ed55780631af3a6e61462002e155780632b7ac3f31462002dc157806332878cc91462002d4e57806332cd1a9a1462002b075780633f4ba83a1462002a13578063485cc955146200281f57806351b4c18d14620027ae578063554bab3c14620026e4578063583dec3214620025cb5780635872fe45146200258957806358c81fcb146200250a5780635c60da1b14620024995780635c975abb146200243a5780635d33db3c146200234a57806378fab5c7146200230e5780637fefe80914620022b25780638456cb59146200218d578063872053a6146200213657806389a3027114620020c55780638c29933e146200202c5780638da5cb5b1462001fb95780639fd0506d1462001f46578063a2060bcf1462001ed5578063aba30dfa1462001e99578063b20caf451462001e26578063b3684e131462001cde578063b51cf0a91462001c3c578063b5ee69551462001b72578063c0c53b8b1462001979578063c402f86014620016a1578063d55cde1f1462001440578063db06b6ae1462000a4f578063e30c397814620009dc578063ebbc4965146200088f578063f2842ace14620006b0578063f72e323c14620002615763fddc205f146200020b575f80fd5b346200025e57807ffffffffffffffffffffffffffffffffffffffffffffffffffffffffffffffffc3601126200025e57602073ffffffffffffffffffffffffffffffffffffffff600a5416604051908152f35b80fd5b50346200025e5760407ffffffffffffffffffffffffffffffffffffffffffffffffffffffffffffffffc3601126200025e576200029d62003285565b8173ffffffffffffffffffffffffffffffffffffffff828116906024908135845b848652602060048152604087208388528152604087205482101562000389578587526004815260408720908388525282620002fd82604089206200336c565b90549060031b1c16803b15620003855786809186604051809481937f6a256b290000000000000000000000000000000000000000000000000000000083528b60048401525af19081156200037a5787916200035e575b5050600101620002be565b6200036990620033af565b6200037657855f62000353565b8580fd5b6040513d89823e3d90fd5b8680fd5b5050915084926200039b8385620039d6565b94915015620006865782620003b08662003838565b1691865b8551811015620004b4578188526020600481526040892090848a525287620003e082604083206200336c565b905482620003ef858b620039b3565b511262000403575b505050600101620003b4565b6200040f848a620039b3565b5190873b15620004b0576040517fe1638ba300000000000000000000000000000000000000000000000000000000815260039390931b1c881673ffffffffffffffffffffffffffffffffffffffff1660048301526024820152818180604481010381838a5af18015620004a55762000489575b80620003f7565b6200049490620033af565b620004a157878962000482565b8780fd5b6040513d84823e3d90fd5b8380fd5b50865b8551811015620005a4578188526020600481526040892090848a525287620004e382604083206200336c565b905482620004f2858b620039b3565b511362000506575b505050600101620004b7565b62000512848a620039b3565b5190873b15620004b0576040517fe1638ba300000000000000000000000000000000000000000000000000000000815260039390931b1c881673ffffffffffffffffffffffffffffffffffffffff1660048301526024820152818180604481010381838a5af18015620004a5576200058c575b80620004fa565b6200059790620033af565b620004a157878962000585565b87620006838385620005dc8b82847fd58ec24dc80af351d45ae5fa8586232e0013343355190b0ef9b77bd8dbb68d718880a362003838565b9184526005602052604084209084526020526200065b6040842054916200062e604051938492602084016020909392919373ffffffffffffffffffffffffffffffffffffffff60408201951681520152565b037fffffffffffffffffffffffffffffffffffffffffffffffffffffffffffffffe0810183528262003465565b62000665620034a7565b60405190620006748262003448565b5f82525f602083015262003d03565b80f35b60046040517fdc72f280000000000000000000000000000000000000000000000000000000008152fd5b50346200025e5780620006c33662003224565b9060608301620006dd620006d782620034fa565b62003838565b93604081013593620007226040516200065b816200062e898b602084016020909392919373ffffffffffffffffffffffffffffffffffffffff60408201951681520152565b73ffffffffffffffffffffffffffffffffffffffff809616956001541690813b15620004a1576200079694620007c6928992836040518096819582947fcb5cd5090000000000000000000000000000000000000000000000000000000084528a359d8e600486015260208c019d8e62003572565b151560248601526044850152620007b1606485018d620036c1565b61014061012485015261014484019162003785565b03925af19081156200037a57879162000877575b5050620007f96080620007f16200080094620034fa565b9201620034fa565b90620044c3565b358015158091036200087257823b156200087257604484928360405195869485937f38d07436000000000000000000000000000000000000000000000000000000008552600485015260248401525af18015620004a5576200085f5750f35b6200086a90620033af565b6200025e5780f35b505050fd5b6200088290620033af565b6200037657855f620007da565b50346200025e57807ffffffffffffffffffffffffffffffffffffffffffffffffffffffffffffffffc3601126200025e577f675c83682abbc3e7dd47e40515a778fbbde4393395c3dd3588244203c3e47883805473ffffffffffffffffffffffffffffffffffffffff811690813303620009ac577fe7742ddf0fecd2926e7ef4d6d6e91a7b2f0b1f8805b78953dac8454e86273ed255807f4ffd725fc4a22075e9ec71c59edf9c38cdeb588a91b24fc5b61388c5be41282b5f80a233036200097c57819055807f69f201bc2089b9be6195d876d97a0136b4cf56bbf8986a52dcb50697f7d1cac58180a280f35b60246040517f99bf6359000000000000000000000000000000000000000000000000000000008152336004820152fd5b60246040517fd0d5e1b0000000000000000000000000000000000000000000000000000000008152336004820152fd5b50346200025e57807ffffffffffffffffffffffffffffffffffffffffffffffffffffffffffffffffc3601126200025e5760207f675c83682abbc3e7dd47e40515a778fbbde4393395c3dd3588244203c3e478835473ffffffffffffffffffffffffffffffffffffffff60405191168152f35b50346200025e5760407ffffffffffffffffffffffffffffffffffffffffffffffffffffffffffffffffc3601126200025e5767ffffffffffffffff9081600435116200025e5760043536036101607ffffffffffffffffffffffffffffffffffffffffffffffffffffffffffffffffc8201126200143c57602435838111620014385762000ae1903690600401620031f3565b73ffffffffffffffffffffffffffffffffffffffff6001541691823b156200143457604051937fbbcb5741000000000000000000000000000000000000000000000000000000008552604060048601526004356004013560448601527fffffffffffffffffffffffffffffffffffffffffffffffffffffffffffffffdd602460043501359101811215620003765760043501956004870135116200143457600486013560051b360360248701136200143457610160606485015260048601356101a48501526101c48401956024810190865b60048201358110620013f857505050602062000bda6044600435016004356004016200351c565b8689037fffffffffffffffffffffffffffffffffffffffffffffffffffffffffffffffbc0160848801528089529790910196865b818110620013d7575050509183858162000c838299829684986064600435013560a48601526084600435013560c486015262000c5360e4860160a460043501620036c1565b7ffffffffffffffffffffffffffffffffffffffffffffffffffffffffffffffffc85840301602486015262003785565b03925af18015620004a557620013bf575b505062000cba62000caa60a460043501620034fa565b620007f960c460043501620034fa565b62000cca60a460043501620034fa565b60043560040135158015620013ae575b6200138457600462000cf460248235018235830162004859565b9050116200135a57815b73ffffffffffffffffffffffffffffffffffffffff82168352600460205260408320600435600401358452602052604083205481101562000e0f5760019073ffffffffffffffffffffffffffffffffffffffff8316845260046020526040842060043560040135855260205273ffffffffffffffffffffffffffffffffffffffff62000d8e82604087206200336c565b919054600392831b1c169073ffffffffffffffffffffffffffffffffffffffff8516865260026020526040862060043560040135875260205260408620825f526020525f8460408220828155015573ffffffffffffffffffffffffffffffffffffffff8516865260205260408520905f526020525f60408120550162000cfe565b5073ffffffffffffffffffffffffffffffffffffffff81168252600460205260408220600435600401358352602052604082208054908381558162001334575b5050819082915b62000e6c60246004350160043560040162004859565b9050831015620012565773ffffffffffffffffffffffffffffffffffffffff8216845260036020526040842073ffffffffffffffffffffffffffffffffffffffff62000ed962000ed38662000ecc60246004350160043560040162004859565b90620048b0565b620034fa565b165f5260205260405f205480620011ea575073ffffffffffffffffffffffffffffffffffffffff8216845260036020526040842073ffffffffffffffffffffffffffffffffffffffff62000f4162000ed38662000ecc60246004350160043560040162004859565b165f526020526004356004013560405f205562000f758362000f6e604460043501600435600401620048c1565b9062004918565b73ffffffffffffffffffffffffffffffffffffffff831685526002602052604085206004356004013586526020526040852073ffffffffffffffffffffffffffffffffffffffff62000fdb62000ed38762000ecc60246004350160043560040162004859565b165f526020526001602060405f209280358455013591015573ffffffffffffffffffffffffffffffffffffffff821684526004602052604084206004356004013585526020526040842073ffffffffffffffffffffffffffffffffffffffff6200105962000ed38662000ecc60246004350160043560040162004859565b169080549068010000000000000000821015620011bd579162001089826200110d9460018097950181556200336c565b73ffffffffffffffffffffffffffffffffffffffff829392549160031b92831b921b191617905573ffffffffffffffffffffffffffffffffffffffff84168652600560205260408620600435600401358752602052606460043501356040872055620011058562000f6e604460043501600435600401620048c1565b359062004801565b926200112d62000ed38262000ecc60246004350160043560040162004859565b73ffffffffffffffffffffffffffffffffffffffff6200115d8362000f6e604460043501600435600401620048c1565b916020604051938035855201356020840152169060043560040135907f499f2d584337dd47a4e71a8a4c57b77ad0058bb1a360335a855979a5ca3061d4604073ffffffffffffffffffffffffffffffffffffffff881692a4019162000e56565b6024877f4e487b710000000000000000000000000000000000000000000000000000000081526041600452fd5b60449073ffffffffffffffffffffffffffffffffffffffff6200122162000ed38762000ecc60246004350160043560040162004859565b1690604051917fe21464ba00000000000000000000000000000000000000000000000000000000835260048301526024820152fd5b9091506200126f60246004350160043560040162004859565b9050151590816200131c575b50620012f2576200129760246004350160043560040162004859565b90506040519081527f18fea070ebed40821f9c45ae1f8c875c49b031e4ff3b701b4772ade527f51088602073ffffffffffffffffffffffffffffffffffffffff60043560040135941692a362000683608460043501620045bf565b60046040517f64580a1c000000000000000000000000000000000000000000000000000000008152fd5b600191506200132b9062004ac6565b14155f6200127b565b83526020832090815b81830181106200134e575062000e4f565b5f81556001016200133d565b60046040517fecce9fda000000000000000000000000000000000000000000000000000000008152fd5b60046040517fa16ba7f2000000000000000000000000000000000000000000000000000000008152fd5b506008600435600401351162000cda565b620013ca90620033af565b6200025e57805f62000c94565b82358952602080840135908a01526040988901989092019160010162000c0e565b909197600160208060049373ffffffffffffffffffffffffffffffffffffffff620014238e620032cd565b168152019a01939201905062000bb3565b8480fd5b8280fd5b5080fd5b50346200025e577ffffffffffffffffffffffffffffffffffffffffffffffffffffffffffffffffc36016101e081126200143c576101a0136200025e576101a467ffffffffffffffff8135818111620004b057620014a3903690600401620031f3565b6101c49291929182359081116200037657620014c4903690600401620031f3565b92909373ffffffffffffffffffffffffffffffffffffffff92836001541691823b156200169d57604051917ff5ba0b1d0000000000000000000000000000000000000000000000000000000083526200152060048401620035f5565b60c435938460c485015260e43595878716808803620016995760e4860152610104803590898216809203620016995786015261012480359b898d16809d036200169957620015a38e9d9688968f98956101c089979588968c9888015261014480359088015261016480359088015261018480359088015286015284019162003785565b03925af19081156200037a57879162001681575b50506200065b620015db6200160d93620006d7620015d4620034d5565b82620044c3565b6040805173ffffffffffffffffffffffffffffffffffffffff909216602083015281019290925281606081016200062e565b600a541691823b1562000872576200166e928492836040518096819582947f3a1505ca0000000000000000000000000000000000000000000000000000000084526200165c60048501620035f5565b60e060c485015260e484019162003785565b03925af18015620004a5576200085f5750f35b6200168c90620033af565b6200037657855f620015b7565b5f80fd5b8880fd5b50346200025e577ffffffffffffffffffffffffffffffffffffffffffffffffffffffffffffffffc360161020081126200143c576101c0136200025e5767ffffffffffffffff6101c435818111620014385762001703903690600401620031f3565b916101e435908111620004b05762001720903690600401620031f3565b909173ffffffffffffffffffffffffffffffffffffffff6001541690813b156200037657604051907f834a0d48000000000000000000000000000000000000000000000000000000008252600435600483015262001781602483016200365b565b60e43560e483015273ffffffffffffffffffffffffffffffffffffffff61010435166101043503620016995773ffffffffffffffffffffffffffffffffffffffff61010435166101048301526101249283359373ffffffffffffffffffffffffffffffffffffffff85169081860362001699578401526101449081359273ffffffffffffffffffffffffffffffffffffffff8416809403620016995789856200185f819593839c849884968501526101648035908501526101848035908501526101a48035908501526101e06101c48501526101e484019162003785565b03925af19081156200196e57859162001956575b50506200188a9062001884620034d5565b620044c3565b620018d66200062e6200065b620018a46101043562003838565b6040805173ffffffffffffffffffffffffffffffffffffffff909216602083015260e435908201529182906060820190565b73ffffffffffffffffffffffffffffffffffffffff600a541691823b1562000872576200166e928492836040518096819582947f715a86c5000000000000000000000000000000000000000000000000000000008452600435600485015262001942602485016200365b565b61010060e485015261010484019162003785565b6200196190620033af565b6200087257835f62001873565b6040513d87823e3d90fd5b50346200025e5760607ffffffffffffffffffffffffffffffffffffffffffffffffffffffffffffffffc3601126200025e57620019b562003285565b620019bf620032a9565b6044359073ffffffffffffffffffffffffffffffffffffffff9182811680910362001434577f6fee9688c285c5c5c97d6a1a29adced674e6b2ad0888b8ad2116b58a8b3ea24860028154101562001b415760029055303b15158062001b39575b62001b0f577f2b50211693ec91bcfe327771928b74a8f475c508d53e86fca4153bcf0f0e8776557f00000000000000000000000000000000000000000000000000000000000000007f5b5cbfa852c5bd03e540eba853f8faf28a604a4d82bee1091096bfaea14d08c355817fffffffffffffffffffffffff000000000000000000000000000000000000000093168385541617845516906001541617600155807f2801b00eb06461cf9fcb9758b5fafd884ff06a86177386f73b6c49f0bf5a5af0557fbe9b076dc5b65990cca9dd9d7366682482e7817a6f6bc7f4faf4dc32af497f32602060405160028152a180f35b60046040517fb9a621e1000000000000000000000000000000000000000000000000000000008152fd5b508462001a1f565b60246040517f3db738da00000000000000000000000000000000000000000000000000000000815260026004820152fd5b50346200025e5760207ffffffffffffffffffffffffffffffffffffffffffffffffffffffffffffffffc3601126200025e5762001bae62003285565b7fe7742ddf0fecd2926e7ef4d6d6e91a7b2f0b1f8805b78953dac8454e86273ed2549073ffffffffffffffffffffffffffffffffffffffff9182339116036200097c57807f675c83682abbc3e7dd47e40515a778fbbde4393395c3dd3588244203c3e4788355167f69f201bc2089b9be6195d876d97a0136b4cf56bbf8986a52dcb50697f7d1cac58280a280f35b50346200025e5760407ffffffffffffffffffffffffffffffffffffffffffffffffffffffffffffffffc3601126200025e5762001c8662001c7c62003285565b60243590620039d6565b90919260405193849360608501918552602090151560208601526060604086015283518092526020608086019401925b82811062001cc657505050500390f35b83518552869550938101939281019260010162001cb6565b50346200025e578062001cf136620032ef565b9190939273ffffffffffffffffffffffffffffffffffffffff91826001541691823b15620004a15762001d72928892836040518096819582947fde4030ed00000000000000000000000000000000000000000000000000000000845262001d5d8d6004860190620037c3565b6102006101e485015261020484019162003785565b03925af190811562001e1b57869162001e03575b505062001daa62001d9b6101208501620034fa565b620007f96101408601620034fa565b62001db96101008401620045bf565b845416803b1562001434576200166e93858094604051968795869485937fc655a23d0000000000000000000000000000000000000000000000000000000085526004850162003801565b62001e0e90620033af565b6200143457845f62001d86565b6040513d88823e3d90fd5b50346200025e57807ffffffffffffffffffffffffffffffffffffffffffffffffffffffffffffffffc3601126200025e57602073ffffffffffffffffffffffffffffffffffffffff7f2b50211693ec91bcfe327771928b74a8f475c508d53e86fca4153bcf0f0e87765416604051908152f35b50346200025e57807ffffffffffffffffffffffffffffffffffffffffffffffffffffffffffffffffc3601126200025e576020604051608c8152f35b50346200025e57807ffffffffffffffffffffffffffffffffffffffffffffffffffffffffffffffffc3601126200025e57602060405173ffffffffffffffffffffffffffffffffffffffff7f0000000000000000000000000000000000000000000000000000000000000000168152f35b50346200025e57807ffffffffffffffffffffffffffffffffffffffffffffffffffffffffffffffffc3601126200025e5760207f18e50ee9696440d335192aeeeffc26f47782eaa914f1700d8ad36d6d7f7261b35473ffffffffffffffffffffffffffffffffffffffff60405191168152f35b50346200025e57807ffffffffffffffffffffffffffffffffffffffffffffffffffffffffffffffffc3601126200025e5760207fe7742ddf0fecd2926e7ef4d6d6e91a7b2f0b1f8805b78953dac8454e86273ed25473ffffffffffffffffffffffffffffffffffffffff60405191168152f35b50346200025e5760607ffffffffffffffffffffffffffffffffffffffffffffffffffffffffffffffffc3601126200025e576200206862003285565b6044359173ffffffffffffffffffffffffffffffffffffffff80921681526004602052604081206024358252602052604081209081548410156200025e5750602092620020b5916200336c565b9190546040519260031b1c168152f35b50346200025e57807ffffffffffffffffffffffffffffffffffffffffffffffffffffffffffffffffc3601126200025e57602060405173ffffffffffffffffffffffffffffffffffffffff7f0000000000000000000000000000000000000000000000000000000000000000168152f35b50346200025e57807ffffffffffffffffffffffffffffffffffffffffffffffffffffffffffffffffc3601126200025e57608060065460075460085460095491604051938452602084015260408301526060820152f35b50346200025e57807ffffffffffffffffffffffffffffffffffffffffffffffffffffffffffffffffc3601126200025e5773ffffffffffffffffffffffffffffffffffffffff807f18e50ee9696440d335192aeeeffc26f47782eaa914f1700d8ad36d6d7f7261b35416331415908162002283575b50620022535760017f3d13b7e57307bea7f94c474c597247d2da93d7de9136f8e123ed6525f50bbcec557f9e87fac88ff661f02d44f95383c817fece4bce600a3dab7a54406878b965e7528180a180f35b60246040517ff7987a92000000000000000000000000000000000000000000000000000000008152336004820152fd5b90507fe7742ddf0fecd2926e7ef4d6d6e91a7b2f0b1f8805b78953dac8454e86273ed254163314155f62002202565b50346200025e57807ffffffffffffffffffffffffffffffffffffffffffffffffffffffffffffffffc3601126200025e576020620022f033620046a6565b73ffffffffffffffffffffffffffffffffffffffff60405191168152f35b50346200025e57807ffffffffffffffffffffffffffffffffffffffffffffffffffffffffffffffffc3601126200025e57602060405160108152f35b50346200025e5760407ffffffffffffffffffffffffffffffffffffffffffffffffffffffffffffffffc3601126200025e576200238662003285565b9073ffffffffffffffffffffffffffffffffffffffff80921681526020906004825260408120602435825282526040812090604051808484549182815201908194845285842090845b818110620024235750505081620023e891038262003465565b6040519380850191818652518092526040850193925b8281106200240c5785850386f35b8351871685529381019392810192600101620023fe565b8254891684529287019260019283019201620023cf565b50346200025e57807ffffffffffffffffffffffffffffffffffffffffffffffffffffffffffffffffc3601126200025e5760207f3d13b7e57307bea7f94c474c597247d2da93d7de9136f8e123ed6525f50bbcec546040519015158152f35b50346200025e57807ffffffffffffffffffffffffffffffffffffffffffffffffffffffffffffffffc3601126200025e57602060405173ffffffffffffffffffffffffffffffffffffffff7f0000000000000000000000000000000000000000000000000000000000000000168152f35b50346200025e5760407ffffffffffffffffffffffffffffffffffffffffffffffffffffffffffffffffc3601126200025e576200254662003285565b604062002552620032a9565b9273ffffffffffffffffffffffffffffffffffffffff809316815260036020522091165f52602052602060405f2054604051908152f35b50346200025e5760207ffffffffffffffffffffffffffffffffffffffffffffffffffffffffffffffffc3601126200025e576020620022f0620006d762003285565b50346200025e5780620025de36620032ef565b9190939273ffffffffffffffffffffffffffffffffffffffff91826001541691823b15620004a1576200264a928892836040518096819582947ff50c862800000000000000000000000000000000000000000000000000000000845262001d5d8d6004860190620037c3565b03925af190811562001e1b578691620026cc575b50506200267362001d9b6101208501620034fa565b620026826101008401620045bf565b845416803b1562001434576200166e93858094604051968795869485937faac3454b0000000000000000000000000000000000000000000000000000000085526004850162003801565b620026d790620033af565b6200143457845f6200265e565b50346200025e5760207ffffffffffffffffffffffffffffffffffffffffffffffffffffffffffffffffc3601126200025e576200272062003285565b7fe7742ddf0fecd2926e7ef4d6d6e91a7b2f0b1f8805b78953dac8454e86273ed2549073ffffffffffffffffffffffffffffffffffffffff9182339116036200097c57807f18e50ee9696440d335192aeeeffc26f47782eaa914f1700d8ad36d6d7f7261b355167fa4336c0cb1e245b95ad204faed7e940d6dc999684fd8b5e1ff597a0c4efca8ab8280a280f35b50346200025e5760407ffffffffffffffffffffffffffffffffffffffffffffffffffffffffffffffffc3601126200025e57604060209173ffffffffffffffffffffffffffffffffffffffff6200280462003285565b16815260058352818120602435825283522054604051908152f35b50346200025e5760407ffffffffffffffffffffffffffffffffffffffffffffffffffffffffffffffffc3601126200025e576200285b62003285565b62002865620032a9565b60017f6fee9688c285c5c5c97d6a1a29adced674e6b2ad0888b8ad2116b58a8b3ea2488181541015620029e2578190557f2801b00eb06461cf9fcb9758b5fafd884ff06a86177386f73b6c49f0bf5a5af092818455303b151580620029da575b62001b0f57303b151580620029d2575b62001b0f5773ffffffffffffffffffffffffffffffffffffffff937fe7742ddf0fecd2926e7ef4d6d6e91a7b2f0b1f8805b78953dac8454e86273ed29185835416620029a8577fbe9b076dc5b65990cca9dd9d7366682482e7817a6f6bc7f4faf4dc32af497f32956020958894339055337f4ffd725fc4a22075e9ec71c59edf9c38cdeb588a91b24fc5b61388c5be41282b5f80a2817fffffffffffffffffffffffff0000000000000000000000000000000000000000931683865416178555169084541617835555604051908152a180f35b60046040517fe43bdd4e000000000000000000000000000000000000000000000000000000008152fd5b5084620028d5565b5084620028c5565b602482604051907f3db738da0000000000000000000000000000000000000000000000000000000082526004820152fd5b50346200025e57807ffffffffffffffffffffffffffffffffffffffffffffffffffffffffffffffffc3601126200025e5773ffffffffffffffffffffffffffffffffffffffff807f18e50ee9696440d335192aeeeffc26f47782eaa914f1700d8ad36d6d7f7261b35416331415908162002ad8575b506200225357807f3d13b7e57307bea7f94c474c597247d2da93d7de9136f8e123ed6525f50bbcec557fa45f47fdea8a1efdd9029a5691c7f759c32b7c698632b563573e155625d169338180a180f35b90507fe7742ddf0fecd2926e7ef4d6d6e91a7b2f0b1f8805b78953dac8454e86273ed254163314155f62002a88565b50346200025e57807ffffffffffffffffffffffffffffffffffffffffffffffffffffffffffffffffc60608136011262002d4b5767ffffffffffffffff6004358181116200087257803603926101009081818601126200037657602435848111620003855762002b7c903690600401620031f3565b94604435908111620004a15762002b98903690600401620031f3565b93909573ffffffffffffffffffffffffffffffffffffffff92836001541692833b1562002d4757604051917f191190bc000000000000000000000000000000000000000000000000000000008352604060048401527ffffffffffffffffffffffffffffffffffffffffffffffffffffffffffffffefd89600401359b018b121562002d435762002c6794838d8162002c768f8e9983978e6044602462002c508f968a9e848b01526004886101448c019201016200372d565b9501803560648901529d019d608487018f620036c1565b85840301602486015262003785565b03925af190811562002d38578a9162002d20575b505062002cad62002c9f62002cb393620034fa565b620007f960648901620034fa565b620045bf565b86541691823b15620003855762002d10956200166e60049389979388946040519a8b998a9889977fb557198f0000000000000000000000000000000000000000000000000000000089526040828a0152604489019201016200372d565b9285840301602486015262003785565b62002d2b90620033af565b6200169d57885f62002c8a565b6040513d8c823e3d90fd5b8b80fd5b8a80fd5b50fd5b50346200025e57807ffffffffffffffffffffffffffffffffffffffffffffffffffffffffffffffffc3601126200025e5760207f5b5cbfa852c5bd03e540eba853f8faf28a604a4d82bee1091096bfaea14d08c35473ffffffffffffffffffffffffffffffffffffffff60405191168152f35b50346200025e57807ffffffffffffffffffffffffffffffffffffffffffffffffffffffffffffffffc3601126200025e57602073ffffffffffffffffffffffffffffffffffffffff60015416604051908152f35b50346200025e5760607ffffffffffffffffffffffffffffffffffffffffffffffffffffffffffffffffc3601126200025e5762002e5162003285565b60443573ffffffffffffffffffffffffffffffffffffffff8082168092036200169957604093849182519462002e8786620033f1565b82865282602080970152168152600284528181206024358252845220905f528152815f2090825162002eb981620033f1565b8160018454948584520154910190815283519283525190820152f35b50346200025e5762002ee73662003224565b9073ffffffffffffffffffffffffffffffffffffffff62002f0f620006d760608601620034fa565b169260405193806020860152604082013560408601526040855262002f34856200342b565b62002f43602083013562004929565b6002811490811562002f83575b501562002f705762002f6a620006839562000665620034a7565b6200424e565b91620006839493916200065b936200424e565b60019150145f62002f50565b50346200025e57807ffffffffffffffffffffffffffffffffffffffffffffffffffffffffffffffffc3601126200025e5773ffffffffffffffffffffffffffffffffffffffff6020915416604051908152f35b50346200169957610100367ffffffffffffffffffffffffffffffffffffffffffffffffffffffffffffffffc01818112620016995760e013620016995760e43567ffffffffffffffff8111620016995762003042903690600401620031f3565b73ffffffffffffffffffffffffffffffffffffffff92916024359184831683036200169957846001541691823b156200169957620030d2925f92836040518096819582947f8008e3490000000000000000000000000000000000000000000000000000000084526004359b8c6004860152620030c1602486016200365b565b60e485015261010484019162003785565b03925af180156200315e5762003148575b50604435928084168403620016995762003111826200310b62000683966200065b95620044c3565b620046a6565b166200062e604051938492602084016020909392919373ffffffffffffffffffffffffffffffffffffffff60408201951681520152565b62003155919450620033af565b5f925f620030e3565b6040513d5f823e3d90fd5b34620016995760207ffffffffffffffffffffffffffffffffffffffffffffffffffffffffffffffffc36011262001699576004359073ffffffffffffffffffffffffffffffffffffffff821680920362001699576020915f527f81796b4965de195665289d95668a8a9e7020858e15f5341c42bcf9951c1768ad825260ff60405f20541615158152f35b9181601f84011215620016995782359167ffffffffffffffff83116200169957602083818601950101116200169957565b907ffffffffffffffffffffffffffffffffffffffffffffffffffffffffffffffffc820161014081126200169957610120136200169957600491610124359067ffffffffffffffff821162001699576200328191600401620031f3565b9091565b6004359073ffffffffffffffffffffffffffffffffffffffff821682036200169957565b6024359073ffffffffffffffffffffffffffffffffffffffff821682036200169957565b359073ffffffffffffffffffffffffffffffffffffffff821682036200169957565b907ffffffffffffffffffffffffffffffffffffffffffffffffffffffffffffffffc8201610220811262001699576101e013620016995760049167ffffffffffffffff916101e4358381116200169957826200334e91600401620031f3565b939093926102043591821162001699576200328191600401620031f3565b805482101562003382575f5260205f2001905f90565b7f4e487b71000000000000000000000000000000000000000000000000000000005f52603260045260245ffd5b67ffffffffffffffff8111620033c457604052565b7f4e487b71000000000000000000000000000000000000000000000000000000005f52604160045260245ffd5b6040810190811067ffffffffffffffff821117620033c457604052565b6080810190811067ffffffffffffffff821117620033c457604052565b6060810190811067ffffffffffffffff821117620033c457604052565b6020810190811067ffffffffffffffff821117620033c457604052565b90601f7fffffffffffffffffffffffffffffffffffffffffffffffffffffffffffffffe0910116810190811067ffffffffffffffff821117620033c457604052565b60405190620034b6826200340e565b6006548252600754602083015260085460408301526009546060830152565b6101043573ffffffffffffffffffffffffffffffffffffffff81168103620016995790565b3573ffffffffffffffffffffffffffffffffffffffff81168103620016995790565b90357fffffffffffffffffffffffffffffffffffffffffffffffffffffffffffffffe1823603018112156200169957016020813591019167ffffffffffffffff821162001699578160061b360383136200169957565b359081151582036200169957565b620035b26020809273ffffffffffffffffffffffffffffffffffffffff620035a882620032cd565b1685520162003572565b1515910152565b916020908281520191905f5b818110620035d35750505090565b90919280620035e56001928662003580565b60409081019401929101620035c5565b60043573ffffffffffffffffffffffffffffffffffffffff908181168091036200169957825260243581811680910362001699576020830152604435908116809103620016995760408201526064356060820152608435608082015260a060a435910152565b60243573ffffffffffffffffffffffffffffffffffffffff90818116809103620016995782526044358181168091036200169957602083015260643590811680910362001699576040820152608435606082015260a435608082015260a060c435910152565b60a0809173ffffffffffffffffffffffffffffffffffffffff80620036e683620032cd565b16855280620036f860208401620032cd565b1660208601526200370c60408301620032cd565b16604085015260608101356060850152608081013560808501520135910152565b6200378290604080620037786200375a6101006200374c86806200351c565b9091808a52890191620035b9565b6200376960208601866200351c565b9088830360208a0152620035b9565b94019101620036c1565b90565b601f82602094937fffffffffffffffffffffffffffffffffffffffffffffffffffffffffffffffe093818652868601375f8582860101520116010190565b620037ff91620037d4818362003580565b620037e66040820160408401620036c1565b61010080830135908201526101208091019101620036c1565b565b9062003782939162003829610120926200381c838262003580565b60408084019101620036c1565b81610100820152019162003785565b600b6055917fa7061a14e3ecf6b6005ae012e8d4e1b45b16518ae5b5553dad6dcd441776ee67604091825173ffffffffffffffffffffffffffffffffffffffff6020927fc4d66de8000000000000000000000000000000000000000000000000000000008484015216602482015260248152620038b5816200342b565b620039206200392d8361072f93875190620038d38387018362003465565b8582528282019562004bbc87398851620038f7816200062e86820194308662004677565b895195869362003910868601998a92519283916200460f565b840191518093868401906200460f565b0103808452018262003465565b5190208351938401528201523081520160ff81532090565b67ffffffffffffffff8111620033c45760051b60200190565b906200396a8262003945565b62003979604051918262003465565b8281527fffffffffffffffffffffffffffffffffffffffffffffffffffffffffffffffe0620039a9829462003945565b0190602036910137565b8051821015620033825760209160051b010190565b519081151582036200169957565b90915f925f73ffffffffffffffffffffffffffffffffffffffff80941694855f52600492602096848852604091825f20815f52895262003a19835f20546200395e565b935f955b855187101562003b6857835f52878b52845f20835f528b5262003a4387865f206200336c565b905490858c8b895193849384927f5b4b96950000000000000000000000000000000000000000000000000000000084528301526080948593602497889360031b1c165afa91821562003b5e57908892915f9262003afc575b50500151918262003aad8a8a620039b3565b525f838201938412911290801582169115161762003ad2575060019096019562003a1d565b6011897f4e487b71000000000000000000000000000000000000000000000000000000005f52525ffd5b8193508092503d831162003b56575b62003b17818362003465565b810103126200169957865187918e62003b30836200340e565b8151835280820151908301528281015183830152606080910151908201525f8062003a9b565b503d62003b0b565b88513d5f823e3d90fd5b92955090989398979697959295829762003b838b516200395e565b965f9973C10C99d010e8C7422f5fF0EBD2604A872Da64307945b8d518c101562003cf3578a8e62003c128e865f528b8d52835f20895f528d528c8862003bcc83875f206200336c565b929054908a5f5260028152875f20908d5f5252865f209260031b1c165f528d526001845f2094519462003bff86620033f1565b805486520154928d8501938452620039b3565b51908d51927fffc39dba000000000000000000000000000000000000000000000000000000008452518b84015251602483015288604483015260648201528b816084818a5af4801562003ce957908d92918c5f925f9262003c99575b5060019462003c7d91620039b3565b52811562003c90575b509b019a62003b9d565b90505f62003c86565b94505050508b82813d831162003ce1575b62003cb6818362003465565b810103126200169957818b62003c7d8f8d62003cd4600197620039c8565b9401519291509462003c6e565b503d62003caa565b8c513d5f823e3d90fd5b9b99509b50505050505050509150565b92915f9380519460209384830151961560011715620042215762003d3f96670de0b6b3a764000097889162003d39489162004827565b62004845565b04906040906060828601519501519051608c810180911162004221576004957f0fffffffffffffffffffffffffffffffffffffffffffffffffffffffffffffff82168203620041f5578351917ff5d6ded700000000000000000000000000000000000000000000000000000000835289838981606c5afa928315620040c35790888d9493925f94620041b8575b508462003dee62003d399462003d3962003dfd98999562003df6951b62004827565b049162004827565b9062004801565b049262003e0b848462004801565b9573ffffffffffffffffffffffffffffffffffffffff998a7f2b50211693ec91bcfe327771928b74a8f475c508d53e86fca4153bcf0f0e8776541697845180997ffeaf968c000000000000000000000000000000000000000000000000000000008252818a60a09c8d935afa908115620041ae575f916200415d575b508281029080820584149015171562004131576305f5e1009005905f821262004102579062003eb69162004845565b048382805181010312620016995788820151918b8316809303620016995784015164e8d4a5100090818102918183041490151715620040d65780821015620040cd5750955b813b15620016995783517f0b220c3900000000000000000000000000000000000000000000000000000000815287828201525f60248201525f8160448183875af18015620040c357620040ad575b508351917f23b872dd000000000000000000000000000000000000000000000000000000008a8401526024830152306044830152866064830152606482528782019082821067ffffffffffffffff8311176200408157509962003ff962004066927ffa0333956d06e335c550bd5fc4ac9c003c6545e371331b1071fa4d5d8519d6c19a9b9c8652827f00000000000000000000000000000000000000000000000000000000000000001662004947565b7f5b5cbfa852c5bd03e540eba853f8faf28a604a4d82bee1091096bfaea14d08c354908451917fa9059cbb000000000000000000000000000000000000000000000000000000008c840152336024840152886044840152604483526200405f836200340e565b1662004947565b815197818952880152860152606085015260808401523392a2565b6041907f4e487b71000000000000000000000000000000000000000000000000000000005f525260245ffd5b620040ba919350620033af565b5f915f62003f49565b85513d5f823e3d90fd5b90509562003efb565b6011887f4e487b71000000000000000000000000000000000000000000000000000000005f525260245ffd5b602489838851917f501f289e000000000000000000000000000000000000000000000000000000008352820152fd5b6011897f4e487b71000000000000000000000000000000000000000000000000000000005f525260245ffd5b90508981813d8311620041a6575b62004177818362003465565b8101031262001699576200418b816200480f565b506200419e60808c83015192016200480f565b505f62003e87565b503d6200416b565b86513d5f823e3d90fd5b9350509092508982813d8311620041ed575b620041d6818362003465565b81010312620016995790518b929091888462003dcc565b503d620041ca565b6011877f4e487b71000000000000000000000000000000000000000000000000000000005f525260245ffd5b7f4e487b71000000000000000000000000000000000000000000000000000000005f52601160045260245ffd5b6001545f9473ffffffffffffffffffffffffffffffffffffffff918216949390853b1562001699575f80620042e6604098899889519485809481937fc4786d9b0000000000000000000000000000000000000000000000000000000083528b620042b88c620032cd565b16600484015260208b01359d8e60248501528b0135604484015260608b0199620007b1606485018c620036c1565b03925af18015620044b95762004498575b50829162000ed36200430d6200431b93620034fa565b620007f960808401620034fa565b169184517ffc0c546a000000000000000000000000000000000000000000000000000000008152602081600481875afa9081156200448e5787916200444c575b5082807f0000000000000000000000000000000000000000000000000000000000000000169116036200441c571690813b15620014345783517fe1638ba300000000000000000000000000000000000000000000000000000000815273ffffffffffffffffffffffffffffffffffffffff919091166004820152602481019290925290919083908390604490829084905af1908115620044135750620043ff575050565b6200440b8291620033af565b6200025e5750565b513d84823e3d90fd5b6024838651907f950cd0710000000000000000000000000000000000000000000000000000000082526004820152fd5b90506020813d60201162004485575b816200446a6020938362003465565b81010312620003855751828116810362000385575f6200435b565b3d91506200445b565b86513d89823e3d90fd5b6200431b91975091620044ac8493620033af565b5f979092909150620042f7565b87513d5f823e3d90fd5b9073ffffffffffffffffffffffffffffffffffffffff8080931691168181141592836200451f575b505050620044f557565b60046040517f43e749f8000000000000000000000000000000000000000000000000000000008152fd5b60209293506044905f54169360405194859384927fbd9ee66b000000000000000000000000000000000000000000000000000000008452600484015260248301525afa9081156200315e575f916200457d575b50155f8080620044eb565b90506020813d602011620045b6575b816200459b6020938362003465565b810103126200169957620045af90620039c8565b5f62004572565b3d91506200458c565b620037ff906200065b620045da620006d760208401620034fa565b6040805173ffffffffffffffffffffffffffffffffffffffff909216602083015292359281019290925281606081016200062e565b5f5b838110620046215750505f910152565b818101518382015260200162004611565b907fffffffffffffffffffffffffffffffffffffffffffffffffffffffffffffffe0601f60209362004670815180928187528780880191016200460f565b0116010190565b60409073ffffffffffffffffffffffffffffffffffffffff620037829493168152816020820152019062004632565b90604051917fc4d66de800000000000000000000000000000000000000000000000000000000602084015273ffffffffffffffffffffffffffffffffffffffff8091169283602482015260248152620046ff816200342b565b60405161072f8082019082821067ffffffffffffffff831117620033c4577fa7061a14e3ecf6b6005ae012e8d4e1b45b16518ae5b5553dad6dcd441776ee67938392620047549262004bbc8539309062004677565b03905ff580156200315e5716805f527f81796b4965de195665289d95668a8a9e7020858e15f5341c42bcf9951c1768ad60205260405f2060017fffffffffffffffffffffffffffffffffffffffffffffffffffffffffffffff00825416179055807f4fe45192317a7d3ad19c3eaa395c0c3a1b7a0f53c3536fb96764c3561a8e9dad5f80a280927f2682a218602b9036c9869f006c5405ee4a1a65267653eb7e286123e5e1afde4c5f80a3565b919082018092116200422157565b519069ffffffffffffffffffff821682036200169957565b90670de0b6b3a7640000918281029281840414901517156200422157565b818102929181159184041417156200422157565b9035907fffffffffffffffffffffffffffffffffffffffffffffffffffffffffffffffe18136030182121562001699570180359067ffffffffffffffff82116200169957602001918160051b360383136200169957565b9190811015620033825760051b0190565b9035907fffffffffffffffffffffffffffffffffffffffffffffffffffffffffffffffe18136030182121562001699570180359067ffffffffffffffff82116200169957602001918160061b360383136200169957565b9190811015620033825760061b0190565b5f811362004941575f136200493d57600190565b5f90565b50600290565b73ffffffffffffffffffffffffffffffffffffffff166040516200496b81620033f1565b5f806020948584527f5361666545524332303a206c6f772d6c6576656c2063616c6c206661696c656486850152858151910182865af13d1562004ab7573d9067ffffffffffffffff8211620033c45762004a049360405192620049f6877fffffffffffffffffffffffffffffffffffffffffffffffffffffffffffffffe0601f840116018562003465565b83523d5f8785013e62004ae5565b80518062004a1157505050565b8183918101031262001699578162004a2a9101620039c8565b1562004a335750565b608490604051907f08c379a00000000000000000000000000000000000000000000000000000000082526004820152602a60248201527f5361666545524332303a204552433230206f7065726174696f6e20646964206e60448201527f6f742073756363656564000000000000000000000000000000000000000000006064820152fd5b9162004a049260609162004ae5565b620f42409081811162004ade57106200493d57600190565b5050600290565b9192901562004b63575081511562004afb575090565b3b1562004b055790565b60646040517f08c379a000000000000000000000000000000000000000000000000000000000815260206004820152601d60248201527f416464726573733a2063616c6c20746f206e6f6e2d636f6e74726163740000006044820152fd5b82519091501562004b775750805190602001fd5b62004bb7906040519182917f08c379a000000000000000000000000000000000000000000000000000000000835260206004840152602483019062004632565b0390fdfe608060409080825261072f80380380916100198285610342565b833981019082818303126102385761003081610365565b6020828101516001600160401b039391929184821161023857019084601f830112156102385781519161006283610379565b9261006f88519485610342565b8084528484019685828401011161023857868561008c9301610394565b803b156102f0578551635c60da1b60e01b80825292916001600160a01b0316908481600481855afa9081156102e6575f916102b1575b503b15610254577fa3f0ad74e5423aebfd80d3ef4346578335a9a72aeaee59ff6cb3582b35133d5080546001600160a01b03191682179055865192817f1cf3b03a6cf19fa2baba4df148e9dcabedea7f8a5c07840e207e5c089be95d3e5f80a282511580159061024d575b610140575b87516102c690816104698239f35b6004848693819382525afa918215610243575f92610208575b5085519360608501908111858210176101f4578652602784527f416464726573733a206c6f772d6c6576656c2064656c65676174652063616c6c83850152660819985a5b195960ca1b84870152516101de945f918291845af4903d156101eb573d6101c381610379565b906101d088519283610342565b81525f81943d92013e6103b5565b505f808080808080610132565b606092506103b5565b634e487b7160e01b5f52604160045260245ffd5b9091508281813d831161023c575b6102208183610342565b810103126102385761023190610365565b905f610159565b5f80fd5b503d610216565b86513d5f823e3d90fd5b505f61012d565b865162461bcd60e51b815260048101859052603060248201527f455243313936373a20626561636f6e20696d706c656d656e746174696f6e206960448201526f1cc81b9bdd08184818dbdb9d1c9858dd60821b6064820152608490fd5b90508481813d83116102df575b6102c88183610342565b81010312610238576102d990610365565b5f6100c2565b503d6102be565b88513d5f823e3d90fd5b855162461bcd60e51b815260048101849052602560248201527f455243313936373a206e657720626561636f6e206973206e6f74206120636f6e6044820152641d1c9858dd60da1b6064820152608490fd5b601f909101601f19168101906001600160401b038211908210176101f457604052565b51906001600160a01b038216820361023857565b6001600160401b0381116101f457601f01601f191660200190565b5f5b8381106103a55750505f910152565b8181015183820152602001610396565b9192901561041757508151156103c9575090565b3b156103d25790565b60405162461bcd60e51b815260206004820152601d60248201527f416464726573733a2063616c6c20746f206e6f6e2d636f6e74726163740000006044820152606490fd5b82519091501561042a5750805190602001fd5b6044604051809262461bcd60e51b82526020600483015261045a8151809281602486015260208686019101610394565b601f01601f19168101030190fdfe6080806040523661011c5760208160048173ffffffffffffffffffffffffffffffffffffffff7fa3f0ad74e5423aebfd80d3ef4346578335a9a72aeaee59ff6cb3582b35133d5054167f5c60da1b0000000000000000000000000000000000000000000000000000000082525afa908115610111575f91610081575b50610273565b905060203d60201161010a575b7fffffffffffffffffffffffffffffffffffffffffffffffffffffffffffffffe0601f82011682019180831067ffffffffffffffff8411176100dd576100d792604052016101f6565b5f61007b565b7f4e487b71000000000000000000000000000000000000000000000000000000005f52604160045260245ffd5b503d61008e565b6040513d5f823e3d90fd5b6004602073ffffffffffffffffffffffffffffffffffffffff7fa3f0ad74e5423aebfd80d3ef4346578335a9a72aeaee59ff6cb3582b35133d505416604051928380927f5c60da1b0000000000000000000000000000000000000000000000000000000082525afa908115610111575f916101975750610273565b602091503d82116101ee575b7fffffffffffffffffffffffffffffffffffffffffffffffffffffffffffffffe0601f83011681019181831067ffffffffffffffff8411176100dd576100d792604052810190610247565b3d91506101a3565b7fffffffffffffffffffffffffffffffffffffffffffffffffffffffffffffff8060209101126102435760805173ffffffffffffffffffffffffffffffffffffffff811681036102435790565b5f80fd5b90816020910312610243575173ffffffffffffffffffffffffffffffffffffffff811681036102435790565b5f8091368280378136915af43d5f803e1561028c573d5ff35b3d5ffdfea2646970667358221220ec432b4747e143afd3ca9be003efbb7d4ac773fd8dbbac59b6729d6be9a1e1a164736f6c63430008180033a264697066735822122092ac32ec49066ecc1d2732cd373a723def46bfe1fc882018374bbcf00363fef164736f6c63430008180033",
  "deployedBytecode": "0x608080604052600436101562000013575f80fd5b5f905f3560e01c908163032bb44314620031695750806303b1faf31462002fe257806306ae70951462002f8f578063132d4eb11462002ed55780631af3a6e61462002e155780632b7ac3f31462002dc157806332878cc91462002d4e57806332cd1a9a1462002b075780633f4ba83a1462002a13578063485cc955146200281f57806351b4c18d14620027ae578063554bab3c14620026e4578063583dec3214620025cb5780635872fe45146200258957806358c81fcb146200250a5780635c60da1b14620024995780635c975abb146200243a5780635d33db3c146200234a57806378fab5c7146200230e5780637fefe80914620022b25780638456cb59146200218d578063872053a6146200213657806389a3027114620020c55780638c29933e146200202c5780638da5cb5b1462001fb95780639fd0506d1462001f46578063a2060bcf1462001ed5578063aba30dfa1462001e99578063b20caf451462001e26578063b3684e131462001cde578063b51cf0a91462001c3c578063b5ee69551462001b72578063c0c53b8b1462001979578063c402f86014620016a1578063d55cde1f1462001440578063db06b6ae1462000a4f578063e30c397814620009dc578063ebbc4965146200088f578063f2842ace14620006b0578063f72e323c14620002615763fddc205f146200020b575f80fd5b346200025e57807ffffffffffffffffffffffffffffffffffffffffffffffffffffffffffffffffc3601126200025e57602073ffffffffffffffffffffffffffffffffffffffff600a5416604051908152f35b80fd5b50346200025e5760407ffffffffffffffffffffffffffffffffffffffffffffffffffffffffffffffffc3601126200025e576200029d62003285565b8173ffffffffffffffffffffffffffffffffffffffff828116906024908135845b848652602060048152604087208388528152604087205482101562000389578587526004815260408720908388525282620002fd82604089206200336c565b90549060031b1c16803b15620003855786809186604051809481937f6a256b290000000000000000000000000000000000000000000000000000000083528b60048401525af19081156200037a5787916200035e575b5050600101620002be565b6200036990620033af565b6200037657855f62000353565b8580fd5b6040513d89823e3d90fd5b8680fd5b5050915084926200039b8385620039d6565b94915015620006865782620003b08662003838565b1691865b8551811015620004b4578188526020600481526040892090848a525287620003e082604083206200336c565b905482620003ef858b620039b3565b511262000403575b505050600101620003b4565b6200040f848a620039b3565b5190873b15620004b0576040517fe1638ba300000000000000000000000000000000000000000000000000000000815260039390931b1c881673ffffffffffffffffffffffffffffffffffffffff1660048301526024820152818180604481010381838a5af18015620004a55762000489575b80620003f7565b6200049490620033af565b620004a157878962000482565b8780fd5b6040513d84823e3d90fd5b8380fd5b50865b8551811015620005a4578188526020600481526040892090848a525287620004e382604083206200336c565b905482620004f2858b620039b3565b511362000506575b505050600101620004b7565b62000512848a620039b3565b5190873b15620004b0576040517fe1638ba300000000000000000000000000000000000000000000000000000000815260039390931b1c881673ffffffffffffffffffffffffffffffffffffffff1660048301526024820152818180604481010381838a5af18015620004a5576200058c575b80620004fa565b6200059790620033af565b620004a157878962000585565b87620006838385620005dc8b82847fd58ec24dc80af351d45ae5fa8586232e0013343355190b0ef9b77bd8dbb68d718880a362003838565b9184526005602052604084209084526020526200065b6040842054916200062e604051938492602084016020909392919373ffffffffffffffffffffffffffffffffffffffff60408201951681520152565b037fffffffffffffffffffffffffffffffffffffffffffffffffffffffffffffffe0810183528262003465565b62000665620034a7565b60405190620006748262003448565b5f82525f602083015262003d03565b80f35b60046040517fdc72f280000000000000000000000000000000000000000000000000000000008152fd5b50346200025e5780620006c33662003224565b9060608301620006dd620006d782620034fa565b62003838565b93604081013593620007226040516200065b816200062e898b602084016020909392919373ffffffffffffffffffffffffffffffffffffffff60408201951681520152565b73ffffffffffffffffffffffffffffffffffffffff809616956001541690813b15620004a1576200079694620007c6928992836040518096819582947fcb5cd5090000000000000000000000000000000000000000000000000000000084528a359d8e600486015260208c019d8e62003572565b151560248601526044850152620007b1606485018d620036c1565b61014061012485015261014484019162003785565b03925af19081156200037a57879162000877575b5050620007f96080620007f16200080094620034fa565b9201620034fa565b90620044c3565b358015158091036200087257823b156200087257604484928360405195869485937f38d07436000000000000000000000000000000000000000000000000000000008552600485015260248401525af18015620004a5576200085f5750f35b6200086a90620033af565b6200025e5780f35b505050fd5b6200088290620033af565b6200037657855f620007da565b50346200025e57807ffffffffffffffffffffffffffffffffffffffffffffffffffffffffffffffffc3601126200025e577f675c83682abbc3e7dd47e40515a778fbbde4393395c3dd3588244203c3e47883805473ffffffffffffffffffffffffffffffffffffffff811690813303620009ac577fe7742ddf0fecd2926e7ef4d6d6e91a7b2f0b1f8805b78953dac8454e86273ed255807f4ffd725fc4a22075e9ec71c59edf9c38cdeb588a91b24fc5b61388c5be41282b5f80a233036200097c57819055807f69f201bc2089b9be6195d876d97a0136b4cf56bbf8986a52dcb50697f7d1cac58180a280f35b60246040517f99bf6359000000000000000000000000000000000000000000000000000000008152336004820152fd5b60246040517fd0d5e1b0000000000000000000000000000000000000000000000000000000008152336004820152fd5b50346200025e57807ffffffffffffffffffffffffffffffffffffffffffffffffffffffffffffffffc3601126200025e5760207f675c83682abbc3e7dd47e40515a778fbbde4393395c3dd3588244203c3e478835473ffffffffffffffffffffffffffffffffffffffff60405191168152f35b50346200025e5760407ffffffffffffffffffffffffffffffffffffffffffffffffffffffffffffffffc3601126200025e5767ffffffffffffffff9081600435116200025e5760043536036101607ffffffffffffffffffffffffffffffffffffffffffffffffffffffffffffffffc8201126200143c57602435838111620014385762000ae1903690600401620031f3565b73ffffffffffffffffffffffffffffffffffffffff6001541691823b156200143457604051937fbbcb5741000000000000000000000000000000000000000000000000000000008552604060048601526004356004013560448601527fffffffffffffffffffffffffffffffffffffffffffffffffffffffffffffffdd602460043501359101811215620003765760043501956004870135116200143457600486013560051b360360248701136200143457610160606485015260048601356101a48501526101c48401956024810190865b60048201358110620013f857505050602062000bda6044600435016004356004016200351c565b8689037fffffffffffffffffffffffffffffffffffffffffffffffffffffffffffffffbc0160848801528089529790910196865b818110620013d7575050509183858162000c838299829684986064600435013560a48601526084600435013560c486015262000c5360e4860160a460043501620036c1565b7ffffffffffffffffffffffffffffffffffffffffffffffffffffffffffffffffc85840301602486015262003785565b03925af18015620004a557620013bf575b505062000cba62000caa60a460043501620034fa565b620007f960c460043501620034fa565b62000cca60a460043501620034fa565b60043560040135158015620013ae575b6200138457600462000cf460248235018235830162004859565b9050116200135a57815b73ffffffffffffffffffffffffffffffffffffffff82168352600460205260408320600435600401358452602052604083205481101562000e0f5760019073ffffffffffffffffffffffffffffffffffffffff8316845260046020526040842060043560040135855260205273ffffffffffffffffffffffffffffffffffffffff62000d8e82604087206200336c565b919054600392831b1c169073ffffffffffffffffffffffffffffffffffffffff8516865260026020526040862060043560040135875260205260408620825f526020525f8460408220828155015573ffffffffffffffffffffffffffffffffffffffff8516865260205260408520905f526020525f60408120550162000cfe565b5073ffffffffffffffffffffffffffffffffffffffff81168252600460205260408220600435600401358352602052604082208054908381558162001334575b5050819082915b62000e6c60246004350160043560040162004859565b9050831015620012565773ffffffffffffffffffffffffffffffffffffffff8216845260036020526040842073ffffffffffffffffffffffffffffffffffffffff62000ed962000ed38662000ecc60246004350160043560040162004859565b90620048b0565b620034fa565b165f5260205260405f205480620011ea575073ffffffffffffffffffffffffffffffffffffffff8216845260036020526040842073ffffffffffffffffffffffffffffffffffffffff62000f4162000ed38662000ecc60246004350160043560040162004859565b165f526020526004356004013560405f205562000f758362000f6e604460043501600435600401620048c1565b9062004918565b73ffffffffffffffffffffffffffffffffffffffff831685526002602052604085206004356004013586526020526040852073ffffffffffffffffffffffffffffffffffffffff62000fdb62000ed38762000ecc60246004350160043560040162004859565b165f526020526001602060405f209280358455013591015573ffffffffffffffffffffffffffffffffffffffff821684526004602052604084206004356004013585526020526040842073ffffffffffffffffffffffffffffffffffffffff6200105962000ed38662000ecc60246004350160043560040162004859565b169080549068010000000000000000821015620011bd579162001089826200110d9460018097950181556200336c565b73ffffffffffffffffffffffffffffffffffffffff829392549160031b92831b921b191617905573ffffffffffffffffffffffffffffffffffffffff84168652600560205260408620600435600401358752602052606460043501356040872055620011058562000f6e604460043501600435600401620048c1565b359062004801565b926200112d62000ed38262000ecc60246004350160043560040162004859565b73ffffffffffffffffffffffffffffffffffffffff6200115d8362000f6e604460043501600435600401620048c1565b916020604051938035855201356020840152169060043560040135907f499f2d584337dd47a4e71a8a4c57b77ad0058bb1a360335a855979a5ca3061d4604073ffffffffffffffffffffffffffffffffffffffff881692a4019162000e56565b6024877f4e487b710000000000000000000000000000000000000000000000000000000081526041600452fd5b60449073ffffffffffffffffffffffffffffffffffffffff6200122162000ed38762000ecc60246004350160043560040162004859565b1690604051917fe21464ba00000000000000000000000000000000000000000000000000000000835260048301526024820152fd5b9091506200126f60246004350160043560040162004859565b9050151590816200131c575b50620012f2576200129760246004350160043560040162004859565b90506040519081527f18fea070ebed40821f9c45ae1f8c875c49b031e4ff3b701b4772ade527f51088602073ffffffffffffffffffffffffffffffffffffffff60043560040135941692a362000683608460043501620045bf565b60046040517f64580a1c000000000000000000000000000000000000000000000000000000008152fd5b600191506200132b9062004ac6565b14155f6200127b565b83526020832090815b81830181106200134e575062000e4f565b5f81556001016200133d565b60046040517fecce9fda000000000000000000000000000000000000000000000000000000008152fd5b60046040517fa16ba7f2000000000000000000000000000000000000000000000000000000008152fd5b506008600435600401351162000cda565b620013ca90620033af565b6200025e57805f62000c94565b82358952602080840135908a01526040988901989092019160010162000c0e565b909197600160208060049373ffffffffffffffffffffffffffffffffffffffff620014238e620032cd565b168152019a01939201905062000bb3565b8480fd5b8280fd5b5080fd5b50346200025e577ffffffffffffffffffffffffffffffffffffffffffffffffffffffffffffffffc36016101e081126200143c576101a0136200025e576101a467ffffffffffffffff8135818111620004b057620014a3903690600401620031f3565b6101c49291929182359081116200037657620014c4903690600401620031f3565b92909373ffffffffffffffffffffffffffffffffffffffff92836001541691823b156200169d57604051917ff5ba0b1d0000000000000000000000000000000000000000000000000000000083526200152060048401620035f5565b60c435938460c485015260e43595878716808803620016995760e4860152610104803590898216809203620016995786015261012480359b898d16809d036200169957620015a38e9d9688968f98956101c089979588968c9888015261014480359088015261016480359088015261018480359088015286015284019162003785565b03925af19081156200037a57879162001681575b50506200065b620015db6200160d93620006d7620015d4620034d5565b82620044c3565b6040805173ffffffffffffffffffffffffffffffffffffffff909216602083015281019290925281606081016200062e565b600a541691823b1562000872576200166e928492836040518096819582947f3a1505ca0000000000000000000000000000000000000000000000000000000084526200165c60048501620035f5565b60e060c485015260e484019162003785565b03925af18015620004a5576200085f5750f35b6200168c90620033af565b6200037657855f620015b7565b5f80fd5b8880fd5b50346200025e577ffffffffffffffffffffffffffffffffffffffffffffffffffffffffffffffffc360161020081126200143c576101c0136200025e5767ffffffffffffffff6101c435818111620014385762001703903690600401620031f3565b916101e435908111620004b05762001720903690600401620031f3565b909173ffffffffffffffffffffffffffffffffffffffff6001541690813b156200037657604051907f834a0d48000000000000000000000000000000000000000000000000000000008252600435600483015262001781602483016200365b565b60e43560e483015273ffffffffffffffffffffffffffffffffffffffff61010435166101043503620016995773ffffffffffffffffffffffffffffffffffffffff61010435166101048301526101249283359373ffffffffffffffffffffffffffffffffffffffff85169081860362001699578401526101449081359273ffffffffffffffffffffffffffffffffffffffff8416809403620016995789856200185f819593839c849884968501526101648035908501526101848035908501526101a48035908501526101e06101c48501526101e484019162003785565b03925af19081156200196e57859162001956575b50506200188a9062001884620034d5565b620044c3565b620018d66200062e6200065b620018a46101043562003838565b6040805173ffffffffffffffffffffffffffffffffffffffff909216602083015260e435908201529182906060820190565b73ffffffffffffffffffffffffffffffffffffffff600a541691823b1562000872576200166e928492836040518096819582947f715a86c5000000000000000000000000000000000000000000000000000000008452600435600485015262001942602485016200365b565b61010060e485015261010484019162003785565b6200196190620033af565b6200087257835f62001873565b6040513d87823e3d90fd5b50346200025e5760607ffffffffffffffffffffffffffffffffffffffffffffffffffffffffffffffffc3601126200025e57620019b562003285565b620019bf620032a9565b6044359073ffffffffffffffffffffffffffffffffffffffff9182811680910362001434577f6fee9688c285c5c5c97d6a1a29adced674e6b2ad0888b8ad2116b58a8b3ea24860028154101562001b415760029055303b15158062001b39575b62001b0f577f2b50211693ec91bcfe327771928b74a8f475c508d53e86fca4153bcf0f0e8776557f00000000000000000000000000000000000000000000000000000000000000007f5b5cbfa852c5bd03e540eba853f8faf28a604a4d82bee1091096bfaea14d08c355817fffffffffffffffffffffffff000000000000000000000000000000000000000093168385541617845516906001541617600155807f2801b00eb06461cf9fcb9758b5fafd884ff06a86177386f73b6c49f0bf5a5af0557fbe9b076dc5b65990cca9dd9d7366682482e7817a6f6bc7f4faf4dc32af497f32602060405160028152a180f35b60046040517fb9a621e1000000000000000000000000000000000000000000000000000000008152fd5b508462001a1f565b60246040517f3db738da00000000000000000000000000000000000000000000000000000000815260026004820152fd5b50346200025e5760207ffffffffffffffffffffffffffffffffffffffffffffffffffffffffffffffffc3601126200025e5762001bae62003285565b7fe7742ddf0fecd2926e7ef4d6d6e91a7b2f0b1f8805b78953dac8454e86273ed2549073ffffffffffffffffffffffffffffffffffffffff9182339116036200097c57807f675c83682abbc3e7dd47e40515a778fbbde4393395c3dd3588244203c3e4788355167f69f201bc2089b9be6195d876d97a0136b4cf56bbf8986a52dcb50697f7d1cac58280a280f35b50346200025e5760407ffffffffffffffffffffffffffffffffffffffffffffffffffffffffffffffffc3601126200025e5762001c8662001c7c62003285565b60243590620039d6565b90919260405193849360608501918552602090151560208601526060604086015283518092526020608086019401925b82811062001cc657505050500390f35b83518552869550938101939281019260010162001cb6565b50346200025e578062001cf136620032ef565b9190939273ffffffffffffffffffffffffffffffffffffffff91826001541691823b15620004a15762001d72928892836040518096819582947fde4030ed00000000000000000000000000000000000000000000000000000000845262001d5d8d6004860190620037c3565b6102006101e485015261020484019162003785565b03925af190811562001e1b57869162001e03575b505062001daa62001d9b6101208501620034fa565b620007f96101408601620034fa565b62001db96101008401620045bf565b845416803b1562001434576200166e93858094604051968795869485937fc655a23d0000000000000000000000000000000000000000000000000000000085526004850162003801565b62001e0e90620033af565b6200143457845f62001d86565b6040513d88823e3d90fd5b50346200025e57807ffffffffffffffffffffffffffffffffffffffffffffffffffffffffffffffffc3601126200025e57602073ffffffffffffffffffffffffffffffffffffffff7f2b50211693ec91bcfe327771928b74a8f475c508d53e86fca4153bcf0f0e87765416604051908152f35b50346200025e57807ffffffffffffffffffffffffffffffffffffffffffffffffffffffffffffffffc3601126200025e576020604051608c8152f35b50346200025e57807ffffffffffffffffffffffffffffffffffffffffffffffffffffffffffffffffc3601126200025e57602060405173ffffffffffffffffffffffffffffffffffffffff7f0000000000000000000000000000000000000000000000000000000000000000168152f35b50346200025e57807ffffffffffffffffffffffffffffffffffffffffffffffffffffffffffffffffc3601126200025e5760207f18e50ee9696440d335192aeeeffc26f47782eaa914f1700d8ad36d6d7f7261b35473ffffffffffffffffffffffffffffffffffffffff60405191168152f35b50346200025e57807ffffffffffffffffffffffffffffffffffffffffffffffffffffffffffffffffc3601126200025e5760207fe7742ddf0fecd2926e7ef4d6d6e91a7b2f0b1f8805b78953dac8454e86273ed25473ffffffffffffffffffffffffffffffffffffffff60405191168152f35b50346200025e5760607ffffffffffffffffffffffffffffffffffffffffffffffffffffffffffffffffc3601126200025e576200206862003285565b6044359173ffffffffffffffffffffffffffffffffffffffff80921681526004602052604081206024358252602052604081209081548410156200025e5750602092620020b5916200336c565b9190546040519260031b1c168152f35b50346200025e57807ffffffffffffffffffffffffffffffffffffffffffffffffffffffffffffffffc3601126200025e57602060405173ffffffffffffffffffffffffffffffffffffffff7f0000000000000000000000000000000000000000000000000000000000000000168152f35b50346200025e57807ffffffffffffffffffffffffffffffffffffffffffffffffffffffffffffffffc3601126200025e57608060065460075460085460095491604051938452602084015260408301526060820152f35b50346200025e57807ffffffffffffffffffffffffffffffffffffffffffffffffffffffffffffffffc3601126200025e5773ffffffffffffffffffffffffffffffffffffffff807f18e50ee9696440d335192aeeeffc26f47782eaa914f1700d8ad36d6d7f7261b35416331415908162002283575b50620022535760017f3d13b7e57307bea7f94c474c597247d2da93d7de9136f8e123ed6525f50bbcec557f9e87fac88ff661f02d44f95383c817fece4bce600a3dab7a54406878b965e7528180a180f35b60246040517ff7987a92000000000000000000000000000000000000000000000000000000008152336004820152fd5b90507fe7742ddf0fecd2926e7ef4d6d6e91a7b2f0b1f8805b78953dac8454e86273ed254163314155f62002202565b50346200025e57807ffffffffffffffffffffffffffffffffffffffffffffffffffffffffffffffffc3601126200025e576020620022f033620046a6565b73ffffffffffffffffffffffffffffffffffffffff60405191168152f35b50346200025e57807ffffffffffffffffffffffffffffffffffffffffffffffffffffffffffffffffc3601126200025e57602060405160108152f35b50346200025e5760407ffffffffffffffffffffffffffffffffffffffffffffffffffffffffffffffffc3601126200025e576200238662003285565b9073ffffffffffffffffffffffffffffffffffffffff80921681526020906004825260408120602435825282526040812090604051808484549182815201908194845285842090845b818110620024235750505081620023e891038262003465565b6040519380850191818652518092526040850193925b8281106200240c5785850386f35b8351871685529381019392810192600101620023fe565b8254891684529287019260019283019201620023cf565b50346200025e57807ffffffffffffffffffffffffffffffffffffffffffffffffffffffffffffffffc3601126200025e5760207f3d13b7e57307bea7f94c474c597247d2da93d7de9136f8e123ed6525f50bbcec546040519015158152f35b50346200025e57807ffffffffffffffffffffffffffffffffffffffffffffffffffffffffffffffffc3601126200025e57602060405173ffffffffffffffffffffffffffffffffffffffff7f0000000000000000000000000000000000000000000000000000000000000000168152f35b50346200025e5760407ffffffffffffffffffffffffffffffffffffffffffffffffffffffffffffffffc3601126200025e576200254662003285565b604062002552620032a9565b9273ffffffffffffffffffffffffffffffffffffffff809316815260036020522091165f52602052602060405f2054604051908152f35b50346200025e5760207ffffffffffffffffffffffffffffffffffffffffffffffffffffffffffffffffc3601126200025e576020620022f0620006d762003285565b50346200025e5780620025de36620032ef565b9190939273ffffffffffffffffffffffffffffffffffffffff91826001541691823b15620004a1576200264a928892836040518096819582947ff50c862800000000000000000000000000000000000000000000000000000000845262001d5d8d6004860190620037c3565b03925af190811562001e1b578691620026cc575b50506200267362001d9b6101208501620034fa565b620026826101008401620045bf565b845416803b1562001434576200166e93858094604051968795869485937faac3454b0000000000000000000000000000000000000000000000000000000085526004850162003801565b620026d790620033af565b6200143457845f6200265e565b50346200025e5760207ffffffffffffffffffffffffffffffffffffffffffffffffffffffffffffffffc3601126200025e576200272062003285565b7fe7742ddf0fecd2926e7ef4d6d6e91a7b2f0b1f8805b78953dac8454e86273ed2549073ffffffffffffffffffffffffffffffffffffffff9182339116036200097c57807f18e50ee9696440d335192aeeeffc26f47782eaa914f1700d8ad36d6d7f7261b355167fa4336c0cb1e245b95ad204faed7e940d6dc999684fd8b5e1ff597a0c4efca8ab8280a280f35b50346200025e5760407ffffffffffffffffffffffffffffffffffffffffffffffffffffffffffffffffc3601126200025e57604060209173ffffffffffffffffffffffffffffffffffffffff6200280462003285565b16815260058352818120602435825283522054604051908152f35b50346200025e5760407ffffffffffffffffffffffffffffffffffffffffffffffffffffffffffffffffc3601126200025e576200285b62003285565b62002865620032a9565b60017f6fee9688c285c5c5c97d6a1a29adced674e6b2ad0888b8ad2116b58a8b3ea2488181541015620029e2578190557f2801b00eb06461cf9fcb9758b5fafd884ff06a86177386f73b6c49f0bf5a5af092818455303b151580620029da575b62001b0f57303b151580620029d2575b62001b0f5773ffffffffffffffffffffffffffffffffffffffff937fe7742ddf0fecd2926e7ef4d6d6e91a7b2f0b1f8805b78953dac8454e86273ed29185835416620029a8577fbe9b076dc5b65990cca9dd9d7366682482e7817a6f6bc7f4faf4dc32af497f32956020958894339055337f4ffd725fc4a22075e9ec71c59edf9c38cdeb588a91b24fc5b61388c5be41282b5f80a2817fffffffffffffffffffffffff0000000000000000000000000000000000000000931683865416178555169084541617835555604051908152a180f35b60046040517fe43bdd4e000000000000000000000000000000000000000000000000000000008152fd5b5084620028d5565b5084620028c5565b602482604051907f3db738da0000000000000000000000000000000000000000000000000000000082526004820152fd5b50346200025e57807ffffffffffffffffffffffffffffffffffffffffffffffffffffffffffffffffc3601126200025e5773ffffffffffffffffffffffffffffffffffffffff807f18e50ee9696440d335192aeeeffc26f47782eaa914f1700d8ad36d6d7f7261b35416331415908162002ad8575b506200225357807f3d13b7e57307bea7f94c474c597247d2da93d7de9136f8e123ed6525f50bbcec557fa45f47fdea8a1efdd9029a5691c7f759c32b7c698632b563573e155625d169338180a180f35b90507fe7742ddf0fecd2926e7ef4d6d6e91a7b2f0b1f8805b78953dac8454e86273ed254163314155f62002a88565b50346200025e57807ffffffffffffffffffffffffffffffffffffffffffffffffffffffffffffffffc60608136011262002d4b5767ffffffffffffffff6004358181116200087257803603926101009081818601126200037657602435848111620003855762002b7c903690600401620031f3565b94604435908111620004a15762002b98903690600401620031f3565b93909573ffffffffffffffffffffffffffffffffffffffff92836001541692833b1562002d4757604051917f191190bc000000000000000000000000000000000000000000000000000000008352604060048401527ffffffffffffffffffffffffffffffffffffffffffffffffffffffffffffffefd89600401359b018b121562002d435762002c6794838d8162002c768f8e9983978e6044602462002c508f968a9e848b01526004886101448c019201016200372d565b9501803560648901529d019d608487018f620036c1565b85840301602486015262003785565b03925af190811562002d38578a9162002d20575b505062002cad62002c9f62002cb393620034fa565b620007f960648901620034fa565b620045bf565b86541691823b15620003855762002d10956200166e60049389979388946040519a8b998a9889977fb557198f0000000000000000000000000000000000000000000000000000000089526040828a0152604489019201016200372d565b9285840301602486015262003785565b62002d2b90620033af565b6200169d57885f62002c8a565b6040513d8c823e3d90fd5b8b80fd5b8a80fd5b50fd5b50346200025e57807ffffffffffffffffffffffffffffffffffffffffffffffffffffffffffffffffc3601126200025e5760207f5b5cbfa852c5bd03e540eba853f8faf28a604a4d82bee1091096bfaea14d08c35473ffffffffffffffffffffffffffffffffffffffff60405191168152f35b50346200025e57807ffffffffffffffffffffffffffffffffffffffffffffffffffffffffffffffffc3601126200025e57602073ffffffffffffffffffffffffffffffffffffffff60015416604051908152f35b50346200025e5760607ffffffffffffffffffffffffffffffffffffffffffffffffffffffffffffffffc3601126200025e5762002e5162003285565b60443573ffffffffffffffffffffffffffffffffffffffff8082168092036200169957604093849182519462002e8786620033f1565b82865282602080970152168152600284528181206024358252845220905f528152815f2090825162002eb981620033f1565b8160018454948584520154910190815283519283525190820152f35b50346200025e5762002ee73662003224565b9073ffffffffffffffffffffffffffffffffffffffff62002f0f620006d760608601620034fa565b169260405193806020860152604082013560408601526040855262002f34856200342b565b62002f43602083013562004929565b6002811490811562002f83575b501562002f705762002f6a620006839562000665620034a7565b6200424e565b91620006839493916200065b936200424e565b60019150145f62002f50565b50346200025e57807ffffffffffffffffffffffffffffffffffffffffffffffffffffffffffffffffc3601126200025e5773ffffffffffffffffffffffffffffffffffffffff6020915416604051908152f35b50346200169957610100367ffffffffffffffffffffffffffffffffffffffffffffffffffffffffffffffffc01818112620016995760e013620016995760e43567ffffffffffffffff8111620016995762003042903690600401620031f3565b73ffffffffffffffffffffffffffffffffffffffff92916024359184831683036200169957846001541691823b156200169957620030d2925f92836040518096819582947f8008e3490000000000000000000000000000000000000000000000000000000084526004359b8c6004860152620030c1602486016200365b565b60e485015261010484019162003785565b03925af180156200315e5762003148575b50604435928084168403620016995762003111826200310b62000683966200065b95620044c3565b620046a6565b166200062e604051938492602084016020909392919373ffffffffffffffffffffffffffffffffffffffff60408201951681520152565b62003155919450620033af565b5f925f620030e3565b6040513d5f823e3d90fd5b34620016995760207ffffffffffffffffffffffffffffffffffffffffffffffffffffffffffffffffc36011262001699576004359073ffffffffffffffffffffffffffffffffffffffff821680920362001699576020915f527f81796b4965de195665289d95668a8a9e7020858e15f5341c42bcf9951c1768ad825260ff60405f20541615158152f35b9181601f84011215620016995782359167ffffffffffffffff83116200169957602083818601950101116200169957565b907ffffffffffffffffffffffffffffffffffffffffffffffffffffffffffffffffc820161014081126200169957610120136200169957600491610124359067ffffffffffffffff821162001699576200328191600401620031f3565b9091565b6004359073ffffffffffffffffffffffffffffffffffffffff821682036200169957565b6024359073ffffffffffffffffffffffffffffffffffffffff821682036200169957565b359073ffffffffffffffffffffffffffffffffffffffff821682036200169957565b907ffffffffffffffffffffffffffffffffffffffffffffffffffffffffffffffffc8201610220811262001699576101e013620016995760049167ffffffffffffffff916101e4358381116200169957826200334e91600401620031f3565b939093926102043591821162001699576200328191600401620031f3565b805482101562003382575f5260205f2001905f90565b7f4e487b71000000000000000000000000000000000000000000000000000000005f52603260045260245ffd5b67ffffffffffffffff8111620033c457604052565b7f4e487b71000000000000000000000000000000000000000000000000000000005f52604160045260245ffd5b6040810190811067ffffffffffffffff821117620033c457604052565b6080810190811067ffffffffffffffff821117620033c457604052565b6060810190811067ffffffffffffffff821117620033c457604052565b6020810190811067ffffffffffffffff821117620033c457604052565b90601f7fffffffffffffffffffffffffffffffffffffffffffffffffffffffffffffffe0910116810190811067ffffffffffffffff821117620033c457604052565b60405190620034b6826200340e565b6006548252600754602083015260085460408301526009546060830152565b6101043573ffffffffffffffffffffffffffffffffffffffff81168103620016995790565b3573ffffffffffffffffffffffffffffffffffffffff81168103620016995790565b90357fffffffffffffffffffffffffffffffffffffffffffffffffffffffffffffffe1823603018112156200169957016020813591019167ffffffffffffffff821162001699578160061b360383136200169957565b359081151582036200169957565b620035b26020809273ffffffffffffffffffffffffffffffffffffffff620035a882620032cd565b1685520162003572565b1515910152565b916020908281520191905f5b818110620035d35750505090565b90919280620035e56001928662003580565b60409081019401929101620035c5565b60043573ffffffffffffffffffffffffffffffffffffffff908181168091036200169957825260243581811680910362001699576020830152604435908116809103620016995760408201526064356060820152608435608082015260a060a435910152565b60243573ffffffffffffffffffffffffffffffffffffffff90818116809103620016995782526044358181168091036200169957602083015260643590811680910362001699576040820152608435606082015260a435608082015260a060c435910152565b60a0809173ffffffffffffffffffffffffffffffffffffffff80620036e683620032cd565b16855280620036f860208401620032cd565b1660208601526200370c60408301620032cd565b16604085015260608101356060850152608081013560808501520135910152565b6200378290604080620037786200375a6101006200374c86806200351c565b9091808a52890191620035b9565b6200376960208601866200351c565b9088830360208a0152620035b9565b94019101620036c1565b90565b601f82602094937fffffffffffffffffffffffffffffffffffffffffffffffffffffffffffffffe093818652868601375f8582860101520116010190565b620037ff91620037d4818362003580565b620037e66040820160408401620036c1565b61010080830135908201526101208091019101620036c1565b565b9062003782939162003829610120926200381c838262003580565b60408084019101620036c1565b81610100820152019162003785565b600b6055917fa7061a14e3ecf6b6005ae012e8d4e1b45b16518ae5b5553dad6dcd441776ee67604091825173ffffffffffffffffffffffffffffffffffffffff6020927fc4d66de8000000000000000000000000000000000000000000000000000000008484015216602482015260248152620038b5816200342b565b620039206200392d8361072f93875190620038d38387018362003465565b8582528282019562004bbc87398851620038f7816200062e86820194308662004677565b895195869362003910868601998a92519283916200460f565b840191518093868401906200460f565b0103808452018262003465565b5190208351938401528201523081520160ff81532090565b67ffffffffffffffff8111620033c45760051b60200190565b906200396a8262003945565b62003979604051918262003465565b8281527fffffffffffffffffffffffffffffffffffffffffffffffffffffffffffffffe0620039a9829462003945565b0190602036910137565b8051821015620033825760209160051b010190565b519081151582036200169957565b90915f925f73ffffffffffffffffffffffffffffffffffffffff80941694855f52600492602096848852604091825f20815f52895262003a19835f20546200395e565b935f955b855187101562003b6857835f52878b52845f20835f528b5262003a4387865f206200336c565b905490858c8b895193849384927f5b4b96950000000000000000000000000000000000000000000000000000000084528301526080948593602497889360031b1c165afa91821562003b5e57908892915f9262003afc575b50500151918262003aad8a8a620039b3565b525f838201938412911290801582169115161762003ad2575060019096019562003a1d565b6011897f4e487b71000000000000000000000000000000000000000000000000000000005f52525ffd5b8193508092503d831162003b56575b62003b17818362003465565b810103126200169957865187918e62003b30836200340e565b8151835280820151908301528281015183830152606080910151908201525f8062003a9b565b503d62003b0b565b88513d5f823e3d90fd5b92955090989398979697959295829762003b838b516200395e565b965f9973__$48c01f32ffc70665c84e0e05fd3a471bff$__945b8d518c101562003cf3578a8e62003c128e865f528b8d52835f20895f528d528c8862003bcc83875f206200336c565b929054908a5f5260028152875f20908d5f5252865f209260031b1c165f528d526001845f2094519462003bff86620033f1565b805486520154928d8501938452620039b3565b51908d51927fffc39dba000000000000000000000000000000000000000000000000000000008452518b84015251602483015288604483015260648201528b816084818a5af4801562003ce957908d92918c5f925f9262003c99575b5060019462003c7d91620039b3565b52811562003c90575b509b019a62003b9d565b90505f62003c86565b94505050508b82813d831162003ce1575b62003cb6818362003465565b810103126200169957818b62003c7d8f8d62003cd4600197620039c8565b9401519291509462003c6e565b503d62003caa565b8c513d5f823e3d90fd5b9b99509b50505050505050509150565b92915f9380519460209384830151961560011715620042215762003d3f96670de0b6b3a764000097889162003d39489162004827565b62004845565b04906040906060828601519501519051608c810180911162004221576004957f0fffffffffffffffffffffffffffffffffffffffffffffffffffffffffffffff82168203620041f5578351917ff5d6ded700000000000000000000000000000000000000000000000000000000835289838981606c5afa928315620040c35790888d9493925f94620041b8575b508462003dee62003d399462003d3962003dfd98999562003df6951b62004827565b049162004827565b9062004801565b049262003e0b848462004801565b9573ffffffffffffffffffffffffffffffffffffffff998a7f2b50211693ec91bcfe327771928b74a8f475c508d53e86fca4153bcf0f0e8776541697845180997ffeaf968c000000000000000000000000000000000000000000000000000000008252818a60a09c8d935afa908115620041ae575f916200415d575b508281029080820584149015171562004131576305f5e1009005905f821262004102579062003eb69162004845565b048382805181010312620016995788820151918b8316809303620016995784015164e8d4a5100090818102918183041490151715620040d65780821015620040cd5750955b813b15620016995783517f0b220c3900000000000000000000000000000000000000000000000000000000815287828201525f60248201525f8160448183875af18015620040c357620040ad575b508351917f23b872dd000000000000000000000000000000000000000000000000000000008a8401526024830152306044830152866064830152606482528782019082821067ffffffffffffffff8311176200408157509962003ff962004066927ffa0333956d06e335c550bd5fc4ac9c003c6545e371331b1071fa4d5d8519d6c19a9b9c8652827f00000000000000000000000000000000000000000000000000000000000000001662004947565b7f5b5cbfa852c5bd03e540eba853f8faf28a604a4d82bee1091096bfaea14d08c354908451917fa9059cbb000000000000000000000000000000000000000000000000000000008c840152336024840152886044840152604483526200405f836200340e565b1662004947565b815197818952880152860152606085015260808401523392a2565b6041907f4e487b71000000000000000000000000000000000000000000000000000000005f525260245ffd5b620040ba919350620033af565b5f915f62003f49565b85513d5f823e3d90fd5b90509562003efb565b6011887f4e487b71000000000000000000000000000000000000000000000000000000005f525260245ffd5b602489838851917f501f289e000000000000000000000000000000000000000000000000000000008352820152fd5b6011897f4e487b71000000000000000000000000000000000000000000000000000000005f525260245ffd5b90508981813d8311620041a6575b62004177818362003465565b8101031262001699576200418b816200480f565b506200419e60808c83015192016200480f565b505f62003e87565b503d6200416b565b86513d5f823e3d90fd5b9350509092508982813d8311620041ed575b620041d6818362003465565b81010312620016995790518b929091888462003dcc565b503d620041ca565b6011877f4e487b71000000000000000000000000000000000000000000000000000000005f525260245ffd5b7f4e487b71000000000000000000000000000000000000000000000000000000005f52601160045260245ffd5b6001545f9473ffffffffffffffffffffffffffffffffffffffff918216949390853b1562001699575f80620042e6604098899889519485809481937fc4786d9b0000000000000000000000000000000000000000000000000000000083528b620042b88c620032cd565b16600484015260208b01359d8e60248501528b0135604484015260608b0199620007b1606485018c620036c1565b03925af18015620044b95762004498575b50829162000ed36200430d6200431b93620034fa565b620007f960808401620034fa565b169184517ffc0c546a000000000000000000000000000000000000000000000000000000008152602081600481875afa9081156200448e5787916200444c575b5082807f0000000000000000000000000000000000000000000000000000000000000000169116036200441c571690813b15620014345783517fe1638ba300000000000000000000000000000000000000000000000000000000815273ffffffffffffffffffffffffffffffffffffffff919091166004820152602481019290925290919083908390604490829084905af1908115620044135750620043ff575050565b6200440b8291620033af565b6200025e5750565b513d84823e3d90fd5b6024838651907f950cd0710000000000000000000000000000000000000000000000000000000082526004820152fd5b90506020813d60201162004485575b816200446a6020938362003465565b81010312620003855751828116810362000385575f6200435b565b3d91506200445b565b86513d89823e3d90fd5b6200431b91975091620044ac8493620033af565b5f979092909150620042f7565b87513d5f823e3d90fd5b9073ffffffffffffffffffffffffffffffffffffffff8080931691168181141592836200451f575b505050620044f557565b60046040517f43e749f8000000000000000000000000000000000000000000000000000000008152fd5b60209293506044905f54169360405194859384927fbd9ee66b000000000000000000000000000000000000000000000000000000008452600484015260248301525afa9081156200315e575f916200457d575b50155f8080620044eb565b90506020813d602011620045b6575b816200459b6020938362003465565b810103126200169957620045af90620039c8565b5f62004572565b3d91506200458c565b620037ff906200065b620045da620006d760208401620034fa565b6040805173ffffffffffffffffffffffffffffffffffffffff909216602083015292359281019290925281606081016200062e565b5f5b838110620046215750505f910152565b818101518382015260200162004611565b907fffffffffffffffffffffffffffffffffffffffffffffffffffffffffffffffe0601f60209362004670815180928187528780880191016200460f565b0116010190565b60409073ffffffffffffffffffffffffffffffffffffffff620037829493168152816020820152019062004632565b90604051917fc4d66de800000000000000000000000000000000000000000000000000000000602084015273ffffffffffffffffffffffffffffffffffffffff8091169283602482015260248152620046ff816200342b565b60405161072f8082019082821067ffffffffffffffff831117620033c4577fa7061a14e3ecf6b6005ae012e8d4e1b45b16518ae5b5553dad6dcd441776ee67938392620047549262004bbc8539309062004677565b03905ff580156200315e5716805f527f81796b4965de195665289d95668a8a9e7020858e15f5341c42bcf9951c1768ad60205260405f2060017fffffffffffffffffffffffffffffffffffffffffffffffffffffffffffffff00825416179055807f4fe45192317a7d3ad19c3eaa395c0c3a1b7a0f53c3536fb96764c3561a8e9dad5f80a280927f2682a218602b9036c9869f006c5405ee4a1a65267653eb7e286123e5e1afde4c5f80a3565b919082018092116200422157565b519069ffffffffffffffffffff821682036200169957565b90670de0b6b3a7640000918281029281840414901517156200422157565b818102929181159184041417156200422157565b9035907fffffffffffffffffffffffffffffffffffffffffffffffffffffffffffffffe18136030182121562001699570180359067ffffffffffffffff82116200169957602001918160051b360383136200169957565b9190811015620033825760051b0190565b9035907fffffffffffffffffffffffffffffffffffffffffffffffffffffffffffffffe18136030182121562001699570180359067ffffffffffffffff82116200169957602001918160061b360383136200169957565b9190811015620033825760061b0190565b5f811362004941575f136200493d57600190565b5f90565b50600290565b73ffffffffffffffffffffffffffffffffffffffff166040516200496b81620033f1565b5f806020948584527f5361666545524332303a206c6f772d6c6576656c2063616c6c206661696c656486850152858151910182865af13d1562004ab7573d9067ffffffffffffffff8211620033c45762004a049360405192620049f6877fffffffffffffffffffffffffffffffffffffffffffffffffffffffffffffffe0601f840116018562003465565b83523d5f8785013e62004ae5565b80518062004a1157505050565b8183918101031262001699578162004a2a9101620039c8565b1562004a335750565b608490604051907f08c379a00000000000000000000000000000000000000000000000000000000082526004820152602a60248201527f5361666545524332303a204552433230206f7065726174696f6e20646964206e60448201527f6f742073756363656564000000000000000000000000000000000000000000006064820152fd5b9162004a049260609162004ae5565b620f42409081811162004ade57106200493d57600190565b5050600290565b9192901562004b63575081511562004afb575090565b3b1562004b055790565b60646040517f08c379a000000000000000000000000000000000000000000000000000000000815260206004820152601d60248201527f416464726573733a2063616c6c20746f206e6f6e2d636f6e74726163740000006044820152fd5b82519091501562004b775750805190602001fd5b62004bb7906040519182917f08c379a000000000000000000000000000000000000000000000000000000000835260206004840152602483019062004632565b0390fdfe608060409080825261072f80380380916100198285610342565b833981019082818303126102385761003081610365565b6020828101516001600160401b039391929184821161023857019084601f830112156102385781519161006283610379565b9261006f88519485610342565b8084528484019685828401011161023857868561008c9301610394565b803b156102f0578551635c60da1b60e01b80825292916001600160a01b0316908481600481855afa9081156102e6575f916102b1575b503b15610254577fa3f0ad74e5423aebfd80d3ef4346578335a9a72aeaee59ff6cb3582b35133d5080546001600160a01b03191682179055865192817f1cf3b03a6cf19fa2baba4df148e9dcabedea7f8a5c07840e207e5c089be95d3e5f80a282511580159061024d575b610140575b87516102c690816104698239f35b6004848693819382525afa918215610243575f92610208575b5085519360608501908111858210176101f4578652602784527f416464726573733a206c6f772d6c6576656c2064656c65676174652063616c6c83850152660819985a5b195960ca1b84870152516101de945f918291845af4903d156101eb573d6101c381610379565b906101d088519283610342565b81525f81943d92013e6103b5565b505f808080808080610132565b606092506103b5565b634e487b7160e01b5f52604160045260245ffd5b9091508281813d831161023c575b6102208183610342565b810103126102385761023190610365565b905f610159565b5f80fd5b503d610216565b86513d5f823e3d90fd5b505f61012d565b865162461bcd60e51b815260048101859052603060248201527f455243313936373a20626561636f6e20696d706c656d656e746174696f6e206960448201526f1cc81b9bdd08184818dbdb9d1c9858dd60821b6064820152608490fd5b90508481813d83116102df575b6102c88183610342565b81010312610238576102d990610365565b5f6100c2565b503d6102be565b88513d5f823e3d90fd5b855162461bcd60e51b815260048101849052602560248201527f455243313936373a206e657720626561636f6e206973206e6f74206120636f6e6044820152641d1c9858dd60da1b6064820152608490fd5b601f909101601f19168101906001600160401b038211908210176101f457604052565b51906001600160a01b038216820361023857565b6001600160401b0381116101f457601f01601f191660200190565b5f5b8381106103a55750505f910152565b8181015183820152602001610396565b9192901561041757508151156103c9575090565b3b156103d25790565b60405162461bcd60e51b815260206004820152601d60248201527f416464726573733a2063616c6c20746f206e6f6e2d636f6e74726163740000006044820152606490fd5b82519091501561042a5750805190602001fd5b6044604051809262461bcd60e51b82526020600483015261045a8151809281602486015260208686019101610394565b601f01601f19168101030190fdfe6080806040523661011c5760208160048173ffffffffffffffffffffffffffffffffffffffff7fa3f0ad74e5423aebfd80d3ef4346578335a9a72aeaee59ff6cb3582b35133d5054167f5c60da1b0000000000000000000000000000000000000000000000000000000082525afa908115610111575f91610081575b50610273565b905060203d60201161010a575b7fffffffffffffffffffffffffffffffffffffffffffffffffffffffffffffffe0601f82011682019180831067ffffffffffffffff8411176100dd576100d792604052016101f6565b5f61007b565b7f4e487b71000000000000000000000000000000000000000000000000000000005f52604160045260245ffd5b503d61008e565b6040513d5f823e3d90fd5b6004602073ffffffffffffffffffffffffffffffffffffffff7fa3f0ad74e5423aebfd80d3ef4346578335a9a72aeaee59ff6cb3582b35133d505416604051928380927f5c60da1b0000000000000000000000000000000000000000000000000000000082525afa908115610111575f916101975750610273565b602091503d82116101ee575b7fffffffffffffffffffffffffffffffffffffffffffffffffffffffffffffffe0601f83011681019181831067ffffffffffffffff8411176100dd576100d792604052810190610247565b3d91506101a3565b7fffffffffffffffffffffffffffffffffffffffffffffffffffffffffffffff8060209101126102435760805173ffffffffffffffffffffffffffffffffffffffff811681036102435790565b5f80fd5b90816020910312610243575173ffffffffffffffffffffffffffffffffffffffff811681036102435790565b5f8091368280378136915af43d5f803e1561028c573d5ff35b3d5ffdfea2646970667358221220ec432b4747e143afd3ca9be003efbb7d4ac773fd8dbbac59b6729d6be9a1e1a164736f6c63430008180033a264697066735822122092ac32ec49066ecc1d2732cd373a723def46bfe1fc882018374bbcf00363fef164736f6c63430008180033",
  "libraries": {
    "RebalanceLib": "0xC10C99d010e8C7422f5fF0EBD2604A872Da64307"
  },
  "devdoc": {
    "errors": {
      "ControllerGroupBalancedError()": [
        {
          "custom:error": "Group is balanced and ineligible for rebalance"
        }
      ],
      "ControllerInvalidRebalanceConfigError()": [
        {
          "custom:error": "A RebalanceConfigChange message had a mismatch in number of markets and configs"
        }
      ],
      "ControllerInvalidRebalanceGroupError()": [
        {
          "custom:error": "Group number was out-of-range; each collateral account may have up to 8 groups, indexed 1-8"
        }
      ],
      "ControllerInvalidRebalanceMarketsError()": [
        {
          "custom:error": "Group has too many markets; each group may have 1-4 markets"
        }
      ],
      "ControllerInvalidRebalanceTargetsError()": [
        {
          "custom:error": "The sum of `target` collateral allocations for each market in a group does not total 100%. This could also indicate a duplicate market was in the list."
        }
      ],
      "ControllerInvalidSignerError()": [
        {
          "custom:error": "Signer is not authorized to interact with the specified collateral account"
        }
      ],
      "ControllerMarketAlreadyInGroupError(address,uint256)": [
        {
          "custom:error": "A market in this rebalancing configuration is already a member of a different group",
          "params": {
            "group": "Identifies the group in which the aforementioned market is a member",
            "market": "Identifies which market in the message which is causing the problem"
          }
        }
      ],
      "ControllerUnsupportedMarketError(address)": [
        {
          "custom:error": "Attempt to interact with a Market which does not use DSU as collateral",
          "params": {
            "market": "Market with non-DSU collateral"
          }
        }
      ]
    },
    "events": {
      "AccountDeployed(address,address)": {
        "params": {
          "account": "contract address of the collateral account",
          "owner": "EOA for whom the collateral account was created"
        }
      },
      "GroupRebalanced(address,uint256)": {
        "params": {
          "group": "Identifies the rebalance group within context of owner",
          "owner": "Owner of the collateral account for which the rebalance group was created or modified"
        }
      },
      "RebalanceGroupConfigured(address,uint256,uint256)": {
        "params": {
          "group": "Identifies the rebalance group within context of owner",
          "markets": "Number of markets in the group (0 if group was deleted)",
          "owner": "Owner of the collateral account for which the rebalance group was created or modified"
        }
      },
      "RebalanceMarketConfigured(address,uint256,address,(uint256,uint256))": {
        "params": {
          "group": "Identifies the rebalance group within context of owner",
          "market": "The Perennial market for which this configuration applies",
          "newConfig": "Rebalance configuration for the market, which may or may not have changed",
          "owner": "Owner of the collateral account for which the rebalance group was created or modified"
        }
      }
    },
    "kind": "dev",
    "methods": {
      "acceptOwner()": {
        "details": "Can only be called by the pending owner to ensure correctness. Calls to the `_beforeAcceptOwner` hook      to perform logic before updating ownership."
      },
      "changeRebalanceConfigWithSignature((uint256,address[],(uint256,uint256)[],uint256,(uint256,(address,address,address,uint256,uint256,uint256))),bytes)": {
        "params": {
          "configChange": "Message with new rebalance group configuration",
          "signature": "ERC712 message signature"
        }
      },
      "checkGroup(address,uint256)": {
        "params": {
          "group": "Identifies the group within the context of the owner",
          "owner": "User whose collateral account may be rebalanced using this group"
        },
        "returns": {
          "canRebalance": "True if one or more markets in the group are eligible for rebalancing",
          "groupCollateral": "Sum of ower's collateral across each market in the group",
          "imbalances": "The difference between target and actual collateral for each market"
        }
      },
      "constructor": {
        "details": "Creates instance of Controller which compensates keepers",
        "params": {
          "implementation": "Pristine collateral account contract",
          "keepConfig": "Configuration used to compensate keepers"
        }
      },
      "deployAccountWithSignature(((uint256,(address,address,address,uint256,uint256,uint256))),bytes)": {
        "params": {
          "deployAccountAction": "Message requesting creation of a collateral account",
          "signature": "ERC712 message signature"
        }
      },
      "getAccountAddress(address)": {
        "params": {
          "owner": "Identifies the user whose collateral account address is desired"
        }
      },
      "initialize(address,address)": {
        "params": {
          "marketFactory": "Contract used to validate delegated signers",
          "verifier": "Contract used to validate collateral account message signatures"
        }
      },
      "initialize(address,address,address)": {
        "params": {
          "chainlinkFeed_": "ETH-USD price feed used for calculating keeper compensation",
          "marketFactory_": "Contract used to validate delegated signers",
          "verifier_": "Contract used to validate collateral account message signatures"
        }
      },
      "instances(address)": {
        "params": {
          "instance": "The instance to check"
        },
        "returns": {
          "_0": "Whether the instance is valid"
        }
      },
      "marketTransferWithSignature((address,int256,(uint256,(address,address,address,uint256,uint256,uint256))),bytes)": {
        "params": {
          "marketTransfer": "Message requesting a deposit to or withdrawal from the Market",
          "signature": "ERC712 message signature"
        }
      },
      "pause()": {
        "details": "Can only be called by the pauser"
      },
      "rebalanceConfigs(address,uint256,address)": {
        "params": {
          "group": "Identifies a collection of markets, each with their own configuration",
          "market": "Identifies which Perennial market for which the configuration is desired",
          "owner": "User for whom the collateral account was created"
        }
      },
      "rebalanceGroup(address,uint256)": {
        "params": {
          "group": "Identifies the group within the context of the owner",
          "owner": "User whose collateral account may be rebalanced using this group"
        }
      },
      "rebalanceGroupMarkets(address,uint256)": {
        "params": {
          "group": "Identifies which collection of markets is desired for the owner",
          "owner": "User for whom the collateral account was created"
        },
        "returns": {
          "markets": "Array containing each market in the rebalance group"
        }
      },
      "relayAccessUpdateBatch((((address,bool)[],(address,bool)[],(address,address,address,uint256,uint256,uint256)),(uint256,(address,address,address,uint256,uint256,uint256))),bytes,bytes)": {
        "params": {
          "innerSignature": "Signature of the embedded AccessUpdateBatch message",
          "message": "Request with details needed for keeper compensation",
          "outerSignature": "Signature of the RelayedAccessUpdateBatch message"
        }
      },
      "relayGroupCancellation(((uint256,(address,address,address,uint256,uint256,uint256)),(uint256,(address,address,address,uint256,uint256,uint256))),bytes,bytes)": {
        "params": {
          "innerSignature": "Signature of the embedded GroupCancellation message",
          "message": "Request with details needed for keeper compensation",
          "outerSignature": "Signature of the RelayedGroupCancellation message"
        }
      },
      "relayNonceCancellation(((address,address,address,uint256,uint256,uint256),(uint256,(address,address,address,uint256,uint256,uint256))),bytes,bytes)": {
        "params": {
          "innerSignature": "Signature of the embedded Common message",
          "message": "Request with details needed for keeper compensation",
          "outerSignature": "Signature of the RelayedNonceCancellation message"
        }
      },
      "relayOperatorUpdate((((address,bool),(address,address,address,uint256,uint256,uint256)),(uint256,(address,address,address,uint256,uint256,uint256))),bytes,bytes)": {
        "params": {
          "innerSignature": "Signature of the embedded OperatorUpdate message",
          "message": "Request with details needed for keeper compensation",
          "outerSignature": "Signature of the RelayedOperatorUpdate message"
        }
      },
      "relaySignerUpdate((((address,bool),(address,address,address,uint256,uint256,uint256)),(uint256,(address,address,address,uint256,uint256,uint256))),bytes,bytes)": {
        "params": {
          "innerSignature": "Signature of the embedded SignerUpdate message",
          "message": "Request with details needed for keeper compensation",
          "outerSignature": "Signature of the RelayedSignerUpdate message"
        }
      },
      "unpause()": {
        "details": "Can only be called by the pauser"
      },
      "updatePauser(address)": {
        "details": "Can only be called by the current owner",
        "params": {
          "newPauser": "New pauser address"
        }
      },
      "updatePendingOwner(address)": {
        "details": "Can only be called by the current owner      New owner does not take affect until that address calls `acceptOwner()`",
        "params": {
          "newPendingOwner": "New pending owner address"
        }
      },
      "withdrawWithSignature((uint256,bool,(uint256,(address,address,address,uint256,uint256,uint256))),bytes)": {
        "params": {
          "signature": "ERC712 message signature",
          "withdrawal": "Message requesting a withdrawal"
        }
      }
    },
    "title": "Controller_Arbitrum",
    "version": 1
  },
  "userdoc": {
    "events": {
      "AccountDeployed(address,address)": {
        "notice": "Emitted when a collateral account is deployed"
      },
      "GroupRebalanced(address,uint256)": {
        "notice": "Emitted when a group has been rebalanced"
      },
      "RebalanceGroupConfigured(address,uint256,uint256)": {
        "notice": "Emitted when a rebalance group is created or updated"
      },
      "RebalanceMarketConfigured(address,uint256,address,(uint256,uint256))": {
        "notice": "Emitted for each market in a rebalance group upon creation of the group or when any changes are made to the group"
      }
    },
    "kind": "user",
    "methods": {
      "acceptOwner()": {
        "notice": "Accepts and transfers the ownership of the contract to the pending owner"
      },
      "changeRebalanceConfigWithSignature((uint256,address[],(uint256,uint256)[],uint256,(uint256,(address,address,address,uint256,uint256,uint256))),bytes)": {
        "notice": "Adjusts the rebalancing configuration of one or more markets"
      },
      "checkGroup(address,uint256)": {
        "notice": "Checks all markets in a rebalance group to see if anything may be rebalanced"
      },
      "deployAccount()": {
        "notice": "Deploys the collateral account for msg.sender and returns the address of the account"
      },
      "deployAccountWithSignature(((uint256,(address,address,address,uint256,uint256,uint256))),bytes)": {
        "notice": "Deploys a collateral account via a signed message"
      },
      "getAccountAddress(address)": {
        "notice": "Returns the deterministic address of the collateral account for a user, regardless of whether or not it exists."
      },
      "implementation()": {
        "notice": "The instance implementation address"
      },
      "initialize(address,address)": {
        "notice": "Sets contract addresses used for message verification and token management"
      },
      "initialize(address,address,address)": {
        "notice": "Configures message verification and keeper compensation"
      },
      "instances(address)": {
        "notice": "Returns whether the instance is valid"
      },
      "marketTransferWithSignature((address,int256,(uint256,(address,address,address,uint256,uint256,uint256))),bytes)": {
        "notice": "Transfers tokens between a collateral account and a specified Perennial Market"
      },
      "pause()": {
        "notice": "Pauses the contract"
      },
      "rebalanceConfigs(address,uint256,address)": {
        "notice": "Retrieves rebalance configuration for a specified owner, group, and market"
      },
      "rebalanceGroup(address,uint256)": {
        "notice": "Called by keepers to rebalance an unbalanced group"
      },
      "rebalanceGroupMarkets(address,uint256)": {
        "notice": "Retrieves array of markets in an owner's rebalance group"
      },
      "relayAccessUpdateBatch((((address,bool)[],(address,bool)[],(address,address,address,uint256,uint256,uint256)),(uint256,(address,address,address,uint256,uint256,uint256))),bytes,bytes)": {
        "notice": "Relays a message to MarketFactory to update multiple operators and signers"
      },
      "relayGroupCancellation(((uint256,(address,address,address,uint256,uint256,uint256)),(uint256,(address,address,address,uint256,uint256,uint256))),bytes,bytes)": {
        "notice": "Relays a message to Verifier extension to invalidate a group nonce"
      },
      "relayNonceCancellation(((address,address,address,uint256,uint256,uint256),(uint256,(address,address,address,uint256,uint256,uint256))),bytes,bytes)": {
        "notice": "Relays a message to Verifier extension to invalidate a nonce"
      },
      "relayOperatorUpdate((((address,bool),(address,address,address,uint256,uint256,uint256)),(uint256,(address,address,address,uint256,uint256,uint256))),bytes,bytes)": {
        "notice": "Relays a message to MarketFactory to update status of an operator"
      },
      "relaySignerUpdate((((address,bool),(address,address,address,uint256,uint256,uint256)),(uint256,(address,address,address,uint256,uint256,uint256))),bytes,bytes)": {
        "notice": "Relays a message to MarketFactory to update status of a delegated signer"
      },
      "unpause()": {
        "notice": "Unpauses the contract"
      },
      "updatePauser(address)": {
        "notice": "Updates the new pauser"
      },
      "updatePendingOwner(address)": {
        "notice": "Updates the new pending owner"
      },
      "withdrawWithSignature((uint256,bool,(uint256,(address,address,address,uint256,uint256,uint256))),bytes)": {
        "notice": "Transfers tokens from the collateral account back to the owner of the account"
      }
    },
    "notice": "Controller which compensates keepers for handling or relaying messages on Arbitrum L2.",
    "version": 1
  },
  "storageLayout": {
    "storage": [
      {
        "astId": 533,
        "contract": "@equilibria/perennial-v2-account/contracts/Controller_Arbitrum.sol:Controller_Arbitrum",
        "label": "marketFactory",
        "offset": 0,
        "slot": "0",
        "type": "t_contract(IMarketFactory)4953"
      },
      {
        "astId": 537,
        "contract": "@equilibria/perennial-v2-account/contracts/Controller_Arbitrum.sol:Controller_Arbitrum",
        "label": "verifier",
        "offset": 0,
        "slot": "1",
        "type": "t_contract(IAccountVerifier)2489"
      },
      {
        "astId": 547,
        "contract": "@equilibria/perennial-v2-account/contracts/Controller_Arbitrum.sol:Controller_Arbitrum",
        "label": "_rebalanceConfigs",
        "offset": 0,
        "slot": "2",
        "type": "t_mapping(t_address,t_mapping(t_uint256,t_mapping(t_address,t_struct(RebalanceConfig)3093_storage)))"
      },
      {
        "astId": 554,
        "contract": "@equilibria/perennial-v2-account/contracts/Controller_Arbitrum.sol:Controller_Arbitrum",
        "label": "marketToGroup",
        "offset": 0,
        "slot": "3",
        "type": "t_mapping(t_address,t_mapping(t_address,t_uint256))"
      },
      {
        "astId": 563,
        "contract": "@equilibria/perennial-v2-account/contracts/Controller_Arbitrum.sol:Controller_Arbitrum",
        "label": "groupToMarkets",
        "offset": 0,
        "slot": "4",
        "type": "t_mapping(t_address,t_mapping(t_uint256,t_array(t_contract(IMarket)4726)dyn_storage))"
      },
      {
        "astId": 571,
        "contract": "@equilibria/perennial-v2-account/contracts/Controller_Arbitrum.sol:Controller_Arbitrum",
        "label": "groupToMaxRebalanceFee",
        "offset": 0,
        "slot": "5",
        "type": "t_mapping(t_address,t_mapping(t_uint256,t_userDefinedValueType(UFixed6)22937))"
      },
      {
        "astId": 1746,
        "contract": "@equilibria/perennial-v2-account/contracts/Controller_Arbitrum.sol:Controller_Arbitrum",
        "label": "keepConfig",
        "offset": 0,
        "slot": "6",
        "type": "t_struct(KeepConfig)19746_storage"
      },
      {
        "astId": 1750,
        "contract": "@equilibria/perennial-v2-account/contracts/Controller_Arbitrum.sol:Controller_Arbitrum",
        "label": "nonceManager",
        "offset": 0,
        "slot": "10",
        "type": "t_contract(IVerifierBase)25333"
      }
    ],
    "types": {
      "t_address": {
        "encoding": "inplace",
        "label": "address",
        "numberOfBytes": "20"
      },
      "t_array(t_contract(IMarket)4726)dyn_storage": {
        "base": "t_contract(IMarket)4726",
        "encoding": "dynamic_array",
        "label": "contract IMarket[]",
        "numberOfBytes": "32"
      },
      "t_contract(IAccountVerifier)2489": {
        "encoding": "inplace",
        "label": "contract IAccountVerifier",
        "numberOfBytes": "20"
      },
      "t_contract(IMarket)4726": {
        "encoding": "inplace",
        "label": "contract IMarket",
        "numberOfBytes": "20"
      },
      "t_contract(IMarketFactory)4953": {
        "encoding": "inplace",
        "label": "contract IMarketFactory",
        "numberOfBytes": "20"
      },
      "t_contract(IVerifierBase)25333": {
        "encoding": "inplace",
        "label": "contract IVerifierBase",
        "numberOfBytes": "20"
      },
      "t_mapping(t_address,t_mapping(t_address,t_uint256))": {
        "encoding": "mapping",
        "key": "t_address",
        "label": "mapping(address => mapping(address => uint256))",
        "numberOfBytes": "32",
        "value": "t_mapping(t_address,t_uint256)"
      },
      "t_mapping(t_address,t_mapping(t_uint256,t_array(t_contract(IMarket)4726)dyn_storage))": {
        "encoding": "mapping",
        "key": "t_address",
        "label": "mapping(address => mapping(uint256 => contract IMarket[]))",
        "numberOfBytes": "32",
        "value": "t_mapping(t_uint256,t_array(t_contract(IMarket)4726)dyn_storage)"
      },
      "t_mapping(t_address,t_mapping(t_uint256,t_mapping(t_address,t_struct(RebalanceConfig)3093_storage)))": {
        "encoding": "mapping",
        "key": "t_address",
        "label": "mapping(address => mapping(uint256 => mapping(address => struct RebalanceConfig)))",
        "numberOfBytes": "32",
        "value": "t_mapping(t_uint256,t_mapping(t_address,t_struct(RebalanceConfig)3093_storage))"
      },
      "t_mapping(t_address,t_mapping(t_uint256,t_userDefinedValueType(UFixed6)22937))": {
        "encoding": "mapping",
        "key": "t_address",
        "label": "mapping(address => mapping(uint256 => UFixed6))",
        "numberOfBytes": "32",
        "value": "t_mapping(t_uint256,t_userDefinedValueType(UFixed6)22937)"
      },
      "t_mapping(t_address,t_struct(RebalanceConfig)3093_storage)": {
        "encoding": "mapping",
        "key": "t_address",
        "label": "mapping(address => struct RebalanceConfig)",
        "numberOfBytes": "32",
        "value": "t_struct(RebalanceConfig)3093_storage"
      },
      "t_mapping(t_address,t_uint256)": {
        "encoding": "mapping",
        "key": "t_address",
        "label": "mapping(address => uint256)",
        "numberOfBytes": "32",
        "value": "t_uint256"
      },
      "t_mapping(t_uint256,t_array(t_contract(IMarket)4726)dyn_storage)": {
        "encoding": "mapping",
        "key": "t_uint256",
        "label": "mapping(uint256 => contract IMarket[])",
        "numberOfBytes": "32",
        "value": "t_array(t_contract(IMarket)4726)dyn_storage"
      },
      "t_mapping(t_uint256,t_mapping(t_address,t_struct(RebalanceConfig)3093_storage))": {
        "encoding": "mapping",
        "key": "t_uint256",
        "label": "mapping(uint256 => mapping(address => struct RebalanceConfig))",
        "numberOfBytes": "32",
        "value": "t_mapping(t_address,t_struct(RebalanceConfig)3093_storage)"
      },
      "t_mapping(t_uint256,t_userDefinedValueType(UFixed6)22937)": {
        "encoding": "mapping",
        "key": "t_uint256",
        "label": "mapping(uint256 => UFixed6)",
        "numberOfBytes": "32",
        "value": "t_userDefinedValueType(UFixed6)22937"
      },
      "t_struct(KeepConfig)19746_storage": {
        "encoding": "inplace",
        "label": "struct IKept.KeepConfig",
        "members": [
          {
            "astId": 19738,
            "contract": "@equilibria/perennial-v2-account/contracts/Controller_Arbitrum.sol:Controller_Arbitrum",
            "label": "multiplierBase",
            "offset": 0,
            "slot": "0",
            "type": "t_userDefinedValueType(UFixed18)22119"
          },
          {
            "astId": 19740,
            "contract": "@equilibria/perennial-v2-account/contracts/Controller_Arbitrum.sol:Controller_Arbitrum",
            "label": "bufferBase",
            "offset": 0,
            "slot": "1",
            "type": "t_uint256"
          },
          {
            "astId": 19743,
            "contract": "@equilibria/perennial-v2-account/contracts/Controller_Arbitrum.sol:Controller_Arbitrum",
            "label": "multiplierCalldata",
            "offset": 0,
            "slot": "2",
            "type": "t_userDefinedValueType(UFixed18)22119"
          },
          {
            "astId": 19745,
            "contract": "@equilibria/perennial-v2-account/contracts/Controller_Arbitrum.sol:Controller_Arbitrum",
            "label": "bufferCalldata",
            "offset": 0,
            "slot": "3",
            "type": "t_uint256"
          }
        ],
        "numberOfBytes": "128"
      },
      "t_struct(RebalanceConfig)3093_storage": {
        "encoding": "inplace",
        "label": "struct RebalanceConfig",
        "members": [
          {
            "astId": 3088,
            "contract": "@equilibria/perennial-v2-account/contracts/Controller_Arbitrum.sol:Controller_Arbitrum",
            "label": "target",
            "offset": 0,
            "slot": "0",
            "type": "t_userDefinedValueType(UFixed6)22937"
          },
          {
            "astId": 3092,
            "contract": "@equilibria/perennial-v2-account/contracts/Controller_Arbitrum.sol:Controller_Arbitrum",
            "label": "threshold",
            "offset": 0,
            "slot": "1",
            "type": "t_userDefinedValueType(UFixed6)22937"
          }
        ],
        "numberOfBytes": "64"
      },
      "t_uint256": {
        "encoding": "inplace",
        "label": "uint256",
        "numberOfBytes": "32"
      },
      "t_userDefinedValueType(UFixed18)22119": {
        "encoding": "inplace",
        "label": "UFixed18",
        "numberOfBytes": "32"
      },
      "t_userDefinedValueType(UFixed6)22937": {
        "encoding": "inplace",
        "label": "UFixed6",
        "numberOfBytes": "32"
      }
    }
  }
}