{
  "address": "0x5E6a0ca7BA639Ff28D11b5cF2E10bE079E5A511f",
  "abi": [
    {
      "inputs": [
        {
          "internalType": "address",
          "name": "signer_",
          "type": "address"
        },
        {
          "internalType": "address",
          "name": "implementation_",
          "type": "address"
        },
        {
          "internalType": "uint256",
          "name": "validFrom_",
          "type": "uint256"
        },
        {
          "internalType": "uint256",
          "name": "validTo_",
          "type": "uint256"
        },
        {
          "components": [
            {
              "internalType": "UFixed18",
              "name": "multiplierBase",
              "type": "uint256"
            },
            {
              "internalType": "uint256",
              "name": "bufferBase",
              "type": "uint256"
            },
            {
              "internalType": "UFixed18",
              "name": "multiplierCalldata",
              "type": "uint256"
            },
            {
              "internalType": "uint256",
              "name": "bufferCalldata",
              "type": "uint256"
            }
          ],
          "internalType": "struct IKept.KeepConfig",
          "name": "commitKeepConfig_",
          "type": "tuple"
        },
        {
          "components": [
            {
              "internalType": "UFixed18",
              "name": "multiplierBase",
              "type": "uint256"
            },
            {
              "internalType": "uint256",
              "name": "bufferBase",
              "type": "uint256"
            },
            {
              "internalType": "UFixed18",
              "name": "multiplierCalldata",
              "type": "uint256"
            },
            {
              "internalType": "uint256",
              "name": "bufferCalldata",
              "type": "uint256"
            }
          ],
          "internalType": "struct IKept.KeepConfig",
          "name": "settleKeepConfig_",
          "type": "tuple"
        },
        {
          "internalType": "uint256",
          "name": "keepCommitIncrementalBufferData_",
          "type": "uint256"
        }
      ],
      "stateMutability": "nonpayable",
      "type": "constructor"
    },
    {
      "inputs": [],
      "name": "DivisionByZero",
      "type": "error"
    },
    {
      "inputs": [],
      "name": "FactoryNotInstanceError",
      "type": "error"
    },
    {
      "inputs": [
        {
          "internalType": "uint256",
          "name": "version",
          "type": "uint256"
        }
      ],
      "name": "InitializableAlreadyInitializedError",
      "type": "error"
    },
    {
      "inputs": [],
      "name": "InitializableNotInitializingError",
      "type": "error"
    },
    {
      "inputs": [],
      "name": "InitializableZeroVersionError",
      "type": "error"
    },
    {
      "inputs": [],
      "name": "KeeperFactoryAlreadyCreatedError",
      "type": "error"
    },
    {
      "inputs": [],
      "name": "KeeperFactoryInvalidGranularityError",
      "type": "error"
    },
    {
      "inputs": [],
      "name": "KeeperFactoryInvalidIdError",
      "type": "error"
    },
    {
      "inputs": [],
      "name": "KeeperFactoryInvalidPayoffError",
      "type": "error"
    },
    {
      "inputs": [],
      "name": "KeeperFactoryInvalidSettleError",
      "type": "error"
    },
    {
      "inputs": [],
      "name": "KeeperFactoryNotCreatedError",
      "type": "error"
    },
    {
      "inputs": [],
      "name": "KeeperFactoryNotInstanceError",
      "type": "error"
    },
    {
      "inputs": [],
      "name": "KeeperFactoryVersionOutsideRangeError",
      "type": "error"
    },
    {
      "inputs": [],
      "name": "MetaQuantsFactoryInputLengthMismatchError",
      "type": "error"
    },
    {
      "inputs": [],
      "name": "MetaQuantsFactoryInvalidIdError",
      "type": "error"
    },
    {
      "inputs": [],
      "name": "MetaQuantsFactoryInvalidSignatureError",
      "type": "error"
    },
    {
      "inputs": [
        {
          "internalType": "address",
          "name": "sender",
          "type": "address"
        }
      ],
      "name": "OwnableNotOwnerError",
      "type": "error"
    },
    {
      "inputs": [
        {
          "internalType": "address",
          "name": "sender",
          "type": "address"
        }
      ],
      "name": "OwnableNotPendingOwnerError",
      "type": "error"
    },
    {
      "inputs": [
        {
          "internalType": "address",
          "name": "sender",
          "type": "address"
        }
      ],
      "name": "PausableNotPauserError",
      "type": "error"
    },
    {
      "inputs": [],
      "name": "PausablePausedError",
      "type": "error"
    },
    {
      "inputs": [
        {
          "internalType": "int256",
          "name": "value",
          "type": "int256"
        }
      ],
      "name": "UFixed18UnderflowError",
      "type": "error"
    },
    {
      "anonymous": false,
      "inputs": [
        {
          "indexed": true,
          "internalType": "contract IFactory",
          "name": "caller",
          "type": "address"
        }
      ],
      "name": "CallerAuthorized",
      "type": "event"
    },
    {
      "anonymous": false,
      "inputs": [
        {
          "indexed": false,
          "internalType": "uint256",
          "name": "newGranularity",
          "type": "uint256"
        },
        {
          "indexed": false,
          "internalType": "uint256",
          "name": "effectiveAfter",
          "type": "uint256"
        }
      ],
      "name": "GranularityUpdated",
      "type": "event"
    },
    {
      "anonymous": false,
      "inputs": [
        {
          "indexed": false,
          "internalType": "uint256",
          "name": "version",
          "type": "uint256"
        }
      ],
      "name": "Initialized",
      "type": "event"
    },
    {
      "anonymous": false,
      "inputs": [
        {
          "indexed": true,
          "internalType": "contract IInstance",
          "name": "instance",
          "type": "address"
        }
      ],
      "name": "InstanceRegistered",
      "type": "event"
    },
    {
      "anonymous": false,
      "inputs": [
        {
          "indexed": true,
          "internalType": "address",
          "name": "sender",
          "type": "address"
        },
        {
          "indexed": false,
          "internalType": "uint256",
          "name": "applicableGas",
          "type": "uint256"
        },
        {
          "indexed": false,
          "internalType": "uint256",
          "name": "applicableValue",
          "type": "uint256"
        },
        {
          "indexed": false,
          "internalType": "UFixed18",
          "name": "baseFee",
          "type": "uint256"
        },
        {
          "indexed": false,
          "internalType": "UFixed18",
          "name": "calldataFee",
          "type": "uint256"
        },
        {
          "indexed": false,
          "internalType": "UFixed18",
          "name": "keeperFee",
          "type": "uint256"
        }
      ],
      "name": "KeeperCall",
      "type": "event"
    },
    {
      "anonymous": false,
      "inputs": [
        {
          "indexed": true,
          "internalType": "bytes32",
          "name": "id",
          "type": "bytes32"
        },
        {
          "indexed": true,
          "internalType": "bytes32",
          "name": "underlyingId",
          "type": "bytes32"
        }
      ],
      "name": "OracleAssociated",
      "type": "event"
    },
    {
      "anonymous": false,
      "inputs": [
        {
          "indexed": true,
          "internalType": "contract IOracleProvider",
          "name": "oracle",
          "type": "address"
        },
        {
          "indexed": true,
          "internalType": "bytes32",
          "name": "id",
          "type": "bytes32"
        }
      ],
      "name": "OracleCreated",
      "type": "event"
    },
    {
      "anonymous": false,
      "inputs": [
        {
          "indexed": true,
          "internalType": "address",
          "name": "newOwner",
          "type": "address"
        }
      ],
      "name": "OwnerUpdated",
      "type": "event"
    },
    {
      "anonymous": false,
      "inputs": [],
      "name": "Paused",
      "type": "event"
    },
    {
      "anonymous": false,
      "inputs": [
        {
          "indexed": true,
          "internalType": "address",
          "name": "newPauser",
          "type": "address"
        }
      ],
      "name": "PauserUpdated",
      "type": "event"
    },
    {
      "anonymous": false,
      "inputs": [
        {
          "indexed": true,
          "internalType": "contract IPayoffProvider",
          "name": "payoff",
          "type": "address"
        }
      ],
      "name": "PayoffRegistered",
      "type": "event"
    },
    {
      "anonymous": false,
      "inputs": [
        {
          "indexed": true,
          "internalType": "address",
          "name": "newPendingOwner",
          "type": "address"
        }
      ],
      "name": "PendingOwnerUpdated",
      "type": "event"
    },
    {
      "anonymous": false,
      "inputs": [],
      "name": "Unpaused",
      "type": "event"
    },
    {
      "inputs": [],
      "name": "ARB_FIXED_OVERHEAD",
      "outputs": [
        {
          "internalType": "uint256",
          "name": "",
          "type": "uint256"
        }
      ],
      "stateMutability": "view",
      "type": "function"
    },
    {
      "inputs": [],
      "name": "ARB_GAS_MULTIPLIER",
      "outputs": [
        {
          "internalType": "uint256",
          "name": "",
          "type": "uint256"
        }
      ],
      "stateMutability": "view",
      "type": "function"
    },
    {
      "inputs": [],
      "name": "MAX_GRANULARITY",
      "outputs": [
        {
          "internalType": "uint256",
          "name": "",
          "type": "uint256"
        }
      ],
      "stateMutability": "view",
      "type": "function"
    },
    {
      "inputs": [
        {
          "internalType": "bytes32",
          "name": "",
          "type": "bytes32"
        }
      ],
      "name": "_toUnderlyingPayoff",
      "outputs": [
        {
          "internalType": "contract IPayoffProvider",
          "name": "provider",
          "type": "address"
        },
        {
          "internalType": "int16",
          "name": "decimals",
          "type": "int16"
        }
      ],
      "stateMutability": "view",
      "type": "function"
    },
    {
      "inputs": [],
      "name": "acceptOwner",
      "outputs": [],
      "stateMutability": "nonpayable",
      "type": "function"
    },
    {
      "inputs": [
        {
          "internalType": "contract IFactory",
          "name": "factory",
          "type": "address"
        }
      ],
      "name": "authorize",
      "outputs": [],
      "stateMutability": "nonpayable",
      "type": "function"
    },
    {
      "inputs": [
        {
          "internalType": "address",
          "name": "caller",
          "type": "address"
        }
      ],
      "name": "authorized",
      "outputs": [
        {
          "internalType": "bool",
          "name": "",
          "type": "bool"
        }
      ],
      "stateMutability": "view",
      "type": "function"
    },
    {
      "inputs": [
        {
          "internalType": "contract IFactory",
          "name": "",
          "type": "address"
        }
      ],
      "name": "callers",
      "outputs": [
        {
          "internalType": "bool",
          "name": "",
          "type": "bool"
        }
      ],
      "stateMutability": "view",
      "type": "function"
    },
    {
      "inputs": [
        {
          "internalType": "bytes32[]",
          "name": "ids",
          "type": "bytes32[]"
        },
        {
          "internalType": "uint256",
          "name": "version",
          "type": "uint256"
        },
        {
          "internalType": "bytes",
          "name": "data",
          "type": "bytes"
        }
      ],
      "name": "commit",
      "outputs": [],
      "stateMutability": "payable",
      "type": "function"
    },
    {
      "inputs": [
        {
          "internalType": "uint256",
          "name": "numRequested",
          "type": "uint256"
        }
      ],
      "name": "commitKeepConfig",
      "outputs": [
        {
          "components": [
            {
              "internalType": "UFixed18",
              "name": "multiplierBase",
              "type": "uint256"
            },
            {
              "internalType": "uint256",
              "name": "bufferBase",
              "type": "uint256"
            },
            {
              "internalType": "UFixed18",
              "name": "multiplierCalldata",
              "type": "uint256"
            },
            {
              "internalType": "uint256",
              "name": "bufferCalldata",
              "type": "uint256"
            }
          ],
          "internalType": "struct IKept.KeepConfig",
          "name": "",
          "type": "tuple"
        }
      ],
      "stateMutability": "view",
      "type": "function"
    },
    {
      "inputs": [
        {
          "internalType": "bytes32",
          "name": "id",
          "type": "bytes32"
        },
        {
          "internalType": "bytes32",
          "name": "underlyingId",
          "type": "bytes32"
        },
        {
          "components": [
            {
              "internalType": "contract IPayoffProvider",
              "name": "provider",
              "type": "address"
            },
            {
              "internalType": "int16",
              "name": "decimals",
              "type": "int16"
            }
          ],
          "internalType": "struct IKeeperFactory.PayoffDefinition",
          "name": "payoff",
          "type": "tuple"
        }
      ],
      "name": "create",
      "outputs": [
        {
          "internalType": "contract IKeeperOracle",
          "name": "newOracle",
          "type": "address"
        }
      ],
      "stateMutability": "nonpayable",
      "type": "function"
    },
    {
      "inputs": [],
      "name": "current",
      "outputs": [
        {
          "internalType": "uint256",
          "name": "",
          "type": "uint256"
        }
      ],
      "stateMutability": "view",
      "type": "function"
    },
    {
      "inputs": [],
      "name": "ethTokenOracleFeed",
      "outputs": [
        {
          "internalType": "contract AggregatorV3Interface",
          "name": "",
          "type": "address"
        }
      ],
      "stateMutability": "view",
      "type": "function"
    },
    {
      "inputs": [
        {
          "internalType": "bytes32",
          "name": "",
          "type": "bytes32"
        },
        {
          "internalType": "contract IPayoffProvider",
          "name": "",
          "type": "address"
        }
      ],
      "name": "fromUnderlying",
      "outputs": [
        {
          "internalType": "bytes32",
          "name": "",
          "type": "bytes32"
        }
      ],
      "stateMutability": "view",
      "type": "function"
    },
    {
      "inputs": [],
      "name": "granularity",
      "outputs": [
        {
          "components": [
            {
              "internalType": "uint64",
              "name": "latestGranularity",
              "type": "uint64"
            },
            {
              "internalType": "uint64",
              "name": "currentGranularity",
              "type": "uint64"
            },
            {
              "internalType": "uint128",
              "name": "effectiveAfter",
              "type": "uint128"
            }
          ],
          "internalType": "struct IKeeperFactory.Granularity",
          "name": "",
          "type": "tuple"
        }
      ],
      "stateMutability": "view",
      "type": "function"
    },
    {
      "inputs": [],
      "name": "implementation",
      "outputs": [
        {
          "internalType": "address",
          "name": "",
          "type": "address"
        }
      ],
      "stateMutability": "view",
      "type": "function"
    },
    {
      "inputs": [
        {
          "internalType": "contract IOracleFactory",
          "name": "oracleFactory_",
          "type": "address"
        },
        {
          "internalType": "contract AggregatorV3Interface",
          "name": "chainlinkFeed_",
          "type": "address"
        },
        {
          "internalType": "Token18",
          "name": "dsu_",
          "type": "address"
        }
      ],
      "name": "initialize",
      "outputs": [],
      "stateMutability": "nonpayable",
      "type": "function"
    },
    {
      "inputs": [
        {
          "internalType": "contract IInstance",
          "name": "instance",
          "type": "address"
        }
      ],
      "name": "instances",
      "outputs": [
        {
          "internalType": "bool",
          "name": "",
          "type": "bool"
        }
      ],
      "stateMutability": "view",
      "type": "function"
    },
    {
      "inputs": [],
      "name": "keeperToken",
      "outputs": [
        {
          "internalType": "Token18",
          "name": "",
          "type": "address"
        }
      ],
      "stateMutability": "view",
      "type": "function"
    },
    {
      "inputs": [],
      "name": "oracleFactory",
      "outputs": [
        {
          "internalType": "contract IOracleFactory",
          "name": "",
          "type": "address"
        }
      ],
      "stateMutability": "view",
      "type": "function"
    },
    {
      "inputs": [
        {
          "internalType": "bytes32",
          "name": "",
          "type": "bytes32"
        }
      ],
      "name": "oracles",
      "outputs": [
        {
          "internalType": "contract IOracleProvider",
          "name": "",
          "type": "address"
        }
      ],
      "stateMutability": "view",
      "type": "function"
    },
    {
      "inputs": [],
      "name": "owner",
      "outputs": [
        {
          "internalType": "address",
          "name": "",
          "type": "address"
        }
      ],
      "stateMutability": "view",
      "type": "function"
    },
    {
      "inputs": [],
      "name": "pause",
      "outputs": [],
      "stateMutability": "nonpayable",
      "type": "function"
    },
    {
      "inputs": [],
      "name": "paused",
      "outputs": [
        {
          "internalType": "bool",
          "name": "",
          "type": "bool"
        }
      ],
      "stateMutability": "view",
      "type": "function"
    },
    {
      "inputs": [],
      "name": "pauser",
      "outputs": [
        {
          "internalType": "address",
          "name": "",
          "type": "address"
        }
      ],
      "stateMutability": "view",
      "type": "function"
    },
    {
      "inputs": [
        {
          "internalType": "contract IPayoffProvider",
          "name": "",
          "type": "address"
        }
      ],
      "name": "payoffs",
      "outputs": [
        {
          "internalType": "bool",
          "name": "",
          "type": "bool"
        }
      ],
      "stateMutability": "view",
      "type": "function"
    },
    {
      "inputs": [],
      "name": "pendingOwner",
      "outputs": [
        {
          "internalType": "address",
          "name": "",
          "type": "address"
        }
      ],
      "stateMutability": "view",
      "type": "function"
    },
    {
      "inputs": [
        {
          "internalType": "contract IPayoffProvider",
          "name": "payoff",
          "type": "address"
        }
      ],
      "name": "register",
      "outputs": [],
      "stateMutability": "nonpayable",
      "type": "function"
    },
    {
      "inputs": [
        {
          "internalType": "bytes32[]",
          "name": "ids",
          "type": "bytes32[]"
        },
        {
          "internalType": "contract IMarket[]",
          "name": "markets",
          "type": "address[]"
        },
        {
          "internalType": "uint256[]",
          "name": "versions",
          "type": "uint256[]"
        },
        {
          "internalType": "uint256[]",
          "name": "maxCounts",
          "type": "uint256[]"
        }
      ],
      "name": "settle",
      "outputs": [],
      "stateMutability": "nonpayable",
      "type": "function"
    },
    {
      "inputs": [],
      "name": "settleKeepConfig",
      "outputs": [
        {
          "components": [
            {
              "internalType": "UFixed18",
              "name": "multiplierBase",
              "type": "uint256"
            },
            {
              "internalType": "uint256",
              "name": "bufferBase",
              "type": "uint256"
            },
            {
              "internalType": "UFixed18",
              "name": "multiplierCalldata",
              "type": "uint256"
            },
            {
              "internalType": "uint256",
              "name": "bufferCalldata",
              "type": "uint256"
            }
          ],
          "internalType": "struct IKept.KeepConfig",
          "name": "",
          "type": "tuple"
        }
      ],
      "stateMutability": "view",
      "type": "function"
    },
    {
      "inputs": [],
      "name": "signer",
      "outputs": [
        {
          "internalType": "address",
          "name": "",
          "type": "address"
        }
      ],
      "stateMutability": "view",
      "type": "function"
    },
    {
      "inputs": [
        {
          "internalType": "bytes32",
          "name": "",
          "type": "bytes32"
        }
      ],
      "name": "toUnderlyingId",
      "outputs": [
        {
          "internalType": "bytes32",
          "name": "",
          "type": "bytes32"
        }
      ],
      "stateMutability": "view",
      "type": "function"
    },
    {
      "inputs": [
        {
          "internalType": "bytes32",
          "name": "id",
          "type": "bytes32"
        }
      ],
      "name": "toUnderlyingPayoff",
      "outputs": [
        {
          "components": [
            {
              "internalType": "contract IPayoffProvider",
              "name": "provider",
              "type": "address"
            },
            {
              "internalType": "int16",
              "name": "decimals",
              "type": "int16"
            }
          ],
          "internalType": "struct IKeeperFactory.PayoffDefinition",
          "name": "",
          "type": "tuple"
        }
      ],
      "stateMutability": "view",
      "type": "function"
    },
    {
      "inputs": [],
      "name": "unpause",
      "outputs": [],
      "stateMutability": "nonpayable",
      "type": "function"
    },
    {
      "inputs": [
        {
          "internalType": "uint256",
          "name": "newGranularity",
          "type": "uint256"
        }
      ],
      "name": "updateGranularity",
      "outputs": [],
      "stateMutability": "nonpayable",
      "type": "function"
    },
    {
      "inputs": [
        {
          "internalType": "address",
          "name": "newPauser",
          "type": "address"
        }
      ],
      "name": "updatePauser",
      "outputs": [],
      "stateMutability": "nonpayable",
      "type": "function"
    },
    {
      "inputs": [
        {
          "internalType": "address",
          "name": "newPendingOwner",
          "type": "address"
        }
      ],
      "name": "updatePendingOwner",
      "outputs": [],
      "stateMutability": "nonpayable",
      "type": "function"
    },
    {
      "inputs": [],
      "name": "validFrom",
      "outputs": [
        {
          "internalType": "uint256",
          "name": "",
          "type": "uint256"
        }
      ],
      "stateMutability": "view",
      "type": "function"
    },
    {
      "inputs": [],
      "name": "validTo",
      "outputs": [
        {
          "internalType": "uint256",
          "name": "",
          "type": "uint256"
        }
      ],
      "stateMutability": "view",
      "type": "function"
    }
  ],
  "transactionHash": "0x55e99cc5842fc814ab191374e6b855bcd897ab45df5fe7a751f43d689f7f9464",
  "args": [
    "0x6B9d43F52C7d49C298c69d2e4C26f58D20886256",
    "0xfEeFDbcCfabF023A6a9F0fa0b67aEE80A861c7ed",
    4,
    12,
    {
      "multiplierBase": 0,
      "bufferBase": 788000,
      "multiplierCalldata": 0,
      "bufferCalldata": 31000
    },
    {
      "multiplierBase": "1050000000000000000",
      "bufferBase": 100000,
      "multiplierCalldata": "1050000000000000000",
      "bufferCalldata": 0
    },
    4200
  ],
  "numDeployments": 1,
  "solcInputHash": "c0a9f1f75475523e0a45f05173af165c",
  "bytecode": "0x610220346200017a5762004a613881900390601f8201601f19168301906001600160401b038211848310176200017e57829160405283398101906101a080828403126200017a57620000518262000192565b90620000606020840162000192565b906040840151906060850151946200007c8760808301620001a7565b956200008e61010098898401620001a7565b93610180809301519560805260a05260c052855160e052602086015187526060604087015196610120978852015193610140948552610160908152835182526020840151835260606040850151946101c09586520151946101e09586526102009687526040519761486b998a620001f68b396080518a6113f3015260a0518a81816115c00152612976015260c0518a8181610e4e0152612a14015260e0518a6138d30152518961384e015251886138fb0152518761389d0152518661387601525185613b1401525184613b3701525183613b5d01525182613b83015251818181611a320152611dff0152f35b5f80fd5b634e487b7160e01b5f52604160045260245ffd5b51906001600160a01b03821682036200017a57565b91908260809103126200017a57604051608081016001600160401b038111828210176200017e576040526060808294805184526020810151602085015260408101516040850152015191015256fe608080604052600436101562000013575f80fd5b5f3560e01c908163032bb4431462003424575080631b7d63571462002b715780631e298b901462001a56578063238ac93314620019e657806332878cc91462001974578063344e0f8a146200192a5780633f4ba83a146200183857806341c6a70f14620016bd5780634420e48614620015e357806345f84c161462001589578063554bab3c14620014c1578063556f0dc714620014175780635c60da1b14620013a75780635c975abb14620013495780636311c46414620013075780637211af68146200126b57806378fab5c714620012305780637bbf4a3f14620011c25780638456cb59146200109f5780638da5cb5b146200102d5780639571b1ec1462000fc35780639d57c4311462000f875780639fa6a6e31462000f435780639fd0506d1462000ed1578063a81a26771462000e71578063a88780ef1462000e17578063aba30dfa1462000ddc578063acf558b71462000d66578063b20caf451462000cf4578063b32a1e5d1462000979578063b5ee695514620008b1578063b6a5d7de14620007d7578063b91816111462000786578063c0c53b8b14620004e3578063c36e389d1462000477578063c7f7fb901462000425578063cd3bb38c14620003b2578063e30c397814620003405763ebbc496514620001f1575f80fd5b346200033c575f7ffffffffffffffffffffffffffffffffffffffffffffffffffffffffffffffffc3601126200033c577f675c83682abbc3e7dd47e40515a778fbbde4393395c3dd3588244203c3e47883805473ffffffffffffffffffffffffffffffffffffffff8116908133036200030c577fe7742ddf0fecd2926e7ef4d6d6e91a7b2f0b1f8805b78953dac8454e86273ed255807f4ffd725fc4a22075e9ec71c59edf9c38cdeb588a91b24fc5b61388c5be41282b5f80a23303620002dc575f90555f7f69f201bc2089b9be6195d876d97a0136b4cf56bbf8986a52dcb50697f7d1cac58180a2005b60246040517f99bf6359000000000000000000000000000000000000000000000000000000008152336004820152fd5b60246040517fd0d5e1b0000000000000000000000000000000000000000000000000000000008152336004820152fd5b5f80fd5b346200033c575f7ffffffffffffffffffffffffffffffffffffffffffffffffffffffffffffffffc3601126200033c5760207f675c83682abbc3e7dd47e40515a778fbbde4393395c3dd3588244203c3e478835473ffffffffffffffffffffffffffffffffffffffff60405191168152f35b346200033c575f7ffffffffffffffffffffffffffffffffffffffffffffffffffffffffffffffffc3601126200033c5762000421620003f062003af9565b6040519182918291909160608060808301948051845260208101516020850152604081015160408501520151910152565b0390f35b346200033c575f7ffffffffffffffffffffffffffffffffffffffffffffffffffffffffffffffffc3601126200033c57602073ffffffffffffffffffffffffffffffffffffffff5f5416604051908152f35b346200033c5760207ffffffffffffffffffffffffffffffffffffffffffffffffffffffffffffffffc3601126200033c5773ffffffffffffffffffffffffffffffffffffffff620004c7620035fa565b165f526002602052602060ff60405f2054166040519015158152f35b346200033c5760607ffffffffffffffffffffffffffffffffffffffffffffffffffffffffffffffffc3601126200033c5760043573ffffffffffffffffffffffffffffffffffffffff8082168092036200033c576024359081168091036200033c576200054f6200361e565b906001907f6fee9688c285c5c5c97d6a1a29adced674e6b2ad0888b8ad2116b58a8b3ea248828154101562000755578290557f2801b00eb06461cf9fcb9758b5fafd884ff06a86177386f73b6c49f0bf5a5af0828155303b1515806200074d575b6200071357303b15158062000745575b6200071357337fe7742ddf0fecd2926e7ef4d6d6e91a7b2f0b1f8805b78953dac8454e86273ed255337f4ffd725fc4a22075e9ec71c59edf9c38cdeb588a91b24fc5b61388c5be41282b5f80a2303b1515806200073d575b62000713577fbe9b076dc5b65990cca9dd9d7366682482e7817a6f6bc7f4faf4dc32af497f32946020945f937f2b50211693ec91bcfe327771928b74a8f475c508d53e86fca4153bcf0f0e8776557f5b5cbfa852c5bd03e540eba853f8faf28a604a4d82bee1091096bfaea14d08c3557fffffffffffffffffffffffff00000000000000000000000000000000000000008354161782558160408051620006bf81620034e0565b82815285878201520152680100000000000000006007558180526002845260408220837fffffffffffffffffffffffffffffffffffffffffffffffffffffffffffffff0082541617905555604051908152a1005b60046040517fb9a621e1000000000000000000000000000000000000000000000000000000008152fd5b505f62000618565b505f620005c0565b505f620005b0565b602483604051907f3db738da0000000000000000000000000000000000000000000000000000000082526004820152fd5b346200033c5760207ffffffffffffffffffffffffffffffffffffffffffffffffffffffffffffffffc3601126200033c576020620007cd620007c7620035fa565b620039db565b6040519015158152f35b346200033c5760207ffffffffffffffffffffffffffffffffffffffffffffffffffffffffffffffffc3601126200033c5760043573ffffffffffffffffffffffffffffffffffffffff8082168092036200033c577fe7742ddf0fecd2926e7ef4d6d6e91a7b2f0b1f8805b78953dac8454e86273ed25433911603620002dc57805f52600160205260405f2060017fffffffffffffffffffffffffffffffffffffffffffffffffffffffffffffff008254161790557f6acfd92212f0ec670af78f8ba2273e4a85ac17023475650c25be0440602bff2d5f80a2005b346200033c5760207ffffffffffffffffffffffffffffffffffffffffffffffffffffffffffffffffc3601126200033c57620008ec620035fa565b7fe7742ddf0fecd2926e7ef4d6d6e91a7b2f0b1f8805b78953dac8454e86273ed2549073ffffffffffffffffffffffffffffffffffffffff918233911603620002dc57807f675c83682abbc3e7dd47e40515a778fbbde4393395c3dd3588244203c3e4788355167f69f201bc2089b9be6195d876d97a0136b4cf56bbf8986a52dcb50697f7d1cac55f80a2005b346200033c5760807ffffffffffffffffffffffffffffffffffffffffffffffffffffffffffffffffc3601126200033c576024356004356040367fffffffffffffffffffffffffffffffffffffffffffffffffffffffffffffffbc01126200033c57604051620009e981620034c3565b620009f36200361e565b8152606435908160010b82036200033c576020938482019283527fe7742ddf0fecd2926e7ef4d6d6e91a7b2f0b1f8805b78953dac8454e86273ed2549073ffffffffffffffffffffffffffffffffffffffff918233911603620002dc57845f52600386528160405f20541662000ca057818351165f526002865260ff60405f2054161562000cca57805f526006865260405f20828451165f52865260405f205462000ca0576040517f8129fc1c00000000000000000000000000000000000000000000000000000000878201526004815262000acf81620034c3565b6040519061072f908183019083821067ffffffffffffffff83111762000c7357604062000b0e928594620041078639308152818c820152019062003d06565b03905ff0801562000c6857821693845f527f81796b4965de195665289d95668a8a9e7020858e15f5341c42bcf9951c1768ad875260405f2060017fffffffffffffffffffffffffffffffffffffffffffffffffffffffffffffff00825416179055847f4fe45192317a7d3ad19c3eaa395c0c3a1b7a0f53c3536fb96764c3561a8e9dad5f80a2855f526003875260405f20857fffffffffffffffffffffffff0000000000000000000000000000000000000000825416179055600487528160405f20556005875260405f2090838551167fffffffffffffffffffff000000000000000000000000000000000000000000008354925160a01b75ffff0000000000000000000000000000000000000000169216171790555f526006855260405f209151165f5283528160405f205560405191817fb37c10e9bd31f2f04a1985d7ae7c9fd566192aa02f769929da69b972f73ff9955f80a38152f35b6040513d5f823e3d90fd5b7f4e487b71000000000000000000000000000000000000000000000000000000005f52604160045260245ffd5b60046040517f953ec95c000000000000000000000000000000000000000000000000000000008152fd5b60046040517fb2e11555000000000000000000000000000000000000000000000000000000008152fd5b346200033c575f7ffffffffffffffffffffffffffffffffffffffffffffffffffffffffffffffffc3601126200033c57602073ffffffffffffffffffffffffffffffffffffffff7f2b50211693ec91bcfe327771928b74a8f475c508d53e86fca4153bcf0f0e87765416604051908152f35b346200033c5760407ffffffffffffffffffffffffffffffffffffffffffffffffffffffffffffffffc3601126200033c5760243573ffffffffffffffffffffffffffffffffffffffff81168091036200033c576004355f52600660205260405f20905f52602052602060405f2054604051908152f35b346200033c575f7ffffffffffffffffffffffffffffffffffffffffffffffffffffffffffffffffc3601126200033c576020604051608c8152f35b346200033c575f7ffffffffffffffffffffffffffffffffffffffffffffffffffffffffffffffffc3601126200033c5760206040517f00000000000000000000000000000000000000000000000000000000000000008152f35b346200033c5760207ffffffffffffffffffffffffffffffffffffffffffffffffffffffffffffffffc3601126200033c576004355f526003602052602073ffffffffffffffffffffffffffffffffffffffff60405f205416604051908152f35b346200033c575f7ffffffffffffffffffffffffffffffffffffffffffffffffffffffffffffffffc3601126200033c5760207f18e50ee9696440d335192aeeeffc26f47782eaa914f1700d8ad36d6d7f7261b35473ffffffffffffffffffffffffffffffffffffffff60405191168152f35b346200033c575f7ffffffffffffffffffffffffffffffffffffffffffffffffffffffffffffffffc3601126200033c57602062000f7f62003927565b604051908152f35b346200033c575f7ffffffffffffffffffffffffffffffffffffffffffffffffffffffffffffffffc3601126200033c576020604051610e108152f35b346200033c5760207ffffffffffffffffffffffffffffffffffffffffffffffffffffffffffffffffc3601126200033c576004355f5260056020526040805f205481519073ffffffffffffffffffffffffffffffffffffffff8116825260a01c60010b6020820152f35b346200033c575f7ffffffffffffffffffffffffffffffffffffffffffffffffffffffffffffffffc3601126200033c5760207fe7742ddf0fecd2926e7ef4d6d6e91a7b2f0b1f8805b78953dac8454e86273ed25473ffffffffffffffffffffffffffffffffffffffff60405191168152f35b346200033c575f7ffffffffffffffffffffffffffffffffffffffffffffffffffffffffffffffffc3601126200033c5773ffffffffffffffffffffffffffffffffffffffff807f18e50ee9696440d335192aeeeffc26f47782eaa914f1700d8ad36d6d7f7261b35416331415908162001193575b50620011635760017f3d13b7e57307bea7f94c474c597247d2da93d7de9136f8e123ed6525f50bbcec557f9e87fac88ff661f02d44f95383c817fece4bce600a3dab7a54406878b965e7525f80a1005b60246040517ff7987a92000000000000000000000000000000000000000000000000000000008152336004820152fd5b90507fe7742ddf0fecd2926e7ef4d6d6e91a7b2f0b1f8805b78953dac8454e86273ed254163314158162001113565b346200033c5760207ffffffffffffffffffffffffffffffffffffffffffffffffffffffffffffffffc3601126200033c5760043573ffffffffffffffffffffffffffffffffffffffff81168091036200033c575f526001602052602060ff60405f2054166040519015158152f35b346200033c575f7ffffffffffffffffffffffffffffffffffffffffffffffffffffffffffffffffc3601126200033c57602060405160108152f35b346200033c5760207ffffffffffffffffffffffffffffffffffffffffffffffffffffffffffffffffc3601126200033c575f6020604051620012ad81620034c3565b82815201526004355f5260056020526040805f20815190620012cf82620034c3565b54602073ffffffffffffffffffffffffffffffffffffffff821692838152019060a01c60010b815282519182525160010b6020820152f35b346200033c5760207ffffffffffffffffffffffffffffffffffffffffffffffffffffffffffffffffc3601126200033c5762000421620003f060043562003834565b346200033c575f7ffffffffffffffffffffffffffffffffffffffffffffffffffffffffffffffffc3601126200033c5760207f3d13b7e57307bea7f94c474c597247d2da93d7de9136f8e123ed6525f50bbcec546040519015158152f35b346200033c575f7ffffffffffffffffffffffffffffffffffffffffffffffffffffffffffffffffc3601126200033c57602060405173ffffffffffffffffffffffffffffffffffffffff7f0000000000000000000000000000000000000000000000000000000000000000168152f35b346200033c575f7ffffffffffffffffffffffffffffffffffffffffffffffffffffffffffffffffc3601126200033c575f604080516200145781620034e0565b828152826020820152015260606040516200147281620034e0565b6fffffffffffffffffffffffffffffffff60075467ffffffffffffffff80821693848152604060208201918385831c168352019260801c83526040519485525116602084015251166040820152f35b346200033c5760207ffffffffffffffffffffffffffffffffffffffffffffffffffffffffffffffffc3601126200033c57620014fc620035fa565b7fe7742ddf0fecd2926e7ef4d6d6e91a7b2f0b1f8805b78953dac8454e86273ed2549073ffffffffffffffffffffffffffffffffffffffff918233911603620002dc57807f18e50ee9696440d335192aeeeffc26f47782eaa914f1700d8ad36d6d7f7261b355167fa4336c0cb1e245b95ad204faed7e940d6dc999684fd8b5e1ff597a0c4efca8ab5f80a2005b346200033c575f7ffffffffffffffffffffffffffffffffffffffffffffffffffffffffffffffffc3601126200033c5760206040517f00000000000000000000000000000000000000000000000000000000000000008152f35b346200033c5760207ffffffffffffffffffffffffffffffffffffffffffffffffffffffffffffffffc3601126200033c576200161e620035fa565b7fe7742ddf0fecd2926e7ef4d6d6e91a7b2f0b1f8805b78953dac8454e86273ed2549073ffffffffffffffffffffffffffffffffffffffff918233911603620002dc5716805f52600260205260405f2060017fffffffffffffffffffffffffffffffffffffffffffffffffffffffffffffff008254161790557fb74a9480da82c8aeaa0a8d11c6b669cf4523927638ab05e29c80cef6abd7d7bd5f80a2005b346200033c5760207ffffffffffffffffffffffffffffffffffffffffffffffffffffffffffffffffc3601126200033c576004357fe7742ddf0fecd2926e7ef4d6d6e91a7b2f0b1f8805b78953dac8454e86273ed25473ffffffffffffffffffffffffffffffffffffffff33911603620002dc576200173b62003927565b9080156200180e57600754908160801c8311156200180e57610e1081116200180e577f1a5059878e785140a1fb5c714f4e1431d5ef2b6dcdd5edbdc61ffe4a76dd10459260409267ffffffffffffffff8091851c16908451906200179f82620034e0565b82825284166020820152846fffffffffffffffffffffffffffffffff84169101527fffffffffffffffffffffffffffffffff000000000000000000000000000000008260801b16906fffffffffffffffff000000000000000084861b16171760075582519182526020820152a1005b60046040517f19136990000000000000000000000000000000000000000000000000000000008152fd5b346200033c575f7ffffffffffffffffffffffffffffffffffffffffffffffffffffffffffffffffc3601126200033c5773ffffffffffffffffffffffffffffffffffffffff807f18e50ee9696440d335192aeeeffc26f47782eaa914f1700d8ad36d6d7f7261b354163314159081620018fb575b5062001163575f7f3d13b7e57307bea7f94c474c597247d2da93d7de9136f8e123ed6525f50bbcec557fa45f47fdea8a1efdd9029a5691c7f759c32b7c698632b563573e155625d169335f80a1005b90507fe7742ddf0fecd2926e7ef4d6d6e91a7b2f0b1f8805b78953dac8454e86273ed2541633141581620018ac565b346200033c5760207ffffffffffffffffffffffffffffffffffffffffffffffffffffffffffffffffc3601126200033c576004355f526004602052602060405f2054604051908152f35b346200033c575f7ffffffffffffffffffffffffffffffffffffffffffffffffffffffffffffffffc3601126200033c5760207f5b5cbfa852c5bd03e540eba853f8faf28a604a4d82bee1091096bfaea14d08c35473ffffffffffffffffffffffffffffffffffffffff60405191168152f35b346200033c575f7ffffffffffffffffffffffffffffffffffffffffffffffffffffffffffffffffc3601126200033c57602060405173ffffffffffffffffffffffffffffffffffffffff7f0000000000000000000000000000000000000000000000000000000000000000168152f35b60607ffffffffffffffffffffffffffffffffffffffffffffffffffffffffffffffffc3601126200033c5760043567ffffffffffffffff81116200033c5762001aa490369060040162003592565b60443567ffffffffffffffff81116200033c57366023820112156200033c5767ffffffffffffffff8160040135116200033c573660248260040135830101116200033c5760048101351562002b5e576020818060040135810103126200033c57602481013567ffffffffffffffff81116200033c576024826004013583010160438284010112156200033c57602481830101359062001b438262003579565b9162001b53604051938462003537565b808352602083016024856004013586010160448360051b8588010101116200033c57604483860101905b60448360051b8588010101821062002a785750505050805183510362002a4e5762001ba98351620036f4565b905f925b8151841015620020a55762001bc38483620036b2565b5151602062001bd38685620036b2565b51015191815190815f927a184f03e93ff9f4daa797ed6e38ed64bf6a1f0100000000000000008083101562002095575b50600a906d04ee2d6d415b85acef81000000008082101562002087575b50662386f26fc100008082101562002079575b506305f5e100808210156200206b575b50612710808210156200205d575b506064808210156200204f575b50101562002044575b600a7fffffffffffffffffffffffffffffffffffffffffffffffffffffffffffffffff602160018601957fffffffffffffffffffffffffffffffffffffffffffffffffffffffffffffffe062001cda62001cc18962003677565b9862001cd16040519a8b62003537565b808a5262003677565b013660208901378601015b01917f30313233343536373839616263646566000000000000000000000000000000008282061a83530490811562001d41577fffffffffffffffffffffffffffffffffffffffffffffffffffffffffffffffff600a9162001ce5565b5050959262001dde9073ffffffffffffffffffffffffffffffffffffffff9362001de79362001dd5604051918260208101947f19457468657265756d205369676e6564204d6573736167653a0a0000000000008652603a9262001dae815180926020878701910162003ce3565b820162001dc5825180936020878501910162003ce3565b0103601a81018452018262003537565b51902062003dd1565b91909162003e09565b1673ffffffffffffffffffffffffffffffffffffffff7f000000000000000000000000000000000000000000000000000000000000000016036200201a5762001e318183620036b2565b51519081518201610140838203126200033c576040519262001e5384620034c3565b610120818303126200033c576101409062001e9e60206040519462001e7886620034e0565b81840151865262001e8f8282016040860162003bc8565b828701520160c0830162003bc8565b6040840152828552015160208401525162001eba8288620036b2565b515f52600460205260405f20540362001ff057602082510151916040835160070b930151927fffffffffffffffffffffffffffffffffffffffffffffffffffffffff8000000060128560030b0112637fffffff60128660030b01131762001fc357601260019460030b0160030b915f6060602062001f4c62001f4662001f408862003d63565b62003c30565b62003d73565b93510151015193121562001fa75762001f6962001f6f9262003d73565b62003c3f565b6040519162001f7e83620034c3565b8252602082015262001f918286620036b2565b5262001f9e8185620036b2565b50019262001bad565b62001fbc90670de0b6b3a76400009262003d91565b0562001f6f565b7f4e487b71000000000000000000000000000000000000000000000000000000005f52601160045260245ffd5b60046040517f28ae5d44000000000000000000000000000000000000000000000000000000008152fd5b60046040517f04eecc2b000000000000000000000000000000000000000000000000000000008152fd5b916001019162001c67565b600291049401938b62001c5e565b600491049401938b62001c51565b600891049401938b62001c43565b601091049401938b62001c33565b602091049401938b62001c20565b6040945082049050600a62001c03565b925050915b816004013562002972575b5f5b83518110156200224957620020cd8183620036b2565b515f526020906005825260405f209160405192620020eb84620034c3565b5473ffffffffffffffffffffffffffffffffffffffff811680855282600195019160a01c850b825280620021a3575b505f6001946200213562001f4662001f408551840b62003d63565b9251900b121562002177576200215f9062001f698362002156868b620036b2565b51015162003d73565b905b6200216d8388620036b2565b51015201620020b7565b6200219b670de0b6b3a7640000918362002192868b620036b2565b51015162003d91565b059062002161565b8280620021b1868b620036b2565b5101516024604051809481937fd7c7a93500000000000000000000000000000000000000000000000000000000835260048301525afa90811562000c68575f9162002215575b506001945f91846200220a878c620036b2565b51015294506200211a565b90508281813d831162002241575b6200222f818362003537565b810103126200033c57516001620021f7565b503d62002223565b50825f925f5b83518110156200239457620022658185620036b2565b515f5260206003815273ffffffffffffffffffffffffffffffffffffffff60405f2054168164e8d4a51000816200229d8689620036b2565b510151056064604051620022b181620034e0565b60243581528381019283525f604082019589600401351515875260405196879586947f8fdd594700000000000000000000000000000000000000000000000000000000865251600486015251602485015251151560448401525af191821562000c68575f9262002360575b50506200232d575b6001016200224f565b937fffffffffffffffffffffffffffffffffffffffffffffffffffffffffffffffff811462001fc3576001019362002324565b620023849250803d106200238c575b6200237b818362003537565b81019062003779565b86806200231c565b503d6200236f565b5083806200239e57005b620023ad620023bf9162003834565b91369060248160040135910162003793565b50604051620023ce816200351a565b5f81526020915f838301525f604051620023e8816200351a565b525f908051928482015193156001171562001fc3576200242093670de0b6b3a76400009485916200241a4891620037f4565b62003812565b0491606060408201519101519151608c810180911162001fc3577f0fffffffffffffffffffffffffffffffffffffffffffffffffffffffffffffff8116810362001fc357604051917ff5d6ded70000000000000000000000000000000000000000000000000000000083528783600481606c5afa91821562000c685787935f9362002935575b5093620024d184620024c96200241a946200241a620024d8989960041b620037f4565b0491620037f4565b9062003826565b0491620024e6838362003826565b9373ffffffffffffffffffffffffffffffffffffffff94600460a0877f2b50211693ec91bcfe327771928b74a8f475c508d53e86fca4153bcf0f0e87765416604051928380927ffeaf968c0000000000000000000000000000000000000000000000000000000082525afa90811562000c68575f91620028d4575b50620025726305f5e1009162003d73565b05905f8212620028a3576200259492916200258d9162003812565b0462003c96565b93805f5416946040517fd4938db300000000000000000000000000000000000000000000000000000000815287816004818a5afa90811562000c68575f9162002870575b5080821015620028675750945b803b156200033c575f80916024604051809481937f379607f50000000000000000000000000000000000000000000000000000000083528b60048401525af1801562000c685762002851575b5064e8d4a5100094858102958187041490151715620028245762002728907f5b5cbfa852c5bd03e540eba853f8faf28a604a4d82bee1091096bfaea14d08c354166040519083808984017fa9059cbb00000000000000000000000000000000000000000000000000000000815233602486015289604486015260448552620026b985620034fd565b60405194620026c886620034c3565b8b86527f5361666545524332303a206c6f772d6c6576656c2063616c6c206661696c65648c870152519082855af13d156200281b573d916200270a8362003677565b926200271a604051948562003537565b83523d868b85013e62004030565b805190868262002777575b505050604051948186528501526040840152606083015260808201527ffa0333956d06e335c550bd5fc4ac9c003c6545e371331b1071fa4d5d8519d6c160a03392a2005b806200278893830101910162003779565b15620027975785808662002733565b608485604051907f08c379a00000000000000000000000000000000000000000000000000000000082526004820152602a60248201527f5361666545524332303a204552433230206f7065726174696f6e20646964206e60448201527f6f742073756363656564000000000000000000000000000000000000000000006064820152fd5b60609162004030565b6024827f4e487b710000000000000000000000000000000000000000000000000000000081526011600452fd5b6200285e919250620034ae565b5f908662002631565b905094620025e5565b90508781813d83116200289b575b6200288a818362003537565b810103126200033c575188620025d8565b503d6200287e565b602482604051907f501f289e0000000000000000000000000000000000000000000000000000000082526004820152fd5b905060a0813d60a0116200292c575b81620028f260a0938362003537565b810103126200033c576200257281620029106305f5e1009362003d4b565b506200292360808b830151920162003d4b565b50915062002561565b3d9150620028e3565b935091508783813d81116200296a575b62002951818362003537565b810103126200033c57915186929091620024d1620024a6565b503d62002945565b91907f0000000000000000000000000000000000000000000000000000000000000000905f5b835181101562002a4357620029ae8185620036b2565b5151620029be8460243562003826565b118015620029ff575b620029d55760010162002998565b60046040517f0afa0593000000000000000000000000000000000000000000000000000000008152fd5b5062002a0c8185620036b2565b515162002a3c7f000000000000000000000000000000000000000000000000000000000000000060243562003826565b10620029c7565b5091929050620020b5565b60046040517f68255683000000000000000000000000000000000000000000000000000000008152fd5b67ffffffffffffffff8235116200033c5760407fffffffffffffffffffffffffffffffffffffffffffffffffffffffffffffffe0833586890101886004013589010301126200033c5760405162002acf81620034c3565b6044833586890101013567ffffffffffffffff81116200033c5762002b0990604460248a600401358b0101918635898c0101010162003baa565b81526064833586890101013567ffffffffffffffff81116200033c5760449260209262002b4c84938660248d80600401350101918d8c8b35910101010162003baa565b83820152815201920191905062001b7d565b62002b6a8251620036f4565b91620020aa565b346200033c5760807ffffffffffffffffffffffffffffffffffffffffffffffffffffffffffffffffc3601126200033c5767ffffffffffffffff6004358181116200033c5762002bc690369060040162003592565b602435918083116200033c57366023840112156200033c5782600401359162002bef8362003579565b9362002bff604051958662003537565b83855260208501906024829560051b820101903682116200033c57602401915b818310620033f5575050506044358281116200033c5762002c4590369060040162003592565b916064359081116200033c5762002c6190369060040162003592565b9062002c6c62003af9565b604051948560a081019160806020830152845180935260c082019260208601905f5b818110620033db575050507fffffffffffffffffffffffffffffffffffffffffffffffffffffffffffffffe0928383820301604084015260208a51918281520191905f5b818110620033ab575050509062002d0e62002cfd83858462002d1b9796030160608501528962003642565b838382030160808401528762003642565b0390810187528662003537565b5f60405162002d2a816200351a565b525a90825180159081156200339e575b811562003391575b811562003384575b506200335a575f5b835181101562002e2c5762002d688185620036b2565b515f52600360205273ffffffffffffffffffffffffffffffffffffffff908160405f2054169162002d9a828b620036b2565b511662002da88289620036b2565b5162002db58389620036b2565b5193803b156200033c575f928360649260405197889586947f3c4c6a280000000000000000000000000000000000000000000000000000000086526004860152602485015260448401525af191821562000c685760019262002e1a575b500162002d52565b62002e2590620034ae565b8962002e12565b50855a830392831162001fc35762002e67915f91815162002e7460208401516200241a670de0b6b3a7640000809881956200241a8c620037f4565b04620024d14893620037f4565b0491606060408201519101519151608c810180911162001fc3577f0fffffffffffffffffffffffffffffffffffffffffffffffffffffffffffffff8116810362001fc357604051917ff5d6ded7000000000000000000000000000000000000000000000000000000008352602083600481606c5afa91821562000c685787935f9362003318575b5093620024d184620024c96200241a946200241a62002f1e989960041b620037f4565b049162002f2c838362003826565b9373ffffffffffffffffffffffffffffffffffffffff94600460a0877f2b50211693ec91bcfe327771928b74a8f475c508d53e86fca4153bcf0f0e87765416604051928380927ffeaf968c0000000000000000000000000000000000000000000000000000000082525afa90811562000c68575f91620032b6575b5062002fb86305f5e1009162003d73565b05905f8212620028a35762002fd392916200258d9162003812565b93805f5416946040517fd4938db30000000000000000000000000000000000000000000000000000000081526020816004818a5afa90811562000c68575f916200327e575b5080821015620032755750945b803b156200033c575f80916024604051809481937f379607f50000000000000000000000000000000000000000000000000000000083528b60048401525af1801562000c68576200325f575b5064e8d4a510009485810295818704149015171562002824576200316c907f5b5cbfa852c5bd03e540eba853f8faf28a604a4d82bee1091096bfaea14d08c35416604051908380602084017fa9059cbb00000000000000000000000000000000000000000000000000000000815233602486015289604486015260448552620030fa85620034fd565b604051946200310986620034c3565b602086527f5361666545524332303a206c6f772d6c6576656c2063616c6c206661696c65646020870152519082855af13d156200281b573d916200314d8362003677565b926200315d604051948562003537565b83523d86602085013e62004030565b80519081620031ba575b505060405194855260208501526040840152606083015260808201527ffa0333956d06e335c550bd5fc4ac9c003c6545e371331b1071fa4d5d8519d6c160a03392a2005b602080620031cd93830101910162003779565b15620031db57858062003176565b60846040517f08c379a000000000000000000000000000000000000000000000000000000000815260206004820152602a60248201527f5361666545524332303a204552433230206f7065726174696f6e20646964206e60448201527f6f742073756363656564000000000000000000000000000000000000000000006064820152fd5b6200326c919250620034ae565b5f908662003071565b90509462003025565b90506020813d602011620032ad575b816200329c6020938362003537565b810103126200033c57518862003018565b3d91506200328d565b905060a0813d60a0116200330f575b81620032d460a0938362003537565b810103126200033c5762002fb881620032f26305f5e1009362003d4b565b506200330660806020830151920162003d4b565b50915062002fa7565b3d9150620032c5565b935091506020833d60201162003351575b81620033386020938362003537565b810103126200033c57915186929091620024d162002efb565b3d915062003329565b60046040517fb043fd7b000000000000000000000000000000000000000000000000000000008152fd5b9050845114158862002d4a565b8651811415915062002d42565b8851811415915062002d3a565b825173ffffffffffffffffffffffffffffffffffffffff1684528a94506020938401939092019160010162002cd2565b825186526020958601958b95509092019160010162002c8e565b823573ffffffffffffffffffffffffffffffffffffffff811681036200033c5781526020928301920162002c1f565b346200033c5760207ffffffffffffffffffffffffffffffffffffffffffffffffffffffffffffffffc3601126200033c576004359073ffffffffffffffffffffffffffffffffffffffff82168092036200033c576020915f527f81796b4965de195665289d95668a8a9e7020858e15f5341c42bcf9951c1768ad825260ff60405f20541615158152f35b67ffffffffffffffff811162000c7357604052565b6040810190811067ffffffffffffffff82111762000c7357604052565b6060810190811067ffffffffffffffff82111762000c7357604052565b6080810190811067ffffffffffffffff82111762000c7357604052565b6020810190811067ffffffffffffffff82111762000c7357604052565b90601f7fffffffffffffffffffffffffffffffffffffffffffffffffffffffffffffffe0910116810190811067ffffffffffffffff82111762000c7357604052565b67ffffffffffffffff811162000c735760051b60200190565b9080601f830112156200033c576020908235620035af8162003579565b93620035bf604051958662003537565b81855260208086019260051b8201019283116200033c57602001905b828210620035ea575050505090565b81358152908301908301620035db565b6004359073ffffffffffffffffffffffffffffffffffffffff821682036200033c57565b6044359073ffffffffffffffffffffffffffffffffffffffff821682036200033c57565b9081518082526020808093019301915f5b82811062003662575050505090565b83518552938101939281019260010162003653565b67ffffffffffffffff811162000c7357601f017fffffffffffffffffffffffffffffffffffffffffffffffffffffffffffffffe01660200190565b8051821015620036c75760209160051b010190565b7f4e487b71000000000000000000000000000000000000000000000000000000005f52603260045260245ffd5b90620037008262003579565b60409062003712604051918262003537565b8381527fffffffffffffffffffffffffffffffffffffffffffffffffffffffffffffffe062003742829562003579565b01915f5b838110620037545750505050565b60209082516200376481620034c3565b5f8152825f8183015282860101520162003746565b908160209103126200033c575180151581036200033c5790565b929192620037a18262003677565b91620037b1604051938462003537565b8294818452818301116200033c578281602093845f960137010152565b60405190620037dd82620034fd565b5f6060838281528260208201528260408201520152565b90670de0b6b3a76400009182810292818404149015171562001fc357565b8181029291811591840414171562001fc357565b9190820180921162001fc357565b6200383e620037ce565b50620038c26200389b62003873837f000000000000000000000000000000000000000000000000000000000000000062003812565b927f000000000000000000000000000000000000000000000000000000000000000062003812565b7f000000000000000000000000000000000000000000000000000000000000000062003826565b60405191620038d183620034fd565b7f0000000000000000000000000000000000000000000000000000000000000000835260208301527f00000000000000000000000000000000000000000000000000000000000000006040830152606082015290565b60075467ffffffffffffffff90608081901c4211620039d157165b42620039575762003954905f62003812565b90565b7fffffffffffffffffffffffffffffffffffffffffffffffffffffffffffffffff420142811162001fc3578115620039a457819004906001820180921162001fc357620039549162003812565b7f4e487b71000000000000000000000000000000000000000000000000000000005f52601260045260245ffd5b60401c1662003942565b6040517fc45a015500000000000000000000000000000000000000000000000000000000815273ffffffffffffffffffffffffffffffffffffffff918216916020918281600481875afa90811562000c68575f9162003abc575b501691604051907f032bb44300000000000000000000000000000000000000000000000000000000825260048201528181602481865afa90811562000c68575f9162003a9a575b501562003a94576001915f525260ff60405f20541690565b50505f90565b62003ab59150823d84116200238c576200237b818362003537565b5f62003a7c565b90508281813d831162003af1575b62003ad6818362003537565b810103126200033c575181811681036200033c575f62003a35565b503d62003aca565b62003b03620037ce565b5060405162003b1281620034fd565b7f000000000000000000000000000000000000000000000000000000000000000081527f000000000000000000000000000000000000000000000000000000000000000060208201527f000000000000000000000000000000000000000000000000000000000000000060408201527f0000000000000000000000000000000000000000000000000000000000000000606082015290565b9080601f830112156200033c57816020620039549335910162003793565b91908260809103126200033c5760405162003be381620034fd565b809280518060070b81036200033c578252602081015167ffffffffffffffff811681036200033c57602083015260408101518060030b81036200033c576040830152606090810151910152565b604d811162001fc357600a0a90565b8115620039a4577fffffffffffffffffffffffffffffffffffffffffffffffffffffffffffffffff82147f800000000000000000000000000000000000000000000000000000000000000082141662001fc3570590565b8062003ca157505f90565b7fffffffffffffffffffffffffffffffffffffffffffffffffffffffffffffffff810190811162001fc35764e8d4a5100090046001810180911162001fc35790565b5f5b83811062003cf55750505f910152565b818101518382015260200162003ce5565b907fffffffffffffffffffffffffffffffffffffffffffffffffffffffffffffffe0601f60209362003d448151809281875287808801910162003ce3565b0116010190565b519069ffffffffffffffffffff821682036200033c57565b5f811262003d6e5790565b5f0390565b90670de0b6b3a76400009182810292818405149015171562001fc357565b81810292915f82127f800000000000000000000000000000000000000000000000000000000000000082141662001fc357818405149015171562001fc357565b9060418151145f1462003e005762003dfc91602082015190606060408401519301515f1a9062003fa5565b9091565b50505f90600290565b600581101562003f78578062003e1c5750565b6001810362003e835760646040517f08c379a000000000000000000000000000000000000000000000000000000000815260206004820152601860248201527f45434453413a20696e76616c6964207369676e617475726500000000000000006044820152fd5b6002810362003eea5760646040517f08c379a000000000000000000000000000000000000000000000000000000000815260206004820152601f60248201527f45434453413a20696e76616c6964207369676e6174757265206c656e677468006044820152fd5b60031462003ef457565b60846040517f08c379a000000000000000000000000000000000000000000000000000000000815260206004820152602260248201527f45434453413a20696e76616c6964207369676e6174757265202773272076616c60448201527f75650000000000000000000000000000000000000000000000000000000000006064820152fd5b7f4e487b71000000000000000000000000000000000000000000000000000000005f52602160045260245ffd5b7f7fffffffffffffffffffffffffffffff5d576e7357a4501ddfe92f46681b20a0841162004025576020935f9360ff60809460405194855216868401526040830152606082015282805260015afa1562000c68575f5173ffffffffffffffffffffffffffffffffffffffff8116156200401d57905f90565b505f90600190565b505050505f90600390565b91929015620040ae575081511562004046575090565b3b15620040505790565b60646040517f08c379a000000000000000000000000000000000000000000000000000000000815260206004820152601d60248201527f416464726573733a2063616c6c20746f206e6f6e2d636f6e74726163740000006044820152fd5b825190915015620040c25750805190602001fd5b62004102906040519182917f08c379a000000000000000000000000000000000000000000000000000000000835260206004840152602483019062003d06565b0390fdfe608060409080825261072f80380380916100198285610342565b833981019082818303126102385761003081610365565b6020828101516001600160401b039391929184821161023857019084601f830112156102385781519161006283610379565b9261006f88519485610342565b8084528484019685828401011161023857868561008c9301610394565b803b156102f0578551635c60da1b60e01b80825292916001600160a01b0316908481600481855afa9081156102e6575f916102b1575b503b15610254577fa3f0ad74e5423aebfd80d3ef4346578335a9a72aeaee59ff6cb3582b35133d5080546001600160a01b03191682179055865192817f1cf3b03a6cf19fa2baba4df148e9dcabedea7f8a5c07840e207e5c089be95d3e5f80a282511580159061024d575b610140575b87516102c690816104698239f35b6004848693819382525afa918215610243575f92610208575b5085519360608501908111858210176101f4578652602784527f416464726573733a206c6f772d6c6576656c2064656c65676174652063616c6c83850152660819985a5b195960ca1b84870152516101de945f918291845af4903d156101eb573d6101c381610379565b906101d088519283610342565b81525f81943d92013e6103b5565b505f808080808080610132565b606092506103b5565b634e487b7160e01b5f52604160045260245ffd5b9091508281813d831161023c575b6102208183610342565b810103126102385761023190610365565b905f610159565b5f80fd5b503d610216565b86513d5f823e3d90fd5b505f61012d565b865162461bcd60e51b815260048101859052603060248201527f455243313936373a20626561636f6e20696d706c656d656e746174696f6e206960448201526f1cc81b9bdd08184818dbdb9d1c9858dd60821b6064820152608490fd5b90508481813d83116102df575b6102c88183610342565b81010312610238576102d990610365565b5f6100c2565b503d6102be565b88513d5f823e3d90fd5b855162461bcd60e51b815260048101849052602560248201527f455243313936373a206e657720626561636f6e206973206e6f74206120636f6e6044820152641d1c9858dd60da1b6064820152608490fd5b601f909101601f19168101906001600160401b038211908210176101f457604052565b51906001600160a01b038216820361023857565b6001600160401b0381116101f457601f01601f191660200190565b5f5b8381106103a55750505f910152565b8181015183820152602001610396565b9192901561041757508151156103c9575090565b3b156103d25790565b60405162461bcd60e51b815260206004820152601d60248201527f416464726573733a2063616c6c20746f206e6f6e2d636f6e74726163740000006044820152606490fd5b82519091501561042a5750805190602001fd5b6044604051809262461bcd60e51b82526020600483015261045a8151809281602486015260208686019101610394565b601f01601f19168101030190fdfe6080806040523661011c5760208160048173ffffffffffffffffffffffffffffffffffffffff7fa3f0ad74e5423aebfd80d3ef4346578335a9a72aeaee59ff6cb3582b35133d5054167f5c60da1b0000000000000000000000000000000000000000000000000000000082525afa908115610111575f91610081575b50610273565b905060203d60201161010a575b7fffffffffffffffffffffffffffffffffffffffffffffffffffffffffffffffe0601f82011682019180831067ffffffffffffffff8411176100dd576100d792604052016101f6565b5f61007b565b7f4e487b71000000000000000000000000000000000000000000000000000000005f52604160045260245ffd5b503d61008e565b6040513d5f823e3d90fd5b6004602073ffffffffffffffffffffffffffffffffffffffff7fa3f0ad74e5423aebfd80d3ef4346578335a9a72aeaee59ff6cb3582b35133d505416604051928380927f5c60da1b0000000000000000000000000000000000000000000000000000000082525afa908115610111575f916101975750610273565b602091503d82116101ee575b7fffffffffffffffffffffffffffffffffffffffffffffffffffffffffffffffe0601f83011681019181831067ffffffffffffffff8411176100dd576100d792604052810190610247565b3d91506101a3565b7fffffffffffffffffffffffffffffffffffffffffffffffffffffffffffffff8060209101126102435760805173ffffffffffffffffffffffffffffffffffffffff811681036102435790565b5f80fd5b90816020910312610243575173ffffffffffffffffffffffffffffffffffffffff811681036102435790565b5f8091368280378136915af43d5f803e1561028c573d5ff35b3d5ffdfea2646970667358221220ec432b4747e143afd3ca9be003efbb7d4ac773fd8dbbac59b6729d6be9a1e1a164736f6c63430008180033a26469706673582212204e95867b3fff265138c36438ab8b58dea5ce2e728eefcc87533609e47be0c25664736f6c63430008180033",
  "devdoc": {
    "details": "Additionally incentivizes keepers with L1 rollup fees according to the Arbitrum spec",
    "kind": "dev",
    "methods": {
      "acceptOwner()": {
        "details": "Can only be called by the pending owner to ensure correctness. Calls to the `_beforeAcceptOwner` hook      to perform logic before updating ownership."
      },
      "authorize(address)": {
        "params": {
          "factory": "The factory to authorize"
        }
      },
      "authorized(address)": {
        "params": {
          "caller": "The caller to check"
        },
        "returns": {
          "_0": "Whether the caller is authorized"
        }
      },
      "commit(bytes32[],uint256,bytes)": {
        "details": "Accepts both requested and non-requested versions.      Requested versions will pay out a keeper fee, non-requested versions will not.      Accepts any publish time in the underlying price message, as long as it is within the validity window,      which means its possible for publish times to be slightly out of order with respect to versions.      Batched updates are supported by passing in a list of price feed ids along with a valid batch update data.",
        "params": {
          "data": "The update data to commit",
          "ids": "The list of price feed ids to commit",
          "version": "The oracle version to commit"
        }
      },
      "create(bytes32,bytes32,(address,int16))": {
        "params": {
          "id": "The id of the oracle to create",
          "payoff": "The payoff provider for the oracle",
          "underlyingId": "The underlying id of the oracle to create"
        },
        "returns": {
          "newOracle": "The newly created oracle instance"
        }
      },
      "current()": {
        "details": "Rounded up to the nearest granularity",
        "returns": {
          "_0": "The current timestamp"
        }
      },
      "granularity()": {
        "returns": {
          "_0": "The granularity"
        }
      },
      "initialize(address,address,address)": {
        "params": {
          "oracleFactory_": "The root oracle factory"
        }
      },
      "instances(address)": {
        "params": {
          "instance": "The instance to check"
        },
        "returns": {
          "_0": "Whether the instance is valid"
        }
      },
      "pause()": {
        "details": "Can only be called by the pauser"
      },
      "register(address)": {
        "params": {
          "payoff": "The payoff provider to register"
        }
      },
      "settle(bytes32[],address[],uint256[],uint256[])": {
        "details": "Pays out a keeper incentive if all supplied local settlement callbacks succeed      Each array must be the same length, each index is a separate corresponding callback entry",
        "params": {
          "ids": "The list of price feed ids to settle",
          "markets": "The list of markets to settle",
          "maxCounts": "The list of maximum number of settlement callbacks to perform before exiting",
          "versions": "The list of versions to settle"
        }
      },
      "toUnderlyingPayoff(bytes32)": {
        "params": {
          "id": "The id to lookup"
        },
        "returns": {
          "_0": "The payoff definition"
        }
      },
      "unpause()": {
        "details": "Can only be called by the pauser"
      },
      "updateGranularity(uint256)": {
        "params": {
          "newGranularity": "The new granularity"
        }
      },
      "updatePauser(address)": {
        "details": "Can only be called by the current owner",
        "params": {
          "newPauser": "New pauser address"
        }
      },
      "updatePendingOwner(address)": {
        "details": "Can only be called by the current owner      New owner does not take affect until that address calls `acceptOwner()`",
        "params": {
          "newPendingOwner": "New pending owner address"
        }
      }
    },
    "title": "MetaQuantsFactory_Arbitrum",
    "version": 1
  },
  "userdoc": {
    "kind": "user",
    "methods": {
      "acceptOwner()": {
        "notice": "Accepts and transfers the ownership of the contract to the pending owner"
      },
      "authorize(address)": {
        "notice": "Authorizes a factory's instances to request from this factory's instances"
      },
      "authorized(address)": {
        "notice": "Returns whether a caller is authorized to request from this factory's instances"
      },
      "commit(bytes32[],uint256,bytes)": {
        "notice": "Commits the price to specified version"
      },
      "commitKeepConfig(uint256)": {
        "notice": "Returns the keep config for commit"
      },
      "create(bytes32,bytes32,(address,int16))": {
        "notice": "Creates a new oracle instance"
      },
      "current()": {
        "notice": "Returns the current timestamp"
      },
      "granularity()": {
        "notice": "Returns the granularity"
      },
      "implementation()": {
        "notice": "The instance implementation address"
      },
      "initialize(address,address,address)": {
        "notice": "Initializes the contract state"
      },
      "instances(address)": {
        "notice": "Returns whether the instance is valid"
      },
      "pause()": {
        "notice": "Pauses the contract"
      },
      "register(address)": {
        "notice": "Authorizes a factory's instances to request from this factory's instances"
      },
      "settle(bytes32[],address[],uint256[],uint256[])": {
        "notice": "Performs a list of local settlement callbacks"
      },
      "settleKeepConfig()": {
        "notice": "Returns the keep config for settle"
      },
      "toUnderlyingPayoff(bytes32)": {
        "notice": "Returns the payoff definition for the specified id"
      },
      "unpause()": {
        "notice": "Unpauses the contract"
      },
      "updateGranularity(uint256)": {
        "notice": "Updates the granularity"
      },
      "updatePauser(address)": {
        "notice": "Updates the new pauser"
      },
      "updatePendingOwner(address)": {
        "notice": "Updates the new pending owner"
      }
    },
    "notice": "Arbitrum Kept Oracle implementation for MetaQuants price feeds.",
    "version": 1
  },
  "storageLayout": {
    "storage": [
      {
        "astId": 4367,
        "contract": "@equilibria/perennial-v2-oracle/contracts/metaquants/MetaQuantsFactory_Arbitrum.sol:MetaQuantsFactory_Arbitrum",
        "label": "oracleFactory",
        "offset": 0,
        "slot": "0",
        "type": "t_contract(IOracleFactory)4280"
      },
      {
        "astId": 4373,
        "contract": "@equilibria/perennial-v2-oracle/contracts/metaquants/MetaQuantsFactory_Arbitrum.sol:MetaQuantsFactory_Arbitrum",
        "label": "callers",
        "offset": 0,
        "slot": "1",
        "type": "t_mapping(t_contract(IFactory)29232,t_bool)"
      },
      {
        "astId": 4379,
        "contract": "@equilibria/perennial-v2-oracle/contracts/metaquants/MetaQuantsFactory_Arbitrum.sol:MetaQuantsFactory_Arbitrum",
        "label": "payoffs",
        "offset": 0,
        "slot": "2",
        "type": "t_mapping(t_contract(IPayoffProvider)4293,t_bool)"
      },
      {
        "astId": 4385,
        "contract": "@equilibria/perennial-v2-oracle/contracts/metaquants/MetaQuantsFactory_Arbitrum.sol:MetaQuantsFactory_Arbitrum",
        "label": "oracles",
        "offset": 0,
        "slot": "3",
        "type": "t_mapping(t_bytes32,t_contract(IOracleProvider)15139)"
      },
      {
        "astId": 4390,
        "contract": "@equilibria/perennial-v2-oracle/contracts/metaquants/MetaQuantsFactory_Arbitrum.sol:MetaQuantsFactory_Arbitrum",
        "label": "toUnderlyingId",
        "offset": 0,
        "slot": "4",
        "type": "t_mapping(t_bytes32,t_bytes32)"
      },
      {
        "astId": 4396,
        "contract": "@equilibria/perennial-v2-oracle/contracts/metaquants/MetaQuantsFactory_Arbitrum.sol:MetaQuantsFactory_Arbitrum",
        "label": "_toUnderlyingPayoff",
        "offset": 0,
        "slot": "5",
        "type": "t_mapping(t_bytes32,t_struct(PayoffDefinition)3817_storage)"
      },
      {
        "astId": 4404,
        "contract": "@equilibria/perennial-v2-oracle/contracts/metaquants/MetaQuantsFactory_Arbitrum.sol:MetaQuantsFactory_Arbitrum",
        "label": "fromUnderlying",
        "offset": 0,
        "slot": "6",
        "type": "t_mapping(t_bytes32,t_mapping(t_contract(IPayoffProvider)4293,t_bytes32))"
      },
      {
        "astId": 4408,
        "contract": "@equilibria/perennial-v2-oracle/contracts/metaquants/MetaQuantsFactory_Arbitrum.sol:MetaQuantsFactory_Arbitrum",
        "label": "_granularity",
        "offset": 0,
        "slot": "7",
        "type": "t_struct(Granularity)3811_storage"
      }
    ],
    "types": {
      "t_bool": {
        "encoding": "inplace",
        "label": "bool",
        "numberOfBytes": "1"
      },
      "t_bytes32": {
        "encoding": "inplace",
        "label": "bytes32",
        "numberOfBytes": "32"
      },
      "t_contract(IFactory)29232": {
        "encoding": "inplace",
        "label": "contract IFactory",
        "numberOfBytes": "20"
      },
      "t_contract(IOracleFactory)4280": {
        "encoding": "inplace",
        "label": "contract IOracleFactory",
        "numberOfBytes": "20"
      },
      "t_contract(IOracleProvider)15139": {
        "encoding": "inplace",
        "label": "contract IOracleProvider",
        "numberOfBytes": "20"
      },
      "t_contract(IPayoffProvider)4293": {
        "encoding": "inplace",
        "label": "contract IPayoffProvider",
        "numberOfBytes": "20"
      },
      "t_int16": {
        "encoding": "inplace",
        "label": "int16",
        "numberOfBytes": "2"
      },
      "t_mapping(t_bytes32,t_bytes32)": {
        "encoding": "mapping",
        "key": "t_bytes32",
        "label": "mapping(bytes32 => bytes32)",
        "numberOfBytes": "32",
        "value": "t_bytes32"
      },
      "t_mapping(t_bytes32,t_contract(IOracleProvider)15139)": {
        "encoding": "mapping",
        "key": "t_bytes32",
        "label": "mapping(bytes32 => contract IOracleProvider)",
        "numberOfBytes": "32",
        "value": "t_contract(IOracleProvider)15139"
      },
      "t_mapping(t_bytes32,t_mapping(t_contract(IPayoffProvider)4293,t_bytes32))": {
        "encoding": "mapping",
        "key": "t_bytes32",
        "label": "mapping(bytes32 => mapping(contract IPayoffProvider => bytes32))",
        "numberOfBytes": "32",
        "value": "t_mapping(t_contract(IPayoffProvider)4293,t_bytes32)"
      },
      "t_mapping(t_bytes32,t_struct(PayoffDefinition)3817_storage)": {
        "encoding": "mapping",
        "key": "t_bytes32",
        "label": "mapping(bytes32 => struct IKeeperFactory.PayoffDefinition)",
        "numberOfBytes": "32",
        "value": "t_struct(PayoffDefinition)3817_storage"
      },
      "t_mapping(t_contract(IFactory)29232,t_bool)": {
        "encoding": "mapping",
        "key": "t_contract(IFactory)29232",
        "label": "mapping(contract IFactory => bool)",
        "numberOfBytes": "32",
        "value": "t_bool"
      },
      "t_mapping(t_contract(IPayoffProvider)4293,t_bool)": {
        "encoding": "mapping",
        "key": "t_contract(IPayoffProvider)4293",
        "label": "mapping(contract IPayoffProvider => bool)",
        "numberOfBytes": "32",
        "value": "t_bool"
      },
      "t_mapping(t_contract(IPayoffProvider)4293,t_bytes32)": {
        "encoding": "mapping",
        "key": "t_contract(IPayoffProvider)4293",
        "label": "mapping(contract IPayoffProvider => bytes32)",
        "numberOfBytes": "32",
        "value": "t_bytes32"
      },
      "t_struct(Granularity)3811_storage": {
        "encoding": "inplace",
        "label": "struct IKeeperFactory.Granularity",
        "members": [
          {
            "astId": 3806,
            "contract": "@equilibria/perennial-v2-oracle/contracts/metaquants/MetaQuantsFactory_Arbitrum.sol:MetaQuantsFactory_Arbitrum",
            "label": "latestGranularity",
            "offset": 0,
            "slot": "0",
            "type": "t_uint64"
          },
          {
            "astId": 3808,
            "contract": "@equilibria/perennial-v2-oracle/contracts/metaquants/MetaQuantsFactory_Arbitrum.sol:MetaQuantsFactory_Arbitrum",
            "label": "currentGranularity",
            "offset": 8,
            "slot": "0",
            "type": "t_uint64"
          },
          {
            "astId": 3810,
            "contract": "@equilibria/perennial-v2-oracle/contracts/metaquants/MetaQuantsFactory_Arbitrum.sol:MetaQuantsFactory_Arbitrum",
            "label": "effectiveAfter",
            "offset": 16,
            "slot": "0",
            "type": "t_uint128"
          }
        ],
        "numberOfBytes": "32"
      },
      "t_struct(PayoffDefinition)3817_storage": {
        "encoding": "inplace",
        "label": "struct IKeeperFactory.PayoffDefinition",
        "members": [
          {
            "astId": 3814,
            "contract": "@equilibria/perennial-v2-oracle/contracts/metaquants/MetaQuantsFactory_Arbitrum.sol:MetaQuantsFactory_Arbitrum",
            "label": "provider",
            "offset": 0,
            "slot": "0",
            "type": "t_contract(IPayoffProvider)4293"
          },
          {
            "astId": 3816,
            "contract": "@equilibria/perennial-v2-oracle/contracts/metaquants/MetaQuantsFactory_Arbitrum.sol:MetaQuantsFactory_Arbitrum",
            "label": "decimals",
            "offset": 20,
            "slot": "0",
            "type": "t_int16"
          }
        ],
        "numberOfBytes": "32"
      },
      "t_uint128": {
        "encoding": "inplace",
        "label": "uint128",
        "numberOfBytes": "16"
      },
      "t_uint64": {
        "encoding": "inplace",
        "label": "uint64",
        "numberOfBytes": "8"
      }
    }
  }
}