{
  "address": "0x1696f1aDb4091326fe0737718AD86388dE6654CD",
  "abi": [
    {
      "inputs": [
        {
          "internalType": "Token6",
          "name": "usdc",
          "type": "address"
        },
        {
          "internalType": "Token18",
          "name": "dsu",
          "type": "address"
        },
        {
          "internalType": "contract IEmptySetReserve",
          "name": "reserve",
          "type": "address"
        },
        {
          "internalType": "contract IMarketFactory",
          "name": "marketFactory",
          "type": "address"
        },
        {
          "internalType": "contract IOrderVerifier",
          "name": "verifier",
          "type": "address"
        }
      ],
      "stateMutability": "nonpayable",
      "type": "constructor"
    },
    {
      "inputs": [],
      "name": "DivisionByZero",
      "type": "error"
    },
    {
      "inputs": [
        {
          "internalType": "uint256",
          "name": "value",
          "type": "uint256"
        }
      ],
      "name": "Fixed6OverflowError",
      "type": "error"
    },
    {
      "inputs": [
        {
          "internalType": "uint256",
          "name": "version",
          "type": "uint256"
        }
      ],
      "name": "InitializableAlreadyInitializedError",
      "type": "error"
    },
    {
      "inputs": [],
      "name": "InitializableNotInitializingError",
      "type": "error"
    },
    {
      "inputs": [],
      "name": "InitializableZeroVersionError",
      "type": "error"
    },
    {
      "inputs": [],
      "name": "ManagerCannotCancelError",
      "type": "error"
    },
    {
      "inputs": [],
      "name": "ManagerCannotExecuteError",
      "type": "error"
    },
    {
      "inputs": [],
      "name": "ManagerInvalidOrderNonceError",
      "type": "error"
    },
    {
      "inputs": [],
      "name": "ManagerInvalidSignerError",
      "type": "error"
    },
    {
      "inputs": [],
      "name": "TriggerOrderInvalidError",
      "type": "error"
    },
    {
      "inputs": [],
      "name": "TriggerOrderStorageInvalidError",
      "type": "error"
    },
    {
      "inputs": [
        {
          "internalType": "int256",
          "name": "value",
          "type": "int256"
        }
      ],
      "name": "UFixed18UnderflowError",
      "type": "error"
    },
    {
      "inputs": [
        {
          "internalType": "int256",
          "name": "value",
          "type": "int256"
        }
      ],
      "name": "UFixed6UnderflowError",
      "type": "error"
    },
    {
      "anonymous": false,
      "inputs": [
        {
          "indexed": false,
          "internalType": "uint256",
          "name": "version",
          "type": "uint256"
        }
      ],
      "name": "Initialized",
      "type": "event"
    },
    {
      "anonymous": false,
      "inputs": [
        {
          "indexed": true,
          "internalType": "address",
          "name": "sender",
          "type": "address"
        },
        {
          "indexed": false,
          "internalType": "uint256",
          "name": "applicableGas",
          "type": "uint256"
        },
        {
          "indexed": false,
          "internalType": "uint256",
          "name": "applicableValue",
          "type": "uint256"
        },
        {
          "indexed": false,
          "internalType": "UFixed18",
          "name": "baseFee",
          "type": "uint256"
        },
        {
          "indexed": false,
          "internalType": "UFixed18",
          "name": "calldataFee",
          "type": "uint256"
        },
        {
          "indexed": false,
          "internalType": "UFixed18",
          "name": "keeperFee",
          "type": "uint256"
        }
      ],
      "name": "KeeperCall",
      "type": "event"
    },
    {
      "anonymous": false,
      "inputs": [
        {
          "indexed": true,
          "internalType": "contract IMarket",
          "name": "market",
          "type": "address"
        },
        {
          "indexed": true,
          "internalType": "address",
          "name": "account",
          "type": "address"
        },
        {
          "indexed": false,
          "internalType": "uint256",
          "name": "orderId",
          "type": "uint256"
        }
      ],
      "name": "TriggerOrderCancelled",
      "type": "event"
    },
    {
      "anonymous": false,
      "inputs": [
        {
          "indexed": true,
          "internalType": "contract IMarket",
          "name": "market",
          "type": "address"
        },
        {
          "indexed": true,
          "internalType": "address",
          "name": "account",
          "type": "address"
        },
        {
          "components": [
            {
              "internalType": "uint8",
              "name": "side",
              "type": "uint8"
            },
            {
              "internalType": "int8",
              "name": "comparison",
              "type": "int8"
            },
            {
              "internalType": "Fixed6",
              "name": "price",
              "type": "int256"
            },
            {
              "internalType": "Fixed6",
              "name": "delta",
              "type": "int256"
            },
            {
              "internalType": "UFixed6",
              "name": "maxFee",
              "type": "uint256"
            },
            {
              "internalType": "bool",
              "name": "isSpent",
              "type": "bool"
            },
            {
              "internalType": "address",
              "name": "referrer",
              "type": "address"
            },
            {
              "components": [
                {
                  "internalType": "UFixed6",
                  "name": "amount",
                  "type": "uint256"
                },
                {
                  "internalType": "address",
                  "name": "receiver",
                  "type": "address"
                },
                {
                  "internalType": "bool",
                  "name": "fixedFee",
                  "type": "bool"
                },
                {
                  "internalType": "bool",
                  "name": "unwrap",
                  "type": "bool"
                }
              ],
              "internalType": "struct InterfaceFee",
              "name": "interfaceFee",
              "type": "tuple"
            }
          ],
          "indexed": false,
          "internalType": "struct TriggerOrder",
          "name": "order",
          "type": "tuple"
        },
        {
          "indexed": false,
          "internalType": "uint256",
          "name": "orderId",
          "type": "uint256"
        }
      ],
      "name": "TriggerOrderExecuted",
      "type": "event"
    },
    {
      "anonymous": false,
      "inputs": [
        {
          "indexed": true,
          "internalType": "address",
          "name": "account",
          "type": "address"
        },
        {
          "indexed": true,
          "internalType": "contract IMarket",
          "name": "market",
          "type": "address"
        },
        {
          "components": [
            {
              "internalType": "UFixed6",
              "name": "amount",
              "type": "uint256"
            },
            {
              "internalType": "address",
              "name": "receiver",
              "type": "address"
            },
            {
              "internalType": "bool",
              "name": "fixedFee",
              "type": "bool"
            },
            {
              "internalType": "bool",
              "name": "unwrap",
              "type": "bool"
            }
          ],
          "indexed": false,
          "internalType": "struct InterfaceFee",
          "name": "fee",
          "type": "tuple"
        }
      ],
      "name": "TriggerOrderInterfaceFeeCharged",
      "type": "event"
    },
    {
      "anonymous": false,
      "inputs": [
        {
          "indexed": true,
          "internalType": "contract IMarket",
          "name": "market",
          "type": "address"
        },
        {
          "indexed": true,
          "internalType": "address",
          "name": "account",
          "type": "address"
        },
        {
          "components": [
            {
              "internalType": "uint8",
              "name": "side",
              "type": "uint8"
            },
            {
              "internalType": "int8",
              "name": "comparison",
              "type": "int8"
            },
            {
              "internalType": "Fixed6",
              "name": "price",
              "type": "int256"
            },
            {
              "internalType": "Fixed6",
              "name": "delta",
              "type": "int256"
            },
            {
              "internalType": "UFixed6",
              "name": "maxFee",
              "type": "uint256"
            },
            {
              "internalType": "bool",
              "name": "isSpent",
              "type": "bool"
            },
            {
              "internalType": "address",
              "name": "referrer",
              "type": "address"
            },
            {
              "components": [
                {
                  "internalType": "UFixed6",
                  "name": "amount",
                  "type": "uint256"
                },
                {
                  "internalType": "address",
                  "name": "receiver",
                  "type": "address"
                },
                {
                  "internalType": "bool",
                  "name": "fixedFee",
                  "type": "bool"
                },
                {
                  "internalType": "bool",
                  "name": "unwrap",
                  "type": "bool"
                }
              ],
              "internalType": "struct InterfaceFee",
              "name": "interfaceFee",
              "type": "tuple"
            }
          ],
          "indexed": false,
          "internalType": "struct TriggerOrder",
          "name": "order",
          "type": "tuple"
        },
        {
          "indexed": false,
          "internalType": "uint256",
          "name": "orderId",
          "type": "uint256"
        }
      ],
      "name": "TriggerOrderPlaced",
      "type": "event"
    },
    {
      "inputs": [],
      "name": "ARB_FIXED_OVERHEAD",
      "outputs": [
        {
          "internalType": "uint256",
          "name": "",
          "type": "uint256"
        }
      ],
      "stateMutability": "view",
      "type": "function"
    },
    {
      "inputs": [],
      "name": "ARB_GAS_MULTIPLIER",
      "outputs": [
        {
          "internalType": "uint256",
          "name": "",
          "type": "uint256"
        }
      ],
      "stateMutability": "view",
      "type": "function"
    },
    {
      "inputs": [],
      "name": "DSU",
      "outputs": [
        {
          "internalType": "Token18",
          "name": "",
          "type": "address"
        }
      ],
      "stateMutability": "view",
      "type": "function"
    },
    {
      "inputs": [],
      "name": "USDC",
      "outputs": [
        {
          "internalType": "Token6",
          "name": "",
          "type": "address"
        }
      ],
      "stateMutability": "view",
      "type": "function"
    },
    {
      "inputs": [
        {
          "internalType": "contract IMarket",
          "name": "market",
          "type": "address"
        },
        {
          "internalType": "uint256",
          "name": "orderId",
          "type": "uint256"
        }
      ],
      "name": "cancelOrder",
      "outputs": [],
      "stateMutability": "nonpayable",
      "type": "function"
    },
    {
      "inputs": [
        {
          "components": [
            {
              "components": [
                {
                  "internalType": "contract IMarket",
                  "name": "market",
                  "type": "address"
                },
                {
                  "internalType": "uint256",
                  "name": "orderId",
                  "type": "uint256"
                },
                {
                  "internalType": "UFixed6",
                  "name": "maxFee",
                  "type": "uint256"
                },
                {
                  "components": [
                    {
                      "internalType": "address",
                      "name": "account",
                      "type": "address"
                    },
                    {
                      "internalType": "address",
                      "name": "signer",
                      "type": "address"
                    },
                    {
                      "internalType": "address",
                      "name": "domain",
                      "type": "address"
                    },
                    {
                      "internalType": "uint256",
                      "name": "nonce",
                      "type": "uint256"
                    },
                    {
                      "internalType": "uint256",
                      "name": "group",
                      "type": "uint256"
                    },
                    {
                      "internalType": "uint256",
                      "name": "expiry",
                      "type": "uint256"
                    }
                  ],
                  "internalType": "struct Common",
                  "name": "common",
                  "type": "tuple"
                }
              ],
              "internalType": "struct Action",
              "name": "action",
              "type": "tuple"
            }
          ],
          "internalType": "struct CancelOrderAction",
          "name": "request",
          "type": "tuple"
        },
        {
          "internalType": "bytes",
          "name": "signature",
          "type": "bytes"
        }
      ],
      "name": "cancelOrderWithSignature",
      "outputs": [],
      "stateMutability": "nonpayable",
      "type": "function"
    },
    {
      "inputs": [
        {
          "internalType": "contract IMarket",
          "name": "market",
          "type": "address"
        },
        {
          "internalType": "address",
          "name": "account",
          "type": "address"
        },
        {
          "internalType": "uint256",
          "name": "orderId",
          "type": "uint256"
        }
      ],
      "name": "checkOrder",
      "outputs": [
        {
          "components": [
            {
              "internalType": "uint8",
              "name": "side",
              "type": "uint8"
            },
            {
              "internalType": "int8",
              "name": "comparison",
              "type": "int8"
            },
            {
              "internalType": "Fixed6",
              "name": "price",
              "type": "int256"
            },
            {
              "internalType": "Fixed6",
              "name": "delta",
              "type": "int256"
            },
            {
              "internalType": "UFixed6",
              "name": "maxFee",
              "type": "uint256"
            },
            {
              "internalType": "bool",
              "name": "isSpent",
              "type": "bool"
            },
            {
              "internalType": "address",
              "name": "referrer",
              "type": "address"
            },
            {
              "components": [
                {
                  "internalType": "UFixed6",
                  "name": "amount",
                  "type": "uint256"
                },
                {
                  "internalType": "address",
                  "name": "receiver",
                  "type": "address"
                },
                {
                  "internalType": "bool",
                  "name": "fixedFee",
                  "type": "bool"
                },
                {
                  "internalType": "bool",
                  "name": "unwrap",
                  "type": "bool"
                }
              ],
              "internalType": "struct InterfaceFee",
              "name": "interfaceFee",
              "type": "tuple"
            }
          ],
          "internalType": "struct TriggerOrder",
          "name": "order",
          "type": "tuple"
        },
        {
          "internalType": "bool",
          "name": "canExecute",
          "type": "bool"
        }
      ],
      "stateMutability": "view",
      "type": "function"
    },
    {
      "inputs": [],
      "name": "ethTokenOracleFeed",
      "outputs": [
        {
          "internalType": "contract AggregatorV3Interface",
          "name": "",
          "type": "address"
        }
      ],
      "stateMutability": "view",
      "type": "function"
    },
    {
      "inputs": [
        {
          "internalType": "contract IMarket",
          "name": "market",
          "type": "address"
        },
        {
          "internalType": "address",
          "name": "account",
          "type": "address"
        },
        {
          "internalType": "uint256",
          "name": "orderId",
          "type": "uint256"
        }
      ],
      "name": "executeOrder",
      "outputs": [],
      "stateMutability": "nonpayable",
      "type": "function"
    },
    {
      "inputs": [
        {
          "internalType": "contract AggregatorV3Interface",
          "name": "ethOracle_",
          "type": "address"
        },
        {
          "components": [
            {
              "internalType": "UFixed18",
              "name": "multiplierBase",
              "type": "uint256"
            },
            {
              "internalType": "uint256",
              "name": "bufferBase",
              "type": "uint256"
            },
            {
              "internalType": "UFixed18",
              "name": "multiplierCalldata",
              "type": "uint256"
            },
            {
              "internalType": "uint256",
              "name": "bufferCalldata",
              "type": "uint256"
            }
          ],
          "internalType": "struct IKept.KeepConfig",
          "name": "keepConfig_",
          "type": "tuple"
        }
      ],
      "name": "initialize",
      "outputs": [],
      "stateMutability": "nonpayable",
      "type": "function"
    },
    {
      "inputs": [],
      "name": "keepConfig",
      "outputs": [
        {
          "internalType": "UFixed18",
          "name": "multiplierBase",
          "type": "uint256"
        },
        {
          "internalType": "uint256",
          "name": "bufferBase",
          "type": "uint256"
        },
        {
          "internalType": "UFixed18",
          "name": "multiplierCalldata",
          "type": "uint256"
        },
        {
          "internalType": "uint256",
          "name": "bufferCalldata",
          "type": "uint256"
        }
      ],
      "stateMutability": "view",
      "type": "function"
    },
    {
      "inputs": [],
      "name": "keeperToken",
      "outputs": [
        {
          "internalType": "Token18",
          "name": "",
          "type": "address"
        }
      ],
      "stateMutability": "view",
      "type": "function"
    },
    {
      "inputs": [],
      "name": "marketFactory",
      "outputs": [
        {
          "internalType": "contract IMarketFactory",
          "name": "",
          "type": "address"
        }
      ],
      "stateMutability": "view",
      "type": "function"
    },
    {
      "inputs": [
        {
          "internalType": "contract IMarket",
          "name": "market",
          "type": "address"
        },
        {
          "internalType": "address",
          "name": "account",
          "type": "address"
        },
        {
          "internalType": "uint256",
          "name": "orderId",
          "type": "uint256"
        }
      ],
      "name": "orders",
      "outputs": [
        {
          "components": [
            {
              "internalType": "uint8",
              "name": "side",
              "type": "uint8"
            },
            {
              "internalType": "int8",
              "name": "comparison",
              "type": "int8"
            },
            {
              "internalType": "Fixed6",
              "name": "price",
              "type": "int256"
            },
            {
              "internalType": "Fixed6",
              "name": "delta",
              "type": "int256"
            },
            {
              "internalType": "UFixed6",
              "name": "maxFee",
              "type": "uint256"
            },
            {
              "internalType": "bool",
              "name": "isSpent",
              "type": "bool"
            },
            {
              "internalType": "address",
              "name": "referrer",
              "type": "address"
            },
            {
              "components": [
                {
                  "internalType": "UFixed6",
                  "name": "amount",
                  "type": "uint256"
                },
                {
                  "internalType": "address",
                  "name": "receiver",
                  "type": "address"
                },
                {
                  "internalType": "bool",
                  "name": "fixedFee",
                  "type": "bool"
                },
                {
                  "internalType": "bool",
                  "name": "unwrap",
                  "type": "bool"
                }
              ],
              "internalType": "struct InterfaceFee",
              "name": "interfaceFee",
              "type": "tuple"
            }
          ],
          "internalType": "struct TriggerOrder",
          "name": "",
          "type": "tuple"
        }
      ],
      "stateMutability": "view",
      "type": "function"
    },
    {
      "inputs": [
        {
          "internalType": "contract IMarket",
          "name": "market",
          "type": "address"
        },
        {
          "internalType": "uint256",
          "name": "orderId",
          "type": "uint256"
        },
        {
          "components": [
            {
              "internalType": "uint8",
              "name": "side",
              "type": "uint8"
            },
            {
              "internalType": "int8",
              "name": "comparison",
              "type": "int8"
            },
            {
              "internalType": "Fixed6",
              "name": "price",
              "type": "int256"
            },
            {
              "internalType": "Fixed6",
              "name": "delta",
              "type": "int256"
            },
            {
              "internalType": "UFixed6",
              "name": "maxFee",
              "type": "uint256"
            },
            {
              "internalType": "bool",
              "name": "isSpent",
              "type": "bool"
            },
            {
              "internalType": "address",
              "name": "referrer",
              "type": "address"
            },
            {
              "components": [
                {
                  "internalType": "UFixed6",
                  "name": "amount",
                  "type": "uint256"
                },
                {
                  "internalType": "address",
                  "name": "receiver",
                  "type": "address"
                },
                {
                  "internalType": "bool",
                  "name": "fixedFee",
                  "type": "bool"
                },
                {
                  "internalType": "bool",
                  "name": "unwrap",
                  "type": "bool"
                }
              ],
              "internalType": "struct InterfaceFee",
              "name": "interfaceFee",
              "type": "tuple"
            }
          ],
          "internalType": "struct TriggerOrder",
          "name": "order",
          "type": "tuple"
        }
      ],
      "name": "placeOrder",
      "outputs": [],
      "stateMutability": "nonpayable",
      "type": "function"
    },
    {
      "inputs": [
        {
          "components": [
            {
              "components": [
                {
                  "internalType": "uint8",
                  "name": "side",
                  "type": "uint8"
                },
                {
                  "internalType": "int8",
                  "name": "comparison",
                  "type": "int8"
                },
                {
                  "internalType": "Fixed6",
                  "name": "price",
                  "type": "int256"
                },
                {
                  "internalType": "Fixed6",
                  "name": "delta",
                  "type": "int256"
                },
                {
                  "internalType": "UFixed6",
                  "name": "maxFee",
                  "type": "uint256"
                },
                {
                  "internalType": "bool",
                  "name": "isSpent",
                  "type": "bool"
                },
                {
                  "internalType": "address",
                  "name": "referrer",
                  "type": "address"
                },
                {
                  "components": [
                    {
                      "internalType": "UFixed6",
                      "name": "amount",
                      "type": "uint256"
                    },
                    {
                      "internalType": "address",
                      "name": "receiver",
                      "type": "address"
                    },
                    {
                      "internalType": "bool",
                      "name": "fixedFee",
                      "type": "bool"
                    },
                    {
                      "internalType": "bool",
                      "name": "unwrap",
                      "type": "bool"
                    }
                  ],
                  "internalType": "struct InterfaceFee",
                  "name": "interfaceFee",
                  "type": "tuple"
                }
              ],
              "internalType": "struct TriggerOrder",
              "name": "order",
              "type": "tuple"
            },
            {
              "components": [
                {
                  "internalType": "contract IMarket",
                  "name": "market",
                  "type": "address"
                },
                {
                  "internalType": "uint256",
                  "name": "orderId",
                  "type": "uint256"
                },
                {
                  "internalType": "UFixed6",
                  "name": "maxFee",
                  "type": "uint256"
                },
                {
                  "components": [
                    {
                      "internalType": "address",
                      "name": "account",
                      "type": "address"
                    },
                    {
                      "internalType": "address",
                      "name": "signer",
                      "type": "address"
                    },
                    {
                      "internalType": "address",
                      "name": "domain",
                      "type": "address"
                    },
                    {
                      "internalType": "uint256",
                      "name": "nonce",
                      "type": "uint256"
                    },
                    {
                      "internalType": "uint256",
                      "name": "group",
                      "type": "uint256"
                    },
                    {
                      "internalType": "uint256",
                      "name": "expiry",
                      "type": "uint256"
                    }
                  ],
                  "internalType": "struct Common",
                  "name": "common",
                  "type": "tuple"
                }
              ],
              "internalType": "struct Action",
              "name": "action",
              "type": "tuple"
            }
          ],
          "internalType": "struct PlaceOrderAction",
          "name": "request",
          "type": "tuple"
        },
        {
          "internalType": "bytes",
          "name": "signature",
          "type": "bytes"
        }
      ],
      "name": "placeOrderWithSignature",
      "outputs": [],
      "stateMutability": "nonpayable",
      "type": "function"
    },
    {
      "inputs": [],
      "name": "reserve",
      "outputs": [
        {
          "internalType": "contract IEmptySetReserve",
          "name": "",
          "type": "address"
        }
      ],
      "stateMutability": "view",
      "type": "function"
    },
    {
      "inputs": [],
      "name": "verifier",
      "outputs": [
        {
          "internalType": "contract IOrderVerifier",
          "name": "",
          "type": "address"
        }
      ],
      "stateMutability": "view",
      "type": "function"
    }
  ],
  "transactionHash": "0x5ffcd5c3e0054a726907ea4e8aa72c0da4ac765116235829be16eec9674c37ea",
  "args": [
    "0x16b38364bA6f55B6E150cC7f52D22E89643f3535",
    "0x5FA881826AD000D010977645450292701bc2f56D",
    "0x841d7C994aC0Bb17CcD65a021E686e3cFafE2118",
    "0x32F3aB7b3c5BBa0738b72FdB83FcE6bb1a1a943c",
    "0x04e570a5Ef49b3Dc79a01A9552B803110a3F5e6b"
  ],
  "numDeployments": 1,
  "solcInputHash": "08e85383631ef4a06416ac5e831b0baf",
  "bytecode": "0x60e0346200010857601f620036ef38819003918201601f19168301916001600160401b038311848410176200010c5780849260a09460405283398101031262000108576200004d8162000120565b906200005c6020820162000120565b60408201516001600160a01b039390919084831683036200010857606084015193858516809503620001085760800151948516809503620001085760805260a05260c05260018060a01b03199081600454161760045560055416176005556040516135b990816200013682396080518181816110d501526128aa015260a05181818161106601528181611793015261290e015260c05181818161097b01528181611849015261282f0152f35b5f80fd5b634e487b7160e01b5f52604160045260245ffd5b51906001600160a01b0382168203620001085756fe6080806040526004361015610012575f80fd5b5f905f3560e01c90816306ae70951461198a575080631f7a92b21461168f57806323a985fc146114f15780632b7ac3f31461149f57806332878cc91461142e5780636a206137146113e55780636a5a6be41461118757806378fab5c71461114d578063872053a6146110f957806389a302711461108a578063a2060bcf1461101b578063aba30dfa14610fe1578063b20caf4514610f70578063b662d3ab1461099f578063cd3293de14610930578063dd02df16146108c7578063f0773700146108955763fe0e55de146100e4575f80fd5b34610892576100f236611ad4565b6100ff8183859495611d43565b9190911561086857610116608083015185856122fe565b73ffffffffffffffffffffffffffffffffffffffff83163b1561064f57846040517f6a256b2900000000000000000000000000000000000000000000000000000000815273ffffffffffffffffffffffffffffffffffffffff8616600482015281816024818373ffffffffffffffffffffffffffffffffffffffff8a165af1801561065357610854575b50506040517f6e19368000000000000000000000000000000000000000000000000000000000815273ffffffffffffffffffffffffffffffffffffffff851660048201526101808160248173ffffffffffffffffffffffffffffffffffffffff88165afa908115610849578691610747575b50604051907f55f5751000000000000000000000000000000000000000000000000000000000825273ffffffffffffffffffffffffffffffffffffffff8616600483015260808260248173ffffffffffffffffffffffffffffffffffffffff89165afa91821561073c57879261070b575b50805182526102956020830151613268565b6102a26060830151613268565b6102af6080840151613268565b9089821281838103128116908284810313901516176106de578181038282038401128a84129080158216911516176106de57906102ee929103016132c3565b906102fc6040840151613268565b61030960a0830151613268565b61031660c0840151613268565b908a821281838103128116908284810313901516176106b1578181038282038401128b84129080158216911516176106b15790610355929103016132c3565b906103636060850151613268565b9061037f61010061037760e0840151613268565b920151613268565b908a821281838103128116908284810313901516176106b1578181038282038401128b84129080158216911516176106b157916103c2918b9695949303016132c3565b60608401526040830152806020830152600460ff86511614610698575b50600560ff8551161461067b575b600660ff8551161461065e575b6020810151906060604082015191015173ffffffffffffffffffffffffffffffffffffffff60c0870151169173ffffffffffffffffffffffffffffffffffffffff88163b1561064f57604051937f977b1f5f00000000000000000000000000000000000000000000000000000000855273ffffffffffffffffffffffffffffffffffffffff8a1660048601526024850152604484015260648301528260848301528260a483015260c4820152818160e4818373ffffffffffffffffffffffffffffffffffffffff8a165af180156106535761063b575b50506104dd8285856127c6565b90600160a084015273ffffffffffffffffffffffffffffffffffffffff8416865260066020526040862073ffffffffffffffffffffffffffffffffffffffff86165f5260205260405f2081875260205261053a836040882061295f565b604051906105488285611b34565b61016082015273ffffffffffffffffffffffffffffffffffffffff8516907f5111ddcdf8e6b98f5a0d74f1ea4b8f9268d6d0e9c5a54e144459ed0541bc679061018073ffffffffffffffffffffffffffffffffffffffff871692a36105ab578380f35b608073ffffffffffffffffffffffffffffffffffffffff8060e07f53287d6489871e2ad186467efe70bdd15afbbd29f769f1e1c639b4d5a5d654ed9401519461062f6040518097606080918051845273ffffffffffffffffffffffffffffffffffffffff602082015116602085015260408101511515604085015201511515910152565b16941692a35f80808380f35b610644906119f4565b61064f57845f6104d0565b8480fd5b6040513d84823e3d90fd5b6106716060820151606086015190612e0e565b60608201526103fa565b61068e6040820151606086015190612e0e565b60408201526103ed565b60608501516106a691612e0e565b60208201525f6103df565b60248b7f4e487b710000000000000000000000000000000000000000000000000000000081526011600452fd5b60248a7f4e487b710000000000000000000000000000000000000000000000000000000081526011600452fd5b61072e91925060803d608011610735575b6107268183611a42565b81019061278a565b905f610283565b503d61071c565b6040513d89823e3d90fd5b9050610180813d61018011610841575b816107656101809383611a42565b8101031261083d57604051908161018081011067ffffffffffffffff61018084011117610810576101808201604052805182526020810151602083015260408101516040830152606081015160608301526080810151608083015260a081015160a083015260c081015160c083015260e081015160e083015261010080820151908301526101208082015190830152610140808201519083015261016080910151908201525f610212565b7f4e487b71000000000000000000000000000000000000000000000000000000005f52604160045260245ffd5b8580fd5b3d9150610757565b6040513d88823e3d90fd5b61085d906119f4565b61064f57845f6101a0565b60046040517f8013a216000000000000000000000000000000000000000000000000000000008152fd5b80fd5b5034610892576101806108b06108aa36611ad4565b91611d43565b6108bd6040518093611b34565b1515610160820152f35b5034610892576109216040610160926108df36611ad4565b916108e8611c62565b5073ffffffffffffffffffffffffffffffffffffffff8091168452600660205284842091165f52602052825f20908252602052206120b2565b61092e6040518092611b34565bf35b503461089257807ffffffffffffffffffffffffffffffffffffffffffffffffffffffffffffffffc36011261089257602060405173ffffffffffffffffffffffffffffffffffffffff7f0000000000000000000000000000000000000000000000000000000000000000168152f35b5034610892576102a07ffffffffffffffffffffffffffffffffffffffffffffffffffffffffffffffffc360112610892576102807ffffffffffffffffffffffffffffffffffffffffffffffffffffffffffffffffc360112610892576102843567ffffffffffffffff8111610f6c57610a1c903690600401611a83565b9073ffffffffffffffffffffffffffffffffffffffff6005541691823b15610f68576040517f1f55630a00000000000000000000000000000000000000000000000000000000815260ff6004351660043503610f225760ff6004351660048201526024355f0b60243503610f22576024355f0b602482015260443560448201526064356064820152608435608482015260a435151560a43503610f225760a435151560a482015273ffffffffffffffffffffffffffffffffffffffff60c4351660c43503610f225773ffffffffffffffffffffffffffffffffffffffff60c4351660c482015260e43560e482015273ffffffffffffffffffffffffffffffffffffffff61010435166101043503610f225773ffffffffffffffffffffffffffffffffffffffff61010435166101048201526101243515156101243503610f22576101243515156101248201526101443515156101443503610f225761014435151561014482015273ffffffffffffffffffffffffffffffffffffffff61016435166101643503610f225773ffffffffffffffffffffffffffffffffffffffff6101643516610164820152610184356101848201526101a4356101a48201526101c49273ffffffffffffffffffffffffffffffffffffffff84351680853503610f2257848301526101e49473ffffffffffffffffffffffffffffffffffffffff86351680873503610f2257868401526102049081359273ffffffffffffffffffffffffffffffffffffffff8416809403610f22578885610c8f8195938399849884968501526102248035908501526102448035908501526102648035908501526102a06102848501526102a4840191611bdd565b03925af1801561065357610f50575b5050610cb5610cc49235610cb0611c3e565b611edc565b6101a4359035610164356122fe565b610ccc611c3e565b73ffffffffffffffffffffffffffffffffffffffff61016435165f52600660205260405f2073ffffffffffffffffffffffffffffffffffffffff82165f5260205260405f20610184355f5260205260a0610d2860405f206120b2565b0151610f265773ffffffffffffffffffffffffffffffffffffffff61016435165f52600660205260405f2073ffffffffffffffffffffffffffffffffffffffff82165f5260205260405f20610184355f5260205260405f206101607ffffffffffffffffffffffffffffffffffffffffffffffffffffffffffffffffc360112610f2257604051610db781611a08565b6004358152602435602082015260443560408201526064356060820152608435608082015260a43560a082015260c43560c082015260807fffffffffffffffffffffffffffffffffffffffffffffffffffffffffffffff1c360112610f2257610e5091604051610e26816119d8565b60e435815261010435602082015261012435604082015261014435606082015260e083015261295f565b73ffffffffffffffffffffffffffffffffffffffff6040519160ff6004351683526024355f0b602084015260443560408401526064356060840152608435608084015260a435151560a08401528160c4351660c084015260e43560e08401528161010435166101008401526101243515156101208401526101443515156101408401526101843561016084015216907f5754f935e3165da0bd9fec6569d718ced687f59a5d19938799d1be43f3db679661018073ffffffffffffffffffffffffffffffffffffffff610164351692a380f35b5f80fd5b60046040517fd0cfc108000000000000000000000000000000000000000000000000000000008152fd5b610f59906119f4565b610f6457825f610c9e565b8280fd5b8380fd5b5080fd5b503461089257807ffffffffffffffffffffffffffffffffffffffffffffffffffffffffffffffffc36011261089257602073ffffffffffffffffffffffffffffffffffffffff7f2b50211693ec91bcfe327771928b74a8f475c508d53e86fca4153bcf0f0e87765416604051908152f35b503461089257807ffffffffffffffffffffffffffffffffffffffffffffffffffffffffffffffffc360112610892576020604051608c8152f35b503461089257807ffffffffffffffffffffffffffffffffffffffffffffffffffffffffffffffffc36011261089257602060405173ffffffffffffffffffffffffffffffffffffffff7f0000000000000000000000000000000000000000000000000000000000000000168152f35b503461089257807ffffffffffffffffffffffffffffffffffffffffffffffffffffffffffffffffc36011261089257602060405173ffffffffffffffffffffffffffffffffffffffff7f0000000000000000000000000000000000000000000000000000000000000000168152f35b503461089257807ffffffffffffffffffffffffffffffffffffffffffffffffffffffffffffffffc360112610892576080905460015460025460035491604051938452602084015260408301526060820152f35b503461089257807ffffffffffffffffffffffffffffffffffffffffffffffffffffffffffffffffc36011261089257602060405160108152f35b5034610892576101a07ffffffffffffffffffffffffffffffffffffffffffffffffffffffffffffffffc360112610892576111c0611ab1565b6101607fffffffffffffffffffffffffffffffffffffffffffffffffffffffffffffffbc360112610f6c5773ffffffffffffffffffffffffffffffffffffffff8082165f52600660205260405f20335f5260205260405f206024355f5260205260a061122e60405f206120b2565b0151610f26578082165f52600660205260405f20335f5260205260405f206024355f5260205260405f206040519061126582611a08565b6044359260ff84168403610f225783835260643592835f0b8403610f2257836020820152608435604082015260a435606082015260c435608082015260e435908115158203610f22578160a0820152610104358381168103610f22578060c083015260807ffffffffffffffffffffffffffffffffffffffffffffffffffffffffffffffedc360112610f2257604051946112fe866119d8565b61012435865261014435918583168303610f225782602088015261016435948515158603610f22578560408901526101843515156101843503610f22577f5754f935e3165da0bd9fec6569d718ced687f59a5d19938799d1be43f3db67969861137b889687956101809b61018435606082015260e083015261295f565b60ff6040519b168b525f0b60208b015260843560408b015260a43560608b015260c43560808b0152151560a08a01521660c08801526101243560e088015216610100860152151561012085015261018435151561014085015260243561016085015233941692a380f35b50346108925760407ffffffffffffffffffffffffffffffffffffffffffffffffffffffffffffffffc3601126108925761142b611420611ab1565b602435903390611fcc565b80f35b503461089257807ffffffffffffffffffffffffffffffffffffffffffffffffffffffffffffffffc3601126108925760207f5b5cbfa852c5bd03e540eba853f8faf28a604a4d82bee1091096bfaea14d08c35473ffffffffffffffffffffffffffffffffffffffff60405191168152f35b503461089257807ffffffffffffffffffffffffffffffffffffffffffffffffffffffffffffffffc36011261089257602073ffffffffffffffffffffffffffffffffffffffff60055416604051908152f35b5034610f225761014090367ffffffffffffffffffffffffffffffffffffffffffffffffffffffffffffffffc01828112610f225761012013610f225761012491823567ffffffffffffffff8111610f2257611550903690600401611a83565b73ffffffffffffffffffffffffffffffffffffffff92836005541693843b15610f2257604051907f4ddd9dfc00000000000000000000000000000000000000000000000000000000825260043594818616808703610f22576004840152602435968760248501526044359586604486015260643595848716808803610f225760648701526084359b858d16808e03610f2257608488015260a435958616809603610f225761162e879586945f989486948a9660a487015260c43560c487015260e43560e4870152610104803590870152850152610144840191611bdd565b03925af1801561168457611667575b50906116599161165361142b9697610cb0611c1b565b836122fe565b611661611c1b565b90611fcc565b61142b95509061167a61165993926119f4565b5f9550909161163d565b6040513d5f823e3d90fd5b34610f225760a07ffffffffffffffffffffffffffffffffffffffffffffffffffffffffffffffffc360112610f225760043573ffffffffffffffffffffffffffffffffffffffff808216809203610f225760807fffffffffffffffffffffffffffffffffffffffffffffffffffffffffffffffdc360112610f225760405190611717826119d8565b602435825260209182810190604435825260408101926064358452606082019560843587526001947f6fee9688c285c5c5c97d6a1a29adced674e6b2ad0888b8ad2116b58a8b3ea2488681541015611959578690557f2801b00eb06461cf9fcb9758b5fafd884ff06a86177386f73b6c49f0bf5a5af0978689557f000000000000000000000000000000000000000000000000000000000000000091303b151580611952575b611928575f9689966044957f2b50211693ec91bcfe327771928b74a8f475c508d53e86fca4153bcf0f0e877655847f5b5cbfa852c5bd03e540eba853f8faf28a604a4d82bee1091096bfaea14d08c355518855518855516002555160035560405194859384927f095ea7b3000000000000000000000000000000000000000000000000000000008452817f00000000000000000000000000000000000000000000000000000000000000001660048501527fffffffffffffffffffffffffffffffffffffffffffffffffffffffffffffffff6024850152165af18015611684576118d0575b505f7fbe9b076dc5b65990cca9dd9d7366682482e7817a6f6bc7f4faf4dc32af497f329355604051908152a1005b8281813d8311611921575b6118e58183611a42565b81010312610f22577fbe9b076dc5b65990cca9dd9d7366682482e7817a6f6bc7f4faf4dc32af497f32936119195f92611ceb565b5093506118a2565b503d6118db565b60046040517fb9a621e1000000000000000000000000000000000000000000000000000000008152fd5b505f6117bd565b602487604051907f3db738da0000000000000000000000000000000000000000000000000000000082526004820152fd5b34610f22575f7ffffffffffffffffffffffffffffffffffffffffffffffffffffffffffffffffc360112610f225760209073ffffffffffffffffffffffffffffffffffffffff600454168152f35b6080810190811067ffffffffffffffff82111761081057604052565b67ffffffffffffffff811161081057604052565b610100810190811067ffffffffffffffff82111761081057604052565b6101a0810190811067ffffffffffffffff82111761081057604052565b90601f7fffffffffffffffffffffffffffffffffffffffffffffffffffffffffffffffe0910116810190811067ffffffffffffffff82111761081057604052565b9181601f84011215610f225782359167ffffffffffffffff8311610f225760208381860195010111610f2257565b6004359073ffffffffffffffffffffffffffffffffffffffff82168203610f2257565b7ffffffffffffffffffffffffffffffffffffffffffffffffffffffffffffffffc6060910112610f225773ffffffffffffffffffffffffffffffffffffffff906004358281168103610f2257916024359081168103610f22579060443590565b9060e080611bdb9360ff815116845260208101515f0b602085015260408101516040850152606081015160608501526080810151608085015260a0810151151560a085015273ffffffffffffffffffffffffffffffffffffffff60c08201511660c08501520151910190606080918051845273ffffffffffffffffffffffffffffffffffffffff602082015116602085015260408101511515604085015201511515910152565b565b601f82602094937fffffffffffffffffffffffffffffffffffffffffffffffffffffffffffffffe093818652868601375f8582860101520116010190565b60643573ffffffffffffffffffffffffffffffffffffffff81168103610f225790565b6101c43573ffffffffffffffffffffffffffffffffffffffff81168103610f225790565b60405190611c6f82611a08565b815f81525f60208201525f60408201525f60608201525f60808201525f60a08201525f60c082015260e060405191611ca6836119d8565b5f83525f60208401525f60408401525f60608401520152565b90816020910312610f22575173ffffffffffffffffffffffffffffffffffffffff81168103610f225790565b51908115158203610f2257565b90816060910312610f2257604051906060820182811067ffffffffffffffff82111761081057611d3b916040918252805184526020810151602085015201611ceb565b604082015290565b929192611d4e611c62565b5073ffffffffffffffffffffffffffffffffffffffff80911693845f526020906006825260409383855f2091165f528252835f20905f528152611d92835f206120b2565b9460a086015115801590611ecd575b611ea457816004918551928380927f7dc0d1d00000000000000000000000000000000000000000000000000000000082525afa918215611e9a5790606092915f92611e6d575b505060048451809481937f52bfe789000000000000000000000000000000000000000000000000000000008352165afa918215611e64575090611e32915f91611e35575b5083612268565b90565b611e57915060603d606011611e5d575b611e4f8183611a42565b810190611cf8565b5f611e2b565b503d611e45565b513d5f823e3d90fd5b611e8c9250803d10611e93575b611e848183611a42565b810190611cbf565b5f80611de7565b503d611e7a565b84513d5f823e3d90fd5b600484517fd0cfc108000000000000000000000000000000000000000000000000000000008152fd5b50611ed786612226565b611da1565b73ffffffffffffffffffffffffffffffffffffffff80809316911690808214159283611f36575b505050611f0c57565b60046040517f6673613b000000000000000000000000000000000000000000000000000000008152fd5b6020929350604490600454169360405194859384927fbd9ee66b000000000000000000000000000000000000000000000000000000008452600484015260248301525afa908115611684575f91611f92575b50155f8080611f03565b90506020813d602011611fc4575b81611fad60209383611a42565b81010312610f2257611fbe90611ceb565b5f611f88565b3d9150611fa0565b91909173ffffffffffffffffffffffffffffffffffffffff80911691825f5260209160068352604090815f20951694855f528352805f20825f528352612013815f206120b2565b61201c81612226565b80156120a5575b61207c579061207582600160a07fa7e8b7ad64b09d9d45f4ad65f9fd654f99b90f9ce66bb414f72a9f69ba03db329796950152865f5260068552825f20885f528552825f20845f528552825f2061295f565b51908152a3565b600482517f955cc4b9000000000000000000000000000000000000000000000000000000008152fd5b5060a08101511515612023565b6120ba611c62565b50604090600260a060808451936120d085611a25565b80549060ff8216968787528260081c5f0b8060208901526101808460101c60070b9384848b01528560501c60070b958660608c01527fffffffffff00000000000000000000000000000000000000000000000000000067ffffffffffffffff918c838260901c169a8b9101528c60ff8260d01c1615159b8c9101521660c08c01526001820154998a928c6101007fffffffffffffffffffffffff000000000000000000000000000000000000000073ffffffffffffffffffffffffffffffffffffffff8097169e8f60e085015216910152015491821690816101208d01528260a01c169a8b61014082015260ff808460e01c161515938461016084015260e81c161515938491015284519a6121e48c6119d8565b8b5260208b0152838a015260608901528151986122008a611a08565b895260208901528701526060860152608085015260a084015260c083015260e082015290565b60ff815116159081612259575b8161224c575b81612242575090565b6060915001511590565b6040810151159150612239565b60208101515f0b159150612233565b6040820151156122f85760208101515f0b600181146122d5577fffffffffffffffffffffffffffffffffffffffffffffffffffffffffffffffff146122ad5750505f90565b604060206122c093015191015190613437565b80159081156122cd575090565b600191501490565b50604060206122e993015191015190613437565b600281149081156122cd575090565b50505f90565b90916040918251906020948583019273ffffffffffffffffffffffffffffffffffffffff809316845282868201921682526060810194855260608152612343816119d8565b855161234e816119d8565b5f548152600154958882019687526002549588830196875260035492606081019384528951908b820182811067ffffffffffffffff82111761081057805f918d528184525251985198156001171561275d576123bf98670de0b6b3a7640000998a916123ba4891612f7f565b612f9c565b04975193519051608c810180911161275d576004947f0fffffffffffffffffffffffffffffffffffffffffffffffffffffffffffffff8216820361269b578b51917ff5d6ded70000000000000000000000000000000000000000000000000000000083528d838881606c5afa92831561275357908c9392915f9361271d575b50936124618461245a6123ba946123ba61246798998d1b612f7f565b0491612f7f565b90613244565b04976124738989613244565b8460a0897f2b50211693ec91bcfe327771928b74a8f475c508d53e86fca4153bcf0f0e877654168d51928380927ffeaf968c0000000000000000000000000000000000000000000000000000000082525afa908115612713575f916126c7575b508281029080820584149015171561269b576305f5e1009005905f821261266c576060929161250191612f9c565b0494805181010312610f225751938585168503610f225751948516809503610f22575191806125c557505061254e9291612549915f905b808210156125bb5750928391612faf565b613066565b9261257c847f5b5cbfa852c5bd03e540eba853f8faf28a604a4d82bee1091096bfaea14d08c3543390613080565b5f815195818752860152840152606083015260808201527ffa0333956d06e335c550bd5fc4ac9c003c6545e371331b1071fa4d5d8519d6c160a03392a2565b9050928391612faf565b7fffffffffffffffffffffffffffffffffffffffffffffffffffffffffffffffff81019081116126405764e8d4a51000900490600182018092116126145750916125499161254e949390612538565b6011907f4e487b71000000000000000000000000000000000000000000000000000000005f525260245ffd5b6011827f4e487b71000000000000000000000000000000000000000000000000000000005f525260245ffd5b602486838e51917f501f289e000000000000000000000000000000000000000000000000000000008352820152fd5b6011867f4e487b71000000000000000000000000000000000000000000000000000000005f525260245ffd5b905060a0813d60a01161270b575b816126e260a09383611a42565b81010312610f225761270460808e6126f984613251565b508301519201613251565b505f6124d3565b3d91506126d5565b8c513d5f823e3d90fd5b935091508d83813d811161274c575b6127368183611a42565b81010312610f225791518b92909161246161243e565b503d61272c565b8d513d5f823e3d90fd5b7f4e487b71000000000000000000000000000000000000000000000000000000005f52601160045260245ffd5b90816080910312610f22576060604051916127a4836119d8565b8051835260208101516020840152604081015160408401520151606082015290565b9160e08101928351918251156129565781849160406127f795015115155f1461293257505050835151928391612faf565b81516060810151156128e2575061282c60209273ffffffffffffffffffffffffffffffffffffffff9384915101511691613066565b917f00000000000000000000000000000000000000000000000000000000000000001691823b15610f22575f80936024604051809681937fdb006a750000000000000000000000000000000000000000000000000000000083528660048401525af1908115611684576128ce9364e8d4a51000926128d3575b5004907f0000000000000000000000000000000000000000000000000000000000000000613080565b600190565b6128dc906119f4565b5f6128a5565b6128ce925073ffffffffffffffffffffffffffffffffffffffff602061290b9201511691613066565b907f0000000000000000000000000000000000000000000000000000000000000000613080565b620f42409261294d9261294492612e4c565b86515190612f9c565b04928391612faf565b50505050505f90565b91909160ff835116600381119081612e03575b5080612dbf575b15612d955760409081840193600261299186516133de565b14612d6c576129a08551613404565b15612d6c57606081019160026129b684516133de565b14612d43576129c58351613404565b15612d4357608082019560026129db8851613448565b14612d1a5760e083019060026129f2835151613448565b14612cf157859697845160ff16916020860151905196519151968367ffffffffffffffff9860a089015115159373ffffffffffffffffffffffffffffffffffffffff60c0819b01511697519a8b9a60208c0151169d8e918c519e8f9d015115159d6060015115159c8d93835193612a6885611a25565b888552865f0b60208601528960070b908501528a60070b606085015282871660808501528960a085015260c084015f90528c60e085015261010084015f9052610120840152166101408201528c6101608201526101800152885490837fffffffffffffffffffffffffffffffffffffffffffffffffffffffffffffff008316178a5560081b9161ff00928084169586867fffffffffffffffffffffffffffffffffffffffffffffffffffffffffffff0000861617178c5560101b9369ffffffffffffffff000098858a168098887fffffffffffffffffffffffffffffffffffffffffffff0000000000000000000088161717178d5560501b91169371ffffffffffffffff00000000000000000000928284168098887fffffffffffffffffffffffffffff000000000000000000000000000000000000881617881717178d5560901b79ffffffffffffffff000000000000000000000000000000000000169889911696867fffffffffffff00000000000000000000000000000000000000000000000000008616178617881717178b55169460d01b7aff000000000000000000000000000000000000000000000000000016967fffffffffff0000000000000000000000000000000000000000000000000000008892161782178417851786171788551717171717825560018201556002019384549160e81b7dff0000000000000000000000000000000000000000000000000000000000169360a01b7bffffffffffffffff000000000000000000000000000000000000000016917fffff0000000000000000000000000000000000000000000000000000000000001617179060e01b7cff000000000000000000000000000000000000000000000000000000001617179055565b600486517ff3469aa7000000000000000000000000000000000000000000000000000000008152fd5b600485517ff3469aa7000000000000000000000000000000000000000000000000000000008152fd5b600484517ff3469aa7000000000000000000000000000000000000000000000000000000008152fd5b600483517ff3469aa7000000000000000000000000000000000000000000000000000000008152fd5b60046040517f5b8c7e99000000000000000000000000000000000000000000000000000000008152fd5b5060208301515f0b7fffffffffffffffffffffffffffffffffffffffffffffffffffffffffffffffff8114908115612df8575b50612979565b60019150145f612df2565b60079150105f612972565b6001612e1983613404565b03612e245750505f90565b612e2d90613268565b5f828201928312911290801582169115161761275d57611e32906132c3565b73ffffffffffffffffffffffffffffffffffffffff926040517f7dc0d1d00000000000000000000000000000000000000000000000000000000081526020816004818888165afa8015611684576060915f91612f60575b506004604051809781937f52bfe789000000000000000000000000000000000000000000000000000000008352165afa93841561168457620f4240946020915f91612f41575b5001515f8112612f3957915b60608101516001612f0582613404565b03612f225750926123ba9160ff612f1e955116916132fe565b0490565b612f1e94509150505f811215612f9c575f03612f9c565b5f0391612ef5565b612f5a915060603d606011611e5d57611e4f8183611a42565b5f612ee9565b612f79915060203d602011611e9357611e848183611a42565b5f612ea3565b90670de0b6b3a76400009182810292818404149015171561275d57565b8181029291811591840414171561275d57565b612fd073ffffffffffffffffffffffffffffffffffffffff80921693613268565b92803b15610f22575f928360c49260405196879586947f91eece280000000000000000000000000000000000000000000000000000000086521660048501527fffffffffffffffffffffffffffffffffffffffffffffffffffffffffffffffff8060248601528060448601526064850152820360848401528160a48401525af180156116845761305d5750565b611bdb906119f4565b64e8d4a510009081810291818304149015171561275d5790565b9173ffffffffffffffffffffffffffffffffffffffff80931690604092835191602095868401927fa9059cbb0000000000000000000000000000000000000000000000000000000084521660248401526044830152604482526130e2826119d8565b83519184830167ffffffffffffffff9284821084831117610810575f92839288528886527f5361666545524332303a206c6f772d6c6576656c2063616c6c206661696c656489870152519082875af13d15613237573d9182116108105761318493855192613177887fffffffffffffffffffffffffffffffffffffffffffffffffffffffffffffffe0601f8401160185611a42565b83523d5f8885013e613463565b805180613192575b50505050565b81849181010312610f2257826131a89101611ceb565b156131b457808061318c565b6084925051907f08c379a00000000000000000000000000000000000000000000000000000000082526004820152602a60248201527f5361666545524332303a204552433230206f7065726174696f6e20646964206e60448201527f6f742073756363656564000000000000000000000000000000000000000000006064820152fd5b6131849360609250613463565b9190820180921161275d57565b519069ffffffffffffffffffff82168203610f2257565b7f7fffffffffffffffffffffffffffffffffffffffffffffffffffffffffffffff81116132925790565b602490604051907feecaa25d0000000000000000000000000000000000000000000000000000000082526004820152fd5b5f81126132cd5790565b602490604051907fb02ef0870000000000000000000000000000000000000000000000000000000082526004820152fd5b9190608090602473ffffffffffffffffffffffffffffffffffffffff918260405196879485937f55f57510000000000000000000000000000000000000000000000000000000008552166004840152165afa918215611684575f926133ba575b5060ff166004810361337257506020015190565b6005810361338257506040015190565b6006146133b35760046040517f5b8c7e99000000000000000000000000000000000000000000000000000000008152fd5b6060015190565b60ff9192506133d79060803d608011610735576107268183611a42565b919061335e565b677fffffffffffffff908181136133fd57126133f957600190565b5f90565b5050600290565b7fffffffffffffffffffffffffffffffffffffffffffffffff8000000000000000908181136133fd57126133f957600190565b8181136133fd57126133f957600190565b67ffffffffffffffff908181116133fd57106133f957600190565b919290156134de5750815115613477575090565b3b156134805790565b60646040517f08c379a000000000000000000000000000000000000000000000000000000000815260206004820152601d60248201527f416464726573733a2063616c6c20746f206e6f6e2d636f6e74726163740000006044820152fd5b8251909150156134f15750805190602001fd5b604051907f08c379a00000000000000000000000000000000000000000000000000000000082528160208060048301528251928360248401525f5b84811061356c575050507fffffffffffffffffffffffffffffffffffffffffffffffffffffffffffffffe0601f835f604480968601015201168101030190fd5b81810183015186820160440152859350820161352c56fea26469706673582212206a59a3a5bd6b1c57662803950a4ef705908dc7eef2f4b46f877d4de286995d7964736f6c63430008180033",
  "devdoc": {
    "errors": {
      "ManagerCannotCancelError()": [
        {
          "custom:error": "Order does not exist or was already cancelled or executed"
        }
      ],
      "ManagerCannotExecuteError()": [
        {
          "custom:error": "Conditions required for order execution are not currently met"
        }
      ],
      "ManagerInvalidOrderNonceError()": [
        {
          "custom:error": "Order nonce has already been used"
        }
      ],
      "ManagerInvalidSignerError()": [
        {
          "custom:error": "Signer is not authorized to interact with markets for the specified user"
        }
      ],
      "TriggerOrderInvalidError()": [
        {
          "custom:error": "side or comparison is not supported"
        }
      ],
      "TriggerOrderStorageInvalidError()": [
        {
          "custom:error": "price, delta, maxFee, or interface fee amount is out-of-bounds"
        }
      ]
    },
    "events": {
      "TriggerOrderCancelled(address,address,uint256)": {
        "params": {
          "account": "Actor whose order was cancelled",
          "market": "Perennial market for which the order was intended",
          "orderId": "Uniquely identifies the cancelled order"
        }
      },
      "TriggerOrderExecuted(address,address,(uint8,int8,int256,int256,uint256,bool,address,(uint256,address,bool,bool)),uint256)": {
        "params": {
          "account": "Actor whose position was changed",
          "market": "Perennial market which the order affected",
          "order": "Change in position and conditions which were satisfied",
          "orderId": "Uniquely identifies the executed order"
        }
      },
      "TriggerOrderInterfaceFeeCharged(address,address,(uint256,address,bool,bool))": {
        "params": {
          "account": "Actor who paid the fee",
          "fee": "Details including the fee amount and recipient of the fee",
          "market": "Perennial market from which the fee was pulled"
        }
      },
      "TriggerOrderPlaced(address,address,(uint8,int8,int256,int256,uint256,bool,address,(uint256,address,bool,bool)),uint256)": {
        "params": {
          "account": "Actor who wants to change their position in the market",
          "market": "Perennial market for which the order is intended",
          "order": "Desired change in position and conditions upon which change may be made",
          "orderId": "Client-supplied order identifier, unique to client"
        }
      }
    },
    "kind": "dev",
    "methods": {
      "cancelOrder(address,uint256)": {
        "params": {
          "market": "Perennial market for which the order was submitted",
          "orderId": "Uniquely identifies the order to cancel"
        }
      },
      "cancelOrderWithSignature(((address,uint256,uint256,(address,address,address,uint256,uint256,uint256))),bytes)": {
        "params": {
          "request": "Message containing the market, order, and nonce used to uniquely identify the order to cancel",
          "signature": "EIP712 message signature"
        }
      },
      "checkOrder(address,address,uint256)": {
        "params": {
          "account": "Actor whose position is to be changed",
          "market": "Perennial market for which the order is intended",
          "orderId": "Uniquely identifies the order for an account"
        },
        "returns": {
          "canExecute": "True if trigger conditions have been met and executeOrder may be called on the order",
          "order": "Trigger order read from storage"
        }
      },
      "constructor": {
        "details": "passthrough constructor"
      },
      "executeOrder(address,address,uint256)": {
        "params": {
          "account": "Actor whose position is to be changed",
          "market": "Perennial market for which the order is intended",
          "orderId": "Uniquely identifies the order for an account"
        }
      },
      "initialize(address,(uint256,uint256,uint256,uint256))": {
        "params": {
          "ethOracle_": "Chainlink ETH/USD oracle used for keeper compensation",
          "keepConfig_": "Keeper compensation configuration"
        }
      },
      "orders(address,address,uint256)": {
        "params": {
          "account": "User for whom the order was submitted",
          "market": "Perennial market for which the order was submitted",
          "orderId": "Uniquely identifies the order for a user"
        }
      },
      "placeOrder(address,uint256,(uint8,int8,int256,int256,uint256,bool,address,(uint256,address,bool,bool)))": {
        "params": {
          "market": "Perennial market in which user wants to change their position",
          "order": "Desired change in position and conditions upon which change may be made",
          "orderId": "Client-specific order identifier"
        }
      },
      "placeOrderWithSignature(((uint8,int8,int256,int256,uint256,bool,address,(uint256,address,bool,bool)),(address,uint256,uint256,(address,address,address,uint256,uint256,uint256))),bytes)": {
        "params": {
          "request": "Message containing the market, order, and nonce used to uniquely identify the user's order.",
          "signature": "EIP712 message signature"
        }
      }
    },
    "version": 1
  },
  "userdoc": {
    "events": {
      "TriggerOrderCancelled(address,address,uint256)": {
        "notice": "Emitted when an order has been cancelled"
      },
      "TriggerOrderExecuted(address,address,(uint8,int8,int256,int256,uint256,bool,address,(uint256,address,bool,bool)),uint256)": {
        "notice": "Emitted when a trigger orders conditions have been met and the user's position has been updated"
      },
      "TriggerOrderInterfaceFeeCharged(address,address,(uint256,address,bool,bool))": {
        "notice": "Emitted when an interface fee specified on a trigger order has been paid"
      },
      "TriggerOrderPlaced(address,address,(uint8,int8,int256,int256,uint256,bool,address,(uint256,address,bool,bool)),uint256)": {
        "notice": "Emitted when a trigger order is written to storage, whether as a new order or a replacement"
      }
    },
    "kind": "user",
    "methods": {
      "cancelOrder(address,uint256)": {
        "notice": "Cancels a trigger order"
      },
      "cancelOrderWithSignature(((address,uint256,uint256,(address,address,address,uint256,uint256,uint256))),bytes)": {
        "notice": "Called by keeper to cancel a trigger order via a signed message"
      },
      "checkOrder(address,address,uint256)": {
        "notice": "Determines whether trigger conditions for an order have been met"
      },
      "executeOrder(address,address,uint256)": {
        "notice": "Called by keeper to execute an order whose trigger conditions have been met"
      },
      "initialize(address,(uint256,uint256,uint256,uint256))": {
        "notice": "Initialize the contract"
      },
      "orders(address,address,uint256)": {
        "notice": "Retrieves an unexecuted trigger order"
      },
      "placeOrder(address,uint256,(uint8,int8,int256,int256,uint256,bool,address,(uint256,address,bool,bool)))": {
        "notice": "Store a new trigger order or replace an existing trigger order"
      },
      "placeOrderWithSignature(((uint8,int8,int256,int256,uint256,bool,address,(uint256,address,bool,bool)),(address,uint256,uint256,(address,address,address,uint256,uint256,uint256))),bytes)": {
        "notice": "Called by keeper to store a new or replace an existing trigger order via a signed message"
      }
    },
    "version": 1
  },
  "storageLayout": {
    "storage": [
      {
        "astId": 12046,
        "contract": "@equilibria/perennial-v2-order/contracts/Manager_Arbitrum.sol:Manager_Arbitrum",
        "label": "keepConfig",
        "offset": 0,
        "slot": "0",
        "type": "t_struct(KeepConfig)39301_storage"
      },
      {
        "astId": 12050,
        "contract": "@equilibria/perennial-v2-order/contracts/Manager_Arbitrum.sol:Manager_Arbitrum",
        "label": "marketFactory",
        "offset": 0,
        "slot": "4",
        "type": "t_contract(IMarketFactory)23770"
      },
      {
        "astId": 12054,
        "contract": "@equilibria/perennial-v2-order/contracts/Manager_Arbitrum.sol:Manager_Arbitrum",
        "label": "verifier",
        "offset": 0,
        "slot": "5",
        "type": "t_contract(IOrderVerifier)13226"
      },
      {
        "astId": 12065,
        "contract": "@equilibria/perennial-v2-order/contracts/Manager_Arbitrum.sol:Manager_Arbitrum",
        "label": "_orders",
        "offset": 0,
        "slot": "6",
        "type": "t_mapping(t_contract(IMarket)23543,t_mapping(t_address,t_mapping(t_uint256,t_struct(TriggerOrderStorage)13905_storage)))"
      }
    ],
    "types": {
      "t_address": {
        "encoding": "inplace",
        "label": "address",
        "numberOfBytes": "20"
      },
      "t_bool": {
        "encoding": "inplace",
        "label": "bool",
        "numberOfBytes": "1"
      },
      "t_bytes12": {
        "encoding": "inplace",
        "label": "bytes12",
        "numberOfBytes": "12"
      },
      "t_bytes5": {
        "encoding": "inplace",
        "label": "bytes5",
        "numberOfBytes": "5"
      },
      "t_contract(IMarket)23543": {
        "encoding": "inplace",
        "label": "contract IMarket",
        "numberOfBytes": "20"
      },
      "t_contract(IMarketFactory)23770": {
        "encoding": "inplace",
        "label": "contract IMarketFactory",
        "numberOfBytes": "20"
      },
      "t_contract(IOrderVerifier)13226": {
        "encoding": "inplace",
        "label": "contract IOrderVerifier",
        "numberOfBytes": "20"
      },
      "t_int64": {
        "encoding": "inplace",
        "label": "int64",
        "numberOfBytes": "8"
      },
      "t_int8": {
        "encoding": "inplace",
        "label": "int8",
        "numberOfBytes": "1"
      },
      "t_mapping(t_address,t_mapping(t_uint256,t_struct(TriggerOrderStorage)13905_storage))": {
        "encoding": "mapping",
        "key": "t_address",
        "label": "mapping(address => mapping(uint256 => struct TriggerOrderStorage))",
        "numberOfBytes": "32",
        "value": "t_mapping(t_uint256,t_struct(TriggerOrderStorage)13905_storage)"
      },
      "t_mapping(t_contract(IMarket)23543,t_mapping(t_address,t_mapping(t_uint256,t_struct(TriggerOrderStorage)13905_storage)))": {
        "encoding": "mapping",
        "key": "t_contract(IMarket)23543",
        "label": "mapping(contract IMarket => mapping(address => mapping(uint256 => struct TriggerOrderStorage)))",
        "numberOfBytes": "32",
        "value": "t_mapping(t_address,t_mapping(t_uint256,t_struct(TriggerOrderStorage)13905_storage))"
      },
      "t_mapping(t_uint256,t_struct(TriggerOrderStorage)13905_storage)": {
        "encoding": "mapping",
        "key": "t_uint256",
        "label": "mapping(uint256 => struct TriggerOrderStorage)",
        "numberOfBytes": "32",
        "value": "t_struct(TriggerOrderStorage)13905_storage"
      },
      "t_struct(KeepConfig)39301_storage": {
        "encoding": "inplace",
        "label": "struct IKept.KeepConfig",
        "members": [
          {
            "astId": 39293,
            "contract": "@equilibria/perennial-v2-order/contracts/Manager_Arbitrum.sol:Manager_Arbitrum",
            "label": "multiplierBase",
            "offset": 0,
            "slot": "0",
            "type": "t_userDefinedValueType(UFixed18)41806"
          },
          {
            "astId": 39295,
            "contract": "@equilibria/perennial-v2-order/contracts/Manager_Arbitrum.sol:Manager_Arbitrum",
            "label": "bufferBase",
            "offset": 0,
            "slot": "1",
            "type": "t_uint256"
          },
          {
            "astId": 39298,
            "contract": "@equilibria/perennial-v2-order/contracts/Manager_Arbitrum.sol:Manager_Arbitrum",
            "label": "multiplierCalldata",
            "offset": 0,
            "slot": "2",
            "type": "t_userDefinedValueType(UFixed18)41806"
          },
          {
            "astId": 39300,
            "contract": "@equilibria/perennial-v2-order/contracts/Manager_Arbitrum.sol:Manager_Arbitrum",
            "label": "bufferCalldata",
            "offset": 0,
            "slot": "3",
            "type": "t_uint256"
          }
        ],
        "numberOfBytes": "128"
      },
      "t_struct(StoredTriggerOrder)13901_storage": {
        "encoding": "inplace",
        "label": "struct StoredTriggerOrder",
        "members": [
          {
            "astId": 13876,
            "contract": "@equilibria/perennial-v2-order/contracts/Manager_Arbitrum.sol:Manager_Arbitrum",
            "label": "side",
            "offset": 0,
            "slot": "0",
            "type": "t_uint8"
          },
          {
            "astId": 13878,
            "contract": "@equilibria/perennial-v2-order/contracts/Manager_Arbitrum.sol:Manager_Arbitrum",
            "label": "comparison",
            "offset": 1,
            "slot": "0",
            "type": "t_int8"
          },
          {
            "astId": 13880,
            "contract": "@equilibria/perennial-v2-order/contracts/Manager_Arbitrum.sol:Manager_Arbitrum",
            "label": "price",
            "offset": 2,
            "slot": "0",
            "type": "t_int64"
          },
          {
            "astId": 13882,
            "contract": "@equilibria/perennial-v2-order/contracts/Manager_Arbitrum.sol:Manager_Arbitrum",
            "label": "delta",
            "offset": 10,
            "slot": "0",
            "type": "t_int64"
          },
          {
            "astId": 13884,
            "contract": "@equilibria/perennial-v2-order/contracts/Manager_Arbitrum.sol:Manager_Arbitrum",
            "label": "maxFee",
            "offset": 18,
            "slot": "0",
            "type": "t_uint64"
          },
          {
            "astId": 13886,
            "contract": "@equilibria/perennial-v2-order/contracts/Manager_Arbitrum.sol:Manager_Arbitrum",
            "label": "isSpent",
            "offset": 26,
            "slot": "0",
            "type": "t_bool"
          },
          {
            "astId": 13888,
            "contract": "@equilibria/perennial-v2-order/contracts/Manager_Arbitrum.sol:Manager_Arbitrum",
            "label": "__unallocated0__",
            "offset": 27,
            "slot": "0",
            "type": "t_bytes5"
          },
          {
            "astId": 13890,
            "contract": "@equilibria/perennial-v2-order/contracts/Manager_Arbitrum.sol:Manager_Arbitrum",
            "label": "referrer",
            "offset": 0,
            "slot": "1",
            "type": "t_address"
          },
          {
            "astId": 13892,
            "contract": "@equilibria/perennial-v2-order/contracts/Manager_Arbitrum.sol:Manager_Arbitrum",
            "label": "__unallocated1__",
            "offset": 20,
            "slot": "1",
            "type": "t_bytes12"
          },
          {
            "astId": 13894,
            "contract": "@equilibria/perennial-v2-order/contracts/Manager_Arbitrum.sol:Manager_Arbitrum",
            "label": "interfaceFeeReceiver",
            "offset": 0,
            "slot": "2",
            "type": "t_address"
          },
          {
            "astId": 13896,
            "contract": "@equilibria/perennial-v2-order/contracts/Manager_Arbitrum.sol:Manager_Arbitrum",
            "label": "interfaceFeeAmount",
            "offset": 20,
            "slot": "2",
            "type": "t_uint64"
          },
          {
            "astId": 13898,
            "contract": "@equilibria/perennial-v2-order/contracts/Manager_Arbitrum.sol:Manager_Arbitrum",
            "label": "interfaceFeeFlat",
            "offset": 28,
            "slot": "2",
            "type": "t_bool"
          },
          {
            "astId": 13900,
            "contract": "@equilibria/perennial-v2-order/contracts/Manager_Arbitrum.sol:Manager_Arbitrum",
            "label": "interfaceFeeUnwrap",
            "offset": 29,
            "slot": "2",
            "type": "t_bool"
          }
        ],
        "numberOfBytes": "96"
      },
      "t_struct(TriggerOrderStorage)13905_storage": {
        "encoding": "inplace",
        "label": "struct TriggerOrderStorage",
        "members": [
          {
            "astId": 13904,
            "contract": "@equilibria/perennial-v2-order/contracts/Manager_Arbitrum.sol:Manager_Arbitrum",
            "label": "value",
            "offset": 0,
            "slot": "0",
            "type": "t_struct(StoredTriggerOrder)13901_storage"
          }
        ],
        "numberOfBytes": "96"
      },
      "t_uint256": {
        "encoding": "inplace",
        "label": "uint256",
        "numberOfBytes": "32"
      },
      "t_uint64": {
        "encoding": "inplace",
        "label": "uint64",
        "numberOfBytes": "8"
      },
      "t_uint8": {
        "encoding": "inplace",
        "label": "uint8",
        "numberOfBytes": "1"
      },
      "t_userDefinedValueType(UFixed18)41806": {
        "encoding": "inplace",
        "label": "UFixed18",
        "numberOfBytes": "32"
      }
    }
  }
}