{
  "address": "0x029c5109C25ACa9C5B4b7bc26085b9537DE22ac1",
  "abi": [
    {
      "inputs": [
        {
          "internalType": "contract IVerifier",
          "name": "verifier_",
          "type": "address"
        }
      ],
      "stateMutability": "nonpayable",
      "type": "constructor"
    },
    {
      "inputs": [],
      "name": "Adiabatic6ZeroScaleError",
      "type": "error"
    },
    {
      "inputs": [
        {
          "internalType": "uint256",
          "name": "value",
          "type": "uint256"
        }
      ],
      "name": "Fixed6OverflowError",
      "type": "error"
    },
    {
      "inputs": [],
      "name": "GlobalStorageInvalidError",
      "type": "error"
    },
    {
      "inputs": [],
      "name": "GuaranteeStorageInvalidError",
      "type": "error"
    },
    {
      "inputs": [
        {
          "internalType": "uint256",
          "name": "version",
          "type": "uint256"
        }
      ],
      "name": "InitializableAlreadyInitializedError",
      "type": "error"
    },
    {
      "inputs": [],
      "name": "InitializableNotInitializingError",
      "type": "error"
    },
    {
      "inputs": [],
      "name": "InitializableZeroVersionError",
      "type": "error"
    },
    {
      "inputs": [
        {
          "internalType": "address",
          "name": "sender",
          "type": "address"
        }
      ],
      "name": "InstanceNotFactoryError",
      "type": "error"
    },
    {
      "inputs": [
        {
          "internalType": "address",
          "name": "sender",
          "type": "address"
        }
      ],
      "name": "InstanceNotOwnerError",
      "type": "error"
    },
    {
      "inputs": [],
      "name": "InstancePausedError",
      "type": "error"
    },
    {
      "inputs": [],
      "name": "LocalStorageInvalidError",
      "type": "error"
    },
    {
      "inputs": [],
      "name": "LocalStorageInvalidError",
      "type": "error"
    },
    {
      "inputs": [],
      "name": "MarketClosedError",
      "type": "error"
    },
    {
      "inputs": [],
      "name": "MarketCollateralBelowLimitError",
      "type": "error"
    },
    {
      "inputs": [],
      "name": "MarketEfficiencyUnderLimitError",
      "type": "error"
    },
    {
      "inputs": [],
      "name": "MarketExceedsPendingIdLimitError",
      "type": "error"
    },
    {
      "inputs": [],
      "name": "MarketInsufficientCollateralError",
      "type": "error"
    },
    {
      "inputs": [],
      "name": "MarketInsufficientLiquidityError",
      "type": "error"
    },
    {
      "inputs": [],
      "name": "MarketInsufficientMarginError",
      "type": "error"
    },
    {
      "inputs": [],
      "name": "MarketInvalidIntentFeeError",
      "type": "error"
    },
    {
      "inputs": [
        {
          "internalType": "uint256",
          "name": "code",
          "type": "uint256"
        }
      ],
      "name": "MarketInvalidMarketParameterError",
      "type": "error"
    },
    {
      "inputs": [],
      "name": "MarketInvalidProtectionError",
      "type": "error"
    },
    {
      "inputs": [],
      "name": "MarketInvalidReferrerError",
      "type": "error"
    },
    {
      "inputs": [
        {
          "internalType": "uint256",
          "name": "code",
          "type": "uint256"
        }
      ],
      "name": "MarketInvalidRiskParameterError",
      "type": "error"
    },
    {
      "inputs": [],
      "name": "MarketMakerOverLimitError",
      "type": "error"
    },
    {
      "inputs": [],
      "name": "MarketNotBeneficiaryError",
      "type": "error"
    },
    {
      "inputs": [],
      "name": "MarketNotCoordinatorError",
      "type": "error"
    },
    {
      "inputs": [],
      "name": "MarketNotOperatorError",
      "type": "error"
    },
    {
      "inputs": [],
      "name": "MarketNotSingleSidedError",
      "type": "error"
    },
    {
      "inputs": [],
      "name": "MarketOperatorNotAllowedError",
      "type": "error"
    },
    {
      "inputs": [],
      "name": "MarketOverCloseError",
      "type": "error"
    },
    {
      "inputs": [],
      "name": "MarketParameterStorageInvalidError",
      "type": "error"
    },
    {
      "inputs": [],
      "name": "MarketProtectedError",
      "type": "error"
    },
    {
      "inputs": [],
      "name": "MarketSettleOnlyError",
      "type": "error"
    },
    {
      "inputs": [],
      "name": "MarketStalePriceError",
      "type": "error"
    },
    {
      "inputs": [],
      "name": "OrderStorageInvalidError",
      "type": "error"
    },
    {
      "inputs": [],
      "name": "PositionStorageLocalInvalidError",
      "type": "error"
    },
    {
      "inputs": [],
      "name": "ReentrancyGuardReentrantCallError",
      "type": "error"
    },
    {
      "inputs": [],
      "name": "RiskParameterStorageInvalidError",
      "type": "error"
    },
    {
      "inputs": [
        {
          "internalType": "int256",
          "name": "value",
          "type": "int256"
        }
      ],
      "name": "UFixed6UnderflowError",
      "type": "error"
    },
    {
      "inputs": [],
      "name": "VersionStorageInvalidError",
      "type": "error"
    },
    {
      "anonymous": false,
      "inputs": [
        {
          "indexed": true,
          "internalType": "address",
          "name": "account",
          "type": "address"
        },
        {
          "indexed": false,
          "internalType": "uint256",
          "name": "orderId",
          "type": "uint256"
        },
        {
          "components": [
            {
              "internalType": "uint256",
              "name": "timestamp",
              "type": "uint256"
            },
            {
              "internalType": "uint256",
              "name": "orders",
              "type": "uint256"
            },
            {
              "internalType": "Fixed6",
              "name": "collateral",
              "type": "int256"
            },
            {
              "internalType": "UFixed6",
              "name": "makerPos",
              "type": "uint256"
            },
            {
              "internalType": "UFixed6",
              "name": "makerNeg",
              "type": "uint256"
            },
            {
              "internalType": "UFixed6",
              "name": "longPos",
              "type": "uint256"
            },
            {
              "internalType": "UFixed6",
              "name": "longNeg",
              "type": "uint256"
            },
            {
              "internalType": "UFixed6",
              "name": "shortPos",
              "type": "uint256"
            },
            {
              "internalType": "UFixed6",
              "name": "shortNeg",
              "type": "uint256"
            },
            {
              "internalType": "uint256",
              "name": "protection",
              "type": "uint256"
            },
            {
              "internalType": "UFixed6",
              "name": "makerReferral",
              "type": "uint256"
            },
            {
              "internalType": "UFixed6",
              "name": "takerReferral",
              "type": "uint256"
            }
          ],
          "indexed": false,
          "internalType": "struct Order",
          "name": "order",
          "type": "tuple"
        },
        {
          "components": [
            {
              "internalType": "Fixed6",
              "name": "collateral",
              "type": "int256"
            },
            {
              "internalType": "Fixed6",
              "name": "priceOverride",
              "type": "int256"
            },
            {
              "internalType": "UFixed6",
              "name": "tradeFee",
              "type": "uint256"
            },
            {
              "internalType": "Fixed6",
              "name": "offset",
              "type": "int256"
            },
            {
              "internalType": "UFixed6",
              "name": "settlementFee",
              "type": "uint256"
            },
            {
              "internalType": "UFixed6",
              "name": "liquidationFee",
              "type": "uint256"
            },
            {
              "internalType": "UFixed6",
              "name": "subtractiveFee",
              "type": "uint256"
            },
            {
              "internalType": "UFixed6",
              "name": "solverFee",
              "type": "uint256"
            }
          ],
          "indexed": false,
          "internalType": "struct CheckpointAccumulationResult",
          "name": "accumulationResult",
          "type": "tuple"
        }
      ],
      "name": "AccountPositionProcessed",
      "type": "event"
    },
    {
      "anonymous": false,
      "inputs": [
        {
          "indexed": false,
          "internalType": "address",
          "name": "newBeneficiary",
          "type": "address"
        }
      ],
      "name": "BeneficiaryUpdated",
      "type": "event"
    },
    {
      "anonymous": false,
      "inputs": [
        {
          "indexed": false,
          "internalType": "address",
          "name": "newCoordinator",
          "type": "address"
        }
      ],
      "name": "CoordinatorUpdated",
      "type": "event"
    },
    {
      "anonymous": false,
      "inputs": [
        {
          "indexed": true,
          "internalType": "address",
          "name": "account",
          "type": "address"
        },
        {
          "indexed": false,
          "internalType": "Fixed6",
          "name": "amount",
          "type": "int256"
        }
      ],
      "name": "ExposureClaimed",
      "type": "event"
    },
    {
      "anonymous": false,
      "inputs": [
        {
          "indexed": true,
          "internalType": "address",
          "name": "account",
          "type": "address"
        },
        {
          "indexed": true,
          "internalType": "address",
          "name": "receiver",
          "type": "address"
        },
        {
          "indexed": false,
          "internalType": "UFixed6",
          "name": "amount",
          "type": "uint256"
        }
      ],
      "name": "FeeClaimed",
      "type": "event"
    },
    {
      "anonymous": false,
      "inputs": [
        {
          "indexed": false,
          "internalType": "uint256",
          "name": "version",
          "type": "uint256"
        }
      ],
      "name": "Initialized",
      "type": "event"
    },
    {
      "anonymous": false,
      "inputs": [
        {
          "indexed": true,
          "internalType": "address",
          "name": "account",
          "type": "address"
        },
        {
          "components": [
            {
              "internalType": "uint256",
              "name": "timestamp",
              "type": "uint256"
            },
            {
              "internalType": "uint256",
              "name": "orders",
              "type": "uint256"
            },
            {
              "internalType": "Fixed6",
              "name": "collateral",
              "type": "int256"
            },
            {
              "internalType": "UFixed6",
              "name": "makerPos",
              "type": "uint256"
            },
            {
              "internalType": "UFixed6",
              "name": "makerNeg",
              "type": "uint256"
            },
            {
              "internalType": "UFixed6",
              "name": "longPos",
              "type": "uint256"
            },
            {
              "internalType": "UFixed6",
              "name": "longNeg",
              "type": "uint256"
            },
            {
              "internalType": "UFixed6",
              "name": "shortPos",
              "type": "uint256"
            },
            {
              "internalType": "UFixed6",
              "name": "shortNeg",
              "type": "uint256"
            },
            {
              "internalType": "uint256",
              "name": "protection",
              "type": "uint256"
            },
            {
              "internalType": "UFixed6",
              "name": "makerReferral",
              "type": "uint256"
            },
            {
              "internalType": "UFixed6",
              "name": "takerReferral",
              "type": "uint256"
            }
          ],
          "indexed": false,
          "internalType": "struct Order",
          "name": "order",
          "type": "tuple"
        },
        {
          "components": [
            {
              "internalType": "uint256",
              "name": "orders",
              "type": "uint256"
            },
            {
              "internalType": "Fixed6",
              "name": "notional",
              "type": "int256"
            },
            {
              "internalType": "UFixed6",
              "name": "takerPos",
              "type": "uint256"
            },
            {
              "internalType": "UFixed6",
              "name": "takerNeg",
              "type": "uint256"
            },
            {
              "internalType": "UFixed6",
              "name": "takerFee",
              "type": "uint256"
            },
            {
              "internalType": "UFixed6",
              "name": "referral",
              "type": "uint256"
            }
          ],
          "indexed": false,
          "internalType": "struct Guarantee",
          "name": "guarantee",
          "type": "tuple"
        },
        {
          "indexed": false,
          "internalType": "address",
          "name": "liquidator",
          "type": "address"
        },
        {
          "indexed": false,
          "internalType": "address",
          "name": "orderReferrer",
          "type": "address"
        },
        {
          "indexed": false,
          "internalType": "address",
          "name": "guaranteeReferrer",
          "type": "address"
        }
      ],
      "name": "OrderCreated",
      "type": "event"
    },
    {
      "anonymous": false,
      "inputs": [
        {
          "components": [
            {
              "internalType": "UFixed6",
              "name": "fundingFee",
              "type": "uint256"
            },
            {
              "internalType": "UFixed6",
              "name": "interestFee",
              "type": "uint256"
            },
            {
              "internalType": "UFixed6",
              "name": "makerFee",
              "type": "uint256"
            },
            {
              "internalType": "UFixed6",
              "name": "takerFee",
              "type": "uint256"
            },
            {
              "internalType": "UFixed6",
              "name": "riskFee",
              "type": "uint256"
            },
            {
              "internalType": "uint256",
              "name": "maxPendingGlobal",
              "type": "uint256"
            },
            {
              "internalType": "uint256",
              "name": "maxPendingLocal",
              "type": "uint256"
            },
            {
              "internalType": "bool",
              "name": "closed",
              "type": "bool"
            },
            {
              "internalType": "bool",
              "name": "settle",
              "type": "bool"
            }
          ],
          "indexed": false,
          "internalType": "struct MarketParameter",
          "name": "newParameter",
          "type": "tuple"
        }
      ],
      "name": "ParameterUpdated",
      "type": "event"
    },
    {
      "anonymous": false,
      "inputs": [
        {
          "indexed": false,
          "internalType": "uint256",
          "name": "orderId",
          "type": "uint256"
        },
        {
          "components": [
            {
              "internalType": "uint256",
              "name": "timestamp",
              "type": "uint256"
            },
            {
              "internalType": "uint256",
              "name": "orders",
              "type": "uint256"
            },
            {
              "internalType": "Fixed6",
              "name": "collateral",
              "type": "int256"
            },
            {
              "internalType": "UFixed6",
              "name": "makerPos",
              "type": "uint256"
            },
            {
              "internalType": "UFixed6",
              "name": "makerNeg",
              "type": "uint256"
            },
            {
              "internalType": "UFixed6",
              "name": "longPos",
              "type": "uint256"
            },
            {
              "internalType": "UFixed6",
              "name": "longNeg",
              "type": "uint256"
            },
            {
              "internalType": "UFixed6",
              "name": "shortPos",
              "type": "uint256"
            },
            {
              "internalType": "UFixed6",
              "name": "shortNeg",
              "type": "uint256"
            },
            {
              "internalType": "uint256",
              "name": "protection",
              "type": "uint256"
            },
            {
              "internalType": "UFixed6",
              "name": "makerReferral",
              "type": "uint256"
            },
            {
              "internalType": "UFixed6",
              "name": "takerReferral",
              "type": "uint256"
            }
          ],
          "indexed": false,
          "internalType": "struct Order",
          "name": "order",
          "type": "tuple"
        },
        {
          "components": [
            {
              "internalType": "UFixed6",
              "name": "tradeFee",
              "type": "uint256"
            },
            {
              "internalType": "UFixed6",
              "name": "subtractiveFee",
              "type": "uint256"
            },
            {
              "internalType": "Fixed6",
              "name": "tradeOffset",
              "type": "int256"
            },
            {
              "internalType": "Fixed6",
              "name": "tradeOffsetMaker",
              "type": "int256"
            },
            {
              "internalType": "UFixed6",
              "name": "tradeOffsetMarket",
              "type": "uint256"
            },
            {
              "internalType": "Fixed6",
              "name": "adiabaticExposure",
              "type": "int256"
            },
            {
              "internalType": "Fixed6",
              "name": "adiabaticExposureMaker",
              "type": "int256"
            },
            {
              "internalType": "Fixed6",
              "name": "adiabaticExposureMarket",
              "type": "int256"
            },
            {
              "internalType": "Fixed6",
              "name": "fundingMaker",
              "type": "int256"
            },
            {
              "internalType": "Fixed6",
              "name": "fundingLong",
              "type": "int256"
            },
            {
              "internalType": "Fixed6",
              "name": "fundingShort",
              "type": "int256"
            },
            {
              "internalType": "UFixed6",
              "name": "fundingFee",
              "type": "uint256"
            },
            {
              "internalType": "Fixed6",
              "name": "interestMaker",
              "type": "int256"
            },
            {
              "internalType": "Fixed6",
              "name": "interestLong",
              "type": "int256"
            },
            {
              "internalType": "Fixed6",
              "name": "interestShort",
              "type": "int256"
            },
            {
              "internalType": "UFixed6",
              "name": "interestFee",
              "type": "uint256"
            },
            {
              "internalType": "Fixed6",
              "name": "pnlMaker",
              "type": "int256"
            },
            {
              "internalType": "Fixed6",
              "name": "pnlLong",
              "type": "int256"
            },
            {
              "internalType": "Fixed6",
              "name": "pnlShort",
              "type": "int256"
            },
            {
              "internalType": "UFixed6",
              "name": "settlementFee",
              "type": "uint256"
            },
            {
              "internalType": "UFixed6",
              "name": "liquidationFee",
              "type": "uint256"
            }
          ],
          "indexed": false,
          "internalType": "struct VersionAccumulationResult",
          "name": "accumulationResult",
          "type": "tuple"
        }
      ],
      "name": "PositionProcessed",
      "type": "event"
    },
    {
      "anonymous": false,
      "inputs": [
        {
          "components": [
            {
              "internalType": "UFixed6",
              "name": "margin",
              "type": "uint256"
            },
            {
              "internalType": "UFixed6",
              "name": "maintenance",
              "type": "uint256"
            },
            {
              "components": [
                {
                  "internalType": "UFixed6",
                  "name": "linearFee",
                  "type": "uint256"
                },
                {
                  "internalType": "UFixed6",
                  "name": "proportionalFee",
                  "type": "uint256"
                },
                {
                  "internalType": "UFixed6",
                  "name": "adiabaticFee",
                  "type": "uint256"
                },
                {
                  "internalType": "UFixed6",
                  "name": "scale",
                  "type": "uint256"
                }
              ],
              "internalType": "struct LinearAdiabatic6",
              "name": "takerFee",
              "type": "tuple"
            },
            {
              "components": [
                {
                  "internalType": "UFixed6",
                  "name": "linearFee",
                  "type": "uint256"
                },
                {
                  "internalType": "UFixed6",
                  "name": "proportionalFee",
                  "type": "uint256"
                },
                {
                  "internalType": "UFixed6",
                  "name": "scale",
                  "type": "uint256"
                }
              ],
              "internalType": "struct NoopAdiabatic6",
              "name": "makerFee",
              "type": "tuple"
            },
            {
              "internalType": "UFixed6",
              "name": "makerLimit",
              "type": "uint256"
            },
            {
              "internalType": "UFixed6",
              "name": "efficiencyLimit",
              "type": "uint256"
            },
            {
              "internalType": "UFixed6",
              "name": "liquidationFee",
              "type": "uint256"
            },
            {
              "components": [
                {
                  "internalType": "UFixed6",
                  "name": "minRate",
                  "type": "uint256"
                },
                {
                  "internalType": "UFixed6",
                  "name": "maxRate",
                  "type": "uint256"
                },
                {
                  "internalType": "UFixed6",
                  "name": "targetRate",
                  "type": "uint256"
                },
                {
                  "internalType": "UFixed6",
                  "name": "targetUtilization",
                  "type": "uint256"
                }
              ],
              "internalType": "struct UJumpRateUtilizationCurve6",
              "name": "utilizationCurve",
              "type": "tuple"
            },
            {
              "components": [
                {
                  "internalType": "UFixed6",
                  "name": "k",
                  "type": "uint256"
                },
                {
                  "internalType": "Fixed6",
                  "name": "min",
                  "type": "int256"
                },
                {
                  "internalType": "Fixed6",
                  "name": "max",
                  "type": "int256"
                }
              ],
              "internalType": "struct PController6",
              "name": "pController",
              "type": "tuple"
            },
            {
              "internalType": "UFixed6",
              "name": "minMargin",
              "type": "uint256"
            },
            {
              "internalType": "UFixed6",
              "name": "minMaintenance",
              "type": "uint256"
            },
            {
              "internalType": "uint256",
              "name": "staleAfter",
              "type": "uint256"
            },
            {
              "internalType": "bool",
              "name": "makerReceiveOnly",
              "type": "bool"
            }
          ],
          "indexed": false,
          "internalType": "struct RiskParameter",
          "name": "newRiskParameter",
          "type": "tuple"
        }
      ],
      "name": "RiskParameterUpdated",
      "type": "event"
    },
    {
      "anonymous": false,
      "inputs": [
        {
          "indexed": true,
          "internalType": "address",
          "name": "sender",
          "type": "address"
        },
        {
          "indexed": true,
          "internalType": "address",
          "name": "account",
          "type": "address"
        },
        {
          "indexed": false,
          "internalType": "uint256",
          "name": "version",
          "type": "uint256"
        },
        {
          "indexed": false,
          "internalType": "UFixed6",
          "name": "newMaker",
          "type": "uint256"
        },
        {
          "indexed": false,
          "internalType": "UFixed6",
          "name": "newLong",
          "type": "uint256"
        },
        {
          "indexed": false,
          "internalType": "UFixed6",
          "name": "newShort",
          "type": "uint256"
        },
        {
          "indexed": false,
          "internalType": "Fixed6",
          "name": "collateral",
          "type": "int256"
        },
        {
          "indexed": false,
          "internalType": "bool",
          "name": "protect",
          "type": "bool"
        },
        {
          "indexed": false,
          "internalType": "address",
          "name": "referrer",
          "type": "address"
        }
      ],
      "name": "Updated",
      "type": "event"
    },
    {
      "inputs": [],
      "name": "beneficiary",
      "outputs": [
        {
          "internalType": "address",
          "name": "",
          "type": "address"
        }
      ],
      "stateMutability": "view",
      "type": "function"
    },
    {
      "inputs": [
        {
          "internalType": "address",
          "name": "account",
          "type": "address"
        },
        {
          "internalType": "uint256",
          "name": "version",
          "type": "uint256"
        }
      ],
      "name": "checkpoints",
      "outputs": [
        {
          "components": [
            {
              "internalType": "Fixed6",
              "name": "tradeFee",
              "type": "int256"
            },
            {
              "internalType": "UFixed6",
              "name": "settlementFee",
              "type": "uint256"
            },
            {
              "internalType": "Fixed6",
              "name": "transfer",
              "type": "int256"
            },
            {
              "internalType": "Fixed6",
              "name": "collateral",
              "type": "int256"
            }
          ],
          "internalType": "struct Checkpoint",
          "name": "",
          "type": "tuple"
        }
      ],
      "stateMutability": "view",
      "type": "function"
    },
    {
      "inputs": [],
      "name": "claimExposure",
      "outputs": [],
      "stateMutability": "nonpayable",
      "type": "function"
    },
    {
      "inputs": [
        {
          "internalType": "address",
          "name": "account",
          "type": "address"
        }
      ],
      "name": "claimFee",
      "outputs": [
        {
          "internalType": "UFixed6",
          "name": "feeReceived",
          "type": "uint256"
        }
      ],
      "stateMutability": "nonpayable",
      "type": "function"
    },
    {
      "inputs": [],
      "name": "coordinator",
      "outputs": [
        {
          "internalType": "address",
          "name": "",
          "type": "address"
        }
      ],
      "stateMutability": "view",
      "type": "function"
    },
    {
      "inputs": [],
      "name": "factory",
      "outputs": [
        {
          "internalType": "contract IFactory",
          "name": "",
          "type": "address"
        }
      ],
      "stateMutability": "view",
      "type": "function"
    },
    {
      "inputs": [],
      "name": "global",
      "outputs": [
        {
          "components": [
            {
              "internalType": "uint256",
              "name": "currentId",
              "type": "uint256"
            },
            {
              "internalType": "uint256",
              "name": "latestId",
              "type": "uint256"
            },
            {
              "internalType": "UFixed6",
              "name": "protocolFee",
              "type": "uint256"
            },
            {
              "internalType": "UFixed6",
              "name": "oracleFee",
              "type": "uint256"
            },
            {
              "internalType": "UFixed6",
              "name": "riskFee",
              "type": "uint256"
            },
            {
              "internalType": "Fixed6",
              "name": "latestPrice",
              "type": "int256"
            },
            {
              "internalType": "Fixed6",
              "name": "exposure",
              "type": "int256"
            },
            {
              "components": [
                {
                  "internalType": "Fixed6",
                  "name": "_value",
                  "type": "int256"
                },
                {
                  "internalType": "Fixed6",
                  "name": "_skew",
                  "type": "int256"
                }
              ],
              "internalType": "struct PAccumulator6",
              "name": "pAccumulator",
              "type": "tuple"
            }
          ],
          "internalType": "struct Global",
          "name": "",
          "type": "tuple"
        }
      ],
      "stateMutability": "view",
      "type": "function"
    },
    {
      "inputs": [
        {
          "internalType": "uint256",
          "name": "id",
          "type": "uint256"
        }
      ],
      "name": "guarantee",
      "outputs": [
        {
          "components": [
            {
              "internalType": "uint256",
              "name": "orders",
              "type": "uint256"
            },
            {
              "internalType": "Fixed6",
              "name": "notional",
              "type": "int256"
            },
            {
              "internalType": "UFixed6",
              "name": "takerPos",
              "type": "uint256"
            },
            {
              "internalType": "UFixed6",
              "name": "takerNeg",
              "type": "uint256"
            },
            {
              "internalType": "UFixed6",
              "name": "takerFee",
              "type": "uint256"
            },
            {
              "internalType": "UFixed6",
              "name": "referral",
              "type": "uint256"
            }
          ],
          "internalType": "struct Guarantee",
          "name": "",
          "type": "tuple"
        }
      ],
      "stateMutability": "view",
      "type": "function"
    },
    {
      "inputs": [
        {
          "internalType": "address",
          "name": "",
          "type": "address"
        },
        {
          "internalType": "uint256",
          "name": "",
          "type": "uint256"
        }
      ],
      "name": "guaranteeReferrers",
      "outputs": [
        {
          "internalType": "address",
          "name": "",
          "type": "address"
        }
      ],
      "stateMutability": "view",
      "type": "function"
    },
    {
      "inputs": [
        {
          "internalType": "address",
          "name": "account",
          "type": "address"
        },
        {
          "internalType": "uint256",
          "name": "id",
          "type": "uint256"
        }
      ],
      "name": "guarantees",
      "outputs": [
        {
          "components": [
            {
              "internalType": "uint256",
              "name": "orders",
              "type": "uint256"
            },
            {
              "internalType": "Fixed6",
              "name": "notional",
              "type": "int256"
            },
            {
              "internalType": "UFixed6",
              "name": "takerPos",
              "type": "uint256"
            },
            {
              "internalType": "UFixed6",
              "name": "takerNeg",
              "type": "uint256"
            },
            {
              "internalType": "UFixed6",
              "name": "takerFee",
              "type": "uint256"
            },
            {
              "internalType": "UFixed6",
              "name": "referral",
              "type": "uint256"
            }
          ],
          "internalType": "struct Guarantee",
          "name": "",
          "type": "tuple"
        }
      ],
      "stateMutability": "view",
      "type": "function"
    },
    {
      "inputs": [
        {
          "components": [
            {
              "internalType": "Token18",
              "name": "token",
              "type": "address"
            },
            {
              "internalType": "contract IOracleProvider",
              "name": "oracle",
              "type": "address"
            }
          ],
          "internalType": "struct IMarket.MarketDefinition",
          "name": "definition_",
          "type": "tuple"
        }
      ],
      "name": "initialize",
      "outputs": [],
      "stateMutability": "nonpayable",
      "type": "function"
    },
    {
      "inputs": [
        {
          "internalType": "address",
          "name": "",
          "type": "address"
        },
        {
          "internalType": "uint256",
          "name": "",
          "type": "uint256"
        }
      ],
      "name": "liquidators",
      "outputs": [
        {
          "internalType": "address",
          "name": "",
          "type": "address"
        }
      ],
      "stateMutability": "view",
      "type": "function"
    },
    {
      "inputs": [
        {
          "internalType": "address",
          "name": "account",
          "type": "address"
        }
      ],
      "name": "locals",
      "outputs": [
        {
          "components": [
            {
              "internalType": "uint256",
              "name": "currentId",
              "type": "uint256"
            },
            {
              "internalType": "uint256",
              "name": "latestId",
              "type": "uint256"
            },
            {
              "internalType": "Fixed6",
              "name": "collateral",
              "type": "int256"
            },
            {
              "internalType": "UFixed6",
              "name": "claimable",
              "type": "uint256"
            }
          ],
          "internalType": "struct Local",
          "name": "",
          "type": "tuple"
        }
      ],
      "stateMutability": "view",
      "type": "function"
    },
    {
      "inputs": [],
      "name": "migrate",
      "outputs": [],
      "stateMutability": "nonpayable",
      "type": "function"
    },
    {
      "inputs": [],
      "name": "oracle",
      "outputs": [
        {
          "internalType": "contract IOracleProvider",
          "name": "",
          "type": "address"
        }
      ],
      "stateMutability": "view",
      "type": "function"
    },
    {
      "inputs": [
        {
          "internalType": "address",
          "name": "",
          "type": "address"
        },
        {
          "internalType": "uint256",
          "name": "",
          "type": "uint256"
        }
      ],
      "name": "orderReferrers",
      "outputs": [
        {
          "internalType": "address",
          "name": "",
          "type": "address"
        }
      ],
      "stateMutability": "view",
      "type": "function"
    },
    {
      "inputs": [],
      "name": "parameter",
      "outputs": [
        {
          "components": [
            {
              "internalType": "UFixed6",
              "name": "fundingFee",
              "type": "uint256"
            },
            {
              "internalType": "UFixed6",
              "name": "interestFee",
              "type": "uint256"
            },
            {
              "internalType": "UFixed6",
              "name": "makerFee",
              "type": "uint256"
            },
            {
              "internalType": "UFixed6",
              "name": "takerFee",
              "type": "uint256"
            },
            {
              "internalType": "UFixed6",
              "name": "riskFee",
              "type": "uint256"
            },
            {
              "internalType": "uint256",
              "name": "maxPendingGlobal",
              "type": "uint256"
            },
            {
              "internalType": "uint256",
              "name": "maxPendingLocal",
              "type": "uint256"
            },
            {
              "internalType": "bool",
              "name": "closed",
              "type": "bool"
            },
            {
              "internalType": "bool",
              "name": "settle",
              "type": "bool"
            }
          ],
          "internalType": "struct MarketParameter",
          "name": "",
          "type": "tuple"
        }
      ],
      "stateMutability": "view",
      "type": "function"
    },
    {
      "inputs": [],
      "name": "pending",
      "outputs": [
        {
          "components": [
            {
              "internalType": "uint256",
              "name": "timestamp",
              "type": "uint256"
            },
            {
              "internalType": "uint256",
              "name": "orders",
              "type": "uint256"
            },
            {
              "internalType": "Fixed6",
              "name": "collateral",
              "type": "int256"
            },
            {
              "internalType": "UFixed6",
              "name": "makerPos",
              "type": "uint256"
            },
            {
              "internalType": "UFixed6",
              "name": "makerNeg",
              "type": "uint256"
            },
            {
              "internalType": "UFixed6",
              "name": "longPos",
              "type": "uint256"
            },
            {
              "internalType": "UFixed6",
              "name": "longNeg",
              "type": "uint256"
            },
            {
              "internalType": "UFixed6",
              "name": "shortPos",
              "type": "uint256"
            },
            {
              "internalType": "UFixed6",
              "name": "shortNeg",
              "type": "uint256"
            },
            {
              "internalType": "uint256",
              "name": "protection",
              "type": "uint256"
            },
            {
              "internalType": "UFixed6",
              "name": "makerReferral",
              "type": "uint256"
            },
            {
              "internalType": "UFixed6",
              "name": "takerReferral",
              "type": "uint256"
            }
          ],
          "internalType": "struct Order",
          "name": "",
          "type": "tuple"
        }
      ],
      "stateMutability": "view",
      "type": "function"
    },
    {
      "inputs": [
        {
          "internalType": "uint256",
          "name": "id",
          "type": "uint256"
        }
      ],
      "name": "pendingOrder",
      "outputs": [
        {
          "components": [
            {
              "internalType": "uint256",
              "name": "timestamp",
              "type": "uint256"
            },
            {
              "internalType": "uint256",
              "name": "orders",
              "type": "uint256"
            },
            {
              "internalType": "Fixed6",
              "name": "collateral",
              "type": "int256"
            },
            {
              "internalType": "UFixed6",
              "name": "makerPos",
              "type": "uint256"
            },
            {
              "internalType": "UFixed6",
              "name": "makerNeg",
              "type": "uint256"
            },
            {
              "internalType": "UFixed6",
              "name": "longPos",
              "type": "uint256"
            },
            {
              "internalType": "UFixed6",
              "name": "longNeg",
              "type": "uint256"
            },
            {
              "internalType": "UFixed6",
              "name": "shortPos",
              "type": "uint256"
            },
            {
              "internalType": "UFixed6",
              "name": "shortNeg",
              "type": "uint256"
            },
            {
              "internalType": "uint256",
              "name": "protection",
              "type": "uint256"
            },
            {
              "internalType": "UFixed6",
              "name": "makerReferral",
              "type": "uint256"
            },
            {
              "internalType": "UFixed6",
              "name": "takerReferral",
              "type": "uint256"
            }
          ],
          "internalType": "struct Order",
          "name": "",
          "type": "tuple"
        }
      ],
      "stateMutability": "view",
      "type": "function"
    },
    {
      "inputs": [
        {
          "internalType": "address",
          "name": "account",
          "type": "address"
        },
        {
          "internalType": "uint256",
          "name": "id",
          "type": "uint256"
        }
      ],
      "name": "pendingOrders",
      "outputs": [
        {
          "components": [
            {
              "internalType": "uint256",
              "name": "timestamp",
              "type": "uint256"
            },
            {
              "internalType": "uint256",
              "name": "orders",
              "type": "uint256"
            },
            {
              "internalType": "Fixed6",
              "name": "collateral",
              "type": "int256"
            },
            {
              "internalType": "UFixed6",
              "name": "makerPos",
              "type": "uint256"
            },
            {
              "internalType": "UFixed6",
              "name": "makerNeg",
              "type": "uint256"
            },
            {
              "internalType": "UFixed6",
              "name": "longPos",
              "type": "uint256"
            },
            {
              "internalType": "UFixed6",
              "name": "longNeg",
              "type": "uint256"
            },
            {
              "internalType": "UFixed6",
              "name": "shortPos",
              "type": "uint256"
            },
            {
              "internalType": "UFixed6",
              "name": "shortNeg",
              "type": "uint256"
            },
            {
              "internalType": "uint256",
              "name": "protection",
              "type": "uint256"
            },
            {
              "internalType": "UFixed6",
              "name": "makerReferral",
              "type": "uint256"
            },
            {
              "internalType": "UFixed6",
              "name": "takerReferral",
              "type": "uint256"
            }
          ],
          "internalType": "struct Order",
          "name": "",
          "type": "tuple"
        }
      ],
      "stateMutability": "view",
      "type": "function"
    },
    {
      "inputs": [
        {
          "internalType": "address",
          "name": "account",
          "type": "address"
        }
      ],
      "name": "pendings",
      "outputs": [
        {
          "components": [
            {
              "internalType": "uint256",
              "name": "timestamp",
              "type": "uint256"
            },
            {
              "internalType": "uint256",
              "name": "orders",
              "type": "uint256"
            },
            {
              "internalType": "Fixed6",
              "name": "collateral",
              "type": "int256"
            },
            {
              "internalType": "UFixed6",
              "name": "makerPos",
              "type": "uint256"
            },
            {
              "internalType": "UFixed6",
              "name": "makerNeg",
              "type": "uint256"
            },
            {
              "internalType": "UFixed6",
              "name": "longPos",
              "type": "uint256"
            },
            {
              "internalType": "UFixed6",
              "name": "longNeg",
              "type": "uint256"
            },
            {
              "internalType": "UFixed6",
              "name": "shortPos",
              "type": "uint256"
            },
            {
              "internalType": "UFixed6",
              "name": "shortNeg",
              "type": "uint256"
            },
            {
              "internalType": "uint256",
              "name": "protection",
              "type": "uint256"
            },
            {
              "internalType": "UFixed6",
              "name": "makerReferral",
              "type": "uint256"
            },
            {
              "internalType": "UFixed6",
              "name": "takerReferral",
              "type": "uint256"
            }
          ],
          "internalType": "struct Order",
          "name": "",
          "type": "tuple"
        }
      ],
      "stateMutability": "view",
      "type": "function"
    },
    {
      "inputs": [],
      "name": "position",
      "outputs": [
        {
          "components": [
            {
              "internalType": "uint256",
              "name": "timestamp",
              "type": "uint256"
            },
            {
              "internalType": "UFixed6",
              "name": "maker",
              "type": "uint256"
            },
            {
              "internalType": "UFixed6",
              "name": "long",
              "type": "uint256"
            },
            {
              "internalType": "UFixed6",
              "name": "short",
              "type": "uint256"
            }
          ],
          "internalType": "struct Position",
          "name": "",
          "type": "tuple"
        }
      ],
      "stateMutability": "view",
      "type": "function"
    },
    {
      "inputs": [
        {
          "internalType": "address",
          "name": "account",
          "type": "address"
        }
      ],
      "name": "positions",
      "outputs": [
        {
          "components": [
            {
              "internalType": "uint256",
              "name": "timestamp",
              "type": "uint256"
            },
            {
              "internalType": "UFixed6",
              "name": "maker",
              "type": "uint256"
            },
            {
              "internalType": "UFixed6",
              "name": "long",
              "type": "uint256"
            },
            {
              "internalType": "UFixed6",
              "name": "short",
              "type": "uint256"
            }
          ],
          "internalType": "struct Position",
          "name": "",
          "type": "tuple"
        }
      ],
      "stateMutability": "view",
      "type": "function"
    },
    {
      "inputs": [],
      "name": "riskParameter",
      "outputs": [
        {
          "components": [
            {
              "internalType": "UFixed6",
              "name": "margin",
              "type": "uint256"
            },
            {
              "internalType": "UFixed6",
              "name": "maintenance",
              "type": "uint256"
            },
            {
              "components": [
                {
                  "internalType": "UFixed6",
                  "name": "linearFee",
                  "type": "uint256"
                },
                {
                  "internalType": "UFixed6",
                  "name": "proportionalFee",
                  "type": "uint256"
                },
                {
                  "internalType": "UFixed6",
                  "name": "adiabaticFee",
                  "type": "uint256"
                },
                {
                  "internalType": "UFixed6",
                  "name": "scale",
                  "type": "uint256"
                }
              ],
              "internalType": "struct LinearAdiabatic6",
              "name": "takerFee",
              "type": "tuple"
            },
            {
              "components": [
                {
                  "internalType": "UFixed6",
                  "name": "linearFee",
                  "type": "uint256"
                },
                {
                  "internalType": "UFixed6",
                  "name": "proportionalFee",
                  "type": "uint256"
                },
                {
                  "internalType": "UFixed6",
                  "name": "scale",
                  "type": "uint256"
                }
              ],
              "internalType": "struct NoopAdiabatic6",
              "name": "makerFee",
              "type": "tuple"
            },
            {
              "internalType": "UFixed6",
              "name": "makerLimit",
              "type": "uint256"
            },
            {
              "internalType": "UFixed6",
              "name": "efficiencyLimit",
              "type": "uint256"
            },
            {
              "internalType": "UFixed6",
              "name": "liquidationFee",
              "type": "uint256"
            },
            {
              "components": [
                {
                  "internalType": "UFixed6",
                  "name": "minRate",
                  "type": "uint256"
                },
                {
                  "internalType": "UFixed6",
                  "name": "maxRate",
                  "type": "uint256"
                },
                {
                  "internalType": "UFixed6",
                  "name": "targetRate",
                  "type": "uint256"
                },
                {
                  "internalType": "UFixed6",
                  "name": "targetUtilization",
                  "type": "uint256"
                }
              ],
              "internalType": "struct UJumpRateUtilizationCurve6",
              "name": "utilizationCurve",
              "type": "tuple"
            },
            {
              "components": [
                {
                  "internalType": "UFixed6",
                  "name": "k",
                  "type": "uint256"
                },
                {
                  "internalType": "Fixed6",
                  "name": "min",
                  "type": "int256"
                },
                {
                  "internalType": "Fixed6",
                  "name": "max",
                  "type": "int256"
                }
              ],
              "internalType": "struct PController6",
              "name": "pController",
              "type": "tuple"
            },
            {
              "internalType": "UFixed6",
              "name": "minMargin",
              "type": "uint256"
            },
            {
              "internalType": "UFixed6",
              "name": "minMaintenance",
              "type": "uint256"
            },
            {
              "internalType": "uint256",
              "name": "staleAfter",
              "type": "uint256"
            },
            {
              "internalType": "bool",
              "name": "makerReceiveOnly",
              "type": "bool"
            }
          ],
          "internalType": "struct RiskParameter",
          "name": "",
          "type": "tuple"
        }
      ],
      "stateMutability": "view",
      "type": "function"
    },
    {
      "inputs": [
        {
          "internalType": "address",
          "name": "account",
          "type": "address"
        }
      ],
      "name": "settle",
      "outputs": [],
      "stateMutability": "nonpayable",
      "type": "function"
    },
    {
      "inputs": [],
      "name": "token",
      "outputs": [
        {
          "internalType": "Token18",
          "name": "",
          "type": "address"
        }
      ],
      "stateMutability": "view",
      "type": "function"
    },
    {
      "inputs": [
        {
          "internalType": "address",
          "name": "account",
          "type": "address"
        },
        {
          "internalType": "Fixed6",
          "name": "amount",
          "type": "int256"
        },
        {
          "internalType": "Fixed6",
          "name": "collateral",
          "type": "int256"
        },
        {
          "internalType": "address",
          "name": "referrer",
          "type": "address"
        }
      ],
      "name": "update",
      "outputs": [],
      "stateMutability": "nonpayable",
      "type": "function"
    },
    {
      "inputs": [
        {
          "internalType": "address",
          "name": "account",
          "type": "address"
        },
        {
          "components": [
            {
              "internalType": "Fixed6",
              "name": "amount",
              "type": "int256"
            },
            {
              "internalType": "Fixed6",
              "name": "price",
              "type": "int256"
            },
            {
              "internalType": "UFixed6",
              "name": "fee",
              "type": "uint256"
            },
            {
              "internalType": "address",
              "name": "originator",
              "type": "address"
            },
            {
              "internalType": "address",
              "name": "solver",
              "type": "address"
            },
            {
              "internalType": "UFixed6",
              "name": "collateralization",
              "type": "uint256"
            },
            {
              "components": [
                {
                  "internalType": "address",
                  "name": "account",
                  "type": "address"
                },
                {
                  "internalType": "address",
                  "name": "signer",
                  "type": "address"
                },
                {
                  "internalType": "address",
                  "name": "domain",
                  "type": "address"
                },
                {
                  "internalType": "uint256",
                  "name": "nonce",
                  "type": "uint256"
                },
                {
                  "internalType": "uint256",
                  "name": "group",
                  "type": "uint256"
                },
                {
                  "internalType": "uint256",
                  "name": "expiry",
                  "type": "uint256"
                }
              ],
              "internalType": "struct Common",
              "name": "common",
              "type": "tuple"
            }
          ],
          "internalType": "struct Intent",
          "name": "intent",
          "type": "tuple"
        },
        {
          "internalType": "bytes",
          "name": "signature",
          "type": "bytes"
        }
      ],
      "name": "update",
      "outputs": [],
      "stateMutability": "nonpayable",
      "type": "function"
    },
    {
      "inputs": [
        {
          "internalType": "address",
          "name": "account",
          "type": "address"
        },
        {
          "internalType": "UFixed6",
          "name": "newMaker",
          "type": "uint256"
        },
        {
          "internalType": "UFixed6",
          "name": "newLong",
          "type": "uint256"
        },
        {
          "internalType": "UFixed6",
          "name": "newShort",
          "type": "uint256"
        },
        {
          "internalType": "Fixed6",
          "name": "collateral",
          "type": "int256"
        },
        {
          "internalType": "bool",
          "name": "protect",
          "type": "bool"
        }
      ],
      "name": "update",
      "outputs": [],
      "stateMutability": "nonpayable",
      "type": "function"
    },
    {
      "inputs": [
        {
          "internalType": "address",
          "name": "account",
          "type": "address"
        },
        {
          "internalType": "UFixed6",
          "name": "newMaker",
          "type": "uint256"
        },
        {
          "internalType": "UFixed6",
          "name": "newLong",
          "type": "uint256"
        },
        {
          "internalType": "UFixed6",
          "name": "newShort",
          "type": "uint256"
        },
        {
          "internalType": "Fixed6",
          "name": "collateral",
          "type": "int256"
        },
        {
          "internalType": "bool",
          "name": "protect",
          "type": "bool"
        },
        {
          "internalType": "address",
          "name": "referrer",
          "type": "address"
        }
      ],
      "name": "update",
      "outputs": [],
      "stateMutability": "nonpayable",
      "type": "function"
    },
    {
      "inputs": [
        {
          "internalType": "address",
          "name": "newBeneficiary",
          "type": "address"
        }
      ],
      "name": "updateBeneficiary",
      "outputs": [],
      "stateMutability": "nonpayable",
      "type": "function"
    },
    {
      "inputs": [
        {
          "internalType": "address",
          "name": "newCoordinator",
          "type": "address"
        }
      ],
      "name": "updateCoordinator",
      "outputs": [],
      "stateMutability": "nonpayable",
      "type": "function"
    },
    {
      "inputs": [
        {
          "components": [
            {
              "internalType": "UFixed6",
              "name": "fundingFee",
              "type": "uint256"
            },
            {
              "internalType": "UFixed6",
              "name": "interestFee",
              "type": "uint256"
            },
            {
              "internalType": "UFixed6",
              "name": "makerFee",
              "type": "uint256"
            },
            {
              "internalType": "UFixed6",
              "name": "takerFee",
              "type": "uint256"
            },
            {
              "internalType": "UFixed6",
              "name": "riskFee",
              "type": "uint256"
            },
            {
              "internalType": "uint256",
              "name": "maxPendingGlobal",
              "type": "uint256"
            },
            {
              "internalType": "uint256",
              "name": "maxPendingLocal",
              "type": "uint256"
            },
            {
              "internalType": "bool",
              "name": "closed",
              "type": "bool"
            },
            {
              "internalType": "bool",
              "name": "settle",
              "type": "bool"
            }
          ],
          "internalType": "struct MarketParameter",
          "name": "newParameter",
          "type": "tuple"
        }
      ],
      "name": "updateParameter",
      "outputs": [],
      "stateMutability": "nonpayable",
      "type": "function"
    },
    {
      "inputs": [
        {
          "components": [
            {
              "internalType": "UFixed6",
              "name": "margin",
              "type": "uint256"
            },
            {
              "internalType": "UFixed6",
              "name": "maintenance",
              "type": "uint256"
            },
            {
              "components": [
                {
                  "internalType": "UFixed6",
                  "name": "linearFee",
                  "type": "uint256"
                },
                {
                  "internalType": "UFixed6",
                  "name": "proportionalFee",
                  "type": "uint256"
                },
                {
                  "internalType": "UFixed6",
                  "name": "adiabaticFee",
                  "type": "uint256"
                },
                {
                  "internalType": "UFixed6",
                  "name": "scale",
                  "type": "uint256"
                }
              ],
              "internalType": "struct LinearAdiabatic6",
              "name": "takerFee",
              "type": "tuple"
            },
            {
              "components": [
                {
                  "internalType": "UFixed6",
                  "name": "linearFee",
                  "type": "uint256"
                },
                {
                  "internalType": "UFixed6",
                  "name": "proportionalFee",
                  "type": "uint256"
                },
                {
                  "internalType": "UFixed6",
                  "name": "scale",
                  "type": "uint256"
                }
              ],
              "internalType": "struct NoopAdiabatic6",
              "name": "makerFee",
              "type": "tuple"
            },
            {
              "internalType": "UFixed6",
              "name": "makerLimit",
              "type": "uint256"
            },
            {
              "internalType": "UFixed6",
              "name": "efficiencyLimit",
              "type": "uint256"
            },
            {
              "internalType": "UFixed6",
              "name": "liquidationFee",
              "type": "uint256"
            },
            {
              "components": [
                {
                  "internalType": "UFixed6",
                  "name": "minRate",
                  "type": "uint256"
                },
                {
                  "internalType": "UFixed6",
                  "name": "maxRate",
                  "type": "uint256"
                },
                {
                  "internalType": "UFixed6",
                  "name": "targetRate",
                  "type": "uint256"
                },
                {
                  "internalType": "UFixed6",
                  "name": "targetUtilization",
                  "type": "uint256"
                }
              ],
              "internalType": "struct UJumpRateUtilizationCurve6",
              "name": "utilizationCurve",
              "type": "tuple"
            },
            {
              "components": [
                {
                  "internalType": "UFixed6",
                  "name": "k",
                  "type": "uint256"
                },
                {
                  "internalType": "Fixed6",
                  "name": "min",
                  "type": "int256"
                },
                {
                  "internalType": "Fixed6",
                  "name": "max",
                  "type": "int256"
                }
              ],
              "internalType": "struct PController6",
              "name": "pController",
              "type": "tuple"
            },
            {
              "internalType": "UFixed6",
              "name": "minMargin",
              "type": "uint256"
            },
            {
              "internalType": "UFixed6",
              "name": "minMaintenance",
              "type": "uint256"
            },
            {
              "internalType": "uint256",
              "name": "staleAfter",
              "type": "uint256"
            },
            {
              "internalType": "bool",
              "name": "makerReceiveOnly",
              "type": "bool"
            }
          ],
          "internalType": "struct RiskParameter",
          "name": "newRiskParameter",
          "type": "tuple"
        }
      ],
      "name": "updateRiskParameter",
      "outputs": [],
      "stateMutability": "nonpayable",
      "type": "function"
    },
    {
      "inputs": [],
      "name": "verifier",
      "outputs": [
        {
          "internalType": "contract IVerifier",
          "name": "",
          "type": "address"
        }
      ],
      "stateMutability": "view",
      "type": "function"
    },
    {
      "inputs": [
        {
          "internalType": "uint256",
          "name": "timestamp",
          "type": "uint256"
        }
      ],
      "name": "versions",
      "outputs": [
        {
          "components": [
            {
              "internalType": "bool",
              "name": "valid",
              "type": "bool"
            },
            {
              "internalType": "Fixed6",
              "name": "price",
              "type": "int256"
            },
            {
              "components": [
                {
                  "internalType": "Fixed6",
                  "name": "_value",
                  "type": "int256"
                }
              ],
              "internalType": "struct Accumulator6",
              "name": "makerValue",
              "type": "tuple"
            },
            {
              "components": [
                {
                  "internalType": "Fixed6",
                  "name": "_value",
                  "type": "int256"
                }
              ],
              "internalType": "struct Accumulator6",
              "name": "longValue",
              "type": "tuple"
            },
            {
              "components": [
                {
                  "internalType": "Fixed6",
                  "name": "_value",
                  "type": "int256"
                }
              ],
              "internalType": "struct Accumulator6",
              "name": "shortValue",
              "type": "tuple"
            },
            {
              "components": [
                {
                  "internalType": "Fixed6",
                  "name": "_value",
                  "type": "int256"
                }
              ],
              "internalType": "struct Accumulator6",
              "name": "makerFee",
              "type": "tuple"
            },
            {
              "components": [
                {
                  "internalType": "Fixed6",
                  "name": "_value",
                  "type": "int256"
                }
              ],
              "internalType": "struct Accumulator6",
              "name": "takerFee",
              "type": "tuple"
            },
            {
              "components": [
                {
                  "internalType": "Fixed6",
                  "name": "_value",
                  "type": "int256"
                }
              ],
              "internalType": "struct Accumulator6",
              "name": "makerOffset",
              "type": "tuple"
            },
            {
              "components": [
                {
                  "internalType": "Fixed6",
                  "name": "_value",
                  "type": "int256"
                }
              ],
              "internalType": "struct Accumulator6",
              "name": "takerPosOffset",
              "type": "tuple"
            },
            {
              "components": [
                {
                  "internalType": "Fixed6",
                  "name": "_value",
                  "type": "int256"
                }
              ],
              "internalType": "struct Accumulator6",
              "name": "takerNegOffset",
              "type": "tuple"
            },
            {
              "components": [
                {
                  "internalType": "Fixed6",
                  "name": "_value",
                  "type": "int256"
                }
              ],
              "internalType": "struct Accumulator6",
              "name": "settlementFee",
              "type": "tuple"
            },
            {
              "components": [
                {
                  "internalType": "Fixed6",
                  "name": "_value",
                  "type": "int256"
                }
              ],
              "internalType": "struct Accumulator6",
              "name": "liquidationFee",
              "type": "tuple"
            }
          ],
          "internalType": "struct Version",
          "name": "",
          "type": "tuple"
        }
      ],
      "stateMutability": "view",
      "type": "function"
    }
  ],
  "transactionHash": "0xa151797d36b3f44e4323c18f7193f0a94791f41c2ec10595f3b78df1e11832d9",
  "args": [
    "0x6FaabfA2fDb093A027Ed16F291ADc7F07780014A"
  ],
  "numDeployments": 5,
  "solcInputHash": "4a749b9e229dad57d1bfad3371176aa9",
  "bytecode": "0x60a0346200007757601f62005de038819003918201601f19168301916001600160401b038311848410176200007b578084926020946040528339810103126200007757516001600160a01b03811681036200007757608052604051615d50908162000090823960805181818161197c015261210d0152f35b5f80fd5b634e487b7160e01b5f52604160045260245ffdfe6080806040526004361015610012575f80fd5b5f905f3560e01c90816305349f56146122cf5750806309218e91146122aa5780630a009097146122825780630aaffd2a146121be5780630cdfebfa1461216e5780632b56d95c1461213c5780632b7ac3f3146120f857806338af3eed146120d05780634468d9b814611fcf5780634549a62914611f9957806355f5751014611f555780635b4b969514611f045780636a256b2914611e2f5780636e19368014611dea5780636ebc51e114611b58578063736a01df1461187a5780637cc4d340146118275780637dc0d1d0146117fe57806387aee00e146117425780638fd3ab801461167e57806390dbc10b1461128757806391eece2814610e97578063977b1f5f14610a06578063a05f990614610986578063a4d15487146107e1578063ac9ed34b14610798578063ad4d4e2914610764578063b68af80a1461071b578063b6a597dd146105d4578063c45a01551461059f578063c496969b1461056b578063cee6c2ec1461050c578063d1718d9a14610306578063e20ccec3146102d0578063f9f94e34146101d35763fc0c546a146101aa575f80fd5b346101d057806003193601126101d057546040516001600160a01b039091168152602090f35b80fd5b50346101d05760203660031901126101d0576004356001600160a01b03818116918290036102cc5760046020825f80516020615cfb833981519152541660405192838092638da5cb5b60e01b82525afa9081156102c1578491610292575b5016330361027a57600580546001600160a01b031916821790556040519081527fc258faa9a17ddfdf4130b4acff63a289202e7d5f9e42f366add65368575486bc90602090a180f35b604051634d193d1f60e01b8152336004820152602490fd5b6102b4915060203d6020116102ba575b6102ac81836124b4565b8101906125c4565b5f610231565b503d6102a2565b6040513d86823e3d90fd5b5f80fd5b50346101d057806003193601126101d0576102e96126c0565b506101806102f7601661465c565b610304604051809261243d565bf35b50346101d05761012080600319360112610508576040519061032881836124b4565b6004358252602435602083015260443560408301526064356060830152608435608083015260a43560a083015260c43560c083015260e43580151581036102cc5760e08301526101043580151581036102cc57610100838101919091525f80516020615cfb83398151915254604051638da5cb5b60e01b81526001600160a01b039182169190602081600481865afa9081156104fd5787916104de575b5016330361027a578160048693731Af5F0EbDdcf79B2e8fA4A4B9348d3C9865981d0936040519283809263ad4d4e2960e01b82525afa9182156102c15784926104b1575b5050813b156104a25761044b610244849260405194859384926373a328f760e11b845260096004850152610440602485018c612544565b61014484019061295a565b5af480156104a65761048d575b50507fc79d01d8ced0fc2bdca319d00a3390e9c1915af6d08ab11334a71edf7017abf5916104896040518092612544565ba180f35b81610497916124b4565b6104a257825f610458565b8280fd5b6040513d84823e3d90fd5b6104d09250803d106104d7575b6104c881836124b4565b8101906128ce565b5f80610409565b503d6104be565b6104f7915060203d6020116102ba576102ac81836124b4565b5f6103c5565b6040513d89823e3d90fd5b5080fd5b50346101d05760403660031901126101d0576004356001600160a01b03811691908290036102cc57604061055e9160c0936105456125e3565b508152601f602052818120602435825260205220614702565b6103046040518092612338565b50346101d05760203660031901126101d0576102f760406101809261058e6126c0565b50600435815260146020522061465c565b50346101d057806003193601126101d0575f80516020615cfb833981519152546040516001600160a01b039091168152602090f35b50346101d05760403660031901126101d0577f6fee9688c285c5c5c97d6a1a29adced674e6b2ad0888b8ad2116b58a8b3ea2486001815410156107025760019055303b1515806106fb575b6106e257335f80516020615cfb83398151915255303b1515806106f4575b6106e25760015f80516020615cdb833981519152556001600160a01b03600435818116908190036102cc5782546001600160a01b03199081169091178355602435918216918290036104a2576002541617600255807f2801b00eb06461cf9fcb9758b5fafd884ff06a86177386f73b6c49f0bf5a5af0557fbe9b076dc5b65990cca9dd9d7366682482e7817a6f6bc7f4faf4dc32af497f32602060405160018152a180f35b60405163b9a621e160e01b8152600490fd5b508061063d565b508061061f565b604051631edb9c6d60e11b815260016004820152602490fd5b50346101d05760403660031901126101d0576001600160a01b03600435818116908190036102cc578260409160209452601b845281812060243582528452205416604051908152f35b50346101d057806003193601126101d05761077d612bb2565b5061012061078b60096145d8565b6103046040518092612544565b50346101d05760403660031901126101d0576001600160a01b03600435818116908190036102cc578260409160209452601c845281812060243582528452205416604051908152f35b50346101d057806003193601126101d0575f80516020615cfb83398151915254604051638da5cb5b60e01b81526001600160a01b03916020908290600490829086165afa801561097b578291849161095c575b5016330361027a57819081610849600b614152565b9160c08301908151600161085c82614579565b1461093a575b5081515f1961087082614579565b14610913575b505080516040519081527f25e5e4c41e0fec8db036b4544824413a63ffe455e2b4decd71d72932f607ff5960203392a252734bDF93AEB15645d8c3B08902933BC013a3B7eB5F90813b1561090f576108ef6101448492604051948593849263045a766b60e01b8452600b6004850152602484019061271b565b5af480156104a6576108fe5750f35b81610908916124b4565b6101d05780f35b5050fd5b61092b610926610933938654169261536b565b6142b1565b903390614595565b5f80610876565b6109569061094e610926848754169261536b565b9033906142cb565b5f610862565b610975915060203d6020116102ba576102ac81836124b4565b5f610834565b6040513d85823e3d90fd5b50346101d057806003193601126101d05761099f612b5c565b506101206109ad600b614152565b602060e06040519280518452828101518385015260408101516040850152606081015160608501526080810151608085015260a081015160a085015260c081015160c08501520151805160e08401520151610100820152f35b50346101d05760e03660031901126101d0576004356001600160a01b0380821682036102cc5760a435151560a435036102cc578060c4351660c435036102cc5760025f80516020615cdb8339815191525414610e8557602060049160025f80516020615cdb833981519152555f80516020615cfb833981519152541660405192838092635c975abb60e01b82525afa90811561097b578391610e4b575b50610e3957818080610ab9938160c43591612e0f565b906040516397cd07c560e01b8152610ad460048201836129c0565b610ae2610a44820184612a87565b6084356110c48201526024356110e48201526044356111048201526064356111248201526080816111448173b6bB7e86B55136fA8B48693bb2028F54CAf2Bd865af480156102c1578490859286908792610ded575b50608085015193610140870151610b5b608089015192610b556126c0565b50615342565b93610b696020830151615342565b938a85128686810312811690878781031390151617610dd957610b8b90615342565b610b986040840151615342565b918b83128284810312811690838581031390151617610dc5576060610bbf610bc792615342565b940151615342565b938b85128486810312811690858781031390151617610dc5578b8b8b6101808c8c60ff8d8d8d8d8d8b9d8c610c2b610d459f610c26610c1b610c0a8a8c0361536b565b610c1588880361536b565b90613b7d565b610c1589890361536b565b614767565b9881878903135f14610dbc57610c4287890361536b565b9180888a03125f14610db357610c59888a0361536b565b9381868203135f14610daa57610c7086820361536b565b9582818303125f14610d9f57610c86910361536b565b9581888203135f14610d9657610c9d88820361536b565b9782818303125f14610d8b57610cb3910361536b565b9760a43515610d84576001995b149a8b15610d7d57819b5b15610d75579b5b610cdf6040519e8f6124b4565b8d5260208d015260408c015260608b015260808a015260a089015260c088015260e087015261010086015216610120840152610140830152610160820152610d2681615918565b1580610d65575b15610d59575b60c43592610d3f6125e3565b9261316a565b60015f80516020615cdb8339815191525580f35b60016020820152610d33565b50610d6f8161593d565b15610d2d565b50809b610cd2565b809b610ccb565b8199610cc0565b5050610cb38161536b565b610c9d8261536b565b5050610c868161536b565b610c708261536b565b610c598161536b565b610c428261536b565b634e487b7160e01b8c52601160045260248cfd5b634e487b7160e01b8b52601160045260248bfd5b93505050506080813d608011610e31575b81610e0b608093836124b4565b81010312610e2d5780516020820151604083015160609093015190925f610b37565b8380fd5b3d9150610dfe565b604051634b94d2bb60e01b8152600490fd5b90506020813d602011610e7d575b81610e66602093836124b4565b810103126104a257610e7790612615565b5f610aa3565b3d9150610e59565b6040516345f6780960e11b8152600490fd5b50346101d05760c03660031901126101d0576004356001600160a01b0380821682036102cc5760a435151560a435036102cc5760025f80516020615cdb8339815191525414610e8557602060049160025f80516020615cdb833981519152555f80516020615cfb833981519152541660405192838092635c975abb60e01b82525afa90811561097b57839161124d575b50610e39578180808080610f3a95612e0f565b6040516397cd07c560e01b815290610f5560048301846129c0565b610f63610a44830182612a87565b6084356110c48301526024356110e48301526044356111048301526064356111248301526080826111448173b6bB7e86B55136fA8B48693bb2028F54CAf2Bd865af480156102c1578490859386908792611205575b50608086015194610140850151610fd6608087015192610b556126c0565b93610fe46020830151615342565b938a85128686810312811690878781031390151617610dd95761100690615342565b6110136040840151615342565b918b83128284810312811690838581031390151617610dc5576060610bbf61103a92615342565b938b85128486810312811690858781031390151617610dc5578a8a8a8e8b60ff8c8c8c859c610d459c879c611086899d610c26610c0a61107b898b0361536b565b610c1587870361536b565b9789868803135f146111fc5761109d86880361536b565b908a878903125f146111f3576110b487890361536b565b928b858203135f146111ea576110cb85820361536b565b948c818303125f146111df576110e1910361536b565b948b878203135f146111d6576110f887820361536b565b968c818303125f146111cb5761110e910361536b565b9660a435156111c4576001985b14998a156111bd578b9a5b156111b6579a5b60206040519e8f90611141610180836124b4565b8152015260408d015260608c015260808b015260a08a015260c089015260e08801526101008701521661012085015261014084015261016083015261118582615918565b15806111a6575b1561119a575b610d3f6125e3565b60016020830152611192565b506111b08261593d565b1561118c565b508a61112d565b809a611126565b8b9861111b565b505061110e8b61536b565b6110f88c61536b565b50506110e18b61536b565b6110cb8c61536b565b6110b48b61536b565b61109d8a61536b565b94505050506080823d608011611245575b81611223608093836124b4565b81010312610e2d5781516020830151604084015160609094015190935f610fb8565b3d9150611216565b90506020813d60201161127f575b81611268602093836124b4565b810103126104a25761127990612615565b5f610f27565b3d915061125b565b50346101d0576102e03660031901126101d0576040516112a96101a0826124b4565b60043581526020602435818301526112c2366044612506565b604083015260608060c319360112610e2d576040516112e182826124b4565b60c435815260e435838201526101043560408201528184015261012435608084015261014490813560a08501526101643560c085015261132336610184612506565b60e0850152806102031936011261167a576040519261134282856124b4565b6102043584526102243581850152610244356040850152610100938486015261026435610120860152610284356101408601526102a4356101608601526102c43580151581036102cc5761018086015260018060a01b03908160055416331415908161160d575b506115fb57856113b9600b614152565b946113c4600d612bf8565b926113cf6006613791565b976004837361FCC50003b0fbabAd47b5aC74bEcb6D1e0361d1935f80516020615cfb83398151915254166040519283809263ad4d4e2960e01b82525afa9384156115f05785946115d1575b5050813b15610e2d5761040461145291859361145d60405196879586946302903c7960e21b8652600660048701526024860190612936565b61030484019061295a565b5af480156104a6576115bc575b506114be9181604061147c6006613791565b98015160406114b1611491828c015195614780565b94856114a060a08d015161536b565b9782858c8b95015191015190615b10565b9682015191015190615b10565b908582820392128183128116918313901516176115a85760c08301805186838203931281841281169184139015161761159457528391734bDF93AEB15645d8c3B08902933BC013a3B7eB5F9190823b15610e2d57839161153b91604051948593849263045a766b60e01b8452600b6004850152602484019061271b565b5af480156104a65761157f575b506040517f685ea8dd49033251570436255683e840d43dd33fbc52b69e04450747dc56fed290806115798582612388565b0390a180f35b81611589916124b4565b61050857815f611548565b634e487b7160e01b86526011600452602486fd5b634e487b7160e01b85526011600452602485fd5b6115c78280926124b4565b6101d0575f61146a565b6115e8929450803d106104d7576104c881836124b4565b915f8061141a565b6040513d87823e3d90fd5b604051639bca062560e01b8152600490fd5b9050600481835f80516020615cfb833981519152541660405192838092638da5cb5b60e01b82525afa90811561166f5783928992611652575b5050163314155f6113a9565b6116689250803d106102ba576102ac81836124b4565b5f80611646565b6040513d8a823e3d90fd5b8480fd5b50346101d057806003193601126101d0575f80516020615cfb83398151915254604051638da5cb5b60e01b81526001600160a01b03916020908290600490829086165afa90811561097b578391611723575b5016330361027a578073284FBBC0b642b89Ab2db3A99779536696fa28f21803b156117205781602491604051928380926317251b7160e31b8252600d60048301525af480156104a6576108fe5750f35b50fd5b61173c915060203d6020116102ba576102ac81836124b4565b5f6116d0565b50346101d05760203660031901126101d0576117766040610180926117656127e5565b50600435815260136020522061442f565b604051908051151582526020810151602083015260408101515160408301526060810151516060830152608081015151608083015260a08101515160a083015260c08101515160c083015260e08101515160e0830152610100808201515190830152610120808201515190830152610140808201515190830152610160809101515190820152f35b50346101d057806003193601126101d0576002546040516001600160a01b039091168152602090f35b50346101d05760403660031901126101d0576004356001600160a01b03811691908290036102cc5760406102f791610180936118616126c0565b5081526015602052818120602435825260205220614044565b50346101d0576101c03660031901126101d0576004356001600160a01b0380821682036102cc576101803660231901126104a2576101a435906001600160401b038211610e2d5736602383011215610e2d57816004013591846118dc846124eb565b916118ea60405193846124b4565b84835260209436602482840101116104a25780602487930183860137830101525f80516020615cdb833981519152926002845414610e855760028455600481845f80516020615cfb833981519152541660405192838092635c975abb60e01b82525afa9182156104fd578792611b1e575b5050610e3957606435620f424060026119748284615326565b14611b0c57837f00000000000000000000000000000000000000000000000000000000000000001695863b15611afd5760405193635f2d6ed760e01b855260243580600487015260443591826024880152856044880152608435938885168086036102cc57606489015260a435958987168088036102cc5760848a015260c435988960a482015260e4359c8b8e9c8d16809d036102cc578f9c60c4840152610104918235968288168089036102cc5760e48601526101249384359384168094036102cc578f94611a798795936101a087959386948a968601526101449081359086015261016490813590860152610184908135908601528401526101a4830190612771565b03925af18015611b0157611ad3575b509160019b611aca8b8e8180611acf9f839f9d9b99819f9d9b998b9083611ac484611abf8f611ab985985f196127af565b906127af565b61430e565b9161433c565b61433c565b5580f35b99611ae981809a9896949c9b999795939b6124b4565b611afd57919395975f999193959799611a88565b8780fd5b6040513d8d823e3d90fd5b604051630f4e914b60e11b8152600490fd5b90809250813d8311611b51575b611b3581836124b4565b81010312611b4d57611b4690612615565b5f8061195b565b8580fd5b503d611b2b565b50346102cc57602090816003193601126102cc576001600160a01b039060043582811691908290036102cc578133141580611d6c575b611d5a575f92611b9e600b614152565b835f5260108652611bb160405f206139c5565b90600487845f80516020615cfb833981519152541660405192838092638da5cb5b60e01b82525afa8015611cf15784915f91611d3d575b50168514611d2c575b82600254168514611d14575b82600554168514611cfc575b5f611c1a6060840197885190613b7d565b9652734bDF93AEB15645d8c3B08902933BC013a3B7eB5F90813b156102cc57611c646101445f92604051948593849263045a766b60e01b8452600b6004850152602484019061271b565b5af48015611cf157611cda575b50611c869084845260108752604084206141f1565b83611c97575b505050604051908152f35b611ca691541661094e846142b1565b604051908282527f4a34429a0ef883c4301d5b40aa8ae85d4eb024946062f2c7ebd8320acedc831a843393a35f8080611c8c565b611ce79193505f906124b4565b5f91611c86611c71565b6040513d5f823e3d90fd5b5f611d0d6080830197885190613b7d565b9652611c09565b5f611d256060830197885190613b7d565b9652611bfd565b945060408501945f86519652611bf1565b611d549150893d8b116102ba576102ac81836124b4565b5f611be8565b604051633222db4560e01b8152600490fd5b50604484845f80516020615cfb83398151915254166040519283809263131bac4760e11b82528760048301523360248301525afa908115611cf1575f91611db5575b5015611b8e565b90508481813d8311611de3575b611dcc81836124b4565b810103126102cc57611ddd90612615565b5f611dae565b503d611dc2565b346102cc5760203660031901126102cc576004356001600160a01b038116908190036102cc57611e186126c0565b505f5260196020526101806102f760405f20614044565b346102cc5760203660031901126102cc576004356001600160a01b0380821682036102cc575f80516020615cdb833981519152906002825414610e85576020600491600284555f80516020615cfb833981519152541660405192838092635c975abb60e01b82525afa908115611cf1575f91611eca575b50610e3957611ec7611eb9600193613a49565b611ec281613b8a565b613e7f565b55005b90506020813d602011611efc575b81611ee5602093836124b4565b810103126102cc57611ef690612615565b83611ea6565b3d9150611ed8565b346102cc5760203660031901126102cc576004356001600160a01b038116908190036102cc57611f3261259e565b505f5260106020526080611f4860405f206139c5565b6103046040518092612315565b346102cc5760203660031901126102cc576004356001600160a01b038116908190036102cc57611f8361259e565b505f5260116020526080611f4860405f20613911565b346102cc575f3660031901126102cc57611fb1612642565b50611fcb611fbf6006613791565b60405191829182612388565b0390f35b346102cc5760803660031901126102cc576004356001600160a01b0380821682036102cc5760643581811681036102cc575f80516020615cdb833981519152916002835414610e85576020600491600285555f80516020615cfb833981519152541660405192838092635c975abb60e01b82525afa908115611cf1575f91612096575b50610e39575f8161206c828080611ec7968160019a612e0f565b61208d60808301516101408301516080840151916044359160243591613056565b90610d3f6125e3565b90506020813d6020116120c8575b816120b1602093836124b4565b810103126102cc576120c290612615565b84612052565b3d91506120a4565b346102cc575f3660031901126102cc576004546040516001600160a01b039091168152602090f35b346102cc575f3660031901126102cc576040517f00000000000000000000000000000000000000000000000000000000000000006001600160a01b03168152602090f35b346102cc5760203660031901126102cc576121556125e3565b506004355f52601e60205260c061055e60405f20612c8f565b346102cc5760403660031901126102cc576004356001600160a01b038116908190036102cc5761219c61259e565b505f52601a60205260405f206024355f526020526080611f4860405f20612c42565b346102cc5760203660031901126102cc576004356001600160a01b03818116918290036102cc5760046020825f80516020615cfb833981519152541660405192838092638da5cb5b60e01b82525afa908115611cf1575f91612263575b5016330361027a57600480546001600160a01b031916821790556040519081527feee59a71c694e68368a1cb0d135c448051bbfb12289e6c2223b0ceb100c2321d90602090a1005b61227c915060203d6020116102ba576102ac81836124b4565b8361221b565b346102cc575f3660031901126102cc576005546040516001600160a01b039091168152602090f35b346102cc575f3660031901126102cc576122c261259e565b506080611f48600d612bf8565b346102cc5760403660031901126102cc576004356001600160a01b0381811692918390036102cc576020925f52601d835260405f206024355f52835260405f2054168152f35b606080918051845260208101516020850152604081015160408501520151910152565b60a0809180518452602081015160208501526040810151604085015260608101516060850152608081015160808501520151910152565b6040809180518452602081015160208501520151910152565b9190916102c06102e082019380518352602081015160208401526123b460408201516040850190612315565b6123c6606082015160c085019061236f565b608081015190610120918285015260a0810151610140908186015260c082015190610160918287015260e0830151936124056101809586890190612315565b61241961010085015161020089019061236f565b8301516102608701528201516102808601528101516102a085015201511515910152565b805182526020810151602083015260408101516040830152606081015160608301526080810151608083015260a081015160a083015260c081015160c083015260e081015160e083015261010080820151908301526101208082015190830152610140808201519083015261016080910151910152565b601f909101601f19168101906001600160401b038211908210176124d757604052565b634e487b7160e01b5f52604160045260245ffd5b6001600160401b0381116124d757601f01601f191660200190565b91908260809103126102cc576040516125206080826124b4565b60608082948035845260208101356020850152604081013560408501520135910152565b805182526020810151602083015260408101516040830152606081015160608301526080810151608083015260a081015160a083015260c081015160c083015260e0810151151560e0830152610100809101511515910152565b604051906125ad6080836124b4565b5f6060838281528260208201528260408201520152565b908160209103126102cc57516001600160a01b03811681036102cc5790565b604051906125f260c0836124b4565b5f60a0838281528260208201528260408201528260608201528260808201520152565b519081151582036102cc57565b604051906126316060836124b4565b5f6040838281528260208201520152565b604051906126526101a0836124b4565b5f6101808382815282602082015261266861259e565b6040820152612675612622565b60608201528260808201528260a08201528260c082015261269461259e565b60e08201526126a1612622565b6101008201528261012082015282610140820152826101608201520152565b604051906126d0610180836124b4565b5f610160838281528260208201528260408201528260608201528260808201528260a08201528260c08201528260e08201528261010082015282610120820152826101408201520152565b602060e06101009280518552828101518386015260408101516040860152606081015160608601526080810151608086015260a081015160a086015260c081015160c08601520151805160e08501520151910152565b91908251928382525f5b84811061279b575050825f602080949584010152601f8019910116010190565b60208183018101518483018201520161277b565b81810292915f8212600160ff1b8214166127d15781840514901517156127d157565b634e487b7160e01b5f52601160045260245ffd5b6040908151916127f7610180846124b4565b610160835f81526128c76020935f85840152805161281586826124b4565b5f815281840152805161282886826124b4565b5f81526060840152805161283c86826124b4565b5f81526080840152805161285086826124b4565b5f815260a0840152805161286486826124b4565b5f815260c0840152805161287886826124b4565b5f815260e0840152805161288c86826124b4565b5f815261010084015280516128a186826124b4565b5f815261012084015280516128b686826124b4565b5f81526101408401525193846124b4565b5f83520152565b809161010092839103126102cc5760e0906128ec60405193846124b4565b805183526020810151602084015260408101516040840152606081015160608401526080810151608084015260a081015160a084015260c081015160c0840152015160e082015290565b6102c09080518352602081015160208401526123b460408201516040850190612315565b60e08091805184526020810151602085015260408101516040850152606081015160608501526080810151608085015260a081015160a085015260c081015160c08501520151910152565b60408091805184526020810151602085015201511515910152565b906108c0612a859260018060a01b0381511683526129e660208201516020850190612544565b6040810151906129fc6101409283860190612936565b612a0f60608201516104208601906129a5565b6080810151610480850152612a2d60a08201516104a086019061271b565b612a4060c08201516105c0860190612315565b612a5360e0820151610640860190612315565b612a676101008201516106c0860190612315565b612a7b61012082015161074086019061243d565b015191019061243d565b565b6101a061066091805115158452602081015115156020850152604081015160018060a01b0380911660408601528060608301511660608601526080820151608086015260a08201511660a085015260c081015160c0850152612af160e082015160e086019061243d565b612b0561010082015161026086019061243d565b612b196101208201516103e0860190612315565b612b2d610140820151610460860190612315565b612b416101608201516104e0860190612338565b612b556101808201516105a0860190612338565b0151910152565b60405190612b6c610100836124b4565b815f81525f60208201525f60408201525f60608201525f60808201525f60a08201525f60c082015260e060405191612ba56040846124b4565b5f83525f60208401520152565b60405190612bc2610120836124b4565b5f610100838281528260208201528260408201528260608201528260808201528260a08201528260c08201528260e08201520152565b612c0061259e565b5054604051906001600160401b03612c196080846124b4565b63ffffffff82168352808260401c1660208401528160801c16604083015260c01c606082015290565b612c4a61259e565b505460405190612c5b6080836124b4565b8060d01b60d01d825265ffffffffffff8160301c1660208301528060601b60c01d604083015260201b60c01d606082015290565b612c976125e3565b5054604051906001600160401b0390612cb160c0846124b4565b63ffffffff811683525f6020840152818160201c166040840152818160601c16606084015260a01c1660808201525f60a082015290565b60405190612cf8610160836124b4565b815f8152612d04612bb2565b6020820152612d11612642565b6040820152612d1e612622565b60608201525f6080820152612d31612b5c565b60a0820152612d3e61259e565b60c0820152612d4b61259e565b60e0820152612d5861259e565b610100820152612d666126c0565b610120820152610140612d776126c0565b910152565b60405190612d8c6101c0836124b4565b5f6101a0838281528260208201528260408201528260608201528260808201528260a08201528260c0820152612dc06126c0565b60e0820152612dcd6126c0565b610100820152612ddb61259e565b610120820152612de961259e565b610140820152612df76125e3565b610160820152612e056125e3565b6101808201520152565b90612e33606095949297969397612e24612ce8565b50612e2d612d7c565b50613a49565b968793612e3f85613b8a565b612e47612d7c565b968793612e6b612e5a60e089015161537a565b6101208181890152890151906153ba565b608461010094612e91612e80878b015161537a565b61014081818b01528b0151906153ba565b60a08901948551515f5260209660148852604096612eb0885f2061465c565b60e08b015260018060a01b039b8c9a8b92838351165f5260158c528a5f209460c08401958651515f528d52612ee68c5f20614044565b9083015251515f52601e8b52612efd8a5f20612c8f565b610160820152828251165f52601f8b52895f208451515f528b52612f228a5f20614702565b610180820152828251165f52601b8b52895f208451515f528b52828a5f2054168a820152828251165f52601c8b52895f208451515f528b5288838b5f20541691015251165f52601d8852865f209051515f52875287865f20541660a08d01526101a08c01528c8780805f80516020615cfb8339815191525416925116928751998a96879563029138af60e21b875260048701523360248701521660448501521660648301525afa801561304c575f935f925f92612ffc575b505060808801521515908601521515845216612ff4575090565b60c082015290565b92509350506060833d606011613044575b8161301a606093836124b4565b810103126102cc5761302b83612615565b90613037838501612615565b9301519092905f80612fda565b3d915061300d565b50513d5f823e3d90fd5b94936130869192936130666126c0565b9687526040870152836131615760ff5f5b166020870152610c268461536b565b61016085015261309582614579565b801591821561314c575b8215613130575b5050156130ee575f8113156130e5576130be8161536b565b60a08401525f8112156130db576130d49061536b565b60e0830152565b506130d45f61536b565b6130be5f61536b565b5f811315613127576130ff8161536b565b6101008401525f81121561311d576131169061536b565b60c0830152565b506131165f61536b565b6130ff5f61536b565b61314491925061313f90614780565b614579565b145f806130a6565b915061315a61313f83614780565b159161309f565b60ff6001613077565b93949190946101009384602087015101945f955161377f57608087018051918901918251908151811161373b575b5050519160e089019283519081518111613709575b5050610120956131c086888c01516153ba565b610140946131d187878d01516153ba565b6131dc878551615504565b6131e7878651615504565b6131f487898c0151615504565b61320187878c0151615504565b610160808c0196613213858951615612565b6101808d0199613224868c51615612565b60c08d01516040808c0151910180515f83820193841291129080158216911516176127d157528901516136fe575b88015115908115916136f1575b506136bf575b5060a082015161367b575b5061327a85615918565b158061366b575b15613607575b73aD2567811a15E9B468b52888A6d8D9ae1d89506990813b15611afd576132d16113048a8c946132f58c956132dc6040519889978896638df462cb60e01b885260048801906129c0565b610a44860190612a87565b6132ea6110c485018d61243d565b611244840190612338565b5af480156104fd579087916135f2575b50506133579061332960a08901938451518952601460205260408920905190615110565b87516001600160a01b0316875260156020908152604080892060c08b0151518a52909152872090519061523e565b51518452601e60205260408420905161336f81615be8565b805160408083015160608085015160809095015160a01b600160a01b600160e01b031694901b600160601b600160a01b0316602091821b600160201b600160601b031663ffffffff9490941693909317929092179290921790925585516001600160a01b03168552601f825280852060c087015151865290915283209151946133f786615be8565b60208601516002906134119060016001603f1b03906159a2565b146135e057602086015161342e9060016001603f1b0319906159a2565b156135e05760a086015160029061344d906001600160401b0390615326565b146135e05785516020808801516040808a01516060808c015160808d015160a09d8e0151918e1b600160a01b600160e01b031693831b600160601b600160a01b031695871b600160201b600160601b031663ffffffff98909816979097179490941791909117885591811b600160401b600160801b03166001600160401b0394909416939093176001968701558383015188516001600160a01b039081168952601b845284892060c08b018051518b52908552858a2080546001600160a01b0319908116948416949094179055928601518a5182168a52601c8552858a208451518b528552858a20805484169183169190911790559490990151885185168852601d835283882091515188529152818620805490981692169190911790955580850151612a85959261357e82614579565b146135c0575b5001515f1961359282614579565b1461359f575b5050613e7f565b61094e6109266135b99360018060a01b039054169261536b565b5f80613598565b6135da9061092b61092660018060a01b038754169261536b565b5f613584565b604051637e81879b60e11b8152600490fd5b816135fc916124b4565b611b4d57855f613305565b60025488516001600160a01b039182169116813b156102cc575f91604483926040519485938492631a9be9fd60e11b845230600485015260248401525af18015611cf157613656575b50613287565b6136639197505f906124b4565b5f955f613650565b506136758561593d565b15613281565b60a08a0180516001600160a01b039182918216156136b5575b51169116036136a3575f613270565b604051639dbdc5fd60e01b8152600490fd5b8184168152613694565b60608b0180516001600160a01b039182918216156136e7575b51169116036136a3575f613265565b81841681526136d8565b905087015115155f61325f565b3360408e0152613252565b613712916154e5565b5f6101608a015161372281615802565b5260a088015161373281516147b4565b90525f806131ad565b613744916154e5565b5f6101808a015161375481615802565b525f60408a01525f60608a01525f60a08a015260c088015161377681516147b4565b90525f80613198565b604051630b8b968760e31b8152600490fd5b6101a09061379d612642565b50805490600260018201549101549162ffffff9160608365ffffffffffff936137ca858560481c166147c2565b6040938451916137db6080846124b4565b848460301c168352848460481c1660208401528484831c168684015281830152613809878760181c166147c2565b9085519161381782846124b4565b858560781c168352858560901c1660208401528683015261383c888560a81c166147c2565b9286519661384b6080896124b4565b868960781c168852868960901c166020890152868960a81c1681890152868960c01c168389015280519861387f848b6124b4565b8a8d168a5260081b60e01d60208a01528b60b01b60e01d818a01526138a681519d8e6124b4565b8686168d528c6020888860181c169101528c01528a0152608089015260d81c1660a0870152828560b01c1660c087015260e0860152610100850152808360501c166101208501528260801c166101408401528160e01c1661016083015260f81c151561018082015290565b61391961259e565b50600181549101548160f81c1590815f146139b85760038116915b156139a35760021c60016001603e1b0316905b8061399c57815b6001820361399357600281925b0361398b57915b63ffffffff604051946139766080876124b4565b16845260208401526040830152606082015290565b505f91613962565b60025f9261395b565b5f9161394e565b50602282901c60016001603e1b031690613947565b60038360201c1691613934565b6139cd61259e565b50546040519063ffffffff6139e36080846124b4565b8181168352602082811c90911690830152608081811b60c01d60408401521c6001600160401b0316606082015290565b91908260609103126102cc57604051613a2d6060826124b4565b6040612d77818395805185526020810151602086015201612615565b906004613a54612ce8565b6001600160a01b03938416808252909390613a6f60096145d8565b60208601526080613a806006613791565b926040938488015260025416835194858092631006976960e11b82525afa8015613b73575f905f90613b31575b613b29945060808701526060860152613ac6600b614152565b60a0860152805f526010602052613ade825f206139c5565b60c0860152613aed600d612bf8565b60e0860152805f526011602052613b05825f20613911565b610100860152613b15601661465c565b6101208601525f5260196020525f20614044565b610140830152565b505060803d608011613b6c575b613b4881856124b4565b8301926080818503126102cc576060613b64613b299583613a13565b910151613aad565b503d613b3e565b82513d5f823e3d90fd5b919082018092116127d157565b9060405191613b9a6060846124b4565b613ba26127e5565b835260208301613bb061259e565b8152613bba612622565b604085015260e0820151515f526013602052613bd860405f2061442f565b845260018060a01b038251165f52601a60205260405f20610100830151515f52602052613c0760405f20612c42565b905260018060a01b03600254169260e08201515190604051630e0886f960e41b8152600492600482015260a08160248181995afa908115611cf1575f91613e4f575b50806040830152613c5f60a085019182516156a3565b613c676126c0565b945b815160208151910151809114159081613e09575b5015613cba5760208251015160018101809111613ca85786613ca39181519086896148f4565b613c69565b87601186634e487b7160e01b5f52525ffd5b60c08501805160208151910151141580613dad575b15613cf95760209051015160018101809111613ca85786613cf4918151908689614db1565b613cba565b5095509150925061010060208301510151613da857606082019081515160e0840151518111613d7b575b50505151610100820151518111613d3957505050565b612a859260c08301906020825101519160018060a01b038551165f526015602052602060405f20915101515f52602052613d7560405f20614044565b93614db1565b6020613da19251015190815f526014602052613d9960405f2061465c565b9186866148f4565b5f80613d23565b505050565b50955060018060a01b038551165f52601560205260405f2060208751015160018101809111613df7575f52602052613de760405f20614044565b9560608601515187511115613ccf565b88601187634e487b7160e01b5f52525ffd5b809297506001915001809111613e3d575f526014602052613e2c60405f2061465c565b94606085015151865111155f613c7d565b86601185634e487b7160e01b5f52525ffd5b613e71915060a03d60a011613e78575b613e6981836124b4565b8101906147da565b505f613c49565b503d613e5f565b60a08101519190734bDF93AEB15645d8c3B08902933BC013a3B7eB5F803b156102cc576101445f60409283519283809263045a766b60e01b8252613ecf859a600b6004850152602484019061271b565b5af48015613b735761402f575b5081516001600160a01b039081168552601060205281852060c0840151613f02916141f1565b8473284FBBC0b642b89Ab2db3A99779536696fa28f2160e0850151813b156104a257613f4d60a48492875194859384926366e4915160e01b8452600d60048501526024840190612315565b5af4801561402557614010575b505080835116855260116020528185208573b93ac2c7f99c45873625952F3069834Df20B65Be61010086015190803b156104a257613fb59360a49187519586948593635c7731d160e11b855260048501526024840190612315565b5af4801561400657613ff1575b5090612a85939461014092613fdd6101208601516016615110565b84511681526019602052209101519061523e565b613ffc8680926124b4565b61167a575f613fc2565b83513d88823e3d90fd5b8161401a916124b4565b61167a57845f613f5a565b84513d84823e3d90fd5b61403c9194505f906124b4565b5f925f613edc565b61404c6126c0565b506001815491015460038260801c169060018080603e1b0393848160821c16948160c01c1663ffffffff95851595865f1461414b5781965b1561414457825b81861490811561413d5783915b1561413457600281935b1493841561412c57935b1561412457935b868060401b03986040519a6140ca6101808d6124b4565b8088168c528760201c1660208c01528660801b60c01d60408c015260608b015260808a015260a089015260c088015260e087015261010086015260fe1c1661012084015281811661014084015260401c1661016082015290565b505f936140b3565b505f936140ac565b60025f936140a2565b5f91614098565b5f9261408b565b5f96614084565b61415a612b5c565b50600181549101549063ffffffff9165ffffffffffff6040519261417f6040856124b4565b8260e01b60e01d84528260c81b60e81d6020850152604051946141a4610100876124b4565b80821686528160201c166020860152818160401c166040860152818160701c16606086015260a01c1660808401528060881b60c01d60a084015260481b60c01d60c083015260e082015290565b9063ffffffff8082511161429f57602082018181511161429f5760408301916002614223600180603f1b0385516159a2565b1461429f57825161423d9060016001603f1b0319906159a2565b1561429f576060840193600261425a60018060401b038751615326565b1461429f575191519251935160801b600160801b600160c01b031660409490941b600160401b600160801b031660209390931b63ffffffff60201b1691161717179055565b60405163320f423b60e21b8152600490fd5b64e8d4a51000908181029181830414901517156127d15790565b60405163a9059cbb60e01b60208201526001600160a01b039283166024820152604480820194909452928352612a859291906143086064846124b4565b166159b3565b811561432857600160ff1b81145f198314166127d1570590565b634e487b7160e01b5f52601260045260245ffd5b620f4240611abf614364879a899c9a61440297989a612a859f979a61437f9b6143f298612e0f565b9790965f6080890151916101408b015160808c015193613056565b9760c08801519461438e6125e3565b9a6143988b615ac2565b15159081614426575b5061441a575b6143bb60a08b01516101008c015190613b7d565b6143ce60c08c015160e08d015190613b7d565b60608d015260408c01521561440c575f5b60808b01526143ed8a614780565b6127af565b6020870152610160850151614767565b60a085015261316a565b61441589615ac2565b6143df565b60208a01518b526143a7565b9050155f6143a1565b6144376127e5565b508054600182015491600201548260c09160409384519160209485948461445f8780976124b4565b8460b81b831d8152885161447387826124b4565b8560781b841d815289519161448888846124b4565b8660381b851d835260d09a8b97898251966144a382896124b4565b898b1b8b1d88528351996144b7838c6124b4565b60a01b8b1d8a5283519a6144cb838d6124b4565b8160901b811d8c5284519c6144e0908e6124b4565b8160601b811d8d5284519d6144f5908f6124b4565b8d8260301b821d905284519e8f9061450c916124b4565b1d8d528251809e61451d83836124b4565b8360081b901d905282519e8f92614536610180856124b4565b60ff1615158352881b881d9101528c015260608b015260808a015260a089015287015260e086015261010085015261012084015261014083015261016082015290565b5f811361458f575f1361458a575f90565b5f1990565b50600190565b6040516323b872dd60e01b60208201526001600160a01b039283166024820152306044820152606480820194909452928352612a859291906143086084846124b4565b6145e0612bb2565b50546008808260e01c62ffffff9361ffff9060405195614602610120886124b4565b8082168752808260181c166020880152808260301c166040880152808260481c1660608801528160781c166080870152818160901c1660a087015260a01c1660c085015260048082161460e0850152161461010082015290565b6146646126c0565b5080546001820154600290920154604051926001600160401b039263ffffffff614690610180876124b4565b80821686528160201c1660208601528060801b60c01d6040860152838160801c16606086015260c01c608085015282811660a0850152828160401c1660c0850152828160801c1660e085015260c01c6101008401525f61012084015281811661014084015260401c1661016082015290565b61470a6125e3565b506001815491015460018060401b0390816040519361472a60c0866124b4565b63ffffffff811685528060a01b60c01d6020860152818160601c16604086015260a01c166060840152818116608084015260401c1660a082015290565b8181029181830414901517156127d157620f4240900490565b61479a60606147926040840151615342565b920151615342565b905f82820392128183128116918313901516176127d15790565b5f1981146127d15760010190565b620f4240908181029181830414901517156127d15790565b808203929160a084126102cc576147f360409183613a13565b93605f1901126102cc5760806040519161480e6040846124b4565b606081015183520151602082015290565b91908260209103126102cc576040516148396020826124b4565b91518252565b8051151582526020810151602083015260408101515160408301526060810151516060830152608081015151608083015260a08101515160a083015260c08101515160c083015260e08101515160e08301526101008082015151908301526101208082015151908301526101408082015151908301526101608091015151910152565b906102006040612a85936148d784825161483f565b6148ea6020820151610180860190612315565b01519101906129a5565b9291909360018060a01b03600254166040948551938492630e0886f960e41b845286600485015283602460a09788935afa948515614da7575f935f96614d82575b508083016149448582516156a3565b825f528960208098601e825261495b8c5f20612c8f565b9a89518111614d66575b508b6101209b8a8d8a01519061497a916156c8565b818a0151156149d9926149b991614d4f575b614994612622565b5051634d54b69d60e01b8152956149ae600488018c6129c0565b610a448701906148c2565b87610ca48601526149ce610cc486018c61243d565b610e44850190612338565b6149e7610f048401896129a5565b8051610f6484015201928351610f84830152610300908183610fa48173AD941f31f438Cd9701b5a1019eBC97d3908d32495af49a8b15614d45575f935f935f9d614b5d575b505050509160c09493918a9382528c525192614a71614a6a6080614a61614a5a8d8b01519751965187614767565b80966156bb565b95015185614767565b80946156bb565b9089850152614a848b8501918251613b7d565b9052614aa26060840191614a9d83518b8d015190613b7d565b613b7d565b9052614ab360808301918251613b7d565b90520194868651910151905f82820192831291129080158216911516176127d15760e0614ae79285926013985201516153ba565b84860152515f5252805f20736BC30a5C00E534Bd73265534f4B34A6D876ef7429251833b156102cc576101a45f92614b399585519687948593631cf7ef4560e11b85526004850152602484019061483f565b5af4908115614b545750614b4a5750565b5f612a85916124b4565b513d5f823e3d90fd5b929c5094925095949250803d8211614d3e575b614b7a81866124b4565b84019a848c039182126102cc57610180968783126102cc578790614c198f8f908f614ba782519d8e6124b4565b614bb08b612615565b8d52808b0151908d0152614bc682828c0161481f565b908c0152614bd78160608b0161481f565b60608c0152614be98160808b0161481f565b60808c0152614bfa81868b0161481f565b858c0152614c0b8160c08b0161481f565b60c08c015260e0890161481f565b60e08a01526101009d8e614c2f82828b0161481f565b908b0152614c3f81838a0161481f565b828b0152610140614c5282828b0161481f565b908b0152614c6561016091828a0161481f565b908a015261017f198401126102cc57614c808e519d8e6124b4565b8501518c526101a08501518b8d01526101c08501518d8d01526101e085015160608d015261020085015160808d0152610220850151908c015261024084015160c08c01528b61025f198201126102cc576060908c614ce0815191826124b4565b61026086015181526102808601518c82015260e08d015261029f1901126102cc5760c0946102e08c5194614d156060876124b4565b6102a081015186526102c08101518c87015201518c8501529992999193945f8080959395614a2c565b503d614b70565b8c513d5f823e3d90fd5b614d588d6157cd565b614d6183615802565b61498c565b614d70908a6154e5565b614d798b615802565b5f8b525f614965565b90809650614d9d9294503d8711613e7857613e6981836124b4565b929092945f614935565b87513d5f823e3d90fd5b92909193614ea8959461010093848601868151945f95515f526020936013855260409b8c98614e9d614de48b5f2061442f565b825f5260138952614e92614df98d5f2061442f565b93614e6460018060a01b039e8f8b51165f52601f8d528d815f20905f528d52614e23815f20614702565b928a5181116150f4575b50614e3d8a6101408d01516156c8565b8651156150dd575b614e4d61259e565b5051630604fb1160e21b81529960048b01906129c0565b614e72610a448a01886148c2565b8b610ca48a0152614e87610cc48a018961243d565b610e44890190612338565b610f0487019061483f565b61108485019061483f565b888361120481739FF224C8846B3A6B26dADF79A029Be2D44A1bE965af4988915614d45575f935f9a615038575b5050840191825260c08901518b8101908151948a51955f87820197881291129080158216911516176127d157868b0195614f0f8751615342565b905f82820392128183128116918313901516176127d1578785938a92614f3896520152516153ba565b868951165f52601a84528a5f2090515f528352895f20734Fc1cC62E5d0b12f5a9e3213B4177d2edb301F309151823b156102cc5760a45f92614f94948e51958694859363be49f2e760e01b855260048501526024840190612315565b5af4801561502e5791606096959391612a859a9b9593615017575b50885186168452601b82528484208385528252848420549051614fd49187168a615822565b848851168352601c81528383208284528152614ffa85858520541685890151908a615822565b848851168352601d81528383209183525220541691015191615822565b6150249194505f906124b4565b5f92614fd4614faf565b8a513d5f823e3d90fd5b919950925080833d85116150d6575b61505181836124b4565b8101039283126102cc57608083126102cc5760808c519361507282866124b4565b8251855286830151878601528d8301518e86015260608084015190860152607f1901126102cc578b9260e086928551956150ad6080886124b4565b6080820151875260a08201518588015260c082015190870152015160608501529298905f614ed5565b503d615047565b6150e68a6157cd565b6150ef83615802565b614e45565b6150fe908b6154e5565b61510783615802565b5f83525f614e2d565b9061511a81615892565b606081019160029160018060401b039083615136838751615326565b1461522c57608081018461514b848351615326565b1461522c5760a082019585615161858951615326565b1461522c5760c083019086615177868451615326565b1461522c5760e084018761518c878351615326565b1461522c57610100850191886151a3888551615326565b1461522c576101609363ffffffff87511663ffffffff60201b602089015160201b161788600160401b600160801b039788928360408c015160401b1617600160801b600160c01b0380965160801b1617905160c01b179c5116915160401b1617915160801b1617905160c01b17936101408401511692015160401b161793825560018201550155565b6040516367e4596560e01b8152600490fd5b61524782615892565b61525082615918565b9061525a8361593d565b9260016001603e1b03600261526f8286615326565b1461522c5761528060029186615326565b1461522c57610120810193600185511161522c5760019363ffffffff83511663ffffffff60201b602085015160201b1617958560401b8660801b039687604086015160401b1617600360801b6152d586615957565b60801b1617908660fe1b905160fe1b16928660c01b8760fe1b039060c01b16918660821b8760c01b039060821b1617171793610160848060401b036101408401511692015160401b16179281550155565b81811161533b571061533757600190565b5f90565b5050600290565b6001600160ff1b0381116153535790565b6024906040519063eecaa25d60e01b82526004820152fd5b5f81126153755790565b5f0390565b61538261259e565b508051906020810151906060604082015191015191604051936153a66080866124b4565b845260208401526040830152606082015290565b8151815260208101906153cd8251615342565b6153da6060850151615342565b906153e86080860151615342565b915f83820393128184128116918413901516176127d1575f82820192831291129080158216911516176127d15761541e90615aee565b92604082019061542e8251615342565b61543b60a0830151615342565b9061544960c0840151615342565b915f83820393128184128116918413901516176127d1575f82820192831291129080158216911516176127d157615481606091615aee565b93019061548e8251615342565b6154a96101006154a160e0850151615342565b930151615342565b915f83820393128184128116918413901516176127d1575f82820192831291129080158216911516176127d1576154df90615aee565b90525252565b6154ee816157cd565b5f6101208201525f60408201525f602082015252565b602081016155188151602085015190613b7d565b90604083018051906040860151915f83820193841291129080158216911516176127d1576101206155528187019182519089015190613b7d565b90610140615569818901918251908b015190613b7d565b90610160615580818b01918251908d015190613b7d565b905252525252606081019061559b8251606085015190613b7d565b9260808201906155b18251608083015190613b7d565b9260a08101906155c7825160a085015190613b7d565b9260c08201906155dd825160c083015190613b7d565b9260e08101906156096155f6835160e086015190613b7d565b9361010080930192835191015190613b7d565b90525252525252565b61561f8151835190613b7d565b815260208101908151926020810151935f85820195861291129080158216911516176127d157604082019061565a8251604083015190613b7d565b9260608101906156708251606085015190613b7d565b92608082019061569b60a061568b8451608085015190613b7d565b94019160a0835191015190613b7d565b905252525252565b90602001908151156156b3575050565b60a001519052565b919082039182116127d157565b602081016156dc81516020850151906156bb565b90604083018051906040860151915f83820393128184128116918413901516176127d15761012061571681870191825190890151906156bb565b9061014061572d818901918251908b0151906156bb565b90610160615744818b01918251908d0151906156bb565b905252525252606081019061575f82516060850151906156bb565b92608082019061577582516080830151906156bb565b9260a081019061578b825160a0850151906156bb565b9260c08201906157a1825160c0830151906156bb565b9260e08101906156096157ba835160e0860151906156bb565b93610100809301928351910151906156bb565b60605f918261016082015282610140820152826101008201528260e08201528260c08201528260a08201528260808201520152565b60405f918260a08201528260808201528260208201528260608201520152565b908215613da85781516001600160a01b03918216911681036158565750606060c061585292015101918251613b7d565b9052565b612a85929150805f52601060205261587060405f206139c5565b9161588060608401918251613b7d565b90525f52601060205260405f206141f1565b63ffffffff8082511161522c5760208201511161522c576040810180516002906158c49060016001603f1b03906159a2565b1461522c57516158dd9060016001603f1b0319906159a2565b1561522c5760018060401b039060026158fb83610140840151615326565b1461522c57600291610160615911920151615326565b1461522c57565b61593a9060e0615931606083015160a084015190613b7d565b91015190613b7d565b90565b61593a90610100615931608083015160c084015190613b7d565b60a081015115801590615995575b61458f5760e08101511590811591615986575b50615981575f90565b600290565b6101009150015115155f615978565b5060c08101511515615965565b81811361533b571261533757600190565b602091615a39916001600160a01b03165f806159ce866124eb565b936159dc60405195866124b4565b8685527f5361666545524332303a206c6f772d6c6576656c2063616c6c206661696c656487860152868151910182855af13d15615aba573d91615a1e836124eb565b92615a2c60405194856124b4565b83523d5f8785013e615c3d565b805180615a4557505050565b818391810103126102cc5781615a5b9101612615565b15615a635750565b6084906040519062461bcd60e51b82526004820152602a60248201527f5361666545524332303a204552433230206f7065726174696f6e20646964206e6044820152691bdd081cdd58d8d9595960b21b6064820152fd5b606091615c3d565b61593a90610c15615add60a083015161010084015190613b7d565b9160c060e082015191015190613b7d565b5f8112615af85790565b6024906040519063b02ef08760e01b82526004820152fd5b939190811580615be0575b615bd7578415615bc557611abf611abf91611ab9615b74615b7a95611abf615b428b615342565b99611ab9615b6e615b64615b5e620f42409e8f9c8d80996127af565b9e615342565b611abf86856127af565b9a615342565b91615342565b92818101918212905f81129081159280158316908416176127d1578301928312908115169116176127d15761593a92611ab9611abf92611abf85615bbf8160026127af565b926127af565b60405163c7d40ac960e01b8152600490fd5b50505050505f90565b508315615b1b565b63ffffffff8151116135e05760018060401b03906002615c0c836040840151615326565b146135e0576002615c21836060840151615326565b146135e0576002916080615c36920151615326565b146135e057565b91929015615c9f5750815115615c51575090565b3b15615c5a5790565b60405162461bcd60e51b815260206004820152601d60248201527f416464726573733a2063616c6c20746f206e6f6e2d636f6e74726163740000006044820152606490fd5b825190915015615cb25750805190602001fd5b60405162461bcd60e51b815260206004820152908190615cd6906024830190612771565b0390fdfea9c835c21e93a672e5a6ef8ca0374f90b7d4378f7eec5769dcf22fdefd60ffae0aec74a1754fb10877b53c31a29be82096082042eb1fb374ec96fac88c0e621ba2646970667358221220739b27e6e548ed3bc0a5d7d9db164da15736d0e078ff172a0c29326612bd30a064736f6c63430008180033",
  "deployedBytecode": "0x6080806040526004361015610012575f80fd5b5f905f3560e01c90816305349f56146122cf5750806309218e91146122aa5780630a009097146122825780630aaffd2a146121be5780630cdfebfa1461216e5780632b56d95c1461213c5780632b7ac3f3146120f857806338af3eed146120d05780634468d9b814611fcf5780634549a62914611f9957806355f5751014611f555780635b4b969514611f045780636a256b2914611e2f5780636e19368014611dea5780636ebc51e114611b58578063736a01df1461187a5780637cc4d340146118275780637dc0d1d0146117fe57806387aee00e146117425780638fd3ab801461167e57806390dbc10b1461128757806391eece2814610e97578063977b1f5f14610a06578063a05f990614610986578063a4d15487146107e1578063ac9ed34b14610798578063ad4d4e2914610764578063b68af80a1461071b578063b6a597dd146105d4578063c45a01551461059f578063c496969b1461056b578063cee6c2ec1461050c578063d1718d9a14610306578063e20ccec3146102d0578063f9f94e34146101d35763fc0c546a146101aa575f80fd5b346101d057806003193601126101d057546040516001600160a01b039091168152602090f35b80fd5b50346101d05760203660031901126101d0576004356001600160a01b03818116918290036102cc5760046020825f80516020615cfb833981519152541660405192838092638da5cb5b60e01b82525afa9081156102c1578491610292575b5016330361027a57600580546001600160a01b031916821790556040519081527fc258faa9a17ddfdf4130b4acff63a289202e7d5f9e42f366add65368575486bc90602090a180f35b604051634d193d1f60e01b8152336004820152602490fd5b6102b4915060203d6020116102ba575b6102ac81836124b4565b8101906125c4565b5f610231565b503d6102a2565b6040513d86823e3d90fd5b5f80fd5b50346101d057806003193601126101d0576102e96126c0565b506101806102f7601661465c565b610304604051809261243d565bf35b50346101d05761012080600319360112610508576040519061032881836124b4565b6004358252602435602083015260443560408301526064356060830152608435608083015260a43560a083015260c43560c083015260e43580151581036102cc5760e08301526101043580151581036102cc57610100838101919091525f80516020615cfb83398151915254604051638da5cb5b60e01b81526001600160a01b039182169190602081600481865afa9081156104fd5787916104de575b5016330361027a57816004869373__$c5b758809b18b7c9fcabb156ae018568b0$__936040519283809263ad4d4e2960e01b82525afa9182156102c15784926104b1575b5050813b156104a25761044b610244849260405194859384926373a328f760e11b845260096004850152610440602485018c612544565b61014484019061295a565b5af480156104a65761048d575b50507fc79d01d8ced0fc2bdca319d00a3390e9c1915af6d08ab11334a71edf7017abf5916104896040518092612544565ba180f35b81610497916124b4565b6104a257825f610458565b8280fd5b6040513d84823e3d90fd5b6104d09250803d106104d7575b6104c881836124b4565b8101906128ce565b5f80610409565b503d6104be565b6104f7915060203d6020116102ba576102ac81836124b4565b5f6103c5565b6040513d89823e3d90fd5b5080fd5b50346101d05760403660031901126101d0576004356001600160a01b03811691908290036102cc57604061055e9160c0936105456125e3565b508152601f602052818120602435825260205220614702565b6103046040518092612338565b50346101d05760203660031901126101d0576102f760406101809261058e6126c0565b50600435815260146020522061465c565b50346101d057806003193601126101d0575f80516020615cfb833981519152546040516001600160a01b039091168152602090f35b50346101d05760403660031901126101d0577f6fee9688c285c5c5c97d6a1a29adced674e6b2ad0888b8ad2116b58a8b3ea2486001815410156107025760019055303b1515806106fb575b6106e257335f80516020615cfb83398151915255303b1515806106f4575b6106e25760015f80516020615cdb833981519152556001600160a01b03600435818116908190036102cc5782546001600160a01b03199081169091178355602435918216918290036104a2576002541617600255807f2801b00eb06461cf9fcb9758b5fafd884ff06a86177386f73b6c49f0bf5a5af0557fbe9b076dc5b65990cca9dd9d7366682482e7817a6f6bc7f4faf4dc32af497f32602060405160018152a180f35b60405163b9a621e160e01b8152600490fd5b508061063d565b508061061f565b604051631edb9c6d60e11b815260016004820152602490fd5b50346101d05760403660031901126101d0576001600160a01b03600435818116908190036102cc578260409160209452601b845281812060243582528452205416604051908152f35b50346101d057806003193601126101d05761077d612bb2565b5061012061078b60096145d8565b6103046040518092612544565b50346101d05760403660031901126101d0576001600160a01b03600435818116908190036102cc578260409160209452601c845281812060243582528452205416604051908152f35b50346101d057806003193601126101d0575f80516020615cfb83398151915254604051638da5cb5b60e01b81526001600160a01b03916020908290600490829086165afa801561097b578291849161095c575b5016330361027a57819081610849600b614152565b9160c08301908151600161085c82614579565b1461093a575b5081515f1961087082614579565b14610913575b505080516040519081527f25e5e4c41e0fec8db036b4544824413a63ffe455e2b4decd71d72932f607ff5960203392a25273__$e64848e740b5620d47cef49412062df449$__90813b1561090f576108ef6101448492604051948593849263045a766b60e01b8452600b6004850152602484019061271b565b5af480156104a6576108fe5750f35b81610908916124b4565b6101d05780f35b5050fd5b61092b610926610933938654169261536b565b6142b1565b903390614595565b5f80610876565b6109569061094e610926848754169261536b565b9033906142cb565b5f610862565b610975915060203d6020116102ba576102ac81836124b4565b5f610834565b6040513d85823e3d90fd5b50346101d057806003193601126101d05761099f612b5c565b506101206109ad600b614152565b602060e06040519280518452828101518385015260408101516040850152606081015160608501526080810151608085015260a081015160a085015260c081015160c08501520151805160e08401520151610100820152f35b50346101d05760e03660031901126101d0576004356001600160a01b0380821682036102cc5760a435151560a435036102cc578060c4351660c435036102cc5760025f80516020615cdb8339815191525414610e8557602060049160025f80516020615cdb833981519152555f80516020615cfb833981519152541660405192838092635c975abb60e01b82525afa90811561097b578391610e4b575b50610e3957818080610ab9938160c43591612e0f565b906040516397cd07c560e01b8152610ad460048201836129c0565b610ae2610a44820184612a87565b6084356110c48201526024356110e48201526044356111048201526064356111248201526080816111448173__$e3298069b754bcab429a8ec3839fda9774$__5af480156102c1578490859286908792610ded575b50608085015193610140870151610b5b608089015192610b556126c0565b50615342565b93610b696020830151615342565b938a85128686810312811690878781031390151617610dd957610b8b90615342565b610b986040840151615342565b918b83128284810312811690838581031390151617610dc5576060610bbf610bc792615342565b940151615342565b938b85128486810312811690858781031390151617610dc5578b8b8b6101808c8c60ff8d8d8d8d8d8b9d8c610c2b610d459f610c26610c1b610c0a8a8c0361536b565b610c1588880361536b565b90613b7d565b610c1589890361536b565b614767565b9881878903135f14610dbc57610c4287890361536b565b9180888a03125f14610db357610c59888a0361536b565b9381868203135f14610daa57610c7086820361536b565b9582818303125f14610d9f57610c86910361536b565b9581888203135f14610d9657610c9d88820361536b565b9782818303125f14610d8b57610cb3910361536b565b9760a43515610d84576001995b149a8b15610d7d57819b5b15610d75579b5b610cdf6040519e8f6124b4565b8d5260208d015260408c015260608b015260808a015260a089015260c088015260e087015261010086015216610120840152610140830152610160820152610d2681615918565b1580610d65575b15610d59575b60c43592610d3f6125e3565b9261316a565b60015f80516020615cdb8339815191525580f35b60016020820152610d33565b50610d6f8161593d565b15610d2d565b50809b610cd2565b809b610ccb565b8199610cc0565b5050610cb38161536b565b610c9d8261536b565b5050610c868161536b565b610c708261536b565b610c598161536b565b610c428261536b565b634e487b7160e01b8c52601160045260248cfd5b634e487b7160e01b8b52601160045260248bfd5b93505050506080813d608011610e31575b81610e0b608093836124b4565b81010312610e2d5780516020820151604083015160609093015190925f610b37565b8380fd5b3d9150610dfe565b604051634b94d2bb60e01b8152600490fd5b90506020813d602011610e7d575b81610e66602093836124b4565b810103126104a257610e7790612615565b5f610aa3565b3d9150610e59565b6040516345f6780960e11b8152600490fd5b50346101d05760c03660031901126101d0576004356001600160a01b0380821682036102cc5760a435151560a435036102cc5760025f80516020615cdb8339815191525414610e8557602060049160025f80516020615cdb833981519152555f80516020615cfb833981519152541660405192838092635c975abb60e01b82525afa90811561097b57839161124d575b50610e39578180808080610f3a95612e0f565b6040516397cd07c560e01b815290610f5560048301846129c0565b610f63610a44830182612a87565b6084356110c48301526024356110e48301526044356111048301526064356111248301526080826111448173__$e3298069b754bcab429a8ec3839fda9774$__5af480156102c1578490859386908792611205575b50608086015194610140850151610fd6608087015192610b556126c0565b93610fe46020830151615342565b938a85128686810312811690878781031390151617610dd95761100690615342565b6110136040840151615342565b918b83128284810312811690838581031390151617610dc5576060610bbf61103a92615342565b938b85128486810312811690858781031390151617610dc5578a8a8a8e8b60ff8c8c8c859c610d459c879c611086899d610c26610c0a61107b898b0361536b565b610c1587870361536b565b9789868803135f146111fc5761109d86880361536b565b908a878903125f146111f3576110b487890361536b565b928b858203135f146111ea576110cb85820361536b565b948c818303125f146111df576110e1910361536b565b948b878203135f146111d6576110f887820361536b565b968c818303125f146111cb5761110e910361536b565b9660a435156111c4576001985b14998a156111bd578b9a5b156111b6579a5b60206040519e8f90611141610180836124b4565b8152015260408d015260608c015260808b015260a08a015260c089015260e08801526101008701521661012085015261014084015261016083015261118582615918565b15806111a6575b1561119a575b610d3f6125e3565b60016020830152611192565b506111b08261593d565b1561118c565b508a61112d565b809a611126565b8b9861111b565b505061110e8b61536b565b6110f88c61536b565b50506110e18b61536b565b6110cb8c61536b565b6110b48b61536b565b61109d8a61536b565b94505050506080823d608011611245575b81611223608093836124b4565b81010312610e2d5781516020830151604084015160609094015190935f610fb8565b3d9150611216565b90506020813d60201161127f575b81611268602093836124b4565b810103126104a25761127990612615565b5f610f27565b3d915061125b565b50346101d0576102e03660031901126101d0576040516112a96101a0826124b4565b60043581526020602435818301526112c2366044612506565b604083015260608060c319360112610e2d576040516112e182826124b4565b60c435815260e435838201526101043560408201528184015261012435608084015261014490813560a08501526101643560c085015261132336610184612506565b60e0850152806102031936011261167a576040519261134282856124b4565b6102043584526102243581850152610244356040850152610100938486015261026435610120860152610284356101408601526102a4356101608601526102c43580151581036102cc5761018086015260018060a01b03908160055416331415908161160d575b506115fb57856113b9600b614152565b946113c4600d612bf8565b926113cf6006613791565b9760048373__$f0b9cef6bb3cbdd03cb6172b8c4e9f952f$__935f80516020615cfb83398151915254166040519283809263ad4d4e2960e01b82525afa9384156115f05785946115d1575b5050813b15610e2d5761040461145291859361145d60405196879586946302903c7960e21b8652600660048701526024860190612936565b61030484019061295a565b5af480156104a6576115bc575b506114be9181604061147c6006613791565b98015160406114b1611491828c015195614780565b94856114a060a08d015161536b565b9782858c8b95015191015190615b10565b9682015191015190615b10565b908582820392128183128116918313901516176115a85760c0830180518683820393128184128116918413901516176115945752839173__$e64848e740b5620d47cef49412062df449$__9190823b15610e2d57839161153b91604051948593849263045a766b60e01b8452600b6004850152602484019061271b565b5af480156104a65761157f575b506040517f685ea8dd49033251570436255683e840d43dd33fbc52b69e04450747dc56fed290806115798582612388565b0390a180f35b81611589916124b4565b61050857815f611548565b634e487b7160e01b86526011600452602486fd5b634e487b7160e01b85526011600452602485fd5b6115c78280926124b4565b6101d0575f61146a565b6115e8929450803d106104d7576104c881836124b4565b915f8061141a565b6040513d87823e3d90fd5b604051639bca062560e01b8152600490fd5b9050600481835f80516020615cfb833981519152541660405192838092638da5cb5b60e01b82525afa90811561166f5783928992611652575b5050163314155f6113a9565b6116689250803d106102ba576102ac81836124b4565b5f80611646565b6040513d8a823e3d90fd5b8480fd5b50346101d057806003193601126101d0575f80516020615cfb83398151915254604051638da5cb5b60e01b81526001600160a01b03916020908290600490829086165afa90811561097b578391611723575b5016330361027a578073__$b60b8283597a7b63fdf5784bc29e04c8c8$__803b156117205781602491604051928380926317251b7160e31b8252600d60048301525af480156104a6576108fe5750f35b50fd5b61173c915060203d6020116102ba576102ac81836124b4565b5f6116d0565b50346101d05760203660031901126101d0576117766040610180926117656127e5565b50600435815260136020522061442f565b604051908051151582526020810151602083015260408101515160408301526060810151516060830152608081015151608083015260a08101515160a083015260c08101515160c083015260e08101515160e0830152610100808201515190830152610120808201515190830152610140808201515190830152610160809101515190820152f35b50346101d057806003193601126101d0576002546040516001600160a01b039091168152602090f35b50346101d05760403660031901126101d0576004356001600160a01b03811691908290036102cc5760406102f791610180936118616126c0565b5081526015602052818120602435825260205220614044565b50346101d0576101c03660031901126101d0576004356001600160a01b0380821682036102cc576101803660231901126104a2576101a435906001600160401b038211610e2d5736602383011215610e2d57816004013591846118dc846124eb565b916118ea60405193846124b4565b84835260209436602482840101116104a25780602487930183860137830101525f80516020615cdb833981519152926002845414610e855760028455600481845f80516020615cfb833981519152541660405192838092635c975abb60e01b82525afa9182156104fd578792611b1e575b5050610e3957606435620f424060026119748284615326565b14611b0c57837f00000000000000000000000000000000000000000000000000000000000000001695863b15611afd5760405193635f2d6ed760e01b855260243580600487015260443591826024880152856044880152608435938885168086036102cc57606489015260a435958987168088036102cc5760848a015260c435988960a482015260e4359c8b8e9c8d16809d036102cc578f9c60c4840152610104918235968288168089036102cc5760e48601526101249384359384168094036102cc578f94611a798795936101a087959386948a968601526101449081359086015261016490813590860152610184908135908601528401526101a4830190612771565b03925af18015611b0157611ad3575b509160019b611aca8b8e8180611acf9f839f9d9b99819f9d9b998b9083611ac484611abf8f611ab985985f196127af565b906127af565b61430e565b9161433c565b61433c565b5580f35b99611ae981809a9896949c9b999795939b6124b4565b611afd57919395975f999193959799611a88565b8780fd5b6040513d8d823e3d90fd5b604051630f4e914b60e11b8152600490fd5b90809250813d8311611b51575b611b3581836124b4565b81010312611b4d57611b4690612615565b5f8061195b565b8580fd5b503d611b2b565b50346102cc57602090816003193601126102cc576001600160a01b039060043582811691908290036102cc578133141580611d6c575b611d5a575f92611b9e600b614152565b835f5260108652611bb160405f206139c5565b90600487845f80516020615cfb833981519152541660405192838092638da5cb5b60e01b82525afa8015611cf15784915f91611d3d575b50168514611d2c575b82600254168514611d14575b82600554168514611cfc575b5f611c1a6060840197885190613b7d565b965273__$e64848e740b5620d47cef49412062df449$__90813b156102cc57611c646101445f92604051948593849263045a766b60e01b8452600b6004850152602484019061271b565b5af48015611cf157611cda575b50611c869084845260108752604084206141f1565b83611c97575b505050604051908152f35b611ca691541661094e846142b1565b604051908282527f4a34429a0ef883c4301d5b40aa8ae85d4eb024946062f2c7ebd8320acedc831a843393a35f8080611c8c565b611ce79193505f906124b4565b5f91611c86611c71565b6040513d5f823e3d90fd5b5f611d0d6080830197885190613b7d565b9652611c09565b5f611d256060830197885190613b7d565b9652611bfd565b945060408501945f86519652611bf1565b611d549150893d8b116102ba576102ac81836124b4565b5f611be8565b604051633222db4560e01b8152600490fd5b50604484845f80516020615cfb83398151915254166040519283809263131bac4760e11b82528760048301523360248301525afa908115611cf1575f91611db5575b5015611b8e565b90508481813d8311611de3575b611dcc81836124b4565b810103126102cc57611ddd90612615565b5f611dae565b503d611dc2565b346102cc5760203660031901126102cc576004356001600160a01b038116908190036102cc57611e186126c0565b505f5260196020526101806102f760405f20614044565b346102cc5760203660031901126102cc576004356001600160a01b0380821682036102cc575f80516020615cdb833981519152906002825414610e85576020600491600284555f80516020615cfb833981519152541660405192838092635c975abb60e01b82525afa908115611cf1575f91611eca575b50610e3957611ec7611eb9600193613a49565b611ec281613b8a565b613e7f565b55005b90506020813d602011611efc575b81611ee5602093836124b4565b810103126102cc57611ef690612615565b83611ea6565b3d9150611ed8565b346102cc5760203660031901126102cc576004356001600160a01b038116908190036102cc57611f3261259e565b505f5260106020526080611f4860405f206139c5565b6103046040518092612315565b346102cc5760203660031901126102cc576004356001600160a01b038116908190036102cc57611f8361259e565b505f5260116020526080611f4860405f20613911565b346102cc575f3660031901126102cc57611fb1612642565b50611fcb611fbf6006613791565b60405191829182612388565b0390f35b346102cc5760803660031901126102cc576004356001600160a01b0380821682036102cc5760643581811681036102cc575f80516020615cdb833981519152916002835414610e85576020600491600285555f80516020615cfb833981519152541660405192838092635c975abb60e01b82525afa908115611cf1575f91612096575b50610e39575f8161206c828080611ec7968160019a612e0f565b61208d60808301516101408301516080840151916044359160243591613056565b90610d3f6125e3565b90506020813d6020116120c8575b816120b1602093836124b4565b810103126102cc576120c290612615565b84612052565b3d91506120a4565b346102cc575f3660031901126102cc576004546040516001600160a01b039091168152602090f35b346102cc575f3660031901126102cc576040517f00000000000000000000000000000000000000000000000000000000000000006001600160a01b03168152602090f35b346102cc5760203660031901126102cc576121556125e3565b506004355f52601e60205260c061055e60405f20612c8f565b346102cc5760403660031901126102cc576004356001600160a01b038116908190036102cc5761219c61259e565b505f52601a60205260405f206024355f526020526080611f4860405f20612c42565b346102cc5760203660031901126102cc576004356001600160a01b03818116918290036102cc5760046020825f80516020615cfb833981519152541660405192838092638da5cb5b60e01b82525afa908115611cf1575f91612263575b5016330361027a57600480546001600160a01b031916821790556040519081527feee59a71c694e68368a1cb0d135c448051bbfb12289e6c2223b0ceb100c2321d90602090a1005b61227c915060203d6020116102ba576102ac81836124b4565b8361221b565b346102cc575f3660031901126102cc576005546040516001600160a01b039091168152602090f35b346102cc575f3660031901126102cc576122c261259e565b506080611f48600d612bf8565b346102cc5760403660031901126102cc576004356001600160a01b0381811692918390036102cc576020925f52601d835260405f206024355f52835260405f2054168152f35b606080918051845260208101516020850152604081015160408501520151910152565b60a0809180518452602081015160208501526040810151604085015260608101516060850152608081015160808501520151910152565b6040809180518452602081015160208501520151910152565b9190916102c06102e082019380518352602081015160208401526123b460408201516040850190612315565b6123c6606082015160c085019061236f565b608081015190610120918285015260a0810151610140908186015260c082015190610160918287015260e0830151936124056101809586890190612315565b61241961010085015161020089019061236f565b8301516102608701528201516102808601528101516102a085015201511515910152565b805182526020810151602083015260408101516040830152606081015160608301526080810151608083015260a081015160a083015260c081015160c083015260e081015160e083015261010080820151908301526101208082015190830152610140808201519083015261016080910151910152565b601f909101601f19168101906001600160401b038211908210176124d757604052565b634e487b7160e01b5f52604160045260245ffd5b6001600160401b0381116124d757601f01601f191660200190565b91908260809103126102cc576040516125206080826124b4565b60608082948035845260208101356020850152604081013560408501520135910152565b805182526020810151602083015260408101516040830152606081015160608301526080810151608083015260a081015160a083015260c081015160c083015260e0810151151560e0830152610100809101511515910152565b604051906125ad6080836124b4565b5f6060838281528260208201528260408201520152565b908160209103126102cc57516001600160a01b03811681036102cc5790565b604051906125f260c0836124b4565b5f60a0838281528260208201528260408201528260608201528260808201520152565b519081151582036102cc57565b604051906126316060836124b4565b5f6040838281528260208201520152565b604051906126526101a0836124b4565b5f6101808382815282602082015261266861259e565b6040820152612675612622565b60608201528260808201528260a08201528260c082015261269461259e565b60e08201526126a1612622565b6101008201528261012082015282610140820152826101608201520152565b604051906126d0610180836124b4565b5f610160838281528260208201528260408201528260608201528260808201528260a08201528260c08201528260e08201528261010082015282610120820152826101408201520152565b602060e06101009280518552828101518386015260408101516040860152606081015160608601526080810151608086015260a081015160a086015260c081015160c08601520151805160e08501520151910152565b91908251928382525f5b84811061279b575050825f602080949584010152601f8019910116010190565b60208183018101518483018201520161277b565b81810292915f8212600160ff1b8214166127d15781840514901517156127d157565b634e487b7160e01b5f52601160045260245ffd5b6040908151916127f7610180846124b4565b610160835f81526128c76020935f85840152805161281586826124b4565b5f815281840152805161282886826124b4565b5f81526060840152805161283c86826124b4565b5f81526080840152805161285086826124b4565b5f815260a0840152805161286486826124b4565b5f815260c0840152805161287886826124b4565b5f815260e0840152805161288c86826124b4565b5f815261010084015280516128a186826124b4565b5f815261012084015280516128b686826124b4565b5f81526101408401525193846124b4565b5f83520152565b809161010092839103126102cc5760e0906128ec60405193846124b4565b805183526020810151602084015260408101516040840152606081015160608401526080810151608084015260a081015160a084015260c081015160c0840152015160e082015290565b6102c09080518352602081015160208401526123b460408201516040850190612315565b60e08091805184526020810151602085015260408101516040850152606081015160608501526080810151608085015260a081015160a085015260c081015160c08501520151910152565b60408091805184526020810151602085015201511515910152565b906108c0612a859260018060a01b0381511683526129e660208201516020850190612544565b6040810151906129fc6101409283860190612936565b612a0f60608201516104208601906129a5565b6080810151610480850152612a2d60a08201516104a086019061271b565b612a4060c08201516105c0860190612315565b612a5360e0820151610640860190612315565b612a676101008201516106c0860190612315565b612a7b61012082015161074086019061243d565b015191019061243d565b565b6101a061066091805115158452602081015115156020850152604081015160018060a01b0380911660408601528060608301511660608601526080820151608086015260a08201511660a085015260c081015160c0850152612af160e082015160e086019061243d565b612b0561010082015161026086019061243d565b612b196101208201516103e0860190612315565b612b2d610140820151610460860190612315565b612b416101608201516104e0860190612338565b612b556101808201516105a0860190612338565b0151910152565b60405190612b6c610100836124b4565b815f81525f60208201525f60408201525f60608201525f60808201525f60a08201525f60c082015260e060405191612ba56040846124b4565b5f83525f60208401520152565b60405190612bc2610120836124b4565b5f610100838281528260208201528260408201528260608201528260808201528260a08201528260c08201528260e08201520152565b612c0061259e565b5054604051906001600160401b03612c196080846124b4565b63ffffffff82168352808260401c1660208401528160801c16604083015260c01c606082015290565b612c4a61259e565b505460405190612c5b6080836124b4565b8060d01b60d01d825265ffffffffffff8160301c1660208301528060601b60c01d604083015260201b60c01d606082015290565b612c976125e3565b5054604051906001600160401b0390612cb160c0846124b4565b63ffffffff811683525f6020840152818160201c166040840152818160601c16606084015260a01c1660808201525f60a082015290565b60405190612cf8610160836124b4565b815f8152612d04612bb2565b6020820152612d11612642565b6040820152612d1e612622565b60608201525f6080820152612d31612b5c565b60a0820152612d3e61259e565b60c0820152612d4b61259e565b60e0820152612d5861259e565b610100820152612d666126c0565b610120820152610140612d776126c0565b910152565b60405190612d8c6101c0836124b4565b5f6101a0838281528260208201528260408201528260608201528260808201528260a08201528260c0820152612dc06126c0565b60e0820152612dcd6126c0565b610100820152612ddb61259e565b610120820152612de961259e565b610140820152612df76125e3565b610160820152612e056125e3565b6101808201520152565b90612e33606095949297969397612e24612ce8565b50612e2d612d7c565b50613a49565b968793612e3f85613b8a565b612e47612d7c565b968793612e6b612e5a60e089015161537a565b6101208181890152890151906153ba565b608461010094612e91612e80878b015161537a565b61014081818b01528b0151906153ba565b60a08901948551515f5260209660148852604096612eb0885f2061465c565b60e08b015260018060a01b039b8c9a8b92838351165f5260158c528a5f209460c08401958651515f528d52612ee68c5f20614044565b9083015251515f52601e8b52612efd8a5f20612c8f565b610160820152828251165f52601f8b52895f208451515f528b52612f228a5f20614702565b610180820152828251165f52601b8b52895f208451515f528b52828a5f2054168a820152828251165f52601c8b52895f208451515f528b5288838b5f20541691015251165f52601d8852865f209051515f52875287865f20541660a08d01526101a08c01528c8780805f80516020615cfb8339815191525416925116928751998a96879563029138af60e21b875260048701523360248701521660448501521660648301525afa801561304c575f935f925f92612ffc575b505060808801521515908601521515845216612ff4575090565b60c082015290565b92509350506060833d606011613044575b8161301a606093836124b4565b810103126102cc5761302b83612615565b90613037838501612615565b9301519092905f80612fda565b3d915061300d565b50513d5f823e3d90fd5b94936130869192936130666126c0565b9687526040870152836131615760ff5f5b166020870152610c268461536b565b61016085015261309582614579565b801591821561314c575b8215613130575b5050156130ee575f8113156130e5576130be8161536b565b60a08401525f8112156130db576130d49061536b565b60e0830152565b506130d45f61536b565b6130be5f61536b565b5f811315613127576130ff8161536b565b6101008401525f81121561311d576131169061536b565b60c0830152565b506131165f61536b565b6130ff5f61536b565b61314491925061313f90614780565b614579565b145f806130a6565b915061315a61313f83614780565b159161309f565b60ff6001613077565b93949190946101009384602087015101945f955161377f57608087018051918901918251908151811161373b575b5050519160e089019283519081518111613709575b5050610120956131c086888c01516153ba565b610140946131d187878d01516153ba565b6131dc878551615504565b6131e7878651615504565b6131f487898c0151615504565b61320187878c0151615504565b610160808c0196613213858951615612565b6101808d0199613224868c51615612565b60c08d01516040808c0151910180515f83820193841291129080158216911516176127d157528901516136fe575b88015115908115916136f1575b506136bf575b5060a082015161367b575b5061327a85615918565b158061366b575b15613607575b73__$868083e60620b1b18b00d84e3b9f0de884$__90813b15611afd576132d16113048a8c946132f58c956132dc6040519889978896638df462cb60e01b885260048801906129c0565b610a44860190612a87565b6132ea6110c485018d61243d565b611244840190612338565b5af480156104fd579087916135f2575b50506133579061332960a08901938451518952601460205260408920905190615110565b87516001600160a01b0316875260156020908152604080892060c08b0151518a52909152872090519061523e565b51518452601e60205260408420905161336f81615be8565b805160408083015160608085015160809095015160a01b600160a01b600160e01b031694901b600160601b600160a01b0316602091821b600160201b600160601b031663ffffffff9490941693909317929092179290921790925585516001600160a01b03168552601f825280852060c087015151865290915283209151946133f786615be8565b60208601516002906134119060016001603f1b03906159a2565b146135e057602086015161342e9060016001603f1b0319906159a2565b156135e05760a086015160029061344d906001600160401b0390615326565b146135e05785516020808801516040808a01516060808c015160808d015160a09d8e0151918e1b600160a01b600160e01b031693831b600160601b600160a01b031695871b600160201b600160601b031663ffffffff98909816979097179490941791909117885591811b600160401b600160801b03166001600160401b0394909416939093176001968701558383015188516001600160a01b039081168952601b845284892060c08b018051518b52908552858a2080546001600160a01b0319908116948416949094179055928601518a5182168a52601c8552858a208451518b528552858a20805484169183169190911790559490990151885185168852601d835283882091515188529152818620805490981692169190911790955580850151612a85959261357e82614579565b146135c0575b5001515f1961359282614579565b1461359f575b5050613e7f565b61094e6109266135b99360018060a01b039054169261536b565b5f80613598565b6135da9061092b61092660018060a01b038754169261536b565b5f613584565b604051637e81879b60e11b8152600490fd5b816135fc916124b4565b611b4d57855f613305565b60025488516001600160a01b039182169116813b156102cc575f91604483926040519485938492631a9be9fd60e11b845230600485015260248401525af18015611cf157613656575b50613287565b6136639197505f906124b4565b5f955f613650565b506136758561593d565b15613281565b60a08a0180516001600160a01b039182918216156136b5575b51169116036136a3575f613270565b604051639dbdc5fd60e01b8152600490fd5b8184168152613694565b60608b0180516001600160a01b039182918216156136e7575b51169116036136a3575f613265565b81841681526136d8565b905087015115155f61325f565b3360408e0152613252565b613712916154e5565b5f6101608a015161372281615802565b5260a088015161373281516147b4565b90525f806131ad565b613744916154e5565b5f6101808a015161375481615802565b525f60408a01525f60608a01525f60a08a015260c088015161377681516147b4565b90525f80613198565b604051630b8b968760e31b8152600490fd5b6101a09061379d612642565b50805490600260018201549101549162ffffff9160608365ffffffffffff936137ca858560481c166147c2565b6040938451916137db6080846124b4565b848460301c168352848460481c1660208401528484831c168684015281830152613809878760181c166147c2565b9085519161381782846124b4565b858560781c168352858560901c1660208401528683015261383c888560a81c166147c2565b9286519661384b6080896124b4565b868960781c168852868960901c166020890152868960a81c1681890152868960c01c168389015280519861387f848b6124b4565b8a8d168a5260081b60e01d60208a01528b60b01b60e01d818a01526138a681519d8e6124b4565b8686168d528c6020888860181c169101528c01528a0152608089015260d81c1660a0870152828560b01c1660c087015260e0860152610100850152808360501c166101208501528260801c166101408401528160e01c1661016083015260f81c151561018082015290565b61391961259e565b50600181549101548160f81c1590815f146139b85760038116915b156139a35760021c60016001603e1b0316905b8061399c57815b6001820361399357600281925b0361398b57915b63ffffffff604051946139766080876124b4565b16845260208401526040830152606082015290565b505f91613962565b60025f9261395b565b5f9161394e565b50602282901c60016001603e1b031690613947565b60038360201c1691613934565b6139cd61259e565b50546040519063ffffffff6139e36080846124b4565b8181168352602082811c90911690830152608081811b60c01d60408401521c6001600160401b0316606082015290565b91908260609103126102cc57604051613a2d6060826124b4565b6040612d77818395805185526020810151602086015201612615565b906004613a54612ce8565b6001600160a01b03938416808252909390613a6f60096145d8565b60208601526080613a806006613791565b926040938488015260025416835194858092631006976960e11b82525afa8015613b73575f905f90613b31575b613b29945060808701526060860152613ac6600b614152565b60a0860152805f526010602052613ade825f206139c5565b60c0860152613aed600d612bf8565b60e0860152805f526011602052613b05825f20613911565b610100860152613b15601661465c565b6101208601525f5260196020525f20614044565b610140830152565b505060803d608011613b6c575b613b4881856124b4565b8301926080818503126102cc576060613b64613b299583613a13565b910151613aad565b503d613b3e565b82513d5f823e3d90fd5b919082018092116127d157565b9060405191613b9a6060846124b4565b613ba26127e5565b835260208301613bb061259e565b8152613bba612622565b604085015260e0820151515f526013602052613bd860405f2061442f565b845260018060a01b038251165f52601a60205260405f20610100830151515f52602052613c0760405f20612c42565b905260018060a01b03600254169260e08201515190604051630e0886f960e41b8152600492600482015260a08160248181995afa908115611cf1575f91613e4f575b50806040830152613c5f60a085019182516156a3565b613c676126c0565b945b815160208151910151809114159081613e09575b5015613cba5760208251015160018101809111613ca85786613ca39181519086896148f4565b613c69565b87601186634e487b7160e01b5f52525ffd5b60c08501805160208151910151141580613dad575b15613cf95760209051015160018101809111613ca85786613cf4918151908689614db1565b613cba565b5095509150925061010060208301510151613da857606082019081515160e0840151518111613d7b575b50505151610100820151518111613d3957505050565b612a859260c08301906020825101519160018060a01b038551165f526015602052602060405f20915101515f52602052613d7560405f20614044565b93614db1565b6020613da19251015190815f526014602052613d9960405f2061465c565b9186866148f4565b5f80613d23565b505050565b50955060018060a01b038551165f52601560205260405f2060208751015160018101809111613df7575f52602052613de760405f20614044565b9560608601515187511115613ccf565b88601187634e487b7160e01b5f52525ffd5b809297506001915001809111613e3d575f526014602052613e2c60405f2061465c565b94606085015151865111155f613c7d565b86601185634e487b7160e01b5f52525ffd5b613e71915060a03d60a011613e78575b613e6981836124b4565b8101906147da565b505f613c49565b503d613e5f565b60a0810151919073__$e64848e740b5620d47cef49412062df449$__803b156102cc576101445f60409283519283809263045a766b60e01b8252613ecf859a600b6004850152602484019061271b565b5af48015613b735761402f575b5081516001600160a01b039081168552601060205281852060c0840151613f02916141f1565b8473__$b60b8283597a7b63fdf5784bc29e04c8c8$__60e0850151813b156104a257613f4d60a48492875194859384926366e4915160e01b8452600d60048501526024840190612315565b5af4801561402557614010575b505080835116855260116020528185208573__$4b3d80cf6fe04b4ade5ebdb98bc9ab473c$__61010086015190803b156104a257613fb59360a49187519586948593635c7731d160e11b855260048501526024840190612315565b5af4801561400657613ff1575b5090612a85939461014092613fdd6101208601516016615110565b84511681526019602052209101519061523e565b613ffc8680926124b4565b61167a575f613fc2565b83513d88823e3d90fd5b8161401a916124b4565b61167a57845f613f5a565b84513d84823e3d90fd5b61403c9194505f906124b4565b5f925f613edc565b61404c6126c0565b506001815491015460038260801c169060018080603e1b0393848160821c16948160c01c1663ffffffff95851595865f1461414b5781965b1561414457825b81861490811561413d5783915b1561413457600281935b1493841561412c57935b1561412457935b868060401b03986040519a6140ca6101808d6124b4565b8088168c528760201c1660208c01528660801b60c01d60408c015260608b015260808a015260a089015260c088015260e087015261010086015260fe1c1661012084015281811661014084015260401c1661016082015290565b505f936140b3565b505f936140ac565b60025f936140a2565b5f91614098565b5f9261408b565b5f96614084565b61415a612b5c565b50600181549101549063ffffffff9165ffffffffffff6040519261417f6040856124b4565b8260e01b60e01d84528260c81b60e81d6020850152604051946141a4610100876124b4565b80821686528160201c166020860152818160401c166040860152818160701c16606086015260a01c1660808401528060881b60c01d60a084015260481b60c01d60c083015260e082015290565b9063ffffffff8082511161429f57602082018181511161429f5760408301916002614223600180603f1b0385516159a2565b1461429f57825161423d9060016001603f1b0319906159a2565b1561429f576060840193600261425a60018060401b038751615326565b1461429f575191519251935160801b600160801b600160c01b031660409490941b600160401b600160801b031660209390931b63ffffffff60201b1691161717179055565b60405163320f423b60e21b8152600490fd5b64e8d4a51000908181029181830414901517156127d15790565b60405163a9059cbb60e01b60208201526001600160a01b039283166024820152604480820194909452928352612a859291906143086064846124b4565b166159b3565b811561432857600160ff1b81145f198314166127d1570590565b634e487b7160e01b5f52601260045260245ffd5b620f4240611abf614364879a899c9a61440297989a612a859f979a61437f9b6143f298612e0f565b9790965f6080890151916101408b015160808c015193613056565b9760c08801519461438e6125e3565b9a6143988b615ac2565b15159081614426575b5061441a575b6143bb60a08b01516101008c015190613b7d565b6143ce60c08c015160e08d015190613b7d565b60608d015260408c01521561440c575f5b60808b01526143ed8a614780565b6127af565b6020870152610160850151614767565b60a085015261316a565b61441589615ac2565b6143df565b60208a01518b526143a7565b9050155f6143a1565b6144376127e5565b508054600182015491600201548260c09160409384519160209485948461445f8780976124b4565b8460b81b831d8152885161447387826124b4565b8560781b841d815289519161448888846124b4565b8660381b851d835260d09a8b97898251966144a382896124b4565b898b1b8b1d88528351996144b7838c6124b4565b60a01b8b1d8a5283519a6144cb838d6124b4565b8160901b811d8c5284519c6144e0908e6124b4565b8160601b811d8d5284519d6144f5908f6124b4565b8d8260301b821d905284519e8f9061450c916124b4565b1d8d528251809e61451d83836124b4565b8360081b901d905282519e8f92614536610180856124b4565b60ff1615158352881b881d9101528c015260608b015260808a015260a089015287015260e086015261010085015261012084015261014083015261016082015290565b5f811361458f575f1361458a575f90565b5f1990565b50600190565b6040516323b872dd60e01b60208201526001600160a01b039283166024820152306044820152606480820194909452928352612a859291906143086084846124b4565b6145e0612bb2565b50546008808260e01c62ffffff9361ffff9060405195614602610120886124b4565b8082168752808260181c166020880152808260301c166040880152808260481c1660608801528160781c166080870152818160901c1660a087015260a01c1660c085015260048082161460e0850152161461010082015290565b6146646126c0565b5080546001820154600290920154604051926001600160401b039263ffffffff614690610180876124b4565b80821686528160201c1660208601528060801b60c01d6040860152838160801c16606086015260c01c608085015282811660a0850152828160401c1660c0850152828160801c1660e085015260c01c6101008401525f61012084015281811661014084015260401c1661016082015290565b61470a6125e3565b506001815491015460018060401b0390816040519361472a60c0866124b4565b63ffffffff811685528060a01b60c01d6020860152818160601c16604086015260a01c166060840152818116608084015260401c1660a082015290565b8181029181830414901517156127d157620f4240900490565b61479a60606147926040840151615342565b920151615342565b905f82820392128183128116918313901516176127d15790565b5f1981146127d15760010190565b620f4240908181029181830414901517156127d15790565b808203929160a084126102cc576147f360409183613a13565b93605f1901126102cc5760806040519161480e6040846124b4565b606081015183520151602082015290565b91908260209103126102cc576040516148396020826124b4565b91518252565b8051151582526020810151602083015260408101515160408301526060810151516060830152608081015151608083015260a08101515160a083015260c08101515160c083015260e08101515160e08301526101008082015151908301526101208082015151908301526101408082015151908301526101608091015151910152565b906102006040612a85936148d784825161483f565b6148ea6020820151610180860190612315565b01519101906129a5565b9291909360018060a01b03600254166040948551938492630e0886f960e41b845286600485015283602460a09788935afa948515614da7575f935f96614d82575b508083016149448582516156a3565b825f528960208098601e825261495b8c5f20612c8f565b9a89518111614d66575b508b6101209b8a8d8a01519061497a916156c8565b818a0151156149d9926149b991614d4f575b614994612622565b5051634d54b69d60e01b8152956149ae600488018c6129c0565b610a448701906148c2565b87610ca48601526149ce610cc486018c61243d565b610e44850190612338565b6149e7610f048401896129a5565b8051610f6484015201928351610f84830152610300908183610fa48173__$498c3fc06e3b66de52f0e54e97932d9f48$__5af49a8b15614d45575f935f935f9d614b5d575b505050509160c09493918a9382528c525192614a71614a6a6080614a61614a5a8d8b01519751965187614767565b80966156bb565b95015185614767565b80946156bb565b9089850152614a848b8501918251613b7d565b9052614aa26060840191614a9d83518b8d015190613b7d565b613b7d565b9052614ab360808301918251613b7d565b90520194868651910151905f82820192831291129080158216911516176127d15760e0614ae79285926013985201516153ba565b84860152515f5252805f2073__$7193fcc5e5263a57d93f46b00a41978ef4$__9251833b156102cc576101a45f92614b399585519687948593631cf7ef4560e11b85526004850152602484019061483f565b5af4908115614b545750614b4a5750565b5f612a85916124b4565b513d5f823e3d90fd5b929c5094925095949250803d8211614d3e575b614b7a81866124b4565b84019a848c039182126102cc57610180968783126102cc578790614c198f8f908f614ba782519d8e6124b4565b614bb08b612615565b8d52808b0151908d0152614bc682828c0161481f565b908c0152614bd78160608b0161481f565b60608c0152614be98160808b0161481f565b60808c0152614bfa81868b0161481f565b858c0152614c0b8160c08b0161481f565b60c08c015260e0890161481f565b60e08a01526101009d8e614c2f82828b0161481f565b908b0152614c3f81838a0161481f565b828b0152610140614c5282828b0161481f565b908b0152614c6561016091828a0161481f565b908a015261017f198401126102cc57614c808e519d8e6124b4565b8501518c526101a08501518b8d01526101c08501518d8d01526101e085015160608d015261020085015160808d0152610220850151908c015261024084015160c08c01528b61025f198201126102cc576060908c614ce0815191826124b4565b61026086015181526102808601518c82015260e08d015261029f1901126102cc5760c0946102e08c5194614d156060876124b4565b6102a081015186526102c08101518c87015201518c8501529992999193945f8080959395614a2c565b503d614b70565b8c513d5f823e3d90fd5b614d588d6157cd565b614d6183615802565b61498c565b614d70908a6154e5565b614d798b615802565b5f8b525f614965565b90809650614d9d9294503d8711613e7857613e6981836124b4565b929092945f614935565b87513d5f823e3d90fd5b92909193614ea8959461010093848601868151945f95515f526020936013855260409b8c98614e9d614de48b5f2061442f565b825f5260138952614e92614df98d5f2061442f565b93614e6460018060a01b039e8f8b51165f52601f8d528d815f20905f528d52614e23815f20614702565b928a5181116150f4575b50614e3d8a6101408d01516156c8565b8651156150dd575b614e4d61259e565b5051630604fb1160e21b81529960048b01906129c0565b614e72610a448a01886148c2565b8b610ca48a0152614e87610cc48a018961243d565b610e44890190612338565b610f0487019061483f565b61108485019061483f565b88836112048173__$6ba7d7c32865f94d0a12ad88289d5cd7ab$__5af4988915614d45575f935f9a615038575b5050840191825260c08901518b8101908151948a51955f87820197881291129080158216911516176127d157868b0195614f0f8751615342565b905f82820392128183128116918313901516176127d1578785938a92614f3896520152516153ba565b868951165f52601a84528a5f2090515f528352895f2073__$7159fd8596758e3029e91421ba272bb871$__9151823b156102cc5760a45f92614f94948e51958694859363be49f2e760e01b855260048501526024840190612315565b5af4801561502e5791606096959391612a859a9b9593615017575b50885186168452601b82528484208385528252848420549051614fd49187168a615822565b848851168352601c81528383208284528152614ffa85858520541685890151908a615822565b848851168352601d81528383209183525220541691015191615822565b6150249194505f906124b4565b5f92614fd4614faf565b8a513d5f823e3d90fd5b919950925080833d85116150d6575b61505181836124b4565b8101039283126102cc57608083126102cc5760808c519361507282866124b4565b8251855286830151878601528d8301518e86015260608084015190860152607f1901126102cc578b9260e086928551956150ad6080886124b4565b6080820151875260a08201518588015260c082015190870152015160608501529298905f614ed5565b503d615047565b6150e68a6157cd565b6150ef83615802565b614e45565b6150fe908b6154e5565b61510783615802565b5f83525f614e2d565b9061511a81615892565b606081019160029160018060401b039083615136838751615326565b1461522c57608081018461514b848351615326565b1461522c5760a082019585615161858951615326565b1461522c5760c083019086615177868451615326565b1461522c5760e084018761518c878351615326565b1461522c57610100850191886151a3888551615326565b1461522c576101609363ffffffff87511663ffffffff60201b602089015160201b161788600160401b600160801b039788928360408c015160401b1617600160801b600160c01b0380965160801b1617905160c01b179c5116915160401b1617915160801b1617905160c01b17936101408401511692015160401b161793825560018201550155565b6040516367e4596560e01b8152600490fd5b61524782615892565b61525082615918565b9061525a8361593d565b9260016001603e1b03600261526f8286615326565b1461522c5761528060029186615326565b1461522c57610120810193600185511161522c5760019363ffffffff83511663ffffffff60201b602085015160201b1617958560401b8660801b039687604086015160401b1617600360801b6152d586615957565b60801b1617908660fe1b905160fe1b16928660c01b8760fe1b039060c01b16918660821b8760c01b039060821b1617171793610160848060401b036101408401511692015160401b16179281550155565b81811161533b571061533757600190565b5f90565b5050600290565b6001600160ff1b0381116153535790565b6024906040519063eecaa25d60e01b82526004820152fd5b5f81126153755790565b5f0390565b61538261259e565b508051906020810151906060604082015191015191604051936153a66080866124b4565b845260208401526040830152606082015290565b8151815260208101906153cd8251615342565b6153da6060850151615342565b906153e86080860151615342565b915f83820393128184128116918413901516176127d1575f82820192831291129080158216911516176127d15761541e90615aee565b92604082019061542e8251615342565b61543b60a0830151615342565b9061544960c0840151615342565b915f83820393128184128116918413901516176127d1575f82820192831291129080158216911516176127d157615481606091615aee565b93019061548e8251615342565b6154a96101006154a160e0850151615342565b930151615342565b915f83820393128184128116918413901516176127d1575f82820192831291129080158216911516176127d1576154df90615aee565b90525252565b6154ee816157cd565b5f6101208201525f60408201525f602082015252565b602081016155188151602085015190613b7d565b90604083018051906040860151915f83820193841291129080158216911516176127d1576101206155528187019182519089015190613b7d565b90610140615569818901918251908b015190613b7d565b90610160615580818b01918251908d015190613b7d565b905252525252606081019061559b8251606085015190613b7d565b9260808201906155b18251608083015190613b7d565b9260a08101906155c7825160a085015190613b7d565b9260c08201906155dd825160c083015190613b7d565b9260e08101906156096155f6835160e086015190613b7d565b9361010080930192835191015190613b7d565b90525252525252565b61561f8151835190613b7d565b815260208101908151926020810151935f85820195861291129080158216911516176127d157604082019061565a8251604083015190613b7d565b9260608101906156708251606085015190613b7d565b92608082019061569b60a061568b8451608085015190613b7d565b94019160a0835191015190613b7d565b905252525252565b90602001908151156156b3575050565b60a001519052565b919082039182116127d157565b602081016156dc81516020850151906156bb565b90604083018051906040860151915f83820393128184128116918413901516176127d15761012061571681870191825190890151906156bb565b9061014061572d818901918251908b0151906156bb565b90610160615744818b01918251908d0151906156bb565b905252525252606081019061575f82516060850151906156bb565b92608082019061577582516080830151906156bb565b9260a081019061578b825160a0850151906156bb565b9260c08201906157a1825160c0830151906156bb565b9260e08101906156096157ba835160e0860151906156bb565b93610100809301928351910151906156bb565b60605f918261016082015282610140820152826101008201528260e08201528260c08201528260a08201528260808201520152565b60405f918260a08201528260808201528260208201528260608201520152565b908215613da85781516001600160a01b03918216911681036158565750606060c061585292015101918251613b7d565b9052565b612a85929150805f52601060205261587060405f206139c5565b9161588060608401918251613b7d565b90525f52601060205260405f206141f1565b63ffffffff8082511161522c5760208201511161522c576040810180516002906158c49060016001603f1b03906159a2565b1461522c57516158dd9060016001603f1b0319906159a2565b1561522c5760018060401b039060026158fb83610140840151615326565b1461522c57600291610160615911920151615326565b1461522c57565b61593a9060e0615931606083015160a084015190613b7d565b91015190613b7d565b90565b61593a90610100615931608083015160c084015190613b7d565b60a081015115801590615995575b61458f5760e08101511590811591615986575b50615981575f90565b600290565b6101009150015115155f615978565b5060c08101511515615965565b81811361533b571261533757600190565b602091615a39916001600160a01b03165f806159ce866124eb565b936159dc60405195866124b4565b8685527f5361666545524332303a206c6f772d6c6576656c2063616c6c206661696c656487860152868151910182855af13d15615aba573d91615a1e836124eb565b92615a2c60405194856124b4565b83523d5f8785013e615c3d565b805180615a4557505050565b818391810103126102cc5781615a5b9101612615565b15615a635750565b6084906040519062461bcd60e51b82526004820152602a60248201527f5361666545524332303a204552433230206f7065726174696f6e20646964206e6044820152691bdd081cdd58d8d9595960b21b6064820152fd5b606091615c3d565b61593a90610c15615add60a083015161010084015190613b7d565b9160c060e082015191015190613b7d565b5f8112615af85790565b6024906040519063b02ef08760e01b82526004820152fd5b939190811580615be0575b615bd7578415615bc557611abf611abf91611ab9615b74615b7a95611abf615b428b615342565b99611ab9615b6e615b64615b5e620f42409e8f9c8d80996127af565b9e615342565b611abf86856127af565b9a615342565b91615342565b92818101918212905f81129081159280158316908416176127d1578301928312908115169116176127d15761593a92611ab9611abf92611abf85615bbf8160026127af565b926127af565b60405163c7d40ac960e01b8152600490fd5b50505050505f90565b508315615b1b565b63ffffffff8151116135e05760018060401b03906002615c0c836040840151615326565b146135e0576002615c21836060840151615326565b146135e0576002916080615c36920151615326565b146135e057565b91929015615c9f5750815115615c51575090565b3b15615c5a5790565b60405162461bcd60e51b815260206004820152601d60248201527f416464726573733a2063616c6c20746f206e6f6e2d636f6e74726163740000006044820152606490fd5b825190915015615cb25750805190602001fd5b60405162461bcd60e51b815260206004820152908190615cd6906024830190612771565b0390fdfea9c835c21e93a672e5a6ef8ca0374f90b7d4378f7eec5769dcf22fdefd60ffae0aec74a1754fb10877b53c31a29be82096082042eb1fb374ec96fac88c0e621ba2646970667358221220739b27e6e548ed3bc0a5d7d9db164da15736d0e078ff172a0c29326612bd30a064736f6c63430008180033",
  "libraries": {
    "CheckpointLib": "0x9FF224C8846B3A6B26dADF79A029Be2D44A1bE96",
    "InvariantLib": "0xaD2567811a15E9B468b52888A6d8D9ae1d895069",
    "VersionLib": "0xAD941f31f438Cd9701b5a1019eBC97d3908d3249",
    "CheckpointStorageLib": "0x4Fc1cC62E5d0b12f5a9e3213B4177d2edb301F30",
    "GlobalStorageLib": "0x4bDF93AEB15645d8c3B08902933BC013a3B7eB5F",
    "MarketParameterStorageLib": "0x1Af5F0EbDdcf79B2e8fA4A4B9348d3C9865981d0",
    "PositionStorageGlobalLib": "0x284FBBC0b642b89Ab2db3A99779536696fa28f21",
    "PositionStorageLocalLib": "0xb93ac2c7f99c45873625952F3069834Df20B65Be",
    "RiskParameterStorageLib": "0x61FCC50003b0fbabAd47b5aC74bEcb6D1e0361d1",
    "VersionStorageLib": "0x6BC30a5C00E534Bd73265534f4B34A6D876ef742",
    "MagicValueLib": "0xb6bB7e86B55136fA8B48693bb2028F54CAf2Bd86"
  }
}