{
  "address": "0xB91691A148141f95d0A7b6d3a9eE869bB0300444",
  "abi": [
    {
      "inputs": [
        {
          "internalType": "Token6",
          "name": "usdc_",
          "type": "address"
        },
        {
          "internalType": "Token18",
          "name": "dsu_",
          "type": "address"
        },
        {
          "internalType": "contract IFactory",
          "name": "marketFactory_",
          "type": "address"
        },
        {
          "internalType": "contract IFactory",
          "name": "vaultFactory_",
          "type": "address"
        },
        {
          "internalType": "contract IBatcher",
          "name": "batcher_",
          "type": "address"
        },
        {
          "internalType": "contract IEmptySetReserve",
          "name": "reserve_",
          "type": "address"
        },
        {
          "internalType": "uint256",
          "name": "keepBufferBase_",
          "type": "uint256"
        },
        {
          "internalType": "uint256",
          "name": "keepBufferCalldata_",
          "type": "uint256"
        }
      ],
      "stateMutability": "nonpayable",
      "type": "constructor"
    },
    {
      "inputs": [],
      "name": "DivisionByZero",
      "type": "error"
    },
    {
      "inputs": [
        {
          "internalType": "uint256",
          "name": "value",
          "type": "uint256"
        }
      ],
      "name": "Fixed18OverflowError",
      "type": "error"
    },
    {
      "inputs": [
        {
          "internalType": "uint256",
          "name": "value",
          "type": "uint256"
        }
      ],
      "name": "Fixed6OverflowError",
      "type": "error"
    },
    {
      "inputs": [
        {
          "internalType": "uint256",
          "name": "version",
          "type": "uint256"
        }
      ],
      "name": "InitializableAlreadyInitializedError",
      "type": "error"
    },
    {
      "inputs": [],
      "name": "InitializableNotInitializingError",
      "type": "error"
    },
    {
      "inputs": [],
      "name": "InitializableZeroVersionError",
      "type": "error"
    },
    {
      "inputs": [],
      "name": "MultiInvokerBadSenderError",
      "type": "error"
    },
    {
      "inputs": [],
      "name": "MultiInvokerCantExecuteError",
      "type": "error"
    },
    {
      "inputs": [],
      "name": "MultiInvokerInvalidInstanceError",
      "type": "error"
    },
    {
      "inputs": [],
      "name": "MultiInvokerInvalidOrderError",
      "type": "error"
    },
    {
      "inputs": [],
      "name": "MultiInvokerMaxFeeExceededError",
      "type": "error"
    },
    {
      "inputs": [],
      "name": "MultiInvokerOrderMustBeSingleSidedError",
      "type": "error"
    },
    {
      "inputs": [],
      "name": "TriggerOrderStorageInvalidError",
      "type": "error"
    },
    {
      "inputs": [
        {
          "internalType": "int256",
          "name": "value",
          "type": "int256"
        }
      ],
      "name": "UFixed18UnderflowError",
      "type": "error"
    },
    {
      "inputs": [
        {
          "internalType": "int256",
          "name": "value",
          "type": "int256"
        }
      ],
      "name": "UFixed6UnderflowError",
      "type": "error"
    },
    {
      "anonymous": false,
      "inputs": [
        {
          "indexed": false,
          "internalType": "uint256",
          "name": "version",
          "type": "uint256"
        }
      ],
      "name": "Initialized",
      "type": "event"
    },
    {
      "anonymous": false,
      "inputs": [
        {
          "indexed": true,
          "internalType": "address",
          "name": "account",
          "type": "address"
        },
        {
          "indexed": true,
          "internalType": "contract IMarket",
          "name": "market",
          "type": "address"
        },
        {
          "components": [
            {
              "internalType": "UFixed6",
              "name": "amount",
              "type": "uint256"
            },
            {
              "internalType": "address",
              "name": "receiver",
              "type": "address"
            },
            {
              "internalType": "bool",
              "name": "unwrap",
              "type": "bool"
            }
          ],
          "indexed": false,
          "internalType": "struct InterfaceFee",
          "name": "fee",
          "type": "tuple"
        }
      ],
      "name": "InterfaceFeeCharged",
      "type": "event"
    },
    {
      "anonymous": false,
      "inputs": [
        {
          "indexed": true,
          "internalType": "address",
          "name": "sender",
          "type": "address"
        },
        {
          "indexed": false,
          "internalType": "uint256",
          "name": "applicableGas",
          "type": "uint256"
        },
        {
          "indexed": false,
          "internalType": "uint256",
          "name": "applicableValue",
          "type": "uint256"
        },
        {
          "indexed": false,
          "internalType": "UFixed18",
          "name": "baseFee",
          "type": "uint256"
        },
        {
          "indexed": false,
          "internalType": "UFixed18",
          "name": "calldataFee",
          "type": "uint256"
        },
        {
          "indexed": false,
          "internalType": "UFixed18",
          "name": "keeperFee",
          "type": "uint256"
        }
      ],
      "name": "KeeperCall",
      "type": "event"
    },
    {
      "anonymous": false,
      "inputs": [
        {
          "indexed": true,
          "internalType": "address",
          "name": "account",
          "type": "address"
        },
        {
          "indexed": true,
          "internalType": "address",
          "name": "market",
          "type": "address"
        },
        {
          "indexed": true,
          "internalType": "address",
          "name": "to",
          "type": "address"
        },
        {
          "indexed": false,
          "internalType": "UFixed6",
          "name": "fee",
          "type": "uint256"
        }
      ],
      "name": "KeeperFeeCharged",
      "type": "event"
    },
    {
      "anonymous": false,
      "inputs": [
        {
          "indexed": true,
          "internalType": "address",
          "name": "account",
          "type": "address"
        },
        {
          "indexed": true,
          "internalType": "contract IMarket",
          "name": "market",
          "type": "address"
        },
        {
          "indexed": false,
          "internalType": "uint256",
          "name": "nonce",
          "type": "uint256"
        }
      ],
      "name": "OrderCancelled",
      "type": "event"
    },
    {
      "anonymous": false,
      "inputs": [
        {
          "indexed": true,
          "internalType": "address",
          "name": "account",
          "type": "address"
        },
        {
          "indexed": true,
          "internalType": "contract IMarket",
          "name": "market",
          "type": "address"
        },
        {
          "indexed": false,
          "internalType": "uint256",
          "name": "nonce",
          "type": "uint256"
        }
      ],
      "name": "OrderExecuted",
      "type": "event"
    },
    {
      "anonymous": false,
      "inputs": [
        {
          "indexed": true,
          "internalType": "address",
          "name": "account",
          "type": "address"
        },
        {
          "indexed": true,
          "internalType": "contract IMarket",
          "name": "market",
          "type": "address"
        },
        {
          "indexed": true,
          "internalType": "uint256",
          "name": "nonce",
          "type": "uint256"
        },
        {
          "components": [
            {
              "internalType": "uint8",
              "name": "side",
              "type": "uint8"
            },
            {
              "internalType": "int8",
              "name": "comparison",
              "type": "int8"
            },
            {
              "internalType": "UFixed6",
              "name": "fee",
              "type": "uint256"
            },
            {
              "internalType": "Fixed6",
              "name": "price",
              "type": "int256"
            },
            {
              "internalType": "Fixed6",
              "name": "delta",
              "type": "int256"
            },
            {
              "components": [
                {
                  "internalType": "UFixed6",
                  "name": "amount",
                  "type": "uint256"
                },
                {
                  "internalType": "address",
                  "name": "receiver",
                  "type": "address"
                },
                {
                  "internalType": "bool",
                  "name": "unwrap",
                  "type": "bool"
                }
              ],
              "internalType": "struct InterfaceFee",
              "name": "interfaceFee1",
              "type": "tuple"
            },
            {
              "components": [
                {
                  "internalType": "UFixed6",
                  "name": "amount",
                  "type": "uint256"
                },
                {
                  "internalType": "address",
                  "name": "receiver",
                  "type": "address"
                },
                {
                  "internalType": "bool",
                  "name": "unwrap",
                  "type": "bool"
                }
              ],
              "internalType": "struct InterfaceFee",
              "name": "interfaceFee2",
              "type": "tuple"
            }
          ],
          "indexed": false,
          "internalType": "struct TriggerOrder",
          "name": "order",
          "type": "tuple"
        }
      ],
      "name": "OrderPlaced",
      "type": "event"
    },
    {
      "inputs": [],
      "name": "ARB_FIXED_OVERHEAD",
      "outputs": [
        {
          "internalType": "uint256",
          "name": "",
          "type": "uint256"
        }
      ],
      "stateMutability": "view",
      "type": "function"
    },
    {
      "inputs": [],
      "name": "ARB_GAS_MULTIPLIER",
      "outputs": [
        {
          "internalType": "uint256",
          "name": "",
          "type": "uint256"
        }
      ],
      "stateMutability": "view",
      "type": "function"
    },
    {
      "inputs": [],
      "name": "DSU",
      "outputs": [
        {
          "internalType": "Token18",
          "name": "",
          "type": "address"
        }
      ],
      "stateMutability": "view",
      "type": "function"
    },
    {
      "inputs": [],
      "name": "USDC",
      "outputs": [
        {
          "internalType": "Token6",
          "name": "",
          "type": "address"
        }
      ],
      "stateMutability": "view",
      "type": "function"
    },
    {
      "inputs": [],
      "name": "batcher",
      "outputs": [
        {
          "internalType": "contract IBatcher",
          "name": "",
          "type": "address"
        }
      ],
      "stateMutability": "view",
      "type": "function"
    },
    {
      "inputs": [
        {
          "internalType": "address",
          "name": "account",
          "type": "address"
        },
        {
          "internalType": "contract IMarket",
          "name": "market",
          "type": "address"
        },
        {
          "internalType": "uint256",
          "name": "nonce",
          "type": "uint256"
        }
      ],
      "name": "canExecuteOrder",
      "outputs": [
        {
          "internalType": "bool",
          "name": "",
          "type": "bool"
        }
      ],
      "stateMutability": "view",
      "type": "function"
    },
    {
      "inputs": [],
      "name": "ethTokenOracleFeed",
      "outputs": [
        {
          "internalType": "contract AggregatorV3Interface",
          "name": "",
          "type": "address"
        }
      ],
      "stateMutability": "view",
      "type": "function"
    },
    {
      "inputs": [
        {
          "internalType": "contract AggregatorV3Interface",
          "name": "ethOracle_",
          "type": "address"
        }
      ],
      "name": "initialize",
      "outputs": [],
      "stateMutability": "nonpayable",
      "type": "function"
    },
    {
      "inputs": [
        {
          "components": [
            {
              "internalType": "enum IMultiInvoker.PerennialAction",
              "name": "action",
              "type": "uint8"
            },
            {
              "internalType": "bytes",
              "name": "args",
              "type": "bytes"
            }
          ],
          "internalType": "struct IMultiInvoker.Invocation[]",
          "name": "invocations",
          "type": "tuple[]"
        }
      ],
      "name": "invoke",
      "outputs": [],
      "stateMutability": "payable",
      "type": "function"
    },
    {
      "inputs": [],
      "name": "keepBufferBase",
      "outputs": [
        {
          "internalType": "uint256",
          "name": "",
          "type": "uint256"
        }
      ],
      "stateMutability": "view",
      "type": "function"
    },
    {
      "inputs": [],
      "name": "keepBufferCalldata",
      "outputs": [
        {
          "internalType": "uint256",
          "name": "",
          "type": "uint256"
        }
      ],
      "stateMutability": "view",
      "type": "function"
    },
    {
      "inputs": [],
      "name": "keeperToken",
      "outputs": [
        {
          "internalType": "Token18",
          "name": "",
          "type": "address"
        }
      ],
      "stateMutability": "view",
      "type": "function"
    },
    {
      "inputs": [],
      "name": "latestNonce",
      "outputs": [
        {
          "internalType": "uint256",
          "name": "",
          "type": "uint256"
        }
      ],
      "stateMutability": "view",
      "type": "function"
    },
    {
      "inputs": [],
      "name": "marketFactory",
      "outputs": [
        {
          "internalType": "contract IFactory",
          "name": "",
          "type": "address"
        }
      ],
      "stateMutability": "view",
      "type": "function"
    },
    {
      "inputs": [
        {
          "internalType": "address",
          "name": "account",
          "type": "address"
        },
        {
          "internalType": "contract IMarket",
          "name": "market",
          "type": "address"
        },
        {
          "internalType": "uint256",
          "name": "nonce",
          "type": "uint256"
        }
      ],
      "name": "orders",
      "outputs": [
        {
          "components": [
            {
              "internalType": "uint8",
              "name": "side",
              "type": "uint8"
            },
            {
              "internalType": "int8",
              "name": "comparison",
              "type": "int8"
            },
            {
              "internalType": "UFixed6",
              "name": "fee",
              "type": "uint256"
            },
            {
              "internalType": "Fixed6",
              "name": "price",
              "type": "int256"
            },
            {
              "internalType": "Fixed6",
              "name": "delta",
              "type": "int256"
            },
            {
              "components": [
                {
                  "internalType": "UFixed6",
                  "name": "amount",
                  "type": "uint256"
                },
                {
                  "internalType": "address",
                  "name": "receiver",
                  "type": "address"
                },
                {
                  "internalType": "bool",
                  "name": "unwrap",
                  "type": "bool"
                }
              ],
              "internalType": "struct InterfaceFee",
              "name": "interfaceFee1",
              "type": "tuple"
            },
            {
              "components": [
                {
                  "internalType": "UFixed6",
                  "name": "amount",
                  "type": "uint256"
                },
                {
                  "internalType": "address",
                  "name": "receiver",
                  "type": "address"
                },
                {
                  "internalType": "bool",
                  "name": "unwrap",
                  "type": "bool"
                }
              ],
              "internalType": "struct InterfaceFee",
              "name": "interfaceFee2",
              "type": "tuple"
            }
          ],
          "internalType": "struct TriggerOrder",
          "name": "",
          "type": "tuple"
        }
      ],
      "stateMutability": "view",
      "type": "function"
    },
    {
      "inputs": [],
      "name": "reserve",
      "outputs": [
        {
          "internalType": "contract IEmptySetReserve",
          "name": "",
          "type": "address"
        }
      ],
      "stateMutability": "view",
      "type": "function"
    },
    {
      "inputs": [],
      "name": "vaultFactory",
      "outputs": [
        {
          "internalType": "contract IFactory",
          "name": "",
          "type": "address"
        }
      ],
      "stateMutability": "view",
      "type": "function"
    }
  ],
  "transactionHash": "0x2e57383b14050516b73b288cc4a5e89d770c689a282d0992da4e6934a0c10555",
  "args": [
    "0x16b38364bA6f55B6E150cC7f52D22E89643f3535",
    "0x5FA881826AD000D010977645450292701bc2f56D",
    "0x32F3aB7b3c5BBa0738b72FdB83FcE6bb1a1a943c",
    "0x877682C7a8840D59A63a6227ED2Aeb20C3ae7FeB",
    "0x0000000000000000000000000000000000000000",
    "0x841d7C994aC0Bb17CcD65a021E686e3cFafE2118",
    1500000,
    35200
  ],
  "numDeployments": 1,
  "solcInputHash": "4ad4f66272abcb02abeeecc4609216cc",
  "bytecode": "0x6101803462000224576200428338819003601f8101601f191683016001600160401b03811184821017620002285783928291604052833961010092839181010312620002245762000050816200023c565b6200005e602083016200023c565b916200006d604082016200023c565b6200007b606083016200023c565b60808301516001600160a01b03959092908684168403620002245760a08501519687168703620002245760e060c08601519501519560805260a05260c05260e052845261012092835261014090815261016091825260405192614031948562000252863960805185818161046601528181611e0101528181612aeb0152818161351f01528181613c990152613d4a015260a051858181610396015281816108aa01528181610b5601528181611c1a01528181611d470152818161200201528181612598015281816126d9015281816127000152818161283e01528181612a7d01528181613665015281816136a401526136f0015260c05185818161087201528181610de301528181611bdb015281816127fa0152612c02015260e05185818161022201528181610b1801526128b201525184818161041401528181611e3c01528181611f1701528181611f7901528181611fe001528181612c6e0152818161355b0152613be20152518381816102ca0152818161043d01528181611e800152818161358c0152613c14015251828181610168015261152701525181818161010c01526115530152f35b5f80fd5b634e487b7160e01b5f52604160045260245ffd5b51906001600160a01b0382168203620002245756fe6080806040526004361015610012575f80fd5b5f3560e01c908163025a3a2914612c265750806306ae709514612bb857806332878cc914612b4857806378fab5c714612b0f57806389a3027114612aa1578063a2060bcf14612a33578063aba30dfa146129fa578063b20caf451461298a578063bdec4a271461052e578063c4d66de8146102ee578063cd3293de14610280578063cf542a4d14610246578063d8a06f73146101d8578063dd02df16146101ae578063df80522a1461018b578063f331efef146101335763f3a8f356146100d7575f80fd5b3461012f575f7ffffffffffffffffffffffffffffffffffffffffffffffffffffffffffffffffc36011261012f5760206040517f00000000000000000000000000000000000000000000000000000000000000008152f35b5f80fd5b3461012f575f7ffffffffffffffffffffffffffffffffffffffffffffffffffffffffffffffffc36011261012f5760206040517f00000000000000000000000000000000000000000000000000000000000000008152f35b3461012f5760206101a461019e36612c92565b9161316e565b6040519015158152f35b3461012f576101d46101c86101c236612c92565b91612fb1565b60405191829182612cf2565b0390f35b3461012f575f7ffffffffffffffffffffffffffffffffffffffffffffffffffffffffffffffffc36011261012f57602060405173ffffffffffffffffffffffffffffffffffffffff7f0000000000000000000000000000000000000000000000000000000000000000168152f35b3461012f575f7ffffffffffffffffffffffffffffffffffffffffffffffffffffffffffffffffc36011261012f5760205f54604051908152f35b3461012f575f7ffffffffffffffffffffffffffffffffffffffffffffffffffffffffffffffffc36011261012f57602060405173ffffffffffffffffffffffffffffffffffffffff7f0000000000000000000000000000000000000000000000000000000000000000168152f35b3461012f5760207ffffffffffffffffffffffffffffffffffffffffffffffffffffffffffffffffc36011261012f5760043573ffffffffffffffffffffffffffffffffffffffff80821680920361012f577f6fee9688c285c5c5c97d6a1a29adced674e6b2ad0888b8ad2116b58a8b3ea2486001815410156104fd57600190557f2801b00eb06461cf9fcb9758b5fafd884ff06a86177386f73b6c49f0bf5a5af090600182557f0000000000000000000000000000000000000000000000000000000000000000303b1515806104f6575b6104cc5761046461048a925f957f2b50211693ec91bcfe327771928b74a8f475c508d53e86fca4153bcf0f0e877655827f5b5cbfa852c5bd03e540eba853f8faf28a604a4d82bee1091096bfaea14d08c355807f000000000000000000000000000000000000000000000000000000000000000016806104b8575b507f000000000000000000000000000000000000000000000000000000000000000016809261334d565b7f000000000000000000000000000000000000000000000000000000000000000061334d565b557fbe9b076dc5b65990cca9dd9d7366682482e7817a6f6bc7f4faf4dc32af497f32602060405160018152a1005b806104646104c6928661334d565b8661043a565b60046040517fb9a621e1000000000000000000000000000000000000000000000000000000008152fd5b505f6103bf565b60246040517f3db738da00000000000000000000000000000000000000000000000000000000815260016004820152fd5b60207ffffffffffffffffffffffffffffffffffffffffffffffffffffffffffffffffc36011261012f5767ffffffffffffffff6004351161012f5736602360043501121561012f5767ffffffffffffffff600435600401351161012f573660246004356004013560051b60043501011161012f575f5b6004356004013581106106b35747804710610655575f80808093335af16105c961331e565b50156105d157005b60846040517f08c379a000000000000000000000000000000000000000000000000000000000815260206004820152603a60248201527f416464726573733a20756e61626c6520746f2073656e642076616c75652c207260448201527f6563697069656e74206d617920686176652072657665727465640000000000006064820152fd5b60646040517f08c379a000000000000000000000000000000000000000000000000000000000815260206004820152601d60248201527f416464726573733a20696e73756666696369656e742062616c616e63650000006044820152fd5b60248160051b6004350101357fffffffffffffffffffffffffffffffffffffffffffffffffffffffffffffff9d60043536030181121561012f576004350160407fffffffffffffffffffffffffffffffffffffffffffffffffffffffffffffffdc823603011261012f57604051906040820182811067ffffffffffffffff8211176122bd576040526024810135600981101561012f57825260448101359067ffffffffffffffff821161012f57013660438201121561012f57602481013561077a81612e71565b916107886040519384612e30565b818352366044838301011161012f57815f92604460209301838601378301015260208201528051600981101561295d57600103610a5557602001519081518201610180836020830192031261012f576107e360208401612eab565b60408401519060608501519260808601519560a08101519161082261080a60c08401612eed565b9161014061081b8260e08701612efa565b9401612efa565b9473ffffffffffffffffffffffffffffffffffffffff98602460208b604051928380927f032bb443000000000000000000000000000000000000000000000000000000008252808c1660048301527f0000000000000000000000000000000000000000000000000000000000000000165afa9081156109cf575f91610a1b575b50156109f1577f0000000000000000000000000000000000000000000000000000000000000000996108dc6108d7308d6138b6565b613714565b9860016108e88861376e565b146109da575b8188163b1561012f576040517f91eece2800000000000000000000000000000000000000000000000000000000815233600482015260248101949094526044840152606483019190915260848201949094525f60a482018190529093849060c4908290849089165af180156109cf5761098a6109a1976109856108d760019c61099b9864e8d4a51000966109c0575b5030906138b6565b6137a9565b0590816109a7575b505082336137c1565b336137c1565b016105a4565b6109b36109b992613d7a565b336136c8565b8780610992565b6109c990612dab565b8e61097d565b6040513d5f823e3d90fd5b6109ec856109e789613d7a565b61350e565b6108ee565b60046040517f47b7c1b0000000000000000000000000000000000000000000000000000000008152fd5b90506020813d602011610a4d575b81610a3660209383612e30565b8101031261012f57610a4790612eed565b8b6108a2565b3d9150610a29565b8051600981101561295d57600203610cac57602001519060a08280518101031261012f5760208201519173ffffffffffffffffffffffffffffffffffffffff8316830361012f576040810151606082015190610ab860a060808501519401612eed565b926040517f032bb44300000000000000000000000000000000000000000000000000000000815273ffffffffffffffffffffffffffffffffffffffff8716600482015260208160248173ffffffffffffffffffffffffffffffffffffffff7f0000000000000000000000000000000000000000000000000000000000000000165afa9081156109cf575f91610c72575b50156109f15781610c63575b7f000000000000000000000000000000000000000000000000000000000000000091610b8030846138b6565b9373ffffffffffffffffffffffffffffffffffffffff88163b1561012f5760845f928373ffffffffffffffffffffffffffffffffffffffff6040519b8c9586947fd2c3aaf200000000000000000000000000000000000000000000000000000000865233600487015260248601526044850152876064850152165af19586156109cf57600196610c54575b50610c335750505f905b81610c22575b50506109a1565b610c2c91336136c8565b8280610c1b565b64e8d4a5100091610c48610c4d9230906138b6565b61349d565b0490610c15565b610c5d90612dab565b86610c0b565b610c6d848361350e565b610b54565b90506020813d602011610ca4575b81610c8d60209383612e30565b8101031261012f57610c9e90612eed565b87610b48565b3d9150610c80565b8051600981101561295d576003036113e157602001518051810181810390610180821261012f576101607fffffffffffffffffffffffffffffffffffffffffffffffffffffffffffffffe0610d0360208601612eab565b93011261012f5760405192610d1784612ddb565b604081015160ff8116810361012f578452606081015191825f0b830361012f57602061014091610d7f94828801526080840151604088015260a0840151606088015260c08401516080880152610d7282820160e08601612efa565b60a0880152019101612efa565b60c08301526040517f032bb44300000000000000000000000000000000000000000000000000000000815273ffffffffffffffffffffffffffffffffffffffff8216600482015260208160248173ffffffffffffffffffffffffffffffffffffffff7f0000000000000000000000000000000000000000000000000000000000000000165afa9081156109cf575f916113a7575b50156109f1576040820151156113355760208201515f0b7fffffffffffffffffffffffffffffffffffffffffffffffffffffffffffffffff811415908161139b575b506113355760ff8251166003811190811561135f575b5061133557335f52600160205260405f2073ffffffffffffffffffffffffffffffffffffffff82165f5260205260405f205f547fffffffffffffffffffffffffffffffffffffffffffffffffffffffffffffffff811461130857600101805f555f5260205260405f2060ff80845116116112de57607f60208401515f0b136112de577fffffffffffffffffffffffffffffffffffffffffffffffffffffffffffffff8060208401515f0b126112de576002610f296040850151613f35565b146112de576002610f3d6060850151613f09565b146112de57610f4f6060840151613eb3565b156112de576002610f636080850151613f09565b146112de57610f756080840151613eb3565b156112de576002610f8a60a085015151613f50565b146112de576002610f9f60c085015151613f50565b146112de57825160ff166020840151604085015160608601519260808701519460a088015194602086015173ffffffffffffffffffffffffffffffffffffffff1696865165ffffffffffff16966040015115159160c08b015195602087015173ffffffffffffffffffffffffffffffffffffffff1695875165ffffffffffff16976040015115159860405161103381612df7565b828152815f0b602082015267ffffffffffffffff841660408201528460070b60608201528560070b608082015260a081015f90528c60c08201528b60e08201528661010082015261012081015f905288610140820152896101608201528a6101808201526101a0015f905260081b61ff0016179060101b69ffffffffffffffff000016179060501b71ffffffffffffffff0000000000000000000016179060901b79ffffffffffffffff0000000000000000000000000000000000001617825560018201957fffffffffffffffffffffffff000000000000000000000000000000000000000097888854161787556111719087907fffffffffffff000000000000ffffffffffffffffffffffffffffffffffffffff79ffffffffffff000000000000000000000000000000000000000083549260a01b169116179055565b85547fffffffffff00ffffffffffffffffffffffffffffffffffffffffffffffffffff1690151560d01b7aff0000000000000000000000000000000000000000000000000000161785557affffffffffffffffffffffffffffffffffffffffffffffffffffff94858154169055600201948554161784556112389084907fffffffffffff000000000000ffffffffffffffffffffffffffffffffffffffff79ffffffffffff000000000000000000000000000000000000000083549260a01b169116179055565b82547fffffffffff00ffffffffffffffffffffffffffffffffffffffffffffffffffff1690151560d01b7aff00000000000000000000000000000000000000000000000000001617825581541690555f54916040519173ffffffffffffffffffffffffffffffffffffffff16918033926112b29082612cf2565b037fa9dacd70712b5d6af26b24f20002f840b398fda933ddeb01bfe74d8385485f0c91a46001906109a1565b60046040517ff3469aa7000000000000000000000000000000000000000000000000000000008152fd5b7f4e487b71000000000000000000000000000000000000000000000000000000005f52601160045260245ffd5b60046040517fb6befb58000000000000000000000000000000000000000000000000000000008152fd5b600391501480611370575b84610e6b565b5061137e6080830151613ef1565b60028114908115611390575b5061136a565b60019150148461138a565b60019150141584610e55565b90506020813d6020116113d9575b816113c260209383612e30565b8101031261012f576113d390612eed565b84610e13565b3d91506113b5565b8051600981101561295d5760040361148e57602001519060408280518101031261012f57816040611416602060019501612eab565b910151335f528360205273ffffffffffffffffffffffffffffffffffffffff60405f20921691825f5260205260405f20815f526020525f600260408220828155828782015501556040519081527fd23ac4476ccf3eeb78c76d4b7bb113597bcd16c15d47656627ea6221d685ad7360203392a36109a1565b8051600981101561295d5760050361245e57602001519060608280518101031261012f576114be60208301612eab565b60606114cc60408501612eab565b9301516114f0818573ffffffffffffffffffffffffffffffffffffffff851661316e565b1561243457611516818573ffffffffffffffffffffffffffffffffffffffff8516612fb1565b60405161152281612dbf565b5f81527f000000000000000000000000000000000000000000000000000000000000000060208201525f60408201527f0000000000000000000000000000000000000000000000000000000000000000606082015260408201516040519073ffffffffffffffffffffffffffffffffffffffff8616602083015273ffffffffffffffffffffffffffffffffffffffff881660408301526060820152606081526115ca81612dbf565b60405180602081011067ffffffffffffffff6020830111176122bd57602081016040525f81525f60208201528251602084015190156001171561130857611623670de0b6b3a76400009161161e48916139c0565b6139dd565b049260606040820151910151915190608c82018211611308577f0fffffffffffffffffffffffffffffffffffffffffffffffffffffffffffffff608c830116608c83010361130857604051917ff5d6ded7000000000000000000000000000000000000000000000000000000008352602083600481606c5afa9283156109cf575f936123f6575b50670de0b6b3a7640000936116da856116d36116e0969561161e608c61161e970160041b6139c0565b04916139c0565b9061399c565b04906116ec828461399c565b600460a073ffffffffffffffffffffffffffffffffffffffff7f2b50211693ec91bcfe327771928b74a8f475c508d53e86fca4153bcf0f0e87765416604051928380927ffeaf968c0000000000000000000000000000000000000000000000000000000082525afa9081156109cf575f916123a9575b50670de0b6b3a7640000810290808205670de0b6b3a76400001490151715611308575f6305f5e10082051261237257670de0b6b3a7640000916305f5e1006117ab9205906139dd565b0460608280518101031261012f576117c560208301612eab565b9060606117d460408501612eab565b930151908061230b575073ffffffffffffffffffffffffffffffffffffffff9161181893611813925f905b8082101561230157509384925b16906139f0565b613b34565b90611846827f5b5cbfa852c5bd03e540eba853f8faf28a604a4d82bee1091096bfaea14d08c35433906134aa565b604051925f84525f60208501526040840152606083015260808201527ffa0333956d06e335c550bd5fc4ac9c003c6545e371331b1071fa4d5d8519d6c160a03392a273ffffffffffffffffffffffffffffffffffffffff85163b1561012f576040517f91eece2800000000000000000000000000000000000000000000000000000000815273ffffffffffffffffffffffffffffffffffffffff841660048201527fffffffffffffffffffffffffffffffffffffffffffffffffffffffffffffffff80602483015280604483015260648201525f60848201525f60a48201525f8160c4818373ffffffffffffffffffffffffffffffffffffffff8b165af180156109cf576122f2575b50604051907f6e19368000000000000000000000000000000000000000000000000000000000825273ffffffffffffffffffffffffffffffffffffffff841660048301526101808260248173ffffffffffffffffffffffffffffffffffffffff8a165afa9182156109cf575f926121f2575b50604051907f55f5751000000000000000000000000000000000000000000000000000000000825273ffffffffffffffffffffffffffffffffffffffff8516600483015260808260248173ffffffffffffffffffffffffffffffffffffffff8b165afa9182156109cf575f92612191575b5082518252611a446020830151613a9e565b611a67611a546060860151613a9e565b611a616080870151613a9e565b906137a9565b80808301125f831290801582169115161761130857611a869101613af9565b92611a946040840151613a9e565b611ab1611aa460a0840151613a9e565b611a6160c0850151613a9e565b80808301125f831290801582169115161761130857611ad09101613af9565b90611afd611ae16060860151613a9e565b91611a61610100611af560e0840151613a9e565b920151613a9e565b80808301125f831290801582169115161761130857611b1c9101613af9565b606084015260408301528260208301525f9260ff82511615612145575b50600160ff825116146120fb575b600260ff825116146120b1575b600360ff8251161461206c575b6020820151606060408401519301519260c060a0840151930151946040517f032bb44300000000000000000000000000000000000000000000000000000000815273ffffffffffffffffffffffffffffffffffffffff8b16600482015260208160248173ffffffffffffffffffffffffffffffffffffffff7f0000000000000000000000000000000000000000000000000000000000000000165afa9081156109cf575f91612032575b50156109f157611c3e6108d7307f00000000000000000000000000000000000000000000000000000000000000006138b6565b946001611c4a8361376e565b14611dee575b73ffffffffffffffffffffffffffffffffffffffff8b163b1561012f576040517f91eece2800000000000000000000000000000000000000000000000000000000815273ffffffffffffffffffffffffffffffffffffffff8a8116600483015260248201959095526044810193909352606483015260848201525f60a482018190529091829060c490829084908d165af19788156109cf57611d857f889f0643d669fbac53cbc7d1826992b9bce1fab5e9644034cffb9c0137fe9dd195611d7c73ffffffffffffffffffffffffffffffffffffffff9564e8d4a51000611d6b60209960019f988a99611ddf575b506109856108d7307f00000000000000000000000000000000000000000000000000000000000000006138b6565b0580611dc2575b5084868c166137c1565b82848a166137c1565b8187165f5288845260405f208282165f52845260405f20865f5284525f600260408220828155828c820155015560405195865216941692a36109a1565b611dd1611813611dd992613d7a565b878d16613bca565b8d611d72565b611de890612dab565b5f611d3d565b611e25611dfa83613d7a565b61181381337f0000000000000000000000000000000000000000000000000000000000000000613b4e565b73ffffffffffffffffffffffffffffffffffffffff7f000000000000000000000000000000000000000000000000000000000000000016158015611fc0575b15611f005773ffffffffffffffffffffffffffffffffffffffff7f00000000000000000000000000000000000000000000000000000000000000001690813b1561012f575f916024839260405194859384927fa0712d6800000000000000000000000000000000000000000000000000000000845260048401525af180156109cf57611ef1575b50611c50565b611efa90612dab565b8b611eeb565b73ffffffffffffffffffffffffffffffffffffffff7f0000000000000000000000000000000000000000000000000000000000000000163b1561012f576040517f13bac82000000000000000000000000000000000000000000000000000000000815260048101919091523060248201525f81604481837f000000000000000000000000000000000000000000000000000000000000000073ffffffffffffffffffffffffffffffffffffffff165af180156109cf57611ef15750611c50565b50600261202c61202673ffffffffffffffffffffffffffffffffffffffff7f0000000000000000000000000000000000000000000000000000000000000000167f00000000000000000000000000000000000000000000000000000000000000006138b6565b83613f69565b14611e64565b90506020813d602011612064575b8161204d60209383612e30565b8101031261012f5761205e90612eed565b8b611c0b565b3d9150612040565b91506080820151600161207e82613eb3565b036120ac57507f80000000000000000000000000000000000000000000000000000000000000005b91611b61565b6120a6565b6080810180516120c857505f5b6060830152611b54565b6120d56060840151613a9e565b905180808301125f8312908015821691151617611308576120f69101613af9565b6120be565b60808101805161211257505f5b6040830152611b47565b61211f6040840151613a9e565b905180808301125f8312908015821691151617611308576121409101613af9565b612108565b60808201908151155f146121625750505f5b602083015287611b39565b61216b90613a9e565b905180808301125f83129080158216911516176113085761218c9101613af9565b612157565b9091506080813d6080116121ea575b816121ad60809383612e30565b8101031261012f576060604051916121c483612dbf565b805183526020810151602084015260408101516040840152015160608201529087611a32565b3d91506121a0565b909150610180813d610180116122ea575b816122116101809383612e30565b8101031261012f57604051908161018081011067ffffffffffffffff610180840111176122bd576101808201604052805182526020810151602083015260408101516040830152606081015160608301526080810151608083015260a081015160a083015260c0808201519083015260e081015160e0830152610100808201519083015261012080820151908301526101408082015190830152610160809101519082015290866119c1565b7f4e487b71000000000000000000000000000000000000000000000000000000005f52604160045260245ffd5b3d9150612203565b6122fb90612dab565b8561194f565b905093849261180c565b7fffffffffffffffffffffffffffffffffffffffffffffffffffffffffffffffff81939293019081116113085764e8d4a51000900490600182018211611308576118189373ffffffffffffffffffffffffffffffffffffffff9360016118139401906117ff565b6024906305f5e100604051917f501f289e000000000000000000000000000000000000000000000000000000008352056004820152fd5b905060a0813d60a0116123ee575b816123c460a09383612e30565b8101031261012f576123d5816139a9565b506123e76080602083015192016139a9565b508a611762565b3d91506123b7565b9250906020833d60201161242c575b8161241260209383612e30565b8101031261012f5791519190670de0b6b3a76400006116aa565b3d9150612405565b60046040517f6f462962000000000000000000000000000000000000000000000000000000008152fd5b8051600981101561295d576006036127615760200151908151820160c08382031261012f5761248f60208401612eab565b9260408101519360608201519467ffffffffffffffff861161012f5760208401603f87850101121561012f57602086840101519067ffffffffffffffff82116122bd578160051b96604051926124e860208a0185612e30565b835260208301809860208801604082858a0101011161012f57604083880101915b604082858a0101018310612751575050505060808401519360a081015167ffffffffffffffff811161012f5781019060208701603f8301121561012f57602082015190602061255783612e71565b986125656040519a8b612e30565b838a52016040838501011161012f5761258b60c09261259194604060208c019101612ecc565b01612eed565b966125bc307f00000000000000000000000000000000000000000000000000000000000000006138b6565b9573ffffffffffffffffffffffffffffffffffffffff85163b1561012f576040519586947f1e298b90000000000000000000000000000000000000000000000000000000008652606486019060606004880152518091526084860193905f5b818110612738575050508461267981945f98969473ffffffffffffffffffffffffffffffffffffffff9460248501527ffffffffffffffffffffffffffffffffffffffffffffffffffffffffffffffffc8483030160448501526132db565b0393165af19081612729575b506126c8575061269361331e565b916126a157600191506109a1565b50604051906020820182811067ffffffffffffffff8211176122bd576040525f8252613947565b600192506126fd61272491610c48307f00000000000000000000000000000000000000000000000000000000000000006138b6565b337f00000000000000000000000000000000000000000000000000000000000000006134aa565b6109a1565b61273290612dab565b84612685565b825186528997506020958601959092019160010161261b565b8251815260209283019201612509565b8051600981101561295d5760081461277d575b506001906109a1565b6020015160208180518101031261012f576127af602073ffffffffffffffffffffffffffffffffffffffff9201612eab565b16906040517f032bb44300000000000000000000000000000000000000000000000000000000815282600482015260208160248173ffffffffffffffffffffffffffffffffffffffff7f0000000000000000000000000000000000000000000000000000000000000000165afa9081156109cf575f91612923575b501580612868575b6109f1576128626001927f000000000000000000000000000000000000000000000000000000000000000061334d565b90612774565b506040517f032bb44300000000000000000000000000000000000000000000000000000000815282600482015260208160248173ffffffffffffffffffffffffffffffffffffffff7f0000000000000000000000000000000000000000000000000000000000000000165afa9081156109cf575f916128e9575b5015612832565b90506020813d60201161291b575b8161290460209383612e30565b8101031261012f5761291590612eed565b836128e2565b3d91506128f7565b90506020813d602011612955575b8161293e60209383612e30565b8101031261012f5761294f90612eed565b8361282a565b3d9150612931565b7f4e487b71000000000000000000000000000000000000000000000000000000005f52602160045260245ffd5b3461012f575f7ffffffffffffffffffffffffffffffffffffffffffffffffffffffffffffffffc36011261012f57602073ffffffffffffffffffffffffffffffffffffffff7f2b50211693ec91bcfe327771928b74a8f475c508d53e86fca4153bcf0f0e87765416604051908152f35b3461012f575f7ffffffffffffffffffffffffffffffffffffffffffffffffffffffffffffffffc36011261012f576020604051608c8152f35b3461012f575f7ffffffffffffffffffffffffffffffffffffffffffffffffffffffffffffffffc36011261012f57602060405173ffffffffffffffffffffffffffffffffffffffff7f0000000000000000000000000000000000000000000000000000000000000000168152f35b3461012f575f7ffffffffffffffffffffffffffffffffffffffffffffffffffffffffffffffffc36011261012f57602060405173ffffffffffffffffffffffffffffffffffffffff7f0000000000000000000000000000000000000000000000000000000000000000168152f35b3461012f575f7ffffffffffffffffffffffffffffffffffffffffffffffffffffffffffffffffc36011261012f57602060405160108152f35b3461012f575f7ffffffffffffffffffffffffffffffffffffffffffffffffffffffffffffffffc36011261012f5760207f5b5cbfa852c5bd03e540eba853f8faf28a604a4d82bee1091096bfaea14d08c35473ffffffffffffffffffffffffffffffffffffffff60405191168152f35b3461012f575f7ffffffffffffffffffffffffffffffffffffffffffffffffffffffffffffffffc36011261012f57602060405173ffffffffffffffffffffffffffffffffffffffff7f0000000000000000000000000000000000000000000000000000000000000000168152f35b3461012f575f7ffffffffffffffffffffffffffffffffffffffffffffffffffffffffffffffffc36011261012f5760209073ffffffffffffffffffffffffffffffffffffffff7f0000000000000000000000000000000000000000000000000000000000000000168152f35b7ffffffffffffffffffffffffffffffffffffffffffffffffffffffffffffffffc606091011261012f5773ffffffffffffffffffffffffffffffffffffffff90600435828116810361012f5791602435908116810361012f579060443590565b612da99092919261010060c061016083019560ff815116845260208101515f0b6020850152604081015160408501526060810151606085015260808101516080850152612d7360a082015160a0860190604080918051845273ffffffffffffffffffffffffffffffffffffffff602082015116602085015201511515910152565b0151910190604080918051845273ffffffffffffffffffffffffffffffffffffffff602082015116602085015201511515910152565b565b67ffffffffffffffff81116122bd57604052565b6080810190811067ffffffffffffffff8211176122bd57604052565b60e0810190811067ffffffffffffffff8211176122bd57604052565b6101c0810190811067ffffffffffffffff8211176122bd57604052565b6060810190811067ffffffffffffffff8211176122bd57604052565b90601f7fffffffffffffffffffffffffffffffffffffffffffffffffffffffffffffffe0910116810190811067ffffffffffffffff8211176122bd57604052565b67ffffffffffffffff81116122bd57601f017fffffffffffffffffffffffffffffffffffffffffffffffffffffffffffffffe01660200190565b519073ffffffffffffffffffffffffffffffffffffffff8216820361012f57565b5f5b838110612edd5750505f910152565b8181015183820152602001612ece565b5190811515820361012f57565b919082606091031261012f57604051612f1281612e14565b80928051825260208101519073ffffffffffffffffffffffffffffffffffffffff8216820361012f576040612f4e918193602086015201612eed565b910152565b60405190612f6082612e14565b5f6040838281528260208201520152565b60405190612f7e82612ddb565b815f81525f60208201525f60408201525f60608201525f6080820152612fa2612f53565b60a082015260c0612f4e612f53565b9061311990612fbe612f71565b5073ffffffffffffffffffffffffffffffffffffffff8093165f526020936001855260409184835f2091165f528552815f20905f528452805f20613000612f71565b5081519361300d85612df7565b81549260ff8416968787528460081c5f0b9081818901528767ffffffffffffffff8760101c169485858301528760501c60070b968760608401527fffffffffffff00000000000000000000000000000000000000000000000000008960901c60070b998a60808601521660a08401526001810154828116918260c086015265ffffffffffff92838360a01c168060e0880152610140600260ff8660d01c16151594856101008b01527fffffffffff0000000000000000000000000000000000000000000000000000008097166101208b0152015497019e8f87891690526101a0610160820195878a60a01c16875261018083019960ff8160d01c1615158b521691015289519d8e612e14565b8d52868d0152878c0152511699511690511515908451996131398b612e14565b8a52828a01528389015282519861314f8a612ddb565b89528801528601526060850152608084015260a083015260c082015290565b918161317a9293612fb1565b60409081810151156132d45773ffffffffffffffffffffffffffffffffffffffff80938351907f7dc0d1d0000000000000000000000000000000000000000000000000000000008252816004816020958694165afa80156132ca575f90613293575b6060915060048551809781937f52bfe789000000000000000000000000000000000000000000000000000000008352165afa92831561328a575f9361322b575b50506132289250613407565b90565b909192506060843d606011613282575b8161324860609383612e30565b8101031261012f57613276816132289581519461326486612e14565b81518652808201519086015201612eed565b90820152905f8061321c565b3d915061323b565b513d5f823e3d90fd5b508181813d83116132c3575b6132a98183612e30565b8101031261012f5751848116810361012f576060906131dc565b503d61329f565b84513d5f823e3d90fd5b5050505f90565b907fffffffffffffffffffffffffffffffffffffffffffffffffffffffffffffffe0601f60209361331781518092818752878088019101612ecc565b0116010190565b3d15613348573d9061332f82612e71565b9161333d6040519384612e30565b82523d5f602084013e565b606090565b90602090604473ffffffffffffffffffffffffffffffffffffffff915f8360405196879586947f095ea7b30000000000000000000000000000000000000000000000000000000086521660048501527fffffffffffffffffffffffffffffffffffffffffffffffffffffffffffffffff6024850152165af180156109cf576133d25750565b6020813d6020116133ff575b816133eb60209383612e30565b8101031261012f576133fc90612eed565b50565b3d91506133de565b6040820151156134975760208101515f0b60018114613474577fffffffffffffffffffffffffffffffffffffffffffffffffffffffffffffffff1461344c5750505f90565b6060602061345f93015191015190613f24565b801590811561346c575090565b600191501490565b506060602061348893015191015190613f24565b6002811490811561346c575090565b50505f90565b9190820391821161130857565b91612da99273ffffffffffffffffffffffffffffffffffffffff9182604051947fa9059cbb00000000000000000000000000000000000000000000000000000000602087015216602485015260448401526044835261350883612dbf565b16613d89565b9015613695578061181361354392337f0000000000000000000000000000000000000000000000000000000000000000613b4e565b73ffffffffffffffffffffffffffffffffffffffff807f00000000000000000000000000000000000000000000000000000000000000001680158015613659575b1561360257507f00000000000000000000000000000000000000000000000000000000000000001690813b1561012f575f916024839260405194859384927fa0712d6800000000000000000000000000000000000000000000000000000000845260048401525af180156109cf576135f95750565b612da990612dab565b8091503b1561012f576040517f13bac82000000000000000000000000000000000000000000000000000000000815260048101929092523060248301525f908290604490829084905af180156109cf576135f95750565b50600261368f613689837f00000000000000000000000000000000000000000000000000000000000000006138b6565b85613f69565b14613584565b6136a1612da991613b34565b337f0000000000000000000000000000000000000000000000000000000000000000613b4e565b9091156136e1576136db612da992613b34565b90613bca565b6136ed612da992613b34565b907f00000000000000000000000000000000000000000000000000000000000000006134aa565b7f7fffffffffffffffffffffffffffffffffffffffffffffffffffffffffffffff811161373e5790565b602490604051907ea07eb50000000000000000000000000000000000000000000000000000000082526004820152fd5b5f81136137a3575f1361377f575f90565b7fffffffffffffffffffffffffffffffffffffffffffffffffffffffffffffffff90565b50600190565b81810392915f13801582851316918412161761130857565b9190815180156138b057816137fa606092867f7bdf48e07cd0f3669b6ef1a2004307c0c28e2c22d70ae7a6d8e1ea1b42690591956139f0565b6040840151156138835761382c73ffffffffffffffffffffffffffffffffffffffff6020860151166136db8651613b34565b73ffffffffffffffffffffffffffffffffffffffff809161387c6040518097604080918051845273ffffffffffffffffffffffffffffffffffffffff602082015116602085015201511515910152565b16941692a3565b6138ab73ffffffffffffffffffffffffffffffffffffffff6020860151166136ed8651613b34565b61382c565b50505050565b90602090602473ffffffffffffffffffffffffffffffffffffffff918260405195869485937f70a08231000000000000000000000000000000000000000000000000000000008552166004840152165afa9081156109cf575f91613918575090565b90506020813d60201161393f575b8161393360209383612e30565b8101031261012f575190565b3d9150613926565b80519091901561395a5750805190602001fd5b613998906040519182917f08c379a00000000000000000000000000000000000000000000000000000000083526020600484015260248301906132db565b0390fd5b9190820180921161130857565b519069ffffffffffffffffffff8216820361012f57565b90670de0b6b3a76400009182810292818404149015171561130857565b8181029291811591840414171561130857565b613a1173ffffffffffffffffffffffffffffffffffffffff80921693613a9e565b92803b1561012f575f928360c49260405196879586947f91eece280000000000000000000000000000000000000000000000000000000086521660048501527fffffffffffffffffffffffffffffffffffffffffffffffffffffffffffffffff8060248601528060448601526064850152820360848401528160a48401525af180156109cf576135f95750565b7f7fffffffffffffffffffffffffffffffffffffffffffffffffffffffffffffff8111613ac85790565b602490604051907feecaa25d0000000000000000000000000000000000000000000000000000000082526004820152fd5b5f8112613b035790565b602490604051907fb02ef0870000000000000000000000000000000000000000000000000000000082526004820152fd5b64e8d4a51000908181029181830414901517156113085790565b9173ffffffffffffffffffffffffffffffffffffffff9081604051937f23b872dd00000000000000000000000000000000000000000000000000000000602086015216602484015230604484015260648301526064825260a082019282841067ffffffffffffffff8511176122bd57612da99360405216613d89565b73ffffffffffffffffffffffffffffffffffffffff807f00000000000000000000000000000000000000000000000000000000000000001680158015613d3b575b15613ccc5750807f000000000000000000000000000000000000000000000000000000000000000016803b1561012f575f80916024604051809481937fdb006a750000000000000000000000000000000000000000000000000000000083528960048401525af180156109cf57613cbd575b503090821603613c8b575050565b64e8d4a51000612da99204907f00000000000000000000000000000000000000000000000000000000000000006134aa565b613cc690612dab565b5f613c7d565b80939291503b1561012f576040517f7647691d000000000000000000000000000000000000000000000000000000008152600481019290925273ffffffffffffffffffffffffffffffffffffffff166024820152905f908290604490829084905af180156109cf576135f95750565b506002613d74613d6e611813847f00000000000000000000000000000000000000000000000000000000000000006138b6565b86613f69565b14613c0b565b5f8112613d845790565b5f0390565b73ffffffffffffffffffffffffffffffffffffffff16604051604081019181831067ffffffffffffffff8411176122bd57613e05926040525f806020958685527f5361666545524332303a206c6f772d6c6576656c2063616c6c206661696c656487860152868151910182855af1613dff61331e565b91613f7a565b805180613e1157505050565b8183918101031261012f5781613e279101612eed565b15613e2f5750565b608490604051907f08c379a00000000000000000000000000000000000000000000000000000000082526004820152602a60248201527f5361666545524332303a204552433230206f7065726174696f6e20646964206e60448201527f6f742073756363656564000000000000000000000000000000000000000000006064820152fd5b7fffffffffffffffffffffffffffffffffffffffffffffffff800000000000000090818113613eea5712613ee657600190565b5f90565b5050600290565b5f8113613f03575f13613ee657600190565b50600290565b677fffffffffffffff90818113613eea5712613ee657600190565b818113613eea5712613ee657600190565b67ffffffffffffffff90818111613eea5710613ee657600190565b65ffffffffffff90818111613eea5710613ee657600190565b818111613eea5710613ee657600190565b91929015613ff55750815115613f8e575090565b3b15613f975790565b60646040517f08c379a000000000000000000000000000000000000000000000000000000000815260206004820152601d60248201527f416464726573733a2063616c6c20746f206e6f6e2d636f6e74726163740000006044820152fd5b8261394756fea264697066735822122050250f1075635008ada8f44c93772f08fe4f0dba235a328f8168b75a9d69e68c64736f6c63430008180033",
  "devdoc": {
    "details": "Additionally incentivizes keepers with L1 rollup fees according to the Arbitrum spec",
    "kind": "dev",
    "methods": {
      "canExecuteOrder(address,address,uint256)": {
        "params": {
          "account": "Account to get open oder of",
          "market": "Market to get open order in",
          "nonce": "UID of order"
        },
        "returns": {
          "_0": "canFill Whether the order can be executed"
        }
      },
      "initialize(address)": {
        "params": {
          "ethOracle_": "Chainlink ETH/USD oracle address"
        }
      },
      "invoke((uint8,bytes)[])": {
        "params": {
          "invocations": "List of actions to execute in order"
        }
      },
      "orders(address,address,uint256)": {
        "params": {
          "account": "Account to get open oder of",
          "market": "Market to get open order in",
          "nonce": "UID of order"
        }
      }
    },
    "title": "MultiInvoker_Arbitrum",
    "version": 1
  },
  "userdoc": {
    "kind": "user",
    "methods": {
      "canExecuteOrder(address,address,uint256)": {
        "notice": "Returns whether an order can be executed"
      },
      "initialize(address)": {
        "notice": "Initialize the contract"
      },
      "invoke((uint8,bytes)[])": {
        "notice": "entry to perform invocations"
      },
      "orders(address,address,uint256)": {
        "notice": "View function to get order state"
      }
    },
    "notice": "Arbitrum Kept MultiInvoker implementation.",
    "version": 1
  },
  "storageLayout": {
    "storage": [
      {
        "astId": 362,
        "contract": "@equilibria/perennial-v2-extensions/contracts/MultiInvoker_Arbitrum.sol:MultiInvoker_Arbitrum",
        "label": "latestNonce",
        "offset": 0,
        "slot": "0",
        "type": "t_uint256"
      },
      {
        "astId": 373,
        "contract": "@equilibria/perennial-v2-extensions/contracts/MultiInvoker_Arbitrum.sol:MultiInvoker_Arbitrum",
        "label": "_orders",
        "offset": 0,
        "slot": "1",
        "type": "t_mapping(t_address,t_mapping(t_contract(IMarket)14358,t_mapping(t_uint256,t_struct(TriggerOrderStorage)2274_storage)))"
      }
    ],
    "types": {
      "t_address": {
        "encoding": "inplace",
        "label": "address",
        "numberOfBytes": "20"
      },
      "t_bool": {
        "encoding": "inplace",
        "label": "bool",
        "numberOfBytes": "1"
      },
      "t_bytes5": {
        "encoding": "inplace",
        "label": "bytes5",
        "numberOfBytes": "5"
      },
      "t_bytes6": {
        "encoding": "inplace",
        "label": "bytes6",
        "numberOfBytes": "6"
      },
      "t_contract(IMarket)14358": {
        "encoding": "inplace",
        "label": "contract IMarket",
        "numberOfBytes": "20"
      },
      "t_int64": {
        "encoding": "inplace",
        "label": "int64",
        "numberOfBytes": "8"
      },
      "t_int8": {
        "encoding": "inplace",
        "label": "int8",
        "numberOfBytes": "1"
      },
      "t_mapping(t_address,t_mapping(t_contract(IMarket)14358,t_mapping(t_uint256,t_struct(TriggerOrderStorage)2274_storage)))": {
        "encoding": "mapping",
        "key": "t_address",
        "label": "mapping(address => mapping(contract IMarket => mapping(uint256 => struct TriggerOrderStorage)))",
        "numberOfBytes": "32",
        "value": "t_mapping(t_contract(IMarket)14358,t_mapping(t_uint256,t_struct(TriggerOrderStorage)2274_storage))"
      },
      "t_mapping(t_contract(IMarket)14358,t_mapping(t_uint256,t_struct(TriggerOrderStorage)2274_storage))": {
        "encoding": "mapping",
        "key": "t_contract(IMarket)14358",
        "label": "mapping(contract IMarket => mapping(uint256 => struct TriggerOrderStorage))",
        "numberOfBytes": "32",
        "value": "t_mapping(t_uint256,t_struct(TriggerOrderStorage)2274_storage)"
      },
      "t_mapping(t_uint256,t_struct(TriggerOrderStorage)2274_storage)": {
        "encoding": "mapping",
        "key": "t_uint256",
        "label": "mapping(uint256 => struct TriggerOrderStorage)",
        "numberOfBytes": "32",
        "value": "t_struct(TriggerOrderStorage)2274_storage"
      },
      "t_struct(StoredTriggerOrder)2270_storage": {
        "encoding": "inplace",
        "label": "struct StoredTriggerOrder",
        "members": [
          {
            "astId": 2243,
            "contract": "@equilibria/perennial-v2-extensions/contracts/MultiInvoker_Arbitrum.sol:MultiInvoker_Arbitrum",
            "label": "side",
            "offset": 0,
            "slot": "0",
            "type": "t_uint8"
          },
          {
            "astId": 2245,
            "contract": "@equilibria/perennial-v2-extensions/contracts/MultiInvoker_Arbitrum.sol:MultiInvoker_Arbitrum",
            "label": "comparison",
            "offset": 1,
            "slot": "0",
            "type": "t_int8"
          },
          {
            "astId": 2247,
            "contract": "@equilibria/perennial-v2-extensions/contracts/MultiInvoker_Arbitrum.sol:MultiInvoker_Arbitrum",
            "label": "fee",
            "offset": 2,
            "slot": "0",
            "type": "t_uint64"
          },
          {
            "astId": 2249,
            "contract": "@equilibria/perennial-v2-extensions/contracts/MultiInvoker_Arbitrum.sol:MultiInvoker_Arbitrum",
            "label": "price",
            "offset": 10,
            "slot": "0",
            "type": "t_int64"
          },
          {
            "astId": 2251,
            "contract": "@equilibria/perennial-v2-extensions/contracts/MultiInvoker_Arbitrum.sol:MultiInvoker_Arbitrum",
            "label": "delta",
            "offset": 18,
            "slot": "0",
            "type": "t_int64"
          },
          {
            "astId": 2253,
            "contract": "@equilibria/perennial-v2-extensions/contracts/MultiInvoker_Arbitrum.sol:MultiInvoker_Arbitrum",
            "label": "__unallocated0__",
            "offset": 26,
            "slot": "0",
            "type": "t_bytes6"
          },
          {
            "astId": 2255,
            "contract": "@equilibria/perennial-v2-extensions/contracts/MultiInvoker_Arbitrum.sol:MultiInvoker_Arbitrum",
            "label": "interfaceFeeReceiver1",
            "offset": 0,
            "slot": "1",
            "type": "t_address"
          },
          {
            "astId": 2257,
            "contract": "@equilibria/perennial-v2-extensions/contracts/MultiInvoker_Arbitrum.sol:MultiInvoker_Arbitrum",
            "label": "interfaceFeeAmount1",
            "offset": 20,
            "slot": "1",
            "type": "t_uint48"
          },
          {
            "astId": 2259,
            "contract": "@equilibria/perennial-v2-extensions/contracts/MultiInvoker_Arbitrum.sol:MultiInvoker_Arbitrum",
            "label": "interfaceFeeUnwrap1",
            "offset": 26,
            "slot": "1",
            "type": "t_bool"
          },
          {
            "astId": 2261,
            "contract": "@equilibria/perennial-v2-extensions/contracts/MultiInvoker_Arbitrum.sol:MultiInvoker_Arbitrum",
            "label": "__unallocated1__",
            "offset": 27,
            "slot": "1",
            "type": "t_bytes5"
          },
          {
            "astId": 2263,
            "contract": "@equilibria/perennial-v2-extensions/contracts/MultiInvoker_Arbitrum.sol:MultiInvoker_Arbitrum",
            "label": "interfaceFeeReceiver2",
            "offset": 0,
            "slot": "2",
            "type": "t_address"
          },
          {
            "astId": 2265,
            "contract": "@equilibria/perennial-v2-extensions/contracts/MultiInvoker_Arbitrum.sol:MultiInvoker_Arbitrum",
            "label": "interfaceFeeAmount2",
            "offset": 20,
            "slot": "2",
            "type": "t_uint48"
          },
          {
            "astId": 2267,
            "contract": "@equilibria/perennial-v2-extensions/contracts/MultiInvoker_Arbitrum.sol:MultiInvoker_Arbitrum",
            "label": "interfaceFeeUnwrap2",
            "offset": 26,
            "slot": "2",
            "type": "t_bool"
          },
          {
            "astId": 2269,
            "contract": "@equilibria/perennial-v2-extensions/contracts/MultiInvoker_Arbitrum.sol:MultiInvoker_Arbitrum",
            "label": "__unallocated2__",
            "offset": 27,
            "slot": "2",
            "type": "t_bytes5"
          }
        ],
        "numberOfBytes": "96"
      },
      "t_struct(TriggerOrderStorage)2274_storage": {
        "encoding": "inplace",
        "label": "struct TriggerOrderStorage",
        "members": [
          {
            "astId": 2273,
            "contract": "@equilibria/perennial-v2-extensions/contracts/MultiInvoker_Arbitrum.sol:MultiInvoker_Arbitrum",
            "label": "value",
            "offset": 0,
            "slot": "0",
            "type": "t_struct(StoredTriggerOrder)2270_storage"
          }
        ],
        "numberOfBytes": "96"
      },
      "t_uint256": {
        "encoding": "inplace",
        "label": "uint256",
        "numberOfBytes": "32"
      },
      "t_uint48": {
        "encoding": "inplace",
        "label": "uint48",
        "numberOfBytes": "6"
      },
      "t_uint64": {
        "encoding": "inplace",
        "label": "uint64",
        "numberOfBytes": "8"
      },
      "t_uint8": {
        "encoding": "inplace",
        "label": "uint8",
        "numberOfBytes": "1"
      }
    }
  }
}