{
  "address": "0x8Da96a2eDe1dd5Af8Bd3BD142226820f6Bb09751",
  "abi": [
    {
      "inputs": [
        {
          "internalType": "contract AbstractPyth",
          "name": "pyth_",
          "type": "address"
        },
        {
          "internalType": "address",
          "name": "implementation_",
          "type": "address"
        },
        {
          "internalType": "uint256",
          "name": "validFrom_",
          "type": "uint256"
        },
        {
          "internalType": "uint256",
          "name": "validTo_",
          "type": "uint256"
        },
        {
          "components": [
            {
              "internalType": "UFixed18",
              "name": "multiplierBase",
              "type": "uint256"
            },
            {
              "internalType": "uint256",
              "name": "bufferBase",
              "type": "uint256"
            },
            {
              "internalType": "UFixed18",
              "name": "multiplierCalldata",
              "type": "uint256"
            },
            {
              "internalType": "uint256",
              "name": "bufferCalldata",
              "type": "uint256"
            }
          ],
          "internalType": "struct IKept.KeepConfig",
          "name": "commitKeepConfig_",
          "type": "tuple"
        },
        {
          "components": [
            {
              "internalType": "UFixed18",
              "name": "multiplierBase",
              "type": "uint256"
            },
            {
              "internalType": "uint256",
              "name": "bufferBase",
              "type": "uint256"
            },
            {
              "internalType": "UFixed18",
              "name": "multiplierCalldata",
              "type": "uint256"
            },
            {
              "internalType": "uint256",
              "name": "bufferCalldata",
              "type": "uint256"
            }
          ],
          "internalType": "struct IKept.KeepConfig",
          "name": "settleKeepConfig_",
          "type": "tuple"
        },
        {
          "internalType": "uint256",
          "name": "keepCommitIncrementalBufferData_",
          "type": "uint256"
        }
      ],
      "stateMutability": "nonpayable",
      "type": "constructor"
    },
    {
      "inputs": [],
      "name": "DivisionByZero",
      "type": "error"
    },
    {
      "inputs": [],
      "name": "FactoryNotInstanceError",
      "type": "error"
    },
    {
      "inputs": [
        {
          "internalType": "uint256",
          "name": "version",
          "type": "uint256"
        }
      ],
      "name": "InitializableAlreadyInitializedError",
      "type": "error"
    },
    {
      "inputs": [],
      "name": "InitializableNotInitializingError",
      "type": "error"
    },
    {
      "inputs": [],
      "name": "InitializableZeroVersionError",
      "type": "error"
    },
    {
      "inputs": [],
      "name": "KeeperFactoryAlreadyCreatedError",
      "type": "error"
    },
    {
      "inputs": [],
      "name": "KeeperFactoryInvalidGranularityError",
      "type": "error"
    },
    {
      "inputs": [],
      "name": "KeeperFactoryInvalidIdError",
      "type": "error"
    },
    {
      "inputs": [],
      "name": "KeeperFactoryInvalidPayoffError",
      "type": "error"
    },
    {
      "inputs": [],
      "name": "KeeperFactoryInvalidSettleError",
      "type": "error"
    },
    {
      "inputs": [],
      "name": "KeeperFactoryNotCreatedError",
      "type": "error"
    },
    {
      "inputs": [],
      "name": "KeeperFactoryNotInstanceError",
      "type": "error"
    },
    {
      "inputs": [],
      "name": "KeeperFactoryVersionOutsideRangeError",
      "type": "error"
    },
    {
      "inputs": [
        {
          "internalType": "address",
          "name": "sender",
          "type": "address"
        }
      ],
      "name": "OwnableNotOwnerError",
      "type": "error"
    },
    {
      "inputs": [
        {
          "internalType": "address",
          "name": "sender",
          "type": "address"
        }
      ],
      "name": "OwnableNotPendingOwnerError",
      "type": "error"
    },
    {
      "inputs": [
        {
          "internalType": "address",
          "name": "sender",
          "type": "address"
        }
      ],
      "name": "PausableNotPauserError",
      "type": "error"
    },
    {
      "inputs": [],
      "name": "PausablePausedError",
      "type": "error"
    },
    {
      "inputs": [],
      "name": "PythFactoryInvalidIdError",
      "type": "error"
    },
    {
      "inputs": [
        {
          "internalType": "int256",
          "name": "value",
          "type": "int256"
        }
      ],
      "name": "UFixed18UnderflowError",
      "type": "error"
    },
    {
      "anonymous": false,
      "inputs": [
        {
          "indexed": true,
          "internalType": "contract IFactory",
          "name": "caller",
          "type": "address"
        }
      ],
      "name": "CallerAuthorized",
      "type": "event"
    },
    {
      "anonymous": false,
      "inputs": [
        {
          "indexed": false,
          "internalType": "uint256",
          "name": "newGranularity",
          "type": "uint256"
        },
        {
          "indexed": false,
          "internalType": "uint256",
          "name": "effectiveAfter",
          "type": "uint256"
        }
      ],
      "name": "GranularityUpdated",
      "type": "event"
    },
    {
      "anonymous": false,
      "inputs": [
        {
          "indexed": false,
          "internalType": "uint256",
          "name": "version",
          "type": "uint256"
        }
      ],
      "name": "Initialized",
      "type": "event"
    },
    {
      "anonymous": false,
      "inputs": [
        {
          "indexed": true,
          "internalType": "contract IInstance",
          "name": "instance",
          "type": "address"
        }
      ],
      "name": "InstanceRegistered",
      "type": "event"
    },
    {
      "anonymous": false,
      "inputs": [
        {
          "indexed": true,
          "internalType": "address",
          "name": "sender",
          "type": "address"
        },
        {
          "indexed": false,
          "internalType": "uint256",
          "name": "applicableGas",
          "type": "uint256"
        },
        {
          "indexed": false,
          "internalType": "uint256",
          "name": "applicableValue",
          "type": "uint256"
        },
        {
          "indexed": false,
          "internalType": "UFixed18",
          "name": "baseFee",
          "type": "uint256"
        },
        {
          "indexed": false,
          "internalType": "UFixed18",
          "name": "calldataFee",
          "type": "uint256"
        },
        {
          "indexed": false,
          "internalType": "UFixed18",
          "name": "keeperFee",
          "type": "uint256"
        }
      ],
      "name": "KeeperCall",
      "type": "event"
    },
    {
      "anonymous": false,
      "inputs": [
        {
          "indexed": true,
          "internalType": "bytes32",
          "name": "id",
          "type": "bytes32"
        },
        {
          "indexed": true,
          "internalType": "bytes32",
          "name": "underlyingId",
          "type": "bytes32"
        }
      ],
      "name": "OracleAssociated",
      "type": "event"
    },
    {
      "anonymous": false,
      "inputs": [
        {
          "indexed": true,
          "internalType": "contract IOracleProvider",
          "name": "oracle",
          "type": "address"
        },
        {
          "indexed": true,
          "internalType": "bytes32",
          "name": "id",
          "type": "bytes32"
        }
      ],
      "name": "OracleCreated",
      "type": "event"
    },
    {
      "anonymous": false,
      "inputs": [
        {
          "indexed": true,
          "internalType": "address",
          "name": "newOwner",
          "type": "address"
        }
      ],
      "name": "OwnerUpdated",
      "type": "event"
    },
    {
      "anonymous": false,
      "inputs": [],
      "name": "Paused",
      "type": "event"
    },
    {
      "anonymous": false,
      "inputs": [
        {
          "indexed": true,
          "internalType": "address",
          "name": "newPauser",
          "type": "address"
        }
      ],
      "name": "PauserUpdated",
      "type": "event"
    },
    {
      "anonymous": false,
      "inputs": [
        {
          "indexed": true,
          "internalType": "contract IPayoffProvider",
          "name": "payoff",
          "type": "address"
        }
      ],
      "name": "PayoffRegistered",
      "type": "event"
    },
    {
      "anonymous": false,
      "inputs": [
        {
          "indexed": true,
          "internalType": "address",
          "name": "newPendingOwner",
          "type": "address"
        }
      ],
      "name": "PendingOwnerUpdated",
      "type": "event"
    },
    {
      "anonymous": false,
      "inputs": [],
      "name": "Unpaused",
      "type": "event"
    },
    {
      "inputs": [],
      "name": "ARB_FIXED_OVERHEAD",
      "outputs": [
        {
          "internalType": "uint256",
          "name": "",
          "type": "uint256"
        }
      ],
      "stateMutability": "view",
      "type": "function"
    },
    {
      "inputs": [],
      "name": "ARB_GAS_MULTIPLIER",
      "outputs": [
        {
          "internalType": "uint256",
          "name": "",
          "type": "uint256"
        }
      ],
      "stateMutability": "view",
      "type": "function"
    },
    {
      "inputs": [],
      "name": "MAX_GRANULARITY",
      "outputs": [
        {
          "internalType": "uint256",
          "name": "",
          "type": "uint256"
        }
      ],
      "stateMutability": "view",
      "type": "function"
    },
    {
      "inputs": [
        {
          "internalType": "bytes32",
          "name": "",
          "type": "bytes32"
        }
      ],
      "name": "_toUnderlyingPayoff",
      "outputs": [
        {
          "internalType": "contract IPayoffProvider",
          "name": "provider",
          "type": "address"
        },
        {
          "internalType": "int16",
          "name": "decimals",
          "type": "int16"
        }
      ],
      "stateMutability": "view",
      "type": "function"
    },
    {
      "inputs": [],
      "name": "acceptOwner",
      "outputs": [],
      "stateMutability": "nonpayable",
      "type": "function"
    },
    {
      "inputs": [
        {
          "internalType": "contract IFactory",
          "name": "factory",
          "type": "address"
        }
      ],
      "name": "authorize",
      "outputs": [],
      "stateMutability": "nonpayable",
      "type": "function"
    },
    {
      "inputs": [
        {
          "internalType": "address",
          "name": "caller",
          "type": "address"
        }
      ],
      "name": "authorized",
      "outputs": [
        {
          "internalType": "bool",
          "name": "",
          "type": "bool"
        }
      ],
      "stateMutability": "view",
      "type": "function"
    },
    {
      "inputs": [
        {
          "internalType": "contract IFactory",
          "name": "",
          "type": "address"
        }
      ],
      "name": "callers",
      "outputs": [
        {
          "internalType": "bool",
          "name": "",
          "type": "bool"
        }
      ],
      "stateMutability": "view",
      "type": "function"
    },
    {
      "inputs": [
        {
          "internalType": "bytes32[]",
          "name": "ids",
          "type": "bytes32[]"
        },
        {
          "internalType": "uint256",
          "name": "version",
          "type": "uint256"
        },
        {
          "internalType": "bytes",
          "name": "data",
          "type": "bytes"
        }
      ],
      "name": "commit",
      "outputs": [],
      "stateMutability": "payable",
      "type": "function"
    },
    {
      "inputs": [
        {
          "internalType": "uint256",
          "name": "numRequested",
          "type": "uint256"
        }
      ],
      "name": "commitKeepConfig",
      "outputs": [
        {
          "components": [
            {
              "internalType": "UFixed18",
              "name": "multiplierBase",
              "type": "uint256"
            },
            {
              "internalType": "uint256",
              "name": "bufferBase",
              "type": "uint256"
            },
            {
              "internalType": "UFixed18",
              "name": "multiplierCalldata",
              "type": "uint256"
            },
            {
              "internalType": "uint256",
              "name": "bufferCalldata",
              "type": "uint256"
            }
          ],
          "internalType": "struct IKept.KeepConfig",
          "name": "",
          "type": "tuple"
        }
      ],
      "stateMutability": "view",
      "type": "function"
    },
    {
      "inputs": [
        {
          "internalType": "bytes32",
          "name": "id",
          "type": "bytes32"
        },
        {
          "internalType": "bytes32",
          "name": "underlyingId",
          "type": "bytes32"
        },
        {
          "components": [
            {
              "internalType": "contract IPayoffProvider",
              "name": "provider",
              "type": "address"
            },
            {
              "internalType": "int16",
              "name": "decimals",
              "type": "int16"
            }
          ],
          "internalType": "struct IKeeperFactory.PayoffDefinition",
          "name": "payoff",
          "type": "tuple"
        }
      ],
      "name": "create",
      "outputs": [
        {
          "internalType": "contract IKeeperOracle",
          "name": "newOracle",
          "type": "address"
        }
      ],
      "stateMutability": "nonpayable",
      "type": "function"
    },
    {
      "inputs": [],
      "name": "current",
      "outputs": [
        {
          "internalType": "uint256",
          "name": "",
          "type": "uint256"
        }
      ],
      "stateMutability": "view",
      "type": "function"
    },
    {
      "inputs": [],
      "name": "ethTokenOracleFeed",
      "outputs": [
        {
          "internalType": "contract AggregatorV3Interface",
          "name": "",
          "type": "address"
        }
      ],
      "stateMutability": "view",
      "type": "function"
    },
    {
      "inputs": [
        {
          "internalType": "bytes32",
          "name": "",
          "type": "bytes32"
        },
        {
          "internalType": "contract IPayoffProvider",
          "name": "",
          "type": "address"
        }
      ],
      "name": "fromUnderlying",
      "outputs": [
        {
          "internalType": "bytes32",
          "name": "",
          "type": "bytes32"
        }
      ],
      "stateMutability": "view",
      "type": "function"
    },
    {
      "inputs": [],
      "name": "granularity",
      "outputs": [
        {
          "components": [
            {
              "internalType": "uint64",
              "name": "latestGranularity",
              "type": "uint64"
            },
            {
              "internalType": "uint64",
              "name": "currentGranularity",
              "type": "uint64"
            },
            {
              "internalType": "uint128",
              "name": "effectiveAfter",
              "type": "uint128"
            }
          ],
          "internalType": "struct IKeeperFactory.Granularity",
          "name": "",
          "type": "tuple"
        }
      ],
      "stateMutability": "view",
      "type": "function"
    },
    {
      "inputs": [],
      "name": "implementation",
      "outputs": [
        {
          "internalType": "address",
          "name": "",
          "type": "address"
        }
      ],
      "stateMutability": "view",
      "type": "function"
    },
    {
      "inputs": [
        {
          "internalType": "contract IOracleFactory",
          "name": "oracleFactory_",
          "type": "address"
        },
        {
          "internalType": "contract AggregatorV3Interface",
          "name": "chainlinkFeed_",
          "type": "address"
        },
        {
          "internalType": "Token18",
          "name": "dsu_",
          "type": "address"
        }
      ],
      "name": "initialize",
      "outputs": [],
      "stateMutability": "nonpayable",
      "type": "function"
    },
    {
      "inputs": [
        {
          "internalType": "contract IInstance",
          "name": "instance",
          "type": "address"
        }
      ],
      "name": "instances",
      "outputs": [
        {
          "internalType": "bool",
          "name": "",
          "type": "bool"
        }
      ],
      "stateMutability": "view",
      "type": "function"
    },
    {
      "inputs": [],
      "name": "keeperToken",
      "outputs": [
        {
          "internalType": "Token18",
          "name": "",
          "type": "address"
        }
      ],
      "stateMutability": "view",
      "type": "function"
    },
    {
      "inputs": [],
      "name": "oracleFactory",
      "outputs": [
        {
          "internalType": "contract IOracleFactory",
          "name": "",
          "type": "address"
        }
      ],
      "stateMutability": "view",
      "type": "function"
    },
    {
      "inputs": [
        {
          "internalType": "bytes32",
          "name": "",
          "type": "bytes32"
        }
      ],
      "name": "oracles",
      "outputs": [
        {
          "internalType": "contract IOracleProvider",
          "name": "",
          "type": "address"
        }
      ],
      "stateMutability": "view",
      "type": "function"
    },
    {
      "inputs": [],
      "name": "owner",
      "outputs": [
        {
          "internalType": "address",
          "name": "",
          "type": "address"
        }
      ],
      "stateMutability": "view",
      "type": "function"
    },
    {
      "inputs": [],
      "name": "pause",
      "outputs": [],
      "stateMutability": "nonpayable",
      "type": "function"
    },
    {
      "inputs": [],
      "name": "paused",
      "outputs": [
        {
          "internalType": "bool",
          "name": "",
          "type": "bool"
        }
      ],
      "stateMutability": "view",
      "type": "function"
    },
    {
      "inputs": [],
      "name": "pauser",
      "outputs": [
        {
          "internalType": "address",
          "name": "",
          "type": "address"
        }
      ],
      "stateMutability": "view",
      "type": "function"
    },
    {
      "inputs": [
        {
          "internalType": "contract IPayoffProvider",
          "name": "",
          "type": "address"
        }
      ],
      "name": "payoffs",
      "outputs": [
        {
          "internalType": "bool",
          "name": "",
          "type": "bool"
        }
      ],
      "stateMutability": "view",
      "type": "function"
    },
    {
      "inputs": [],
      "name": "pendingOwner",
      "outputs": [
        {
          "internalType": "address",
          "name": "",
          "type": "address"
        }
      ],
      "stateMutability": "view",
      "type": "function"
    },
    {
      "inputs": [],
      "name": "pyth",
      "outputs": [
        {
          "internalType": "contract AbstractPyth",
          "name": "",
          "type": "address"
        }
      ],
      "stateMutability": "view",
      "type": "function"
    },
    {
      "inputs": [
        {
          "internalType": "contract IPayoffProvider",
          "name": "payoff",
          "type": "address"
        }
      ],
      "name": "register",
      "outputs": [],
      "stateMutability": "nonpayable",
      "type": "function"
    },
    {
      "inputs": [
        {
          "internalType": "bytes32[]",
          "name": "ids",
          "type": "bytes32[]"
        },
        {
          "internalType": "contract IMarket[]",
          "name": "markets",
          "type": "address[]"
        },
        {
          "internalType": "uint256[]",
          "name": "versions",
          "type": "uint256[]"
        },
        {
          "internalType": "uint256[]",
          "name": "maxCounts",
          "type": "uint256[]"
        }
      ],
      "name": "settle",
      "outputs": [],
      "stateMutability": "nonpayable",
      "type": "function"
    },
    {
      "inputs": [],
      "name": "settleKeepConfig",
      "outputs": [
        {
          "components": [
            {
              "internalType": "UFixed18",
              "name": "multiplierBase",
              "type": "uint256"
            },
            {
              "internalType": "uint256",
              "name": "bufferBase",
              "type": "uint256"
            },
            {
              "internalType": "UFixed18",
              "name": "multiplierCalldata",
              "type": "uint256"
            },
            {
              "internalType": "uint256",
              "name": "bufferCalldata",
              "type": "uint256"
            }
          ],
          "internalType": "struct IKept.KeepConfig",
          "name": "",
          "type": "tuple"
        }
      ],
      "stateMutability": "view",
      "type": "function"
    },
    {
      "inputs": [
        {
          "internalType": "bytes32",
          "name": "",
          "type": "bytes32"
        }
      ],
      "name": "toUnderlyingId",
      "outputs": [
        {
          "internalType": "bytes32",
          "name": "",
          "type": "bytes32"
        }
      ],
      "stateMutability": "view",
      "type": "function"
    },
    {
      "inputs": [
        {
          "internalType": "bytes32",
          "name": "id",
          "type": "bytes32"
        }
      ],
      "name": "toUnderlyingPayoff",
      "outputs": [
        {
          "components": [
            {
              "internalType": "contract IPayoffProvider",
              "name": "provider",
              "type": "address"
            },
            {
              "internalType": "int16",
              "name": "decimals",
              "type": "int16"
            }
          ],
          "internalType": "struct IKeeperFactory.PayoffDefinition",
          "name": "",
          "type": "tuple"
        }
      ],
      "stateMutability": "view",
      "type": "function"
    },
    {
      "inputs": [],
      "name": "unpause",
      "outputs": [],
      "stateMutability": "nonpayable",
      "type": "function"
    },
    {
      "inputs": [
        {
          "internalType": "uint256",
          "name": "newGranularity",
          "type": "uint256"
        }
      ],
      "name": "updateGranularity",
      "outputs": [],
      "stateMutability": "nonpayable",
      "type": "function"
    },
    {
      "inputs": [
        {
          "internalType": "address",
          "name": "newPauser",
          "type": "address"
        }
      ],
      "name": "updatePauser",
      "outputs": [],
      "stateMutability": "nonpayable",
      "type": "function"
    },
    {
      "inputs": [
        {
          "internalType": "address",
          "name": "newPendingOwner",
          "type": "address"
        }
      ],
      "name": "updatePendingOwner",
      "outputs": [],
      "stateMutability": "nonpayable",
      "type": "function"
    },
    {
      "inputs": [],
      "name": "validFrom",
      "outputs": [
        {
          "internalType": "uint256",
          "name": "",
          "type": "uint256"
        }
      ],
      "stateMutability": "view",
      "type": "function"
    },
    {
      "inputs": [],
      "name": "validTo",
      "outputs": [
        {
          "internalType": "uint256",
          "name": "",
          "type": "uint256"
        }
      ],
      "stateMutability": "view",
      "type": "function"
    }
  ],
  "transactionHash": "0xf2b3310f55028219d303f65110d75e5c59367b136d2996338993ddc406087064",
  "args": [
    "0x4374e5a8b9C22271E9EB878A2AA31DE97DF15DAF",
    "0xfEeFDbcCfabF023A6a9F0fa0b67aEE80A861c7ed",
    4,
    12,
    {
      "multiplierBase": 0,
      "bufferBase": 788000,
      "multiplierCalldata": 0,
      "bufferCalldata": 31000
    },
    {
      "multiplierBase": "1050000000000000000",
      "bufferBase": 100000,
      "multiplierCalldata": "1050000000000000000",
      "bufferCalldata": 0
    },
    4200
  ],
  "numDeployments": 5,
  "solcInputHash": "4ad4f66272abcb02abeeecc4609216cc",
  "bytecode": "0x610220346200019257620047823881900390601f8201601f19168301906001600160401b038211848310176200019657829160405283398101906101a0808284031262000192578151906001600160a01b039081831683036200019257602084015191821682036200019257604084015190606085015194620000868760808301620001aa565b956200009861010098898401620001aa565b93610180809301519560805260a05260c052855160e052602086015187526060604087015196610120978852015193610140948552610160908152835182526020840151835260606040850151946101c09586520151946101e095865261020096875260405197614589998a620001f98b396080518a61152d015260a0518a81816116fa015261289d015260c0518a8181610f88015261293b015260e0518a613878015251896137f3015251886138a0015251876138420152518661381b01525185613ab901525184613adc01525183613b0201525182613b2801525181818161023d01528181610ac701528181611da601526122820152f35b5f80fd5b634e487b7160e01b5f52604160045260245ffd5b91908260809103126200019257604051608081016001600160401b0381118282101762000196576040526060808294805184526020810151602085015260408101516040850152015191015256fe608080604052600436101562000013575f80fd5b5f3560e01c908163032bb4431462003386575080631b7d63571462002ad15780631e298b901462001b2057806332878cc91462001aae578063344e0f8a1462001a645780633f4ba83a146200197257806341c6a70f14620017f75780634420e486146200171d57806345f84c1614620016c3578063554bab3c14620015fb578063556f0dc714620015515780635c60da1b14620014e15780635c975abb14620014835780636311c46414620014415780637211af6814620013a557806378fab5c7146200136a5780637bbf4a3f14620012fc5780638456cb5914620011d95780638da5cb5b14620011675780639571b1ec14620010fd5780639d57c43114620010c15780639fa6a6e3146200107d5780639fd0506d146200100b578063a81a26771462000fab578063a88780ef1462000f51578063aba30dfa1462000f16578063acf558b71462000ea0578063b20caf451462000e2e578063b32a1e5d14620009e9578063b5ee69551462000921578063b6a5d7de1462000847578063b918161114620007f6578063c0c53b8b1462000553578063c36e389d14620004e7578063c7f7fb901462000495578063cd3bb38c1462000422578063e30c397814620003b0578063ebbc496514620002655763f98d06f014620001f1575f80fd5b3462000261575f7ffffffffffffffffffffffffffffffffffffffffffffffffffffffffffffffffc3601126200026157602060405173ffffffffffffffffffffffffffffffffffffffff7f0000000000000000000000000000000000000000000000000000000000000000168152f35b5f80fd5b3462000261575f7ffffffffffffffffffffffffffffffffffffffffffffffffffffffffffffffffc36011262000261577f675c83682abbc3e7dd47e40515a778fbbde4393395c3dd3588244203c3e47883805473ffffffffffffffffffffffffffffffffffffffff81169081330362000380577fe7742ddf0fecd2926e7ef4d6d6e91a7b2f0b1f8805b78953dac8454e86273ed255807f4ffd725fc4a22075e9ec71c59edf9c38cdeb588a91b24fc5b61388c5be41282b5f80a2330362000350575f90555f7f69f201bc2089b9be6195d876d97a0136b4cf56bbf8986a52dcb50697f7d1cac58180a2005b60246040517f99bf6359000000000000000000000000000000000000000000000000000000008152336004820152fd5b60246040517fd0d5e1b0000000000000000000000000000000000000000000000000000000008152336004820152fd5b3462000261575f7ffffffffffffffffffffffffffffffffffffffffffffffffffffffffffffffffc360112620002615760207f675c83682abbc3e7dd47e40515a778fbbde4393395c3dd3588244203c3e478835473ffffffffffffffffffffffffffffffffffffffff60405191168152f35b3462000261575f7ffffffffffffffffffffffffffffffffffffffffffffffffffffffffffffffffc3601126200026157620004916200046062003a9e565b6040519182918291909160608060808301948051845260208101516020850152604081015160408501520151910152565b0390f35b3462000261575f7ffffffffffffffffffffffffffffffffffffffffffffffffffffffffffffffffc3601126200026157602073ffffffffffffffffffffffffffffffffffffffff5f5416604051908152f35b34620002615760207ffffffffffffffffffffffffffffffffffffffffffffffffffffffffffffffffc360112620002615773ffffffffffffffffffffffffffffffffffffffff620005376200355c565b165f526002602052602060ff60405f2054166040519015158152f35b34620002615760607ffffffffffffffffffffffffffffffffffffffffffffffffffffffffffffffffc360112620002615760043573ffffffffffffffffffffffffffffffffffffffff80821680920362000261576024359081168091036200026157620005bf62003580565b906001907f6fee9688c285c5c5c97d6a1a29adced674e6b2ad0888b8ad2116b58a8b3ea2488281541015620007c5578290557f2801b00eb06461cf9fcb9758b5fafd884ff06a86177386f73b6c49f0bf5a5af0828155303b151580620007bd575b6200078357303b151580620007b5575b6200078357337fe7742ddf0fecd2926e7ef4d6d6e91a7b2f0b1f8805b78953dac8454e86273ed255337f4ffd725fc4a22075e9ec71c59edf9c38cdeb588a91b24fc5b61388c5be41282b5f80a2303b151580620007ad575b62000783577fbe9b076dc5b65990cca9dd9d7366682482e7817a6f6bc7f4faf4dc32af497f32946020945f937f2b50211693ec91bcfe327771928b74a8f475c508d53e86fca4153bcf0f0e8776557f5b5cbfa852c5bd03e540eba853f8faf28a604a4d82bee1091096bfaea14d08c3557fffffffffffffffffffffffff000000000000000000000000000000000000000083541617825581604080516200072f8162003425565b82815285878201520152680100000000000000006007558180526002845260408220837fffffffffffffffffffffffffffffffffffffffffffffffffffffffffffffff0082541617905555604051908152a1005b60046040517fb9a621e1000000000000000000000000000000000000000000000000000000008152fd5b505f62000688565b505f62000630565b505f62000620565b602483604051907f3db738da0000000000000000000000000000000000000000000000000000000082526004820152fd5b34620002615760207ffffffffffffffffffffffffffffffffffffffffffffffffffffffffffffffffc360112620002615760206200083d620008376200355c565b62003980565b6040519015158152f35b34620002615760207ffffffffffffffffffffffffffffffffffffffffffffffffffffffffffffffffc360112620002615760043573ffffffffffffffffffffffffffffffffffffffff80821680920362000261577fe7742ddf0fecd2926e7ef4d6d6e91a7b2f0b1f8805b78953dac8454e86273ed254339116036200035057805f52600160205260405f2060017fffffffffffffffffffffffffffffffffffffffffffffffffffffffffffffff008254161790557f6acfd92212f0ec670af78f8ba2273e4a85ac17023475650c25be0440602bff2d5f80a2005b34620002615760207ffffffffffffffffffffffffffffffffffffffffffffffffffffffffffffffffc36011262000261576200095c6200355c565b7fe7742ddf0fecd2926e7ef4d6d6e91a7b2f0b1f8805b78953dac8454e86273ed2549073ffffffffffffffffffffffffffffffffffffffff9182339116036200035057807f675c83682abbc3e7dd47e40515a778fbbde4393395c3dd3588244203c3e4788355167f69f201bc2089b9be6195d876d97a0136b4cf56bbf8986a52dcb50697f7d1cac55f80a2005b34620002615760807ffffffffffffffffffffffffffffffffffffffffffffffffffffffffffffffffc36011262000261576024356004356040367fffffffffffffffffffffffffffffffffffffffffffffffffffffffffffffffbc0112620002615760405162000a598162003442565b62000a6362003580565b8152606435908160010b8203620002615760209384820192835273ffffffffffffffffffffffffffffffffffffffff906040517fb5ec02610000000000000000000000000000000000000000000000000000000081528160048201528681602481867f0000000000000000000000000000000000000000000000000000000000000000165afa90811562000d44575f9162000dfa575b501562000dd0577fe7742ddf0fecd2926e7ef4d6d6e91a7b2f0b1f8805b78953dac8454e86273ed25482339116036200035057845f52600386528160405f20541662000d7c57818351165f526002865260ff60405f2054161562000da657805f526006865260405f20828451165f52865260405f205462000d7c576040517f8129fc1c00000000000000000000000000000000000000000000000000000000878201526004815262000bab8162003442565b6040519061072f908183019083821067ffffffffffffffff83111762000d4f57604062000bea92859462003e258639308152818c820152019062003bb7565b03905ff0801562000d4457821693845f527f81796b4965de195665289d95668a8a9e7020858e15f5341c42bcf9951c1768ad875260405f2060017fffffffffffffffffffffffffffffffffffffffffffffffffffffffffffffff00825416179055847f4fe45192317a7d3ad19c3eaa395c0c3a1b7a0f53c3536fb96764c3561a8e9dad5f80a2855f526003875260405f20857fffffffffffffffffffffffff0000000000000000000000000000000000000000825416179055600487528160405f20556005875260405f2090838551167fffffffffffffffffffff000000000000000000000000000000000000000000008354925160a01b75ffff0000000000000000000000000000000000000000169216171790555f526006855260405f209151165f5283528160405f205560405191817fb37c10e9bd31f2f04a1985d7ae7c9fd566192aa02f769929da69b972f73ff9955f80a38152f35b6040513d5f823e3d90fd5b7f4e487b71000000000000000000000000000000000000000000000000000000005f52604160045260245ffd5b60046040517f953ec95c000000000000000000000000000000000000000000000000000000008152fd5b60046040517fb2e11555000000000000000000000000000000000000000000000000000000008152fd5b60046040517f22445848000000000000000000000000000000000000000000000000000000008152fd5b62000e1f9150873d891162000e26575b62000e16818362003499565b8101906200371e565b8762000af9565b503d62000e0a565b3462000261575f7ffffffffffffffffffffffffffffffffffffffffffffffffffffffffffffffffc3601126200026157602073ffffffffffffffffffffffffffffffffffffffff7f2b50211693ec91bcfe327771928b74a8f475c508d53e86fca4153bcf0f0e87765416604051908152f35b34620002615760407ffffffffffffffffffffffffffffffffffffffffffffffffffffffffffffffffc360112620002615760243573ffffffffffffffffffffffffffffffffffffffff811680910362000261576004355f52600660205260405f20905f52602052602060405f2054604051908152f35b3462000261575f7ffffffffffffffffffffffffffffffffffffffffffffffffffffffffffffffffc36011262000261576020604051608c8152f35b3462000261575f7ffffffffffffffffffffffffffffffffffffffffffffffffffffffffffffffffc360112620002615760206040517f00000000000000000000000000000000000000000000000000000000000000008152f35b34620002615760207ffffffffffffffffffffffffffffffffffffffffffffffffffffffffffffffffc36011262000261576004355f526003602052602073ffffffffffffffffffffffffffffffffffffffff60405f205416604051908152f35b3462000261575f7ffffffffffffffffffffffffffffffffffffffffffffffffffffffffffffffffc360112620002615760207f18e50ee9696440d335192aeeeffc26f47782eaa914f1700d8ad36d6d7f7261b35473ffffffffffffffffffffffffffffffffffffffff60405191168152f35b3462000261575f7ffffffffffffffffffffffffffffffffffffffffffffffffffffffffffffffffc36011262000261576020620010b9620038cc565b604051908152f35b3462000261575f7ffffffffffffffffffffffffffffffffffffffffffffffffffffffffffffffffc36011262000261576020604051610e108152f35b34620002615760207ffffffffffffffffffffffffffffffffffffffffffffffffffffffffffffffffc36011262000261576004355f5260056020526040805f205481519073ffffffffffffffffffffffffffffffffffffffff8116825260a01c60010b6020820152f35b3462000261575f7ffffffffffffffffffffffffffffffffffffffffffffffffffffffffffffffffc360112620002615760207fe7742ddf0fecd2926e7ef4d6d6e91a7b2f0b1f8805b78953dac8454e86273ed25473ffffffffffffffffffffffffffffffffffffffff60405191168152f35b3462000261575f7ffffffffffffffffffffffffffffffffffffffffffffffffffffffffffffffffc360112620002615773ffffffffffffffffffffffffffffffffffffffff807f18e50ee9696440d335192aeeeffc26f47782eaa914f1700d8ad36d6d7f7261b354163314159081620012cd575b506200129d5760017f3d13b7e57307bea7f94c474c597247d2da93d7de9136f8e123ed6525f50bbcec557f9e87fac88ff661f02d44f95383c817fece4bce600a3dab7a54406878b965e7525f80a1005b60246040517ff7987a92000000000000000000000000000000000000000000000000000000008152336004820152fd5b90507fe7742ddf0fecd2926e7ef4d6d6e91a7b2f0b1f8805b78953dac8454e86273ed25416331415816200124d565b34620002615760207ffffffffffffffffffffffffffffffffffffffffffffffffffffffffffffffffc360112620002615760043573ffffffffffffffffffffffffffffffffffffffff811680910362000261575f526001602052602060ff60405f2054166040519015158152f35b3462000261575f7ffffffffffffffffffffffffffffffffffffffffffffffffffffffffffffffffc3601126200026157602060405160108152f35b34620002615760207ffffffffffffffffffffffffffffffffffffffffffffffffffffffffffffffffc36011262000261575f6020604051620013e78162003442565b82815201526004355f5260056020526040805f20815190620014098262003442565b54602073ffffffffffffffffffffffffffffffffffffffff821692838152019060a01c60010b815282519182525160010b6020820152f35b34620002615760207ffffffffffffffffffffffffffffffffffffffffffffffffffffffffffffffffc36011262000261576200049162000460600435620037d9565b3462000261575f7ffffffffffffffffffffffffffffffffffffffffffffffffffffffffffffffffc360112620002615760207f3d13b7e57307bea7f94c474c597247d2da93d7de9136f8e123ed6525f50bbcec546040519015158152f35b3462000261575f7ffffffffffffffffffffffffffffffffffffffffffffffffffffffffffffffffc3601126200026157602060405173ffffffffffffffffffffffffffffffffffffffff7f0000000000000000000000000000000000000000000000000000000000000000168152f35b3462000261575f7ffffffffffffffffffffffffffffffffffffffffffffffffffffffffffffffffc36011262000261575f60408051620015918162003425565b82815282602082015201526060604051620015ac8162003425565b6fffffffffffffffffffffffffffffffff60075467ffffffffffffffff80821693848152604060208201918385831c168352019260801c83526040519485525116602084015251166040820152f35b34620002615760207ffffffffffffffffffffffffffffffffffffffffffffffffffffffffffffffffc3601126200026157620016366200355c565b7fe7742ddf0fecd2926e7ef4d6d6e91a7b2f0b1f8805b78953dac8454e86273ed2549073ffffffffffffffffffffffffffffffffffffffff9182339116036200035057807f18e50ee9696440d335192aeeeffc26f47782eaa914f1700d8ad36d6d7f7261b355167fa4336c0cb1e245b95ad204faed7e940d6dc999684fd8b5e1ff597a0c4efca8ab5f80a2005b3462000261575f7ffffffffffffffffffffffffffffffffffffffffffffffffffffffffffffffffc360112620002615760206040517f00000000000000000000000000000000000000000000000000000000000000008152f35b34620002615760207ffffffffffffffffffffffffffffffffffffffffffffffffffffffffffffffffc3601126200026157620017586200355c565b7fe7742ddf0fecd2926e7ef4d6d6e91a7b2f0b1f8805b78953dac8454e86273ed2549073ffffffffffffffffffffffffffffffffffffffff918233911603620003505716805f52600260205260405f2060017fffffffffffffffffffffffffffffffffffffffffffffffffffffffffffffff008254161790557fb74a9480da82c8aeaa0a8d11c6b669cf4523927638ab05e29c80cef6abd7d7bd5f80a2005b34620002615760207ffffffffffffffffffffffffffffffffffffffffffffffffffffffffffffffffc36011262000261576004357fe7742ddf0fecd2926e7ef4d6d6e91a7b2f0b1f8805b78953dac8454e86273ed25473ffffffffffffffffffffffffffffffffffffffff33911603620003505762001875620038cc565b9080156200194857600754908160801c8311156200194857610e10811162001948577f1a5059878e785140a1fb5c714f4e1431d5ef2b6dcdd5edbdc61ffe4a76dd10459260409267ffffffffffffffff8091851c1690845190620018d98262003425565b82825284166020820152846fffffffffffffffffffffffffffffffff84169101527fffffffffffffffffffffffffffffffff000000000000000000000000000000008260801b16906fffffffffffffffff000000000000000084861b16171760075582519182526020820152a1005b60046040517f19136990000000000000000000000000000000000000000000000000000000008152fd5b3462000261575f7ffffffffffffffffffffffffffffffffffffffffffffffffffffffffffffffffc360112620002615773ffffffffffffffffffffffffffffffffffffffff807f18e50ee9696440d335192aeeeffc26f47782eaa914f1700d8ad36d6d7f7261b35416331415908162001a35575b506200129d575f7f3d13b7e57307bea7f94c474c597247d2da93d7de9136f8e123ed6525f50bbcec557fa45f47fdea8a1efdd9029a5691c7f759c32b7c698632b563573e155625d169335f80a1005b90507fe7742ddf0fecd2926e7ef4d6d6e91a7b2f0b1f8805b78953dac8454e86273ed2541633141581620019e6565b34620002615760207ffffffffffffffffffffffffffffffffffffffffffffffffffffffffffffffffc36011262000261576004355f526004602052602060405f2054604051908152f35b3462000261575f7ffffffffffffffffffffffffffffffffffffffffffffffffffffffffffffffffc360112620002615760207f5b5cbfa852c5bd03e540eba853f8faf28a604a4d82bee1091096bfaea14d08c35473ffffffffffffffffffffffffffffffffffffffff60405191168152f35b60607ffffffffffffffffffffffffffffffffffffffffffffffffffffffffffffffffc360112620002615760043567ffffffffffffffff8111620002615762001b6e903690600401620034f4565b6044359067ffffffffffffffff8211620002615736602383011215620002615767ffffffffffffffff8260040135116200026157366024836004013584010111620002615760048201351562002abd5762001bca815162003699565b906040519262001bda8462003442565b600184525f5b6020811062002aab575062001bfe3682600401356024840162003738565b62001c098562003649565b5262001c158462003649565b508151927fffffffffffffffffffffffffffffffffffffffffffffffffffffffffffffffe062001c6262001c4986620034db565b9562001c59604051978862003499565b808752620034db565b013660208601375f5b835181101562001ce15762001c81818562003684565b515f52600460205260405f205462001c9a828762003684565b5262001ca7818662003684565b511562001cb75760010162001c6b565b60046040517f7e387175000000000000000000000000000000000000000000000000000000008152fd5b509190929360405180957f4716e9c50000000000000000000000000000000000000000000000000000000082526084820160806004840152835180915260a4830190602060a48260051b8601019501915f905b82821062002a5c575050505062001d788383927ffffffffffffffffffffffffffffffffffffffffffffffffffffffffffffffffc845f9703016024850152620035a4565b83604483015267ffffffffffffffff606483015203813473ffffffffffffffffffffffffffffffffffffffff7f0000000000000000000000000000000000000000000000000000000000000000165af193841562000d44575f9462002975575b505f5b845181101562001f2c57602062001df3828762003684565b5101515160070b906040602062001e0b838962003684565b5101510151917fffffffffffffffffffffffffffffffffffffffffffffffffffffffff8000000060128460030b0112637fffffff60128560030b01131762001eff57601260019360030b0160030b9062001e7962001e7362001e6d8462003ce0565b62003c15565b62003cf0565b5f6060602062001e8a878d62003684565b510151015193121562001ee35762001ea662001eac9262003cf0565b62003c24565b6040519162001ebb8362003442565b8252602082015262001ece828662003684565b5262001edb818562003684565b500162001ddb565b62001ef890670de0b6b3a76400009262003d0e565b0562001eac565b7f4e487b71000000000000000000000000000000000000000000000000000000005f52601160045260245ffd5b509250915b816004013562002899575b5f5b8351811015620020d65762001f54818362003684565b515f52600560205260405f20906040519162001f708362003442565b549173ffffffffffffffffffffffffffffffffffffffff83169283825260a01c60010b6020820152826200202e575b600192505f602062001fbe62001e7362001e6d83860151880b62003ce0565b920151840b1215620020025762001fea9062001ea6602062001fe1858a62003684565b51015162003cf0565b602062001ff8838862003684565b5101520162001f3e565b62002027670de0b6b3a76400009160206200201e858a62003684565b51015162003d0e565b0562001fea565b6020806200203d848962003684565b5101516024604051809681937fd7c7a93500000000000000000000000000000000000000000000000000000000835260048301525afa801562000d44575f906200209d575b60019350602062002094848962003684565b51015262001f9f565b506020833d602011620020cd575b81620020ba6020938362003499565b8101031262000261576001925162002082565b3d9150620020ab565b50825f925f5b83518110156200220f57620020f2818562003684565b515f5260206003815273ffffffffffffffffffffffffffffffffffffffff60405f2054168164e8d4a51000816200212a868962003684565b5101510560646040516200213e8162003425565b60243581528381019283525f604082019589600401351515875260405196879586947f8fdd594700000000000000000000000000000000000000000000000000000000865251600486015251602485015251151560448401525af191821562000d44575f92620021ed575b5050620021ba575b600101620020dc565b937fffffffffffffffffffffffffffffffffffffffffffffffffffffffffffffffff811462001eff5760010193620021b1565b620022079250803d1062000e265762000e16818362003499565b8680620021a9565b8482816200221957005b6200223a6200222883620037d9565b91369060248160040135910162003738565b5073ffffffffffffffffffffffffffffffffffffffff906040517f48b6404d0000000000000000000000000000000000000000000000000000000081526020938482600481877f0000000000000000000000000000000000000000000000000000000000000000165afa801562000d44575f9062002863575b620022bf9250620037b7565b9060405191620022cf836200347c565b5f83525f858401525f604051620022e6816200347c565b525f948251938184015194156001171562001eff576200231e94670de0b6b3a764000095869162002318489162003799565b620037b7565b0493606060408201519101519151608c810180911162001eff577f0fffffffffffffffffffffffffffffffffffffffffffffffffffffffffffffff8116810362001eff57604051917ff5d6ded70000000000000000000000000000000000000000000000000000000083528483600481606c5afa91821562000d445788935f9362002826575b5093620023cf84620023c7620023189462002318620023d6989960041b62003799565b049162003799565b90620037cb565b0493620023ef85620023e98686620037cb565b620037cb565b600460a0887f2b50211693ec91bcfe327771928b74a8f475c508d53e86fca4153bcf0f0e87765416604051928380927ffeaf968c0000000000000000000000000000000000000000000000000000000082525afa90811562000d44575f91620027c5575b50620024646305f5e1009162003cf0565b05905f821262002794576200248692916200247f91620037b7565b0462003c7b565b94805f5416956040517fd4938db300000000000000000000000000000000000000000000000000000000815283816004818b5afa90811562000d44575f9162002761575b5080821015620027585750955b803b1562000261575f80916024604051809481937f379607f50000000000000000000000000000000000000000000000000000000083528c60048401525af1801562000d445762002742575b5064e8d4a510009586810296818804149015171562002715576200261a907f5b5cbfa852c5bd03e540eba853f8faf28a604a4d82bee1091096bfaea14d08c354166040519088808584017fa9059cbb0000000000000000000000000000000000000000000000000000000081523360248601528a604486015260448552620025ab856200345f565b60405194620025ba8662003442565b8786527f5361666545524332303a206c6f772d6c6576656c2063616c6c206661696c656488870152519082855af13d156200270c573d91620025fc836200360e565b926200260c604051948562003499565b83523d8b8785013e62003d4e565b805190828262002668575b5050506040519586528501526040840152606083015260808201527ffa0333956d06e335c550bd5fc4ac9c003c6545e371331b1071fa4d5d8519d6c160a03392a2005b80620026799383010191016200371e565b15620026885786808262002625565b608490604051907f08c379a00000000000000000000000000000000000000000000000000000000082526004820152602a60248201527f5361666545524332303a204552433230206f7065726174696f6e20646964206e60448201527f6f742073756363656564000000000000000000000000000000000000000000006064820152fd5b60609162003d4e565b6024877f4e487b710000000000000000000000000000000000000000000000000000000081526011600452fd5b6200274f91975062003410565b5f958762002523565b905095620024d7565b90508381813d83116200278c575b6200277b818362003499565b8101031262000261575189620024ca565b503d6200276f565b602482604051907f501f289e0000000000000000000000000000000000000000000000000000000082526004820152fd5b905060a0813d60a0116200281d575b81620027e360a0938362003499565b8101031262000261576200246481620028016305f5e1009362003cc8565b5062002814608087830151920162003cc8565b50915062002453565b3d9150620027d4565b935091508483813d81116200285b575b62002842818362003499565b810103126200026157915187929091620023cf620023a4565b503d62002836565b508482813d831162002891575b6200287c818362003499565b810103126200026157620022bf9151620022b3565b503d62002870565b91907f0000000000000000000000000000000000000000000000000000000000000000905f5b83518110156200296a57620028d5818562003684565b5151620028e584602435620037cb565b11801562002926575b620028fc57600101620028bf565b60046040517f0afa0593000000000000000000000000000000000000000000000000000000008152fd5b5062002933818562003684565b5151620029637f0000000000000000000000000000000000000000000000000000000000000000602435620037cb565b10620028ee565b509192905062001f3c565b9093503d805f833e62002989818362003499565b810190602081830312620002615780519067ffffffffffffffff821162000261570181601f820112156200026157805190620029c582620034db565b92620029d5604051948562003499565b828452602084016020610120809502840101928284116200026157602001905b83821062002a0a575050505050928462001dd8565b848284031262000261576020859160405162002a268162003425565b8451815262002a388684870162003b4f565b8382015262002a4b8660a0870162003b4f565b6040820152815201910190620029f5565b919394602062002a9a887fffffffffffffffffffffffffffffffffffffffffffffffffffffffffffffff5c8394600196989b03018652895162003bb7565b970192019201899493919262001d34565b80606060208093880101520162001be0565b9062002aca825162003699565b9162001f31565b34620002615760807ffffffffffffffffffffffffffffffffffffffffffffffffffffffffffffffffc360112620002615767ffffffffffffffff600435818111620002615762002b26903690600401620034f4565b60243591808311620002615736602384011215620002615782600401359162002b4f83620034db565b9362002b5f604051958662003499565b83855260208501906024829560051b820101903682116200026157602401915b8183106200335757505050604435828111620002615762002ba5903690600401620034f4565b91606435908111620002615762002bc1903690600401620034f4565b9062002bcc62003a9e565b60405194608060208701528562002be760a0820185620035a4565b917fffffffffffffffffffffffffffffffffffffffffffffffffffffffffffffffe0928383820301604084015260208a51918281520191905f5b81811062003327575050509062002c5d62002c4c83858462002c6a97960301606085015289620035d9565b8383820301608084015287620035d9565b0390810187528662003499565b5f60405162002c79816200347c565b525a90825180159081156200331a575b81156200330d575b811562003300575b50620032d6575f5b835181101562002d7b5762002cb7818562003684565b515f52600360205273ffffffffffffffffffffffffffffffffffffffff908160405f2054169162002ce9828b62003684565b511662002cf7828962003684565b5162002d04838962003684565b5193803b1562000261575f928360649260405197889586947f3c4c6a280000000000000000000000000000000000000000000000000000000086526004860152602485015260448401525af191821562000d445760019262002d69575b500162002ca1565b62002d749062003410565b8962002d61565b50855a830392831162001eff5762002db6915f91815162002dc3602084015162002318670de0b6b3a764000080988195620023188c62003799565b04620023cf489362003799565b0491606060408201519101519151608c810180911162001eff577f0fffffffffffffffffffffffffffffffffffffffffffffffffffffffffffffff8116810362001eff57604051917ff5d6ded7000000000000000000000000000000000000000000000000000000008352602083600481606c5afa91821562000d445787935f9362003294575b5093620023cf84620023c762002318946200231862002e6d989960041b62003799565b049162002e7b8383620037cb565b9373ffffffffffffffffffffffffffffffffffffffff94600460a0877f2b50211693ec91bcfe327771928b74a8f475c508d53e86fca4153bcf0f0e87765416604051928380927ffeaf968c0000000000000000000000000000000000000000000000000000000082525afa90811562000d44575f9162003232575b5062002f076305f5e1009162003cf0565b05905f8212620027945762002f2292916200247f91620037b7565b93805f5416946040517fd4938db30000000000000000000000000000000000000000000000000000000081526020816004818a5afa90811562000d44575f91620031fa575b5080821015620031f15750945b803b1562000261575f80916024604051809481937f379607f50000000000000000000000000000000000000000000000000000000083528b60048401525af1801562000d4457620031db575b5064e8d4a5100094858102958187041490151715620031ae57620030bb907f5b5cbfa852c5bd03e540eba853f8faf28a604a4d82bee1091096bfaea14d08c35416604051908380602084017fa9059cbb0000000000000000000000000000000000000000000000000000000081523360248601528960448601526044855262003049856200345f565b60405194620030588662003442565b602086527f5361666545524332303a206c6f772d6c6576656c2063616c6c206661696c65646020870152519082855af13d156200270c573d916200309c836200360e565b92620030ac604051948562003499565b83523d86602085013e62003d4e565b8051908162003109575b505060405194855260208501526040840152606083015260808201527ffa0333956d06e335c550bd5fc4ac9c003c6545e371331b1071fa4d5d8519d6c160a03392a2005b6020806200311c9383010191016200371e565b156200312a578580620030c5565b60846040517f08c379a000000000000000000000000000000000000000000000000000000000815260206004820152602a60248201527f5361666545524332303a204552433230206f7065726174696f6e20646964206e60448201527f6f742073756363656564000000000000000000000000000000000000000000006064820152fd5b6024827f4e487b710000000000000000000000000000000000000000000000000000000081526011600452fd5b620031e891925062003410565b5f908662002fc0565b90509462002f74565b90506020813d60201162003229575b81620032186020938362003499565b810103126200026157518862002f67565b3d915062003209565b905060a0813d60a0116200328b575b816200325060a0938362003499565b81010312620002615762002f07816200326e6305f5e1009362003cc8565b506200328260806020830151920162003cc8565b50915062002ef6565b3d915062003241565b935091506020833d602011620032cd575b81620032b46020938362003499565b810103126200026157915186929091620023cf62002e4a565b3d9150620032a5565b60046040517fb043fd7b000000000000000000000000000000000000000000000000000000008152fd5b9050845114158862002c99565b8651811415915062002c91565b8851811415915062002c89565b825173ffffffffffffffffffffffffffffffffffffffff1684528a94506020938401939092019160010162002c21565b823573ffffffffffffffffffffffffffffffffffffffff81168103620002615781526020928301920162002b7f565b34620002615760207ffffffffffffffffffffffffffffffffffffffffffffffffffffffffffffffffc36011262000261576004359073ffffffffffffffffffffffffffffffffffffffff821680920362000261576020915f527f81796b4965de195665289d95668a8a9e7020858e15f5341c42bcf9951c1768ad825260ff60405f20541615158152f35b67ffffffffffffffff811162000d4f57604052565b6060810190811067ffffffffffffffff82111762000d4f57604052565b6040810190811067ffffffffffffffff82111762000d4f57604052565b6080810190811067ffffffffffffffff82111762000d4f57604052565b6020810190811067ffffffffffffffff82111762000d4f57604052565b90601f7fffffffffffffffffffffffffffffffffffffffffffffffffffffffffffffffe0910116810190811067ffffffffffffffff82111762000d4f57604052565b67ffffffffffffffff811162000d4f5760051b60200190565b9080601f83011215620002615760209082356200351181620034db565b9362003521604051958662003499565b81855260208086019260051b8201019283116200026157602001905b8282106200354c575050505090565b813581529083019083016200353d565b6004359073ffffffffffffffffffffffffffffffffffffffff821682036200026157565b6044359073ffffffffffffffffffffffffffffffffffffffff821682036200026157565b9081518082526020808093019301915f5b828110620035c4575050505090565b835185529381019392810192600101620035b5565b9081518082526020808093019301915f5b828110620035f9575050505090565b835185529381019392810192600101620035ea565b67ffffffffffffffff811162000d4f57601f017fffffffffffffffffffffffffffffffffffffffffffffffffffffffffffffffe01660200190565b805115620036575760200190565b7f4e487b71000000000000000000000000000000000000000000000000000000005f52603260045260245ffd5b8051821015620036575760209160051b010190565b90620036a582620034db565b604090620036b7604051918262003499565b8381527fffffffffffffffffffffffffffffffffffffffffffffffffffffffffffffffe0620036e78295620034db565b01915f5b838110620036f95750505050565b6020908251620037098162003442565b5f8152825f81830152828601015201620036eb565b908160209103126200026157518015158103620002615790565b92919262003746826200360e565b9162003756604051938462003499565b82948184528183011162000261578281602093845f960137010152565b6040519062003782826200345f565b5f6060838281528260208201528260408201520152565b90670de0b6b3a76400009182810292818404149015171562001eff57565b8181029291811591840414171562001eff57565b9190820180921162001eff57565b620037e362003773565b50620038676200384062003818837f0000000000000000000000000000000000000000000000000000000000000000620037b7565b927f0000000000000000000000000000000000000000000000000000000000000000620037b7565b7f0000000000000000000000000000000000000000000000000000000000000000620037cb565b6040519162003876836200345f565b7f0000000000000000000000000000000000000000000000000000000000000000835260208301527f00000000000000000000000000000000000000000000000000000000000000006040830152606082015290565b60075467ffffffffffffffff90608081901c42116200397657165b42620038fc57620038f9905f620037b7565b90565b7fffffffffffffffffffffffffffffffffffffffffffffffffffffffffffffffff420142811162001eff5781156200394957819004906001820180921162001eff57620038f991620037b7565b7f4e487b71000000000000000000000000000000000000000000000000000000005f52601260045260245ffd5b60401c16620038e7565b6040517fc45a015500000000000000000000000000000000000000000000000000000000815273ffffffffffffffffffffffffffffffffffffffff918216916020918281600481875afa90811562000d44575f9162003a61575b501691604051907f032bb44300000000000000000000000000000000000000000000000000000000825260048201528181602481865afa90811562000d44575f9162003a3f575b501562003a39576001915f525260ff60405f20541690565b50505f90565b62003a5a9150823d841162000e265762000e16818362003499565b5f62003a21565b90508281813d831162003a96575b62003a7b818362003499565b81010312620002615751818116810362000261575f620039da565b503d62003a6f565b62003aa862003773565b5060405162003ab7816200345f565b7f000000000000000000000000000000000000000000000000000000000000000081527f000000000000000000000000000000000000000000000000000000000000000060208201527f000000000000000000000000000000000000000000000000000000000000000060408201527f0000000000000000000000000000000000000000000000000000000000000000606082015290565b9190826080910312620002615760405162003b6a816200345f565b809280518060070b810362000261578252602081015167ffffffffffffffff811681036200026157602083015260408101518060030b810362000261576040830152606090810151910152565b91908251928382525f5b84811062003c005750507fffffffffffffffffffffffffffffffffffffffffffffffffffffffffffffffe0601f845f6020809697860101520116010190565b60208183018101518483018201520162003bc1565b604d811162001eff57600a0a90565b811562003949577fffffffffffffffffffffffffffffffffffffffffffffffffffffffffffffffff82147f800000000000000000000000000000000000000000000000000000000000000082141662001eff570590565b8062003c8657505f90565b7fffffffffffffffffffffffffffffffffffffffffffffffffffffffffffffffff810190811162001eff5764e8d4a5100090046001810180911162001eff5790565b519069ffffffffffffffffffff821682036200026157565b5f811262003ceb5790565b5f0390565b90670de0b6b3a76400009182810292818405149015171562001eff57565b81810292915f82127f800000000000000000000000000000000000000000000000000000000000000082141662001eff57818405149015171562001eff57565b9192901562003dcc575081511562003d64575090565b3b1562003d6e5790565b60646040517f08c379a000000000000000000000000000000000000000000000000000000000815260206004820152601d60248201527f416464726573733a2063616c6c20746f206e6f6e2d636f6e74726163740000006044820152fd5b82519091501562003de05750805190602001fd5b62003e20906040519182917f08c379a000000000000000000000000000000000000000000000000000000000835260206004840152602483019062003bb7565b0390fdfe608060409080825261072f80380380916100198285610342565b833981019082818303126102385761003081610365565b6020828101516001600160401b039391929184821161023857019084601f830112156102385781519161006283610379565b9261006f88519485610342565b8084528484019685828401011161023857868561008c9301610394565b803b156102f0578551635c60da1b60e01b80825292916001600160a01b0316908481600481855afa9081156102e6575f916102b1575b503b15610254577fa3f0ad74e5423aebfd80d3ef4346578335a9a72aeaee59ff6cb3582b35133d5080546001600160a01b03191682179055865192817f1cf3b03a6cf19fa2baba4df148e9dcabedea7f8a5c07840e207e5c089be95d3e5f80a282511580159061024d575b610140575b87516102c690816104698239f35b6004848693819382525afa918215610243575f92610208575b5085519360608501908111858210176101f4578652602784527f416464726573733a206c6f772d6c6576656c2064656c65676174652063616c6c83850152660819985a5b195960ca1b84870152516101de945f918291845af4903d156101eb573d6101c381610379565b906101d088519283610342565b81525f81943d92013e6103b5565b505f808080808080610132565b606092506103b5565b634e487b7160e01b5f52604160045260245ffd5b9091508281813d831161023c575b6102208183610342565b810103126102385761023190610365565b905f610159565b5f80fd5b503d610216565b86513d5f823e3d90fd5b505f61012d565b865162461bcd60e51b815260048101859052603060248201527f455243313936373a20626561636f6e20696d706c656d656e746174696f6e206960448201526f1cc81b9bdd08184818dbdb9d1c9858dd60821b6064820152608490fd5b90508481813d83116102df575b6102c88183610342565b81010312610238576102d990610365565b5f6100c2565b503d6102be565b88513d5f823e3d90fd5b855162461bcd60e51b815260048101849052602560248201527f455243313936373a206e657720626561636f6e206973206e6f74206120636f6e6044820152641d1c9858dd60da1b6064820152608490fd5b601f909101601f19168101906001600160401b038211908210176101f457604052565b51906001600160a01b038216820361023857565b6001600160401b0381116101f457601f01601f191660200190565b5f5b8381106103a55750505f910152565b8181015183820152602001610396565b9192901561041757508151156103c9575090565b3b156103d25790565b60405162461bcd60e51b815260206004820152601d60248201527f416464726573733a2063616c6c20746f206e6f6e2d636f6e74726163740000006044820152606490fd5b82519091501561042a5750805190602001fd5b6044604051809262461bcd60e51b82526020600483015261045a8151809281602486015260208686019101610394565b601f01601f19168101030190fdfe6080806040523661011c5760208160048173ffffffffffffffffffffffffffffffffffffffff7fa3f0ad74e5423aebfd80d3ef4346578335a9a72aeaee59ff6cb3582b35133d5054167f5c60da1b0000000000000000000000000000000000000000000000000000000082525afa908115610111575f91610081575b50610273565b905060203d60201161010a575b7fffffffffffffffffffffffffffffffffffffffffffffffffffffffffffffffe0601f82011682019180831067ffffffffffffffff8411176100dd576100d792604052016101f6565b5f61007b565b7f4e487b71000000000000000000000000000000000000000000000000000000005f52604160045260245ffd5b503d61008e565b6040513d5f823e3d90fd5b6004602073ffffffffffffffffffffffffffffffffffffffff7fa3f0ad74e5423aebfd80d3ef4346578335a9a72aeaee59ff6cb3582b35133d505416604051928380927f5c60da1b0000000000000000000000000000000000000000000000000000000082525afa908115610111575f916101975750610273565b602091503d82116101ee575b7fffffffffffffffffffffffffffffffffffffffffffffffffffffffffffffffe0601f83011681019181831067ffffffffffffffff8411176100dd576100d792604052810190610247565b3d91506101a3565b7fffffffffffffffffffffffffffffffffffffffffffffffffffffffffffffff8060209101126102435760805173ffffffffffffffffffffffffffffffffffffffff811681036102435790565b5f80fd5b90816020910312610243575173ffffffffffffffffffffffffffffffffffffffff811681036102435790565b5f8091368280378136915af43d5f803e1561028c573d5ff35b3d5ffdfea2646970667358221220ec432b4747e143afd3ca9be003efbb7d4ac773fd8dbbac59b6729d6be9a1e1a164736f6c63430008180033a26469706673582212203b14b6e620f6378e0c8f394dbd86dec4a7434be4fb62902e0e28291cbad9375f64736f6c63430008180033",
  "devdoc": {
    "details": "Additionally incentivizes keepers with L1 rollup fees according to the Arbitrum spec",
    "kind": "dev",
    "methods": {
      "acceptOwner()": {
        "details": "Can only be called by the pending owner to ensure correctness. Calls to the `_beforeAcceptOwner` hook      to perform logic before updating ownership."
      },
      "authorize(address)": {
        "params": {
          "factory": "The factory to authorize"
        }
      },
      "authorized(address)": {
        "params": {
          "caller": "The caller to check"
        },
        "returns": {
          "_0": "Whether the caller is authorized"
        }
      },
      "commit(bytes32[],uint256,bytes)": {
        "details": "Accepts both requested and non-requested versions.      Requested versions will pay out a keeper fee, non-requested versions will not.      Accepts any publish time in the underlying price message, as long as it is within the validity window,      which means its possible for publish times to be slightly out of order with respect to versions.      Batched updates are supported by passing in a list of price feed ids along with a valid batch update data.",
        "params": {
          "data": "The update data to commit",
          "ids": "The list of price feed ids to commit",
          "version": "The oracle version to commit"
        }
      },
      "create(bytes32,bytes32,(address,int16))": {
        "params": {
          "id": "The id of the oracle to create",
          "payoff": "The payoff provider contract",
          "underlyingId": "The underlying id of the oracle to create"
        },
        "returns": {
          "newOracle": "The newly created oracle instance"
        }
      },
      "current()": {
        "details": "Rounded up to the nearest granularity",
        "returns": {
          "_0": "The current timestamp"
        }
      },
      "granularity()": {
        "returns": {
          "_0": "The granularity"
        }
      },
      "initialize(address,address,address)": {
        "params": {
          "oracleFactory_": "The root oracle factory"
        }
      },
      "instances(address)": {
        "params": {
          "instance": "The instance to check"
        },
        "returns": {
          "_0": "Whether the instance is valid"
        }
      },
      "pause()": {
        "details": "Can only be called by the pauser"
      },
      "register(address)": {
        "params": {
          "payoff": "The payoff provider to register"
        }
      },
      "settle(bytes32[],address[],uint256[],uint256[])": {
        "details": "Pays out a keeper incentive if all supplied local settlement callbacks succeed      Each array must be the same length, each index is a separate corresponding callback entry",
        "params": {
          "ids": "The list of price feed ids to settle",
          "markets": "The list of markets to settle",
          "maxCounts": "The list of maximum number of settlement callbacks to perform before exiting",
          "versions": "The list of versions to settle"
        }
      },
      "toUnderlyingPayoff(bytes32)": {
        "params": {
          "id": "The id to lookup"
        },
        "returns": {
          "_0": "The payoff definition"
        }
      },
      "unpause()": {
        "details": "Can only be called by the pauser"
      },
      "updateGranularity(uint256)": {
        "params": {
          "newGranularity": "The new granularity"
        }
      },
      "updatePauser(address)": {
        "details": "Can only be called by the current owner",
        "params": {
          "newPauser": "New pauser address"
        }
      },
      "updatePendingOwner(address)": {
        "details": "Can only be called by the current owner      New owner does not take affect until that address calls `acceptOwner()`",
        "params": {
          "newPendingOwner": "New pending owner address"
        }
      }
    },
    "title": "PythFactory_Arbitrum",
    "version": 1
  },
  "userdoc": {
    "kind": "user",
    "methods": {
      "acceptOwner()": {
        "notice": "Accepts and transfers the ownership of the contract to the pending owner"
      },
      "authorize(address)": {
        "notice": "Authorizes a factory's instances to request from this factory's instances"
      },
      "authorized(address)": {
        "notice": "Returns whether a caller is authorized to request from this factory's instances"
      },
      "commit(bytes32[],uint256,bytes)": {
        "notice": "Commits the price to specified version"
      },
      "commitKeepConfig(uint256)": {
        "notice": "Returns the keep config for commit"
      },
      "create(bytes32,bytes32,(address,int16))": {
        "notice": "Creates a new oracle instance"
      },
      "current()": {
        "notice": "Returns the current timestamp"
      },
      "granularity()": {
        "notice": "Returns the granularity"
      },
      "implementation()": {
        "notice": "The instance implementation address"
      },
      "initialize(address,address,address)": {
        "notice": "Initializes the contract state"
      },
      "instances(address)": {
        "notice": "Returns whether the instance is valid"
      },
      "pause()": {
        "notice": "Pauses the contract"
      },
      "register(address)": {
        "notice": "Authorizes a factory's instances to request from this factory's instances"
      },
      "settle(bytes32[],address[],uint256[],uint256[])": {
        "notice": "Performs a list of local settlement callbacks"
      },
      "settleKeepConfig()": {
        "notice": "Returns the keep config for settle"
      },
      "toUnderlyingPayoff(bytes32)": {
        "notice": "Returns the payoff definition for the specified id"
      },
      "unpause()": {
        "notice": "Unpauses the contract"
      },
      "updateGranularity(uint256)": {
        "notice": "Updates the granularity"
      },
      "updatePauser(address)": {
        "notice": "Updates the new pauser"
      },
      "updatePendingOwner(address)": {
        "notice": "Updates the new pending owner"
      }
    },
    "notice": "Arbitrum Kept Oracle implementation for Pyth price feeds.",
    "version": 1
  },
  "storageLayout": {
    "storage": [
      {
        "astId": 4217,
        "contract": "@equilibria/perennial-v2-oracle/contracts/pyth/PythFactory_Arbitrum.sol:PythFactory_Arbitrum",
        "label": "oracleFactory",
        "offset": 0,
        "slot": "0",
        "type": "t_contract(IOracleFactory)4130"
      },
      {
        "astId": 4223,
        "contract": "@equilibria/perennial-v2-oracle/contracts/pyth/PythFactory_Arbitrum.sol:PythFactory_Arbitrum",
        "label": "callers",
        "offset": 0,
        "slot": "1",
        "type": "t_mapping(t_contract(IFactory)28611,t_bool)"
      },
      {
        "astId": 4229,
        "contract": "@equilibria/perennial-v2-oracle/contracts/pyth/PythFactory_Arbitrum.sol:PythFactory_Arbitrum",
        "label": "payoffs",
        "offset": 0,
        "slot": "2",
        "type": "t_mapping(t_contract(IPayoffProvider)4143,t_bool)"
      },
      {
        "astId": 4235,
        "contract": "@equilibria/perennial-v2-oracle/contracts/pyth/PythFactory_Arbitrum.sol:PythFactory_Arbitrum",
        "label": "oracles",
        "offset": 0,
        "slot": "3",
        "type": "t_mapping(t_bytes32,t_contract(IOracleProvider)14525)"
      },
      {
        "astId": 4240,
        "contract": "@equilibria/perennial-v2-oracle/contracts/pyth/PythFactory_Arbitrum.sol:PythFactory_Arbitrum",
        "label": "toUnderlyingId",
        "offset": 0,
        "slot": "4",
        "type": "t_mapping(t_bytes32,t_bytes32)"
      },
      {
        "astId": 4246,
        "contract": "@equilibria/perennial-v2-oracle/contracts/pyth/PythFactory_Arbitrum.sol:PythFactory_Arbitrum",
        "label": "_toUnderlyingPayoff",
        "offset": 0,
        "slot": "5",
        "type": "t_mapping(t_bytes32,t_struct(PayoffDefinition)3691_storage)"
      },
      {
        "astId": 4254,
        "contract": "@equilibria/perennial-v2-oracle/contracts/pyth/PythFactory_Arbitrum.sol:PythFactory_Arbitrum",
        "label": "fromUnderlying",
        "offset": 0,
        "slot": "6",
        "type": "t_mapping(t_bytes32,t_mapping(t_contract(IPayoffProvider)4143,t_bytes32))"
      },
      {
        "astId": 4258,
        "contract": "@equilibria/perennial-v2-oracle/contracts/pyth/PythFactory_Arbitrum.sol:PythFactory_Arbitrum",
        "label": "_granularity",
        "offset": 0,
        "slot": "7",
        "type": "t_struct(Granularity)3685_storage"
      }
    ],
    "types": {
      "t_bool": {
        "encoding": "inplace",
        "label": "bool",
        "numberOfBytes": "1"
      },
      "t_bytes32": {
        "encoding": "inplace",
        "label": "bytes32",
        "numberOfBytes": "32"
      },
      "t_contract(IFactory)28611": {
        "encoding": "inplace",
        "label": "contract IFactory",
        "numberOfBytes": "20"
      },
      "t_contract(IOracleFactory)4130": {
        "encoding": "inplace",
        "label": "contract IOracleFactory",
        "numberOfBytes": "20"
      },
      "t_contract(IOracleProvider)14525": {
        "encoding": "inplace",
        "label": "contract IOracleProvider",
        "numberOfBytes": "20"
      },
      "t_contract(IPayoffProvider)4143": {
        "encoding": "inplace",
        "label": "contract IPayoffProvider",
        "numberOfBytes": "20"
      },
      "t_int16": {
        "encoding": "inplace",
        "label": "int16",
        "numberOfBytes": "2"
      },
      "t_mapping(t_bytes32,t_bytes32)": {
        "encoding": "mapping",
        "key": "t_bytes32",
        "label": "mapping(bytes32 => bytes32)",
        "numberOfBytes": "32",
        "value": "t_bytes32"
      },
      "t_mapping(t_bytes32,t_contract(IOracleProvider)14525)": {
        "encoding": "mapping",
        "key": "t_bytes32",
        "label": "mapping(bytes32 => contract IOracleProvider)",
        "numberOfBytes": "32",
        "value": "t_contract(IOracleProvider)14525"
      },
      "t_mapping(t_bytes32,t_mapping(t_contract(IPayoffProvider)4143,t_bytes32))": {
        "encoding": "mapping",
        "key": "t_bytes32",
        "label": "mapping(bytes32 => mapping(contract IPayoffProvider => bytes32))",
        "numberOfBytes": "32",
        "value": "t_mapping(t_contract(IPayoffProvider)4143,t_bytes32)"
      },
      "t_mapping(t_bytes32,t_struct(PayoffDefinition)3691_storage)": {
        "encoding": "mapping",
        "key": "t_bytes32",
        "label": "mapping(bytes32 => struct IKeeperFactory.PayoffDefinition)",
        "numberOfBytes": "32",
        "value": "t_struct(PayoffDefinition)3691_storage"
      },
      "t_mapping(t_contract(IFactory)28611,t_bool)": {
        "encoding": "mapping",
        "key": "t_contract(IFactory)28611",
        "label": "mapping(contract IFactory => bool)",
        "numberOfBytes": "32",
        "value": "t_bool"
      },
      "t_mapping(t_contract(IPayoffProvider)4143,t_bool)": {
        "encoding": "mapping",
        "key": "t_contract(IPayoffProvider)4143",
        "label": "mapping(contract IPayoffProvider => bool)",
        "numberOfBytes": "32",
        "value": "t_bool"
      },
      "t_mapping(t_contract(IPayoffProvider)4143,t_bytes32)": {
        "encoding": "mapping",
        "key": "t_contract(IPayoffProvider)4143",
        "label": "mapping(contract IPayoffProvider => bytes32)",
        "numberOfBytes": "32",
        "value": "t_bytes32"
      },
      "t_struct(Granularity)3685_storage": {
        "encoding": "inplace",
        "label": "struct IKeeperFactory.Granularity",
        "members": [
          {
            "astId": 3680,
            "contract": "@equilibria/perennial-v2-oracle/contracts/pyth/PythFactory_Arbitrum.sol:PythFactory_Arbitrum",
            "label": "latestGranularity",
            "offset": 0,
            "slot": "0",
            "type": "t_uint64"
          },
          {
            "astId": 3682,
            "contract": "@equilibria/perennial-v2-oracle/contracts/pyth/PythFactory_Arbitrum.sol:PythFactory_Arbitrum",
            "label": "currentGranularity",
            "offset": 8,
            "slot": "0",
            "type": "t_uint64"
          },
          {
            "astId": 3684,
            "contract": "@equilibria/perennial-v2-oracle/contracts/pyth/PythFactory_Arbitrum.sol:PythFactory_Arbitrum",
            "label": "effectiveAfter",
            "offset": 16,
            "slot": "0",
            "type": "t_uint128"
          }
        ],
        "numberOfBytes": "32"
      },
      "t_struct(PayoffDefinition)3691_storage": {
        "encoding": "inplace",
        "label": "struct IKeeperFactory.PayoffDefinition",
        "members": [
          {
            "astId": 3688,
            "contract": "@equilibria/perennial-v2-oracle/contracts/pyth/PythFactory_Arbitrum.sol:PythFactory_Arbitrum",
            "label": "provider",
            "offset": 0,
            "slot": "0",
            "type": "t_contract(IPayoffProvider)4143"
          },
          {
            "astId": 3690,
            "contract": "@equilibria/perennial-v2-oracle/contracts/pyth/PythFactory_Arbitrum.sol:PythFactory_Arbitrum",
            "label": "decimals",
            "offset": 20,
            "slot": "0",
            "type": "t_int16"
          }
        ],
        "numberOfBytes": "32"
      },
      "t_uint128": {
        "encoding": "inplace",
        "label": "uint128",
        "numberOfBytes": "16"
      },
      "t_uint64": {
        "encoding": "inplace",
        "label": "uint64",
        "numberOfBytes": "8"
      }
    }
  }
}