{
  "address": "0x7B6b232Cf4FF0f72a0b711d082C532bAF111C982",
  "abi": [
    {
      "inputs": [],
      "name": "AccountStorageInvalidError",
      "type": "error"
    },
    {
      "inputs": [],
      "name": "AccountStorageInvalidError",
      "type": "error"
    },
    {
      "inputs": [],
      "name": "CheckpointSingleSidedError",
      "type": "error"
    },
    {
      "inputs": [],
      "name": "CheckpointStorageInvalidError",
      "type": "error"
    },
    {
      "inputs": [],
      "name": "CheckpointStorageInvalidError",
      "type": "error"
    },
    {
      "inputs": [
        {
          "internalType": "uint256",
          "name": "value",
          "type": "uint256"
        }
      ],
      "name": "Fixed6OverflowError",
      "type": "error"
    },
    {
      "inputs": [
        {
          "internalType": "uint256",
          "name": "version",
          "type": "uint256"
        }
      ],
      "name": "InitializableAlreadyInitializedError",
      "type": "error"
    },
    {
      "inputs": [],
      "name": "InitializableNotInitializingError",
      "type": "error"
    },
    {
      "inputs": [],
      "name": "InitializableZeroVersionError",
      "type": "error"
    },
    {
      "inputs": [
        {
          "internalType": "address",
          "name": "sender",
          "type": "address"
        }
      ],
      "name": "InstanceNotFactoryError",
      "type": "error"
    },
    {
      "inputs": [
        {
          "internalType": "address",
          "name": "sender",
          "type": "address"
        }
      ],
      "name": "InstanceNotOwnerError",
      "type": "error"
    },
    {
      "inputs": [],
      "name": "InstancePausedError",
      "type": "error"
    },
    {
      "inputs": [],
      "name": "MappingStorageInvalidError",
      "type": "error"
    },
    {
      "inputs": [],
      "name": "MappingStorageInvalidError",
      "type": "error"
    },
    {
      "inputs": [],
      "name": "RegistrationStorageInvalidError",
      "type": "error"
    },
    {
      "inputs": [],
      "name": "RegistrationStorageInvalidError",
      "type": "error"
    },
    {
      "inputs": [],
      "name": "StrategyLibInsufficientMarginError",
      "type": "error"
    },
    {
      "inputs": [],
      "name": "StrategyLibInsufficientMarginError",
      "type": "error"
    },
    {
      "inputs": [
        {
          "internalType": "int256",
          "name": "value",
          "type": "int256"
        }
      ],
      "name": "UFixed6UnderflowError",
      "type": "error"
    },
    {
      "inputs": [],
      "name": "VaultDepositLimitExceededError",
      "type": "error"
    },
    {
      "inputs": [],
      "name": "VaultExistingOrderError",
      "type": "error"
    },
    {
      "inputs": [],
      "name": "VaultIncorrectAssetError",
      "type": "error"
    },
    {
      "inputs": [],
      "name": "VaultInsufficientMinimumError",
      "type": "error"
    },
    {
      "inputs": [],
      "name": "VaultMarketDoesNotExistError",
      "type": "error"
    },
    {
      "inputs": [],
      "name": "VaultMarketExistsError",
      "type": "error"
    },
    {
      "inputs": [],
      "name": "VaultNotMarketError",
      "type": "error"
    },
    {
      "inputs": [],
      "name": "VaultNotOperatorError",
      "type": "error"
    },
    {
      "inputs": [],
      "name": "VaultNotSingleSidedError",
      "type": "error"
    },
    {
      "inputs": [],
      "name": "VaultParameterStorageInvalidError",
      "type": "error"
    },
    {
      "inputs": [],
      "name": "VaultParameterStorageInvalidError",
      "type": "error"
    },
    {
      "inputs": [],
      "name": "VaultRedemptionLimitExceededError",
      "type": "error"
    },
    {
      "anonymous": false,
      "inputs": [
        {
          "indexed": false,
          "internalType": "uint256",
          "name": "version",
          "type": "uint256"
        }
      ],
      "name": "Initialized",
      "type": "event"
    },
    {
      "anonymous": false,
      "inputs": [
        {
          "indexed": true,
          "internalType": "uint256",
          "name": "marketId",
          "type": "uint256"
        },
        {
          "indexed": false,
          "internalType": "contract IMarket",
          "name": "market",
          "type": "address"
        }
      ],
      "name": "MarketRegistered",
      "type": "event"
    },
    {
      "anonymous": false,
      "inputs": [
        {
          "indexed": true,
          "internalType": "uint256",
          "name": "marketId",
          "type": "uint256"
        },
        {
          "indexed": false,
          "internalType": "uint256",
          "name": "newWeight",
          "type": "uint256"
        },
        {
          "indexed": false,
          "internalType": "UFixed6",
          "name": "newLeverage",
          "type": "uint256"
        }
      ],
      "name": "MarketUpdated",
      "type": "event"
    },
    {
      "anonymous": false,
      "inputs": [
        {
          "components": [
            {
              "internalType": "UFixed6",
              "name": "cap",
              "type": "uint256"
            }
          ],
          "indexed": false,
          "internalType": "struct VaultParameter",
          "name": "newParameter",
          "type": "tuple"
        }
      ],
      "name": "ParameterUpdated",
      "type": "event"
    },
    {
      "anonymous": false,
      "inputs": [
        {
          "indexed": true,
          "internalType": "address",
          "name": "sender",
          "type": "address"
        },
        {
          "indexed": true,
          "internalType": "address",
          "name": "account",
          "type": "address"
        },
        {
          "indexed": false,
          "internalType": "uint256",
          "name": "version",
          "type": "uint256"
        },
        {
          "indexed": false,
          "internalType": "UFixed6",
          "name": "depositAssets",
          "type": "uint256"
        },
        {
          "indexed": false,
          "internalType": "UFixed6",
          "name": "redeemShares",
          "type": "uint256"
        },
        {
          "indexed": false,
          "internalType": "UFixed6",
          "name": "claimAssets",
          "type": "uint256"
        }
      ],
      "name": "Updated",
      "type": "event"
    },
    {
      "inputs": [
        {
          "components": [
            {
              "components": [
                {
                  "components": [
                    {
                      "components": [
                        {
                          "internalType": "UFixed6",
                          "name": "fundingFee",
                          "type": "uint256"
                        },
                        {
                          "internalType": "UFixed6",
                          "name": "interestFee",
                          "type": "uint256"
                        },
                        {
                          "internalType": "UFixed6",
                          "name": "positionFee",
                          "type": "uint256"
                        },
                        {
                          "internalType": "UFixed6",
                          "name": "oracleFee",
                          "type": "uint256"
                        },
                        {
                          "internalType": "UFixed6",
                          "name": "riskFee",
                          "type": "uint256"
                        },
                        {
                          "internalType": "uint256",
                          "name": "maxPendingGlobal",
                          "type": "uint256"
                        },
                        {
                          "internalType": "uint256",
                          "name": "maxPendingLocal",
                          "type": "uint256"
                        },
                        {
                          "internalType": "UFixed6",
                          "name": "makerRewardRate",
                          "type": "uint256"
                        },
                        {
                          "internalType": "UFixed6",
                          "name": "longRewardRate",
                          "type": "uint256"
                        },
                        {
                          "internalType": "UFixed6",
                          "name": "shortRewardRate",
                          "type": "uint256"
                        },
                        {
                          "internalType": "UFixed6",
                          "name": "settlementFee",
                          "type": "uint256"
                        },
                        {
                          "internalType": "bool",
                          "name": "takerCloseAlways",
                          "type": "bool"
                        },
                        {
                          "internalType": "bool",
                          "name": "makerCloseAlways",
                          "type": "bool"
                        },
                        {
                          "internalType": "bool",
                          "name": "closed",
                          "type": "bool"
                        },
                        {
                          "internalType": "bool",
                          "name": "settle",
                          "type": "bool"
                        }
                      ],
                      "internalType": "struct MarketParameter",
                      "name": "marketParameter",
                      "type": "tuple"
                    },
                    {
                      "components": [
                        {
                          "internalType": "UFixed6",
                          "name": "margin",
                          "type": "uint256"
                        },
                        {
                          "internalType": "UFixed6",
                          "name": "maintenance",
                          "type": "uint256"
                        },
                        {
                          "internalType": "UFixed6",
                          "name": "takerFee",
                          "type": "uint256"
                        },
                        {
                          "internalType": "UFixed6",
                          "name": "takerSkewFee",
                          "type": "uint256"
                        },
                        {
                          "internalType": "UFixed6",
                          "name": "takerImpactFee",
                          "type": "uint256"
                        },
                        {
                          "internalType": "UFixed6",
                          "name": "makerFee",
                          "type": "uint256"
                        },
                        {
                          "internalType": "UFixed6",
                          "name": "makerImpactFee",
                          "type": "uint256"
                        },
                        {
                          "internalType": "UFixed6",
                          "name": "makerLimit",
                          "type": "uint256"
                        },
                        {
                          "internalType": "UFixed6",
                          "name": "efficiencyLimit",
                          "type": "uint256"
                        },
                        {
                          "internalType": "UFixed6",
                          "name": "liquidationFee",
                          "type": "uint256"
                        },
                        {
                          "internalType": "UFixed6",
                          "name": "minLiquidationFee",
                          "type": "uint256"
                        },
                        {
                          "internalType": "UFixed6",
                          "name": "maxLiquidationFee",
                          "type": "uint256"
                        },
                        {
                          "components": [
                            {
                              "internalType": "UFixed6",
                              "name": "minRate",
                              "type": "uint256"
                            },
                            {
                              "internalType": "UFixed6",
                              "name": "maxRate",
                              "type": "uint256"
                            },
                            {
                              "internalType": "UFixed6",
                              "name": "targetRate",
                              "type": "uint256"
                            },
                            {
                              "internalType": "UFixed6",
                              "name": "targetUtilization",
                              "type": "uint256"
                            }
                          ],
                          "internalType": "struct UJumpRateUtilizationCurve6",
                          "name": "utilizationCurve",
                          "type": "tuple"
                        },
                        {
                          "components": [
                            {
                              "internalType": "UFixed6",
                              "name": "k",
                              "type": "uint256"
                            },
                            {
                              "internalType": "UFixed6",
                              "name": "max",
                              "type": "uint256"
                            }
                          ],
                          "internalType": "struct PController6",
                          "name": "pController",
                          "type": "tuple"
                        },
                        {
                          "internalType": "UFixed6",
                          "name": "minMargin",
                          "type": "uint256"
                        },
                        {
                          "internalType": "UFixed6",
                          "name": "minMaintenance",
                          "type": "uint256"
                        },
                        {
                          "internalType": "UFixed6",
                          "name": "skewScale",
                          "type": "uint256"
                        },
                        {
                          "internalType": "uint256",
                          "name": "staleAfter",
                          "type": "uint256"
                        },
                        {
                          "internalType": "bool",
                          "name": "makerReceiveOnly",
                          "type": "bool"
                        }
                      ],
                      "internalType": "struct RiskParameter",
                      "name": "riskParameter",
                      "type": "tuple"
                    },
                    {
                      "components": [
                        {
                          "internalType": "uint256",
                          "name": "currentId",
                          "type": "uint256"
                        },
                        {
                          "internalType": "uint256",
                          "name": "latestId",
                          "type": "uint256"
                        },
                        {
                          "internalType": "Fixed6",
                          "name": "collateral",
                          "type": "int256"
                        },
                        {
                          "internalType": "UFixed6",
                          "name": "reward",
                          "type": "uint256"
                        },
                        {
                          "internalType": "uint256",
                          "name": "protection",
                          "type": "uint256"
                        },
                        {
                          "internalType": "address",
                          "name": "protectionInitiator",
                          "type": "address"
                        },
                        {
                          "internalType": "UFixed6",
                          "name": "protectionAmount",
                          "type": "uint256"
                        }
                      ],
                      "internalType": "struct Local",
                      "name": "local",
                      "type": "tuple"
                    },
                    {
                      "components": [
                        {
                          "internalType": "uint256",
                          "name": "timestamp",
                          "type": "uint256"
                        },
                        {
                          "internalType": "UFixed6",
                          "name": "maker",
                          "type": "uint256"
                        },
                        {
                          "internalType": "UFixed6",
                          "name": "long",
                          "type": "uint256"
                        },
                        {
                          "internalType": "UFixed6",
                          "name": "short",
                          "type": "uint256"
                        },
                        {
                          "internalType": "Fixed6",
                          "name": "fee",
                          "type": "int256"
                        },
                        {
                          "internalType": "UFixed6",
                          "name": "keeper",
                          "type": "uint256"
                        },
                        {
                          "internalType": "Fixed6",
                          "name": "collateral",
                          "type": "int256"
                        },
                        {
                          "internalType": "Fixed6",
                          "name": "delta",
                          "type": "int256"
                        },
                        {
                          "components": [
                            {
                              "internalType": "Fixed6",
                              "name": "maker",
                              "type": "int256"
                            },
                            {
                              "internalType": "Fixed6",
                              "name": "long",
                              "type": "int256"
                            },
                            {
                              "internalType": "Fixed6",
                              "name": "short",
                              "type": "int256"
                            }
                          ],
                          "internalType": "struct Invalidation",
                          "name": "invalidation",
                          "type": "tuple"
                        }
                      ],
                      "internalType": "struct Position",
                      "name": "currentAccountPosition",
                      "type": "tuple"
                    },
                    {
                      "components": [
                        {
                          "internalType": "uint256",
                          "name": "timestamp",
                          "type": "uint256"
                        },
                        {
                          "internalType": "UFixed6",
                          "name": "maker",
                          "type": "uint256"
                        },
                        {
                          "internalType": "UFixed6",
                          "name": "long",
                          "type": "uint256"
                        },
                        {
                          "internalType": "UFixed6",
                          "name": "short",
                          "type": "uint256"
                        },
                        {
                          "internalType": "Fixed6",
                          "name": "fee",
                          "type": "int256"
                        },
                        {
                          "internalType": "UFixed6",
                          "name": "keeper",
                          "type": "uint256"
                        },
                        {
                          "internalType": "Fixed6",
                          "name": "collateral",
                          "type": "int256"
                        },
                        {
                          "internalType": "Fixed6",
                          "name": "delta",
                          "type": "int256"
                        },
                        {
                          "components": [
                            {
                              "internalType": "Fixed6",
                              "name": "maker",
                              "type": "int256"
                            },
                            {
                              "internalType": "Fixed6",
                              "name": "long",
                              "type": "int256"
                            },
                            {
                              "internalType": "Fixed6",
                              "name": "short",
                              "type": "int256"
                            }
                          ],
                          "internalType": "struct Invalidation",
                          "name": "invalidation",
                          "type": "tuple"
                        }
                      ],
                      "internalType": "struct Position",
                      "name": "latestAccountPosition",
                      "type": "tuple"
                    },
                    {
                      "components": [
                        {
                          "internalType": "uint256",
                          "name": "timestamp",
                          "type": "uint256"
                        },
                        {
                          "internalType": "UFixed6",
                          "name": "maker",
                          "type": "uint256"
                        },
                        {
                          "internalType": "UFixed6",
                          "name": "long",
                          "type": "uint256"
                        },
                        {
                          "internalType": "UFixed6",
                          "name": "short",
                          "type": "uint256"
                        },
                        {
                          "internalType": "Fixed6",
                          "name": "fee",
                          "type": "int256"
                        },
                        {
                          "internalType": "UFixed6",
                          "name": "keeper",
                          "type": "uint256"
                        },
                        {
                          "internalType": "Fixed6",
                          "name": "collateral",
                          "type": "int256"
                        },
                        {
                          "internalType": "Fixed6",
                          "name": "delta",
                          "type": "int256"
                        },
                        {
                          "components": [
                            {
                              "internalType": "Fixed6",
                              "name": "maker",
                              "type": "int256"
                            },
                            {
                              "internalType": "Fixed6",
                              "name": "long",
                              "type": "int256"
                            },
                            {
                              "internalType": "Fixed6",
                              "name": "short",
                              "type": "int256"
                            }
                          ],
                          "internalType": "struct Invalidation",
                          "name": "invalidation",
                          "type": "tuple"
                        }
                      ],
                      "internalType": "struct Position",
                      "name": "currentPosition",
                      "type": "tuple"
                    },
                    {
                      "internalType": "Fixed6",
                      "name": "latestPrice",
                      "type": "int256"
                    },
                    {
                      "internalType": "UFixed6",
                      "name": "margin",
                      "type": "uint256"
                    },
                    {
                      "internalType": "UFixed6",
                      "name": "closable",
                      "type": "uint256"
                    },
                    {
                      "internalType": "UFixed6",
                      "name": "pendingFee",
                      "type": "uint256"
                    }
                  ],
                  "internalType": "struct MarketStrategyContext[]",
                  "name": "marketContexts",
                  "type": "tuple[]"
                }
              ],
              "internalType": "struct Strategy",
              "name": "strategy",
              "type": "tuple"
            },
            {
              "internalType": "UFixed6",
              "name": "settlementFee",
              "type": "uint256"
            },
            {
              "internalType": "uint256",
              "name": "totalWeight",
              "type": "uint256"
            },
            {
              "internalType": "uint256",
              "name": "currentId",
              "type": "uint256"
            },
            {
              "components": [
                {
                  "internalType": "contract IMarket",
                  "name": "market",
                  "type": "address"
                },
                {
                  "internalType": "uint256",
                  "name": "weight",
                  "type": "uint256"
                },
                {
                  "internalType": "UFixed6",
                  "name": "leverage",
                  "type": "uint256"
                }
              ],
              "internalType": "struct Registration[]",
              "name": "registrations",
              "type": "tuple[]"
            },
            {
              "internalType": "Fixed6[]",
              "name": "collaterals",
              "type": "int256[]"
            },
            {
              "components": [
                {
                  "internalType": "uint256[]",
                  "name": "_ids",
                  "type": "uint256[]"
                }
              ],
              "internalType": "struct Mapping",
              "name": "currentIds",
              "type": "tuple"
            },
            {
              "components": [
                {
                  "internalType": "uint256[]",
                  "name": "_ids",
                  "type": "uint256[]"
                }
              ],
              "internalType": "struct Mapping",
              "name": "latestIds",
              "type": "tuple"
            },
            {
              "components": [
                {
                  "internalType": "UFixed6",
                  "name": "cap",
                  "type": "uint256"
                }
              ],
              "internalType": "struct VaultParameter",
              "name": "parameter",
              "type": "tuple"
            },
            {
              "components": [
                {
                  "internalType": "UFixed6",
                  "name": "deposit",
                  "type": "uint256"
                },
                {
                  "internalType": "UFixed6",
                  "name": "redemption",
                  "type": "uint256"
                },
                {
                  "internalType": "UFixed6",
                  "name": "shares",
                  "type": "uint256"
                },
                {
                  "internalType": "Fixed6",
                  "name": "assets",
                  "type": "int256"
                },
                {
                  "internalType": "UFixed6",
                  "name": "fee",
                  "type": "uint256"
                },
                {
                  "internalType": "UFixed6",
                  "name": "keeper",
                  "type": "uint256"
                },
                {
                  "internalType": "uint256",
                  "name": "count",
                  "type": "uint256"
                }
              ],
              "internalType": "struct Checkpoint",
              "name": "currentCheckpoint",
              "type": "tuple"
            },
            {
              "components": [
                {
                  "internalType": "UFixed6",
                  "name": "deposit",
                  "type": "uint256"
                },
                {
                  "internalType": "UFixed6",
                  "name": "redemption",
                  "type": "uint256"
                },
                {
                  "internalType": "UFixed6",
                  "name": "shares",
                  "type": "uint256"
                },
                {
                  "internalType": "Fixed6",
                  "name": "assets",
                  "type": "int256"
                },
                {
                  "internalType": "UFixed6",
                  "name": "fee",
                  "type": "uint256"
                },
                {
                  "internalType": "UFixed6",
                  "name": "keeper",
                  "type": "uint256"
                },
                {
                  "internalType": "uint256",
                  "name": "count",
                  "type": "uint256"
                }
              ],
              "internalType": "struct Checkpoint",
              "name": "latestCheckpoint",
              "type": "tuple"
            },
            {
              "components": [
                {
                  "internalType": "uint256",
                  "name": "current",
                  "type": "uint256"
                },
                {
                  "internalType": "uint256",
                  "name": "latest",
                  "type": "uint256"
                },
                {
                  "internalType": "UFixed6",
                  "name": "shares",
                  "type": "uint256"
                },
                {
                  "internalType": "UFixed6",
                  "name": "assets",
                  "type": "uint256"
                },
                {
                  "internalType": "UFixed6",
                  "name": "deposit",
                  "type": "uint256"
                },
                {
                  "internalType": "UFixed6",
                  "name": "redemption",
                  "type": "uint256"
                }
              ],
              "internalType": "struct Account",
              "name": "global",
              "type": "tuple"
            },
            {
              "components": [
                {
                  "internalType": "uint256",
                  "name": "current",
                  "type": "uint256"
                },
                {
                  "internalType": "uint256",
                  "name": "latest",
                  "type": "uint256"
                },
                {
                  "internalType": "UFixed6",
                  "name": "shares",
                  "type": "uint256"
                },
                {
                  "internalType": "UFixed6",
                  "name": "assets",
                  "type": "uint256"
                },
                {
                  "internalType": "UFixed6",
                  "name": "deposit",
                  "type": "uint256"
                },
                {
                  "internalType": "UFixed6",
                  "name": "redemption",
                  "type": "uint256"
                }
              ],
              "internalType": "struct Account",
              "name": "local",
              "type": "tuple"
            }
          ],
          "internalType": "struct IVault.Context",
          "name": "context",
          "type": "tuple"
        }
      ],
      "name": "_collateral",
      "outputs": [
        {
          "internalType": "Fixed6",
          "name": "value",
          "type": "int256"
        }
      ],
      "stateMutability": "view",
      "type": "function"
    },
    {
      "inputs": [
        {
          "components": [
            {
              "components": [
                {
                  "components": [
                    {
                      "components": [
                        {
                          "internalType": "UFixed6",
                          "name": "fundingFee",
                          "type": "uint256"
                        },
                        {
                          "internalType": "UFixed6",
                          "name": "interestFee",
                          "type": "uint256"
                        },
                        {
                          "internalType": "UFixed6",
                          "name": "positionFee",
                          "type": "uint256"
                        },
                        {
                          "internalType": "UFixed6",
                          "name": "oracleFee",
                          "type": "uint256"
                        },
                        {
                          "internalType": "UFixed6",
                          "name": "riskFee",
                          "type": "uint256"
                        },
                        {
                          "internalType": "uint256",
                          "name": "maxPendingGlobal",
                          "type": "uint256"
                        },
                        {
                          "internalType": "uint256",
                          "name": "maxPendingLocal",
                          "type": "uint256"
                        },
                        {
                          "internalType": "UFixed6",
                          "name": "makerRewardRate",
                          "type": "uint256"
                        },
                        {
                          "internalType": "UFixed6",
                          "name": "longRewardRate",
                          "type": "uint256"
                        },
                        {
                          "internalType": "UFixed6",
                          "name": "shortRewardRate",
                          "type": "uint256"
                        },
                        {
                          "internalType": "UFixed6",
                          "name": "settlementFee",
                          "type": "uint256"
                        },
                        {
                          "internalType": "bool",
                          "name": "takerCloseAlways",
                          "type": "bool"
                        },
                        {
                          "internalType": "bool",
                          "name": "makerCloseAlways",
                          "type": "bool"
                        },
                        {
                          "internalType": "bool",
                          "name": "closed",
                          "type": "bool"
                        },
                        {
                          "internalType": "bool",
                          "name": "settle",
                          "type": "bool"
                        }
                      ],
                      "internalType": "struct MarketParameter",
                      "name": "marketParameter",
                      "type": "tuple"
                    },
                    {
                      "components": [
                        {
                          "internalType": "UFixed6",
                          "name": "margin",
                          "type": "uint256"
                        },
                        {
                          "internalType": "UFixed6",
                          "name": "maintenance",
                          "type": "uint256"
                        },
                        {
                          "internalType": "UFixed6",
                          "name": "takerFee",
                          "type": "uint256"
                        },
                        {
                          "internalType": "UFixed6",
                          "name": "takerSkewFee",
                          "type": "uint256"
                        },
                        {
                          "internalType": "UFixed6",
                          "name": "takerImpactFee",
                          "type": "uint256"
                        },
                        {
                          "internalType": "UFixed6",
                          "name": "makerFee",
                          "type": "uint256"
                        },
                        {
                          "internalType": "UFixed6",
                          "name": "makerImpactFee",
                          "type": "uint256"
                        },
                        {
                          "internalType": "UFixed6",
                          "name": "makerLimit",
                          "type": "uint256"
                        },
                        {
                          "internalType": "UFixed6",
                          "name": "efficiencyLimit",
                          "type": "uint256"
                        },
                        {
                          "internalType": "UFixed6",
                          "name": "liquidationFee",
                          "type": "uint256"
                        },
                        {
                          "internalType": "UFixed6",
                          "name": "minLiquidationFee",
                          "type": "uint256"
                        },
                        {
                          "internalType": "UFixed6",
                          "name": "maxLiquidationFee",
                          "type": "uint256"
                        },
                        {
                          "components": [
                            {
                              "internalType": "UFixed6",
                              "name": "minRate",
                              "type": "uint256"
                            },
                            {
                              "internalType": "UFixed6",
                              "name": "maxRate",
                              "type": "uint256"
                            },
                            {
                              "internalType": "UFixed6",
                              "name": "targetRate",
                              "type": "uint256"
                            },
                            {
                              "internalType": "UFixed6",
                              "name": "targetUtilization",
                              "type": "uint256"
                            }
                          ],
                          "internalType": "struct UJumpRateUtilizationCurve6",
                          "name": "utilizationCurve",
                          "type": "tuple"
                        },
                        {
                          "components": [
                            {
                              "internalType": "UFixed6",
                              "name": "k",
                              "type": "uint256"
                            },
                            {
                              "internalType": "UFixed6",
                              "name": "max",
                              "type": "uint256"
                            }
                          ],
                          "internalType": "struct PController6",
                          "name": "pController",
                          "type": "tuple"
                        },
                        {
                          "internalType": "UFixed6",
                          "name": "minMargin",
                          "type": "uint256"
                        },
                        {
                          "internalType": "UFixed6",
                          "name": "minMaintenance",
                          "type": "uint256"
                        },
                        {
                          "internalType": "UFixed6",
                          "name": "skewScale",
                          "type": "uint256"
                        },
                        {
                          "internalType": "uint256",
                          "name": "staleAfter",
                          "type": "uint256"
                        },
                        {
                          "internalType": "bool",
                          "name": "makerReceiveOnly",
                          "type": "bool"
                        }
                      ],
                      "internalType": "struct RiskParameter",
                      "name": "riskParameter",
                      "type": "tuple"
                    },
                    {
                      "components": [
                        {
                          "internalType": "uint256",
                          "name": "currentId",
                          "type": "uint256"
                        },
                        {
                          "internalType": "uint256",
                          "name": "latestId",
                          "type": "uint256"
                        },
                        {
                          "internalType": "Fixed6",
                          "name": "collateral",
                          "type": "int256"
                        },
                        {
                          "internalType": "UFixed6",
                          "name": "reward",
                          "type": "uint256"
                        },
                        {
                          "internalType": "uint256",
                          "name": "protection",
                          "type": "uint256"
                        },
                        {
                          "internalType": "address",
                          "name": "protectionInitiator",
                          "type": "address"
                        },
                        {
                          "internalType": "UFixed6",
                          "name": "protectionAmount",
                          "type": "uint256"
                        }
                      ],
                      "internalType": "struct Local",
                      "name": "local",
                      "type": "tuple"
                    },
                    {
                      "components": [
                        {
                          "internalType": "uint256",
                          "name": "timestamp",
                          "type": "uint256"
                        },
                        {
                          "internalType": "UFixed6",
                          "name": "maker",
                          "type": "uint256"
                        },
                        {
                          "internalType": "UFixed6",
                          "name": "long",
                          "type": "uint256"
                        },
                        {
                          "internalType": "UFixed6",
                          "name": "short",
                          "type": "uint256"
                        },
                        {
                          "internalType": "Fixed6",
                          "name": "fee",
                          "type": "int256"
                        },
                        {
                          "internalType": "UFixed6",
                          "name": "keeper",
                          "type": "uint256"
                        },
                        {
                          "internalType": "Fixed6",
                          "name": "collateral",
                          "type": "int256"
                        },
                        {
                          "internalType": "Fixed6",
                          "name": "delta",
                          "type": "int256"
                        },
                        {
                          "components": [
                            {
                              "internalType": "Fixed6",
                              "name": "maker",
                              "type": "int256"
                            },
                            {
                              "internalType": "Fixed6",
                              "name": "long",
                              "type": "int256"
                            },
                            {
                              "internalType": "Fixed6",
                              "name": "short",
                              "type": "int256"
                            }
                          ],
                          "internalType": "struct Invalidation",
                          "name": "invalidation",
                          "type": "tuple"
                        }
                      ],
                      "internalType": "struct Position",
                      "name": "currentAccountPosition",
                      "type": "tuple"
                    },
                    {
                      "components": [
                        {
                          "internalType": "uint256",
                          "name": "timestamp",
                          "type": "uint256"
                        },
                        {
                          "internalType": "UFixed6",
                          "name": "maker",
                          "type": "uint256"
                        },
                        {
                          "internalType": "UFixed6",
                          "name": "long",
                          "type": "uint256"
                        },
                        {
                          "internalType": "UFixed6",
                          "name": "short",
                          "type": "uint256"
                        },
                        {
                          "internalType": "Fixed6",
                          "name": "fee",
                          "type": "int256"
                        },
                        {
                          "internalType": "UFixed6",
                          "name": "keeper",
                          "type": "uint256"
                        },
                        {
                          "internalType": "Fixed6",
                          "name": "collateral",
                          "type": "int256"
                        },
                        {
                          "internalType": "Fixed6",
                          "name": "delta",
                          "type": "int256"
                        },
                        {
                          "components": [
                            {
                              "internalType": "Fixed6",
                              "name": "maker",
                              "type": "int256"
                            },
                            {
                              "internalType": "Fixed6",
                              "name": "long",
                              "type": "int256"
                            },
                            {
                              "internalType": "Fixed6",
                              "name": "short",
                              "type": "int256"
                            }
                          ],
                          "internalType": "struct Invalidation",
                          "name": "invalidation",
                          "type": "tuple"
                        }
                      ],
                      "internalType": "struct Position",
                      "name": "latestAccountPosition",
                      "type": "tuple"
                    },
                    {
                      "components": [
                        {
                          "internalType": "uint256",
                          "name": "timestamp",
                          "type": "uint256"
                        },
                        {
                          "internalType": "UFixed6",
                          "name": "maker",
                          "type": "uint256"
                        },
                        {
                          "internalType": "UFixed6",
                          "name": "long",
                          "type": "uint256"
                        },
                        {
                          "internalType": "UFixed6",
                          "name": "short",
                          "type": "uint256"
                        },
                        {
                          "internalType": "Fixed6",
                          "name": "fee",
                          "type": "int256"
                        },
                        {
                          "internalType": "UFixed6",
                          "name": "keeper",
                          "type": "uint256"
                        },
                        {
                          "internalType": "Fixed6",
                          "name": "collateral",
                          "type": "int256"
                        },
                        {
                          "internalType": "Fixed6",
                          "name": "delta",
                          "type": "int256"
                        },
                        {
                          "components": [
                            {
                              "internalType": "Fixed6",
                              "name": "maker",
                              "type": "int256"
                            },
                            {
                              "internalType": "Fixed6",
                              "name": "long",
                              "type": "int256"
                            },
                            {
                              "internalType": "Fixed6",
                              "name": "short",
                              "type": "int256"
                            }
                          ],
                          "internalType": "struct Invalidation",
                          "name": "invalidation",
                          "type": "tuple"
                        }
                      ],
                      "internalType": "struct Position",
                      "name": "currentPosition",
                      "type": "tuple"
                    },
                    {
                      "internalType": "Fixed6",
                      "name": "latestPrice",
                      "type": "int256"
                    },
                    {
                      "internalType": "UFixed6",
                      "name": "margin",
                      "type": "uint256"
                    },
                    {
                      "internalType": "UFixed6",
                      "name": "closable",
                      "type": "uint256"
                    },
                    {
                      "internalType": "UFixed6",
                      "name": "pendingFee",
                      "type": "uint256"
                    }
                  ],
                  "internalType": "struct MarketStrategyContext[]",
                  "name": "marketContexts",
                  "type": "tuple[]"
                }
              ],
              "internalType": "struct Strategy",
              "name": "strategy",
              "type": "tuple"
            },
            {
              "internalType": "UFixed6",
              "name": "settlementFee",
              "type": "uint256"
            },
            {
              "internalType": "uint256",
              "name": "totalWeight",
              "type": "uint256"
            },
            {
              "internalType": "uint256",
              "name": "currentId",
              "type": "uint256"
            },
            {
              "components": [
                {
                  "internalType": "contract IMarket",
                  "name": "market",
                  "type": "address"
                },
                {
                  "internalType": "uint256",
                  "name": "weight",
                  "type": "uint256"
                },
                {
                  "internalType": "UFixed6",
                  "name": "leverage",
                  "type": "uint256"
                }
              ],
              "internalType": "struct Registration[]",
              "name": "registrations",
              "type": "tuple[]"
            },
            {
              "internalType": "Fixed6[]",
              "name": "collaterals",
              "type": "int256[]"
            },
            {
              "components": [
                {
                  "internalType": "uint256[]",
                  "name": "_ids",
                  "type": "uint256[]"
                }
              ],
              "internalType": "struct Mapping",
              "name": "currentIds",
              "type": "tuple"
            },
            {
              "components": [
                {
                  "internalType": "uint256[]",
                  "name": "_ids",
                  "type": "uint256[]"
                }
              ],
              "internalType": "struct Mapping",
              "name": "latestIds",
              "type": "tuple"
            },
            {
              "components": [
                {
                  "internalType": "UFixed6",
                  "name": "cap",
                  "type": "uint256"
                }
              ],
              "internalType": "struct VaultParameter",
              "name": "parameter",
              "type": "tuple"
            },
            {
              "components": [
                {
                  "internalType": "UFixed6",
                  "name": "deposit",
                  "type": "uint256"
                },
                {
                  "internalType": "UFixed6",
                  "name": "redemption",
                  "type": "uint256"
                },
                {
                  "internalType": "UFixed6",
                  "name": "shares",
                  "type": "uint256"
                },
                {
                  "internalType": "Fixed6",
                  "name": "assets",
                  "type": "int256"
                },
                {
                  "internalType": "UFixed6",
                  "name": "fee",
                  "type": "uint256"
                },
                {
                  "internalType": "UFixed6",
                  "name": "keeper",
                  "type": "uint256"
                },
                {
                  "internalType": "uint256",
                  "name": "count",
                  "type": "uint256"
                }
              ],
              "internalType": "struct Checkpoint",
              "name": "currentCheckpoint",
              "type": "tuple"
            },
            {
              "components": [
                {
                  "internalType": "UFixed6",
                  "name": "deposit",
                  "type": "uint256"
                },
                {
                  "internalType": "UFixed6",
                  "name": "redemption",
                  "type": "uint256"
                },
                {
                  "internalType": "UFixed6",
                  "name": "shares",
                  "type": "uint256"
                },
                {
                  "internalType": "Fixed6",
                  "name": "assets",
                  "type": "int256"
                },
                {
                  "internalType": "UFixed6",
                  "name": "fee",
                  "type": "uint256"
                },
                {
                  "internalType": "UFixed6",
                  "name": "keeper",
                  "type": "uint256"
                },
                {
                  "internalType": "uint256",
                  "name": "count",
                  "type": "uint256"
                }
              ],
              "internalType": "struct Checkpoint",
              "name": "latestCheckpoint",
              "type": "tuple"
            },
            {
              "components": [
                {
                  "internalType": "uint256",
                  "name": "current",
                  "type": "uint256"
                },
                {
                  "internalType": "uint256",
                  "name": "latest",
                  "type": "uint256"
                },
                {
                  "internalType": "UFixed6",
                  "name": "shares",
                  "type": "uint256"
                },
                {
                  "internalType": "UFixed6",
                  "name": "assets",
                  "type": "uint256"
                },
                {
                  "internalType": "UFixed6",
                  "name": "deposit",
                  "type": "uint256"
                },
                {
                  "internalType": "UFixed6",
                  "name": "redemption",
                  "type": "uint256"
                }
              ],
              "internalType": "struct Account",
              "name": "global",
              "type": "tuple"
            },
            {
              "components": [
                {
                  "internalType": "uint256",
                  "name": "current",
                  "type": "uint256"
                },
                {
                  "internalType": "uint256",
                  "name": "latest",
                  "type": "uint256"
                },
                {
                  "internalType": "UFixed6",
                  "name": "shares",
                  "type": "uint256"
                },
                {
                  "internalType": "UFixed6",
                  "name": "assets",
                  "type": "uint256"
                },
                {
                  "internalType": "UFixed6",
                  "name": "deposit",
                  "type": "uint256"
                },
                {
                  "internalType": "UFixed6",
                  "name": "redemption",
                  "type": "uint256"
                }
              ],
              "internalType": "struct Account",
              "name": "local",
              "type": "tuple"
            }
          ],
          "internalType": "struct IVault.Context",
          "name": "context",
          "type": "tuple"
        },
        {
          "internalType": "uint256",
          "name": "id",
          "type": "uint256"
        }
      ],
      "name": "_collateralAtId",
      "outputs": [
        {
          "internalType": "Fixed6",
          "name": "value",
          "type": "int256"
        },
        {
          "internalType": "UFixed6",
          "name": "fee",
          "type": "uint256"
        },
        {
          "internalType": "UFixed6",
          "name": "keeper",
          "type": "uint256"
        }
      ],
      "stateMutability": "view",
      "type": "function"
    },
    {
      "inputs": [
        {
          "internalType": "address",
          "name": "account",
          "type": "address"
        }
      ],
      "name": "accounts",
      "outputs": [
        {
          "components": [
            {
              "internalType": "uint256",
              "name": "current",
              "type": "uint256"
            },
            {
              "internalType": "uint256",
              "name": "latest",
              "type": "uint256"
            },
            {
              "internalType": "UFixed6",
              "name": "shares",
              "type": "uint256"
            },
            {
              "internalType": "UFixed6",
              "name": "assets",
              "type": "uint256"
            },
            {
              "internalType": "UFixed6",
              "name": "deposit",
              "type": "uint256"
            },
            {
              "internalType": "UFixed6",
              "name": "redemption",
              "type": "uint256"
            }
          ],
          "internalType": "struct Account",
          "name": "",
          "type": "tuple"
        }
      ],
      "stateMutability": "view",
      "type": "function"
    },
    {
      "inputs": [],
      "name": "asset",
      "outputs": [
        {
          "internalType": "Token18",
          "name": "",
          "type": "address"
        }
      ],
      "stateMutability": "view",
      "type": "function"
    },
    {
      "inputs": [
        {
          "internalType": "uint256",
          "name": "id",
          "type": "uint256"
        }
      ],
      "name": "checkpoints",
      "outputs": [
        {
          "components": [
            {
              "internalType": "UFixed6",
              "name": "deposit",
              "type": "uint256"
            },
            {
              "internalType": "UFixed6",
              "name": "redemption",
              "type": "uint256"
            },
            {
              "internalType": "UFixed6",
              "name": "shares",
              "type": "uint256"
            },
            {
              "internalType": "Fixed6",
              "name": "assets",
              "type": "int256"
            },
            {
              "internalType": "UFixed6",
              "name": "fee",
              "type": "uint256"
            },
            {
              "internalType": "UFixed6",
              "name": "keeper",
              "type": "uint256"
            },
            {
              "internalType": "uint256",
              "name": "count",
              "type": "uint256"
            }
          ],
          "internalType": "struct Checkpoint",
          "name": "",
          "type": "tuple"
        }
      ],
      "stateMutability": "view",
      "type": "function"
    },
    {
      "inputs": [
        {
          "internalType": "UFixed6",
          "name": "shares",
          "type": "uint256"
        }
      ],
      "name": "convertToAssets",
      "outputs": [
        {
          "internalType": "UFixed6",
          "name": "",
          "type": "uint256"
        }
      ],
      "stateMutability": "view",
      "type": "function"
    },
    {
      "inputs": [
        {
          "internalType": "UFixed6",
          "name": "assets",
          "type": "uint256"
        }
      ],
      "name": "convertToShares",
      "outputs": [
        {
          "internalType": "UFixed6",
          "name": "",
          "type": "uint256"
        }
      ],
      "stateMutability": "view",
      "type": "function"
    },
    {
      "inputs": [],
      "name": "factory",
      "outputs": [
        {
          "internalType": "contract IFactory",
          "name": "",
          "type": "address"
        }
      ],
      "stateMutability": "view",
      "type": "function"
    },
    {
      "inputs": [
        {
          "internalType": "Token18",
          "name": "asset_",
          "type": "address"
        },
        {
          "internalType": "contract IMarket",
          "name": "initialMarket",
          "type": "address"
        },
        {
          "internalType": "UFixed6",
          "name": "cap",
          "type": "uint256"
        },
        {
          "internalType": "string",
          "name": "name_",
          "type": "string"
        }
      ],
      "name": "initialize",
      "outputs": [],
      "stateMutability": "nonpayable",
      "type": "function"
    },
    {
      "inputs": [
        {
          "internalType": "uint256",
          "name": "id",
          "type": "uint256"
        }
      ],
      "name": "mappings",
      "outputs": [
        {
          "components": [
            {
              "internalType": "uint256[]",
              "name": "_ids",
              "type": "uint256[]"
            }
          ],
          "internalType": "struct Mapping",
          "name": "",
          "type": "tuple"
        }
      ],
      "stateMutability": "view",
      "type": "function"
    },
    {
      "inputs": [],
      "name": "name",
      "outputs": [
        {
          "internalType": "string",
          "name": "",
          "type": "string"
        }
      ],
      "stateMutability": "view",
      "type": "function"
    },
    {
      "inputs": [],
      "name": "parameter",
      "outputs": [
        {
          "components": [
            {
              "internalType": "UFixed6",
              "name": "cap",
              "type": "uint256"
            }
          ],
          "internalType": "struct VaultParameter",
          "name": "",
          "type": "tuple"
        }
      ],
      "stateMutability": "view",
      "type": "function"
    },
    {
      "inputs": [
        {
          "internalType": "address",
          "name": "account",
          "type": "address"
        }
      ],
      "name": "rebalance",
      "outputs": [],
      "stateMutability": "nonpayable",
      "type": "function"
    },
    {
      "inputs": [
        {
          "internalType": "contract IMarket",
          "name": "market",
          "type": "address"
        }
      ],
      "name": "register",
      "outputs": [],
      "stateMutability": "nonpayable",
      "type": "function"
    },
    {
      "inputs": [
        {
          "internalType": "uint256",
          "name": "marketId",
          "type": "uint256"
        }
      ],
      "name": "registrations",
      "outputs": [
        {
          "components": [
            {
              "internalType": "contract IMarket",
              "name": "market",
              "type": "address"
            },
            {
              "internalType": "uint256",
              "name": "weight",
              "type": "uint256"
            },
            {
              "internalType": "UFixed6",
              "name": "leverage",
              "type": "uint256"
            }
          ],
          "internalType": "struct Registration",
          "name": "",
          "type": "tuple"
        }
      ],
      "stateMutability": "view",
      "type": "function"
    },
    {
      "inputs": [
        {
          "internalType": "address",
          "name": "account",
          "type": "address"
        }
      ],
      "name": "settle",
      "outputs": [],
      "stateMutability": "nonpayable",
      "type": "function"
    },
    {
      "inputs": [],
      "name": "totalAssets",
      "outputs": [
        {
          "internalType": "Fixed6",
          "name": "",
          "type": "int256"
        }
      ],
      "stateMutability": "view",
      "type": "function"
    },
    {
      "inputs": [],
      "name": "totalMarkets",
      "outputs": [
        {
          "internalType": "uint256",
          "name": "",
          "type": "uint256"
        }
      ],
      "stateMutability": "view",
      "type": "function"
    },
    {
      "inputs": [],
      "name": "totalShares",
      "outputs": [
        {
          "internalType": "UFixed6",
          "name": "",
          "type": "uint256"
        }
      ],
      "stateMutability": "view",
      "type": "function"
    },
    {
      "inputs": [
        {
          "internalType": "address",
          "name": "account",
          "type": "address"
        },
        {
          "internalType": "UFixed6",
          "name": "depositAssets",
          "type": "uint256"
        },
        {
          "internalType": "UFixed6",
          "name": "redeemShares",
          "type": "uint256"
        },
        {
          "internalType": "UFixed6",
          "name": "claimAssets",
          "type": "uint256"
        }
      ],
      "name": "update",
      "outputs": [],
      "stateMutability": "nonpayable",
      "type": "function"
    },
    {
      "inputs": [
        {
          "internalType": "uint256",
          "name": "marketId",
          "type": "uint256"
        },
        {
          "internalType": "uint256",
          "name": "newWeight",
          "type": "uint256"
        },
        {
          "internalType": "UFixed6",
          "name": "newLeverage",
          "type": "uint256"
        }
      ],
      "name": "updateMarket",
      "outputs": [],
      "stateMutability": "nonpayable",
      "type": "function"
    },
    {
      "inputs": [
        {
          "components": [
            {
              "internalType": "UFixed6",
              "name": "cap",
              "type": "uint256"
            }
          ],
          "internalType": "struct VaultParameter",
          "name": "newParameter",
          "type": "tuple"
        }
      ],
      "name": "updateParameter",
      "outputs": [],
      "stateMutability": "nonpayable",
      "type": "function"
    }
  ],
  "transactionHash": "0x2d9f0e9b59ce93abc81a71b84ca8a437c9e712f243c6c1a6c231273217e57673",
  "args": [],
  "numDeployments": 2,
  "solcInputHash": "feffd2fc76689ec3cec4122f1910cf13",
  "bytecode": "0x6080806040523461001757615f8990816200001d8239f35b600080fdfe60c0604052600436101561001257600080fd5b60003560e01c806301e1d1141461234157806306fdde031461223157806307a2d13a146121de57806321c281911461210e57806338d52e0f146120e75780633a98ef39146120cc5780634420e48614611f3a5780635e5c06e214611ebd5780636a256b2914611d6c5780637cebdbbb14611d315780638162486b14611d135780639fec600b146119a3578063a145198c14611873578063a524574914611676578063ad4d4e2914611643578063b8a24252146115ca578063c45a015514611584578063c6e6f5921461151f578063d2c3aaf214610242578063e2cb8821146101f0578063ecf053d91461016c5763f4ddb5be1461010e57600080fd5b3461016757602036600319011261016757610127612d47565b506004356000526004602052606061014260406000206157f4565b60408051916001600160a01b0381511683526020810151602084015201516040820152f35b600080fd5b346101675760208060031936011261016757606060405161018c816123e3565b52600435600052600781526101a4604060002061573d565b906040519181839283526040830191519181808501528251809152816060850193019160005b8281106101d957505050500390f35b8351855286955093810193928101926001016101ca565b346101675760403660031901126101675760043567ffffffffffffffff81116101675761022f6102266060923690600401612754565b602435906145b5565b9060405192835260208301526040820152f35b346101675760803660031901126101675761025b6123a5565b600460206001600160a01b037f0aec74a1754fb10877b53c31a29be82096082042eb1fb374ec96fac88c0e621b541660405192838092635c975abb60e01b82525afa9081156109c5576000916114e5575b506114bb576102b96132f0565b6102c281613ea0565b6102cc8282613515565b6101608101515180606083015260005260076020526102fc6102f1604060002061573d565b60c0830151906156ad565b156114955761030e6060820151612f1a565b60608201526101208101516101608201516103336001600160a01b0360015416615cf4565b9161036561036061034f64e8d4a5100060408601519604615b32565b9360606080820151910151906133a2565b615b32565b600081128382810312811690848381031390151617610b3e5760409203606082015201526060810151600052600760205260406000209160c082015190600080528360205263ffffffff60406000205416610491578151518061147257506000935b6103d08561255b565b946103de6040519687612539565b8086526103ed601f199161255b565b0160005b81811061143e57505060005b835180518210156104bb576104178263ffffffff92613715565b51116104915763ffffffff845151169060078104916104368389613715565b5152602061045663ffffffff61044d848951613715565b51169389613715565b510151916007820692600784101561047b576104769360051b0152612f1a565b6103fd565b634e487b7160e01b600052603260045260246000fd5b60046040517ff003e2c3000000000000000000000000000000000000000000000000000000008152fd5b505093915060005b825181101561054a576104d68184613715565b518160005285602052602060406000209163ffffffff81511663ffffffff1984541617835501519060009160005b600781106105205750506001015561051b90612f1a565b6104c3565b9092602060019163ffffffff8651169063ffffffff8560051b92831b921b19161794019101610504565b50925050905b60443591606435926080820151906040519361056b856123e3565b60608552825161057a8161255b565b906105886040519283612539565b808252610597601f199161255b565b0160005b81811061141b57505085526000915b8351831015610e1f579082916105c260049486613715565b51946105cc614759565b986101e06001600160a01b038851166040519788809263ad4d4e2960e01b82525afa80156109c557600496600091610dee575b508a526102e06001600160a01b03885116604051978880927f4549a6290000000000000000000000000000000000000000000000000000000082525afa80156109c557600090610c74575b6024965060208b015260e06001600160a01b0388511660405197888092635b4b969560e01b82523060048301525afa80156109c557600496600091610c45575b5060408b01526101206001600160a01b03885116604051978880927fa05f99060000000000000000000000000000000000000000000000000000000082525afa9586156109c557600096610b91575b5060e086015160c08b015260246101606001600160a01b03895116604051928380927f55f575100000000000000000000000000000000000000000000000000000000082523060048301525afa80156109c5578b602092600092610b62575b506107e1610120828460806107ec95015261075385806159bf565b6107ae60c0820151604051906107688261248e565b6000825288820152600160408201528783015160408801516060890151808211600014610b5b57505b888a0151808211156109845750915b6101c0825192015192615ae0565b60e082015180821115610b5457505b60e082015201516080840151600081131561096b576107db90615c1b565b906133a2565b60a0830151906133a2565b6101208d0152015193602060808c015101516101008c0152602060408c01510151600181018111610b3e57600101945b60408c01515186116109d157885160405163ce813aed60e01b815230600482015260248101889052919061016090839060449082906001600160a01b03165afa9182156109c55761012061095b8f929461096595600091610994575b5080606085015261088d6080850151826159bf565b61092a60c085015195604051966108a38861248e565b600088526020880152600160408801526108f46020870151976040850151606086015180821160001461098c5750985b60208601998a518082116000146109845750916101c0825192015192615ae0565b60e08701518082111561097d57505b60e08701526109246101008701519188518181106000146109765790615c57565b90615c57565b61010085015260a06109528486015160808401516000811360001461096b576107db90615c1b565b910151906133a2565b9101525195612f1a565b9461081c565b506107db6000615c1b565b5080615c57565b9050610903565b9050916107a0565b9050986108d3565b6109b891506101603d610160116109be575b6109b08183612539565b810190614516565b38610878565b503d6109a6565b6040513d6000823e3d90fd5b509593509598600491979492996101606001600160a01b03825116604051948580927f09218e910000000000000000000000000000000000000000000000000000000082525afa9283156109c557600093610b12575b506001600160a01b0361016091511694516024604051809781937fa1d0a11300000000000000000000000000000000000000000000000000000000835260048301525afa9081156109c557610a93610ad8938593610ade97600091610af1575b508060a08501526159bf565b610abf610120820151604083015160808401516080820151905110600014610ae85760c00151906133a2565b610120820152895190610ad28383613715565b52613715565b50612f1a565b91909392956105aa565b506000906133a2565b610b0c91506101603d610160116109be576109b08183612539565b8e610a87565b610160919350610b366001600160a01b0391833d85116109be576109b08183612539565b939150610a27565b634e487b7160e01b600052601160045260246000fd5b90506107bd565b9050610791565b6107ec919250610120610b886107e1926101603d610160116109be576109b08183612539565b93925050610738565b909550610120903d61012011610c3d575b610bac8282612539565b610120818381010312610167576040805192610bc784612454565b82518452602083015160208501528183015182850152606083015160608501526080830151608085015260a080840151908501528260bf199181010301126101675761010090604051610c19816123ff565b60c0820151815260e0820151602082015260c0840152015160e0820152948a6106d9565b3d9150610ba2565b610c67915060e03d60e011610c6d575b610c5f8183612539565b810190613b3b565b8b61068a565b503d610c55565b506102e03d6102e011610de7575b610c8c8188612539565b6102e08782810103126101675760405190610ca68261241b565b875182526020880151602083015260408801516040830152606088015160608301526080880151608083015260a0808901519083015260c088015160c083015260e088015160e0830152610100808901519083015261012080890151908301526101408089015190830152610160880151610160830152608061017f1989838101030112610167576040908151610d3c81612438565b6101808a81015182526101a08b015160208301526101c08b0151848301526101e08b0151606083015284015288018890036101ff19011261016757602496610dde6102c060405192610d8d846123ff565b61020093848201518152610220908183015160208201526101a087015261024094858301516101c08801526102608301516101e0880152610280830151908701526102a08201519086015201612f29565b9082015261064a565b503d610c82565b610e1291506101e03d6101e011610e18575b610e0a8183612539565b810190613a6c565b8b6105ff565b503d610e00565b925093905082526001610e3185615ca4565b1461140a575b6001610e4282615ca4565b146113fa575b6001600160a01b03831633141580611339575b61130f576001610e97610e7986610e74856024356133a2565b6133a2565b8360243511600014611309576024355b878111156113015790615ce3565b036112d7576002610eb2610eaa8461427b565b602435615ce3565b146112ad576002610ecb610ec5846142db565b83615ce3565b1461128357602435151593848061126c575b6111fd578115158080611227575b6111fd5761018084015160208151910151036111d357610f0a8461448e565b60008113156111c857610f1c90615c1b565b610160850151606001518061119c5750506000955b866024351580611194575b61117c575b50610f5d8461016087015181866024359260608b015190614d0b565b610f788461018087015181866024359260608b015190614d0b565b610120850151918161116e575b8115611156575b5061112c5760c090610fa160243582516133a2565b60208201610fb08682516133a2565b9052815201610fbf8151612f1a565b90526001600160a01b0360015416610fd8602435615c01565b604051907f23b872dd0000000000000000000000000000000000000000000000000000000060208301523360248301523060448301526064820152606481528060a081011067ffffffffffffffff60a083011117611116576111149661104b826110c19460a06110ae9501604052615d74565b61105581876137d6565b6110bc61106d6001600160a01b036001541692615c01565b6040517fa9059cbb00000000000000000000000000000000000000000000000000000000602082015233602482015260448101919091529283906064820190565b03601f198101845283612539565b615d74565b6060830151916040519283526024356020840152604083015260608201526001600160a01b038316907ecdda35b21914cc89ca2689f6ada564ebad3ad81f233699e25e44e13ab73f4960803392a361420c565b005b634e487b7160e01b600052604160045260246000fd5b60046040517f4596b8b1000000000000000000000000000000000000000000000000000000008152fd5b905080611164575b87610f8c565b508051151561115e565b602083015115159150610f85565b61118d919750602086015190615c57565b9587610f41565b508415610f3c565b6111b891818110156111be576111b3905b856157e1565b61571d565b95610f31565b506111b3816111ad565b50610f1c6000615c1b565b60046040517fe4b29524000000000000000000000000000000000000000000000000000000008152fd5b60046040517ff2fbeec4000000000000000000000000000000000000000000000000000000008152fd5b506112576101408501516020860151908560408201511560001461125d579050905b818110156109765790615c57565b15610eeb565b6112669161517d565b90611249565b5061127d6020840151602435615ce3565b15610edd565b60046040517fc85650f7000000000000000000000000000000000000000000000000000000008152fd5b60046040517fa9785d3d000000000000000000000000000000000000000000000000000000008152fd5b60046040517fa65ac9fb000000000000000000000000000000000000000000000000000000008152fd5b508690615ce3565b83610e89565b60046040517f7eb267c7000000000000000000000000000000000000000000000000000000008152fd5b50604460206001600160a01b037f0aec74a1754fb10877b53c31a29be82096082042eb1fb374ec96fac88c0e621b5416604051928380927f2637588e0000000000000000000000000000000000000000000000000000000082526001600160a01b03891660048301523360248301525afa9081156109c5576000916113c0575b5015610e5b565b90506020813d6020116113f2575b816113db60209383612539565b81010312610167576113ec90612f29565b856113b9565b3d91506113ce565b5060406101808201510151610e48565b610180820151606001519350610e37565b60209061142c999697949599614759565b8282860101520197939295949761059b565b60209060405161144d816123ff565b6000815260405161145d816124aa565b60e03682378382015282828a010152016103f1565b6000198101908111610b3e5760079004600181018111610b3e57600101936103c7565b606081015160005260066020526114af604060002061529e565b61012082015290610550565b60046040517f4b94d2bb000000000000000000000000000000000000000000000000000000008152fd5b90506020813d602011611517575b8161150060209383612539565b810103126101675761151190612f29565b826102ac565b3d91506114f3565b3461016757602036600319011261016757602060043561153d612dd0565b60008113156115795761154f90615c1b565b611557612e97565b806115675750505b604051908152f35b6111b390611574936157e1565b61155f565b5061154f6000615c1b565b346101675760003660031901126101675760206001600160a01b037f0aec74a1754fb10877b53c31a29be82096082042eb1fb374ec96fac88c0e621b5416604051908152f35b34610167576020366003190112610167576115e3612d98565b50600435600052600660205260e06115fe604060002061529e565b60c060405191805183526020810151602084015260408101516040840152606081015160608401526080810151608084015260a081015160a0840152015160c0820152f35b34610167576000366003190112610167576000604051611662816123e3565b52602061166d615974565b60405190518152f35b3461016757606036600319011261016757600435602435604435906001600160a01b0390817f0aec74a1754fb10877b53c31a29be82096082042eb1fb374ec96fac88c0e621b541660405192638da5cb5b60e01b84526020938481600481865afa9081156109c55760009161183e575b5016330361180e578260049160405192838092635c975abb60e01b82525afa9081156109c5576000916117d9575b506114bb576117216132f0565b61174361172c613b9c565b611735816133af565b61173e81613729565b6141b0565b6003548410156117af577f19de27a5967d3c5ffdfa85f8f33ed63fcae289e86abc970d013e0ae2bc8bb27f9260409285600052600481526117a4611789856000206157f4565b8483820152838682015287600052600483528560002061587b565b8351928352820152a2005b60046040517f04467fe8000000000000000000000000000000000000000000000000000000008152fd5b90508281813d8311611807575b6117f08183612539565b810103126101675761180190612f29565b85611714565b503d6117e6565b60246040517f4d193d1f000000000000000000000000000000000000000000000000000000008152336004820152fd5b90508481813d831161186c575b6118558183612539565b810103126101675761186690612f06565b876116e6565b503d61184b565b34610167576020806003193601126101675760405190611892826123e3565b60043582526001600160a01b03807f0aec74a1754fb10877b53c31a29be82096082042eb1fb374ec96fac88c0e621b541690604051638da5cb5b60e01b81528381600481865afa9081156109c55760009161196e575b5016330361180e578160049160405192838092635c975abb60e01b82525afa9182156109c557600092611938575b50506114bb57611114906119286132f0565b61193361172c613b9c565b613264565b90809250813d8311611967575b61194f8183612539565b810103126101675761196090612f29565b8280611916565b503d611945565b90508381813d831161199c575b6119858183612539565b810103126101675761199690612f06565b856118e8565b503d61197b565b34610167576080366003190112610167576119bc6123a5565b6001600160a01b03906024803583811681036101675767ffffffffffffffff60643581811161016757366023820112156101675780600401359182116101675736848383010111610167576001957f6fee9688c285c5c5c97d6a1a29adced674e6b2ad0888b8ad2116b58a8b3ea2488781541015611ce3578790557f2801b00eb06461cf9fcb9758b5fafd884ff06a86177386f73b6c49f0bf5a5af095878755303b151580611cdb575b611cb157337f0aec74a1754fb10877b53c31a29be82096082042eb1fb374ec96fac88c0e621b55167fffffffffffffffffffffffff0000000000000000000000000000000000000000875416178655611ac0600054612d0d565b601f8111611c4a575b50600090601f8311600114611bc057938291611b0195600093611bb3575b505050600019600383901b1c191690851b17600055612f36565b600354156117af577fbe9b076dc5b65990cca9dd9d7366682482e7817a6f6bc7f4faf4dc32af497f3291600060209281805260048452611b61611b46604084206157f4565b8486820152836040820152838052600486526040842061587b565b817f19de27a5967d3c5ffdfa85f8f33ed63fcae289e86abc970d013e0ae2bc8bb27f604080518681528388820152a2611ba9604051611b9f816123e3565b6044358152613264565b55604051908152a1005b0101359050868080611ae7565b6000808052601f198416958894937f290decd9548b62a8d60345a988386fc84ba6bc95484008f6362f93160ef3e56393925b888110611c30575084611b019810611c14575b50505050811b01600055612f36565b60001960f88660031b161c199201013516905586808080611c05565b81840183013585558a969094019360209182019101611bf2565b600080527f290decd9548b62a8d60345a988386fc84ba6bc95484008f6362f93160ef3e563601f840160051c81019160208510611ca7575b601f0160051c019087905b828110611c9b575050611ac9565b60008155018790611c8d565b9091508190611c82565b60046040517fb9a621e1000000000000000000000000000000000000000000000000000000008152fd5b506000611a66565b8588604051907f3db738da0000000000000000000000000000000000000000000000000000000082526004820152fd5b34610167576000366003190112610167576020600354604051908152f35b346101675760203660031901126101675760043567ffffffffffffffff81116101675761155f611d676020923690600401612754565b61448e565b346101675760208060031936011261016757611d866123a5565b906001600160a01b0390600481837f0aec74a1754fb10877b53c31a29be82096082042eb1fb374ec96fac88c0e621b541660405192838092635c975abb60e01b82525afa9081156109c557600091611e88575b506114bb5760005b600354811015611e6c57806000526004825282611e0160406000206157f4565b511690813b1561016757600080926024604051809581937f6a256b290000000000000000000000000000000000000000000000000000000083523060048401525af19182156109c557611e5892611e5d5750612f1a565b611de1565b611e66906123cf565b85610ad8565b61111484611e7981613ea0565b611e838282613515565b61420c565b90508181813d8311611eb6575b611e9f8183612539565b8101031261016757611eb090612f29565b84611dd9565b503d611e95565b34610167576020366003190112610167576001600160a01b03611ede6123a5565b611ee6612d66565b5016600052600560205260c0611eff6040600020614d51565b60a0604051918051835260208101516020840152604081015160408401526060810151606084015260808101516080840152015160a0820152f35b346101675760208060031936011261016757611f546123a5565b6001600160a01b0391827f0aec74a1754fb10877b53c31a29be82096082042eb1fb374ec96fac88c0e621b5416604051638da5cb5b60e01b81528281600481855afa80156109c5578591600091612094575b5016330361180e578160049160405192838092635c975abb60e01b82525afa9081156109c55760009161205f575b506114bb5791611fe26132f0565b611fed61172c613b9c565b60009060035493818416925b8581106120095761111485612f36565b8060005260048252838361202060406000206157f4565b5116146120355761203090612f1a565b611ff9565b60046040517f499943cd000000000000000000000000000000000000000000000000000000008152fd5b90508181813d831161208d575b6120768183612539565b810103126101675761208790612f29565b84611fd4565b503d61206c565b809250848092503d83116120c5575b6120ad8183612539565b81010312610167576120bf8591612f06565b86611fa6565b503d6120a3565b3461016757600036600319011261016757602061155f612e97565b346101675760003660031901126101675760206001600160a01b0360015416604051908152f35b34610167576020366003190112610167576121276123a5565b600460206001600160a01b037f0aec74a1754fb10877b53c31a29be82096082042eb1fb374ec96fac88c0e621b541660405192838092635c975abb60e01b82525afa9081156109c5576000916121a5575b506114bb57611114906121896132f0565b61219281613ea0565b61219c8282613515565b611e8381613729565b90506020813d82116121d6575b816121bf60209383612539565b81010312610167576121d090612f29565b82612178565b3d91506121b2565b346101675760203660031901126101675760206004356121fc612dd0565b60008113156122265761220e90615c1b565b612216612e97565b9081611567575050604051908152f35b5061220e6000615c1b565b346101675760003660031901126101675760405160207f506572656e6e69616c205632205661756c743a20000000000000000000000000818301526000906000549061227c82612d0d565b9160019081811690811561231857506001146122ba575b6122b6856122aa818703601f198101835282612539565b6040519182918261235c565b0390f35b90919250600080527f290decd9548b62a8d60345a988386fc84ba6bc95484008f6362f93160ef3e563906000915b848310612304575050505081016034016122aa826122b6612293565b8054868401603401529183019181016122e8565b8695506122b6969350603492506122aa94915060ff191682840152801515028201019293612293565b3461016757600036600319011261016757602061155f612dd0565b6020808252825181830181905290939260005b82811061239157505060409293506000838284010152601f8019910116010190565b81810186015184820160400152850161236f565b600435906001600160a01b038216820361016757565b35906001600160a01b038216820361016757565b67ffffffffffffffff811161111657604052565b6020810190811067ffffffffffffffff82111761111657604052565b6040810190811067ffffffffffffffff82111761111657604052565b610260810190811067ffffffffffffffff82111761111657604052565b6080810190811067ffffffffffffffff82111761111657604052565b610100810190811067ffffffffffffffff82111761111657604052565b610120810190811067ffffffffffffffff82111761111657604052565b6060810190811067ffffffffffffffff82111761111657604052565b60e0810190811067ffffffffffffffff82111761111657604052565b60c0810190811067ffffffffffffffff82111761111657604052565b6101a0810190811067ffffffffffffffff82111761111657604052565b610140810190811067ffffffffffffffff82111761111657604052565b6101e0810190811067ffffffffffffffff82111761111657604052565b90601f8019910116810190811067ffffffffffffffff82111761111657604052565b67ffffffffffffffff81116111165760051b60200190565b3590811515820361016757565b80929103916101608312610167576040519061259b82612471565b6060829482358452602083013560208501526040830135604085015281830135828501526080830135608085015260a083013560a085015260c083013560c085015260e083013560e085015260ff19011261016757604051916125fd8361248e565b610140610100928381013585526101208101356020860152013560408401520152565b919060208084830312610167576040519061263a826123e3565b819480359067ffffffffffffffff821161016757019280601f850112156101675783356126668161255b565b946126746040519687612539565b818652838087019260051b820101928311610167578301905b82821061269b575050505052565b8135815290830190830161268d565b91908260e0910312610167576040516126c2816124aa565b60c0808294803584526020810135602085015260408101356040850152606081013560608501526080810135608085015260a081013560a08501520135910152565b91908260c09103126101675760405161271c816124c6565b60a080829480358452602081013560208501526040810135604085015260608101356060850152608081013560808501520135910152565b80820392916104608412610167576040519161276f836124e2565b829481359067ffffffffffffffff91828111610167578301602081860312610167576040519061279e826123e3565b803590848211610167570185601f820112156101675780356127bf8161255b565b916127cd6040519384612539565b818352602083016020610a408094028301019189831161016757602001905b8282106129d557505050508152855260208301356020860152604083013560408601526060808401358187015260808401358381116101675784019085601f830112156101675781359161283f8361255b565b9261284d6040519485612539565b80845260208381860192028301019188831161016757602001905b8282106129945750505050608086015260a083013582811161016757830184601f820112156101675780359061289d8261255b565b916128ab6040519384612539565b80835260208084019160051b8301019187831161016757602001905b8282106129845750505060a086015260c083013582811161016757846128ee918501612620565b60c086015260e08301359182116101675761290d846020938501612620565b60e086015260ff19011261016757610180916103a061297f92604051612932816123e3565b61010080830135825287015261012061294d848284016126aa565b9087015261295f8361020083016126aa565b610140870152612973836102e08301612704565b61016087015201612704565b910152565b81358152602091820191016128c7565b83828a031261016757602084916040516129ad8161248e565b6129b6856123bb565b8152828501358382015260408501356040820152815201910190612868565b83828b0312610167576040516129ea816124ff565b6101e0838c031261016757604051612a018161251c565b833581526020840135602082015260408401356040820152606084013560608201526080840135608082015260a084013560a082015260c084013560c082015260e084013560e0820152610100840135610100820152610120840135610120820152610140840135610140820152612a7c6101608501612573565b610160820152612a8f6101808501612573565b610180820152612aa26101a08501612573565b6101a0820152612ab56101c08501612573565b6101c082015281526102e0838c036101df19011261016757604051612ad98161241b565b6101e08401358152610200840135602082015261022084013560408201526102408401356060820152610260840135608082015261028084013560a08201526102a084013560c08201526102c084013560e08201526102e084013561010082015261030084013561012082015261032084013561014082015261034084013561016082015260808c8561035f199103011261016757604051612b7a81612438565b610360850135815261038085013560208201526103a085013560408201526103c0850135606082015261018082015260408c856103df199103011261016757604051612bc5816123ff565b6103e0850135815261040085013560208201526101a08201526104208401356101c08201526104408401356101e0820152610460840135610200820152610480840135610220820152612c1b6104a08501612573565b610240820152602082015260e0838c036104bf190112610167578491602091604051612c46816124aa565b6104c086013581526104e086013584820152610500860135604082015261052086013560608201526105408601356080820152612c8661056087016123bb565b60a082015261058086013560c08201526040820152612ca98d6105a08701612580565b6060820152612cbc8d6107008701612580565b6080820152612ccf8d6108608701612580565b60a08201526109c085013560c08201526109e085013560e0820152610a00850135610100820152610a208501356101208201528152019101906127ec565b90600182811c92168015612d3d575b6020831014612d2757565b634e487b7160e01b600052602260045260246000fd5b91607f1691612d1c565b60405190612d548261248e565b60006040838281528260208201520152565b60405190612d73826124c6565b8160a06000918281528260208201528260408201528260608201528260808201520152565b60405190612da5826124aa565b8160c06000918281528260208201528260408201528260608201528260808201528260a08201520152565b600080805260056020908152612e057f05b8ccbb9d4d8fb16ea74ce3c29a41f1b461fbdaff4714a0d9a8eb05499746bc614d51565b015181526006602052612e1a6040822061529e565b90606082015191612e2b8151615b32565b92828482019485129112908015821691151617612e8357610360816020612e5493015190615081565b91818382039312818412811691841390151617612e6f575090565b80634e487b7160e01b602492526011600452fd5b602482634e487b7160e01b81526011600452fd5b6000805260056020908152612ecb7f05b8ccbb9d4d8fb16ea74ce3c29a41f1b461fbdaff4714a0d9a8eb05499746bc614d51565b01516000526006602052612f03612ee5604060002061529e565b6020612efa60408301516107db845185615021565b91015190615c57565b90565b51906001600160a01b038216820361016757565b6000198114610b3e5760010190565b5190811515820361016757565b7f0aec74a1754fb10877b53c31a29be82096082042eb1fb374ec96fac88c0e621b54604080517f06ae70950000000000000000000000000000000000000000000000000000000081526001600160a01b039493600493602093919084908490879082908b165afa9283156131b85787918591600095613220575b5060248391855194859384927f032bb4430000000000000000000000000000000000000000000000000000000084521697888b840152165afa9081156131b8576000916131eb575b50156131c35780517ffc0c546a00000000000000000000000000000000000000000000000000000000815283818681865afa9081156131b857600091613180575b50866001541696879116036131585782600094959660448351809781937f095ea7b3000000000000000000000000000000000000000000000000000000008352878b840152811960248401525af1801561314d576130f9575b7f07796b317344e6f18fa32ed89b6074ad66549cee7fb7b8c3e9f1c42c496f1c5c9350600354946130c286612f1a565b6003558560005283526130f2816000208251906130de8261248e565b84825260008683015260008483015261587b565b51908152a2565b8284813d8311613146575b61310e8183612539565b81010312610167576131407f07796b317344e6f18fa32ed89b6074ad66549cee7fb7b8c3e9f1c42c496f1c5c94612f29565b50613092565b503d613104565b50513d6000823e3d90fd5b8390517faddc4c0d000000000000000000000000000000000000000000000000000000008152fd5b908482813d83116131b1575b6131968183612539565b810103126131ae57506131a890612f06565b38613039565b80fd5b503d61318c565b82513d6000823e3d90fd5b8390517f7c04a019000000000000000000000000000000000000000000000000000000008152fd5b908482813d8311613219575b6132018183612539565b810103126131ae575061321390612f29565b38612ff8565b503d6131f7565b828193929694503d831161325d575b6132398183612539565b8101031261325957519087821682036131ae575091869084906024612fb0565b5080fd5b503d61322f565b60026132708251615cb1565b146132c65760208167ffffffffffffffff7f6aa12494b90f1eeec92df49ec47058878b0803a79ba307dead4905555159adc79351166000836040516132b4816123ff565b838152015260025560405190518152a1565b60046040517f0f9f8b19000000000000000000000000000000000000000000000000000000008152fd5b6000905b60035482101561339e5781600052600491826020526040926001600160a01b03613320856000206157f4565b511690813b156101675760009160c483928751948593849263123dd9c560e31b84523090840152811960248401528160448401528160648401528160848401528160a48401525af180156133935761337e9394506133845750612f1a565b906132f4565b61338d906123cf565b38610ad8565b84513d6000823e3d90fd5b9050565b91908201809211610b3e57565b905b6101608201918251805160208092015180911190816134df575b50156134d957808451015190600182018092116134c457600082815260068083526040926133fa84842061529e565b94610140870195865261340d81886145b5565b9188519260609182850180518a83820193841291129080158216911516176134b057916134aa9c9d9e9161349b93526080948587015260a08096015251936134918b51948b8651968a810151968a8c8b015289019061348461347483516107db8b85615081565b938b01916107db8b845192615021565b9052528601948551615c57565b9401918251615c57565b9052528352522090519061536c565b906133b1565b60248a634e487b7160e01b81526011600452fd5b60246000634e487b7160e01b81526011600452fd5b50509050565b9050600181018091116134c457613504604061350f926000908152600785522061573d565b60e084015190615635565b386133cb565b9190915b6101608101928351805160208092015180911190816136df575b50156135e457808551015190600182018092116134c4576000828152600680835260409261356284842061529e565b94610140880195865261357581896145b5565b9188519260609182850180518a83820193841291129080158216911516176134b057916135dd9c9d9e9f9161349b93526080948587015260a08096015251936134918b51948b8651968a810151968a8c8b015289019061348461347483516107db8b85615081565b9190613519565b506001600160a01b039192935016156136dc5761018081019081519060208251920151821191826136b0575b50506136195750565b80515190816000526006602052613633604060002061529e565b905190613699613691608084019384519060a081019485519760208301526060820190613687604061367884518c838601511560001461369e576107db905b8661521d565b9401916107db868451926150b6565b9052528451615c57565b938251615c57565b905252565b6136ab6107db918761517d565b613672565b6136d59250600052600760205260e06136cc604060002061573d565b91015190615635565b3880613610565b50565b9050600181018091116134c457613704604061370f926000908152600785522061573d565b60e085015190615635565b38613533565b805182101561047b5760209160051b010190565b906101606137368361448e565b9201613750610360825160806060820151910151906133a2565b60009381810391851380158284131691831216176137c257620f42406137b061378c608093876136dc9798508082136000146137bb5750615c1b565b6137aa85516137a460a06040830151920151826133a2565b90615c83565b906157e1565b0491510151906133a2565b9050615c1b565b602484634e487b7160e01b81526011600452fd5b916137e96137e38461448e565b92615b32565b808303926000809212818512811691851390151617612e6f57610160840161381f610360825160806060820151910151906133a2565b828186039112858212811690868313901516176139dd576138559190838113156139ca57620f42406137b061378c608093615c1b565b61385e84615b8d565b156139c35761388a608086519601918251958481136000146139b95761388390615c1b565b86886148d7565b92825b85518110156138fd57806138ae6138a86138e8938a51613715565b51614c1b565b602091826138bc858b613715565b51015190808211156138f55750905b808210156138ed5750905b6138e08389613715565b510152612f1a565b61388d565b9050906138d6565b9050906138cb565b50919350919350825b82515181101561395c57806139286139216139329388613715565b5151615b8d565b1561393757612f1a565b613906565b613957613945828651613715565b516139508389613715565b51906139f1565b612f1a565b50915b8151518110156134d9578061397a6139216139909387613715565b600281149081156139ae575b5061399557612f1a565b61395f565b6139576139a3828551613715565b516139508388613715565b600191501438613986565b5061388384615c1b565b5050915050565b506080620f42406137b061378c86615c1b565b602483634e487b7160e01b81526011600452fd5b6001600160a01b0390511660208201519151813b15610167576040519263123dd9c560e31b845230600485015260248401528260c48160008095819582604485015282606485015260848401528160a48401525af1908115613a605750613a555750565b613a5e906123cf565b565b604051903d90823e3d90fd5b90816101e09103126101675760405190613a858261251c565b805182526020810151602083015260408101516040830152606081015160608301526080810151608083015260a081015160a083015260c081015160c083015260e081015160e0830152610100808201519083015261012080820151908301526101408082015190830152610160613afe818301612f29565b90830152610180613b10818301612f29565b908301526101a0613b22818301612f29565b90830152613b346101c0809201612f29565b9082015290565b908160e09103126101675760c060405191613b55836124aa565b8051835260208101516020840152604081015160408401526060810151606084015260808101516080840152613b8d60a08201612f06565b60a0840152015160c082015290565b60405190613ba9826124e2565b604051613bb5816123e3565b606090818152835260006020840152600060408401526000818401528060808401528060a0840152604051613be9816123e3565b81815260c084015260405190613bfe826123e3565b815260e0830152610100820191604051613c17816123e3565b600081528352613c25612d98565b610120820152610140810190613c39612d98565b8252613c43612d66565b610160820152613c51612d66565b6101808201528093613c61615974565b905260c081015160035490613c7582615603565b905260e0820151613c8582615603565b9052613c908161255b565b613c9d6040519182612539565b818152601f19613cac8361255b565b0160005b818110613e895750506080830152613cc78161255b565b613cd46040519182612539565b818152601f19613ce38361255b565b0136602083013760a083015260005b818110613d365750506101606020916000805260058352613d166040600020614d51565b918291015201516000526006602052613d32604060002061529e565b9052565b806000526004602052613d4c60406000206157f4565b9060046101e06001600160a01b038451166040519283809263ad4d4e2960e01b82525afa80156109c557602493613dce6001600160a01b039260e094600091613e68575b50613da58660808b015185610ad28383613715565b50613db8602084015160408b01516133a2565b60408a015261014060208a0151910151906133a2565b6020880152511660405193848092635b4b969560e01b82523060048301525afa9182156109c557613e4492604091600091613e49575b5060e0860151613e1a8460208401519251613715565b5260c0860151613e2d8483519251613715565b520151613e3e8260a0870151613715565b52612f1a565b613cf2565b613e62915060e03d60e011610c6d57610c5f8183612539565b38613e04565b613e8391506101e03d6101e011610e1857610e0a8183612539565b38613d90565b602090613e94612d47565b82828601015201613cb0565b9060405191613eae836124e2565b604051613eba816123e3565b606090818152845260006020850152600060408501526000818501528060808501528060a0850152604051613eee816123e3565b81815260c085015260405190613f03826123e3565b815260e0840152610100830192604051613f1c816123e3565b600081528452613f2a612d98565b610120820152610140810191613f3e612d98565b8352613f48612d66565b610160830152613f56612d66565b6101808301528194613f66615974565b905260c082015160035490613f7a82615603565b905260e0830151613f8a82615603565b9052613f958161255b565b613fa26040519182612539565b818152601f19613fb18361255b565b0160005b8181106141995750506080840152613fcc8161255b565b613fd96040519182612539565b818152601f19613fe88361255b565b0136602083013760a084015260005b81811061404c5750506020916001600160a01b0361016092168061402c575b506000805260058352613d166040600020614d51565b600052600583526140406040600020614d51565b61018082015238614016565b80600052600460205261406260406000206157f4565b9060046101e06001600160a01b038451166040519283809263ad4d4e2960e01b82525afa80156109c5576024936140e46001600160a01b039260e094600091614178575b506140bb8660808c015185610ad28383613715565b506140ce602084015160408c01516133a2565b60408b015261014060208b0151910151906133a2565b6020890152511660405193848092635b4b969560e01b82523060048301525afa9182156109c55761415492604091600091614159575b5060e08701516141308460208401519251613715565b5260c08701516141438483519251613715565b520151613e3e8260a0880151613715565b613ff7565b614172915060e03d60e011610c6d57610c5f8183612539565b3861411a565b61419391506101e03d6101e011610e1857610e0a8183612539565b386140a6565b6020906141a4612d47565b82828601015201613fb5565b600080526005602052610160810151613a5e91906141ee907f05b8ccbb9d4d8fb16ea74ce3c29a41f1b461fbdaff4714a0d9a8eb05499746bc614df7565b6060810151600052600660205261012060406000209101519061536c565b6001600160a01b03613a5e921680614259575b506000805260056020526101608101516141ee907f05b8ccbb9d4d8fb16ea74ce3c29a41f1b461fbdaff4714a0d9a8eb05499746bc614df7565b6000526005602052614275604060002061018083015190614df7565b3861421f565b61428961014082015161526a565b6142d557612f03906101006142c26142b26142a2612dd0565b6000808213156137bb5750615c1b565b60806101608501510151906133a2565b9101515190818110156109765790615c57565b50600090565b6101408101916142eb835161526a565b61448657815191608080820151916040808201519061430c6142a28461448e565b9561431c6000199780888b6148d7565b936000975b895180518a1015614437578961433691613715565b516143418a8a613715565b5160209182820192835115801561442c575b801561440e575b614400579061439b8a8e949361438861437285614c1b565b50968261437f8286613715565b51015193613715565b5101518086101561092457508490615c57565b921561440057886143d36143db946111b36143ec9897958c60c06111b39701516000808212156000146143f95750915b0151926157e1565b9251926157e1565b90808210156143f257505b98612f1a565b97614321565b90506143e6565b03916143cb565b50505050976143ec90612f1a565b50808b830151015115801561435a575080606083015101511561435a565b508783015115614353565b509650975097935094505050600161444e83615ca4565b03614472575050610180600019925b015101518082101561446d575090565b905090565b6101809161448091516150f9565b9261445d565b915050600090565b9060016144b364e8d4a510006144ad6001600160a01b03845416615cf4565b04615b32565b928160009182935b6144c6575b50505050565b90919294608082015151861015614510576144e58660a0840151613715565b51908482820192831291129080158216911516176137c2576145079095612f1a565b929190816144bb565b946144c0565b8091039061016082126101675760606040519261453284612471565b82518452602083015160208501526040830151604085015281830151828501526080830151608085015260a083015160a085015260c083015160c085015260e083015160e085015260ff19011261016757604051906145908261248e565b6101406101009182810151845261012081015160208501520151604083015282015290565b9190600092600093848093815260076020526040926145d584832061573d565b9682955b885151871015614707576080916001600160a01b036145fb8985870151613715565b5151169585898c51805182106146f5575b5050885163ce813aed60e01b8152306004808301919091526024820192909252610160988990829060449082905afa9889156146eb5788996146cc575b505060c0880151918783820193841291129080158216911516176146b957509160a061469261469b936146a195968a01518981136000146146b2575b8981126146aa57906133a2565b970151906133a2565b96612f1a565b959390936145d9565b8903906133a2565b5088614685565b866011602492634e487b7160e01b835252fd5b6146e3929950803d106109be576109b08183612539565b963880614649565b8a513d8a823e3d90fd5b6146ff9250613715565b51893861460c565b955095935050509350565b6040519061471f82612471565b8160008082528060208301528060408301528060608301528060808301528060a08301528060c083015260e082015261010061297f612d47565b6040908151614767816124ff565b80928051916147758361251c565b6000838194938280955282602083015282818301528260608301528260808301528260a08301528260c08301528260e083015261010091838382015261012095818188809401526101408281830152610160838184015283610180918183860152816101a09481868801526101c09682888201528d52818a51996147f88b61241b565b818b528160208c0152818c8c01528160608c01528160808c01528160a08c01528160c08c01528160e08c0152818d8c01528a015288015286015285519061483e82612438565b8482528460208301528487830152846060830152850152845190614861826123ff565b838252836020830152840152820152836101e08201528361020082015283610220820152836102408201526020850152614899612d98565b908401526148a5614712565b60608401526148b2614712565b60808401526148bf614712565b60a08401528160c08401528160e08401528201520152565b93929193608060a05260a051526148ec612d98565b9060a05151519260009560009384975b8451891015614938576143e661492461493192602061491b8d8a613715565b510151906133a2565b9660e061491b8c8b613715565b97946148fc565b969193955091965061495860a083019460c0840197818952865284615ce3565b15614bf1579484519161496a8361255b565b9460409361497a85519788612539565b808752614989601f199161255b565b0160005b818110614bc757505085986000936020968785019b60a0518601965b8b51811015614bb8576149f18a6107db8e6111b360e06149cd8760a0515151613715565b510151936149e6876149e08c518c615c57565b94613715565b5101518b51926157e1565b8752610120614a048260a0515151613715565b5101518c828c88841015614ba357614a276111b3926149e0614a32965b8c615c57565b5101518951926157e1565b87519062124f8091828102928184041490151715610b3e578f91614ab2928f92620f4240809304808210600014614b9b5750905b52614aab8d8d614a8d876101c084614a828360a0515151613715565b510151015196613715565b5101519080614aa08860a0515151613715565b5101510151906157e1565b0490615c83565b88528d6101a0614ac68360a0515151613715565b5151015115801590614b87575b614b7d575b50614ae38751615b32565b908980614af48360a0515151613715565b51015101519160008382039312818412811691841390151617610b3e57614b71918f614b528f8f928e614b2c876111b3935194613715565b51015160c0614b3f8860a0515151613715565b5101516000808212614b765750926157e1565b8d614b6885614b618186613715565b5194613715565b51015252612f1a565b6149a9565b03926157e1565b600090528d614ad8565b50614b9581518a5190615ce3565b15614ad3565b905090614a66565b614a329350614a276111b3926149e08b614a21565b509b5050505050505050505050565b602090869a959a51614bd8816123ff565b6000815282600081830152828b0101520198939861498d565b60046040517f9c8507ac000000000000000000000000000000000000000000000000000000008152fd5b9060608201916020808451015160a083019182519181830151614c4e6060614c466040870151615b32565b950151615b32565b6000948181039186138015828413169183121617614cf7578380614cc487958c83614ca1612f039d9c9a9860e0986107db9d508b811215600014614cf0575b8c5184015180821015614ce1575090615c57565b9151015180821015614ce957505b6101008b015180821015614ce1575090615c57565b9a5101519601510151925101519050818110156109765790615c57565b905090615c57565b9050614caf565b8b03614c8d565b602485634e487b7160e01b81526011600452fd5b949291908552614d2060608601918251615c57565b91614d3060408701918251615c57565b90525261369960a0614d47608086019485516133a2565b94019182516133a2565b614d59612d66565b5060c0604051614d68816124aa565b8254600163ffffffff9467ffffffffffffffff19868416968786528460201c169384602087015216604085015201549167ffffffffffffffff9182841691826060820152838560401c16938460808301528560801c16948560a0830152861c958691015260405195614dd9876124c6565b8652602086015260408501526060840152608083015260a082015290565b919063ffffffff90818151116150105760208101938285511161501057604094858301916002614e278451615cb1565b146150005760608401916002614e3d8451615cb1565b14614ff05760808501936002614e538651615cb1565b14614fe05760a08601956002614e698851615cb1565b14614fd05792614f3f94926000999a60c06001948b614f889b9a98511693519c8d9367ffffffffffffffff8080809551169a51169a51169b519d815195614eaf876124aa565b8787521660208601528401528660608401528760808401528960a08401528b1691015267ffffffff0000000082549a8263ffffffff198d1617845560201b16808267ffffffffffffffff19809d1617178355178155019687541617865585906fffffffffffffffff0000000000000000196fffffffffffffffff000000000000000083549260401b169116179055565b83547fffffffffffffffff0000000000000000ffffffffffffffffffffffffffffffff1660809190911b77ffffffffffffffff0000000000000000000000000000000016178355565b77ffffffffffffffffffffffffffffffffffffffffffffffff7fffffffffffffffff00000000000000000000000000000000000000000000000083549260c01b169116179055565b60048a5163b8a0949960e01b8152fd5b6004895163b8a0949960e01b8152fd5b6004885163b8a0949960e01b8152fd5b6004875163b8a0949960e01b8152fd5b600460405163b8a0949960e01b8152fd5b60408101511561507d576150386060820151615b8d565b8015908115615072575b506000901561505057505090565b5060a0810151612f039261506c91818110156109765790615c57565b90615147565b600191501438615042565b5090565b60a0612f03926040830151156000146150a657915b0151818110156109765790615c57565b6150b0908361517d565b91615096565b60408101511561507d576150cd6060820151615b8d565b80159081156150ee575b50156150e1575090565b61506c612f03928261521d565b6001915014386150d7565b60408101511561507d576151106060820151615b8d565b801590811561513c575b506000901561512857505090565b612f039261506c9181156109765790615c57565b60019150143861511a565b615177612f03926111b361516b606085015160008082136000146137bb5750615c1b565b916040850151906157e1565b906151ac565b615177612f03926111b36151a1606085015160008082136000146137bb5750615c1b565b6040850151926157e1565b6151e36151c9606083015160008082136000146137bb5750615c1b565b6107db8351916111b36020860151916040870151926157e1565b90600090826151f25750505090565b60800151612f03936111b392509083811015615213576137aa905b84615c57565b506137aa8361520d565b60c0810151906000908261524257505050612f03906000818110156109765790615c57565b60a0015190620f424080840293840403612e6f5750612f03929161526591615c64565b611249565b60408101511515908161527b575090565b615289915060600151615b8d565b8015908115615296575090565b600191501490565b6152a6612d98565b50604080516152b481612454565b82549267ffffffffffffffff90818516948584528281861c16948560208601526001848360801c1692838388015260c01d60070b938460608801520154958487169485608088015287831c16958660a082015260e07fffffffffffffffffffffffff000000000000000000000000000000000000000063ffffffff8a60801c16998a60c08501521691015281519761534b896124aa565b885260208801528601526060850152608084015260a083015260c082015290565b906002918261537b8351615cb1565b146155f2576020820192806153908551615cb1565b146155f257604091828401826153a68251615cb1565b146155e25760608501836153ba8251615bac565b146155d2576153c98151615bce565b156155d2576080860191846153de8451615cb1565b146155c25760c087019563ffffffff97888851116155b25760a08101966154058851615cb1565b146155b25767ffffffffffffffff808080809451169c511694511694519551169651169651978382519261543884612454565b8b84528460208501528301528460070b60608301528660808301528760a0830152881660c082015260e0016000905267ffffffffffffffff1997888554161784556154b09084906fffffffffffffffff0000000000000000196fffffffffffffffff000000000000000083549260401b169116179055565b82547fffffffffffffffff0000000000000000ffffffffffffffffffffffffffffffff1660809190911b77ffffffffffffffff000000000000000000000000000000001617825581549060c01b7fffffffffffffffff000000000000000000000000000000000000000000000000169077ffffffffffffffffffffffffffffffffffffffffffffffff161781556001019384541617835561557e9083906fffffffffffffffff0000000000000000196fffffffffffffffff000000000000000083549260401b169116179055565b81549060801b73ffffffff0000000000000000000000000000000016906fffffffffffffffffffffffffffffffff16179055565b60048251635d4288b560e11b8152fd5b60048651635d4288b560e11b8152fd5b60048551635d4288b560e11b8152fd5b60048451635d4288b560e11b8152fd5b6004604051635d4288b560e11b8152fd5b9061560d8261255b565b61561a6040519182612539565b828152809261562b601f199161255b565b0190602036910137565b9060005b8151518110156156a557600081845180518210615693575b50506000908284518051821061567f575b5050116156775761567290612f1a565b615639565b505050600090565b61568a929350613715565b51908238615662565b61569d9250613715565b518138615651565b505050600190565b60005b825180518210908115615713578290600092615701575b5050600090828451805182106156ed575b5050116156a5576156e890612f1a565b6156b0565b6156f8929350613715565b519082386156d8565b61570b9250613715565b5181386156c7565b5050505050600090565b8115615727570490565b634e487b7160e01b600052601260045260246000fd5b60406060815161574c816123e3565b52600080805260209083825263ffffffff918284832054169161576e83615603565b95815b84811061578e575050505050505190615789826123e3565b815290565b60078082048452828552878420818306918210156157cd57600382901c01600101546157c8929160051b60e0161c8716613e3e828b613715565b615771565b602485634e487b7160e01b81526032600452fd5b81810292918115918404141715610b3e57565b6157fc612d47565b506040519061580a82612438565b546001600160a01b0381169182815263ffffffff9060607fffffffff00000000000000000000000000000000000000000000000000000000838560a01c16938460208501528560c01c1694856040850152169101526040519261586c8461248e565b83526020830152604082015290565b90602081019063ffffffff918281511161594a5760408201600261589f8251615ccc565b1461594a577fffffffff0000000000000000000000000000000000000000000000000000000093600060606001600160a01b037bffffffff00000000000000000000000000000000000000000000000096511694519351926040519061590482612438565b868252808616602083015284166040820152015260c01b9290921677ffffffff000000000000000000000000000000000000000060a09390931b92909216171790915550565b60046040517f92f03c86000000000000000000000000000000000000000000000000000000008152fd5b6000604051615982816123e3565b5260405161598f816123ff565b60025490602067ffffffffffffffff1967ffffffffffffffff8416938484521691015260405190615789826123e3565b906101008091015190820151916159d4612d47565b918051845190818103906000809312818312811691831390151617612e83578452602082015191602086015192828482039412818512811691851390151617612e83576040809160208701948552015195015194818682039612818712811691871390151617612e6f57604084019485526020830193615a548551615b32565b905190828282019283129112908015821691151617612e8357615a7690615c1b565b946040840192615a868451615b32565b9051908382820192831291129080158216911516176139dd57615aaa606091615c1b565b940191615ab78351615b32565b915191818382019384129112908015821691151617612e6f5750615ada90615c1b565b90525252565b918215615b29576020615b14920151600080821215600014615b225750925b615b0e620f42409485926157e1565b046157e1565b04908082111561446d575090565b0392615aff565b50505050600090565b7f7fffffffffffffffffffffffffffffffffffffffffffffffffffffffffffffff8111615b5c5790565b602490604051907feecaa25d0000000000000000000000000000000000000000000000000000000082526004820152fd5b60008113615ba657600013615ba157600190565b600090565b50600290565b677fffffffffffffff90818113615bc75712615ba157600190565b5050600290565b7fffffffffffffffffffffffffffffffffffffffffffffffff800000000000000090818113615bc75712615ba157600190565b64e8d4a5100090818102918183041490151715610b3e5790565b60008112615c265790565b602490604051907fb02ef0870000000000000000000000000000000000000000000000000000000082526004820152fd5b91908203918211610b3e57565b90620f424091828102928184041490151715610b3e57612f039161571d565b9080615c9b5750615c9557620f424090565b60001990565b612f0391615c64565b60001911615ba157600190565b67ffffffffffffffff90818111615bc75710615ba157600190565b63ffffffff90818111615bc75710615ba157600190565b818111615bc75710615ba157600190565b60206001600160a01b03916024604051809481937f70a08231000000000000000000000000000000000000000000000000000000008352306004840152165afa9081156109c557600091615d46575090565b906020823d8211615d6c575b81615d5f60209383612539565b810103126131ae57505190565b3d9150615d52565b6001600160a01b031690604051615d8a816123ff565b6020928382527f5361666545524332303a206c6f772d6c6576656c2063616c6c206661696c6564848301526000808486829651910182855af13d15615eb5573d9167ffffffffffffffff8311615ea15790615e0593929160405192615df888601f19601f8401160185612539565b83523d868885013e615ebf565b90815180615e135750505050565b828491810103126131ae575081615e2a9101612f29565b15615e37578080806144c0565b6084906040519062461bcd60e51b82526004820152602a60248201527f5361666545524332303a204552433230206f7065726174696f6e20646964206e60448201527f6f742073756363656564000000000000000000000000000000000000000000006064820152fd5b602485634e487b7160e01b81526041600452fd5b90615e0592916060915b91929015615f205750815115615ed3575090565b3b15615edc5790565b606460405162461bcd60e51b815260206004820152601d60248201527f416464726573733a2063616c6c20746f206e6f6e2d636f6e74726163740000006044820152fd5b825190915015615f335750805190602001fd5b615f4f9060405191829162461bcd60e51b83526004830161235c565b0390fdfea264697066735822122039a7dcb01ce40d4203fde4c337dbb748ed2d7a432d8b03f7a240ad236b46346164736f6c63430008130033"
}