{
  "address": "0x9d2CaE012AAe0aE00f4d8F42CD287a6923612456",
  "abi": [
    {
      "inputs": [],
      "name": "AccountStorageInvalidError",
      "type": "error"
    },
    {
      "inputs": [],
      "name": "AccountStorageInvalidError",
      "type": "error"
    },
    {
      "inputs": [],
      "name": "CheckpointStorageInvalidError",
      "type": "error"
    },
    {
      "inputs": [],
      "name": "CheckpointStorageInvalidError",
      "type": "error"
    },
    {
      "inputs": [],
      "name": "DivisionByZero",
      "type": "error"
    },
    {
      "inputs": [
        {
          "internalType": "uint256",
          "name": "value",
          "type": "uint256"
        }
      ],
      "name": "Fixed6OverflowError",
      "type": "error"
    },
    {
      "inputs": [
        {
          "internalType": "uint256",
          "name": "version",
          "type": "uint256"
        }
      ],
      "name": "InitializableAlreadyInitializedError",
      "type": "error"
    },
    {
      "inputs": [],
      "name": "InitializableNotInitializingError",
      "type": "error"
    },
    {
      "inputs": [],
      "name": "InitializableZeroVersionError",
      "type": "error"
    },
    {
      "inputs": [
        {
          "internalType": "address",
          "name": "sender",
          "type": "address"
        }
      ],
      "name": "InstanceNotFactoryError",
      "type": "error"
    },
    {
      "inputs": [
        {
          "internalType": "address",
          "name": "sender",
          "type": "address"
        }
      ],
      "name": "InstanceNotOwnerError",
      "type": "error"
    },
    {
      "inputs": [],
      "name": "InstancePausedError",
      "type": "error"
    },
    {
      "inputs": [],
      "name": "MakerStrategyInsufficientAssetsError",
      "type": "error"
    },
    {
      "inputs": [],
      "name": "MakerStrategyInsufficientAssetsError",
      "type": "error"
    },
    {
      "inputs": [],
      "name": "MakerStrategyInsufficientCollateralError",
      "type": "error"
    },
    {
      "inputs": [],
      "name": "MakerStrategyInsufficientCollateralError",
      "type": "error"
    },
    {
      "inputs": [],
      "name": "MappingStorageInvalidError",
      "type": "error"
    },
    {
      "inputs": [],
      "name": "RegistrationStorageInvalidError",
      "type": "error"
    },
    {
      "inputs": [],
      "name": "RegistrationStorageInvalidError",
      "type": "error"
    },
    {
      "inputs": [
        {
          "internalType": "int256",
          "name": "value",
          "type": "int256"
        }
      ],
      "name": "UFixed6UnderflowError",
      "type": "error"
    },
    {
      "inputs": [],
      "name": "VaultAggregateWeightError",
      "type": "error"
    },
    {
      "inputs": [],
      "name": "VaultCurrentOutOfSyncError",
      "type": "error"
    },
    {
      "inputs": [],
      "name": "VaultDepositLimitExceededError",
      "type": "error"
    },
    {
      "inputs": [],
      "name": "VaultExistingOrderError",
      "type": "error"
    },
    {
      "inputs": [],
      "name": "VaultIncorrectAssetError",
      "type": "error"
    },
    {
      "inputs": [],
      "name": "VaultInsufficientMinimumError",
      "type": "error"
    },
    {
      "inputs": [],
      "name": "VaultMarketDoesNotExistError",
      "type": "error"
    },
    {
      "inputs": [],
      "name": "VaultMarketExistsError",
      "type": "error"
    },
    {
      "inputs": [],
      "name": "VaultNotMarketError",
      "type": "error"
    },
    {
      "inputs": [],
      "name": "VaultNotOperatorError",
      "type": "error"
    },
    {
      "inputs": [],
      "name": "VaultNotSingleSidedError",
      "type": "error"
    },
    {
      "inputs": [],
      "name": "VaultParameterStorageInvalidError",
      "type": "error"
    },
    {
      "inputs": [],
      "name": "VaultParameterStorageInvalidError",
      "type": "error"
    },
    {
      "inputs": [],
      "name": "VaultRedemptionLimitExceededError",
      "type": "error"
    },
    {
      "anonymous": false,
      "inputs": [
        {
          "indexed": true,
          "internalType": "address",
          "name": "newCoordinator",
          "type": "address"
        }
      ],
      "name": "CoordinatorUpdated",
      "type": "event"
    },
    {
      "anonymous": false,
      "inputs": [
        {
          "indexed": false,
          "internalType": "uint256",
          "name": "version",
          "type": "uint256"
        }
      ],
      "name": "Initialized",
      "type": "event"
    },
    {
      "anonymous": false,
      "inputs": [
        {
          "indexed": false,
          "internalType": "UFixed18",
          "name": "newMark",
          "type": "uint256"
        },
        {
          "indexed": false,
          "internalType": "UFixed6",
          "name": "profitShares",
          "type": "uint256"
        }
      ],
      "name": "MarkUpdated",
      "type": "event"
    },
    {
      "anonymous": false,
      "inputs": [
        {
          "indexed": true,
          "internalType": "uint256",
          "name": "marketId",
          "type": "uint256"
        },
        {
          "indexed": false,
          "internalType": "contract IMarket",
          "name": "market",
          "type": "address"
        }
      ],
      "name": "MarketRegistered",
      "type": "event"
    },
    {
      "anonymous": false,
      "inputs": [
        {
          "indexed": true,
          "internalType": "uint256",
          "name": "marketId",
          "type": "uint256"
        },
        {
          "indexed": false,
          "internalType": "UFixed6",
          "name": "newWeight",
          "type": "uint256"
        },
        {
          "indexed": false,
          "internalType": "UFixed6",
          "name": "newLeverage",
          "type": "uint256"
        }
      ],
      "name": "MarketUpdated",
      "type": "event"
    },
    {
      "anonymous": false,
      "inputs": [
        {
          "components": [
            {
              "internalType": "UFixed6",
              "name": "maxDeposit",
              "type": "uint256"
            },
            {
              "internalType": "UFixed6",
              "name": "minDeposit",
              "type": "uint256"
            },
            {
              "internalType": "UFixed6",
              "name": "profitShare",
              "type": "uint256"
            }
          ],
          "indexed": false,
          "internalType": "struct VaultParameter",
          "name": "newParameter",
          "type": "tuple"
        }
      ],
      "name": "ParameterUpdated",
      "type": "event"
    },
    {
      "anonymous": false,
      "inputs": [
        {
          "indexed": true,
          "internalType": "address",
          "name": "sender",
          "type": "address"
        },
        {
          "indexed": true,
          "internalType": "address",
          "name": "account",
          "type": "address"
        },
        {
          "indexed": false,
          "internalType": "uint256",
          "name": "version",
          "type": "uint256"
        },
        {
          "indexed": false,
          "internalType": "UFixed6",
          "name": "depositAssets",
          "type": "uint256"
        },
        {
          "indexed": false,
          "internalType": "UFixed6",
          "name": "redeemShares",
          "type": "uint256"
        },
        {
          "indexed": false,
          "internalType": "UFixed6",
          "name": "claimAssets",
          "type": "uint256"
        }
      ],
      "name": "Updated",
      "type": "event"
    },
    {
      "inputs": [
        {
          "components": [
            {
              "internalType": "uint256",
              "name": "currentId",
              "type": "uint256"
            },
            {
              "internalType": "uint256",
              "name": "currentTimestamp",
              "type": "uint256"
            },
            {
              "internalType": "uint256",
              "name": "latestTimestamp",
              "type": "uint256"
            },
            {
              "components": [
                {
                  "internalType": "contract IMarket",
                  "name": "market",
                  "type": "address"
                },
                {
                  "internalType": "UFixed6",
                  "name": "weight",
                  "type": "uint256"
                },
                {
                  "internalType": "UFixed6",
                  "name": "leverage",
                  "type": "uint256"
                }
              ],
              "internalType": "struct Registration[]",
              "name": "registrations",
              "type": "tuple[]"
            },
            {
              "internalType": "Fixed6[]",
              "name": "collaterals",
              "type": "int256[]"
            },
            {
              "internalType": "Fixed6",
              "name": "totalCollateral",
              "type": "int256"
            },
            {
              "components": [
                {
                  "internalType": "UFixed6",
                  "name": "maxDeposit",
                  "type": "uint256"
                },
                {
                  "internalType": "UFixed6",
                  "name": "minDeposit",
                  "type": "uint256"
                },
                {
                  "internalType": "UFixed6",
                  "name": "profitShare",
                  "type": "uint256"
                }
              ],
              "internalType": "struct VaultParameter",
              "name": "parameter",
              "type": "tuple"
            },
            {
              "components": [
                {
                  "internalType": "UFixed6",
                  "name": "deposit",
                  "type": "uint256"
                },
                {
                  "internalType": "UFixed6",
                  "name": "redemption",
                  "type": "uint256"
                },
                {
                  "internalType": "UFixed6",
                  "name": "shares",
                  "type": "uint256"
                },
                {
                  "internalType": "Fixed6",
                  "name": "assets",
                  "type": "int256"
                },
                {
                  "internalType": "Fixed6",
                  "name": "tradeFee",
                  "type": "int256"
                },
                {
                  "internalType": "UFixed6",
                  "name": "settlementFee",
                  "type": "uint256"
                },
                {
                  "internalType": "uint256",
                  "name": "deposits",
                  "type": "uint256"
                },
                {
                  "internalType": "uint256",
                  "name": "redemptions",
                  "type": "uint256"
                },
                {
                  "internalType": "uint256",
                  "name": "timestamp",
                  "type": "uint256"
                }
              ],
              "internalType": "struct Checkpoint",
              "name": "currentCheckpoint",
              "type": "tuple"
            },
            {
              "components": [
                {
                  "internalType": "UFixed6",
                  "name": "deposit",
                  "type": "uint256"
                },
                {
                  "internalType": "UFixed6",
                  "name": "redemption",
                  "type": "uint256"
                },
                {
                  "internalType": "UFixed6",
                  "name": "shares",
                  "type": "uint256"
                },
                {
                  "internalType": "Fixed6",
                  "name": "assets",
                  "type": "int256"
                },
                {
                  "internalType": "Fixed6",
                  "name": "tradeFee",
                  "type": "int256"
                },
                {
                  "internalType": "UFixed6",
                  "name": "settlementFee",
                  "type": "uint256"
                },
                {
                  "internalType": "uint256",
                  "name": "deposits",
                  "type": "uint256"
                },
                {
                  "internalType": "uint256",
                  "name": "redemptions",
                  "type": "uint256"
                },
                {
                  "internalType": "uint256",
                  "name": "timestamp",
                  "type": "uint256"
                }
              ],
              "internalType": "struct Checkpoint",
              "name": "latestCheckpoint",
              "type": "tuple"
            },
            {
              "internalType": "UFixed18",
              "name": "mark",
              "type": "uint256"
            },
            {
              "components": [
                {
                  "internalType": "uint256",
                  "name": "current",
                  "type": "uint256"
                },
                {
                  "internalType": "uint256",
                  "name": "latest",
                  "type": "uint256"
                },
                {
                  "internalType": "UFixed6",
                  "name": "shares",
                  "type": "uint256"
                },
                {
                  "internalType": "UFixed6",
                  "name": "assets",
                  "type": "uint256"
                },
                {
                  "internalType": "UFixed6",
                  "name": "deposit",
                  "type": "uint256"
                },
                {
                  "internalType": "UFixed6",
                  "name": "redemption",
                  "type": "uint256"
                }
              ],
              "internalType": "struct Account",
              "name": "global",
              "type": "tuple"
            },
            {
              "components": [
                {
                  "internalType": "uint256",
                  "name": "current",
                  "type": "uint256"
                },
                {
                  "internalType": "uint256",
                  "name": "latest",
                  "type": "uint256"
                },
                {
                  "internalType": "UFixed6",
                  "name": "shares",
                  "type": "uint256"
                },
                {
                  "internalType": "UFixed6",
                  "name": "assets",
                  "type": "uint256"
                },
                {
                  "internalType": "UFixed6",
                  "name": "deposit",
                  "type": "uint256"
                },
                {
                  "internalType": "UFixed6",
                  "name": "redemption",
                  "type": "uint256"
                }
              ],
              "internalType": "struct Account",
              "name": "local",
              "type": "tuple"
            }
          ],
          "internalType": "struct IVault.Context",
          "name": "context",
          "type": "tuple"
        },
        {
          "internalType": "uint256",
          "name": "timestamp",
          "type": "uint256"
        }
      ],
      "name": "_checkpointAtId",
      "outputs": [
        {
          "components": [
            {
              "internalType": "Fixed6",
              "name": "tradeFee",
              "type": "int256"
            },
            {
              "internalType": "UFixed6",
              "name": "settlementFee",
              "type": "uint256"
            },
            {
              "internalType": "Fixed6",
              "name": "transfer",
              "type": "int256"
            },
            {
              "internalType": "Fixed6",
              "name": "collateral",
              "type": "int256"
            }
          ],
          "internalType": "struct Checkpoint",
          "name": "checkpoint",
          "type": "tuple"
        }
      ],
      "stateMutability": "view",
      "type": "function"
    },
    {
      "inputs": [
        {
          "internalType": "address",
          "name": "account",
          "type": "address"
        }
      ],
      "name": "accounts",
      "outputs": [
        {
          "components": [
            {
              "internalType": "uint256",
              "name": "current",
              "type": "uint256"
            },
            {
              "internalType": "uint256",
              "name": "latest",
              "type": "uint256"
            },
            {
              "internalType": "UFixed6",
              "name": "shares",
              "type": "uint256"
            },
            {
              "internalType": "UFixed6",
              "name": "assets",
              "type": "uint256"
            },
            {
              "internalType": "UFixed6",
              "name": "deposit",
              "type": "uint256"
            },
            {
              "internalType": "UFixed6",
              "name": "redemption",
              "type": "uint256"
            }
          ],
          "internalType": "struct Account",
          "name": "",
          "type": "tuple"
        }
      ],
      "stateMutability": "view",
      "type": "function"
    },
    {
      "inputs": [],
      "name": "asset",
      "outputs": [
        {
          "internalType": "Token18",
          "name": "",
          "type": "address"
        }
      ],
      "stateMutability": "view",
      "type": "function"
    },
    {
      "inputs": [
        {
          "internalType": "uint256",
          "name": "id",
          "type": "uint256"
        }
      ],
      "name": "checkpoints",
      "outputs": [
        {
          "components": [
            {
              "internalType": "UFixed6",
              "name": "deposit",
              "type": "uint256"
            },
            {
              "internalType": "UFixed6",
              "name": "redemption",
              "type": "uint256"
            },
            {
              "internalType": "UFixed6",
              "name": "shares",
              "type": "uint256"
            },
            {
              "internalType": "Fixed6",
              "name": "assets",
              "type": "int256"
            },
            {
              "internalType": "Fixed6",
              "name": "tradeFee",
              "type": "int256"
            },
            {
              "internalType": "UFixed6",
              "name": "settlementFee",
              "type": "uint256"
            },
            {
              "internalType": "uint256",
              "name": "deposits",
              "type": "uint256"
            },
            {
              "internalType": "uint256",
              "name": "redemptions",
              "type": "uint256"
            },
            {
              "internalType": "uint256",
              "name": "timestamp",
              "type": "uint256"
            }
          ],
          "internalType": "struct Checkpoint",
          "name": "",
          "type": "tuple"
        }
      ],
      "stateMutability": "view",
      "type": "function"
    },
    {
      "inputs": [
        {
          "internalType": "UFixed6",
          "name": "shares",
          "type": "uint256"
        }
      ],
      "name": "convertToAssets",
      "outputs": [
        {
          "internalType": "UFixed6",
          "name": "",
          "type": "uint256"
        }
      ],
      "stateMutability": "view",
      "type": "function"
    },
    {
      "inputs": [
        {
          "internalType": "UFixed6",
          "name": "assets",
          "type": "uint256"
        }
      ],
      "name": "convertToShares",
      "outputs": [
        {
          "internalType": "UFixed6",
          "name": "",
          "type": "uint256"
        }
      ],
      "stateMutability": "view",
      "type": "function"
    },
    {
      "inputs": [],
      "name": "coordinator",
      "outputs": [
        {
          "internalType": "address",
          "name": "",
          "type": "address"
        }
      ],
      "stateMutability": "view",
      "type": "function"
    },
    {
      "inputs": [],
      "name": "factory",
      "outputs": [
        {
          "internalType": "contract IFactory",
          "name": "",
          "type": "address"
        }
      ],
      "stateMutability": "view",
      "type": "function"
    },
    {
      "inputs": [
        {
          "internalType": "Token18",
          "name": "asset_",
          "type": "address"
        },
        {
          "internalType": "contract IMarket",
          "name": "initialMarket",
          "type": "address"
        },
        {
          "internalType": "UFixed6",
          "name": "initialDeposit",
          "type": "uint256"
        },
        {
          "internalType": "string",
          "name": "name_",
          "type": "string"
        }
      ],
      "name": "initialize",
      "outputs": [],
      "stateMutability": "nonpayable",
      "type": "function"
    },
    {
      "inputs": [],
      "name": "mark",
      "outputs": [
        {
          "internalType": "UFixed18",
          "name": "",
          "type": "uint256"
        }
      ],
      "stateMutability": "view",
      "type": "function"
    },
    {
      "inputs": [],
      "name": "name",
      "outputs": [
        {
          "internalType": "string",
          "name": "",
          "type": "string"
        }
      ],
      "stateMutability": "view",
      "type": "function"
    },
    {
      "inputs": [],
      "name": "parameter",
      "outputs": [
        {
          "components": [
            {
              "internalType": "UFixed6",
              "name": "maxDeposit",
              "type": "uint256"
            },
            {
              "internalType": "UFixed6",
              "name": "minDeposit",
              "type": "uint256"
            },
            {
              "internalType": "UFixed6",
              "name": "profitShare",
              "type": "uint256"
            }
          ],
          "internalType": "struct VaultParameter",
          "name": "",
          "type": "tuple"
        }
      ],
      "stateMutability": "view",
      "type": "function"
    },
    {
      "inputs": [
        {
          "internalType": "address",
          "name": "account",
          "type": "address"
        }
      ],
      "name": "rebalance",
      "outputs": [],
      "stateMutability": "nonpayable",
      "type": "function"
    },
    {
      "inputs": [
        {
          "internalType": "contract IMarket",
          "name": "market",
          "type": "address"
        }
      ],
      "name": "register",
      "outputs": [],
      "stateMutability": "nonpayable",
      "type": "function"
    },
    {
      "inputs": [
        {
          "internalType": "uint256",
          "name": "marketId",
          "type": "uint256"
        }
      ],
      "name": "registrations",
      "outputs": [
        {
          "components": [
            {
              "internalType": "contract IMarket",
              "name": "market",
              "type": "address"
            },
            {
              "internalType": "UFixed6",
              "name": "weight",
              "type": "uint256"
            },
            {
              "internalType": "UFixed6",
              "name": "leverage",
              "type": "uint256"
            }
          ],
          "internalType": "struct Registration",
          "name": "",
          "type": "tuple"
        }
      ],
      "stateMutability": "view",
      "type": "function"
    },
    {
      "inputs": [
        {
          "internalType": "address",
          "name": "account",
          "type": "address"
        }
      ],
      "name": "settle",
      "outputs": [],
      "stateMutability": "nonpayable",
      "type": "function"
    },
    {
      "inputs": [],
      "name": "totalAssets",
      "outputs": [
        {
          "internalType": "Fixed6",
          "name": "",
          "type": "int256"
        }
      ],
      "stateMutability": "view",
      "type": "function"
    },
    {
      "inputs": [],
      "name": "totalMarkets",
      "outputs": [
        {
          "internalType": "uint256",
          "name": "",
          "type": "uint256"
        }
      ],
      "stateMutability": "view",
      "type": "function"
    },
    {
      "inputs": [],
      "name": "totalShares",
      "outputs": [
        {
          "internalType": "UFixed6",
          "name": "",
          "type": "uint256"
        }
      ],
      "stateMutability": "view",
      "type": "function"
    },
    {
      "inputs": [
        {
          "internalType": "address",
          "name": "account",
          "type": "address"
        },
        {
          "internalType": "UFixed6",
          "name": "depositAssets",
          "type": "uint256"
        },
        {
          "internalType": "UFixed6",
          "name": "redeemShares",
          "type": "uint256"
        },
        {
          "internalType": "UFixed6",
          "name": "claimAssets",
          "type": "uint256"
        }
      ],
      "name": "update",
      "outputs": [],
      "stateMutability": "nonpayable",
      "type": "function"
    },
    {
      "inputs": [
        {
          "internalType": "address",
          "name": "newCoordinator",
          "type": "address"
        }
      ],
      "name": "updateCoordinator",
      "outputs": [],
      "stateMutability": "nonpayable",
      "type": "function"
    },
    {
      "inputs": [
        {
          "internalType": "uint256",
          "name": "marketId",
          "type": "uint256"
        },
        {
          "internalType": "UFixed6",
          "name": "newLeverage",
          "type": "uint256"
        }
      ],
      "name": "updateLeverage",
      "outputs": [],
      "stateMutability": "nonpayable",
      "type": "function"
    },
    {
      "inputs": [
        {
          "components": [
            {
              "internalType": "UFixed6",
              "name": "maxDeposit",
              "type": "uint256"
            },
            {
              "internalType": "UFixed6",
              "name": "minDeposit",
              "type": "uint256"
            },
            {
              "internalType": "UFixed6",
              "name": "profitShare",
              "type": "uint256"
            }
          ],
          "internalType": "struct VaultParameter",
          "name": "newParameter",
          "type": "tuple"
        }
      ],
      "name": "updateParameter",
      "outputs": [],
      "stateMutability": "nonpayable",
      "type": "function"
    },
    {
      "inputs": [
        {
          "internalType": "UFixed6[]",
          "name": "newWeights",
          "type": "uint256[]"
        }
      ],
      "name": "updateWeights",
      "outputs": [],
      "stateMutability": "nonpayable",
      "type": "function"
    }
  ],
  "transactionHash": "0x9c9f4e947e95811084d0200e21fe8edc14e869ee47d80f6e172302359e55872c",
  "args": [],
  "numDeployments": 1,
  "solcInputHash": "8d417dcaa6d5a1449d8e41bf868438a1",
  "bytecode": "0x6080806040523461001757615e0990816200001c8239f35b5f80fdfe60806040526004361015610011575f80fd5b5f3560e01c806301e1d1141461214557806306fdde0314611f8c57806307a2d13a14611f355780630a00909714611ee4578063201c321214611c9457806321c2819114611b7857806330f916191461191757806338d52e0f146118c65780633a98ef391461188e5780634420e486146116cf57806358b7cf9e146115475780635e5c06e21461149e5780636a256b291461138e5780638162486b146113535780638c0d0c29146113185780639fec600b14610f57578063a24159d314610d63578063ad4d4e2914610cf7578063b8a2425214610c4b578063c45a015514610bdb578063c6e6f59214610b72578063d2c3aaf214610327578063f4ddb5be146102a55763f9f94e3414610121575f80fd5b3461028e5760207ffffffffffffffffffffffffffffffffffffffffffffffffffffffffffffffffc36011261028e5760043573ffffffffffffffffffffffffffffffffffffffff80821680920361028e5760046020827f0aec74a1754fb10877b53c31a29be82096082042eb1fb374ec96fac88c0e621b5416604051928380927f8da5cb5b0000000000000000000000000000000000000000000000000000000082525afa90811561029a575f9161025c575b5016330361022c57807fffffffffffffffffffffffff000000000000000000000000000000000000000060075416176007557fc258faa9a17ddfdf4130b4acff63a289202e7d5f9e42f366add65368575486bc5f80a2005b60246040517f4d193d1f000000000000000000000000000000000000000000000000000000008152336004820152fd5b90506020813d602011610292575b81610277602093836121e8565b8101031261028e57610288906126c9565b5f6101d4565b5f80fd5b3d915061026a565b6040513d5f823e3d90fd5b3461028e5760207ffffffffffffffffffffffffffffffffffffffffffffffffffffffffffffffffc36011261028e576102dc61279e565b506004355f52600460205260606102f560405f20614ad1565b604080519173ffffffffffffffffffffffffffffffffffffffff81511683526020810151602084015201516040820152f35b3461028e5760807ffffffffffffffffffffffffffffffffffffffffffffffffffffffffffffffffc36011261028e5773ffffffffffffffffffffffffffffffffffffffff600435166004350361028e576064356004602073ffffffffffffffffffffffffffffffffffffffff7f0aec74a1754fb10877b53c31a29be82096082042eb1fb374ec96fac88c0e621b5416604051928380927f5c975abb0000000000000000000000000000000000000000000000000000000082525afa90811561029a575f91610b38575b50610b0e576103fd612b01565b610408600435612c57565b61041460043582613130565b610140810151518082525f52600660205261043160405f206128c5565b918260e08301526020820180516101008095015110610a7e575b50604435907fffffffffffffffffffffffffffffffffffffffffffffffffffffffffffffffff600161047d828461553f565b14610a6d575b61049160019160443561553f565b14610a5c575b73ffffffffffffffffffffffffffffffffffffffff6004351633141580610980575b6109565760016104f46104d7836104d286602435612af4565b612af4565b84602435115f14610950576024355b84811115610948579061553f565b0361091e57838301516040810151151590816108f2575b50156108b65760026105205f5b60243561553f565b1461088c5760243515158080610871575b6107fe5782151580958196610828575b506107fe5761016084015160208151910151036107d4576106ce6106fa9161066861075d9760606101408901510151155f14610791575f925b610592888a818a61014083015160243593519061557b565b6105aa888a818a61016083015160243593519061557b565b60e089015182826105be6024358451612af4565b602084016105cd8d8251612af4565b9052835261077c575b610767575b5061065373ffffffffffffffffffffffffffffffffffffffff600154166106036024356155c1565b90604051917f23b872dd00000000000000000000000000000000000000000000000000000000602084015233602484015230604484015260648301526064825261064e6084836121e8565b615941565b906024351561075f575b508260243589613444565b61064e61068d73ffffffffffffffffffffffffffffffffffffffff60015416926155c1565b6040517fa9059cbb00000000000000000000000000000000000000000000000000000000602082015233602482015260448101919091529283906064820190565b037fffffffffffffffffffffffffffffffffffffffffffffffffffffffffffffffe081018452836121e8565b82519160405192835260243560208401526040830152606082015273ffffffffffffffffffffffffffffffffffffffff60043516907ecdda35b21914cc89ca2689f6ada564ebad3ad81f233699e25e44e13ab73f4960803392a360043590614314565b005b90508961065d565b60e0016107748151614aa4565b90528a6105db565b60c0820161078a8151614aa4565b90526105d6565b6107c46107a160a08a0151612a8e565b6101408a01516060015190818110156107ca576107bf905b89612aaa565b612abd565b9261057a565b506107bf816107b9565b60046040517fe4b29524000000000000000000000000000000000000000000000000000000008152fd5b60046040517ff2fbeec4000000000000000000000000000000000000000000000000000000008152fd5b90508401516040810151155f14610855575061084e835b602060c087015101519061553f565b1586610541565b61086c816108668661084e946155db565b906155fb565b61083f565b50610886602060c0860151015160243561553f565b15610531565b60046040517fa9785d3d000000000000000000000000000000000000000000000000000000008152fd5b60026105206108ed60c0860151516108e76108d76108d2612368565b612a8e565b60806101408a0151015190612af4565b90614c28565b610518565b610902915060605f910151615654565b8015908115610913575b508561050b565b60019150148561090c565b60046040517fa65ac9fb000000000000000000000000000000000000000000000000000000008152fd5b50839061553f565b846104e6565b60046040517f7eb267c7000000000000000000000000000000000000000000000000000000008152fd5b506044602073ffffffffffffffffffffffffffffffffffffffff7f0aec74a1754fb10877b53c31a29be82096082042eb1fb374ec96fac88c0e621b5416604051928380927f2637588e00000000000000000000000000000000000000000000000000000000825273ffffffffffffffffffffffffffffffffffffffff6004351660048301523360248301525afa90811561029a575f91610a22575b50156104b9565b90506020813d602011610a54575b81610a3d602093836121e8565b8101031261028e57610a4e906126bc565b85610a1b565b3d9150610a30565b610160830151604001519150610497565b610160840151606001519150610483565b5f90610a8a8451614aa4565b845260e08401519051610140850151610adb610ab56040830151926060608082015191015190612af4565b7fffffffffffffffffffffffffffffffffffffffffffffffffffffffffffffffff6157c5565b60608401526040830152858201528160e08201528160c08201528160a0820152816080820152816020820152528361044b565b60046040517f4b94d2bb000000000000000000000000000000000000000000000000000000008152fd5b90506020813d602011610b6a575b81610b53602093836121e8565b8101031261028e57610b64906126bc565b826103f0565b3d9150610b46565b3461028e5760207ffffffffffffffffffffffffffffffffffffffffffffffffffffffffffffffffc36011261028e576020600435610bb16108d2612368565b610bb96126fa565b80610bc95750505b604051908152f35b6107bf90610bd693612aaa565b610bc1565b3461028e575f7ffffffffffffffffffffffffffffffffffffffffffffffffffffffffffffffffc36011261028e57602073ffffffffffffffffffffffffffffffffffffffff7f0aec74a1754fb10877b53c31a29be82096082042eb1fb374ec96fac88c0e621b5416604051908152f35b3461028e5760207ffffffffffffffffffffffffffffffffffffffffffffffffffffffffffffffffc36011261028e57610c826127be565b506004355f526006602052610120610c9c60405f206128c5565b60405190805182526020810151602083015260408101516040830152606081015160608301526080810151608083015260a081015160a083015260c081015160c083015260e081015160e08301526101008091015190820152f35b3461028e575f7ffffffffffffffffffffffffffffffffffffffffffffffffffffffffffffffffc36011261028e57610d2d61279e565b50610d5f610d3b6002614a19565b60408051825181526020808401519082015291810151908201529081906060820190565b0390f35b3461028e5760407ffffffffffffffffffffffffffffffffffffffffffffffffffffffffffffffffc36011261028e5760043573ffffffffffffffffffffffffffffffffffffffff807f0aec74a1754fb10877b53c31a29be82096082042eb1fb374ec96fac88c0e621b5416604051917f8da5cb5b0000000000000000000000000000000000000000000000000000000083526020928381600481865afa90811561029a575f91610f22575b5016330361022c5781600491604051928380927f5c975abb0000000000000000000000000000000000000000000000000000000082525afa91821561029a575f92610eec575b5050610b0e57610e62612b01565b610e8a5f610e6f81612c57565b610e798282613130565b610e8582808084613444565b614314565b600354811015610ec25761075d907fffffffffffffffffffffffffffffffffffffffffffffffffffffffffffffffff602435916143af565b60046040517f04467fe8000000000000000000000000000000000000000000000000000000008152fd5b90809250813d8311610f1b575b610f0381836121e8565b8101031261028e57610f14906126bc565b8280610e54565b503d610ef9565b90508381813d8311610f50575b610f3981836121e8565b8101031261028e57610f4a906126c9565b85610e0e565b503d610f2f565b3461028e5760807ffffffffffffffffffffffffffffffffffffffffffffffffffffffffffffffffc36011261028e5760043573ffffffffffffffffffffffffffffffffffffffff9081811680910361028e576024918235908116810361028e576064359267ffffffffffffffff9081851161028e573660238601121561028e57846004013591821161028e573681838701011161028e576001947f6fee9688c285c5c5c97d6a1a29adced674e6b2ad0888b8ad2116b58a8b3ea24886815410156112e8578690557f2801b00eb06461cf9fcb9758b5fafd884ff06a86177386f73b6c49f0bf5a5af094868655303b1515806112e1575b6112b757337f0aec74a1754fb10877b53c31a29be82096082042eb1fb374ec96fac88c0e621b557fffffffffffffffffffffffff00000000000000000000000000000000000000008754161786556110a55f54612435565b601f8111611252575b505f90601f84116001146111655793835f9460209794611128947fbe9b076dc5b65990cca9dd9d7366682482e7817a6f6bc7f4faf4dc32af497f329a988893611158575b5050507fffffffffffffffffffffffffffffffffffffffffffffffffffffffffffffffff82881b9260031b1c1916178455614558565b61114e6040516111396060826121e8565b604435815283868201528360408201526148c3565b55604051908152a1005b01013590508980806110f2565b90917fffffffffffffffffffffffffffffffffffffffffffffffffffffffffffffffe08416925f80527f290decd9548b62a8d60345a988386fc84ba6bc95484008f6362f93160ef3e563935f5b81811061123a57509460209794611128948a98947fbe9b076dc5b65990cca9dd9d7366682482e7817a6f6bc7f4faf4dc32af497f329b94845f9a10611200575b50505050811b018455614558565b7fffffffffffffffffffffffffffffffffffffffffffffffffffffffffffffffff60f88660031b161c1992010135169055898080806111f2565b848301840135865594890194602092830192016111b2565b5f80527f290decd9548b62a8d60345a988386fc84ba6bc95484008f6362f93160ef3e563601f850160051c810191602086106112ad575b601f0160051c019087905b8281106112a25750506110ae565b5f8155018790611294565b9091508190611289565b60046040517fb9a621e1000000000000000000000000000000000000000000000000000000008152fd5b505f61104d565b8287604051907f3db738da0000000000000000000000000000000000000000000000000000000082526004820152fd5b3461028e575f7ffffffffffffffffffffffffffffffffffffffffffffffffffffffffffffffffc36011261028e576020600854604051908152f35b3461028e575f7ffffffffffffffffffffffffffffffffffffffffffffffffffffffffffffffffc36011261028e576020600354604051908152f35b3461028e5760207ffffffffffffffffffffffffffffffffffffffffffffffffffffffffffffffffc36011261028e5760043573ffffffffffffffffffffffffffffffffffffffff808216820361028e5760206004917f0aec74a1754fb10877b53c31a29be82096082042eb1fb374ec96fac88c0e621b5416604051928380927f5c975abb0000000000000000000000000000000000000000000000000000000082525afa90811561029a575f91611464575b50610b0e5761075d90611451612b01565b61145a81612c57565b610e858282613130565b90506020813d602011611496575b8161147f602093836121e8565b8101031261028e57611490906126bc565b82611440565b3d9150611472565b3461028e5760207ffffffffffffffffffffffffffffffffffffffffffffffffffffffffffffffffc36011261028e5760043573ffffffffffffffffffffffffffffffffffffffff811680910361028e576114f661276c565b505f52600560205260c061150c60405f20612804565b60a0604051918051835260208101516020840152604081015160408401526060810151606084015260808101516080840152015160a0820152f35b3461028e5760607ffffffffffffffffffffffffffffffffffffffffffffffffffffffffffffffffc36011261028e5761158136600461226e565b73ffffffffffffffffffffffffffffffffffffffff807f0aec74a1754fb10877b53c31a29be82096082042eb1fb374ec96fac88c0e621b5416604051917f8da5cb5b0000000000000000000000000000000000000000000000000000000083526020928381600481865afa90811561029a575f9161169a575b5016330361022c5781600491604051928380927f5c975abb0000000000000000000000000000000000000000000000000000000082525afa91821561029a575f92611664575b5050610b0e5761075d90611652612b01565b61165f5f610e6f81612c57565b6148c3565b90809250813d8311611693575b61167b81836121e8565b8101031261028e5761168c906126bc565b8280611640565b503d611671565b90508381813d83116116c8575b6116b181836121e8565b8101031261028e576116c2906126c9565b856115fa565b503d6116a7565b3461028e576020807ffffffffffffffffffffffffffffffffffffffffffffffffffffffffffffffffc36011261028e576004359073ffffffffffffffffffffffffffffffffffffffff808316830361028e57807f0aec74a1754fb10877b53c31a29be82096082042eb1fb374ec96fac88c0e621b5416906040517f8da5cb5b0000000000000000000000000000000000000000000000000000000081528381600481865afa90811561029a575f91611859575b5016330361022c5781600491604051928380927f5c975abb0000000000000000000000000000000000000000000000000000000082525afa91821561029a575f92611823575b5050610b0e576117d6612b01565b6117e35f610e6f81612c57565b6117ec81614500565b6117f95761075d90614558565b60046040517f499943cd000000000000000000000000000000000000000000000000000000008152fd5b90809250813d8311611852575b61183a81836121e8565b8101031261028e5761184b906126bc565b82806117c8565b503d611830565b90508381813d8311611887575b61187081836121e8565b8101031261028e57611881906126c9565b85611782565b503d611866565b3461028e575f7ffffffffffffffffffffffffffffffffffffffffffffffffffffffffffffffffc36011261028e576020610bc16126fa565b3461028e575f7ffffffffffffffffffffffffffffffffffffffffffffffffffffffffffffffffc36011261028e57602073ffffffffffffffffffffffffffffffffffffffff60015416604051908152f35b3461028e576020807ffffffffffffffffffffffffffffffffffffffffffffffffffffffffffffffffc36011261028e5760043567ffffffffffffffff9182821161028e573660238301121561028e57816004013592831161028e576024820191602436918560051b01011161028e5773ffffffffffffffffffffffffffffffffffffffff807f0aec74a1754fb10877b53c31a29be82096082042eb1fb374ec96fac88c0e621b5416906040517f8da5cb5b0000000000000000000000000000000000000000000000000000000081528381600481865afa90811561029a575f91611b43575b5016330361022c5781600491604051928380927f5c975abb0000000000000000000000000000000000000000000000000000000082525afa91821561029a575f92611b0d575b5050610b0e57611a50612b01565b611a5d5f610e6f81612c57565b6003906003548303610ec2576001925f91825b8454841015611ace57611ac68691611ab47fffffffffffffffffffffffffffffffffffffffffffffffffffffffffffffffff611aad8888886126ea565b35886143af565b611abf8686866126ea565b3590612af4565b930192611a70565b611adc620f4240879261553f565b03611ae357005b60046040517fdbdb7620000000000000000000000000000000000000000000000000000000008152fd5b90809250813d8311611b3c575b611b2481836121e8565b8101031261028e57611b35906126bc565b8380611a42565b503d611b1a565b90508381813d8311611b71575b611b5a81836121e8565b8101031261028e57611b6b906126c9565b866119fc565b503d611b50565b3461028e5760207ffffffffffffffffffffffffffffffffffffffffffffffffffffffffffffffffc36011261028e5760043573ffffffffffffffffffffffffffffffffffffffff808216820361028e5760206004917f0aec74a1754fb10877b53c31a29be82096082042eb1fb374ec96fac88c0e621b5416604051928380927f5c975abb0000000000000000000000000000000000000000000000000000000082525afa90811561029a575f91611c5a575b50610b0e5761075d90611c3b612b01565b611c4481612c57565b611c4e8282613130565b610e855f808084613444565b90506020813d602011611c8c575b81611c75602093836121e8565b8101031261028e57611c86906126bc565b82611c2a565b3d9150611c68565b3461028e577ffffffffffffffffffffffffffffffffffffffffffffffffffffffffffffffffc60408136011261028e5760043567ffffffffffffffff9182821161028e5761050090823603011261028e5760405191611cf5610180846121e8565b816004013583526024602092818101358486015260448101356040860152606481013583811161028e578101923660238501121561028e57600484013593611d3c85612256565b90611d4a60405192836121e8565b8582528682018560608098028301019136831161028e578601905b828210611e8a5750505084870152608482013590811161028e5781013660238201121561028e57600481013590611d9b82612256565b91611da960405193846121e8565b808352848784019160051b8301019136831161028e578501905b828210611e7b57505050948392611e4c611e59936080988985015260a481013560a0850152611df53660c4830161226e565b60c0850152611e083661012483016122a2565b60e0850152611e1b3661024483016122a2565b610100850152610364810135610120850152611e3b366103848301612316565b610140850152610444369101612316565b61016083015235906124ed565b6040519381518552808201519085015260408101516040850152015190820152f35b81358152908701908701611dc3565b878236031261028e5760405190611ea189836121e8565b82359073ffffffffffffffffffffffffffffffffffffffff8216820361028e57828b928b9452828501358382015260408501356040820152815201910190611d65565b3461028e575f7ffffffffffffffffffffffffffffffffffffffffffffffffffffffffffffffffc36011261028e57602073ffffffffffffffffffffffffffffffffffffffff60075416604051908152f35b3461028e5760207ffffffffffffffffffffffffffffffffffffffffffffffffffffffffffffffffc36011261028e576020600435611f746108d2612368565b611f7c6126fa565b9081610bc9575050604051908152f35b3461028e575f7ffffffffffffffffffffffffffffffffffffffffffffffffffffffffffffffffc36011261028e57611fc46015612a54565b611fd160405191826121e8565b6015815260208091017f506572656e6e69616c204d616b6572205661756c7400000000000000000000008152612010601560405192602084019061217d565b7f3a20000000000000000000000000000000000000000000000000000000000000603582015260375f925f549161204683612435565b926001908181169081156120fd575060011461209e575b610d5f856120928189037fffffffffffffffffffffffffffffffffffffffffffffffffffffffffffffffe081018352826121e8565b6040519182918261219e565b90919294505f80527f290decd9548b62a8d60345a988386fc84ba6bc95484008f6362f93160ef3e5635f905b8682106120ea575050505050612092816037610d5f94820101938561205d565b80548683018501529084019082016120ca565b610d5f9750869450603793506120929592507fffffffffffffffffffffffffffffffffffffffffffffffffffffffffffffff009150168284015280151502820101938561205d565b3461028e575f7ffffffffffffffffffffffffffffffffffffffffffffffffffffffffffffffffc36011261028e576020610bc1612368565b5f5b83811061218e5750505f910152565b818101518382015260200161217f565b7fffffffffffffffffffffffffffffffffffffffffffffffffffffffffffffffe0601f604093602084526121e1815180928160208801526020888801910161217d565b0116010190565b90601f7fffffffffffffffffffffffffffffffffffffffffffffffffffffffffffffffe0910116810190811067ffffffffffffffff82111761222957604052565b7f4e487b71000000000000000000000000000000000000000000000000000000005f52604160045260245ffd5b67ffffffffffffffff81116122295760051b60200190565b919082606091031261028e576040516122886060826121e8565b604080829480358452602081013560208501520135910152565b809291610120918291031261028e576122be60405191826121e8565b8092803582526020810135602083015260408101356040830152606081013560608301526080810135608083015260a081013560a083015260c081013560c083015260e081013560e083015261010080910135910152565b91908260c091031261028e5760405161233060c0826121e8565b60a080829480358452602081013560208501526040810135604085015260608101356060850152608081013560808501520135910152565b5f80526005602090815261239b7f05b8ccbb9d4d8fb16ea74ce3c29a41f1b461fbdaff4714a0d9a8eb05499746bc612804565b01515f5260066020526123b060405f206128c5565b6060810151906123c081516129c2565b915f8382019384129112908015821691151617612408576123e98160206123ee93015190612a1d565b6129c2565b905f82820392128183128116918313901516176124085790565b7f4e487b71000000000000000000000000000000000000000000000000000000005f52601160045260245ffd5b90600182811c9216801561247c575b602083101461244f57565b7f4e487b71000000000000000000000000000000000000000000000000000000005f52602260045260245ffd5b91607f1691612444565b604051906124956080836121e8565b5f6060838281528260208201528260408201520152565b80518210156124c05760209160051b010190565b7f4e487b71000000000000000000000000000000000000000000000000000000005f52603260045260245ffd5b906124f6612486565b905f90606092606081019260209660208301915b8688015180518210156126b0576125368273ffffffffffffffffffffffffffffffffffffffff926124ac565b5151604080517f0cdfebfa00000000000000000000000000000000000000000000000000000000815230600480830191909152602482018a90529093909260809291839186916044918391165afa9384156126a6575f9461264c575b50505087519189810151925f8482019485129112908015821691151617612620578651918151925f84820194851291129080158216911516176125f45750918993916125e66001948e895191015190612af4565b87528752885201905061250a565b6011907f4e487b71000000000000000000000000000000000000000000000000000000005f525260245ffd5b6011827f4e487b71000000000000000000000000000000000000000000000000000000005f525260245ffd5b90918093945081813d831161269f575b61266681836121e8565b8101031261028e578161267c8c935194856121e8565b815184528d8201518e8501528082015190840152015189820152905f8080612592565b503d61265c565b50513d5f823e3d90fd5b50509550509450505050565b5190811515820361028e57565b519073ffffffffffffffffffffffffffffffffffffffff8216820361028e57565b91908110156124c05760051b0190565b5f80526005602090815261272d7f05b8ccbb9d4d8fb16ea74ce3c29a41f1b461fbdaff4714a0d9a8eb05499746bc612804565b01515f52600660205261276961274560405f206128c5565b6020612760604083015161275a845185614482565b90612af4565b910151906144f3565b90565b6040519061277b60c0836121e8565b5f60a0838281528260208201528260408201528260608201528260808201520152565b604051906127ad6060836121e8565b5f6040838281528260208201520152565b604051906127ce610120836121e8565b5f610100838281528260208201528260408201528260608201528260808201528260a08201528260c08201528260e08201520152565b61280c61276c565b5060c060405161281d60e0826121e8565b8254600163ffffffff947fffffffffffffffffffffffffffffffffffffffffffffffff0000000000000000868416968786528460201c169384602087015216604085015201549167ffffffffffffffff9182841691826060820152838560401c16938460808301528560801c16948560a0830152861c9586910152604051956128a760c0886121e8565b8652602086015260408501526060840152608083015260a082015290565b7fffffffff00000000000000000000000000000000000000000000000000000000906128ef6127be565b5060408051612900610140826121e8565b82549167ffffffffffffffff90818416918284528085831c16958660208601526001828760801c1696878588015260c01d60070b918260608801520154958660070b9283608088015287851c16938460a088015263ffffffff98898960801c16968760c08a01528a8a60a01c169a8b60e08b01528a60c01c16986101009a8a8c8301526101209d8e911691015261299983519c8d6121e8565b8b5260208b01528901526060880152608087015260a086015260c085015260e084015282015290565b7f7fffffffffffffffffffffffffffffffffffffffffffffffffffffffffffffff81116129ec5790565b602490604051907feecaa25d0000000000000000000000000000000000000000000000000000000082526004820152fd5b61276991612a2f60e083015183614b5a565b916040810151155f14612a425750614c28565b610866612a4f92826155db565b614c28565b67ffffffffffffffff811161222957601f017fffffffffffffffffffffffffffffffffffffffffffffffffffffffffffffffe01660200190565b612a985f82615654565b612aa157505f90565b61276990614c49565b8181029291811591840414171561240857565b8115612ac7570490565b7f4e487b71000000000000000000000000000000000000000000000000000000005f52601260045260245ffd5b9190820180921161240857565b5f905b600354821015612bae57815f526004918260205260409273ffffffffffffffffffffffffffffffffffffffff612b3b855f20614ad1565b511690813b1561028e575f9160248392875194859384927f6a256b2900000000000000000000000000000000000000000000000000000000845230908401525af18015612ba4576001939450612b94575b500190612b04565b5f612b9e916121e8565b5f612b8c565b84513d5f823e3d90fd5b9050565b9081602091031261028e575173ffffffffffffffffffffffffffffffffffffffff8116810361028e5790565b919082606091031261028e57604051612bf86060826121e8565b6040612c148183958051855260208101516020860152016126bc565b910152565b9081608091031261028e57606060405191612c356080846121e8565b8051835260208101516020840152604081015160408401520151606082015290565b9060405191612c68610180846121e8565b5f83525f60208401525f6040840152606080840152606060808401525f60a084015260c0830192612c9761279e565b8452612ca16127be565b60e0820152610100810190612cb46127be565b82526101208101925f8452612cc761276c565b610140830152612cd561276c565b6101608301528195612ce76002614a19565b90527fffffffffffffffffffffffffffffffffffffffffffffffffffffffffffffffff60408301527fffffffffffffffffffffffffffffffffffffffffffffffffffffffffffffffff6020830152600354612d4181612256565b612d4e60405191826121e8565b8181527fffffffffffffffffffffffffffffffffffffffffffffffffffffffffffffffe0612d7b83612256565b015f5b8181106131195750506060840152612d9581612256565b612da260405191826121e8565b8181527fffffffffffffffffffffffffffffffffffffffffffffffffffffffffffffffe0612dcf83612256565b0136602083013760808401525f5b818110612e5e57505060209173ffffffffffffffffffffffffffffffffffffffff610140921680612e40575b505f805260058352612e1d60405f20612804565b918291015201515f526006602052612e3760405f206128c5565b90526008549052565b5f5260058352612e5260405f20612804565b6101608201525f612e09565b805f526004602052612e7260405f20614ad1565b612e8c82606087015183612e8683836124ac565b526124ac565b506004602073ffffffffffffffffffffffffffffffffffffffff835116604051928380927f7dc0d1d00000000000000000000000000000000000000000000000000000000082525afa90811561029a5773ffffffffffffffffffffffffffffffffffffffff916080915f916130ea575b506004604051809481937f200d2ed2000000000000000000000000000000000000000000000000000000008352165afa90811561029a575f905f926130a9575b5060408701519051808210156130a257505b604087015260208601517fffffffffffffffffffffffffffffffffffffffffffffffffffffffffffffffff8103613054575073ffffffffffffffffffffffffffffffffffffffff60249260809260208901525b5116604051928380927f5b4b96950000000000000000000000000000000000000000000000000000000082523060048301525afa801561029a576040915f91613025575b5001908151612ff88260808801516124ac565b5260a08501519151915f83820193841291129080158216911516176124085760019160a086015201612ddd565b613047915060803d60801161304d575b61303f81836121e8565b810190612c19565b5f612fe5565b503d613035565b0361307857608073ffffffffffffffffffffffffffffffffffffffff602492612fa1565b60046040517f50ad85d6000000000000000000000000000000000000000000000000000000008152fd5b9050612f4e565b91505060803d6080116130e3575b6130c181836121e8565b810160808282031261028e576130d960609183612bde565b910151905f612f3c565b503d6130b7565b61310c915060203d602011613112575b61310481836121e8565b810190612bb2565b5f612efc565b503d6130fa565b60209061312461279e565b82828601015201612d7e565b6131386127be565b925b610140820180518051602080920151809111908161340e575b50156133155761012084019182519160c08601519361010093613179858b0151896124ed565b92606096878c0180519189870151925f8482019485129112908015821691151617612408578d947f65ec400f2e8b22c7064f99991d01828c6a55acaa066b3fdba3bf5a491b1a6a4c936131cd935285615665565b60409586928387016131e0848251612af4565b90528589519960809a8b8a0152015160a080980152815261320582848b510151612af4565b838a5101528d73ffffffffffffffffffffffffffffffffffffffff8060075416911681145f146132dc57506101608d0183613244848284510151612af4565b915101525b5190825191825284820152a18451968188019586519860018a01809a11612408578d996132d4986132c46006976132ba8e9b8b8d8b9a8151988c83015198528901906132ad61329d835161275a8b85612a1d565b938b019161275a8b845192614482565b90525286019485516144f3565b94019182516144f3565b9052525101515f52525f20614c84565b83015261313a565b80613310915f5260058088526132f3865f20612804565b91868301613302878251612af4565b90525f528752845f206150d8565b613249565b5050929173ffffffffffffffffffffffffffffffffffffffff161561340a57610160810190815160208151910151811191826133dd575b5050613356575050565b518051916133c56133bd608084019384519060a0810194855197602083015260608201906133b360406133a4845161275a8d613393600188614b5a565b9085880151155f146133ca57614c28565b94019161275a86845192615771565b90525284516144f3565b9382516144f3565b905252565b6133d7612a4f91896155db565b886155fb565b909350604091500151915f5260066020526133fa60405f206128c5565b9161010083015111155f8061334c565b5050565b96505060409586850151966001820180921161240857613435915f52600683525f206128c5565b9561010087015111155f613153565b90929360a08201516134565f82615654565b1561430c576134676134c991612a8e565b6060620f42406134be61349961348a6101408901956108e78b8789510151612af4565b6108e78b6080885101516144f3565b6134b860406134b2875160a08101519283910151612af4565b90615786565b90612aaa565b049151015190612af4565b606083015195604051946134de6080876121e8565b5f86525f60208701525f604087015260608087015287517fffffffffffffffffffffffffffffffffffffffffffffffffffffffffffffffe061353861352283612256565b9261353060405194856121e8565b808452612256565b015f5b8181106142f557505060608701525f5b8851811015613f065761355e818a6124ac565b51600461356961580e565b9180835261014073ffffffffffffffffffffffffffffffffffffffff825116604051938480927fad4d4e290000000000000000000000000000000000000000000000000000000082525afa801561029a575f90613e54575b6004925060208401526102e073ffffffffffffffffffffffffffffffffffffffff825116604051938480927f4549a6290000000000000000000000000000000000000000000000000000000082525afa801561029a575f90613ccd575b602492506040840152608073ffffffffffffffffffffffffffffffffffffffff825116604051938480927f5b4b96950000000000000000000000000000000000000000000000000000000082523060048301525afa801561029a576004925f91613cae575b506060840152602073ffffffffffffffffffffffffffffffffffffffff825116604051938480927f7dc0d1d00000000000000000000000000000000000000000000000000000000082525afa91821561029a5773ffffffffffffffffffffffffffffffffffffffff926060915f91613c8f575b506004604051809581937f52bfe789000000000000000000000000000000000000000000000000000000008352165afa91821561029a575f92613c54575b506024608073ffffffffffffffffffffffffffffffffffffffff835116604051928380927f55f575100000000000000000000000000000000000000000000000000000000082523060048301525afa90811561029a575f91613c35575b508060a08501526137a0612486565b508051906020810151906060604082015191015191604051936137c46080866121e8565b8452602084015260408301526060820152608084015260246101a073ffffffffffffffffffffffffffffffffffffffff835116604051928380927f6e1936800000000000000000000000000000000000000000000000000000000082523060048301525afa801561029a576004936138e3925f92613c0f575b5060209061384f836080890151615b67565b6138a061388361386260a08a0151615c92565b61275a613878606088015160a089015190612af4565b60e088015190612af4565b6040890151805184908015613c045761012090925b015192615cc5565b610100880152015160e08601526138dd6138bd60a0870151615c92565b916101006138d4608083015160c084015190612af4565b91015190612af4565b906144f3565b6101208401526101a073ffffffffffffffffffffffffffffffffffffffff825116604051938480927fe20ccec30000000000000000000000000000000000000000000000000000000082525afa90811561029a576004925f92613bb8575b5073ffffffffffffffffffffffffffffffffffffffff6080915116604051938480927f09218e910000000000000000000000000000000000000000000000000000000082525afa801561029a576139a5925f91613b99575b508060c0850152615b67565b60206080820151015160c0820151916020830151916139d460606139cc60408701516129c2565b9501516129c2565b905f8212858381031281169086848103139015161761240857613a63948694613a2093613a0b925f82820312613b90570390614c28565b61012084015180821015613b88575090614c28565b610140820152613a4d60206080830151015161275a608060408501510151602060c0860151015190614c28565b61016082015260608a015190612e8683836124ac565b50613a838751610100613a7a8460608c01516124ac565b51015190612af4565b875260208701519060406060613a9c83828c01516124ac565b510151015180808401125f8412908015821691151617612408576001920160208901526040880151888b836040613ad382846124ac565b510151158015613b72575b15613b04575050505f5b80821115613afd57505b60408901520161354b565b9050613af2565b613b5d81613b57856107bf60e0613b37856060610140613b2c60209b83613b669f01516124ac565b5101519501516124ac565b5101515f8112613b6b575b6040613b4e868a6124ac565b51015192612aaa565b936124ac565b510151906157ef565b613ae8565b5f03613b42565b506020613b7f82846124ac565b51015115613ade565b905090614c28565b035f0390614c28565b613bb2915060803d60801161304d5761303f81836121e8565b5f613999565b6080919250613bf573ffffffffffffffffffffffffffffffffffffffff916101a03d6101a011613bfd575b613bed81836121e8565b810190615ac8565b929150613941565b503d613be3565b506101205f92613898565b6020919250613c2e906101a03d6101a011613bfd57613bed81836121e8565b919061383d565b613c4e915060803d60801161304d5761303f81836121e8565b5f613791565b90915060603d606011613c88575b613c6c81836121e8565b810160608282031261028e57613c8191612bde565b905f613734565b503d613c62565b613ca8915060203d6020116131125761310481836121e8565b5f6136f6565b613cc7915060803d60801161304d5761303f81836121e8565b5f613683565b506102e03d6102e011613e4d575b613ce581846121e8565b8201828103906102e0821261028e5760405191613d046101a0846121e8565b8451835260208501516020840152613d1f8260408701615a8a565b604084015260c09460607fffffffffffffffffffffffffffffffffffffffffffffffffffffffffffffff4083011261028e5760405190613d606060836121e8565b86810151825260607ffffffffffffffffffffffffffffffffffffffffffffffffffffffffffffffe0060e0948584015160208601526101009485850151604082015283890152610120958685015160808a015261014085015160a08a01526101609a8b860151908a0152613dd961018098898701615a8a565b90890152011261028e57602496613e44936102c09360405190613dfd6060836121e8565b610200850151825261022085015160208301526102408501516040830152880152610260830151908701526102808201516101408701526102a082015190860152016126bc565b9082015261361e565b503d613cdb565b50610140823d61014011613efe575b81613e7161014093836121e8565b8101031261028e57604051600492613e8b610140836121e8565b805182526020810151602083015260408101516040830152606081015160608301526080810151608083015260a081015160a083015260c0808201519083015260e08082015190830152610100613ee38183016126bc565b90830152613ef56101208092016126bc565b908201526135c1565b3d9150613e63565b50613f2b92949750612a4f613f249294976104d26020890151612a8e565b9283614c28565b91613f3784518261553f565b156142cb57613f4a60408501518461553f565b156142a157606084015151957fffffffffffffffffffffffffffffffffffffffffffffffffffffffffffffffe0613f99613f8389612256565b98613f916040519a8b6121e8565b808a52612256565b015f5b81811061428a5750505f925f935b606087015180518610156141755785613fc2916124ac565b518751613fcd61279e565b92613ffd61010092620f4240613ff6613fea86880151938c6144f3565b60208851015190612aaa565b0490612af4565b91620f42406140116020865101518c612aaa565b0462124f8080850290858204148515171561240857620f424090048082101561416e57505b8091614041856129c2565b604060608801510151905f82820392128183128116918313901516176124085787526140916040870151620f424061408a61012083015192602060408c51015191015190612aaa565b0490615786565b9060208701510151159182159261415c575b5050614155575b602060806140fa6140d6614104946107bf60408a51015160e08b01515f8112155f1461414d5792612aaa565b6101408801518082111561414657505b6101608801518082101561413f57506129c2565b95015101516129c2565b925f84820394128185128116918513901516176124085783614131898e61413796602060019901526124ac565b52612af4565b940193613faa565b90506129c2565b90506140e6565b5f0392612aaa565b505f6140aa565b614166925061553f565b155f806140a3565b9050614036565b5092935096946060919450015151614247575b50505f5b6060820151518110156141e657806141b15f6141aa600194876124ac565b5151615654565b156141bd575b0161418c565b6141e1866141cf8360608701516124ac565b516141da84886124ac565b519061502a565b6141b7565b505f5b60608201515181101561424057806142075f6141aa600194876124ac565b60028114908115614236575b5061421f575b016141e9565b614231866141cf8360608701516124ac565b614219565b839150145f614213565b5050509050565b6123e9614260916142585f876124ac565b5151936144f3565b905f8282019283129112908015821691151617612408576142815f846124ac565b51525f80614188565b60209061429561279e565b82828c01015201613f9c565b60046040517fb86270e3000000000000000000000000000000000000000000000000000000008152fd5b60046040517ff90641dc000000000000000000000000000000000000000000000000000000008152fd5b60209061430061580e565b8282860101520161353b565b509350505050565b73ffffffffffffffffffffffffffffffffffffffff61012092168061438f575b505f8052600560205261014081015161436d907f05b8ccbb9d4d8fb16ea74ce3c29a41f1b461fbdaff4714a0d9a8eb05499746bc6150d8565b80515f52600660205261438860405f2060e083015190614c84565b0151600855565b5f5260056020526143a960405f20610160830151906150d8565b5f614334565b91907f19de27a5967d3c5ffdfa85f8f33ed63fcae289e86abc970d013e0ae2bc8bb27f91835f5260046020526040916143e9835f20614ad1565b917fffffffffffffffffffffffffffffffffffffffffffffffffffffffffffffffff916001614418848361553f565b03614476575060016144376020850151935b602086019485528361553f565b0361446c575061445c83830151925b848101938452865f526004602052845f206153b7565b51905182519182526020820152a2565b61445c9092614446565b6144376001919361442a565b6040810151156144ef5761449a60c082015182614b5a565b906144a95f6060830151615654565b80159081156144e4575b50156144c3575061276991614c28565b906108e7906144de6144d8612769958561555b565b846155fb565b9261555b565b60019150145f6144b3565b5090565b9190820391821161240857565b600354905f5b828110614514575050505f90565b805f52600460205273ffffffffffffffffffffffffffffffffffffffff8061453e60405f20614ad1565b51169083161461455057600101614506565b505050600190565b7f0aec74a1754fb10877b53c31a29be82096082042eb1fb374ec96fac88c0e621b54604080517f06ae7095000000000000000000000000000000000000000000000000000000008152602093919260049273ffffffffffffffffffffffffffffffffffffffff91869084908690829086165afa928315614822579086915f94614889575b50908260248193885194859384927f032bb4430000000000000000000000000000000000000000000000000000000084521697888a840152165afa908115614822575f91614854575b501561482c5783517ffc0c546a00000000000000000000000000000000000000000000000000000000815285818581865afa908115614822575f916147ed575b50816001541691829116036147c557845f9160448651809481937f095ea7b300000000000000000000000000000000000000000000000000000000835287898401527fffffffffffffffffffffffffffffffffffffffffffffffffffffffffffffffff60248401525af18015612ba457614761575b50907f07796b317344e6f18fa32ed89b6074ad66549cee7fb7b8c3e9f1c42c496f1c5c614758945f949360035494859461471386614aa4565b600355858852835261474181882082519061472f6060836121e8565b848252898683015289848301526153b7565b51908152a28015821461475a57620f4240906143af565b565b81906143af565b848181959493953d83116147be575b61477a81836121e8565b8101031261028e57614758945f946147b27f07796b317344e6f18fa32ed89b6074ad66549cee7fb7b8c3e9f1c42c496f1c5c936126bc565b509293945094506146da565b503d614770565b8284517faddc4c0d000000000000000000000000000000000000000000000000000000008152fd5b90508581813d831161481b575b61480481836121e8565b8101031261028e57614815906126c9565b5f614665565b503d6147fa565b85513d5f823e3d90fd5b8284517f7c04a019000000000000000000000000000000000000000000000000000000008152fd5b90508581813d8311614882575b61486b81836121e8565b8101031261028e5761487c906126bc565b5f614625565b503d614861565b8281939295503d83116148bc575b6148a181836121e8565b8101031261028e5751818116810361028e57918590826145dc565b503d614897565b67ffffffffffffffff60026148d982845161553f565b146149ef57602082019060026148f082845161553f565b146149ef5760409182840191600261490c620f4240855161553f565b146149c657916149c193916fffffffffffffffff000000000000000072ffffff00000000000000000000000000000000855f60608a987f2b54134d301f8fec6b8240bf19386a918ff3a4c25ddb29e9f5f07a051d9b37379b511695519651928851906149796080836121e8565b8782528816602082015262ffffff841689820152015260801b1692841b1617176002555191829182919091604080606083019480518452602081015160208501520151910152565b0390a1565b600484517f0f9f8b19000000000000000000000000000000000000000000000000000000008152fd5b60046040517f0f9f8b19000000000000000000000000000000000000000000000000000000008152fd5b614a2161279e565b5060405190614a316080836121e8565b5467ffffffffffffffff91828216928382528260401c169081602082015260607fffffffffffffffffffffffffff0000000000000000000000000000000000000062ffffff8560801c16948560408501521691015260405192614a956060856121e8565b83526020830152604082015290565b7fffffffffffffffffffffffffffffffffffffffffffffffffffffffffffffffff81146124085760010190565b614ad961279e565b5060405190614ae96080836121e8565b5473ffffffffffffffffffffffffffffffffffffffff81169182815263ffffffff9060607fffffffff00000000000000000000000000000000000000000000000000000000838560a01c16938460208501528560c01c16948560408501521691015260405192614a956060856121e8565b90614b6e60c083015160e084015190612af4565b91620f424090818402938085048314901517156124085783614b9257505050505f90565b60a001519181810291818304149015171561240857614bb091612aaa565b9081614bbc5750505f90565b7fffffffffffffffffffffffffffffffffffffffffffffffffffffffffffffffff820191821161240857614bef91612abd565b6001810180911115612769577f4e487b71000000000000000000000000000000000000000000000000000000005f52601160045260245ffd5b906002614c35838361553f565b03614c405750505f90565b612769916144f3565b5f8112614c535790565b602490604051907fb02ef0870000000000000000000000000000000000000000000000000000000082526004820152fd5b600280614c9a67ffffffffffffffff855161553f565b146150005780614cb667ffffffffffffffff602086015161553f565b146150005780614cd267ffffffffffffffff604086015161553f565b1461500057677fffffffffffffff81614cef826060870151615654565b14615000577fffffffffffffffffffffffffffffffffffffffffffffffff800000000000000090614d24826060870151615654565b1561500057614d3883916080870151615654565b1461500057614d4b906080850151615654565b1561500057614d6667ffffffffffffffff60a085015161553f565b146150005763ffffffff60c0830151116150005763ffffffff60e0830151116150005763ffffffff6101008301511161500057815167ffffffffffffffff1691602081015167ffffffffffffffff1691604082015167ffffffffffffffff169060608301519060808401519060a085015167ffffffffffffffff169260c08601519461010087015163ffffffff169660e0015163ffffffff1697604051614e0f610140826121e8565b8a81528160208201528260408201528360070b60608201528560070b60808201528660a082015263ffffffff881660c08201528860e082015289610100820152610120015f90527fffffffffffffffffffffffffffffffffffffffffffffffff0000000000000000998a855416178455614ec59084907fffffffffffffffffffffffffffffffff0000000000000000ffffffffffffffff6fffffffffffffffff000000000000000083549260401b169116179055565b82546fffffffffffffffffffffffffffffffff1677ffffffffffffffff0000000000000000000000000000000060809290921b91909116177fffffffffffffffff00000000000000000000000000000000000000000000000060c09290921b9190911617815560010180547fffffffffffffffffffffffffffffffff0000000000000000ffffffffffffffff97169690961667ffffffffffffffff9091161760409190911b6fffffffffffffffff00000000000000001617845583546fffffffffffffffffffffffffffffffff1660809190911b73ffffffff00000000000000000000000000000000161777ffffffff000000000000000000000000000000000000000060a09290921b91909116177bffffffff00000000000000000000000000000000000000000000000060c09290921b91909116179055565b60046040517fba85116a000000000000000000000000000000000000000000000000000000008152fd5b5173ffffffffffffffffffffffffffffffffffffffff16919081156150d1576020810151915b156150ca576040810151905b5192803b1561028e575f928360a49260405196879586947ffe90945e0000000000000000000000000000000000000000000000000000000086523060048701526024860152604485015260648401528160848401525af1801561029a576150c05750565b5f614758916121e8565b5f9061505c565b5f91615050565b9063ffffffff908181511161538d57602081018281511161538d576040928383019467ffffffffffffffff92600261511185895161553f565b14615364576060850192600261512886865161553f565b1461533b576080860194600261513f82885161553f565b146153125760a08701966002615156838a5161553f565b146152e9578180848193511695519b511696511696511696519780519261517e60e0856121e8565b8484528a16602084015282015f90528460608301528560808301528660a083015287169060c00152815496817fffffffffffffffffffffffffffffffffffffffffffffffffffffffff00000000891617835560201b67ffffffff000000001680827fffffffffffffffffffffffffffffffffffffffffffffffff0000000000000000809a16171783551781556001019485541617845561525a9084907fffffffffffffffffffffffffffffffff0000000000000000ffffffffffffffff6fffffffffffffffff000000000000000083549260401b169116179055565b82547fffffffffffffffff0000000000000000ffffffffffffffffffffffffffffffff1660809190911b77ffffffffffffffff000000000000000000000000000000001617825581549060c01b7fffffffffffffffff000000000000000000000000000000000000000000000000169077ffffffffffffffffffffffffffffffffffffffffffffffff16179055565b600489517fb8a09499000000000000000000000000000000000000000000000000000000008152fd5b600488517fb8a09499000000000000000000000000000000000000000000000000000000008152fd5b600487517fb8a09499000000000000000000000000000000000000000000000000000000008152fd5b600486517fb8a09499000000000000000000000000000000000000000000000000000000008152fd5b60046040517fb8a09499000000000000000000000000000000000000000000000000000000008152fd5b906020810163ffffffff9160026153cf84845161553f565b14615515576040810160026153e585835161553f565b1461551557836154f19473ffffffffffffffffffffffffffffffffffffffff6154a4945116945116915116925f60606040516154226080826121e8565b83815284602082015286604082015201527fffffffffffffffffffffffff000000000000000000000000000000000000000086541617855584907fffffffffffffffff00000000ffffffffffffffffffffffffffffffffffffffff77ffffffff000000000000000000000000000000000000000083549260a01b169116179055565b82547fffffffff00000000ffffffffffffffffffffffffffffffffffffffffffffffff1660c09190911b7bffffffff00000000000000000000000000000000000000000000000016178255565b7bffffffffffffffffffffffffffffffffffffffffffffffffffffffff8154169055565b60046040517f92f03c86000000000000000000000000000000000000000000000000000000008152fd5b818111615554571061555057600190565b5f90565b5050600290565b906107bf6127699261557560606040830151920151612a8e565b92612aaa565b949291908552615590606086019182516144f3565b916155a0604087019182516144f3565b9052526133c560a06155b760808601948551612af4565b9401918251612af4565b64e8d4a51000908181029181830414901517156124085790565b906107bf6127699260406155f26060830151612a8e565b91015192612aaa565b61560e815161275a6020840151846155db565b90608061561a836129c2565b910151905f82820392128183128116918313901516176124085761563d90612a8e565b8161564757505090565b6107bf9061276993612aaa565b818113615554571261555057600190565b929192604081019081511561575e576060019161568a6156858451612a8e565b6155c1565b9061569583516155c1565b91670de0b6b3a76400009283820291808304851490151715612408576156ba91612abd565b80821115615758575080955b86821561574c57506156fd929164e8d4a510006156eb6040615705940151928a6144f3565b93620f42409586956134b889516155c1565b040490612aaa565b049161571a836157158651612a8e565b6144f3565b15615744579161571561573e9261573661276996955184612aaa565b049351612a8e565b906157ef565b505050505f90565b96505f95945050505050565b956156c6565b5050509050670de0b6b3a7640000905f90565b6040810151156144ef5761449a600182614b5a565b90806157bc575061579857620f424090565b7fffffffffffffffffffffffffffffffffffffffffffffffffffffffffffffffff90565b612769916157ef565b5f81136157e5575f136157d757505f90565b6157e0906129c2565b5f0390565b50612769906129c2565b90620f4240918281029281840414901517156124085761276991612abd565b6040905f82516101809061582282826121e8565b82819561582d61279e565b8352818151816101409361584185846121e8565b81835281602084015281818401528160608401528160808401528160a08401528160c08401528160e084015261010090828285015261012093838582015260208901528051906158936101a0836121e8565b8382528360208301526158a4612486565b818301526158b061279e565b60608301528360808301528360a08301528360c08301526158cf612486565b60e08301526158dc61279e565b8383015283858301528387830152836101609a818c850152830152880152615902612486565b606088015261590f612486565b608088015261591c612486565b60a0880152615929612486565b60c08801528160e08801528601528401528201520152565b6020916159d49173ffffffffffffffffffffffffffffffffffffffff165f8061596986612a54565b9361597760405195866121e8565b8685527f5361666545524332303a206c6f772d6c6576656c2063616c6c206661696c656487860152868151910182855af13d15615a82573d916159b983612a54565b926159c760405194856121e8565b83523d5f8785013e615d0b565b8051806159e057505050565b8183918101031261028e57816159f691016126bc565b156159fe5750565b608490604051907f08c379a00000000000000000000000000000000000000000000000000000000082526004820152602a60248201527f5361666545524332303a204552433230206f7065726174696f6e20646964206e60448201527f6f742073756363656564000000000000000000000000000000000000000000006064820152fd5b606091615d0b565b919082608091031261028e57604051615aa46080826121e8565b60608082948051845260208101516020850152604081015160408501520151910152565b80916101a0928391031261028e57615ae360405192836121e8565b805182526020810151602083015260408101516040830152606081015160608301526080810151608083015260a081015160a083015260c081015160c083015260e081015160e08301526101008082015190830152610120808201519083015261014080820151908301526101608082015190830152610180809101519082015290565b815181526020810190615b7a82516129c2565b615b8760608501516129c2565b90615b9560808601516129c2565b915f8382039312818412811691841390151617612408575f828201928312911290801582169115161761240857615bcb90614c49565b926040820190615bdb82516129c2565b615be860a08301516129c2565b90615bf660c08401516129c2565b915f8382039312818412811691841390151617612408575f828201928312911290801582169115161761240857615c2e606091614c49565b930190615c3b82516129c2565b615c56610100615c4e60e08501516129c2565b9301516129c2565b915f8382039312818412811691841390151617612408575f828201928312911290801582169115161761240857615c8c90614c49565b90525252565b6020604082015160608301518082115f14615cbd5750915b015180821115615cb8575090565b905090565b905091615caa565b918215615744576020615cf59201515f8112155f14615d0357925b615cef620f4240948592612aaa565b04612aaa565b049080821115615cb8575090565b5f0392615ce0565b91929015615d865750815115615d1f575090565b3b15615d285790565b60646040517f08c379a000000000000000000000000000000000000000000000000000000000815260206004820152601d60248201527f416464726573733a2063616c6c20746f206e6f6e2d636f6e74726163740000006044820152fd5b825190915015615d995750805190602001fd5b615dcf906040519182917f08c379a00000000000000000000000000000000000000000000000000000000083526004830161219e565b0390fdfea2646970667358221220be1cc7af7bfe019de2d294d2914c97c4a3c04db96d2e0f8fb22a2b96e7d6f5f364736f6c63430008180033"
}