{
  "address": "0x5d3A779CEa67947927bF78c61473778c46A97236",
  "abi": [
    {
      "inputs": [
        {
          "internalType": "Token6",
          "name": "usdc_",
          "type": "address"
        },
        {
          "internalType": "Token18",
          "name": "dsu_",
          "type": "address"
        },
        {
          "internalType": "contract IFactory",
          "name": "marketFactory_",
          "type": "address"
        },
        {
          "internalType": "contract IFactory",
          "name": "makerVaultFactory_",
          "type": "address"
        },
        {
          "internalType": "contract IFactory",
          "name": "solverVaultFactory_",
          "type": "address"
        },
        {
          "internalType": "contract IBatcher",
          "name": "batcher_",
          "type": "address"
        },
        {
          "internalType": "contract IEmptySetReserve",
          "name": "reserve_",
          "type": "address"
        },
        {
          "internalType": "uint256",
          "name": "keepBufferBase_",
          "type": "uint256"
        },
        {
          "internalType": "uint256",
          "name": "keepBufferCalldata_",
          "type": "uint256"
        }
      ],
      "stateMutability": "nonpayable",
      "type": "constructor"
    },
    {
      "inputs": [],
      "name": "DivisionByZero",
      "type": "error"
    },
    {
      "inputs": [
        {
          "internalType": "uint256",
          "name": "value",
          "type": "uint256"
        }
      ],
      "name": "Fixed18OverflowError",
      "type": "error"
    },
    {
      "inputs": [
        {
          "internalType": "uint256",
          "name": "value",
          "type": "uint256"
        }
      ],
      "name": "Fixed6OverflowError",
      "type": "error"
    },
    {
      "inputs": [
        {
          "internalType": "uint256",
          "name": "version",
          "type": "uint256"
        }
      ],
      "name": "InitializableAlreadyInitializedError",
      "type": "error"
    },
    {
      "inputs": [],
      "name": "InitializableNotInitializingError",
      "type": "error"
    },
    {
      "inputs": [],
      "name": "InitializableZeroVersionError",
      "type": "error"
    },
    {
      "inputs": [],
      "name": "MultiInvokerCantExecuteError",
      "type": "error"
    },
    {
      "inputs": [],
      "name": "MultiInvokerInvalidInstanceError",
      "type": "error"
    },
    {
      "inputs": [],
      "name": "MultiInvokerInvalidOrderError",
      "type": "error"
    },
    {
      "inputs": [],
      "name": "MultiInvokerMaxFeeExceededError",
      "type": "error"
    },
    {
      "inputs": [],
      "name": "MultiInvokerOrderMustBeSingleSidedError",
      "type": "error"
    },
    {
      "inputs": [],
      "name": "MultiInvokerUnauthorizedError",
      "type": "error"
    },
    {
      "inputs": [],
      "name": "TriggerOrderStorageInvalidError",
      "type": "error"
    },
    {
      "inputs": [
        {
          "internalType": "int256",
          "name": "value",
          "type": "int256"
        }
      ],
      "name": "UFixed18UnderflowError",
      "type": "error"
    },
    {
      "inputs": [
        {
          "internalType": "int256",
          "name": "value",
          "type": "int256"
        }
      ],
      "name": "UFixed6UnderflowError",
      "type": "error"
    },
    {
      "anonymous": false,
      "inputs": [
        {
          "indexed": false,
          "internalType": "uint256",
          "name": "version",
          "type": "uint256"
        }
      ],
      "name": "Initialized",
      "type": "event"
    },
    {
      "anonymous": false,
      "inputs": [
        {
          "indexed": true,
          "internalType": "address",
          "name": "account",
          "type": "address"
        },
        {
          "indexed": true,
          "internalType": "contract IMarket",
          "name": "market",
          "type": "address"
        },
        {
          "components": [
            {
              "internalType": "UFixed6",
              "name": "amount",
              "type": "uint256"
            },
            {
              "internalType": "address",
              "name": "receiver",
              "type": "address"
            }
          ],
          "indexed": false,
          "internalType": "struct InterfaceFee",
          "name": "fee",
          "type": "tuple"
        }
      ],
      "name": "InterfaceFeeCharged",
      "type": "event"
    },
    {
      "anonymous": false,
      "inputs": [
        {
          "indexed": true,
          "internalType": "address",
          "name": "sender",
          "type": "address"
        },
        {
          "indexed": false,
          "internalType": "uint256",
          "name": "applicableGas",
          "type": "uint256"
        },
        {
          "indexed": false,
          "internalType": "uint256",
          "name": "applicableValue",
          "type": "uint256"
        },
        {
          "indexed": false,
          "internalType": "UFixed18",
          "name": "baseFee",
          "type": "uint256"
        },
        {
          "indexed": false,
          "internalType": "UFixed18",
          "name": "calldataFee",
          "type": "uint256"
        },
        {
          "indexed": false,
          "internalType": "UFixed18",
          "name": "keeperFee",
          "type": "uint256"
        }
      ],
      "name": "KeeperCall",
      "type": "event"
    },
    {
      "anonymous": false,
      "inputs": [
        {
          "indexed": true,
          "internalType": "address",
          "name": "account",
          "type": "address"
        },
        {
          "indexed": true,
          "internalType": "address",
          "name": "market",
          "type": "address"
        },
        {
          "indexed": true,
          "internalType": "address",
          "name": "to",
          "type": "address"
        },
        {
          "indexed": false,
          "internalType": "UFixed6",
          "name": "fee",
          "type": "uint256"
        }
      ],
      "name": "KeeperFeeCharged",
      "type": "event"
    },
    {
      "anonymous": false,
      "inputs": [
        {
          "indexed": true,
          "internalType": "address",
          "name": "account",
          "type": "address"
        },
        {
          "indexed": true,
          "internalType": "address",
          "name": "operator",
          "type": "address"
        },
        {
          "indexed": false,
          "internalType": "bool",
          "name": "newEnabled",
          "type": "bool"
        }
      ],
      "name": "OperatorUpdated",
      "type": "event"
    },
    {
      "anonymous": false,
      "inputs": [
        {
          "indexed": true,
          "internalType": "address",
          "name": "account",
          "type": "address"
        },
        {
          "indexed": true,
          "internalType": "contract IMarket",
          "name": "market",
          "type": "address"
        },
        {
          "indexed": false,
          "internalType": "uint256",
          "name": "nonce",
          "type": "uint256"
        }
      ],
      "name": "OrderCancelled",
      "type": "event"
    },
    {
      "anonymous": false,
      "inputs": [
        {
          "indexed": true,
          "internalType": "address",
          "name": "account",
          "type": "address"
        },
        {
          "indexed": true,
          "internalType": "contract IMarket",
          "name": "market",
          "type": "address"
        },
        {
          "indexed": false,
          "internalType": "uint256",
          "name": "nonce",
          "type": "uint256"
        }
      ],
      "name": "OrderExecuted",
      "type": "event"
    },
    {
      "anonymous": false,
      "inputs": [
        {
          "indexed": true,
          "internalType": "address",
          "name": "account",
          "type": "address"
        },
        {
          "indexed": true,
          "internalType": "contract IMarket",
          "name": "market",
          "type": "address"
        },
        {
          "indexed": true,
          "internalType": "uint256",
          "name": "nonce",
          "type": "uint256"
        },
        {
          "components": [
            {
              "internalType": "uint8",
              "name": "side",
              "type": "uint8"
            },
            {
              "internalType": "int8",
              "name": "comparison",
              "type": "int8"
            },
            {
              "internalType": "UFixed6",
              "name": "fee",
              "type": "uint256"
            },
            {
              "internalType": "Fixed6",
              "name": "price",
              "type": "int256"
            },
            {
              "internalType": "Fixed6",
              "name": "delta",
              "type": "int256"
            },
            {
              "components": [
                {
                  "internalType": "UFixed6",
                  "name": "amount",
                  "type": "uint256"
                },
                {
                  "internalType": "address",
                  "name": "receiver",
                  "type": "address"
                }
              ],
              "internalType": "struct InterfaceFee",
              "name": "interfaceFee1",
              "type": "tuple"
            },
            {
              "components": [
                {
                  "internalType": "UFixed6",
                  "name": "amount",
                  "type": "uint256"
                },
                {
                  "internalType": "address",
                  "name": "receiver",
                  "type": "address"
                }
              ],
              "internalType": "struct InterfaceFee",
              "name": "interfaceFee2",
              "type": "tuple"
            }
          ],
          "indexed": false,
          "internalType": "struct TriggerOrder",
          "name": "order",
          "type": "tuple"
        }
      ],
      "name": "OrderPlaced",
      "type": "event"
    },
    {
      "inputs": [],
      "name": "DSU",
      "outputs": [
        {
          "internalType": "Token18",
          "name": "",
          "type": "address"
        }
      ],
      "stateMutability": "view",
      "type": "function"
    },
    {
      "inputs": [],
      "name": "OPT_BASE_FEE_MULTIPLIER",
      "outputs": [
        {
          "internalType": "uint256",
          "name": "",
          "type": "uint256"
        }
      ],
      "stateMutability": "view",
      "type": "function"
    },
    {
      "inputs": [],
      "name": "USDC",
      "outputs": [
        {
          "internalType": "Token6",
          "name": "",
          "type": "address"
        }
      ],
      "stateMutability": "view",
      "type": "function"
    },
    {
      "inputs": [],
      "name": "batcher",
      "outputs": [
        {
          "internalType": "contract IBatcher",
          "name": "",
          "type": "address"
        }
      ],
      "stateMutability": "view",
      "type": "function"
    },
    {
      "inputs": [
        {
          "internalType": "address",
          "name": "account",
          "type": "address"
        },
        {
          "internalType": "contract IMarket",
          "name": "market",
          "type": "address"
        },
        {
          "internalType": "uint256",
          "name": "nonce",
          "type": "uint256"
        }
      ],
      "name": "canExecuteOrder",
      "outputs": [
        {
          "internalType": "bool",
          "name": "",
          "type": "bool"
        }
      ],
      "stateMutability": "view",
      "type": "function"
    },
    {
      "inputs": [
        {
          "internalType": "address",
          "name": "account",
          "type": "address"
        },
        {
          "internalType": "bool",
          "name": "unwrap",
          "type": "bool"
        }
      ],
      "name": "claim",
      "outputs": [],
      "stateMutability": "nonpayable",
      "type": "function"
    },
    {
      "inputs": [
        {
          "internalType": "address",
          "name": "",
          "type": "address"
        }
      ],
      "name": "claimable",
      "outputs": [
        {
          "internalType": "UFixed6",
          "name": "",
          "type": "uint256"
        }
      ],
      "stateMutability": "view",
      "type": "function"
    },
    {
      "inputs": [],
      "name": "ethTokenOracleFeed",
      "outputs": [
        {
          "internalType": "contract AggregatorV3Interface",
          "name": "",
          "type": "address"
        }
      ],
      "stateMutability": "view",
      "type": "function"
    },
    {
      "inputs": [
        {
          "internalType": "contract AggregatorV3Interface",
          "name": "ethOracle_",
          "type": "address"
        }
      ],
      "name": "initialize",
      "outputs": [],
      "stateMutability": "nonpayable",
      "type": "function"
    },
    {
      "inputs": [
        {
          "components": [
            {
              "internalType": "enum IMultiInvoker.PerennialAction",
              "name": "action",
              "type": "uint8"
            },
            {
              "internalType": "bytes",
              "name": "args",
              "type": "bytes"
            }
          ],
          "internalType": "struct IMultiInvoker.Invocation[]",
          "name": "invocations",
          "type": "tuple[]"
        }
      ],
      "name": "invoke",
      "outputs": [],
      "stateMutability": "payable",
      "type": "function"
    },
    {
      "inputs": [
        {
          "internalType": "address",
          "name": "account",
          "type": "address"
        },
        {
          "components": [
            {
              "internalType": "enum IMultiInvoker.PerennialAction",
              "name": "action",
              "type": "uint8"
            },
            {
              "internalType": "bytes",
              "name": "args",
              "type": "bytes"
            }
          ],
          "internalType": "struct IMultiInvoker.Invocation[]",
          "name": "invocations",
          "type": "tuple[]"
        }
      ],
      "name": "invoke",
      "outputs": [],
      "stateMutability": "payable",
      "type": "function"
    },
    {
      "inputs": [],
      "name": "keepBufferBase",
      "outputs": [
        {
          "internalType": "uint256",
          "name": "",
          "type": "uint256"
        }
      ],
      "stateMutability": "view",
      "type": "function"
    },
    {
      "inputs": [],
      "name": "keepBufferCalldata",
      "outputs": [
        {
          "internalType": "uint256",
          "name": "",
          "type": "uint256"
        }
      ],
      "stateMutability": "view",
      "type": "function"
    },
    {
      "inputs": [],
      "name": "keeperToken",
      "outputs": [
        {
          "internalType": "Token18",
          "name": "",
          "type": "address"
        }
      ],
      "stateMutability": "view",
      "type": "function"
    },
    {
      "inputs": [],
      "name": "latestNonce",
      "outputs": [
        {
          "internalType": "uint256",
          "name": "",
          "type": "uint256"
        }
      ],
      "stateMutability": "view",
      "type": "function"
    },
    {
      "inputs": [],
      "name": "makerVaultFactory",
      "outputs": [
        {
          "internalType": "contract IFactory",
          "name": "",
          "type": "address"
        }
      ],
      "stateMutability": "view",
      "type": "function"
    },
    {
      "inputs": [],
      "name": "marketFactory",
      "outputs": [
        {
          "internalType": "contract IFactory",
          "name": "",
          "type": "address"
        }
      ],
      "stateMutability": "view",
      "type": "function"
    },
    {
      "inputs": [
        {
          "internalType": "address",
          "name": "",
          "type": "address"
        },
        {
          "internalType": "address",
          "name": "",
          "type": "address"
        }
      ],
      "name": "operators",
      "outputs": [
        {
          "internalType": "bool",
          "name": "",
          "type": "bool"
        }
      ],
      "stateMutability": "view",
      "type": "function"
    },
    {
      "inputs": [
        {
          "internalType": "address",
          "name": "account",
          "type": "address"
        },
        {
          "internalType": "contract IMarket",
          "name": "market",
          "type": "address"
        },
        {
          "internalType": "uint256",
          "name": "nonce",
          "type": "uint256"
        }
      ],
      "name": "orders",
      "outputs": [
        {
          "components": [
            {
              "internalType": "uint8",
              "name": "side",
              "type": "uint8"
            },
            {
              "internalType": "int8",
              "name": "comparison",
              "type": "int8"
            },
            {
              "internalType": "UFixed6",
              "name": "fee",
              "type": "uint256"
            },
            {
              "internalType": "Fixed6",
              "name": "price",
              "type": "int256"
            },
            {
              "internalType": "Fixed6",
              "name": "delta",
              "type": "int256"
            },
            {
              "components": [
                {
                  "internalType": "UFixed6",
                  "name": "amount",
                  "type": "uint256"
                },
                {
                  "internalType": "address",
                  "name": "receiver",
                  "type": "address"
                }
              ],
              "internalType": "struct InterfaceFee",
              "name": "interfaceFee1",
              "type": "tuple"
            },
            {
              "components": [
                {
                  "internalType": "UFixed6",
                  "name": "amount",
                  "type": "uint256"
                },
                {
                  "internalType": "address",
                  "name": "receiver",
                  "type": "address"
                }
              ],
              "internalType": "struct InterfaceFee",
              "name": "interfaceFee2",
              "type": "tuple"
            }
          ],
          "internalType": "struct TriggerOrder",
          "name": "",
          "type": "tuple"
        }
      ],
      "stateMutability": "view",
      "type": "function"
    },
    {
      "inputs": [],
      "name": "reserve",
      "outputs": [
        {
          "internalType": "contract IEmptySetReserve",
          "name": "",
          "type": "address"
        }
      ],
      "stateMutability": "view",
      "type": "function"
    },
    {
      "inputs": [],
      "name": "solverVaultFactory",
      "outputs": [
        {
          "internalType": "contract IFactory",
          "name": "",
          "type": "address"
        }
      ],
      "stateMutability": "view",
      "type": "function"
    },
    {
      "inputs": [
        {
          "internalType": "address",
          "name": "operator",
          "type": "address"
        },
        {
          "internalType": "bool",
          "name": "newEnabled",
          "type": "bool"
        }
      ],
      "name": "updateOperator",
      "outputs": [],
      "stateMutability": "nonpayable",
      "type": "function"
    }
  ],
  "transactionHash": "0x0c936e0de60d16ab80cdf7a4a697c6ce78c65a837e379deae73f5d402dc8dca5",
  "args": [
    "0x39CD9EF9E511ec008247aD5DA01245D84a9521be",
    "0x7b4Adf64B0d60fF97D672E473420203D52562A84",
    "0xC27399bE9E39f7F6b1f94fBd512F5c2aD2b5eDb7",
    "0xAEf566ca7E84d1E736f999765a804687f39D9094",
    "0x6a16E496e2fe24FD191b7Fe676dA481fC1a9e174",
    "0x0000000000000000000000000000000000000000",
    "0x0d49c416103Cbd276d9c3cd96710dB264e3A0c27",
    1500000,
    21200
  ],
  "numDeployments": 1,
  "solcInputHash": "13fbd4c9a5d6d490d166e584cc031203",
  "bytecode": "0x6101a034620002c95762005bcd38819003601f8101601f191683016001600160401b03811184821017620002cd5783928291604052833961012091829181010312620002c9576200005082620002e1565b6200005e60208401620002e1565b6200006c60408501620002e1565b6200007a60608601620002e1565b6200008860808701620002e1565b60a08701516001600160a01b03939092908484168403620002c95760c08901519485168503620002c95760e089015195610100809a01519760805260a05260c05260e05286528452610140908152610160918252610180928352604051936158d69586620002f787396080518681816125800152818161451701528181614cda01528181614de6015281816151ea015261531b015260a05186818161038201528181610474015281816108f6015281816116870152818161177f01528181611db601528181611e9701528181611ebe01528181611fe0015281816124d6015281816127a20152818161288501528181612cd801528181612d7d015281816138bf015281816139b701528181613f8e0152818161405a015281816141670152818161446e01528181614e35015281816152d9015261534e015260c051868181610343015281816106b601528181610ba40152818161164801528181611f8e015281816121dd0152818161276301528181612aa001528181612f620152818161388001528181614119015281816143410152614712015260e0518681816108b2015281816120b701528181612c8e0152818161422b01526145c8015251858181610a140152818161202101528181612de0015281816141a1015261460c01525184818161252e0152818161475301528181614ca801526152180152518381816124290152818161255701528181614d08015261524a01525182818161104f0152818161236d01526132f401525181818161107b0152818161233301526133200152f35b5f80fd5b634e487b7160e01b5f52604160045260245ffd5b51906001600160a01b0382168203620002c95756fe6080806040526004361015610012575f80fd5b5f3560e01c908163025a3a29146147415750806306ae7095146146fd5780632637588e146146a757806332878cc914614673578063402914f51461463b57806344fb2b4b146145f75780635b770dce146145b35780636d44a3b21461454657806389a302711461450257806392fd2daf1461449d578063a2060bcf14614459578063b20caf4514614425578063bdec4a2714612618578063c4d66de814612458578063cd3293de14612414578063cf542a4d146123f8578063db904902146123dd578063dd02df16146123b3578063df80522a14612390578063f331efef14612356578063f3a8f3561461231c5763f5ad71261461010e575f80fd5b60403660031901126104ed57610122614782565b6024356001600160401b0381116104ed576101419036906004016147c7565b906001600160a01b038316331415806122f3575b6122e1575f5b82811061022f57478047106101ea575f80808093335af161017a615111565b501561018257005b60405162461bcd60e51b815260206004820152603a60248201527f416464726573733a20756e61626c6520746f2073656e642076616c75652c20726044820152791958da5c1a595b9d081b585e481a185d99481c995d995c9d195960321b6064820152608490fd5b60405162461bcd60e51b815260206004820152601d60248201527f416464726573733a20696e73756666696369656e742062616c616e63650000006044820152606490fd5b8060051b820135603e19833603018112156104ed5782016040813603126104ed576040519061025d826148a4565b8035600b8110156104ed57825260208101356001600160401b0381116104ed5736601f8284010112156104ed5761029c91369101803590602001614e74565b60208201528051600b8110156122cd5760010361055d5760200151908151820161014083602083019203126104ed576102d760208401614eaa565b9260408101519360608201519160808101519060a0810151936103176102ff60c08401614b44565b966101206103108260e08701614f21565b9401614f21565b60405163032bb44360e01b81526001600160a01b038681166004830152919691602090829060249082907f0000000000000000000000000000000000000000000000000000000000000000165afa9081156104e2575f91610523575b5015610511576103ab6103a6307f0000000000000000000000000000000000000000000000000000000000000000615140565b615390565b938c8860016103b9856153b8565b146104f7575b505060208401516001600160a01b0316806104f1575060208701516001600160a01b0316925b6001600160a01b0387163b156104ed578d9a6040519b63977b1f5f60e01b8d5260018060a01b031660048d015260248c015260448b015260648a015260848901525f60a489015260018060a01b031660c48801525f8760e4818360018060a01b0388165af19485156104e25764e8d4a5100061049d6104ae9460019a6104b4996104d3575b506104986103a6307f0000000000000000000000000000000000000000000000000000000000000000615140565b6153d4565b0590816104ba575b5050828a6153ec565b876153ec565b0161015b565b6104c66104cc926156a1565b8c614e16565b5f806104a5565b6104dc906148bf565b5f61046a565b6040513d5f823e3d90fd5b5f80fd5b926103e5565b61050a91610504856156a1565b90615309565b8c886103bf565b60405163047b7c1b60e41b8152600490fd5b90506020813d602011610555575b8161053e60209383614976565b810103126104ed5761054f90614b44565b5f610373565b3d9150610531565b8051600b8110156122cd5760090361082f57602001519081518201916101c0818403126104ed5761059060208201614eaa565b92610180828203601f1901126104ed57604051916105ad83614909565b6040810151835260608101516020840152608081015160408401526105d460a08201614eaa565b60608401526105e560c08201614eaa565b608084015260e081015160a084015260c081830360df1901126104ed5760405161060e81614940565b61061b6101008301614eaa565b815261062a6101208301614eaa565b602082015261063c6101408301614eaa565b6040820152610160820151606082015261018082015160808201526101a082015160a082015260c08401526101c0810151916001600160401b0383116104ed5761068d926020809201920101614edf565b60405163032bb44360e01b81526001600160a01b038581166004830152602090829060249082907f0000000000000000000000000000000000000000000000000000000000000000165afa9081156104e2575f916107f5575b5015610511576001600160a01b0384163b156104ed576040805163736a01df60e01b81526001600160a01b03808a16600483015284516024830152602080860151604484015283860151606484015260608087015183166084850152608080880151841660a486015260a08881015160c487015260c0909801518051851660e48701529283015184166101048601529482015190921661012484015290810151610144830152918201516101648201529201516101848301526101c06101a483015290925f918491908290849082906107c4906101c48301906150ec565b03926001600160a01b03165af19182156104e2576001926107e6575b506104b4565b6107ef906148bf565b5f6107e0565b90506020813d602011610827575b8161081060209383614976565b810103126104ed5761082190614b44565b5f6106e6565b3d9150610803565b8051600b8110156122cd57600203610abf57602001519081805160a0938491810103126104ed5760208101516001600160a01b03811681036104ed5760408201519061088660608401519560808501519401614b44565b60405163032bb44360e01b81526001600160a01b038381166004830152919491602090829060249082907f0000000000000000000000000000000000000000000000000000000000000000165afa9081156104e2575f91610a85575b5015806109ea575b61051157826109da575b7f0000000000000000000000000000000000000000000000000000000000000000916109203084615140565b936001600160a01b0382163b156104ed57604051636961d57960e11b81526001600160a01b03808d16600483015260248201929092526044810198909852606488018390525f91889160849183918591165af19586156104e2576001966109cb575b506109aa5750505f905b81610999575b50506104b4565b6109a39187614e16565b5f80610992565b64e8d4a51000916109bf6109c4923090615140565b6151ab565b049061098c565b6109d4906148bf565b5f610982565b6109e584848b615309565b6108f4565b5060405163032bb44360e01b81526001600160a01b038381166004830152602090829060249082907f0000000000000000000000000000000000000000000000000000000000000000165afa9081156104e2575f91610a4b575b50156108ea565b90506020813d602011610a7d575b81610a6660209383614976565b810103126104ed57610a7790614b44565b5f610a44565b3d9150610a59565b90506020813d602011610ab7575b81610aa060209383614976565b810103126104ed57610ab190614b44565b5f6108e2565b3d9150610a93565b8051600b8110156122cd57600303610f3757602001519081518201918083039261014084126104ed57610120610af760208401614eaa565b94601f1901126104ed5760405191610b0e83614909565b604081015160ff811681036104ed578352606081015191825f0b83036104ed57602061012091610b7694828701526080840151604087015260a0840151606087015260c08401516080870152610b6982820160e08601614f21565b60a0870152019101614f21565b60c082015260405163032bb44360e01b81526001600160a01b038481166004830152602090829060249082907f0000000000000000000000000000000000000000000000000000000000000000165afa9081156104e2575f91610efd575b501561051157604081015115610ea35760208101515f0b5f198114159081610ef1575b50610ea35760ff81511660038111908115610eb5575b50610ea3576001600160a01b038681165f908152600160209081526040808320938716835292905290812090545f198114610e8f57600101805f555f5260205260405f209260ff8083511611610e7d57607f60208301515f0b13610e7d57607f1960208301515f0b12610e7d576002610c896040840151615553565b14610e7d576002610c9d606084015161574d565b14610e7d57610caf606083015161571a565b15610e7d576002610cc3608084015161574d565b14610e7d57610cd5608083015161571a565b15610e7d576002610cea60a084015151615578565b14610e7d576002610cff60c084015151615578565b14610e7d5765ffffffffffff60c0610e4084600197600260ff83511691602084015192604085015160608601519060808701519261ff0060a0890151976001610160815f9260a01b0360208c0151169e8f9b51169d8e9c01519a60018c60208265ffffffffffff9360a01b03910151169c51169c60405191610d8083614924565b87835285850b602084015260018060401b03891660408401528960070b60608401528a60070b60808401528460a084015260c083015260e0820152826101008201528b6101208201528c610140820152015260081b161790620100008f60501b039060101b1617908d60501b8e60901b039060501b1617908c60901b8d60d01b039060901b16178155610e258b8201968c8060a01b03199889895416178855876151b8565b8a8060d01b03958681541690550194855416178455836151b8565b81541690555f54915f8051602061582183398151915260405192868060a01b03169280610e75888060a01b038c169482614844565b0390a46104b4565b60405163f3469aa760e01b8152600490fd5b634e487b7160e01b5f52601160045260245ffd5b6040516316d7df6b60e31b8152600490fd5b600391501480610ec6575b5f610c0d565b50610ed46080820151615735565b60028114908115610ee6575b50610ec0565b60019150145f610ee0565b6001915014155f610bf7565b90506020813d602011610f2f575b81610f1860209383614976565b810103126104ed57610f2990614b44565b5f610bd4565b3d9150610f0b565b8051600b8110156122cd57600403610fd05760200151906040828051810103126104ed57816040610f6c602060019501614eaa565b910151838060a01b0387165f528360205260405f2091848060a01b031691825f5260205260405f20815f526020525f600260408220828155828782015501556040519081525f805160206158018339815191526020858060a01b03891692a36104b4565b8051600b8110156122cd57600503611cbd5760200151906060828051810103126104ed5761100060208301614eaa565b606061100e60408501614eaa565b93015161102581856001600160a01b038516614b51565b15611cab5761103e81856001600160a01b0385166149f8565b60405161104a816148d2565b5f81527f000000000000000000000000000000000000000000000000000000000000000060208201525f60408201527f0000000000000000000000000000000000000000000000000000000000000000606082015260408201516040519060018060a01b038616602083015260018060a01b03881660408301526060820152606081526110d6816148d2565b604051916110e38361495b565b5f83525f6020840152670de0b6b3a7640000611122825161111d8361110c602087015193615057565b04611117489361503a565b906155dd565b615065565b0492611155602060606040850151940151926040518093819263de26c4a160e01b835284600484015260248301906150ec565b0381600f602160991b015afa9081156104e2575f91611c79575b506040516318b30b2360e31b8152602081600481600f602160991b015afa9081156104e2575f91611c47575b506001600160fc1b0381168103610e8f5760405163519b4bd360e01b815290602082600481600f602160991b015afa9081156104e2575f91611c11575b6111e5925060041b615065565b60405163346aee5360e11b815290602082600481600f602160991b015afa9182156104e2575f92611bdd575b506040516303e0818560e61b8152602081600481600f602160991b015afa9081156104e2575f91611ba9575b506111179061124b93615065565b60405163313ce56760e01b81529092602082600481600f602160991b015afa9182156104e2575f92611b75575b50604d8211610e8f57600a82900a6001600160fc1b0381169003610e8f57611117670de0b6b3a76400006112c7819761111d6112c16112ce9961111d98600a0a60041b90615372565b9761503a565b049161503a565b04906112da82846155dd565b5f8051602061584183398151915254604051633fabe5a360e21b81529060a090829060049082906001600160a01b03165afa9081156104e2575f91611b28575b5080670de0b6b3a7640000810205670de0b6b3a76400001481151715610e8f575f6305f5e100670de0b6b3a764000083020512611b0057670de0b6b3a7640000916305f5e1008361136d93020590615065565b04906060818051810103126104ed5761138860208201614eaa565b606061139660408401614eaa565b9201519280611ad157506113c7906113cc935f905b80821015611ac757509283915b6001600160a01b0316906156b0565b615078565b906113e682335f8051602061588183398151915254615092565b604051925f84525f60208501526040840152606083015260808201525f8051602061586183398151915260a03392a26001600160a01b0385163b156104ed57604051636a256b2960e01b81526001600160a01b0384811660048301525f908290602490829084908b165af180156104e257611ab8575b5060405162dc326d60e71b81526001600160a01b0384811660048301526101a090829060249082908a165afa9081156104e2575f916119f6575b5060405163055f575160e41b81526001600160a01b0385811660048301529096906080908890602490829085165afa9687156104e2575f97611995575b50815187526114e560208801516155fe565b6115086114f560608501516155fe565b61150260808601516155fe565b906153d4565b80808301125f8312908015821691151617610e8f576115279101615627565b9161153560408901516155fe565b61155261154560a08401516155fe565b61150260c08501516155fe565b80808301125f8312908015821691151617610e8f576115719101615627565b9061159e61158260608b01516155fe565b9161150261010061159660e08401516155fe565b9201516155fe565b80808301125f8312908015821691151617610e8f576115bd9101615627565b606089015260408801528160208801525f9160ff84511615611949575b50600160ff845116146118ff575b600260ff845116146118b5575b600360ff8451161461188c575b602087015191606060408901519801519760c060a08601519501519160405163032bb44360e01b815260018060a01b038516600482015260208160248160018060a01b037f0000000000000000000000000000000000000000000000000000000000000000165afa9081156104e2575f91611852575b5015610511576116ab6103a6307f0000000000000000000000000000000000000000000000000000000000000000615140565b9960016116b7836153b8565b14611832575b60208701516001600160a01b03168061182c575060208401516001600160a01b0316925b6001600160a01b0386163b156104ed576040519663977b1f5f60e01b885260018060a01b038b16600489015260248801526044870152606486015260848501525f60a485015260018060a01b031660c48401525f8360e4818360018060a01b0387165af19081156104e2576117b95f805160206157e18339815191529564e8d4a510006117a360019c6020986117c7976104d357506104986103a6307f0000000000000000000000000000000000000000000000000000000000000000615140565b058061180d575b50848b8060a01b038a166153ec565b82898060a01b0388166153ec565b60a087901b8790039485165f8181528884526040808220939097168082529284528681208682528452868120818155808a018290556002015594519384529392a36104b4565b611819611826916156a1565b8c8060a01b038b16614c92565b5f6117aa565b926116e1565b61184d61183e836156a1565b6001600160a01b038b166151df565b6116bd565b90506020813d602011611884575b8161186d60209383614976565b810103126104ed5761187e90614b44565b5f611678565b3d9150611860565b90506080820151600161189e8261571a565b036118b05750600160ff1b5b90611602565b6118aa565b6080830180516118cc57505f5b60608801526115f5565b6118d960608901516155fe565b905180808301125f8312908015821691151617610e8f576118fa9101615627565b6118c2565b60808301805161191657505f5b60408801526115e8565b61192360408901516155fe565b905180808301125f8312908015821691151617610e8f576119449101615627565b61190c565b60808401908151155f146119665750505f5b60208801525f6115da565b61196f906155fe565b905180808301125f8312908015821691151617610e8f576119909101615627565b61195b565b9096506080813d6080116119ee575b816119b160809383614976565b810103126104ed576060604051916119c8836148d2565b80518352602081015160208401526040810151604084015201516060820152955f6114d3565b3d91506119a4565b90506101a0813d6101a011611ab0575b81611a146101a09383614976565b810103126104ed5760405190611a29826148ed565b805182526020810151602083015260408101516040830152606081015160608301526080810151608083015260a081015160a083015260c0808201519083015260e081015160e0830152610100808201519083015261012080820151908301526101408082015190830152610160808201519083015261018080910151908201525f611496565b3d9150611a06565b611ac1906148bf565b5f61145c565b90509283916113b8565b5f198101908111610e8f5764e8d4a51000900490600182018211610e8f576113cc9360016113c79301906113ab565b6024906305f5e100670de0b6b3a76400006040519263280f944f60e11b845202056004820152fd5b905060a0813d60a011611b6d575b81611b4360a09383614976565b810103126104ed57611b54816155ea565b50611b666080602083015192016155ea565b505f61131a565b3d9150611b36565b9091506020813d602011611ba1575b81611b9160209383614976565b810103126104ed5751905f611278565b3d9150611b84565b90506020813d602011611bd5575b81611bc460209383614976565b810103126104ed575161124b61123d565b3d9150611bb7565b9091506020813d602011611c09575b81611bf960209383614976565b810103126104ed5751905f611211565b3d9150611bec565b90506020823d602011611c3f575b81611c2c60209383614976565b810103126104ed576111e59151906111d8565b3d9150611c1f565b90506020813d602011611c71575b81611c6260209383614976565b810103126104ed57515f61119b565b3d9150611c55565b90506020813d602011611ca3575b81611c9460209383614976565b810103126104ed57515f61116f565b3d9150611c87565b6040516337a314b160e11b8152600490fd5b8051600b8110156122cd57600603611f3657602001518051810160c0828203126104ed57611ced60208301614eaa565b6040830151606084015191906001600160401b0383116104ed5760208401603f8487010112156104ed5784830160200151926001600160401b038411611f22578360051b9060405194611d436020840187614976565b855260208501809260208801604082858c010101116104ed576040838a0101915b604082858c0101018310611f125750505050608086015160a08701519095906001600160401b0381116104ed57611da860c091602080611daf9501918b0101614edf565b9701614b44565b95611dda307f0000000000000000000000000000000000000000000000000000000000000000615140565b956001600160a01b0385163b156104ed576040516301e298b960e41b815260606004820152955160648701819052869493608486019392915f905b808210611ef657505050611e4085935f979593859360248501526003198483030160448501526150ec565b03926001600160a01b03165af19081611ee7575b50611e855750611e62615111565b90611e7057506001906104b4565b60405190611e7d8261495b565b5f82526155a2565b6001929150611ebb611ee2916109bf307f0000000000000000000000000000000000000000000000000000000000000000615140565b337f0000000000000000000000000000000000000000000000000000000000000000615092565b6104b4565b611ef0906148bf565b5f611e54565b8251865289975060209586019590920191600190910190611e15565b8251815260209283019201611d64565b634e487b7160e01b5f52604160045260245ffd5b8051600b8110156122cd5760080361216a57602001516020818051810103126104ed576001600160a01b0390611f6e90602001614eaa565b60405163032bb44360e01b815291166004820181905291906020816024817f00000000000000000000000000000000000000000000000000000000000000006001600160a01b03165afa9081156104e2575f91612130575b50158061209a575b80612004575b61051157611ee26001927f0000000000000000000000000000000000000000000000000000000000000000614f50565b5060405163032bb44360e01b8152600481018390526020816024817f00000000000000000000000000000000000000000000000000000000000000006001600160a01b03165afa9081156104e2575f91612060575b5015611fd4565b90506020813d602011612092575b8161207b60209383614976565b810103126104ed5761208c90614b44565b5f612059565b3d915061206e565b5060405163032bb44360e01b8152600481018390526020816024817f00000000000000000000000000000000000000000000000000000000000000006001600160a01b03165afa9081156104e2575f916120f6575b5015611fce565b90506020813d602011612128575b8161211160209383614976565b810103126104ed5761212290614b44565b5f6120ef565b3d9150612104565b90506020813d602011612162575b8161214b60209383614976565b810103126104ed5761215c90614b44565b5f611fc6565b3d915061213e565b8051600b8110156122cd57600a14612186575b506001906104b4565b60200151906040828051810103126104ed576121b060406121a960208501614eaa565b9301614b44565b60405163032bb44360e01b81526001600160a01b03938416600482018190529193602090829060249082907f0000000000000000000000000000000000000000000000000000000000000000165afa9081156104e2575f91612293575b501561051157604051636ebc51e160e01b81526001600160a01b038716600482015290602090829060249082905f905af19081156104e2575f91612260575b5060019261225a9187614e16565b9061217d565b90506020813d60201161228b575b8161227b60209383614976565b810103126104ed5751600161224c565b3d915061226e565b90506020813d6020116122c5575b816122ae60209383614976565b810103126104ed576122bf90614b44565b5f61220d565b3d91506122a1565b634e487b7160e01b5f52602160045260245ffd5b6040516342ecdedb60e01b8152600490fd5b5060018060a01b0383165f52600260205260405f20335f5260205260ff60405f20541615610155565b346104ed575f3660031901126104ed5760206040517f00000000000000000000000000000000000000000000000000000000000000008152f35b346104ed575f3660031901126104ed5760206040517f00000000000000000000000000000000000000000000000000000000000000008152f35b346104ed5760206123a96123a3366147f7565b91614b51565b6040519015158152f35b346104ed576123d96123cd6123c7366147f7565b916149f8565b60405191829182614844565b0390f35b346104ed575f3660031901126104ed57602060405160108152f35b346104ed575f3660031901126104ed5760205f54604051908152f35b346104ed575f3660031901126104ed576040517f00000000000000000000000000000000000000000000000000000000000000006001600160a01b03168152602090f35b346104ed5760203660031901126104ed576004356001600160a01b03818116918290036104ed577f6fee9688c285c5c5c97d6a1a29adced674e6b2ad0888b8ad2116b58a8b3ea2486002815410156125ff57600290557f2801b00eb06461cf9fcb9758b5fafd884ff06a86177386f73b6c49f0bf5a5af090600182557f0000000000000000000000000000000000000000000000000000000000000000303b1515806125f8575b6125e65761257e6125a4925f955f8051602061584183398151915255825f8051602061588183398151915255807f000000000000000000000000000000000000000000000000000000000000000016806125d2575b507f0000000000000000000000000000000000000000000000000000000000000000168092614f50565b7f0000000000000000000000000000000000000000000000000000000000000000614f50565b557fbe9b076dc5b65990cca9dd9d7366682482e7817a6f6bc7f4faf4dc32af497f32602060405160028152a1005b8061257e6125e09286614f50565b86612554565b60405163b9a621e160e01b8152600490fd5b505f6124ff565b604051631edb9c6d60e11b815260026004820152602490fd5b60203660031901126104ed576004356001600160401b0381116104ed576126439036906004016147c7565b905f5b82811061266557478047106101ea575f80808093335af161017a615111565b8060051b820135603e19833603018112156104ed5782016040813603126104ed5760405190612693826148a4565b600b908035828110156104ed5783526020810135906001600160401b0382116104ed570136601f820112156104ed576126d3903690602081359101614e74565b91602081019283528051828110156122cd5760010361294657505051908151820161014083602083019203126104ed5761270f60208401614eaa565b9260408101519360608201519160808101519060a0810151936127376102ff60c08401614b44565b60405163032bb44360e01b81526001600160a01b038681166004830152919691602090829060249082907f0000000000000000000000000000000000000000000000000000000000000000165afa9081156104e2575f9161290c575b5015610511576127c66103a6307f0000000000000000000000000000000000000000000000000000000000000000615140565b9360016127d2836153b8565b146128f4575b60208401516001600160a01b0316806128ee575060208701516001600160a01b0316925b6001600160a01b0387163b156104ed5760405163977b1f5f60e01b8152336004820152602481019b909b5260448b015260648a015260848901525f60a489018190526001600160a01b0391821660c48a015290889060e4908290849088165af19485156104e25764e8d4a510006128a96128ba9460019a6128c0996128df57506104986103a6307f0000000000000000000000000000000000000000000000000000000000000000615140565b0590816128c6575b505082336153ec565b336153ec565b01612646565b6128d26128d8926156a1565b33614e16565b89806128b1565b6128e8906148bf565b8d61046a565b926127fc565b61290788612901846156a1565b33615309565b6127d8565b90506020813d60201161293e575b8161292760209383614976565b810103126104ed5761293890614b44565b8c612793565b3d915061291a565b8051828110156122cd57600903612c16575050519081518201916101c0818403126104ed5761297760208201614eaa565b92610180828203601f1901126104ed576040519061299482614909565b6040830151825260608301516020830152608083015160408301526129bb60a08401614eaa565b606083015260c0926129ce848201614eaa565b608084015260e081015160a08401528360df1982840301126104ed576040516129f681614940565b612a036101008301614eaa565b8152612a126101208301614eaa565b6020820152612a246101408301614eaa565b6040820152610160820151606082015261018082015160808201526101a082015160a0820152838501526101c0810151916001600160401b0383116104ed57612a74926020809201920101614edf565b60405163032bb44360e01b81526001600160a01b038087166004830152919591602090829060249082907f0000000000000000000000000000000000000000000000000000000000000000165afa9081156104e2575f91612bdc575b5015610511576001600160a01b0381163b156104ed576040805163736a01df60e01b81523360048201528351602482015260208085015160448301528483015160648301526060808601516001600160a01b039081166084850152608080880151821660a486015260a08089015160c487015298909701518051821660e4860152928301518116610104850152938201519093166101248301529182015161014482015292810151610164840152909201516101848201526101c06101a4820152925f918491829084908290612bab906101c48301906150ec565b03926001600160a01b03165af19182156104e257600192612bcd575b506128c0565b612bd6906148bf565b84612bc7565b90506020813d602011612c0e575b81612bf760209383614976565b810103126104ed57612c0890614b44565b88612ad0565b3d9150612bea565b8051828110156122cd57600203612e8c575050519081805160a0918291810103126104ed576020830151926001600160a01b039081851685036104ed576040810151612c6d60608301519460808401519301614b44565b9360405163032bb44360e01b908181528589166004820152602081602481897f0000000000000000000000000000000000000000000000000000000000000000165afa9081156104e2575f91612e52575b50159081612dc7575b506105115781612db7575b612cfc307f0000000000000000000000000000000000000000000000000000000000000000615140565b938088163b156104ed575f92836084926040519a8b958694636961d57960e11b865233600487015260248601526044850152876064850152165af19485156104e257600195612da8575b50612d6d57505f905b81612d5c575b50506128c0565b612d669133614e16565b8480612d55565b612da164e8d4a51000916109bf307f0000000000000000000000000000000000000000000000000000000000000000615140565b0490612d4f565b612db1906148bf565b87612d46565b612dc2858333615309565b612cd2565b90506040519081528488166004820152602081602481887f0000000000000000000000000000000000000000000000000000000000000000165afa9081156104e2575f91612e18575b50158a612cc7565b90506020813d602011612e4a575b81612e3360209383614976565b810103126104ed57612e4490614b44565b8a612e10565b3d9150612e26565b90506020813d602011612e84575b81612e6d60209383614976565b810103126104ed57612e7e90614b44565b8b612cbe565b3d9150612e60565b8051828110156122cd576003036131ee575050519081518201918083039261014084126104ed57610120612ec260208401614eaa565b94601f1901126104ed5760405191612ed983614909565b604081015160ff811681036104ed578352606081015191825f0b83036104ed57602061012091612f3494828701526080840151604087015260a0840151606087015260c08401516080870152610b6982820160e08601614f21565b60c082015260405163032bb44360e01b81526001600160a01b038481166004830152602090829060249082907f0000000000000000000000000000000000000000000000000000000000000000165afa9081156104e2575f916131b4575b501561051157604081015115610ea35760208101515f0b5f1981141590816131a8575b50610ea35760ff8151166003811190811561316c575b50610ea357335f52600160205260405f2060018060a01b0384165f5260205260405f205f545f198114610e8f57600101805f555f5260205260405f209260ff8083511611610e7d57607f60208301515f0b13610e7d57607f1960208301515f0b12610e7d57600261303f6040840151615553565b14610e7d576002613053606084015161574d565b14610e7d57613065606083015161571a565b15610e7d576002613079608084015161574d565b14610e7d5761308b608083015161571a565b15610e7d5760026130a060a084015151615578565b14610e7d5760026130b560c084015151615578565b14610e7d5765ffffffffffff60c061313684600197600260ff83511691602084015192604085015160608601519060808701519261ff0060a0890151976001610160815f9260a01b0360208c0151169e8f9b51169d8e9c01519a60018c60208265ffffffffffff9360a01b03910151169c51169c60405191610d8083614924565b81541690555f54915f8051602061582183398151915260405192868060a01b03169280613164339482614844565b0390a46128c0565b60039150148061317d575b86612fcb565b5061318b6080820151615735565b6002811490811561319d575b50613177565b600191501486613197565b60019150141586612fb5565b90506020813d6020116131e6575b816131cf60209383614976565b810103126104ed576131e090614b44565b86612f92565b3d91506131c2565b8051828110156122cd5760040361327757505051906040828051810103126104ed57816040613221602060019501614eaa565b910151335f528360205260405f2091848060a01b031691825f5260205260405f20815f526020525f600260408220828155828782015501556040519081525f8051602061580183398151915260203392a36128c0565b8051828110156122cd57600503613e9e57505051906060828051810103126104ed576132a560208301614eaa565b60606132b360408501614eaa565b9301516132ca81856001600160a01b038516614b51565b15611cab576132e381856001600160a01b0385166149f8565b6040516132ef816148d2565b5f81527f000000000000000000000000000000000000000000000000000000000000000060208201525f60408201527f0000000000000000000000000000000000000000000000000000000000000000606082015260408201516040519060018060a01b038616602083015260018060a01b038816604083015260608201526060815261337b816148d2565b604051916133888361495b565b5f83525f6020840152670de0b6b3a76400006133b1825161111d8361110c602087015193615057565b04926133e4602060606040850151940151926040518093819263de26c4a160e01b835284600484015260248301906150ec565b0381600f602160991b015afa9081156104e2575f91613e6c575b506040516318b30b2360e31b8152602081600481600f602160991b015afa9081156104e2575f91613e3a575b506001600160fc1b0381168103610e8f5760405163519b4bd360e01b815290602082600481600f602160991b015afa9081156104e2575f91613e04575b613474925060041b615065565b60405163346aee5360e11b815290602082600481600f602160991b015afa9182156104e2575f92613dd0575b506040516303e0818560e61b8152602081600481600f602160991b015afa9081156104e2575f91613d9c575b50611117906134da93615065565b60405163313ce56760e01b81529092602082600481600f602160991b015afa9182156104e2575f92613d68575b50604d8211610e8f57600a82900a6001600160fc1b0381169003610e8f57611117670de0b6b3a76400006112c7819761111d6112c16135509961111d98600a0a60041b90615372565b049061355c82846155dd565b5f8051602061584183398151915254604051633fabe5a360e21b81529060a090829060049082906001600160a01b03165afa9081156104e2575f91613d1b575b50670de0b6b3a7640000810290808205670de0b6b3a76400001490151715610e8f575f6305f5e100820512613cfc57670de0b6b3a7640000916305f5e1006135e5920590615065565b04906060818051810103126104ed5761360060208201614eaa565b606061360e60408401614eaa565b9201519280613ccd575061363c926113c791905f908015611ac757509283916001600160a01b0316906156b0565b9061365682335f8051602061588183398151915254615092565b604051925f84525f60208501526040840152606083015260808201525f8051602061586183398151915260a03392a26001600160a01b0385163b156104ed57604051636a256b2960e01b81526001600160a01b0384811660048301525f908290602490829084908b165af180156104e257613cbe575b5060405162dc326d60e71b81526001600160a01b0384811660048301526101a091908290829060249082908b165afa9182156104e2575f92613c03575b505060405163055f575160e41b81526001600160a01b0385811660048301529096906080908890602490829085165afa9687156104e2575f97613ba2575b508151875261375960208801516155fe565b6137696114f560608501516155fe565b80808301125f8312908015821691151617610e8f576137889101615627565b9161379660408901516155fe565b6137a661154560a08401516155fe565b80808301125f8312908015821691151617610e8f576137c59101615627565b906137d661158260608b01516155fe565b80808301125f8312908015821691151617610e8f576137f59101615627565b606089015260408801528160208801525f9160ff84511615613b56575b50600160ff84511614613b0c575b600260ff84511614613ac2575b600360ff84511614613a99575b602087015191606060408901519801519760c060a08601519501519160405163032bb44360e01b815260018060a01b038516600482015260208160248160018060a01b037f0000000000000000000000000000000000000000000000000000000000000000165afa9081156104e2575f91613a5f575b5015610511576138e36103a6307f0000000000000000000000000000000000000000000000000000000000000000615140565b9960016138ef836153b8565b14613a4e575b60208701516001600160a01b031680613a48575060208401516001600160a01b0316925b6001600160a01b0386163b156104ed576040519663977b1f5f60e01b885260018060a01b038b16600489015260248801526044870152606486015260848501525f60a485015260018060a01b031660c48401525f8360e4818360018060a01b0387165af19081156104e2576117b95f805160206157e18339815191529564e8d4a510006139db60019c6020986139f0976104d357506104986103a6307f0000000000000000000000000000000000000000000000000000000000000000615140565b0580613a365750848b8060a01b038a166153ec565b60a087901b8790039485165f8181528884526040808220939097168082529284528681208682528452868120818155808a018290556002015594519384529392a36128c0565b611819613a42916156a1565b8d6117aa565b92613919565b613a5a61183e836156a1565b6138f5565b90506020813d602011613a91575b81613a7a60209383614976565b810103126104ed57613a8b90614b44565b8d6138b0565b3d9150613a6d565b905060808201516001613aab8261571a565b03613abd5750600160ff1b5b9061383a565b613ab7565b608083018051613ad957505f5b606088015261382d565b613ae660608901516155fe565b905180808301125f8312908015821691151617610e8f57613b079101615627565b613acf565b608083018051613b2357505f5b6040880152613820565b613b3060408901516155fe565b905180808301125f8312908015821691151617610e8f57613b519101615627565b613b19565b60808401908151155f14613b735750505f5b602088015289613812565b613b7c906155fe565b905180808301125f8312908015821691151617610e8f57613b9d9101615627565b613b68565b9096506080813d608011613bfb575b81613bbe60809383614976565b810103126104ed57606060405191613bd5836148d2565b805183526020810151602084015260408101516040840152015160608201529589613747565b3d9150613bb1565b90809250813d8311613cb7575b613c1a8183614976565b810103126104ed5760405190613c2f826148ed565b805182526020810151602083015260408101516040830152606081015160608301526080810151608083015260a081015160a083015260c0808201519083015260e081015160e0830152610100808201519083015261012080820151908301526101408082015190830152610160808201519083015261018080910151908201528880613709565b503d613c10565b613cc7906148bf565b876136cc565b5f198101908111610e8f5764e8d4a51000900490600182018211610e8f5761363c9360016113c79301906113ab565b60405163280f944f60e11b81526305f5e1009091056004820152602490fd5b905060a0813d60a011613d60575b81613d3660a09383614976565b810103126104ed57613d47816155ea565b50613d596080602083015192016155ea565b508c61359c565b3d9150613d29565b9091506020813d602011613d94575b81613d8460209383614976565b810103126104ed5751908e613507565b3d9150613d77565b90506020813d602011613dc8575b81613db760209383614976565b810103126104ed57516134da6134cc565b3d9150613daa565b9091506020813d602011613dfc575b81613dec60209383614976565b810103126104ed5751908e6134a0565b3d9150613ddf565b90506020823d602011613e32575b81613e1f60209383614976565b810103126104ed57613474915190613467565b3d9150613e12565b90506020813d602011613e64575b81613e5560209383614976565b810103126104ed57518d61342a565b3d9150613e48565b90506020813d602011613e96575b81613e8760209383614976565b810103126104ed57518c6133fe565b3d9150613e7a565b8051828110156122cd576006036140be575050518051810160c0828203126104ed57613ecc60208301614eaa565b6040830151606084015191906001600160401b0383116104ed5760208401603f8487010112156104ed5784830160200151926001600160401b038411611f22578360051b9060405194613f226020840187614976565b855260208501809260208801604082858c010101116104ed576040838a0101915b604082858c01010183106140ae5750505050608086015160a08701519095906001600160401b0381116104ed57611da860c091602080613f879501918b0101614edf565b95613fb2307f0000000000000000000000000000000000000000000000000000000000000000615140565b956001600160a01b0385163b156104ed576040516301e298b960e41b815260606004820152955160648701819052869493608486019392915f905b8082106140925750505061401885935f979593859360248501526003198483030160448501526150ec565b03926001600160a01b03165af19081614083575b50614048575061403a615111565b90611e7057506001906128c0565b6001929150611ebb61407e916109bf307f0000000000000000000000000000000000000000000000000000000000000000615140565b6128c0565b61408c906148bf565b8661402c565b8251865289975060209586019590920191600190910190613fed565b8251815260209283019201613f43565b8051828110156122cd576008036142d757505051906020828051810103126104ed576001600160a01b039182906140f790602001614eaa565b16916040519063032bb44360e01b8083528460048401526024926020818581867f0000000000000000000000000000000000000000000000000000000000000000165afa9081156104e2575f9161429d575b50159283614215575b8361418b575b5050506105115761407e6001927f0000000000000000000000000000000000000000000000000000000000000000614f50565b60209293506040518094819382528760048301527f0000000000000000000000000000000000000000000000000000000000000000165afa9081156104e2575f916141db575b5015858080614158565b90506020813d60201161420d575b816141f660209383614976565b810103126104ed5761420790614b44565b856141d1565b3d91506141e9565b92506040518181528560048201526020818581867f0000000000000000000000000000000000000000000000000000000000000000165afa9081156104e2575f91614263575b501592614152565b90506020813d602011614295575b8161427e60209383614976565b810103126104ed5761428f90614b44565b8861425b565b3d9150614271565b90506020813d6020116142cf575b816142b860209383614976565b810103126104ed576142c990614b44565b88614149565b3d91506142ab565b51908110156122cd57600a146142f1575b506001906128c0565b51906040828051810103126104ed5761431160406121a960208501614eaa565b60405163032bb44360e01b81526001600160a01b03938416600482018190529193602491906020908290849082907f0000000000000000000000000000000000000000000000000000000000000000165afa9081156104e2575f916143eb575b501561051157604051636ebc51e160e01b815233600482015291602091839182905f905af19081156104e2575f916143b8575b506001926143b29133614e16565b906142e8565b90506020813d6020116143e3575b816143d360209383614976565b810103126104ed575160016143a4565b3d91506143c6565b90506020813d60201161441d575b8161440660209383614976565b810103126104ed5761441790614b44565b87614371565b3d91506143f9565b346104ed575f3660031901126104ed575f80516020615841833981519152546040516001600160a01b039091168152602090f35b346104ed575f3660031901126104ed576040517f00000000000000000000000000000000000000000000000000000000000000006001600160a01b03168152602090f35b346104ed576144ab36614798565b6001600160a01b039091169033821415806144e1575b6122e1576144df915f52600360205260405f205f8154915533614e16565b005b50815f52600260205260405f20335f5260205260ff60405f205416156144c1565b346104ed575f3660031901126104ed576040517f00000000000000000000000000000000000000000000000000000000000000006001600160a01b03168152602090f35b346104ed5761455436614798565b335f52600260205260405f209160018060a01b031691825f5260205260405f209015159060ff1981541660ff83161790556040519081527f2738289d9deecdc30eb8ffc42876633caecca1ffa166e4efa89f408e17373a1a60203392a3005b346104ed575f3660031901126104ed576040517f00000000000000000000000000000000000000000000000000000000000000006001600160a01b03168152602090f35b346104ed575f3660031901126104ed576040517f00000000000000000000000000000000000000000000000000000000000000006001600160a01b03168152602090f35b346104ed5760203660031901126104ed576001600160a01b0361465c614782565b165f526003602052602060405f2054604051908152f35b346104ed575f3660031901126104ed575f80516020615881833981519152546040516001600160a01b039091168152602090f35b346104ed5760403660031901126104ed576146c0614782565b6001600160a01b0360243581811692908390036104ed57165f52600260205260405f20905f52602052602060ff60405f2054166040519015158152f35b346104ed575f3660031901126104ed576040517f00000000000000000000000000000000000000000000000000000000000000006001600160a01b03168152602090f35b346104ed575f3660031901126104ed577f00000000000000000000000000000000000000000000000000000000000000006001600160a01b03168152602090f35b600435906001600160a01b03821682036104ed57565b60409060031901126104ed576004356001600160a01b03811681036104ed579060243580151581036104ed5790565b9181601f840112156104ed578235916001600160401b0383116104ed576020808501948460051b0101116104ed57565b60609060031901126104ed576001600160a01b039060043582811681036104ed579160243590811681036104ed579060443590565b805182526020908101516001600160a01b0316910152565b6148a29092919260e060c061012083019560ff815116845260208101515f0b602085015260408101516040850152606081015160608501526080810151608085015261489860a082015160a086019061482c565b015191019061482c565b565b604081019081106001600160401b03821117611f2257604052565b6001600160401b038111611f2257604052565b608081019081106001600160401b03821117611f2257604052565b6101a081019081106001600160401b03821117611f2257604052565b60e081019081106001600160401b03821117611f2257604052565b61018081019081106001600160401b03821117611f2257604052565b60c081019081106001600160401b03821117611f2257604052565b602081019081106001600160401b03821117611f2257604052565b601f909101601f19168101906001600160401b03821190821017611f2257604052565b604051906149a682614909565b815f81525f60208201525f60408201525f60608201525f60808201526040516149ce816148a4565b5f81525f602082015260a082015260c0604051916149eb836148a4565b5f83525f60208401520152565b919091614a03614999565b506001600160a01b039081165f9081526001602090815260408083209584168352948152848220938252928352839020614a3b614999565b50835191614a4883614924565b81549360ff8516958685528560081c5f0b808387015260018060401b038760101c169283838801528760501c60070b948560608901528860901c60070b968760808a015260018060d01b0319809a1660a08a015260018101549889916002848416918260c08501528d65ffffffffffff809660a01c169d8e60e08701521661010085015201549161016061012082019d8e8786169052610140830194868160a01c1686521691015286519a614afc8c6148a4565b8b52848b01525116985116835198614b138a6148a4565b895281890152825198614b258a614909565b89528801528601526060850152608084015260a083015260c082015290565b519081151582036104ed57565b9181614b5d92936149f8565b6040908181015115614c8b5781516307dc0d1d60e41b81526001600160a01b03936020919082908290600490829089165afa8015614c81575f90614c4a575b6060915060048551809781936352bfe78960e01b8352165afa928315614c41575f93614bd2575b5050614bcf9250614fc3565b90565b909192506060843d606011614c39575b81614bef60609383614976565b810103126104ed57805191606083016001600160401b03811184821017611f22578252845183528085015190830152614bcf93614c2d908201614b44565b90820152905f80614bc3565b3d9150614be2565b513d5f823e3d90fd5b508181813d8311614c7a575b614c608183614976565b810103126104ed575184811681036104ed57606090614b9c565b503d614c56565b84513d5f823e3d90fd5b5050505f90565b90614c9c90615078565b906001600160a01b03907f0000000000000000000000000000000000000000000000000000000000000000821680158015614dd7575b15614d8f57507f000000000000000000000000000000000000000000000000000000000000000091614d043084615140565b93817f00000000000000000000000000000000000000000000000000000000000000001690813b156104ed575f9160248392604051948593849263db006a7560e01b845260048401525af180156104e257614d80575b503090821603614d6957505050565b614d7a6148a2936109bf3085615140565b91615092565b614d89906148bf565b5f614d5a565b809392503b156104ed57614dbc925f9283604051809681958294637647691d60e01b8452600484016150d3565b03925af180156104e257614dce575b50565b6148a2906148bf565b506002614e10614e0a6113c7847f0000000000000000000000000000000000000000000000000000000000000000615140565b86615591565b14614cd2565b9115614e2557614c9c90615078565b90614e326148a292615078565b907f0000000000000000000000000000000000000000000000000000000000000000615092565b6001600160401b038111611f2257601f01601f191660200190565b929192614e8082614e59565b91614e8e6040519384614976565b8294818452818301116104ed578281602093845f960137010152565b51906001600160a01b03821682036104ed57565b5f5b838110614ecf5750505f910152565b8181015183820152602001614ec0565b81601f820112156104ed578051614ef581614e59565b92614f036040519485614976565b818452602082840101116104ed57614bcf9160208085019101614ebe565b91908260409103126104ed57604051614f39816148a4565b6020614f4b8183958051855201614eaa565b910152565b60405163095ea7b360e01b81526001600160a01b0392831660048201525f19602482015291602091839160449183915f91165af180156104e257614f915750565b6020813d602011614fbb575b81614faa60209383614976565b810103126104ed57614dcb90614b44565b3d9150614f9d565b6040820151156150345760208101515f0b60018114615011575f1914614fe95750505f90565b60606020614ffc93015191015190615767565b8015908115615009575090565b600191501490565b506060602061502593015191015190615767565b60028114908115615009575090565b50505f90565b90670de0b6b3a764000091828102928184041490151715610e8f57565b905f911560011715610e8f57565b81810292918115918404141715610e8f57565b64e8d4a5100090818102918183041490151715610e8f5790565b60405163a9059cbb60e01b60208201526001600160a01b0392831660248201526044808201949094529283526148a29291906150cd836148d2565b16615475565b9081526001600160a01b03909116602082015260400190565b9060209161510581518092818552858086019101614ebe565b601f01601f1916010190565b3d1561513b573d9061512282614e59565b916151306040519384614976565b82523d5f602084013e565b606090565b6040516370a0823160e01b81526001600160a01b0392831660048201529160209183916024918391165afa9081156104e2575f9161517c575090565b90506020813d6020116151a3575b8161519760209383614976565b810103126104ed575190565b3d915061518a565b91908203918211610e8f57565b805465ffffffffffff60a01b191660a09290921b65ffffffffffff60a01b16919091179055565b906113c78161520e937f0000000000000000000000000000000000000000000000000000000000000000615649565b6001600160a01b037f00000000000000000000000000000000000000000000000000000000000000008116801580156152cd575b1561529e57507f00000000000000000000000000000000000000000000000000000000000000001690813b156104ed575f9160248392604051948593849263140e25ad60e31b845260048401525af180156104e257614dce5750565b8091503b156104ed57604051629dd64160e51b8152915f918391829084908290614dbc903090600484016150d3565b5060026153036152fd837f0000000000000000000000000000000000000000000000000000000000000000615140565b85615591565b14615242565b90911561533f57906113c78161520e937f0000000000000000000000000000000000000000000000000000000000000000615649565b61534b6148a292615078565b907f0000000000000000000000000000000000000000000000000000000000000000615649565b811561537c570490565b634e487b7160e01b5f52601260045260245ffd5b6001600160ff1b0381116153a15790565b6024906040519062a07eb560e01b82526004820152fd5b5f81136153ce575f136153c9575f90565b5f1990565b50600190565b81810392915f138015828513169184121617610e8f57565b91908151801561546f5781615425604092867f037af8589fe92360e800c649b0515b0b2bf77b577766ff952b17630c4ad25f47956156b0565b6020840160018060a01b03918183809351165f5260036020528261544e865f20548951906155dd565b9151165f526003602052845f20556154688451809761482c565b16941692a3565b50505050565b6040516154d2916001600160a01b031661548e826148a4565b5f806020958685527f5361666545524332303a206c6f772d6c6576656c2063616c6c206661696c656487860152868151910182855af16154cc615111565b91615778565b8051806154de57505050565b818391810103126104ed57816154f49101614b44565b156154fc5750565b6084906040519062461bcd60e51b82526004820152602a60248201527f5361666545524332303a204552433230206f7065726174696f6e20646964206e6044820152691bdd081cdd58d8d9595960b21b6064820152fd5b6001600160401b0390818111615571571061556d57600190565b5f90565b5050600290565b65ffffffffffff90818111615571571061556d57600190565b818111615571571061556d57600190565b8051909190156155b55750805190602001fd5b60405162461bcd60e51b8152602060048201529081906155d99060248301906150ec565b0390fd5b91908201809211610e8f57565b51906001600160501b03821682036104ed57565b6001600160ff1b03811161560f5790565b6024906040519063eecaa25d60e01b82526004820152fd5b5f81126156315790565b6024906040519063b02ef08760e01b82526004820152fd5b6040516323b872dd60e01b60208201526001600160a01b03928316602482015230604482015260648082019490945292835260a083019291906001600160401b03841183851017611f22576148a29360405216615475565b5f81126156ab5790565b5f0390565b6001600160a01b03908116926156c5906155fe565b92803b156104ed575f928360c492604051968795869463123dd9c560e31b865216600485015282198060248601528060448601526064850152820360848401528160a48401525af180156104e257614dce5750565b60016001603f1b031990818113615571571261556d57600190565b5f8113615747575f1361556d57600190565b50600290565b60016001603f1b0390818113615571571261556d57600190565b818113615571571261556d57600190565b919290156157da575081511561578c575090565b3b156157955790565b60405162461bcd60e51b815260206004820152601d60248201527f416464726573733a2063616c6c20746f206e6f6e2d636f6e74726163740000006044820152606490fd5b826155a256fe889f0643d669fbac53cbc7d1826992b9bce1fab5e9644034cffb9c0137fe9dd1d23ac4476ccf3eeb78c76d4b7bb113597bcd16c15d47656627ea6221d685ad73b32ded07b7d673202a5f35a959c39fc092a3d213bff00dadc295545acedf22d32b50211693ec91bcfe327771928b74a8f475c508d53e86fca4153bcf0f0e8776fa0333956d06e335c550bd5fc4ac9c003c6545e371331b1071fa4d5d8519d6c15b5cbfa852c5bd03e540eba853f8faf28a604a4d82bee1091096bfaea14d08c3a26469706673582212203c3bec0d649c2baf4bc95451dad69a2bdb8277e54bbd8f8c5d329b21aa475ffc64736f6c63430008180033"
}