{
  "address": "0xeea68DbE228210454D4443f4E1B37E842B848C3d",
  "abi": [
    {
      "inputs": [
        {
          "internalType": "Token6",
          "name": "usdc_",
          "type": "address"
        },
        {
          "internalType": "Token18",
          "name": "dsu_",
          "type": "address"
        },
        {
          "internalType": "contract IFactory",
          "name": "marketFactory_",
          "type": "address"
        },
        {
          "internalType": "contract IFactory",
          "name": "makerVaultFactory_",
          "type": "address"
        },
        {
          "internalType": "contract IFactory",
          "name": "solverVaultFactory_",
          "type": "address"
        },
        {
          "internalType": "contract IBatcher",
          "name": "batcher_",
          "type": "address"
        },
        {
          "internalType": "contract IEmptySetReserve",
          "name": "reserve_",
          "type": "address"
        },
        {
          "internalType": "uint256",
          "name": "keepBufferBase_",
          "type": "uint256"
        },
        {
          "internalType": "uint256",
          "name": "keepBufferCalldata_",
          "type": "uint256"
        }
      ],
      "stateMutability": "nonpayable",
      "type": "constructor"
    },
    {
      "inputs": [],
      "name": "DivisionByZero",
      "type": "error"
    },
    {
      "inputs": [
        {
          "internalType": "uint256",
          "name": "value",
          "type": "uint256"
        }
      ],
      "name": "Fixed18OverflowError",
      "type": "error"
    },
    {
      "inputs": [
        {
          "internalType": "uint256",
          "name": "value",
          "type": "uint256"
        }
      ],
      "name": "Fixed6OverflowError",
      "type": "error"
    },
    {
      "inputs": [
        {
          "internalType": "uint256",
          "name": "version",
          "type": "uint256"
        }
      ],
      "name": "InitializableAlreadyInitializedError",
      "type": "error"
    },
    {
      "inputs": [],
      "name": "InitializableNotInitializingError",
      "type": "error"
    },
    {
      "inputs": [],
      "name": "InitializableZeroVersionError",
      "type": "error"
    },
    {
      "inputs": [],
      "name": "MultiInvokerCantExecuteError",
      "type": "error"
    },
    {
      "inputs": [],
      "name": "MultiInvokerInvalidInstanceError",
      "type": "error"
    },
    {
      "inputs": [],
      "name": "MultiInvokerInvalidOrderError",
      "type": "error"
    },
    {
      "inputs": [],
      "name": "MultiInvokerMaxFeeExceededError",
      "type": "error"
    },
    {
      "inputs": [],
      "name": "MultiInvokerOrderMustBeSingleSidedError",
      "type": "error"
    },
    {
      "inputs": [],
      "name": "MultiInvokerUnauthorizedError",
      "type": "error"
    },
    {
      "inputs": [],
      "name": "TriggerOrderStorageInvalidError",
      "type": "error"
    },
    {
      "inputs": [
        {
          "internalType": "int256",
          "name": "value",
          "type": "int256"
        }
      ],
      "name": "UFixed18UnderflowError",
      "type": "error"
    },
    {
      "inputs": [
        {
          "internalType": "int256",
          "name": "value",
          "type": "int256"
        }
      ],
      "name": "UFixed6UnderflowError",
      "type": "error"
    },
    {
      "anonymous": false,
      "inputs": [
        {
          "indexed": false,
          "internalType": "uint256",
          "name": "version",
          "type": "uint256"
        }
      ],
      "name": "Initialized",
      "type": "event"
    },
    {
      "anonymous": false,
      "inputs": [
        {
          "indexed": true,
          "internalType": "address",
          "name": "account",
          "type": "address"
        },
        {
          "indexed": true,
          "internalType": "contract IMarket",
          "name": "market",
          "type": "address"
        },
        {
          "components": [
            {
              "internalType": "UFixed6",
              "name": "amount",
              "type": "uint256"
            },
            {
              "internalType": "address",
              "name": "receiver",
              "type": "address"
            }
          ],
          "indexed": false,
          "internalType": "struct InterfaceFee",
          "name": "fee",
          "type": "tuple"
        }
      ],
      "name": "InterfaceFeeCharged",
      "type": "event"
    },
    {
      "anonymous": false,
      "inputs": [
        {
          "indexed": true,
          "internalType": "address",
          "name": "sender",
          "type": "address"
        },
        {
          "indexed": false,
          "internalType": "uint256",
          "name": "applicableGas",
          "type": "uint256"
        },
        {
          "indexed": false,
          "internalType": "uint256",
          "name": "applicableValue",
          "type": "uint256"
        },
        {
          "indexed": false,
          "internalType": "UFixed18",
          "name": "baseFee",
          "type": "uint256"
        },
        {
          "indexed": false,
          "internalType": "UFixed18",
          "name": "calldataFee",
          "type": "uint256"
        },
        {
          "indexed": false,
          "internalType": "UFixed18",
          "name": "keeperFee",
          "type": "uint256"
        }
      ],
      "name": "KeeperCall",
      "type": "event"
    },
    {
      "anonymous": false,
      "inputs": [
        {
          "indexed": true,
          "internalType": "address",
          "name": "account",
          "type": "address"
        },
        {
          "indexed": true,
          "internalType": "address",
          "name": "market",
          "type": "address"
        },
        {
          "indexed": true,
          "internalType": "address",
          "name": "to",
          "type": "address"
        },
        {
          "indexed": false,
          "internalType": "UFixed6",
          "name": "fee",
          "type": "uint256"
        }
      ],
      "name": "KeeperFeeCharged",
      "type": "event"
    },
    {
      "anonymous": false,
      "inputs": [
        {
          "indexed": true,
          "internalType": "address",
          "name": "account",
          "type": "address"
        },
        {
          "indexed": true,
          "internalType": "address",
          "name": "operator",
          "type": "address"
        },
        {
          "indexed": false,
          "internalType": "bool",
          "name": "newEnabled",
          "type": "bool"
        }
      ],
      "name": "OperatorUpdated",
      "type": "event"
    },
    {
      "anonymous": false,
      "inputs": [
        {
          "indexed": true,
          "internalType": "address",
          "name": "account",
          "type": "address"
        },
        {
          "indexed": true,
          "internalType": "contract IMarket",
          "name": "market",
          "type": "address"
        },
        {
          "indexed": false,
          "internalType": "uint256",
          "name": "nonce",
          "type": "uint256"
        }
      ],
      "name": "OrderCancelled",
      "type": "event"
    },
    {
      "anonymous": false,
      "inputs": [
        {
          "indexed": true,
          "internalType": "address",
          "name": "account",
          "type": "address"
        },
        {
          "indexed": true,
          "internalType": "contract IMarket",
          "name": "market",
          "type": "address"
        },
        {
          "indexed": false,
          "internalType": "uint256",
          "name": "nonce",
          "type": "uint256"
        }
      ],
      "name": "OrderExecuted",
      "type": "event"
    },
    {
      "anonymous": false,
      "inputs": [
        {
          "indexed": true,
          "internalType": "address",
          "name": "account",
          "type": "address"
        },
        {
          "indexed": true,
          "internalType": "contract IMarket",
          "name": "market",
          "type": "address"
        },
        {
          "indexed": true,
          "internalType": "uint256",
          "name": "nonce",
          "type": "uint256"
        },
        {
          "components": [
            {
              "internalType": "uint8",
              "name": "side",
              "type": "uint8"
            },
            {
              "internalType": "int8",
              "name": "comparison",
              "type": "int8"
            },
            {
              "internalType": "UFixed6",
              "name": "fee",
              "type": "uint256"
            },
            {
              "internalType": "Fixed6",
              "name": "price",
              "type": "int256"
            },
            {
              "internalType": "Fixed6",
              "name": "delta",
              "type": "int256"
            },
            {
              "components": [
                {
                  "internalType": "UFixed6",
                  "name": "amount",
                  "type": "uint256"
                },
                {
                  "internalType": "address",
                  "name": "receiver",
                  "type": "address"
                }
              ],
              "internalType": "struct InterfaceFee",
              "name": "interfaceFee1",
              "type": "tuple"
            },
            {
              "components": [
                {
                  "internalType": "UFixed6",
                  "name": "amount",
                  "type": "uint256"
                },
                {
                  "internalType": "address",
                  "name": "receiver",
                  "type": "address"
                }
              ],
              "internalType": "struct InterfaceFee",
              "name": "interfaceFee2",
              "type": "tuple"
            }
          ],
          "indexed": false,
          "internalType": "struct TriggerOrder",
          "name": "order",
          "type": "tuple"
        }
      ],
      "name": "OrderPlaced",
      "type": "event"
    },
    {
      "inputs": [],
      "name": "DSU",
      "outputs": [
        {
          "internalType": "Token18",
          "name": "",
          "type": "address"
        }
      ],
      "stateMutability": "view",
      "type": "function"
    },
    {
      "inputs": [],
      "name": "OPT_BASE_FEE_MULTIPLIER",
      "outputs": [
        {
          "internalType": "uint256",
          "name": "",
          "type": "uint256"
        }
      ],
      "stateMutability": "view",
      "type": "function"
    },
    {
      "inputs": [],
      "name": "USDC",
      "outputs": [
        {
          "internalType": "Token6",
          "name": "",
          "type": "address"
        }
      ],
      "stateMutability": "view",
      "type": "function"
    },
    {
      "inputs": [],
      "name": "batcher",
      "outputs": [
        {
          "internalType": "contract IBatcher",
          "name": "",
          "type": "address"
        }
      ],
      "stateMutability": "view",
      "type": "function"
    },
    {
      "inputs": [
        {
          "internalType": "address",
          "name": "account",
          "type": "address"
        },
        {
          "internalType": "contract IMarket",
          "name": "market",
          "type": "address"
        },
        {
          "internalType": "uint256",
          "name": "nonce",
          "type": "uint256"
        }
      ],
      "name": "canExecuteOrder",
      "outputs": [
        {
          "internalType": "bool",
          "name": "",
          "type": "bool"
        }
      ],
      "stateMutability": "view",
      "type": "function"
    },
    {
      "inputs": [
        {
          "internalType": "address",
          "name": "account",
          "type": "address"
        },
        {
          "internalType": "bool",
          "name": "unwrap",
          "type": "bool"
        }
      ],
      "name": "claim",
      "outputs": [],
      "stateMutability": "nonpayable",
      "type": "function"
    },
    {
      "inputs": [
        {
          "internalType": "address",
          "name": "",
          "type": "address"
        }
      ],
      "name": "claimable",
      "outputs": [
        {
          "internalType": "UFixed6",
          "name": "",
          "type": "uint256"
        }
      ],
      "stateMutability": "view",
      "type": "function"
    },
    {
      "inputs": [],
      "name": "ethTokenOracleFeed",
      "outputs": [
        {
          "internalType": "contract AggregatorV3Interface",
          "name": "",
          "type": "address"
        }
      ],
      "stateMutability": "view",
      "type": "function"
    },
    {
      "inputs": [
        {
          "internalType": "contract AggregatorV3Interface",
          "name": "ethOracle_",
          "type": "address"
        }
      ],
      "name": "initialize",
      "outputs": [],
      "stateMutability": "nonpayable",
      "type": "function"
    },
    {
      "inputs": [
        {
          "components": [
            {
              "internalType": "enum IMultiInvoker.PerennialAction",
              "name": "action",
              "type": "uint8"
            },
            {
              "internalType": "bytes",
              "name": "args",
              "type": "bytes"
            }
          ],
          "internalType": "struct IMultiInvoker.Invocation[]",
          "name": "invocations",
          "type": "tuple[]"
        }
      ],
      "name": "invoke",
      "outputs": [],
      "stateMutability": "payable",
      "type": "function"
    },
    {
      "inputs": [
        {
          "internalType": "address",
          "name": "account",
          "type": "address"
        },
        {
          "components": [
            {
              "internalType": "enum IMultiInvoker.PerennialAction",
              "name": "action",
              "type": "uint8"
            },
            {
              "internalType": "bytes",
              "name": "args",
              "type": "bytes"
            }
          ],
          "internalType": "struct IMultiInvoker.Invocation[]",
          "name": "invocations",
          "type": "tuple[]"
        }
      ],
      "name": "invoke",
      "outputs": [],
      "stateMutability": "payable",
      "type": "function"
    },
    {
      "inputs": [],
      "name": "keepBufferBase",
      "outputs": [
        {
          "internalType": "uint256",
          "name": "",
          "type": "uint256"
        }
      ],
      "stateMutability": "view",
      "type": "function"
    },
    {
      "inputs": [],
      "name": "keepBufferCalldata",
      "outputs": [
        {
          "internalType": "uint256",
          "name": "",
          "type": "uint256"
        }
      ],
      "stateMutability": "view",
      "type": "function"
    },
    {
      "inputs": [],
      "name": "keeperToken",
      "outputs": [
        {
          "internalType": "Token18",
          "name": "",
          "type": "address"
        }
      ],
      "stateMutability": "view",
      "type": "function"
    },
    {
      "inputs": [],
      "name": "latestNonce",
      "outputs": [
        {
          "internalType": "uint256",
          "name": "",
          "type": "uint256"
        }
      ],
      "stateMutability": "view",
      "type": "function"
    },
    {
      "inputs": [],
      "name": "makerVaultFactory",
      "outputs": [
        {
          "internalType": "contract IFactory",
          "name": "",
          "type": "address"
        }
      ],
      "stateMutability": "view",
      "type": "function"
    },
    {
      "inputs": [],
      "name": "marketFactory",
      "outputs": [
        {
          "internalType": "contract IFactory",
          "name": "",
          "type": "address"
        }
      ],
      "stateMutability": "view",
      "type": "function"
    },
    {
      "inputs": [
        {
          "internalType": "address",
          "name": "",
          "type": "address"
        },
        {
          "internalType": "address",
          "name": "",
          "type": "address"
        }
      ],
      "name": "operators",
      "outputs": [
        {
          "internalType": "bool",
          "name": "",
          "type": "bool"
        }
      ],
      "stateMutability": "view",
      "type": "function"
    },
    {
      "inputs": [
        {
          "internalType": "address",
          "name": "account",
          "type": "address"
        },
        {
          "internalType": "contract IMarket",
          "name": "market",
          "type": "address"
        },
        {
          "internalType": "uint256",
          "name": "nonce",
          "type": "uint256"
        }
      ],
      "name": "orders",
      "outputs": [
        {
          "components": [
            {
              "internalType": "uint8",
              "name": "side",
              "type": "uint8"
            },
            {
              "internalType": "int8",
              "name": "comparison",
              "type": "int8"
            },
            {
              "internalType": "UFixed6",
              "name": "fee",
              "type": "uint256"
            },
            {
              "internalType": "Fixed6",
              "name": "price",
              "type": "int256"
            },
            {
              "internalType": "Fixed6",
              "name": "delta",
              "type": "int256"
            },
            {
              "components": [
                {
                  "internalType": "UFixed6",
                  "name": "amount",
                  "type": "uint256"
                },
                {
                  "internalType": "address",
                  "name": "receiver",
                  "type": "address"
                }
              ],
              "internalType": "struct InterfaceFee",
              "name": "interfaceFee1",
              "type": "tuple"
            },
            {
              "components": [
                {
                  "internalType": "UFixed6",
                  "name": "amount",
                  "type": "uint256"
                },
                {
                  "internalType": "address",
                  "name": "receiver",
                  "type": "address"
                }
              ],
              "internalType": "struct InterfaceFee",
              "name": "interfaceFee2",
              "type": "tuple"
            }
          ],
          "internalType": "struct TriggerOrder",
          "name": "",
          "type": "tuple"
        }
      ],
      "stateMutability": "view",
      "type": "function"
    },
    {
      "inputs": [],
      "name": "reserve",
      "outputs": [
        {
          "internalType": "contract IEmptySetReserve",
          "name": "",
          "type": "address"
        }
      ],
      "stateMutability": "view",
      "type": "function"
    },
    {
      "inputs": [],
      "name": "solverVaultFactory",
      "outputs": [
        {
          "internalType": "contract IFactory",
          "name": "",
          "type": "address"
        }
      ],
      "stateMutability": "view",
      "type": "function"
    },
    {
      "inputs": [
        {
          "internalType": "address",
          "name": "operator",
          "type": "address"
        },
        {
          "internalType": "bool",
          "name": "newEnabled",
          "type": "bool"
        }
      ],
      "name": "updateOperator",
      "outputs": [],
      "stateMutability": "nonpayable",
      "type": "function"
    }
  ],
  "transactionHash": "0x74fdf573654399383f67c6c7e6879f7d492fd09a66442cb588d0d48c29a8fb8c",
  "args": [
    "0x39CD9EF9E511ec008247aD5DA01245D84a9521be",
    "0x7b4Adf64B0d60fF97D672E473420203D52562A84",
    "0xC27399bE9E39f7F6b1f94fBd512F5c2aD2b5eDb7",
    "0xAEf566ca7E84d1E736f999765a804687f39D9094",
    "0x6a16E496e2fe24FD191b7Fe676dA481fC1a9e174",
    "0x0000000000000000000000000000000000000000",
    "0x0d49c416103Cbd276d9c3cd96710dB264e3A0c27",
    1500000,
    21200
  ],
  "numDeployments": 2,
  "solcInputHash": "2fb26d60e4e9c70ed22888b3e05b9b63",
  "bytecode": "0x6101a034620002c95762005cf338819003601f8101601f191683016001600160401b03811184821017620002cd5783928291604052833961012091829181010312620002c9576200005082620002e1565b6200005e60208401620002e1565b6200006c60408501620002e1565b6200007a60608601620002e1565b6200008860808701620002e1565b60a08701516001600160a01b03939092908484168403620002c95760c08901519485168503620002c95760e089015195610100809a01519760805260a05260c05260e05286528452610140908152610160918252610180928352604051936159fc9586620002f787396080518681816126130152818161463d01528181614e0001528181614f0c015281816153100152615441015260a05186818161038201528181610474015281816108f6015281816116870152818161177f01528181611db601528181611ee901528181611f100152818161207301528181612569015281816128350152818161291801528181612d6b01528181612e100152818161395201528181613a4a015281816140210152818161413f0152818161428d0152818161459401528181614f5b015281816153ff0152615474015260c051868181610343015281816106b601528181610ba4015281816116480152818161202101528181612270015281816127f601528181612b3301528181612ff5015281816139130152818161423f015281816144670152614838015260e0518681816108b20152818161214a01528181612d210152818161435101526146ee015251858181610a14015281816120b401528181612e73015281816142c701526147320152518481816125c10152818161487901528181614dce015261533e0152518381816124bc015281816125ea01528181614e2e015261537001525182818161104f01528181612400015261338701525181818161107b015281816123c601526133b30152f35b5f80fd5b634e487b7160e01b5f52604160045260245ffd5b51906001600160a01b0382168203620002c95756fe6080806040526004361015610012575f80fd5b5f3560e01c908163025a3a29146148675750806306ae7095146148235780632637588e146147cd57806332878cc914614799578063402914f51461476157806344fb2b4b1461471d5780635b770dce146146d95780636d44a3b21461466c57806389a302711461462857806392fd2daf146145c3578063a2060bcf1461457f578063b20caf451461454b578063bdec4a27146126ab578063c4d66de8146124eb578063cd3293de146124a7578063cf542a4d1461248b578063db90490214612470578063dd02df1614612446578063df80522a14612423578063f331efef146123e9578063f3a8f356146123af5763f5ad71261461010e575f80fd5b60403660031901126104ed576101226148a8565b6024356001600160401b0381116104ed576101419036906004016148ed565b906001600160a01b03831633141580612386575b612374575f5b82811061022f57478047106101ea575f80808093335af161017a615244565b501561018257005b60405162461bcd60e51b815260206004820152603a60248201527f416464726573733a20756e61626c6520746f2073656e642076616c75652c20726044820152791958da5c1a595b9d081b585e481a185d99481c995d995c9d195960321b6064820152608490fd5b60405162461bcd60e51b815260206004820152601d60248201527f416464726573733a20696e73756666696369656e742062616c616e63650000006044820152606490fd5b8060051b820135603e19833603018112156104ed5782016040813603126104ed576040519061025d826149ca565b8035600b8110156104ed57825260208101356001600160401b0381116104ed5736601f8284010112156104ed5761029c91369101803590602001614f9a565b60208201528051600b8110156123605760010361055d5760200151908151820161014083602083019203126104ed576102d760208401614fd0565b9260408101519360608201519160808101519060a0810151936103176102ff60c08401614c6a565b966101206103108260e08701615047565b9401615047565b60405163032bb44360e01b81526001600160a01b038681166004830152919691602090829060249082907f0000000000000000000000000000000000000000000000000000000000000000165afa9081156104e2575f91610523575b5015610511576103ab6103a6307f0000000000000000000000000000000000000000000000000000000000000000615273565b6154b6565b938c8860016103b9856154de565b146104f7575b505060208401516001600160a01b0316806104f1575060208701516001600160a01b0316925b6001600160a01b0387163b156104ed578d9a6040519b63977b1f5f60e01b8d5260018060a01b031660048d015260248c015260448b015260648a015260848901525f60a489015260018060a01b031660c48801525f8760e4818360018060a01b0388165af19485156104e25764e8d4a5100061049d6104ae9460019a6104b4996104d3575b506104986103a6307f0000000000000000000000000000000000000000000000000000000000000000615273565b6154fa565b0590816104ba575b5050828a615512565b87615512565b0161015b565b6104c66104cc926157c7565b8c614f3c565b5f806104a5565b6104dc906149e5565b5f61046a565b6040513d5f823e3d90fd5b5f80fd5b926103e5565b61050a91610504856157c7565b9061542f565b8c886103bf565b60405163047b7c1b60e41b8152600490fd5b90506020813d602011610555575b8161053e60209383614a9c565b810103126104ed5761054f90614c6a565b5f610373565b3d9150610531565b8051600b8110156123605760090361082f57602001519081518201916101c0818403126104ed5761059060208201614fd0565b92610180828203601f1901126104ed57604051916105ad83614a2f565b6040810151835260608101516020840152608081015160408401526105d460a08201614fd0565b60608401526105e560c08201614fd0565b608084015260e081015160a084015260c081830360df1901126104ed5760405161060e81614a66565b61061b6101008301614fd0565b815261062a6101208301614fd0565b602082015261063c6101408301614fd0565b6040820152610160820151606082015261018082015160808201526101a082015160a082015260c08401526101c0810151916001600160401b0383116104ed5761068d926020809201920101615005565b60405163032bb44360e01b81526001600160a01b038581166004830152602090829060249082907f0000000000000000000000000000000000000000000000000000000000000000165afa9081156104e2575f916107f5575b5015610511576001600160a01b0384163b156104ed576040805163736a01df60e01b81526001600160a01b03808a16600483015284516024830152602080860151604484015283860151606484015260608087015183166084850152608080880151841660a486015260a08881015160c487015260c0909801518051851660e48701529283015184166101048601529482015190921661012484015290810151610144830152918201516101648201529201516101848301526101c06101a483015290925f918491908290849082906107c4906101c483019061521f565b03926001600160a01b03165af19182156104e2576001926107e6575b506104b4565b6107ef906149e5565b5f6107e0565b90506020813d602011610827575b8161081060209383614a9c565b810103126104ed5761082190614c6a565b5f6106e6565b3d9150610803565b8051600b81101561236057600203610abf57602001519081805160a0938491810103126104ed5760208101516001600160a01b03811681036104ed5760408201519061088660608401519560808501519401614c6a565b60405163032bb44360e01b81526001600160a01b038381166004830152919491602090829060249082907f0000000000000000000000000000000000000000000000000000000000000000165afa9081156104e2575f91610a85575b5015806109ea575b61051157826109da575b7f0000000000000000000000000000000000000000000000000000000000000000916109203084615273565b936001600160a01b0382163b156104ed57604051636961d57960e11b81526001600160a01b03808d16600483015260248201929092526044810198909852606488018390525f91889160849183918591165af19586156104e2576001966109cb575b506109aa5750505f905b81610999575b50506104b4565b6109a39187614f3c565b5f80610992565b64e8d4a51000916109bf6109c4923090615273565b615212565b049061098c565b6109d4906149e5565b5f610982565b6109e584848b61542f565b6108f4565b5060405163032bb44360e01b81526001600160a01b038381166004830152602090829060249082907f0000000000000000000000000000000000000000000000000000000000000000165afa9081156104e2575f91610a4b575b50156108ea565b90506020813d602011610a7d575b81610a6660209383614a9c565b810103126104ed57610a7790614c6a565b5f610a44565b3d9150610a59565b90506020813d602011610ab7575b81610aa060209383614a9c565b810103126104ed57610ab190614c6a565b5f6108e2565b3d9150610a93565b8051600b81101561236057600303610f3757602001519081518201918083039261014084126104ed57610120610af760208401614fd0565b94601f1901126104ed5760405191610b0e83614a2f565b604081015160ff811681036104ed578352606081015191825f0b83036104ed57602061012091610b7694828701526080840151604087015260a0840151606087015260c08401516080870152610b6982820160e08601615047565b60a0870152019101615047565b60c082015260405163032bb44360e01b81526001600160a01b038481166004830152602090829060249082907f0000000000000000000000000000000000000000000000000000000000000000165afa9081156104e2575f91610efd575b501561051157604081015115610ea35760208101515f0b5f198114159081610ef1575b50610ea35760ff81511660038111908115610eb5575b50610ea3576001600160a01b038681165f908152600160209081526040808320938716835292905290812090545f198114610e8f57600101805f555f5260205260405f209260ff8083511611610e7d57607f60208301515f0b13610e7d57607f1960208301515f0b12610e7d576002610c896040840151615679565b14610e7d576002610c9d6060840151615873565b14610e7d57610caf6060830151615840565b15610e7d576002610cc36080840151615873565b14610e7d57610cd56080830151615840565b15610e7d576002610cea60a08401515161569e565b14610e7d576002610cff60c08401515161569e565b14610e7d5765ffffffffffff60c0610e4084600197600260ff83511691602084015192604085015160608601519060808701519261ff0060a0890151976001610160815f9260a01b0360208c0151169e8f9b51169d8e9c01519a60018c60208265ffffffffffff9360a01b03910151169c51169c60405191610d8083614a4a565b87835285850b602084015260018060401b03891660408401528960070b60608401528a60070b60808401528460a084015260c083015260e0820152826101008201528b6101208201528c610140820152015260081b161790620100008f60501b039060101b1617908d60501b8e60901b039060501b1617908c60901b8d60d01b039060901b16178155610e258b8201968c8060a01b03199889895416178855876152de565b8a8060d01b03958681541690550194855416178455836152de565b81541690555f54915f8051602061594783398151915260405192868060a01b03169280610e75888060a01b038c16948261496a565b0390a46104b4565b60405163f3469aa760e01b8152600490fd5b634e487b7160e01b5f52601160045260245ffd5b6040516316d7df6b60e31b8152600490fd5b600391501480610ec6575b5f610c0d565b50610ed4608082015161585b565b60028114908115610ee6575b50610ec0565b60019150145f610ee0565b6001915014155f610bf7565b90506020813d602011610f2f575b81610f1860209383614a9c565b810103126104ed57610f2990614c6a565b5f610bd4565b3d9150610f0b565b8051600b81101561236057600403610fd05760200151906040828051810103126104ed57816040610f6c602060019501614fd0565b910151838060a01b0387165f528360205260405f2091848060a01b031691825f5260205260405f20815f526020525f600260408220828155828782015501556040519081525f805160206159278339815191526020858060a01b03891692a36104b4565b8051600b81101561236057600503611cbd5760200151906060828051810103126104ed5761100060208301614fd0565b606061100e60408501614fd0565b93015161102581856001600160a01b038516614c77565b15611cab5761103e81856001600160a01b038516614b1e565b60405161104a816149f8565b5f81527f000000000000000000000000000000000000000000000000000000000000000060208201525f60408201527f0000000000000000000000000000000000000000000000000000000000000000606082015260408201516040519060018060a01b038616602083015260018060a01b03881660408301526060820152606081526110d6816149f8565b604051916110e383614a81565b5f83525f6020840152670de0b6b3a7640000611122825161111d8361110c60208701519361517d565b046111174893615160565b90615703565b61518b565b0492611155602060606040850151940151926040518093819263de26c4a160e01b8352846004840152602483019061521f565b0381600f602160991b015afa9081156104e2575f91611c79575b506040516318b30b2360e31b8152602081600481600f602160991b015afa9081156104e2575f91611c47575b506001600160fc1b0381168103610e8f5760405163519b4bd360e01b815290602082600481600f602160991b015afa9081156104e2575f91611c11575b6111e5925060041b61518b565b60405163346aee5360e11b815290602082600481600f602160991b015afa9182156104e2575f92611bdd575b506040516303e0818560e61b8152602081600481600f602160991b015afa9081156104e2575f91611ba9575b506111179061124b9361518b565b60405163313ce56760e01b81529092602082600481600f602160991b015afa9182156104e2575f92611b75575b50604d8211610e8f57600a82900a6001600160fc1b0381169003610e8f57611117670de0b6b3a76400006112c7819761111d6112c16112ce9961111d98600a0a60041b90615498565b97615160565b0491615160565b04906112da8284615703565b5f8051602061596783398151915254604051633fabe5a360e21b81529060a090829060049082906001600160a01b03165afa9081156104e2575f91611b28575b5080670de0b6b3a7640000810205670de0b6b3a76400001481151715610e8f575f6305f5e100670de0b6b3a764000083020512611b0057670de0b6b3a7640000916305f5e1008361136d9302059061518b565b04906060818051810103126104ed5761138860208201614fd0565b606061139660408401614fd0565b9201519280611ad157506113c7906113cc935f905b80821015611ac757509283915b6001600160a01b0316906157d6565b61519e565b906113e682335f805160206159a7833981519152546151b8565b604051925f84525f60208501526040840152606083015260808201525f8051602061598783398151915260a03392a26001600160a01b0385163b156104ed57604051636a256b2960e01b81526001600160a01b0384811660048301525f908290602490829084908b165af180156104e257611ab8575b5060405162dc326d60e71b81526001600160a01b0384811660048301526101a090829060249082908a165afa9081156104e2575f916119f6575b5060405163055f575160e41b81526001600160a01b0385811660048301529096906080908890602490829085165afa9687156104e2575f97611995575b50815187526114e56020880151615724565b6115086114f56060850151615724565b6115026080860151615724565b906154fa565b80808301125f8312908015821691151617610e8f57611527910161574d565b916115356040890151615724565b61155261154560a0840151615724565b61150260c0850151615724565b80808301125f8312908015821691151617610e8f57611571910161574d565b9061159e61158260608b0151615724565b9161150261010061159660e0840151615724565b920151615724565b80808301125f8312908015821691151617610e8f576115bd910161574d565b606089015260408801528160208801525f9160ff84511615611949575b50600160ff845116146118ff575b600260ff845116146118b5575b600360ff8451161461188c575b602087015191606060408901519801519760c060a08601519501519160405163032bb44360e01b815260018060a01b038516600482015260208160248160018060a01b037f0000000000000000000000000000000000000000000000000000000000000000165afa9081156104e2575f91611852575b5015610511576116ab6103a6307f0000000000000000000000000000000000000000000000000000000000000000615273565b9960016116b7836154de565b14611832575b60208701516001600160a01b03168061182c575060208401516001600160a01b0316925b6001600160a01b0386163b156104ed576040519663977b1f5f60e01b885260018060a01b038b16600489015260248801526044870152606486015260848501525f60a485015260018060a01b031660c48401525f8360e4818360018060a01b0387165af19081156104e2576117b95f805160206159078339815191529564e8d4a510006117a360019c6020986117c7976104d357506104986103a6307f0000000000000000000000000000000000000000000000000000000000000000615273565b058061180d575b50848b8060a01b038a16615512565b82898060a01b038816615512565b60a087901b8790039485165f8181528884526040808220939097168082529284528681208682528452868120818155808a018290556002015594519384529392a36104b4565b611819611826916157c7565b8c8060a01b038b16614db8565b5f6117aa565b926116e1565b61184d61183e836157c7565b6001600160a01b038b16615305565b6116bd565b90506020813d602011611884575b8161186d60209383614a9c565b810103126104ed5761187e90614c6a565b5f611678565b3d9150611860565b90506080820151600161189e82615840565b036118b05750600160ff1b5b90611602565b6118aa565b6080830180516118cc57505f5b60608801526115f5565b6118d96060890151615724565b905180808301125f8312908015821691151617610e8f576118fa910161574d565b6118c2565b60808301805161191657505f5b60408801526115e8565b6119236040890151615724565b905180808301125f8312908015821691151617610e8f57611944910161574d565b61190c565b60808401908151155f146119665750505f5b60208801525f6115da565b61196f90615724565b905180808301125f8312908015821691151617610e8f57611990910161574d565b61195b565b9096506080813d6080116119ee575b816119b160809383614a9c565b810103126104ed576060604051916119c8836149f8565b80518352602081015160208401526040810151604084015201516060820152955f6114d3565b3d91506119a4565b90506101a0813d6101a011611ab0575b81611a146101a09383614a9c565b810103126104ed5760405190611a2982614a13565b805182526020810151602083015260408101516040830152606081015160608301526080810151608083015260a081015160a083015260c0808201519083015260e081015160e0830152610100808201519083015261012080820151908301526101408082015190830152610160808201519083015261018080910151908201525f611496565b3d9150611a06565b611ac1906149e5565b5f61145c565b90509283916113b8565b5f198101908111610e8f5764e8d4a51000900490600182018211610e8f576113cc9360016113c79301906113ab565b6024906305f5e100670de0b6b3a76400006040519263280f944f60e11b845202056004820152fd5b905060a0813d60a011611b6d575b81611b4360a09383614a9c565b810103126104ed57611b5481615710565b50611b66608060208301519201615710565b505f61131a565b3d9150611b36565b9091506020813d602011611ba1575b81611b9160209383614a9c565b810103126104ed5751905f611278565b3d9150611b84565b90506020813d602011611bd5575b81611bc460209383614a9c565b810103126104ed575161124b61123d565b3d9150611bb7565b9091506020813d602011611c09575b81611bf960209383614a9c565b810103126104ed5751905f611211565b3d9150611bec565b90506020823d602011611c3f575b81611c2c60209383614a9c565b810103126104ed576111e59151906111d8565b3d9150611c1f565b90506020813d602011611c71575b81611c6260209383614a9c565b810103126104ed57515f61119b565b3d9150611c55565b90506020813d602011611ca3575b81611c9460209383614a9c565b810103126104ed57515f61116f565b3d9150611c87565b6040516337a314b160e11b8152600490fd5b8051600b81101561236057600603611fc957602001518051810160c0828203126104ed57611ced60208301614fd0565b6040830151606084015191906001600160401b0383116104ed5760208401603f8487010112156104ed5784830160200151926001600160401b038411611fb5578360051b9060405194611d436020840187614a9c565b855260208501809260208801604082858c010101116104ed576040838a0101915b604082858c0101018310611fa55750505050608086015160a08701519095906001600160401b0381116104ed57611da860c091602080611daf9501918b0101615005565b9701614c6a565b95611dda307f0000000000000000000000000000000000000000000000000000000000000000615273565b604051639fa6a6e360e01b81529096906020816004816001600160a01b038a165afa9081156104e2575f91611f73575b50805f19810111610e8f575f198101421015611f6b5750425b80821015611f6457505b6001600160a01b0385163b156104ed576040516301e298b960e41b815260606004820152955160648701819052869493608486019392915f905b808210611f4857505050611e9285935f9795938593602485015260031984830301604485015261521f565b03926001600160a01b03165af19081611f39575b50611ed75750611eb4615244565b90611ec257506001906104b4565b60405190611ecf82614a81565b5f82526156c8565b6001929150611f0d611f34916109bf307f0000000000000000000000000000000000000000000000000000000000000000615273565b337f00000000000000000000000000000000000000000000000000000000000000006151b8565b6104b4565b611f42906149e5565b5f611ea6565b8251865289975060209586019590920191600190910190611e67565b9050611e2d565b5f1901611e23565b90506020813d602011611f9d575b81611f8e60209383614a9c565b810103126104ed57515f611e0a565b3d9150611f81565b8251815260209283019201611d64565b634e487b7160e01b5f52604160045260245ffd5b8051600b811015612360576008036121fd57602001516020818051810103126104ed576001600160a01b039061200190602001614fd0565b60405163032bb44360e01b815291166004820181905291906020816024817f00000000000000000000000000000000000000000000000000000000000000006001600160a01b03165afa9081156104e2575f916121c3575b50158061212d575b80612097575b61051157611f346001927f0000000000000000000000000000000000000000000000000000000000000000615076565b5060405163032bb44360e01b8152600481018390526020816024817f00000000000000000000000000000000000000000000000000000000000000006001600160a01b03165afa9081156104e2575f916120f3575b5015612067565b90506020813d602011612125575b8161210e60209383614a9c565b810103126104ed5761211f90614c6a565b5f6120ec565b3d9150612101565b5060405163032bb44360e01b8152600481018390526020816024817f00000000000000000000000000000000000000000000000000000000000000006001600160a01b03165afa9081156104e2575f91612189575b5015612061565b90506020813d6020116121bb575b816121a460209383614a9c565b810103126104ed576121b590614c6a565b5f612182565b3d9150612197565b90506020813d6020116121f5575b816121de60209383614a9c565b810103126104ed576121ef90614c6a565b5f612059565b3d91506121d1565b8051600b81101561236057600a14612219575b506001906104b4565b60200151906040828051810103126104ed57612243604061223c60208501614fd0565b9301614c6a565b60405163032bb44360e01b81526001600160a01b03938416600482018190529193602090829060249082907f0000000000000000000000000000000000000000000000000000000000000000165afa9081156104e2575f91612326575b501561051157604051636ebc51e160e01b81526001600160a01b038716600482015290602090829060249082905f905af19081156104e2575f916122f3575b506001926122ed9187614f3c565b90612210565b90506020813d60201161231e575b8161230e60209383614a9c565b810103126104ed575160016122df565b3d9150612301565b90506020813d602011612358575b8161234160209383614a9c565b810103126104ed5761235290614c6a565b5f6122a0565b3d9150612334565b634e487b7160e01b5f52602160045260245ffd5b6040516342ecdedb60e01b8152600490fd5b5060018060a01b0383165f52600260205260405f20335f5260205260ff60405f20541615610155565b346104ed575f3660031901126104ed5760206040517f00000000000000000000000000000000000000000000000000000000000000008152f35b346104ed575f3660031901126104ed5760206040517f00000000000000000000000000000000000000000000000000000000000000008152f35b346104ed57602061243c6124363661491d565b91614c77565b6040519015158152f35b346104ed5761246c61246061245a3661491d565b91614b1e565b6040519182918261496a565b0390f35b346104ed575f3660031901126104ed57602060405160108152f35b346104ed575f3660031901126104ed5760205f54604051908152f35b346104ed575f3660031901126104ed576040517f00000000000000000000000000000000000000000000000000000000000000006001600160a01b03168152602090f35b346104ed5760203660031901126104ed576004356001600160a01b03818116918290036104ed577f6fee9688c285c5c5c97d6a1a29adced674e6b2ad0888b8ad2116b58a8b3ea24860028154101561269257600290557f2801b00eb06461cf9fcb9758b5fafd884ff06a86177386f73b6c49f0bf5a5af090600182557f0000000000000000000000000000000000000000000000000000000000000000303b15158061268b575b61267957612611612637925f955f8051602061596783398151915255825f805160206159a783398151915255807f00000000000000000000000000000000000000000000000000000000000000001680612665575b507f0000000000000000000000000000000000000000000000000000000000000000168092615076565b7f0000000000000000000000000000000000000000000000000000000000000000615076565b557fbe9b076dc5b65990cca9dd9d7366682482e7817a6f6bc7f4faf4dc32af497f32602060405160028152a1005b806126116126739286615076565b866125e7565b60405163b9a621e160e01b8152600490fd5b505f612592565b604051631edb9c6d60e11b815260026004820152602490fd5b60203660031901126104ed576004356001600160401b0381116104ed576126d69036906004016148ed565b905f5b8281106126f857478047106101ea575f80808093335af161017a615244565b8060051b820135603e19833603018112156104ed5782016040813603126104ed5760405190612726826149ca565b600b908035828110156104ed5783526020810135906001600160401b0382116104ed570136601f820112156104ed57612766903690602081359101614f9a565b9160208101928352805182811015612360576001036129d957505051908151820161014083602083019203126104ed576127a260208401614fd0565b9260408101519360608201519160808101519060a0810151936127ca6102ff60c08401614c6a565b60405163032bb44360e01b81526001600160a01b038681166004830152919691602090829060249082907f0000000000000000000000000000000000000000000000000000000000000000165afa9081156104e2575f9161299f575b5015610511576128596103a6307f0000000000000000000000000000000000000000000000000000000000000000615273565b936001612865836154de565b14612987575b60208401516001600160a01b031680612981575060208701516001600160a01b0316925b6001600160a01b0387163b156104ed5760405163977b1f5f60e01b8152336004820152602481019b909b5260448b015260648a015260848901525f60a489018190526001600160a01b0391821660c48a015290889060e4908290849088165af19485156104e25764e8d4a5100061293c61294d9460019a6129539961297257506104986103a6307f0000000000000000000000000000000000000000000000000000000000000000615273565b059081612959575b50508233615512565b33615512565b016126d9565b61296561296b926157c7565b33614f3c565b8980612944565b61297b906149e5565b8d61046a565b9261288f565b61299a88612994846157c7565b3361542f565b61286b565b90506020813d6020116129d1575b816129ba60209383614a9c565b810103126104ed576129cb90614c6a565b8c612826565b3d91506129ad565b80518281101561236057600903612ca9575050519081518201916101c0818403126104ed57612a0a60208201614fd0565b92610180828203601f1901126104ed5760405190612a2782614a2f565b604083015182526060830151602083015260808301516040830152612a4e60a08401614fd0565b606083015260c092612a61848201614fd0565b608084015260e081015160a08401528360df1982840301126104ed57604051612a8981614a66565b612a966101008301614fd0565b8152612aa56101208301614fd0565b6020820152612ab76101408301614fd0565b6040820152610160820151606082015261018082015160808201526101a082015160a0820152838501526101c0810151916001600160401b0383116104ed57612b07926020809201920101615005565b60405163032bb44360e01b81526001600160a01b038087166004830152919591602090829060249082907f0000000000000000000000000000000000000000000000000000000000000000165afa9081156104e2575f91612c6f575b5015610511576001600160a01b0381163b156104ed576040805163736a01df60e01b81523360048201528351602482015260208085015160448301528483015160648301526060808601516001600160a01b039081166084850152608080880151821660a486015260a08089015160c487015298909701518051821660e4860152928301518116610104850152938201519093166101248301529182015161014482015292810151610164840152909201516101848201526101c06101a4820152925f918491829084908290612c3e906101c483019061521f565b03926001600160a01b03165af19182156104e257600192612c60575b50612953565b612c69906149e5565b84612c5a565b90506020813d602011612ca1575b81612c8a60209383614a9c565b810103126104ed57612c9b90614c6a565b88612b63565b3d9150612c7d565b80518281101561236057600203612f1f575050519081805160a0918291810103126104ed576020830151926001600160a01b039081851685036104ed576040810151612d0060608301519460808401519301614c6a565b9360405163032bb44360e01b908181528589166004820152602081602481897f0000000000000000000000000000000000000000000000000000000000000000165afa9081156104e2575f91612ee5575b50159081612e5a575b506105115781612e4a575b612d8f307f0000000000000000000000000000000000000000000000000000000000000000615273565b938088163b156104ed575f92836084926040519a8b958694636961d57960e11b865233600487015260248601526044850152876064850152165af19485156104e257600195612e3b575b50612e0057505f905b81612def575b5050612953565b612df99133614f3c565b8480612de8565b612e3464e8d4a51000916109bf307f0000000000000000000000000000000000000000000000000000000000000000615273565b0490612de2565b612e44906149e5565b87612dd9565b612e5585833361542f565b612d65565b90506040519081528488166004820152602081602481887f0000000000000000000000000000000000000000000000000000000000000000165afa9081156104e2575f91612eab575b50158a612d5a565b90506020813d602011612edd575b81612ec660209383614a9c565b810103126104ed57612ed790614c6a565b8a612ea3565b3d9150612eb9565b90506020813d602011612f17575b81612f0060209383614a9c565b810103126104ed57612f1190614c6a565b8b612d51565b3d9150612ef3565b80518281101561236057600303613281575050519081518201918083039261014084126104ed57610120612f5560208401614fd0565b94601f1901126104ed5760405191612f6c83614a2f565b604081015160ff811681036104ed578352606081015191825f0b83036104ed57602061012091612fc794828701526080840151604087015260a0840151606087015260c08401516080870152610b6982820160e08601615047565b60c082015260405163032bb44360e01b81526001600160a01b038481166004830152602090829060249082907f0000000000000000000000000000000000000000000000000000000000000000165afa9081156104e2575f91613247575b501561051157604081015115610ea35760208101515f0b5f19811415908161323b575b50610ea35760ff815116600381119081156131ff575b50610ea357335f52600160205260405f2060018060a01b0384165f5260205260405f205f545f198114610e8f57600101805f555f5260205260405f209260ff8083511611610e7d57607f60208301515f0b13610e7d57607f1960208301515f0b12610e7d5760026130d26040840151615679565b14610e7d5760026130e66060840151615873565b14610e7d576130f86060830151615840565b15610e7d57600261310c6080840151615873565b14610e7d5761311e6080830151615840565b15610e7d57600261313360a08401515161569e565b14610e7d57600261314860c08401515161569e565b14610e7d5765ffffffffffff60c06131c984600197600260ff83511691602084015192604085015160608601519060808701519261ff0060a0890151976001610160815f9260a01b0360208c0151169e8f9b51169d8e9c01519a60018c60208265ffffffffffff9360a01b03910151169c51169c60405191610d8083614a4a565b81541690555f54915f8051602061594783398151915260405192868060a01b031692806131f733948261496a565b0390a4612953565b600391501480613210575b8661305e565b5061321e608082015161585b565b60028114908115613230575b5061320a565b60019150148661322a565b60019150141586613048565b90506020813d602011613279575b8161326260209383614a9c565b810103126104ed5761327390614c6a565b86613025565b3d9150613255565b8051828110156123605760040361330a57505051906040828051810103126104ed578160406132b4602060019501614fd0565b910151335f528360205260405f2091848060a01b031691825f5260205260405f20815f526020525f600260408220828155828782015501556040519081525f8051602061592783398151915260203392a3612953565b80518281101561236057600503613f3157505051906060828051810103126104ed5761333860208301614fd0565b606061334660408501614fd0565b93015161335d81856001600160a01b038516614c77565b15611cab5761337681856001600160a01b038516614b1e565b604051613382816149f8565b5f81527f000000000000000000000000000000000000000000000000000000000000000060208201525f60408201527f0000000000000000000000000000000000000000000000000000000000000000606082015260408201516040519060018060a01b038616602083015260018060a01b038816604083015260608201526060815261340e816149f8565b6040519161341b83614a81565b5f83525f6020840152670de0b6b3a7640000613444825161111d8361110c60208701519361517d565b0492613477602060606040850151940151926040518093819263de26c4a160e01b8352846004840152602483019061521f565b0381600f602160991b015afa9081156104e2575f91613eff575b506040516318b30b2360e31b8152602081600481600f602160991b015afa9081156104e2575f91613ecd575b506001600160fc1b0381168103610e8f5760405163519b4bd360e01b815290602082600481600f602160991b015afa9081156104e2575f91613e97575b613507925060041b61518b565b60405163346aee5360e11b815290602082600481600f602160991b015afa9182156104e2575f92613e63575b506040516303e0818560e61b8152602081600481600f602160991b015afa9081156104e2575f91613e2f575b506111179061356d9361518b565b60405163313ce56760e01b81529092602082600481600f602160991b015afa9182156104e2575f92613dfb575b50604d8211610e8f57600a82900a6001600160fc1b0381169003610e8f57611117670de0b6b3a76400006112c7819761111d6112c16135e39961111d98600a0a60041b90615498565b04906135ef8284615703565b5f8051602061596783398151915254604051633fabe5a360e21b81529060a090829060049082906001600160a01b03165afa9081156104e2575f91613dae575b50670de0b6b3a7640000810290808205670de0b6b3a76400001490151715610e8f575f6305f5e100820512613d8f57670de0b6b3a7640000916305f5e10061367892059061518b565b04906060818051810103126104ed5761369360208201614fd0565b60606136a160408401614fd0565b9201519280613d6057506136cf926113c791905f908015611ac757509283916001600160a01b0316906157d6565b906136e982335f805160206159a7833981519152546151b8565b604051925f84525f60208501526040840152606083015260808201525f8051602061598783398151915260a03392a26001600160a01b0385163b156104ed57604051636a256b2960e01b81526001600160a01b0384811660048301525f908290602490829084908b165af180156104e257613d51575b5060405162dc326d60e71b81526001600160a01b0384811660048301526101a091908290829060249082908b165afa9182156104e2575f92613c96575b505060405163055f575160e41b81526001600160a01b0385811660048301529096906080908890602490829085165afa9687156104e2575f97613c35575b50815187526137ec6020880151615724565b6137fc6114f56060850151615724565b80808301125f8312908015821691151617610e8f5761381b910161574d565b916138296040890151615724565b61383961154560a0840151615724565b80808301125f8312908015821691151617610e8f57613858910161574d565b9061386961158260608b0151615724565b80808301125f8312908015821691151617610e8f57613888910161574d565b606089015260408801528160208801525f9160ff84511615613be9575b50600160ff84511614613b9f575b600260ff84511614613b55575b600360ff84511614613b2c575b602087015191606060408901519801519760c060a08601519501519160405163032bb44360e01b815260018060a01b038516600482015260208160248160018060a01b037f0000000000000000000000000000000000000000000000000000000000000000165afa9081156104e2575f91613af2575b5015610511576139766103a6307f0000000000000000000000000000000000000000000000000000000000000000615273565b996001613982836154de565b14613ae1575b60208701516001600160a01b031680613adb575060208401516001600160a01b0316925b6001600160a01b0386163b156104ed576040519663977b1f5f60e01b885260018060a01b038b16600489015260248801526044870152606486015260848501525f60a485015260018060a01b031660c48401525f8360e4818360018060a01b0387165af19081156104e2576117b95f805160206159078339815191529564e8d4a51000613a6e60019c602098613a83976104d357506104986103a6307f0000000000000000000000000000000000000000000000000000000000000000615273565b0580613ac95750848b8060a01b038a16615512565b60a087901b8790039485165f8181528884526040808220939097168082529284528681208682528452868120818155808a018290556002015594519384529392a3612953565b611819613ad5916157c7565b8d6117aa565b926139ac565b613aed61183e836157c7565b613988565b90506020813d602011613b24575b81613b0d60209383614a9c565b810103126104ed57613b1e90614c6a565b8d613943565b3d9150613b00565b905060808201516001613b3e82615840565b03613b505750600160ff1b5b906138cd565b613b4a565b608083018051613b6c57505f5b60608801526138c0565b613b796060890151615724565b905180808301125f8312908015821691151617610e8f57613b9a910161574d565b613b62565b608083018051613bb657505f5b60408801526138b3565b613bc36040890151615724565b905180808301125f8312908015821691151617610e8f57613be4910161574d565b613bac565b60808401908151155f14613c065750505f5b6020880152896138a5565b613c0f90615724565b905180808301125f8312908015821691151617610e8f57613c30910161574d565b613bfb565b9096506080813d608011613c8e575b81613c5160809383614a9c565b810103126104ed57606060405191613c68836149f8565b8051835260208101516020840152604081015160408401520151606082015295896137da565b3d9150613c44565b90809250813d8311613d4a575b613cad8183614a9c565b810103126104ed5760405190613cc282614a13565b805182526020810151602083015260408101516040830152606081015160608301526080810151608083015260a081015160a083015260c0808201519083015260e081015160e083015261010080820151908301526101208082015190830152610140808201519083015261016080820151908301526101808091015190820152888061379c565b503d613ca3565b613d5a906149e5565b8761375f565b5f198101908111610e8f5764e8d4a51000900490600182018211610e8f576136cf9360016113c79301906113ab565b60405163280f944f60e11b81526305f5e1009091056004820152602490fd5b905060a0813d60a011613df3575b81613dc960a09383614a9c565b810103126104ed57613dda81615710565b50613dec608060208301519201615710565b508c61362f565b3d9150613dbc565b9091506020813d602011613e27575b81613e1760209383614a9c565b810103126104ed5751908e61359a565b3d9150613e0a565b90506020813d602011613e5b575b81613e4a60209383614a9c565b810103126104ed575161356d61355f565b3d9150613e3d565b9091506020813d602011613e8f575b81613e7f60209383614a9c565b810103126104ed5751908e613533565b3d9150613e72565b90506020823d602011613ec5575b81613eb260209383614a9c565b810103126104ed576135079151906134fa565b3d9150613ea5565b90506020813d602011613ef7575b81613ee860209383614a9c565b810103126104ed57518d6134bd565b3d9150613edb565b90506020813d602011613f29575b81613f1a60209383614a9c565b810103126104ed57518c613491565b3d9150613f0d565b805182811015612360576006036141e4575050518051810160c0828203126104ed57613f5f60208301614fd0565b6040830151606084015191906001600160401b0383116104ed5760208401603f8487010112156104ed5784830160200151926001600160401b038411611fb5578360051b9060405194613fb56020840187614a9c565b855260208501809260208801604082858c010101116104ed576040838a0101915b604082858c01010183106141d45750505050608086015160a08701519095906001600160401b0381116104ed57611da860c09160208061401a9501918b0101615005565b95614045307f0000000000000000000000000000000000000000000000000000000000000000615273565b604051639fa6a6e360e01b81529096906020816004816001600160a01b038a165afa9081156104e2575f916141a2575b50805f19810111610e8f575f19810142101561419a5750425b8082101561419357505b6001600160a01b0385163b156104ed576040516301e298b960e41b815260606004820152955160648701819052869493608486019392915f905b808210614177575050506140fd85935f9795938593602485015260031984830301604485015261521f565b03926001600160a01b03165af19081614168575b5061412d575061411f615244565b90611ec25750600190612953565b6001929150611f0d614163916109bf307f0000000000000000000000000000000000000000000000000000000000000000615273565b612953565b614171906149e5565b86614111565b82518652899750602095860195909201916001909101906140d2565b9050614098565b5f190161408e565b90506020813d6020116141cc575b816141bd60209383614a9c565b810103126104ed57518c614075565b3d91506141b0565b8251815260209283019201613fd6565b805182811015612360576008036143fd57505051906020828051810103126104ed576001600160a01b0391829061421d90602001614fd0565b16916040519063032bb44360e01b8083528460048401526024926020818581867f0000000000000000000000000000000000000000000000000000000000000000165afa9081156104e2575f916143c3575b5015928361433b575b836142b1575b505050610511576141636001927f0000000000000000000000000000000000000000000000000000000000000000615076565b60209293506040518094819382528760048301527f0000000000000000000000000000000000000000000000000000000000000000165afa9081156104e2575f91614301575b501585808061427e565b90506020813d602011614333575b8161431c60209383614a9c565b810103126104ed5761432d90614c6a565b856142f7565b3d915061430f565b92506040518181528560048201526020818581867f0000000000000000000000000000000000000000000000000000000000000000165afa9081156104e2575f91614389575b501592614278565b90506020813d6020116143bb575b816143a460209383614a9c565b810103126104ed576143b590614c6a565b88614381565b3d9150614397565b90506020813d6020116143f5575b816143de60209383614a9c565b810103126104ed576143ef90614c6a565b8861426f565b3d91506143d1565b519081101561236057600a14614417575b50600190612953565b51906040828051810103126104ed57614437604061223c60208501614fd0565b60405163032bb44360e01b81526001600160a01b03938416600482018190529193602491906020908290849082907f0000000000000000000000000000000000000000000000000000000000000000165afa9081156104e2575f91614511575b501561051157604051636ebc51e160e01b815233600482015291602091839182905f905af19081156104e2575f916144de575b506001926144d89133614f3c565b9061440e565b90506020813d602011614509575b816144f960209383614a9c565b810103126104ed575160016144ca565b3d91506144ec565b90506020813d602011614543575b8161452c60209383614a9c565b810103126104ed5761453d90614c6a565b87614497565b3d915061451f565b346104ed575f3660031901126104ed575f80516020615967833981519152546040516001600160a01b039091168152602090f35b346104ed575f3660031901126104ed576040517f00000000000000000000000000000000000000000000000000000000000000006001600160a01b03168152602090f35b346104ed576145d1366148be565b6001600160a01b03909116903382141580614607575b61237457614605915f52600360205260405f205f8154915533614f3c565b005b50815f52600260205260405f20335f5260205260ff60405f205416156145e7565b346104ed575f3660031901126104ed576040517f00000000000000000000000000000000000000000000000000000000000000006001600160a01b03168152602090f35b346104ed5761467a366148be565b335f52600260205260405f209160018060a01b031691825f5260205260405f209015159060ff1981541660ff83161790556040519081527f2738289d9deecdc30eb8ffc42876633caecca1ffa166e4efa89f408e17373a1a60203392a3005b346104ed575f3660031901126104ed576040517f00000000000000000000000000000000000000000000000000000000000000006001600160a01b03168152602090f35b346104ed575f3660031901126104ed576040517f00000000000000000000000000000000000000000000000000000000000000006001600160a01b03168152602090f35b346104ed5760203660031901126104ed576001600160a01b036147826148a8565b165f526003602052602060405f2054604051908152f35b346104ed575f3660031901126104ed575f805160206159a7833981519152546040516001600160a01b039091168152602090f35b346104ed5760403660031901126104ed576147e66148a8565b6001600160a01b0360243581811692908390036104ed57165f52600260205260405f20905f52602052602060ff60405f2054166040519015158152f35b346104ed575f3660031901126104ed576040517f00000000000000000000000000000000000000000000000000000000000000006001600160a01b03168152602090f35b346104ed575f3660031901126104ed577f00000000000000000000000000000000000000000000000000000000000000006001600160a01b03168152602090f35b600435906001600160a01b03821682036104ed57565b60409060031901126104ed576004356001600160a01b03811681036104ed579060243580151581036104ed5790565b9181601f840112156104ed578235916001600160401b0383116104ed576020808501948460051b0101116104ed57565b60609060031901126104ed576001600160a01b039060043582811681036104ed579160243590811681036104ed579060443590565b805182526020908101516001600160a01b0316910152565b6149c89092919260e060c061012083019560ff815116845260208101515f0b60208501526040810151604085015260608101516060850152608081015160808501526149be60a082015160a0860190614952565b0151910190614952565b565b604081019081106001600160401b03821117611fb557604052565b6001600160401b038111611fb557604052565b608081019081106001600160401b03821117611fb557604052565b6101a081019081106001600160401b03821117611fb557604052565b60e081019081106001600160401b03821117611fb557604052565b61018081019081106001600160401b03821117611fb557604052565b60c081019081106001600160401b03821117611fb557604052565b602081019081106001600160401b03821117611fb557604052565b601f909101601f19168101906001600160401b03821190821017611fb557604052565b60405190614acc82614a2f565b815f81525f60208201525f60408201525f60608201525f6080820152604051614af4816149ca565b5f81525f602082015260a082015260c060405191614b11836149ca565b5f83525f60208401520152565b919091614b29614abf565b506001600160a01b039081165f9081526001602090815260408083209584168352948152848220938252928352839020614b61614abf565b50835191614b6e83614a4a565b81549360ff8516958685528560081c5f0b808387015260018060401b038760101c169283838801528760501c60070b948560608901528860901c60070b968760808a015260018060d01b0319809a1660a08a015260018101549889916002848416918260c08501528d65ffffffffffff809660a01c169d8e60e08701521661010085015201549161016061012082019d8e8786169052610140830194868160a01c1686521691015286519a614c228c6149ca565b8b52848b01525116985116835198614c398a6149ca565b895281890152825198614c4b8a614a2f565b89528801528601526060850152608084015260a083015260c082015290565b519081151582036104ed57565b9181614c839293614b1e565b6040908181015115614db15781516307dc0d1d60e41b81526001600160a01b03936020919082908290600490829089165afa8015614da7575f90614d70575b6060915060048551809781936352bfe78960e01b8352165afa928315614d67575f93614cf8575b5050614cf592506150e9565b90565b909192506060843d606011614d5f575b81614d1560609383614a9c565b810103126104ed57805191606083016001600160401b03811184821017611fb5578252845183528085015190830152614cf593614d53908201614c6a565b90820152905f80614ce9565b3d9150614d08565b513d5f823e3d90fd5b508181813d8311614da0575b614d868183614a9c565b810103126104ed575184811681036104ed57606090614cc2565b503d614d7c565b84513d5f823e3d90fd5b5050505f90565b90614dc29061519e565b906001600160a01b03907f0000000000000000000000000000000000000000000000000000000000000000821680158015614efd575b15614eb557507f000000000000000000000000000000000000000000000000000000000000000091614e2a3084615273565b93817f00000000000000000000000000000000000000000000000000000000000000001690813b156104ed575f9160248392604051948593849263db006a7560e01b845260048401525af180156104e257614ea6575b503090821603614e8f57505050565b614ea06149c8936109bf3085615273565b916151b8565b614eaf906149e5565b5f614e80565b809392503b156104ed57614ee2925f9283604051809681958294637647691d60e01b8452600484016151f9565b03925af180156104e257614ef4575b50565b6149c8906149e5565b506002614f36614f306113c7847f0000000000000000000000000000000000000000000000000000000000000000615273565b866156b7565b14614df8565b9115614f4b57614dc29061519e565b90614f586149c89261519e565b907f00000000000000000000000000000000000000000000000000000000000000006151b8565b6001600160401b038111611fb557601f01601f191660200190565b929192614fa682614f7f565b91614fb46040519384614a9c565b8294818452818301116104ed578281602093845f960137010152565b51906001600160a01b03821682036104ed57565b5f5b838110614ff55750505f910152565b8181015183820152602001614fe6565b81601f820112156104ed57805161501b81614f7f565b926150296040519485614a9c565b818452602082840101116104ed57614cf59160208085019101614fe4565b91908260409103126104ed5760405161505f816149ca565b60206150718183958051855201614fd0565b910152565b60405163095ea7b360e01b81526001600160a01b0392831660048201525f19602482015291602091839160449183915f91165af180156104e2576150b75750565b6020813d6020116150e1575b816150d060209383614a9c565b810103126104ed57614ef190614c6a565b3d91506150c3565b60408201511561515a5760208101515f0b60018114615137575f191461510f5750505f90565b606060206151229301519101519061588d565b801590811561512f575090565b600191501490565b506060602061514b9301519101519061588d565b6002811490811561512f575090565b50505f90565b90670de0b6b3a764000091828102928184041490151715610e8f57565b905f911560011715610e8f57565b81810292918115918404141715610e8f57565b64e8d4a5100090818102918183041490151715610e8f5790565b60405163a9059cbb60e01b60208201526001600160a01b0392831660248201526044808201949094529283526149c89291906151f3836149f8565b1661559b565b9081526001600160a01b03909116602082015260400190565b91908203918211610e8f57565b9060209161523881518092818552858086019101614fe4565b601f01601f1916010190565b3d1561526e573d9061525582614f7f565b916152636040519384614a9c565b82523d5f602084013e565b606090565b6040516370a0823160e01b81526001600160a01b0392831660048201529160209183916024918391165afa9081156104e2575f916152af575090565b90506020813d6020116152d6575b816152ca60209383614a9c565b810103126104ed575190565b3d91506152bd565b805465ffffffffffff60a01b191660a09290921b65ffffffffffff60a01b16919091179055565b906113c781615334937f000000000000000000000000000000000000000000000000000000000000000061576f565b6001600160a01b037f00000000000000000000000000000000000000000000000000000000000000008116801580156153f3575b156153c457507f00000000000000000000000000000000000000000000000000000000000000001690813b156104ed575f9160248392604051948593849263140e25ad60e31b845260048401525af180156104e257614ef45750565b8091503b156104ed57604051629dd64160e51b8152915f918391829084908290614ee2903090600484016151f9565b506002615429615423837f0000000000000000000000000000000000000000000000000000000000000000615273565b856156b7565b14615368565b90911561546557906113c781615334937f000000000000000000000000000000000000000000000000000000000000000061576f565b6154716149c89261519e565b907f000000000000000000000000000000000000000000000000000000000000000061576f565b81156154a2570490565b634e487b7160e01b5f52601260045260245ffd5b6001600160ff1b0381116154c75790565b6024906040519062a07eb560e01b82526004820152fd5b5f81136154f4575f136154ef575f90565b5f1990565b50600190565b81810392915f138015828513169184121617610e8f57565b919081518015615595578161554b604092867f037af8589fe92360e800c649b0515b0b2bf77b577766ff952b17630c4ad25f47956157d6565b6020840160018060a01b03918183809351165f52600360205282615574865f2054895190615703565b9151165f526003602052845f205561558e84518097614952565b16941692a3565b50505050565b6040516155f8916001600160a01b03166155b4826149ca565b5f806020958685527f5361666545524332303a206c6f772d6c6576656c2063616c6c206661696c656487860152868151910182855af16155f2615244565b9161589e565b80518061560457505050565b818391810103126104ed578161561a9101614c6a565b156156225750565b6084906040519062461bcd60e51b82526004820152602a60248201527f5361666545524332303a204552433230206f7065726174696f6e20646964206e6044820152691bdd081cdd58d8d9595960b21b6064820152fd5b6001600160401b0390818111615697571061569357600190565b5f90565b5050600290565b65ffffffffffff90818111615697571061569357600190565b818111615697571061569357600190565b8051909190156156db5750805190602001fd5b60405162461bcd60e51b8152602060048201529081906156ff90602483019061521f565b0390fd5b91908201809211610e8f57565b51906001600160501b03821682036104ed57565b6001600160ff1b0381116157355790565b6024906040519063eecaa25d60e01b82526004820152fd5b5f81126157575790565b6024906040519063b02ef08760e01b82526004820152fd5b6040516323b872dd60e01b60208201526001600160a01b03928316602482015230604482015260648082019490945292835260a083019291906001600160401b03841183851017611fb5576149c8936040521661559b565b5f81126157d15790565b5f0390565b6001600160a01b03908116926157eb90615724565b92803b156104ed575f928360c492604051968795869463123dd9c560e31b865216600485015282198060248601528060448601526064850152820360848401528160a48401525af180156104e257614ef45750565b60016001603f1b031990818113615697571261569357600190565b5f811361586d575f1361569357600190565b50600290565b60016001603f1b0390818113615697571261569357600190565b818113615697571261569357600190565b9192901561590057508151156158b2575090565b3b156158bb5790565b60405162461bcd60e51b815260206004820152601d60248201527f416464726573733a2063616c6c20746f206e6f6e2d636f6e74726163740000006044820152606490fd5b826156c856fe889f0643d669fbac53cbc7d1826992b9bce1fab5e9644034cffb9c0137fe9dd1d23ac4476ccf3eeb78c76d4b7bb113597bcd16c15d47656627ea6221d685ad73b32ded07b7d673202a5f35a959c39fc092a3d213bff00dadc295545acedf22d32b50211693ec91bcfe327771928b74a8f475c508d53e86fca4153bcf0f0e8776fa0333956d06e335c550bd5fc4ac9c003c6545e371331b1071fa4d5d8519d6c15b5cbfa852c5bd03e540eba853f8faf28a604a4d82bee1091096bfaea14d08c3a264697066735822122088c6c34e4de4996e180d1196fd2a93a0a5094d058ec37953c83b4b83a90e019464736f6c63430008180033"
}