{
  "address": "0x0818E46C726810c2f7a1C513D0637a862bc0df6F",
  "abi": [
    {
      "inputs": [
        {
          "internalType": "contract AggregatorV3Interface",
          "name": "feed",
          "type": "address"
        },
        {
          "internalType": "uint256",
          "name": "decimals",
          "type": "uint256"
        },
        {
          "internalType": "uint256",
          "name": "computeGas",
          "type": "uint256"
        },
        {
          "internalType": "UFixed18",
          "name": "computeMultiplier",
          "type": "uint256"
        },
        {
          "internalType": "uint256",
          "name": "computeBase",
          "type": "uint256"
        },
        {
          "internalType": "uint256",
          "name": "calldataGas",
          "type": "uint256"
        },
        {
          "internalType": "UFixed18",
          "name": "calldataMultiplier",
          "type": "uint256"
        },
        {
          "internalType": "uint256",
          "name": "calldataBase",
          "type": "uint256"
        }
      ],
      "stateMutability": "nonpayable",
      "type": "constructor"
    },
    {
      "inputs": [
        {
          "internalType": "int256",
          "name": "value",
          "type": "int256"
        }
      ],
      "name": "UFixed18UnderflowError",
      "type": "error"
    },
    {
      "inputs": [],
      "name": "CALLDATA_GAS",
      "outputs": [
        {
          "internalType": "UFixed18",
          "name": "",
          "type": "uint256"
        }
      ],
      "stateMutability": "view",
      "type": "function"
    },
    {
      "inputs": [],
      "name": "COMPUTE_GAS",
      "outputs": [
        {
          "internalType": "UFixed18",
          "name": "",
          "type": "uint256"
        }
      ],
      "stateMutability": "view",
      "type": "function"
    },
    {
      "inputs": [],
      "name": "FEED",
      "outputs": [
        {
          "internalType": "contract AggregatorV3Interface",
          "name": "",
          "type": "address"
        }
      ],
      "stateMutability": "view",
      "type": "function"
    },
    {
      "inputs": [],
      "name": "FEED_OFFSET",
      "outputs": [
        {
          "internalType": "int256",
          "name": "",
          "type": "int256"
        }
      ],
      "stateMutability": "view",
      "type": "function"
    },
    {
      "inputs": [],
      "name": "OPT_BASE_FEE_MULTIPLIER",
      "outputs": [
        {
          "internalType": "uint256",
          "name": "",
          "type": "uint256"
        }
      ],
      "stateMutability": "view",
      "type": "function"
    },
    {
      "inputs": [
        {
          "internalType": "uint256",
          "name": "value",
          "type": "uint256"
        }
      ],
      "name": "cost",
      "outputs": [
        {
          "internalType": "UFixed18",
          "name": "",
          "type": "uint256"
        }
      ],
      "stateMutability": "view",
      "type": "function"
    }
  ],
  "transactionHash": "0xeb2835fe1c4bf3e6f449d6923369e41ac8fe9423f9cf2c3d58f4f56a4711ab49",
  "args": [
    "0x841d7C994aC0Bb17CcD65a021E686e3cFafE2118",
    8,
    "0",
    "0",
    "0",
    "0",
    "0",
    "0"
  ],
  "numDeployments": 1,
  "solcInputHash": "b62203dfa6bf0fcaac9f1d53e865498b",
  "bytecode": "0x6101003461010557601f610a1a38819003918201601f19168301916001600160401b0383118484101761010957808492610100946040528339810103126101055780516001600160a01b038116810361010557602082015191604081015192606082015190608083015160a08401519260e060c08601519501519560c052604d83116100f1576100a09661009893600a0a60e05261011d565b60805261011d565b60a0526040516108a69081610174823960805181818161013801526106b7015260a051818181610318015261070f015260c05181818161038d015261077a015260e051818181609601526103c00152f35b634e487b7160e01b5f52601160045260245ffd5b5f80fd5b634e487b7160e01b5f52604160045260245ffd5b61012690610156565b8181029181830414901517156100f157670de0b6b3a764000061014a910491610156565b81018091116100f15790565b90670de0b6b3a7640000918281029281840414901517156100f15756fe6080604090808252600480361015610015575f80fd5b5f3560e01c9182630beaf38c14610732575081632e3b3771146106da57816338c05edf146106825781639097548d146100f657508063db904902146100bd5763fa91477214610062575f80fd5b346100b9575f7ffffffffffffffffffffffffffffffffffffffffffffffffffffffffffffffffc3601126100b957602090517f00000000000000000000000000000000000000000000000000000000000000008152f35b5f80fd5b50346100b9575f7ffffffffffffffffffffffffffffffffffffffffffffffffffffffffffffffffc3601126100b9576020905160108152f35b82346100b957602091827ffffffffffffffffffffffffffffffffffffffffffffffffffffffffffffffffc3601126100b957670de0b6b3a7640000908161015d7f00000000000000000000000000000000000000000000000000000000000000004861079e565b0483517fc598591800000000000000000000000000000000000000000000000000000000815273420000000000000000000000000000000000000f9086818581855afa908115610678575f9161064b575b507f0fffffffffffffffffffffffffffffffffffffffffffffffffffffffffffffff90818116810361053b578651907f519b4bd300000000000000000000000000000000000000000000000000000000825288828781875afa908115610610575f9161061a575b6102219250861b61079e565b86517f68d5dca600000000000000000000000000000000000000000000000000000000815288818781875afa908115610610575f916105e3575b508751907ff820614000000000000000000000000000000000000000000000000000000000825289828881885afa9182156105d957918793918b935f9261059e575b506102b292916102ac9161079e565b9061084c565b938851928380927f313ce5670000000000000000000000000000000000000000000000000000000082525afa908115610594575f91610567575b50604d811161053b57600a0a80851b9181160361048d5780156104b9578461033e61034c9493610347937f0000000000000000000000000000000000000000000000000000000000000000910461079e565b0491843561084c565b61084c565b83517ffeaf968c00000000000000000000000000000000000000000000000000000000815260a081848173ffffffffffffffffffffffffffffffffffffffff7f0000000000000000000000000000000000000000000000000000000000000000165afa908115610531575f916104e5575b507f0000000000000000000000000000000000000000000000000000000000000000908481029080820586149015171561048d5781156104b9577fffffffffffffffffffffffffffffffffffffffffffffffffffffffffffffffff82147f800000000000000000000000000000000000000000000000000000000000000082141661048d5705915f831261045e5750906104569161079e565b049051908152f35b602490838651917f501f289e000000000000000000000000000000000000000000000000000000008352820152fd5b6011847f4e487b71000000000000000000000000000000000000000000000000000000005f525260245ffd5b6012847f4e487b71000000000000000000000000000000000000000000000000000000005f525260245ffd5b905060a0813d60a011610529575b8161050060a093836107de565b810103126100b95761051181610859565b506105226080878301519201610859565b50866103bd565b3d91506104f3565b85513d5f823e3d90fd5b6011857f4e487b71000000000000000000000000000000000000000000000000000000005f525260245ffd5b90508781813d831161058d575b61057e81836107de565b810103126100b95751886102ec565b503d610574565b87513d5f823e3d90fd5b9384919395508092503d83116105d2575b6105b981836107de565b810103126100b957905186928a929091906102ac61029d565b503d6105af565b89513d5f823e3d90fd5b90508881813d8311610609575b6105fa81836107de565b810103126100b957518961025b565b503d6105f0565b88513d5f823e3d90fd5b90508882813d8311610644575b61063181836107de565b810103126100b957610221915190610215565b503d610627565b90508681813d8311610671575b61066281836107de565b810103126100b95751876101ae565b503d610658565b86513d5f823e3d90fd5b82346100b9575f7ffffffffffffffffffffffffffffffffffffffffffffffffffffffffffffffffc3601126100b957602090517f00000000000000000000000000000000000000000000000000000000000000008152f35b82346100b9575f7ffffffffffffffffffffffffffffffffffffffffffffffffffffffffffffffffc3601126100b957602090517f00000000000000000000000000000000000000000000000000000000000000008152f35b346100b9575f7ffffffffffffffffffffffffffffffffffffffffffffffffffffffffffffffffc3601126100b95760209073ffffffffffffffffffffffffffffffffffffffff7f0000000000000000000000000000000000000000000000000000000000000000168152f35b818102929181159184041417156107b157565b7f4e487b71000000000000000000000000000000000000000000000000000000005f52601160045260245ffd5b90601f7fffffffffffffffffffffffffffffffffffffffffffffffffffffffffffffffe0910116810190811067ffffffffffffffff82111761081f57604052565b7f4e487b71000000000000000000000000000000000000000000000000000000005f52604160045260245ffd5b919082018092116107b157565b519069ffffffffffffffffffff821682036100b95756fea264697066735822122067290466e7dbf3a16525857c1064778173e2862cbaa16b1c647f999aaefcbb5764736f6c63430008180033",
  "devdoc": {
    "kind": "dev",
    "methods": {
      "cost(uint256)": {
        "params": {
          "value": "The ether value of the transaction in addition to the gas cost rewarded"
        },
        "returns": {
          "_0": "The reward of the transaction"
        }
      }
    },
    "version": 1
  },
  "userdoc": {
    "kind": "user",
    "methods": {
      "CALLDATA_GAS()": {
        "notice": "The total calldata gas rewarded"
      },
      "COMPUTE_GAS()": {
        "notice": "The total compute gas rewarded"
      },
      "FEED()": {
        "notice": "Chainlink ETH-Token feed, where cost is expressed in terms of Token"
      },
      "FEED_OFFSET()": {
        "notice": "The precomputed offset of the Chainlink feed (10 ^ decimals)"
      },
      "cost(uint256)": {
        "notice": "Computes the reward of a transaction"
      }
    },
    "version": 1
  },
  "storageLayout": {
    "storage": [],
    "types": null
  }
}