{
  "address": "0xA8b58125953c7f2948E82A4558C745C1Cd3237ee",
  "abi": [
    {
      "inputs": [
        {
          "internalType": "uint256",
          "name": "minDelay",
          "type": "uint256"
        },
        {
          "internalType": "address[]",
          "name": "proposers",
          "type": "address[]"
        },
        {
          "internalType": "address[]",
          "name": "executors",
          "type": "address[]"
        },
        {
          "internalType": "address",
          "name": "admin",
          "type": "address"
        }
      ],
      "stateMutability": "nonpayable",
      "type": "constructor"
    },
    {
      "anonymous": false,
      "inputs": [
        {
          "indexed": true,
          "internalType": "bytes32",
          "name": "id",
          "type": "bytes32"
        },
        {
          "indexed": true,
          "internalType": "uint256",
          "name": "index",
          "type": "uint256"
        },
        {
          "indexed": false,
          "internalType": "address",
          "name": "target",
          "type": "address"
        },
        {
          "indexed": false,
          "internalType": "uint256",
          "name": "value",
          "type": "uint256"
        },
        {
          "indexed": false,
          "internalType": "bytes",
          "name": "data",
          "type": "bytes"
        }
      ],
      "name": "CallExecuted",
      "type": "event"
    },
    {
      "anonymous": false,
      "inputs": [
        {
          "indexed": true,
          "internalType": "bytes32",
          "name": "id",
          "type": "bytes32"
        },
        {
          "indexed": true,
          "internalType": "uint256",
          "name": "index",
          "type": "uint256"
        },
        {
          "indexed": false,
          "internalType": "address",
          "name": "target",
          "type": "address"
        },
        {
          "indexed": false,
          "internalType": "uint256",
          "name": "value",
          "type": "uint256"
        },
        {
          "indexed": false,
          "internalType": "bytes",
          "name": "data",
          "type": "bytes"
        },
        {
          "indexed": false,
          "internalType": "bytes32",
          "name": "predecessor",
          "type": "bytes32"
        },
        {
          "indexed": false,
          "internalType": "uint256",
          "name": "delay",
          "type": "uint256"
        }
      ],
      "name": "CallScheduled",
      "type": "event"
    },
    {
      "anonymous": false,
      "inputs": [
        {
          "indexed": true,
          "internalType": "bytes32",
          "name": "id",
          "type": "bytes32"
        }
      ],
      "name": "Cancelled",
      "type": "event"
    },
    {
      "anonymous": false,
      "inputs": [
        {
          "indexed": false,
          "internalType": "uint256",
          "name": "oldDuration",
          "type": "uint256"
        },
        {
          "indexed": false,
          "internalType": "uint256",
          "name": "newDuration",
          "type": "uint256"
        }
      ],
      "name": "MinDelayChange",
      "type": "event"
    },
    {
      "anonymous": false,
      "inputs": [
        {
          "indexed": true,
          "internalType": "bytes32",
          "name": "role",
          "type": "bytes32"
        },
        {
          "indexed": true,
          "internalType": "bytes32",
          "name": "previousAdminRole",
          "type": "bytes32"
        },
        {
          "indexed": true,
          "internalType": "bytes32",
          "name": "newAdminRole",
          "type": "bytes32"
        }
      ],
      "name": "RoleAdminChanged",
      "type": "event"
    },
    {
      "anonymous": false,
      "inputs": [
        {
          "indexed": true,
          "internalType": "bytes32",
          "name": "role",
          "type": "bytes32"
        },
        {
          "indexed": true,
          "internalType": "address",
          "name": "account",
          "type": "address"
        },
        {
          "indexed": true,
          "internalType": "address",
          "name": "sender",
          "type": "address"
        }
      ],
      "name": "RoleGranted",
      "type": "event"
    },
    {
      "anonymous": false,
      "inputs": [
        {
          "indexed": true,
          "internalType": "bytes32",
          "name": "role",
          "type": "bytes32"
        },
        {
          "indexed": true,
          "internalType": "address",
          "name": "account",
          "type": "address"
        },
        {
          "indexed": true,
          "internalType": "address",
          "name": "sender",
          "type": "address"
        }
      ],
      "name": "RoleRevoked",
      "type": "event"
    },
    {
      "inputs": [],
      "name": "CANCELLER_ROLE",
      "outputs": [
        {
          "internalType": "bytes32",
          "name": "",
          "type": "bytes32"
        }
      ],
      "stateMutability": "view",
      "type": "function"
    },
    {
      "inputs": [],
      "name": "DEFAULT_ADMIN_ROLE",
      "outputs": [
        {
          "internalType": "bytes32",
          "name": "",
          "type": "bytes32"
        }
      ],
      "stateMutability": "view",
      "type": "function"
    },
    {
      "inputs": [],
      "name": "EXECUTOR_ROLE",
      "outputs": [
        {
          "internalType": "bytes32",
          "name": "",
          "type": "bytes32"
        }
      ],
      "stateMutability": "view",
      "type": "function"
    },
    {
      "inputs": [],
      "name": "PROPOSER_ROLE",
      "outputs": [
        {
          "internalType": "bytes32",
          "name": "",
          "type": "bytes32"
        }
      ],
      "stateMutability": "view",
      "type": "function"
    },
    {
      "inputs": [],
      "name": "TIMELOCK_ADMIN_ROLE",
      "outputs": [
        {
          "internalType": "bytes32",
          "name": "",
          "type": "bytes32"
        }
      ],
      "stateMutability": "view",
      "type": "function"
    },
    {
      "inputs": [
        {
          "internalType": "bytes32",
          "name": "id",
          "type": "bytes32"
        }
      ],
      "name": "cancel",
      "outputs": [],
      "stateMutability": "nonpayable",
      "type": "function"
    },
    {
      "inputs": [
        {
          "internalType": "address",
          "name": "target",
          "type": "address"
        },
        {
          "internalType": "uint256",
          "name": "value",
          "type": "uint256"
        },
        {
          "internalType": "bytes",
          "name": "payload",
          "type": "bytes"
        },
        {
          "internalType": "bytes32",
          "name": "predecessor",
          "type": "bytes32"
        },
        {
          "internalType": "bytes32",
          "name": "salt",
          "type": "bytes32"
        }
      ],
      "name": "execute",
      "outputs": [],
      "stateMutability": "payable",
      "type": "function"
    },
    {
      "inputs": [
        {
          "internalType": "address[]",
          "name": "targets",
          "type": "address[]"
        },
        {
          "internalType": "uint256[]",
          "name": "values",
          "type": "uint256[]"
        },
        {
          "internalType": "bytes[]",
          "name": "payloads",
          "type": "bytes[]"
        },
        {
          "internalType": "bytes32",
          "name": "predecessor",
          "type": "bytes32"
        },
        {
          "internalType": "bytes32",
          "name": "salt",
          "type": "bytes32"
        }
      ],
      "name": "executeBatch",
      "outputs": [],
      "stateMutability": "payable",
      "type": "function"
    },
    {
      "inputs": [],
      "name": "getMinDelay",
      "outputs": [
        {
          "internalType": "uint256",
          "name": "duration",
          "type": "uint256"
        }
      ],
      "stateMutability": "view",
      "type": "function"
    },
    {
      "inputs": [
        {
          "internalType": "bytes32",
          "name": "role",
          "type": "bytes32"
        }
      ],
      "name": "getRoleAdmin",
      "outputs": [
        {
          "internalType": "bytes32",
          "name": "",
          "type": "bytes32"
        }
      ],
      "stateMutability": "view",
      "type": "function"
    },
    {
      "inputs": [
        {
          "internalType": "bytes32",
          "name": "id",
          "type": "bytes32"
        }
      ],
      "name": "getTimestamp",
      "outputs": [
        {
          "internalType": "uint256",
          "name": "timestamp",
          "type": "uint256"
        }
      ],
      "stateMutability": "view",
      "type": "function"
    },
    {
      "inputs": [
        {
          "internalType": "bytes32",
          "name": "role",
          "type": "bytes32"
        },
        {
          "internalType": "address",
          "name": "account",
          "type": "address"
        }
      ],
      "name": "grantRole",
      "outputs": [],
      "stateMutability": "nonpayable",
      "type": "function"
    },
    {
      "inputs": [
        {
          "internalType": "bytes32",
          "name": "role",
          "type": "bytes32"
        },
        {
          "internalType": "address",
          "name": "account",
          "type": "address"
        }
      ],
      "name": "hasRole",
      "outputs": [
        {
          "internalType": "bool",
          "name": "",
          "type": "bool"
        }
      ],
      "stateMutability": "view",
      "type": "function"
    },
    {
      "inputs": [
        {
          "internalType": "address",
          "name": "target",
          "type": "address"
        },
        {
          "internalType": "uint256",
          "name": "value",
          "type": "uint256"
        },
        {
          "internalType": "bytes",
          "name": "data",
          "type": "bytes"
        },
        {
          "internalType": "bytes32",
          "name": "predecessor",
          "type": "bytes32"
        },
        {
          "internalType": "bytes32",
          "name": "salt",
          "type": "bytes32"
        }
      ],
      "name": "hashOperation",
      "outputs": [
        {
          "internalType": "bytes32",
          "name": "hash",
          "type": "bytes32"
        }
      ],
      "stateMutability": "pure",
      "type": "function"
    },
    {
      "inputs": [
        {
          "internalType": "address[]",
          "name": "targets",
          "type": "address[]"
        },
        {
          "internalType": "uint256[]",
          "name": "values",
          "type": "uint256[]"
        },
        {
          "internalType": "bytes[]",
          "name": "payloads",
          "type": "bytes[]"
        },
        {
          "internalType": "bytes32",
          "name": "predecessor",
          "type": "bytes32"
        },
        {
          "internalType": "bytes32",
          "name": "salt",
          "type": "bytes32"
        }
      ],
      "name": "hashOperationBatch",
      "outputs": [
        {
          "internalType": "bytes32",
          "name": "hash",
          "type": "bytes32"
        }
      ],
      "stateMutability": "pure",
      "type": "function"
    },
    {
      "inputs": [
        {
          "internalType": "bytes32",
          "name": "id",
          "type": "bytes32"
        }
      ],
      "name": "isOperation",
      "outputs": [
        {
          "internalType": "bool",
          "name": "registered",
          "type": "bool"
        }
      ],
      "stateMutability": "view",
      "type": "function"
    },
    {
      "inputs": [
        {
          "internalType": "bytes32",
          "name": "id",
          "type": "bytes32"
        }
      ],
      "name": "isOperationDone",
      "outputs": [
        {
          "internalType": "bool",
          "name": "done",
          "type": "bool"
        }
      ],
      "stateMutability": "view",
      "type": "function"
    },
    {
      "inputs": [
        {
          "internalType": "bytes32",
          "name": "id",
          "type": "bytes32"
        }
      ],
      "name": "isOperationPending",
      "outputs": [
        {
          "internalType": "bool",
          "name": "pending",
          "type": "bool"
        }
      ],
      "stateMutability": "view",
      "type": "function"
    },
    {
      "inputs": [
        {
          "internalType": "bytes32",
          "name": "id",
          "type": "bytes32"
        }
      ],
      "name": "isOperationReady",
      "outputs": [
        {
          "internalType": "bool",
          "name": "ready",
          "type": "bool"
        }
      ],
      "stateMutability": "view",
      "type": "function"
    },
    {
      "inputs": [
        {
          "internalType": "address",
          "name": "",
          "type": "address"
        },
        {
          "internalType": "address",
          "name": "",
          "type": "address"
        },
        {
          "internalType": "uint256[]",
          "name": "",
          "type": "uint256[]"
        },
        {
          "internalType": "uint256[]",
          "name": "",
          "type": "uint256[]"
        },
        {
          "internalType": "bytes",
          "name": "",
          "type": "bytes"
        }
      ],
      "name": "onERC1155BatchReceived",
      "outputs": [
        {
          "internalType": "bytes4",
          "name": "",
          "type": "bytes4"
        }
      ],
      "stateMutability": "nonpayable",
      "type": "function"
    },
    {
      "inputs": [
        {
          "internalType": "address",
          "name": "",
          "type": "address"
        },
        {
          "internalType": "address",
          "name": "",
          "type": "address"
        },
        {
          "internalType": "uint256",
          "name": "",
          "type": "uint256"
        },
        {
          "internalType": "uint256",
          "name": "",
          "type": "uint256"
        },
        {
          "internalType": "bytes",
          "name": "",
          "type": "bytes"
        }
      ],
      "name": "onERC1155Received",
      "outputs": [
        {
          "internalType": "bytes4",
          "name": "",
          "type": "bytes4"
        }
      ],
      "stateMutability": "nonpayable",
      "type": "function"
    },
    {
      "inputs": [
        {
          "internalType": "address",
          "name": "",
          "type": "address"
        },
        {
          "internalType": "address",
          "name": "",
          "type": "address"
        },
        {
          "internalType": "uint256",
          "name": "",
          "type": "uint256"
        },
        {
          "internalType": "bytes",
          "name": "",
          "type": "bytes"
        }
      ],
      "name": "onERC721Received",
      "outputs": [
        {
          "internalType": "bytes4",
          "name": "",
          "type": "bytes4"
        }
      ],
      "stateMutability": "nonpayable",
      "type": "function"
    },
    {
      "inputs": [
        {
          "internalType": "bytes32",
          "name": "role",
          "type": "bytes32"
        },
        {
          "internalType": "address",
          "name": "account",
          "type": "address"
        }
      ],
      "name": "renounceRole",
      "outputs": [],
      "stateMutability": "nonpayable",
      "type": "function"
    },
    {
      "inputs": [
        {
          "internalType": "bytes32",
          "name": "role",
          "type": "bytes32"
        },
        {
          "internalType": "address",
          "name": "account",
          "type": "address"
        }
      ],
      "name": "revokeRole",
      "outputs": [],
      "stateMutability": "nonpayable",
      "type": "function"
    },
    {
      "inputs": [
        {
          "internalType": "address",
          "name": "target",
          "type": "address"
        },
        {
          "internalType": "uint256",
          "name": "value",
          "type": "uint256"
        },
        {
          "internalType": "bytes",
          "name": "data",
          "type": "bytes"
        },
        {
          "internalType": "bytes32",
          "name": "predecessor",
          "type": "bytes32"
        },
        {
          "internalType": "bytes32",
          "name": "salt",
          "type": "bytes32"
        },
        {
          "internalType": "uint256",
          "name": "delay",
          "type": "uint256"
        }
      ],
      "name": "schedule",
      "outputs": [],
      "stateMutability": "nonpayable",
      "type": "function"
    },
    {
      "inputs": [
        {
          "internalType": "address[]",
          "name": "targets",
          "type": "address[]"
        },
        {
          "internalType": "uint256[]",
          "name": "values",
          "type": "uint256[]"
        },
        {
          "internalType": "bytes[]",
          "name": "payloads",
          "type": "bytes[]"
        },
        {
          "internalType": "bytes32",
          "name": "predecessor",
          "type": "bytes32"
        },
        {
          "internalType": "bytes32",
          "name": "salt",
          "type": "bytes32"
        },
        {
          "internalType": "uint256",
          "name": "delay",
          "type": "uint256"
        }
      ],
      "name": "scheduleBatch",
      "outputs": [],
      "stateMutability": "nonpayable",
      "type": "function"
    },
    {
      "inputs": [
        {
          "internalType": "bytes4",
          "name": "interfaceId",
          "type": "bytes4"
        }
      ],
      "name": "supportsInterface",
      "outputs": [
        {
          "internalType": "bool",
          "name": "",
          "type": "bool"
        }
      ],
      "stateMutability": "view",
      "type": "function"
    },
    {
      "inputs": [
        {
          "internalType": "uint256",
          "name": "newDelay",
          "type": "uint256"
        }
      ],
      "name": "updateDelay",
      "outputs": [],
      "stateMutability": "nonpayable",
      "type": "function"
    },
    {
      "stateMutability": "payable",
      "type": "receive"
    }
  ],
  "transactionHash": "0x75ef44b727954cf057d1189c2a1959a20b14eb6e5ac3374a4dbb1ba874ef2229",
  "args": [
    60,
    [
      "0x66a7fDB96C583c59597de16d8b2B989231415339"
    ],
    [
      "0x0000000000000000000000000000000000000000"
    ],
    "0x0000000000000000000000000000000000000000"
  ],
  "numDeployments": 1,
  "solcInputHash": "b62203dfa6bf0fcaac9f1d53e865498b",
  "bytecode": "0x604060808152346200043e5762002b6f803803806200001e8162000442565b9283398101906080818303126200043e578051602080830151909391926001600160401b0392918381116200043e57826200005b91830162000491565b92868201519081116200043e5760606200007d88946200008593850162000491565b92016200047c565b7f5f58e3a2316349923ce3780f8d587db2d72378aed66a8261c916544fa6846ca591825f525f8752600180809681875f20018681549155867fbd79b86ffe0ab8e8776151514217cd7cacd52c909f66475c3af44e129f0b00ff9181835f80a4867fb09aa5aeb3702cfd50b6b62bc4532604938f21248a27a1d5ca736082b6819cc191825f5281858b5f2001818154915584835f80a481857fd8aa0f3194971a2a116679f7c2090f6939c8d4e01a2a8d7e41d55e5351469e639b8c5f525f200181815491558b835f80a48d7ffd643c72710c63c0180259aba6b2d05451e3591a24e58b62239378085726f783958691825f525f20019183835493555f80a4865f528b5f20305f528b5260ff9660ff8d5f2054161562000408575b6001600160a01b039687168c8e82620003ad575b9c9a999897969d509a9150505f905b620002ac575b5050505090879392915f985b6200021a575b877f11c24f4ead16507c69ac467fbd5e4eed5fb5c699626d2cc6d66421df253886d5818989806002558251915f8352820152a15161262190816200052e8239f35b909192939495968151891015620002a357508488836200023e83999a9b8562000504565b5116865f525f8b528b5f20815f528b52858c5f205416156200026c575b5001979593929190899795620001d3565b865f525f8b528b5f20815f528b528b5f208360ff198254161790553390875f8051602062002b4f8339815191525f80a45f6200025b565b969594620001d9565b898c9a9c95969798999b84518310156200039c5790829189620002d189958862000504565b5116855f525f8352815f20815f5283528b825f2054161562000365575b5089620002fc848862000504565b511691875f525f8152815f20835f5281528b825f205416156200032d575b505050018c9a98979695949b99620001c1565b875f525f8152815f2090835f52525f208360ff198254161790553390865f8051602062002b4f8339815191525f80a45f8e8e6200031a565b855f525f8352815f20815f528352815f208560ff198254161790553390865f8051602062002b4f8339815191525f80a45f620002ee565b9b999897969550509a989a620001c7565b60ff91845f525f8152815f2090845f52525f20541615620003d1575b8c8e620001b2565b815f525f8d528d5f20815f528d528d5f208660ff1982541617905533915f8051602062002b4f8339815191525f80a45f80620003c9565b805f525f8c528c5f20305f528c528c5f208560ff198254161790553330825f8051602062002b4f8339815191525f80a46200019e565b5f80fd5b6040519190601f01601f191682016001600160401b038111838210176200046857604052565b634e487b7160e01b5f52604160045260245ffd5b51906001600160a01b03821682036200043e57565b81601f820112156200043e578051916020916001600160401b03841162000468578360051b908380620004c681850162000442565b8097815201928201019283116200043e578301905b828210620004ea575050505090565b838091620004f8846200047c565b815201910190620004db565b8051821015620005195760209160051b010190565b634e487b7160e01b5f52603260045260245ffdfe60406080815260048036101561001e575b5050361561001c575f80fd5b005b5f3560e01c90816301d5062a1461129757816301ffc9a7146111a457816307bd02651461114c5781630d3cf6fc146110f4578163134008d31461103857816313bc9f2014610ffc578163150b7a0214610f72578163248a9ca314610f2b5781632ab0f52914610ee25781632f2ff15d14610df657816331d5075014610dae57816336568abe14610cca578163584b153e14610c7857816364d6235314610b855781638065657f14610b645781638f2a0bb014610a265781638f61f4f5146109ce57816391d148541461095f578163a217fddf14610927578163b08e51c0146108cf578163b1c5f427146108a4578163bc197c81146107e9578163c4d252f5146103df578163d45c44351461039a578163d547741f14610341578163e38335e514610227578163f23a6e611461019d575063f27a0c921461015e5780610010565b34610199575f7ffffffffffffffffffffffffffffffffffffffffffffffffffffffffffffffffc360112610199576020906002549051908152f35b5f80fd5b82346101995760a07ffffffffffffffffffffffffffffffffffffffffffffffffffffffffffffffffc360112610199576101d5611352565b506101de611375565b5060843567ffffffffffffffff81116101995760209261020091369101611504565b50517ff23a6e61000000000000000000000000000000000000000000000000000000008152f35b6102a86102a160ff858061023a3661157b565b91838587849f97998b9f979e9b859c829b9f7fd8aa0f3194971a2a116679f7c2090f6939c8d4e01a2a8d7e41d55e5351469e635f525f602052805f205f80526020525f20541615610333575b6102918483146117be565b61029c8683146117be565b611907565b9889612262565b5f5b8181106102ba5761001c896123f6565b80808a7fc2617efa69bab66782fa219543714338489c4e9e178271560a91b82c3f612b588a8a61032a6103128f988c61030b828e6103058f60019f610300918591611849565b611886565b97611849565b35956118a7565b9061031f82828787612326565b8d51948594856116e6565b0390a3016102aa565b61033c33611eb1565b610286565b823461019957807ffffffffffffffffffffffffffffffffffffffffffffffffffffffffffffffffc3601126101995761001c91356103956001610382611375565b93835f525f6020525f2001543390612063565b612412565b82346101995760207ffffffffffffffffffffffffffffffffffffffffffffffffffffffffffffffffc36011261019957602091355f5260018252805f20549051908152f35b8234610199576020807ffffffffffffffffffffffffffffffffffffffffffffffffffffffffffffffffc360112610199578235927ffd643c72710c63c0180259aba6b2d05451e3591a24e58b62239378085726f783805f525f8352835f20335f52835260ff845f2054161561051e5750610465845f526001602052600160405f20541190565b1561049d57509060015f92848452528120557fbaa1eb22f2a492ba1a5fea61b8df4d27c6c8b5f3971e63bb58fa14ff72eedb705f80a2005b9060849251917f08c379a0000000000000000000000000000000000000000000000000000000008352820152603160248201527f54696d656c6f636b436f6e74726f6c6c65723a206f7065726174696f6e20636160448201527f6e6e6f742062652063616e63656c6c65640000000000000000000000000000006064820152fd5b8390610529336124c0565b90825161053581611440565b604281528581019160603684378151156107bd576030835381516001906001101561079157607860218401536041905b8082116106cb5750506106705761066761061c8561062b60487fffffffffffffffffffffffffffffffffffffffffffffffffffffffffffffffe097601f978c9760449c9b519687936105e78b86019b7f416363657373436f6e74726f6c3a206163636f756e74200000000000000000008d528251928391603789019101611c35565b8401917f206973206d697373696e6720726f6c6520000000000000000000000000000000603784015251809386840190611c35565b01036028810185520183611489565b519788967f08c379a000000000000000000000000000000000000000000000000000000000885287015251809281602488015287870190611c35565b01168101030190fd5b60648587808751927f08c379a000000000000000000000000000000000000000000000000000000000845283015260248201527f537472696e67733a20686578206c656e67746820696e73756666696369656e746044820152fd5b9091600f81166010811015610765577f3031323334353637383961626364656600000000000000000000000000000000901a61070784866124af565b53871c918015610739577fffffffffffffffffffffffffffffffffffffffffffffffffffffffffffffffff0190610565565b6011887f4e487b71000000000000000000000000000000000000000000000000000000005f525260245ffd5b6032897f4e487b71000000000000000000000000000000000000000000000000000000005f525260245ffd5b6032877f4e487b71000000000000000000000000000000000000000000000000000000005f525260245ffd5b6032867f4e487b71000000000000000000000000000000000000000000000000000000005f525260245ffd5b82346101995760a07ffffffffffffffffffffffffffffffffffffffffffffffffffffffffffffffffc36011261019957610821611352565b5061082a611375565b5067ffffffffffffffff6044358181116101995761084b90369085016115fb565b506064358181116101995761086390369085016115fb565b506084359081116101995760209261087d91369101611504565b50517fbc197c81000000000000000000000000000000000000000000000000000000008152f35b8234610199576020906108c86108b93661157b565b96959095949194939293611907565b9051908152f35b8234610199575f7ffffffffffffffffffffffffffffffffffffffffffffffffffffffffffffffffc36011261019957602090517ffd643c72710c63c0180259aba6b2d05451e3591a24e58b62239378085726f7838152f35b8234610199575f7ffffffffffffffffffffffffffffffffffffffffffffffffffffffffffffffffc36011261019957602090515f8152f35b823461019957807ffffffffffffffffffffffffffffffffffffffffffffffffffffffffffffffffc36011261019957602091610999611375565b90355f525f835273ffffffffffffffffffffffffffffffffffffffff825f2091165f52825260ff815f20541690519015158152f35b8234610199575f7ffffffffffffffffffffffffffffffffffffffffffffffffffffffffffffffffc36011261019957602090517fb09aa5aeb3702cfd50b6b62bc4532604938f21248a27a1d5ca736082b6819cc18152f35b82346101995760c07ffffffffffffffffffffffffffffffffffffffffffffffffffffffffffffffffc3601126101995767ffffffffffffffff823581811161019957610a75903690850161154a565b9360243583811161019957610a8d903690830161154a565b93909160443591821161019957610aa69136910161154a565b916064359360a435610ab733611c56565b610ac2878a146117be565b610acd858a146117be565b610adf6084358787878b888f89611907565b95610aea8288611ac5565b5f5b8a8110610af557005b8080897f4cf4410cc57040e44862ef0f45f3dd5a5e02db8eb8add648d4b0e236f1d07dca898f8f8f898f92610b508f959b8f958f958260019f91610b4361030083610b4995610b5b9d611849565b9a611849565b35986118a7565b9151968796876116a0565b0390a301610aec565b8234610199576020906108c8610b79366113c6565b9493909392919261173d565b82346101995760207ffffffffffffffffffffffffffffffffffffffffffffffffffffffffffffffffc36011261019957813591303303610bf657507f11c24f4ead16507c69ac467fbd5e4eed5fb5c699626d2cc6d66421df253886d5906002548151908152836020820152a1600255005b602060849251917f08c379a0000000000000000000000000000000000000000000000000000000008352820152602b60248201527f54696d656c6f636b436f6e74726f6c6c65723a2063616c6c6572206d7573742060448201527f62652074696d656c6f636b0000000000000000000000000000000000000000006064820152fd5b82346101995760207ffffffffffffffffffffffffffffffffffffffffffffffffffffffffffffffffc36011261019957610cc1602092355f526001602052600160405f20541190565b90519015158152f35b90503461019957817ffffffffffffffffffffffffffffffffffffffffffffffffffffffffffffffffc36011261019957610d02611375565b903373ffffffffffffffffffffffffffffffffffffffff831603610d2b5761001c925035612412565b60849060208451917f08c379a0000000000000000000000000000000000000000000000000000000008352820152602f60248201527f416363657373436f6e74726f6c3a2063616e206f6e6c792072656e6f756e636560448201527f20726f6c657320666f722073656c6600000000000000000000000000000000006064820152fd5b82346101995760207ffffffffffffffffffffffffffffffffffffffffffffffffffffffffffffffffc36011261019957610cc1602092355f52600160205260405f2054151590565b90503461019957817ffffffffffffffffffffffffffffffffffffffffffffffffffffffffffffffffc360112610199573590610e30611375565b90825f525f602052610e496001825f2001543390612063565b825f525f60205273ffffffffffffffffffffffffffffffffffffffff815f20921691825f5260205260ff815f20541615610e7f57005b825f525f602052805f20825f526020525f2060017fffffffffffffffffffffffffffffffffffffffffffffffffffffffffffffff0082541617905533917f2f8788117e7eff1d82e926ec794901d17c78024a50270940304540a733656f0d5f80a4005b82346101995760207ffffffffffffffffffffffffffffffffffffffffffffffffffffffffffffffffc36011261019957610cc1602092355f526001602052600160405f20541490565b82346101995760207ffffffffffffffffffffffffffffffffffffffffffffffffffffffffffffffffc36011261019957602091355f525f82526001815f2001549051908152f35b82346101995760807ffffffffffffffffffffffffffffffffffffffffffffffffffffffffffffffffc36011261019957610faa611352565b50610fb3611375565b5060643567ffffffffffffffff811161019957602092610fd591369101611504565b50517f150b7a02000000000000000000000000000000000000000000000000000000008152f35b82346101995760207ffffffffffffffffffffffffffffffffffffffffffffffffffffffffffffffffc36011261019957610cc16020923561171b565b61001c6110c85f6110de7fc2617efa69bab66782fa219543714338489c4e9e178271560a91b82c3f612b586110bf88611070366113c6565b7fd8aa0f3194971a2a116679f7c2090f6939c8d4e01a2a8d7e41d55e5351469e638b9a9697939598929a528a602052828b208b805260205260ff838c205416156110e6575b8985858a8a61173d565b998a9889612262565b6110d483838888612326565b51948594856116e6565b0390a36123f6565b6110ef33611eb1565b6110b5565b8234610199575f7ffffffffffffffffffffffffffffffffffffffffffffffffffffffffffffffffc36011261019957602090517f5f58e3a2316349923ce3780f8d587db2d72378aed66a8261c916544fa6846ca58152f35b8234610199575f7ffffffffffffffffffffffffffffffffffffffffffffffffffffffffffffffffc36011261019957602090517fd8aa0f3194971a2a116679f7c2090f6939c8d4e01a2a8d7e41d55e5351469e638152f35b9050346101995760207ffffffffffffffffffffffffffffffffffffffffffffffffffffffffffffffffc36011261019957357fffffffff000000000000000000000000000000000000000000000000000000008116809103610199576020917f4e2312e0000000000000000000000000000000000000000000000000000000008214918215611237575b50519015158152f35b9091507f7965db0b00000000000000000000000000000000000000000000000000000000811490811561126d575b50905f61122e565b7f01ffc9a7000000000000000000000000000000000000000000000000000000009150145f611265565b82346101995760c07ffffffffffffffffffffffffffffffffffffffffffffffffffffffffffffffffc360112610199576112cf611352565b6024356044359167ffffffffffffffff83116101995761134d6113175f967f4cf4410cc57040e44862ef0f45f3dd5a5e02db8eb8add648d4b0e236f1d07dca95369101611398565b6064359060a4359261132833611c56565b6113386084358484848b8b61173d565b98611343858b611ac5565b51968796876116a0565b0390a3005b6004359073ffffffffffffffffffffffffffffffffffffffff8216820361019957565b6024359073ffffffffffffffffffffffffffffffffffffffff8216820361019957565b9181601f840112156101995782359167ffffffffffffffff8311610199576020838186019501011161019957565b60a07ffffffffffffffffffffffffffffffffffffffffffffffffffffffffffffffffc8201126101995760043573ffffffffffffffffffffffffffffffffffffffff811681036101995791602435916044359067ffffffffffffffff82116101995761143491600401611398565b90916064359060843590565b6080810190811067ffffffffffffffff82111761145c57604052565b7f4e487b71000000000000000000000000000000000000000000000000000000005f52604160045260245ffd5b90601f7fffffffffffffffffffffffffffffffffffffffffffffffffffffffffffffffe0910116810190811067ffffffffffffffff82111761145c57604052565b67ffffffffffffffff811161145c57601f017fffffffffffffffffffffffffffffffffffffffffffffffffffffffffffffffe01660200190565b81601f820112156101995780359061151b826114ca565b926115296040519485611489565b8284526020838301011161019957815f926020809301838601378301015290565b9181601f840112156101995782359167ffffffffffffffff8311610199576020808501948460051b01011161019957565b9060a07ffffffffffffffffffffffffffffffffffffffffffffffffffffffffffffffffc8301126101995767ffffffffffffffff60043581811161019957836115c69160040161154a565b9390939260243583811161019957826115e19160040161154a565b93909392604435918211610199576114349160040161154a565b81601f820112156101995780359160209167ffffffffffffffff841161145c578360051b906040519461163085840187611489565b85528380860192820101928311610199578301905b828210611653575050505090565b81358152908301908301611645565b601f82602094937fffffffffffffffffffffffffffffffffffffffffffffffffffffffffffffffe093818652868601375f8582860101520116010190565b9290936116dc9273ffffffffffffffffffffffffffffffffffffffff60809699989799168552602085015260a0604085015260a0840191611662565b9460608201520152565b611718949273ffffffffffffffffffffffffffffffffffffffff60609316825260208201528160408201520191611662565b90565b5f52600160205260405f2054600181119081611735575090565b905042101590565b946117816117b89495929360405196879573ffffffffffffffffffffffffffffffffffffffff602088019a168a52604087015260a0606087015260c0860191611662565b91608084015260a0830152037fffffffffffffffffffffffffffffffffffffffffffffffffffffffffffffffe08101835282611489565b51902090565b156117c557565b60846040517f08c379a000000000000000000000000000000000000000000000000000000000815260206004820152602360248201527f54696d656c6f636b436f6e74726f6c6c65723a206c656e677468206d69736d6160448201527f74636800000000000000000000000000000000000000000000000000000000006064820152fd5b91908110156118595760051b0190565b7f4e487b71000000000000000000000000000000000000000000000000000000005f52603260045260245ffd5b3573ffffffffffffffffffffffffffffffffffffffff811681036101995790565b91908110156118595760051b810135907fffffffffffffffffffffffffffffffffffffffffffffffffffffffffffffffe18136030182121561019957019081359167ffffffffffffffff8311610199576020018236038113610199579190565b969294909695919560405196602091828901998060c08b0160a08d525260e08a0191905f5b818110611a8f575050507fffffffffffffffffffffffffffffffffffffffffffffffffffffffffffffffe097888a83030160408b01528082527f07ffffffffffffffffffffffffffffffffffffffffffffffffffffffffffffff8111610199579089969495939897929160051b80928a830137019380888601878703606089015252604085019460408260051b82010195835f925b8484106119e9575050505050506117b89550608084015260a083015203908101835282611489565b91939698509193989994967fffffffffffffffffffffffffffffffffffffffffffffffffffffffffffffffc082820301845289357fffffffffffffffffffffffffffffffffffffffffffffffffffffffffffffffe18436030181121561019957830186810191903567ffffffffffffffff811161019957803603831361019957611a7888928392600195611662565b9b0194019401918b98969394919a9997959a6119c1565b90919283359073ffffffffffffffffffffffffffffffffffffffff8216809203610199579081528501928501919060010161192c565b90611adb825f52600160205260405f2054151590565b611bb1576002548110611b2d57420190814211611b00575f52600160205260405f2055565b7f4e487b71000000000000000000000000000000000000000000000000000000005f52601160045260245ffd5b60846040517f08c379a000000000000000000000000000000000000000000000000000000000815260206004820152602660248201527f54696d656c6f636b436f6e74726f6c6c65723a20696e73756666696369656e7460448201527f2064656c617900000000000000000000000000000000000000000000000000006064820152fd5b60846040517f08c379a000000000000000000000000000000000000000000000000000000000815260206004820152602f60248201527f54696d656c6f636b436f6e74726f6c6c65723a206f7065726174696f6e20616c60448201527f7265616479207363686564756c656400000000000000000000000000000000006064820152fd5b5f5b838110611c465750505f910152565b8181015183820152602001611c37565b73ffffffffffffffffffffffffffffffffffffffff165f8181527f3412d5605ac6cd444957cedb533e5dacad6378b4bc819ebe3652188a665066d5602090815260409182902054919290917fb09aa5aeb3702cfd50b6b62bc4532604938f21248a27a1d5ca736082b6819cc1919060ff1615611cd25750505050565b611cdb906124c0565b90928051611ce881611440565b60428152838101946060368737815115611859576030865381516001906001101561185957607860218401536041905b808211611e42575050611de6576044939261066783611da86048601f957fffffffffffffffffffffffffffffffffffffffffffffffffffffffffffffffe097519a8b91611d998b8401987f416363657373436f6e74726f6c3a206163636f756e74200000000000000000008a526105e78d8251928391603789019101611c35565b0103602881018b520189611489565b519687957f08c379a0000000000000000000000000000000000000000000000000000000008752600487015251809281602488015287870190611c35565b6064848351907f08c379a000000000000000000000000000000000000000000000000000000000825280600483015260248201527f537472696e67733a20686578206c656e67746820696e73756666696369656e746044820152fd5b9091600f81166010811015611859577f3031323334353637383961626364656600000000000000000000000000000000901a611e7e84866124af565b5360041c918015611b00577fffffffffffffffffffffffffffffffffffffffffffffffffffffffffffffffff0190611d18565b73ffffffffffffffffffffffffffffffffffffffff165f8181527fdae2aa361dfd1ca020a396615627d436107c35eff9fe7738a3512819782d7069602090815260409182902054919290917fd8aa0f3194971a2a116679f7c2090f6939c8d4e01a2a8d7e41d55e5351469e63919060ff1615611f2d5750505050565b611f36906124c0565b90928051611f4381611440565b60428152838101946060368737815115611859576030865381516001906001101561185957607860218401536041905b808211611ff4575050611de6576044939261066783611da86048601f957fffffffffffffffffffffffffffffffffffffffffffffffffffffffffffffffe097519a8b91611d998b8401987f416363657373436f6e74726f6c3a206163636f756e74200000000000000000008a526105e78d8251928391603789019101611c35565b9091600f81166010811015611859577f3031323334353637383961626364656600000000000000000000000000000000901a61203084866124af565b5360041c918015611b00577fffffffffffffffffffffffffffffffffffffffffffffffffffffffffffffffff0190611f73565b805f526020905f825260409273ffffffffffffffffffffffffffffffffffffffff845f20911690815f52835260ff845f205416156120a15750505050565b6120aa906124c0565b909280516120b781611440565b60428152838101946060368737815115611859576030865381516001906001101561185957607860218401536041905b808211612168575050611de6576044939261066783611da86048601f957fffffffffffffffffffffffffffffffffffffffffffffffffffffffffffffffe097519a8b91611d998b8401987f416363657373436f6e74726f6c3a206163636f756e74200000000000000000008a526105e78d8251928391603789019101611c35565b9091600f81166010811015611859577f3031323334353637383961626364656600000000000000000000000000000000901a6121a484866124af565b5360041c918015611b00577fffffffffffffffffffffffffffffffffffffffffffffffffffffffffffffffff01906120e7565b156121de57565b60846040517f08c379a000000000000000000000000000000000000000000000000000000000815260206004820152602a60248201527f54696d656c6f636b436f6e74726f6c6c65723a206f7065726174696f6e20697360448201527f206e6f74207265616479000000000000000000000000000000000000000000006064820152fd5b61226e6122739161171b565b6121d7565b8015908115612309575b501561228557565b60846040517f08c379a000000000000000000000000000000000000000000000000000000000815260206004820152602660248201527f54696d656c6f636b436f6e74726f6c6c65723a206d697373696e67206465706560448201527f6e64656e637900000000000000000000000000000000000000000000000000006064820152fd5b61232091505f526001602052600160405f20541490565b5f61227d565b90925f938493826040519384928337810185815203925af13d156123f1573d61234e816114ca565b9061235c6040519283611489565b81525f60203d92013e5b1561236d57565b60846040517f08c379a000000000000000000000000000000000000000000000000000000000815260206004820152603360248201527f54696d656c6f636b436f6e74726f6c6c65723a20756e6465726c79696e67207460448201527f72616e73616374696f6e207265766572746564000000000000000000000000006064820152fd5b612366565b61240261226e8261171b565b5f526001602052600160405f2055565b90815f525f60205273ffffffffffffffffffffffffffffffffffffffff60405f20911690815f5260205260ff60405f20541661244c575050565b815f525f60205260405f20815f5260205260405f207fffffffffffffffffffffffffffffffffffffffffffffffffffffffffffffff00815416905533917ff6391f5c32d9c69d2a47ea670b442974b53935d1edc7fd64eb21e047a839171b5f80a4565b908151811015611859570160200190565b604051906060820182811067ffffffffffffffff82111761145c57604052602a8252602082016040368237825115611859576030905381516001906001101561185957607860218401536029905b80821161257c57505061251e5790565b60646040517f08c379a000000000000000000000000000000000000000000000000000000000815260206004820152602060248201527f537472696e67733a20686578206c656e67746820696e73756666696369656e746044820152fd5b9091600f81166010811015611859577f3031323334353637383961626364656600000000000000000000000000000000901a6125b884866124af565b5360041c918015611b00577fffffffffffffffffffffffffffffffffffffffffffffffffffffffffffffffff019061250e56fea26469706673582212201b82d834c2ad26f2f91b2b544c53c3aac1315133dc0ef493373ac6d0047e826b64736f6c634300081800332f8788117e7eff1d82e926ec794901d17c78024a50270940304540a733656f0d",
  "devdoc": {
    "details": "Contract module which acts as a timelocked controller. When set as the owner of an `Ownable` smart contract, it enforces a timelock on all `onlyOwner` maintenance operations. This gives time for users of the controlled contract to exit before a potentially dangerous maintenance operation is applied. By default, this contract is self administered, meaning administration tasks have to go through the timelock process. The proposer (resp executor) role is in charge of proposing (resp executing) operations. A common use case is to position this {TimelockController} as the owner of a smart contract, with a multisig or a DAO as the sole proposer. _Available since v3.3._",
    "events": {
      "CallExecuted(bytes32,uint256,address,uint256,bytes)": {
        "details": "Emitted when a call is performed as part of operation `id`."
      },
      "CallScheduled(bytes32,uint256,address,uint256,bytes,bytes32,uint256)": {
        "details": "Emitted when a call is scheduled as part of operation `id`."
      },
      "Cancelled(bytes32)": {
        "details": "Emitted when operation `id` is cancelled."
      },
      "MinDelayChange(uint256,uint256)": {
        "details": "Emitted when the minimum delay for future operations is modified."
      },
      "RoleAdminChanged(bytes32,bytes32,bytes32)": {
        "details": "Emitted when `newAdminRole` is set as ``role``'s admin role, replacing `previousAdminRole` `DEFAULT_ADMIN_ROLE` is the starting admin for all roles, despite {RoleAdminChanged} not being emitted signaling this. _Available since v3.1._"
      },
      "RoleGranted(bytes32,address,address)": {
        "details": "Emitted when `account` is granted `role`. `sender` is the account that originated the contract call, an admin role bearer except when using {AccessControl-_setupRole}."
      },
      "RoleRevoked(bytes32,address,address)": {
        "details": "Emitted when `account` is revoked `role`. `sender` is the account that originated the contract call:   - if using `revokeRole`, it is the admin role bearer   - if using `renounceRole`, it is the role bearer (i.e. `account`)"
      }
    },
    "kind": "dev",
    "methods": {
      "cancel(bytes32)": {
        "details": "Cancel an operation. Requirements: - the caller must have the 'canceller' role."
      },
      "constructor": {
        "details": "Initializes the contract with the following parameters: - `minDelay`: initial minimum delay for operations - `proposers`: accounts to be granted proposer and canceller roles - `executors`: accounts to be granted executor role - `admin`: optional account to be granted admin role; disable with zero address IMPORTANT: The optional admin can aid with initial configuration of roles after deployment without being subject to delay, but this role should be subsequently renounced in favor of administration through timelocked proposals. Previous versions of this contract would assign this admin to the deployer automatically and should be renounced as well."
      },
      "execute(address,uint256,bytes,bytes32,bytes32)": {
        "details": "Execute an (ready) operation containing a single transaction. Emits a {CallExecuted} event. Requirements: - the caller must have the 'executor' role."
      },
      "executeBatch(address[],uint256[],bytes[],bytes32,bytes32)": {
        "details": "Execute an (ready) operation containing a batch of transactions. Emits one {CallExecuted} event per transaction in the batch. Requirements: - the caller must have the 'executor' role."
      },
      "getMinDelay()": {
        "details": "Returns the minimum delay for an operation to become valid. This value can be changed by executing an operation that calls `updateDelay`."
      },
      "getRoleAdmin(bytes32)": {
        "details": "Returns the admin role that controls `role`. See {grantRole} and {revokeRole}. To change a role's admin, use {_setRoleAdmin}."
      },
      "getTimestamp(bytes32)": {
        "details": "Returns the timestamp at with an operation becomes ready (0 for unset operations, 1 for done operations)."
      },
      "grantRole(bytes32,address)": {
        "details": "Grants `role` to `account`. If `account` had not been already granted `role`, emits a {RoleGranted} event. Requirements: - the caller must have ``role``'s admin role. May emit a {RoleGranted} event."
      },
      "hasRole(bytes32,address)": {
        "details": "Returns `true` if `account` has been granted `role`."
      },
      "hashOperation(address,uint256,bytes,bytes32,bytes32)": {
        "details": "Returns the identifier of an operation containing a single transaction."
      },
      "hashOperationBatch(address[],uint256[],bytes[],bytes32,bytes32)": {
        "details": "Returns the identifier of an operation containing a batch of transactions."
      },
      "isOperation(bytes32)": {
        "details": "Returns whether an id correspond to a registered operation. This includes both Pending, Ready and Done operations."
      },
      "isOperationDone(bytes32)": {
        "details": "Returns whether an operation is done or not."
      },
      "isOperationPending(bytes32)": {
        "details": "Returns whether an operation is pending or not."
      },
      "isOperationReady(bytes32)": {
        "details": "Returns whether an operation is ready or not."
      },
      "onERC1155BatchReceived(address,address,uint256[],uint256[],bytes)": {
        "details": "See {IERC1155Receiver-onERC1155BatchReceived}."
      },
      "onERC1155Received(address,address,uint256,uint256,bytes)": {
        "details": "See {IERC1155Receiver-onERC1155Received}."
      },
      "onERC721Received(address,address,uint256,bytes)": {
        "details": "See {IERC721Receiver-onERC721Received}."
      },
      "renounceRole(bytes32,address)": {
        "details": "Revokes `role` from the calling account. Roles are often managed via {grantRole} and {revokeRole}: this function's purpose is to provide a mechanism for accounts to lose their privileges if they are compromised (such as when a trusted device is misplaced). If the calling account had been revoked `role`, emits a {RoleRevoked} event. Requirements: - the caller must be `account`. May emit a {RoleRevoked} event."
      },
      "revokeRole(bytes32,address)": {
        "details": "Revokes `role` from `account`. If `account` had been granted `role`, emits a {RoleRevoked} event. Requirements: - the caller must have ``role``'s admin role. May emit a {RoleRevoked} event."
      },
      "schedule(address,uint256,bytes,bytes32,bytes32,uint256)": {
        "details": "Schedule an operation containing a single transaction. Emits a {CallScheduled} event. Requirements: - the caller must have the 'proposer' role."
      },
      "scheduleBatch(address[],uint256[],bytes[],bytes32,bytes32,uint256)": {
        "details": "Schedule an operation containing a batch of transactions. Emits one {CallScheduled} event per transaction in the batch. Requirements: - the caller must have the 'proposer' role."
      },
      "supportsInterface(bytes4)": {
        "details": "See {IERC165-supportsInterface}."
      },
      "updateDelay(uint256)": {
        "details": "Changes the minimum timelock duration for future operations. Emits a {MinDelayChange} event. Requirements: - the caller must be the timelock itself. This can only be achieved by scheduling and later executing an operation where the timelock is the target and the data is the ABI-encoded call to this function."
      }
    },
    "version": 1
  },
  "userdoc": {
    "kind": "user",
    "methods": {},
    "version": 1
  },
  "storageLayout": {
    "storage": [
      {
        "astId": 8361,
        "contract": "@openzeppelin/contracts/governance/TimelockController.sol:TimelockController",
        "label": "_roles",
        "offset": 0,
        "slot": "0",
        "type": "t_mapping(t_bytes32,t_struct(RoleData)8356_storage)"
      },
      {
        "astId": 8881,
        "contract": "@openzeppelin/contracts/governance/TimelockController.sol:TimelockController",
        "label": "_timestamps",
        "offset": 0,
        "slot": "1",
        "type": "t_mapping(t_bytes32,t_uint256)"
      },
      {
        "astId": 8883,
        "contract": "@openzeppelin/contracts/governance/TimelockController.sol:TimelockController",
        "label": "_minDelay",
        "offset": 0,
        "slot": "2",
        "type": "t_uint256"
      }
    ],
    "types": {
      "t_address": {
        "encoding": "inplace",
        "label": "address",
        "numberOfBytes": "20"
      },
      "t_bool": {
        "encoding": "inplace",
        "label": "bool",
        "numberOfBytes": "1"
      },
      "t_bytes32": {
        "encoding": "inplace",
        "label": "bytes32",
        "numberOfBytes": "32"
      },
      "t_mapping(t_address,t_bool)": {
        "encoding": "mapping",
        "key": "t_address",
        "label": "mapping(address => bool)",
        "numberOfBytes": "32",
        "value": "t_bool"
      },
      "t_mapping(t_bytes32,t_struct(RoleData)8356_storage)": {
        "encoding": "mapping",
        "key": "t_bytes32",
        "label": "mapping(bytes32 => struct AccessControl.RoleData)",
        "numberOfBytes": "32",
        "value": "t_struct(RoleData)8356_storage"
      },
      "t_mapping(t_bytes32,t_uint256)": {
        "encoding": "mapping",
        "key": "t_bytes32",
        "label": "mapping(bytes32 => uint256)",
        "numberOfBytes": "32",
        "value": "t_uint256"
      },
      "t_struct(RoleData)8356_storage": {
        "encoding": "inplace",
        "label": "struct AccessControl.RoleData",
        "members": [
          {
            "astId": 8353,
            "contract": "@openzeppelin/contracts/governance/TimelockController.sol:TimelockController",
            "label": "members",
            "offset": 0,
            "slot": "0",
            "type": "t_mapping(t_address,t_bool)"
          },
          {
            "astId": 8355,
            "contract": "@openzeppelin/contracts/governance/TimelockController.sol:TimelockController",
            "label": "adminRole",
            "offset": 0,
            "slot": "1",
            "type": "t_bytes32"
          }
        ],
        "numberOfBytes": "64"
      },
      "t_uint256": {
        "encoding": "inplace",
        "label": "uint256",
        "numberOfBytes": "32"
      }
    }
  }
}