{
  "address": "0x28046a0bbc1B655a915FB110aa5fFeeAE40D5410",
  "abi": [
    {
      "inputs": [
        {
          "internalType": "address",
          "name": "implementation",
          "type": "address"
        },
        {
          "internalType": "contract IMarketFactory",
          "name": "marketFactory",
          "type": "address"
        },
        {
          "internalType": "contract IVerifierBase",
          "name": "nonceManager",
          "type": "address"
        }
      ],
      "stateMutability": "nonpayable",
      "type": "constructor"
    },
    {
      "inputs": [],
      "name": "ControllerGroupBalancedError",
      "type": "error"
    },
    {
      "inputs": [],
      "name": "ControllerInvalidRebalanceConfigError",
      "type": "error"
    },
    {
      "inputs": [],
      "name": "ControllerInvalidRebalanceGroupError",
      "type": "error"
    },
    {
      "inputs": [],
      "name": "ControllerInvalidRebalanceMarketsError",
      "type": "error"
    },
    {
      "inputs": [],
      "name": "ControllerInvalidRebalanceTargetsError",
      "type": "error"
    },
    {
      "inputs": [],
      "name": "ControllerInvalidSignerError",
      "type": "error"
    },
    {
      "inputs": [
        {
          "internalType": "contract IMarket",
          "name": "market",
          "type": "address"
        },
        {
          "internalType": "uint256",
          "name": "group",
          "type": "uint256"
        }
      ],
      "name": "ControllerMarketAlreadyInGroupError",
      "type": "error"
    },
    {
      "inputs": [
        {
          "internalType": "contract IMarket",
          "name": "market",
          "type": "address"
        }
      ],
      "name": "ControllerUnsupportedMarketError",
      "type": "error"
    },
    {
      "inputs": [],
      "name": "FactoryNotInstanceError",
      "type": "error"
    },
    {
      "inputs": [
        {
          "internalType": "uint256",
          "name": "value",
          "type": "uint256"
        }
      ],
      "name": "Fixed6OverflowError",
      "type": "error"
    },
    {
      "inputs": [
        {
          "internalType": "uint256",
          "name": "version",
          "type": "uint256"
        }
      ],
      "name": "InitializableAlreadyInitializedError",
      "type": "error"
    },
    {
      "inputs": [],
      "name": "InitializableNotInitializingError",
      "type": "error"
    },
    {
      "inputs": [],
      "name": "InitializableZeroVersionError",
      "type": "error"
    },
    {
      "inputs": [],
      "name": "OwnableAlreadyInitializedError",
      "type": "error"
    },
    {
      "inputs": [
        {
          "internalType": "address",
          "name": "sender",
          "type": "address"
        }
      ],
      "name": "OwnableNotOwnerError",
      "type": "error"
    },
    {
      "inputs": [
        {
          "internalType": "address",
          "name": "sender",
          "type": "address"
        }
      ],
      "name": "OwnableNotPendingOwnerError",
      "type": "error"
    },
    {
      "inputs": [
        {
          "internalType": "address",
          "name": "sender",
          "type": "address"
        }
      ],
      "name": "PausableNotPauserError",
      "type": "error"
    },
    {
      "inputs": [],
      "name": "PausablePausedError",
      "type": "error"
    },
    {
      "inputs": [
        {
          "internalType": "int256",
          "name": "value",
          "type": "int256"
        }
      ],
      "name": "UFixed18UnderflowError",
      "type": "error"
    },
    {
      "anonymous": false,
      "inputs": [
        {
          "indexed": true,
          "internalType": "address",
          "name": "owner",
          "type": "address"
        },
        {
          "indexed": true,
          "internalType": "contract IAccount",
          "name": "account",
          "type": "address"
        }
      ],
      "name": "AccountDeployed",
      "type": "event"
    },
    {
      "anonymous": false,
      "inputs": [
        {
          "indexed": true,
          "internalType": "address",
          "name": "owner",
          "type": "address"
        },
        {
          "indexed": true,
          "internalType": "uint256",
          "name": "group",
          "type": "uint256"
        }
      ],
      "name": "GroupRebalanced",
      "type": "event"
    },
    {
      "anonymous": false,
      "inputs": [
        {
          "indexed": false,
          "internalType": "uint256",
          "name": "version",
          "type": "uint256"
        }
      ],
      "name": "Initialized",
      "type": "event"
    },
    {
      "anonymous": false,
      "inputs": [
        {
          "indexed": true,
          "internalType": "contract IInstance",
          "name": "instance",
          "type": "address"
        }
      ],
      "name": "InstanceRegistered",
      "type": "event"
    },
    {
      "anonymous": false,
      "inputs": [
        {
          "indexed": true,
          "internalType": "address",
          "name": "sender",
          "type": "address"
        },
        {
          "indexed": false,
          "internalType": "uint256",
          "name": "applicableGas",
          "type": "uint256"
        },
        {
          "indexed": false,
          "internalType": "uint256",
          "name": "applicableValue",
          "type": "uint256"
        },
        {
          "indexed": false,
          "internalType": "UFixed18",
          "name": "baseFee",
          "type": "uint256"
        },
        {
          "indexed": false,
          "internalType": "UFixed18",
          "name": "calldataFee",
          "type": "uint256"
        },
        {
          "indexed": false,
          "internalType": "UFixed18",
          "name": "keeperFee",
          "type": "uint256"
        }
      ],
      "name": "KeeperCall",
      "type": "event"
    },
    {
      "anonymous": false,
      "inputs": [
        {
          "indexed": true,
          "internalType": "address",
          "name": "newOwner",
          "type": "address"
        }
      ],
      "name": "OwnerUpdated",
      "type": "event"
    },
    {
      "anonymous": false,
      "inputs": [],
      "name": "Paused",
      "type": "event"
    },
    {
      "anonymous": false,
      "inputs": [
        {
          "indexed": true,
          "internalType": "address",
          "name": "newPauser",
          "type": "address"
        }
      ],
      "name": "PauserUpdated",
      "type": "event"
    },
    {
      "anonymous": false,
      "inputs": [
        {
          "indexed": true,
          "internalType": "address",
          "name": "newPendingOwner",
          "type": "address"
        }
      ],
      "name": "PendingOwnerUpdated",
      "type": "event"
    },
    {
      "anonymous": false,
      "inputs": [
        {
          "indexed": true,
          "internalType": "address",
          "name": "owner",
          "type": "address"
        },
        {
          "indexed": true,
          "internalType": "uint256",
          "name": "group",
          "type": "uint256"
        },
        {
          "indexed": false,
          "internalType": "uint256",
          "name": "markets",
          "type": "uint256"
        }
      ],
      "name": "RebalanceGroupConfigured",
      "type": "event"
    },
    {
      "anonymous": false,
      "inputs": [
        {
          "indexed": true,
          "internalType": "address",
          "name": "owner",
          "type": "address"
        },
        {
          "indexed": true,
          "internalType": "uint256",
          "name": "group",
          "type": "uint256"
        },
        {
          "indexed": true,
          "internalType": "address",
          "name": "market",
          "type": "address"
        },
        {
          "components": [
            {
              "internalType": "UFixed6",
              "name": "target",
              "type": "uint256"
            },
            {
              "internalType": "UFixed6",
              "name": "threshold",
              "type": "uint256"
            }
          ],
          "indexed": false,
          "internalType": "struct RebalanceConfig",
          "name": "newConfig",
          "type": "tuple"
        }
      ],
      "name": "RebalanceMarketConfigured",
      "type": "event"
    },
    {
      "anonymous": false,
      "inputs": [],
      "name": "Unpaused",
      "type": "event"
    },
    {
      "inputs": [],
      "name": "ARB_FIXED_OVERHEAD",
      "outputs": [
        {
          "internalType": "uint256",
          "name": "",
          "type": "uint256"
        }
      ],
      "stateMutability": "view",
      "type": "function"
    },
    {
      "inputs": [],
      "name": "ARB_GAS_MULTIPLIER",
      "outputs": [
        {
          "internalType": "uint256",
          "name": "",
          "type": "uint256"
        }
      ],
      "stateMutability": "view",
      "type": "function"
    },
    {
      "inputs": [],
      "name": "DSU",
      "outputs": [
        {
          "internalType": "Token18",
          "name": "",
          "type": "address"
        }
      ],
      "stateMutability": "view",
      "type": "function"
    },
    {
      "inputs": [],
      "name": "USDC",
      "outputs": [
        {
          "internalType": "Token6",
          "name": "",
          "type": "address"
        }
      ],
      "stateMutability": "view",
      "type": "function"
    },
    {
      "inputs": [],
      "name": "acceptOwner",
      "outputs": [],
      "stateMutability": "nonpayable",
      "type": "function"
    },
    {
      "inputs": [
        {
          "components": [
            {
              "internalType": "uint256",
              "name": "group",
              "type": "uint256"
            },
            {
              "internalType": "address[]",
              "name": "markets",
              "type": "address[]"
            },
            {
              "components": [
                {
                  "internalType": "UFixed6",
                  "name": "target",
                  "type": "uint256"
                },
                {
                  "internalType": "UFixed6",
                  "name": "threshold",
                  "type": "uint256"
                }
              ],
              "internalType": "struct RebalanceConfig[]",
              "name": "configs",
              "type": "tuple[]"
            },
            {
              "internalType": "UFixed6",
              "name": "maxFee",
              "type": "uint256"
            },
            {
              "components": [
                {
                  "internalType": "UFixed6",
                  "name": "maxFee",
                  "type": "uint256"
                },
                {
                  "components": [
                    {
                      "internalType": "address",
                      "name": "account",
                      "type": "address"
                    },
                    {
                      "internalType": "address",
                      "name": "signer",
                      "type": "address"
                    },
                    {
                      "internalType": "address",
                      "name": "domain",
                      "type": "address"
                    },
                    {
                      "internalType": "uint256",
                      "name": "nonce",
                      "type": "uint256"
                    },
                    {
                      "internalType": "uint256",
                      "name": "group",
                      "type": "uint256"
                    },
                    {
                      "internalType": "uint256",
                      "name": "expiry",
                      "type": "uint256"
                    }
                  ],
                  "internalType": "struct Common",
                  "name": "common",
                  "type": "tuple"
                }
              ],
              "internalType": "struct Action",
              "name": "action",
              "type": "tuple"
            }
          ],
          "internalType": "struct RebalanceConfigChange",
          "name": "configChange",
          "type": "tuple"
        },
        {
          "internalType": "bytes",
          "name": "signature",
          "type": "bytes"
        }
      ],
      "name": "changeRebalanceConfigWithSignature",
      "outputs": [],
      "stateMutability": "nonpayable",
      "type": "function"
    },
    {
      "inputs": [
        {
          "internalType": "address",
          "name": "owner",
          "type": "address"
        },
        {
          "internalType": "uint256",
          "name": "group",
          "type": "uint256"
        }
      ],
      "name": "checkGroup",
      "outputs": [
        {
          "internalType": "Fixed6",
          "name": "groupCollateral",
          "type": "int256"
        },
        {
          "internalType": "bool",
          "name": "canRebalance",
          "type": "bool"
        },
        {
          "internalType": "Fixed6[]",
          "name": "imbalances",
          "type": "int256[]"
        }
      ],
      "stateMutability": "view",
      "type": "function"
    },
    {
      "inputs": [],
      "name": "deployAccount",
      "outputs": [
        {
          "internalType": "contract IAccount",
          "name": "",
          "type": "address"
        }
      ],
      "stateMutability": "nonpayable",
      "type": "function"
    },
    {
      "inputs": [
        {
          "components": [
            {
              "components": [
                {
                  "internalType": "UFixed6",
                  "name": "maxFee",
                  "type": "uint256"
                },
                {
                  "components": [
                    {
                      "internalType": "address",
                      "name": "account",
                      "type": "address"
                    },
                    {
                      "internalType": "address",
                      "name": "signer",
                      "type": "address"
                    },
                    {
                      "internalType": "address",
                      "name": "domain",
                      "type": "address"
                    },
                    {
                      "internalType": "uint256",
                      "name": "nonce",
                      "type": "uint256"
                    },
                    {
                      "internalType": "uint256",
                      "name": "group",
                      "type": "uint256"
                    },
                    {
                      "internalType": "uint256",
                      "name": "expiry",
                      "type": "uint256"
                    }
                  ],
                  "internalType": "struct Common",
                  "name": "common",
                  "type": "tuple"
                }
              ],
              "internalType": "struct Action",
              "name": "action",
              "type": "tuple"
            }
          ],
          "internalType": "struct DeployAccount",
          "name": "deployAccount_",
          "type": "tuple"
        },
        {
          "internalType": "bytes",
          "name": "signature",
          "type": "bytes"
        }
      ],
      "name": "deployAccountWithSignature",
      "outputs": [],
      "stateMutability": "nonpayable",
      "type": "function"
    },
    {
      "inputs": [],
      "name": "ethTokenOracleFeed",
      "outputs": [
        {
          "internalType": "contract AggregatorV3Interface",
          "name": "",
          "type": "address"
        }
      ],
      "stateMutability": "view",
      "type": "function"
    },
    {
      "inputs": [
        {
          "internalType": "address",
          "name": "owner",
          "type": "address"
        }
      ],
      "name": "getAccountAddress",
      "outputs": [
        {
          "internalType": "address",
          "name": "",
          "type": "address"
        }
      ],
      "stateMutability": "view",
      "type": "function"
    },
    {
      "inputs": [
        {
          "internalType": "address",
          "name": "",
          "type": "address"
        },
        {
          "internalType": "uint256",
          "name": "",
          "type": "uint256"
        },
        {
          "internalType": "uint256",
          "name": "",
          "type": "uint256"
        }
      ],
      "name": "groupToMarkets",
      "outputs": [
        {
          "internalType": "contract IMarket",
          "name": "",
          "type": "address"
        }
      ],
      "stateMutability": "view",
      "type": "function"
    },
    {
      "inputs": [
        {
          "internalType": "address",
          "name": "",
          "type": "address"
        },
        {
          "internalType": "uint256",
          "name": "",
          "type": "uint256"
        }
      ],
      "name": "groupToMaxRebalanceFee",
      "outputs": [
        {
          "internalType": "UFixed6",
          "name": "",
          "type": "uint256"
        }
      ],
      "stateMutability": "view",
      "type": "function"
    },
    {
      "inputs": [],
      "name": "implementation",
      "outputs": [
        {
          "internalType": "address",
          "name": "",
          "type": "address"
        }
      ],
      "stateMutability": "view",
      "type": "function"
    },
    {
      "inputs": [
        {
          "internalType": "contract IAccountVerifier",
          "name": "verifier_",
          "type": "address"
        }
      ],
      "name": "initialize",
      "outputs": [],
      "stateMutability": "nonpayable",
      "type": "function"
    },
    {
      "inputs": [
        {
          "internalType": "contract IAccountVerifier",
          "name": "verifier_",
          "type": "address"
        },
        {
          "internalType": "contract AggregatorV3Interface",
          "name": "chainlinkFeed_",
          "type": "address"
        },
        {
          "components": [
            {
              "internalType": "UFixed18",
              "name": "multiplierBase",
              "type": "uint256"
            },
            {
              "internalType": "uint256",
              "name": "bufferBase",
              "type": "uint256"
            },
            {
              "internalType": "UFixed18",
              "name": "multiplierCalldata",
              "type": "uint256"
            },
            {
              "internalType": "uint256",
              "name": "bufferCalldata",
              "type": "uint256"
            }
          ],
          "internalType": "struct IKept.KeepConfig",
          "name": "keepConfig_",
          "type": "tuple"
        },
        {
          "components": [
            {
              "internalType": "UFixed18",
              "name": "multiplierBase",
              "type": "uint256"
            },
            {
              "internalType": "uint256",
              "name": "bufferBase",
              "type": "uint256"
            },
            {
              "internalType": "UFixed18",
              "name": "multiplierCalldata",
              "type": "uint256"
            },
            {
              "internalType": "uint256",
              "name": "bufferCalldata",
              "type": "uint256"
            }
          ],
          "internalType": "struct IKept.KeepConfig",
          "name": "keepConfigBuffered_",
          "type": "tuple"
        },
        {
          "components": [
            {
              "internalType": "UFixed18",
              "name": "multiplierBase",
              "type": "uint256"
            },
            {
              "internalType": "uint256",
              "name": "bufferBase",
              "type": "uint256"
            },
            {
              "internalType": "UFixed18",
              "name": "multiplierCalldata",
              "type": "uint256"
            },
            {
              "internalType": "uint256",
              "name": "bufferCalldata",
              "type": "uint256"
            }
          ],
          "internalType": "struct IKept.KeepConfig",
          "name": "keepConfigWithdrawal_",
          "type": "tuple"
        }
      ],
      "name": "initialize",
      "outputs": [],
      "stateMutability": "nonpayable",
      "type": "function"
    },
    {
      "inputs": [
        {
          "internalType": "contract IInstance",
          "name": "instance",
          "type": "address"
        }
      ],
      "name": "instances",
      "outputs": [
        {
          "internalType": "bool",
          "name": "",
          "type": "bool"
        }
      ],
      "stateMutability": "view",
      "type": "function"
    },
    {
      "inputs": [],
      "name": "keepConfig",
      "outputs": [
        {
          "internalType": "UFixed18",
          "name": "multiplierBase",
          "type": "uint256"
        },
        {
          "internalType": "uint256",
          "name": "bufferBase",
          "type": "uint256"
        },
        {
          "internalType": "UFixed18",
          "name": "multiplierCalldata",
          "type": "uint256"
        },
        {
          "internalType": "uint256",
          "name": "bufferCalldata",
          "type": "uint256"
        }
      ],
      "stateMutability": "view",
      "type": "function"
    },
    {
      "inputs": [],
      "name": "keepConfigBuffered",
      "outputs": [
        {
          "internalType": "UFixed18",
          "name": "multiplierBase",
          "type": "uint256"
        },
        {
          "internalType": "uint256",
          "name": "bufferBase",
          "type": "uint256"
        },
        {
          "internalType": "UFixed18",
          "name": "multiplierCalldata",
          "type": "uint256"
        },
        {
          "internalType": "uint256",
          "name": "bufferCalldata",
          "type": "uint256"
        }
      ],
      "stateMutability": "view",
      "type": "function"
    },
    {
      "inputs": [],
      "name": "keepConfigWithdrawal",
      "outputs": [
        {
          "internalType": "UFixed18",
          "name": "multiplierBase",
          "type": "uint256"
        },
        {
          "internalType": "uint256",
          "name": "bufferBase",
          "type": "uint256"
        },
        {
          "internalType": "UFixed18",
          "name": "multiplierCalldata",
          "type": "uint256"
        },
        {
          "internalType": "uint256",
          "name": "bufferCalldata",
          "type": "uint256"
        }
      ],
      "stateMutability": "view",
      "type": "function"
    },
    {
      "inputs": [],
      "name": "keeperToken",
      "outputs": [
        {
          "internalType": "Token18",
          "name": "",
          "type": "address"
        }
      ],
      "stateMutability": "view",
      "type": "function"
    },
    {
      "inputs": [],
      "name": "marketFactory",
      "outputs": [
        {
          "internalType": "contract IMarketFactory",
          "name": "",
          "type": "address"
        }
      ],
      "stateMutability": "view",
      "type": "function"
    },
    {
      "inputs": [
        {
          "internalType": "address",
          "name": "",
          "type": "address"
        },
        {
          "internalType": "address",
          "name": "",
          "type": "address"
        }
      ],
      "name": "marketToGroup",
      "outputs": [
        {
          "internalType": "uint256",
          "name": "",
          "type": "uint256"
        }
      ],
      "stateMutability": "view",
      "type": "function"
    },
    {
      "inputs": [
        {
          "components": [
            {
              "internalType": "address",
              "name": "market",
              "type": "address"
            },
            {
              "internalType": "Fixed6",
              "name": "amount",
              "type": "int256"
            },
            {
              "components": [
                {
                  "internalType": "UFixed6",
                  "name": "maxFee",
                  "type": "uint256"
                },
                {
                  "components": [
                    {
                      "internalType": "address",
                      "name": "account",
                      "type": "address"
                    },
                    {
                      "internalType": "address",
                      "name": "signer",
                      "type": "address"
                    },
                    {
                      "internalType": "address",
                      "name": "domain",
                      "type": "address"
                    },
                    {
                      "internalType": "uint256",
                      "name": "nonce",
                      "type": "uint256"
                    },
                    {
                      "internalType": "uint256",
                      "name": "group",
                      "type": "uint256"
                    },
                    {
                      "internalType": "uint256",
                      "name": "expiry",
                      "type": "uint256"
                    }
                  ],
                  "internalType": "struct Common",
                  "name": "common",
                  "type": "tuple"
                }
              ],
              "internalType": "struct Action",
              "name": "action",
              "type": "tuple"
            }
          ],
          "internalType": "struct MarketTransfer",
          "name": "marketTransfer",
          "type": "tuple"
        },
        {
          "internalType": "bytes",
          "name": "signature",
          "type": "bytes"
        }
      ],
      "name": "marketTransferWithSignature",
      "outputs": [],
      "stateMutability": "nonpayable",
      "type": "function"
    },
    {
      "inputs": [],
      "name": "nonceManager",
      "outputs": [
        {
          "internalType": "contract IVerifierBase",
          "name": "",
          "type": "address"
        }
      ],
      "stateMutability": "view",
      "type": "function"
    },
    {
      "inputs": [],
      "name": "owner",
      "outputs": [
        {
          "internalType": "address",
          "name": "",
          "type": "address"
        }
      ],
      "stateMutability": "view",
      "type": "function"
    },
    {
      "inputs": [],
      "name": "pause",
      "outputs": [],
      "stateMutability": "nonpayable",
      "type": "function"
    },
    {
      "inputs": [],
      "name": "paused",
      "outputs": [
        {
          "internalType": "bool",
          "name": "",
          "type": "bool"
        }
      ],
      "stateMutability": "view",
      "type": "function"
    },
    {
      "inputs": [],
      "name": "pauser",
      "outputs": [
        {
          "internalType": "address",
          "name": "",
          "type": "address"
        }
      ],
      "stateMutability": "view",
      "type": "function"
    },
    {
      "inputs": [],
      "name": "pendingOwner",
      "outputs": [
        {
          "internalType": "address",
          "name": "",
          "type": "address"
        }
      ],
      "stateMutability": "view",
      "type": "function"
    },
    {
      "inputs": [
        {
          "internalType": "address",
          "name": "owner",
          "type": "address"
        },
        {
          "internalType": "uint256",
          "name": "group",
          "type": "uint256"
        },
        {
          "internalType": "address",
          "name": "market",
          "type": "address"
        }
      ],
      "name": "rebalanceConfigs",
      "outputs": [
        {
          "components": [
            {
              "internalType": "UFixed6",
              "name": "target",
              "type": "uint256"
            },
            {
              "internalType": "UFixed6",
              "name": "threshold",
              "type": "uint256"
            }
          ],
          "internalType": "struct RebalanceConfig",
          "name": "",
          "type": "tuple"
        }
      ],
      "stateMutability": "view",
      "type": "function"
    },
    {
      "inputs": [
        {
          "internalType": "address",
          "name": "owner",
          "type": "address"
        },
        {
          "internalType": "uint256",
          "name": "group",
          "type": "uint256"
        }
      ],
      "name": "rebalanceGroup",
      "outputs": [],
      "stateMutability": "nonpayable",
      "type": "function"
    },
    {
      "inputs": [
        {
          "internalType": "address",
          "name": "owner",
          "type": "address"
        },
        {
          "internalType": "uint256",
          "name": "group",
          "type": "uint256"
        }
      ],
      "name": "rebalanceGroupMarkets",
      "outputs": [
        {
          "internalType": "contract IMarket[]",
          "name": "markets",
          "type": "address[]"
        }
      ],
      "stateMutability": "view",
      "type": "function"
    },
    {
      "inputs": [
        {
          "components": [
            {
              "components": [
                {
                  "components": [
                    {
                      "internalType": "address",
                      "name": "accessor",
                      "type": "address"
                    },
                    {
                      "internalType": "bool",
                      "name": "approved",
                      "type": "bool"
                    }
                  ],
                  "internalType": "struct AccessUpdate[]",
                  "name": "operators",
                  "type": "tuple[]"
                },
                {
                  "components": [
                    {
                      "internalType": "address",
                      "name": "accessor",
                      "type": "address"
                    },
                    {
                      "internalType": "bool",
                      "name": "approved",
                      "type": "bool"
                    }
                  ],
                  "internalType": "struct AccessUpdate[]",
                  "name": "signers",
                  "type": "tuple[]"
                },
                {
                  "components": [
                    {
                      "internalType": "address",
                      "name": "account",
                      "type": "address"
                    },
                    {
                      "internalType": "address",
                      "name": "signer",
                      "type": "address"
                    },
                    {
                      "internalType": "address",
                      "name": "domain",
                      "type": "address"
                    },
                    {
                      "internalType": "uint256",
                      "name": "nonce",
                      "type": "uint256"
                    },
                    {
                      "internalType": "uint256",
                      "name": "group",
                      "type": "uint256"
                    },
                    {
                      "internalType": "uint256",
                      "name": "expiry",
                      "type": "uint256"
                    }
                  ],
                  "internalType": "struct Common",
                  "name": "common",
                  "type": "tuple"
                }
              ],
              "internalType": "struct AccessUpdateBatch",
              "name": "accessUpdateBatch",
              "type": "tuple"
            },
            {
              "components": [
                {
                  "internalType": "UFixed6",
                  "name": "maxFee",
                  "type": "uint256"
                },
                {
                  "components": [
                    {
                      "internalType": "address",
                      "name": "account",
                      "type": "address"
                    },
                    {
                      "internalType": "address",
                      "name": "signer",
                      "type": "address"
                    },
                    {
                      "internalType": "address",
                      "name": "domain",
                      "type": "address"
                    },
                    {
                      "internalType": "uint256",
                      "name": "nonce",
                      "type": "uint256"
                    },
                    {
                      "internalType": "uint256",
                      "name": "group",
                      "type": "uint256"
                    },
                    {
                      "internalType": "uint256",
                      "name": "expiry",
                      "type": "uint256"
                    }
                  ],
                  "internalType": "struct Common",
                  "name": "common",
                  "type": "tuple"
                }
              ],
              "internalType": "struct Action",
              "name": "action",
              "type": "tuple"
            }
          ],
          "internalType": "struct RelayedAccessUpdateBatch",
          "name": "message",
          "type": "tuple"
        },
        {
          "internalType": "bytes",
          "name": "outerSignature",
          "type": "bytes"
        },
        {
          "internalType": "bytes",
          "name": "innerSignature",
          "type": "bytes"
        }
      ],
      "name": "relayAccessUpdateBatch",
      "outputs": [],
      "stateMutability": "nonpayable",
      "type": "function"
    },
    {
      "inputs": [
        {
          "components": [
            {
              "components": [
                {
                  "internalType": "uint256",
                  "name": "group",
                  "type": "uint256"
                },
                {
                  "components": [
                    {
                      "internalType": "address",
                      "name": "account",
                      "type": "address"
                    },
                    {
                      "internalType": "address",
                      "name": "signer",
                      "type": "address"
                    },
                    {
                      "internalType": "address",
                      "name": "domain",
                      "type": "address"
                    },
                    {
                      "internalType": "uint256",
                      "name": "nonce",
                      "type": "uint256"
                    },
                    {
                      "internalType": "uint256",
                      "name": "group",
                      "type": "uint256"
                    },
                    {
                      "internalType": "uint256",
                      "name": "expiry",
                      "type": "uint256"
                    }
                  ],
                  "internalType": "struct Common",
                  "name": "common",
                  "type": "tuple"
                }
              ],
              "internalType": "struct GroupCancellation",
              "name": "groupCancellation",
              "type": "tuple"
            },
            {
              "components": [
                {
                  "internalType": "UFixed6",
                  "name": "maxFee",
                  "type": "uint256"
                },
                {
                  "components": [
                    {
                      "internalType": "address",
                      "name": "account",
                      "type": "address"
                    },
                    {
                      "internalType": "address",
                      "name": "signer",
                      "type": "address"
                    },
                    {
                      "internalType": "address",
                      "name": "domain",
                      "type": "address"
                    },
                    {
                      "internalType": "uint256",
                      "name": "nonce",
                      "type": "uint256"
                    },
                    {
                      "internalType": "uint256",
                      "name": "group",
                      "type": "uint256"
                    },
                    {
                      "internalType": "uint256",
                      "name": "expiry",
                      "type": "uint256"
                    }
                  ],
                  "internalType": "struct Common",
                  "name": "common",
                  "type": "tuple"
                }
              ],
              "internalType": "struct Action",
              "name": "action",
              "type": "tuple"
            }
          ],
          "internalType": "struct RelayedGroupCancellation",
          "name": "message",
          "type": "tuple"
        },
        {
          "internalType": "bytes",
          "name": "outerSignature",
          "type": "bytes"
        },
        {
          "internalType": "bytes",
          "name": "innerSignature",
          "type": "bytes"
        }
      ],
      "name": "relayGroupCancellation",
      "outputs": [],
      "stateMutability": "nonpayable",
      "type": "function"
    },
    {
      "inputs": [
        {
          "components": [
            {
              "components": [
                {
                  "internalType": "address",
                  "name": "account",
                  "type": "address"
                },
                {
                  "internalType": "address",
                  "name": "signer",
                  "type": "address"
                },
                {
                  "internalType": "address",
                  "name": "domain",
                  "type": "address"
                },
                {
                  "internalType": "uint256",
                  "name": "nonce",
                  "type": "uint256"
                },
                {
                  "internalType": "uint256",
                  "name": "group",
                  "type": "uint256"
                },
                {
                  "internalType": "uint256",
                  "name": "expiry",
                  "type": "uint256"
                }
              ],
              "internalType": "struct Common",
              "name": "nonceCancellation",
              "type": "tuple"
            },
            {
              "components": [
                {
                  "internalType": "UFixed6",
                  "name": "maxFee",
                  "type": "uint256"
                },
                {
                  "components": [
                    {
                      "internalType": "address",
                      "name": "account",
                      "type": "address"
                    },
                    {
                      "internalType": "address",
                      "name": "signer",
                      "type": "address"
                    },
                    {
                      "internalType": "address",
                      "name": "domain",
                      "type": "address"
                    },
                    {
                      "internalType": "uint256",
                      "name": "nonce",
                      "type": "uint256"
                    },
                    {
                      "internalType": "uint256",
                      "name": "group",
                      "type": "uint256"
                    },
                    {
                      "internalType": "uint256",
                      "name": "expiry",
                      "type": "uint256"
                    }
                  ],
                  "internalType": "struct Common",
                  "name": "common",
                  "type": "tuple"
                }
              ],
              "internalType": "struct Action",
              "name": "action",
              "type": "tuple"
            }
          ],
          "internalType": "struct RelayedNonceCancellation",
          "name": "message",
          "type": "tuple"
        },
        {
          "internalType": "bytes",
          "name": "outerSignature",
          "type": "bytes"
        },
        {
          "internalType": "bytes",
          "name": "innerSignature",
          "type": "bytes"
        }
      ],
      "name": "relayNonceCancellation",
      "outputs": [],
      "stateMutability": "nonpayable",
      "type": "function"
    },
    {
      "inputs": [
        {
          "components": [
            {
              "components": [
                {
                  "components": [
                    {
                      "internalType": "address",
                      "name": "accessor",
                      "type": "address"
                    },
                    {
                      "internalType": "bool",
                      "name": "approved",
                      "type": "bool"
                    }
                  ],
                  "internalType": "struct AccessUpdate",
                  "name": "access",
                  "type": "tuple"
                },
                {
                  "components": [
                    {
                      "internalType": "address",
                      "name": "account",
                      "type": "address"
                    },
                    {
                      "internalType": "address",
                      "name": "signer",
                      "type": "address"
                    },
                    {
                      "internalType": "address",
                      "name": "domain",
                      "type": "address"
                    },
                    {
                      "internalType": "uint256",
                      "name": "nonce",
                      "type": "uint256"
                    },
                    {
                      "internalType": "uint256",
                      "name": "group",
                      "type": "uint256"
                    },
                    {
                      "internalType": "uint256",
                      "name": "expiry",
                      "type": "uint256"
                    }
                  ],
                  "internalType": "struct Common",
                  "name": "common",
                  "type": "tuple"
                }
              ],
              "internalType": "struct OperatorUpdate",
              "name": "operatorUpdate",
              "type": "tuple"
            },
            {
              "components": [
                {
                  "internalType": "UFixed6",
                  "name": "maxFee",
                  "type": "uint256"
                },
                {
                  "components": [
                    {
                      "internalType": "address",
                      "name": "account",
                      "type": "address"
                    },
                    {
                      "internalType": "address",
                      "name": "signer",
                      "type": "address"
                    },
                    {
                      "internalType": "address",
                      "name": "domain",
                      "type": "address"
                    },
                    {
                      "internalType": "uint256",
                      "name": "nonce",
                      "type": "uint256"
                    },
                    {
                      "internalType": "uint256",
                      "name": "group",
                      "type": "uint256"
                    },
                    {
                      "internalType": "uint256",
                      "name": "expiry",
                      "type": "uint256"
                    }
                  ],
                  "internalType": "struct Common",
                  "name": "common",
                  "type": "tuple"
                }
              ],
              "internalType": "struct Action",
              "name": "action",
              "type": "tuple"
            }
          ],
          "internalType": "struct RelayedOperatorUpdate",
          "name": "message",
          "type": "tuple"
        },
        {
          "internalType": "bytes",
          "name": "outerSignature",
          "type": "bytes"
        },
        {
          "internalType": "bytes",
          "name": "innerSignature",
          "type": "bytes"
        }
      ],
      "name": "relayOperatorUpdate",
      "outputs": [],
      "stateMutability": "nonpayable",
      "type": "function"
    },
    {
      "inputs": [
        {
          "components": [
            {
              "components": [
                {
                  "components": [
                    {
                      "internalType": "address",
                      "name": "accessor",
                      "type": "address"
                    },
                    {
                      "internalType": "bool",
                      "name": "approved",
                      "type": "bool"
                    }
                  ],
                  "internalType": "struct AccessUpdate",
                  "name": "access",
                  "type": "tuple"
                },
                {
                  "components": [
                    {
                      "internalType": "address",
                      "name": "account",
                      "type": "address"
                    },
                    {
                      "internalType": "address",
                      "name": "signer",
                      "type": "address"
                    },
                    {
                      "internalType": "address",
                      "name": "domain",
                      "type": "address"
                    },
                    {
                      "internalType": "uint256",
                      "name": "nonce",
                      "type": "uint256"
                    },
                    {
                      "internalType": "uint256",
                      "name": "group",
                      "type": "uint256"
                    },
                    {
                      "internalType": "uint256",
                      "name": "expiry",
                      "type": "uint256"
                    }
                  ],
                  "internalType": "struct Common",
                  "name": "common",
                  "type": "tuple"
                }
              ],
              "internalType": "struct SignerUpdate",
              "name": "signerUpdate",
              "type": "tuple"
            },
            {
              "components": [
                {
                  "internalType": "UFixed6",
                  "name": "maxFee",
                  "type": "uint256"
                },
                {
                  "components": [
                    {
                      "internalType": "address",
                      "name": "account",
                      "type": "address"
                    },
                    {
                      "internalType": "address",
                      "name": "signer",
                      "type": "address"
                    },
                    {
                      "internalType": "address",
                      "name": "domain",
                      "type": "address"
                    },
                    {
                      "internalType": "uint256",
                      "name": "nonce",
                      "type": "uint256"
                    },
                    {
                      "internalType": "uint256",
                      "name": "group",
                      "type": "uint256"
                    },
                    {
                      "internalType": "uint256",
                      "name": "expiry",
                      "type": "uint256"
                    }
                  ],
                  "internalType": "struct Common",
                  "name": "common",
                  "type": "tuple"
                }
              ],
              "internalType": "struct Action",
              "name": "action",
              "type": "tuple"
            }
          ],
          "internalType": "struct RelayedSignerUpdate",
          "name": "message",
          "type": "tuple"
        },
        {
          "internalType": "bytes",
          "name": "outerSignature",
          "type": "bytes"
        },
        {
          "internalType": "bytes",
          "name": "innerSignature",
          "type": "bytes"
        }
      ],
      "name": "relaySignerUpdate",
      "outputs": [],
      "stateMutability": "nonpayable",
      "type": "function"
    },
    {
      "inputs": [],
      "name": "unpause",
      "outputs": [],
      "stateMutability": "nonpayable",
      "type": "function"
    },
    {
      "inputs": [
        {
          "internalType": "address",
          "name": "newPauser",
          "type": "address"
        }
      ],
      "name": "updatePauser",
      "outputs": [],
      "stateMutability": "nonpayable",
      "type": "function"
    },
    {
      "inputs": [
        {
          "internalType": "address",
          "name": "newPendingOwner",
          "type": "address"
        }
      ],
      "name": "updatePendingOwner",
      "outputs": [],
      "stateMutability": "nonpayable",
      "type": "function"
    },
    {
      "inputs": [],
      "name": "verifier",
      "outputs": [
        {
          "internalType": "contract IAccountVerifier",
          "name": "",
          "type": "address"
        }
      ],
      "stateMutability": "view",
      "type": "function"
    },
    {
      "inputs": [
        {
          "components": [
            {
              "internalType": "UFixed6",
              "name": "amount",
              "type": "uint256"
            },
            {
              "internalType": "bool",
              "name": "unwrap",
              "type": "bool"
            },
            {
              "components": [
                {
                  "internalType": "UFixed6",
                  "name": "maxFee",
                  "type": "uint256"
                },
                {
                  "components": [
                    {
                      "internalType": "address",
                      "name": "account",
                      "type": "address"
                    },
                    {
                      "internalType": "address",
                      "name": "signer",
                      "type": "address"
                    },
                    {
                      "internalType": "address",
                      "name": "domain",
                      "type": "address"
                    },
                    {
                      "internalType": "uint256",
                      "name": "nonce",
                      "type": "uint256"
                    },
                    {
                      "internalType": "uint256",
                      "name": "group",
                      "type": "uint256"
                    },
                    {
                      "internalType": "uint256",
                      "name": "expiry",
                      "type": "uint256"
                    }
                  ],
                  "internalType": "struct Common",
                  "name": "common",
                  "type": "tuple"
                }
              ],
              "internalType": "struct Action",
              "name": "action",
              "type": "tuple"
            }
          ],
          "internalType": "struct Withdrawal",
          "name": "withdrawal",
          "type": "tuple"
        },
        {
          "internalType": "bytes",
          "name": "signature",
          "type": "bytes"
        }
      ],
      "name": "withdrawWithSignature",
      "outputs": [],
      "stateMutability": "nonpayable",
      "type": "function"
    }
  ],
  "transactionHash": "0x1729879d91f6558893cc7a2c9251569226cdca947cdb13eb1afc355eb51f1726",
  "args": [
    "0xCa7fB0aFb7622a982a70c5EFd2Aa387257a0E826",
    "0xDaD8A103473dfd47F90168A0E46766ed48e26EC7",
    "0xF12a4ACDA6cA2e777b353538cb8e5ad6f05e0437"
  ],
  "numDeployments": 1,
  "solcInputHash": "62399b0bec14df8868cd112f4c7a7f43",
  "bytecode": "0x610120604081815234620001765760608262005e188038038091620000258285620001d8565b83398101031262000176576200003b8262000210565b60208084015191936001600160a01b0390818416840362000176578401519481861686036200017657806080521683516389a3027160e01b81528281600481855afa908115620001ce579083915f916200018c575b5060a052845163a2060bcf60e01b815291829060049082905afa91821562000182575f9262000140575b505060c05260e05261010091825251615bf2918262000226833960805182612cdd015260a051826129d8015260c051828181610b240152818161129701528181612860015281816136350152614ac1015260e05182818161273001528181612e4d015281816132af015261386001525181818161025101528181611f0f01526123650152f35b90809250813d83116200017a575b6200015a8183620001d8565b8101031262000176576200016e9062000210565b5f80620000ba565b5f80fd5b503d6200014e565b84513d5f823e3d90fd5b82819392503d8311620001c6575b620001a68183620001d8565b810103126200017657600491620001be849262000210565b909262000090565b503d6200019a565b85513d5f823e3d90fd5b601f909101601f19168101906001600160401b03821190821017620001fc57604052565b634e487b7160e01b5f52604160045260245ffd5b51906001600160a01b0382168203620001765756fe608080604052600436101562000013575f80fd5b5f905f3560e01c908163032bb4431462003a245750806303b1faf3146200388457806306ae70951462003831578063132d4eb1146200349f5780631af3a6e614620033fd5780632b7ac3f314620033c857806332878cc9146200337357806332cd1a9a14620030a15780633f4ba83a1462002fcb57806351b4c18d1462002f78578063554bab3c1462002ecc578063583dec321462002d885780635872fe451462002d6457806358c81fcb1462002d015780635c60da1b1462002cae5780635c975abb1462002c6d5780635d33db3c1462002b9b57806378fab5c71462002b7d5780637fefe8091462002b3f5780638456cb591462002a38578063872053a614620029fc57806389a3027114620029a95780638c29933e146200292e5780638da5cb5b14620028d95780639fd0506d1462002884578063a2060bcf1462002831578063aba30dfa1462002813578063b20caf4514620027be578063b3684e1314620025ac578063b51cf0a91462002528578063b5ee6955146200247c578063b7e8ef401462002440578063b8a5e3cd1462002404578063c402f8601462002144578063c4d66de81462001fe0578063d55cde1f1462001cd6578063db06b6ae146200143c578063e201ce971462001000578063e30c39781462000fab578063ebbc49651462000e7c578063f2842ace1462000755578063f72e323c14620002785763fddc205f1462000223575f80fd5b346200027557806003193601126200027557602060405173ffffffffffffffffffffffffffffffffffffffff7f0000000000000000000000000000000000000000000000000000000000000000168152f35b80fd5b50346200027557604060031936011262000275576200029662003b04565b81602480359060405160209080620002d485888584016020909392919373ffffffffffffffffffffffffffffffffffffffff60408201951681520152565b0393620003087fffffffffffffffffffffffffffffffffffffffffffffffffffffffffffffffe09586810184528362003ca2565b73ffffffffffffffffffffffffffffffffffffffff92838816958688526004825260408820838952825260408820549887895260039485845260408a20858b528452620003a160408b2054936200035f846200427b565b620003946040519e8f928984016020909392919373ffffffffffffffffffffffffffffffffffffffff60408201951681520152565b039081018d528c62003ca2565b5a8a5b8a8c5287865260408c20878d52865260408c20548110156200046a5788620003de8260408f8f81528c8b528181208c82528b522062003ba9565b9054908a1b1c16803b1562000466578c80918c8e60405194859384927f6a256b2900000000000000000000000000000000000000000000000000000000845260048401525af19081156200045b578d916200043f575b5050600101620003a4565b6200044a9062003bec565b62000457578b5f62000434565b8b80fd5b6040513d8f823e3d90fd5b8c80fd5b50919892999a9097506200047f858a6200440b565b9a9150156200072b576200049488916200427b565b16978b5b8a518110156200059657848d528786528c8760408220915286528c89620004c3836040842062003ba9565b9054908b1b1c168c82620004d88583620043f6565b5112620004ec575b50505060010162000498565b83620004f891620043f6565b51908c3b1562000592576040517fe1638ba300000000000000000000000000000000000000000000000000000000815273ffffffffffffffffffffffffffffffffffffffff9091166004820152602481019190915281818d8183816044810103925af1801562000587576200056f575b8c620004e0565b6200057a9062003bec565b62000466578c8e62000568565b6040513d84823e3d90fd5b8280fd5b509091998b5b8a518110156200068b57848d528786528c8760408220915286528c89620005c7836040842062003ba9565b9054908b1b1c168c82620005dc8583620043f6565b5113620005f0575b5050506001016200059c565b83620005fc91620043f6565b51908c3b1562000592576040517fe1638ba300000000000000000000000000000000000000000000000000000000815273ffffffffffffffffffffffffffffffffffffffff9091166004820152602481019190915281818d8183816044810103925af18015620005875762000673575b8c620005e4565b6200067e9062003bec565b62000466578c8e6200066c565b50938b94620006c68c8862000716977fd58ec24dc80af351d45ae5fa8586232e0013343355190b0ef9b77bd8dbb68d718a80a35a9062003fa5565b918115620007195760095491620006e081600a5462003fff565b620006f1600b5492600c5462003fff565b9260405194620007018662003c2e565b8552840152604083015260608201526200483a565b80f35b50506200072562003fb3565b6200483a565b60046040517fdc72f280000000000000000000000000000000000000000000000000000000008152fd5b50346200027557620007673662003ac1565b91620007806200077a6060830162003d08565b6200427b565b92604051620007ec81620007bf604086013588602084016020909392919373ffffffffffffffffffffffffffffffffffffffff60408201951681520152565b037fffffffffffffffffffffffffffffffffffffffffffffffffffffffffffffffe0810183528262003ca2565b6040519462000833866200080685888860208501620047fb565b037fffffffffffffffffffffffffffffffffffffffffffffffffffffffffffffffe0810188528762003ca2565b60405195620008428762003c2e565b600d5490818852600e5497886020820152600f549860408201998a52606060105492019182525f93156001171562000d785762000894670de0b6b3a7640000916200088e489162003fe1565b62003fff565b0498519051915190608c8201821162000d78577f0fffffffffffffffffffffffffffffffffffffffffffffffffffffffffffffff608c830116608c83010362000d7857604051917ff5d6ded7000000000000000000000000000000000000000000000000000000008352602083600481606c5afa92831562000d60575f9362000e38575b50670de0b6b3a7640000936200094f85620009476200095696956200088e608c6200088e970160041b62003fe1565b049162003fe1565b90620050e7565b04620009638189620050e7565b600460a073ffffffffffffffffffffffffffffffffffffffff7f2b50211693ec91bcfe327771928b74a8f475c508d53e86fca4153bcf0f0e87765416604051928380927ffeaf968c0000000000000000000000000000000000000000000000000000000082525afa90811562000d60575f9162000dd6575b50620009ec6305f5e1009162004eb5565b05905f821262000da557670de0b6b3a76400009162000a0b9162003fff565b0460408580518101031262000d6b5760208501519473ffffffffffffffffffffffffffffffffffffffff861680960362000d6b576040015164e8d4a510009081810291818304149015171562000d78578082101562000d6f5750905b843b1562000d6b57604051987f0b220c39000000000000000000000000000000000000000000000000000000008a528260048b01525f60248b01525f8a604481838a5af195861562000d60578b9a73ffffffffffffffffffffffffffffffffffffffff9762000d47575b5062000b4a90604051907f23b872dd00000000000000000000000000000000000000000000000000000000602083015260248201523060448201528460648201526064815262000b218162003c68565b877f0000000000000000000000000000000000000000000000000000000000000000166200523d565b7f5b5cbfa852c5bd03e540eba853f8faf28a604a4d82bee1091096bfaea14d08c3546040517fa9059cbb0000000000000000000000000000000000000000000000000000000060208201523360248201526044810185905262000be791889062000be083606481015b037fffffffffffffffffffffffffffffffffffffffffffffffffffffffffffffffe0810185528462003ca2565b166200523d565b6040519380855260208501526040840152606083015260808201527ffa0333956d06e335c550bd5fc4ac9c003c6545e371331b1071fa4d5d8519d6c160a03392a2169273ffffffffffffffffffffffffffffffffffffffff85541691823b1562000d435762000c8a928692836040518096819582947fcb5cd5090000000000000000000000000000000000000000000000000000000084528a60048501620047fb565b03925af190811562000d3857849162000d1c575b5050602081013580151580910362000d1757823b1562000d1757604484928360405195869485937f38d0743600000000000000000000000000000000000000000000000000000000855235600485015260248401525af18015620005875762000d045750f35b62000d0f9062003bec565b620002755780f35b505050fd5b62000d279062003bec565b62000d3457825f62000c9e565b5050fd5b6040513d86823e3d90fd5b8580fd5b62000d5491955062003bec565b5f9362000b4a62000ad1565b6040513d5f823e3d90fd5b5f80fd5b90509062000a67565b7f4e487b71000000000000000000000000000000000000000000000000000000005f52601160045260245ffd5b602482604051907f501f289e0000000000000000000000000000000000000000000000000000000082526004820152fd5b905060a0813d60a01162000e2f575b8162000df460a0938362003ca2565b8101031262000d6b57620009ec8162000e126305f5e10093620050f5565b5062000e26608060208301519201620050f5565b509150620009db565b3d915062000de5565b9250906020833d60201162000e73575b8162000e576020938362003ca2565b8101031262000d6b5791519190670de0b6b3a764000062000918565b3d915062000e48565b503462000275578060031936011262000275577f675c83682abbc3e7dd47e40515a778fbbde4393395c3dd3588244203c3e47883805473ffffffffffffffffffffffffffffffffffffffff81169081330362000f7b577fe7742ddf0fecd2926e7ef4d6d6e91a7b2f0b1f8805b78953dac8454e86273ed255807f4ffd725fc4a22075e9ec71c59edf9c38cdeb588a91b24fc5b61388c5be41282b5f80a2330362000f4b57819055807f69f201bc2089b9be6195d876d97a0136b4cf56bbf8986a52dcb50697f7d1cac58180a280f35b60246040517f99bf6359000000000000000000000000000000000000000000000000000000008152336004820152fd5b60246040517fd0d5e1b0000000000000000000000000000000000000000000000000000000008152336004820152fd5b5034620002755780600319360112620002755760207f675c83682abbc3e7dd47e40515a778fbbde4393395c3dd3588244203c3e478835473ffffffffffffffffffffffffffffffffffffffff60405191168152f35b503462000275576101c060031936011262000275576200101f62003b04565b6024359073ffffffffffffffffffffffffffffffffffffffff82168203620005925760807fffffffffffffffffffffffffffffffffffffffffffffffffffffffffffffffbc36011262000d6b57604051916200107b8362003c2e565b60443583526064356020840152608435604084015260a435606084015260807fffffffffffffffffffffffffffffffffffffffffffffffffffffffffffffff3c36011262000d6b57604051620010d18162003c2e565b60c435815260e435602082015261010435604082015261012435606082015260807ffffffffffffffffffffffffffffffffffffffffffffffffffffffffffffffebc36011262000d6b57604051926200112a8462003c2e565b6101443584526101643560208501526101843560408501526101a435606085015260017f6fee9688c285c5c5c97d6a1a29adced674e6b2ad0888b8ad2116b58a8b3ea2485410156200140b5760017f6fee9688c285c5c5c97d6a1a29adced674e6b2ad0888b8ad2116b58a8b3ea2485560017f2801b00eb06461cf9fcb9758b5fafd884ff06a86177386f73b6c49f0bf5a5af055303b15158062001403575b6200139f57303b151580620013fb575b6200139f577fe7742ddf0fecd2926e7ef4d6d6e91a7b2f0b1f8805b78953dac8454e86273ed273ffffffffffffffffffffffffffffffffffffffff815416620013d157339055337f4ffd725fc4a22075e9ec71c59edf9c38cdeb588a91b24fc5b61388c5be41282b5f80a2303b151580620013c9575b6200139f5760609473ffffffffffffffffffffffffffffffffffffffff869492818694167f2b50211693ec91bcfe327771928b74a8f475c508d53e86fca4153bcf0f0e8776557f00000000000000000000000000000000000000000000000000000000000000007f5b5cbfa852c5bd03e540eba853f8faf28a604a4d82bee1091096bfaea14d08c355167fffffffffffffffffffffffff0000000000000000000000000000000000000000885416178755805160055560208101516006556040810151600755015160085580516009556020810151600a556040810151600b550151600c558051600d556020810151600e556040810151600f550151601055807f2801b00eb06461cf9fcb9758b5fafd884ff06a86177386f73b6c49f0bf5a5af0557fbe9b076dc5b65990cca9dd9d7366682482e7817a6f6bc7f4faf4dc32af497f32602060405160018152a180f35b60046040517fb9a621e1000000000000000000000000000000000000000000000000000000008152fd5b505f6200124f565b60046040517fe43bdd4e000000000000000000000000000000000000000000000000000000008152fd5b5085620011d9565b5085620011c9565b60246040517f3db738da00000000000000000000000000000000000000000000000000000000815260016004820152fd5b5034620002755760031960408136011262001cd25767ffffffffffffffff9081600435116200059257610160906004353603011262001cd25760243590811162001cd257620014946200153591369060040162003a90565b9060a46004350184620014a78262003d08565b936200154260405195620014ff87620014cb8589600435600401602085016200468d565b03916200077a7fffffffffffffffffffffffffffffffffffffffffffffffffffffffffffffffe0938481018b528a62003ca2565b6040805173ffffffffffffffffffffffffffffffffffffffff909216602083015260043560840135908201529788906060820190565b0390810188528762003ca2565b5a9373ffffffffffffffffffffffffffffffffffffffff83541691823b1562001cce57620015a9928492836040518096819582947fbbcb5741000000000000000000000000000000000000000000000000000000008452600435600401600485016200468d565b03925af18015620005875762001cb2575b5050620015c79062003d08565b916004356004013515801562001ca1575b62001c77576004620015f26024823501823583016200510d565b90501162001c4d57845b73ffffffffffffffffffffffffffffffffffffffff84168652600380602052604087206004356004013588526020526040872054821015620016f6579073ffffffffffffffffffffffffffffffffffffffff60019281871689528060205260408920600435600401358a52602052620016798360408b2062003ba9565b9054911b1c1673ffffffffffffffffffffffffffffffffffffffff861688525f838060205260408a20600435600401358b5260205260408a2083835260205260408220828155015573ffffffffffffffffffffffffffffffffffffffff86168852600260205260408820905f526020525f604081205501620015fc565b5050929073ffffffffffffffffffffffffffffffffffffffff83168552600360205260408520600435600401358652602052604085208054908681558162001c2d575b5050849185925b620017566024600435016004356004016200510d565b905084101562001b405773ffffffffffffffffffffffffffffffffffffffff8516875260026020526040872073ffffffffffffffffffffffffffffffffffffffff620017c3620017bd87620017b66024600435016004356004016200510d565b9062005164565b62003d08565b165f5260205260405f20548062001ad4575073ffffffffffffffffffffffffffffffffffffffff8516875260026020526040872073ffffffffffffffffffffffffffffffffffffffff6200182b620017bd87620017b66024600435016004356004016200510d565b165f526020526004356004013560405f20556200185f846200185860446004350160043560040162005175565b90620051cc565b73ffffffffffffffffffffffffffffffffffffffff861688526001602052604088206004356004013589526020526040882073ffffffffffffffffffffffffffffffffffffffff620018c5620017bd88620017b66024600435016004356004016200510d565b165f526020526001602060405f209280358455013591015573ffffffffffffffffffffffffffffffffffffffff851687526003602052604087206004356004013588526020526040872073ffffffffffffffffffffffffffffffffffffffff62001943620017bd87620017b66024600435016004356004016200510d565b16908054906801000000000000000082101562001aa757916200197382620019f794600180979501815562003ba9565b73ffffffffffffffffffffffffffffffffffffffff829392549160031b92831b921b191617905573ffffffffffffffffffffffffffffffffffffffff87168952600460205260408920600435600401358a526020526064600435013560408a2055620019ef866200185860446004350160043560040162005175565b3590620050e7565b9362001a17620017bd82620017b66024600435016004356004016200510d565b73ffffffffffffffffffffffffffffffffffffffff62001a47836200185860446004350160043560040162005175565b916020604051938035855201356020840152169060043560040135907f499f2d584337dd47a4e71a8a4c57b77ad0058bb1a360335a855979a5ca3061d4604073ffffffffffffffffffffffffffffffffffffffff8b1692a4019262001740565b60248a7f4e487b710000000000000000000000000000000000000000000000000000000081526041600452fd5b60449073ffffffffffffffffffffffffffffffffffffffff62001b0b620017bd88620017b66024600435016004356004016200510d565b1690604051917fe21464ba00000000000000000000000000000000000000000000000000000000835260048301526024820152fd5b90939194925062001b5c6024600435016004356004016200510d565b90501515908162001c15575b5062001beb57620007169362001be19162001b8e6024600435016004356004016200510d565b90506040519081527f18fea070ebed40821f9c45ae1f8c875c49b031e4ff3b701b4772ade527f51088602073ffffffffffffffffffffffffffffffffffffffff60043560040135941692a35a9062003fa5565b6200072562003fb3565b60046040517f64580a1c000000000000000000000000000000000000000000000000000000008152fd5b6001915062001c24906200520b565b14155f62001b68565b865260208620908101905b8181101562001739575f815560010162001c38565b60046040517fecce9fda000000000000000000000000000000000000000000000000000000008152fd5b60046040517fa16ba7f2000000000000000000000000000000000000000000000000000000008152fd5b5060086004356004013511620015d8565b62001cbd9062003bec565b62001cca57845f620015ba565b8480fd5b8380fd5b5080fd5b5034620002755760031936016101e0811262001cd2576101a013620002755767ffffffffffffffff6101a435818111620005925762001d1a90369060040162003a90565b916101c43590811162001cce5762001d3790369060040162003a90565b73ffffffffffffffffffffffffffffffffffffffff60e4939293351660e4350362000d6b57620008069285916040519362001d756020860162003d2a565b60c43560e086015262001d8c610100860162003e62565b6101e06101c086015262001e0f8562001de262001daf61020083018b8662003f39565b7fffffffffffffffffffffffffffffffffffffffffffffffffffffffffffffffe0838203016101e0840152858762003f39565b037fffffffffffffffffffffffffffffffffffffffffffffffffffffffffffffffe0810187528662003ca2565b62001e5262001e2060e4356200427b565b6040805173ffffffffffffffffffffffffffffffffffffffff909216602083015260c435908201529687906060820190565b5a9673ffffffffffffffffffffffffffffffffffffffff85541691823b1562000d435762001ee2928692836040518096819582947ff5ba0b1d00000000000000000000000000000000000000000000000000000000845262001eb76004850162003d2a565b60c43560c485015262001ecd60e4850162003e62565b6101c06101a48501526101c484019162003f39565b03925af190811562000d3857849162001fc8575b505073ffffffffffffffffffffffffffffffffffffffff7f00000000000000000000000000000000000000000000000000000000000000001691823b1562001cce5762001f8c928492836040518096819582947f3a1505ca00000000000000000000000000000000000000000000000000000000845262001f7a6004850162003d2a565b60e060c485015260e484019162003f39565b03925af18015620005875762001fb0575b505062001be162000716935a9062003fa5565b62001fbb9062003bec565b62001cce57835f62001f9d565b62001fd39062003bec565b6200059257825f62001ef6565b503462000275576020600319360112620002755762001ffe62003b04565b7f6fee9688c285c5c5c97d6a1a29adced674e6b2ad0888b8ad2116b58a8b3ea2486001815410156200140b57600190557f2801b00eb06461cf9fcb9758b5fafd884ff06a86177386f73b6c49f0bf5a5af060018155303b1515806200213c575b6200139f57303b15158062002134575b6200139f5773ffffffffffffffffffffffffffffffffffffffff7fe7742ddf0fecd2926e7ef4d6d6e91a7b2f0b1f8805b78953dac8454e86273ed29281845416620013d1578493339055337f4ffd725fc4a22075e9ec71c59edf9c38cdeb588a91b24fc5b61388c5be41282b5f80a2167fffffffffffffffffffffffff0000000000000000000000000000000000000000835416178255557fbe9b076dc5b65990cca9dd9d7366682482e7817a6f6bc7f4faf4dc32af497f32602060405160018152a180f35b50826200206e565b50826200205e565b503462000275576003193601610200811262001cd2576101c013620002755767ffffffffffffffff6101c43581811162000592576200218890369060040162003a90565b916101e43590811162001cce57620021a590369060040162003a90565b73ffffffffffffffffffffffffffffffffffffffff6101049392933516610104350362000d6b5762000806928591604051936004356020860152620021ed6040860162003d90565b60e43561010086015262002205610120860162003df6565b6102006101e08601526200225b8562001de26200222861022083018b8662003f39565b7fffffffffffffffffffffffffffffffffffffffffffffffffffffffffffffffe083820301610200840152858762003f39565b6200229f6200226d610104356200427b565b6040805173ffffffffffffffffffffffffffffffffffffffff909216602083015260e435908201529687906060820190565b5a9673ffffffffffffffffffffffffffffffffffffffff85541691823b1562000d435762002338928692836040518096819582947f834a0d4800000000000000000000000000000000000000000000000000000000845260043560048501526200230c6024850162003d90565b60e43560e485015262002323610104850162003df6565b6101e06101c48501526101e484019162003f39565b03925af190811562000d38578491620023ec575b505073ffffffffffffffffffffffffffffffffffffffff7f00000000000000000000000000000000000000000000000000000000000000001691823b1562001cce5762001f8c928492836040518096819582947f715a86c50000000000000000000000000000000000000000000000000000000084526004356004850152620023d86024850162003d90565b61010060e485015261010484019162003f39565b620023f79062003bec565b6200059257825f6200234c565b50346200027557806003193601126200027557600d54600e54600f54601054604080519485526020850193909352918301526060820152608090f35b50346200027557806003193601126200027557600954600a54600b54600c54604080519485526020850193909352918301526060820152608090f35b50346200027557602060031936011262000275576200249a62003b04565b7fe7742ddf0fecd2926e7ef4d6d6e91a7b2f0b1f8805b78953dac8454e86273ed2549073ffffffffffffffffffffffffffffffffffffffff91823391160362000f4b57807f675c83682abbc3e7dd47e40515a778fbbde4393395c3dd3588244203c3e4788355167f69f201bc2089b9be6195d876d97a0136b4cf56bbf8986a52dcb50697f7d1cac58280a280f35b5034620002755760406003193601126200027557620025546200254a62003b04565b602435906200440b565b90919260405193849360608501918552602090151560208601526060604086015283518092526020608086019401925b8281106200259457505050500390f35b83518552869550938101939281019260010162002584565b503462000275578062002691620025c33662003b4a565b83620025d9610120879495979996990162003d08565b956200269e60405197620025f160208a018762004206565b6200265c610220916200077a8b6200264f6200261c61020099878b8501528961024085019162003f39565b7fffffffffffffffffffffffffffffffffffffffffffffffffffffffffffffffe0968784830301908401528a8d62003f39565b038481018d528c62003ca2565b6040805173ffffffffffffffffffffffffffffffffffffffff909216602083015261010088013590820152998a906060820190565b039081018a528962003ca2565b5a9873ffffffffffffffffffffffffffffffffffffffff9283885416803b15620027ba57620027068988620027188296604051988997889687957fde4030ed000000000000000000000000000000000000000000000000000000008752600487019062004206565b6101e485015261020484019162003f39565b03925af1908115620027af57869162002797575b50507f000000000000000000000000000000000000000000000000000000000000000016803b1562001cca5762001f8c93858094604051968795869485937fc655a23d0000000000000000000000000000000000000000000000000000000085526004850162004244565b620027a29062003bec565b62001cca57845f6200272c565b6040513d88823e3d90fd5b8880fd5b50346200027557806003193601126200027557602073ffffffffffffffffffffffffffffffffffffffff7f2b50211693ec91bcfe327771928b74a8f475c508d53e86fca4153bcf0f0e87765416604051908152f35b503462000275578060031936011262000275576020604051608c8152f35b50346200027557806003193601126200027557602060405173ffffffffffffffffffffffffffffffffffffffff7f0000000000000000000000000000000000000000000000000000000000000000168152f35b5034620002755780600319360112620002755760207f18e50ee9696440d335192aeeeffc26f47782eaa914f1700d8ad36d6d7f7261b35473ffffffffffffffffffffffffffffffffffffffff60405191168152f35b5034620002755780600319360112620002755760207fe7742ddf0fecd2926e7ef4d6d6e91a7b2f0b1f8805b78953dac8454e86273ed25473ffffffffffffffffffffffffffffffffffffffff60405191168152f35b50346200027557606060031936011262000275576200294c62003b04565b6044359173ffffffffffffffffffffffffffffffffffffffff8092168152600360205260408120602435825260205260408120908154841015620002755750602092620029999162003ba9565b90549060031b1c16604051908152f35b50346200027557806003193601126200027557602060405173ffffffffffffffffffffffffffffffffffffffff7f0000000000000000000000000000000000000000000000000000000000000000168152f35b50346200027557806003193601126200027557600554600654600754600854604080519485526020850193909352918301526060820152608090f35b5034620002755780600319360112620002755773ffffffffffffffffffffffffffffffffffffffff807f18e50ee9696440d335192aeeeffc26f47782eaa914f1700d8ad36d6d7f7261b35416331415908162002b10575b5062002ae05760017f3d13b7e57307bea7f94c474c597247d2da93d7de9136f8e123ed6525f50bbcec557f9e87fac88ff661f02d44f95383c817fece4bce600a3dab7a54406878b965e7528180a180f35b60246040517ff7987a92000000000000000000000000000000000000000000000000000000008152336004820152fd5b90507fe7742ddf0fecd2926e7ef4d6d6e91a7b2f0b1f8805b78953dac8454e86273ed254163314155f62002a8f565b50346200027557806003193601126200027557602062002b5f3362004d5a565b73ffffffffffffffffffffffffffffffffffffffff60405191168152f35b50346200027557806003193601126200027557602060405160108152f35b503462000275576040600319360112620002755762002bb962003b04565b9073ffffffffffffffffffffffffffffffffffffffff80921681526020906003825260408120602435825282526040812090604051808484549182815201908194845285842090845b81811062002c56575050508162002c1b91038262003ca2565b6040519380850191818652518092526040850193925b82811062002c3f5785850386f35b835187168552938101939281019260010162002c31565b825489168452928701926001928301920162002c02565b5034620002755780600319360112620002755760207f3d13b7e57307bea7f94c474c597247d2da93d7de9136f8e123ed6525f50bbcec546040519015158152f35b50346200027557806003193601126200027557602060405173ffffffffffffffffffffffffffffffffffffffff7f0000000000000000000000000000000000000000000000000000000000000000168152f35b503462000275576040600319360112620002755762002d1f62003b04565b6024359173ffffffffffffffffffffffffffffffffffffffff80841680940362000d6b57604092168152600260205220905f52602052602060405f2054604051908152f35b5034620002755760206003193601126200027557602062002b5f6200077a62003b04565b50346200027557806200269162002d9f3662003b4a565b8362002db5610120879495979996990162003d08565b9562002dcd60405197620025f160208a018762004206565b5a9873ffffffffffffffffffffffffffffffffffffffff9283885416803b15620027ba5762002706898862002e358296604051988997889687957ff50c8628000000000000000000000000000000000000000000000000000000008752600487019062004206565b03925af1908115620027af57869162002eb4575b50507f000000000000000000000000000000000000000000000000000000000000000016803b1562001cca5762001f8c93858094604051968795869485937faac3454b0000000000000000000000000000000000000000000000000000000085526004850162004244565b62002ebf9062003bec565b62001cca57845f62002e49565b503462000275576020600319360112620002755762002eea62003b04565b7fe7742ddf0fecd2926e7ef4d6d6e91a7b2f0b1f8805b78953dac8454e86273ed2549073ffffffffffffffffffffffffffffffffffffffff91823391160362000f4b57807f18e50ee9696440d335192aeeeffc26f47782eaa914f1700d8ad36d6d7f7261b355167fa4336c0cb1e245b95ad204faed7e940d6dc999684fd8b5e1ff597a0c4efca8ab8280a280f35b5034620002755760406003193601126200027557604060209173ffffffffffffffffffffffffffffffffffffffff62002fb062003b04565b16815260048352818120602435825283522054604051908152f35b5034620002755780600319360112620002755773ffffffffffffffffffffffffffffffffffffffff807f18e50ee9696440d335192aeeeffc26f47782eaa914f1700d8ad36d6d7f7261b35416331415908162003072575b5062002ae057807f3d13b7e57307bea7f94c474c597247d2da93d7de9136f8e123ed6525f50bbcec557fa45f47fdea8a1efdd9029a5691c7f759c32b7c698632b563573e155625d169338180a180f35b90507fe7742ddf0fecd2926e7ef4d6d6e91a7b2f0b1f8805b78953dac8454e86273ed254163314155f62003022565b5034620002755760031960608136011262001cd25760043567ffffffffffffffff9182821162001cce578382600401918336039061010081830112620005925760243586811162001cce57620030fc90369060040162003a90565b95909660443590811162001cca576200311a90369060040162003a90565b9590926200312b6044840162003d08565b6040516060602082015297908990898c6200314a6080830188620041a3565b7fffffffffffffffffffffffffffffffffffffffffffffffffffffffffffffffe09d8e848303016040850152620031819262003f39565b8c8282030160608301526200319890858a62003f39565b038b81018b52620031aa908b62003ca2565b620031b5906200427b565b6040805173ffffffffffffffffffffffffffffffffffffffff92909216602083015260248701359082015260609a8b01815299620031f4908b62003ca2565b5a9a73ffffffffffffffffffffffffffffffffffffffff91828a541690813b156200336f578a9162003264838962003275604051978896879586947f191190bc000000000000000000000000000000000000000000000000000000008652604060048701526044860190620041a3565b918d85840301602486015262003f39565b03925af19081156200336457899162003348575b50507ffffffffffffffffffffffffffffffffffffffffffffffffffffffffffffffefd907f000000000000000000000000000000000000000000000000000000000000000016933596018612156200334457823b156200334457620033349562001f8c60049389979388946040519a8b998a9889977fb557198f0000000000000000000000000000000000000000000000000000000089526040828a0152604489019201016200414e565b9285840301602486015262003f39565b8680fd5b620033539062003bec565b6200336057875f62003289565b8780fd5b6040513d8b823e3d90fd5b8a80fd5b5034620002755780600319360112620002755760207f5b5cbfa852c5bd03e540eba853f8faf28a604a4d82bee1091096bfaea14d08c35473ffffffffffffffffffffffffffffffffffffffff60405191168152f35b5034620002755780600319360112620002755773ffffffffffffffffffffffffffffffffffffffff6020915416604051908152f35b50346200027557606060031936011262000275576200341b62003b04565b60443573ffffffffffffffffffffffffffffffffffffffff80821680920362000d6b576040938491825194620034518662003c4b565b82865282602080970152168152600184528181206024358252845220905f528152815f20908251620034838162003c4b565b8160018454948584520154910190815283519283525190820152f35b50346200027557620034b13662003ac1565b606083929493016200077a8584620034c98462003d08565b946200355b604051966200351e88620034ea8560209e8f9d8e850162004013565b03916200077a7fffffffffffffffffffffffffffffffffffffffffffffffffffffffffffffffe0938481018c528b62003ca2565b6040805173ffffffffffffffffffffffffffffffffffffffff9092169a82019a8b528581013560208c015290998a91010390810189528862003ca2565b5a946200357f73ffffffffffffffffffffffffffffffffffffffff95869262003d08565b16928489541690813b156200382d57918991620035ce93836040518096819582947fc4786d9b0000000000000000000000000000000000000000000000000000000084528a6004850162004013565b03925af1801562003822579088916200380a575b505082620035f08262003d08565b1692604051907ffc0c546a0000000000000000000000000000000000000000000000000000000082528982600481885afa91821562003364578992620037cb575b50807f0000000000000000000000000000000000000000000000000000000000000000169116036200379a57813b1562003344576040517fe1638ba300000000000000000000000000000000000000000000000000000000815273ffffffffffffffffffffffffffffffffffffffff939093166004840152870135602483015285908290604490829084905af180156200378f5790859162003777575b5050620036dd905a9062003fa5565b600954600a54808004600114811517156200374a57600b54600c5491828004600114831517156200371d5762000716979860405194620007018662003c2e565b6024887f4e487b710000000000000000000000000000000000000000000000000000000081526011600452fd5b6024867f4e487b710000000000000000000000000000000000000000000000000000000081526011600452fd5b620037829062003bec565b62001cce57835f620036ce565b6040513d87823e3d90fd5b602483604051907f950cd0710000000000000000000000000000000000000000000000000000000082526004820152fd5b9091508981813d831162003802575b620037e6818362003ca2565b81010312620027ba57518181168103620027ba57905f62003631565b503d620037da565b620038159062003bec565b6200334457865f620035e2565b6040513d8a823e3d90fd5b8980fd5b50346200027557806003193601126200027557602060405173ffffffffffffffffffffffffffffffffffffffff7f0000000000000000000000000000000000000000000000000000000000000000168152f35b503462000d6b576003193601610100811262000d6b5760e01362000d6b5760e4359067ffffffffffffffff821162000d6b57620038ca6200395b92369060040162003a90565b620038d793919362003ce4565b9062003968604051926200392984620038f5858a6020840162003f77565b03916200077a7fffffffffffffffffffffffffffffffffffffffffffffffffffffffffffffffe09384810188528762003ca2565b6040805173ffffffffffffffffffffffffffffffffffffffff9092166020830152600435908201529485906060820190565b0390810185528462003ca2565b5a906200397462003ce4565b9573ffffffffffffffffffffffffffffffffffffffff5f541691823b1562000d6b57620039d4925f92836040518096819582947f8008e3490000000000000000000000000000000000000000000000000000000084526004840162003f77565b03925af1801562000d605762003a04575b5062001be190620039fb62000716959662004d5a565b505a9062003fa5565b6200071694509062003a1a62001be19262003bec565b5f945090620039e5565b3462000d6b57602060031936011262000d6b576004359073ffffffffffffffffffffffffffffffffffffffff821680920362000d6b576020915f527f81796b4965de195665289d95668a8a9e7020858e15f5341c42bcf9951c1768ad825260ff60405f20541615158152f35b9181601f8401121562000d6b5782359167ffffffffffffffff831162000d6b576020838186019501011162000d6b57565b906003198201610140811262000d6b576101201362000d6b57600491610124359067ffffffffffffffff821162000d6b5762003b009160040162003a90565b9091565b6004359073ffffffffffffffffffffffffffffffffffffffff8216820362000d6b57565b359073ffffffffffffffffffffffffffffffffffffffff8216820362000d6b57565b906003198201610220811262000d6b576101e01362000d6b5760049167ffffffffffffffff916101e43583811162000d6b578262003b8b9160040162003a90565b939093926102043591821162000d6b5762003b009160040162003a90565b805482101562003bbf575f5260205f2001905f90565b7f4e487b71000000000000000000000000000000000000000000000000000000005f52603260045260245ffd5b67ffffffffffffffff811162003c0157604052565b7f4e487b71000000000000000000000000000000000000000000000000000000005f52604160045260245ffd5b6080810190811067ffffffffffffffff82111762003c0157604052565b6040810190811067ffffffffffffffff82111762003c0157604052565b60a0810190811067ffffffffffffffff82111762003c0157604052565b6060810190811067ffffffffffffffff82111762003c0157604052565b90601f7fffffffffffffffffffffffffffffffffffffffffffffffffffffffffffffffe0910116810190811067ffffffffffffffff82111762003c0157604052565b60243573ffffffffffffffffffffffffffffffffffffffff8116810362000d6b5790565b3573ffffffffffffffffffffffffffffffffffffffff8116810362000d6b5790565b60043573ffffffffffffffffffffffffffffffffffffffff9081811680910362000d6b57825260243581811680910362000d6b57602083015260443590811680910362000d6b5760408201526064356060820152608435608082015260a060a435910152565b60243573ffffffffffffffffffffffffffffffffffffffff9081811680910362000d6b57825260443581811680910362000d6b57602083015260643590811680910362000d6b576040820152608435606082015260a435608082015260a060c435910152565b6101043573ffffffffffffffffffffffffffffffffffffffff9081811680910362000d6b5782526101243581811680910362000d6b5760208301526101443590811680910362000d6b57604082015261016435606082015261018435608082015260a06101a435910152565b60e43573ffffffffffffffffffffffffffffffffffffffff9081811680910362000d6b5782526101043581811680910362000d6b5760208301526101243590811680910362000d6b57604082015261014435606082015261016435608082015260a061018435910152565b60a0809173ffffffffffffffffffffffffffffffffffffffff8062003ef28362003b28565b1685528062003f046020840162003b28565b16602086015262003f186040830162003b28565b16604085015260608101356060850152608081013560808501520135910152565b601f82602094937fffffffffffffffffffffffffffffffffffffffffffffffffffffffffffffffe093818652868601375f8582860101520116010190565b9162003fa29261010090600435815262003f946020820162003d90565b8160e0820152019162003f39565b90565b9190820391821162000d7857565b6040519062003fc28262003c2e565b6005548252600654602083015260075460408301526008546060830152565b90670de0b6b3a76400009182810292818404149015171562000d7857565b8181029291811591840414171562000d7857565b9062003fa29391620040666101409273ffffffffffffffffffffffffffffffffffffffff620040428262003b28565b16835260208101356020840152604081013560408401526060808401910162003ecd565b81610120820152019162003f39565b90357fffffffffffffffffffffffffffffffffffffffffffffffffffffffffffffffe18236030181121562000d6b57016020813591019167ffffffffffffffff821162000d6b578160061b3603831362000d6b57565b3590811515820362000d6b57565b6200410b6020809273ffffffffffffffffffffffffffffffffffffffff620041018262003b28565b16855201620040cb565b1515910152565b916020908281520191905f5b8181106200412c5750505090565b909192806200413e60019286620040d9565b604090810194019291016200411e565b62003fa290604080620041996200417b6101006200416d868062004075565b9091808a5289019162004112565b6200418a602086018662004075565b9088830360208a015262004112565b9401910162003ecd565b610100908035917fffffffffffffffffffffffffffffffffffffffffffffffffffffffffffffff018236030183121562000d6b576040620041f262003fa294848484958952880191016200414e565b946020840135602082015201910162003ecd565b6200424291620042178183620040d9565b62004229604082016040840162003ecd565b6101008083013590820152610120809101910162003ecd565b565b9062003fa293916200426c610120926200425f8382620040d9565b6040808401910162003ecd565b81610100820152019162003f39565b600b6055917fa7061a14e3ecf6b6005ae012e8d4e1b45b16518ae5b5553dad6dcd441776ee67604091825173ffffffffffffffffffffffffffffffffffffffff6020927fc4d66de8000000000000000000000000000000000000000000000000000000008484015216602482015260248152620042f88162003c85565b62004363620043708361072f93875190620043168387018362003ca2565b858252828201956200548e873988516200433a81620007bf86820194308662004d2b565b895195869362004353868601998a925192839162004cc3565b8401915180938684019062004cc3565b0103808452018262003ca2565b5190208351938401528201523081520160ff81532090565b67ffffffffffffffff811162003c015760051b60200190565b90620043ad8262004388565b620043bc604051918262003ca2565b8281527fffffffffffffffffffffffffffffffffffffffffffffffffffffffffffffffe0620043ec829462004388565b0190602036910137565b805182101562003bbf5760209160051b010190565b915f905f73ffffffffffffffffffffffffffffffffffffffff80951691825f5260039560209660038852604096875f20815f5289526200444e885f2054620043a1565b935f955b85518710156200459e57875f52838b52895f20835f528b528462004479888c5f2062003ba9565b905490861b1c168a51907f5b4b969500000000000000000000000000000000000000000000000000000000825281806004928c84830152608092839160249687915afa9182156200459457908e92915f9262004532575b505001519283620044e28b8b620043f6565b525f84820194851291129080158216911516176200450857505060019096019562004452565b6011907f4e487b71000000000000000000000000000000000000000000000000000000005f52525ffd5b8193508092503d83116200458c575b6200454d818362003ca2565b8101031262000d6b578c518d918f620045668362003c2e565b8151835280820151908301528281015183830152606080910151908201525f80620044d0565b503d62004541565b8e513d5f823e3d90fd5b9550979298909195988596620045b58651620043a1565b975f995b87518b10156200467e576001908a8c8f62004659818e8e620046518f8f908f918f928f938b94620046629b5f52808352845f20845f528352620045ff86865f2062003ba9565b9054911b1c1697805f528e98898352845f20845f528352845f20905f528252835f2098845199620046308b62003c4b565b80548b520154828a01525f5260048152825f20915f52525f205492620043f6565b519262004ed3565b929093620043f6565b52811562004675575b509a0199620045b9565b90505f6200466b565b9a9899509a5050505050505050565b9193929093604092604081526101a081019386356040830152602090818801357fffffffffffffffffffffffffffffffffffffffffffffffffffffffffffffffe18936030181121562000d6b57880182813591019667ffffffffffffffff821162000d6b578160051b3603881362000d6b5781906101606060870152526101c0840196905f5b818110620047c457505050816200472e60408a018a62004075565b9190977fffffffffffffffffffffffffffffffffffffffffffffffffffffffffffffffc08682030160808701528281520196915f5b828110620047a757505050506200479b87606062003fa29899013560a0850152608081013560c085015260a060e08501910162003ecd565b81850391015262003f39565b8335895284840135858a0152978101979281019260010162004763565b909197848060019273ffffffffffffffffffffffffffffffffffffffff620047ec8d62003b28565b16815201990192910162004713565b9062003fa293916200406661014092803583526200481c60208201620040cb565b15156020840152604081013560408401526060808401910162003ecd565b919290925f9083519160206200088e6200487b828801516200088e8a6200486e670de0b6b3a7640000998a96879362003fe1565b046200094f489362003fe1565b04936040936060858901519801519051608c810180911162000d78576004987f0fffffffffffffffffffffffffffffffffffffffffffffffffffffffffffffff8216820362004bc0578651917ff5d6ded700000000000000000000000000000000000000000000000000000000835285838c81606c5afa92831562004c7c57908b869493925f9462004c86575b5084620009476200088e946200088e6200492a9899956200094f951b62003fe1565b0495620049388787620050e7565b9173ffffffffffffffffffffffffffffffffffffffff928960a0857f2b50211693ec91bcfe327771928b74a8f475c508d53e86fca4153bcf0f0e877654168951928380927ffeaf968c0000000000000000000000000000000000000000000000000000000082525afa90811562004c7c575f9162004c1b575b50620049c26305f5e1009162004eb5565b05905f821262004bec5790620049d89162003fff565b04858280518101031262000d6b57838201519183831680930362000d6b5786015164e8d4a510009081810291818304149015171562004bc0578082101562004bb75750975b813b1562000d6b57888651917f0b220c390000000000000000000000000000000000000000000000000000000083528201525f60248201525f8160448183865af1801562004bad5762004b8b575b509062004ae762004b4e928651907f23b872dd000000000000000000000000000000000000000000000000000000008683015260248201523060448201528960648201526064815262004abe8162003c68565b827f0000000000000000000000000000000000000000000000000000000000000000166200523d565b7f5b5cbfa852c5bd03e540eba853f8faf28a604a4d82bee1091096bfaea14d08c35485517fa9059cbb0000000000000000000000000000000000000000000000000000000085820152336024820152604481018a9052919062000be0836064810162000bb3565b8251968752860152840152606083015260808201527ffa0333956d06e335c550bd5fc4ac9c003c6545e371331b1071fa4d5d8519d6c160a03392a2565b62004b4e9291945062004b9e9062003bec565b62004ae75f9491925062004a6b565b86513d5f823e3d90fd5b90509762004a1d565b60118a7f4e487b71000000000000000000000000000000000000000000000000000000005f525260245ffd5b60248b838a51917f501f289e000000000000000000000000000000000000000000000000000000008352820152fd5b905060a0813d60a01162004c73575b8162004c3960a0938362003ca2565b8101031262000d6b57620049c28162004c576305f5e10093620050f5565b5062004c6a6080898301519201620050f5565b509150620049b1565b3d915062004c2a565b88513d5f823e3d90fd5b9350509092508582813d831162004cbb575b62004ca4818362003ca2565b8101031262000d6b579051849290918b8462004908565b503d62004c98565b5f5b83811062004cd55750505f910152565b818101518382015260200162004cc5565b907fffffffffffffffffffffffffffffffffffffffffffffffffffffffffffffffe0601f60209362004d248151809281875287808801910162004cc3565b0116010190565b60409073ffffffffffffffffffffffffffffffffffffffff62003fa29493168152816020820152019062004ce6565b90604051917fc4d66de800000000000000000000000000000000000000000000000000000000602084015273ffffffffffffffffffffffffffffffffffffffff809116928360248201526024815262004db38162003c85565b60405161072f8082019082821067ffffffffffffffff83111762003c01577fa7061a14e3ecf6b6005ae012e8d4e1b45b16518ae5b5553dad6dcd441776ee6793839262004e08926200548e8539309062004d2b565b03905ff5801562000d605716805f527f81796b4965de195665289d95668a8a9e7020858e15f5341c42bcf9951c1768ad60205260405f2060017fffffffffffffffffffffffffffffffffffffffffffffffffffffffffffffff00825416179055807f4fe45192317a7d3ad19c3eaa395c0c3a1b7a0f53c3536fb96764c3561a8e9dad5f80a280927f2682a218602b9036c9869f006c5405ee4a1a65267653eb7e286123e5e1afde4c5f80a3565b90670de0b6b3a76400009182810292818405149015171562000d7857565b92919280517f7fffffffffffffffffffffffffffffffffffffffffffffffffffffffffffffff8111620050b657808502947f8000000000000000000000000000000000000000000000000000000000000000918281145f83121662000d7857818705149015171562000d7857620f424080950590600162004f5483620051dd565b1462005047578585029085820587148615171562000d785782156200501a5781147fffffffffffffffffffffffffffffffffffffffffffffffffffffffffffffffff83141662000d7857819005945f868203961281871281169187139015161762000d78575f848203941281851281169185139015161762000d785762004fef600291602062004fe58697620051fb565b910151906200522a565b14918262004ffc57505091565b6002925090620050106200501692620051fb565b6200522a565b1491565b7f4e487b71000000000000000000000000000000000000000000000000000000005f52601260045260245ffd5b5050509092917ffffffffffffffffffffffffffffffffffffffffffffffffffffffffffff0bdc080850290858205148515171562000d78576001916200508f910594620051dd565b141590816200509d57509190565b60029150620050b1906200501085620051fb565b149190565b602490604051907feecaa25d0000000000000000000000000000000000000000000000000000000082526004820152fd5b9190820180921162000d7857565b519069ffffffffffffffffffff8216820362000d6b57565b9035907fffffffffffffffffffffffffffffffffffffffffffffffffffffffffffffffe18136030182121562000d6b570180359067ffffffffffffffff821162000d6b57602001918160051b3603831362000d6b57565b919081101562003bbf5760051b0190565b9035907fffffffffffffffffffffffffffffffffffffffffffffffffffffffffffffffe18136030182121562000d6b570180359067ffffffffffffffff821162000d6b57602001918160061b3603831362000d6b57565b919081101562003bbf5760061b0190565b5f8113620051f5575f13620051f157600190565b5f90565b50600290565b5f8112620052065790565b5f0390565b620f424090818111620052235710620051f157600190565b5050600290565b818111620052235710620051f157600190565b73ffffffffffffffffffffffffffffffffffffffff16604051620052618162003c4b565b5f806020948584527f5361666545524332303a206c6f772d6c6576656c2063616c6c206661696c656486850152858151910182865af13d15620053ad573d9067ffffffffffffffff821162003c0157620052fa9360405192620052ec877fffffffffffffffffffffffffffffffffffffffffffffffffffffffffffffffe0601f840116018562003ca2565b83523d5f8785013e620053b7565b8051806200530757505050565b8183918101031262000d6b5781015180159081150362000d6b57620053295750565b608490604051907f08c379a00000000000000000000000000000000000000000000000000000000082526004820152602a60248201527f5361666545524332303a204552433230206f7065726174696f6e20646964206e60448201527f6f742073756363656564000000000000000000000000000000000000000000006064820152fd5b91620052fa926060915b91929015620054355750815115620053cd575090565b3b15620053d75790565b60646040517f08c379a000000000000000000000000000000000000000000000000000000000815260206004820152601d60248201527f416464726573733a2063616c6c20746f206e6f6e2d636f6e74726163740000006044820152fd5b825190915015620054495750805190602001fd5b62005489906040519182917f08c379a000000000000000000000000000000000000000000000000000000000835260206004840152602483019062004ce6565b0390fdfe608060409080825261072f80380380916100198285610342565b833981019082818303126102385761003081610365565b6020828101516001600160401b039391929184821161023857019084601f830112156102385781519161006283610379565b9261006f88519485610342565b8084528484019685828401011161023857868561008c9301610394565b803b156102f0578551635c60da1b60e01b80825292916001600160a01b0316908481600481855afa9081156102e6575f916102b1575b503b15610254577fa3f0ad74e5423aebfd80d3ef4346578335a9a72aeaee59ff6cb3582b35133d5080546001600160a01b03191682179055865192817f1cf3b03a6cf19fa2baba4df148e9dcabedea7f8a5c07840e207e5c089be95d3e5f80a282511580159061024d575b610140575b87516102c690816104698239f35b6004848693819382525afa918215610243575f92610208575b5085519360608501908111858210176101f4578652602784527f416464726573733a206c6f772d6c6576656c2064656c65676174652063616c6c83850152660819985a5b195960ca1b84870152516101de945f918291845af4903d156101eb573d6101c381610379565b906101d088519283610342565b81525f81943d92013e6103b5565b505f808080808080610132565b606092506103b5565b634e487b7160e01b5f52604160045260245ffd5b9091508281813d831161023c575b6102208183610342565b810103126102385761023190610365565b905f610159565b5f80fd5b503d610216565b86513d5f823e3d90fd5b505f61012d565b865162461bcd60e51b815260048101859052603060248201527f455243313936373a20626561636f6e20696d706c656d656e746174696f6e206960448201526f1cc81b9bdd08184818dbdb9d1c9858dd60821b6064820152608490fd5b90508481813d83116102df575b6102c88183610342565b81010312610238576102d990610365565b5f6100c2565b503d6102be565b88513d5f823e3d90fd5b855162461bcd60e51b815260048101849052602560248201527f455243313936373a206e657720626561636f6e206973206e6f74206120636f6e6044820152641d1c9858dd60da1b6064820152608490fd5b601f909101601f19168101906001600160401b038211908210176101f457604052565b51906001600160a01b038216820361023857565b6001600160401b0381116101f457601f01601f191660200190565b5f5b8381106103a55750505f910152565b8181015183820152602001610396565b9192901561041757508151156103c9575090565b3b156103d25790565b60405162461bcd60e51b815260206004820152601d60248201527f416464726573733a2063616c6c20746f206e6f6e2d636f6e74726163740000006044820152606490fd5b82519091501561042a5750805190602001fd5b6044604051809262461bcd60e51b82526020600483015261045a8151809281602486015260208686019101610394565b601f01601f19168101030190fdfe6080806040523661011c5760208160048173ffffffffffffffffffffffffffffffffffffffff7fa3f0ad74e5423aebfd80d3ef4346578335a9a72aeaee59ff6cb3582b35133d5054167f5c60da1b0000000000000000000000000000000000000000000000000000000082525afa908115610111575f91610081575b50610273565b905060203d60201161010a575b7fffffffffffffffffffffffffffffffffffffffffffffffffffffffffffffffe0601f82011682019180831067ffffffffffffffff8411176100dd576100d792604052016101f6565b5f61007b565b7f4e487b71000000000000000000000000000000000000000000000000000000005f52604160045260245ffd5b503d61008e565b6040513d5f823e3d90fd5b6004602073ffffffffffffffffffffffffffffffffffffffff7fa3f0ad74e5423aebfd80d3ef4346578335a9a72aeaee59ff6cb3582b35133d505416604051928380927f5c60da1b0000000000000000000000000000000000000000000000000000000082525afa908115610111575f916101975750610273565b602091503d82116101ee575b7fffffffffffffffffffffffffffffffffffffffffffffffffffffffffffffffe0601f83011681019181831067ffffffffffffffff8411176100dd576100d792604052810190610247565b3d91506101a3565b7fffffffffffffffffffffffffffffffffffffffffffffffffffffffffffffff8060209101126102435760805173ffffffffffffffffffffffffffffffffffffffff811681036102435790565b5f80fd5b90816020910312610243575173ffffffffffffffffffffffffffffffffffffffff811681036102435790565b5f8091368280378136915af43d5f803e1561028c573d5ff35b3d5ffdfea26469706673582212206f9457af0d269f762402fdc9d0f6ae29b919901c6c2322cd4b7a76911ff14d8464736f6c63430008180033a2646970667358221220cfb82876bf98c1e0ca9dc7b73e51514dd1a51c2a78e5689a79d5344afcfa79e264736f6c63430008180033"
}