{
  "address": "0x3AF57C0F8E76277f58Ca09d03ACE050c5Dca4671",
  "abi": [
    {
      "inputs": [
        {
          "internalType": "Token6",
          "name": "usdc",
          "type": "address"
        },
        {
          "internalType": "Token18",
          "name": "dsu",
          "type": "address"
        },
        {
          "internalType": "contract IEmptySetReserve",
          "name": "reserve",
          "type": "address"
        },
        {
          "internalType": "contract IMarketFactory",
          "name": "marketFactory",
          "type": "address"
        },
        {
          "internalType": "contract IOrderVerifier",
          "name": "verifier",
          "type": "address"
        }
      ],
      "stateMutability": "nonpayable",
      "type": "constructor"
    },
    {
      "inputs": [],
      "name": "DivisionByZero",
      "type": "error"
    },
    {
      "inputs": [
        {
          "internalType": "uint256",
          "name": "value",
          "type": "uint256"
        }
      ],
      "name": "Fixed6OverflowError",
      "type": "error"
    },
    {
      "inputs": [
        {
          "internalType": "uint256",
          "name": "version",
          "type": "uint256"
        }
      ],
      "name": "InitializableAlreadyInitializedError",
      "type": "error"
    },
    {
      "inputs": [],
      "name": "InitializableNotInitializingError",
      "type": "error"
    },
    {
      "inputs": [],
      "name": "InitializableZeroVersionError",
      "type": "error"
    },
    {
      "inputs": [],
      "name": "ManagerCannotCancelError",
      "type": "error"
    },
    {
      "inputs": [],
      "name": "ManagerCannotExecuteError",
      "type": "error"
    },
    {
      "inputs": [],
      "name": "ManagerCannotReduceMaxFee",
      "type": "error"
    },
    {
      "inputs": [],
      "name": "ManagerInvalidOperatorError",
      "type": "error"
    },
    {
      "inputs": [],
      "name": "ManagerInvalidOrderNonceError",
      "type": "error"
    },
    {
      "inputs": [],
      "name": "ManagerInvalidSignerError",
      "type": "error"
    },
    {
      "inputs": [],
      "name": "TriggerOrderInvalidError",
      "type": "error"
    },
    {
      "inputs": [],
      "name": "TriggerOrderStorageInvalidError",
      "type": "error"
    },
    {
      "inputs": [
        {
          "internalType": "int256",
          "name": "value",
          "type": "int256"
        }
      ],
      "name": "UFixed18UnderflowError",
      "type": "error"
    },
    {
      "inputs": [
        {
          "internalType": "int256",
          "name": "value",
          "type": "int256"
        }
      ],
      "name": "UFixed6UnderflowError",
      "type": "error"
    },
    {
      "anonymous": false,
      "inputs": [
        {
          "indexed": false,
          "internalType": "uint256",
          "name": "version",
          "type": "uint256"
        }
      ],
      "name": "Initialized",
      "type": "event"
    },
    {
      "anonymous": false,
      "inputs": [
        {
          "indexed": true,
          "internalType": "address",
          "name": "sender",
          "type": "address"
        },
        {
          "indexed": false,
          "internalType": "uint256",
          "name": "applicableGas",
          "type": "uint256"
        },
        {
          "indexed": false,
          "internalType": "uint256",
          "name": "applicableValue",
          "type": "uint256"
        },
        {
          "indexed": false,
          "internalType": "UFixed18",
          "name": "baseFee",
          "type": "uint256"
        },
        {
          "indexed": false,
          "internalType": "UFixed18",
          "name": "calldataFee",
          "type": "uint256"
        },
        {
          "indexed": false,
          "internalType": "UFixed18",
          "name": "keeperFee",
          "type": "uint256"
        }
      ],
      "name": "KeeperCall",
      "type": "event"
    },
    {
      "anonymous": false,
      "inputs": [
        {
          "indexed": true,
          "internalType": "contract IMarket",
          "name": "market",
          "type": "address"
        },
        {
          "indexed": true,
          "internalType": "address",
          "name": "account",
          "type": "address"
        },
        {
          "indexed": false,
          "internalType": "uint256",
          "name": "orderId",
          "type": "uint256"
        }
      ],
      "name": "TriggerOrderCancelled",
      "type": "event"
    },
    {
      "anonymous": false,
      "inputs": [
        {
          "indexed": true,
          "internalType": "contract IMarket",
          "name": "market",
          "type": "address"
        },
        {
          "indexed": true,
          "internalType": "address",
          "name": "account",
          "type": "address"
        },
        {
          "components": [
            {
              "internalType": "uint8",
              "name": "side",
              "type": "uint8"
            },
            {
              "internalType": "int8",
              "name": "comparison",
              "type": "int8"
            },
            {
              "internalType": "Fixed6",
              "name": "price",
              "type": "int256"
            },
            {
              "internalType": "Fixed6",
              "name": "delta",
              "type": "int256"
            },
            {
              "internalType": "UFixed6",
              "name": "maxFee",
              "type": "uint256"
            },
            {
              "internalType": "bool",
              "name": "isSpent",
              "type": "bool"
            },
            {
              "internalType": "address",
              "name": "referrer",
              "type": "address"
            },
            {
              "components": [
                {
                  "internalType": "UFixed6",
                  "name": "amount",
                  "type": "uint256"
                },
                {
                  "internalType": "address",
                  "name": "receiver",
                  "type": "address"
                },
                {
                  "internalType": "bool",
                  "name": "fixedFee",
                  "type": "bool"
                },
                {
                  "internalType": "bool",
                  "name": "unwrap",
                  "type": "bool"
                }
              ],
              "internalType": "struct InterfaceFee",
              "name": "interfaceFee",
              "type": "tuple"
            }
          ],
          "indexed": false,
          "internalType": "struct TriggerOrder",
          "name": "order",
          "type": "tuple"
        },
        {
          "indexed": false,
          "internalType": "uint256",
          "name": "orderId",
          "type": "uint256"
        }
      ],
      "name": "TriggerOrderExecuted",
      "type": "event"
    },
    {
      "anonymous": false,
      "inputs": [
        {
          "indexed": true,
          "internalType": "address",
          "name": "account",
          "type": "address"
        },
        {
          "indexed": true,
          "internalType": "contract IMarket",
          "name": "market",
          "type": "address"
        },
        {
          "components": [
            {
              "internalType": "UFixed6",
              "name": "amount",
              "type": "uint256"
            },
            {
              "internalType": "address",
              "name": "receiver",
              "type": "address"
            },
            {
              "internalType": "bool",
              "name": "fixedFee",
              "type": "bool"
            },
            {
              "internalType": "bool",
              "name": "unwrap",
              "type": "bool"
            }
          ],
          "indexed": false,
          "internalType": "struct InterfaceFee",
          "name": "fee",
          "type": "tuple"
        }
      ],
      "name": "TriggerOrderInterfaceFeeCharged",
      "type": "event"
    },
    {
      "anonymous": false,
      "inputs": [
        {
          "indexed": true,
          "internalType": "contract IMarket",
          "name": "market",
          "type": "address"
        },
        {
          "indexed": true,
          "internalType": "address",
          "name": "account",
          "type": "address"
        },
        {
          "components": [
            {
              "internalType": "uint8",
              "name": "side",
              "type": "uint8"
            },
            {
              "internalType": "int8",
              "name": "comparison",
              "type": "int8"
            },
            {
              "internalType": "Fixed6",
              "name": "price",
              "type": "int256"
            },
            {
              "internalType": "Fixed6",
              "name": "delta",
              "type": "int256"
            },
            {
              "internalType": "UFixed6",
              "name": "maxFee",
              "type": "uint256"
            },
            {
              "internalType": "bool",
              "name": "isSpent",
              "type": "bool"
            },
            {
              "internalType": "address",
              "name": "referrer",
              "type": "address"
            },
            {
              "components": [
                {
                  "internalType": "UFixed6",
                  "name": "amount",
                  "type": "uint256"
                },
                {
                  "internalType": "address",
                  "name": "receiver",
                  "type": "address"
                },
                {
                  "internalType": "bool",
                  "name": "fixedFee",
                  "type": "bool"
                },
                {
                  "internalType": "bool",
                  "name": "unwrap",
                  "type": "bool"
                }
              ],
              "internalType": "struct InterfaceFee",
              "name": "interfaceFee",
              "type": "tuple"
            }
          ],
          "indexed": false,
          "internalType": "struct TriggerOrder",
          "name": "order",
          "type": "tuple"
        },
        {
          "indexed": false,
          "internalType": "uint256",
          "name": "orderId",
          "type": "uint256"
        }
      ],
      "name": "TriggerOrderPlaced",
      "type": "event"
    },
    {
      "inputs": [],
      "name": "ARB_FIXED_OVERHEAD",
      "outputs": [
        {
          "internalType": "uint256",
          "name": "",
          "type": "uint256"
        }
      ],
      "stateMutability": "view",
      "type": "function"
    },
    {
      "inputs": [],
      "name": "ARB_GAS_MULTIPLIER",
      "outputs": [
        {
          "internalType": "uint256",
          "name": "",
          "type": "uint256"
        }
      ],
      "stateMutability": "view",
      "type": "function"
    },
    {
      "inputs": [],
      "name": "DSU",
      "outputs": [
        {
          "internalType": "Token18",
          "name": "",
          "type": "address"
        }
      ],
      "stateMutability": "view",
      "type": "function"
    },
    {
      "inputs": [],
      "name": "USDC",
      "outputs": [
        {
          "internalType": "Token6",
          "name": "",
          "type": "address"
        }
      ],
      "stateMutability": "view",
      "type": "function"
    },
    {
      "inputs": [
        {
          "internalType": "contract IMarket",
          "name": "market",
          "type": "address"
        },
        {
          "internalType": "uint256",
          "name": "orderId",
          "type": "uint256"
        }
      ],
      "name": "cancelOrder",
      "outputs": [],
      "stateMutability": "nonpayable",
      "type": "function"
    },
    {
      "inputs": [
        {
          "components": [
            {
              "components": [
                {
                  "internalType": "contract IMarket",
                  "name": "market",
                  "type": "address"
                },
                {
                  "internalType": "uint256",
                  "name": "orderId",
                  "type": "uint256"
                },
                {
                  "internalType": "UFixed6",
                  "name": "maxFee",
                  "type": "uint256"
                },
                {
                  "components": [
                    {
                      "internalType": "address",
                      "name": "account",
                      "type": "address"
                    },
                    {
                      "internalType": "address",
                      "name": "signer",
                      "type": "address"
                    },
                    {
                      "internalType": "address",
                      "name": "domain",
                      "type": "address"
                    },
                    {
                      "internalType": "uint256",
                      "name": "nonce",
                      "type": "uint256"
                    },
                    {
                      "internalType": "uint256",
                      "name": "group",
                      "type": "uint256"
                    },
                    {
                      "internalType": "uint256",
                      "name": "expiry",
                      "type": "uint256"
                    }
                  ],
                  "internalType": "struct Common",
                  "name": "common",
                  "type": "tuple"
                }
              ],
              "internalType": "struct Action",
              "name": "action",
              "type": "tuple"
            }
          ],
          "internalType": "struct CancelOrderAction",
          "name": "request",
          "type": "tuple"
        },
        {
          "internalType": "bytes",
          "name": "signature",
          "type": "bytes"
        }
      ],
      "name": "cancelOrderWithSignature",
      "outputs": [],
      "stateMutability": "nonpayable",
      "type": "function"
    },
    {
      "inputs": [
        {
          "internalType": "contract IMarket",
          "name": "market",
          "type": "address"
        },
        {
          "internalType": "address",
          "name": "account",
          "type": "address"
        },
        {
          "internalType": "uint256",
          "name": "orderId",
          "type": "uint256"
        }
      ],
      "name": "checkOrder",
      "outputs": [
        {
          "components": [
            {
              "internalType": "uint8",
              "name": "side",
              "type": "uint8"
            },
            {
              "internalType": "int8",
              "name": "comparison",
              "type": "int8"
            },
            {
              "internalType": "Fixed6",
              "name": "price",
              "type": "int256"
            },
            {
              "internalType": "Fixed6",
              "name": "delta",
              "type": "int256"
            },
            {
              "internalType": "UFixed6",
              "name": "maxFee",
              "type": "uint256"
            },
            {
              "internalType": "bool",
              "name": "isSpent",
              "type": "bool"
            },
            {
              "internalType": "address",
              "name": "referrer",
              "type": "address"
            },
            {
              "components": [
                {
                  "internalType": "UFixed6",
                  "name": "amount",
                  "type": "uint256"
                },
                {
                  "internalType": "address",
                  "name": "receiver",
                  "type": "address"
                },
                {
                  "internalType": "bool",
                  "name": "fixedFee",
                  "type": "bool"
                },
                {
                  "internalType": "bool",
                  "name": "unwrap",
                  "type": "bool"
                }
              ],
              "internalType": "struct InterfaceFee",
              "name": "interfaceFee",
              "type": "tuple"
            }
          ],
          "internalType": "struct TriggerOrder",
          "name": "order",
          "type": "tuple"
        },
        {
          "internalType": "bool",
          "name": "canExecute",
          "type": "bool"
        }
      ],
      "stateMutability": "view",
      "type": "function"
    },
    {
      "inputs": [
        {
          "internalType": "address",
          "name": "account",
          "type": "address"
        },
        {
          "internalType": "bool",
          "name": "unwrap",
          "type": "bool"
        }
      ],
      "name": "claim",
      "outputs": [],
      "stateMutability": "nonpayable",
      "type": "function"
    },
    {
      "inputs": [
        {
          "internalType": "address",
          "name": "",
          "type": "address"
        }
      ],
      "name": "claimable",
      "outputs": [
        {
          "internalType": "UFixed6",
          "name": "",
          "type": "uint256"
        }
      ],
      "stateMutability": "view",
      "type": "function"
    },
    {
      "inputs": [],
      "name": "ethTokenOracleFeed",
      "outputs": [
        {
          "internalType": "contract AggregatorV3Interface",
          "name": "",
          "type": "address"
        }
      ],
      "stateMutability": "view",
      "type": "function"
    },
    {
      "inputs": [
        {
          "internalType": "contract IMarket",
          "name": "market",
          "type": "address"
        },
        {
          "internalType": "address",
          "name": "account",
          "type": "address"
        },
        {
          "internalType": "uint256",
          "name": "orderId",
          "type": "uint256"
        }
      ],
      "name": "executeOrder",
      "outputs": [],
      "stateMutability": "nonpayable",
      "type": "function"
    },
    {
      "inputs": [
        {
          "internalType": "contract AggregatorV3Interface",
          "name": "ethOracle_",
          "type": "address"
        },
        {
          "components": [
            {
              "internalType": "UFixed18",
              "name": "multiplierBase",
              "type": "uint256"
            },
            {
              "internalType": "uint256",
              "name": "bufferBase",
              "type": "uint256"
            },
            {
              "internalType": "UFixed18",
              "name": "multiplierCalldata",
              "type": "uint256"
            },
            {
              "internalType": "uint256",
              "name": "bufferCalldata",
              "type": "uint256"
            }
          ],
          "internalType": "struct IKept.KeepConfig",
          "name": "keepConfig_",
          "type": "tuple"
        },
        {
          "components": [
            {
              "internalType": "UFixed18",
              "name": "multiplierBase",
              "type": "uint256"
            },
            {
              "internalType": "uint256",
              "name": "bufferBase",
              "type": "uint256"
            },
            {
              "internalType": "UFixed18",
              "name": "multiplierCalldata",
              "type": "uint256"
            },
            {
              "internalType": "uint256",
              "name": "bufferCalldata",
              "type": "uint256"
            }
          ],
          "internalType": "struct IKept.KeepConfig",
          "name": "keepConfigBuffered_",
          "type": "tuple"
        }
      ],
      "name": "initialize",
      "outputs": [],
      "stateMutability": "nonpayable",
      "type": "function"
    },
    {
      "inputs": [],
      "name": "keepConfig",
      "outputs": [
        {
          "internalType": "UFixed18",
          "name": "multiplierBase",
          "type": "uint256"
        },
        {
          "internalType": "uint256",
          "name": "bufferBase",
          "type": "uint256"
        },
        {
          "internalType": "UFixed18",
          "name": "multiplierCalldata",
          "type": "uint256"
        },
        {
          "internalType": "uint256",
          "name": "bufferCalldata",
          "type": "uint256"
        }
      ],
      "stateMutability": "view",
      "type": "function"
    },
    {
      "inputs": [],
      "name": "keepConfigBuffered",
      "outputs": [
        {
          "internalType": "UFixed18",
          "name": "multiplierBase",
          "type": "uint256"
        },
        {
          "internalType": "uint256",
          "name": "bufferBase",
          "type": "uint256"
        },
        {
          "internalType": "UFixed18",
          "name": "multiplierCalldata",
          "type": "uint256"
        },
        {
          "internalType": "uint256",
          "name": "bufferCalldata",
          "type": "uint256"
        }
      ],
      "stateMutability": "view",
      "type": "function"
    },
    {
      "inputs": [],
      "name": "keeperToken",
      "outputs": [
        {
          "internalType": "Token18",
          "name": "",
          "type": "address"
        }
      ],
      "stateMutability": "view",
      "type": "function"
    },
    {
      "inputs": [],
      "name": "marketFactory",
      "outputs": [
        {
          "internalType": "contract IMarketFactory",
          "name": "",
          "type": "address"
        }
      ],
      "stateMutability": "view",
      "type": "function"
    },
    {
      "inputs": [
        {
          "internalType": "contract IMarket",
          "name": "market",
          "type": "address"
        },
        {
          "internalType": "address",
          "name": "account",
          "type": "address"
        },
        {
          "internalType": "uint256",
          "name": "orderId",
          "type": "uint256"
        }
      ],
      "name": "orders",
      "outputs": [
        {
          "components": [
            {
              "internalType": "uint8",
              "name": "side",
              "type": "uint8"
            },
            {
              "internalType": "int8",
              "name": "comparison",
              "type": "int8"
            },
            {
              "internalType": "Fixed6",
              "name": "price",
              "type": "int256"
            },
            {
              "internalType": "Fixed6",
              "name": "delta",
              "type": "int256"
            },
            {
              "internalType": "UFixed6",
              "name": "maxFee",
              "type": "uint256"
            },
            {
              "internalType": "bool",
              "name": "isSpent",
              "type": "bool"
            },
            {
              "internalType": "address",
              "name": "referrer",
              "type": "address"
            },
            {
              "components": [
                {
                  "internalType": "UFixed6",
                  "name": "amount",
                  "type": "uint256"
                },
                {
                  "internalType": "address",
                  "name": "receiver",
                  "type": "address"
                },
                {
                  "internalType": "bool",
                  "name": "fixedFee",
                  "type": "bool"
                },
                {
                  "internalType": "bool",
                  "name": "unwrap",
                  "type": "bool"
                }
              ],
              "internalType": "struct InterfaceFee",
              "name": "interfaceFee",
              "type": "tuple"
            }
          ],
          "internalType": "struct TriggerOrder",
          "name": "",
          "type": "tuple"
        }
      ],
      "stateMutability": "view",
      "type": "function"
    },
    {
      "inputs": [
        {
          "internalType": "contract IMarket",
          "name": "market",
          "type": "address"
        },
        {
          "internalType": "uint256",
          "name": "orderId",
          "type": "uint256"
        },
        {
          "components": [
            {
              "internalType": "uint8",
              "name": "side",
              "type": "uint8"
            },
            {
              "internalType": "int8",
              "name": "comparison",
              "type": "int8"
            },
            {
              "internalType": "Fixed6",
              "name": "price",
              "type": "int256"
            },
            {
              "internalType": "Fixed6",
              "name": "delta",
              "type": "int256"
            },
            {
              "internalType": "UFixed6",
              "name": "maxFee",
              "type": "uint256"
            },
            {
              "internalType": "bool",
              "name": "isSpent",
              "type": "bool"
            },
            {
              "internalType": "address",
              "name": "referrer",
              "type": "address"
            },
            {
              "components": [
                {
                  "internalType": "UFixed6",
                  "name": "amount",
                  "type": "uint256"
                },
                {
                  "internalType": "address",
                  "name": "receiver",
                  "type": "address"
                },
                {
                  "internalType": "bool",
                  "name": "fixedFee",
                  "type": "bool"
                },
                {
                  "internalType": "bool",
                  "name": "unwrap",
                  "type": "bool"
                }
              ],
              "internalType": "struct InterfaceFee",
              "name": "interfaceFee",
              "type": "tuple"
            }
          ],
          "internalType": "struct TriggerOrder",
          "name": "order",
          "type": "tuple"
        }
      ],
      "name": "placeOrder",
      "outputs": [],
      "stateMutability": "nonpayable",
      "type": "function"
    },
    {
      "inputs": [
        {
          "components": [
            {
              "components": [
                {
                  "internalType": "uint8",
                  "name": "side",
                  "type": "uint8"
                },
                {
                  "internalType": "int8",
                  "name": "comparison",
                  "type": "int8"
                },
                {
                  "internalType": "Fixed6",
                  "name": "price",
                  "type": "int256"
                },
                {
                  "internalType": "Fixed6",
                  "name": "delta",
                  "type": "int256"
                },
                {
                  "internalType": "UFixed6",
                  "name": "maxFee",
                  "type": "uint256"
                },
                {
                  "internalType": "bool",
                  "name": "isSpent",
                  "type": "bool"
                },
                {
                  "internalType": "address",
                  "name": "referrer",
                  "type": "address"
                },
                {
                  "components": [
                    {
                      "internalType": "UFixed6",
                      "name": "amount",
                      "type": "uint256"
                    },
                    {
                      "internalType": "address",
                      "name": "receiver",
                      "type": "address"
                    },
                    {
                      "internalType": "bool",
                      "name": "fixedFee",
                      "type": "bool"
                    },
                    {
                      "internalType": "bool",
                      "name": "unwrap",
                      "type": "bool"
                    }
                  ],
                  "internalType": "struct InterfaceFee",
                  "name": "interfaceFee",
                  "type": "tuple"
                }
              ],
              "internalType": "struct TriggerOrder",
              "name": "order",
              "type": "tuple"
            },
            {
              "components": [
                {
                  "internalType": "contract IMarket",
                  "name": "market",
                  "type": "address"
                },
                {
                  "internalType": "uint256",
                  "name": "orderId",
                  "type": "uint256"
                },
                {
                  "internalType": "UFixed6",
                  "name": "maxFee",
                  "type": "uint256"
                },
                {
                  "components": [
                    {
                      "internalType": "address",
                      "name": "account",
                      "type": "address"
                    },
                    {
                      "internalType": "address",
                      "name": "signer",
                      "type": "address"
                    },
                    {
                      "internalType": "address",
                      "name": "domain",
                      "type": "address"
                    },
                    {
                      "internalType": "uint256",
                      "name": "nonce",
                      "type": "uint256"
                    },
                    {
                      "internalType": "uint256",
                      "name": "group",
                      "type": "uint256"
                    },
                    {
                      "internalType": "uint256",
                      "name": "expiry",
                      "type": "uint256"
                    }
                  ],
                  "internalType": "struct Common",
                  "name": "common",
                  "type": "tuple"
                }
              ],
              "internalType": "struct Action",
              "name": "action",
              "type": "tuple"
            }
          ],
          "internalType": "struct PlaceOrderAction",
          "name": "request",
          "type": "tuple"
        },
        {
          "internalType": "bytes",
          "name": "signature",
          "type": "bytes"
        }
      ],
      "name": "placeOrderWithSignature",
      "outputs": [],
      "stateMutability": "nonpayable",
      "type": "function"
    },
    {
      "inputs": [],
      "name": "reserve",
      "outputs": [
        {
          "internalType": "contract IEmptySetReserve",
          "name": "",
          "type": "address"
        }
      ],
      "stateMutability": "view",
      "type": "function"
    },
    {
      "inputs": [],
      "name": "verifier",
      "outputs": [
        {
          "internalType": "contract IOrderVerifier",
          "name": "",
          "type": "address"
        }
      ],
      "stateMutability": "view",
      "type": "function"
    }
  ],
  "transactionHash": "0x2a721a731f81598fc09acf3ebdf09c46881af44918e73d9a3aa769d29910c87b",
  "args": [
    "0xaf88d065e77c8cC2239327C5EDb3A432268e5831",
    "0x52C64b8998eB7C80b6F526E99E29ABdcC86B841b",
    "0x0d49c416103Cbd276d9c3cd96710dB264e3A0c27",
    "0xDaD8A103473dfd47F90168A0E46766ed48e26EC7",
    "0x7C65ab8fc1f2d31c7144e148dd900Ea4EdC7EDd3"
  ],
  "numDeployments": 1,
  "solcInputHash": "345aa42b382a18d880d44eca35498289",
  "bytecode": "0x610120346200012257601f62003a7338819003918201601f19168301916001600160401b03831184841017620001265780849260a09460405283398101031262000122576200004e816200013a565b906200005d602082016200013a565b60408201516001600160a01b03939091908483168303620001225760608401519385851685036200012257608001519485168503620001225760805260a05260c05260e0526101009081526040516139239182620001508339608051828181610cb80152610ee6015260a051828181610c0701528181610d9501528181611403015261151d015260c0518281816106ae01528181610ce501526114b4015260e051828181610e1f015261199501525181818161084301528181611756015261188a0152f35b5f80fd5b634e487b7160e01b5f52604160045260245ffd5b51906001600160a01b0382168203620001225756fe6080806040526004361015610012575f80fd5b5f905f3560e01c90816306ae70951461194d5750806323a985fc1461177a5780632b7ac3f31461170b57806332878cc91461169a578063402914f5146116375780636573bb43146112695780636a206137146112235780636a5a6be414610f9a57806378fab5c714610f60578063872053a614610f0a57806389a3027114610e9b57806392fd2daf14610c2b578063a2060bcf14610bbc578063aba30dfa14610b82578063b20caf4514610b11578063b662d3ab1461072a578063b7e8ef40146106d2578063cd3293de14610663578063dd02df16146105fa578063f0773700146105c85763fe0e55de14610105575f80fd5b346104b25761011336611ae2565b5a9061012081848661200e565b9190911561059e57610133828587612b0b565b9073ffffffffffffffffffffffffffffffffffffffff9182871694853b1561059a57604051917f6a256b2900000000000000000000000000000000000000000000000000000000835289858916938460048201528181602481838d5af180156104b557610582575b50506040517f6e1936800000000000000000000000000000000000000000000000000000000081528360048201528a6101809182816024818d5afa80156104b5576024918391610555575b5060808b604051938480927f55f575100000000000000000000000000000000000000000000000000000000082528b60048301525afa91821561054a578392610515575b5061023590826133de565b600460ff8a5116146104fa575b600560ff8a5116146104df575b600660ff8a5116146104c4575b60209788820151606060408401519301519160c08c0151168c3b156104c05788858e60e493829660405198899788967f977b1f5f00000000000000000000000000000000000000000000000000000000885260048801526024870152604486015260648501528260848501528260a485015260c48401525af180156104b557610496575b5061036c6103d1948a878b61041e9f9782847f5111ddcdf8e6b98f5a0d74f1ea4b8f9268d6d0e9c5a54e144459ed0541bc67908f9a8f6103488760406103a59f9e60809f600160a0850152888252600881528282208a5f528152825f20908683525220612c90565b604051906103568289611b42565b610160820152a3610421575b5050505a90611d56565b9701516040805173ffffffffffffffffffffffffffffffffffffffff94851689820190815294909b166020850152830152889160600190565b037fffffffffffffffffffffffffffffffffffffffffffffffffffffffffffffffe08101885287611aa1565b604051948386015260408501526060840152606083526103f083611a4b565b604051906103fd82611a4b565b600454825260055490820152600654604082015260075460608201526121a4565b80f35b8560e07f53287d6489871e2ad186467efe70bdd15afbbd29f769f1e1c639b4d5a5d654ed92015161048d6040518092606080918051845273ffffffffffffffffffffffffffffffffffffffff602082015116602085015260408101511515604085015201511515910152565ba38a878b610362565b6104a482919c94939c611a0a565b6104b2575f9a91929a6102e0565b80fd5b6040513d84823e3d90fd5b8480fd5b606081016104d8815160608c015190613509565b905261025c565b604081016104f3815160608c015190613509565b905261024f565b6020810161050e815160608c015190613509565b9052610242565b61023591925061053c9060803d608011610543575b6105348183611aa1565b810190612c54565b919061022a565b503d61052a565b6040513d85823e3d90fd5b6105759150843d861161057b575b61056d8183611aa1565b810190612bb1565b5f6101e6565b503d610563565b61058b90611a0a565b61059657895f61019b565b8980fd5b8880fd5b60046040517f8013a216000000000000000000000000000000000000000000000000000000008152fd5b50346104b2576101806105e36105dd36611ae2565b9161200e565b6105f06040518093611b42565b1515610160820152f35b50346104b25761065460406101609261061236611ae2565b9161061b611f3a565b5073ffffffffffffffffffffffffffffffffffffffff8091168452600860205284842091165f52602052825f20908252602052206128bf565b6106616040518092611b42565bf35b50346104b257807ffffffffffffffffffffffffffffffffffffffffffffffffffffffffffffffffc3601126104b257602060405173ffffffffffffffffffffffffffffffffffffffff7f0000000000000000000000000000000000000000000000000000000000000000168152f35b50346104b257807ffffffffffffffffffffffffffffffffffffffffffffffffffffffffffffffffc3601126104b257600454600554600654600754604080519485526020850193909352918301526060820152608090f35b50346104b2577ffffffffffffffffffffffffffffffffffffffffffffffffffffffffffffffffc36016102a08112610b0d576102808112610b0d576102843567ffffffffffffffff8111610b09576107869036906004016119b9565b9190604051906020938261079d8284888401611e82565b03936107cf7fffffffffffffffffffffffffffffffffffffffffffffffffffffffffffffffe095868101865285611aa1565b6108276107da611ceb565b956107e3611d32565b6040805173ffffffffffffffffffffffffffffffffffffffff998a168b82019081529290991660208301526101a43590820152879060600103908101875286611aa1565b865a9273ffffffffffffffffffffffffffffffffffffffff94857f00000000000000000000000000000000000000000000000000000000000000001691823b15610b05576108a7928492836040518096819582947f1f55630a00000000000000000000000000000000000000000000000000000000845260048401611e82565b03925af180156104b557610aed575b50506108c0611ceb565b956108c9611d32565b918461018435981691825f52600881528560405f20941693845f52815260405f20895f5281526108fb60405f206128bf565b60a0810151610ac35761090d81612a33565b159081610aa7575b50610a7d57825f526008815260405f20845f52815260405f20895f52815260405f2091610160809112610a79576040519661094f88611a67565b60043560ff81168103610a79578852602435805f0b8103610a79578389015260443560408901526064356060890152608435608089015260a4358015158103610a795760a089015260c4358181168103610a795760c089015260807fffffffffffffffffffffffffffffffffffffffffffffffffffffffffffffff1c360112610a7957604051926109df84611a4b565b60e4358452610104359182168203610a7957830152610124358015158103610a7957604083015261014435998a15158b03610a7957610a54610a6c987f5754f935e3165da0bd9fec6569d718ced687f59a5d19938799d1be43f3db6796958561041e9e606061018098015260e0830152612c90565b60405191610a6183611dc8565b820152a35a90611d56565b610a74611d90565b6121a4565b5f80fd5b60046040517f170dda16000000000000000000000000000000000000000000000000000000008152fd5b600291506080610abc9101516084359061356d565b145f610915565b60046040517fd0cfc108000000000000000000000000000000000000000000000000000000008152fd5b610af690611a0a565b610b0157865f6108b6565b8680fd5b8380fd5b8280fd5b5080fd5b50346104b257807ffffffffffffffffffffffffffffffffffffffffffffffffffffffffffffffffc3601126104b257602073ffffffffffffffffffffffffffffffffffffffff7f2b50211693ec91bcfe327771928b74a8f475c508d53e86fca4153bcf0f0e87765416604051908152f35b50346104b257807ffffffffffffffffffffffffffffffffffffffffffffffffffffffffffffffffc3601126104b2576020604051608c8152f35b50346104b257807ffffffffffffffffffffffffffffffffffffffffffffffffffffffffffffffffc3601126104b257602060405173ffffffffffffffffffffffffffffffffffffffff7f0000000000000000000000000000000000000000000000000000000000000000168152f35b50346104b25760407ffffffffffffffffffffffffffffffffffffffffffffffffffffffffffffffffc3601126104b257610c636119e7565b6024358015158103610a795773ffffffffffffffffffffffffffffffffffffffff8092163381141580610de3575b610db95783526009602052604083209083825492555f14610d8457610cb5906126e1565b827f000000000000000000000000000000000000000000000000000000000000000091610ce23084613163565b937f00000000000000000000000000000000000000000000000000000000000000001690813b15610b095782916024839260405194859384927fdb006a7500000000000000000000000000000000000000000000000000000000845260048401525af180156104b557610d70575b5050610d6861041e92610d633084613163565b611d56565b9033906126fb565b610d7990611a0a565b610b0957825f610d50565b61041e9150610d92906126e1565b337f00000000000000000000000000000000000000000000000000000000000000006126fb565b60046040517f63c7e7fd000000000000000000000000000000000000000000000000000000008152fd5b506040517f2637588e000000000000000000000000000000000000000000000000000000008152816004820152336024820152602081604481877f0000000000000000000000000000000000000000000000000000000000000000165afa908115610e90578591610e56575b5015610c91565b90506020813d602011610e88575b81610e7160209383611aa1565b810103126104c057610e8290611dbb565b5f610e4f565b3d9150610e64565b6040513d87823e3d90fd5b50346104b257807ffffffffffffffffffffffffffffffffffffffffffffffffffffffffffffffffc3601126104b257602060405173ffffffffffffffffffffffffffffffffffffffff7f0000000000000000000000000000000000000000000000000000000000000000168152f35b50346104b257807ffffffffffffffffffffffffffffffffffffffffffffffffffffffffffffffffc3601126104b25754600154600254600354604080519485526020850193909352918301526060820152608090f35b50346104b257807ffffffffffffffffffffffffffffffffffffffffffffffffffffffffffffffffc3601126104b257602060405160108152f35b50346104b2576101a07ffffffffffffffffffffffffffffffffffffffffffffffffffffffffffffffffc3601126104b257610fd36119e7565b610160807fffffffffffffffffffffffffffffffffffffffffffffffffffffffffffffffbc360112610b095773ffffffffffffffffffffffffffffffffffffffff8083165f52600860205260405f20335f5260205260405f206024355f5260205261104060405f206128bf565b60a0810151610ac35761105281612a33565b159081611207575b50610a7d578083165f52600860205260405f20335f5260205260405f206024355f5260205260405f206040519161109083611a67565b6044359360ff85168503610a795784845260643593845f0b8503610a7957846020820152608435604082015260a435606082015260c435608082015260e435908115158203610a79578160a082015261010435908482168203610a79578160c082015260807ffffffffffffffffffffffffffffffffffffffffffffffffffffffffffffffedc360112610a79576040519561112a87611a4b565b61012435875261014435908682168203610a795781602089015261016435938415158503610a79578460408a015261018435958615158703610a79577f5754f935e3165da0bd9fec6569d718ced687f59a5d19938799d1be43f3db67969a6111a38a9687958d8b6101809f6060015260e0830152612c90565b60ff6040519d168d525f0b60208d015260843560408d015260a43560608d015260c43560808d0152151560a08c01521660c08a01526101243560e08a015216610100880152151561012087015215156101408601526024359085015233941692a380f35b60029150608061121c91015160c4359061356d565b145f61105a565b50346104b25760407ffffffffffffffffffffffffffffffffffffffffffffffffffffffffffffffffc3601126104b25761041e61125e6119e7565b6024359033906125cb565b50346104b2576101207ffffffffffffffffffffffffffffffffffffffffffffffffffffffffffffffffc3601126104b25760043573ffffffffffffffffffffffffffffffffffffffff81168103610b0d5760807fffffffffffffffffffffffffffffffffffffffffffffffffffffffffffffffdc360112610a7957604051906112f182611a4b565b602435825260443560208301526064356040830152608435606083015260807fffffffffffffffffffffffffffffffffffffffffffffffffffffffffffffff5c360112610a79576040519061134582611a4b565b60a435825260c435602083015260e43560408301526101043560608301527f6fee9688c285c5c5c97d6a1a29adced674e6b2ad0888b8ad2116b58a8b3ea248600181541015611606576001905560017f2801b00eb06461cf9fcb9758b5fafd884ff06a86177386f73b6c49f0bf5a5af055303b1515806115ff575b6115d55760609273ffffffffffffffffffffffffffffffffffffffff8492167f2b50211693ec91bcfe327771928b74a8f475c508d53e86fca4153bcf0f0e8776557f00000000000000000000000000000000000000000000000000000000000000007f5b5cbfa852c5bd03e540eba853f8faf28a604a4d82bee1091096bfaea14d08c3558051855560208101516001556040810151600255015160035580516004556020810151600555604081015160065501516007556040517f095ea7b300000000000000000000000000000000000000000000000000000000815273ffffffffffffffffffffffffffffffffffffffff7f00000000000000000000000000000000000000000000000000000000000000001660048201527fffffffffffffffffffffffffffffffffffffffffffffffffffffffffffffffff60248201526020816044818573ffffffffffffffffffffffffffffffffffffffff7f0000000000000000000000000000000000000000000000000000000000000000165af180156104b55761159c575b50807f2801b00eb06461cf9fcb9758b5fafd884ff06a86177386f73b6c49f0bf5a5af0557fbe9b076dc5b65990cca9dd9d7366682482e7817a6f6bc7f4faf4dc32af497f32602060405160018152a180f35b6020813d6020116115cd575b816115b560209383611aa1565b81010312610b0d576115c690611dbb565b505f61154a565b3d91506115a8565b60046040517fb9a621e1000000000000000000000000000000000000000000000000000000008152fd5b50836113c0565b60246040517f3db738da00000000000000000000000000000000000000000000000000000000815260016004820152fd5b50346104b25760207ffffffffffffffffffffffffffffffffffffffffffffffffffffffffffffffffc3601126104b257604060209173ffffffffffffffffffffffffffffffffffffffff6116896119e7565b168152600983522054604051908152f35b50346104b257807ffffffffffffffffffffffffffffffffffffffffffffffffffffffffffffffffc3601126104b25760207f5b5cbfa852c5bd03e540eba853f8faf28a604a4d82bee1091096bfaea14d08c35473ffffffffffffffffffffffffffffffffffffffff60405191168152f35b50346104b257807ffffffffffffffffffffffffffffffffffffffffffffffffffffffffffffffffc3601126104b257602060405173ffffffffffffffffffffffffffffffffffffffff7f0000000000000000000000000000000000000000000000000000000000000000168152f35b5034610a79577ffffffffffffffffffffffffffffffffffffffffffffffffffffffffffffffffc36016101408112610a795761012013610a79576101243567ffffffffffffffff8111610a79576117d59036906004016119b9565b604092919251806117ea838660208401611c29565b039161181c7fffffffffffffffffffffffffffffffffffffffffffffffffffffffffffffffe093848101845283611aa1565b611871611827611cc8565b93611830611d0f565b6040805173ffffffffffffffffffffffffffffffffffffffff9788166020820152919096169581019590955260443560608601526080908101855284611aa1565b5a9473ffffffffffffffffffffffffffffffffffffffff7f00000000000000000000000000000000000000000000000000000000000000001691823b15610a79576118ee925f92836040518096819582947f4ddd9dfc00000000000000000000000000000000000000000000000000000000845260048401611c29565b03925af1801561194257611929575b50610a6c61041e9394611922611911611cc8565b611919611d0f565b602435916125cb565b5a90611d56565b61041e935061193790611a0a565b610a6c5f93506118fd565b6040513d5f823e3d90fd5b34610a79575f7ffffffffffffffffffffffffffffffffffffffffffffffffffffffffffffffffc360112610a795760209073ffffffffffffffffffffffffffffffffffffffff7f0000000000000000000000000000000000000000000000000000000000000000168152f35b9181601f84011215610a795782359167ffffffffffffffff8311610a795760208381860195010111610a7957565b6004359073ffffffffffffffffffffffffffffffffffffffff82168203610a7957565b67ffffffffffffffff8111611a1e57604052565b7f4e487b71000000000000000000000000000000000000000000000000000000005f52604160045260245ffd5b6080810190811067ffffffffffffffff821117611a1e57604052565b610100810190811067ffffffffffffffff821117611a1e57604052565b6101a0810190811067ffffffffffffffff821117611a1e57604052565b90601f7fffffffffffffffffffffffffffffffffffffffffffffffffffffffffffffffe0910116810190811067ffffffffffffffff821117611a1e57604052565b7ffffffffffffffffffffffffffffffffffffffffffffffffffffffffffffffffc6060910112610a795773ffffffffffffffffffffffffffffffffffffffff906004358281168103610a7957916024359081168103610a79579060443590565b9060e080611be99360ff815116845260208101515f0b602085015260408101516040850152606081015160608501526080810151608085015260a0810151151560a085015273ffffffffffffffffffffffffffffffffffffffff60c08201511660c08501520151910190606080918051845273ffffffffffffffffffffffffffffffffffffffff602082015116602085015260408101511515604085015201511515910152565b565b601f82602094937fffffffffffffffffffffffffffffffffffffffffffffffffffffffffffffffe093818652868601375f8582860101520116010190565b916101406004359373ffffffffffffffffffffffffffffffffffffffff94858116809103610a7957815260243560208201526044356040820152606435858116809103610a79576060820152608435858116809103610a7957608082015260a435948516809503610a7957611cc59460a082015260c43560c082015260e43560e082015261010435610100820152816101208201520191611beb565b90565b60043573ffffffffffffffffffffffffffffffffffffffff81168103610a795790565b6101643573ffffffffffffffffffffffffffffffffffffffff81168103610a795790565b60643573ffffffffffffffffffffffffffffffffffffffff81168103610a795790565b6101c43573ffffffffffffffffffffffffffffffffffffffff81168103610a795790565b91908203918211611d6357565b7f4e487b71000000000000000000000000000000000000000000000000000000005f52601160045260245ffd5b60405190611d9d82611a4b565b5f548252600154602083015260025460408301526003546060830152565b51908115158203610a7957565b60043560ff8116809103610a79578152602435805f0b809103610a7957602082015260443560408201526064356060820152608435608082015260a435801515809103610a795760a082015260c43573ffffffffffffffffffffffffffffffffffffffff90818116809103610a795760c083015260e43560e083015261010435908116809103610a795761010082015261012435801515809103610a79576101208201526101443590811515809203610a79576101400152565b916102a0611e8f84611dc8565b610164359373ffffffffffffffffffffffffffffffffffffffff94858116809103610a7957610160820152610184356101808201526101a4356101a08201526101c435858116809103610a79576101c08201526101e435858116809103610a79576101e082015261020435948516809503610a7957611cc594610200820152610224356102208201526102443561024082015261026435610260820152816102808201520191611beb565b60405190611f4782611a67565b815f81525f60208201525f60408201525f60608201525f60808201525f60a08201525f60c082015260e060405191611f7e83611a4b565b5f83525f60208401525f60408401525f60608401520152565b90816020910312610a79575173ffffffffffffffffffffffffffffffffffffffff81168103610a795790565b90816060910312610a7957604051906060820182811067ffffffffffffffff821117611a1e57612006916040918252805184526020810151602085015201611dbb565b604082015290565b929192612019611f3a565b5073ffffffffffffffffffffffffffffffffffffffff80911693845f526020906008825260409383855f2091165f528252835f20905f52815261205d835f206128bf565b9460a086015115801590612195575b61216c57816004918551928380927f7dc0d1d00000000000000000000000000000000000000000000000000000000082525afa9182156121625790606092915f92612135575b505060048451809481937f52bfe789000000000000000000000000000000000000000000000000000000008352165afa91821561212c575090611cc5915f916120fd575b5083612a75565b61211f915060603d606011612125575b6121178183611aa1565b810190611fc3565b5f6120f6565b503d61210d565b513d5f823e3d90fd5b6121549250803d1061215b575b61214c8183611aa1565b810190611f97565b5f806120b2565b503d612142565b84513d5f823e3d90fd5b600484517fd0cfc108000000000000000000000000000000000000000000000000000000008152fd5b5061219f86612a33565b61206c565b90928151926121d46020946121e5868601516121cf670de0b6b3a7640000809581956121cf8d6126b1565b6126ce565b046121df48936126b1565b9061313f565b04926040926060848701519601519051608c8101809111611d63576004967f0fffffffffffffffffffffffffffffffffffffffffffffffffffffffffffffff8216820361259f578551917ff5d6ded700000000000000000000000000000000000000000000000000000000835289838a81606c5afa92831561255e579089879493925f94612568575b508461228a6121cf946121cf6122919899956121df951b6126b1565b04916126b1565b049461229d868661313f565b9273ffffffffffffffffffffffffffffffffffffffff938260a0867f2b50211693ec91bcfe327771928b74a8f475c508d53e86fca4153bcf0f0e877654168851928380927ffeaf968c0000000000000000000000000000000000000000000000000000000082525afa90811561255e575f91612512575b50828102908082058414901517156124e6576305f5e1009005905f82126124b7579061233f916126ce565b0490606083805181010312610a795787830151928484168403610a795785810151948516809503610a795760600151918061240f5750509161239561239a925f9485905b80821087146124055750928391613327565b6126e1565b946123c8867f5b5cbfa852c5bd03e540eba853f8faf28a604a4d82bee1091096bfaea14d08c35433906126fb565b8251968752860152840152606083015260808201527ffa0333956d06e335c550bd5fc4ac9c003c6545e371331b1071fa4d5d8519d6c160a03392a2565b9050928391613327565b7fffffffffffffffffffffffffffffffffffffffffffffffffffffffffffffffff810190811161248b5764e8d4a510009004906001820180921161245f575061239a925f94926123959290612383565b6011907f4e487b71000000000000000000000000000000000000000000000000000000005f525260245ffd5b6011827f4e487b71000000000000000000000000000000000000000000000000000000005f525260245ffd5b602484838951917f501f289e000000000000000000000000000000000000000000000000000000008352820152fd5b6011847f4e487b71000000000000000000000000000000000000000000000000000000005f525260245ffd5b905060a0813d60a011612556575b8161252d60a09383611aa1565b81010312610a795761253e8161314c565b5061254f60808b830151920161314c565b505f612314565b3d9150612520565b87513d5f823e3d90fd5b9350509092508982813d8311612598575b6125838183611aa1565b81010312610a7957905185929091898461226e565b503d612579565b6011887f4e487b71000000000000000000000000000000000000000000000000000000005f525260245ffd5b91909173ffffffffffffffffffffffffffffffffffffffff80911691825f5260209160088352604090815f20951694855f528352805f20825f528352612612815f206128bf565b61261b81612a33565b80156126a4575b61267b579061267482600160a07fa7e8b7ad64b09d9d45f4ad65f9fd654f99b90f9ce66bb414f72a9f69ba03db329796950152865f5260088552825f20885f528552825f20845f528552825f20612c90565b51908152a3565b600482517f955cc4b9000000000000000000000000000000000000000000000000000000008152fd5b5060a08101511515612622565b90670de0b6b3a764000091828102928184041490151715611d6357565b81810292918115918404141715611d6357565b64e8d4a5100090818102918183041490151715611d635790565b9173ffffffffffffffffffffffffffffffffffffffff80931690604092835191602095868401927fa9059cbb00000000000000000000000000000000000000000000000000000000845216602484015260448301526044825261275d82611a4b565b83519184830167ffffffffffffffff9284821084831117611a1e575f92839288528886527f5361666545524332303a206c6f772d6c6576656c2063616c6c206661696c656489870152519082875af13d156128b2573d918211611a1e576127ff938551926127f2887fffffffffffffffffffffffffffffffffffffffffffffffffffffffffffffffe0601f8401160185611aa1565b83523d5f8885013e6137cd565b80518061280d575b50505050565b81849181010312610a7957826128239101611dbb565b1561282f578080612807565b6084925051907f08c379a00000000000000000000000000000000000000000000000000000000082526004820152602a60248201527f5361666545524332303a204552433230206f7065726174696f6e20646964206e60448201527f6f742073756363656564000000000000000000000000000000000000000000006064820152fd5b6127ff93606092506137cd565b6128c7611f3a565b50604090600260a060808451936128dd85611a84565b80549060ff8216968787528260081c5f0b8060208901526101808460101c60070b9384848b01528560501c60070b958660608c01527fffffffffff00000000000000000000000000000000000000000000000000000067ffffffffffffffff918c838260901c169a8b9101528c60ff8260d01c1615159b8c9101521660c08c01526001820154998a928c6101007fffffffffffffffffffffffff000000000000000000000000000000000000000073ffffffffffffffffffffffffffffffffffffffff8097169e8f60e085015216910152015491821690816101208d01528260a01c169a8b61014082015260ff808460e01c161515938461016084015260e81c161515938491015284519a6129f18c611a4b565b8b5260208b0152838a01526060890152815198612a0d8a611a67565b895260208901528701526060860152608085015260a084015260c083015260e082015290565b60ff815116159081612a66575b81612a59575b81612a4f575090565b6060915001511590565b6040810151159150612a46565b60208101515f0b159150612a40565b604082015115612b055760208101515f0b60018114612ae2577fffffffffffffffffffffffffffffffffffffffffffffffffffffffffffffffff14612aba5750505f90565b60406020612acd930151910151906137bc565b8015908115612ada575090565b600191501490565b5060406020612af6930151910151906137bc565b60028114908115612ada575090565b50505f90565b9160e0810192835191825115612ba8578184916040612b3c95015115155f14612b8457505050835151928391613327565b6020612b6e73ffffffffffffffffffffffffffffffffffffffff92838386510151165f526009835260405f205461313f565b92510151165f52600960205260405f2055600190565b620f424092612b9f92612b96926131f4565b865151906126ce565b04928391613327565b50505050505f90565b80916101809283910312610a795760405191820182811067ffffffffffffffff821117611a1e57604052805182526020810151602083015260408101516040830152606081015160608301526080810151608083015260a081015160a083015260c081015160c083015260e081015160e0830152610100808201519083015261012080820151908301526101408082015190830152610160809101519082015290565b90816080910312610a7957606060405191612c6e83611a4b565b8051835260208101516020840152604081015160408401520151606082015290565b91909160ff835116600381119081613134575b50806130f0575b156130c657604090818401936002612cc2865161376e565b1461309d57612cd18551613789565b1561309d5760608101916002612ce7845161376e565b1461307457612cf68351613789565b156130745760808201956002612d0c8851613547565b1461304b5760e08301906002612d23835151613547565b1461302257859697845160ff16916020860151905196519151968367ffffffffffffffff9860a089015115159373ffffffffffffffffffffffffffffffffffffffff60c0819b01511697519a8b9a60208c0151169d8e918c519e8f9d015115159d6060015115159c8d93835193612d9985611a84565b888552865f0b60208601528960070b908501528a60070b606085015282871660808501528960a085015260c084015f90528c60e085015261010084015f9052610120840152166101408201528c6101608201526101800152885490837fffffffffffffffffffffffffffffffffffffffffffffffffffffffffffffff008316178a5560081b9161ff00928084169586867fffffffffffffffffffffffffffffffffffffffffffffffffffffffffffff0000861617178c5560101b9369ffffffffffffffff000098858a168098887fffffffffffffffffffffffffffffffffffffffffffff0000000000000000000088161717178d5560501b91169371ffffffffffffffff00000000000000000000928284168098887fffffffffffffffffffffffffffff000000000000000000000000000000000000881617881717178d5560901b79ffffffffffffffff000000000000000000000000000000000000169889911696867fffffffffffff00000000000000000000000000000000000000000000000000008616178617881717178b55169460d01b7aff000000000000000000000000000000000000000000000000000016967fffffffffff0000000000000000000000000000000000000000000000000000008892161782178417851786171788551717171717825560018201556002019384549160e81b7dff0000000000000000000000000000000000000000000000000000000000169360a01b7bffffffffffffffff000000000000000000000000000000000000000016917fffff0000000000000000000000000000000000000000000000000000000000001617179060e01b7cff000000000000000000000000000000000000000000000000000000001617179055565b600486517ff3469aa7000000000000000000000000000000000000000000000000000000008152fd5b600485517ff3469aa7000000000000000000000000000000000000000000000000000000008152fd5b600484517ff3469aa7000000000000000000000000000000000000000000000000000000008152fd5b600483517ff3469aa7000000000000000000000000000000000000000000000000000000008152fd5b60046040517f5b8c7e99000000000000000000000000000000000000000000000000000000008152fd5b5060208301515f0b7fffffffffffffffffffffffffffffffffffffffffffffffffffffffffffffffff8114908115613129575b50612caa565b60019150145f613123565b60079150105f612ca3565b91908201809211611d6357565b519069ffffffffffffffffffff82168203610a7957565b90602090602473ffffffffffffffffffffffffffffffffffffffff918260405195869485937f70a08231000000000000000000000000000000000000000000000000000000008552166004840152165afa908115611942575f916131c5575090565b90506020813d6020116131ec575b816131e060209383611aa1565b81010312610a79575190565b3d91506131d3565b73ffffffffffffffffffffffffffffffffffffffff926040517f7dc0d1d00000000000000000000000000000000000000000000000000000000081526020816004818888165afa8015611942576060915f91613308575b506004604051809781937f52bfe789000000000000000000000000000000000000000000000000000000008352165afa93841561194257620f4240946020915f916132e9575b5001515f81126132e157915b606081015160016132ad82613789565b036132ca5750926121cf9160ff6132c69551169161357e565b0490565b6132c694509150505f8112156126ce575f036126ce565b5f039161329d565b613302915060603d606011612125576121178183611aa1565b5f613291565b613321915060203d60201161215b5761214c8183611aa1565b5f61324b565b61334873ffffffffffffffffffffffffffffffffffffffff809216936136d8565b92803b15610a79575f928360c49260405196879586947f91eece280000000000000000000000000000000000000000000000000000000086521660048501527fffffffffffffffffffffffffffffffffffffffffffffffffffffffffffffffff8060248601528060448601526064850152820360848401528160a48401525af18015611942576133d55750565b611be990611a0a565b8151815260208101906133f182516136d8565b6133fe60608501516136d8565b9061340c60808601516136d8565b915f8382039312818412811691841390151617611d63575f8282019283129112908015821691151617611d635761344290613733565b92604082019061345282516136d8565b61345f60a08301516136d8565b9061346d60c08401516136d8565b915f8382039312818412811691841390151617611d63575f8282019283129112908015821691151617611d63576134a5606091613733565b9301906134b282516136d8565b6134cd6101006134c560e08501516136d8565b9301516136d8565b915f8382039312818412811691841390151617611d63575f8282019283129112908015821691151617611d635761350390613733565b90525252565b600161351483613789565b0361351f5750505f90565b613528906136d8565b5f8282019283129112908015821691151617611d6357611cc590613733565b67ffffffffffffffff90818111613566571061356257600190565b5f90565b5050600290565b818111613566571061356257600190565b9173ffffffffffffffffffffffffffffffffffffffff8093166040938451937f55f5751000000000000000000000000000000000000000000000000000000000855216806004850152608084602481855afa9384156136ad575f946136b7575b5084519182917f6e19368000000000000000000000000000000000000000000000000000000000835260048301528160246101809485935afa9182156136ad57916136369160ff94935f92613690575b5050846133de565b1660048103613649575060209150015190565b600581036136575750015190565b60061461368757600482517f5b8c7e99000000000000000000000000000000000000000000000000000000008152fd5b60609150015190565b6136a69250803d1061057b5761056d8183611aa1565b5f8061362e565b85513d5f823e3d90fd5b6136d191945060803d608011610543576105348183611aa1565b925f6135de565b7f7fffffffffffffffffffffffffffffffffffffffffffffffffffffffffffffff81116137025790565b602490604051907feecaa25d0000000000000000000000000000000000000000000000000000000082526004820152fd5b5f811261373d5790565b602490604051907fb02ef0870000000000000000000000000000000000000000000000000000000082526004820152fd5b677fffffffffffffff90818113613566571261356257600190565b7fffffffffffffffffffffffffffffffffffffffffffffffff800000000000000090818113613566571261356257600190565b818113613566571261356257600190565b9192901561384857508151156137e1575090565b3b156137ea5790565b60646040517f08c379a000000000000000000000000000000000000000000000000000000000815260206004820152601d60248201527f416464726573733a2063616c6c20746f206e6f6e2d636f6e74726163740000006044820152fd5b82519091501561385b5750805190602001fd5b604051907f08c379a00000000000000000000000000000000000000000000000000000000082528160208060048301528251928360248401525f5b8481106138d6575050507fffffffffffffffffffffffffffffffffffffffffffffffffffffffffffffffe0601f835f604480968601015201168101030190fd5b81810183015186820160440152859350820161389656fea264697066735822122042f17645bcb4e18190d8f60130688fc646f98a1510b134dce20056fc5a6369d164736f6c63430008180033",
  "devdoc": {
    "errors": {
      "ManagerCannotCancelError()": [
        {
          "custom:error": "Order does not exist or was already cancelled or executed"
        }
      ],
      "ManagerCannotExecuteError()": [
        {
          "custom:error": "Conditions required for order execution are not currently met"
        }
      ],
      "ManagerCannotReduceMaxFee()": [
        {
          "custom:error": "Replacement order may not reduce maxFee; must cancel and resubmit with new orderId"
        }
      ],
      "ManagerInvalidOperatorError()": [
        {
          "custom:error": "Operator is not authorized to interact with markets for the specified user"
        }
      ],
      "ManagerInvalidOrderNonceError()": [
        {
          "custom:error": "Order nonce has already been used"
        }
      ],
      "ManagerInvalidSignerError()": [
        {
          "custom:error": "Signer is not authorized to interact with markets for the specified user"
        }
      ],
      "TriggerOrderInvalidError()": [
        {
          "custom:error": "side or comparison is not supported"
        }
      ],
      "TriggerOrderStorageInvalidError()": [
        {
          "custom:error": "price, delta, maxFee, or interface fee amount is out-of-bounds"
        }
      ]
    },
    "events": {
      "TriggerOrderCancelled(address,address,uint256)": {
        "params": {
          "account": "Actor whose order was cancelled",
          "market": "Perennial market for which the order was intended",
          "orderId": "Uniquely identifies the cancelled order"
        }
      },
      "TriggerOrderExecuted(address,address,(uint8,int8,int256,int256,uint256,bool,address,(uint256,address,bool,bool)),uint256)": {
        "params": {
          "account": "Actor whose position was changed",
          "market": "Perennial market which the order affected",
          "order": "Change in position and conditions which were satisfied",
          "orderId": "Uniquely identifies the executed order"
        }
      },
      "TriggerOrderInterfaceFeeCharged(address,address,(uint256,address,bool,bool))": {
        "params": {
          "account": "Actor who paid the fee",
          "fee": "Details including the fee amount and recipient of the fee",
          "market": "Perennial market from which the fee was pulled"
        }
      },
      "TriggerOrderPlaced(address,address,(uint8,int8,int256,int256,uint256,bool,address,(uint256,address,bool,bool)),uint256)": {
        "params": {
          "account": "Actor who wants to change their position in the market",
          "market": "Perennial market for which the order is intended",
          "order": "Desired change in position and conditions upon which change may be made",
          "orderId": "Client-supplied order identifier, unique to client"
        }
      }
    },
    "kind": "dev",
    "methods": {
      "cancelOrder(address,uint256)": {
        "params": {
          "market": "Perennial market for which the order was submitted",
          "orderId": "Uniquely identifies the order to cancel"
        }
      },
      "cancelOrderWithSignature(((address,uint256,uint256,(address,address,address,uint256,uint256,uint256))),bytes)": {
        "params": {
          "request": "Message containing the market, order, and nonce used to uniquely identify the order to cancel",
          "signature": "EIP712 message signature"
        }
      },
      "checkOrder(address,address,uint256)": {
        "params": {
          "account": "Actor whose position is to be changed",
          "market": "Perennial market for which the order is intended",
          "orderId": "Uniquely identifies the order for an account"
        },
        "returns": {
          "canExecute": "True if trigger conditions have been met and executeOrder may be called on the order",
          "order": "Trigger order read from storage"
        }
      },
      "claim(address,bool)": {
        "params": {
          "account": "Account to claim fees for",
          "unwrap": "Wheather to wrap/unwrap collateral on withdrawal"
        }
      },
      "constructor": {
        "details": "passthrough constructor"
      },
      "executeOrder(address,address,uint256)": {
        "params": {
          "account": "Actor whose position is to be changed",
          "market": "Perennial market for which the order is intended",
          "orderId": "Uniquely identifies the order for an account"
        }
      },
      "initialize(address,(uint256,uint256,uint256,uint256),(uint256,uint256,uint256,uint256))": {
        "params": {
          "ethOracle_": "Chainlink ETH/USD oracle used for keeper compensation",
          "keepConfigBuffered_": "Configuration used for price commitments",
          "keepConfig_": "Keeper compensation configuration"
        }
      },
      "orders(address,address,uint256)": {
        "params": {
          "account": "User for whom the order was submitted",
          "market": "Perennial market for which the order was submitted",
          "orderId": "Uniquely identifies the order for a user"
        }
      },
      "placeOrder(address,uint256,(uint8,int8,int256,int256,uint256,bool,address,(uint256,address,bool,bool)))": {
        "params": {
          "market": "Perennial market in which user wants to change their position",
          "order": "Desired change in position and conditions upon which change may be made",
          "orderId": "Client-specific order identifier"
        }
      },
      "placeOrderWithSignature(((uint8,int8,int256,int256,uint256,bool,address,(uint256,address,bool,bool)),(address,uint256,uint256,(address,address,address,uint256,uint256,uint256))),bytes)": {
        "params": {
          "request": "Message containing the market, order, and nonce used to uniquely identify the user's order.",
          "signature": "EIP712 message signature"
        }
      }
    },
    "version": 1
  },
  "userdoc": {
    "events": {
      "TriggerOrderCancelled(address,address,uint256)": {
        "notice": "Emitted when an order has been cancelled"
      },
      "TriggerOrderExecuted(address,address,(uint8,int8,int256,int256,uint256,bool,address,(uint256,address,bool,bool)),uint256)": {
        "notice": "Emitted when a trigger orders conditions have been met and the user's position has been updated"
      },
      "TriggerOrderInterfaceFeeCharged(address,address,(uint256,address,bool,bool))": {
        "notice": "Emitted when an interface fee specified on a trigger order has been paid"
      },
      "TriggerOrderPlaced(address,address,(uint8,int8,int256,int256,uint256,bool,address,(uint256,address,bool,bool)),uint256)": {
        "notice": "Emitted when a trigger order is written to storage, whether as a new order or a replacement"
      }
    },
    "kind": "user",
    "methods": {
      "cancelOrder(address,uint256)": {
        "notice": "Cancels a trigger order"
      },
      "cancelOrderWithSignature(((address,uint256,uint256,(address,address,address,uint256,uint256,uint256))),bytes)": {
        "notice": "Called by keeper to cancel a trigger order via a signed message"
      },
      "checkOrder(address,address,uint256)": {
        "notice": "Determines whether trigger conditions for an order have been met"
      },
      "claim(address,bool)": {
        "notice": "withdraw DSU or unwrap DSU to withdraw USDC from this address to `account`"
      },
      "executeOrder(address,address,uint256)": {
        "notice": "Called by keeper to execute an order whose trigger conditions have been met"
      },
      "initialize(address,(uint256,uint256,uint256,uint256),(uint256,uint256,uint256,uint256))": {
        "notice": "Initialize the contract"
      },
      "orders(address,address,uint256)": {
        "notice": "Retrieves an unexecuted trigger order"
      },
      "placeOrder(address,uint256,(uint8,int8,int256,int256,uint256,bool,address,(uint256,address,bool,bool)))": {
        "notice": "Store a new trigger order or replace an existing trigger order"
      },
      "placeOrderWithSignature(((uint8,int8,int256,int256,uint256,bool,address,(uint256,address,bool,bool)),(address,uint256,uint256,(address,address,address,uint256,uint256,uint256))),bytes)": {
        "notice": "Called by keeper to store a new or replace an existing trigger order via a signed message"
      }
    },
    "version": 1
  },
  "storageLayout": {
    "storage": [
      {
        "astId": 43997,
        "contract": "@perennial/order/contracts/Manager_Arbitrum.sol:Manager_Arbitrum",
        "label": "keepConfig",
        "offset": 0,
        "slot": "0",
        "type": "t_struct(KeepConfig)2205_storage"
      },
      {
        "astId": 44001,
        "contract": "@perennial/order/contracts/Manager_Arbitrum.sol:Manager_Arbitrum",
        "label": "keepConfigBuffered",
        "offset": 0,
        "slot": "4",
        "type": "t_struct(KeepConfig)2205_storage"
      },
      {
        "astId": 44012,
        "contract": "@perennial/order/contracts/Manager_Arbitrum.sol:Manager_Arbitrum",
        "label": "_orders",
        "offset": 0,
        "slot": "8",
        "type": "t_mapping(t_contract(IMarket)21935,t_mapping(t_address,t_mapping(t_uint256,t_struct(TriggerOrderStorage)46005_storage)))"
      },
      {
        "astId": 44018,
        "contract": "@perennial/order/contracts/Manager_Arbitrum.sol:Manager_Arbitrum",
        "label": "claimable",
        "offset": 0,
        "slot": "9",
        "type": "t_mapping(t_address,t_userDefinedValueType(UFixed6)5528)"
      }
    ],
    "types": {
      "t_address": {
        "encoding": "inplace",
        "label": "address",
        "numberOfBytes": "20"
      },
      "t_bool": {
        "encoding": "inplace",
        "label": "bool",
        "numberOfBytes": "1"
      },
      "t_bytes12": {
        "encoding": "inplace",
        "label": "bytes12",
        "numberOfBytes": "12"
      },
      "t_bytes5": {
        "encoding": "inplace",
        "label": "bytes5",
        "numberOfBytes": "5"
      },
      "t_contract(IMarket)21935": {
        "encoding": "inplace",
        "label": "contract IMarket",
        "numberOfBytes": "20"
      },
      "t_int64": {
        "encoding": "inplace",
        "label": "int64",
        "numberOfBytes": "8"
      },
      "t_int8": {
        "encoding": "inplace",
        "label": "int8",
        "numberOfBytes": "1"
      },
      "t_mapping(t_address,t_mapping(t_uint256,t_struct(TriggerOrderStorage)46005_storage))": {
        "encoding": "mapping",
        "key": "t_address",
        "label": "mapping(address => mapping(uint256 => struct TriggerOrderStorage))",
        "numberOfBytes": "32",
        "value": "t_mapping(t_uint256,t_struct(TriggerOrderStorage)46005_storage)"
      },
      "t_mapping(t_address,t_userDefinedValueType(UFixed6)5528)": {
        "encoding": "mapping",
        "key": "t_address",
        "label": "mapping(address => UFixed6)",
        "numberOfBytes": "32",
        "value": "t_userDefinedValueType(UFixed6)5528"
      },
      "t_mapping(t_contract(IMarket)21935,t_mapping(t_address,t_mapping(t_uint256,t_struct(TriggerOrderStorage)46005_storage)))": {
        "encoding": "mapping",
        "key": "t_contract(IMarket)21935",
        "label": "mapping(contract IMarket => mapping(address => mapping(uint256 => struct TriggerOrderStorage)))",
        "numberOfBytes": "32",
        "value": "t_mapping(t_address,t_mapping(t_uint256,t_struct(TriggerOrderStorage)46005_storage))"
      },
      "t_mapping(t_uint256,t_struct(TriggerOrderStorage)46005_storage)": {
        "encoding": "mapping",
        "key": "t_uint256",
        "label": "mapping(uint256 => struct TriggerOrderStorage)",
        "numberOfBytes": "32",
        "value": "t_struct(TriggerOrderStorage)46005_storage"
      },
      "t_struct(KeepConfig)2205_storage": {
        "encoding": "inplace",
        "label": "struct IKept.KeepConfig",
        "members": [
          {
            "astId": 2197,
            "contract": "@perennial/order/contracts/Manager_Arbitrum.sol:Manager_Arbitrum",
            "label": "multiplierBase",
            "offset": 0,
            "slot": "0",
            "type": "t_userDefinedValueType(UFixed18)4710"
          },
          {
            "astId": 2199,
            "contract": "@perennial/order/contracts/Manager_Arbitrum.sol:Manager_Arbitrum",
            "label": "bufferBase",
            "offset": 0,
            "slot": "1",
            "type": "t_uint256"
          },
          {
            "astId": 2202,
            "contract": "@perennial/order/contracts/Manager_Arbitrum.sol:Manager_Arbitrum",
            "label": "multiplierCalldata",
            "offset": 0,
            "slot": "2",
            "type": "t_userDefinedValueType(UFixed18)4710"
          },
          {
            "astId": 2204,
            "contract": "@perennial/order/contracts/Manager_Arbitrum.sol:Manager_Arbitrum",
            "label": "bufferCalldata",
            "offset": 0,
            "slot": "3",
            "type": "t_uint256"
          }
        ],
        "numberOfBytes": "128"
      },
      "t_struct(StoredTriggerOrder)46001_storage": {
        "encoding": "inplace",
        "label": "struct StoredTriggerOrder",
        "members": [
          {
            "astId": 45976,
            "contract": "@perennial/order/contracts/Manager_Arbitrum.sol:Manager_Arbitrum",
            "label": "side",
            "offset": 0,
            "slot": "0",
            "type": "t_uint8"
          },
          {
            "astId": 45978,
            "contract": "@perennial/order/contracts/Manager_Arbitrum.sol:Manager_Arbitrum",
            "label": "comparison",
            "offset": 1,
            "slot": "0",
            "type": "t_int8"
          },
          {
            "astId": 45980,
            "contract": "@perennial/order/contracts/Manager_Arbitrum.sol:Manager_Arbitrum",
            "label": "price",
            "offset": 2,
            "slot": "0",
            "type": "t_int64"
          },
          {
            "astId": 45982,
            "contract": "@perennial/order/contracts/Manager_Arbitrum.sol:Manager_Arbitrum",
            "label": "delta",
            "offset": 10,
            "slot": "0",
            "type": "t_int64"
          },
          {
            "astId": 45984,
            "contract": "@perennial/order/contracts/Manager_Arbitrum.sol:Manager_Arbitrum",
            "label": "maxFee",
            "offset": 18,
            "slot": "0",
            "type": "t_uint64"
          },
          {
            "astId": 45986,
            "contract": "@perennial/order/contracts/Manager_Arbitrum.sol:Manager_Arbitrum",
            "label": "isSpent",
            "offset": 26,
            "slot": "0",
            "type": "t_bool"
          },
          {
            "astId": 45988,
            "contract": "@perennial/order/contracts/Manager_Arbitrum.sol:Manager_Arbitrum",
            "label": "__unallocated0__",
            "offset": 27,
            "slot": "0",
            "type": "t_bytes5"
          },
          {
            "astId": 45990,
            "contract": "@perennial/order/contracts/Manager_Arbitrum.sol:Manager_Arbitrum",
            "label": "referrer",
            "offset": 0,
            "slot": "1",
            "type": "t_address"
          },
          {
            "astId": 45992,
            "contract": "@perennial/order/contracts/Manager_Arbitrum.sol:Manager_Arbitrum",
            "label": "__unallocated1__",
            "offset": 20,
            "slot": "1",
            "type": "t_bytes12"
          },
          {
            "astId": 45994,
            "contract": "@perennial/order/contracts/Manager_Arbitrum.sol:Manager_Arbitrum",
            "label": "interfaceFeeReceiver",
            "offset": 0,
            "slot": "2",
            "type": "t_address"
          },
          {
            "astId": 45996,
            "contract": "@perennial/order/contracts/Manager_Arbitrum.sol:Manager_Arbitrum",
            "label": "interfaceFeeAmount",
            "offset": 20,
            "slot": "2",
            "type": "t_uint64"
          },
          {
            "astId": 45998,
            "contract": "@perennial/order/contracts/Manager_Arbitrum.sol:Manager_Arbitrum",
            "label": "interfaceFeeFlat",
            "offset": 28,
            "slot": "2",
            "type": "t_bool"
          },
          {
            "astId": 46000,
            "contract": "@perennial/order/contracts/Manager_Arbitrum.sol:Manager_Arbitrum",
            "label": "interfaceFeeUnwrap",
            "offset": 29,
            "slot": "2",
            "type": "t_bool"
          }
        ],
        "numberOfBytes": "96"
      },
      "t_struct(TriggerOrderStorage)46005_storage": {
        "encoding": "inplace",
        "label": "struct TriggerOrderStorage",
        "members": [
          {
            "astId": 46004,
            "contract": "@perennial/order/contracts/Manager_Arbitrum.sol:Manager_Arbitrum",
            "label": "value",
            "offset": 0,
            "slot": "0",
            "type": "t_struct(StoredTriggerOrder)46001_storage"
          }
        ],
        "numberOfBytes": "96"
      },
      "t_uint256": {
        "encoding": "inplace",
        "label": "uint256",
        "numberOfBytes": "32"
      },
      "t_uint64": {
        "encoding": "inplace",
        "label": "uint64",
        "numberOfBytes": "8"
      },
      "t_uint8": {
        "encoding": "inplace",
        "label": "uint8",
        "numberOfBytes": "1"
      },
      "t_userDefinedValueType(UFixed18)4710": {
        "encoding": "inplace",
        "label": "UFixed18",
        "numberOfBytes": "32"
      },
      "t_userDefinedValueType(UFixed6)5528": {
        "encoding": "inplace",
        "label": "UFixed6",
        "numberOfBytes": "32"
      }
    }
  }
}