{
  "address": "0x17EBcA0060C3e84812ab4e208Cc33e5FD8A3b255",
  "abi": [
    {
      "inputs": [
        {
          "internalType": "contract IVerifier",
          "name": "verifier_",
          "type": "address"
        }
      ],
      "stateMutability": "nonpayable",
      "type": "constructor"
    },
    {
      "inputs": [],
      "name": "Adiabatic6ZeroScaleError",
      "type": "error"
    },
    {
      "inputs": [
        {
          "internalType": "uint256",
          "name": "value",
          "type": "uint256"
        }
      ],
      "name": "Fixed6OverflowError",
      "type": "error"
    },
    {
      "inputs": [],
      "name": "GlobalStorageInvalidError",
      "type": "error"
    },
    {
      "inputs": [],
      "name": "GuaranteeStorageInvalidError",
      "type": "error"
    },
    {
      "inputs": [
        {
          "internalType": "uint256",
          "name": "version",
          "type": "uint256"
        }
      ],
      "name": "InitializableAlreadyInitializedError",
      "type": "error"
    },
    {
      "inputs": [],
      "name": "InitializableNotInitializingError",
      "type": "error"
    },
    {
      "inputs": [],
      "name": "InitializableZeroVersionError",
      "type": "error"
    },
    {
      "inputs": [
        {
          "internalType": "address",
          "name": "sender",
          "type": "address"
        }
      ],
      "name": "InstanceNotFactoryError",
      "type": "error"
    },
    {
      "inputs": [
        {
          "internalType": "address",
          "name": "sender",
          "type": "address"
        }
      ],
      "name": "InstanceNotOwnerError",
      "type": "error"
    },
    {
      "inputs": [],
      "name": "InstancePausedError",
      "type": "error"
    },
    {
      "inputs": [],
      "name": "LocalStorageInvalidError",
      "type": "error"
    },
    {
      "inputs": [],
      "name": "LocalStorageInvalidError",
      "type": "error"
    },
    {
      "inputs": [],
      "name": "MarketClosedError",
      "type": "error"
    },
    {
      "inputs": [],
      "name": "MarketCollateralBelowLimitError",
      "type": "error"
    },
    {
      "inputs": [],
      "name": "MarketEfficiencyUnderLimitError",
      "type": "error"
    },
    {
      "inputs": [],
      "name": "MarketExceedsPendingIdLimitError",
      "type": "error"
    },
    {
      "inputs": [],
      "name": "MarketInsufficientCollateralError",
      "type": "error"
    },
    {
      "inputs": [],
      "name": "MarketInsufficientLiquidityError",
      "type": "error"
    },
    {
      "inputs": [],
      "name": "MarketInsufficientMarginError",
      "type": "error"
    },
    {
      "inputs": [],
      "name": "MarketIntentPriceDeviationError",
      "type": "error"
    },
    {
      "inputs": [],
      "name": "MarketInvalidIntentFeeError",
      "type": "error"
    },
    {
      "inputs": [
        {
          "internalType": "uint256",
          "name": "code",
          "type": "uint256"
        }
      ],
      "name": "MarketInvalidMarketParameterError",
      "type": "error"
    },
    {
      "inputs": [],
      "name": "MarketInvalidProtectionError",
      "type": "error"
    },
    {
      "inputs": [],
      "name": "MarketInvalidReferrerError",
      "type": "error"
    },
    {
      "inputs": [
        {
          "internalType": "uint256",
          "name": "code",
          "type": "uint256"
        }
      ],
      "name": "MarketInvalidRiskParameterError",
      "type": "error"
    },
    {
      "inputs": [],
      "name": "MarketMakerOverLimitError",
      "type": "error"
    },
    {
      "inputs": [],
      "name": "MarketNotBeneficiaryError",
      "type": "error"
    },
    {
      "inputs": [],
      "name": "MarketNotCoordinatorError",
      "type": "error"
    },
    {
      "inputs": [],
      "name": "MarketNotOperatorError",
      "type": "error"
    },
    {
      "inputs": [],
      "name": "MarketNotSingleSidedError",
      "type": "error"
    },
    {
      "inputs": [],
      "name": "MarketOperatorNotAllowedError",
      "type": "error"
    },
    {
      "inputs": [],
      "name": "MarketOverCloseError",
      "type": "error"
    },
    {
      "inputs": [],
      "name": "MarketParameterStorageInvalidError",
      "type": "error"
    },
    {
      "inputs": [],
      "name": "MarketProtectedError",
      "type": "error"
    },
    {
      "inputs": [],
      "name": "MarketSettleOnlyError",
      "type": "error"
    },
    {
      "inputs": [],
      "name": "MarketStalePriceError",
      "type": "error"
    },
    {
      "inputs": [],
      "name": "OrderStorageInvalidError",
      "type": "error"
    },
    {
      "inputs": [],
      "name": "PositionStorageLocalInvalidError",
      "type": "error"
    },
    {
      "inputs": [],
      "name": "ReentrancyGuardReentrantCallError",
      "type": "error"
    },
    {
      "inputs": [],
      "name": "RiskParameterStorageInvalidError",
      "type": "error"
    },
    {
      "inputs": [
        {
          "internalType": "int256",
          "name": "value",
          "type": "int256"
        }
      ],
      "name": "UFixed6UnderflowError",
      "type": "error"
    },
    {
      "inputs": [],
      "name": "VersionStorageInvalidError",
      "type": "error"
    },
    {
      "anonymous": false,
      "inputs": [
        {
          "indexed": true,
          "internalType": "address",
          "name": "account",
          "type": "address"
        },
        {
          "indexed": false,
          "internalType": "uint256",
          "name": "orderId",
          "type": "uint256"
        },
        {
          "components": [
            {
              "internalType": "uint256",
              "name": "timestamp",
              "type": "uint256"
            },
            {
              "internalType": "uint256",
              "name": "orders",
              "type": "uint256"
            },
            {
              "internalType": "Fixed6",
              "name": "collateral",
              "type": "int256"
            },
            {
              "internalType": "UFixed6",
              "name": "makerPos",
              "type": "uint256"
            },
            {
              "internalType": "UFixed6",
              "name": "makerNeg",
              "type": "uint256"
            },
            {
              "internalType": "UFixed6",
              "name": "longPos",
              "type": "uint256"
            },
            {
              "internalType": "UFixed6",
              "name": "longNeg",
              "type": "uint256"
            },
            {
              "internalType": "UFixed6",
              "name": "shortPos",
              "type": "uint256"
            },
            {
              "internalType": "UFixed6",
              "name": "shortNeg",
              "type": "uint256"
            },
            {
              "internalType": "uint256",
              "name": "protection",
              "type": "uint256"
            },
            {
              "internalType": "UFixed6",
              "name": "makerReferral",
              "type": "uint256"
            },
            {
              "internalType": "UFixed6",
              "name": "takerReferral",
              "type": "uint256"
            }
          ],
          "indexed": false,
          "internalType": "struct Order",
          "name": "order",
          "type": "tuple"
        },
        {
          "components": [
            {
              "internalType": "Fixed6",
              "name": "collateral",
              "type": "int256"
            },
            {
              "internalType": "Fixed6",
              "name": "priceOverride",
              "type": "int256"
            },
            {
              "internalType": "UFixed6",
              "name": "tradeFee",
              "type": "uint256"
            },
            {
              "internalType": "Fixed6",
              "name": "offset",
              "type": "int256"
            },
            {
              "internalType": "UFixed6",
              "name": "settlementFee",
              "type": "uint256"
            },
            {
              "internalType": "UFixed6",
              "name": "liquidationFee",
              "type": "uint256"
            },
            {
              "internalType": "UFixed6",
              "name": "subtractiveFee",
              "type": "uint256"
            },
            {
              "internalType": "UFixed6",
              "name": "solverFee",
              "type": "uint256"
            }
          ],
          "indexed": false,
          "internalType": "struct CheckpointAccumulationResult",
          "name": "accumulationResult",
          "type": "tuple"
        }
      ],
      "name": "AccountPositionProcessed",
      "type": "event"
    },
    {
      "anonymous": false,
      "inputs": [
        {
          "indexed": false,
          "internalType": "address",
          "name": "newBeneficiary",
          "type": "address"
        }
      ],
      "name": "BeneficiaryUpdated",
      "type": "event"
    },
    {
      "anonymous": false,
      "inputs": [
        {
          "indexed": false,
          "internalType": "address",
          "name": "newCoordinator",
          "type": "address"
        }
      ],
      "name": "CoordinatorUpdated",
      "type": "event"
    },
    {
      "anonymous": false,
      "inputs": [
        {
          "indexed": true,
          "internalType": "address",
          "name": "account",
          "type": "address"
        },
        {
          "indexed": false,
          "internalType": "Fixed6",
          "name": "amount",
          "type": "int256"
        }
      ],
      "name": "ExposureClaimed",
      "type": "event"
    },
    {
      "anonymous": false,
      "inputs": [
        {
          "indexed": true,
          "internalType": "address",
          "name": "account",
          "type": "address"
        },
        {
          "indexed": true,
          "internalType": "address",
          "name": "receiver",
          "type": "address"
        },
        {
          "indexed": false,
          "internalType": "UFixed6",
          "name": "amount",
          "type": "uint256"
        }
      ],
      "name": "FeeClaimed",
      "type": "event"
    },
    {
      "anonymous": false,
      "inputs": [
        {
          "indexed": false,
          "internalType": "uint256",
          "name": "version",
          "type": "uint256"
        }
      ],
      "name": "Initialized",
      "type": "event"
    },
    {
      "anonymous": false,
      "inputs": [
        {
          "indexed": true,
          "internalType": "address",
          "name": "account",
          "type": "address"
        },
        {
          "components": [
            {
              "internalType": "uint256",
              "name": "timestamp",
              "type": "uint256"
            },
            {
              "internalType": "uint256",
              "name": "orders",
              "type": "uint256"
            },
            {
              "internalType": "Fixed6",
              "name": "collateral",
              "type": "int256"
            },
            {
              "internalType": "UFixed6",
              "name": "makerPos",
              "type": "uint256"
            },
            {
              "internalType": "UFixed6",
              "name": "makerNeg",
              "type": "uint256"
            },
            {
              "internalType": "UFixed6",
              "name": "longPos",
              "type": "uint256"
            },
            {
              "internalType": "UFixed6",
              "name": "longNeg",
              "type": "uint256"
            },
            {
              "internalType": "UFixed6",
              "name": "shortPos",
              "type": "uint256"
            },
            {
              "internalType": "UFixed6",
              "name": "shortNeg",
              "type": "uint256"
            },
            {
              "internalType": "uint256",
              "name": "protection",
              "type": "uint256"
            },
            {
              "internalType": "UFixed6",
              "name": "makerReferral",
              "type": "uint256"
            },
            {
              "internalType": "UFixed6",
              "name": "takerReferral",
              "type": "uint256"
            }
          ],
          "indexed": false,
          "internalType": "struct Order",
          "name": "order",
          "type": "tuple"
        },
        {
          "components": [
            {
              "internalType": "uint256",
              "name": "orders",
              "type": "uint256"
            },
            {
              "internalType": "Fixed6",
              "name": "notional",
              "type": "int256"
            },
            {
              "internalType": "UFixed6",
              "name": "takerPos",
              "type": "uint256"
            },
            {
              "internalType": "UFixed6",
              "name": "takerNeg",
              "type": "uint256"
            },
            {
              "internalType": "UFixed6",
              "name": "takerFee",
              "type": "uint256"
            },
            {
              "internalType": "UFixed6",
              "name": "referral",
              "type": "uint256"
            }
          ],
          "indexed": false,
          "internalType": "struct Guarantee",
          "name": "guarantee",
          "type": "tuple"
        },
        {
          "indexed": false,
          "internalType": "address",
          "name": "liquidator",
          "type": "address"
        },
        {
          "indexed": false,
          "internalType": "address",
          "name": "orderReferrer",
          "type": "address"
        },
        {
          "indexed": false,
          "internalType": "address",
          "name": "guaranteeReferrer",
          "type": "address"
        }
      ],
      "name": "OrderCreated",
      "type": "event"
    },
    {
      "anonymous": false,
      "inputs": [
        {
          "components": [
            {
              "internalType": "UFixed6",
              "name": "fundingFee",
              "type": "uint256"
            },
            {
              "internalType": "UFixed6",
              "name": "interestFee",
              "type": "uint256"
            },
            {
              "internalType": "UFixed6",
              "name": "makerFee",
              "type": "uint256"
            },
            {
              "internalType": "UFixed6",
              "name": "takerFee",
              "type": "uint256"
            },
            {
              "internalType": "UFixed6",
              "name": "riskFee",
              "type": "uint256"
            },
            {
              "internalType": "uint256",
              "name": "maxPendingGlobal",
              "type": "uint256"
            },
            {
              "internalType": "uint256",
              "name": "maxPendingLocal",
              "type": "uint256"
            },
            {
              "internalType": "UFixed6",
              "name": "maxPriceDeviation",
              "type": "uint256"
            },
            {
              "internalType": "bool",
              "name": "closed",
              "type": "bool"
            },
            {
              "internalType": "bool",
              "name": "settle",
              "type": "bool"
            }
          ],
          "indexed": false,
          "internalType": "struct MarketParameter",
          "name": "newParameter",
          "type": "tuple"
        }
      ],
      "name": "ParameterUpdated",
      "type": "event"
    },
    {
      "anonymous": false,
      "inputs": [
        {
          "indexed": false,
          "internalType": "uint256",
          "name": "orderId",
          "type": "uint256"
        },
        {
          "components": [
            {
              "internalType": "uint256",
              "name": "timestamp",
              "type": "uint256"
            },
            {
              "internalType": "uint256",
              "name": "orders",
              "type": "uint256"
            },
            {
              "internalType": "Fixed6",
              "name": "collateral",
              "type": "int256"
            },
            {
              "internalType": "UFixed6",
              "name": "makerPos",
              "type": "uint256"
            },
            {
              "internalType": "UFixed6",
              "name": "makerNeg",
              "type": "uint256"
            },
            {
              "internalType": "UFixed6",
              "name": "longPos",
              "type": "uint256"
            },
            {
              "internalType": "UFixed6",
              "name": "longNeg",
              "type": "uint256"
            },
            {
              "internalType": "UFixed6",
              "name": "shortPos",
              "type": "uint256"
            },
            {
              "internalType": "UFixed6",
              "name": "shortNeg",
              "type": "uint256"
            },
            {
              "internalType": "uint256",
              "name": "protection",
              "type": "uint256"
            },
            {
              "internalType": "UFixed6",
              "name": "makerReferral",
              "type": "uint256"
            },
            {
              "internalType": "UFixed6",
              "name": "takerReferral",
              "type": "uint256"
            }
          ],
          "indexed": false,
          "internalType": "struct Order",
          "name": "order",
          "type": "tuple"
        },
        {
          "components": [
            {
              "internalType": "UFixed6",
              "name": "tradeFee",
              "type": "uint256"
            },
            {
              "internalType": "UFixed6",
              "name": "subtractiveFee",
              "type": "uint256"
            },
            {
              "internalType": "Fixed6",
              "name": "tradeOffset",
              "type": "int256"
            },
            {
              "internalType": "Fixed6",
              "name": "tradeOffsetMaker",
              "type": "int256"
            },
            {
              "internalType": "UFixed6",
              "name": "tradeOffsetMarket",
              "type": "uint256"
            },
            {
              "internalType": "Fixed6",
              "name": "adiabaticExposure",
              "type": "int256"
            },
            {
              "internalType": "Fixed6",
              "name": "adiabaticExposureMaker",
              "type": "int256"
            },
            {
              "internalType": "Fixed6",
              "name": "adiabaticExposureMarket",
              "type": "int256"
            },
            {
              "internalType": "Fixed6",
              "name": "fundingMaker",
              "type": "int256"
            },
            {
              "internalType": "Fixed6",
              "name": "fundingLong",
              "type": "int256"
            },
            {
              "internalType": "Fixed6",
              "name": "fundingShort",
              "type": "int256"
            },
            {
              "internalType": "UFixed6",
              "name": "fundingFee",
              "type": "uint256"
            },
            {
              "internalType": "Fixed6",
              "name": "interestMaker",
              "type": "int256"
            },
            {
              "internalType": "Fixed6",
              "name": "interestLong",
              "type": "int256"
            },
            {
              "internalType": "Fixed6",
              "name": "interestShort",
              "type": "int256"
            },
            {
              "internalType": "UFixed6",
              "name": "interestFee",
              "type": "uint256"
            },
            {
              "internalType": "Fixed6",
              "name": "pnlMaker",
              "type": "int256"
            },
            {
              "internalType": "Fixed6",
              "name": "pnlLong",
              "type": "int256"
            },
            {
              "internalType": "Fixed6",
              "name": "pnlShort",
              "type": "int256"
            },
            {
              "internalType": "UFixed6",
              "name": "settlementFee",
              "type": "uint256"
            },
            {
              "internalType": "UFixed6",
              "name": "liquidationFee",
              "type": "uint256"
            }
          ],
          "indexed": false,
          "internalType": "struct VersionAccumulationResult",
          "name": "accumulationResult",
          "type": "tuple"
        }
      ],
      "name": "PositionProcessed",
      "type": "event"
    },
    {
      "anonymous": false,
      "inputs": [
        {
          "components": [
            {
              "internalType": "UFixed6",
              "name": "margin",
              "type": "uint256"
            },
            {
              "internalType": "UFixed6",
              "name": "maintenance",
              "type": "uint256"
            },
            {
              "components": [
                {
                  "internalType": "UFixed6",
                  "name": "linearFee",
                  "type": "uint256"
                },
                {
                  "internalType": "UFixed6",
                  "name": "proportionalFee",
                  "type": "uint256"
                },
                {
                  "internalType": "UFixed6",
                  "name": "adiabaticFee",
                  "type": "uint256"
                },
                {
                  "internalType": "UFixed6",
                  "name": "scale",
                  "type": "uint256"
                }
              ],
              "internalType": "struct LinearAdiabatic6",
              "name": "takerFee",
              "type": "tuple"
            },
            {
              "components": [
                {
                  "internalType": "UFixed6",
                  "name": "linearFee",
                  "type": "uint256"
                },
                {
                  "internalType": "UFixed6",
                  "name": "proportionalFee",
                  "type": "uint256"
                },
                {
                  "internalType": "UFixed6",
                  "name": "scale",
                  "type": "uint256"
                }
              ],
              "internalType": "struct NoopAdiabatic6",
              "name": "makerFee",
              "type": "tuple"
            },
            {
              "internalType": "UFixed6",
              "name": "makerLimit",
              "type": "uint256"
            },
            {
              "internalType": "UFixed6",
              "name": "efficiencyLimit",
              "type": "uint256"
            },
            {
              "internalType": "UFixed6",
              "name": "liquidationFee",
              "type": "uint256"
            },
            {
              "components": [
                {
                  "internalType": "UFixed6",
                  "name": "minRate",
                  "type": "uint256"
                },
                {
                  "internalType": "UFixed6",
                  "name": "maxRate",
                  "type": "uint256"
                },
                {
                  "internalType": "UFixed6",
                  "name": "targetRate",
                  "type": "uint256"
                },
                {
                  "internalType": "UFixed6",
                  "name": "targetUtilization",
                  "type": "uint256"
                }
              ],
              "internalType": "struct UJumpRateUtilizationCurve6",
              "name": "utilizationCurve",
              "type": "tuple"
            },
            {
              "components": [
                {
                  "internalType": "UFixed6",
                  "name": "k",
                  "type": "uint256"
                },
                {
                  "internalType": "Fixed6",
                  "name": "min",
                  "type": "int256"
                },
                {
                  "internalType": "Fixed6",
                  "name": "max",
                  "type": "int256"
                }
              ],
              "internalType": "struct PController6",
              "name": "pController",
              "type": "tuple"
            },
            {
              "internalType": "UFixed6",
              "name": "minMargin",
              "type": "uint256"
            },
            {
              "internalType": "UFixed6",
              "name": "minMaintenance",
              "type": "uint256"
            },
            {
              "internalType": "uint256",
              "name": "staleAfter",
              "type": "uint256"
            },
            {
              "internalType": "bool",
              "name": "makerReceiveOnly",
              "type": "bool"
            }
          ],
          "indexed": false,
          "internalType": "struct RiskParameter",
          "name": "newRiskParameter",
          "type": "tuple"
        }
      ],
      "name": "RiskParameterUpdated",
      "type": "event"
    },
    {
      "inputs": [],
      "name": "beneficiary",
      "outputs": [
        {
          "internalType": "address",
          "name": "",
          "type": "address"
        }
      ],
      "stateMutability": "view",
      "type": "function"
    },
    {
      "inputs": [
        {
          "internalType": "address",
          "name": "account",
          "type": "address"
        },
        {
          "internalType": "uint256",
          "name": "version",
          "type": "uint256"
        }
      ],
      "name": "checkpoints",
      "outputs": [
        {
          "components": [
            {
              "internalType": "Fixed6",
              "name": "tradeFee",
              "type": "int256"
            },
            {
              "internalType": "UFixed6",
              "name": "settlementFee",
              "type": "uint256"
            },
            {
              "internalType": "Fixed6",
              "name": "transfer",
              "type": "int256"
            },
            {
              "internalType": "Fixed6",
              "name": "collateral",
              "type": "int256"
            }
          ],
          "internalType": "struct Checkpoint",
          "name": "",
          "type": "tuple"
        }
      ],
      "stateMutability": "view",
      "type": "function"
    },
    {
      "inputs": [],
      "name": "claimExposure",
      "outputs": [],
      "stateMutability": "nonpayable",
      "type": "function"
    },
    {
      "inputs": [
        {
          "internalType": "address",
          "name": "account",
          "type": "address"
        }
      ],
      "name": "claimFee",
      "outputs": [
        {
          "internalType": "UFixed6",
          "name": "feeReceived",
          "type": "uint256"
        }
      ],
      "stateMutability": "nonpayable",
      "type": "function"
    },
    {
      "inputs": [],
      "name": "coordinator",
      "outputs": [
        {
          "internalType": "address",
          "name": "",
          "type": "address"
        }
      ],
      "stateMutability": "view",
      "type": "function"
    },
    {
      "inputs": [],
      "name": "factory",
      "outputs": [
        {
          "internalType": "contract IFactory",
          "name": "",
          "type": "address"
        }
      ],
      "stateMutability": "view",
      "type": "function"
    },
    {
      "inputs": [],
      "name": "global",
      "outputs": [
        {
          "components": [
            {
              "internalType": "uint256",
              "name": "currentId",
              "type": "uint256"
            },
            {
              "internalType": "uint256",
              "name": "latestId",
              "type": "uint256"
            },
            {
              "internalType": "UFixed6",
              "name": "protocolFee",
              "type": "uint256"
            },
            {
              "internalType": "UFixed6",
              "name": "oracleFee",
              "type": "uint256"
            },
            {
              "internalType": "UFixed6",
              "name": "riskFee",
              "type": "uint256"
            },
            {
              "internalType": "Fixed6",
              "name": "latestPrice",
              "type": "int256"
            },
            {
              "internalType": "Fixed6",
              "name": "exposure",
              "type": "int256"
            },
            {
              "components": [
                {
                  "internalType": "Fixed6",
                  "name": "_value",
                  "type": "int256"
                },
                {
                  "internalType": "Fixed6",
                  "name": "_skew",
                  "type": "int256"
                }
              ],
              "internalType": "struct PAccumulator6",
              "name": "pAccumulator",
              "type": "tuple"
            }
          ],
          "internalType": "struct Global",
          "name": "",
          "type": "tuple"
        }
      ],
      "stateMutability": "view",
      "type": "function"
    },
    {
      "inputs": [
        {
          "internalType": "uint256",
          "name": "id",
          "type": "uint256"
        }
      ],
      "name": "guarantee",
      "outputs": [
        {
          "components": [
            {
              "internalType": "uint256",
              "name": "orders",
              "type": "uint256"
            },
            {
              "internalType": "Fixed6",
              "name": "notional",
              "type": "int256"
            },
            {
              "internalType": "UFixed6",
              "name": "takerPos",
              "type": "uint256"
            },
            {
              "internalType": "UFixed6",
              "name": "takerNeg",
              "type": "uint256"
            },
            {
              "internalType": "UFixed6",
              "name": "takerFee",
              "type": "uint256"
            },
            {
              "internalType": "UFixed6",
              "name": "referral",
              "type": "uint256"
            }
          ],
          "internalType": "struct Guarantee",
          "name": "",
          "type": "tuple"
        }
      ],
      "stateMutability": "view",
      "type": "function"
    },
    {
      "inputs": [
        {
          "internalType": "address",
          "name": "",
          "type": "address"
        },
        {
          "internalType": "uint256",
          "name": "",
          "type": "uint256"
        }
      ],
      "name": "guaranteeReferrers",
      "outputs": [
        {
          "internalType": "address",
          "name": "",
          "type": "address"
        }
      ],
      "stateMutability": "view",
      "type": "function"
    },
    {
      "inputs": [
        {
          "internalType": "address",
          "name": "account",
          "type": "address"
        },
        {
          "internalType": "uint256",
          "name": "id",
          "type": "uint256"
        }
      ],
      "name": "guarantees",
      "outputs": [
        {
          "components": [
            {
              "internalType": "uint256",
              "name": "orders",
              "type": "uint256"
            },
            {
              "internalType": "Fixed6",
              "name": "notional",
              "type": "int256"
            },
            {
              "internalType": "UFixed6",
              "name": "takerPos",
              "type": "uint256"
            },
            {
              "internalType": "UFixed6",
              "name": "takerNeg",
              "type": "uint256"
            },
            {
              "internalType": "UFixed6",
              "name": "takerFee",
              "type": "uint256"
            },
            {
              "internalType": "UFixed6",
              "name": "referral",
              "type": "uint256"
            }
          ],
          "internalType": "struct Guarantee",
          "name": "",
          "type": "tuple"
        }
      ],
      "stateMutability": "view",
      "type": "function"
    },
    {
      "inputs": [
        {
          "components": [
            {
              "internalType": "Token18",
              "name": "token",
              "type": "address"
            },
            {
              "internalType": "contract IOracleProvider",
              "name": "oracle",
              "type": "address"
            }
          ],
          "internalType": "struct IMarket.MarketDefinition",
          "name": "definition_",
          "type": "tuple"
        }
      ],
      "name": "initialize",
      "outputs": [],
      "stateMutability": "nonpayable",
      "type": "function"
    },
    {
      "inputs": [
        {
          "internalType": "address",
          "name": "",
          "type": "address"
        },
        {
          "internalType": "uint256",
          "name": "",
          "type": "uint256"
        }
      ],
      "name": "liquidators",
      "outputs": [
        {
          "internalType": "address",
          "name": "",
          "type": "address"
        }
      ],
      "stateMutability": "view",
      "type": "function"
    },
    {
      "inputs": [
        {
          "internalType": "address",
          "name": "account",
          "type": "address"
        }
      ],
      "name": "locals",
      "outputs": [
        {
          "components": [
            {
              "internalType": "uint256",
              "name": "currentId",
              "type": "uint256"
            },
            {
              "internalType": "uint256",
              "name": "latestId",
              "type": "uint256"
            },
            {
              "internalType": "Fixed6",
              "name": "collateral",
              "type": "int256"
            },
            {
              "internalType": "UFixed6",
              "name": "claimable",
              "type": "uint256"
            }
          ],
          "internalType": "struct Local",
          "name": "",
          "type": "tuple"
        }
      ],
      "stateMutability": "view",
      "type": "function"
    },
    {
      "inputs": [],
      "name": "migrate",
      "outputs": [],
      "stateMutability": "nonpayable",
      "type": "function"
    },
    {
      "inputs": [],
      "name": "oracle",
      "outputs": [
        {
          "internalType": "contract IOracleProvider",
          "name": "",
          "type": "address"
        }
      ],
      "stateMutability": "view",
      "type": "function"
    },
    {
      "inputs": [
        {
          "internalType": "address",
          "name": "",
          "type": "address"
        },
        {
          "internalType": "uint256",
          "name": "",
          "type": "uint256"
        }
      ],
      "name": "orderReferrers",
      "outputs": [
        {
          "internalType": "address",
          "name": "",
          "type": "address"
        }
      ],
      "stateMutability": "view",
      "type": "function"
    },
    {
      "inputs": [],
      "name": "parameter",
      "outputs": [
        {
          "components": [
            {
              "internalType": "UFixed6",
              "name": "fundingFee",
              "type": "uint256"
            },
            {
              "internalType": "UFixed6",
              "name": "interestFee",
              "type": "uint256"
            },
            {
              "internalType": "UFixed6",
              "name": "makerFee",
              "type": "uint256"
            },
            {
              "internalType": "UFixed6",
              "name": "takerFee",
              "type": "uint256"
            },
            {
              "internalType": "UFixed6",
              "name": "riskFee",
              "type": "uint256"
            },
            {
              "internalType": "uint256",
              "name": "maxPendingGlobal",
              "type": "uint256"
            },
            {
              "internalType": "uint256",
              "name": "maxPendingLocal",
              "type": "uint256"
            },
            {
              "internalType": "UFixed6",
              "name": "maxPriceDeviation",
              "type": "uint256"
            },
            {
              "internalType": "bool",
              "name": "closed",
              "type": "bool"
            },
            {
              "internalType": "bool",
              "name": "settle",
              "type": "bool"
            }
          ],
          "internalType": "struct MarketParameter",
          "name": "",
          "type": "tuple"
        }
      ],
      "stateMutability": "view",
      "type": "function"
    },
    {
      "inputs": [],
      "name": "pending",
      "outputs": [
        {
          "components": [
            {
              "internalType": "uint256",
              "name": "timestamp",
              "type": "uint256"
            },
            {
              "internalType": "uint256",
              "name": "orders",
              "type": "uint256"
            },
            {
              "internalType": "Fixed6",
              "name": "collateral",
              "type": "int256"
            },
            {
              "internalType": "UFixed6",
              "name": "makerPos",
              "type": "uint256"
            },
            {
              "internalType": "UFixed6",
              "name": "makerNeg",
              "type": "uint256"
            },
            {
              "internalType": "UFixed6",
              "name": "longPos",
              "type": "uint256"
            },
            {
              "internalType": "UFixed6",
              "name": "longNeg",
              "type": "uint256"
            },
            {
              "internalType": "UFixed6",
              "name": "shortPos",
              "type": "uint256"
            },
            {
              "internalType": "UFixed6",
              "name": "shortNeg",
              "type": "uint256"
            },
            {
              "internalType": "uint256",
              "name": "protection",
              "type": "uint256"
            },
            {
              "internalType": "UFixed6",
              "name": "makerReferral",
              "type": "uint256"
            },
            {
              "internalType": "UFixed6",
              "name": "takerReferral",
              "type": "uint256"
            }
          ],
          "internalType": "struct Order",
          "name": "",
          "type": "tuple"
        }
      ],
      "stateMutability": "view",
      "type": "function"
    },
    {
      "inputs": [
        {
          "internalType": "uint256",
          "name": "id",
          "type": "uint256"
        }
      ],
      "name": "pendingOrder",
      "outputs": [
        {
          "components": [
            {
              "internalType": "uint256",
              "name": "timestamp",
              "type": "uint256"
            },
            {
              "internalType": "uint256",
              "name": "orders",
              "type": "uint256"
            },
            {
              "internalType": "Fixed6",
              "name": "collateral",
              "type": "int256"
            },
            {
              "internalType": "UFixed6",
              "name": "makerPos",
              "type": "uint256"
            },
            {
              "internalType": "UFixed6",
              "name": "makerNeg",
              "type": "uint256"
            },
            {
              "internalType": "UFixed6",
              "name": "longPos",
              "type": "uint256"
            },
            {
              "internalType": "UFixed6",
              "name": "longNeg",
              "type": "uint256"
            },
            {
              "internalType": "UFixed6",
              "name": "shortPos",
              "type": "uint256"
            },
            {
              "internalType": "UFixed6",
              "name": "shortNeg",
              "type": "uint256"
            },
            {
              "internalType": "uint256",
              "name": "protection",
              "type": "uint256"
            },
            {
              "internalType": "UFixed6",
              "name": "makerReferral",
              "type": "uint256"
            },
            {
              "internalType": "UFixed6",
              "name": "takerReferral",
              "type": "uint256"
            }
          ],
          "internalType": "struct Order",
          "name": "",
          "type": "tuple"
        }
      ],
      "stateMutability": "view",
      "type": "function"
    },
    {
      "inputs": [
        {
          "internalType": "address",
          "name": "account",
          "type": "address"
        },
        {
          "internalType": "uint256",
          "name": "id",
          "type": "uint256"
        }
      ],
      "name": "pendingOrders",
      "outputs": [
        {
          "components": [
            {
              "internalType": "uint256",
              "name": "timestamp",
              "type": "uint256"
            },
            {
              "internalType": "uint256",
              "name": "orders",
              "type": "uint256"
            },
            {
              "internalType": "Fixed6",
              "name": "collateral",
              "type": "int256"
            },
            {
              "internalType": "UFixed6",
              "name": "makerPos",
              "type": "uint256"
            },
            {
              "internalType": "UFixed6",
              "name": "makerNeg",
              "type": "uint256"
            },
            {
              "internalType": "UFixed6",
              "name": "longPos",
              "type": "uint256"
            },
            {
              "internalType": "UFixed6",
              "name": "longNeg",
              "type": "uint256"
            },
            {
              "internalType": "UFixed6",
              "name": "shortPos",
              "type": "uint256"
            },
            {
              "internalType": "UFixed6",
              "name": "shortNeg",
              "type": "uint256"
            },
            {
              "internalType": "uint256",
              "name": "protection",
              "type": "uint256"
            },
            {
              "internalType": "UFixed6",
              "name": "makerReferral",
              "type": "uint256"
            },
            {
              "internalType": "UFixed6",
              "name": "takerReferral",
              "type": "uint256"
            }
          ],
          "internalType": "struct Order",
          "name": "",
          "type": "tuple"
        }
      ],
      "stateMutability": "view",
      "type": "function"
    },
    {
      "inputs": [
        {
          "internalType": "address",
          "name": "account",
          "type": "address"
        }
      ],
      "name": "pendings",
      "outputs": [
        {
          "components": [
            {
              "internalType": "uint256",
              "name": "timestamp",
              "type": "uint256"
            },
            {
              "internalType": "uint256",
              "name": "orders",
              "type": "uint256"
            },
            {
              "internalType": "Fixed6",
              "name": "collateral",
              "type": "int256"
            },
            {
              "internalType": "UFixed6",
              "name": "makerPos",
              "type": "uint256"
            },
            {
              "internalType": "UFixed6",
              "name": "makerNeg",
              "type": "uint256"
            },
            {
              "internalType": "UFixed6",
              "name": "longPos",
              "type": "uint256"
            },
            {
              "internalType": "UFixed6",
              "name": "longNeg",
              "type": "uint256"
            },
            {
              "internalType": "UFixed6",
              "name": "shortPos",
              "type": "uint256"
            },
            {
              "internalType": "UFixed6",
              "name": "shortNeg",
              "type": "uint256"
            },
            {
              "internalType": "uint256",
              "name": "protection",
              "type": "uint256"
            },
            {
              "internalType": "UFixed6",
              "name": "makerReferral",
              "type": "uint256"
            },
            {
              "internalType": "UFixed6",
              "name": "takerReferral",
              "type": "uint256"
            }
          ],
          "internalType": "struct Order",
          "name": "",
          "type": "tuple"
        }
      ],
      "stateMutability": "view",
      "type": "function"
    },
    {
      "inputs": [],
      "name": "position",
      "outputs": [
        {
          "components": [
            {
              "internalType": "uint256",
              "name": "timestamp",
              "type": "uint256"
            },
            {
              "internalType": "UFixed6",
              "name": "maker",
              "type": "uint256"
            },
            {
              "internalType": "UFixed6",
              "name": "long",
              "type": "uint256"
            },
            {
              "internalType": "UFixed6",
              "name": "short",
              "type": "uint256"
            }
          ],
          "internalType": "struct Position",
          "name": "",
          "type": "tuple"
        }
      ],
      "stateMutability": "view",
      "type": "function"
    },
    {
      "inputs": [
        {
          "internalType": "address",
          "name": "account",
          "type": "address"
        }
      ],
      "name": "positions",
      "outputs": [
        {
          "components": [
            {
              "internalType": "uint256",
              "name": "timestamp",
              "type": "uint256"
            },
            {
              "internalType": "UFixed6",
              "name": "maker",
              "type": "uint256"
            },
            {
              "internalType": "UFixed6",
              "name": "long",
              "type": "uint256"
            },
            {
              "internalType": "UFixed6",
              "name": "short",
              "type": "uint256"
            }
          ],
          "internalType": "struct Position",
          "name": "",
          "type": "tuple"
        }
      ],
      "stateMutability": "view",
      "type": "function"
    },
    {
      "inputs": [],
      "name": "riskParameter",
      "outputs": [
        {
          "components": [
            {
              "internalType": "UFixed6",
              "name": "margin",
              "type": "uint256"
            },
            {
              "internalType": "UFixed6",
              "name": "maintenance",
              "type": "uint256"
            },
            {
              "components": [
                {
                  "internalType": "UFixed6",
                  "name": "linearFee",
                  "type": "uint256"
                },
                {
                  "internalType": "UFixed6",
                  "name": "proportionalFee",
                  "type": "uint256"
                },
                {
                  "internalType": "UFixed6",
                  "name": "adiabaticFee",
                  "type": "uint256"
                },
                {
                  "internalType": "UFixed6",
                  "name": "scale",
                  "type": "uint256"
                }
              ],
              "internalType": "struct LinearAdiabatic6",
              "name": "takerFee",
              "type": "tuple"
            },
            {
              "components": [
                {
                  "internalType": "UFixed6",
                  "name": "linearFee",
                  "type": "uint256"
                },
                {
                  "internalType": "UFixed6",
                  "name": "proportionalFee",
                  "type": "uint256"
                },
                {
                  "internalType": "UFixed6",
                  "name": "scale",
                  "type": "uint256"
                }
              ],
              "internalType": "struct NoopAdiabatic6",
              "name": "makerFee",
              "type": "tuple"
            },
            {
              "internalType": "UFixed6",
              "name": "makerLimit",
              "type": "uint256"
            },
            {
              "internalType": "UFixed6",
              "name": "efficiencyLimit",
              "type": "uint256"
            },
            {
              "internalType": "UFixed6",
              "name": "liquidationFee",
              "type": "uint256"
            },
            {
              "components": [
                {
                  "internalType": "UFixed6",
                  "name": "minRate",
                  "type": "uint256"
                },
                {
                  "internalType": "UFixed6",
                  "name": "maxRate",
                  "type": "uint256"
                },
                {
                  "internalType": "UFixed6",
                  "name": "targetRate",
                  "type": "uint256"
                },
                {
                  "internalType": "UFixed6",
                  "name": "targetUtilization",
                  "type": "uint256"
                }
              ],
              "internalType": "struct UJumpRateUtilizationCurve6",
              "name": "utilizationCurve",
              "type": "tuple"
            },
            {
              "components": [
                {
                  "internalType": "UFixed6",
                  "name": "k",
                  "type": "uint256"
                },
                {
                  "internalType": "Fixed6",
                  "name": "min",
                  "type": "int256"
                },
                {
                  "internalType": "Fixed6",
                  "name": "max",
                  "type": "int256"
                }
              ],
              "internalType": "struct PController6",
              "name": "pController",
              "type": "tuple"
            },
            {
              "internalType": "UFixed6",
              "name": "minMargin",
              "type": "uint256"
            },
            {
              "internalType": "UFixed6",
              "name": "minMaintenance",
              "type": "uint256"
            },
            {
              "internalType": "uint256",
              "name": "staleAfter",
              "type": "uint256"
            },
            {
              "internalType": "bool",
              "name": "makerReceiveOnly",
              "type": "bool"
            }
          ],
          "internalType": "struct RiskParameter",
          "name": "",
          "type": "tuple"
        }
      ],
      "stateMutability": "view",
      "type": "function"
    },
    {
      "inputs": [
        {
          "internalType": "address",
          "name": "account",
          "type": "address"
        }
      ],
      "name": "settle",
      "outputs": [],
      "stateMutability": "nonpayable",
      "type": "function"
    },
    {
      "inputs": [],
      "name": "token",
      "outputs": [
        {
          "internalType": "Token18",
          "name": "",
          "type": "address"
        }
      ],
      "stateMutability": "view",
      "type": "function"
    },
    {
      "inputs": [
        {
          "internalType": "address",
          "name": "account",
          "type": "address"
        },
        {
          "internalType": "Fixed6",
          "name": "amount",
          "type": "int256"
        },
        {
          "internalType": "Fixed6",
          "name": "collateral",
          "type": "int256"
        },
        {
          "internalType": "address",
          "name": "referrer",
          "type": "address"
        }
      ],
      "name": "update",
      "outputs": [],
      "stateMutability": "nonpayable",
      "type": "function"
    },
    {
      "inputs": [
        {
          "internalType": "address",
          "name": "account",
          "type": "address"
        },
        {
          "components": [
            {
              "internalType": "Fixed6",
              "name": "amount",
              "type": "int256"
            },
            {
              "internalType": "Fixed6",
              "name": "price",
              "type": "int256"
            },
            {
              "internalType": "UFixed6",
              "name": "fee",
              "type": "uint256"
            },
            {
              "internalType": "address",
              "name": "originator",
              "type": "address"
            },
            {
              "internalType": "address",
              "name": "solver",
              "type": "address"
            },
            {
              "internalType": "UFixed6",
              "name": "collateralization",
              "type": "uint256"
            },
            {
              "components": [
                {
                  "internalType": "address",
                  "name": "account",
                  "type": "address"
                },
                {
                  "internalType": "address",
                  "name": "signer",
                  "type": "address"
                },
                {
                  "internalType": "address",
                  "name": "domain",
                  "type": "address"
                },
                {
                  "internalType": "uint256",
                  "name": "nonce",
                  "type": "uint256"
                },
                {
                  "internalType": "uint256",
                  "name": "group",
                  "type": "uint256"
                },
                {
                  "internalType": "uint256",
                  "name": "expiry",
                  "type": "uint256"
                }
              ],
              "internalType": "struct Common",
              "name": "common",
              "type": "tuple"
            }
          ],
          "internalType": "struct Intent",
          "name": "intent",
          "type": "tuple"
        },
        {
          "internalType": "bytes",
          "name": "signature",
          "type": "bytes"
        }
      ],
      "name": "update",
      "outputs": [],
      "stateMutability": "nonpayable",
      "type": "function"
    },
    {
      "inputs": [
        {
          "internalType": "address",
          "name": "account",
          "type": "address"
        },
        {
          "internalType": "UFixed6",
          "name": "newMaker",
          "type": "uint256"
        },
        {
          "internalType": "UFixed6",
          "name": "newLong",
          "type": "uint256"
        },
        {
          "internalType": "UFixed6",
          "name": "newShort",
          "type": "uint256"
        },
        {
          "internalType": "Fixed6",
          "name": "collateral",
          "type": "int256"
        },
        {
          "internalType": "bool",
          "name": "protect",
          "type": "bool"
        }
      ],
      "name": "update",
      "outputs": [],
      "stateMutability": "nonpayable",
      "type": "function"
    },
    {
      "inputs": [
        {
          "internalType": "address",
          "name": "account",
          "type": "address"
        },
        {
          "internalType": "UFixed6",
          "name": "newMaker",
          "type": "uint256"
        },
        {
          "internalType": "UFixed6",
          "name": "newLong",
          "type": "uint256"
        },
        {
          "internalType": "UFixed6",
          "name": "newShort",
          "type": "uint256"
        },
        {
          "internalType": "Fixed6",
          "name": "collateral",
          "type": "int256"
        },
        {
          "internalType": "bool",
          "name": "protect",
          "type": "bool"
        },
        {
          "internalType": "address",
          "name": "referrer",
          "type": "address"
        }
      ],
      "name": "update",
      "outputs": [],
      "stateMutability": "nonpayable",
      "type": "function"
    },
    {
      "inputs": [
        {
          "internalType": "address",
          "name": "newBeneficiary",
          "type": "address"
        }
      ],
      "name": "updateBeneficiary",
      "outputs": [],
      "stateMutability": "nonpayable",
      "type": "function"
    },
    {
      "inputs": [
        {
          "internalType": "address",
          "name": "newCoordinator",
          "type": "address"
        }
      ],
      "name": "updateCoordinator",
      "outputs": [],
      "stateMutability": "nonpayable",
      "type": "function"
    },
    {
      "inputs": [
        {
          "components": [
            {
              "internalType": "UFixed6",
              "name": "fundingFee",
              "type": "uint256"
            },
            {
              "internalType": "UFixed6",
              "name": "interestFee",
              "type": "uint256"
            },
            {
              "internalType": "UFixed6",
              "name": "makerFee",
              "type": "uint256"
            },
            {
              "internalType": "UFixed6",
              "name": "takerFee",
              "type": "uint256"
            },
            {
              "internalType": "UFixed6",
              "name": "riskFee",
              "type": "uint256"
            },
            {
              "internalType": "uint256",
              "name": "maxPendingGlobal",
              "type": "uint256"
            },
            {
              "internalType": "uint256",
              "name": "maxPendingLocal",
              "type": "uint256"
            },
            {
              "internalType": "UFixed6",
              "name": "maxPriceDeviation",
              "type": "uint256"
            },
            {
              "internalType": "bool",
              "name": "closed",
              "type": "bool"
            },
            {
              "internalType": "bool",
              "name": "settle",
              "type": "bool"
            }
          ],
          "internalType": "struct MarketParameter",
          "name": "newParameter",
          "type": "tuple"
        }
      ],
      "name": "updateParameter",
      "outputs": [],
      "stateMutability": "nonpayable",
      "type": "function"
    },
    {
      "inputs": [
        {
          "components": [
            {
              "internalType": "UFixed6",
              "name": "margin",
              "type": "uint256"
            },
            {
              "internalType": "UFixed6",
              "name": "maintenance",
              "type": "uint256"
            },
            {
              "components": [
                {
                  "internalType": "UFixed6",
                  "name": "linearFee",
                  "type": "uint256"
                },
                {
                  "internalType": "UFixed6",
                  "name": "proportionalFee",
                  "type": "uint256"
                },
                {
                  "internalType": "UFixed6",
                  "name": "adiabaticFee",
                  "type": "uint256"
                },
                {
                  "internalType": "UFixed6",
                  "name": "scale",
                  "type": "uint256"
                }
              ],
              "internalType": "struct LinearAdiabatic6",
              "name": "takerFee",
              "type": "tuple"
            },
            {
              "components": [
                {
                  "internalType": "UFixed6",
                  "name": "linearFee",
                  "type": "uint256"
                },
                {
                  "internalType": "UFixed6",
                  "name": "proportionalFee",
                  "type": "uint256"
                },
                {
                  "internalType": "UFixed6",
                  "name": "scale",
                  "type": "uint256"
                }
              ],
              "internalType": "struct NoopAdiabatic6",
              "name": "makerFee",
              "type": "tuple"
            },
            {
              "internalType": "UFixed6",
              "name": "makerLimit",
              "type": "uint256"
            },
            {
              "internalType": "UFixed6",
              "name": "efficiencyLimit",
              "type": "uint256"
            },
            {
              "internalType": "UFixed6",
              "name": "liquidationFee",
              "type": "uint256"
            },
            {
              "components": [
                {
                  "internalType": "UFixed6",
                  "name": "minRate",
                  "type": "uint256"
                },
                {
                  "internalType": "UFixed6",
                  "name": "maxRate",
                  "type": "uint256"
                },
                {
                  "internalType": "UFixed6",
                  "name": "targetRate",
                  "type": "uint256"
                },
                {
                  "internalType": "UFixed6",
                  "name": "targetUtilization",
                  "type": "uint256"
                }
              ],
              "internalType": "struct UJumpRateUtilizationCurve6",
              "name": "utilizationCurve",
              "type": "tuple"
            },
            {
              "components": [
                {
                  "internalType": "UFixed6",
                  "name": "k",
                  "type": "uint256"
                },
                {
                  "internalType": "Fixed6",
                  "name": "min",
                  "type": "int256"
                },
                {
                  "internalType": "Fixed6",
                  "name": "max",
                  "type": "int256"
                }
              ],
              "internalType": "struct PController6",
              "name": "pController",
              "type": "tuple"
            },
            {
              "internalType": "UFixed6",
              "name": "minMargin",
              "type": "uint256"
            },
            {
              "internalType": "UFixed6",
              "name": "minMaintenance",
              "type": "uint256"
            },
            {
              "internalType": "uint256",
              "name": "staleAfter",
              "type": "uint256"
            },
            {
              "internalType": "bool",
              "name": "makerReceiveOnly",
              "type": "bool"
            }
          ],
          "internalType": "struct RiskParameter",
          "name": "newRiskParameter",
          "type": "tuple"
        }
      ],
      "name": "updateRiskParameter",
      "outputs": [],
      "stateMutability": "nonpayable",
      "type": "function"
    },
    {
      "inputs": [],
      "name": "verifier",
      "outputs": [
        {
          "internalType": "contract IVerifier",
          "name": "",
          "type": "address"
        }
      ],
      "stateMutability": "view",
      "type": "function"
    },
    {
      "inputs": [
        {
          "internalType": "uint256",
          "name": "timestamp",
          "type": "uint256"
        }
      ],
      "name": "versions",
      "outputs": [
        {
          "components": [
            {
              "internalType": "bool",
              "name": "valid",
              "type": "bool"
            },
            {
              "internalType": "Fixed6",
              "name": "price",
              "type": "int256"
            },
            {
              "components": [
                {
                  "internalType": "Fixed6",
                  "name": "_value",
                  "type": "int256"
                }
              ],
              "internalType": "struct Accumulator6",
              "name": "makerValue",
              "type": "tuple"
            },
            {
              "components": [
                {
                  "internalType": "Fixed6",
                  "name": "_value",
                  "type": "int256"
                }
              ],
              "internalType": "struct Accumulator6",
              "name": "longValue",
              "type": "tuple"
            },
            {
              "components": [
                {
                  "internalType": "Fixed6",
                  "name": "_value",
                  "type": "int256"
                }
              ],
              "internalType": "struct Accumulator6",
              "name": "shortValue",
              "type": "tuple"
            },
            {
              "components": [
                {
                  "internalType": "Fixed6",
                  "name": "_value",
                  "type": "int256"
                }
              ],
              "internalType": "struct Accumulator6",
              "name": "makerFee",
              "type": "tuple"
            },
            {
              "components": [
                {
                  "internalType": "Fixed6",
                  "name": "_value",
                  "type": "int256"
                }
              ],
              "internalType": "struct Accumulator6",
              "name": "takerFee",
              "type": "tuple"
            },
            {
              "components": [
                {
                  "internalType": "Fixed6",
                  "name": "_value",
                  "type": "int256"
                }
              ],
              "internalType": "struct Accumulator6",
              "name": "makerOffset",
              "type": "tuple"
            },
            {
              "components": [
                {
                  "internalType": "Fixed6",
                  "name": "_value",
                  "type": "int256"
                }
              ],
              "internalType": "struct Accumulator6",
              "name": "takerPosOffset",
              "type": "tuple"
            },
            {
              "components": [
                {
                  "internalType": "Fixed6",
                  "name": "_value",
                  "type": "int256"
                }
              ],
              "internalType": "struct Accumulator6",
              "name": "takerNegOffset",
              "type": "tuple"
            },
            {
              "components": [
                {
                  "internalType": "Fixed6",
                  "name": "_value",
                  "type": "int256"
                }
              ],
              "internalType": "struct Accumulator6",
              "name": "settlementFee",
              "type": "tuple"
            },
            {
              "components": [
                {
                  "internalType": "Fixed6",
                  "name": "_value",
                  "type": "int256"
                }
              ],
              "internalType": "struct Accumulator6",
              "name": "liquidationFee",
              "type": "tuple"
            }
          ],
          "internalType": "struct Version",
          "name": "",
          "type": "tuple"
        }
      ],
      "stateMutability": "view",
      "type": "function"
    }
  ],
  "transactionHash": "0x273b421884326cc08159f6c5c6e475e124d6e0e2183c8081f4806e3d9d49e3b6",
  "args": [
    "0xF12a4ACDA6cA2e777b353538cb8e5ad6f05e0437"
  ],
  "numDeployments": 9,
  "solcInputHash": "3f764aef5587b852ab45c361989e44e5",
  "bytecode": "0x60a0346200007757601f62005e5438819003918201601f19168301916001600160401b038311848410176200007b578084926020946040528339810103126200007757516001600160a01b03811681036200007757608052604051615dc490816200009082396080518181816117980152611f400152f35b5f80fd5b634e487b7160e01b5f52604160045260245ffdfe6080806040526004361015610012575f80fd5b5f905f3560e01c90816305349f56146122e95750806309218e91146122c45780630a0090971461229c5780630aaffd2a146121d85780630cdfebfa146121885780631a65df2814611fa25780632b56d95c14611f6f5780632b7ac3f314611f2a57806338af3eed14611f015780634468d9b814611dff5780634549a62914611dc857806355f5751014611d815780635b4b969514611d2d5780636a256b2914611c5a5780636e19368014611c125780636ebc51e11461197f578063736a01df146116965780637cc4d340146116435780637dc0d1d01461161a57806387aee00e1461155e5780638fd3ab801461149a57806390dbc10b1461109057806391eece2814610ca0578063977b1f5f1461080f578063a05f99061461078f578063a4d15487146105df578063ac9ed34b14610596578063ad4d4e2914610562578063b68af80a14610519578063b6a597dd146103ce578063c45a015514610399578063c496969b14610365578063cee6c2ec14610306578063e20ccec3146102d0578063f9f94e34146101d35763fc0c546a146101aa575f80fd5b346101d057806003193601126101d057546040516001600160a01b039091168152602090f35b80fd5b50346101d05760203660031901126101d0576004356001600160a01b03818116918290036102cc5760046020825f80516020615d4f833981519152541660405192838092638da5cb5b60e01b82525afa9081156102c1578491610292575b5016330361027a57600580546001600160a01b031916821790556040519081527fc258faa9a17ddfdf4130b4acff63a289202e7d5f9e42f366add65368575486bc90602090a180f35b604051634d193d1f60e01b8152336004820152602490fd5b6102b4915060203d6020116102ba575b6102ac8183612352565b8101906125e9565b5f610231565b503d6102a2565b6040513d86823e3d90fd5b5f80fd5b50346101d057806003193601126101d0576102e96127ae565b506101806102f760166146ab565b610304604051809261248e565bf35b50346101d05760403660031901126101d0576004356001600160a01b03811691908290036102cc5760406103589160c09361033f6126d1565b508152601f602052818120602435825260205220614751565b6103046040518092612389565b50346101d05760203660031901126101d0576102f76040610180926103886127ae565b5060043581526014602052206146ab565b50346101d057806003193601126101d0575f80516020615d4f833981519152546040516001600160a01b039091168152602090f35b50346101d05760403660031901126101d0577f6fee9688c285c5c5c97d6a1a29adced674e6b2ad0888b8ad2116b58a8b3ea2486001815410156105005760019055303b1515806104f9575b6104e057335f80516020615d4f83398151915255303b1515806104f2575b6104e05760015f80516020615d2f833981519152556001600160a01b03600435818116908190036102cc5782546001600160a01b03199081169091178355602435918216918290036104dc576002541617600255807f2801b00eb06461cf9fcb9758b5fafd884ff06a86177386f73b6c49f0bf5a5af0557fbe9b076dc5b65990cca9dd9d7366682482e7817a6f6bc7f4faf4dc32af497f32602060405160018152a180f35b8280fd5b60405163b9a621e160e01b8152600490fd5b5080610437565b5080610419565b604051631edb9c6d60e11b815260016004820152602490fd5b50346101d05760403660031901126101d0576001600160a01b03600435818116908190036102cc578260409160209452601b845281812060243582528452205416604051908152f35b50346101d057806003193601126101d05761057b612bf0565b50610140610589600961461c565b610304604051809261255e565b50346101d05760403660031901126101d0576001600160a01b03600435818116908190036102cc578260409160209452601c845281812060243582528452205416604051908152f35b50346101d057806003193601126101d0575f80516020615d4f83398151915254604051638da5cb5b60e01b81526001600160a01b03916020908290600490829086165afa80156107845782918491610765575b5016330361027a57819081610647600b614196565b9160c08301908151600161065a826145bd565b14610743575b5081515f1961066e826145bd565b1461071c575b505080516040519081527f25e5e4c41e0fec8db036b4544824413a63ffe455e2b4decd71d72932f607ff5960203392a25273cF1384b31AF4DCE7A52F34550A876e062d1f697D90813b15610718576106ed6101448492604051948593849263045a766b60e01b8452600b60048501526024840190612809565b5af4801561070d576106fc5750f35b8161070691612352565b6101d05780f35b6040513d84823e3d90fd5b5050fd5b61073461072f61073c93865416926153ba565b6142f5565b9033906145d9565b5f80610674565b61075f9061075761072f84875416926153ba565b90339061430f565b5f610660565b61077e915060203d6020116102ba576102ac8183612352565b5f610632565b6040513d85823e3d90fd5b50346101d057806003193601126101d0576107a8612b9a565b506101206107b6600b614196565b602060e06040519280518452828101518385015260408101516040850152606081015160608501526080810151608085015260a081015160a085015260c081015160c08501520151805160e08401520151610100820152f35b50346101d05760e03660031901126101d0576004356001600160a01b0380821682036102cc5760a435151560a435036102cc578060c4351660c435036102cc5760025f80516020615d2f8339815191525414610c8e57602060049160025f80516020615d2f833981519152555f80516020615d4f833981519152541660405192838092635c975abb60e01b82525afa908115610784578391610c54575b50610c42578180806108c2938160c43591612e54565b906040516397cd07c560e01b81526108dd60048201836129fb565b6108eb610a64820184612ac5565b6084356110e4820152602435611104820152604435611124820152606435611144820152608081611164817340e52D4dEE5Fb7a703Fc61F6174a9212Bd65F0915af480156102c1578490859286908792610bf6575b5060808501519361014087015161096460808901519261095e6127ae565b50615391565b936109726020830151615391565b938a85128686810312811690878781031390151617610be25761099490615391565b6109a16040840151615391565b918b83128284810312811690838581031390151617610bce5760606109c86109d092615391565b940151615391565b938b85128486810312811690858781031390151617610bce578b8b8b6101808c8c60ff8d8d8d8d8d8b9d8c610a34610b4e9f610a2f610a24610a138a8c036153ba565b610a1e8888036153ba565b90613bca565b610a1e8989036153ba565b6147b6565b9881878903135f14610bc557610a4b8789036153ba565b9180888a03125f14610bbc57610a62888a036153ba565b9381868203135f14610bb357610a798682036153ba565b9582818303125f14610ba857610a8f91036153ba565b9581888203135f14610b9f57610aa68882036153ba565b9782818303125f14610b9457610abc91036153ba565b9760a43515610b8d576001995b149a8b15610b8657819b5b15610b7e579b5b610ae86040519e8f612352565b8d5260208d015260408c015260608b015260808a015260a089015260c088015260e087015261010086015216610120840152610140830152610160820152610b2f8161596c565b1580610b6e575b15610b62575b60c43592610b486126d1565b926131af565b60015f80516020615d2f8339815191525580f35b60016020820152610b3c565b50610b7881615991565b15610b36565b50809b610adb565b809b610ad4565b8199610ac9565b5050610abc816153ba565b610aa6826153ba565b5050610a8f816153ba565b610a79826153ba565b610a62816153ba565b610a4b826153ba565b634e487b7160e01b8c52601160045260248cfd5b634e487b7160e01b8b52601160045260248bfd5b93505050506080813d608011610c3a575b81610c1460809383612352565b81010312610c365780516020820151604083015160609093015190925f610940565b8380fd5b3d9150610c07565b604051634b94d2bb60e01b8152600490fd5b90506020813d602011610c86575b81610c6f60209383612352565b810103126104dc57610c8090612703565b5f6108ac565b3d9150610c62565b6040516345f6780960e11b8152600490fd5b50346101d05760c03660031901126101d0576004356001600160a01b0380821682036102cc5760a435151560a435036102cc5760025f80516020615d2f8339815191525414610c8e57602060049160025f80516020615d2f833981519152555f80516020615d4f833981519152541660405192838092635c975abb60e01b82525afa908115610784578391611056575b50610c42578180808080610d4395612e54565b6040516397cd07c560e01b815290610d5e60048301846129fb565b610d6c610a64830182612ac5565b6084356110e4830152602435611104830152604435611124830152606435611144830152608082611164817340e52D4dEE5Fb7a703Fc61F6174a9212Bd65F0915af480156102c157849085938690879261100e575b50608086015194610140850151610ddf60808701519261095e6127ae565b93610ded6020830151615391565b938a85128686810312811690878781031390151617610be257610e0f90615391565b610e1c6040840151615391565b918b83128284810312811690838581031390151617610bce5760606109c8610e4392615391565b938b85128486810312811690858781031390151617610bce578a8a8a8e8b60ff8c8c8c859c610b4e9c879c610e8f899d610a2f610a13610e84898b036153ba565b610a1e8787036153ba565b9789868803135f1461100557610ea68688036153ba565b908a878903125f14610ffc57610ebd8789036153ba565b928b858203135f14610ff357610ed48582036153ba565b948c818303125f14610fe857610eea91036153ba565b948b878203135f14610fdf57610f018782036153ba565b968c818303125f14610fd457610f1791036153ba565b9660a43515610fcd576001985b14998a15610fc6578b9a5b15610fbf579a5b60206040519e8f90610f4a61018083612352565b8152015260408d015260608c015260808b015260a08a015260c089015260e088015261010087015216610120850152610140840152610160830152610f8e8261596c565b1580610faf575b15610fa3575b610b486126d1565b60016020830152610f9b565b50610fb982615991565b15610f95565b508a610f36565b809a610f2f565b8b98610f24565b5050610f178b6153ba565b610f018c6153ba565b5050610eea8b6153ba565b610ed48c6153ba565b610ebd8b6153ba565b610ea68a6153ba565b94505050506080823d60801161104e575b8161102c60809383612352565b81010312610c365781516020830151604084015160609094015190935f610dc1565b3d915061101f565b90506020813d602011611088575b8161107160209383612352565b810103126104dc5761108290612703565b5f610d30565b3d9150611064565b50346101d0576102e03660031901126101d0576040516110b26101a082612352565b60043581526020602435818301526110cb366044612520565b604083015260608060c319360112610c36576040516110ea8282612352565b60c435815260e435838201526101043560408201528184015261012435608084015261014490813560a08501526101643560c085015261112c36610184612520565b60e085015280610203193601126114965760405161114a8282612352565b6102043581526102243584820152610244356040820152610100850152610120926102643584860152610284356101408601526102a4356101608601526102c43580151581036102cc5761018086015260018060a01b039081600554163314159081611429575b5061141757856111c1600b614196565b946111cc600d612c3d565b926111d760066137d6565b97600483739E5345409e2a7e6CF0417A3f6A6A680340aDbcF2935f80516020615d4f83398151915254166040519283809263ad4d4e2960e01b82525afa93841561140c5785946113dd575b5050813b15610c365761042461125a91859361126560405196879586946302903c7960e21b86526006600487015260248601906129bc565b61030484019061267b565b5af4801561070d576113c8575b506112c69181604061128460066137d6565b98015160406112b9611299828c0151956147cf565b94856112a860a08d01516153ba565b9782858c8b95015191015190615b64565b9682015191015190615b64565b908582820392128183128116918313901516176113b45760c0830180518683820393128184128116918413901516176113a05752839173cF1384b31AF4DCE7A52F34550A876e062d1f697D9190823b15610c3657839161134391604051948593849263045a766b60e01b8452600b60048501526024840190612809565b5af4801561070d57611387575b506040517f685ea8dd49033251570436255683e840d43dd33fbc52b69e04450747dc56fed2908061138185826123d9565b0390a180f35b8161139191612352565b61139c57815f611350565b5080fd5b634e487b7160e01b86526011600452602486fd5b634e487b7160e01b85526011600452602485fd5b6113d3828092612352565b6101d0575f611272565b6113fd929450803d10611405575b6113f58183612352565b810190612608565b915f80611222565b503d6113eb565b6040513d87823e3d90fd5b604051639bca062560e01b8152600490fd5b9050600481835f80516020615d4f833981519152541660405192838092638da5cb5b60e01b82525afa90811561148b578392899261146e575b5050163314155f6111b1565b6114849250803d106102ba576102ac8183612352565b5f80611462565b6040513d8a823e3d90fd5b8480fd5b50346101d057806003193601126101d0575f80516020615d4f83398151915254604051638da5cb5b60e01b81526001600160a01b03916020908290600490829086165afa90811561078457839161153f575b5016330361027a578073d4CCf675B3Bf6536990cc0B1D937F6db8a8b2541803b1561153c5781602491604051928380926317251b7160e31b8252600d60048301525af4801561070d576106fc5750f35b50fd5b611558915060203d6020116102ba576102ac8183612352565b5f6114ec565b50346101d05760203660031901126101d0576115926040610180926115816128d3565b506004358152601360205220614473565b604051908051151582526020810151602083015260408101515160408301526060810151516060830152608081015151608083015260a08101515160a083015260c08101515160c083015260e08101515160e0830152610100808201515190830152610120808201515190830152610140808201515190830152610160809101515190820152f35b50346101d057806003193601126101d0576002546040516001600160a01b039091168152602090f35b50346101d05760403660031901126101d0576004356001600160a01b03811691908290036102cc5760406102f7916101809361167d6127ae565b5081526015602052818120602435825260205220614088565b50346101d0576101c03660031901126101d0576004356001600160a01b0380821682036102cc576101803660231901126104dc576101a435906001600160401b038211610c365736602383011215610c3657816004013591846116f884612505565b916117066040519384612352565b84835260209436602482840101116104dc5780602487930183860137830101525f80516020615d2f833981519152926002845414610c8e5760028455600481845f80516020615d4f833981519152541660405192838092635c975abb60e01b82525afa91821561197457879261193a575b5050610c4257606435620f424060026117908284615375565b1461192857837f00000000000000000000000000000000000000000000000000000000000000001695863b156119195760405193635f2d6ed760e01b855260243580600487015260443591826024880152856044880152608435938885168086036102cc57606489015260a435958987168088036102cc5760848a015260c435988960a482015260e4359c8b8e9c8d16809d036102cc578f9c60c4840152610104918235968288168089036102cc5760e48601526101249384359384168094036102cc578f946118958795936101a087959386948a968601526101449081359086015261016490813590860152610184908135908601528401526101a483019061285f565b03925af1801561191d576118ef575b509160019b6118e68b8e81806118eb9f839f9d9b99819f9d9b998b90836118e0846118db8f6118d585985f1961289d565b9061289d565b614352565b91614380565b614380565b5580f35b9961190581809a9896949c9b999795939b612352565b61191957919395975f9991939597996118a4565b8780fd5b6040513d8d823e3d90fd5b604051630f4e914b60e11b8152600490fd5b90809250813d831161196d575b6119518183612352565b810103126119695761196290612703565b5f80611777565b8580fd5b503d611947565b6040513d89823e3d90fd5b50346101d057602090816003193601126101d0576001600160a01b039060043582811691908290036102cc578133141580611b94575b611b825780926119c5600b614196565b838352601086526119d860408420613a12565b90600487845f80516020615d4f833981519152541660405192838092638da5cb5b60e01b82525afa90811561140c579084918691611b65575b50168514611b4b575b82600254168514611b33575b82600554168514611b1b575b83611a436060840197885190613bca565b965273cF1384b31AF4DCE7A52F34550A876e062d1f697D90813b1561149657611a8d6101448692604051948593849263045a766b60e01b8452600b60048501526024840190612809565b5af480156102c157908491611b06575b509084611ab292526010875260408420614235565b83611ac3575b505050604051908152f35b611ad2915416610757846142f5565b604051908282527f4a34429a0ef883c4301d5b40aa8ae85d4eb024946062f2c7ebd8320acedc831a843393a35f8080611ab8565b81611b1091612352565b6104dc57825f611a9d565b83611b2c6080830197885190613bca565b9652611a32565b83611b446060830197885190613bca565b9652611a26565b9450604085019483611b5e875182613bca565b9652611a1a565b611b7c9150893d8b116102ba576102ac8183612352565b5f611a11565b604051633222db4560e01b8152600490fd5b50604484845f80516020615d4f83398151915254166040519283809263131bac4760e11b82528760048301523360248301525afa90811561070d578291611bdd575b50156119b5565b90508481813d8311611c0b575b611bf48183612352565b8101031261139c57611c0590612703565b5f611bd6565b503d611bea565b50346101d05760203660031901126101d0576004356001600160a01b03811691908290036102cc5760406102f79161018093611c4c6127ae565b508152601960205220614088565b50346101d05760203660031901126101d0576004356001600160a01b0380821682036102cc575f80516020615d2f833981519152906002825414610c8e576020600491600284555f80516020615d4f833981519152541660405192838092635c975abb60e01b82525afa9081156102c1578491611cf3575b50610c42576118eb611ce5600193613a96565b611cee81613bd7565b613ec3565b90506020813d602011611d25575b81611d0e60209383612352565b81010312610c3657611d1f90612703565b5f611cd2565b3d9150611d01565b50346101d05760203660031901126101d0576004356001600160a01b03811691908290036102cc576040611d7491608093611d666125c3565b508152601060205220613a12565b610304604051809261232f565b50346101d05760203660031901126101d0576004356001600160a01b03811691908290036102cc576040611d7491608093611dba6125c3565b50815260116020522061395e565b50346101d057806003193601126101d057611de1612730565b50611dfb611def60066137d6565b604051918291826123d9565b0390f35b50346101d05760803660031901126101d0576004356001600160a01b0380821682036102cc5760643581811681036102cc575f80516020615d2f833981519152916002835414610c8e576020600491600285555f80516020615d4f833981519152541660405192838092635c975abb60e01b82525afa90811561140c578591611ec7575b50610c42578381611e9d8280806118eb968160019a612e54565b611ebe6080830151610140830151608084015191604435916024359161309b565b90610b486126d1565b90506020813d602011611ef9575b81611ee260209383612352565b8101031261149657611ef390612703565b5f611e83565b3d9150611ed5565b50346101d057806003193601126101d0576004546040516001600160a01b039091168152602090f35b50346101d057806003193601126101d0576040517f00000000000000000000000000000000000000000000000000000000000000006001600160a01b03168152602090f35b50346101d05760203660031901126101d057610358604060c092611f916126d1565b506004358152601e60205220612cd4565b50346102cc5761014090816003193601126102cc5760405191611fc58184612352565b6004358352602435602084015260443560408401526064356060840152608435608084015260a43560a084015260c43560c084015260e43560e08401526101043580151581036102cc576101008401526101243580151581036102cc57610120848101919091525f80516020615d4f83398151915254604051638da5cb5b60e01b81526001600160a01b03918216929190602081600481875afa908115612141575f91612169575b5016330361027a57600481731016B0E925078cCD844ea7931Bcf942033A1b47f936040519283809263ad4d4e2960e01b82525afa918215612141575f9261214c575b5050813b156102cc576120f16102845f9260405194859384926373a328f760e11b8452600960048501526120e6602485018c61255e565b61016484019061267b565b5af4801561214157612120575b505f80516020615d6f833981519152919261211c604051809261255e565ba180f35b5f80516020615d6f83398151915292505f61213a91612352565b5f916120fe565b6040513d5f823e3d90fd5b6121629250803d10611405576113f58183612352565b5f806120af565b612182915060203d6020116102ba576102ac8183612352565b5f61206d565b346102cc5760403660031901126102cc576004356001600160a01b038116908190036102cc576121b66125c3565b505f52601a60205260405f206024355f526020526080611d7460405f20612c87565b346102cc5760203660031901126102cc576004356001600160a01b03818116918290036102cc5760046020825f80516020615d4f833981519152541660405192838092638da5cb5b60e01b82525afa908115612141575f9161227d575b5016330361027a57600480546001600160a01b031916821790556040519081527feee59a71c694e68368a1cb0d135c448051bbfb12289e6c2223b0ceb100c2321d90602090a1005b612296915060203d6020116102ba576102ac8183612352565b83612235565b346102cc575f3660031901126102cc576005546040516001600160a01b039091168152602090f35b346102cc575f3660031901126102cc576122dc6125c3565b506080611d74600d612c3d565b346102cc5760403660031901126102cc576004356001600160a01b0381811692918390036102cc576020925f52601d835260405f206024355f52835260405f2054168152f35b606080918051845260208101516020850152604081015160408501520151910152565b601f909101601f19168101906001600160401b0382119082101761237557604052565b634e487b7160e01b5f52604160045260245ffd5b60a0809180518452602081015160208501526040810151604085015260608101516060850152608081015160808501520151910152565b6040809180518452602081015160208501520151910152565b9190916102c06102e082019380518352602081015160208401526124056040820151604085019061232f565b612417606082015160c08501906123c0565b608081015190610120918285015260a0810151610140908186015260c082015190610160918287015260e083015193612456610180958689019061232f565b61246a6101008501516102008901906123c0565b8301516102608701528201516102808601528101516102a085015201511515910152565b805182526020810151602083015260408101516040830152606081015160608301526080810151608083015260a081015160a083015260c081015160c083015260e081015160e083015261010080820151908301526101208082015190830152610140808201519083015261016080910151910152565b6001600160401b03811161237557601f01601f191660200190565b91908260809103126102cc5760405161253a608082612352565b60608082948035845260208101356020850152604081013560408501520135910152565b805182526020810151602083015260408101516040830152606081015160608301526080810151608083015260a081015160a083015260c081015160c083015260e081015160e083015261010080820151151590830152610120809101511515910152565b604051906125d2608083612352565b5f6060838281528260208201528260408201520152565b908160209103126102cc57516001600160a01b03811681036102cc5790565b809161012092839103126102cc576126236040519283612352565b805182526020810151602083015260408101516040830152606081015160608301526080810151608083015260a081015160a083015260c081015160c083015260e081015160e0830152610100809101519082015290565b805182526020810151602083015260408101516040830152606081015160608301526080810151608083015260a081015160a083015260c081015160c083015260e081015160e083015261010080910151910152565b604051906126e060c083612352565b5f60a0838281528260208201528260408201528260608201528260808201520152565b519081151582036102cc57565b6040519061271f606083612352565b5f6040838281528260208201520152565b604051906127406101a083612352565b5f610180838281528260208201526127566125c3565b6040820152612763612710565b60608201528260808201528260a08201528260c08201526127826125c3565b60e082015261278f612710565b6101008201528261012082015282610140820152826101608201520152565b604051906127be61018083612352565b5f610160838281528260208201528260408201528260608201528260808201528260a08201528260c08201528260e08201528261010082015282610120820152826101408201520152565b602060e06101009280518552828101518386015260408101516040860152606081015160608601526080810151608086015260a081015160a086015260c081015160c08601520151805160e08501520151910152565b91908251928382525f5b848110612889575050825f602080949584010152601f8019910116010190565b602081830181015184830182015201612869565b81810292915f8212600160ff1b8214166128bf5781840514901517156128bf57565b634e487b7160e01b5f52601160045260245ffd5b6040908151916128e561018084612352565b610160835f81526129b56020935f8584015280516129038682612352565b5f81528184015280516129168682612352565b5f81526060840152805161292a8682612352565b5f81526080840152805161293e8682612352565b5f815260a084015280516129528682612352565b5f815260c084015280516129668682612352565b5f815260e0840152805161297a8682612352565b5f8152610100840152805161298f8682612352565b5f815261012084015280516129a48682612352565b5f8152610140840152519384612352565b5f83520152565b6102c09080518352602081015160208401526124056040820151604085019061232f565b60408091805184526020810151602085015201511515910152565b80516001600160a01b03168252602080820151612ac393926108e09261014092612a279186019061255e565b612a3a60408201516101608601906129bc565b612a4d60608201516104408601906129e0565b60808101516104a0850152612a6b60a08201516104c0860190612809565b612a7e60c08201516105e086019061232f565b612a9160e082015161066086019061232f565b612aa56101008201516106e086019061232f565b612ab961012082015161076086019061248e565b015191019061248e565b565b6101a061066091805115158452602081015115156020850152604081015160018060a01b0380911660408601528060608301511660608601526080820151608086015260a08201511660a085015260c081015160c0850152612b2f60e082015160e086019061248e565b612b4361010082015161026086019061248e565b612b576101208201516103e086019061232f565b612b6b61014082015161046086019061232f565b612b7f6101608201516104e0860190612389565b612b936101808201516105a0860190612389565b0151910152565b60405190612baa61010083612352565b815f81525f60208201525f60408201525f60608201525f60808201525f60a08201525f60c082015260e060405191612be3604084612352565b5f83525f60208401520152565b60405190612c0061014083612352565b5f610120838281528260208201528260408201528260608201528260808201528260a08201528260c08201528260e0820152826101008201520152565b612c456125c3565b5054604051906001600160401b03612c5e608084612352565b63ffffffff82168352808260401c1660208401528160801c16604083015260c01c606082015290565b612c8f6125c3565b505460405190612ca0608083612352565b8060d01b60d01d825265ffffffffffff8160301c1660208301528060601b60c01d604083015260201b60c01d606082015290565b612cdc6126d1565b5054604051906001600160401b0390612cf660c084612352565b63ffffffff811683525f6020840152818160201c166040840152818160601c16606084015260a01c1660808201525f60a082015290565b60405190612d3d61016083612352565b815f8152612d49612bf0565b6020820152612d56612730565b6040820152612d63612710565b60608201525f6080820152612d76612b9a565b60a0820152612d836125c3565b60c0820152612d906125c3565b60e0820152612d9d6125c3565b610100820152612dab6127ae565b610120820152610140612dbc6127ae565b910152565b60405190612dd16101c083612352565b5f6101a0838281528260208201528260408201528260608201528260808201528260a08201528260c0820152612e056127ae565b60e0820152612e126127ae565b610100820152612e206125c3565b610120820152612e2e6125c3565b610140820152612e3c6126d1565b610160820152612e4a6126d1565b6101808201520152565b90612e78606095949297969397612e69612d2d565b50612e72612dc1565b50613a96565b968793612e8485613bd7565b612e8c612dc1565b968793612eb0612e9f60e08901516153c9565b610120818189015289015190615409565b608461010094612ed6612ec5878b01516153c9565b61014081818b01528b015190615409565b60a08901948551515f5260209660148852604096612ef5885f206146ab565b60e08b015260018060a01b039b8c9a8b92838351165f5260158c528a5f209460c08401958651515f528d52612f2b8c5f20614088565b9083015251515f52601e8b52612f428a5f20612cd4565b610160820152828251165f52601f8b52895f208451515f528b52612f678a5f20614751565b610180820152828251165f52601b8b52895f208451515f528b52828a5f2054168a820152828251165f52601c8b52895f208451515f528b5288838b5f20541691015251165f52601d8852865f209051515f52875287865f20541660a08d01526101a08c01528c8780805f80516020615d4f8339815191525416925116928751998a96879563029138af60e21b875260048701523360248701521660448501521660648301525afa8015613091575f935f925f92613041575b505060808801521515908601521515845216613039575090565b60c082015290565b92509350506060833d606011613089575b8161305f60609383612352565b810103126102cc5761307083612703565b9061307c838501612703565b9301519092905f8061301f565b3d9150613052565b50513d5f823e3d90fd5b94936130cb9192936130ab6127ae565b9687526040870152836131a65760ff5f5b166020870152610a2f846153ba565b6101608501526130da826145bd565b8015918215613191575b8215613175575b505015613133575f81131561312a57613103816153ba565b60a08401525f81121561312057613119906153ba565b60e0830152565b506131195f6153ba565b6131035f6153ba565b5f81131561316c57613144816153ba565b6101008401525f8112156131625761315b906153ba565b60c0830152565b5061315b5f6153ba565b6131445f6153ba565b613189919250613184906147cf565b6145bd565b145f806130eb565b915061319f613184836147cf565b15916130e4565b60ff60016130bc565b93949190946101209283602087015101945f95516137c45760808701908151916101008a019283519081518111613780575b5050519260e08a01938451908151811161374e575b505061320586888c0151615409565b6101409461321687878d0151615409565b613221878551615553565b61322c878651615553565b61323987898c0151615553565b61324687878c0151615553565b610160808c0196613258858951615661565b6101808d0199613269868c51615661565b60c08d01516040808c0151910180515f83820193841291129080158216911516176128bf5752890151613743575b8801511590811591613736575b50613704575b5060a08201516136c0575b506132bf8561596c565b15806136b0575b1561364c575b731451baCEf80518FeA01FdEd8e32Ccccc68c1A8C890813b15611919576133166113248a8c9461333a8c956133216040519889978896638df462cb60e01b885260048801906129fb565b610a64860190612ac5565b61332f6110e485018d61248e565b611264840190612389565b5af4801561197457908791613637575b505061339c9061336e60a0890193845151895260146020526040892090519061515f565b87516001600160a01b0316875260156020908152604080892060c08b0151518a52909152872090519061528d565b51518452601e6020526040842090516133b481615c3c565b805160408083015160608085015160809095015160a01b600160a01b600160e01b031694901b600160601b600160a01b0316602091821b600160201b600160601b031663ffffffff9490941693909317929092179290921790925585516001600160a01b03168552601f825280852060c0870151518652909152832091519461343c86615c3c565b60208601516002906134569060016001603f1b03906159f6565b146136255760208601516134739060016001603f1b0319906159f6565b156136255760a0860151600290613492906001600160401b0390615375565b146136255785516020808801516040808a01516060808c015160808d015160a09d8e0151918e1b600160a01b600160e01b031693831b600160601b600160a01b031695871b600160201b600160601b031663ffffffff98909816979097179490941791909117885591811b600160401b600160801b03166001600160401b0394909416939093176001968701558383015188516001600160a01b039081168952601b845284892060c08b018051518b52908552858a2080546001600160a01b0319908116948416949094179055928601518a5182168a52601c8552858a208451518b528552858a20805484169183169190911790559490990151885185168852601d835283882091515188529152818620805490981692169190911790955580850151612ac395926135c3826145bd565b14613605575b5001515f196135d7826145bd565b146135e4575b5050613ec3565b61075761072f6135fe9360018060a01b03905416926153ba565b5f806135dd565b61361f9061073461072f60018060a01b03875416926153ba565b5f6135c9565b604051637e81879b60e11b8152600490fd5b8161364191612352565b61196957855f61334a565b60025488516001600160a01b039182169116813b156102cc575f91604483926040519485938492631a9be9fd60e11b845230600485015260248401525af180156121415761369b575b506132cc565b6136a89197505f90612352565b5f955f613695565b506136ba85615991565b156132c6565b60a08a0180516001600160a01b039182918216156136fa575b51169116036136e8575f6132b5565b604051639dbdc5fd60e01b8152600490fd5b81841681526136d9565b60608b0180516001600160a01b0391829182161561372c575b51169116036136e8575f6132aa565b818416815261371d565b905087015115155f6132a4565b3360408e0152613297565b61375791615534565b5f6101608b015161376781615851565b5260a08901516137778151614803565b90525f806131f6565b61378991615534565b5f6101808b015161379981615851565b525f60408b01525f60608b01525f60a08b015260c08901516137bb8151614803565b90525f806131e1565b604051630b8b968760e31b8152600490fd5b60ff6101a0916137e4612730565b50805490600260018201549101549162ffffff9160608365ffffffffffff93613811858560481c16614811565b604093845191613822608084612352565b848460301c168352848460481c1660208401528484831c168684015281830152613850878760181c16614811565b9085519161385e8284612352565b858560781c168352858560901c16602084015286830152613883888560a81c16614811565b92865196613892608089612352565b868960781c168852868960901c166020890152868960a81c1681890152868960c01c16838901528051986138c6848b612352565b8a8d168a5260081b60e01d60208a01528b60b01b60e01d818a01526138ed81519e8f612352565b8d87871690528d6020888860181c169101528d01528b015260808a015260d81c1660a088015263ffffffff8560b01c1660c088015260e0870152610100860152808360501c166101208601528260801c166101408501528160d01c1661016084015260e81c16151561018082015290565b6139666125c3565b50600181549101548160f81c1590815f14613a055760038116915b156139f05760021c60016001603e1b0316905b806139e957815b600182036139e057600281925b036139d857915b63ffffffff604051946139c3608087612352565b16845260208401526040830152606082015290565b505f916139af565b60025f926139a8565b5f9161399b565b50602282901c60016001603e1b031690613994565b60038360201c1691613981565b613a1a6125c3565b50546040519063ffffffff613a30608084612352565b8181168352602082811c90911690830152608081811b60c01d60408401521c6001600160401b0316606082015290565b91908260609103126102cc57604051613a7a606082612352565b6040612dbc818395805185526020810151602086015201612703565b906004613aa1612d2d565b6001600160a01b03938416808252909390613abc600961461c565b60208601526080613acd60066137d6565b926040938488015260025416835194858092631006976960e11b82525afa8015613bc0575f905f90613b7e575b613b76945060808701526060860152613b13600b614196565b60a0860152805f526010602052613b2b825f20613a12565b60c0860152613b3a600d612c3d565b60e0860152805f526011602052613b52825f2061395e565b610100860152613b6260166146ab565b6101208601525f5260196020525f20614088565b610140830152565b505060803d608011613bb9575b613b958185612352565b8301926080818503126102cc576060613bb1613b769583613a60565b910151613afa565b503d613b8b565b82513d5f823e3d90fd5b919082018092116128bf57565b90604091825192613be9606085612352565b613bf16128d3565b845260209384810194613c026125c3565b8652828201613c0f612710565b815260e08501958651515f5260138352613c2a855f20614473565b845260018060a01b0394858751165f52601a8452805f20986101008801998a51515f528552613c5a825f20612c87565b905285600254169888515196825194630e0886f960e41b8652600498600487015260a086602481819f5afa958615613eb9575f96613e87575b50859052613ca660a08a019586516156f2565b613cae6127ae565b995b8551878151910151809114159081613e43575b5015613cff57868651015160018101809111613ced578b8b613ce8928b835192614943565b613cb0565b8c60118b634e487b7160e01b5f52525ffd5b60c08a018051888151910151141580613df2575b15613d3c57879051015160018101809111613ced578b8b613d37928b835192614e00565b613cff565b50939a509594939198509550610120838801510151613de8576060870191838351519151518211613dbe575b50505051519351518411613d7f575b505050505050565b613db395613dad9160c08701908082510151958851165f526015815280835f20925101515f52525f20614088565b93614e00565b5f8080808080613d77565b613de09251015190815f5260148552613dd88a5f206146ab565b91868a614943565b5f8083613d68565b5050505050505050565b509a50818a51165f5260158752835f20878c51015160018101809111613e31575f528752613e21845f20614088565b9a60608b0151518c511115613d13565b8d60118c634e487b7160e01b5f52525ffd5b80929c506001915001809111613e75575f5260148652613e64835f206146ab565b9960608a0151518b5111155f613cc3565b8b60118a634e487b7160e01b5f52525ffd5b613eaa91965060a03d60a011613eb2575b613ea28183612352565b810190614829565b50945f613c93565b503d613e98565b84513d5f823e3d90fd5b60a0810151919073cF1384b31AF4DCE7A52F34550A876e062d1f697D803b156102cc576101445f60409283519283809263045a766b60e01b8252613f13859a600b60048501526024840190612809565b5af48015613bc057614073575b5081516001600160a01b039081168552601060205281852060c0840151613f4691614235565b8473d4CCf675B3Bf6536990cc0B1D937F6db8a8b254160e0850151813b156104dc57613f9160a48492875194859384926366e4915160e01b8452600d6004850152602484019061232f565b5af4801561406957614054575b505080835116855260116020528185208573fE8Fa955f5b42b6Db237aD84f9a20b7beac9EA2561010086015190803b156104dc57613ff99360a49187519586948593635c7731d160e11b85526004850152602484019061232f565b5af4801561404a57614035575b5090612ac3939461014092614021610120860151601661515f565b84511681526019602052209101519061528d565b614040868092612352565b611496575f614006565b83513d88823e3d90fd5b8161405e91612352565b61149657845f613f9e565b84513d84823e3d90fd5b6140809194505f90612352565b5f925f613f20565b6140906127ae565b506001815491015460038260801c169060018080603e1b0393848160821c16948160c01c1663ffffffff95851595865f1461418f5781965b1561418857825b8186149081156141815783915b1561417857600281935b1493841561417057935b1561416857935b868060401b03986040519a61410e6101808d612352565b8088168c528760201c1660208c01528660801b60c01d60408c015260608b015260808a015260a089015260c088015260e087015261010086015260fe1c1661012084015281811661014084015260401c1661016082015290565b505f936140f7565b505f936140f0565b60025f936140e6565b5f916140dc565b5f926140cf565b5f966140c8565b61419e612b9a565b50600181549101549063ffffffff9165ffffffffffff604051926141c3604085612352565b8260e01b60e01d84528260c81b60e81d6020850152604051946141e861010087612352565b80821686528160201c166020860152818160401c166040860152818160701c16606086015260a01c1660808401528060881b60c01d60a084015260481b60c01d60c083015260e082015290565b9063ffffffff808251116142e35760208201818151116142e35760408301916002614267600180603f1b0385516159f6565b146142e35782516142819060016001603f1b0319906159f6565b156142e3576060840193600261429e60018060401b038751615375565b146142e3575191519251935160801b600160801b600160c01b031660409490941b600160401b600160801b031660209390931b63ffffffff60201b1691161717179055565b60405163320f423b60e21b8152600490fd5b64e8d4a51000908181029181830414901517156128bf5790565b60405163a9059cbb60e01b60208201526001600160a01b039283166024820152604480820194909452928352612ac392919061434c606484612352565b16615a07565b811561436c57600160ff1b81145f198314166128bf570590565b634e487b7160e01b5f52601260045260245ffd5b620f42406118db6143a8879a899c9a61444697989a612ac39f979a6143c39b61443698612e54565b9790965f6080890151916101408b015160808c01519361309b565b9760c0880151946143d26126d1565b9a6143dc8b615b16565b1515908161446a575b5061445e575b6143ff60a08b01516101008c015190613bca565b61441260c08c015160e08d015190613bca565b60608d015260408c015215614450575f5b60808b01526144318a6147cf565b61289d565b60208701526101608501516147b6565b60a08501526131af565b61445989615b16565b614423565b60208a01518b526143eb565b9050155f6143e5565b61447b6128d3565b508054600182015491600201548260c0916040938451916020948594846144a3878097612352565b8460b81b831d815288516144b78782612352565b8560781b841d81528951916144cc8884612352565b8660381b851d835260d09a8b97898251966144e78289612352565b898b1b8b1d88528351996144fb838c612352565b60a01b8b1d8a5283519a61450f838d612352565b8160901b811d8c5284519c614524908e612352565b8160601b811d8d5284519d614539908f612352565b8d8260301b821d905284519e8f9061455091612352565b1d8d528251809e6145618383612352565b8360081b901d905282519e8f9261457a61018085612352565b60ff1615158352881b881d9101528c015260608b015260808a015260a089015287015260e086015261010085015261012084015261014083015261016082015290565b5f81136145d3575f136145ce575f90565b5f1990565b50600190565b6040516323b872dd60e01b60208201526001600160a01b039283166024820152306044820152606480820194909452928352612ac392919061434c608484612352565b614624612bf0565b50546008808260c81c62ffffff61ffff946040519561464561014088612352565b8282168752828260181c166020880152828260301c166040880152828260481c166060880152828260601c166080880152808260781c1660a08801528160881c1660c087015260981c1660e0850152600480821614610100850152161461012082015290565b6146b36127ae565b5080546001820154600290920154604051926001600160401b039263ffffffff6146df61018087612352565b80821686528160201c1660208601528060801b60c01d6040860152838160801c16606086015260c01c608085015282811660a0850152828160401c1660c0850152828160801c1660e085015260c01c6101008401525f61012084015281811661014084015260401c1661016082015290565b6147596126d1565b506001815491015460018060401b0390816040519361477960c086612352565b63ffffffff811685528060a01b60c01d6020860152818160601c16604086015260a01c166060840152818116608084015260401c1660a082015290565b8181029181830414901517156128bf57620f4240900490565b6147e960606147e16040840151615391565b920151615391565b905f82820392128183128116918313901516176128bf5790565b5f1981146128bf5760010190565b620f4240908181029181830414901517156128bf5790565b808203929160a084126102cc5761484260409183613a60565b93605f1901126102cc5760806040519161485d604084612352565b606081015183520151602082015290565b91908260209103126102cc57604051614888602082612352565b91518252565b8051151582526020810151602083015260408101515160408301526060810151516060830152608081015151608083015260a08101515160a083015260c08101515160c083015260e08101515160e08301526101008082015151908301526101208082015151908301526101408082015151908301526101608091015151910152565b906102006040612ac39361492684825161488e565b614939602082015161018086019061232f565b01519101906129e0565b9291909360018060a01b03600254166040948551938492630e0886f960e41b845286600485015283602460a09788935afa948515614df6575f935f96614dd1575b508083016149938582516156f2565b825f528960208098601e82526149aa8c5f20612cd4565b9a89518111614db5575b508b6101209b8a8d8a0151906149c991615717565b818a015115614a2892614a0891614d9e575b6149e3612710565b5051634d54b69d60e01b8152956149fd600488018c6129fb565b610a64870190614911565b87610cc4860152614a1d610ce486018c61248e565b610e64850190612389565b614a36610f248401896129e0565b8051610f8484015201928351610fa4830152610300908183610fc48173cf64b7C235F819A3bE0BB47C8dF014003eF1Bc435af49a8b15614d94575f935f935f9d614bac575b505050509160c09493918a9382528c525192614ac0614ab96080614ab0614aa98d8b015197519651876147b6565b809661570a565b950151856147b6565b809461570a565b9089850152614ad38b8501918251613bca565b9052614af16060840191614aec83518b8d015190613bca565b613bca565b9052614b0260808301918251613bca565b90520194868651910151905f82820192831291129080158216911516176128bf5760e0614b36928592601398520151615409565b84860152515f5252805f2073a25a2e1A8b67c3F6EDcA99D59168Ce67419499709251833b156102cc576101a45f92614b889585519687948593631cf7ef4560e11b85526004850152602484019061488e565b5af4908115614ba35750614b995750565b5f612ac391612352565b513d5f823e3d90fd5b929c5094925095949250803d8211614d8d575b614bc98186612352565b84019a848c039182126102cc57610180968783126102cc578790614c688f8f908f614bf682519d8e612352565b614bff8b612703565b8d52808b0151908d0152614c1582828c0161486e565b908c0152614c268160608b0161486e565b60608c0152614c388160808b0161486e565b60808c0152614c4981868b0161486e565b858c0152614c5a8160c08b0161486e565b60c08c015260e0890161486e565b60e08a01526101009d8e614c7e82828b0161486e565b908b0152614c8e81838a0161486e565b828b0152610140614ca182828b0161486e565b908b0152614cb461016091828a0161486e565b908a015261017f198401126102cc57614ccf8e519d8e612352565b8501518c526101a08501518b8d01526101c08501518d8d01526101e085015160608d015261020085015160808d0152610220850151908c015261024084015160c08c01528b61025f198201126102cc576060908c614d2f81519182612352565b61026086015181526102808601518c82015260e08d015261029f1901126102cc5760c0946102e08c5194614d64606087612352565b6102a081015186526102c08101518c87015201518c8501529992999193945f8080959395614a7b565b503d614bbf565b8c513d5f823e3d90fd5b614da78d61581c565b614db083615851565b6149db565b614dbf908a615534565b614dc88b615851565b5f8b525f6149b4565b90809650614dec9294503d8711613eb257613ea28183612352565b929092945f614984565b87513d5f823e3d90fd5b92909193614ef7959461010093848601868151945f95515f526020936013855260409b8c98614eec614e338b5f20614473565b825f5260138952614ee1614e488d5f20614473565b93614eb360018060a01b039e8f8b51165f52601f8d528d815f20905f528d52614e72815f20614751565b928a518111615143575b50614e8c8a6101408d0151615717565b86511561512c575b614e9c6125c3565b5051630604fb1160e21b81529960048b01906129fb565b614ec1610a648a0188614911565b8b610cc48a0152614ed6610ce48a018961248e565b610e64890190612389565b610f2487019061488e565b6110a485019061488e565b88836112248173609f9888e9C1691ABe1B2CE1A228f193c093A1D25af4988915614d94575f935f9a615087575b5050840191825260c08901518b8101908151948a51955f87820197881291129080158216911516176128bf57868b0195614f5e8751615391565b905f82820392128183128116918313901516176128bf578785938a92614f879652015251615409565b868951165f52601a84528a5f2090515f528352895f207367Ae97DB22bb707ada7993a16d2Fc7A905215Ea69151823b156102cc5760a45f92614fe3948e51958694859363be49f2e760e01b85526004850152602484019061232f565b5af4801561507d5791606096959391612ac39a9b9593615066575b50885186168452601b825284842083855282528484205490516150239187168a615871565b848851168352601c8152838320828452815261504985858520541685890151908a615871565b848851168352601d81528383209183525220541691015191615871565b6150739194505f90612352565b5f92615023614ffe565b8a513d5f823e3d90fd5b919950925080833d8511615125575b6150a08183612352565b8101039283126102cc57608083126102cc5760808c51936150c18286612352565b8251855286830151878601528d8301518e86015260608084015190860152607f1901126102cc578b9260e086928551956150fc608088612352565b6080820151875260a08201518588015260c082015190870152015160608501529298905f614f24565b503d615096565b6151358a61581c565b61513e83615851565b614e94565b61514d908b615534565b61515683615851565b5f83525f614e7c565b90615169816158e6565b606081019160029160018060401b039083615185838751615375565b1461527b57608081018461519a848351615375565b1461527b5760a0820195856151b0858951615375565b1461527b5760c0830190866151c6868451615375565b1461527b5760e08401876151db878351615375565b1461527b57610100850191886151f2888551615375565b1461527b576101609363ffffffff87511663ffffffff60201b602089015160201b161788600160401b600160801b039788928360408c015160401b1617600160801b600160c01b0380965160801b1617905160c01b179c5116915160401b1617915160801b1617905160c01b17936101408401511692015160401b161793825560018201550155565b6040516367e4596560e01b8152600490fd5b615296826158e6565b61529f8261596c565b906152a983615991565b9260016001603e1b0360026152be8286615375565b1461527b576152cf60029186615375565b1461527b57610120810193600185511161527b5760019363ffffffff83511663ffffffff60201b602085015160201b1617958560401b8660801b039687604086015160401b1617600360801b615324866159ab565b60801b1617908660fe1b905160fe1b16928660c01b8760fe1b039060c01b16918660821b8760c01b039060821b1617171793610160848060401b036101408401511692015160401b16179281550155565b81811161538a571061538657600190565b5f90565b5050600290565b6001600160ff1b0381116153a25790565b6024906040519063eecaa25d60e01b82526004820152fd5b5f81126153c45790565b5f0390565b6153d16125c3565b508051906020810151906060604082015191015191604051936153f5608086612352565b845260208401526040830152606082015290565b81518152602081019061541c8251615391565b6154296060850151615391565b906154376080860151615391565b915f83820393128184128116918413901516176128bf575f82820192831291129080158216911516176128bf5761546d90615b42565b92604082019061547d8251615391565b61548a60a0830151615391565b9061549860c0840151615391565b915f83820393128184128116918413901516176128bf575f82820192831291129080158216911516176128bf576154d0606091615b42565b9301906154dd8251615391565b6154f86101006154f060e0850151615391565b930151615391565b915f83820393128184128116918413901516176128bf575f82820192831291129080158216911516176128bf5761552e90615b42565b90525252565b61553d8161581c565b5f6101208201525f60408201525f602082015252565b602081016155678151602085015190613bca565b90604083018051906040860151915f83820193841291129080158216911516176128bf576101206155a18187019182519089015190613bca565b906101406155b8818901918251908b015190613bca565b906101606155cf818b01918251908d015190613bca565b90525252525260608101906155ea8251606085015190613bca565b9260808201906156008251608083015190613bca565b9260a0810190615616825160a085015190613bca565b9260c082019061562c825160c083015190613bca565b9260e0810190615658615645835160e086015190613bca565b9361010080930192835191015190613bca565b90525252525252565b61566e8151835190613bca565b815260208101908151926020810151935f85820195861291129080158216911516176128bf5760408201906156a98251604083015190613bca565b9260608101906156bf8251606085015190613bca565b9260808201906156ea60a06156da8451608085015190613bca565b94019160a0835191015190613bca565b905252525252565b9060200190815115615702575050565b60a001519052565b919082039182116128bf57565b6020810161572b815160208501519061570a565b90604083018051906040860151915f83820393128184128116918413901516176128bf57610120615765818701918251908901519061570a565b9061014061577c818901918251908b01519061570a565b90610160615793818b01918251908d01519061570a565b90525252525260608101906157ae825160608501519061570a565b9260808201906157c4825160808301519061570a565b9260a08101906157da825160a08501519061570a565b9260c08201906157f0825160c08301519061570a565b9260e0810190615658615809835160e08601519061570a565b936101008093019283519101519061570a565b60605f918261016082015282610140820152826101008201528260e08201528260c08201528260a08201528260808201520152565b60405f918260a08201528260808201528260208201528260608201520152565b9082156158e15781516001600160a01b03918216911681036158a55750606060c06158a192015101918251613bca565b9052565b612ac3929150805f5260106020526158bf60405f20613a12565b916158cf60608401918251613bca565b90525f52601060205260405f20614235565b505050565b63ffffffff8082511161527b5760208201511161527b576040810180516002906159189060016001603f1b03906159f6565b1461527b57516159319060016001603f1b0319906159f6565b1561527b5760018060401b0390600261594f83610140840151615375565b1461527b57600291610160615965920151615375565b1461527b57565b61598e9060e0615985606083015160a084015190613bca565b91015190613bca565b90565b61598e90610100615985608083015160c084015190613bca565b60a0810151158015906159e9575b6145d35760e081015115908115916159da575b506159d5575f90565b600290565b6101009150015115155f6159cc565b5060c081015115156159b9565b81811361538a571261538657600190565b602091615a8d916001600160a01b03165f80615a2286612505565b93615a306040519586612352565b8685527f5361666545524332303a206c6f772d6c6576656c2063616c6c206661696c656487860152868151910182855af13d15615b0e573d91615a7283612505565b92615a806040519485612352565b83523d5f8785013e615c91565b805180615a9957505050565b818391810103126102cc5781615aaf9101612703565b15615ab75750565b6084906040519062461bcd60e51b82526004820152602a60248201527f5361666545524332303a204552433230206f7065726174696f6e20646964206e6044820152691bdd081cdd58d8d9595960b21b6064820152fd5b606091615c91565b61598e90610a1e615b3160a083015161010084015190613bca565b9160c060e082015191015190613bca565b5f8112615b4c5790565b6024906040519063b02ef08760e01b82526004820152fd5b939190811580615c34575b615c2b578415615c19576118db6118db916118d5615bc8615bce956118db615b968b615391565b996118d5615bc2615bb8615bb2620f42409e8f9c8d809961289d565b9e615391565b6118db868561289d565b9a615391565b91615391565b92818101918212905f81129081159280158316908416176128bf578301928312908115169116176128bf5761598e926118d56118db926118db85615c1381600261289d565b9261289d565b60405163c7d40ac960e01b8152600490fd5b50505050505f90565b508315615b6f565b63ffffffff8151116136255760018060401b03906002615c60836040840151615375565b14613625576002615c75836060840151615375565b14613625576002916080615c8a920151615375565b1461362557565b91929015615cf35750815115615ca5575090565b3b15615cae5790565b60405162461bcd60e51b815260206004820152601d60248201527f416464726573733a2063616c6c20746f206e6f6e2d636f6e74726163740000006044820152606490fd5b825190915015615d065750805190602001fd5b60405162461bcd60e51b815260206004820152908190615d2a90602483019061285f565b0390fdfea9c835c21e93a672e5a6ef8ca0374f90b7d4378f7eec5769dcf22fdefd60ffae0aec74a1754fb10877b53c31a29be82096082042eb1fb374ec96fac88c0e621ba0c85df4ab9af89d2ff184f9d4c24f93d6105f799b04c85e12d76a89fa0f99f0a2646970667358221220a917afc2ddc49c87ce613627c1439256ee981a59ae256b11b7ec28632f9dda1664736f6c63430008180033",
  "deployedBytecode": "0x6080806040526004361015610012575f80fd5b5f905f3560e01c90816305349f56146122e95750806309218e91146122c45780630a0090971461229c5780630aaffd2a146121d85780630cdfebfa146121885780631a65df2814611fa25780632b56d95c14611f6f5780632b7ac3f314611f2a57806338af3eed14611f015780634468d9b814611dff5780634549a62914611dc857806355f5751014611d815780635b4b969514611d2d5780636a256b2914611c5a5780636e19368014611c125780636ebc51e11461197f578063736a01df146116965780637cc4d340146116435780637dc0d1d01461161a57806387aee00e1461155e5780638fd3ab801461149a57806390dbc10b1461109057806391eece2814610ca0578063977b1f5f1461080f578063a05f99061461078f578063a4d15487146105df578063ac9ed34b14610596578063ad4d4e2914610562578063b68af80a14610519578063b6a597dd146103ce578063c45a015514610399578063c496969b14610365578063cee6c2ec14610306578063e20ccec3146102d0578063f9f94e34146101d35763fc0c546a146101aa575f80fd5b346101d057806003193601126101d057546040516001600160a01b039091168152602090f35b80fd5b50346101d05760203660031901126101d0576004356001600160a01b03818116918290036102cc5760046020825f80516020615d4f833981519152541660405192838092638da5cb5b60e01b82525afa9081156102c1578491610292575b5016330361027a57600580546001600160a01b031916821790556040519081527fc258faa9a17ddfdf4130b4acff63a289202e7d5f9e42f366add65368575486bc90602090a180f35b604051634d193d1f60e01b8152336004820152602490fd5b6102b4915060203d6020116102ba575b6102ac8183612352565b8101906125e9565b5f610231565b503d6102a2565b6040513d86823e3d90fd5b5f80fd5b50346101d057806003193601126101d0576102e96127ae565b506101806102f760166146ab565b610304604051809261248e565bf35b50346101d05760403660031901126101d0576004356001600160a01b03811691908290036102cc5760406103589160c09361033f6126d1565b508152601f602052818120602435825260205220614751565b6103046040518092612389565b50346101d05760203660031901126101d0576102f76040610180926103886127ae565b5060043581526014602052206146ab565b50346101d057806003193601126101d0575f80516020615d4f833981519152546040516001600160a01b039091168152602090f35b50346101d05760403660031901126101d0577f6fee9688c285c5c5c97d6a1a29adced674e6b2ad0888b8ad2116b58a8b3ea2486001815410156105005760019055303b1515806104f9575b6104e057335f80516020615d4f83398151915255303b1515806104f2575b6104e05760015f80516020615d2f833981519152556001600160a01b03600435818116908190036102cc5782546001600160a01b03199081169091178355602435918216918290036104dc576002541617600255807f2801b00eb06461cf9fcb9758b5fafd884ff06a86177386f73b6c49f0bf5a5af0557fbe9b076dc5b65990cca9dd9d7366682482e7817a6f6bc7f4faf4dc32af497f32602060405160018152a180f35b8280fd5b60405163b9a621e160e01b8152600490fd5b5080610437565b5080610419565b604051631edb9c6d60e11b815260016004820152602490fd5b50346101d05760403660031901126101d0576001600160a01b03600435818116908190036102cc578260409160209452601b845281812060243582528452205416604051908152f35b50346101d057806003193601126101d05761057b612bf0565b50610140610589600961461c565b610304604051809261255e565b50346101d05760403660031901126101d0576001600160a01b03600435818116908190036102cc578260409160209452601c845281812060243582528452205416604051908152f35b50346101d057806003193601126101d0575f80516020615d4f83398151915254604051638da5cb5b60e01b81526001600160a01b03916020908290600490829086165afa80156107845782918491610765575b5016330361027a57819081610647600b614196565b9160c08301908151600161065a826145bd565b14610743575b5081515f1961066e826145bd565b1461071c575b505080516040519081527f25e5e4c41e0fec8db036b4544824413a63ffe455e2b4decd71d72932f607ff5960203392a25273__$662697588fdf0cd815fa88b409d6abceb3$__90813b15610718576106ed6101448492604051948593849263045a766b60e01b8452600b60048501526024840190612809565b5af4801561070d576106fc5750f35b8161070691612352565b6101d05780f35b6040513d84823e3d90fd5b5050fd5b61073461072f61073c93865416926153ba565b6142f5565b9033906145d9565b5f80610674565b61075f9061075761072f84875416926153ba565b90339061430f565b5f610660565b61077e915060203d6020116102ba576102ac8183612352565b5f610632565b6040513d85823e3d90fd5b50346101d057806003193601126101d0576107a8612b9a565b506101206107b6600b614196565b602060e06040519280518452828101518385015260408101516040850152606081015160608501526080810151608085015260a081015160a085015260c081015160c08501520151805160e08401520151610100820152f35b50346101d05760e03660031901126101d0576004356001600160a01b0380821682036102cc5760a435151560a435036102cc578060c4351660c435036102cc5760025f80516020615d2f8339815191525414610c8e57602060049160025f80516020615d2f833981519152555f80516020615d4f833981519152541660405192838092635c975abb60e01b82525afa908115610784578391610c54575b50610c42578180806108c2938160c43591612e54565b906040516397cd07c560e01b81526108dd60048201836129fb565b6108eb610a64820184612ac5565b6084356110e48201526024356111048201526044356111248201526064356111448201526080816111648173__$5a77e4455458544696aa6ac53773992648$__5af480156102c1578490859286908792610bf6575b5060808501519361014087015161096460808901519261095e6127ae565b50615391565b936109726020830151615391565b938a85128686810312811690878781031390151617610be25761099490615391565b6109a16040840151615391565b918b83128284810312811690838581031390151617610bce5760606109c86109d092615391565b940151615391565b938b85128486810312811690858781031390151617610bce578b8b8b6101808c8c60ff8d8d8d8d8d8b9d8c610a34610b4e9f610a2f610a24610a138a8c036153ba565b610a1e8888036153ba565b90613bca565b610a1e8989036153ba565b6147b6565b9881878903135f14610bc557610a4b8789036153ba565b9180888a03125f14610bbc57610a62888a036153ba565b9381868203135f14610bb357610a798682036153ba565b9582818303125f14610ba857610a8f91036153ba565b9581888203135f14610b9f57610aa68882036153ba565b9782818303125f14610b9457610abc91036153ba565b9760a43515610b8d576001995b149a8b15610b8657819b5b15610b7e579b5b610ae86040519e8f612352565b8d5260208d015260408c015260608b015260808a015260a089015260c088015260e087015261010086015216610120840152610140830152610160820152610b2f8161596c565b1580610b6e575b15610b62575b60c43592610b486126d1565b926131af565b60015f80516020615d2f8339815191525580f35b60016020820152610b3c565b50610b7881615991565b15610b36565b50809b610adb565b809b610ad4565b8199610ac9565b5050610abc816153ba565b610aa6826153ba565b5050610a8f816153ba565b610a79826153ba565b610a62816153ba565b610a4b826153ba565b634e487b7160e01b8c52601160045260248cfd5b634e487b7160e01b8b52601160045260248bfd5b93505050506080813d608011610c3a575b81610c1460809383612352565b81010312610c365780516020820151604083015160609093015190925f610940565b8380fd5b3d9150610c07565b604051634b94d2bb60e01b8152600490fd5b90506020813d602011610c86575b81610c6f60209383612352565b810103126104dc57610c8090612703565b5f6108ac565b3d9150610c62565b6040516345f6780960e11b8152600490fd5b50346101d05760c03660031901126101d0576004356001600160a01b0380821682036102cc5760a435151560a435036102cc5760025f80516020615d2f8339815191525414610c8e57602060049160025f80516020615d2f833981519152555f80516020615d4f833981519152541660405192838092635c975abb60e01b82525afa908115610784578391611056575b50610c42578180808080610d4395612e54565b6040516397cd07c560e01b815290610d5e60048301846129fb565b610d6c610a64830182612ac5565b6084356110e48301526024356111048301526044356111248301526064356111448301526080826111648173__$5a77e4455458544696aa6ac53773992648$__5af480156102c157849085938690879261100e575b50608086015194610140850151610ddf60808701519261095e6127ae565b93610ded6020830151615391565b938a85128686810312811690878781031390151617610be257610e0f90615391565b610e1c6040840151615391565b918b83128284810312811690838581031390151617610bce5760606109c8610e4392615391565b938b85128486810312811690858781031390151617610bce578a8a8a8e8b60ff8c8c8c859c610b4e9c879c610e8f899d610a2f610a13610e84898b036153ba565b610a1e8787036153ba565b9789868803135f1461100557610ea68688036153ba565b908a878903125f14610ffc57610ebd8789036153ba565b928b858203135f14610ff357610ed48582036153ba565b948c818303125f14610fe857610eea91036153ba565b948b878203135f14610fdf57610f018782036153ba565b968c818303125f14610fd457610f1791036153ba565b9660a43515610fcd576001985b14998a15610fc6578b9a5b15610fbf579a5b60206040519e8f90610f4a61018083612352565b8152015260408d015260608c015260808b015260a08a015260c089015260e088015261010087015216610120850152610140840152610160830152610f8e8261596c565b1580610faf575b15610fa3575b610b486126d1565b60016020830152610f9b565b50610fb982615991565b15610f95565b508a610f36565b809a610f2f565b8b98610f24565b5050610f178b6153ba565b610f018c6153ba565b5050610eea8b6153ba565b610ed48c6153ba565b610ebd8b6153ba565b610ea68a6153ba565b94505050506080823d60801161104e575b8161102c60809383612352565b81010312610c365781516020830151604084015160609094015190935f610dc1565b3d915061101f565b90506020813d602011611088575b8161107160209383612352565b810103126104dc5761108290612703565b5f610d30565b3d9150611064565b50346101d0576102e03660031901126101d0576040516110b26101a082612352565b60043581526020602435818301526110cb366044612520565b604083015260608060c319360112610c36576040516110ea8282612352565b60c435815260e435838201526101043560408201528184015261012435608084015261014490813560a08501526101643560c085015261112c36610184612520565b60e085015280610203193601126114965760405161114a8282612352565b6102043581526102243584820152610244356040820152610100850152610120926102643584860152610284356101408601526102a4356101608601526102c43580151581036102cc5761018086015260018060a01b039081600554163314159081611429575b5061141757856111c1600b614196565b946111cc600d612c3d565b926111d760066137d6565b9760048373__$97c94129f05e28abfbe6ed48c9dcbde8c8$__935f80516020615d4f83398151915254166040519283809263ad4d4e2960e01b82525afa93841561140c5785946113dd575b5050813b15610c365761042461125a91859361126560405196879586946302903c7960e21b86526006600487015260248601906129bc565b61030484019061267b565b5af4801561070d576113c8575b506112c69181604061128460066137d6565b98015160406112b9611299828c0151956147cf565b94856112a860a08d01516153ba565b9782858c8b95015191015190615b64565b9682015191015190615b64565b908582820392128183128116918313901516176113b45760c0830180518683820393128184128116918413901516176113a05752839173__$662697588fdf0cd815fa88b409d6abceb3$__9190823b15610c3657839161134391604051948593849263045a766b60e01b8452600b60048501526024840190612809565b5af4801561070d57611387575b506040517f685ea8dd49033251570436255683e840d43dd33fbc52b69e04450747dc56fed2908061138185826123d9565b0390a180f35b8161139191612352565b61139c57815f611350565b5080fd5b634e487b7160e01b86526011600452602486fd5b634e487b7160e01b85526011600452602485fd5b6113d3828092612352565b6101d0575f611272565b6113fd929450803d10611405575b6113f58183612352565b810190612608565b915f80611222565b503d6113eb565b6040513d87823e3d90fd5b604051639bca062560e01b8152600490fd5b9050600481835f80516020615d4f833981519152541660405192838092638da5cb5b60e01b82525afa90811561148b578392899261146e575b5050163314155f6111b1565b6114849250803d106102ba576102ac8183612352565b5f80611462565b6040513d8a823e3d90fd5b8480fd5b50346101d057806003193601126101d0575f80516020615d4f83398151915254604051638da5cb5b60e01b81526001600160a01b03916020908290600490829086165afa90811561078457839161153f575b5016330361027a578073__$51d79a318c511e11a30a79ddd5806988b7$__803b1561153c5781602491604051928380926317251b7160e31b8252600d60048301525af4801561070d576106fc5750f35b50fd5b611558915060203d6020116102ba576102ac8183612352565b5f6114ec565b50346101d05760203660031901126101d0576115926040610180926115816128d3565b506004358152601360205220614473565b604051908051151582526020810151602083015260408101515160408301526060810151516060830152608081015151608083015260a08101515160a083015260c08101515160c083015260e08101515160e0830152610100808201515190830152610120808201515190830152610140808201515190830152610160809101515190820152f35b50346101d057806003193601126101d0576002546040516001600160a01b039091168152602090f35b50346101d05760403660031901126101d0576004356001600160a01b03811691908290036102cc5760406102f7916101809361167d6127ae565b5081526015602052818120602435825260205220614088565b50346101d0576101c03660031901126101d0576004356001600160a01b0380821682036102cc576101803660231901126104dc576101a435906001600160401b038211610c365736602383011215610c3657816004013591846116f884612505565b916117066040519384612352565b84835260209436602482840101116104dc5780602487930183860137830101525f80516020615d2f833981519152926002845414610c8e5760028455600481845f80516020615d4f833981519152541660405192838092635c975abb60e01b82525afa91821561197457879261193a575b5050610c4257606435620f424060026117908284615375565b1461192857837f00000000000000000000000000000000000000000000000000000000000000001695863b156119195760405193635f2d6ed760e01b855260243580600487015260443591826024880152856044880152608435938885168086036102cc57606489015260a435958987168088036102cc5760848a015260c435988960a482015260e4359c8b8e9c8d16809d036102cc578f9c60c4840152610104918235968288168089036102cc5760e48601526101249384359384168094036102cc578f946118958795936101a087959386948a968601526101449081359086015261016490813590860152610184908135908601528401526101a483019061285f565b03925af1801561191d576118ef575b509160019b6118e68b8e81806118eb9f839f9d9b99819f9d9b998b90836118e0846118db8f6118d585985f1961289d565b9061289d565b614352565b91614380565b614380565b5580f35b9961190581809a9896949c9b999795939b612352565b61191957919395975f9991939597996118a4565b8780fd5b6040513d8d823e3d90fd5b604051630f4e914b60e11b8152600490fd5b90809250813d831161196d575b6119518183612352565b810103126119695761196290612703565b5f80611777565b8580fd5b503d611947565b6040513d89823e3d90fd5b50346101d057602090816003193601126101d0576001600160a01b039060043582811691908290036102cc578133141580611b94575b611b825780926119c5600b614196565b838352601086526119d860408420613a12565b90600487845f80516020615d4f833981519152541660405192838092638da5cb5b60e01b82525afa90811561140c579084918691611b65575b50168514611b4b575b82600254168514611b33575b82600554168514611b1b575b83611a436060840197885190613bca565b965273__$662697588fdf0cd815fa88b409d6abceb3$__90813b1561149657611a8d6101448692604051948593849263045a766b60e01b8452600b60048501526024840190612809565b5af480156102c157908491611b06575b509084611ab292526010875260408420614235565b83611ac3575b505050604051908152f35b611ad2915416610757846142f5565b604051908282527f4a34429a0ef883c4301d5b40aa8ae85d4eb024946062f2c7ebd8320acedc831a843393a35f8080611ab8565b81611b1091612352565b6104dc57825f611a9d565b83611b2c6080830197885190613bca565b9652611a32565b83611b446060830197885190613bca565b9652611a26565b9450604085019483611b5e875182613bca565b9652611a1a565b611b7c9150893d8b116102ba576102ac8183612352565b5f611a11565b604051633222db4560e01b8152600490fd5b50604484845f80516020615d4f83398151915254166040519283809263131bac4760e11b82528760048301523360248301525afa90811561070d578291611bdd575b50156119b5565b90508481813d8311611c0b575b611bf48183612352565b8101031261139c57611c0590612703565b5f611bd6565b503d611bea565b50346101d05760203660031901126101d0576004356001600160a01b03811691908290036102cc5760406102f79161018093611c4c6127ae565b508152601960205220614088565b50346101d05760203660031901126101d0576004356001600160a01b0380821682036102cc575f80516020615d2f833981519152906002825414610c8e576020600491600284555f80516020615d4f833981519152541660405192838092635c975abb60e01b82525afa9081156102c1578491611cf3575b50610c42576118eb611ce5600193613a96565b611cee81613bd7565b613ec3565b90506020813d602011611d25575b81611d0e60209383612352565b81010312610c3657611d1f90612703565b5f611cd2565b3d9150611d01565b50346101d05760203660031901126101d0576004356001600160a01b03811691908290036102cc576040611d7491608093611d666125c3565b508152601060205220613a12565b610304604051809261232f565b50346101d05760203660031901126101d0576004356001600160a01b03811691908290036102cc576040611d7491608093611dba6125c3565b50815260116020522061395e565b50346101d057806003193601126101d057611de1612730565b50611dfb611def60066137d6565b604051918291826123d9565b0390f35b50346101d05760803660031901126101d0576004356001600160a01b0380821682036102cc5760643581811681036102cc575f80516020615d2f833981519152916002835414610c8e576020600491600285555f80516020615d4f833981519152541660405192838092635c975abb60e01b82525afa90811561140c578591611ec7575b50610c42578381611e9d8280806118eb968160019a612e54565b611ebe6080830151610140830151608084015191604435916024359161309b565b90610b486126d1565b90506020813d602011611ef9575b81611ee260209383612352565b8101031261149657611ef390612703565b5f611e83565b3d9150611ed5565b50346101d057806003193601126101d0576004546040516001600160a01b039091168152602090f35b50346101d057806003193601126101d0576040517f00000000000000000000000000000000000000000000000000000000000000006001600160a01b03168152602090f35b50346101d05760203660031901126101d057610358604060c092611f916126d1565b506004358152601e60205220612cd4565b50346102cc5761014090816003193601126102cc5760405191611fc58184612352565b6004358352602435602084015260443560408401526064356060840152608435608084015260a43560a084015260c43560c084015260e43560e08401526101043580151581036102cc576101008401526101243580151581036102cc57610120848101919091525f80516020615d4f83398151915254604051638da5cb5b60e01b81526001600160a01b03918216929190602081600481875afa908115612141575f91612169575b5016330361027a5760048173__$a4a27e3b6644d35f27f63b7ab5685f7b56$__936040519283809263ad4d4e2960e01b82525afa918215612141575f9261214c575b5050813b156102cc576120f16102845f9260405194859384926373a328f760e11b8452600960048501526120e6602485018c61255e565b61016484019061267b565b5af4801561214157612120575b505f80516020615d6f833981519152919261211c604051809261255e565ba180f35b5f80516020615d6f83398151915292505f61213a91612352565b5f916120fe565b6040513d5f823e3d90fd5b6121629250803d10611405576113f58183612352565b5f806120af565b612182915060203d6020116102ba576102ac8183612352565b5f61206d565b346102cc5760403660031901126102cc576004356001600160a01b038116908190036102cc576121b66125c3565b505f52601a60205260405f206024355f526020526080611d7460405f20612c87565b346102cc5760203660031901126102cc576004356001600160a01b03818116918290036102cc5760046020825f80516020615d4f833981519152541660405192838092638da5cb5b60e01b82525afa908115612141575f9161227d575b5016330361027a57600480546001600160a01b031916821790556040519081527feee59a71c694e68368a1cb0d135c448051bbfb12289e6c2223b0ceb100c2321d90602090a1005b612296915060203d6020116102ba576102ac8183612352565b83612235565b346102cc575f3660031901126102cc576005546040516001600160a01b039091168152602090f35b346102cc575f3660031901126102cc576122dc6125c3565b506080611d74600d612c3d565b346102cc5760403660031901126102cc576004356001600160a01b0381811692918390036102cc576020925f52601d835260405f206024355f52835260405f2054168152f35b606080918051845260208101516020850152604081015160408501520151910152565b601f909101601f19168101906001600160401b0382119082101761237557604052565b634e487b7160e01b5f52604160045260245ffd5b60a0809180518452602081015160208501526040810151604085015260608101516060850152608081015160808501520151910152565b6040809180518452602081015160208501520151910152565b9190916102c06102e082019380518352602081015160208401526124056040820151604085019061232f565b612417606082015160c08501906123c0565b608081015190610120918285015260a0810151610140908186015260c082015190610160918287015260e083015193612456610180958689019061232f565b61246a6101008501516102008901906123c0565b8301516102608701528201516102808601528101516102a085015201511515910152565b805182526020810151602083015260408101516040830152606081015160608301526080810151608083015260a081015160a083015260c081015160c083015260e081015160e083015261010080820151908301526101208082015190830152610140808201519083015261016080910151910152565b6001600160401b03811161237557601f01601f191660200190565b91908260809103126102cc5760405161253a608082612352565b60608082948035845260208101356020850152604081013560408501520135910152565b805182526020810151602083015260408101516040830152606081015160608301526080810151608083015260a081015160a083015260c081015160c083015260e081015160e083015261010080820151151590830152610120809101511515910152565b604051906125d2608083612352565b5f6060838281528260208201528260408201520152565b908160209103126102cc57516001600160a01b03811681036102cc5790565b809161012092839103126102cc576126236040519283612352565b805182526020810151602083015260408101516040830152606081015160608301526080810151608083015260a081015160a083015260c081015160c083015260e081015160e0830152610100809101519082015290565b805182526020810151602083015260408101516040830152606081015160608301526080810151608083015260a081015160a083015260c081015160c083015260e081015160e083015261010080910151910152565b604051906126e060c083612352565b5f60a0838281528260208201528260408201528260608201528260808201520152565b519081151582036102cc57565b6040519061271f606083612352565b5f6040838281528260208201520152565b604051906127406101a083612352565b5f610180838281528260208201526127566125c3565b6040820152612763612710565b60608201528260808201528260a08201528260c08201526127826125c3565b60e082015261278f612710565b6101008201528261012082015282610140820152826101608201520152565b604051906127be61018083612352565b5f610160838281528260208201528260408201528260608201528260808201528260a08201528260c08201528260e08201528261010082015282610120820152826101408201520152565b602060e06101009280518552828101518386015260408101516040860152606081015160608601526080810151608086015260a081015160a086015260c081015160c08601520151805160e08501520151910152565b91908251928382525f5b848110612889575050825f602080949584010152601f8019910116010190565b602081830181015184830182015201612869565b81810292915f8212600160ff1b8214166128bf5781840514901517156128bf57565b634e487b7160e01b5f52601160045260245ffd5b6040908151916128e561018084612352565b610160835f81526129b56020935f8584015280516129038682612352565b5f81528184015280516129168682612352565b5f81526060840152805161292a8682612352565b5f81526080840152805161293e8682612352565b5f815260a084015280516129528682612352565b5f815260c084015280516129668682612352565b5f815260e0840152805161297a8682612352565b5f8152610100840152805161298f8682612352565b5f815261012084015280516129a48682612352565b5f8152610140840152519384612352565b5f83520152565b6102c09080518352602081015160208401526124056040820151604085019061232f565b60408091805184526020810151602085015201511515910152565b80516001600160a01b03168252602080820151612ac393926108e09261014092612a279186019061255e565b612a3a60408201516101608601906129bc565b612a4d60608201516104408601906129e0565b60808101516104a0850152612a6b60a08201516104c0860190612809565b612a7e60c08201516105e086019061232f565b612a9160e082015161066086019061232f565b612aa56101008201516106e086019061232f565b612ab961012082015161076086019061248e565b015191019061248e565b565b6101a061066091805115158452602081015115156020850152604081015160018060a01b0380911660408601528060608301511660608601526080820151608086015260a08201511660a085015260c081015160c0850152612b2f60e082015160e086019061248e565b612b4361010082015161026086019061248e565b612b576101208201516103e086019061232f565b612b6b61014082015161046086019061232f565b612b7f6101608201516104e0860190612389565b612b936101808201516105a0860190612389565b0151910152565b60405190612baa61010083612352565b815f81525f60208201525f60408201525f60608201525f60808201525f60a08201525f60c082015260e060405191612be3604084612352565b5f83525f60208401520152565b60405190612c0061014083612352565b5f610120838281528260208201528260408201528260608201528260808201528260a08201528260c08201528260e0820152826101008201520152565b612c456125c3565b5054604051906001600160401b03612c5e608084612352565b63ffffffff82168352808260401c1660208401528160801c16604083015260c01c606082015290565b612c8f6125c3565b505460405190612ca0608083612352565b8060d01b60d01d825265ffffffffffff8160301c1660208301528060601b60c01d604083015260201b60c01d606082015290565b612cdc6126d1565b5054604051906001600160401b0390612cf660c084612352565b63ffffffff811683525f6020840152818160201c166040840152818160601c16606084015260a01c1660808201525f60a082015290565b60405190612d3d61016083612352565b815f8152612d49612bf0565b6020820152612d56612730565b6040820152612d63612710565b60608201525f6080820152612d76612b9a565b60a0820152612d836125c3565b60c0820152612d906125c3565b60e0820152612d9d6125c3565b610100820152612dab6127ae565b610120820152610140612dbc6127ae565b910152565b60405190612dd16101c083612352565b5f6101a0838281528260208201528260408201528260608201528260808201528260a08201528260c0820152612e056127ae565b60e0820152612e126127ae565b610100820152612e206125c3565b610120820152612e2e6125c3565b610140820152612e3c6126d1565b610160820152612e4a6126d1565b6101808201520152565b90612e78606095949297969397612e69612d2d565b50612e72612dc1565b50613a96565b968793612e8485613bd7565b612e8c612dc1565b968793612eb0612e9f60e08901516153c9565b610120818189015289015190615409565b608461010094612ed6612ec5878b01516153c9565b61014081818b01528b015190615409565b60a08901948551515f5260209660148852604096612ef5885f206146ab565b60e08b015260018060a01b039b8c9a8b92838351165f5260158c528a5f209460c08401958651515f528d52612f2b8c5f20614088565b9083015251515f52601e8b52612f428a5f20612cd4565b610160820152828251165f52601f8b52895f208451515f528b52612f678a5f20614751565b610180820152828251165f52601b8b52895f208451515f528b52828a5f2054168a820152828251165f52601c8b52895f208451515f528b5288838b5f20541691015251165f52601d8852865f209051515f52875287865f20541660a08d01526101a08c01528c8780805f80516020615d4f8339815191525416925116928751998a96879563029138af60e21b875260048701523360248701521660448501521660648301525afa8015613091575f935f925f92613041575b505060808801521515908601521515845216613039575090565b60c082015290565b92509350506060833d606011613089575b8161305f60609383612352565b810103126102cc5761307083612703565b9061307c838501612703565b9301519092905f8061301f565b3d9150613052565b50513d5f823e3d90fd5b94936130cb9192936130ab6127ae565b9687526040870152836131a65760ff5f5b166020870152610a2f846153ba565b6101608501526130da826145bd565b8015918215613191575b8215613175575b505015613133575f81131561312a57613103816153ba565b60a08401525f81121561312057613119906153ba565b60e0830152565b506131195f6153ba565b6131035f6153ba565b5f81131561316c57613144816153ba565b6101008401525f8112156131625761315b906153ba565b60c0830152565b5061315b5f6153ba565b6131445f6153ba565b613189919250613184906147cf565b6145bd565b145f806130eb565b915061319f613184836147cf565b15916130e4565b60ff60016130bc565b93949190946101209283602087015101945f95516137c45760808701908151916101008a019283519081518111613780575b5050519260e08a01938451908151811161374e575b505061320586888c0151615409565b6101409461321687878d0151615409565b613221878551615553565b61322c878651615553565b61323987898c0151615553565b61324687878c0151615553565b610160808c0196613258858951615661565b6101808d0199613269868c51615661565b60c08d01516040808c0151910180515f83820193841291129080158216911516176128bf5752890151613743575b8801511590811591613736575b50613704575b5060a08201516136c0575b506132bf8561596c565b15806136b0575b1561364c575b73__$44fcdc311a899e44cb34af45f301da1671$__90813b15611919576133166113248a8c9461333a8c956133216040519889978896638df462cb60e01b885260048801906129fb565b610a64860190612ac5565b61332f6110e485018d61248e565b611264840190612389565b5af4801561197457908791613637575b505061339c9061336e60a0890193845151895260146020526040892090519061515f565b87516001600160a01b0316875260156020908152604080892060c08b0151518a52909152872090519061528d565b51518452601e6020526040842090516133b481615c3c565b805160408083015160608085015160809095015160a01b600160a01b600160e01b031694901b600160601b600160a01b0316602091821b600160201b600160601b031663ffffffff9490941693909317929092179290921790925585516001600160a01b03168552601f825280852060c0870151518652909152832091519461343c86615c3c565b60208601516002906134569060016001603f1b03906159f6565b146136255760208601516134739060016001603f1b0319906159f6565b156136255760a0860151600290613492906001600160401b0390615375565b146136255785516020808801516040808a01516060808c015160808d015160a09d8e0151918e1b600160a01b600160e01b031693831b600160601b600160a01b031695871b600160201b600160601b031663ffffffff98909816979097179490941791909117885591811b600160401b600160801b03166001600160401b0394909416939093176001968701558383015188516001600160a01b039081168952601b845284892060c08b018051518b52908552858a2080546001600160a01b0319908116948416949094179055928601518a5182168a52601c8552858a208451518b528552858a20805484169183169190911790559490990151885185168852601d835283882091515188529152818620805490981692169190911790955580850151612ac395926135c3826145bd565b14613605575b5001515f196135d7826145bd565b146135e4575b5050613ec3565b61075761072f6135fe9360018060a01b03905416926153ba565b5f806135dd565b61361f9061073461072f60018060a01b03875416926153ba565b5f6135c9565b604051637e81879b60e11b8152600490fd5b8161364191612352565b61196957855f61334a565b60025488516001600160a01b039182169116813b156102cc575f91604483926040519485938492631a9be9fd60e11b845230600485015260248401525af180156121415761369b575b506132cc565b6136a89197505f90612352565b5f955f613695565b506136ba85615991565b156132c6565b60a08a0180516001600160a01b039182918216156136fa575b51169116036136e8575f6132b5565b604051639dbdc5fd60e01b8152600490fd5b81841681526136d9565b60608b0180516001600160a01b0391829182161561372c575b51169116036136e8575f6132aa565b818416815261371d565b905087015115155f6132a4565b3360408e0152613297565b61375791615534565b5f6101608b015161376781615851565b5260a08901516137778151614803565b90525f806131f6565b61378991615534565b5f6101808b015161379981615851565b525f60408b01525f60608b01525f60a08b015260c08901516137bb8151614803565b90525f806131e1565b604051630b8b968760e31b8152600490fd5b60ff6101a0916137e4612730565b50805490600260018201549101549162ffffff9160608365ffffffffffff93613811858560481c16614811565b604093845191613822608084612352565b848460301c168352848460481c1660208401528484831c168684015281830152613850878760181c16614811565b9085519161385e8284612352565b858560781c168352858560901c16602084015286830152613883888560a81c16614811565b92865196613892608089612352565b868960781c168852868960901c166020890152868960a81c1681890152868960c01c16838901528051986138c6848b612352565b8a8d168a5260081b60e01d60208a01528b60b01b60e01d818a01526138ed81519e8f612352565b8d87871690528d6020888860181c169101528d01528b015260808a015260d81c1660a088015263ffffffff8560b01c1660c088015260e0870152610100860152808360501c166101208601528260801c166101408501528160d01c1661016084015260e81c16151561018082015290565b6139666125c3565b50600181549101548160f81c1590815f14613a055760038116915b156139f05760021c60016001603e1b0316905b806139e957815b600182036139e057600281925b036139d857915b63ffffffff604051946139c3608087612352565b16845260208401526040830152606082015290565b505f916139af565b60025f926139a8565b5f9161399b565b50602282901c60016001603e1b031690613994565b60038360201c1691613981565b613a1a6125c3565b50546040519063ffffffff613a30608084612352565b8181168352602082811c90911690830152608081811b60c01d60408401521c6001600160401b0316606082015290565b91908260609103126102cc57604051613a7a606082612352565b6040612dbc818395805185526020810151602086015201612703565b906004613aa1612d2d565b6001600160a01b03938416808252909390613abc600961461c565b60208601526080613acd60066137d6565b926040938488015260025416835194858092631006976960e11b82525afa8015613bc0575f905f90613b7e575b613b76945060808701526060860152613b13600b614196565b60a0860152805f526010602052613b2b825f20613a12565b60c0860152613b3a600d612c3d565b60e0860152805f526011602052613b52825f2061395e565b610100860152613b6260166146ab565b6101208601525f5260196020525f20614088565b610140830152565b505060803d608011613bb9575b613b958185612352565b8301926080818503126102cc576060613bb1613b769583613a60565b910151613afa565b503d613b8b565b82513d5f823e3d90fd5b919082018092116128bf57565b90604091825192613be9606085612352565b613bf16128d3565b845260209384810194613c026125c3565b8652828201613c0f612710565b815260e08501958651515f5260138352613c2a855f20614473565b845260018060a01b0394858751165f52601a8452805f20986101008801998a51515f528552613c5a825f20612c87565b905285600254169888515196825194630e0886f960e41b8652600498600487015260a086602481819f5afa958615613eb9575f96613e87575b50859052613ca660a08a019586516156f2565b613cae6127ae565b995b8551878151910151809114159081613e43575b5015613cff57868651015160018101809111613ced578b8b613ce8928b835192614943565b613cb0565b8c60118b634e487b7160e01b5f52525ffd5b60c08a018051888151910151141580613df2575b15613d3c57879051015160018101809111613ced578b8b613d37928b835192614e00565b613cff565b50939a509594939198509550610120838801510151613de8576060870191838351519151518211613dbe575b50505051519351518411613d7f575b505050505050565b613db395613dad9160c08701908082510151958851165f526015815280835f20925101515f52525f20614088565b93614e00565b5f8080808080613d77565b613de09251015190815f5260148552613dd88a5f206146ab565b91868a614943565b5f8083613d68565b5050505050505050565b509a50818a51165f5260158752835f20878c51015160018101809111613e31575f528752613e21845f20614088565b9a60608b0151518c511115613d13565b8d60118c634e487b7160e01b5f52525ffd5b80929c506001915001809111613e75575f5260148652613e64835f206146ab565b9960608a0151518b5111155f613cc3565b8b60118a634e487b7160e01b5f52525ffd5b613eaa91965060a03d60a011613eb2575b613ea28183612352565b810190614829565b50945f613c93565b503d613e98565b84513d5f823e3d90fd5b60a0810151919073__$662697588fdf0cd815fa88b409d6abceb3$__803b156102cc576101445f60409283519283809263045a766b60e01b8252613f13859a600b60048501526024840190612809565b5af48015613bc057614073575b5081516001600160a01b039081168552601060205281852060c0840151613f4691614235565b8473__$51d79a318c511e11a30a79ddd5806988b7$__60e0850151813b156104dc57613f9160a48492875194859384926366e4915160e01b8452600d6004850152602484019061232f565b5af4801561406957614054575b505080835116855260116020528185208573__$ea4b4e82e5e006a82c7e46673de8b49567$__61010086015190803b156104dc57613ff99360a49187519586948593635c7731d160e11b85526004850152602484019061232f565b5af4801561404a57614035575b5090612ac3939461014092614021610120860151601661515f565b84511681526019602052209101519061528d565b614040868092612352565b611496575f614006565b83513d88823e3d90fd5b8161405e91612352565b61149657845f613f9e565b84513d84823e3d90fd5b6140809194505f90612352565b5f925f613f20565b6140906127ae565b506001815491015460038260801c169060018080603e1b0393848160821c16948160c01c1663ffffffff95851595865f1461418f5781965b1561418857825b8186149081156141815783915b1561417857600281935b1493841561417057935b1561416857935b868060401b03986040519a61410e6101808d612352565b8088168c528760201c1660208c01528660801b60c01d60408c015260608b015260808a015260a089015260c088015260e087015261010086015260fe1c1661012084015281811661014084015260401c1661016082015290565b505f936140f7565b505f936140f0565b60025f936140e6565b5f916140dc565b5f926140cf565b5f966140c8565b61419e612b9a565b50600181549101549063ffffffff9165ffffffffffff604051926141c3604085612352565b8260e01b60e01d84528260c81b60e81d6020850152604051946141e861010087612352565b80821686528160201c166020860152818160401c166040860152818160701c16606086015260a01c1660808401528060881b60c01d60a084015260481b60c01d60c083015260e082015290565b9063ffffffff808251116142e35760208201818151116142e35760408301916002614267600180603f1b0385516159f6565b146142e35782516142819060016001603f1b0319906159f6565b156142e3576060840193600261429e60018060401b038751615375565b146142e3575191519251935160801b600160801b600160c01b031660409490941b600160401b600160801b031660209390931b63ffffffff60201b1691161717179055565b60405163320f423b60e21b8152600490fd5b64e8d4a51000908181029181830414901517156128bf5790565b60405163a9059cbb60e01b60208201526001600160a01b039283166024820152604480820194909452928352612ac392919061434c606484612352565b16615a07565b811561436c57600160ff1b81145f198314166128bf570590565b634e487b7160e01b5f52601260045260245ffd5b620f42406118db6143a8879a899c9a61444697989a612ac39f979a6143c39b61443698612e54565b9790965f6080890151916101408b015160808c01519361309b565b9760c0880151946143d26126d1565b9a6143dc8b615b16565b1515908161446a575b5061445e575b6143ff60a08b01516101008c015190613bca565b61441260c08c015160e08d015190613bca565b60608d015260408c015215614450575f5b60808b01526144318a6147cf565b61289d565b60208701526101608501516147b6565b60a08501526131af565b61445989615b16565b614423565b60208a01518b526143eb565b9050155f6143e5565b61447b6128d3565b508054600182015491600201548260c0916040938451916020948594846144a3878097612352565b8460b81b831d815288516144b78782612352565b8560781b841d81528951916144cc8884612352565b8660381b851d835260d09a8b97898251966144e78289612352565b898b1b8b1d88528351996144fb838c612352565b60a01b8b1d8a5283519a61450f838d612352565b8160901b811d8c5284519c614524908e612352565b8160601b811d8d5284519d614539908f612352565b8d8260301b821d905284519e8f9061455091612352565b1d8d528251809e6145618383612352565b8360081b901d905282519e8f9261457a61018085612352565b60ff1615158352881b881d9101528c015260608b015260808a015260a089015287015260e086015261010085015261012084015261014083015261016082015290565b5f81136145d3575f136145ce575f90565b5f1990565b50600190565b6040516323b872dd60e01b60208201526001600160a01b039283166024820152306044820152606480820194909452928352612ac392919061434c608484612352565b614624612bf0565b50546008808260c81c62ffffff61ffff946040519561464561014088612352565b8282168752828260181c166020880152828260301c166040880152828260481c166060880152828260601c166080880152808260781c1660a08801528160881c1660c087015260981c1660e0850152600480821614610100850152161461012082015290565b6146b36127ae565b5080546001820154600290920154604051926001600160401b039263ffffffff6146df61018087612352565b80821686528160201c1660208601528060801b60c01d6040860152838160801c16606086015260c01c608085015282811660a0850152828160401c1660c0850152828160801c1660e085015260c01c6101008401525f61012084015281811661014084015260401c1661016082015290565b6147596126d1565b506001815491015460018060401b0390816040519361477960c086612352565b63ffffffff811685528060a01b60c01d6020860152818160601c16604086015260a01c166060840152818116608084015260401c1660a082015290565b8181029181830414901517156128bf57620f4240900490565b6147e960606147e16040840151615391565b920151615391565b905f82820392128183128116918313901516176128bf5790565b5f1981146128bf5760010190565b620f4240908181029181830414901517156128bf5790565b808203929160a084126102cc5761484260409183613a60565b93605f1901126102cc5760806040519161485d604084612352565b606081015183520151602082015290565b91908260209103126102cc57604051614888602082612352565b91518252565b8051151582526020810151602083015260408101515160408301526060810151516060830152608081015151608083015260a08101515160a083015260c08101515160c083015260e08101515160e08301526101008082015151908301526101208082015151908301526101408082015151908301526101608091015151910152565b906102006040612ac39361492684825161488e565b614939602082015161018086019061232f565b01519101906129e0565b9291909360018060a01b03600254166040948551938492630e0886f960e41b845286600485015283602460a09788935afa948515614df6575f935f96614dd1575b508083016149938582516156f2565b825f528960208098601e82526149aa8c5f20612cd4565b9a89518111614db5575b508b6101209b8a8d8a0151906149c991615717565b818a015115614a2892614a0891614d9e575b6149e3612710565b5051634d54b69d60e01b8152956149fd600488018c6129fb565b610a64870190614911565b87610cc4860152614a1d610ce486018c61248e565b610e64850190612389565b614a36610f248401896129e0565b8051610f8484015201928351610fa4830152610300908183610fc48173__$2efca28a1352984ff15e013fc9de0ecd6a$__5af49a8b15614d94575f935f935f9d614bac575b505050509160c09493918a9382528c525192614ac0614ab96080614ab0614aa98d8b015197519651876147b6565b809661570a565b950151856147b6565b809461570a565b9089850152614ad38b8501918251613bca565b9052614af16060840191614aec83518b8d015190613bca565b613bca565b9052614b0260808301918251613bca565b90520194868651910151905f82820192831291129080158216911516176128bf5760e0614b36928592601398520151615409565b84860152515f5252805f2073__$08743a98ca7ca0015d87551dbef051f1de$__9251833b156102cc576101a45f92614b889585519687948593631cf7ef4560e11b85526004850152602484019061488e565b5af4908115614ba35750614b995750565b5f612ac391612352565b513d5f823e3d90fd5b929c5094925095949250803d8211614d8d575b614bc98186612352565b84019a848c039182126102cc57610180968783126102cc578790614c688f8f908f614bf682519d8e612352565b614bff8b612703565b8d52808b0151908d0152614c1582828c0161486e565b908c0152614c268160608b0161486e565b60608c0152614c388160808b0161486e565b60808c0152614c4981868b0161486e565b858c0152614c5a8160c08b0161486e565b60c08c015260e0890161486e565b60e08a01526101009d8e614c7e82828b0161486e565b908b0152614c8e81838a0161486e565b828b0152610140614ca182828b0161486e565b908b0152614cb461016091828a0161486e565b908a015261017f198401126102cc57614ccf8e519d8e612352565b8501518c526101a08501518b8d01526101c08501518d8d01526101e085015160608d015261020085015160808d0152610220850151908c015261024084015160c08c01528b61025f198201126102cc576060908c614d2f81519182612352565b61026086015181526102808601518c82015260e08d015261029f1901126102cc5760c0946102e08c5194614d64606087612352565b6102a081015186526102c08101518c87015201518c8501529992999193945f8080959395614a7b565b503d614bbf565b8c513d5f823e3d90fd5b614da78d61581c565b614db083615851565b6149db565b614dbf908a615534565b614dc88b615851565b5f8b525f6149b4565b90809650614dec9294503d8711613eb257613ea28183612352565b929092945f614984565b87513d5f823e3d90fd5b92909193614ef7959461010093848601868151945f95515f526020936013855260409b8c98614eec614e338b5f20614473565b825f5260138952614ee1614e488d5f20614473565b93614eb360018060a01b039e8f8b51165f52601f8d528d815f20905f528d52614e72815f20614751565b928a518111615143575b50614e8c8a6101408d0151615717565b86511561512c575b614e9c6125c3565b5051630604fb1160e21b81529960048b01906129fb565b614ec1610a648a0188614911565b8b610cc48a0152614ed6610ce48a018961248e565b610e64890190612389565b610f2487019061488e565b6110a485019061488e565b88836112248173__$9b614b8005f1486ab3f06e729b23225af1$__5af4988915614d94575f935f9a615087575b5050840191825260c08901518b8101908151948a51955f87820197881291129080158216911516176128bf57868b0195614f5e8751615391565b905f82820392128183128116918313901516176128bf578785938a92614f879652015251615409565b868951165f52601a84528a5f2090515f528352895f2073__$0222e54faee8d775d2dfb527e0608089b7$__9151823b156102cc5760a45f92614fe3948e51958694859363be49f2e760e01b85526004850152602484019061232f565b5af4801561507d5791606096959391612ac39a9b9593615066575b50885186168452601b825284842083855282528484205490516150239187168a615871565b848851168352601c8152838320828452815261504985858520541685890151908a615871565b848851168352601d81528383209183525220541691015191615871565b6150739194505f90612352565b5f92615023614ffe565b8a513d5f823e3d90fd5b919950925080833d8511615125575b6150a08183612352565b8101039283126102cc57608083126102cc5760808c51936150c18286612352565b8251855286830151878601528d8301518e86015260608084015190860152607f1901126102cc578b9260e086928551956150fc608088612352565b6080820151875260a08201518588015260c082015190870152015160608501529298905f614f24565b503d615096565b6151358a61581c565b61513e83615851565b614e94565b61514d908b615534565b61515683615851565b5f83525f614e7c565b90615169816158e6565b606081019160029160018060401b039083615185838751615375565b1461527b57608081018461519a848351615375565b1461527b5760a0820195856151b0858951615375565b1461527b5760c0830190866151c6868451615375565b1461527b5760e08401876151db878351615375565b1461527b57610100850191886151f2888551615375565b1461527b576101609363ffffffff87511663ffffffff60201b602089015160201b161788600160401b600160801b039788928360408c015160401b1617600160801b600160c01b0380965160801b1617905160c01b179c5116915160401b1617915160801b1617905160c01b17936101408401511692015160401b161793825560018201550155565b6040516367e4596560e01b8152600490fd5b615296826158e6565b61529f8261596c565b906152a983615991565b9260016001603e1b0360026152be8286615375565b1461527b576152cf60029186615375565b1461527b57610120810193600185511161527b5760019363ffffffff83511663ffffffff60201b602085015160201b1617958560401b8660801b039687604086015160401b1617600360801b615324866159ab565b60801b1617908660fe1b905160fe1b16928660c01b8760fe1b039060c01b16918660821b8760c01b039060821b1617171793610160848060401b036101408401511692015160401b16179281550155565b81811161538a571061538657600190565b5f90565b5050600290565b6001600160ff1b0381116153a25790565b6024906040519063eecaa25d60e01b82526004820152fd5b5f81126153c45790565b5f0390565b6153d16125c3565b508051906020810151906060604082015191015191604051936153f5608086612352565b845260208401526040830152606082015290565b81518152602081019061541c8251615391565b6154296060850151615391565b906154376080860151615391565b915f83820393128184128116918413901516176128bf575f82820192831291129080158216911516176128bf5761546d90615b42565b92604082019061547d8251615391565b61548a60a0830151615391565b9061549860c0840151615391565b915f83820393128184128116918413901516176128bf575f82820192831291129080158216911516176128bf576154d0606091615b42565b9301906154dd8251615391565b6154f86101006154f060e0850151615391565b930151615391565b915f83820393128184128116918413901516176128bf575f82820192831291129080158216911516176128bf5761552e90615b42565b90525252565b61553d8161581c565b5f6101208201525f60408201525f602082015252565b602081016155678151602085015190613bca565b90604083018051906040860151915f83820193841291129080158216911516176128bf576101206155a18187019182519089015190613bca565b906101406155b8818901918251908b015190613bca565b906101606155cf818b01918251908d015190613bca565b90525252525260608101906155ea8251606085015190613bca565b9260808201906156008251608083015190613bca565b9260a0810190615616825160a085015190613bca565b9260c082019061562c825160c083015190613bca565b9260e0810190615658615645835160e086015190613bca565b9361010080930192835191015190613bca565b90525252525252565b61566e8151835190613bca565b815260208101908151926020810151935f85820195861291129080158216911516176128bf5760408201906156a98251604083015190613bca565b9260608101906156bf8251606085015190613bca565b9260808201906156ea60a06156da8451608085015190613bca565b94019160a0835191015190613bca565b905252525252565b9060200190815115615702575050565b60a001519052565b919082039182116128bf57565b6020810161572b815160208501519061570a565b90604083018051906040860151915f83820393128184128116918413901516176128bf57610120615765818701918251908901519061570a565b9061014061577c818901918251908b01519061570a565b90610160615793818b01918251908d01519061570a565b90525252525260608101906157ae825160608501519061570a565b9260808201906157c4825160808301519061570a565b9260a08101906157da825160a08501519061570a565b9260c08201906157f0825160c08301519061570a565b9260e0810190615658615809835160e08601519061570a565b936101008093019283519101519061570a565b60605f918261016082015282610140820152826101008201528260e08201528260c08201528260a08201528260808201520152565b60405f918260a08201528260808201528260208201528260608201520152565b9082156158e15781516001600160a01b03918216911681036158a55750606060c06158a192015101918251613bca565b9052565b612ac3929150805f5260106020526158bf60405f20613a12565b916158cf60608401918251613bca565b90525f52601060205260405f20614235565b505050565b63ffffffff8082511161527b5760208201511161527b576040810180516002906159189060016001603f1b03906159f6565b1461527b57516159319060016001603f1b0319906159f6565b1561527b5760018060401b0390600261594f83610140840151615375565b1461527b57600291610160615965920151615375565b1461527b57565b61598e9060e0615985606083015160a084015190613bca565b91015190613bca565b90565b61598e90610100615985608083015160c084015190613bca565b60a0810151158015906159e9575b6145d35760e081015115908115916159da575b506159d5575f90565b600290565b6101009150015115155f6159cc565b5060c081015115156159b9565b81811361538a571261538657600190565b602091615a8d916001600160a01b03165f80615a2286612505565b93615a306040519586612352565b8685527f5361666545524332303a206c6f772d6c6576656c2063616c6c206661696c656487860152868151910182855af13d15615b0e573d91615a7283612505565b92615a806040519485612352565b83523d5f8785013e615c91565b805180615a9957505050565b818391810103126102cc5781615aaf9101612703565b15615ab75750565b6084906040519062461bcd60e51b82526004820152602a60248201527f5361666545524332303a204552433230206f7065726174696f6e20646964206e6044820152691bdd081cdd58d8d9595960b21b6064820152fd5b606091615c91565b61598e90610a1e615b3160a083015161010084015190613bca565b9160c060e082015191015190613bca565b5f8112615b4c5790565b6024906040519063b02ef08760e01b82526004820152fd5b939190811580615c34575b615c2b578415615c19576118db6118db916118d5615bc8615bce956118db615b968b615391565b996118d5615bc2615bb8615bb2620f42409e8f9c8d809961289d565b9e615391565b6118db868561289d565b9a615391565b91615391565b92818101918212905f81129081159280158316908416176128bf578301928312908115169116176128bf5761598e926118d56118db926118db85615c1381600261289d565b9261289d565b60405163c7d40ac960e01b8152600490fd5b50505050505f90565b508315615b6f565b63ffffffff8151116136255760018060401b03906002615c60836040840151615375565b14613625576002615c75836060840151615375565b14613625576002916080615c8a920151615375565b1461362557565b91929015615cf35750815115615ca5575090565b3b15615cae5790565b60405162461bcd60e51b815260206004820152601d60248201527f416464726573733a2063616c6c20746f206e6f6e2d636f6e74726163740000006044820152606490fd5b825190915015615d065750805190602001fd5b60405162461bcd60e51b815260206004820152908190615d2a90602483019061285f565b0390fdfea9c835c21e93a672e5a6ef8ca0374f90b7d4378f7eec5769dcf22fdefd60ffae0aec74a1754fb10877b53c31a29be82096082042eb1fb374ec96fac88c0e621ba0c85df4ab9af89d2ff184f9d4c24f93d6105f799b04c85e12d76a89fa0f99f0a2646970667358221220a917afc2ddc49c87ce613627c1439256ee981a59ae256b11b7ec28632f9dda1664736f6c63430008180033",
  "libraries": {
    "CheckpointLib": "0x609f9888e9C1691ABe1B2CE1A228f193c093A1D2",
    "InvariantLib": "0x1451baCEf80518FeA01FdEd8e32Ccccc68c1A8C8",
    "VersionLib": "0xcf64b7C235F819A3bE0BB47C8dF014003eF1Bc43",
    "CheckpointStorageLib": "0x67Ae97DB22bb707ada7993a16d2Fc7A905215Ea6",
    "GlobalStorageLib": "0xcF1384b31AF4DCE7A52F34550A876e062d1f697D",
    "MarketParameterStorageLib": "0x1016B0E925078cCD844ea7931Bcf942033A1b47f",
    "PositionStorageGlobalLib": "0xd4CCf675B3Bf6536990cc0B1D937F6db8a8b2541",
    "PositionStorageLocalLib": "0xfE8Fa955f5b42b6Db237aD84f9a20b7beac9EA25",
    "RiskParameterStorageLib": "0x9E5345409e2a7e6CF0417A3f6A6A680340aDbcF2",
    "VersionStorageLib": "0xa25a2e1A8b67c3F6EDcA99D59168Ce6741949970",
    "MagicValueLib": "0x40e52D4dEE5Fb7a703Fc61F6174a9212Bd65F091"
  }
}