{
  "address": "0x58d8dabbB940d0fD89298831dB45d566CD958102",
  "abi": [
    {
      "inputs": [
        {
          "internalType": "Token6",
          "name": "usdc_",
          "type": "address"
        },
        {
          "internalType": "Token18",
          "name": "dsu_",
          "type": "address"
        },
        {
          "internalType": "contract IFactory",
          "name": "marketFactory_",
          "type": "address"
        },
        {
          "internalType": "contract IFactory",
          "name": "vaultFactory_",
          "type": "address"
        },
        {
          "internalType": "contract IBatcher",
          "name": "batcher_",
          "type": "address"
        },
        {
          "internalType": "contract IEmptySetReserve",
          "name": "reserve_",
          "type": "address"
        },
        {
          "internalType": "uint256",
          "name": "keepBufferBase_",
          "type": "uint256"
        },
        {
          "internalType": "uint256",
          "name": "keepBufferCalldata_",
          "type": "uint256"
        }
      ],
      "stateMutability": "nonpayable",
      "type": "constructor"
    },
    {
      "inputs": [],
      "name": "DivisionByZero",
      "type": "error"
    },
    {
      "inputs": [
        {
          "internalType": "uint256",
          "name": "value",
          "type": "uint256"
        }
      ],
      "name": "Fixed18OverflowError",
      "type": "error"
    },
    {
      "inputs": [
        {
          "internalType": "uint256",
          "name": "value",
          "type": "uint256"
        }
      ],
      "name": "Fixed6OverflowError",
      "type": "error"
    },
    {
      "inputs": [
        {
          "internalType": "uint256",
          "name": "version",
          "type": "uint256"
        }
      ],
      "name": "InitializableAlreadyInitializedError",
      "type": "error"
    },
    {
      "inputs": [],
      "name": "InitializableNotInitializingError",
      "type": "error"
    },
    {
      "inputs": [],
      "name": "InitializableZeroVersionError",
      "type": "error"
    },
    {
      "inputs": [],
      "name": "MultiInvokerCantExecuteError",
      "type": "error"
    },
    {
      "inputs": [],
      "name": "MultiInvokerInvalidInstanceError",
      "type": "error"
    },
    {
      "inputs": [],
      "name": "MultiInvokerInvalidOrderError",
      "type": "error"
    },
    {
      "inputs": [],
      "name": "MultiInvokerMaxFeeExceededError",
      "type": "error"
    },
    {
      "inputs": [],
      "name": "MultiInvokerOrderMustBeSingleSidedError",
      "type": "error"
    },
    {
      "inputs": [],
      "name": "MultiInvokerUnauthorizedError",
      "type": "error"
    },
    {
      "inputs": [],
      "name": "TriggerOrderStorageInvalidError",
      "type": "error"
    },
    {
      "inputs": [
        {
          "internalType": "int256",
          "name": "value",
          "type": "int256"
        }
      ],
      "name": "UFixed18UnderflowError",
      "type": "error"
    },
    {
      "inputs": [
        {
          "internalType": "int256",
          "name": "value",
          "type": "int256"
        }
      ],
      "name": "UFixed6UnderflowError",
      "type": "error"
    },
    {
      "anonymous": false,
      "inputs": [
        {
          "indexed": false,
          "internalType": "uint256",
          "name": "version",
          "type": "uint256"
        }
      ],
      "name": "Initialized",
      "type": "event"
    },
    {
      "anonymous": false,
      "inputs": [
        {
          "indexed": true,
          "internalType": "address",
          "name": "account",
          "type": "address"
        },
        {
          "indexed": true,
          "internalType": "contract IMarket",
          "name": "market",
          "type": "address"
        },
        {
          "components": [
            {
              "internalType": "UFixed6",
              "name": "amount",
              "type": "uint256"
            },
            {
              "internalType": "address",
              "name": "receiver",
              "type": "address"
            }
          ],
          "indexed": false,
          "internalType": "struct InterfaceFee",
          "name": "fee",
          "type": "tuple"
        }
      ],
      "name": "InterfaceFeeCharged",
      "type": "event"
    },
    {
      "anonymous": false,
      "inputs": [
        {
          "indexed": true,
          "internalType": "address",
          "name": "sender",
          "type": "address"
        },
        {
          "indexed": false,
          "internalType": "uint256",
          "name": "applicableGas",
          "type": "uint256"
        },
        {
          "indexed": false,
          "internalType": "uint256",
          "name": "applicableValue",
          "type": "uint256"
        },
        {
          "indexed": false,
          "internalType": "UFixed18",
          "name": "baseFee",
          "type": "uint256"
        },
        {
          "indexed": false,
          "internalType": "UFixed18",
          "name": "calldataFee",
          "type": "uint256"
        },
        {
          "indexed": false,
          "internalType": "UFixed18",
          "name": "keeperFee",
          "type": "uint256"
        }
      ],
      "name": "KeeperCall",
      "type": "event"
    },
    {
      "anonymous": false,
      "inputs": [
        {
          "indexed": true,
          "internalType": "address",
          "name": "account",
          "type": "address"
        },
        {
          "indexed": true,
          "internalType": "address",
          "name": "market",
          "type": "address"
        },
        {
          "indexed": true,
          "internalType": "address",
          "name": "to",
          "type": "address"
        },
        {
          "indexed": false,
          "internalType": "UFixed6",
          "name": "fee",
          "type": "uint256"
        }
      ],
      "name": "KeeperFeeCharged",
      "type": "event"
    },
    {
      "anonymous": false,
      "inputs": [
        {
          "indexed": true,
          "internalType": "address",
          "name": "account",
          "type": "address"
        },
        {
          "indexed": true,
          "internalType": "address",
          "name": "operator",
          "type": "address"
        },
        {
          "indexed": false,
          "internalType": "bool",
          "name": "newEnabled",
          "type": "bool"
        }
      ],
      "name": "OperatorUpdated",
      "type": "event"
    },
    {
      "anonymous": false,
      "inputs": [
        {
          "indexed": true,
          "internalType": "address",
          "name": "account",
          "type": "address"
        },
        {
          "indexed": true,
          "internalType": "contract IMarket",
          "name": "market",
          "type": "address"
        },
        {
          "indexed": false,
          "internalType": "uint256",
          "name": "nonce",
          "type": "uint256"
        }
      ],
      "name": "OrderCancelled",
      "type": "event"
    },
    {
      "anonymous": false,
      "inputs": [
        {
          "indexed": true,
          "internalType": "address",
          "name": "account",
          "type": "address"
        },
        {
          "indexed": true,
          "internalType": "contract IMarket",
          "name": "market",
          "type": "address"
        },
        {
          "indexed": false,
          "internalType": "uint256",
          "name": "nonce",
          "type": "uint256"
        }
      ],
      "name": "OrderExecuted",
      "type": "event"
    },
    {
      "anonymous": false,
      "inputs": [
        {
          "indexed": true,
          "internalType": "address",
          "name": "account",
          "type": "address"
        },
        {
          "indexed": true,
          "internalType": "contract IMarket",
          "name": "market",
          "type": "address"
        },
        {
          "indexed": true,
          "internalType": "uint256",
          "name": "nonce",
          "type": "uint256"
        },
        {
          "components": [
            {
              "internalType": "uint8",
              "name": "side",
              "type": "uint8"
            },
            {
              "internalType": "int8",
              "name": "comparison",
              "type": "int8"
            },
            {
              "internalType": "UFixed6",
              "name": "fee",
              "type": "uint256"
            },
            {
              "internalType": "Fixed6",
              "name": "price",
              "type": "int256"
            },
            {
              "internalType": "Fixed6",
              "name": "delta",
              "type": "int256"
            },
            {
              "components": [
                {
                  "internalType": "UFixed6",
                  "name": "amount",
                  "type": "uint256"
                },
                {
                  "internalType": "address",
                  "name": "receiver",
                  "type": "address"
                }
              ],
              "internalType": "struct InterfaceFee",
              "name": "interfaceFee1",
              "type": "tuple"
            },
            {
              "components": [
                {
                  "internalType": "UFixed6",
                  "name": "amount",
                  "type": "uint256"
                },
                {
                  "internalType": "address",
                  "name": "receiver",
                  "type": "address"
                }
              ],
              "internalType": "struct InterfaceFee",
              "name": "interfaceFee2",
              "type": "tuple"
            }
          ],
          "indexed": false,
          "internalType": "struct TriggerOrder",
          "name": "order",
          "type": "tuple"
        }
      ],
      "name": "OrderPlaced",
      "type": "event"
    },
    {
      "inputs": [],
      "name": "ARB_FIXED_OVERHEAD",
      "outputs": [
        {
          "internalType": "uint256",
          "name": "",
          "type": "uint256"
        }
      ],
      "stateMutability": "view",
      "type": "function"
    },
    {
      "inputs": [],
      "name": "ARB_GAS_MULTIPLIER",
      "outputs": [
        {
          "internalType": "uint256",
          "name": "",
          "type": "uint256"
        }
      ],
      "stateMutability": "view",
      "type": "function"
    },
    {
      "inputs": [],
      "name": "DSU",
      "outputs": [
        {
          "internalType": "Token18",
          "name": "",
          "type": "address"
        }
      ],
      "stateMutability": "view",
      "type": "function"
    },
    {
      "inputs": [],
      "name": "USDC",
      "outputs": [
        {
          "internalType": "Token6",
          "name": "",
          "type": "address"
        }
      ],
      "stateMutability": "view",
      "type": "function"
    },
    {
      "inputs": [],
      "name": "batcher",
      "outputs": [
        {
          "internalType": "contract IBatcher",
          "name": "",
          "type": "address"
        }
      ],
      "stateMutability": "view",
      "type": "function"
    },
    {
      "inputs": [
        {
          "internalType": "address",
          "name": "account",
          "type": "address"
        },
        {
          "internalType": "contract IMarket",
          "name": "market",
          "type": "address"
        },
        {
          "internalType": "uint256",
          "name": "nonce",
          "type": "uint256"
        }
      ],
      "name": "canExecuteOrder",
      "outputs": [
        {
          "internalType": "bool",
          "name": "",
          "type": "bool"
        }
      ],
      "stateMutability": "view",
      "type": "function"
    },
    {
      "inputs": [
        {
          "internalType": "address",
          "name": "account",
          "type": "address"
        },
        {
          "internalType": "bool",
          "name": "unwrap",
          "type": "bool"
        }
      ],
      "name": "claim",
      "outputs": [],
      "stateMutability": "nonpayable",
      "type": "function"
    },
    {
      "inputs": [
        {
          "internalType": "address",
          "name": "",
          "type": "address"
        }
      ],
      "name": "claimable",
      "outputs": [
        {
          "internalType": "UFixed6",
          "name": "",
          "type": "uint256"
        }
      ],
      "stateMutability": "view",
      "type": "function"
    },
    {
      "inputs": [],
      "name": "ethTokenOracleFeed",
      "outputs": [
        {
          "internalType": "contract AggregatorV3Interface",
          "name": "",
          "type": "address"
        }
      ],
      "stateMutability": "view",
      "type": "function"
    },
    {
      "inputs": [
        {
          "internalType": "contract AggregatorV3Interface",
          "name": "ethOracle_",
          "type": "address"
        }
      ],
      "name": "initialize",
      "outputs": [],
      "stateMutability": "nonpayable",
      "type": "function"
    },
    {
      "inputs": [
        {
          "components": [
            {
              "internalType": "enum IMultiInvoker.PerennialAction",
              "name": "action",
              "type": "uint8"
            },
            {
              "internalType": "bytes",
              "name": "args",
              "type": "bytes"
            }
          ],
          "internalType": "struct IMultiInvoker.Invocation[]",
          "name": "invocations",
          "type": "tuple[]"
        }
      ],
      "name": "invoke",
      "outputs": [],
      "stateMutability": "payable",
      "type": "function"
    },
    {
      "inputs": [
        {
          "internalType": "address",
          "name": "account",
          "type": "address"
        },
        {
          "components": [
            {
              "internalType": "enum IMultiInvoker.PerennialAction",
              "name": "action",
              "type": "uint8"
            },
            {
              "internalType": "bytes",
              "name": "args",
              "type": "bytes"
            }
          ],
          "internalType": "struct IMultiInvoker.Invocation[]",
          "name": "invocations",
          "type": "tuple[]"
        }
      ],
      "name": "invoke",
      "outputs": [],
      "stateMutability": "payable",
      "type": "function"
    },
    {
      "inputs": [],
      "name": "keepBufferBase",
      "outputs": [
        {
          "internalType": "uint256",
          "name": "",
          "type": "uint256"
        }
      ],
      "stateMutability": "view",
      "type": "function"
    },
    {
      "inputs": [],
      "name": "keepBufferCalldata",
      "outputs": [
        {
          "internalType": "uint256",
          "name": "",
          "type": "uint256"
        }
      ],
      "stateMutability": "view",
      "type": "function"
    },
    {
      "inputs": [],
      "name": "keeperToken",
      "outputs": [
        {
          "internalType": "Token18",
          "name": "",
          "type": "address"
        }
      ],
      "stateMutability": "view",
      "type": "function"
    },
    {
      "inputs": [],
      "name": "latestNonce",
      "outputs": [
        {
          "internalType": "uint256",
          "name": "",
          "type": "uint256"
        }
      ],
      "stateMutability": "view",
      "type": "function"
    },
    {
      "inputs": [],
      "name": "marketFactory",
      "outputs": [
        {
          "internalType": "contract IFactory",
          "name": "",
          "type": "address"
        }
      ],
      "stateMutability": "view",
      "type": "function"
    },
    {
      "inputs": [
        {
          "internalType": "address",
          "name": "",
          "type": "address"
        },
        {
          "internalType": "address",
          "name": "",
          "type": "address"
        }
      ],
      "name": "operators",
      "outputs": [
        {
          "internalType": "bool",
          "name": "",
          "type": "bool"
        }
      ],
      "stateMutability": "view",
      "type": "function"
    },
    {
      "inputs": [
        {
          "internalType": "address",
          "name": "account",
          "type": "address"
        },
        {
          "internalType": "contract IMarket",
          "name": "market",
          "type": "address"
        },
        {
          "internalType": "uint256",
          "name": "nonce",
          "type": "uint256"
        }
      ],
      "name": "orders",
      "outputs": [
        {
          "components": [
            {
              "internalType": "uint8",
              "name": "side",
              "type": "uint8"
            },
            {
              "internalType": "int8",
              "name": "comparison",
              "type": "int8"
            },
            {
              "internalType": "UFixed6",
              "name": "fee",
              "type": "uint256"
            },
            {
              "internalType": "Fixed6",
              "name": "price",
              "type": "int256"
            },
            {
              "internalType": "Fixed6",
              "name": "delta",
              "type": "int256"
            },
            {
              "components": [
                {
                  "internalType": "UFixed6",
                  "name": "amount",
                  "type": "uint256"
                },
                {
                  "internalType": "address",
                  "name": "receiver",
                  "type": "address"
                }
              ],
              "internalType": "struct InterfaceFee",
              "name": "interfaceFee1",
              "type": "tuple"
            },
            {
              "components": [
                {
                  "internalType": "UFixed6",
                  "name": "amount",
                  "type": "uint256"
                },
                {
                  "internalType": "address",
                  "name": "receiver",
                  "type": "address"
                }
              ],
              "internalType": "struct InterfaceFee",
              "name": "interfaceFee2",
              "type": "tuple"
            }
          ],
          "internalType": "struct TriggerOrder",
          "name": "",
          "type": "tuple"
        }
      ],
      "stateMutability": "view",
      "type": "function"
    },
    {
      "inputs": [],
      "name": "reserve",
      "outputs": [
        {
          "internalType": "contract IEmptySetReserve",
          "name": "",
          "type": "address"
        }
      ],
      "stateMutability": "view",
      "type": "function"
    },
    {
      "inputs": [
        {
          "internalType": "address",
          "name": "operator",
          "type": "address"
        },
        {
          "internalType": "bool",
          "name": "newEnabled",
          "type": "bool"
        }
      ],
      "name": "updateOperator",
      "outputs": [],
      "stateMutability": "nonpayable",
      "type": "function"
    },
    {
      "inputs": [],
      "name": "vaultFactory",
      "outputs": [
        {
          "internalType": "contract IFactory",
          "name": "",
          "type": "address"
        }
      ],
      "stateMutability": "view",
      "type": "function"
    }
  ],
  "transactionHash": "0x63860a1f05683be7d317d3de23ed45ec2493777c1f919ec86463861a8a28038d",
  "args": [
    "0xaf88d065e77c8cC2239327C5EDb3A432268e5831",
    "0x52C64b8998eB7C80b6F526E99E29ABdcC86B841b",
    "0xDaD8A103473dfd47F90168A0E46766ed48e26EC7",
    "0xad3565680aEcEe27A39249D8c2D55dAc79BE5Ad0",
    "0x0000000000000000000000000000000000000000",
    "0x0d49c416103Cbd276d9c3cd96710dB264e3A0c27",
    1500000,
    35200
  ],
  "numDeployments": 6,
  "solcInputHash": "45d6150ed0f2d1edbe2945aba8000655",
  "bytecode": "0x610180346200029457620061b538819003601f8101601f191683016001600160401b0381118482101762000298578392829160405283396101009283918101031262000294576200005081620002ac565b6200005e60208301620002ac565b916200006d60408201620002ac565b6200007b60608301620002ac565b60808301516001600160a01b03959092908684168403620002945760a08501519687168703620002945760e060c08601519501519560805260a05260c05260e052845261012092835261014090815261016091825260405192615ef39485620002c286396080518581816127c30152818161498801528181615162015281816152ad01528181615733015261589b015260a0518581816103f1015281816104fb01528181610a0f015281816118c6015281816119f201528181611f8701528181612081015281816120a8015281816121f2015281816126f301528181612a4e01528181612b4a0152818161300d015281816130cb01528181613da701528181613ed3015281816143f9015281816144de015281816145fe015281816148e1015281816152fc0152818161585901526158ce015260c0518581816103b2015281816107af01528181610c6c01528181611887015281816121ae0152818161238c01528181612a0f01528181612dbc0152818161325d01528181613d68015281816145b6015281816147660152614b45015260e0518581816109d101528181612253015281816125f301528181612fcb015261463801525184818161277101528181614b860152818161513101526157620152518381816126520152818161279a0152818161519001526157930152518281816112c601528181612564015261380e0152518181816112f20152818161252a015261383a0152f35b5f80fd5b634e487b7160e01b5f52604160045260245ffd5b51906001600160a01b0382168203620002945756fe6080806040526004361015610012575f80fd5b5f3560e01c908163025a3a2914614b695750806306ae709514614b265780632637588e14614ad057806332878cc914614a8b578063402914f514614a535780636d44a3b2146149c757806378fab5c7146149ac57806389a302711461496957806392fd2daf14614905578063a2060bcf146148c2578063aba30dfa146148a7578063b20caf4514614862578063bdec4a271461288b578063c4d66de814612676578063cd3293de14612633578063cf542a4d14612617578063d8a06f73146125d4578063dd02df16146125aa578063df80522a14612587578063f331efef1461254d578063f3a8f356146125135763f5ad71261461010e575f80fd5b604060031936011261057457610122614baa565b60243567ffffffffffffffff811161057457610142903690600401614bef565b90336001600160a01b0384161415806124e9575b6124bf575f5b8281106102655747804710610207575f80808093335af161017b615668565b501561018357005b60846040517f08c379a000000000000000000000000000000000000000000000000000000000815260206004820152603a60248201527f416464726573733a20756e61626c6520746f2073656e642076616c75652c207260448201527f6563697069656e74206d617920686176652072657665727465640000000000006064820152fd5b60646040517f08c379a000000000000000000000000000000000000000000000000000000000815260206004820152601d60248201527f416464726573733a20696e73756666696369656e742062616c616e63650000006044820152fd5b8060051b8201357fffffffffffffffffffffffffffffffffffffffffffffffffffffffffffffffc18336030181121561057457820160408136031261057457604051906102b182614cdb565b8035600b811015610574578252602081013567ffffffffffffffff81116105745736601f828401011215610574576102f19136910180359060200161535a565b60208201528051600b811015612492576001036105fc5760200151908151820161014083602083019203126105745761032c60208401615390565b9260408101519360608201519460808301519260a08101519161036c61035460c08401614f9c565b966101206103658260e08701615407565b9401615407565b946040517f032bb4430000000000000000000000000000000000000000000000000000000081526001600160a01b03861660048201526020816024816001600160a01b037f0000000000000000000000000000000000000000000000000000000000000000165afa908115610569575f916105c2575b50156105985761041a610415307f0000000000000000000000000000000000000000000000000000000000000000615697565b6158f2565b938c8860016104288461594c565b1461057e575b505060208401516001600160a01b03168061057857506001600160a01b03602088015116915b6001600160a01b0387163b15610574576001600160a01b039a8b948f60046040519e8f927f977b1f5f0000000000000000000000000000000000000000000000000000000084521691015260248d015260448c015260648b015260848a01525f60a48a01521660c48801525f8760e481836001600160a01b0388165af19485156105695764e8d4a510006105246105359460019a61053b9961055a575b5061051f610415307f0000000000000000000000000000000000000000000000000000000000000000615697565b615987565b059081610541575b5050828a61599f565b8761599f565b0161015c565b61054d61055392615d15565b8c6152dd565b5f8061052c565b61056390614cf7565b5f6104f1565b6040513d5f823e3d90fd5b5f80fd5b91610454565b6105919161058b84615d15565b90615889565b8c8861042e565b60046040517f47b7c1b0000000000000000000000000000000000000000000000000000000008152fd5b90506020813d6020116105f4575b816105dd60209383614d98565b81010312610574576105ee90614f9c565b5f6103e2565b3d91506105d0565b8051600b8110156124925760090361093357602001519081518201916101c0818403126105745761062f60208201615390565b926101807fffffffffffffffffffffffffffffffffffffffffffffffffffffffffffffffe08383030112610574576040519161066a83614d44565b60408101518352606081015160208401526080810151604084015261069160a08201615390565b60608401526106a260c08201615390565b608084015260e081015160a084015260c07fffffffffffffffffffffffffffffffffffffffffffffffffffffffffffffff208284030112610574576040516106e981614d60565b6106f66101008301615390565b81526107056101208301615390565b60208201526107176101408301615390565b6040820152610160820151606082015261018082015160808201526101a082015160a082015260c08401526101c08101519167ffffffffffffffff8311610574576107699260208092019201016153c5565b906040517f032bb4430000000000000000000000000000000000000000000000000000000081526001600160a01b03851660048201526020816024816001600160a01b037f0000000000000000000000000000000000000000000000000000000000000000165afa908115610569575f916108f9575b5015610598576001600160a01b0384163b156105745760c0936001600160a01b035f818a6108d0839760a06040519b8c998a9889967f736a01df0000000000000000000000000000000000000000000000000000000088521660048701528051602487015260208101516044870152604081015160648701528660608201511660848701528660808201511660a48701528281015160c487015201518581511660e486015285602082015116610104860152856040820151166101248601526060810151610144860152608081015161016486015201516101848401526101c06101a48401526101c4830190615625565b0393165af1918215610569576001926108ea575b5061053b565b6108f390614cf7565b5f6108e4565b90506020813d60201161092b575b8161091460209383614d98565b810103126105745761092590614f9c565b5f6107df565b3d9150610907565b8051600b81101561249257600203610b4f57602001519081805160a093849181010312610574576020810151926001600160a01b03841684036105745760408201519361098b60608401519260808501519401614f9c565b926040517f032bb4430000000000000000000000000000000000000000000000000000000081526001600160a01b03831660048201526020816024816001600160a01b037f0000000000000000000000000000000000000000000000000000000000000000165afa908115610569575f91610b15575b50156105985785610b05575b7f000000000000000000000000000000000000000000000000000000000000000091610a393084615697565b936001600160a01b0382163b156105745760848b5f6001600160a01b03819581956040519d8e9788967fd2c3aaf200000000000000000000000000000000000000000000000000000000885216600487015260248601526044850152876064850152165af195861561056957600196610af6575b50610ad55750505f905b81610ac4575b505061053b565b610ace91876152dd565b5f80610abd565b64e8d4a5100091610aea610aef923090615697565b61571b565b0490610ab7565b610aff90614cf7565b5f610aad565b610b1084878b615889565b610a0d565b90506020813d602011610b47575b81610b3060209383614d98565b8101031261057457610b4190614f9c565b5f610a01565b3d9150610b23565b8051600b81101561249257600303611195576020015180518101818103906101408212610574576101207fffffffffffffffffffffffffffffffffffffffffffffffffffffffffffffffe0610ba660208601615390565b9301126105745760405192610bba84614d44565b604081015160ff81168103610574578452606081015191825f0b830361057457602061012091610c2294828801526080840151604088015260a0840151606088015260c08401516080880152610c1582820160e08601615407565b60a0880152019101615407565b60c08301526040517f032bb4430000000000000000000000000000000000000000000000000000000081526001600160a01b03821660048201526020816024816001600160a01b037f0000000000000000000000000000000000000000000000000000000000000000165afa908115610569575f9161115b575b5015610598576040820151156110e95760208201515f0b7fffffffffffffffffffffffffffffffffffffffffffffffffffffffffffffffff811415908161114f575b506110e95760ff82511660038111908115611113575b506110e9576001600160a01b0386165f52600160205260405f206001600160a01b0382165f5260205260405f205f547fffffffffffffffffffffffffffffffffffffffffffffffffffffffffffffffff81146110bc57600101805f555f5260205260405f2060ff808451161161109257607f60208401515f0b13611092577fffffffffffffffffffffffffffffffffffffffffffffffffffffffffffffff8060208401515f0b12611092576002610dae6040850151615b47565b14611092576002610dc26060850151615e10565b1461109257610dd46060840151615dc5565b15611092576002610de86080850151615e10565b1461109257610dfa6080840151615dc5565b15611092576002610e0f60a085015151615b6d565b14611092576002610e2460c085015151615b6d565b1461109257825160ff166020840151604085015191606086015193608087015160a08801519560208701516001600160a01b0316965165ffffffffffff169560c08a01519460208601516001600160a01b0316955165ffffffffffff1696604051610e8e81614d27565b828152815f0b602082015267ffffffffffffffff841660408201528460070b60608201528560070b608082015260a081015f90528a60c08201528960e082015261010081015f90528761012082015288610140820152610160015f905260081b61ff0016179060101b69ffffffffffffffff000016179060501b71ffffffffffffffff0000000000000000000016179060901b79ffffffffffffffff0000000000000000000000000000000000001617815560018101937fffffffffffffffffffffffff00000000000000000000000000000000000000009586865416178555610fbe9085907fffffffffffff000000000000ffffffffffffffffffffffffffffffffffffffff79ffffffffffff000000000000000000000000000000000000000083549260a01b169116179055565b79ffffffffffffffffffffffffffffffffffffffffffffffffffff938481541690556002019384541617835561103a9083907fffffffffffff000000000000ffffffffffffffffffffffffffffffffffffffff79ffffffffffff000000000000000000000000000000000000000083549260a01b169116179055565b81541690555f5491604051916001600160a01b031691806001600160a01b038916926110669082614c55565b037fb32ded07b7d673202a5f35a959c39fc092a3d213bff00dadc295545acedf22d391a460019061053b565b60046040517ff3469aa7000000000000000000000000000000000000000000000000000000008152fd5b7f4e487b71000000000000000000000000000000000000000000000000000000005f52601160045260245ffd5b60046040517fb6befb58000000000000000000000000000000000000000000000000000000008152fd5b600391501480611124575b5f610cf4565b506111326080830151615df8565b60028114908115611144575b5061111e565b60019150145f61113e565b6001915014155f610cde565b90506020813d60201161118d575b8161117660209383614d98565b810103126105745761118790614f9c565b5f610c9c565b3d9150611169565b8051600b81101561249257600403611247576020015190604082805181010312610574578160406111ca602060019501615390565b9101516001600160a01b0387165f52836020526001600160a01b0360405f20921691825f5260205260405f20815f526020525f600260408220828155828782015501556040519081527fd23ac4476ccf3eeb78c76d4b7bb113597bcd16c15d47656627ea6221d685ad7360206001600160a01b03891692a361053b565b8051600b81101561249257600503611e8d5760200151906060828051810103126105745761127760208301615390565b606061128560408501615390565b93015161129c81856001600160a01b038516614fa9565b15611e63576112b581856001600160a01b038516614e38565b6040516112c181614d0b565b5f81527f000000000000000000000000000000000000000000000000000000000000000060208201525f60408201527f000000000000000000000000000000000000000000000000000000000000000060608201526040820151604051906001600160a01b03861660208301526001600160a01b038816604083015260608201526060815261134f81614d0b565b60405161135b81614d7c565b5f81525f6020820152670de0b6b3a764000061139a845161139583611384602089015193615593565b0461138f4893615576565b90615bec565b6155a1565b049260606040820151910151915190608c820182116110bc577f0fffffffffffffffffffffffffffffffffffffffffffffffffffffffffffffff608c830116608c8301036110bc57604051917ff5d6ded7000000000000000000000000000000000000000000000000000000008352602083600481606c5afa928315610569575f93611e25575b50670de0b6b3a76400009361138f8561144a6114519695611395608c611395970160041b615576565b0491615576565b049061145d8284615bec565b600460a06001600160a01b037f2b50211693ec91bcfe327771928b74a8f475c508d53e86fca4153bcf0f0e87765416604051928380927ffeaf968c0000000000000000000000000000000000000000000000000000000082525afa908115610569575f91611dd8575b5080670de0b6b3a7640000810205670de0b6b3a764000014811517156110bc575f6305f5e100670de0b6b3a764000083020512611d9757670de0b6b3a7640000916305f5e10083611519930205906155a1565b046060828051810103126105745761153360208301615390565b90606061154260408501615390565b9301519080611d3d57506001600160a01b039161157993611574925f905b80821015611d3357509384925b1690615d24565b6155b4565b906115a682337f5b5cbfa852c5bd03e540eba853f8faf28a604a4d82bee1091096bfaea14d08c3546155ce565b604051925f84525f60208501526040840152606083015260808201527ffa0333956d06e335c550bd5fc4ac9c003c6545e371331b1071fa4d5d8519d6c160a03392a26001600160a01b0385163b15610574576040517f6a256b290000000000000000000000000000000000000000000000000000000081526001600160a01b03841660048201525f81602481836001600160a01b038b165af1801561056957611d24575b506040517f6e1936800000000000000000000000000000000000000000000000000000000081526001600160a01b0384166004820152610180816024816001600160a01b038a165afa908115610569575f91611c6d575b50604051917f55f575100000000000000000000000000000000000000000000000000000000083526001600160a01b03851660048401526080836024816001600160a01b038b165afa928315610569575f93611c0c575b508151835261170a6020840151615c10565b61172d61171a6060850151615c10565b6117276080860151615c10565b90615987565b80808301125f83129080158216911516176110bc5761174c9101615c6b565b9161175a6040850151615c10565b61177761176a60a0840151615c10565b61172760c0850151615c10565b80808301125f83129080158216911516176110bc576117969101615c6b565b906117c36117a76060870151615c10565b916117276101006117bb60e0840151615c10565b920151615c10565b80808301125f83129080158216911516176110bc576117e29101615c6b565b606085015260408401528160208401525f9160ff82511615611bc0575b50600160ff82511614611b76575b600260ff82511614611b2c575b600360ff82511614611ae7575b6020830151606060408501519401519360c060a0840151930151946040517f032bb4430000000000000000000000000000000000000000000000000000000081526001600160a01b038b1660048201526020816024816001600160a01b037f0000000000000000000000000000000000000000000000000000000000000000165afa908115610569575f91611aad575b5015610598576118ea610415307f0000000000000000000000000000000000000000000000000000000000000000615697565b9460016118f68261594c565b14611a8d575b60208501516001600160a01b031680611a8757506001600160a01b03602088015116915b6001600160a01b038c163b15610574576001600160a01b0393604051957f977b1f5f000000000000000000000000000000000000000000000000000000008752858c16600488015260248701526044860152606485015260848401525f60a48401521660c48201525f8160e481836001600160a01b038d165af197881561056957611a307f889f0643d669fbac53cbc7d1826992b9bce1fab5e9644034cffb9c0137fe9dd195611a276001600160a01b039564e8d4a51000611a1660209960019f988a9961055a575061051f610415307f0000000000000000000000000000000000000000000000000000000000000000615697565b0580611a6d575b5084868c1661599f565b82848a1661599f565b8187165f5288845260405f208282165f52845260405f20865f5284525f600260408220828155828c820155015560405195865216941692a361053b565b611a79611a8191615d15565b878d1661511a565b5f611a1d565b91611920565b611aa8611a9982615d15565b6001600160a01b038b16615728565b6118fc565b90506020813d602011611adf575b81611ac860209383614d98565b8101031261057457611ad990614f9c565b5f6118b7565b3d9150611abb565b905060808101516001611af982615dc5565b03611b2757507f80000000000000000000000000000000000000000000000000000000000000005b90611827565b611b21565b608081018051611b4357505f5b606084015261181a565b611b506060850151615c10565b905180808301125f83129080158216911516176110bc57611b719101615c6b565b611b39565b608081018051611b8d57505f5b604084015261180d565b611b9a6040850151615c10565b905180808301125f83129080158216911516176110bc57611bbb9101615c6b565b611b83565b60808201908151155f14611bdd5750505f5b60208401525f6117ff565b611be690615c10565b905180808301125f83129080158216911516176110bc57611c079101615c6b565b611bd2565b9092506080813d608011611c65575b81611c2860809383614d98565b8101031261057457606060405191611c3f83614d0b565b80518352602081015160208401526040810151604084015201516060820152915f6116f8565b3d9150611c1b565b9050610180813d61018011611d1c575b81611c8b6101809383614d98565b810103126105745760405190611ca082614d27565b805182526020810151602083015260408101516040830152606081015160608301526080810151608083015260a081015160a083015260c0808201519083015260e081015160e083015261010080820151908301526101208082015190830152610140808201519083015261016080910151908201525f6116a1565b3d9150611c7d565b611d2d90614cf7565b5f61164a565b905093849261156d565b7fffffffffffffffffffffffffffffffffffffffffffffffffffffffffffffffff81939293019081116110bc5764e8d4a510009004906001820182116110bc57611579936001600160a01b03936001611574940190611560565b6024906305f5e100670de0b6b3a7640000604051927f501f289e00000000000000000000000000000000000000000000000000000000845202056004820152fd5b905060a0813d60a011611e1d575b81611df360a09383614d98565b8101031261057457611e0481615bf9565b50611e16608060208301519201615bf9565b505f6114c6565b3d9150611de6565b9250906020833d602011611e5b575b81611e4160209383614d98565b810103126105745791519190670de0b6b3a7640000611421565b3d9150611e34565b60046040517f6f462962000000000000000000000000000000000000000000000000000000008152fd5b8051600b8110156124925760060361213957602001518051810160c08282031261057457611ebd60208301615390565b60408301519060608401519167ffffffffffffffff83116105745760208401603f84870101121561057457602083860101519267ffffffffffffffff841161210c578360051b9060405194611f156020840187614d98565b855260208501809260208801604082858c01010111610574576040838a0101915b604082858c01010183106120fc575050505060808601519460a087015167ffffffffffffffff811161057457611f7960c091602080611f809501918b01016153c5565b9701614f9c565b95611fab307f0000000000000000000000000000000000000000000000000000000000000000615697565b956001600160a01b0385163b15610574576040517f1e298b9000000000000000000000000000000000000000000000000000000000815260606004820152955160648701819052869493608486019392915f905b8082106120e0575050508461203281945f9896946001600160a01b03946024850152600319848303016044850152615625565b0393165af190816120d1575b5061206f575061204c615668565b9061205a575060019061053b565b6040519061206782614d7c565b5f8252615b97565b60019291506120a56120cc91610aea307f0000000000000000000000000000000000000000000000000000000000000000615697565b337f00000000000000000000000000000000000000000000000000000000000000006155ce565b61053b565b6120da90614cf7565b5f61203e565b8251865289975060209586019590920191600190910190611fff565b8251815260209283019201611f36565b7f4e487b71000000000000000000000000000000000000000000000000000000005f52604160045260245ffd5b8051600b811015612492576008036122fe57602001516020818051810103126105745761217060206001600160a01b039201615390565b16906040517f032bb4430000000000000000000000000000000000000000000000000000000081528260048201526020816024816001600160a01b037f0000000000000000000000000000000000000000000000000000000000000000165afa908115610569575f916122c4575b501580612216575b610598576120cc6001927f0000000000000000000000000000000000000000000000000000000000000000615436565b506040517f032bb4430000000000000000000000000000000000000000000000000000000081528260048201526020816024816001600160a01b037f0000000000000000000000000000000000000000000000000000000000000000165afa908115610569575f9161228a575b50156121e6565b90506020813d6020116122bc575b816122a560209383614d98565b81010312610574576122b690614f9c565b5f612283565b3d9150612298565b90506020813d6020116122f6575b816122df60209383614d98565b81010312610574576122f090614f9c565b5f6121de565b3d91506122d2565b8051600b81101561249257600a1461231a575b5060019061053b565b602001519060408280518101031261057457612344604061233d60208501615390565b9301614f9c565b916001600160a01b03604051917f032bb44300000000000000000000000000000000000000000000000000000000835216908160048201526020816024816001600160a01b037f0000000000000000000000000000000000000000000000000000000000000000165afa908115610569575f91612458575b50156105985760205f916024604051809481937f6ebc51e10000000000000000000000000000000000000000000000000000000083526001600160a01b038c1660048401525af1908115610569575f91612425575b5060019261241f91876152dd565b90612311565b90506020813d602011612450575b8161244060209383614d98565b8101031261057457516001612411565b3d9150612433565b90506020813d60201161248a575b8161247360209383614d98565b810103126105745761248490614f9c565b5f6123bc565b3d9150612466565b7f4e487b71000000000000000000000000000000000000000000000000000000005f52602160045260245ffd5b60046040517f42ecdedb000000000000000000000000000000000000000000000000000000008152fd5b506001600160a01b0383165f52600260205260405f20335f5260205260ff60405f20541615610156565b34610574575f6003193601126105745760206040517f00000000000000000000000000000000000000000000000000000000000000008152f35b34610574575f6003193601126105745760206040517f00000000000000000000000000000000000000000000000000000000000000008152f35b346105745760206125a061259a36614c20565b91614fa9565b6040519015158152f35b34610574576125d06125c46125be36614c20565b91614e38565b60405191829182614c55565b0390f35b34610574575f6003193601126105745760206040516001600160a01b037f0000000000000000000000000000000000000000000000000000000000000000168152f35b34610574575f6003193601126105745760205f54604051908152f35b34610574575f6003193601126105745760206040516001600160a01b037f0000000000000000000000000000000000000000000000000000000000000000168152f35b34610574576020600319360112610574576004356001600160a01b03808216809203610574577f6fee9688c285c5c5c97d6a1a29adced674e6b2ad0888b8ad2116b58a8b3ea24860028154101561285a57600290557f2801b00eb06461cf9fcb9758b5fafd884ff06a86177386f73b6c49f0bf5a5af090600182557f0000000000000000000000000000000000000000000000000000000000000000303b151580612853575b612829576127c16127e7925f957f2b50211693ec91bcfe327771928b74a8f475c508d53e86fca4153bcf0f0e877655827f5b5cbfa852c5bd03e540eba853f8faf28a604a4d82bee1091096bfaea14d08c355807f00000000000000000000000000000000000000000000000000000000000000001680612815575b507f0000000000000000000000000000000000000000000000000000000000000000168092615436565b7f0000000000000000000000000000000000000000000000000000000000000000615436565b557fbe9b076dc5b65990cca9dd9d7366682482e7817a6f6bc7f4faf4dc32af497f32602060405160028152a1005b806127c16128239286615436565b86612797565b60046040517fb9a621e1000000000000000000000000000000000000000000000000000000008152fd5b505f61271c565b60246040517f3db738da00000000000000000000000000000000000000000000000000000000815260026004820152fd5b60206003193601126105745760043567ffffffffffffffff8111610574576128b7903690600401614bef565b905f5b8281106128d95747804710610207575f80808093335af161017b615668565b8060051b8201357fffffffffffffffffffffffffffffffffffffffffffffffffffffffffffffffc183360301811215610574578201604081360312610574576040519061292582614cdb565b600b9080358281101561057457835260208101359067ffffffffffffffff8211610574570136601f820112156105745761296690369060208135910161535a565b916020810192835280518281101561249257600103612c0b5750505190815182016101408360208301920312610574576129a260208401615390565b92604081015193606082015160808301519260a0810151916129c961035460c08401614f9c565b946040517f032bb4430000000000000000000000000000000000000000000000000000000081526001600160a01b03861660048201526020816024816001600160a01b037f0000000000000000000000000000000000000000000000000000000000000000165afa908115610569575f91612bd1575b501561059857612a72610415307f0000000000000000000000000000000000000000000000000000000000000000615697565b936001612a7e8261594c565b14612bb9575b60208401516001600160a01b031680612bb357506001600160a01b03602088015116915b6001600160a01b0387163b15610574576001600160a01b03936040519b7f977b1f5f000000000000000000000000000000000000000000000000000000008d528c60043391015260248d015260448c015260648b015260848a01525f60a48a01521660c48801525f8760e481836001600160a01b0388165af19485156105695764e8d4a51000612b6e612b7f9460019a612b8599612ba4575061051f610415307f0000000000000000000000000000000000000000000000000000000000000000615697565b059081612b8b575b5050823361599f565b3361599f565b016128ba565b612b97612b9d92615d15565b336152dd565b8980612b76565b612bad90614cf7565b8d6104f1565b91612aa8565b612bcc88612bc683615d15565b33615889565b612a84565b90506020813d602011612c03575b81612bec60209383614d98565b8101031261057457612bfd90614f9c565b8c612a3f565b3d9150612bdf565b80518281101561249257600903612f3c575050519081518201916101c08184031261057457612c3c60208201615390565b926101807fffffffffffffffffffffffffffffffffffffffffffffffffffffffffffffffe083830301126105745760405190612c7782614d44565b604083015182526060830151602083015260808301516040830152612c9e60a08401615390565b606083015260c092612cb1848201615390565b608084015260e081015160a0840152837fffffffffffffffffffffffffffffffffffffffffffffffffffffffffffffff20828403011261057457604051612cf781614d60565b612d046101008301615390565b8152612d136101208301615390565b6020820152612d256101408301615390565b6040820152610160820151606082015261018082015160808201526101a082015160a0820152848401526101c08101519167ffffffffffffffff831161057457612d769260208092019201016153c5565b936040517f032bb4430000000000000000000000000000000000000000000000000000000081526001600160a01b03821660048201526020816024816001600160a01b037f0000000000000000000000000000000000000000000000000000000000000000165afa908115610569575f91612f02575b5015610598576001600160a01b0381163b15610574575f92836001600160a01b0360a094612ed9604051998a97889687947f736a01df0000000000000000000000000000000000000000000000000000000086523360048701528051602487015260208101516044870152604081015160648701528660608201511660848701528660808201511660a48701528281015160c487015201518581511660e486015285602082015116610104860152856040820151166101248601526060810151610144860152608081015161016486015201516101848401526101c06101a48401526101c4830190615625565b0393165af191821561056957600192612ef3575b50612b85565b612efc90614cf7565b84612eed565b90506020813d602011612f34575b81612f1d60209383614d98565b8101031261057457612f2e90614f9c565b88612dec565b3d9150612f10565b8051828110156124925760020361314f575050519081805160a091829181010312610574576020830151926001600160a01b03908185168503610574576040810151612f9360608301519460808401519301614f9c565b936040517f032bb4430000000000000000000000000000000000000000000000000000000081528488166004820152602081602481887f0000000000000000000000000000000000000000000000000000000000000000165afa908115610569575f91613115575b50156105985781613105575b613031307f0000000000000000000000000000000000000000000000000000000000000000615697565b938088163b15610574575f92836084926040519a8b9586947fd2c3aaf200000000000000000000000000000000000000000000000000000000865233600487015260248601526044850152876064850152165af1948515610569576001956130f6575b506130bb57505f905b816130aa575b5050612b85565b6130b491336152dd565b84806130a3565b6130ef64e8d4a5100091610aea307f0000000000000000000000000000000000000000000000000000000000000000615697565b049061309d565b6130ff90614cf7565b87613094565b613110858333615889565b613007565b90506020813d602011613147575b8161313060209383614d98565b810103126105745761314190614f9c565b8a612ffb565b3d9150613123565b805182811015612492576003036136f35750505180518101818103906101408212610574576101207fffffffffffffffffffffffffffffffffffffffffffffffffffffffffffffffe06131a460208601615390565b93011261057457604051926131b884614d44565b604081015160ff81168103610574578452606081015191825f0b83036105745760206101209161321394828801526080840151604088015260a0840151606088015260c08401516080880152610c1582820160e08601615407565b60c08301526040517f032bb4430000000000000000000000000000000000000000000000000000000081526001600160a01b03821660048201526020816024816001600160a01b037f0000000000000000000000000000000000000000000000000000000000000000165afa908115610569575f916136b9575b5015610598576040820151156110e95760208201515f0b7fffffffffffffffffffffffffffffffffffffffffffffffffffffffffffffffff81141590816136ad575b506110e95760ff82511660038111908115613671575b506110e957335f52600160205260405f206001600160a01b0382165f5260205260405f205f547fffffffffffffffffffffffffffffffffffffffffffffffffffffffffffffffff81146110bc57600101805f555f5260205260405f2060ff808451161161109257607f60208401515f0b13611092577fffffffffffffffffffffffffffffffffffffffffffffffffffffffffffffff8060208401515f0b126110925760026133966040850151615b47565b146110925760026133aa6060850151615e10565b14611092576133bc6060840151615dc5565b156110925760026133d06080850151615e10565b14611092576133e26080840151615dc5565b156110925760026133f760a085015151615b6d565b1461109257600261340c60c085015151615b6d565b1461109257825160ff166020840151604085015191606086015193608087015160a08801519560208701516001600160a01b0316965165ffffffffffff169560c08a01519460208601516001600160a01b0316955165ffffffffffff169660405161347681614d27565b828152815f0b602082015267ffffffffffffffff841660408201528460070b60608201528560070b608082015260a081015f90528a60c08201528960e082015261010081015f90528761012082015288610140820152610160015f905260081b61ff0016179060101b69ffffffffffffffff000016179060501b71ffffffffffffffff0000000000000000000016179060901b79ffffffffffffffff0000000000000000000000000000000000001617815560018101937fffffffffffffffffffffffff000000000000000000000000000000000000000095868654161785556135a69085907fffffffffffff000000000000ffffffffffffffffffffffffffffffffffffffff79ffffffffffff000000000000000000000000000000000000000083549260a01b169116179055565b79ffffffffffffffffffffffffffffffffffffffffffffffffffff93848154169055600201938454161783556136229083907fffffffffffff000000000000ffffffffffffffffffffffffffffffffffffffff79ffffffffffff000000000000000000000000000000000000000083549260a01b169116179055565b81541690555f5491604051916001600160a01b0316918033926136459082614c55565b037fb32ded07b7d673202a5f35a959c39fc092a3d213bff00dadc295545acedf22d391a4600190612b85565b600391501480613682575b866132e5565b506136906080830151615df8565b600281149081156136a2575b5061367c565b60019150148661369c565b600191501415866132cf565b90506020813d6020116136eb575b816136d460209383614d98565b81010312610574576136e590614f9c565b8661328d565b3d91506136c7565b80518281101561249257600403613791575050519060408280518101031261057457816040613726602060019501615390565b910151335f52836020526001600160a01b0360405f20921691825f5260205260405f20815f526020525f600260408220828155828782015501556040519081527fd23ac4476ccf3eeb78c76d4b7bb113597bcd16c15d47656627ea6221d685ad7360203392a3612b85565b805182811015612492576005036143085750505190606082805181010312610574576137bf60208301615390565b60606137cd60408501615390565b9301516137e481856001600160a01b038516614fa9565b15611e63576137fd81856001600160a01b038516614e38565b60405161380981614d0b565b5f81527f000000000000000000000000000000000000000000000000000000000000000060208201525f60408201527f000000000000000000000000000000000000000000000000000000000000000060608201526040820151604051906001600160a01b03861660208301526001600160a01b038816604083015260608201526060815261389781614d0b565b6040516138a381614d7c565b5f81525f6020820152670de0b6b3a76400006138cc845161139583611384602089015193615593565b049260606040820151910151915190608c820182116110bc577f0fffffffffffffffffffffffffffffffffffffffffffffffffffffffffffffff608c830116608c8301036110bc57604051917ff5d6ded7000000000000000000000000000000000000000000000000000000008352602083600481606c5afa928315610569575f936142ca575b50670de0b6b3a76400009361138f8561144a61397c9695611395608c611395970160041b615576565b04906139888284615bec565b600460a06001600160a01b037f2b50211693ec91bcfe327771928b74a8f475c508d53e86fca4153bcf0f0e87765416604051928380927ffeaf968c0000000000000000000000000000000000000000000000000000000082525afa908115610569575f9161427d575b50670de0b6b3a7640000810290808205670de0b6b3a764000014901517156110bc575f6305f5e10082051261424657670de0b6b3a7640000916305f5e100613a3a9205906155a1565b0460608280518101031261057457613a5460208301615390565b906060613a6360408501615390565b93015190806141ec57506001600160a01b0391613a9393611574925f9080821015611d3357509384921690615d24565b90613ac082337f5b5cbfa852c5bd03e540eba853f8faf28a604a4d82bee1091096bfaea14d08c3546155ce565b604051925f84525f60208501526040840152606083015260808201527ffa0333956d06e335c550bd5fc4ac9c003c6545e371331b1071fa4d5d8519d6c160a03392a26001600160a01b0385163b15610574576040517f6a256b290000000000000000000000000000000000000000000000000000000081526001600160a01b03841660048201525f81602481836001600160a01b038b165af18015610569576141dd575b506040517f6e1936800000000000000000000000000000000000000000000000000000000081526001600160a01b03841660048201526101809081816024816001600160a01b038b165afa918215610569575f9261412d575b5050604051917f55f575100000000000000000000000000000000000000000000000000000000083526001600160a01b03851660048401526080836024816001600160a01b038b165afa928315610569575f936140cc575b5081518352613c276020840151615c10565b613c3761171a6060850151615c10565b80808301125f83129080158216911516176110bc57613c569101615c6b565b91613c646040850151615c10565b613c7461176a60a0840151615c10565b80808301125f83129080158216911516176110bc57613c939101615c6b565b90613ca46117a76060870151615c10565b80808301125f83129080158216911516176110bc57613cc39101615c6b565b606085015260408401528160208401525f9160ff82511615614080575b50600160ff82511614614036575b600260ff82511614613fec575b600360ff82511614613fa7575b6020830151606060408501519401519360c060a0840151930151946040517f032bb4430000000000000000000000000000000000000000000000000000000081526001600160a01b038b1660048201526020816024816001600160a01b037f0000000000000000000000000000000000000000000000000000000000000000165afa908115610569575f91613f6d575b501561059857613dcb610415307f0000000000000000000000000000000000000000000000000000000000000000615697565b946001613dd78261594c565b14613f5c575b60208501516001600160a01b031680613f5657506001600160a01b03602088015116915b6001600160a01b038c163b15610574576001600160a01b0393604051957f977b1f5f000000000000000000000000000000000000000000000000000000008752858c16600488015260248701526044860152606485015260848401525f60a48401521660c48201525f8160e481836001600160a01b038d165af197881561056957613f077f889f0643d669fbac53cbc7d1826992b9bce1fab5e9644034cffb9c0137fe9dd195611a276001600160a01b039564e8d4a51000613ef760209960019f988a9961055a575061051f610415307f0000000000000000000000000000000000000000000000000000000000000000615697565b0580613f44575084868c1661599f565b8187165f5288845260405f208282165f52845260405f20865f5284525f600260408220828155828c820155015560405195865216941692a3612b85565b611a79613f5091615d15565b8f611a1d565b91613e01565b613f68611a9982615d15565b613ddd565b90506020813d602011613f9f575b81613f8860209383614d98565b8101031261057457613f9990614f9c565b8d613d98565b3d9150613f7b565b905060808101516001613fb982615dc5565b03613fe757507f80000000000000000000000000000000000000000000000000000000000000005b90613d08565b613fe1565b60808101805161400357505f5b6060840152613cfb565b6140106060850151615c10565b905180808301125f83129080158216911516176110bc576140319101615c6b565b613ff9565b60808101805161404d57505f5b6040840152613cee565b61405a6040850151615c10565b905180808301125f83129080158216911516176110bc5761407b9101615c6b565b614043565b60808201908151155f1461409d5750505f5b602084015289613ce0565b6140a690615c10565b905180808301125f83129080158216911516176110bc576140c79101615c6b565b614092565b9092506080813d608011614125575b816140e860809383614d98565b81010312610574576060604051916140ff83614d0b565b805183526020810151602084015260408101516040840152015160608201529189613c15565b3d91506140db565b90809250813d83116141d6575b6141448183614d98565b81010312610574576040519061415982614d27565b805182526020810151602083015260408101516040830152606081015160608301526080810151608083015260a081015160a083015260c0808201519083015260e081015160e083015261010080820151908301526101208082015190830152610140808201519083015261016080910151908201528880613bbd565b503d61413a565b6141e690614cf7565b87613b64565b7fffffffffffffffffffffffffffffffffffffffffffffffffffffffffffffffff81939293019081116110bc5764e8d4a510009004906001820182116110bc57613a93936001600160a01b03936001611574940190611560565b6024906305f5e100604051917f501f289e000000000000000000000000000000000000000000000000000000008352056004820152fd5b905060a0813d60a0116142c2575b8161429860a09383614d98565b81010312610574576142a981615bf9565b506142bb608060208301519201615bf9565b508c6139f1565b3d915061428b565b9250906020833d602011614300575b816142e660209383614d98565b810103126105745791519190670de0b6b3a7640000613953565b3d91506142d9565b80518281101561249257600603614542575050518051810160c0828203126105745761433660208301615390565b60408301519060608401519167ffffffffffffffff83116105745760208401603f84870101121561057457602083860101519267ffffffffffffffff841161210c578360051b906040519461438e6020840187614d98565b855260208501809260208801604082858c01010111610574576040838a0101915b604082858c0101018310614532575050505060808601519460a087015167ffffffffffffffff811161057457611f7960c0916020806143f29501918b01016153c5565b9561441d307f0000000000000000000000000000000000000000000000000000000000000000615697565b956001600160a01b0385163b15610574576040517f1e298b9000000000000000000000000000000000000000000000000000000000815260606004820152955160648701819052869493608486019392915f905b80821061451657505050846144a481945f9896946001600160a01b03946024850152600319848303016044850152615625565b0393165af19081614507575b506144cc57506144be615668565b9061205a5750600190612b85565b60019291506120a561450291610aea307f0000000000000000000000000000000000000000000000000000000000000000615697565b612b85565b61451090614cf7565b866144b0565b8251865289975060209586019590920191600190910190614471565b82518152602092830192016143af565b805182811015612492576008036146e657505051906020828051810103126105745760209161457b6001600160a01b0393849201615390565b1691604051907f032bb443000000000000000000000000000000000000000000000000000000008083528460048401526024926020818581867f0000000000000000000000000000000000000000000000000000000000000000165afa908115610569575f916146ac575b50159283614622575b505050610598576145026001927f0000000000000000000000000000000000000000000000000000000000000000615436565b60209293506040518094819382528760048301527f0000000000000000000000000000000000000000000000000000000000000000165afa908115610569575f91614672575b50158580806145ef565b90506020813d6020116146a4575b8161468d60209383614d98565b810103126105745761469e90614f9c565b85614668565b3d9150614680565b90506020813d6020116146de575b816146c760209383614d98565b81010312610574576146d890614f9c565b886145e6565b3d91506146ba565b519081101561249257600a14614700575b50600190612b85565b519060408280518101031261057457614720604061233d60208501615390565b916001600160a01b0380916020604051809381937f032bb443000000000000000000000000000000000000000000000000000000008352169485600483015260249485917f0000000000000000000000000000000000000000000000000000000000000000165afa908115610569575f91614828575b5015610598575f91602091604051809481937f6ebc51e10000000000000000000000000000000000000000000000000000000083523360048401525af1908115610569575f916147f5575b506001926147ef91336152dd565b906146f7565b90506020813d602011614820575b8161481060209383614d98565b81010312610574575160016147e1565b3d9150614803565b90506020813d60201161485a575b8161484360209383614d98565b810103126105745761485490614f9c565b87614796565b3d9150614836565b34610574575f6003193601126105745760206001600160a01b037f2b50211693ec91bcfe327771928b74a8f475c508d53e86fca4153bcf0f0e87765416604051908152f35b34610574575f600319360112610574576020604051608c8152f35b34610574575f6003193601126105745760206040516001600160a01b037f0000000000000000000000000000000000000000000000000000000000000000168152f35b34610574576001600160a01b0361491b36614bc0565b9116903382141580614948575b6124bf57614946915f52600360205260405f205f81549155336152dd565b005b50815f52600260205260405f20335f5260205260ff60405f20541615614928565b34610574575f6003193601126105745760206040516001600160a01b037f0000000000000000000000000000000000000000000000000000000000000000168152f35b34610574575f60031936011261057457602060405160108152f35b34610574576149d536614bc0565b335f5260026020526001600160a01b0360405f20921691825f5260205260405f20901515907fffffffffffffffffffffffffffffffffffffffffffffffffffffffffffffff0081541660ff83161790556040519081527f2738289d9deecdc30eb8ffc42876633caecca1ffa166e4efa89f408e17373a1a60203392a3005b34610574576020600319360112610574576001600160a01b03614a74614baa565b165f526003602052602060405f2054604051908152f35b34610574575f6003193601126105745760207f5b5cbfa852c5bd03e540eba853f8faf28a604a4d82bee1091096bfaea14d08c3546001600160a01b0360405191168152f35b3461057457604060031936011261057457614ae9614baa565b602435906001600160a01b039081831680930361057457165f52600260205260405f20905f52602052602060ff60405f2054166040519015158152f35b34610574575f6003193601126105745760206040516001600160a01b037f0000000000000000000000000000000000000000000000000000000000000000168152f35b34610574575f600319360112610574576020906001600160a01b037f0000000000000000000000000000000000000000000000000000000000000000168152f35b600435906001600160a01b038216820361057457565b6003196040910112610574576004356001600160a01b0381168103610574579060243580151581036105745790565b9181601f840112156105745782359167ffffffffffffffff8311610574576020808501948460051b01011161057457565b6003196060910112610574576001600160a01b0390600435828116810361057457916024359081168103610574579060443590565b614cd99092919260e060c061012083019560ff815116845260208101515f0b6020850152604081015160408501526060810151606085015260808101516080850152614cbc60a082015160a08601906001600160a01b036020809280518552015116910152565b01519101906001600160a01b036020809280518552015116910152565b565b6040810190811067ffffffffffffffff82111761210c57604052565b67ffffffffffffffff811161210c57604052565b6080810190811067ffffffffffffffff82111761210c57604052565b610180810190811067ffffffffffffffff82111761210c57604052565b60e0810190811067ffffffffffffffff82111761210c57604052565b60c0810190811067ffffffffffffffff82111761210c57604052565b6020810190811067ffffffffffffffff82111761210c57604052565b90601f7fffffffffffffffffffffffffffffffffffffffffffffffffffffffffffffffe0910116810190811067ffffffffffffffff82111761210c57604052565b60405190614de682614d44565b815f81525f60208201525f60408201525f60608201525f6080820152604051614e0e81614cdb565b5f81525f602082015260a082015260c060405191614e2b83614cdb565b5f83525f60208401520152565b919091614e43614dd9565b506001600160a01b038091165f526020916001835260409382855f2091165f528352835f20905f528252825f20614e78614dd9565b50835191614e8583614d27565b81549360ff8516958685528560081c5f0b808387015267ffffffffffffffff8760101c169283838801528760501c60070b948560608901528860901c60070b968760808a01527fffffffffffff0000000000000000000000000000000000000000000000000000809a1660a08a015260018101549889916002848416918260c08501528d65ffffffffffff809660a01c169d8e60e08701521661010085015201549161016061012082019d8e8786169052610140830194868160a01c1686521691015286519a614f548c614cdb565b8b52848b01525116985116835198614f6b8a614cdb565b895281890152825198614f7d8a614d44565b89528801528601526060850152608084015260a083015260c082015290565b5190811515820361057457565b9181614fb59293614e38565b6040908181015115615113576001600160a01b0380938351907f7dc0d1d0000000000000000000000000000000000000000000000000000000008252816004816020958694165afa8015615109575f906150d2575b6060915060048551809781937f52bfe789000000000000000000000000000000000000000000000000000000008352165afa9283156150c9575f93615059575b505061505692506154e0565b90565b909192506060843d6060116150c1575b8161507660609383614d98565b81010312610574578051916060830183811067ffffffffffffffff82111761210c578252845183528085015190830152615056936150b5908201614f9c565b90820152905f8061504a565b3d9150615069565b513d5f823e3d90fd5b508181813d8311615102575b6150e88183614d98565b81010312610574575184811681036105745760609061500a565b503d6150de565b84513d5f823e3d90fd5b5050505f90565b90615124906155b4565b906001600160a01b0390817f0000000000000000000000000000000000000000000000000000000000000000168015801561529e575b1561523057507f00000000000000000000000000000000000000000000000000000000000000009161518c3084615697565b93817f00000000000000000000000000000000000000000000000000000000000000001690813b15610574575f916024839260405194859384927fdb006a7500000000000000000000000000000000000000000000000000000000845260048401525af1801561056957615221575b50309082160361520a57505050565b61521b614cd993610aea3085615697565b916155ce565b61522a90614cf7565b5f6151fb565b809392503b15610574576040517f7647691d00000000000000000000000000000000000000000000000000000000815260048101929092526001600160a01b03166024820152905f908290818381604481015b03925af1801561056957615295575b50565b614cd990614cf7565b5060026152d76152d1611574847f0000000000000000000000000000000000000000000000000000000000000000615697565b86615b86565b1461515a565b91156152ec57615124906155b4565b906152f9614cd9926155b4565b907f00000000000000000000000000000000000000000000000000000000000000006155ce565b67ffffffffffffffff811161210c57601f017fffffffffffffffffffffffffffffffffffffffffffffffffffffffffffffffe01660200190565b92919261536682615320565b916153746040519384614d98565b829481845281830111610574578281602093845f960137010152565b51906001600160a01b038216820361057457565b5f5b8381106153b55750505f910152565b81810151838201526020016153a6565b81601f820112156105745780516153db81615320565b926153e96040519485614d98565b818452602082840101116105745761505691602080850191016153a4565b91908260409103126105745760405161541f81614cdb565b60206154318183958051855201615390565b910152565b9060209060446001600160a01b03915f8360405196879586947f095ea7b30000000000000000000000000000000000000000000000000000000086521660048501527fffffffffffffffffffffffffffffffffffffffffffffffffffffffffffffffff6024850152165af18015610569576154ae5750565b6020813d6020116154d8575b816154c760209383614d98565b810103126105745761529290614f9c565b3d91506154ba565b6040820151156155705760208101515f0b6001811461554d577fffffffffffffffffffffffffffffffffffffffffffffffffffffffffffffffff146155255750505f90565b6060602061553893015191015190615e2b565b8015908115615545575090565b600191501490565b506060602061556193015191015190615e2b565b60028114908115615545575090565b50505f90565b90670de0b6b3a7640000918281029281840414901517156110bc57565b905f9115600117156110bc57565b818102929181159184041417156110bc57565b64e8d4a51000908181029181830414901517156110bc5790565b91614cd9926001600160a01b039182604051947fa9059cbb00000000000000000000000000000000000000000000000000000000602087015216602485015260448401526044835261561f83614d0b565b16615a3c565b907fffffffffffffffffffffffffffffffffffffffffffffffffffffffffffffffe0601f602093615661815180928187528780880191016153a4565b0116010190565b3d15615692573d9061567982615320565b916156876040519384614d98565b82523d5f602084013e565b606090565b9060209060246001600160a01b03918260405195869485937f70a08231000000000000000000000000000000000000000000000000000000008552166004840152165afa908115610569575f916156ec575090565b90506020813d602011615713575b8161570760209383614d98565b81010312610574575190565b3d91506156fa565b919082039182116110bc57565b9061157481615757937f0000000000000000000000000000000000000000000000000000000000000000615ca6565b6001600160a01b03807f0000000000000000000000000000000000000000000000000000000000000000168015801561584d575b1561580057507f00000000000000000000000000000000000000000000000000000000000000001690813b15610574575f916024839260405194859384927fa0712d6800000000000000000000000000000000000000000000000000000000845260048401525af18015610569576152955750565b8091503b15610574576040517f13bac82000000000000000000000000000000000000000000000000000000000815260048101929092523060248301525f90829081838160448101615283565b50600261588361587d837f0000000000000000000000000000000000000000000000000000000000000000615697565b85615b86565b1461578b565b9091156158bf579061157481615757937f0000000000000000000000000000000000000000000000000000000000000000615ca6565b6158cb614cd9926155b4565b907f0000000000000000000000000000000000000000000000000000000000000000615ca6565b7f7fffffffffffffffffffffffffffffffffffffffffffffffffffffffffffffff811161591c5790565b602490604051907ea07eb50000000000000000000000000000000000000000000000000000000082526004820152fd5b5f8113615981575f1361595d575f90565b7fffffffffffffffffffffffffffffffffffffffffffffffffffffffffffffffff90565b50600190565b81810392915f1380158285131691841216176110bc57565b919081518015615a3657816159d8604092867f037af8589fe92360e800c649b0515b0b2bf77b577766ff952b17630c4ad25f4795615d24565b602084016001600160a01b03918183809351165f52600360205282615a02865f2054895190615bec565b9151165f526003602052845f2055615a2f845180976001600160a01b036020809280518552015116910152565b16941692a3565b50505050565b604051615a99916001600160a01b0316615a5582614cdb565b5f806020958685527f5361666545524332303a206c6f772d6c6576656c2063616c6c206661696c656487860152868151910182855af1615a93615668565b91615e3c565b805180615aa557505050565b818391810103126105745781615abb9101614f9c565b15615ac35750565b608490604051907f08c379a00000000000000000000000000000000000000000000000000000000082526004820152602a60248201527f5361666545524332303a204552433230206f7065726174696f6e20646964206e60448201527f6f742073756363656564000000000000000000000000000000000000000000006064820152fd5b67ffffffffffffffff90818111615b665710615b6257600190565b5f90565b5050600290565b65ffffffffffff90818111615b665710615b6257600190565b818111615b665710615b6257600190565b805190919015615baa5750805190602001fd5b615be8906040519182917f08c379a0000000000000000000000000000000000000000000000000000000008352602060048401526024830190615625565b0390fd5b919082018092116110bc57565b519069ffffffffffffffffffff8216820361057457565b7f7fffffffffffffffffffffffffffffffffffffffffffffffffffffffffffffff8111615c3a5790565b602490604051907feecaa25d0000000000000000000000000000000000000000000000000000000082526004820152fd5b5f8112615c755790565b602490604051907fb02ef0870000000000000000000000000000000000000000000000000000000082526004820152fd5b916001600160a01b039081604051937f23b872dd00000000000000000000000000000000000000000000000000000000602086015216602484015230604484015260648301526064825260a082019282841067ffffffffffffffff85111761210c57614cd99360405216615a3c565b5f8112615d1f5790565b5f0390565b615d386001600160a01b0380921693615c10565b92803b15610574575f928360c49260405196879586947f91eece280000000000000000000000000000000000000000000000000000000086521660048501527fffffffffffffffffffffffffffffffffffffffffffffffffffffffffffffffff8060248601528060448601526064850152820360848401528160a48401525af18015610569576152955750565b7fffffffffffffffffffffffffffffffffffffffffffffffff800000000000000090818113615b665712615b6257600190565b5f8113615e0a575f13615b6257600190565b50600290565b677fffffffffffffff90818113615b665712615b6257600190565b818113615b665712615b6257600190565b91929015615eb75750815115615e50575090565b3b15615e595790565b60646040517f08c379a000000000000000000000000000000000000000000000000000000000815260206004820152601d60248201527f416464726573733a2063616c6c20746f206e6f6e2d636f6e74726163740000006044820152fd5b82615b9756fea26469706673582212204b5d62ae408d46e862210d8d0d70252b536aca8b83fa7f3fcd0385f6727c42af64736f6c63430008180033"
}