{
  "address": "0xC67c133685a5Aa3b0157045A009548B9E8671219",
  "abi": [
    {
      "inputs": [
        {
          "internalType": "contract AbstractPyth",
          "name": "pyth_",
          "type": "address"
        },
        {
          "internalType": "contract IGasOracle",
          "name": "commitmentGasOracle_",
          "type": "address"
        },
        {
          "internalType": "contract IGasOracle",
          "name": "settlementGasOracle_",
          "type": "address"
        },
        {
          "internalType": "address",
          "name": "implementation_",
          "type": "address"
        }
      ],
      "stateMutability": "nonpayable",
      "type": "constructor"
    },
    {
      "inputs": [],
      "name": "FactoryNotInstanceError",
      "type": "error"
    },
    {
      "inputs": [
        {
          "internalType": "uint256",
          "name": "version",
          "type": "uint256"
        }
      ],
      "name": "InitializableAlreadyInitializedError",
      "type": "error"
    },
    {
      "inputs": [],
      "name": "InitializableNotInitializingError",
      "type": "error"
    },
    {
      "inputs": [],
      "name": "InitializableZeroVersionError",
      "type": "error"
    },
    {
      "inputs": [],
      "name": "KeeperFactoryAlreadyCreatedError",
      "type": "error"
    },
    {
      "inputs": [],
      "name": "KeeperFactoryInvalidIdError",
      "type": "error"
    },
    {
      "inputs": [],
      "name": "KeeperFactoryInvalidParameterError",
      "type": "error"
    },
    {
      "inputs": [],
      "name": "KeeperFactoryInvalidPayoffError",
      "type": "error"
    },
    {
      "inputs": [],
      "name": "KeeperFactoryInvalidSettleError",
      "type": "error"
    },
    {
      "inputs": [],
      "name": "KeeperFactoryNotCreatedError",
      "type": "error"
    },
    {
      "inputs": [],
      "name": "KeeperFactoryNotInstanceError",
      "type": "error"
    },
    {
      "inputs": [],
      "name": "KeeperFactoryVersionOutsideRangeError",
      "type": "error"
    },
    {
      "inputs": [],
      "name": "KeeperOracleParameterStorageInvalidError",
      "type": "error"
    },
    {
      "inputs": [],
      "name": "OwnableAlreadyInitializedError",
      "type": "error"
    },
    {
      "inputs": [
        {
          "internalType": "address",
          "name": "sender",
          "type": "address"
        }
      ],
      "name": "OwnableNotOwnerError",
      "type": "error"
    },
    {
      "inputs": [
        {
          "internalType": "address",
          "name": "sender",
          "type": "address"
        }
      ],
      "name": "OwnableNotPendingOwnerError",
      "type": "error"
    },
    {
      "inputs": [
        {
          "internalType": "address",
          "name": "sender",
          "type": "address"
        }
      ],
      "name": "PausableNotPauserError",
      "type": "error"
    },
    {
      "inputs": [],
      "name": "PausablePausedError",
      "type": "error"
    },
    {
      "inputs": [],
      "name": "PythFactoryInvalidIdError",
      "type": "error"
    },
    {
      "anonymous": false,
      "inputs": [
        {
          "indexed": false,
          "internalType": "uint256",
          "name": "version",
          "type": "uint256"
        }
      ],
      "name": "Initialized",
      "type": "event"
    },
    {
      "anonymous": false,
      "inputs": [
        {
          "indexed": true,
          "internalType": "contract IInstance",
          "name": "instance",
          "type": "address"
        }
      ],
      "name": "InstanceRegistered",
      "type": "event"
    },
    {
      "anonymous": false,
      "inputs": [
        {
          "indexed": true,
          "internalType": "bytes32",
          "name": "id",
          "type": "bytes32"
        },
        {
          "indexed": true,
          "internalType": "bytes32",
          "name": "underlyingId",
          "type": "bytes32"
        }
      ],
      "name": "OracleAssociated",
      "type": "event"
    },
    {
      "anonymous": false,
      "inputs": [
        {
          "indexed": true,
          "internalType": "contract IOracleProvider",
          "name": "oracle",
          "type": "address"
        },
        {
          "indexed": true,
          "internalType": "bytes32",
          "name": "id",
          "type": "bytes32"
        }
      ],
      "name": "OracleCreated",
      "type": "event"
    },
    {
      "anonymous": false,
      "inputs": [
        {
          "indexed": true,
          "internalType": "address",
          "name": "newOwner",
          "type": "address"
        }
      ],
      "name": "OwnerUpdated",
      "type": "event"
    },
    {
      "anonymous": false,
      "inputs": [
        {
          "components": [
            {
              "internalType": "uint256",
              "name": "latestGranularity",
              "type": "uint256"
            },
            {
              "internalType": "uint256",
              "name": "currentGranularity",
              "type": "uint256"
            },
            {
              "internalType": "uint256",
              "name": "effectiveAfter",
              "type": "uint256"
            },
            {
              "internalType": "UFixed6",
              "name": "oracleFee",
              "type": "uint256"
            },
            {
              "internalType": "uint256",
              "name": "validFrom",
              "type": "uint256"
            },
            {
              "internalType": "uint256",
              "name": "validTo",
              "type": "uint256"
            }
          ],
          "indexed": false,
          "internalType": "struct KeeperOracleParameter",
          "name": "newParameter",
          "type": "tuple"
        }
      ],
      "name": "ParameterUpdated",
      "type": "event"
    },
    {
      "anonymous": false,
      "inputs": [],
      "name": "Paused",
      "type": "event"
    },
    {
      "anonymous": false,
      "inputs": [
        {
          "indexed": true,
          "internalType": "address",
          "name": "newPauser",
          "type": "address"
        }
      ],
      "name": "PauserUpdated",
      "type": "event"
    },
    {
      "anonymous": false,
      "inputs": [
        {
          "indexed": true,
          "internalType": "contract IPayoffProvider",
          "name": "payoff",
          "type": "address"
        }
      ],
      "name": "PayoffRegistered",
      "type": "event"
    },
    {
      "anonymous": false,
      "inputs": [
        {
          "indexed": true,
          "internalType": "address",
          "name": "newPendingOwner",
          "type": "address"
        }
      ],
      "name": "PendingOwnerUpdated",
      "type": "event"
    },
    {
      "anonymous": false,
      "inputs": [],
      "name": "Unpaused",
      "type": "event"
    },
    {
      "inputs": [
        {
          "internalType": "bytes32",
          "name": "",
          "type": "bytes32"
        }
      ],
      "name": "_toUnderlyingPayoff",
      "outputs": [
        {
          "internalType": "contract IPayoffProvider",
          "name": "provider",
          "type": "address"
        },
        {
          "internalType": "int16",
          "name": "decimals",
          "type": "int16"
        }
      ],
      "stateMutability": "view",
      "type": "function"
    },
    {
      "inputs": [],
      "name": "acceptOwner",
      "outputs": [],
      "stateMutability": "nonpayable",
      "type": "function"
    },
    {
      "inputs": [
        {
          "internalType": "bytes32[]",
          "name": "oracleIds",
          "type": "bytes32[]"
        },
        {
          "internalType": "uint256",
          "name": "version",
          "type": "uint256"
        },
        {
          "internalType": "bytes",
          "name": "data",
          "type": "bytes"
        }
      ],
      "name": "commit",
      "outputs": [],
      "stateMutability": "payable",
      "type": "function"
    },
    {
      "inputs": [],
      "name": "commitmentGasOracle",
      "outputs": [
        {
          "internalType": "contract IGasOracle",
          "name": "",
          "type": "address"
        }
      ],
      "stateMutability": "view",
      "type": "function"
    },
    {
      "inputs": [
        {
          "internalType": "bytes32",
          "name": "id",
          "type": "bytes32"
        },
        {
          "internalType": "bytes32",
          "name": "underlyingId",
          "type": "bytes32"
        },
        {
          "components": [
            {
              "internalType": "contract IPayoffProvider",
              "name": "provider",
              "type": "address"
            },
            {
              "internalType": "int16",
              "name": "decimals",
              "type": "int16"
            }
          ],
          "internalType": "struct IKeeperFactory.PayoffDefinition",
          "name": "payoff",
          "type": "tuple"
        }
      ],
      "name": "create",
      "outputs": [
        {
          "internalType": "contract IKeeperOracle",
          "name": "newOracle",
          "type": "address"
        }
      ],
      "stateMutability": "nonpayable",
      "type": "function"
    },
    {
      "inputs": [],
      "name": "current",
      "outputs": [
        {
          "internalType": "uint256",
          "name": "",
          "type": "uint256"
        }
      ],
      "stateMutability": "view",
      "type": "function"
    },
    {
      "inputs": [],
      "name": "factoryType",
      "outputs": [
        {
          "internalType": "string",
          "name": "",
          "type": "string"
        }
      ],
      "stateMutability": "view",
      "type": "function"
    },
    {
      "inputs": [
        {
          "internalType": "bytes32",
          "name": "",
          "type": "bytes32"
        },
        {
          "internalType": "contract IPayoffProvider",
          "name": "",
          "type": "address"
        }
      ],
      "name": "fromUnderlying",
      "outputs": [
        {
          "internalType": "bytes32",
          "name": "",
          "type": "bytes32"
        }
      ],
      "stateMutability": "view",
      "type": "function"
    },
    {
      "inputs": [
        {
          "internalType": "contract IOracleProvider",
          "name": "",
          "type": "address"
        }
      ],
      "name": "ids",
      "outputs": [
        {
          "internalType": "bytes32",
          "name": "",
          "type": "bytes32"
        }
      ],
      "stateMutability": "view",
      "type": "function"
    },
    {
      "inputs": [],
      "name": "implementation",
      "outputs": [
        {
          "internalType": "address",
          "name": "",
          "type": "address"
        }
      ],
      "stateMutability": "view",
      "type": "function"
    },
    {
      "inputs": [
        {
          "internalType": "contract IOracleFactory",
          "name": "oracleFactory_",
          "type": "address"
        }
      ],
      "name": "initialize",
      "outputs": [],
      "stateMutability": "nonpayable",
      "type": "function"
    },
    {
      "inputs": [
        {
          "internalType": "contract IInstance",
          "name": "instance",
          "type": "address"
        }
      ],
      "name": "instances",
      "outputs": [
        {
          "internalType": "bool",
          "name": "",
          "type": "bool"
        }
      ],
      "stateMutability": "view",
      "type": "function"
    },
    {
      "inputs": [],
      "name": "oracleFactory",
      "outputs": [
        {
          "internalType": "contract IOracleFactory",
          "name": "",
          "type": "address"
        }
      ],
      "stateMutability": "view",
      "type": "function"
    },
    {
      "inputs": [
        {
          "internalType": "bytes32",
          "name": "",
          "type": "bytes32"
        }
      ],
      "name": "oracles",
      "outputs": [
        {
          "internalType": "contract IOracleProvider",
          "name": "",
          "type": "address"
        }
      ],
      "stateMutability": "view",
      "type": "function"
    },
    {
      "inputs": [],
      "name": "owner",
      "outputs": [
        {
          "internalType": "address",
          "name": "",
          "type": "address"
        }
      ],
      "stateMutability": "view",
      "type": "function"
    },
    {
      "inputs": [],
      "name": "parameter",
      "outputs": [
        {
          "components": [
            {
              "internalType": "uint256",
              "name": "latestGranularity",
              "type": "uint256"
            },
            {
              "internalType": "uint256",
              "name": "currentGranularity",
              "type": "uint256"
            },
            {
              "internalType": "uint256",
              "name": "effectiveAfter",
              "type": "uint256"
            },
            {
              "internalType": "UFixed6",
              "name": "oracleFee",
              "type": "uint256"
            },
            {
              "internalType": "uint256",
              "name": "validFrom",
              "type": "uint256"
            },
            {
              "internalType": "uint256",
              "name": "validTo",
              "type": "uint256"
            }
          ],
          "internalType": "struct KeeperOracleParameter",
          "name": "",
          "type": "tuple"
        }
      ],
      "stateMutability": "view",
      "type": "function"
    },
    {
      "inputs": [],
      "name": "pause",
      "outputs": [],
      "stateMutability": "nonpayable",
      "type": "function"
    },
    {
      "inputs": [],
      "name": "paused",
      "outputs": [
        {
          "internalType": "bool",
          "name": "",
          "type": "bool"
        }
      ],
      "stateMutability": "view",
      "type": "function"
    },
    {
      "inputs": [],
      "name": "pauser",
      "outputs": [
        {
          "internalType": "address",
          "name": "",
          "type": "address"
        }
      ],
      "stateMutability": "view",
      "type": "function"
    },
    {
      "inputs": [
        {
          "internalType": "contract IPayoffProvider",
          "name": "",
          "type": "address"
        }
      ],
      "name": "payoffs",
      "outputs": [
        {
          "internalType": "bool",
          "name": "",
          "type": "bool"
        }
      ],
      "stateMutability": "view",
      "type": "function"
    },
    {
      "inputs": [],
      "name": "pendingOwner",
      "outputs": [
        {
          "internalType": "address",
          "name": "",
          "type": "address"
        }
      ],
      "stateMutability": "view",
      "type": "function"
    },
    {
      "inputs": [],
      "name": "pyth",
      "outputs": [
        {
          "internalType": "contract AbstractPyth",
          "name": "",
          "type": "address"
        }
      ],
      "stateMutability": "view",
      "type": "function"
    },
    {
      "inputs": [
        {
          "internalType": "contract IPayoffProvider",
          "name": "payoff",
          "type": "address"
        }
      ],
      "name": "register",
      "outputs": [],
      "stateMutability": "nonpayable",
      "type": "function"
    },
    {
      "inputs": [
        {
          "internalType": "bytes32[]",
          "name": "oracleIds",
          "type": "bytes32[]"
        },
        {
          "internalType": "uint256[]",
          "name": "versions",
          "type": "uint256[]"
        },
        {
          "internalType": "uint256[]",
          "name": "maxCounts",
          "type": "uint256[]"
        }
      ],
      "name": "settle",
      "outputs": [],
      "stateMutability": "nonpayable",
      "type": "function"
    },
    {
      "inputs": [],
      "name": "settlementGasOracle",
      "outputs": [
        {
          "internalType": "contract IGasOracle",
          "name": "",
          "type": "address"
        }
      ],
      "stateMutability": "view",
      "type": "function"
    },
    {
      "inputs": [
        {
          "internalType": "bytes32",
          "name": "",
          "type": "bytes32"
        }
      ],
      "name": "toUnderlyingId",
      "outputs": [
        {
          "internalType": "bytes32",
          "name": "",
          "type": "bytes32"
        }
      ],
      "stateMutability": "view",
      "type": "function"
    },
    {
      "inputs": [
        {
          "internalType": "bytes32",
          "name": "id",
          "type": "bytes32"
        }
      ],
      "name": "toUnderlyingPayoff",
      "outputs": [
        {
          "components": [
            {
              "internalType": "contract IPayoffProvider",
              "name": "provider",
              "type": "address"
            },
            {
              "internalType": "int16",
              "name": "decimals",
              "type": "int16"
            }
          ],
          "internalType": "struct IKeeperFactory.PayoffDefinition",
          "name": "",
          "type": "tuple"
        }
      ],
      "stateMutability": "view",
      "type": "function"
    },
    {
      "inputs": [],
      "name": "unpause",
      "outputs": [],
      "stateMutability": "nonpayable",
      "type": "function"
    },
    {
      "inputs": [
        {
          "internalType": "contract IOracleProvider",
          "name": "oracleProvider",
          "type": "address"
        },
        {
          "internalType": "bytes32",
          "name": "oracleId",
          "type": "bytes32"
        }
      ],
      "name": "updateId",
      "outputs": [],
      "stateMutability": "nonpayable",
      "type": "function"
    },
    {
      "inputs": [
        {
          "internalType": "uint256",
          "name": "newGranularity",
          "type": "uint256"
        },
        {
          "internalType": "UFixed6",
          "name": "newOraclefee",
          "type": "uint256"
        },
        {
          "internalType": "uint256",
          "name": "newValidFrom",
          "type": "uint256"
        },
        {
          "internalType": "uint256",
          "name": "newValidTo",
          "type": "uint256"
        }
      ],
      "name": "updateParameter",
      "outputs": [],
      "stateMutability": "nonpayable",
      "type": "function"
    },
    {
      "inputs": [
        {
          "internalType": "address",
          "name": "newPauser",
          "type": "address"
        }
      ],
      "name": "updatePauser",
      "outputs": [],
      "stateMutability": "nonpayable",
      "type": "function"
    },
    {
      "inputs": [
        {
          "internalType": "address",
          "name": "newPendingOwner",
          "type": "address"
        }
      ],
      "name": "updatePendingOwner",
      "outputs": [],
      "stateMutability": "nonpayable",
      "type": "function"
    }
  ],
  "transactionHash": "0xb91455426e973a31256ea5a9e02ae839c23bc9a43ce64e725a0ab670f36f576f",
  "args": [
    "0xff1a0f4744e8582DF1aE09D5611b887B6a12925C",
    "0x038901cC5d0AE04603e6F44819600badbF4A2bc7",
    "0xFd12a71a02154B44f70Bcbe9990Bfe20D53B05e4",
    "0x81e521E3FBb970255BBFD312d95Fa942dB39a1c7"
  ],
  "numDeployments": 8,
  "solcInputHash": "d57abf82c89e8d4a7400475af648162b",
  "bytecode": "0x61010034620000d957601f620037cf38819003918201601f19168301916001600160401b03831184841017620000dd57808492608094604052833981010312620000d9578051906001600160a01b038083168303620000d9576200006660208301620000f1565b9060606200007760408501620000f1565b9301519081168103620000d95760805260a05260c05260e0526040516136c89081620001078239608051816114d2015260a0518161160a015260c051816110e8015260e0518181816101e901528181610b4e01528181611d9f0152611e160152f35b5f80fd5b634e487b7160e01b5f52604160045260245ffd5b51906001600160a01b0382168203620000d95756fe608080604052600436101562000013575f80fd5b5f3560e01c908163032bb443146200243c5750806303612cb514620022825780631847c06b146200221b5780631e298b901462001844578063344e0f8a14620017fa5780633f4ba83a14620017085780634420e486146200162e5780634a13527f14620015be578063554bab3c14620014f65780635c60da1b14620014865780635c975abb146200142857806364e1fd5514620013a75780637211af68146200130b5780638456cb5914620011e85780638da5cb5b14620011765780639571b1ec146200110c5780639c2dd5cb146200109c5780639fa6a6e314620010585780639fd0506d1462000fe6578063a81a26771462000f86578063acf558b71462000f10578063ad4d4e291462000ec3578063b32a1e5d1462000a6d578063b5ee695514620009a5578063c36e389d1462000939578063c4d66de814620006e5578063c7f7fb901462000693578063ce45a55c1462000601578063d5b8621b14620003ce578063e30c3978146200035c578063ebbc496514620002115763f98d06f0146200019d575f80fd5b346200020d575f7ffffffffffffffffffffffffffffffffffffffffffffffffffffffffffffffffc3601126200020d57602060405173ffffffffffffffffffffffffffffffffffffffff7f0000000000000000000000000000000000000000000000000000000000000000168152f35b5f80fd5b346200020d575f7ffffffffffffffffffffffffffffffffffffffffffffffffffffffffffffffffc3601126200020d577f675c83682abbc3e7dd47e40515a778fbbde4393395c3dd3588244203c3e47883805473ffffffffffffffffffffffffffffffffffffffff8116908133036200032c577fe7742ddf0fecd2926e7ef4d6d6e91a7b2f0b1f8805b78953dac8454e86273ed255807f4ffd725fc4a22075e9ec71c59edf9c38cdeb588a91b24fc5b61388c5be41282b5f80a23303620002fc575f90555f7f69f201bc2089b9be6195d876d97a0136b4cf56bbf8986a52dcb50697f7d1cac58180a2005b60246040517f99bf6359000000000000000000000000000000000000000000000000000000008152336004820152fd5b60246040517fd0d5e1b0000000000000000000000000000000000000000000000000000000008152336004820152fd5b346200020d575f7ffffffffffffffffffffffffffffffffffffffffffffffffffffffffffffffffc3601126200020d5760207f675c83682abbc3e7dd47e40515a778fbbde4393395c3dd3588244203c3e478835473ffffffffffffffffffffffffffffffffffffffff60405191168152f35b346200020d5760807ffffffffffffffffffffffffffffffffffffffffffffffffffffffffffffffffc3601126200020d57600435602435907fe7742ddf0fecd2926e7ef4d6d6e91a7b2f0b1f8805b78953dac8454e86273ed25473ffffffffffffffffffffffffffffffffffffffff908133911603620002fc576004926060620004576200272f565b925f5416604051958680927fad4d4e290000000000000000000000000000000000000000000000000000000082525afa938415620005f6575f9462000598575b50620004a262002b67565b91604083019485518211156200056e57805185116200056e57620004cd604060029201518462002f50565b146200056e577f5951e2a6e77811e9385b71ff07361bcf55736dcd7f0a9075e090b88af2a645f9946200056994602085018051865252526060820152604435608082015260643560a0820152620005248162002bff565b6040519182918291909160a08060c083019480518452602081015160208501526040810151604085015260608101516060850152608081015160808501520151910152565b0390a1005b60046040517fef8e774c000000000000000000000000000000000000000000000000000000008152fd5b9093506060813d606011620005ed575b81620005b76060938362002532565b810103126200020d576040805191620005d083620024db565b805183526020810151602084015201516040820152928462000497565b3d9150620005a8565b6040513d5f823e3d90fd5b346200020d5760407ffffffffffffffffffffffffffffffffffffffffffffffffffffffffffffffffc3601126200020d576200063c6200265d565b7fe7742ddf0fecd2926e7ef4d6d6e91a7b2f0b1f8805b78953dac8454e86273ed2549073ffffffffffffffffffffffffffffffffffffffff918233911603620002fc57165f52600760205260243560405f20555f80f35b346200020d575f7ffffffffffffffffffffffffffffffffffffffffffffffffffffffffffffffffc3601126200020d57602073ffffffffffffffffffffffffffffffffffffffff5f5416604051908152f35b346200020d5760207ffffffffffffffffffffffffffffffffffffffffffffffffffffffffffffffffc3601126200020d5760043573ffffffffffffffffffffffffffffffffffffffff908181168091036200020d5760017f6fee9688c285c5c5c97d6a1a29adced674e6b2ad0888b8ad2116b58a8b3ea248818154101562000908578190557f2801b00eb06461cf9fcb9758b5fafd884ff06a86177386f73b6c49f0bf5a5af092818455303b15158062000900575b620008ce57303b151580620008f8575b620008ce577fe7742ddf0fecd2926e7ef4d6d6e91a7b2f0b1f8805b78953dac8454e86273ed290815416620008a4577fbe9b076dc5b65990cca9dd9d7366682482e7817a6f6bc7f4faf4dc32af497f32936020935f92339055337f4ffd725fc4a22075e9ec71c59edf9c38cdeb588a91b24fc5b61388c5be41282b8480a27fffffffffffffffffffffffff000000000000000000000000000000000000000083541617825581805282845260408220837fffffffffffffffffffffffffffffffffffffffffffffffffffffffffffffff008254161790556200089a6200088f62002809565b848682015262002bff565b55604051908152a1005b60046040517fe43bdd4e000000000000000000000000000000000000000000000000000000008152fd5b60046040517fb9a621e1000000000000000000000000000000000000000000000000000000008152fd5b505f620007aa565b505f6200079a565b602482604051907f3db738da0000000000000000000000000000000000000000000000000000000082526004820152fd5b346200020d5760207ffffffffffffffffffffffffffffffffffffffffffffffffffffffffffffffffc3601126200020d5773ffffffffffffffffffffffffffffffffffffffff620009896200265d565b165f526001602052602060ff60405f2054166040519015158152f35b346200020d5760207ffffffffffffffffffffffffffffffffffffffffffffffffffffffffffffffffc3601126200020d5773ffffffffffffffffffffffffffffffffffffffff600435818116918282036200020d577fe7742ddf0fecd2926e7ef4d6d6e91a7b2f0b1f8805b78953dac8454e86273ed25433911603620002fc577f675c83682abbc3e7dd47e40515a778fbbde4393395c3dd3588244203c3e47883557f69f201bc2089b9be6195d876d97a0136b4cf56bbf8986a52dcb50697f7d1cac55f80a2005b346200020d5760807ffffffffffffffffffffffffffffffffffffffffffffffffffffffffffffffffc3601126200020d576024356004356040367fffffffffffffffffffffffffffffffffffffffffffffffffffffffffffffffbc01126200020d5760405162000add81620024f8565b73ffffffffffffffffffffffffffffffffffffffff9060443582811681036200020d578152606435918260010b83036200020d576020948583019384526040517fb5ec02610000000000000000000000000000000000000000000000000000000081528160048201528681602481867f0000000000000000000000000000000000000000000000000000000000000000165afa908115620005f6575f9162000e86575b501562000e5c577fe7742ddf0fecd2926e7ef4d6d6e91a7b2f0b1f8805b78953dac8454e86273ed2548233911603620002fc57845f52600286528160405f20541662000e0857818351165f526001865260ff60405f2054161562000e3257805f526005865260405f20828451165f52865260405f205462000e08576040517f8129fc1c00000000000000000000000000000000000000000000000000000000878201526004815262000c3281620024f8565b6040519061072f908183019083821067ffffffffffffffff83111762000ddb57604062000c7192859462002f648639308152818c820152019062002681565b03905ff08015620005f657821693845f527f81796b4965de195665289d95668a8a9e7020858e15f5341c42bcf9951c1768ad875260405f2060017fffffffffffffffffffffffffffffffffffffffffffffffffffffffffffffff00825416179055847f4fe45192317a7d3ad19c3eaa395c0c3a1b7a0f53c3536fb96764c3561a8e9dad5f80a2855f526002875260405f20857fffffffffffffffffffffffff0000000000000000000000000000000000000000825416179055845f52600787528560405f2055855f52600387528160405f20556004875260405f2090838551167fffffffffffffffffffff000000000000000000000000000000000000000000008354925160a01b75ffff0000000000000000000000000000000000000000169216171790555f526005855260405f209151165f5283528160405f205560405191817fb37c10e9bd31f2f04a1985d7ae7c9fd566192aa02f769929da69b972f73ff9955f80a38152f35b7f4e487b71000000000000000000000000000000000000000000000000000000005f52604160045260245ffd5b60046040517f953ec95c000000000000000000000000000000000000000000000000000000008152fd5b60046040517fb2e11555000000000000000000000000000000000000000000000000000000008152fd5b60046040517f22445848000000000000000000000000000000000000000000000000000000008152fd5b90508681813d831162000ebb575b62000ea0818362002532565b810103126200020d575180151581036200020d578762000b80565b503d62000e94565b346200020d575f7ffffffffffffffffffffffffffffffffffffffffffffffffffffffffffffffffc3601126200020d5762000efd62002809565b5062000f0c6200052462002b67565b0390f35b346200020d5760407ffffffffffffffffffffffffffffffffffffffffffffffffffffffffffffffffc3601126200020d5760243573ffffffffffffffffffffffffffffffffffffffff81168091036200020d576004355f52600560205260405f20905f52602052602060405f2054604051908152f35b346200020d5760207ffffffffffffffffffffffffffffffffffffffffffffffffffffffffffffffffc3601126200020d576004355f526002602052602073ffffffffffffffffffffffffffffffffffffffff60405f205416604051908152f35b346200020d575f7ffffffffffffffffffffffffffffffffffffffffffffffffffffffffffffffffc3601126200020d5760207f18e50ee9696440d335192aeeeffc26f47782eaa914f1700d8ad36d6d7f7261b35473ffffffffffffffffffffffffffffffffffffffff60405191168152f35b346200020d575f7ffffffffffffffffffffffffffffffffffffffffffffffffffffffffffffffffc3601126200020d576020620010946200272f565b604051908152f35b346200020d575f7ffffffffffffffffffffffffffffffffffffffffffffffffffffffffffffffffc3601126200020d57602060405173ffffffffffffffffffffffffffffffffffffffff7f0000000000000000000000000000000000000000000000000000000000000000168152f35b346200020d5760207ffffffffffffffffffffffffffffffffffffffffffffffffffffffffffffffffc3601126200020d576004355f5260046020526040805f205481519073ffffffffffffffffffffffffffffffffffffffff8116825260a01c60010b6020820152f35b346200020d575f7ffffffffffffffffffffffffffffffffffffffffffffffffffffffffffffffffc3601126200020d5760207fe7742ddf0fecd2926e7ef4d6d6e91a7b2f0b1f8805b78953dac8454e86273ed25473ffffffffffffffffffffffffffffffffffffffff60405191168152f35b346200020d575f7ffffffffffffffffffffffffffffffffffffffffffffffffffffffffffffffffc3601126200020d5773ffffffffffffffffffffffffffffffffffffffff807f18e50ee9696440d335192aeeeffc26f47782eaa914f1700d8ad36d6d7f7261b354163314159081620012dc575b50620012ac5760017f3d13b7e57307bea7f94c474c597247d2da93d7de9136f8e123ed6525f50bbcec557f9e87fac88ff661f02d44f95383c817fece4bce600a3dab7a54406878b965e7525f80a1005b60246040517ff7987a92000000000000000000000000000000000000000000000000000000008152336004820152fd5b90507fe7742ddf0fecd2926e7ef4d6d6e91a7b2f0b1f8805b78953dac8454e86273ed25416331415816200125c565b346200020d5760207ffffffffffffffffffffffffffffffffffffffffffffffffffffffffffffffffc3601126200020d575f60206040516200134d81620024f8565b82815201526004355f5260046020526040805f208151906200136f82620024f8565b54602073ffffffffffffffffffffffffffffffffffffffff821692838152019060a01c60010b815282519182525160010b6020820152f35b346200020d575f7ffffffffffffffffffffffffffffffffffffffffffffffffffffffffffffffffc3601126200020d5762000f0c604051620013e981620024f8565b600b81527f50797468466163746f7279000000000000000000000000000000000000000000602082015260405191829160208352602083019062002681565b346200020d575f7ffffffffffffffffffffffffffffffffffffffffffffffffffffffffffffffffc3601126200020d5760207f3d13b7e57307bea7f94c474c597247d2da93d7de9136f8e123ed6525f50bbcec546040519015158152f35b346200020d575f7ffffffffffffffffffffffffffffffffffffffffffffffffffffffffffffffffc3601126200020d57602060405173ffffffffffffffffffffffffffffffffffffffff7f0000000000000000000000000000000000000000000000000000000000000000168152f35b346200020d5760207ffffffffffffffffffffffffffffffffffffffffffffffffffffffffffffffffc3601126200020d5773ffffffffffffffffffffffffffffffffffffffff600435818116918282036200020d577fe7742ddf0fecd2926e7ef4d6d6e91a7b2f0b1f8805b78953dac8454e86273ed25433911603620002fc577f18e50ee9696440d335192aeeeffc26f47782eaa914f1700d8ad36d6d7f7261b3557fa4336c0cb1e245b95ad204faed7e940d6dc999684fd8b5e1ff597a0c4efca8ab5f80a2005b346200020d575f7ffffffffffffffffffffffffffffffffffffffffffffffffffffffffffffffffc3601126200020d57602060405173ffffffffffffffffffffffffffffffffffffffff7f0000000000000000000000000000000000000000000000000000000000000000168152f35b346200020d5760207ffffffffffffffffffffffffffffffffffffffffffffffffffffffffffffffffc3601126200020d57620016696200265d565b7fe7742ddf0fecd2926e7ef4d6d6e91a7b2f0b1f8805b78953dac8454e86273ed2549073ffffffffffffffffffffffffffffffffffffffff918233911603620002fc5716805f52600160205260405f2060017fffffffffffffffffffffffffffffffffffffffffffffffffffffffffffffff008254161790557fb74a9480da82c8aeaa0a8d11c6b669cf4523927638ab05e29c80cef6abd7d7bd5f80a2005b346200020d575f7ffffffffffffffffffffffffffffffffffffffffffffffffffffffffffffffffc3601126200020d5773ffffffffffffffffffffffffffffffffffffffff807f18e50ee9696440d335192aeeeffc26f47782eaa914f1700d8ad36d6d7f7261b354163314159081620017cb575b50620012ac575f7f3d13b7e57307bea7f94c474c597247d2da93d7de9136f8e123ed6525f50bbcec557fa45f47fdea8a1efdd9029a5691c7f759c32b7c698632b563573e155625d169335f80a1005b90507fe7742ddf0fecd2926e7ef4d6d6e91a7b2f0b1f8805b78953dac8454e86273ed25416331415816200177c565b346200020d5760207ffffffffffffffffffffffffffffffffffffffffffffffffffffffffffffffffc3601126200020d576004355f526003602052602060405f2054604051908152f35b60607ffffffffffffffffffffffffffffffffffffffffffffffffffffffffffffffffc3601126200020d5760043567ffffffffffffffff81116200020d57620018929036906004016200258d565b67ffffffffffffffff604435116200020d573660236044350112156200020d5767ffffffffffffffff60443560040135116200020d57366024604435600401356044350101116200020d57620018e981516200283b565b5f5b825181101562001961576200190181846200271a565b515f52600360205260405f20546200191a82846200271a565b526200192781836200271a565b51156200193757600101620018eb565b60046040517f7e387175000000000000000000000000000000000000000000000000000000008152fd5b50906200196f82516200283b565b6200197b83516200283b565b925f935f5b825181101562001a5c5762001996818462002e2a565b808203620019de575080620019ae8760019362002890565b80620019bb83866200271a565b52620019d5620019cc83876200271a565b5191876200271a565b525b0162001980565b620019ed90839792976200271a565b51620019fa87846200271a565b527fffffffffffffffffffffffffffffffffffffffffffffffffffffffffffffffff811462001a2f57600180910195620019d7565b7f4e487b71000000000000000000000000000000000000000000000000000000005f52601160045260245ffd5b50929362001a709062001a76925162002890565b6200283b565b925f5b845181101562001aa7578062001a92600192856200271a565b5162001a9f82886200271a565b520162001a79565b84828560606044356004013562001bdc575b62001ad192935060443560040135151591846200292d565b91905f5b825181101562001bda5762001aeb81846200271a565b515f526020906002825273ffffffffffffffffffffffffffffffffffffffff60405f2054169162001b1d82856200271a565b516040519162001b2d83620024db565b602435835282019081526040820193604435600401351515855262001b5384896200271a565b5192813b156200020d575f60a492819560405198899687957f99db0ab2000000000000000000000000000000000000000000000000000000008752516004870152516024860152511515604485015233606485015260848401525af1918215620005f65760019262001bc8575b500162001ad5565b62001bd390620024c6565b8562001bc0565b005b50918051907fffffffffffffffffffffffffffffffffffffffffffffffffffffffffffffffe062001c2a62001c118462002574565b9362001c21604051958662002532565b80855262002574565b015f5b818110620021ef5750506040519062001c4682620024f8565b600182525f5b60208110620021dd57509060405162001c9460207fffffffffffffffffffffffffffffffffffffffffffffffffffffffffffffffe0601f604435600401350116018262002532565b60443560048101358083529060240160208301375f6020604435600401358301015262001cc182620026df565b5262001ccd81620026df565b506040519182917f4716e9c50000000000000000000000000000000000000000000000000000000083526084830160806004850152815180915260a4840190602060a48260051b8701019301915f905b8282106200218d57505050507ffffffffffffffffffffffffffffffffffffffffffffffffffffffffffffffffc838203016024840152602080835192838152019201905f5b818110620021735750505090805f9283604483015267ffffffffffffffff606483015203813473ffffffffffffffffffffffffffffffffffffffff7f0000000000000000000000000000000000000000000000000000000000000000165af1908115620005f6575f9162002069575b50604051937f48b6404d00000000000000000000000000000000000000000000000000000000855260208560048173ffffffffffffffffffffffffffffffffffffffff7f0000000000000000000000000000000000000000000000000000000000000000165afa948515620005f6575f956200202f575b505f5b825181101562001f7557602062001e6382856200271a565b5101515160070b906040602062001e7b83876200271a565b5101510151917fffffffffffffffffffffffffffffffffffffffffffffffffffffffff8000000060128460030b0112637fffffff60128560030b01131762001a2f57601260019360030b0160030b9062001ee962001ee362001edd8462002e68565b62002910565b62002e78565b5f6060602062001efa878b6200271a565b510151015193121562001f595762001f1662001f1c9262002e78565b62002ed6565b6040519162001f2b83620024db565b8252602082015287604082015262001f4482876200271a565b5262001f5181866200271a565b500162001e4b565b62001f6e90670de0b6b3a76400009262002e96565b0562001f1c565b5093505090819262001f8662002b67565b9160808301915f5b85518110156200201e5762001fa481876200271a565b515162001fb585516024356200291f565b11801562001ff6575b62001fcc5760010162001f8e565b60046040517f0afa0593000000000000000000000000000000000000000000000000000000008152fd5b506200200381876200271a565b51516200201760a08701516024356200291f565b1062001fbe565b509094859450909250905062001ab9565b9094506020813d60201162002060575b816200204e6020938362002532565b810103126200020d5751938562001e48565b3d91506200203f565b3d9150815f823e6200207c828262002532565b60208183810103126200020d5780519167ffffffffffffffff83116200020d57808201601f8484010112156200020d578282015190620020bc8262002574565b93620020cc604051958662002532565b8285526020850190828501602061012086028388010101116200020d5790602082860101915b602061012086028288010101831062002112575050505050508462001dd1565b6101208385880103126200020d5761012080602080946040516200213681620024db565b875181526200214a898c01848a016200289e565b838201526200215f898c0160a08a016200289e565b6040820152815201940193925050620020f2565b825184528594506020938401939092019160010162001d62565b91936020620021cb827fffffffffffffffffffffffffffffffffffffffffffffffffffffffffffffff5c60019597999a849503018652885162002681565b96019201920186959493919262001d1d565b80606060208093860101520162001c4c565b6020906040516200220081620024db565b5f8152825f818301525f604083015282870101520162001c2d565b346200020d5760207ffffffffffffffffffffffffffffffffffffffffffffffffffffffffffffffffc3601126200020d5773ffffffffffffffffffffffffffffffffffffffff6200226b6200265d565b165f526007602052602060405f2054604051908152f35b346200020d5760607ffffffffffffffffffffffffffffffffffffffffffffffffffffffffffffffffc3601126200020d5767ffffffffffffffff6004358181116200020d57620022d79036906004016200258d565b6024916024358181116200020d57620022f5903690600401620025f5565b926044916044359081116200020d5762002314903690600401620025f5565b93835180159081156200242f575b811562002422575b50620023f8575f5b845181101562001bda576200234881866200271a565b515f52600260205273ffffffffffffffffffffffffffffffffffffffff60405f205416906200237881846200271a565b516200238582896200271a565b51833b156200020d5760645f928360405196879485937e353ceb00000000000000000000000000000000000000000000000000000000855260048501528a840152338b8401525af1918215620005f657600192620023e6575b500162002332565b620023f190620024c6565b87620023de565b60046040517fb043fd7b000000000000000000000000000000000000000000000000000000008152fd5b905085511415866200232a565b8251811415915062002322565b346200020d5760207ffffffffffffffffffffffffffffffffffffffffffffffffffffffffffffffffc3601126200020d576004359073ffffffffffffffffffffffffffffffffffffffff82168092036200020d576020915f527f81796b4965de195665289d95668a8a9e7020858e15f5341c42bcf9951c1768ad825260ff60405f20541615158152f35b67ffffffffffffffff811162000ddb57604052565b6060810190811067ffffffffffffffff82111762000ddb57604052565b6040810190811067ffffffffffffffff82111762000ddb57604052565b60c0810190811067ffffffffffffffff82111762000ddb57604052565b90601f7fffffffffffffffffffffffffffffffffffffffffffffffffffffffffffffffe0910116810190811067ffffffffffffffff82111762000ddb57604052565b67ffffffffffffffff811162000ddb5760051b60200190565b9080601f830112156200020d576020908235620025aa8162002574565b93620025ba604051958662002532565b81855260208086019260051b8201019283116200020d57602001905b828210620025e5575050505090565b81358152908301908301620025d6565b9080601f830112156200020d576020908235620026128162002574565b9362002622604051958662002532565b81855260208086019260051b8201019283116200020d57602001905b8282106200264d575050505090565b813581529083019083016200263e565b6004359073ffffffffffffffffffffffffffffffffffffffff821682036200020d57565b91908251928382525f5b848110620026ca5750507fffffffffffffffffffffffffffffffffffffffffffffffffffffffffffffffe0601f845f6020809697860101520116010190565b6020818301810151848301820152016200268b565b805115620026ed5760200190565b7f4e487b71000000000000000000000000000000000000000000000000000000005f52603260045260245ffd5b8051821015620026ed5760209160051b010190565b6200273962002b67565b60408101514211620027ff57515b4262002763575f5b81810291818304149015171562001a2f5790565b7fffffffffffffffffffffffffffffffffffffffffffffffffffffffffffffffff420142811162001a2f578115620027d25781900460018101809111156200274f577f4e487b71000000000000000000000000000000000000000000000000000000005f52601160045260245ffd5b7f4e487b71000000000000000000000000000000000000000000000000000000005f52601260045260245ffd5b6020015162002747565b60405190620028188262002515565b5f60a0838281528260208201528260408201528260608201528260808201520152565b90620028478262002574565b62002856604051918262002532565b8281527fffffffffffffffffffffffffffffffffffffffffffffffffffffffffffffffe062002886829462002574565b0190602036910137565b9190820391821162001a2f57565b91908260809103126200020d5760405167ffffffffffffffff92608082018481118382101762000ddb57604052819381518060070b81036200020d578352602082015190811681036200020d57602083015260408101518060030b81036200020d576040830152606090810151910152565b604d811162001a2f57600a0a90565b9190820180921162001a2f57565b939291908451946200293f8662002574565b906200295e604097620029558951948562002532565b80845262002574565b7fffffffffffffffffffffffffffffffffffffffffffffffffffffffffffffffe0602091013682850137826200299583516200283b565b961562002b5b57505f5b825181101562002b515781620029c2620029ba83886200271a565b51886200271a565b51015190620029d281856200271a565b515f526004918284528a5f208b85815192620029ee84620024f8565b549573ffffffffffffffffffffffffffffffffffffffff87169283855282600195019760a01c850b88528362002ab9575b5050505090835f64e8d4a510009362002a4562001ee362001edd60019951840b62002e68565b9251900b121562002a9d5762001f1662002a5f9262002e78565b0562002a6c82876200271a565b528962002a8662002a7e83896200271a565b51896200271a565b51015162002a95828a6200271a565b52016200299f565b62002ab290670de0b6b3a76400009262002e96565b0562002a5f565b9060249195929394955194859384927fd7c7a9350000000000000000000000000000000000000000000000000000000084528301525afa90811562002b47575f9162002b11575b5090838564e8d4a510008e62002a1f565b9190508482813d831162002b3f575b62002b2c818362002532565b810103126200020d579051600162002b00565b503d62002b20565b8c513d5f823e3d90fd5b5050509450505090565b95975050505050509190565b62002b7162002809565b5060405162002b808162002515565b60a060065461ffff80821693848152818360101c1680602083015263ffffffff8460201c169182604082015262ffffff8560401c1693846060830152808660581c169586608084015260681c1695869101526040519562002be18762002515565b8652602086015260408501526060840152608083015260a082015290565b60018151108062002e1c575b62002df2576020810190600182511062002df25761ffff918282511162002df2578281511162002df2576040908183019063ffffffff918281511162002dc9576060850191600262002c5e845162002f2d565b1462002da05760808601938785511162002d775760a08701968888511162002d4e579263ffff00006affffff0000000000000000959367ffffffff000000009360a08c6cffff00000000000000000000009b9a98511692519451965197519b519c8a519262002ccd8462002515565b848452818716602085015288168b84015262ffffff89166060840152808d1660808401528d169101527fffffffffffffffffffffffffffffffffff0000000000000000000000000000006effff000000000000000000000000006006549c60681b169b16179160101b16179160201b1617921b16179160581b161717600655565b600487517fff590172000000000000000000000000000000000000000000000000000000008152fd5b600486517fff590172000000000000000000000000000000000000000000000000000000008152fd5b600485517fff590172000000000000000000000000000000000000000000000000000000008152fd5b600484517fff590172000000000000000000000000000000000000000000000000000000008152fd5b60046040517fff590172000000000000000000000000000000000000000000000000000000008152fd5b506040810151151562002c0b565b5f5b82811062002e3957505090565b62002e4583836200271a565b5162002e5282846200271a565b511462002e625760010162002e2c565b91505090565b5f811262002e735790565b5f0390565b90670de0b6b3a76400009182810292818405149015171562001a2f57565b81810292915f82127f800000000000000000000000000000000000000000000000000000000000000082141662001a2f57818405149015171562001a2f57565b8115620027d2577fffffffffffffffffffffffffffffffffffffffffffffffffffffffffffffffff82147f800000000000000000000000000000000000000000000000000000000000000082141662001a2f570590565b62ffffff9081811162002f49571062002f4557600190565b5f90565b5050600290565b81811162002f49571062002f455760019056fe608060409080825261072f80380380916100198285610342565b833981019082818303126102385761003081610365565b6020828101516001600160401b039391929184821161023857019084601f830112156102385781519161006283610379565b9261006f88519485610342565b8084528484019685828401011161023857868561008c9301610394565b803b156102f0578551635c60da1b60e01b80825292916001600160a01b0316908481600481855afa9081156102e6575f916102b1575b503b15610254577fa3f0ad74e5423aebfd80d3ef4346578335a9a72aeaee59ff6cb3582b35133d5080546001600160a01b03191682179055865192817f1cf3b03a6cf19fa2baba4df148e9dcabedea7f8a5c07840e207e5c089be95d3e5f80a282511580159061024d575b610140575b87516102c690816104698239f35b6004848693819382525afa918215610243575f92610208575b5085519360608501908111858210176101f4578652602784527f416464726573733a206c6f772d6c6576656c2064656c65676174652063616c6c83850152660819985a5b195960ca1b84870152516101de945f918291845af4903d156101eb573d6101c381610379565b906101d088519283610342565b81525f81943d92013e6103b5565b505f808080808080610132565b606092506103b5565b634e487b7160e01b5f52604160045260245ffd5b9091508281813d831161023c575b6102208183610342565b810103126102385761023190610365565b905f610159565b5f80fd5b503d610216565b86513d5f823e3d90fd5b505f61012d565b865162461bcd60e51b815260048101859052603060248201527f455243313936373a20626561636f6e20696d706c656d656e746174696f6e206960448201526f1cc81b9bdd08184818dbdb9d1c9858dd60821b6064820152608490fd5b90508481813d83116102df575b6102c88183610342565b81010312610238576102d990610365565b5f6100c2565b503d6102be565b88513d5f823e3d90fd5b855162461bcd60e51b815260048101849052602560248201527f455243313936373a206e657720626561636f6e206973206e6f74206120636f6e6044820152641d1c9858dd60da1b6064820152608490fd5b601f909101601f19168101906001600160401b038211908210176101f457604052565b51906001600160a01b038216820361023857565b6001600160401b0381116101f457601f01601f191660200190565b5f5b8381106103a55750505f910152565b8181015183820152602001610396565b9192901561041757508151156103c9575090565b3b156103d25790565b60405162461bcd60e51b815260206004820152601d60248201527f416464726573733a2063616c6c20746f206e6f6e2d636f6e74726163740000006044820152606490fd5b82519091501561042a5750805190602001fd5b6044604051809262461bcd60e51b82526020600483015261045a8151809281602486015260208686019101610394565b601f01601f19168101030190fdfe6080806040523661011c5760208160048173ffffffffffffffffffffffffffffffffffffffff7fa3f0ad74e5423aebfd80d3ef4346578335a9a72aeaee59ff6cb3582b35133d5054167f5c60da1b0000000000000000000000000000000000000000000000000000000082525afa908115610111575f91610081575b50610273565b905060203d60201161010a575b7fffffffffffffffffffffffffffffffffffffffffffffffffffffffffffffffe0601f82011682019180831067ffffffffffffffff8411176100dd576100d792604052016101f6565b5f61007b565b7f4e487b71000000000000000000000000000000000000000000000000000000005f52604160045260245ffd5b503d61008e565b6040513d5f823e3d90fd5b6004602073ffffffffffffffffffffffffffffffffffffffff7fa3f0ad74e5423aebfd80d3ef4346578335a9a72aeaee59ff6cb3582b35133d505416604051928380927f5c60da1b0000000000000000000000000000000000000000000000000000000082525afa908115610111575f916101975750610273565b602091503d82116101ee575b7fffffffffffffffffffffffffffffffffffffffffffffffffffffffffffffffe0601f83011681019181831067ffffffffffffffff8411176100dd576100d792604052810190610247565b3d91506101a3565b7fffffffffffffffffffffffffffffffffffffffffffffffffffffffffffffff8060209101126102435760805173ffffffffffffffffffffffffffffffffffffffff811681036102435790565b5f80fd5b90816020910312610243575173ffffffffffffffffffffffffffffffffffffffff811681036102435790565b5f8091368280378136915af43d5f803e1561028c573d5ff35b3d5ffdfea2646970667358221220ec432b4747e143afd3ca9be003efbb7d4ac773fd8dbbac59b6729d6be9a1e1a164736f6c63430008180033a2646970667358221220b2250b221e0d15b7f94e4e117987210dcf7356f19aa88b6be79b0cc1e4345e6664736f6c63430008180033",
  "devdoc": {
    "kind": "dev",
    "methods": {
      "acceptOwner()": {
        "details": "Can only be called by the pending owner to ensure correctness. Calls to the `_beforeAcceptOwner` hook      to perform logic before updating ownership."
      },
      "commit(bytes32[],uint256,bytes)": {
        "details": "Accepts both requested and non-requested versions.      Requested versions will pay out a keeper fee, non-requested versions will not.      Accepts any publish time in the underlying price message, as long as it is within the validity window,      which means its possible for publish times to be slightly out of order with respect to versions.      Batched updates are supported by passing in a list of price feed ids along with a valid batch update data.",
        "params": {
          "data": "The update data to commit",
          "oracleIds": "The list of price feed ids to commit",
          "version": "The oracle version to commit"
        }
      },
      "constructor": {
        "params": {
          "commitmentGasOracle_": "Commitment gas oracle contract",
          "implementation_": "IPythOracle implementation contract",
          "pyth_": "Pyth contract",
          "settlementGasOracle_": "Settlement gas oracle contract"
        }
      },
      "create(bytes32,bytes32,(address,int16))": {
        "params": {
          "id": "The id of the oracle to create",
          "payoff": "The payoff provider contract",
          "underlyingId": "The underlying id of the oracle to create"
        },
        "returns": {
          "newOracle": "The newly created oracle instance"
        }
      },
      "current()": {
        "details": "Rounded up to the nearest granularity",
        "returns": {
          "_0": "The current timestamp"
        }
      },
      "initialize(address)": {
        "params": {
          "oracleFactory_": "The root oracle factory"
        }
      },
      "instances(address)": {
        "params": {
          "instance": "The instance to check"
        },
        "returns": {
          "_0": "Whether the instance is valid"
        }
      },
      "parameter()": {
        "returns": {
          "_0": "The oracle parameter set"
        }
      },
      "pause()": {
        "details": "Can only be called by the pauser"
      },
      "register(address)": {
        "params": {
          "payoff": "The payoff provider to register"
        }
      },
      "settle(bytes32[],uint256[],uint256[])": {
        "details": "Pays out a keeper incentive if all supplied local settlement callbacks succeed      Each array must be the same length, each index is a separate corresponding callback entry",
        "params": {
          "maxCounts": "The list of maximum number of settlement callbacks to perform before exiting",
          "oracleIds": "The list of price feed ids to settle",
          "versions": "The list of versions to settle"
        }
      },
      "toUnderlyingPayoff(bytes32)": {
        "params": {
          "id": "The id to lookup"
        },
        "returns": {
          "_0": "The payoff definition"
        }
      },
      "unpause()": {
        "details": "Can only be called by the pauser"
      },
      "updateId(address,bytes32)": {
        "details": "Part of the v2.3 migration",
        "params": {
          "oracleId": "The id of the oracle",
          "oracleProvider": "The oracle instance"
        }
      },
      "updateParameter(uint256,uint256,uint256,uint256)": {
        "params": {
          "newGranularity": "The new granularity value in seconds",
          "newOraclefee": "The new relative oracle fee percentage",
          "newValidFrom": "The new valid from value in seconds",
          "newValidTo": "The new valid to value in seconds"
        }
      },
      "updatePauser(address)": {
        "details": "Can only be called by the current owner",
        "params": {
          "newPauser": "New pauser address"
        }
      },
      "updatePendingOwner(address)": {
        "details": "Can only be called by the current owner      New owner does not take affect until that address calls `acceptOwner()`",
        "params": {
          "newPendingOwner": "New pending owner address"
        }
      }
    },
    "stateVariables": {
      "pyth": {
        "details": "Pyth contract"
      }
    },
    "title": "PythFactory",
    "version": 1
  },
  "userdoc": {
    "kind": "user",
    "methods": {
      "acceptOwner()": {
        "notice": "Accepts and transfers the ownership of the contract to the pending owner"
      },
      "commit(bytes32[],uint256,bytes)": {
        "notice": "Commits the price to specified version"
      },
      "constructor": {
        "notice": "Initializes the immutable contract state"
      },
      "create(bytes32,bytes32,(address,int16))": {
        "notice": "Creates a new oracle instance"
      },
      "current()": {
        "notice": "Returns the current timestamp"
      },
      "ids(address)": {
        "notice": "Mapping of oracle instance to oracle id"
      },
      "implementation()": {
        "notice": "The instance implementation address"
      },
      "initialize(address)": {
        "notice": "Initializes the contract state"
      },
      "instances(address)": {
        "notice": "Returns whether the instance is valid"
      },
      "parameter()": {
        "notice": "Returns the oracle parameter set"
      },
      "pause()": {
        "notice": "Pauses the contract"
      },
      "register(address)": {
        "notice": "Authorizes a factory's instances to request from this factory's instances"
      },
      "settle(bytes32[],uint256[],uint256[])": {
        "notice": "Performs a list of local settlement callbacks"
      },
      "toUnderlyingPayoff(bytes32)": {
        "notice": "Returns the payoff definition for the specified id"
      },
      "unpause()": {
        "notice": "Unpauses the contract"
      },
      "updateId(address,bytes32)": {
        "notice": "Retroactively sets the mapping of the oracle id to the oracle instance"
      },
      "updateParameter(uint256,uint256,uint256,uint256)": {
        "notice": "Updates the oracle parameter set"
      },
      "updatePauser(address)": {
        "notice": "Updates the new pauser"
      },
      "updatePendingOwner(address)": {
        "notice": "Updates the new pending owner"
      }
    },
    "notice": "Factory contract for creating and managing Pyth oracles",
    "version": 1
  },
  "storageLayout": {
    "storage": [
      {
        "astId": 40518,
        "contract": "@perennial/oracle/contracts/pyth/PythFactory.sol:PythFactory",
        "label": "oracleFactory",
        "offset": 0,
        "slot": "0",
        "type": "t_contract(IOracleFactory)40442"
      },
      {
        "astId": 40532,
        "contract": "@perennial/oracle/contracts/pyth/PythFactory.sol:PythFactory",
        "label": "payoffs",
        "offset": 0,
        "slot": "1",
        "type": "t_mapping(t_contract(IPayoffProvider)40456,t_bool)"
      },
      {
        "astId": 40538,
        "contract": "@perennial/oracle/contracts/pyth/PythFactory.sol:PythFactory",
        "label": "oracles",
        "offset": 0,
        "slot": "2",
        "type": "t_mapping(t_bytes32,t_contract(IOracleProvider)22235)"
      },
      {
        "astId": 40543,
        "contract": "@perennial/oracle/contracts/pyth/PythFactory.sol:PythFactory",
        "label": "toUnderlyingId",
        "offset": 0,
        "slot": "3",
        "type": "t_mapping(t_bytes32,t_bytes32)"
      },
      {
        "astId": 40549,
        "contract": "@perennial/oracle/contracts/pyth/PythFactory.sol:PythFactory",
        "label": "_toUnderlyingPayoff",
        "offset": 0,
        "slot": "4",
        "type": "t_mapping(t_bytes32,t_struct(PayoffDefinition)39880_storage)"
      },
      {
        "astId": 40557,
        "contract": "@perennial/oracle/contracts/pyth/PythFactory.sol:PythFactory",
        "label": "fromUnderlying",
        "offset": 0,
        "slot": "5",
        "type": "t_mapping(t_bytes32,t_mapping(t_contract(IPayoffProvider)40456,t_bytes32))"
      },
      {
        "astId": 40561,
        "contract": "@perennial/oracle/contracts/pyth/PythFactory.sol:PythFactory",
        "label": "_parameter",
        "offset": 0,
        "slot": "6",
        "type": "t_struct(KeeperOracleParameterStorage)42525_storage"
      },
      {
        "astId": 40567,
        "contract": "@perennial/oracle/contracts/pyth/PythFactory.sol:PythFactory",
        "label": "ids",
        "offset": 0,
        "slot": "7",
        "type": "t_mapping(t_contract(IOracleProvider)22235,t_bytes32)"
      }
    ],
    "types": {
      "t_bool": {
        "encoding": "inplace",
        "label": "bool",
        "numberOfBytes": "1"
      },
      "t_bytes32": {
        "encoding": "inplace",
        "label": "bytes32",
        "numberOfBytes": "32"
      },
      "t_contract(IOracleFactory)40442": {
        "encoding": "inplace",
        "label": "contract IOracleFactory",
        "numberOfBytes": "20"
      },
      "t_contract(IOracleProvider)22235": {
        "encoding": "inplace",
        "label": "contract IOracleProvider",
        "numberOfBytes": "20"
      },
      "t_contract(IPayoffProvider)40456": {
        "encoding": "inplace",
        "label": "contract IPayoffProvider",
        "numberOfBytes": "20"
      },
      "t_int16": {
        "encoding": "inplace",
        "label": "int16",
        "numberOfBytes": "2"
      },
      "t_mapping(t_bytes32,t_bytes32)": {
        "encoding": "mapping",
        "key": "t_bytes32",
        "label": "mapping(bytes32 => bytes32)",
        "numberOfBytes": "32",
        "value": "t_bytes32"
      },
      "t_mapping(t_bytes32,t_contract(IOracleProvider)22235)": {
        "encoding": "mapping",
        "key": "t_bytes32",
        "label": "mapping(bytes32 => contract IOracleProvider)",
        "numberOfBytes": "32",
        "value": "t_contract(IOracleProvider)22235"
      },
      "t_mapping(t_bytes32,t_mapping(t_contract(IPayoffProvider)40456,t_bytes32))": {
        "encoding": "mapping",
        "key": "t_bytes32",
        "label": "mapping(bytes32 => mapping(contract IPayoffProvider => bytes32))",
        "numberOfBytes": "32",
        "value": "t_mapping(t_contract(IPayoffProvider)40456,t_bytes32)"
      },
      "t_mapping(t_bytes32,t_struct(PayoffDefinition)39880_storage)": {
        "encoding": "mapping",
        "key": "t_bytes32",
        "label": "mapping(bytes32 => struct IKeeperFactory.PayoffDefinition)",
        "numberOfBytes": "32",
        "value": "t_struct(PayoffDefinition)39880_storage"
      },
      "t_mapping(t_contract(IOracleProvider)22235,t_bytes32)": {
        "encoding": "mapping",
        "key": "t_contract(IOracleProvider)22235",
        "label": "mapping(contract IOracleProvider => bytes32)",
        "numberOfBytes": "32",
        "value": "t_bytes32"
      },
      "t_mapping(t_contract(IPayoffProvider)40456,t_bool)": {
        "encoding": "mapping",
        "key": "t_contract(IPayoffProvider)40456",
        "label": "mapping(contract IPayoffProvider => bool)",
        "numberOfBytes": "32",
        "value": "t_bool"
      },
      "t_mapping(t_contract(IPayoffProvider)40456,t_bytes32)": {
        "encoding": "mapping",
        "key": "t_contract(IPayoffProvider)40456",
        "label": "mapping(contract IPayoffProvider => bytes32)",
        "numberOfBytes": "32",
        "value": "t_bytes32"
      },
      "t_struct(KeeperOracleParameterStorage)42525_storage": {
        "encoding": "inplace",
        "label": "struct KeeperOracleParameterStorage",
        "members": [
          {
            "astId": 42524,
            "contract": "@perennial/oracle/contracts/pyth/PythFactory.sol:PythFactory",
            "label": "value",
            "offset": 0,
            "slot": "0",
            "type": "t_struct(StoredKeeperOracleParameter)42521_storage"
          }
        ],
        "numberOfBytes": "32"
      },
      "t_struct(PayoffDefinition)39880_storage": {
        "encoding": "inplace",
        "label": "struct IKeeperFactory.PayoffDefinition",
        "members": [
          {
            "astId": 39877,
            "contract": "@perennial/oracle/contracts/pyth/PythFactory.sol:PythFactory",
            "label": "provider",
            "offset": 0,
            "slot": "0",
            "type": "t_contract(IPayoffProvider)40456"
          },
          {
            "astId": 39879,
            "contract": "@perennial/oracle/contracts/pyth/PythFactory.sol:PythFactory",
            "label": "decimals",
            "offset": 20,
            "slot": "0",
            "type": "t_int16"
          }
        ],
        "numberOfBytes": "32"
      },
      "t_struct(StoredKeeperOracleParameter)42521_storage": {
        "encoding": "inplace",
        "label": "struct StoredKeeperOracleParameter",
        "members": [
          {
            "astId": 42510,
            "contract": "@perennial/oracle/contracts/pyth/PythFactory.sol:PythFactory",
            "label": "latestGranularity",
            "offset": 0,
            "slot": "0",
            "type": "t_uint16"
          },
          {
            "astId": 42512,
            "contract": "@perennial/oracle/contracts/pyth/PythFactory.sol:PythFactory",
            "label": "currentGranularity",
            "offset": 2,
            "slot": "0",
            "type": "t_uint16"
          },
          {
            "astId": 42514,
            "contract": "@perennial/oracle/contracts/pyth/PythFactory.sol:PythFactory",
            "label": "effectiveAfter",
            "offset": 4,
            "slot": "0",
            "type": "t_uint32"
          },
          {
            "astId": 42516,
            "contract": "@perennial/oracle/contracts/pyth/PythFactory.sol:PythFactory",
            "label": "oracleFee",
            "offset": 8,
            "slot": "0",
            "type": "t_uint24"
          },
          {
            "astId": 42518,
            "contract": "@perennial/oracle/contracts/pyth/PythFactory.sol:PythFactory",
            "label": "validFrom",
            "offset": 11,
            "slot": "0",
            "type": "t_uint16"
          },
          {
            "astId": 42520,
            "contract": "@perennial/oracle/contracts/pyth/PythFactory.sol:PythFactory",
            "label": "validTo",
            "offset": 13,
            "slot": "0",
            "type": "t_uint16"
          }
        ],
        "numberOfBytes": "32"
      },
      "t_uint16": {
        "encoding": "inplace",
        "label": "uint16",
        "numberOfBytes": "2"
      },
      "t_uint24": {
        "encoding": "inplace",
        "label": "uint24",
        "numberOfBytes": "3"
      },
      "t_uint32": {
        "encoding": "inplace",
        "label": "uint32",
        "numberOfBytes": "4"
      }
    }
  }
}