{
  "address": "0x492bF4B1E07c440F68EB35a5237dC0A858bABd73",
  "abi": [
    {
      "inputs": [],
      "stateMutability": "nonpayable",
      "type": "constructor"
    },
    {
      "inputs": [
        {
          "internalType": "uint256",
          "name": "version",
          "type": "uint256"
        }
      ],
      "name": "InitializableAlreadyInitializedError",
      "type": "error"
    },
    {
      "inputs": [],
      "name": "InitializableNotInitializingError",
      "type": "error"
    },
    {
      "inputs": [],
      "name": "InitializableZeroVersionError",
      "type": "error"
    },
    {
      "inputs": [],
      "name": "VerifierInvalidDomainError",
      "type": "error"
    },
    {
      "inputs": [],
      "name": "VerifierInvalidExpiryError",
      "type": "error"
    },
    {
      "inputs": [],
      "name": "VerifierInvalidGroupError",
      "type": "error"
    },
    {
      "inputs": [],
      "name": "VerifierInvalidNonceError",
      "type": "error"
    },
    {
      "inputs": [],
      "name": "VerifierInvalidSignatureError",
      "type": "error"
    },
    {
      "inputs": [],
      "name": "VerifierInvalidSignerError",
      "type": "error"
    },
    {
      "anonymous": false,
      "inputs": [
        {
          "indexed": true,
          "internalType": "address",
          "name": "account",
          "type": "address"
        },
        {
          "indexed": false,
          "internalType": "uint256",
          "name": "group",
          "type": "uint256"
        }
      ],
      "name": "GroupCancelled",
      "type": "event"
    },
    {
      "anonymous": false,
      "inputs": [
        {
          "indexed": false,
          "internalType": "uint256",
          "name": "version",
          "type": "uint256"
        }
      ],
      "name": "Initialized",
      "type": "event"
    },
    {
      "anonymous": false,
      "inputs": [
        {
          "indexed": true,
          "internalType": "address",
          "name": "account",
          "type": "address"
        },
        {
          "indexed": false,
          "internalType": "uint256",
          "name": "nonce",
          "type": "uint256"
        }
      ],
      "name": "NonceCancelled",
      "type": "event"
    },
    {
      "inputs": [
        {
          "internalType": "uint256",
          "name": "group",
          "type": "uint256"
        }
      ],
      "name": "cancelGroup",
      "outputs": [],
      "stateMutability": "nonpayable",
      "type": "function"
    },
    {
      "inputs": [
        {
          "components": [
            {
              "internalType": "uint256",
              "name": "group",
              "type": "uint256"
            },
            {
              "components": [
                {
                  "internalType": "address",
                  "name": "account",
                  "type": "address"
                },
                {
                  "internalType": "address",
                  "name": "signer",
                  "type": "address"
                },
                {
                  "internalType": "address",
                  "name": "domain",
                  "type": "address"
                },
                {
                  "internalType": "uint256",
                  "name": "nonce",
                  "type": "uint256"
                },
                {
                  "internalType": "uint256",
                  "name": "group",
                  "type": "uint256"
                },
                {
                  "internalType": "uint256",
                  "name": "expiry",
                  "type": "uint256"
                }
              ],
              "internalType": "struct Common",
              "name": "common",
              "type": "tuple"
            }
          ],
          "internalType": "struct GroupCancellation",
          "name": "groupCancellation",
          "type": "tuple"
        },
        {
          "internalType": "bytes",
          "name": "signature",
          "type": "bytes"
        }
      ],
      "name": "cancelGroupWithSignature",
      "outputs": [],
      "stateMutability": "nonpayable",
      "type": "function"
    },
    {
      "inputs": [
        {
          "internalType": "uint256",
          "name": "nonce",
          "type": "uint256"
        }
      ],
      "name": "cancelNonce",
      "outputs": [],
      "stateMutability": "nonpayable",
      "type": "function"
    },
    {
      "inputs": [
        {
          "components": [
            {
              "internalType": "address",
              "name": "account",
              "type": "address"
            },
            {
              "internalType": "address",
              "name": "signer",
              "type": "address"
            },
            {
              "internalType": "address",
              "name": "domain",
              "type": "address"
            },
            {
              "internalType": "uint256",
              "name": "nonce",
              "type": "uint256"
            },
            {
              "internalType": "uint256",
              "name": "group",
              "type": "uint256"
            },
            {
              "internalType": "uint256",
              "name": "expiry",
              "type": "uint256"
            }
          ],
          "internalType": "struct Common",
          "name": "common",
          "type": "tuple"
        },
        {
          "internalType": "bytes",
          "name": "signature",
          "type": "bytes"
        }
      ],
      "name": "cancelNonceWithSignature",
      "outputs": [],
      "stateMutability": "nonpayable",
      "type": "function"
    },
    {
      "inputs": [
        {
          "internalType": "address",
          "name": "",
          "type": "address"
        },
        {
          "internalType": "uint256",
          "name": "",
          "type": "uint256"
        }
      ],
      "name": "groups",
      "outputs": [
        {
          "internalType": "bool",
          "name": "",
          "type": "bool"
        }
      ],
      "stateMutability": "view",
      "type": "function"
    },
    {
      "inputs": [
        {
          "internalType": "contract IMarketFactorySigners",
          "name": "marketFactory_",
          "type": "address"
        }
      ],
      "name": "initialize",
      "outputs": [],
      "stateMutability": "nonpayable",
      "type": "function"
    },
    {
      "inputs": [],
      "name": "marketFactory",
      "outputs": [
        {
          "internalType": "contract IMarketFactorySigners",
          "name": "",
          "type": "address"
        }
      ],
      "stateMutability": "view",
      "type": "function"
    },
    {
      "inputs": [
        {
          "internalType": "address",
          "name": "",
          "type": "address"
        },
        {
          "internalType": "uint256",
          "name": "",
          "type": "uint256"
        }
      ],
      "name": "nonces",
      "outputs": [
        {
          "internalType": "bool",
          "name": "",
          "type": "bool"
        }
      ],
      "stateMutability": "view",
      "type": "function"
    },
    {
      "inputs": [
        {
          "components": [
            {
              "components": [
                {
                  "internalType": "address",
                  "name": "accessor",
                  "type": "address"
                },
                {
                  "internalType": "bool",
                  "name": "approved",
                  "type": "bool"
                }
              ],
              "internalType": "struct AccessUpdate[]",
              "name": "operators",
              "type": "tuple[]"
            },
            {
              "components": [
                {
                  "internalType": "address",
                  "name": "accessor",
                  "type": "address"
                },
                {
                  "internalType": "bool",
                  "name": "approved",
                  "type": "bool"
                }
              ],
              "internalType": "struct AccessUpdate[]",
              "name": "signers",
              "type": "tuple[]"
            },
            {
              "components": [
                {
                  "internalType": "address",
                  "name": "account",
                  "type": "address"
                },
                {
                  "internalType": "address",
                  "name": "signer",
                  "type": "address"
                },
                {
                  "internalType": "address",
                  "name": "domain",
                  "type": "address"
                },
                {
                  "internalType": "uint256",
                  "name": "nonce",
                  "type": "uint256"
                },
                {
                  "internalType": "uint256",
                  "name": "group",
                  "type": "uint256"
                },
                {
                  "internalType": "uint256",
                  "name": "expiry",
                  "type": "uint256"
                }
              ],
              "internalType": "struct Common",
              "name": "common",
              "type": "tuple"
            }
          ],
          "internalType": "struct AccessUpdateBatch",
          "name": "accessUpdateBatch",
          "type": "tuple"
        },
        {
          "internalType": "bytes",
          "name": "signature",
          "type": "bytes"
        }
      ],
      "name": "verifyAccessUpdateBatch",
      "outputs": [],
      "stateMutability": "nonpayable",
      "type": "function"
    },
    {
      "inputs": [
        {
          "components": [
            {
              "internalType": "address",
              "name": "account",
              "type": "address"
            },
            {
              "internalType": "address",
              "name": "signer",
              "type": "address"
            },
            {
              "internalType": "address",
              "name": "domain",
              "type": "address"
            },
            {
              "internalType": "uint256",
              "name": "nonce",
              "type": "uint256"
            },
            {
              "internalType": "uint256",
              "name": "group",
              "type": "uint256"
            },
            {
              "internalType": "uint256",
              "name": "expiry",
              "type": "uint256"
            }
          ],
          "internalType": "struct Common",
          "name": "common",
          "type": "tuple"
        },
        {
          "internalType": "bytes",
          "name": "signature",
          "type": "bytes"
        }
      ],
      "name": "verifyCommon",
      "outputs": [],
      "stateMutability": "nonpayable",
      "type": "function"
    },
    {
      "inputs": [
        {
          "components": [
            {
              "internalType": "uint256",
              "name": "group",
              "type": "uint256"
            },
            {
              "components": [
                {
                  "internalType": "address",
                  "name": "account",
                  "type": "address"
                },
                {
                  "internalType": "address",
                  "name": "signer",
                  "type": "address"
                },
                {
                  "internalType": "address",
                  "name": "domain",
                  "type": "address"
                },
                {
                  "internalType": "uint256",
                  "name": "nonce",
                  "type": "uint256"
                },
                {
                  "internalType": "uint256",
                  "name": "group",
                  "type": "uint256"
                },
                {
                  "internalType": "uint256",
                  "name": "expiry",
                  "type": "uint256"
                }
              ],
              "internalType": "struct Common",
              "name": "common",
              "type": "tuple"
            }
          ],
          "internalType": "struct GroupCancellation",
          "name": "groupCancellation",
          "type": "tuple"
        },
        {
          "internalType": "bytes",
          "name": "signature",
          "type": "bytes"
        }
      ],
      "name": "verifyGroupCancellation",
      "outputs": [],
      "stateMutability": "nonpayable",
      "type": "function"
    },
    {
      "inputs": [
        {
          "components": [
            {
              "internalType": "Fixed6",
              "name": "amount",
              "type": "int256"
            },
            {
              "internalType": "Fixed6",
              "name": "price",
              "type": "int256"
            },
            {
              "internalType": "UFixed6",
              "name": "fee",
              "type": "uint256"
            },
            {
              "internalType": "address",
              "name": "originator",
              "type": "address"
            },
            {
              "internalType": "address",
              "name": "solver",
              "type": "address"
            },
            {
              "internalType": "UFixed6",
              "name": "collateralization",
              "type": "uint256"
            },
            {
              "components": [
                {
                  "internalType": "address",
                  "name": "account",
                  "type": "address"
                },
                {
                  "internalType": "address",
                  "name": "signer",
                  "type": "address"
                },
                {
                  "internalType": "address",
                  "name": "domain",
                  "type": "address"
                },
                {
                  "internalType": "uint256",
                  "name": "nonce",
                  "type": "uint256"
                },
                {
                  "internalType": "uint256",
                  "name": "group",
                  "type": "uint256"
                },
                {
                  "internalType": "uint256",
                  "name": "expiry",
                  "type": "uint256"
                }
              ],
              "internalType": "struct Common",
              "name": "common",
              "type": "tuple"
            }
          ],
          "internalType": "struct Intent",
          "name": "intent",
          "type": "tuple"
        },
        {
          "internalType": "bytes",
          "name": "signature",
          "type": "bytes"
        }
      ],
      "name": "verifyIntent",
      "outputs": [],
      "stateMutability": "nonpayable",
      "type": "function"
    },
    {
      "inputs": [
        {
          "components": [
            {
              "components": [
                {
                  "internalType": "address",
                  "name": "accessor",
                  "type": "address"
                },
                {
                  "internalType": "bool",
                  "name": "approved",
                  "type": "bool"
                }
              ],
              "internalType": "struct AccessUpdate",
              "name": "access",
              "type": "tuple"
            },
            {
              "components": [
                {
                  "internalType": "address",
                  "name": "account",
                  "type": "address"
                },
                {
                  "internalType": "address",
                  "name": "signer",
                  "type": "address"
                },
                {
                  "internalType": "address",
                  "name": "domain",
                  "type": "address"
                },
                {
                  "internalType": "uint256",
                  "name": "nonce",
                  "type": "uint256"
                },
                {
                  "internalType": "uint256",
                  "name": "group",
                  "type": "uint256"
                },
                {
                  "internalType": "uint256",
                  "name": "expiry",
                  "type": "uint256"
                }
              ],
              "internalType": "struct Common",
              "name": "common",
              "type": "tuple"
            }
          ],
          "internalType": "struct OperatorUpdate",
          "name": "operatorUpdate",
          "type": "tuple"
        },
        {
          "internalType": "bytes",
          "name": "signature",
          "type": "bytes"
        }
      ],
      "name": "verifyOperatorUpdate",
      "outputs": [],
      "stateMutability": "nonpayable",
      "type": "function"
    },
    {
      "inputs": [
        {
          "components": [
            {
              "components": [
                {
                  "internalType": "address",
                  "name": "accessor",
                  "type": "address"
                },
                {
                  "internalType": "bool",
                  "name": "approved",
                  "type": "bool"
                }
              ],
              "internalType": "struct AccessUpdate",
              "name": "access",
              "type": "tuple"
            },
            {
              "components": [
                {
                  "internalType": "address",
                  "name": "account",
                  "type": "address"
                },
                {
                  "internalType": "address",
                  "name": "signer",
                  "type": "address"
                },
                {
                  "internalType": "address",
                  "name": "domain",
                  "type": "address"
                },
                {
                  "internalType": "uint256",
                  "name": "nonce",
                  "type": "uint256"
                },
                {
                  "internalType": "uint256",
                  "name": "group",
                  "type": "uint256"
                },
                {
                  "internalType": "uint256",
                  "name": "expiry",
                  "type": "uint256"
                }
              ],
              "internalType": "struct Common",
              "name": "common",
              "type": "tuple"
            }
          ],
          "internalType": "struct SignerUpdate",
          "name": "signerUpdate",
          "type": "tuple"
        },
        {
          "internalType": "bytes",
          "name": "signature",
          "type": "bytes"
        }
      ],
      "name": "verifySignerUpdate",
      "outputs": [],
      "stateMutability": "nonpayable",
      "type": "function"
    }
  ],
  "transactionHash": "0xf2b24354c4e1dee1dbca5776316d91d6ca1c1a6697ff3fb09f3dcb10c21fa89f",
  "args": [],
  "numDeployments": 1,
  "solcInputHash": "345aa42b382a18d880d44eca35498289",
  "bytecode": "0x61014080604052346200012a5762000017816200012e565b600981526005602082016814195c995b9b9a585b60ba1b8152602060405162000040816200012e565b8381520192640312e302e360dc1b845251902091208160e052610100918183524660a0526040519160208301907f8b73c3c69bb8fe3d512ecc4cf759cc79239f7b179b0ffacaa9a75d522b39400f92838352604085015260608401524660808401523060a084015260a0835260c083019280841060018060401b038511176200011657836040525190206080523060c0526101209081526121a592836200014b843960805183611f79015260a0518361202e015260c05183611f4a015260e05183611fc801525182611fee01525181611fa50152f35b634e487b7160e01b5f52604160045260245ffd5b5f80fd5b604081019081106001600160401b03821117620001165760405256fe608080604052600480361015610013575f80fd5b5f915f3560e01c90816306ae7095146114b0575080630ac70fc51461143c5780630dd6ae6d1461124a5780630fd9911c1461110a5780633a1505ca14611078578063502e1a16146110045780635f2d6ed714610b915780636f7f07fd146109cb57828163715a86c5146109115750806372b2611b1461072f578063c4d66de814610602578063c681faa5146105c7578063cfdd7aea146105895763e5586705146100bb575f80fd5b34610585577ffffffffffffffffffffffffffffffffffffffffffffffffffffffffffffffffc6040813601126105815781359067ffffffffffffffff908183116105795761010090833603011261057d57602435818111610579576101239036908501611542565b916044840190610132826116bd565b9061014a6064870192610144846116bd565b90611a27565b156105505761015b608487016116bd565b73ffffffffffffffffffffffffffffffffffffffff90813391160361052757604186036104fe578061018c856116bd565b16895260209289845260408a209160a489013592838c52855260ff60408c2054166104d5576101ba866116bd565b168a526001916001855260408b2060c48a01358c52855260ff60408c2054166104ac5760e489013542101561048357906101ff610204926101fa886116bd565b611aea565b6116bd565b9660405190606082018281108582111761045757604052808a013584811161045357610235908b36918401016119b8565b82526024810135848111610453576102598c939794928c61026793369201016119b8565b9386880194855236906117b4565b92604087019384528161027b885151611e77565b9781610288845151611e77565b95905b610421575b50508c905b6103e6575b5050506103149060405195866102b38782018093611f07565b03966102e57fffffffffffffffffffffffffffffffffffffffffffffffffffffffffffffffe098898101835282611773565b5190209561030a60405191826102fe8982018096611f07565b03908101835282611773565b5190209151611b6a565b90604051938401947f6bf47d762f457a26b6f7e6be836856f95888671ed6748cc345cdaf34c06d63df86526040850152606084015260808301526080825260a0820190828210908211176103ba576040525190206103899392916103839161037b90611c12565b923691611853565b91611c64565b15610392575080f35b6040517ffec563a0000000000000000000000000000000000000000000000000000000008152fd5b6041877f4e487b71000000000000000000000000000000000000000000000000000000005f525260245ffd5b8151805182101561041b57816104086104028695948694611ec6565b51612085565b6104128288611ec6565b52019091610295565b5061029a565b8151805182101561044d579061043b610402828694611ec6565b610445828d611ec6565b52018261028b565b50610290565b8b80fd5b60418b7f4e487b71000000000000000000000000000000000000000000000000000000005f525260245ffd5b896040517f27661908000000000000000000000000000000000000000000000000000000008152fd5b896040517f79998279000000000000000000000000000000000000000000000000000000008152fd5b896040517fe6784f14000000000000000000000000000000000000000000000000000000008152fd5b876040517fb09262f6000000000000000000000000000000000000000000000000000000008152fd5b876040517fa568ee00000000000000000000000000000000000000000000000000000000008152fd5b866040517ffec563a0000000000000000000000000000000000000000000000000000000008152fd5b8480fd5b8380fd5b8280fd5b5080fd5b50346105855760207ffffffffffffffffffffffffffffffffffffffffffffffffffffffffffffffffc360112610585576105c4903533611aea565b80f35b50346105855760207ffffffffffffffffffffffffffffffffffffffffffffffffffffffffffffffffc360112610585576105c4903533611df6565b50346105855760207ffffffffffffffffffffffffffffffffffffffffffffffffffffffffffffffffc3601126105855780359073ffffffffffffffffffffffffffffffffffffffff8216809203610581577f6fee9688c285c5c5c97d6a1a29adced674e6b2ad0888b8ad2116b58a8b3ea248906001825410156106fe5750600190557fffffffffffffffffffffffff00000000000000000000000000000000000000006002541617600255807f2801b00eb06461cf9fcb9758b5fafd884ff06a86177386f73b6c49f0bf5a5af0557fbe9b076dc5b65990cca9dd9d7366682482e7817a6f6bc7f4faf4dc32af497f32602060405160018152a180f35b6024906001604051917f3db738da000000000000000000000000000000000000000000000000000000008352820152fd5b50346105855761073e36611621565b60208084019261074d846116bd565b61075e6040870191610144836116bd565b156105505761076f606087016116bd565b73ffffffffffffffffffffffffffffffffffffffff90813391160361052757604185036104fe57806107a0876116bd565b1689528884526040892090608088013591828b52855260ff60408b2054166108e8576107cb876116bd565b168952600184526040892060a08801358a52845260ff60408a2054166108bf5760c087013542101561089657906101ff610808926101fa886116bd565b9360e08636031261089257610389956103839361084961083c61037b94604051946108328661171f565b35855236906117b4565b9283838201525192611b6a565b604051918201927fb1e7b94d1ec06aba73ba4e4de3dab5ac2d404759099626e9870ea2ed8c03928c8452604083015260608201526060815261088a81611757565b519020611c12565b8780fd5b876040517f27661908000000000000000000000000000000000000000000000000000000008152fd5b876040517f79998279000000000000000000000000000000000000000000000000000000008152fd5b886040517fe6784f14000000000000000000000000000000000000000000000000000000008152fd5b8083346109c85761092136611621565b9391303b15610581576020839161098560405194859384937f72b2611b0000000000000000000000000000000000000000000000000000000085528035809a8601520198610972602485018b6118fc565b61010060e4850152610104840191611962565b038183305af180156109bd576109a9575b50506109a46105c4926116bd565b611df6565b6109b2906116de565b610581578284610996565b6040513d84823e3d90fd5b50fd5b5034610585576109da366115c9565b90604083016109e8816116bd565b6109f96060860191610144836116bd565b15610b6857610a0a608086016116bd565b73ffffffffffffffffffffffffffffffffffffffff908133911603610b3f5760418503610b165780610a3b846116bd565b168852602092888452604089209160a088013592838b52855260ff60408b2054166108e857610a69826116bd565b168952600184526040892060c08801358a52845260ff60408a2054166108bf5760e08701354210156108965792610abe610ab6610389989796946101ff61037b956101fa610383996116bd565b9636906118c2565b90610ad581610acd8451612085565b930151611b6a565b604051918201927f5f91f030fe5f8643d87a7eb661df7abd89b23d6a5c3db93a3c2ad56a46e0112e8452604083015260608201526060815261088a81611757565b866040517fb09262f6000000000000000000000000000000000000000000000000000000008152fd5b866040517fa568ee00000000000000000000000000000000000000000000000000000000008152fd5b856040517ffec563a0000000000000000000000000000000000000000000000000000000008152fd5b5034610585577ffffffffffffffffffffffffffffffffffffffffffffffffffffffffffffffffc36016101a081126105815761018013610585576101843567ffffffffffffffff811161058157610beb9036908301611542565b610bfe610bf6611677565b61014461169a565b15610fdb5773ffffffffffffffffffffffffffffffffffffffff6101043516806101043503610ede573303610fb25760418103610f895773ffffffffffffffffffffffffffffffffffffffff610c52611677565b168452836020526040842061012435855260205260ff604085205416610f605773ffffffffffffffffffffffffffffffffffffffff610c8f611677565b16845260016020526040842061014435855260205260ff604085205416610f375761016435421015610f0e57610cca610124356101fa611677565b610cd261169a565b9160405160e0810181811067ffffffffffffffff821117610ee257604052843581526024356020820152604435604082015260643573ffffffffffffffffffffffffffffffffffffffff81168103610ede57606082015273ffffffffffffffffffffffffffffffffffffffff6084351660843503610ede57608435608082015260a43560a082015260c07fffffffffffffffffffffffffffffffffffffffffffffffffffffffffffffff3c360112610ede57604051610d908161173b565b60c43573ffffffffffffffffffffffffffffffffffffffff81168103610ede57815273ffffffffffffffffffffffffffffffffffffffff60e4351660e43503610ede5760e43560208201526101043560408201526101243560608201526101443560808201526101643560a08201528060c083015281519160208101519160408201519173ffffffffffffffffffffffffffffffffffffffff606082015116610e5860a073ffffffffffffffffffffffffffffffffffffffff60808501511693015193611b6a565b936040519560208701977f5d21ec11e54721a256a5c5035977bd1f653eb333581872a40e2863d8d0f2bba4895260408801526060870152608086015260a085015260c084015260e083015261010090818301528152610120810181811067ffffffffffffffff8211176103ba576040525190206103899392916103839161037b90611c12565b5f80fd5b6041867f4e487b71000000000000000000000000000000000000000000000000000000005f525260245ffd5b826040517f27661908000000000000000000000000000000000000000000000000000000008152fd5b826040517f79998279000000000000000000000000000000000000000000000000000000008152fd5b826040517fe6784f14000000000000000000000000000000000000000000000000000000008152fd5b826040517fb09262f6000000000000000000000000000000000000000000000000000000008152fd5b826040517fa568ee00000000000000000000000000000000000000000000000000000000008152fd5b826040517ffec563a0000000000000000000000000000000000000000000000000000000008152fd5b82346110755760407ffffffffffffffffffffffffffffffffffffffffffffffffffffffffffffffffc3601126110755760ff604060209273ffffffffffffffffffffffffffffffffffffffff6110586114fe565b168152808452818120602435825284522054166040519015158152f35b80fd5b5034610ede5761108736611570565b92919091303b15610ede576110df5f936110ce9560405196879586957f0dd6ae6d0000000000000000000000000000000000000000000000000000000087528601906118fc565b60e060c485015260e4840191611962565b038183305af180156110ff576110f3575080f35b6110fd91506116de565b005b6040513d5f823e3d90fd5b5034610ede57611119366115c9565b604083019291611128846116bd565b9061113a6060850192610144846116bd565b15610b685761114b608085016116bd565b9173ffffffffffffffffffffffffffffffffffffffff928333911603610b3f5760418403610b16578261117d876116bd565b165f5260205f815260405f209360a087013594855f52825260ff60405f2054166108e8576111aa886116bd565b165f526001815260405f2060c08701355f52815260ff60405f2054166108bf5760e0860135421015610896576111f3610ab661037b936101ff610383976101fa6112439c6116bd565b9061120281610acd8451612085565b604051918201927f3cfd5b001295d3d66254ffbbc1174a8cff37cba4833b04b5ae988ce63a03e2a58452604083015260608201526060815261088a81611757565b1561039257005b5034610ede5761125936611570565b6112648392936116bd565b926112766020840194610144866116bd565b1561141357611287604084016116bd565b9073ffffffffffffffffffffffffffffffffffffffff9182339116036113ea57604183036113c157816112b9856116bd565b165f525f60205260405f2091606085013592835f5260205260ff60405f205416611398576112e6856116bd565b165f52600160205260405f2060808501355f5260205260ff60405f20541661136f5760a08401354210156113465761037b61134161133c611334611243986101ff610383976101fa8b6116bd565b9636906117b4565b611b6a565b611c12565b856040517f27661908000000000000000000000000000000000000000000000000000000008152fd5b856040517f79998279000000000000000000000000000000000000000000000000000000008152fd5b866040517fe6784f14000000000000000000000000000000000000000000000000000000008152fd5b856040517fb09262f6000000000000000000000000000000000000000000000000000000008152fd5b856040517fa568ee00000000000000000000000000000000000000000000000000000000008152fd5b846040517ffec563a0000000000000000000000000000000000000000000000000000000008152fd5b34610ede5760407ffffffffffffffffffffffffffffffffffffffffffffffffffffffffffffffffc360112610ede5773ffffffffffffffffffffffffffffffffffffffff6114886114fe565b165f52600160205260405f206024355f52602052602060ff60405f2054166040519015158152f35b34610ede575f7ffffffffffffffffffffffffffffffffffffffffffffffffffffffffffffffffc360112610ede5760209073ffffffffffffffffffffffffffffffffffffffff600254168152f35b6004359073ffffffffffffffffffffffffffffffffffffffff82168203610ede57565b359073ffffffffffffffffffffffffffffffffffffffff82168203610ede57565b9181601f84011215610ede5782359167ffffffffffffffff8311610ede5760208381860195010111610ede57565b907ffffffffffffffffffffffffffffffffffffffffffffffffffffffffffffffffc820160e08112610ede5760c013610ede5760049160c4359067ffffffffffffffff8211610ede576115c591600401611542565b9091565b907ffffffffffffffffffffffffffffffffffffffffffffffffffffffffffffffffc82016101208112610ede5761010013610ede57600491610104359067ffffffffffffffff8211610ede576115c591600401611542565b907ffffffffffffffffffffffffffffffffffffffffffffffffffffffffffffffffc82016101008112610ede5760e013610ede5760049160e4359067ffffffffffffffff8211610ede576115c591600401611542565b60c43573ffffffffffffffffffffffffffffffffffffffff81168103610ede5790565b60e43573ffffffffffffffffffffffffffffffffffffffff81168103610ede5790565b3573ffffffffffffffffffffffffffffffffffffffff81168103610ede5790565b67ffffffffffffffff81116116f257604052565b7f4e487b71000000000000000000000000000000000000000000000000000000005f52604160045260245ffd5b6040810190811067ffffffffffffffff8211176116f257604052565b60c0810190811067ffffffffffffffff8211176116f257604052565b6080810190811067ffffffffffffffff8211176116f257604052565b90601f7fffffffffffffffffffffffffffffffffffffffffffffffffffffffffffffffe0910116810190811067ffffffffffffffff8211176116f257604052565b91908260c0910312610ede576040516117cc8161173b565b60a08082946117da81611521565b84526117e860208201611521565b60208501526117f960408201611521565b604085015260608101356060850152608081013560808501520135910152565b67ffffffffffffffff81116116f257601f017fffffffffffffffffffffffffffffffffffffffffffffffffffffffffffffffe01660200190565b92919261185f82611819565b9161186d6040519384611773565b829481845281830111610ede578281602093845f960137010152565b9190826040910312610ede576040516118a18161171f565b602081936118ae81611521565b83520135908115158203610ede5760200152565b919061010083820312610ede5760206118f7604051926118e18461171f565b604084966118ef8382611889565b8652016117b4565b910152565b60a0809173ffffffffffffffffffffffffffffffffffffffff8061191f83611521565b1685528061192f60208401611521565b16602086015261194160408301611521565b16604085015260608101356060850152608081013560808501520135910152565b601f82602094937fffffffffffffffffffffffffffffffffffffffffffffffffffffffffffffffe093818652868601375f8582860101520116010190565b67ffffffffffffffff81116116f25760051b60200190565b9080601f83011215610ede5781359160206119d2846119a0565b936040936119e36040519687611773565b81865260208087019260061b85010193818511610ede57602001915b848310611a0f5750505050505090565b838691611a1c8486611889565b8152019201916119ff565b73ffffffffffffffffffffffffffffffffffffffff80809316911690808214928315611a54575b50505090565b6020929350604490600254169360405194859384927fbd9ee66b000000000000000000000000000000000000000000000000000000008452600484015260248301525afa9081156110ff575f91611aaf575b505f8080611a4e565b90506020813d602011611ae2575b81611aca60209383611773565b81010312610ede57518015158103610ede575f611aa6565b3d9150611abd565b602073ffffffffffffffffffffffffffffffffffffffff7f26ccf9904b9b2fb069d347553978928fd2fc65efb2638dcbeb8d142e974479f0921692835f525f825260405f20815f52825260405f2060017fffffffffffffffffffffffffffffffffffffffffffffffffffffffffffffff00825416179055604051908152a2565b73ffffffffffffffffffffffffffffffffffffffff8082511691816020820151169160408201511690606081015160a06080830151920151926040519460208601967fb4055fcf718c8a3df3ed57fdd24994f9e7fd59b92cb4de2ace2999762b0865b0885260408701526060860152608085015260a084015260c083015260e082015260e08152610100810181811067ffffffffffffffff8211176116f25760405251902090565b611c1a611f33565b906040519060208201927f190100000000000000000000000000000000000000000000000000000000000084526022830152604282015260428152611c5e81611757565b51902090565b611c6e8383612054565b6005811015611dc957159081611da6575b50611d9e5760405192602093848101917f1626ba7e0000000000000000000000000000000000000000000000000000000094858452602483015260406044830152805190816064840152865f5b838110611d89575050509181611d1f6084827fffffffffffffffffffffffffffffffffffffffffffffffffffffffffffffffe0601f885f85819c9a9b829c01015201168101036064810184520182611773565b51915afa913d15611d82573d611d3481611819565b90611d426040519283611773565b81523d5f8383013e5b83611d77575b83611d5c5750505090565b908092935081805181010312610ede570151145f8080611a4e565b805182149350611d51565b6060611d4b565b81818401015160848287010152018790611ccc565b505050600190565b905073ffffffffffffffffffffffffffffffffffffffff8083169116145f611c7f565b7f4e487b71000000000000000000000000000000000000000000000000000000005f52602160045260245ffd5b602073ffffffffffffffffffffffffffffffffffffffff7feff4aa307383ba25c9ed91f870e99276c37c0de7d8d2099bf7f06848ad69811a921692835f526001825260405f20815f52825260405f2060017fffffffffffffffffffffffffffffffffffffffffffffffffffffffffffffff00825416179055604051908152a2565b90611e81826119a0565b611e8e6040519182611773565b8281527fffffffffffffffffffffffffffffffffffffffffffffffffffffffffffffffe0611ebc82946119a0565b0190602036910137565b8051821015611eda5760209160051b010190565b7f4e487b71000000000000000000000000000000000000000000000000000000005f52603260045260245ffd5b80516020809201915f5b828110611f1f575050505090565b835185529381019392810192600101611f11565b73ffffffffffffffffffffffffffffffffffffffff7f00000000000000000000000000000000000000000000000000000000000000001630148061202b575b15611f9b577f000000000000000000000000000000000000000000000000000000000000000090565b60405160208101907f000000000000000000000000000000000000000000000000000000000000000082527f000000000000000000000000000000000000000000000000000000000000000060408201527f000000000000000000000000000000000000000000000000000000000000000060608201524660808201523060a082015260a08152611c5e8161173b565b507f00000000000000000000000000000000000000000000000000000000000000004614611f72565b9060418151145f1461207c576115c591602082015190606060408401519301515f1a906120e7565b50505f90600290565b602073ffffffffffffffffffffffffffffffffffffffff82511691015115156040519060208201927f4d29c908d0cf5cfdae041152d8523682cf4817fb676d058c311f235625e50f1984526040830152606082015260608152611c5e81611757565b7f7fffffffffffffffffffffffffffffff5d576e7357a4501ddfe92f46681b20a08411612164576020935f9360ff60809460405194855216868401526040830152606082015282805260015afa156110ff575f5173ffffffffffffffffffffffffffffffffffffffff81161561215c57905f90565b505f90600190565b505050505f9060039056fea264697066735822122054d65fb83569b099321e5265b1d193d000bd63722cf38f28a594cc819a59536a64736f6c63430008180033",
  "devdoc": {
    "details": "Handles nonce management for verified messages.       - nonce is a single use unique value per message that is invalidated after use       - group allows for an entire set of messages to be invalidated via a single cancel operation      Messages verification request must come from the domain address if it is set.       - In the case of intent / fills, this means that the market should be set as the domain.",
    "errors": {
      "VerifierInvalidDomainError()": [
        {
          "custom:error": "Message was meant for another protocol, version, or chain"
        }
      ],
      "VerifierInvalidExpiryError()": [
        {
          "custom:error": "Block timestamp has exceeded user-assigned expiration"
        }
      ],
      "VerifierInvalidGroupError()": [
        {
          "custom:error": "Group nonce has already been used"
        }
      ],
      "VerifierInvalidNonceError()": [
        {
          "custom:error": "Nonce has already been used"
        }
      ],
      "VerifierInvalidSignatureError()": [
        {
          "custom:error": "Signature length was unexpected"
        }
      ],
      "VerifierInvalidSignerError()": [
        {
          "custom:error": "Signer is trying to cancel a nonce for another user"
        }
      ]
    },
    "kind": "dev",
    "methods": {
      "cancelGroup(uint256)": {
        "params": {
          "group": "The group nonce to cancel"
        }
      },
      "cancelGroupWithSignature((uint256,(address,address,address,uint256,uint256,uint256)),bytes)": {
        "params": {
          "groupCancellation": "The group cancellation message",
          "signature": "The signature of the account for the group cancellation"
        }
      },
      "cancelNonce(uint256)": {
        "params": {
          "nonce": "The nonce to cancel"
        }
      },
      "cancelNonceWithSignature((address,address,address,uint256,uint256,uint256),bytes)": {
        "details": "Process a no-op message that will invalidate the specified nonce",
        "params": {
          "common": "The common data of the message",
          "signature": "The signature of the account for the message"
        }
      },
      "constructor": {
        "details": "Initializes the domain separator and parameter caches"
      },
      "initialize(address)": {
        "params": {
          "marketFactory_": "The market factory"
        }
      },
      "verifyAccessUpdateBatch(((address,bool)[],(address,bool)[],(address,address,address,uint256,uint256,uint256)),bytes)": {
        "details": "Cancels the nonce after verifying the signature      Reverts if the signature does not match the signer",
        "params": {
          "accessUpdateBatch": "The batch access update (operator and signer) message to verify",
          "signature": "The signature of the account for the batch access update"
        }
      },
      "verifyCommon((address,address,address,uint256,uint256,uint256),bytes)": {
        "details": "Cancels the nonce after verifying the signature      Reverts if the signature does not match the signer",
        "params": {
          "common": "The common data of the message",
          "signature": "The signature of the account for the message"
        }
      },
      "verifyGroupCancellation((uint256,(address,address,address,uint256,uint256,uint256)),bytes)": {
        "details": "Cancels the nonce after verifying the signature      Reverts if the signature does not match the signer",
        "params": {
          "groupCancellation": "The group cancellation to verify",
          "signature": "The signature of the account for the group cancellation"
        }
      },
      "verifyIntent((int256,int256,uint256,address,address,uint256,(address,address,address,uint256,uint256,uint256)),bytes)": {
        "details": "Cancels the nonce after verifying the signature      Reverts if the signature does not match the signer",
        "params": {
          "intent": "The intent order to verify",
          "signature": "The signature of the taker for the intent order"
        }
      },
      "verifyOperatorUpdate(((address,bool),(address,address,address,uint256,uint256,uint256)),bytes)": {
        "details": "Cancels the nonce after verifying the signature      Reverts if the signature does not match the signer",
        "params": {
          "operatorUpdate": "The operator update message to verify",
          "signature": "The signature of the account for the operator update"
        }
      },
      "verifySignerUpdate(((address,bool),(address,address,address,uint256,uint256,uint256)),bytes)": {
        "details": "Cancels the nonce after verifying the signature      Reverts if the signature does not match the signer",
        "params": {
          "signature": "The signature of the account for the signer update",
          "signerUpdate": "The signer update message to verify"
        }
      }
    },
    "stateVariables": {
      "marketFactory": {
        "details": "market factory to check authorization"
      }
    },
    "title": "Verifier",
    "version": 1
  },
  "userdoc": {
    "events": {
      "GroupCancelled(address,uint256)": {
        "notice": "Emitted when a group nonce is cancelled"
      },
      "NonceCancelled(address,uint256)": {
        "notice": "Emitted when a nonce is cancelled"
      }
    },
    "kind": "user",
    "methods": {
      "cancelGroup(uint256)": {
        "notice": "Cancels a group nonce"
      },
      "cancelGroupWithSignature((uint256,(address,address,address,uint256,uint256,uint256)),bytes)": {
        "notice": "Cancels a group for an account via a signed message"
      },
      "cancelNonce(uint256)": {
        "notice": "Cancels a nonce"
      },
      "cancelNonceWithSignature((address,address,address,uint256,uint256,uint256),bytes)": {
        "notice": "Cancels a nonce for an account via a signed message"
      },
      "groups(address,uint256)": {
        "notice": "Returns whether the group nonce has been cancelled"
      },
      "initialize(address)": {
        "notice": "Initializes the contract state"
      },
      "nonces(address,uint256)": {
        "notice": "Returns whether the nonce has been cancelled"
      },
      "verifyAccessUpdateBatch(((address,bool)[],(address,bool)[],(address,address,address,uint256,uint256,uint256)),bytes)": {
        "notice": "Verifies the signature of an access update batch type"
      },
      "verifyCommon((address,address,address,uint256,uint256,uint256),bytes)": {
        "notice": "Verifies the signature of no-op common message"
      },
      "verifyGroupCancellation((uint256,(address,address,address,uint256,uint256,uint256)),bytes)": {
        "notice": "Verifies the signature of a group cancellation type"
      },
      "verifyIntent((int256,int256,uint256,address,address,uint256,(address,address,address,uint256,uint256,uint256)),bytes)": {
        "notice": "Verifies the signature of an intent order type"
      },
      "verifyOperatorUpdate(((address,bool),(address,address,address,uint256,uint256,uint256)),bytes)": {
        "notice": "Verifies the signature of a operator update type"
      },
      "verifySignerUpdate(((address,bool),(address,address,address,uint256,uint256,uint256)),bytes)": {
        "notice": "Verifies the signature of a signer update type"
      }
    },
    "notice": "Singleton ERC712 signed message verifier for the Perennial protocol.",
    "version": 1
  },
  "storageLayout": {
    "storage": [
      {
        "astId": 7842,
        "contract": "@perennial/verifier/contracts/Verifier.sol:Verifier",
        "label": "nonces",
        "offset": 0,
        "slot": "0",
        "type": "t_mapping(t_address,t_mapping(t_uint256,t_bool))"
      },
      {
        "astId": 7849,
        "contract": "@perennial/verifier/contracts/Verifier.sol:Verifier",
        "label": "groups",
        "offset": 0,
        "slot": "1",
        "type": "t_mapping(t_address,t_mapping(t_uint256,t_bool))"
      },
      {
        "astId": 51256,
        "contract": "@perennial/verifier/contracts/Verifier.sol:Verifier",
        "label": "marketFactory",
        "offset": 0,
        "slot": "2",
        "type": "t_contract(IMarketFactorySigners)51450"
      }
    ],
    "types": {
      "t_address": {
        "encoding": "inplace",
        "label": "address",
        "numberOfBytes": "20"
      },
      "t_bool": {
        "encoding": "inplace",
        "label": "bool",
        "numberOfBytes": "1"
      },
      "t_contract(IMarketFactorySigners)51450": {
        "encoding": "inplace",
        "label": "contract IMarketFactorySigners",
        "numberOfBytes": "20"
      },
      "t_mapping(t_address,t_mapping(t_uint256,t_bool))": {
        "encoding": "mapping",
        "key": "t_address",
        "label": "mapping(address => mapping(uint256 => bool))",
        "numberOfBytes": "32",
        "value": "t_mapping(t_uint256,t_bool)"
      },
      "t_mapping(t_uint256,t_bool)": {
        "encoding": "mapping",
        "key": "t_uint256",
        "label": "mapping(uint256 => bool)",
        "numberOfBytes": "32",
        "value": "t_bool"
      },
      "t_uint256": {
        "encoding": "inplace",
        "label": "uint256",
        "numberOfBytes": "32"
      }
    }
  }
}